{
	"0x7cec6f214afabc001b316c949d64cb0d0b18b652-TaxableERC20/TaxableERC20.sol": {
		"TaxableERC20": {
			"abi": [
				{
					"inputs": [
						{
							"internalType": "string",
							"name": "name_",
							"type": "string"
						},
						{
							"internalType": "string",
							"name": "symbol_",
							"type": "string"
						},
						{
							"internalType": "uint8",
							"name": "decimals_",
							"type": "uint8"
						},
						{
							"internalType": "uint256",
							"name": "initialBalance_",
							"type": "uint256"
						},
						{
							"internalType": "uint256",
							"name": "taxFeePerMille_",
							"type": "uint256"
						},
						{
							"internalType": "address",
							"name": "taxAddress_",
							"type": "address"
						},
						{
							"internalType": "bytes",
							"name": "signature_",
							"type": "bytes"
						},
						{
							"internalType": "address payable",
							"name": "feeReceiver_",
							"type": "address"
						}
					],
					"stateMutability": "payable",
					"type": "constructor"
				},
				{
					"anonymous": false,
					"inputs": [
						{
							"indexed": true,
							"internalType": "address",
							"name": "owner",
							"type": "address"
						},
						{
							"indexed": true,
							"internalType": "address",
							"name": "spender",
							"type": "address"
						},
						{
							"indexed": false,
							"internalType": "uint256",
							"name": "value",
							"type": "uint256"
						}
					],
					"name": "Approval",
					"type": "event"
				},
				{
					"anonymous": false,
					"inputs": [
						{
							"indexed": true,
							"internalType": "address",
							"name": "previousOwner",
							"type": "address"
						},
						{
							"indexed": true,
							"internalType": "address",
							"name": "newOwner",
							"type": "address"
						}
					],
					"name": "OwnershipTransferred",
					"type": "event"
				},
				{
					"anonymous": false,
					"inputs": [
						{
							"indexed": true,
							"internalType": "address",
							"name": "from",
							"type": "address"
						},
						{
							"indexed": true,
							"internalType": "address",
							"name": "to",
							"type": "address"
						},
						{
							"indexed": false,
							"internalType": "uint256",
							"name": "value",
							"type": "uint256"
						}
					],
					"name": "Transfer",
					"type": "event"
				},
				{
					"inputs": [
						{
							"internalType": "address",
							"name": "owner",
							"type": "address"
						},
						{
							"internalType": "address",
							"name": "spender",
							"type": "address"
						}
					],
					"name": "allowance",
					"outputs": [
						{
							"internalType": "uint256",
							"name": "",
							"type": "uint256"
						}
					],
					"stateMutability": "view",
					"type": "function"
				},
				{
					"inputs": [
						{
							"internalType": "address",
							"name": "spender",
							"type": "address"
						},
						{
							"internalType": "uint256",
							"name": "amount",
							"type": "uint256"
						}
					],
					"name": "approve",
					"outputs": [
						{
							"internalType": "bool",
							"name": "",
							"type": "bool"
						}
					],
					"stateMutability": "nonpayable",
					"type": "function"
				},
				{
					"inputs": [
						{
							"internalType": "address",
							"name": "account",
							"type": "address"
						}
					],
					"name": "balanceOf",
					"outputs": [
						{
							"internalType": "uint256",
							"name": "",
							"type": "uint256"
						}
					],
					"stateMutability": "view",
					"type": "function"
				},
				{
					"inputs": [],
					"name": "decimals",
					"outputs": [
						{
							"internalType": "uint8",
							"name": "",
							"type": "uint8"
						}
					],
					"stateMutability": "view",
					"type": "function"
				},
				{
					"inputs": [
						{
							"internalType": "address",
							"name": "spender",
							"type": "address"
						},
						{
							"internalType": "uint256",
							"name": "subtractedValue",
							"type": "uint256"
						}
					],
					"name": "decreaseAllowance",
					"outputs": [
						{
							"internalType": "bool",
							"name": "",
							"type": "bool"
						}
					],
					"stateMutability": "nonpayable",
					"type": "function"
				},
				{
					"inputs": [
						{
							"internalType": "address",
							"name": "spender",
							"type": "address"
						},
						{
							"internalType": "uint256",
							"name": "addedValue",
							"type": "uint256"
						}
					],
					"name": "increaseAllowance",
					"outputs": [
						{
							"internalType": "bool",
							"name": "",
							"type": "bool"
						}
					],
					"stateMutability": "nonpayable",
					"type": "function"
				},
				{
					"inputs": [
						{
							"internalType": "address",
							"name": "account",
							"type": "address"
						}
					],
					"name": "isExcludedFromTaxFee",
					"outputs": [
						{
							"internalType": "bool",
							"name": "",
							"type": "bool"
						}
					],
					"stateMutability": "view",
					"type": "function"
				},
				{
					"inputs": [],
					"name": "name",
					"outputs": [
						{
							"internalType": "string",
							"name": "",
							"type": "string"
						}
					],
					"stateMutability": "view",
					"type": "function"
				},
				{
					"inputs": [],
					"name": "owner",
					"outputs": [
						{
							"internalType": "address",
							"name": "",
							"type": "address"
						}
					],
					"stateMutability": "view",
					"type": "function"
				},
				{
					"inputs": [],
					"name": "renounceOwnership",
					"outputs": [],
					"stateMutability": "nonpayable",
					"type": "function"
				},
				{
					"inputs": [
						{
							"internalType": "address",
							"name": "account",
							"type": "address"
						},
						{
							"internalType": "bool",
							"name": "status",
							"type": "bool"
						}
					],
					"name": "setExclusionFromTaxFee",
					"outputs": [],
					"stateMutability": "nonpayable",
					"type": "function"
				},
				{
					"inputs": [
						{
							"internalType": "address",
							"name": "taxAddress",
							"type": "address"
						}
					],
					"name": "setTaxAddress",
					"outputs": [],
					"stateMutability": "nonpayable",
					"type": "function"
				},
				{
					"inputs": [
						{
							"internalType": "uint256",
							"name": "taxFeePerMille",
							"type": "uint256"
						}
					],
					"name": "setTaxFeePerMille",
					"outputs": [],
					"stateMutability": "nonpayable",
					"type": "function"
				},
				{
					"inputs": [],
					"name": "symbol",
					"outputs": [
						{
							"internalType": "string",
							"name": "",
							"type": "string"
						}
					],
					"stateMutability": "view",
					"type": "function"
				},
				{
					"inputs": [],
					"name": "taxAddress",
					"outputs": [
						{
							"internalType": "address",
							"name": "",
							"type": "address"
						}
					],
					"stateMutability": "view",
					"type": "function"
				},
				{
					"inputs": [],
					"name": "taxFeePerMille",
					"outputs": [
						{
							"internalType": "uint256",
							"name": "",
							"type": "uint256"
						}
					],
					"stateMutability": "view",
					"type": "function"
				},
				{
					"inputs": [],
					"name": "totalSupply",
					"outputs": [
						{
							"internalType": "uint256",
							"name": "",
							"type": "uint256"
						}
					],
					"stateMutability": "view",
					"type": "function"
				},
				{
					"inputs": [
						{
							"internalType": "address",
							"name": "to",
							"type": "address"
						},
						{
							"internalType": "uint256",
							"name": "amount",
							"type": "uint256"
						}
					],
					"name": "transfer",
					"outputs": [
						{
							"internalType": "bool",
							"name": "",
							"type": "bool"
						}
					],
					"stateMutability": "nonpayable",
					"type": "function"
				},
				{
					"inputs": [
						{
							"internalType": "address",
							"name": "from",
							"type": "address"
						},
						{
							"internalType": "address",
							"name": "to",
							"type": "address"
						},
						{
							"internalType": "uint256",
							"name": "amount",
							"type": "uint256"
						}
					],
					"name": "transferFrom",
					"outputs": [
						{
							"internalType": "bool",
							"name": "",
							"type": "bool"
						}
					],
					"stateMutability": "nonpayable",
					"type": "function"
				},
				{
					"inputs": [
						{
							"internalType": "address",
							"name": "newOwner",
							"type": "address"
						}
					],
					"name": "transferOwnership",
					"outputs": [],
					"stateMutability": "nonpayable",
					"type": "function"
				}
			],
			"devdoc": {
				"details": "Implementation of the TaxableERC20",
				"events": {
					"Approval(address,address,uint256)": {
						"details": "Emitted when the allowance of a `spender` for an `owner` is set by a call to {approve}. `value` is the new allowance."
					},
					"Transfer(address,address,uint256)": {
						"details": "Emitted when `value` tokens are moved from one account (`from`) to another (`to`). Note that `value` may be zero."
					}
				},
				"kind": "dev",
				"methods": {
					"allowance(address,address)": {
						"details": "See {IERC20-allowance}."
					},
					"approve(address,uint256)": {
						"details": "See {IERC20-approve}. NOTE: If `amount` is the maximum `uint256`, the allowance is not updated on `transferFrom`. This is semantically equivalent to an infinite approval. Requirements: - `spender` cannot be the zero address."
					},
					"balanceOf(address)": {
						"details": "See {IERC20-balanceOf}."
					},
					"decreaseAllowance(address,uint256)": {
						"details": "Atomically decreases the allowance granted to `spender` by the caller. This is an alternative to {approve} that can be used as a mitigation for problems described in {IERC20-approve}. Emits an {Approval} event indicating the updated allowance. Requirements: - `spender` cannot be the zero address. - `spender` must have allowance for the caller of at least `subtractedValue`."
					},
					"increaseAllowance(address,uint256)": {
						"details": "Atomically increases the allowance granted to `spender` by the caller. This is an alternative to {approve} that can be used as a mitigation for problems described in {IERC20-approve}. Emits an {Approval} event indicating the updated allowance. Requirements: - `spender` cannot be the zero address."
					},
					"isExcludedFromTaxFee(address)": {
						"details": "Returns the status of exclusion from tax fee mechanism for a given account."
					},
					"name()": {
						"details": "Returns the name of the token."
					},
					"owner()": {
						"details": "Returns the address of the current owner."
					},
					"renounceOwnership()": {
						"details": "Leaves the contract without owner. It will not be possible to call `onlyOwner` functions anymore. Can only be called by the current owner. NOTE: Renouncing ownership will leave the contract without an owner, thereby removing any functionality that is only available to the owner."
					},
					"setExclusionFromTaxFee(address,bool)": {
						"details": "Set the exclusion status from tax fee mechanism (both sending and receiving) NOTE: restricting access to owner only. See {ERC20Taxable-_setExclusionFromTaxFee}."
					},
					"setTaxAddress(address)": {
						"details": "Set the address where to collect tax fee NOTE: restricting access to owner only. See {ERC20Taxable-_setTaxAddress}.",
						"params": {
							"taxAddress": "The deposit address for tax"
						}
					},
					"setTaxFeePerMille(uint256)": {
						"details": "Set the amount of tax fee per mille NOTE: restricting access to owner only. See {ERC20Taxable-_setTaxRate}.",
						"params": {
							"taxFeePerMille": "The amount of tax fee per mille"
						}
					},
					"symbol()": {
						"details": "Returns the symbol of the token, usually a shorter version of the name."
					},
					"taxAddress()": {
						"details": "Returns the deposit address for tax."
					},
					"taxFeePerMille()": {
						"details": "Returns the per mille rate for taxable mechanism. For each transfer the per mille amount will be calculated and moved to deposit address."
					},
					"totalSupply()": {
						"details": "See {IERC20-totalSupply}."
					},
					"transferOwnership(address)": {
						"details": "Transfers ownership of the contract to a new account (`newOwner`). Can only be called by the current owner."
					}
				},
				"title": "TaxableERC20",
				"version": 1
			},
			"evm": {
				"assembly": "    /* \"0x7cec6f214afabc001b316c949d64cb0d0b18b652-TaxableERC20/TaxableERC20.sol\":27760:30046  contract TaxableERC20 is ERC20Decimals, ERC20Taxable, Ownable, ServicePayer {... */\n  mstore(0x40, 0xa0)\n    /* \"0x7cec6f214afabc001b316c949d64cb0d0b18b652-TaxableERC20/TaxableERC20.sol\":27843:28473  constructor(... */\n  mload(0x40)\n  sub(codesize, bytecodeSize)\n  dup1\n  bytecodeSize\n  dup4\n  codecopy\n  dup2\n  add\n  0x40\n  dup2\n  swap1\n  mstore\n  tag_1\n  swap2\n  tag_2\n  jump\t// in\ntag_1:\n    /* \"0x7cec6f214afabc001b316c949d64cb0d0b18b652-TaxableERC20/TaxableERC20.sol\":27385:27589  constructor(address payable receiver, string memory serviceName, bytes memory signature, address wallet) payable {... */\n  0x40\n  dup1\n  mload\n  dup1\n  dup3\n  add\n  swap1\n  swap2\n  mstore\n  0x0c\n  dup2\n  mstore\n  shl(0xa4, 0x054617861626c65455243323)\n  0x20\n  dup3\n  add\n  mstore\n    /* \"0x7cec6f214afabc001b316c949d64cb0d0b18b652-TaxableERC20/TaxableERC20.sol\":28277:28289  feeReceiver_ */\n  dup2\n  swap1\n    /* \"0x7cec6f214afabc001b316c949d64cb0d0b18b652-TaxableERC20/TaxableERC20.sol\":28307:28317  signature_ */\n  dup4\n    /* \"0x7cec6f214afabc001b316c949d64cb0d0b18b652-TaxableERC20/TaxableERC20.sol\":2125:2135  msg.sender */\n  caller\n    /* \"0x7cec6f214afabc001b316c949d64cb0d0b18b652-TaxableERC20/TaxableERC20.sol\":28225:28240  taxFeePerMille_ */\n  dup8\n    /* \"0x7cec6f214afabc001b316c949d64cb0d0b18b652-TaxableERC20/TaxableERC20.sol\":28242:28253  taxAddress_ */\n  dup8\n    /* \"0x7cec6f214afabc001b316c949d64cb0d0b18b652-TaxableERC20/TaxableERC20.sol\":28192:28201  decimals_ */\n  dup12\n    /* \"0x7cec6f214afabc001b316c949d64cb0d0b18b652-TaxableERC20/TaxableERC20.sol\":28153:28158  name_ */\n  dup15\n    /* \"0x7cec6f214afabc001b316c949d64cb0d0b18b652-TaxableERC20/TaxableERC20.sol\":28160:28167  symbol_ */\n  dup15\n    /* \"0x7cec6f214afabc001b316c949d64cb0d0b18b652-TaxableERC20/TaxableERC20.sol\":10592:10597  _name */\n  0x03\n    /* \"0x7cec6f214afabc001b316c949d64cb0d0b18b652-TaxableERC20/TaxableERC20.sol\":10592:10605  _name = name_ */\n  tag_12\n    /* \"0x7cec6f214afabc001b316c949d64cb0d0b18b652-TaxableERC20/TaxableERC20.sol\":28153:28158  name_ */\n  dup4\n    /* \"0x7cec6f214afabc001b316c949d64cb0d0b18b652-TaxableERC20/TaxableERC20.sol\":10592:10597  _name */\n  dup3\n    /* \"0x7cec6f214afabc001b316c949d64cb0d0b18b652-TaxableERC20/TaxableERC20.sol\":10592:10605  _name = name_ */\n  tag_13\n  jump\t// in\ntag_12:\n  pop\n    /* \"0x7cec6f214afabc001b316c949d64cb0d0b18b652-TaxableERC20/TaxableERC20.sol\":10616:10623  _symbol */\n  0x04\n    /* \"0x7cec6f214afabc001b316c949d64cb0d0b18b652-TaxableERC20/TaxableERC20.sol\":10616:10633  _symbol = symbol_ */\n  tag_14\n    /* \"0x7cec6f214afabc001b316c949d64cb0d0b18b652-TaxableERC20/TaxableERC20.sol\":10626:10633  symbol_ */\n  dup3\n    /* \"0x7cec6f214afabc001b316c949d64cb0d0b18b652-TaxableERC20/TaxableERC20.sol\":10616:10623  _symbol */\n  dup3\n    /* \"0x7cec6f214afabc001b316c949d64cb0d0b18b652-TaxableERC20/TaxableERC20.sol\":10616:10633  _symbol = symbol_ */\n  tag_13\n  jump\t// in\ntag_14:\n  pop\n  pop\n  pop\n    /* \"0x7cec6f214afabc001b316c949d64cb0d0b18b652-TaxableERC20/TaxableERC20.sol\":22364:22385  _decimals = decimals_ */\n  0xff\n  and\n  0x80\n  mstore\n    /* \"0x7cec6f214afabc001b316c949d64cb0d0b18b652-TaxableERC20/TaxableERC20.sol\":23035:23063  _setTaxRate(taxFeePerMille_) */\n  tag_17\n    /* \"0x7cec6f214afabc001b316c949d64cb0d0b18b652-TaxableERC20/TaxableERC20.sol\":23047:23062  taxFeePerMille_ */\n  dup3\n    /* \"0x7cec6f214afabc001b316c949d64cb0d0b18b652-TaxableERC20/TaxableERC20.sol\":23035:23046  _setTaxRate */\n  tag_18\n    /* \"0x7cec6f214afabc001b316c949d64cb0d0b18b652-TaxableERC20/TaxableERC20.sol\":23035:23063  _setTaxRate(taxFeePerMille_) */\n  jump\t// in\ntag_17:\n    /* \"0x7cec6f214afabc001b316c949d64cb0d0b18b652-TaxableERC20/TaxableERC20.sol\":23074:23101  _setTaxAddress(taxAddress_) */\n  tag_19\n    /* \"0x7cec6f214afabc001b316c949d64cb0d0b18b652-TaxableERC20/TaxableERC20.sol\":23089:23100  taxAddress_ */\n  dup2\n    /* \"0x7cec6f214afabc001b316c949d64cb0d0b18b652-TaxableERC20/TaxableERC20.sol\":23074:23088  _setTaxAddress */\n  tag_20\n    /* \"0x7cec6f214afabc001b316c949d64cb0d0b18b652-TaxableERC20/TaxableERC20.sol\":23074:23101  _setTaxAddress(taxAddress_) */\n  jump\t// in\ntag_19:\n    /* \"0x7cec6f214afabc001b316c949d64cb0d0b18b652-TaxableERC20/TaxableERC20.sol\":23112:23155  _setExclusionFromTaxFee(_msgSender(), true) */\n  tag_21\n    /* \"0x7cec6f214afabc001b316c949d64cb0d0b18b652-TaxableERC20/TaxableERC20.sol\":2125:2135  msg.sender */\n  caller\n  sub(shl(0xa0, 0x01), 0x01)\n    /* \"0x7cec6f214afabc001b316c949d64cb0d0b18b652-TaxableERC20/TaxableERC20.sol\":27005:27036  _isExcludedFromTaxFee[account_] */\n  and\n  0x00\n  swap1\n  dup2\n  mstore\n    /* \"0x7cec6f214afabc001b316c949d64cb0d0b18b652-TaxableERC20/TaxableERC20.sol\":27005:27026  _isExcludedFromTaxFee */\n  0x07\n    /* \"0x7cec6f214afabc001b316c949d64cb0d0b18b652-TaxableERC20/TaxableERC20.sol\":27005:27036  _isExcludedFromTaxFee[account_] */\n  0x20\n  mstore\n  0x40\n  swap1\n  keccak256\n    /* \"0x7cec6f214afabc001b316c949d64cb0d0b18b652-TaxableERC20/TaxableERC20.sol\":27005:27046  _isExcludedFromTaxFee[account_] = status_ */\n  dup1\n  sload\n  not(0xff)\n  and\n    /* \"0x7cec6f214afabc001b316c949d64cb0d0b18b652-TaxableERC20/TaxableERC20.sol\":23150:23154  true */\n  0x01\n    /* \"0x7cec6f214afabc001b316c949d64cb0d0b18b652-TaxableERC20/TaxableERC20.sol\":27005:27046  _isExcludedFromTaxFee[account_] = status_ */\n  or\n  swap1\n  sstore\n    /* \"0x7cec6f214afabc001b316c949d64cb0d0b18b652-TaxableERC20/TaxableERC20.sol\":26912:27054  function _setExclusionFromTaxFee(address account_, bool status_) internal virtual {... */\n  jump\n    /* \"0x7cec6f214afabc001b316c949d64cb0d0b18b652-TaxableERC20/TaxableERC20.sol\":23112:23155  _setExclusionFromTaxFee(_msgSender(), true) */\ntag_21:\n  sub(shl(0xa0, 0x01), 0x01)\n    /* \"0x7cec6f214afabc001b316c949d64cb0d0b18b652-TaxableERC20/TaxableERC20.sol\":27005:27036  _isExcludedFromTaxFee[account_] */\n  and\n  0x00\n  swap1\n  dup2\n  mstore\n    /* \"0x7cec6f214afabc001b316c949d64cb0d0b18b652-TaxableERC20/TaxableERC20.sol\":27005:27026  _isExcludedFromTaxFee */\n  0x07\n    /* \"0x7cec6f214afabc001b316c949d64cb0d0b18b652-TaxableERC20/TaxableERC20.sol\":27005:27036  _isExcludedFromTaxFee[account_] */\n  0x20\n  mstore\n  0x40\n  swap1\n  keccak256\n    /* \"0x7cec6f214afabc001b316c949d64cb0d0b18b652-TaxableERC20/TaxableERC20.sol\":27005:27046  _isExcludedFromTaxFee[account_] = status_ */\n  dup1\n  sload\n  not(0xff)\n  and\n    /* \"0x7cec6f214afabc001b316c949d64cb0d0b18b652-TaxableERC20/TaxableERC20.sol\":23203:23207  true */\n  0x01\n    /* \"0x7cec6f214afabc001b316c949d64cb0d0b18b652-TaxableERC20/TaxableERC20.sol\":27005:27046  _isExcludedFromTaxFee[account_] = status_ */\n  or\n  swap1\n  sstore\n  pop\n    /* \"0x7cec6f214afabc001b316c949d64cb0d0b18b652-TaxableERC20/TaxableERC20.sol\":3213:3245  _transferOwnership(_msgSender()) */\n  tag_26\n    /* \"0x7cec6f214afabc001b316c949d64cb0d0b18b652-TaxableERC20/TaxableERC20.sol\":2125:2135  msg.sender */\n  caller\n    /* \"0x7cec6f214afabc001b316c949d64cb0d0b18b652-TaxableERC20/TaxableERC20.sol\":3213:3231  _transferOwnership */\n  tag_28\n    /* \"0x7cec6f214afabc001b316c949d64cb0d0b18b652-TaxableERC20/TaxableERC20.sol\":3213:3245  _transferOwnership(_msgSender()) */\n  jump\t// in\ntag_26:\n    /* \"0x7cec6f214afabc001b316c949d64cb0d0b18b652-TaxableERC20/TaxableERC20.sol\":27509:27581  IPayable(receiver).pay{value: msg.value}(serviceName, signature, wallet) */\n  mload(0x40)\n  shl(0xe0, 0x346386e1)\n  dup2\n  mstore\n  sub(shl(0xa0, 0x01), 0x01)\n    /* \"0x7cec6f214afabc001b316c949d64cb0d0b18b652-TaxableERC20/TaxableERC20.sol\":27509:27531  IPayable(receiver).pay */\n  dup6\n  and\n  swap1\n  0x346386e1\n  swap1\n    /* \"0x7cec6f214afabc001b316c949d64cb0d0b18b652-TaxableERC20/TaxableERC20.sol\":27539:27548  msg.value */\n  callvalue\n  swap1\n    /* \"0x7cec6f214afabc001b316c949d64cb0d0b18b652-TaxableERC20/TaxableERC20.sol\":27509:27581  IPayable(receiver).pay{value: msg.value}(serviceName, signature, wallet) */\n  tag_30\n  swap1\n    /* \"0x7cec6f214afabc001b316c949d64cb0d0b18b652-TaxableERC20/TaxableERC20.sol\":27550:27561  serviceName */\n  dup8\n  swap1\n    /* \"0x7cec6f214afabc001b316c949d64cb0d0b18b652-TaxableERC20/TaxableERC20.sol\":27563:27572  signature */\n  dup8\n  swap1\n    /* \"0x7cec6f214afabc001b316c949d64cb0d0b18b652-TaxableERC20/TaxableERC20.sol\":27574:27580  wallet */\n  dup8\n  swap1\n    /* \"0x7cec6f214afabc001b316c949d64cb0d0b18b652-TaxableERC20/TaxableERC20.sol\":27509:27581  IPayable(receiver).pay{value: msg.value}(serviceName, signature, wallet) */\n  0x04\n  add\n  tag_31\n  jump\t// in\ntag_30:\n  0x00\n  mload(0x40)\n  dup1\n  dup4\n  sub\n  dup2\n  dup6\n  dup9\n  dup1\n  extcodesize\n  iszero\n  dup1\n  iszero\n  tag_32\n  jumpi\n  0x00\n  dup1\n  revert\ntag_32:\n  pop\n  gas\n  call\n  iszero\n  dup1\n  iszero\n  tag_34\n  jumpi\n  returndatasize\n  0x00\n  dup1\n  returndatacopy\n  revert(0x00, returndatasize)\ntag_34:\n  pop\n  pop\n  pop\n  pop\n  pop\n    /* \"0x7cec6f214afabc001b316c949d64cb0d0b18b652-TaxableERC20/TaxableERC20.sol\":27385:27589  constructor(address payable receiver, string memory serviceName, bytes memory signature, address wallet) payable {... */\n  pop\n  pop\n  pop\n  pop\n    /* \"0x7cec6f214afabc001b316c949d64cb0d0b18b652-TaxableERC20/TaxableERC20.sol\":28375:28376  0 */\n  0x00\n    /* \"0x7cec6f214afabc001b316c949d64cb0d0b18b652-TaxableERC20/TaxableERC20.sol\":28357:28372  initialBalance_ */\n  dup6\n    /* \"0x7cec6f214afabc001b316c949d64cb0d0b18b652-TaxableERC20/TaxableERC20.sol\":28357:28376  initialBalance_ > 0 */\n  gt\n    /* \"0x7cec6f214afabc001b316c949d64cb0d0b18b652-TaxableERC20/TaxableERC20.sol\":28349:28416  require(initialBalance_ > 0, \"TaxableERC20: supply cannot be zero\") */\n  tag_36\n  jumpi\n  mload(0x40)\n  shl(0xe5, 0x461bcd)\n  dup2\n  mstore\n    /* \"#utility.yul\":6137:6139   */\n  0x20\n    /* \"0x7cec6f214afabc001b316c949d64cb0d0b18b652-TaxableERC20/TaxableERC20.sol\":28349:28416  require(initialBalance_ > 0, \"TaxableERC20: supply cannot be zero\") */\n  0x04\n  dup3\n  add\n    /* \"#utility.yul\":6119:6140   */\n  mstore\n    /* \"#utility.yul\":6176:6178   */\n  0x23\n    /* \"#utility.yul\":6156:6174   */\n  0x24\n  dup3\n  add\n    /* \"#utility.yul\":6149:6179   */\n  mstore\n    /* \"#utility.yul\":6215:6249   */\n  0x54617861626c6545524332303a20737570706c792063616e6e6f74206265207a\n    /* \"#utility.yul\":6195:6213   */\n  0x44\n  dup3\n  add\n    /* \"#utility.yul\":6188:6250   */\n  mstore\n  shl(0xe8, 0x65726f)\n    /* \"#utility.yul\":6266:6284   */\n  0x64\n  dup3\n  add\n    /* \"#utility.yul\":6259:6292   */\n  mstore\n    /* \"#utility.yul\":6309:6328   */\n  0x84\n  add\n    /* \"0x7cec6f214afabc001b316c949d64cb0d0b18b652-TaxableERC20/TaxableERC20.sol\":28349:28416  require(initialBalance_ > 0, \"TaxableERC20: supply cannot be zero\") */\ntag_37:\n  mload(0x40)\n  dup1\n  swap2\n  sub\n  swap1\n  revert\ntag_36:\n    /* \"0x7cec6f214afabc001b316c949d64cb0d0b18b652-TaxableERC20/TaxableERC20.sol\":28429:28465  _mint(_msgSender(), initialBalance_) */\n  tag_39\n    /* \"0x7cec6f214afabc001b316c949d64cb0d0b18b652-TaxableERC20/TaxableERC20.sol\":2125:2135  msg.sender */\n  caller\n    /* \"0x7cec6f214afabc001b316c949d64cb0d0b18b652-TaxableERC20/TaxableERC20.sol\":28449:28464  initialBalance_ */\n  dup7\n    /* \"0x7cec6f214afabc001b316c949d64cb0d0b18b652-TaxableERC20/TaxableERC20.sol\":28429:28434  _mint */\n  tag_41\n    /* \"0x7cec6f214afabc001b316c949d64cb0d0b18b652-TaxableERC20/TaxableERC20.sol\":28429:28465  _mint(_msgSender(), initialBalance_) */\n  jump\t// in\ntag_39:\n    /* \"0x7cec6f214afabc001b316c949d64cb0d0b18b652-TaxableERC20/TaxableERC20.sol\":27843:28473  constructor(... */\n  pop\n  pop\n  pop\n  pop\n  pop\n  pop\n  pop\n  pop\n    /* \"0x7cec6f214afabc001b316c949d64cb0d0b18b652-TaxableERC20/TaxableERC20.sol\":27760:30046  contract TaxableERC20 is ERC20Decimals, ERC20Taxable, Ownable, ServicePayer {... */\n  jump(tag_77)\n    /* \"0x7cec6f214afabc001b316c949d64cb0d0b18b652-TaxableERC20/TaxableERC20.sol\":26073:26281  function _setTaxRate(uint256 taxFeePerMille_) internal virtual {... */\ntag_18:\n    /* \"0x7cec6f214afabc001b316c949d64cb0d0b18b652-TaxableERC20/TaxableERC20.sol\":26173:26177  1000 */\n  0x03e8\n    /* \"0x7cec6f214afabc001b316c949d64cb0d0b18b652-TaxableERC20/TaxableERC20.sol\":26155:26170  taxFeePerMille_ */\n  dup2\n    /* \"0x7cec6f214afabc001b316c949d64cb0d0b18b652-TaxableERC20/TaxableERC20.sol\":26155:26177  taxFeePerMille_ < 1000 */\n  lt\n    /* \"0x7cec6f214afabc001b316c949d64cb0d0b18b652-TaxableERC20/TaxableERC20.sol\":26147:26234  require(taxFeePerMille_ < 1000, \"ERC20Taxable: taxFeePerMille_ must be less than 1000\") */\n  tag_45\n  jumpi\n  mload(0x40)\n  shl(0xe5, 0x461bcd)\n  dup2\n  mstore\n    /* \"#utility.yul\":6541:6543   */\n  0x20\n    /* \"0x7cec6f214afabc001b316c949d64cb0d0b18b652-TaxableERC20/TaxableERC20.sol\":26147:26234  require(taxFeePerMille_ < 1000, \"ERC20Taxable: taxFeePerMille_ must be less than 1000\") */\n  0x04\n  dup3\n  add\n    /* \"#utility.yul\":6523:6544   */\n  mstore\n    /* \"#utility.yul\":6580:6582   */\n  0x34\n    /* \"#utility.yul\":6560:6578   */\n  0x24\n  dup3\n  add\n    /* \"#utility.yul\":6553:6583   */\n  mstore\n    /* \"#utility.yul\":6619:6653   */\n  0x455243323054617861626c653a207461784665655065724d696c6c655f206d75\n    /* \"#utility.yul\":6599:6617   */\n  0x44\n  dup3\n  add\n    /* \"#utility.yul\":6592:6654   */\n  mstore\n    /* \"#utility.yul\":6690:6712   */\n  0x7374206265206c657373207468616e2031303030000000000000000000000000\n    /* \"#utility.yul\":6670:6688   */\n  0x64\n  dup3\n  add\n    /* \"#utility.yul\":6663:6713   */\n  mstore\n    /* \"#utility.yul\":6730:6749   */\n  0x84\n  add\n    /* \"0x7cec6f214afabc001b316c949d64cb0d0b18b652-TaxableERC20/TaxableERC20.sol\":26147:26234  require(taxFeePerMille_ < 1000, \"ERC20Taxable: taxFeePerMille_ must be less than 1000\") */\n  tag_37\n    /* \"#utility.yul\":6339:6755   */\n  jump\n    /* \"0x7cec6f214afabc001b316c949d64cb0d0b18b652-TaxableERC20/TaxableERC20.sol\":26147:26234  require(taxFeePerMille_ < 1000, \"ERC20Taxable: taxFeePerMille_ must be less than 1000\") */\ntag_45:\n    /* \"0x7cec6f214afabc001b316c949d64cb0d0b18b652-TaxableERC20/TaxableERC20.sol\":26247:26255  _taxRate */\n  0x05\n    /* \"0x7cec6f214afabc001b316c949d64cb0d0b18b652-TaxableERC20/TaxableERC20.sol\":26247:26273  _taxRate = taxFeePerMille_ */\n  sstore\n    /* \"0x7cec6f214afabc001b316c949d64cb0d0b18b652-TaxableERC20/TaxableERC20.sol\":26073:26281  function _setTaxRate(uint256 taxFeePerMille_) internal virtual {... */\n  jump\t// out\n    /* \"0x7cec6f214afabc001b316c949d64cb0d0b18b652-TaxableERC20/TaxableERC20.sol\":26470:26679  function _setTaxAddress(address taxAddress_) internal virtual {... */\ntag_20:\n  sub(shl(0xa0, 0x01), 0x01)\n    /* \"0x7cec6f214afabc001b316c949d64cb0d0b18b652-TaxableERC20/TaxableERC20.sol\":26551:26576  taxAddress_ != address(0) */\n  dup2\n  and\n    /* \"0x7cec6f214afabc001b316c949d64cb0d0b18b652-TaxableERC20/TaxableERC20.sol\":26543:26633  require(taxAddress_ != address(0), \"ERC20Taxable: taxAddress_ cannot be the zero address\") */\n  tag_49\n  jumpi\n  mload(0x40)\n  shl(0xe5, 0x461bcd)\n  dup2\n  mstore\n    /* \"#utility.yul\":6962:6964   */\n  0x20\n    /* \"0x7cec6f214afabc001b316c949d64cb0d0b18b652-TaxableERC20/TaxableERC20.sol\":26543:26633  require(taxAddress_ != address(0), \"ERC20Taxable: taxAddress_ cannot be the zero address\") */\n  0x04\n  dup3\n  add\n    /* \"#utility.yul\":6944:6965   */\n  mstore\n    /* \"#utility.yul\":7001:7003   */\n  0x34\n    /* \"#utility.yul\":6981:6999   */\n  0x24\n  dup3\n  add\n    /* \"#utility.yul\":6974:7004   */\n  mstore\n    /* \"#utility.yul\":7040:7074   */\n  0x455243323054617861626c653a20746178416464726573735f2063616e6e6f74\n    /* \"#utility.yul\":7020:7038   */\n  0x44\n  dup3\n  add\n    /* \"#utility.yul\":7013:7075   */\n  mstore\n    /* \"#utility.yul\":7111:7133   */\n  0x20626520746865207a65726f2061646472657373000000000000000000000000\n    /* \"#utility.yul\":7091:7109   */\n  0x64\n  dup3\n  add\n    /* \"#utility.yul\":7084:7134   */\n  mstore\n    /* \"#utility.yul\":7151:7170   */\n  0x84\n  add\n    /* \"0x7cec6f214afabc001b316c949d64cb0d0b18b652-TaxableERC20/TaxableERC20.sol\":26543:26633  require(taxAddress_ != address(0), \"ERC20Taxable: taxAddress_ cannot be the zero address\") */\n  tag_37\n    /* \"#utility.yul\":6760:7176   */\n  jump\n    /* \"0x7cec6f214afabc001b316c949d64cb0d0b18b652-TaxableERC20/TaxableERC20.sol\":26543:26633  require(taxAddress_ != address(0), \"ERC20Taxable: taxAddress_ cannot be the zero address\") */\ntag_49:\n    /* \"0x7cec6f214afabc001b316c949d64cb0d0b18b652-TaxableERC20/TaxableERC20.sol\":26646:26657  _taxAddress */\n  0x06\n    /* \"0x7cec6f214afabc001b316c949d64cb0d0b18b652-TaxableERC20/TaxableERC20.sol\":26646:26671  _taxAddress = taxAddress_ */\n  dup1\n  sload\n  not(sub(shl(0xa0, 0x01), 0x01))\n  and\n  sub(shl(0xa0, 0x01), 0x01)\n  swap3\n  swap1\n  swap3\n  and\n  swap2\n  swap1\n  swap2\n  or\n  swap1\n  sstore\n    /* \"0x7cec6f214afabc001b316c949d64cb0d0b18b652-TaxableERC20/TaxableERC20.sol\":26470:26679  function _setTaxAddress(address taxAddress_) internal virtual {... */\n  jump\t// out\n    /* \"0x7cec6f214afabc001b316c949d64cb0d0b18b652-TaxableERC20/TaxableERC20.sol\":4759:4950  function _transferOwnership(address newOwner) internal virtual {... */\ntag_28:\n    /* \"0x7cec6f214afabc001b316c949d64cb0d0b18b652-TaxableERC20/TaxableERC20.sol\":4852:4858  _owner */\n  0x08\n  dup1\n  sload\n  sub(shl(0xa0, 0x01), 0x01)\n    /* \"0x7cec6f214afabc001b316c949d64cb0d0b18b652-TaxableERC20/TaxableERC20.sol\":4869:4886  _owner = newOwner */\n  dup4\n  dup2\n  and\n  not(sub(shl(0xa0, 0x01), 0x01))\n  dup4\n  and\n  dup2\n  or\n  swap1\n  swap4\n  sstore\n    /* \"0x7cec6f214afabc001b316c949d64cb0d0b18b652-TaxableERC20/TaxableERC20.sol\":4902:4942  OwnershipTransferred(oldOwner, newOwner) */\n  mload(0x40)\n    /* \"0x7cec6f214afabc001b316c949d64cb0d0b18b652-TaxableERC20/TaxableERC20.sol\":4852:4858  _owner */\n  swap2\n  and\n  swap2\n    /* \"0x7cec6f214afabc001b316c949d64cb0d0b18b652-TaxableERC20/TaxableERC20.sol\":4869:4886  _owner = newOwner */\n  swap1\n    /* \"0x7cec6f214afabc001b316c949d64cb0d0b18b652-TaxableERC20/TaxableERC20.sol\":4852:4858  _owner */\n  dup3\n  swap1\n    /* \"0x7cec6f214afabc001b316c949d64cb0d0b18b652-TaxableERC20/TaxableERC20.sol\":4902:4942  OwnershipTransferred(oldOwner, newOwner) */\n  0x8be0079c531659141344cd1fd0a4f28419497f9722a3daafe3b4186f6b6457e0\n  swap1\n    /* \"0x7cec6f214afabc001b316c949d64cb0d0b18b652-TaxableERC20/TaxableERC20.sol\":4833:4849  address oldOwner */\n  0x00\n  swap1\n    /* \"0x7cec6f214afabc001b316c949d64cb0d0b18b652-TaxableERC20/TaxableERC20.sol\":4902:4942  OwnershipTransferred(oldOwner, newOwner) */\n  log3\n    /* \"0x7cec6f214afabc001b316c949d64cb0d0b18b652-TaxableERC20/TaxableERC20.sol\":4822:4950  {... */\n  pop\n    /* \"0x7cec6f214afabc001b316c949d64cb0d0b18b652-TaxableERC20/TaxableERC20.sol\":4759:4950  function _transferOwnership(address newOwner) internal virtual {... */\n  pop\n  jump\t// out\n    /* \"0x7cec6f214afabc001b316c949d64cb0d0b18b652-TaxableERC20/TaxableERC20.sol\":17321:17869  function _mint(address account, uint256 amount) internal virtual {... */\ntag_41:\n  sub(shl(0xa0, 0x01), 0x01)\n    /* \"0x7cec6f214afabc001b316c949d64cb0d0b18b652-TaxableERC20/TaxableERC20.sol\":17405:17426  account != address(0) */\n  dup3\n  and\n    /* \"0x7cec6f214afabc001b316c949d64cb0d0b18b652-TaxableERC20/TaxableERC20.sol\":17397:17462  require(account != address(0), \"ERC20: mint to the zero address\") */\n  tag_55\n  jumpi\n  mload(0x40)\n  shl(0xe5, 0x461bcd)\n  dup2\n  mstore\n    /* \"#utility.yul\":7383:7385   */\n  0x20\n    /* \"0x7cec6f214afabc001b316c949d64cb0d0b18b652-TaxableERC20/TaxableERC20.sol\":17397:17462  require(account != address(0), \"ERC20: mint to the zero address\") */\n  0x04\n  dup3\n  add\n    /* \"#utility.yul\":7365:7386   */\n  mstore\n    /* \"#utility.yul\":7422:7424   */\n  0x1f\n    /* \"#utility.yul\":7402:7420   */\n  0x24\n  dup3\n  add\n    /* \"#utility.yul\":7395:7425   */\n  mstore\n    /* \"#utility.yul\":7461:7494   */\n  0x45524332303a206d696e7420746f20746865207a65726f206164647265737300\n    /* \"#utility.yul\":7441:7459   */\n  0x44\n  dup3\n  add\n    /* \"#utility.yul\":7434:7495   */\n  mstore\n    /* \"#utility.yul\":7512:7530   */\n  0x64\n  add\n    /* \"0x7cec6f214afabc001b316c949d64cb0d0b18b652-TaxableERC20/TaxableERC20.sol\":17397:17462  require(account != address(0), \"ERC20: mint to the zero address\") */\n  tag_37\n    /* \"#utility.yul\":7181:7536   */\n  jump\n    /* \"0x7cec6f214afabc001b316c949d64cb0d0b18b652-TaxableERC20/TaxableERC20.sol\":17397:17462  require(account != address(0), \"ERC20: mint to the zero address\") */\ntag_55:\n    /* \"0x7cec6f214afabc001b316c949d64cb0d0b18b652-TaxableERC20/TaxableERC20.sol\":17553:17559  amount */\n  dup1\n    /* \"0x7cec6f214afabc001b316c949d64cb0d0b18b652-TaxableERC20/TaxableERC20.sol\":17537:17549  _totalSupply */\n  0x02\n  0x00\n    /* \"0x7cec6f214afabc001b316c949d64cb0d0b18b652-TaxableERC20/TaxableERC20.sol\":17537:17559  _totalSupply += amount */\n  dup3\n  dup3\n  sload\n  tag_60\n  swap2\n  swap1\n  tag_61\n  jump\t// in\ntag_60:\n  swap1\n  swap2\n  sstore\n  pop\n  pop\n  sub(shl(0xa0, 0x01), 0x01)\n    /* \"0x7cec6f214afabc001b316c949d64cb0d0b18b652-TaxableERC20/TaxableERC20.sol\":17708:17726  _balances[account] */\n  dup3\n  and\n    /* \"0x7cec6f214afabc001b316c949d64cb0d0b18b652-TaxableERC20/TaxableERC20.sol\":17708:17717  _balances */\n  0x00\n    /* \"0x7cec6f214afabc001b316c949d64cb0d0b18b652-TaxableERC20/TaxableERC20.sol\":17708:17726  _balances[account] */\n  dup2\n  dup2\n  mstore\n  0x20\n  dup2\n  dup2\n  mstore\n  0x40\n  dup1\n  dup4\n  keccak256\n    /* \"0x7cec6f214afabc001b316c949d64cb0d0b18b652-TaxableERC20/TaxableERC20.sol\":17708:17736  _balances[account] += amount */\n  dup1\n  sload\n  dup7\n  add\n  swap1\n  sstore\n    /* \"0x7cec6f214afabc001b316c949d64cb0d0b18b652-TaxableERC20/TaxableERC20.sol\":17763:17800  Transfer(address(0), account, amount) */\n  mload\n    /* \"#utility.yul\":7914:7939   */\n  dup5\n  dup2\n  mstore\n    /* \"0x7cec6f214afabc001b316c949d64cb0d0b18b652-TaxableERC20/TaxableERC20.sol\":17763:17800  Transfer(address(0), account, amount) */\n  0xddf252ad1be2c89b69c2b068fc378daa952ba7f163c4a11628f55a4df523b3ef\n  swap2\n    /* \"#utility.yul\":7887:7905   */\n  add\n    /* \"0x7cec6f214afabc001b316c949d64cb0d0b18b652-TaxableERC20/TaxableERC20.sol\":17763:17800  Transfer(address(0), account, amount) */\n  mload(0x40)\n  dup1\n  swap2\n  sub\n  swap1\n  log3\n    /* \"0x7cec6f214afabc001b316c949d64cb0d0b18b652-TaxableERC20/TaxableERC20.sol\":17321:17869  function _mint(address account, uint256 amount) internal virtual {... */\n  pop\n  pop\n  jump\t// out\n    /* \"0x7cec6f214afabc001b316c949d64cb0d0b18b652-TaxableERC20/TaxableERC20.sol\":21039:21164  function _beforeTokenTransfer(... */\ntag_59:\n  pop\n  pop\n  pop\n  jump\t// out\n    /* \"#utility.yul\":14:141   */\ntag_68:\n    /* \"#utility.yul\":75:85   */\n  0x4e487b71\n    /* \"#utility.yul\":70:73   */\n  0xe0\n    /* \"#utility.yul\":66:86   */\n  shl\n    /* \"#utility.yul\":63:64   */\n  0x00\n    /* \"#utility.yul\":56:87   */\n  mstore\n    /* \"#utility.yul\":106:110   */\n  0x41\n    /* \"#utility.yul\":103:104   */\n  0x04\n    /* \"#utility.yul\":96:111   */\n  mstore\n    /* \"#utility.yul\":130:134   */\n  0x24\n    /* \"#utility.yul\":127:128   */\n  0x00\n    /* \"#utility.yul\":120:135   */\n  revert\n    /* \"#utility.yul\":146:1032   */\ntag_69:\n    /* \"#utility.yul\":200:205   */\n  0x00\n    /* \"#utility.yul\":253:256   */\n  dup3\n    /* \"#utility.yul\":246:250   */\n  0x1f\n    /* \"#utility.yul\":238:244   */\n  dup4\n    /* \"#utility.yul\":234:251   */\n  add\n    /* \"#utility.yul\":230:257   */\n  slt\n    /* \"#utility.yul\":220:275   */\n  tag_80\n  jumpi\n    /* \"#utility.yul\":271:272   */\n  0x00\n    /* \"#utility.yul\":268:269   */\n  dup1\n    /* \"#utility.yul\":261:273   */\n  revert\n    /* \"#utility.yul\":220:275   */\ntag_80:\n    /* \"#utility.yul\":298:311   */\n  dup2\n  mload\n    /* \"#utility.yul\":343:347   */\n  0x20\n    /* \"#utility.yul\":331:348   */\n  dup4\n  add\n    /* \"#utility.yul\":372:373   */\n  0x00\n  dup1\n  sub(shl(0x40, 0x01), 0x01)\n    /* \"#utility.yul\":407:437   */\n  dup5\n  gt\n    /* \"#utility.yul\":404:460   */\n  iszero\n  tag_82\n  jumpi\n    /* \"#utility.yul\":440:458   */\n  tag_82\n  tag_68\n  jump\t// in\ntag_82:\n  pop\n    /* \"#utility.yul\":595:597   */\n  0x40\n    /* \"#utility.yul\":589:598   */\n  mload\n  not(0x1f)\n    /* \"#utility.yul\":508:510   */\n  0x1f\n    /* \"#utility.yul\":487:502   */\n  dup6\n  add\n    /* \"#utility.yul\":483:512   */\n  dup2\n  and\n    /* \"#utility.yul\":653:655   */\n  0x3f\n    /* \"#utility.yul\":641:656   */\n  add\n    /* \"#utility.yul\":637:666   */\n  and\n    /* \"#utility.yul\":625:667   */\n  dup2\n  add\n    /* \"#utility.yul\":718:740   */\n  dup2\n  dup2\n  lt\n  sub(shl(0x40, 0x01), 0x01)\n    /* \"#utility.yul\":682:716   */\n  dup3\n  gt\n    /* \"#utility.yul\":679:741   */\n  or\n    /* \"#utility.yul\":676:764   */\n  iszero\n  tag_84\n  jumpi\n    /* \"#utility.yul\":744:762   */\n  tag_84\n  tag_68\n  jump\t// in\ntag_84:\n    /* \"#utility.yul\":780:782   */\n  0x40\n    /* \"#utility.yul\":773:795   */\n  mstore\n    /* \"#utility.yul\":830:852   */\n  dup4\n  dup2\n  mstore\n    /* \"#utility.yul\":815:821   */\n  swap1\n  pop\n  dup1\n    /* \"#utility.yul\":867:883   */\n  dup3\n  dup5\n  add\n    /* \"#utility.yul\":864:889   */\n  dup8\n  lt\n    /* \"#utility.yul\":861:906   */\n  iszero\n  tag_85\n  jumpi\n    /* \"#utility.yul\":902:903   */\n  0x00\n    /* \"#utility.yul\":899:900   */\n  dup1\n    /* \"#utility.yul\":892:904   */\n  revert\n    /* \"#utility.yul\":861:906   */\ntag_85:\n    /* \"#utility.yul\":945:951   */\n  dup4\n    /* \"#utility.yul\":940:943   */\n  dup4\n    /* \"#utility.yul\":933:937   */\n  0x20\n    /* \"#utility.yul\":925:931   */\n  dup4\n    /* \"#utility.yul\":921:938   */\n  add\n    /* \"#utility.yul\":915:952   */\n  mcopy\n    /* \"#utility.yul\":1000:1001   */\n  0x00\n    /* \"#utility.yul\":993:997   */\n  0x20\n    /* \"#utility.yul\":984:990   */\n  dup6\n    /* \"#utility.yul\":976:982   */\n  dup4\n    /* \"#utility.yul\":972:991   */\n  add\n    /* \"#utility.yul\":968:998   */\n  add\n    /* \"#utility.yul\":961:1002   */\n  mstore\n    /* \"#utility.yul\":1020:1026   */\n  dup1\n    /* \"#utility.yul\":1011:1026   */\n  swap5\n  pop\n  pop\n  pop\n  pop\n  pop\n    /* \"#utility.yul\":146:1032   */\n  swap3\n  swap2\n  pop\n  pop\n  jump\t// out\n    /* \"#utility.yul\":1037:1197   */\ntag_70:\n    /* \"#utility.yul\":1114:1127   */\n  dup1\n  mload\n    /* \"#utility.yul\":1167:1171   */\n  0xff\n    /* \"#utility.yul\":1156:1172   */\n  dup2\n  and\n    /* \"#utility.yul\":1146:1173   */\n  dup2\n  eq\n    /* \"#utility.yul\":1136:1191   */\n  tag_87\n  jumpi\n    /* \"#utility.yul\":1187:1188   */\n  0x00\n    /* \"#utility.yul\":1184:1185   */\n  dup1\n    /* \"#utility.yul\":1177:1189   */\n  revert\n    /* \"#utility.yul\":1136:1191   */\ntag_87:\n    /* \"#utility.yul\":1037:1197   */\n  swap2\n  swap1\n  pop\n  jump\t// out\n    /* \"#utility.yul\":1202:1379   */\ntag_71:\n    /* \"#utility.yul\":1281:1294   */\n  dup1\n  mload\n  sub(shl(0xa0, 0x01), 0x01)\n    /* \"#utility.yul\":1323:1354   */\n  dup2\n  and\n    /* \"#utility.yul\":1313:1355   */\n  dup2\n  eq\n    /* \"#utility.yul\":1303:1373   */\n  tag_87\n  jumpi\n    /* \"#utility.yul\":1369:1370   */\n  0x00\n    /* \"#utility.yul\":1366:1367   */\n  dup1\n    /* \"#utility.yul\":1359:1371   */\n  revert\n    /* \"#utility.yul\":1384:2644   */\ntag_2:\n    /* \"#utility.yul\":1552:1558   */\n  0x00\n    /* \"#utility.yul\":1560:1566   */\n  dup1\n    /* \"#utility.yul\":1568:1574   */\n  0x00\n    /* \"#utility.yul\":1576:1582   */\n  dup1\n    /* \"#utility.yul\":1584:1590   */\n  0x00\n    /* \"#utility.yul\":1592:1598   */\n  dup1\n    /* \"#utility.yul\":1600:1606   */\n  0x00\n    /* \"#utility.yul\":1608:1614   */\n  dup1\n    /* \"#utility.yul\":1661:1664   */\n  0x0100\n    /* \"#utility.yul\":1649:1658   */\n  dup10\n    /* \"#utility.yul\":1640:1647   */\n  dup12\n    /* \"#utility.yul\":1636:1659   */\n  sub\n    /* \"#utility.yul\":1632:1665   */\n  slt\n    /* \"#utility.yul\":1629:1682   */\n  iszero\n  tag_91\n  jumpi\n    /* \"#utility.yul\":1678:1679   */\n  0x00\n    /* \"#utility.yul\":1675:1676   */\n  dup1\n    /* \"#utility.yul\":1668:1680   */\n  revert\n    /* \"#utility.yul\":1629:1682   */\ntag_91:\n    /* \"#utility.yul\":1705:1721   */\n  dup9\n  mload\n  sub(shl(0x40, 0x01), 0x01)\n    /* \"#utility.yul\":1733:1763   */\n  dup2\n  gt\n    /* \"#utility.yul\":1730:1780   */\n  iszero\n  tag_92\n  jumpi\n    /* \"#utility.yul\":1776:1777   */\n  0x00\n    /* \"#utility.yul\":1773:1774   */\n  dup1\n    /* \"#utility.yul\":1766:1778   */\n  revert\n    /* \"#utility.yul\":1730:1780   */\ntag_92:\n    /* \"#utility.yul\":1799:1860   */\n  tag_93\n    /* \"#utility.yul\":1852:1859   */\n  dup12\n    /* \"#utility.yul\":1843:1849   */\n  dup3\n    /* \"#utility.yul\":1832:1841   */\n  dup13\n    /* \"#utility.yul\":1828:1850   */\n  add\n    /* \"#utility.yul\":1799:1860   */\n  tag_69\n  jump\t// in\ntag_93:\n    /* \"#utility.yul\":1906:1908   */\n  0x20\n    /* \"#utility.yul\":1891:1909   */\n  dup12\n  add\n    /* \"#utility.yul\":1885:1910   */\n  mload\n    /* \"#utility.yul\":1789:1860   */\n  swap1\n  swap10\n  pop\n    /* \"#utility.yul\":1885:1910   */\n  swap1\n  pop\n  sub(shl(0x40, 0x01), 0x01)\n    /* \"#utility.yul\":1922:1954   */\n  dup2\n  gt\n    /* \"#utility.yul\":1919:1971   */\n  iszero\n  tag_94\n  jumpi\n    /* \"#utility.yul\":1967:1968   */\n  0x00\n    /* \"#utility.yul\":1964:1965   */\n  dup1\n    /* \"#utility.yul\":1957:1969   */\n  revert\n    /* \"#utility.yul\":1919:1971   */\ntag_94:\n    /* \"#utility.yul\":1990:2053   */\n  tag_95\n    /* \"#utility.yul\":2045:2052   */\n  dup12\n    /* \"#utility.yul\":2034:2042   */\n  dup3\n    /* \"#utility.yul\":2023:2032   */\n  dup13\n    /* \"#utility.yul\":2019:2043   */\n  add\n    /* \"#utility.yul\":1990:2053   */\n  tag_69\n  jump\t// in\ntag_95:\n    /* \"#utility.yul\":1980:2053   */\n  swap8\n  pop\n  pop\n    /* \"#utility.yul\":2072:2119   */\n  tag_96\n    /* \"#utility.yul\":2115:2117   */\n  0x40\n    /* \"#utility.yul\":2104:2113   */\n  dup11\n    /* \"#utility.yul\":2100:2118   */\n  add\n    /* \"#utility.yul\":2072:2119   */\n  tag_70\n  jump\t// in\ntag_96:\n    /* \"#utility.yul\":2181:2183   */\n  0x60\n    /* \"#utility.yul\":2166:2184   */\n  dup11\n  add\n    /* \"#utility.yul\":2160:2185   */\n  mload\n    /* \"#utility.yul\":2275:2278   */\n  0x80\n    /* \"#utility.yul\":2260:2279   */\n  dup12\n  add\n    /* \"#utility.yul\":2254:2280   */\n  mload\n    /* \"#utility.yul\":2062:2119   */\n  swap2\n  swap8\n  pop\n    /* \"#utility.yul\":2160:2185   */\n  swap6\n  pop\n    /* \"#utility.yul\":2254:2280   */\n  swap4\n  pop\n    /* \"#utility.yul\":2325:2375   */\n  tag_97\n    /* \"#utility.yul\":2370:2373   */\n  0xa0\n    /* \"#utility.yul\":2355:2374   */\n  dup11\n  add\n    /* \"#utility.yul\":2325:2375   */\n  tag_71\n  jump\t// in\ntag_97:\n    /* \"#utility.yul\":2421:2424   */\n  0xc0\n    /* \"#utility.yul\":2406:2425   */\n  dup11\n  add\n    /* \"#utility.yul\":2400:2426   */\n  mload\n    /* \"#utility.yul\":2315:2375   */\n  swap1\n  swap4\n  pop\n  sub(shl(0x40, 0x01), 0x01)\n    /* \"#utility.yul\":2438:2470   */\n  dup2\n  gt\n    /* \"#utility.yul\":2435:2487   */\n  iszero\n  tag_98\n  jumpi\n    /* \"#utility.yul\":2483:2484   */\n  0x00\n    /* \"#utility.yul\":2480:2481   */\n  dup1\n    /* \"#utility.yul\":2473:2485   */\n  revert\n    /* \"#utility.yul\":2435:2487   */\ntag_98:\n    /* \"#utility.yul\":2506:2569   */\n  tag_99\n    /* \"#utility.yul\":2561:2568   */\n  dup12\n    /* \"#utility.yul\":2550:2558   */\n  dup3\n    /* \"#utility.yul\":2539:2548   */\n  dup13\n    /* \"#utility.yul\":2535:2559   */\n  add\n    /* \"#utility.yul\":2506:2569   */\n  tag_69\n  jump\t// in\ntag_99:\n    /* \"#utility.yul\":2496:2569   */\n  swap3\n  pop\n  pop\n    /* \"#utility.yul\":2588:2638   */\n  tag_100\n    /* \"#utility.yul\":2633:2636   */\n  0xe0\n    /* \"#utility.yul\":2622:2631   */\n  dup11\n    /* \"#utility.yul\":2618:2637   */\n  add\n    /* \"#utility.yul\":2588:2638   */\n  tag_71\n  jump\t// in\ntag_100:\n    /* \"#utility.yul\":2578:2638   */\n  swap1\n  pop\n    /* \"#utility.yul\":1384:2644   */\n  swap3\n  swap6\n  swap9\n  pop\n  swap3\n  swap6\n  swap9\n  swap1\n  swap4\n  swap7\n  pop\n  jump\t// out\n    /* \"#utility.yul\":2649:3029   */\ntag_72:\n    /* \"#utility.yul\":2728:2729   */\n  0x01\n    /* \"#utility.yul\":2724:2736   */\n  dup2\n  dup2\n  shr\n  swap1\n    /* \"#utility.yul\":2771:2783   */\n  dup3\n  and\n  dup1\n    /* \"#utility.yul\":2792:2853   */\n  tag_102\n  jumpi\n    /* \"#utility.yul\":2846:2850   */\n  0x7f\n    /* \"#utility.yul\":2838:2844   */\n  dup3\n    /* \"#utility.yul\":2834:2851   */\n  and\n    /* \"#utility.yul\":2824:2851   */\n  swap2\n  pop\n    /* \"#utility.yul\":2792:2853   */\ntag_102:\n    /* \"#utility.yul\":2899:2901   */\n  0x20\n    /* \"#utility.yul\":2891:2897   */\n  dup3\n    /* \"#utility.yul\":2888:2902   */\n  lt\n    /* \"#utility.yul\":2868:2886   */\n  dup2\n    /* \"#utility.yul\":2865:2903   */\n  sub\n    /* \"#utility.yul\":2862:3023   */\n  tag_103\n  jumpi\n    /* \"#utility.yul\":2945:2955   */\n  0x4e487b71\n    /* \"#utility.yul\":2940:2943   */\n  0xe0\n    /* \"#utility.yul\":2936:2956   */\n  shl\n    /* \"#utility.yul\":2933:2934   */\n  0x00\n    /* \"#utility.yul\":2926:2957   */\n  mstore\n    /* \"#utility.yul\":2980:2984   */\n  0x22\n    /* \"#utility.yul\":2977:2978   */\n  0x04\n    /* \"#utility.yul\":2970:2985   */\n  mstore\n    /* \"#utility.yul\":3008:3012   */\n  0x24\n    /* \"#utility.yul\":3005:3006   */\n  0x00\n    /* \"#utility.yul\":2998:3013   */\n  revert\n    /* \"#utility.yul\":2862:3023   */\ntag_103:\n  pop\n    /* \"#utility.yul\":2649:3029   */\n  swap2\n  swap1\n  pop\n  jump\t// out\n    /* \"#utility.yul\":3160:3678   */\ntag_74:\n    /* \"#utility.yul\":3262:3264   */\n  0x1f\n    /* \"#utility.yul\":3257:3260   */\n  dup3\n    /* \"#utility.yul\":3254:3265   */\n  gt\n    /* \"#utility.yul\":3251:3672   */\n  iszero\n  tag_59\n  jumpi\n    /* \"#utility.yul\":3298:3303   */\n  dup1\n    /* \"#utility.yul\":3295:3296   */\n  0x00\n    /* \"#utility.yul\":3288:3304   */\n  mstore\n    /* \"#utility.yul\":3342:3346   */\n  0x20\n    /* \"#utility.yul\":3339:3340   */\n  0x00\n    /* \"#utility.yul\":3329:3347   */\n  keccak256\n    /* \"#utility.yul\":3412:3414   */\n  0x1f\n    /* \"#utility.yul\":3400:3410   */\n  dup5\n    /* \"#utility.yul\":3396:3415   */\n  add\n    /* \"#utility.yul\":3393:3394   */\n  0x05\n    /* \"#utility.yul\":3389:3416   */\n  shr\n    /* \"#utility.yul\":3383:3387   */\n  dup2\n    /* \"#utility.yul\":3379:3417   */\n  add\n    /* \"#utility.yul\":3448:3452   */\n  0x20\n    /* \"#utility.yul\":3436:3446   */\n  dup6\n    /* \"#utility.yul\":3433:3453   */\n  lt\n    /* \"#utility.yul\":3430:3477   */\n  iszero\n  tag_107\n  jumpi\n  pop\n    /* \"#utility.yul\":3471:3475   */\n  dup1\n    /* \"#utility.yul\":3430:3477   */\ntag_107:\n    /* \"#utility.yul\":3526:3528   */\n  0x1f\n    /* \"#utility.yul\":3521:3524   */\n  dup5\n    /* \"#utility.yul\":3517:3529   */\n  add\n    /* \"#utility.yul\":3514:3515   */\n  0x05\n    /* \"#utility.yul\":3510:3530   */\n  shr\n    /* \"#utility.yul\":3504:3508   */\n  dup3\n    /* \"#utility.yul\":3500:3531   */\n  add\n    /* \"#utility.yul\":3490:3531   */\n  swap2\n  pop\n    /* \"#utility.yul\":3581:3662   */\ntag_108:\n    /* \"#utility.yul\":3599:3601   */\n  dup2\n    /* \"#utility.yul\":3592:3597   */\n  dup2\n    /* \"#utility.yul\":3589:3602   */\n  lt\n    /* \"#utility.yul\":3581:3662   */\n  iszero\n  tag_110\n  jumpi\n    /* \"#utility.yul\":3658:3659   */\n  0x00\n    /* \"#utility.yul\":3644:3660   */\n  dup2\n  sstore\n    /* \"#utility.yul\":3625:3626   */\n  0x01\n    /* \"#utility.yul\":3614:3627   */\n  add\n    /* \"#utility.yul\":3581:3662   */\n  jump(tag_108)\ntag_110:\n    /* \"#utility.yul\":3585:3588   */\n  pop\n  pop\n    /* \"#utility.yul\":3160:3678   */\n  pop\n  pop\n  pop\n  jump\t// out\n    /* \"#utility.yul\":3854:5153   */\ntag_13:\n    /* \"#utility.yul\":3974:3984   */\n  dup2\n  mload\n  sub(shl(0x40, 0x01), 0x01)\n    /* \"#utility.yul\":3996:4026   */\n  dup2\n  gt\n    /* \"#utility.yul\":3993:4049   */\n  iszero\n  tag_114\n  jumpi\n    /* \"#utility.yul\":4029:4047   */\n  tag_114\n  tag_68\n  jump\t// in\ntag_114:\n    /* \"#utility.yul\":4058:4155   */\n  tag_115\n    /* \"#utility.yul\":4148:4154   */\n  dup2\n    /* \"#utility.yul\":4108:4146   */\n  tag_116\n    /* \"#utility.yul\":4140:4144   */\n  dup5\n    /* \"#utility.yul\":4134:4145   */\n  sload\n    /* \"#utility.yul\":4108:4146   */\n  tag_72\n  jump\t// in\ntag_116:\n    /* \"#utility.yul\":4102:4106   */\n  dup5\n    /* \"#utility.yul\":4058:4155   */\n  tag_74\n  jump\t// in\ntag_115:\n    /* \"#utility.yul\":4204:4208   */\n  0x20\n    /* \"#utility.yul\":4235:4237   */\n  0x1f\n    /* \"#utility.yul\":4224:4238   */\n  dup3\n  gt\n    /* \"#utility.yul\":4252:4253   */\n  0x01\n    /* \"#utility.yul\":4247:4896   */\n  dup2\n  eq\n  tag_118\n  jumpi\n    /* \"#utility.yul\":4940:4941   */\n  0x00\n    /* \"#utility.yul\":4957:4963   */\n  dup4\n    /* \"#utility.yul\":4954:5043   */\n  iszero\n  tag_119\n  jumpi\n  pop\n    /* \"#utility.yul\":5009:5028   */\n  dup5\n  dup3\n  add\n    /* \"#utility.yul\":5003:5029   */\n  mload\n    /* \"#utility.yul\":4954:5043   */\ntag_119:\n  not(0x00)\n    /* \"#utility.yul\":3811:3812   */\n  0x03\n    /* \"#utility.yul\":3807:3818   */\n  dup6\n  swap1\n  shl\n    /* \"#utility.yul\":3803:3827   */\n  shr\n    /* \"#utility.yul\":3799:3828   */\n  not\n    /* \"#utility.yul\":3789:3829   */\n  and\n    /* \"#utility.yul\":3835:3836   */\n  0x01\n    /* \"#utility.yul\":3831:3842   */\n  dup5\n  swap1\n  shl\n    /* \"#utility.yul\":3786:3843   */\n  or\n    /* \"#utility.yul\":5056:5137   */\n  dup5\n  sstore\n    /* \"#utility.yul\":4217:5147   */\n  jump(tag_110)\n    /* \"#utility.yul\":4247:4896   */\ntag_118:\n    /* \"#utility.yul\":3107:3108   */\n  0x00\n    /* \"#utility.yul\":3100:3114   */\n  dup5\n  dup2\n  mstore\n    /* \"#utility.yul\":3144:3148   */\n  0x20\n    /* \"#utility.yul\":3131:3149   */\n  dup2\n  keccak256\n  not(0x1f)\n    /* \"#utility.yul\":4283:4303   */\n  dup6\n  and\n  swap2\n    /* \"#utility.yul\":4401:4623   */\ntag_122:\n    /* \"#utility.yul\":4415:4422   */\n  dup3\n    /* \"#utility.yul\":4412:4413   */\n  dup2\n    /* \"#utility.yul\":4409:4423   */\n  lt\n    /* \"#utility.yul\":4401:4623   */\n  iszero\n  tag_124\n  jumpi\n    /* \"#utility.yul\":4497:4516   */\n  dup8\n  dup6\n  add\n    /* \"#utility.yul\":4491:4517   */\n  mload\n    /* \"#utility.yul\":4476:4518   */\n  dup3\n  sstore\n    /* \"#utility.yul\":4604:4608   */\n  0x20\n    /* \"#utility.yul\":4589:4609   */\n  swap5\n  dup6\n  add\n  swap5\n    /* \"#utility.yul\":4557:4558   */\n  0x01\n    /* \"#utility.yul\":4545:4559   */\n  swap1\n  swap3\n  add\n  swap2\n    /* \"#utility.yul\":4431:4443   */\n  add\n    /* \"#utility.yul\":4401:4623   */\n  jump(tag_122)\ntag_124:\n    /* \"#utility.yul\":4405:4408   */\n  pop\n    /* \"#utility.yul\":4651:4657   */\n  dup5\n    /* \"#utility.yul\":4642:4649   */\n  dup3\n    /* \"#utility.yul\":4639:4658   */\n  lt\n    /* \"#utility.yul\":4636:4837   */\n  iszero\n  tag_125\n  jumpi\n    /* \"#utility.yul\":4712:4731   */\n  dup7\n  dup5\n  add\n    /* \"#utility.yul\":4706:4732   */\n  mload\n  not(0x00)\n    /* \"#utility.yul\":4795:4796   */\n  0x03\n    /* \"#utility.yul\":4791:4805   */\n  dup8\n  swap1\n  shl\n    /* \"#utility.yul\":4807:4810   */\n  0xf8\n    /* \"#utility.yul\":4787:4811   */\n  and\n    /* \"#utility.yul\":4783:4820   */\n  shr\n    /* \"#utility.yul\":4779:4821   */\n  not\n    /* \"#utility.yul\":4764:4822   */\n  and\n    /* \"#utility.yul\":4749:4823   */\n  dup2\n  sstore\n    /* \"#utility.yul\":4636:4837   */\ntag_125:\n  pop\n  pop\n  pop\n  pop\n    /* \"#utility.yul\":4883:4884   */\n  0x01\n    /* \"#utility.yul\":4867:4881   */\n  swap1\n  dup2\n  shl\n    /* \"#utility.yul\":4863:4885   */\n  add\n    /* \"#utility.yul\":4850:4886   */\n  swap1\n  sstore\n  pop\n    /* \"#utility.yul\":3854:5153   */\n  jump\t// out\n    /* \"#utility.yul\":5158:5447   */\ntag_76:\n    /* \"#utility.yul\":5200:5203   */\n  0x00\n    /* \"#utility.yul\":5238:5243   */\n  dup2\n    /* \"#utility.yul\":5232:5244   */\n  mload\n    /* \"#utility.yul\":5265:5271   */\n  dup1\n    /* \"#utility.yul\":5260:5263   */\n  dup5\n    /* \"#utility.yul\":5253:5272   */\n  mstore\n    /* \"#utility.yul\":5321:5327   */\n  dup1\n    /* \"#utility.yul\":5314:5318   */\n  0x20\n    /* \"#utility.yul\":5307:5312   */\n  dup5\n    /* \"#utility.yul\":5303:5319   */\n  add\n    /* \"#utility.yul\":5296:5300   */\n  0x20\n    /* \"#utility.yul\":5291:5294   */\n  dup7\n    /* \"#utility.yul\":5287:5301   */\n  add\n    /* \"#utility.yul\":5281:5328   */\n  mcopy\n    /* \"#utility.yul\":5373:5374   */\n  0x00\n    /* \"#utility.yul\":5366:5370   */\n  0x20\n    /* \"#utility.yul\":5357:5363   */\n  dup3\n    /* \"#utility.yul\":5352:5355   */\n  dup7\n    /* \"#utility.yul\":5348:5364   */\n  add\n    /* \"#utility.yul\":5344:5371   */\n  add\n    /* \"#utility.yul\":5337:5375   */\n  mstore\n    /* \"#utility.yul\":5436:5440   */\n  0x20\n    /* \"#utility.yul\":5429:5431   */\n  0x1f\n    /* \"#utility.yul\":5425:5432   */\n  not\n    /* \"#utility.yul\":5420:5422   */\n  0x1f\n    /* \"#utility.yul\":5412:5418   */\n  dup4\n    /* \"#utility.yul\":5408:5423   */\n  add\n    /* \"#utility.yul\":5404:5433   */\n  and\n    /* \"#utility.yul\":5399:5402   */\n  dup6\n    /* \"#utility.yul\":5395:5434   */\n  add\n    /* \"#utility.yul\":5391:5441   */\n  add\n    /* \"#utility.yul\":5384:5441   */\n  swap2\n  pop\n  pop\n    /* \"#utility.yul\":5158:5447   */\n  swap3\n  swap2\n  pop\n  pop\n  jump\t// out\n    /* \"#utility.yul\":5452:5930   */\ntag_31:\n    /* \"#utility.yul\":5675:5677   */\n  0x60\n    /* \"#utility.yul\":5664:5673   */\n  dup2\n    /* \"#utility.yul\":5657:5678   */\n  mstore\n    /* \"#utility.yul\":5638:5642   */\n  0x00\n    /* \"#utility.yul\":5701:5746   */\n  tag_128\n    /* \"#utility.yul\":5742:5744   */\n  0x60\n    /* \"#utility.yul\":5731:5740   */\n  dup4\n    /* \"#utility.yul\":5727:5745   */\n  add\n    /* \"#utility.yul\":5719:5725   */\n  dup7\n    /* \"#utility.yul\":5701:5746   */\n  tag_76\n  jump\t// in\ntag_128:\n    /* \"#utility.yul\":5794:5803   */\n  dup3\n    /* \"#utility.yul\":5786:5792   */\n  dup2\n    /* \"#utility.yul\":5782:5804   */\n  sub\n    /* \"#utility.yul\":5777:5779   */\n  0x20\n    /* \"#utility.yul\":5766:5775   */\n  dup5\n    /* \"#utility.yul\":5762:5780   */\n  add\n    /* \"#utility.yul\":5755:5805   */\n  mstore\n    /* \"#utility.yul\":5822:5855   */\n  tag_129\n    /* \"#utility.yul\":5848:5854   */\n  dup2\n    /* \"#utility.yul\":5840:5846   */\n  dup7\n    /* \"#utility.yul\":5822:5855   */\n  tag_76\n  jump\t// in\ntag_129:\n    /* \"#utility.yul\":5814:5855   */\n  swap2\n  pop\n  pop\n    /* \"#utility.yul\":5920:5921   */\n  0x01\n    /* \"#utility.yul\":5916:5917   */\n  dup1\n    /* \"#utility.yul\":5911:5914   */\n  0xa0\n    /* \"#utility.yul\":5907:5918   */\n  shl\n    /* \"#utility.yul\":5903:5922   */\n  sub\n    /* \"#utility.yul\":5895:5901   */\n  dup4\n    /* \"#utility.yul\":5891:5923   */\n  and\n    /* \"#utility.yul\":5886:5888   */\n  0x40\n    /* \"#utility.yul\":5875:5884   */\n  dup4\n    /* \"#utility.yul\":5871:5889   */\n  add\n    /* \"#utility.yul\":5864:5924   */\n  mstore\n    /* \"#utility.yul\":5452:5930   */\n  swap5\n  swap4\n  pop\n  pop\n  pop\n  pop\n  jump\t// out\n    /* \"#utility.yul\":7541:7763   */\ntag_61:\n    /* \"#utility.yul\":7606:7615   */\n  dup1\n  dup3\n  add\n    /* \"#utility.yul\":7627:7637   */\n  dup1\n  dup3\n  gt\n    /* \"#utility.yul\":7624:7757   */\n  iszero\n  tag_135\n  jumpi\n    /* \"#utility.yul\":7679:7689   */\n  0x4e487b71\n    /* \"#utility.yul\":7674:7677   */\n  0xe0\n    /* \"#utility.yul\":7670:7690   */\n  shl\n    /* \"#utility.yul\":7667:7668   */\n  0x00\n    /* \"#utility.yul\":7660:7691   */\n  mstore\n    /* \"#utility.yul\":7714:7718   */\n  0x11\n    /* \"#utility.yul\":7711:7712   */\n  0x04\n    /* \"#utility.yul\":7704:7719   */\n  mstore\n    /* \"#utility.yul\":7742:7746   */\n  0x24\n    /* \"#utility.yul\":7739:7740   */\n  0x00\n    /* \"#utility.yul\":7732:7747   */\n  revert\n    /* \"#utility.yul\":7624:7757   */\ntag_135:\n    /* \"#utility.yul\":7541:7763   */\n  swap3\n  swap2\n  pop\n  pop\n  jump\t// out\n    /* \"#utility.yul\":7768:7945   */\ntag_77:\n    /* \"0x7cec6f214afabc001b316c949d64cb0d0b18b652-TaxableERC20/TaxableERC20.sol\":27760:30046  contract TaxableERC20 is ERC20Decimals, ERC20Taxable, Ownable, ServicePayer {... */\n  mload(0x80)\n  codecopy(0x00, dataOffset(sub_0), dataSize(sub_0))\n  0x00\n  assignImmutable(\"0x162cb204f5715a135dda2f6a48fa2a396e865c511d3cd2f5c8fa36ddf89ecd23\")\n  return(0x00, dataSize(sub_0))\nstop\n\nsub_0: assembly {\n        /* \"0x7cec6f214afabc001b316c949d64cb0d0b18b652-TaxableERC20/TaxableERC20.sol\":27760:30046  contract TaxableERC20 is ERC20Decimals, ERC20Taxable, Ownable, ServicePayer {... */\n      mstore(0x40, 0x80)\n      callvalue\n      dup1\n      iszero\n      tag_1\n      jumpi\n      0x00\n      dup1\n      revert\n    tag_1:\n      pop\n      jumpi(tag_2, lt(calldatasize, 0x04))\n      shr(0xe0, calldataload(0x00))\n      dup1\n      0x95d89b41\n      gt\n      tag_23\n      jumpi\n      dup1\n      0xb7bda68f\n      gt\n      tag_24\n      jumpi\n      dup1\n      0xb7bda68f\n      eq\n      tag_18\n      jumpi\n      dup1\n      0xc283cd12\n      eq\n      tag_19\n      jumpi\n      dup1\n      0xc6d205fa\n      eq\n      tag_20\n      jumpi\n      dup1\n      0xdd62ed3e\n      eq\n      tag_21\n      jumpi\n      dup1\n      0xf2fde38b\n      eq\n      tag_22\n      jumpi\n      0x00\n      dup1\n      revert\n    tag_24:\n      dup1\n      0x95d89b41\n      eq\n      tag_13\n      jumpi\n      dup1\n      0xa1883d26\n      eq\n      tag_14\n      jumpi\n      dup1\n      0xa457c2d7\n      eq\n      tag_15\n      jumpi\n      dup1\n      0xa9059cbb\n      eq\n      tag_16\n      jumpi\n      dup1\n      0xb7600f7a\n      eq\n      tag_17\n      jumpi\n      0x00\n      dup1\n      revert\n    tag_23:\n      dup1\n      0x313ce567\n      gt\n      tag_25\n      jumpi\n      dup1\n      0x313ce567\n      eq\n      tag_8\n      jumpi\n      dup1\n      0x39509351\n      eq\n      tag_9\n      jumpi\n      dup1\n      0x70a08231\n      eq\n      tag_10\n      jumpi\n      dup1\n      0x715018a6\n      eq\n      tag_11\n      jumpi\n      dup1\n      0x8da5cb5b\n      eq\n      tag_12\n      jumpi\n      0x00\n      dup1\n      revert\n    tag_25:\n      dup1\n      0x06fdde03\n      eq\n      tag_3\n      jumpi\n      dup1\n      0x095ea7b3\n      eq\n      tag_4\n      jumpi\n      dup1\n      0x18160ddd\n      eq\n      tag_5\n      jumpi\n      dup1\n      0x23b872dd\n      eq\n      tag_6\n      jumpi\n      dup1\n      0x26789993\n      eq\n      tag_7\n      jumpi\n    tag_2:\n      0x00\n      dup1\n      revert\n        /* \"0x7cec6f214afabc001b316c949d64cb0d0b18b652-TaxableERC20/TaxableERC20.sol\":10711:10811  function name() public view virtual override returns (string memory) {... */\n    tag_3:\n      tag_26\n      tag_27\n      jump\t// in\n    tag_26:\n      mload(0x40)\n      tag_28\n      swap2\n      swap1\n      tag_29\n      jump\t// in\n    tag_28:\n      mload(0x40)\n      dup1\n      swap2\n      sub\n      swap1\n      return\n        /* \"0x7cec6f214afabc001b316c949d64cb0d0b18b652-TaxableERC20/TaxableERC20.sol\":13062:13263  function approve(address spender, uint256 amount) public virtual override returns (bool) {... */\n    tag_4:\n      tag_30\n      tag_31\n      calldatasize\n      0x04\n      tag_32\n      jump\t// in\n    tag_31:\n      tag_33\n      jump\t// in\n    tag_30:\n      mload(0x40)\n        /* \"#utility.yul\":1085:1099   */\n      swap1\n      iszero\n        /* \"#utility.yul\":1078:1100   */\n      iszero\n        /* \"#utility.yul\":1060:1101   */\n      dup2\n      mstore\n        /* \"#utility.yul\":1048:1050   */\n      0x20\n        /* \"#utility.yul\":1033:1051   */\n      add\n        /* \"0x7cec6f214afabc001b316c949d64cb0d0b18b652-TaxableERC20/TaxableERC20.sol\":13062:13263  function approve(address spender, uint256 amount) public virtual override returns (bool) {... */\n      tag_28\n        /* \"#utility.yul\":920:1107   */\n      jump\n        /* \"0x7cec6f214afabc001b316c949d64cb0d0b18b652-TaxableERC20/TaxableERC20.sol\":11831:11939  function totalSupply() public view virtual override returns (uint256) {... */\n    tag_5:\n        /* \"0x7cec6f214afabc001b316c949d64cb0d0b18b652-TaxableERC20/TaxableERC20.sol\":11919:11931  _totalSupply */\n      sload(0x02)\n        /* \"0x7cec6f214afabc001b316c949d64cb0d0b18b652-TaxableERC20/TaxableERC20.sol\":11831:11939  function totalSupply() public view virtual override returns (uint256) {... */\n    tag_36:\n      mload(0x40)\n        /* \"#utility.yul\":1258:1283   */\n      swap1\n      dup2\n      mstore\n        /* \"#utility.yul\":1246:1248   */\n      0x20\n        /* \"#utility.yul\":1231:1249   */\n      add\n        /* \"0x7cec6f214afabc001b316c949d64cb0d0b18b652-TaxableERC20/TaxableERC20.sol\":11831:11939  function totalSupply() public view virtual override returns (uint256) {... */\n      tag_28\n        /* \"#utility.yul\":1112:1289   */\n      jump\n        /* \"0x7cec6f214afabc001b316c949d64cb0d0b18b652-TaxableERC20/TaxableERC20.sol\":29686:29906  function transferFrom(... */\n    tag_6:\n      tag_30\n      tag_41\n      calldatasize\n      0x04\n      tag_42\n      jump\t// in\n    tag_41:\n      tag_43\n      jump\t// in\n        /* \"0x7cec6f214afabc001b316c949d64cb0d0b18b652-TaxableERC20/TaxableERC20.sol\":29374:29512  function setExclusionFromTaxFee(address account, bool status) public onlyOwner {... */\n    tag_7:\n      tag_45\n      tag_46\n      calldatasize\n      0x04\n      tag_47\n      jump\t// in\n    tag_46:\n      tag_48\n      jump\t// in\n    tag_45:\n      stop\n        /* \"0x7cec6f214afabc001b316c949d64cb0d0b18b652-TaxableERC20/TaxableERC20.sol\":29914:30043  function decimals() public view virtual override(ERC20, ERC20Decimals) returns (uint8) {... */\n    tag_8:\n      mload(0x40)\n        /* \"#utility.yul\":2197:2201   */\n      0xff\n        /* \"0x7cec6f214afabc001b316c949d64cb0d0b18b652-TaxableERC20/TaxableERC20.sol\":22484:22493  _decimals */\n      immutable(\"0x162cb204f5715a135dda2f6a48fa2a396e865c511d3cd2f5c8fa36ddf89ecd23\")\n        /* \"#utility.yul\":2185:2202   */\n      and\n        /* \"#utility.yul\":2167:2203   */\n      dup2\n      mstore\n        /* \"#utility.yul\":2155:2157   */\n      0x20\n        /* \"#utility.yul\":2140:2158   */\n      add\n        /* \"0x7cec6f214afabc001b316c949d64cb0d0b18b652-TaxableERC20/TaxableERC20.sol\":29914:30043  function decimals() public view virtual override(ERC20, ERC20Decimals) returns (uint8) {... */\n      tag_28\n        /* \"#utility.yul\":2025:2209   */\n      jump\n        /* \"0x7cec6f214afabc001b316c949d64cb0d0b18b652-TaxableERC20/TaxableERC20.sol\":14547:14785  function increaseAllowance(address spender, uint256 addedValue) public virtual returns (bool) {... */\n    tag_9:\n      tag_30\n      tag_54\n      calldatasize\n      0x04\n      tag_32\n      jump\t// in\n    tag_54:\n      tag_55\n      jump\t// in\n        /* \"0x7cec6f214afabc001b316c949d64cb0d0b18b652-TaxableERC20/TaxableERC20.sol\":12002:12129  function balanceOf(address account) public view virtual override returns (uint256) {... */\n    tag_10:\n      tag_36\n      tag_58\n      calldatasize\n      0x04\n      tag_59\n      jump\t// in\n    tag_58:\n      sub(shl(0xa0, 0x01), 0x01)\n        /* \"0x7cec6f214afabc001b316c949d64cb0d0b18b652-TaxableERC20/TaxableERC20.sol\":12103:12121  _balances[account] */\n      and\n        /* \"0x7cec6f214afabc001b316c949d64cb0d0b18b652-TaxableERC20/TaxableERC20.sol\":12076:12083  uint256 */\n      0x00\n        /* \"0x7cec6f214afabc001b316c949d64cb0d0b18b652-TaxableERC20/TaxableERC20.sol\":12103:12121  _balances[account] */\n      swap1\n      dup2\n      mstore\n      0x20\n      dup2\n      swap1\n      mstore\n      0x40\n      swap1\n      keccak256\n      sload\n      swap1\n        /* \"0x7cec6f214afabc001b316c949d64cb0d0b18b652-TaxableERC20/TaxableERC20.sol\":12002:12129  function balanceOf(address account) public view virtual override returns (uint256) {... */\n      jump\n        /* \"0x7cec6f214afabc001b316c949d64cb0d0b18b652-TaxableERC20/TaxableERC20.sol\":4140:4243  function renounceOwnership() public virtual onlyOwner {... */\n    tag_11:\n      tag_45\n      tag_63\n      jump\t// in\n        /* \"0x7cec6f214afabc001b316c949d64cb0d0b18b652-TaxableERC20/TaxableERC20.sol\":3492:3579  function owner() public view virtual returns (address) {... */\n    tag_12:\n        /* \"0x7cec6f214afabc001b316c949d64cb0d0b18b652-TaxableERC20/TaxableERC20.sol\":3565:3571  _owner */\n      and(sub(shl(0xa0, 0x01), 0x01), sload(0x08))\n        /* \"0x7cec6f214afabc001b316c949d64cb0d0b18b652-TaxableERC20/TaxableERC20.sol\":3492:3579  function owner() public view virtual returns (address) {... */\n    tag_64:\n      mload(0x40)\n      sub(shl(0xa0, 0x01), 0x01)\n        /* \"#utility.yul\":2569:2601   */\n      swap1\n      swap2\n      and\n        /* \"#utility.yul\":2551:2602   */\n      dup2\n      mstore\n        /* \"#utility.yul\":2539:2541   */\n      0x20\n        /* \"#utility.yul\":2524:2542   */\n      add\n        /* \"0x7cec6f214afabc001b316c949d64cb0d0b18b652-TaxableERC20/TaxableERC20.sol\":3492:3579  function owner() public view virtual returns (address) {... */\n      tag_28\n        /* \"#utility.yul\":2405:2608   */\n      jump\n        /* \"0x7cec6f214afabc001b316c949d64cb0d0b18b652-TaxableERC20/TaxableERC20.sol\":10930:11034  function symbol() public view virtual override returns (string memory) {... */\n    tag_13:\n      tag_26\n      tag_69\n      jump\t// in\n        /* \"0x7cec6f214afabc001b316c949d64cb0d0b18b652-TaxableERC20/TaxableERC20.sol\":29053:29158  function setTaxAddress(address taxAddress) public onlyOwner {... */\n    tag_14:\n      tag_45\n      tag_72\n      calldatasize\n      0x04\n      tag_59\n      jump\t// in\n    tag_72:\n      tag_73\n      jump\t// in\n        /* \"0x7cec6f214afabc001b316c949d64cb0d0b18b652-TaxableERC20/TaxableERC20.sol\":15288:15724  function decreaseAllowance(address spender, uint256 subtractedValue) public virtual returns (bool) {... */\n    tag_15:\n      tag_30\n      tag_75\n      calldatasize\n      0x04\n      tag_32\n      jump\t// in\n    tag_75:\n      tag_76\n      jump\t// in\n        /* \"0x7cec6f214afabc001b316c949d64cb0d0b18b652-TaxableERC20/TaxableERC20.sol\":29520:29678  function transfer(address to, uint256 amount) public virtual override(ERC20, ERC20Taxable) returns (bool) {... */\n    tag_16:\n      tag_30\n      tag_79\n      calldatasize\n      0x04\n      tag_32\n      jump\t// in\n    tag_79:\n      tag_80\n      jump\t// in\n        /* \"0x7cec6f214afabc001b316c949d64cb0d0b18b652-TaxableERC20/TaxableERC20.sol\":28706:28820  function setTaxFeePerMille(uint256 taxFeePerMille) public onlyOwner {... */\n    tag_17:\n      tag_45\n      tag_83\n      calldatasize\n      0x04\n      tag_84\n      jump\t// in\n    tag_83:\n      tag_85\n      jump\t// in\n        /* \"0x7cec6f214afabc001b316c949d64cb0d0b18b652-TaxableERC20/TaxableERC20.sol\":25550:25639  function taxAddress() public view returns (address) {... */\n    tag_18:\n        /* \"0x7cec6f214afabc001b316c949d64cb0d0b18b652-TaxableERC20/TaxableERC20.sol\":25620:25631  _taxAddress */\n      and(sub(shl(0xa0, 0x01), 0x01), sload(0x06))\n        /* \"0x7cec6f214afabc001b316c949d64cb0d0b18b652-TaxableERC20/TaxableERC20.sol\":25550:25639  function taxAddress() public view returns (address) {... */\n      jump(tag_64)\n        /* \"0x7cec6f214afabc001b316c949d64cb0d0b18b652-TaxableERC20/TaxableERC20.sol\":25754:25884  function isExcludedFromTaxFee(address account) public view returns (bool) {... */\n    tag_19:\n      tag_30\n      tag_90\n      calldatasize\n      0x04\n      tag_59\n      jump\t// in\n    tag_90:\n      sub(shl(0xa0, 0x01), 0x01)\n        /* \"0x7cec6f214afabc001b316c949d64cb0d0b18b652-TaxableERC20/TaxableERC20.sol\":25846:25876  _isExcludedFromTaxFee[account] */\n      and\n        /* \"0x7cec6f214afabc001b316c949d64cb0d0b18b652-TaxableERC20/TaxableERC20.sol\":25822:25826  bool */\n      0x00\n        /* \"0x7cec6f214afabc001b316c949d64cb0d0b18b652-TaxableERC20/TaxableERC20.sol\":25846:25876  _isExcludedFromTaxFee[account] */\n      swap1\n      dup2\n      mstore\n        /* \"0x7cec6f214afabc001b316c949d64cb0d0b18b652-TaxableERC20/TaxableERC20.sol\":25846:25867  _isExcludedFromTaxFee */\n      0x07\n        /* \"0x7cec6f214afabc001b316c949d64cb0d0b18b652-TaxableERC20/TaxableERC20.sol\":25846:25876  _isExcludedFromTaxFee[account] */\n      0x20\n      mstore\n      0x40\n      swap1\n      keccak256\n      sload\n      0xff\n      and\n      swap1\n        /* \"0x7cec6f214afabc001b316c949d64cb0d0b18b652-TaxableERC20/TaxableERC20.sol\":25754:25884  function isExcludedFromTaxFee(address account) public view returns (bool) {... */\n      jump\n        /* \"0x7cec6f214afabc001b316c949d64cb0d0b18b652-TaxableERC20/TaxableERC20.sol\":25384:25474  function taxFeePerMille() public view returns (uint256) {... */\n    tag_20:\n        /* \"0x7cec6f214afabc001b316c949d64cb0d0b18b652-TaxableERC20/TaxableERC20.sol\":25458:25466  _taxRate */\n      sload(0x05)\n        /* \"0x7cec6f214afabc001b316c949d64cb0d0b18b652-TaxableERC20/TaxableERC20.sol\":25384:25474  function taxFeePerMille() public view returns (uint256) {... */\n      jump(tag_36)\n        /* \"0x7cec6f214afabc001b316c949d64cb0d0b18b652-TaxableERC20/TaxableERC20.sol\":12591:12742  function allowance(address owner, address spender) public view virtual override returns (uint256) {... */\n    tag_21:\n      tag_36\n      tag_97\n      calldatasize\n      0x04\n      tag_98\n      jump\t// in\n    tag_97:\n      tag_99\n      jump\t// in\n        /* \"0x7cec6f214afabc001b316c949d64cb0d0b18b652-TaxableERC20/TaxableERC20.sol\":4398:4599  function transferOwnership(address newOwner) public virtual onlyOwner {... */\n    tag_22:\n      tag_45\n      tag_102\n      calldatasize\n      0x04\n      tag_59\n      jump\t// in\n    tag_102:\n      tag_103\n      jump\t// in\n        /* \"0x7cec6f214afabc001b316c949d64cb0d0b18b652-TaxableERC20/TaxableERC20.sol\":10711:10811  function name() public view virtual override returns (string memory) {... */\n    tag_27:\n        /* \"0x7cec6f214afabc001b316c949d64cb0d0b18b652-TaxableERC20/TaxableERC20.sol\":10765:10778  string memory */\n      0x60\n        /* \"0x7cec6f214afabc001b316c949d64cb0d0b18b652-TaxableERC20/TaxableERC20.sol\":10798:10803  _name */\n      0x03\n        /* \"0x7cec6f214afabc001b316c949d64cb0d0b18b652-TaxableERC20/TaxableERC20.sol\":10791:10803  return _name */\n      dup1\n      sload\n      tag_105\n      swap1\n      tag_106\n      jump\t// in\n    tag_105:\n      dup1\n      0x1f\n      add\n      0x20\n      dup1\n      swap2\n      div\n      mul\n      0x20\n      add\n      mload(0x40)\n      swap1\n      dup2\n      add\n      0x40\n      mstore\n      dup1\n      swap3\n      swap2\n      swap1\n      dup2\n      dup2\n      mstore\n      0x20\n      add\n      dup3\n      dup1\n      sload\n      tag_107\n      swap1\n      tag_106\n      jump\t// in\n    tag_107:\n      dup1\n      iszero\n      tag_108\n      jumpi\n      dup1\n      0x1f\n      lt\n      tag_109\n      jumpi\n      0x0100\n      dup1\n      dup4\n      sload\n      div\n      mul\n      dup4\n      mstore\n      swap2\n      0x20\n      add\n      swap2\n      jump(tag_108)\n    tag_109:\n      dup3\n      add\n      swap2\n      swap1\n      0x00\n      mstore\n      keccak256(0x00, 0x20)\n      swap1\n    tag_110:\n      dup2\n      sload\n      dup2\n      mstore\n      swap1\n      0x01\n      add\n      swap1\n      0x20\n      add\n      dup1\n      dup4\n      gt\n      tag_110\n      jumpi\n      dup3\n      swap1\n      sub\n      0x1f\n      and\n      dup3\n      add\n      swap2\n    tag_108:\n      pop\n      pop\n      pop\n      pop\n      pop\n      swap1\n      pop\n        /* \"0x7cec6f214afabc001b316c949d64cb0d0b18b652-TaxableERC20/TaxableERC20.sol\":10711:10811  function name() public view virtual override returns (string memory) {... */\n      swap1\n      jump\t// out\n        /* \"0x7cec6f214afabc001b316c949d64cb0d0b18b652-TaxableERC20/TaxableERC20.sol\":13062:13263  function approve(address spender, uint256 amount) public virtual override returns (bool) {... */\n    tag_33:\n        /* \"0x7cec6f214afabc001b316c949d64cb0d0b18b652-TaxableERC20/TaxableERC20.sol\":13145:13149  bool */\n      0x00\n        /* \"0x7cec6f214afabc001b316c949d64cb0d0b18b652-TaxableERC20/TaxableERC20.sol\":2125:2135  msg.sender */\n      caller\n        /* \"0x7cec6f214afabc001b316c949d64cb0d0b18b652-TaxableERC20/TaxableERC20.sol\":13201:13233  _approve(owner, spender, amount) */\n      tag_114\n        /* \"0x7cec6f214afabc001b316c949d64cb0d0b18b652-TaxableERC20/TaxableERC20.sol\":2125:2135  msg.sender */\n      dup2\n        /* \"0x7cec6f214afabc001b316c949d64cb0d0b18b652-TaxableERC20/TaxableERC20.sol\":13217:13224  spender */\n      dup6\n        /* \"0x7cec6f214afabc001b316c949d64cb0d0b18b652-TaxableERC20/TaxableERC20.sol\":13226:13232  amount */\n      dup6\n        /* \"0x7cec6f214afabc001b316c949d64cb0d0b18b652-TaxableERC20/TaxableERC20.sol\":13201:13209  _approve */\n      tag_115\n        /* \"0x7cec6f214afabc001b316c949d64cb0d0b18b652-TaxableERC20/TaxableERC20.sol\":13201:13233  _approve(owner, spender, amount) */\n      jump\t// in\n    tag_114:\n        /* \"0x7cec6f214afabc001b316c949d64cb0d0b18b652-TaxableERC20/TaxableERC20.sol\":13251:13255  true */\n      0x01\n        /* \"0x7cec6f214afabc001b316c949d64cb0d0b18b652-TaxableERC20/TaxableERC20.sol\":13244:13255  return true */\n      swap2\n      pop\n      pop\n        /* \"0x7cec6f214afabc001b316c949d64cb0d0b18b652-TaxableERC20/TaxableERC20.sol\":13062:13263  function approve(address spender, uint256 amount) public virtual override returns (bool) {... */\n    tag_111:\n      swap3\n      swap2\n      pop\n      pop\n      jump\t// out\n        /* \"0x7cec6f214afabc001b316c949d64cb0d0b18b652-TaxableERC20/TaxableERC20.sol\":29686:29906  function transferFrom(... */\n    tag_43:\n        /* \"0x7cec6f214afabc001b316c949d64cb0d0b18b652-TaxableERC20/TaxableERC20.sol\":29838:29842  bool */\n      0x00\n        /* \"0x7cec6f214afabc001b316c949d64cb0d0b18b652-TaxableERC20/TaxableERC20.sol\":29862:29898  super.transferFrom(from, to, amount) */\n      tag_118\n        /* \"0x7cec6f214afabc001b316c949d64cb0d0b18b652-TaxableERC20/TaxableERC20.sol\":29881:29885  from */\n      dup5\n        /* \"0x7cec6f214afabc001b316c949d64cb0d0b18b652-TaxableERC20/TaxableERC20.sol\":29887:29889  to */\n      dup5\n        /* \"0x7cec6f214afabc001b316c949d64cb0d0b18b652-TaxableERC20/TaxableERC20.sol\":29891:29897  amount */\n      dup5\n        /* \"0x7cec6f214afabc001b316c949d64cb0d0b18b652-TaxableERC20/TaxableERC20.sol\":29862:29880  super.transferFrom */\n      tag_119\n        /* \"0x7cec6f214afabc001b316c949d64cb0d0b18b652-TaxableERC20/TaxableERC20.sol\":29862:29898  super.transferFrom(from, to, amount) */\n      jump\t// in\n    tag_118:\n        /* \"0x7cec6f214afabc001b316c949d64cb0d0b18b652-TaxableERC20/TaxableERC20.sol\":29855:29898  return super.transferFrom(from, to, amount) */\n      swap5\n        /* \"0x7cec6f214afabc001b316c949d64cb0d0b18b652-TaxableERC20/TaxableERC20.sol\":29686:29906  function transferFrom(... */\n      swap4\n      pop\n      pop\n      pop\n      pop\n      jump\t// out\n        /* \"0x7cec6f214afabc001b316c949d64cb0d0b18b652-TaxableERC20/TaxableERC20.sol\":29374:29512  function setExclusionFromTaxFee(address account, bool status) public onlyOwner {... */\n    tag_48:\n        /* \"0x7cec6f214afabc001b316c949d64cb0d0b18b652-TaxableERC20/TaxableERC20.sol\":3378:3391  _checkOwner() */\n      tag_121\n        /* \"0x7cec6f214afabc001b316c949d64cb0d0b18b652-TaxableERC20/TaxableERC20.sol\":3378:3389  _checkOwner */\n      tag_122\n        /* \"0x7cec6f214afabc001b316c949d64cb0d0b18b652-TaxableERC20/TaxableERC20.sol\":3378:3391  _checkOwner() */\n      jump\t// in\n    tag_121:\n      sub(shl(0xa0, 0x01), 0x01)\n        /* \"0x7cec6f214afabc001b316c949d64cb0d0b18b652-TaxableERC20/TaxableERC20.sol\":27005:27036  _isExcludedFromTaxFee[account_] */\n      dup3\n      and\n      0x00\n      swap1\n      dup2\n      mstore\n        /* \"0x7cec6f214afabc001b316c949d64cb0d0b18b652-TaxableERC20/TaxableERC20.sol\":27005:27026  _isExcludedFromTaxFee */\n      0x07\n        /* \"0x7cec6f214afabc001b316c949d64cb0d0b18b652-TaxableERC20/TaxableERC20.sol\":27005:27036  _isExcludedFromTaxFee[account_] */\n      0x20\n      mstore\n      0x40\n      swap1\n      keccak256\n        /* \"0x7cec6f214afabc001b316c949d64cb0d0b18b652-TaxableERC20/TaxableERC20.sol\":27005:27046  _isExcludedFromTaxFee[account_] = status_ */\n      dup1\n      sload\n      not(0xff)\n      and\n      dup3\n      iszero\n      iszero\n      or\n      swap1\n      sstore\n        /* \"0x7cec6f214afabc001b316c949d64cb0d0b18b652-TaxableERC20/TaxableERC20.sol\":29374:29512  function setExclusionFromTaxFee(address account, bool status) public onlyOwner {... */\n      pop\n      pop\n      jump\t// out\n        /* \"0x7cec6f214afabc001b316c949d64cb0d0b18b652-TaxableERC20/TaxableERC20.sol\":14547:14785  function increaseAllowance(address spender, uint256 addedValue) public virtual returns (bool) {... */\n    tag_55:\n        /* \"0x7cec6f214afabc001b316c949d64cb0d0b18b652-TaxableERC20/TaxableERC20.sol\":14635:14639  bool */\n      0x00\n        /* \"0x7cec6f214afabc001b316c949d64cb0d0b18b652-TaxableERC20/TaxableERC20.sol\":2125:2135  msg.sender */\n      caller\n        /* \"0x7cec6f214afabc001b316c949d64cb0d0b18b652-TaxableERC20/TaxableERC20.sol\":14691:14755  _approve(owner, spender, allowance(owner, spender) + addedValue) */\n      tag_114\n        /* \"0x7cec6f214afabc001b316c949d64cb0d0b18b652-TaxableERC20/TaxableERC20.sol\":2125:2135  msg.sender */\n      dup2\n        /* \"0x7cec6f214afabc001b316c949d64cb0d0b18b652-TaxableERC20/TaxableERC20.sol\":14707:14714  spender */\n      dup6\n        /* \"0x7cec6f214afabc001b316c949d64cb0d0b18b652-TaxableERC20/TaxableERC20.sol\":14744:14754  addedValue */\n      dup6\n        /* \"0x7cec6f214afabc001b316c949d64cb0d0b18b652-TaxableERC20/TaxableERC20.sol\":14716:14741  allowance(owner, spender) */\n      tag_132\n        /* \"0x7cec6f214afabc001b316c949d64cb0d0b18b652-TaxableERC20/TaxableERC20.sol\":2125:2135  msg.sender */\n      dup4\n        /* \"0x7cec6f214afabc001b316c949d64cb0d0b18b652-TaxableERC20/TaxableERC20.sol\":14707:14714  spender */\n      dup4\n        /* \"0x7cec6f214afabc001b316c949d64cb0d0b18b652-TaxableERC20/TaxableERC20.sol\":14716:14725  allowance */\n      tag_99\n        /* \"0x7cec6f214afabc001b316c949d64cb0d0b18b652-TaxableERC20/TaxableERC20.sol\":14716:14741  allowance(owner, spender) */\n      jump\t// in\n    tag_132:\n        /* \"0x7cec6f214afabc001b316c949d64cb0d0b18b652-TaxableERC20/TaxableERC20.sol\":14716:14754  allowance(owner, spender) + addedValue */\n      tag_133\n      swap2\n      swap1\n      tag_134\n      jump\t// in\n    tag_133:\n        /* \"0x7cec6f214afabc001b316c949d64cb0d0b18b652-TaxableERC20/TaxableERC20.sol\":14691:14699  _approve */\n      tag_115\n        /* \"0x7cec6f214afabc001b316c949d64cb0d0b18b652-TaxableERC20/TaxableERC20.sol\":14691:14755  _approve(owner, spender, allowance(owner, spender) + addedValue) */\n      jump\t// in\n        /* \"0x7cec6f214afabc001b316c949d64cb0d0b18b652-TaxableERC20/TaxableERC20.sol\":4140:4243  function renounceOwnership() public virtual onlyOwner {... */\n    tag_63:\n        /* \"0x7cec6f214afabc001b316c949d64cb0d0b18b652-TaxableERC20/TaxableERC20.sol\":3378:3391  _checkOwner() */\n      tag_137\n        /* \"0x7cec6f214afabc001b316c949d64cb0d0b18b652-TaxableERC20/TaxableERC20.sol\":3378:3389  _checkOwner */\n      tag_122\n        /* \"0x7cec6f214afabc001b316c949d64cb0d0b18b652-TaxableERC20/TaxableERC20.sol\":3378:3391  _checkOwner() */\n      jump\t// in\n    tag_137:\n        /* \"0x7cec6f214afabc001b316c949d64cb0d0b18b652-TaxableERC20/TaxableERC20.sol\":4205:4235  _transferOwnership(address(0)) */\n      tag_139\n        /* \"0x7cec6f214afabc001b316c949d64cb0d0b18b652-TaxableERC20/TaxableERC20.sol\":4232:4233  0 */\n      0x00\n        /* \"0x7cec6f214afabc001b316c949d64cb0d0b18b652-TaxableERC20/TaxableERC20.sol\":4205:4223  _transferOwnership */\n      tag_140\n        /* \"0x7cec6f214afabc001b316c949d64cb0d0b18b652-TaxableERC20/TaxableERC20.sol\":4205:4235  _transferOwnership(address(0)) */\n      jump\t// in\n    tag_139:\n        /* \"0x7cec6f214afabc001b316c949d64cb0d0b18b652-TaxableERC20/TaxableERC20.sol\":4140:4243  function renounceOwnership() public virtual onlyOwner {... */\n      jump\t// out\n        /* \"0x7cec6f214afabc001b316c949d64cb0d0b18b652-TaxableERC20/TaxableERC20.sol\":10930:11034  function symbol() public view virtual override returns (string memory) {... */\n    tag_69:\n        /* \"0x7cec6f214afabc001b316c949d64cb0d0b18b652-TaxableERC20/TaxableERC20.sol\":10986:10999  string memory */\n      0x60\n        /* \"0x7cec6f214afabc001b316c949d64cb0d0b18b652-TaxableERC20/TaxableERC20.sol\":11019:11026  _symbol */\n      0x04\n        /* \"0x7cec6f214afabc001b316c949d64cb0d0b18b652-TaxableERC20/TaxableERC20.sol\":11012:11026  return _symbol */\n      dup1\n      sload\n      tag_105\n      swap1\n      tag_106\n      jump\t// in\n        /* \"0x7cec6f214afabc001b316c949d64cb0d0b18b652-TaxableERC20/TaxableERC20.sol\":29053:29158  function setTaxAddress(address taxAddress) public onlyOwner {... */\n    tag_73:\n        /* \"0x7cec6f214afabc001b316c949d64cb0d0b18b652-TaxableERC20/TaxableERC20.sol\":3378:3391  _checkOwner() */\n      tag_149\n        /* \"0x7cec6f214afabc001b316c949d64cb0d0b18b652-TaxableERC20/TaxableERC20.sol\":3378:3389  _checkOwner */\n      tag_122\n        /* \"0x7cec6f214afabc001b316c949d64cb0d0b18b652-TaxableERC20/TaxableERC20.sol\":3378:3391  _checkOwner() */\n      jump\t// in\n    tag_149:\n        /* \"0x7cec6f214afabc001b316c949d64cb0d0b18b652-TaxableERC20/TaxableERC20.sol\":29124:29150  _setTaxAddress(taxAddress) */\n      tag_151\n        /* \"0x7cec6f214afabc001b316c949d64cb0d0b18b652-TaxableERC20/TaxableERC20.sol\":29139:29149  taxAddress */\n      dup2\n        /* \"0x7cec6f214afabc001b316c949d64cb0d0b18b652-TaxableERC20/TaxableERC20.sol\":29124:29138  _setTaxAddress */\n      tag_152\n        /* \"0x7cec6f214afabc001b316c949d64cb0d0b18b652-TaxableERC20/TaxableERC20.sol\":29124:29150  _setTaxAddress(taxAddress) */\n      jump\t// in\n    tag_151:\n        /* \"0x7cec6f214afabc001b316c949d64cb0d0b18b652-TaxableERC20/TaxableERC20.sol\":29053:29158  function setTaxAddress(address taxAddress) public onlyOwner {... */\n      pop\n      jump\t// out\n        /* \"0x7cec6f214afabc001b316c949d64cb0d0b18b652-TaxableERC20/TaxableERC20.sol\":15288:15724  function decreaseAllowance(address spender, uint256 subtractedValue) public virtual returns (bool) {... */\n    tag_76:\n        /* \"0x7cec6f214afabc001b316c949d64cb0d0b18b652-TaxableERC20/TaxableERC20.sol\":15381:15385  bool */\n      0x00\n        /* \"0x7cec6f214afabc001b316c949d64cb0d0b18b652-TaxableERC20/TaxableERC20.sol\":2125:2135  msg.sender */\n      caller\n        /* \"0x7cec6f214afabc001b316c949d64cb0d0b18b652-TaxableERC20/TaxableERC20.sol\":15381:15385  bool */\n      dup2\n        /* \"0x7cec6f214afabc001b316c949d64cb0d0b18b652-TaxableERC20/TaxableERC20.sol\":15464:15489  allowance(owner, spender) */\n      tag_155\n        /* \"0x7cec6f214afabc001b316c949d64cb0d0b18b652-TaxableERC20/TaxableERC20.sol\":2125:2135  msg.sender */\n      dup3\n        /* \"0x7cec6f214afabc001b316c949d64cb0d0b18b652-TaxableERC20/TaxableERC20.sol\":15481:15488  spender */\n      dup7\n        /* \"0x7cec6f214afabc001b316c949d64cb0d0b18b652-TaxableERC20/TaxableERC20.sol\":15464:15473  allowance */\n      tag_99\n        /* \"0x7cec6f214afabc001b316c949d64cb0d0b18b652-TaxableERC20/TaxableERC20.sol\":15464:15489  allowance(owner, spender) */\n      jump\t// in\n    tag_155:\n        /* \"0x7cec6f214afabc001b316c949d64cb0d0b18b652-TaxableERC20/TaxableERC20.sol\":15437:15489  uint256 currentAllowance = allowance(owner, spender) */\n      swap1\n      pop\n        /* \"0x7cec6f214afabc001b316c949d64cb0d0b18b652-TaxableERC20/TaxableERC20.sol\":15528:15543  subtractedValue */\n      dup4\n        /* \"0x7cec6f214afabc001b316c949d64cb0d0b18b652-TaxableERC20/TaxableERC20.sol\":15508:15524  currentAllowance */\n      dup2\n        /* \"0x7cec6f214afabc001b316c949d64cb0d0b18b652-TaxableERC20/TaxableERC20.sol\":15508:15543  currentAllowance >= subtractedValue */\n      lt\n      iszero\n        /* \"0x7cec6f214afabc001b316c949d64cb0d0b18b652-TaxableERC20/TaxableERC20.sol\":15500:15585  require(currentAllowance >= subtractedValue, \"ERC20: decreased allowance below zero\") */\n      tag_156\n      jumpi\n      mload(0x40)\n      shl(0xe5, 0x461bcd)\n      dup2\n      mstore\n        /* \"#utility.yul\":3958:3960   */\n      0x20\n        /* \"0x7cec6f214afabc001b316c949d64cb0d0b18b652-TaxableERC20/TaxableERC20.sol\":15500:15585  require(currentAllowance >= subtractedValue, \"ERC20: decreased allowance below zero\") */\n      0x04\n      dup3\n      add\n        /* \"#utility.yul\":3940:3961   */\n      mstore\n        /* \"#utility.yul\":3997:3999   */\n      0x25\n        /* \"#utility.yul\":3977:3995   */\n      0x24\n      dup3\n      add\n        /* \"#utility.yul\":3970:4000   */\n      mstore\n        /* \"#utility.yul\":4036:4070   */\n      0x45524332303a2064656372656173656420616c6c6f77616e63652062656c6f77\n        /* \"#utility.yul\":4016:4034   */\n      0x44\n      dup3\n      add\n        /* \"#utility.yul\":4009:4071   */\n      mstore\n      shl(0xd8, 0x207a65726f)\n        /* \"#utility.yul\":4087:4105   */\n      0x64\n      dup3\n      add\n        /* \"#utility.yul\":4080:4115   */\n      mstore\n        /* \"#utility.yul\":4132:4151   */\n      0x84\n      add\n        /* \"0x7cec6f214afabc001b316c949d64cb0d0b18b652-TaxableERC20/TaxableERC20.sol\":15500:15585  require(currentAllowance >= subtractedValue, \"ERC20: decreased allowance below zero\") */\n    tag_157:\n      mload(0x40)\n      dup1\n      swap2\n      sub\n      swap1\n      revert\n    tag_156:\n        /* \"0x7cec6f214afabc001b316c949d64cb0d0b18b652-TaxableERC20/TaxableERC20.sol\":15621:15681  _approve(owner, spender, currentAllowance - subtractedValue) */\n      tag_159\n        /* \"0x7cec6f214afabc001b316c949d64cb0d0b18b652-TaxableERC20/TaxableERC20.sol\":15630:15635  owner */\n      dup3\n        /* \"0x7cec6f214afabc001b316c949d64cb0d0b18b652-TaxableERC20/TaxableERC20.sol\":15637:15644  spender */\n      dup7\n        /* \"0x7cec6f214afabc001b316c949d64cb0d0b18b652-TaxableERC20/TaxableERC20.sol\":15665:15680  subtractedValue */\n      dup7\n        /* \"0x7cec6f214afabc001b316c949d64cb0d0b18b652-TaxableERC20/TaxableERC20.sol\":15646:15662  currentAllowance */\n      dup5\n        /* \"0x7cec6f214afabc001b316c949d64cb0d0b18b652-TaxableERC20/TaxableERC20.sol\":15646:15680  currentAllowance - subtractedValue */\n      sub\n        /* \"0x7cec6f214afabc001b316c949d64cb0d0b18b652-TaxableERC20/TaxableERC20.sol\":15621:15629  _approve */\n      tag_115\n        /* \"0x7cec6f214afabc001b316c949d64cb0d0b18b652-TaxableERC20/TaxableERC20.sol\":15621:15681  _approve(owner, spender, currentAllowance - subtractedValue) */\n      jump\t// in\n    tag_159:\n      pop\n        /* \"0x7cec6f214afabc001b316c949d64cb0d0b18b652-TaxableERC20/TaxableERC20.sol\":15712:15716  true */\n      0x01\n      swap5\n        /* \"0x7cec6f214afabc001b316c949d64cb0d0b18b652-TaxableERC20/TaxableERC20.sol\":15288:15724  function decreaseAllowance(address spender, uint256 subtractedValue) public virtual returns (bool) {... */\n      swap4\n      pop\n      pop\n      pop\n      pop\n      jump\t// out\n        /* \"0x7cec6f214afabc001b316c949d64cb0d0b18b652-TaxableERC20/TaxableERC20.sol\":29520:29678  function transfer(address to, uint256 amount) public virtual override(ERC20, ERC20Taxable) returns (bool) {... */\n    tag_80:\n        /* \"0x7cec6f214afabc001b316c949d64cb0d0b18b652-TaxableERC20/TaxableERC20.sol\":29620:29624  bool */\n      0x00\n        /* \"0x7cec6f214afabc001b316c949d64cb0d0b18b652-TaxableERC20/TaxableERC20.sol\":29644:29670  super.transfer(to, amount) */\n      tag_161\n        /* \"0x7cec6f214afabc001b316c949d64cb0d0b18b652-TaxableERC20/TaxableERC20.sol\":29659:29661  to */\n      dup4\n        /* \"0x7cec6f214afabc001b316c949d64cb0d0b18b652-TaxableERC20/TaxableERC20.sol\":29663:29669  amount */\n      dup4\n        /* \"0x7cec6f214afabc001b316c949d64cb0d0b18b652-TaxableERC20/TaxableERC20.sol\":29644:29658  super.transfer */\n      tag_162\n        /* \"0x7cec6f214afabc001b316c949d64cb0d0b18b652-TaxableERC20/TaxableERC20.sol\":29644:29670  super.transfer(to, amount) */\n      jump\t// in\n    tag_161:\n        /* \"0x7cec6f214afabc001b316c949d64cb0d0b18b652-TaxableERC20/TaxableERC20.sol\":29637:29670  return super.transfer(to, amount) */\n      swap4\n        /* \"0x7cec6f214afabc001b316c949d64cb0d0b18b652-TaxableERC20/TaxableERC20.sol\":29520:29678  function transfer(address to, uint256 amount) public virtual override(ERC20, ERC20Taxable) returns (bool) {... */\n      swap3\n      pop\n      pop\n      pop\n      jump\t// out\n        /* \"0x7cec6f214afabc001b316c949d64cb0d0b18b652-TaxableERC20/TaxableERC20.sol\":28706:28820  function setTaxFeePerMille(uint256 taxFeePerMille) public onlyOwner {... */\n    tag_85:\n        /* \"0x7cec6f214afabc001b316c949d64cb0d0b18b652-TaxableERC20/TaxableERC20.sol\":3378:3391  _checkOwner() */\n      tag_164\n        /* \"0x7cec6f214afabc001b316c949d64cb0d0b18b652-TaxableERC20/TaxableERC20.sol\":3378:3389  _checkOwner */\n      tag_122\n        /* \"0x7cec6f214afabc001b316c949d64cb0d0b18b652-TaxableERC20/TaxableERC20.sol\":3378:3391  _checkOwner() */\n      jump\t// in\n    tag_164:\n        /* \"0x7cec6f214afabc001b316c949d64cb0d0b18b652-TaxableERC20/TaxableERC20.sol\":28785:28812  _setTaxRate(taxFeePerMille) */\n      tag_151\n        /* \"0x7cec6f214afabc001b316c949d64cb0d0b18b652-TaxableERC20/TaxableERC20.sol\":28797:28811  taxFeePerMille */\n      dup2\n        /* \"0x7cec6f214afabc001b316c949d64cb0d0b18b652-TaxableERC20/TaxableERC20.sol\":28785:28796  _setTaxRate */\n      tag_167\n        /* \"0x7cec6f214afabc001b316c949d64cb0d0b18b652-TaxableERC20/TaxableERC20.sol\":28785:28812  _setTaxRate(taxFeePerMille) */\n      jump\t// in\n        /* \"0x7cec6f214afabc001b316c949d64cb0d0b18b652-TaxableERC20/TaxableERC20.sol\":12591:12742  function allowance(address owner, address spender) public view virtual override returns (uint256) {... */\n    tag_99:\n      sub(shl(0xa0, 0x01), 0x01)\n        /* \"0x7cec6f214afabc001b316c949d64cb0d0b18b652-TaxableERC20/TaxableERC20.sol\":12707:12725  _allowances[owner] */\n      swap2\n      dup3\n      and\n        /* \"0x7cec6f214afabc001b316c949d64cb0d0b18b652-TaxableERC20/TaxableERC20.sol\":12680:12687  uint256 */\n      0x00\n        /* \"0x7cec6f214afabc001b316c949d64cb0d0b18b652-TaxableERC20/TaxableERC20.sol\":12707:12725  _allowances[owner] */\n      swap1\n      dup2\n      mstore\n        /* \"0x7cec6f214afabc001b316c949d64cb0d0b18b652-TaxableERC20/TaxableERC20.sol\":12707:12718  _allowances */\n      0x01\n        /* \"0x7cec6f214afabc001b316c949d64cb0d0b18b652-TaxableERC20/TaxableERC20.sol\":12707:12725  _allowances[owner] */\n      0x20\n      swap1\n      dup2\n      mstore\n      0x40\n      dup1\n      dup4\n      keccak256\n        /* \"0x7cec6f214afabc001b316c949d64cb0d0b18b652-TaxableERC20/TaxableERC20.sol\":12707:12734  _allowances[owner][spender] */\n      swap4\n      swap1\n      swap5\n      and\n      dup3\n      mstore\n      swap2\n      swap1\n      swap2\n      mstore\n      keccak256\n      sload\n      swap1\n        /* \"0x7cec6f214afabc001b316c949d64cb0d0b18b652-TaxableERC20/TaxableERC20.sol\":12591:12742  function allowance(address owner, address spender) public view virtual override returns (uint256) {... */\n      jump\t// out\n        /* \"0x7cec6f214afabc001b316c949d64cb0d0b18b652-TaxableERC20/TaxableERC20.sol\":4398:4599  function transferOwnership(address newOwner) public virtual onlyOwner {... */\n    tag_103:\n        /* \"0x7cec6f214afabc001b316c949d64cb0d0b18b652-TaxableERC20/TaxableERC20.sol\":3378:3391  _checkOwner() */\n      tag_173\n        /* \"0x7cec6f214afabc001b316c949d64cb0d0b18b652-TaxableERC20/TaxableERC20.sol\":3378:3389  _checkOwner */\n      tag_122\n        /* \"0x7cec6f214afabc001b316c949d64cb0d0b18b652-TaxableERC20/TaxableERC20.sol\":3378:3391  _checkOwner() */\n      jump\t// in\n    tag_173:\n      sub(shl(0xa0, 0x01), 0x01)\n        /* \"0x7cec6f214afabc001b316c949d64cb0d0b18b652-TaxableERC20/TaxableERC20.sol\":4487:4509  newOwner != address(0) */\n      dup2\n      and\n        /* \"0x7cec6f214afabc001b316c949d64cb0d0b18b652-TaxableERC20/TaxableERC20.sol\":4479:4552  require(newOwner != address(0), \"Ownable: new owner is the zero address\") */\n      tag_175\n      jumpi\n      mload(0x40)\n      shl(0xe5, 0x461bcd)\n      dup2\n      mstore\n        /* \"#utility.yul\":4364:4366   */\n      0x20\n        /* \"0x7cec6f214afabc001b316c949d64cb0d0b18b652-TaxableERC20/TaxableERC20.sol\":4479:4552  require(newOwner != address(0), \"Ownable: new owner is the zero address\") */\n      0x04\n      dup3\n      add\n        /* \"#utility.yul\":4346:4367   */\n      mstore\n        /* \"#utility.yul\":4403:4405   */\n      0x26\n        /* \"#utility.yul\":4383:4401   */\n      0x24\n      dup3\n      add\n        /* \"#utility.yul\":4376:4406   */\n      mstore\n        /* \"#utility.yul\":4442:4476   */\n      0x4f776e61626c653a206e6577206f776e657220697320746865207a65726f2061\n        /* \"#utility.yul\":4422:4440   */\n      0x44\n      dup3\n      add\n        /* \"#utility.yul\":4415:4477   */\n      mstore\n      shl(0xd0, 0x646472657373)\n        /* \"#utility.yul\":4493:4511   */\n      0x64\n      dup3\n      add\n        /* \"#utility.yul\":4486:4522   */\n      mstore\n        /* \"#utility.yul\":4539:4558   */\n      0x84\n      add\n        /* \"0x7cec6f214afabc001b316c949d64cb0d0b18b652-TaxableERC20/TaxableERC20.sol\":4479:4552  require(newOwner != address(0), \"Ownable: new owner is the zero address\") */\n      tag_157\n        /* \"#utility.yul\":4162:4564   */\n      jump\n        /* \"0x7cec6f214afabc001b316c949d64cb0d0b18b652-TaxableERC20/TaxableERC20.sol\":4479:4552  require(newOwner != address(0), \"Ownable: new owner is the zero address\") */\n    tag_175:\n        /* \"0x7cec6f214afabc001b316c949d64cb0d0b18b652-TaxableERC20/TaxableERC20.sol\":4563:4591  _transferOwnership(newOwner) */\n      tag_151\n        /* \"0x7cec6f214afabc001b316c949d64cb0d0b18b652-TaxableERC20/TaxableERC20.sol\":4582:4590  newOwner */\n      dup2\n        /* \"0x7cec6f214afabc001b316c949d64cb0d0b18b652-TaxableERC20/TaxableERC20.sol\":4563:4581  _transferOwnership */\n      tag_140\n        /* \"0x7cec6f214afabc001b316c949d64cb0d0b18b652-TaxableERC20/TaxableERC20.sol\":4563:4591  _transferOwnership(newOwner) */\n      jump\t// in\n        /* \"0x7cec6f214afabc001b316c949d64cb0d0b18b652-TaxableERC20/TaxableERC20.sol\":19315:19695  function _approve(... */\n    tag_115:\n      sub(shl(0xa0, 0x01), 0x01)\n        /* \"0x7cec6f214afabc001b316c949d64cb0d0b18b652-TaxableERC20/TaxableERC20.sol\":19451:19470  owner != address(0) */\n      dup4\n      and\n        /* \"0x7cec6f214afabc001b316c949d64cb0d0b18b652-TaxableERC20/TaxableERC20.sol\":19443:19511  require(owner != address(0), \"ERC20: approve from the zero address\") */\n      tag_181\n      jumpi\n      mload(0x40)\n      shl(0xe5, 0x461bcd)\n      dup2\n      mstore\n        /* \"#utility.yul\":4771:4773   */\n      0x20\n        /* \"0x7cec6f214afabc001b316c949d64cb0d0b18b652-TaxableERC20/TaxableERC20.sol\":19443:19511  require(owner != address(0), \"ERC20: approve from the zero address\") */\n      0x04\n      dup3\n      add\n        /* \"#utility.yul\":4753:4774   */\n      mstore\n        /* \"#utility.yul\":4810:4812   */\n      0x24\n        /* \"#utility.yul\":4790:4808   */\n      dup1\n      dup3\n      add\n        /* \"#utility.yul\":4783:4813   */\n      mstore\n        /* \"#utility.yul\":4849:4883   */\n      0x45524332303a20617070726f76652066726f6d20746865207a65726f20616464\n        /* \"#utility.yul\":4829:4847   */\n      0x44\n      dup3\n      add\n        /* \"#utility.yul\":4822:4884   */\n      mstore\n      shl(0xe0, 0x72657373)\n        /* \"#utility.yul\":4900:4918   */\n      0x64\n      dup3\n      add\n        /* \"#utility.yul\":4893:4927   */\n      mstore\n        /* \"#utility.yul\":4944:4963   */\n      0x84\n      add\n        /* \"0x7cec6f214afabc001b316c949d64cb0d0b18b652-TaxableERC20/TaxableERC20.sol\":19443:19511  require(owner != address(0), \"ERC20: approve from the zero address\") */\n      tag_157\n        /* \"#utility.yul\":4569:4969   */\n      jump\n        /* \"0x7cec6f214afabc001b316c949d64cb0d0b18b652-TaxableERC20/TaxableERC20.sol\":19443:19511  require(owner != address(0), \"ERC20: approve from the zero address\") */\n    tag_181:\n      sub(shl(0xa0, 0x01), 0x01)\n        /* \"0x7cec6f214afabc001b316c949d64cb0d0b18b652-TaxableERC20/TaxableERC20.sol\":19530:19551  spender != address(0) */\n      dup3\n      and\n        /* \"0x7cec6f214afabc001b316c949d64cb0d0b18b652-TaxableERC20/TaxableERC20.sol\":19522:19590  require(spender != address(0), \"ERC20: approve to the zero address\") */\n      tag_184\n      jumpi\n      mload(0x40)\n      shl(0xe5, 0x461bcd)\n      dup2\n      mstore\n        /* \"#utility.yul\":5176:5178   */\n      0x20\n        /* \"0x7cec6f214afabc001b316c949d64cb0d0b18b652-TaxableERC20/TaxableERC20.sol\":19522:19590  require(spender != address(0), \"ERC20: approve to the zero address\") */\n      0x04\n      dup3\n      add\n        /* \"#utility.yul\":5158:5179   */\n      mstore\n        /* \"#utility.yul\":5215:5217   */\n      0x22\n        /* \"#utility.yul\":5195:5213   */\n      0x24\n      dup3\n      add\n        /* \"#utility.yul\":5188:5218   */\n      mstore\n        /* \"#utility.yul\":5254:5288   */\n      0x45524332303a20617070726f766520746f20746865207a65726f206164647265\n        /* \"#utility.yul\":5234:5252   */\n      0x44\n      dup3\n      add\n        /* \"#utility.yul\":5227:5289   */\n      mstore\n      shl(0xf0, 0x7373)\n        /* \"#utility.yul\":5305:5323   */\n      0x64\n      dup3\n      add\n        /* \"#utility.yul\":5298:5330   */\n      mstore\n        /* \"#utility.yul\":5347:5366   */\n      0x84\n      add\n        /* \"0x7cec6f214afabc001b316c949d64cb0d0b18b652-TaxableERC20/TaxableERC20.sol\":19522:19590  require(spender != address(0), \"ERC20: approve to the zero address\") */\n      tag_157\n        /* \"#utility.yul\":4974:5372   */\n      jump\n        /* \"0x7cec6f214afabc001b316c949d64cb0d0b18b652-TaxableERC20/TaxableERC20.sol\":19522:19590  require(spender != address(0), \"ERC20: approve to the zero address\") */\n    tag_184:\n      sub(shl(0xa0, 0x01), 0x01)\n        /* \"0x7cec6f214afabc001b316c949d64cb0d0b18b652-TaxableERC20/TaxableERC20.sol\":19603:19621  _allowances[owner] */\n      dup4\n      dup2\n      and\n      0x00\n      dup2\n      dup2\n      mstore\n        /* \"0x7cec6f214afabc001b316c949d64cb0d0b18b652-TaxableERC20/TaxableERC20.sol\":19603:19614  _allowances */\n      0x01\n        /* \"0x7cec6f214afabc001b316c949d64cb0d0b18b652-TaxableERC20/TaxableERC20.sol\":19603:19621  _allowances[owner] */\n      0x20\n      swap1\n      dup2\n      mstore\n      0x40\n      dup1\n      dup4\n      keccak256\n        /* \"0x7cec6f214afabc001b316c949d64cb0d0b18b652-TaxableERC20/TaxableERC20.sol\":19603:19630  _allowances[owner][spender] */\n      swap5\n      dup8\n      and\n      dup1\n      dup5\n      mstore\n      swap5\n      dup3\n      mstore\n      swap2\n      dup3\n      swap1\n      keccak256\n        /* \"0x7cec6f214afabc001b316c949d64cb0d0b18b652-TaxableERC20/TaxableERC20.sol\":19603:19639  _allowances[owner][spender] = amount */\n      dup6\n      swap1\n      sstore\n        /* \"0x7cec6f214afabc001b316c949d64cb0d0b18b652-TaxableERC20/TaxableERC20.sol\":19655:19687  Approval(owner, spender, amount) */\n      swap1\n      mload\n        /* \"#utility.yul\":1258:1283   */\n      dup5\n      dup2\n      mstore\n        /* \"0x7cec6f214afabc001b316c949d64cb0d0b18b652-TaxableERC20/TaxableERC20.sol\":19655:19687  Approval(owner, spender, amount) */\n      0x8c5be1e5ebec7d5bd14f71427d1e84f3dd0314c0f7b2291e5b200ac8c7c3b925\n      swap2\n        /* \"#utility.yul\":1231:1249   */\n      add\n        /* \"0x7cec6f214afabc001b316c949d64cb0d0b18b652-TaxableERC20/TaxableERC20.sol\":19655:19687  Approval(owner, spender, amount) */\n      mload(0x40)\n      dup1\n      swap2\n      sub\n      swap1\n      log3\n        /* \"0x7cec6f214afabc001b316c949d64cb0d0b18b652-TaxableERC20/TaxableERC20.sol\":19315:19695  function _approve(... */\n      pop\n      pop\n      pop\n      jump\t// out\n        /* \"0x7cec6f214afabc001b316c949d64cb0d0b18b652-TaxableERC20/TaxableERC20.sol\":24561:25191  function transferFrom(address from, address to, uint256 amount) public virtual override returns (bool) {... */\n    tag_119:\n        /* \"0x7cec6f214afabc001b316c949d64cb0d0b18b652-TaxableERC20/TaxableERC20.sol\":24658:24662  bool */\n      0x00\n        /* \"0x7cec6f214afabc001b316c949d64cb0d0b18b652-TaxableERC20/TaxableERC20.sol\":2125:2135  msg.sender */\n      caller\n        /* \"0x7cec6f214afabc001b316c949d64cb0d0b18b652-TaxableERC20/TaxableERC20.sol\":24716:24754  _spendAllowance(from, spender, amount) */\n      tag_190\n        /* \"0x7cec6f214afabc001b316c949d64cb0d0b18b652-TaxableERC20/TaxableERC20.sol\":24732:24736  from */\n      dup6\n        /* \"0x7cec6f214afabc001b316c949d64cb0d0b18b652-TaxableERC20/TaxableERC20.sol\":2125:2135  msg.sender */\n      dup3\n        /* \"0x7cec6f214afabc001b316c949d64cb0d0b18b652-TaxableERC20/TaxableERC20.sol\":24747:24753  amount */\n      dup6\n        /* \"0x7cec6f214afabc001b316c949d64cb0d0b18b652-TaxableERC20/TaxableERC20.sol\":24716:24731  _spendAllowance */\n      tag_191\n        /* \"0x7cec6f214afabc001b316c949d64cb0d0b18b652-TaxableERC20/TaxableERC20.sol\":24716:24754  _spendAllowance(from, spender, amount) */\n      jump\t// in\n    tag_190:\n        /* \"0x7cec6f214afabc001b316c949d64cb0d0b18b652-TaxableERC20/TaxableERC20.sol\":24782:24783  0 */\n      0x00\n        /* \"0x7cec6f214afabc001b316c949d64cb0d0b18b652-TaxableERC20/TaxableERC20.sol\":24771:24779  _taxRate */\n      sload(0x05)\n        /* \"0x7cec6f214afabc001b316c949d64cb0d0b18b652-TaxableERC20/TaxableERC20.sol\":24771:24783  _taxRate > 0 */\n      gt\n        /* \"0x7cec6f214afabc001b316c949d64cb0d0b18b652-TaxableERC20/TaxableERC20.sol\":24771:24846  _taxRate > 0 && !(_isExcludedFromTaxFee[from] || _isExcludedFromTaxFee[to]) */\n      dup1\n      iszero\n      tag_192\n      jumpi\n      pop\n      sub(shl(0xa0, 0x01), 0x01)\n        /* \"0x7cec6f214afabc001b316c949d64cb0d0b18b652-TaxableERC20/TaxableERC20.sol\":24789:24816  _isExcludedFromTaxFee[from] */\n      dup6\n      and\n      0x00\n      swap1\n      dup2\n      mstore\n        /* \"0x7cec6f214afabc001b316c949d64cb0d0b18b652-TaxableERC20/TaxableERC20.sol\":24789:24810  _isExcludedFromTaxFee */\n      0x07\n        /* \"0x7cec6f214afabc001b316c949d64cb0d0b18b652-TaxableERC20/TaxableERC20.sol\":24789:24816  _isExcludedFromTaxFee[from] */\n      0x20\n      mstore\n      0x40\n      swap1\n      keccak256\n      sload\n      0xff\n      and\n      dup1\n        /* \"0x7cec6f214afabc001b316c949d64cb0d0b18b652-TaxableERC20/TaxableERC20.sol\":24789:24845  _isExcludedFromTaxFee[from] || _isExcludedFromTaxFee[to] */\n      tag_193\n      jumpi\n      pop\n      sub(shl(0xa0, 0x01), 0x01)\n        /* \"0x7cec6f214afabc001b316c949d64cb0d0b18b652-TaxableERC20/TaxableERC20.sol\":24820:24845  _isExcludedFromTaxFee[to] */\n      dup5\n      and\n      0x00\n      swap1\n      dup2\n      mstore\n        /* \"0x7cec6f214afabc001b316c949d64cb0d0b18b652-TaxableERC20/TaxableERC20.sol\":24820:24841  _isExcludedFromTaxFee */\n      0x07\n        /* \"0x7cec6f214afabc001b316c949d64cb0d0b18b652-TaxableERC20/TaxableERC20.sol\":24820:24845  _isExcludedFromTaxFee[to] */\n      0x20\n      mstore\n      0x40\n      swap1\n      keccak256\n      sload\n      0xff\n      and\n        /* \"0x7cec6f214afabc001b316c949d64cb0d0b18b652-TaxableERC20/TaxableERC20.sol\":24789:24845  _isExcludedFromTaxFee[from] || _isExcludedFromTaxFee[to] */\n    tag_193:\n        /* \"0x7cec6f214afabc001b316c949d64cb0d0b18b652-TaxableERC20/TaxableERC20.sol\":24787:24846  !(_isExcludedFromTaxFee[from] || _isExcludedFromTaxFee[to]) */\n      iszero\n        /* \"0x7cec6f214afabc001b316c949d64cb0d0b18b652-TaxableERC20/TaxableERC20.sol\":24771:24846  _taxRate > 0 && !(_isExcludedFromTaxFee[from] || _isExcludedFromTaxFee[to]) */\n    tag_192:\n        /* \"0x7cec6f214afabc001b316c949d64cb0d0b18b652-TaxableERC20/TaxableERC20.sol\":24767:25120  if (_taxRate > 0 && !(_isExcludedFromTaxFee[from] || _isExcludedFromTaxFee[to])) {... */\n      iszero\n      tag_194\n      jumpi\n        /* \"0x7cec6f214afabc001b316c949d64cb0d0b18b652-TaxableERC20/TaxableERC20.sol\":24863:24880  uint256 taxAmount */\n      0x00\n        /* \"0x7cec6f214afabc001b316c949d64cb0d0b18b652-TaxableERC20/TaxableERC20.sol\":24905:24909  1000 */\n      0x03e8\n        /* \"0x7cec6f214afabc001b316c949d64cb0d0b18b652-TaxableERC20/TaxableERC20.sol\":24893:24901  _taxRate */\n      sload(0x05)\n        /* \"0x7cec6f214afabc001b316c949d64cb0d0b18b652-TaxableERC20/TaxableERC20.sol\":24884:24890  amount */\n      dup6\n        /* \"0x7cec6f214afabc001b316c949d64cb0d0b18b652-TaxableERC20/TaxableERC20.sol\":24884:24901  amount * _taxRate */\n      tag_195\n      swap2\n      swap1\n      tag_196\n      jump\t// in\n    tag_195:\n        /* \"0x7cec6f214afabc001b316c949d64cb0d0b18b652-TaxableERC20/TaxableERC20.sol\":24883:24909  (amount * _taxRate) / 1000 */\n      tag_197\n      swap2\n      swap1\n      tag_198\n      jump\t// in\n    tag_197:\n        /* \"0x7cec6f214afabc001b316c949d64cb0d0b18b652-TaxableERC20/TaxableERC20.sol\":24863:24909  uint256 taxAmount = (amount * _taxRate) / 1000 */\n      swap1\n      pop\n        /* \"0x7cec6f214afabc001b316c949d64cb0d0b18b652-TaxableERC20/TaxableERC20.sol\":24930:24943  taxAmount > 0 */\n      dup1\n      iszero\n        /* \"0x7cec6f214afabc001b316c949d64cb0d0b18b652-TaxableERC20/TaxableERC20.sol\":24926:25109  if (taxAmount > 0) {... */\n      tag_199\n      jumpi\n        /* \"0x7cec6f214afabc001b316c949d64cb0d0b18b652-TaxableERC20/TaxableERC20.sol\":24980:24991  _taxAddress */\n      sload(0x06)\n        /* \"0x7cec6f214afabc001b316c949d64cb0d0b18b652-TaxableERC20/TaxableERC20.sol\":24964:25003  _transfer(from, _taxAddress, taxAmount) */\n      tag_200\n      swap1\n        /* \"0x7cec6f214afabc001b316c949d64cb0d0b18b652-TaxableERC20/TaxableERC20.sol\":24974:24978  from */\n      dup8\n      swap1\n      sub(shl(0xa0, 0x01), 0x01)\n        /* \"0x7cec6f214afabc001b316c949d64cb0d0b18b652-TaxableERC20/TaxableERC20.sol\":24980:24991  _taxAddress */\n      and\n        /* \"0x7cec6f214afabc001b316c949d64cb0d0b18b652-TaxableERC20/TaxableERC20.sol\":24993:25002  taxAmount */\n      dup4\n        /* \"0x7cec6f214afabc001b316c949d64cb0d0b18b652-TaxableERC20/TaxableERC20.sol\":24964:24973  _transfer */\n      tag_201\n        /* \"0x7cec6f214afabc001b316c949d64cb0d0b18b652-TaxableERC20/TaxableERC20.sol\":24964:25003  _transfer(from, _taxAddress, taxAmount) */\n      jump\t// in\n    tag_200:\n        /* \"0x7cec6f214afabc001b316c949d64cb0d0b18b652-TaxableERC20/TaxableERC20.sol\":25065:25074  taxAmount */\n      dup1\n        /* \"0x7cec6f214afabc001b316c949d64cb0d0b18b652-TaxableERC20/TaxableERC20.sol\":25055:25074  amount -= taxAmount */\n      dup5\n      sub\n      swap4\n      pop\n        /* \"0x7cec6f214afabc001b316c949d64cb0d0b18b652-TaxableERC20/TaxableERC20.sol\":24926:25109  if (taxAmount > 0) {... */\n    tag_199:\n        /* \"0x7cec6f214afabc001b316c949d64cb0d0b18b652-TaxableERC20/TaxableERC20.sol\":24848:25120  {... */\n      pop\n        /* \"0x7cec6f214afabc001b316c949d64cb0d0b18b652-TaxableERC20/TaxableERC20.sol\":24767:25120  if (_taxRate > 0 && !(_isExcludedFromTaxFee[from] || _isExcludedFromTaxFee[to])) {... */\n    tag_194:\n        /* \"0x7cec6f214afabc001b316c949d64cb0d0b18b652-TaxableERC20/TaxableERC20.sol\":25132:25159  _transfer(from, to, amount) */\n      tag_159\n        /* \"0x7cec6f214afabc001b316c949d64cb0d0b18b652-TaxableERC20/TaxableERC20.sol\":25142:25146  from */\n      dup6\n        /* \"0x7cec6f214afabc001b316c949d64cb0d0b18b652-TaxableERC20/TaxableERC20.sol\":25148:25150  to */\n      dup6\n        /* \"0x7cec6f214afabc001b316c949d64cb0d0b18b652-TaxableERC20/TaxableERC20.sol\":25152:25158  amount */\n      dup6\n        /* \"0x7cec6f214afabc001b316c949d64cb0d0b18b652-TaxableERC20/TaxableERC20.sol\":25132:25141  _transfer */\n      tag_201\n        /* \"0x7cec6f214afabc001b316c949d64cb0d0b18b652-TaxableERC20/TaxableERC20.sol\":25132:25159  _transfer(from, to, amount) */\n      jump\t// in\n        /* \"0x7cec6f214afabc001b316c949d64cb0d0b18b652-TaxableERC20/TaxableERC20.sol\":3657:3789  function _checkOwner() internal view virtual {... */\n    tag_122:\n        /* \"0x7cec6f214afabc001b316c949d64cb0d0b18b652-TaxableERC20/TaxableERC20.sol\":3565:3571  _owner */\n      and(sub(shl(0xa0, 0x01), 0x01), sload(0x08))\n        /* \"0x7cec6f214afabc001b316c949d64cb0d0b18b652-TaxableERC20/TaxableERC20.sol\":2125:2135  msg.sender */\n      caller\n        /* \"0x7cec6f214afabc001b316c949d64cb0d0b18b652-TaxableERC20/TaxableERC20.sol\":3721:3744  owner() == _msgSender() */\n      eq\n        /* \"0x7cec6f214afabc001b316c949d64cb0d0b18b652-TaxableERC20/TaxableERC20.sol\":3713:3781  require(owner() == _msgSender(), \"Ownable: caller is not the owner\") */\n      tag_139\n      jumpi\n      mload(0x40)\n      shl(0xe5, 0x461bcd)\n      dup2\n      mstore\n        /* \"#utility.yul\":5974:5976   */\n      0x20\n        /* \"0x7cec6f214afabc001b316c949d64cb0d0b18b652-TaxableERC20/TaxableERC20.sol\":3713:3781  require(owner() == _msgSender(), \"Ownable: caller is not the owner\") */\n      0x04\n      dup3\n      add\n        /* \"#utility.yul\":5956:5977   */\n      dup2\n      swap1\n      mstore\n        /* \"#utility.yul\":5993:6011   */\n      0x24\n      dup3\n      add\n        /* \"#utility.yul\":5986:6016   */\n      mstore\n        /* \"#utility.yul\":6052:6086   */\n      0x4f776e61626c653a2063616c6c6572206973206e6f7420746865206f776e6572\n        /* \"#utility.yul\":6032:6050   */\n      0x44\n      dup3\n      add\n        /* \"#utility.yul\":6025:6087   */\n      mstore\n        /* \"#utility.yul\":6104:6122   */\n      0x64\n      add\n        /* \"0x7cec6f214afabc001b316c949d64cb0d0b18b652-TaxableERC20/TaxableERC20.sol\":3713:3781  require(owner() == _msgSender(), \"Ownable: caller is not the owner\") */\n      tag_157\n        /* \"#utility.yul\":5772:6128   */\n      jump\n        /* \"0x7cec6f214afabc001b316c949d64cb0d0b18b652-TaxableERC20/TaxableERC20.sol\":4759:4950  function _transferOwnership(address newOwner) internal virtual {... */\n    tag_140:\n        /* \"0x7cec6f214afabc001b316c949d64cb0d0b18b652-TaxableERC20/TaxableERC20.sol\":4852:4858  _owner */\n      0x08\n      dup1\n      sload\n      sub(shl(0xa0, 0x01), 0x01)\n        /* \"0x7cec6f214afabc001b316c949d64cb0d0b18b652-TaxableERC20/TaxableERC20.sol\":4869:4886  _owner = newOwner */\n      dup4\n      dup2\n      and\n      not(sub(shl(0xa0, 0x01), 0x01))\n      dup4\n      and\n      dup2\n      or\n      swap1\n      swap4\n      sstore\n        /* \"0x7cec6f214afabc001b316c949d64cb0d0b18b652-TaxableERC20/TaxableERC20.sol\":4902:4942  OwnershipTransferred(oldOwner, newOwner) */\n      mload(0x40)\n        /* \"0x7cec6f214afabc001b316c949d64cb0d0b18b652-TaxableERC20/TaxableERC20.sol\":4852:4858  _owner */\n      swap2\n      and\n      swap2\n        /* \"0x7cec6f214afabc001b316c949d64cb0d0b18b652-TaxableERC20/TaxableERC20.sol\":4869:4886  _owner = newOwner */\n      swap1\n        /* \"0x7cec6f214afabc001b316c949d64cb0d0b18b652-TaxableERC20/TaxableERC20.sol\":4852:4858  _owner */\n      dup3\n      swap1\n        /* \"0x7cec6f214afabc001b316c949d64cb0d0b18b652-TaxableERC20/TaxableERC20.sol\":4902:4942  OwnershipTransferred(oldOwner, newOwner) */\n      0x8be0079c531659141344cd1fd0a4f28419497f9722a3daafe3b4186f6b6457e0\n      swap1\n        /* \"0x7cec6f214afabc001b316c949d64cb0d0b18b652-TaxableERC20/TaxableERC20.sol\":4833:4849  address oldOwner */\n      0x00\n      swap1\n        /* \"0x7cec6f214afabc001b316c949d64cb0d0b18b652-TaxableERC20/TaxableERC20.sol\":4902:4942  OwnershipTransferred(oldOwner, newOwner) */\n      log3\n        /* \"0x7cec6f214afabc001b316c949d64cb0d0b18b652-TaxableERC20/TaxableERC20.sol\":4822:4950  {... */\n      pop\n        /* \"0x7cec6f214afabc001b316c949d64cb0d0b18b652-TaxableERC20/TaxableERC20.sol\":4759:4950  function _transferOwnership(address newOwner) internal virtual {... */\n      pop\n      jump\t// out\n        /* \"0x7cec6f214afabc001b316c949d64cb0d0b18b652-TaxableERC20/TaxableERC20.sol\":26470:26679  function _setTaxAddress(address taxAddress_) internal virtual {... */\n    tag_152:\n      sub(shl(0xa0, 0x01), 0x01)\n        /* \"0x7cec6f214afabc001b316c949d64cb0d0b18b652-TaxableERC20/TaxableERC20.sol\":26551:26576  taxAddress_ != address(0) */\n      dup2\n      and\n        /* \"0x7cec6f214afabc001b316c949d64cb0d0b18b652-TaxableERC20/TaxableERC20.sol\":26543:26633  require(taxAddress_ != address(0), \"ERC20Taxable: taxAddress_ cannot be the zero address\") */\n      tag_213\n      jumpi\n      mload(0x40)\n      shl(0xe5, 0x461bcd)\n      dup2\n      mstore\n        /* \"#utility.yul\":6335:6337   */\n      0x20\n        /* \"0x7cec6f214afabc001b316c949d64cb0d0b18b652-TaxableERC20/TaxableERC20.sol\":26543:26633  require(taxAddress_ != address(0), \"ERC20Taxable: taxAddress_ cannot be the zero address\") */\n      0x04\n      dup3\n      add\n        /* \"#utility.yul\":6317:6338   */\n      mstore\n        /* \"#utility.yul\":6374:6376   */\n      0x34\n        /* \"#utility.yul\":6354:6372   */\n      0x24\n      dup3\n      add\n        /* \"#utility.yul\":6347:6377   */\n      mstore\n        /* \"#utility.yul\":6413:6447   */\n      0x455243323054617861626c653a20746178416464726573735f2063616e6e6f74\n        /* \"#utility.yul\":6393:6411   */\n      0x44\n      dup3\n      add\n        /* \"#utility.yul\":6386:6448   */\n      mstore\n      shl(0x60, 0x20626520746865207a65726f2061646472657373)\n        /* \"#utility.yul\":6464:6482   */\n      0x64\n      dup3\n      add\n        /* \"#utility.yul\":6457:6507   */\n      mstore\n        /* \"#utility.yul\":6524:6543   */\n      0x84\n      add\n        /* \"0x7cec6f214afabc001b316c949d64cb0d0b18b652-TaxableERC20/TaxableERC20.sol\":26543:26633  require(taxAddress_ != address(0), \"ERC20Taxable: taxAddress_ cannot be the zero address\") */\n      tag_157\n        /* \"#utility.yul\":6133:6549   */\n      jump\n        /* \"0x7cec6f214afabc001b316c949d64cb0d0b18b652-TaxableERC20/TaxableERC20.sol\":26543:26633  require(taxAddress_ != address(0), \"ERC20Taxable: taxAddress_ cannot be the zero address\") */\n    tag_213:\n        /* \"0x7cec6f214afabc001b316c949d64cb0d0b18b652-TaxableERC20/TaxableERC20.sol\":26646:26657  _taxAddress */\n      0x06\n        /* \"0x7cec6f214afabc001b316c949d64cb0d0b18b652-TaxableERC20/TaxableERC20.sol\":26646:26671  _taxAddress = taxAddress_ */\n      dup1\n      sload\n      not(sub(shl(0xa0, 0x01), 0x01))\n      and\n      sub(shl(0xa0, 0x01), 0x01)\n      swap3\n      swap1\n      swap3\n      and\n      swap2\n      swap1\n      swap2\n      or\n      swap1\n      sstore\n        /* \"0x7cec6f214afabc001b316c949d64cb0d0b18b652-TaxableERC20/TaxableERC20.sol\":26470:26679  function _setTaxAddress(address taxAddress_) internal virtual {... */\n      jump\t// out\n        /* \"0x7cec6f214afabc001b316c949d64cb0d0b18b652-TaxableERC20/TaxableERC20.sol\":23520:24084  function transfer(address to, uint256 amount) public virtual override returns (bool) {... */\n    tag_162:\n        /* \"0x7cec6f214afabc001b316c949d64cb0d0b18b652-TaxableERC20/TaxableERC20.sol\":23661:23669  _taxRate */\n      sload(0x05)\n        /* \"0x7cec6f214afabc001b316c949d64cb0d0b18b652-TaxableERC20/TaxableERC20.sol\":23599:23603  bool */\n      0x00\n      swap1\n        /* \"0x7cec6f214afabc001b316c949d64cb0d0b18b652-TaxableERC20/TaxableERC20.sol\":2125:2135  msg.sender */\n      caller\n      swap1\n        /* \"0x7cec6f214afabc001b316c949d64cb0d0b18b652-TaxableERC20/TaxableERC20.sol\":23661:23673  _taxRate > 0 */\n      iszero\n      dup1\n      iszero\n      swap1\n        /* \"0x7cec6f214afabc001b316c949d64cb0d0b18b652-TaxableERC20/TaxableERC20.sol\":23661:23737  _taxRate > 0 && !(_isExcludedFromTaxFee[owner] || _isExcludedFromTaxFee[to]) */\n      tag_218\n      jumpi\n      pop\n      sub(shl(0xa0, 0x01), 0x01)\n        /* \"0x7cec6f214afabc001b316c949d64cb0d0b18b652-TaxableERC20/TaxableERC20.sol\":23679:23707  _isExcludedFromTaxFee[owner] */\n      dup2\n      and\n      0x00\n      swap1\n      dup2\n      mstore\n        /* \"0x7cec6f214afabc001b316c949d64cb0d0b18b652-TaxableERC20/TaxableERC20.sol\":23679:23700  _isExcludedFromTaxFee */\n      0x07\n        /* \"0x7cec6f214afabc001b316c949d64cb0d0b18b652-TaxableERC20/TaxableERC20.sol\":23679:23707  _isExcludedFromTaxFee[owner] */\n      0x20\n      mstore\n      0x40\n      swap1\n      keccak256\n      sload\n      0xff\n      and\n      dup1\n        /* \"0x7cec6f214afabc001b316c949d64cb0d0b18b652-TaxableERC20/TaxableERC20.sol\":23679:23736  _isExcludedFromTaxFee[owner] || _isExcludedFromTaxFee[to] */\n      tag_219\n      jumpi\n      pop\n      sub(shl(0xa0, 0x01), 0x01)\n        /* \"0x7cec6f214afabc001b316c949d64cb0d0b18b652-TaxableERC20/TaxableERC20.sol\":23711:23736  _isExcludedFromTaxFee[to] */\n      dup5\n      and\n      0x00\n      swap1\n      dup2\n      mstore\n        /* \"0x7cec6f214afabc001b316c949d64cb0d0b18b652-TaxableERC20/TaxableERC20.sol\":23711:23732  _isExcludedFromTaxFee */\n      0x07\n        /* \"0x7cec6f214afabc001b316c949d64cb0d0b18b652-TaxableERC20/TaxableERC20.sol\":23711:23736  _isExcludedFromTaxFee[to] */\n      0x20\n      mstore\n      0x40\n      swap1\n      keccak256\n      sload\n      0xff\n      and\n        /* \"0x7cec6f214afabc001b316c949d64cb0d0b18b652-TaxableERC20/TaxableERC20.sol\":23679:23736  _isExcludedFromTaxFee[owner] || _isExcludedFromTaxFee[to] */\n    tag_219:\n        /* \"0x7cec6f214afabc001b316c949d64cb0d0b18b652-TaxableERC20/TaxableERC20.sol\":23677:23737  !(_isExcludedFromTaxFee[owner] || _isExcludedFromTaxFee[to]) */\n      iszero\n        /* \"0x7cec6f214afabc001b316c949d64cb0d0b18b652-TaxableERC20/TaxableERC20.sol\":23661:23737  _taxRate > 0 && !(_isExcludedFromTaxFee[owner] || _isExcludedFromTaxFee[to]) */\n    tag_218:\n        /* \"0x7cec6f214afabc001b316c949d64cb0d0b18b652-TaxableERC20/TaxableERC20.sol\":23657:24012  if (_taxRate > 0 && !(_isExcludedFromTaxFee[owner] || _isExcludedFromTaxFee[to])) {... */\n      iszero\n      tag_220\n      jumpi\n        /* \"0x7cec6f214afabc001b316c949d64cb0d0b18b652-TaxableERC20/TaxableERC20.sol\":23754:23771  uint256 taxAmount */\n      0x00\n        /* \"0x7cec6f214afabc001b316c949d64cb0d0b18b652-TaxableERC20/TaxableERC20.sol\":23796:23800  1000 */\n      0x03e8\n        /* \"0x7cec6f214afabc001b316c949d64cb0d0b18b652-TaxableERC20/TaxableERC20.sol\":23784:23792  _taxRate */\n      sload(0x05)\n        /* \"0x7cec6f214afabc001b316c949d64cb0d0b18b652-TaxableERC20/TaxableERC20.sol\":23775:23781  amount */\n      dup6\n        /* \"0x7cec6f214afabc001b316c949d64cb0d0b18b652-TaxableERC20/TaxableERC20.sol\":23775:23792  amount * _taxRate */\n      tag_221\n      swap2\n      swap1\n      tag_196\n      jump\t// in\n    tag_221:\n        /* \"0x7cec6f214afabc001b316c949d64cb0d0b18b652-TaxableERC20/TaxableERC20.sol\":23774:23800  (amount * _taxRate) / 1000 */\n      tag_222\n      swap2\n      swap1\n      tag_198\n      jump\t// in\n    tag_222:\n        /* \"0x7cec6f214afabc001b316c949d64cb0d0b18b652-TaxableERC20/TaxableERC20.sol\":23754:23800  uint256 taxAmount = (amount * _taxRate) / 1000 */\n      swap1\n      pop\n        /* \"0x7cec6f214afabc001b316c949d64cb0d0b18b652-TaxableERC20/TaxableERC20.sol\":23821:23834  taxAmount > 0 */\n      dup1\n      iszero\n        /* \"0x7cec6f214afabc001b316c949d64cb0d0b18b652-TaxableERC20/TaxableERC20.sol\":23817:24001  if (taxAmount > 0) {... */\n      tag_223\n      jumpi\n        /* \"0x7cec6f214afabc001b316c949d64cb0d0b18b652-TaxableERC20/TaxableERC20.sol\":23872:23883  _taxAddress */\n      sload(0x06)\n        /* \"0x7cec6f214afabc001b316c949d64cb0d0b18b652-TaxableERC20/TaxableERC20.sol\":23855:23895  _transfer(owner, _taxAddress, taxAmount) */\n      tag_224\n      swap1\n        /* \"0x7cec6f214afabc001b316c949d64cb0d0b18b652-TaxableERC20/TaxableERC20.sol\":23865:23870  owner */\n      dup4\n      swap1\n      sub(shl(0xa0, 0x01), 0x01)\n        /* \"0x7cec6f214afabc001b316c949d64cb0d0b18b652-TaxableERC20/TaxableERC20.sol\":23872:23883  _taxAddress */\n      and\n        /* \"0x7cec6f214afabc001b316c949d64cb0d0b18b652-TaxableERC20/TaxableERC20.sol\":23885:23894  taxAmount */\n      dup4\n        /* \"0x7cec6f214afabc001b316c949d64cb0d0b18b652-TaxableERC20/TaxableERC20.sol\":23855:23864  _transfer */\n      tag_201\n        /* \"0x7cec6f214afabc001b316c949d64cb0d0b18b652-TaxableERC20/TaxableERC20.sol\":23855:23895  _transfer(owner, _taxAddress, taxAmount) */\n      jump\t// in\n    tag_224:\n        /* \"0x7cec6f214afabc001b316c949d64cb0d0b18b652-TaxableERC20/TaxableERC20.sol\":23957:23966  taxAmount */\n      dup1\n        /* \"0x7cec6f214afabc001b316c949d64cb0d0b18b652-TaxableERC20/TaxableERC20.sol\":23947:23966  amount -= taxAmount */\n      dup5\n      sub\n      swap4\n      pop\n        /* \"0x7cec6f214afabc001b316c949d64cb0d0b18b652-TaxableERC20/TaxableERC20.sol\":23817:24001  if (taxAmount > 0) {... */\n    tag_223:\n        /* \"0x7cec6f214afabc001b316c949d64cb0d0b18b652-TaxableERC20/TaxableERC20.sol\":23739:24012  {... */\n      pop\n        /* \"0x7cec6f214afabc001b316c949d64cb0d0b18b652-TaxableERC20/TaxableERC20.sol\":23657:24012  if (_taxRate > 0 && !(_isExcludedFromTaxFee[owner] || _isExcludedFromTaxFee[to])) {... */\n    tag_220:\n        /* \"0x7cec6f214afabc001b316c949d64cb0d0b18b652-TaxableERC20/TaxableERC20.sol\":24024:24052  _transfer(owner, to, amount) */\n      tag_114\n        /* \"0x7cec6f214afabc001b316c949d64cb0d0b18b652-TaxableERC20/TaxableERC20.sol\":24034:24039  owner */\n      dup2\n        /* \"0x7cec6f214afabc001b316c949d64cb0d0b18b652-TaxableERC20/TaxableERC20.sol\":24041:24043  to */\n      dup6\n        /* \"0x7cec6f214afabc001b316c949d64cb0d0b18b652-TaxableERC20/TaxableERC20.sol\":24045:24051  amount */\n      dup6\n        /* \"0x7cec6f214afabc001b316c949d64cb0d0b18b652-TaxableERC20/TaxableERC20.sol\":24024:24033  _transfer */\n      tag_201\n        /* \"0x7cec6f214afabc001b316c949d64cb0d0b18b652-TaxableERC20/TaxableERC20.sol\":24024:24052  _transfer(owner, to, amount) */\n      jump\t// in\n        /* \"0x7cec6f214afabc001b316c949d64cb0d0b18b652-TaxableERC20/TaxableERC20.sol\":26073:26281  function _setTaxRate(uint256 taxFeePerMille_) internal virtual {... */\n    tag_167:\n        /* \"0x7cec6f214afabc001b316c949d64cb0d0b18b652-TaxableERC20/TaxableERC20.sol\":26173:26177  1000 */\n      0x03e8\n        /* \"0x7cec6f214afabc001b316c949d64cb0d0b18b652-TaxableERC20/TaxableERC20.sol\":26155:26170  taxFeePerMille_ */\n      dup2\n        /* \"0x7cec6f214afabc001b316c949d64cb0d0b18b652-TaxableERC20/TaxableERC20.sol\":26155:26177  taxFeePerMille_ < 1000 */\n      lt\n        /* \"0x7cec6f214afabc001b316c949d64cb0d0b18b652-TaxableERC20/TaxableERC20.sol\":26147:26234  require(taxFeePerMille_ < 1000, \"ERC20Taxable: taxFeePerMille_ must be less than 1000\") */\n      tag_227\n      jumpi\n      mload(0x40)\n      shl(0xe5, 0x461bcd)\n      dup2\n      mstore\n        /* \"#utility.yul\":6756:6758   */\n      0x20\n        /* \"0x7cec6f214afabc001b316c949d64cb0d0b18b652-TaxableERC20/TaxableERC20.sol\":26147:26234  require(taxFeePerMille_ < 1000, \"ERC20Taxable: taxFeePerMille_ must be less than 1000\") */\n      0x04\n      dup3\n      add\n        /* \"#utility.yul\":6738:6759   */\n      mstore\n        /* \"#utility.yul\":6795:6797   */\n      0x34\n        /* \"#utility.yul\":6775:6793   */\n      0x24\n      dup3\n      add\n        /* \"#utility.yul\":6768:6798   */\n      mstore\n        /* \"#utility.yul\":6834:6868   */\n      0x455243323054617861626c653a207461784665655065724d696c6c655f206d75\n        /* \"#utility.yul\":6814:6832   */\n      0x44\n      dup3\n      add\n        /* \"#utility.yul\":6807:6869   */\n      mstore\n      shl(0x64, 0x07374206265206c657373207468616e203130303)\n        /* \"#utility.yul\":6885:6903   */\n      0x64\n      dup3\n      add\n        /* \"#utility.yul\":6878:6928   */\n      mstore\n        /* \"#utility.yul\":6945:6964   */\n      0x84\n      add\n        /* \"0x7cec6f214afabc001b316c949d64cb0d0b18b652-TaxableERC20/TaxableERC20.sol\":26147:26234  require(taxFeePerMille_ < 1000, \"ERC20Taxable: taxFeePerMille_ must be less than 1000\") */\n      tag_157\n        /* \"#utility.yul\":6554:6970   */\n      jump\n        /* \"0x7cec6f214afabc001b316c949d64cb0d0b18b652-TaxableERC20/TaxableERC20.sol\":26147:26234  require(taxFeePerMille_ < 1000, \"ERC20Taxable: taxFeePerMille_ must be less than 1000\") */\n    tag_227:\n        /* \"0x7cec6f214afabc001b316c949d64cb0d0b18b652-TaxableERC20/TaxableERC20.sol\":26247:26255  _taxRate */\n      0x05\n        /* \"0x7cec6f214afabc001b316c949d64cb0d0b18b652-TaxableERC20/TaxableERC20.sol\":26247:26273  _taxRate = taxFeePerMille_ */\n      sstore\n        /* \"0x7cec6f214afabc001b316c949d64cb0d0b18b652-TaxableERC20/TaxableERC20.sol\":26073:26281  function _setTaxRate(uint256 taxFeePerMille_) internal virtual {... */\n      jump\t// out\n        /* \"0x7cec6f214afabc001b316c949d64cb0d0b18b652-TaxableERC20/TaxableERC20.sol\":19986:20439  function _spendAllowance(... */\n    tag_191:\n        /* \"0x7cec6f214afabc001b316c949d64cb0d0b18b652-TaxableERC20/TaxableERC20.sol\":20121:20145  uint256 currentAllowance */\n      0x00\n        /* \"0x7cec6f214afabc001b316c949d64cb0d0b18b652-TaxableERC20/TaxableERC20.sol\":20148:20173  allowance(owner, spender) */\n      tag_231\n        /* \"0x7cec6f214afabc001b316c949d64cb0d0b18b652-TaxableERC20/TaxableERC20.sol\":20158:20163  owner */\n      dup5\n        /* \"0x7cec6f214afabc001b316c949d64cb0d0b18b652-TaxableERC20/TaxableERC20.sol\":20165:20172  spender */\n      dup5\n        /* \"0x7cec6f214afabc001b316c949d64cb0d0b18b652-TaxableERC20/TaxableERC20.sol\":20148:20157  allowance */\n      tag_99\n        /* \"0x7cec6f214afabc001b316c949d64cb0d0b18b652-TaxableERC20/TaxableERC20.sol\":20148:20173  allowance(owner, spender) */\n      jump\t// in\n    tag_231:\n        /* \"0x7cec6f214afabc001b316c949d64cb0d0b18b652-TaxableERC20/TaxableERC20.sol\":20121:20173  uint256 currentAllowance = allowance(owner, spender) */\n      swap1\n      pop\n      not(0x00)\n        /* \"0x7cec6f214afabc001b316c949d64cb0d0b18b652-TaxableERC20/TaxableERC20.sol\":20188:20204  currentAllowance */\n      dup2\n        /* \"0x7cec6f214afabc001b316c949d64cb0d0b18b652-TaxableERC20/TaxableERC20.sol\":20188:20225  currentAllowance != type(uint256).max */\n      eq\n        /* \"0x7cec6f214afabc001b316c949d64cb0d0b18b652-TaxableERC20/TaxableERC20.sol\":20184:20432  if (currentAllowance != type(uint256).max) {... */\n      tag_236\n      jumpi\n        /* \"0x7cec6f214afabc001b316c949d64cb0d0b18b652-TaxableERC20/TaxableERC20.sol\":20270:20276  amount */\n      dup2\n        /* \"0x7cec6f214afabc001b316c949d64cb0d0b18b652-TaxableERC20/TaxableERC20.sol\":20250:20266  currentAllowance */\n      dup2\n        /* \"0x7cec6f214afabc001b316c949d64cb0d0b18b652-TaxableERC20/TaxableERC20.sol\":20250:20276  currentAllowance >= amount */\n      lt\n      iszero\n        /* \"0x7cec6f214afabc001b316c949d64cb0d0b18b652-TaxableERC20/TaxableERC20.sol\":20242:20310  require(currentAllowance >= amount, \"ERC20: insufficient allowance\") */\n      tag_233\n      jumpi\n      mload(0x40)\n      shl(0xe5, 0x461bcd)\n      dup2\n      mstore\n        /* \"#utility.yul\":7177:7179   */\n      0x20\n        /* \"0x7cec6f214afabc001b316c949d64cb0d0b18b652-TaxableERC20/TaxableERC20.sol\":20242:20310  require(currentAllowance >= amount, \"ERC20: insufficient allowance\") */\n      0x04\n      dup3\n      add\n        /* \"#utility.yul\":7159:7180   */\n      mstore\n        /* \"#utility.yul\":7216:7218   */\n      0x1d\n        /* \"#utility.yul\":7196:7214   */\n      0x24\n      dup3\n      add\n        /* \"#utility.yul\":7189:7219   */\n      mstore\n        /* \"#utility.yul\":7255:7286   */\n      0x45524332303a20696e73756666696369656e7420616c6c6f77616e6365000000\n        /* \"#utility.yul\":7235:7253   */\n      0x44\n      dup3\n      add\n        /* \"#utility.yul\":7228:7287   */\n      mstore\n        /* \"#utility.yul\":7304:7322   */\n      0x64\n      add\n        /* \"0x7cec6f214afabc001b316c949d64cb0d0b18b652-TaxableERC20/TaxableERC20.sol\":20242:20310  require(currentAllowance >= amount, \"ERC20: insufficient allowance\") */\n      tag_157\n        /* \"#utility.yul\":6975:7328   */\n      jump\n        /* \"0x7cec6f214afabc001b316c949d64cb0d0b18b652-TaxableERC20/TaxableERC20.sol\":20242:20310  require(currentAllowance >= amount, \"ERC20: insufficient allowance\") */\n    tag_233:\n        /* \"0x7cec6f214afabc001b316c949d64cb0d0b18b652-TaxableERC20/TaxableERC20.sol\":20354:20405  _approve(owner, spender, currentAllowance - amount) */\n      tag_236\n        /* \"0x7cec6f214afabc001b316c949d64cb0d0b18b652-TaxableERC20/TaxableERC20.sol\":20363:20368  owner */\n      dup5\n        /* \"0x7cec6f214afabc001b316c949d64cb0d0b18b652-TaxableERC20/TaxableERC20.sol\":20370:20377  spender */\n      dup5\n        /* \"0x7cec6f214afabc001b316c949d64cb0d0b18b652-TaxableERC20/TaxableERC20.sol\":20398:20404  amount */\n      dup5\n        /* \"0x7cec6f214afabc001b316c949d64cb0d0b18b652-TaxableERC20/TaxableERC20.sol\":20379:20395  currentAllowance */\n      dup5\n        /* \"0x7cec6f214afabc001b316c949d64cb0d0b18b652-TaxableERC20/TaxableERC20.sol\":20379:20404  currentAllowance - amount */\n      sub\n        /* \"0x7cec6f214afabc001b316c949d64cb0d0b18b652-TaxableERC20/TaxableERC20.sol\":20354:20362  _approve */\n      tag_115\n        /* \"0x7cec6f214afabc001b316c949d64cb0d0b18b652-TaxableERC20/TaxableERC20.sol\":20354:20405  _approve(owner, spender, currentAllowance - amount) */\n      jump\t// in\n    tag_236:\n        /* \"0x7cec6f214afabc001b316c949d64cb0d0b18b652-TaxableERC20/TaxableERC20.sol\":20110:20439  {... */\n      pop\n        /* \"0x7cec6f214afabc001b316c949d64cb0d0b18b652-TaxableERC20/TaxableERC20.sol\":19986:20439  function _spendAllowance(... */\n      pop\n      pop\n      pop\n      jump\t// out\n        /* \"0x7cec6f214afabc001b316c949d64cb0d0b18b652-TaxableERC20/TaxableERC20.sol\":16194:17034  function _transfer(... */\n    tag_201:\n      sub(shl(0xa0, 0x01), 0x01)\n        /* \"0x7cec6f214afabc001b316c949d64cb0d0b18b652-TaxableERC20/TaxableERC20.sol\":16325:16343  from != address(0) */\n      dup4\n      and\n        /* \"0x7cec6f214afabc001b316c949d64cb0d0b18b652-TaxableERC20/TaxableERC20.sol\":16317:16385  require(from != address(0), \"ERC20: transfer from the zero address\") */\n      tag_238\n      jumpi\n      mload(0x40)\n      shl(0xe5, 0x461bcd)\n      dup2\n      mstore\n        /* \"#utility.yul\":7535:7537   */\n      0x20\n        /* \"0x7cec6f214afabc001b316c949d64cb0d0b18b652-TaxableERC20/TaxableERC20.sol\":16317:16385  require(from != address(0), \"ERC20: transfer from the zero address\") */\n      0x04\n      dup3\n      add\n        /* \"#utility.yul\":7517:7538   */\n      mstore\n        /* \"#utility.yul\":7574:7576   */\n      0x25\n        /* \"#utility.yul\":7554:7572   */\n      0x24\n      dup3\n      add\n        /* \"#utility.yul\":7547:7577   */\n      mstore\n        /* \"#utility.yul\":7613:7647   */\n      0x45524332303a207472616e736665722066726f6d20746865207a65726f206164\n        /* \"#utility.yul\":7593:7611   */\n      0x44\n      dup3\n      add\n        /* \"#utility.yul\":7586:7648   */\n      mstore\n      shl(0xd8, 0x6472657373)\n        /* \"#utility.yul\":7664:7682   */\n      0x64\n      dup3\n      add\n        /* \"#utility.yul\":7657:7692   */\n      mstore\n        /* \"#utility.yul\":7709:7728   */\n      0x84\n      add\n        /* \"0x7cec6f214afabc001b316c949d64cb0d0b18b652-TaxableERC20/TaxableERC20.sol\":16317:16385  require(from != address(0), \"ERC20: transfer from the zero address\") */\n      tag_157\n        /* \"#utility.yul\":7333:7734   */\n      jump\n        /* \"0x7cec6f214afabc001b316c949d64cb0d0b18b652-TaxableERC20/TaxableERC20.sol\":16317:16385  require(from != address(0), \"ERC20: transfer from the zero address\") */\n    tag_238:\n      sub(shl(0xa0, 0x01), 0x01)\n        /* \"0x7cec6f214afabc001b316c949d64cb0d0b18b652-TaxableERC20/TaxableERC20.sol\":16404:16420  to != address(0) */\n      dup3\n      and\n        /* \"0x7cec6f214afabc001b316c949d64cb0d0b18b652-TaxableERC20/TaxableERC20.sol\":16396:16460  require(to != address(0), \"ERC20: transfer to the zero address\") */\n      tag_241\n      jumpi\n      mload(0x40)\n      shl(0xe5, 0x461bcd)\n      dup2\n      mstore\n        /* \"#utility.yul\":7941:7943   */\n      0x20\n        /* \"0x7cec6f214afabc001b316c949d64cb0d0b18b652-TaxableERC20/TaxableERC20.sol\":16396:16460  require(to != address(0), \"ERC20: transfer to the zero address\") */\n      0x04\n      dup3\n      add\n        /* \"#utility.yul\":7923:7944   */\n      mstore\n        /* \"#utility.yul\":7980:7982   */\n      0x23\n        /* \"#utility.yul\":7960:7978   */\n      0x24\n      dup3\n      add\n        /* \"#utility.yul\":7953:7983   */\n      mstore\n        /* \"#utility.yul\":8019:8053   */\n      0x45524332303a207472616e7366657220746f20746865207a65726f2061646472\n        /* \"#utility.yul\":7999:8017   */\n      0x44\n      dup3\n      add\n        /* \"#utility.yul\":7992:8054   */\n      mstore\n      shl(0xe8, 0x657373)\n        /* \"#utility.yul\":8070:8088   */\n      0x64\n      dup3\n      add\n        /* \"#utility.yul\":8063:8096   */\n      mstore\n        /* \"#utility.yul\":8113:8132   */\n      0x84\n      add\n        /* \"0x7cec6f214afabc001b316c949d64cb0d0b18b652-TaxableERC20/TaxableERC20.sol\":16396:16460  require(to != address(0), \"ERC20: transfer to the zero address\") */\n      tag_157\n        /* \"#utility.yul\":7739:8138   */\n      jump\n        /* \"0x7cec6f214afabc001b316c949d64cb0d0b18b652-TaxableERC20/TaxableERC20.sol\":16396:16460  require(to != address(0), \"ERC20: transfer to the zero address\") */\n    tag_241:\n      sub(shl(0xa0, 0x01), 0x01)\n        /* \"0x7cec6f214afabc001b316c949d64cb0d0b18b652-TaxableERC20/TaxableERC20.sol\":16546:16561  _balances[from] */\n      dup4\n      and\n        /* \"0x7cec6f214afabc001b316c949d64cb0d0b18b652-TaxableERC20/TaxableERC20.sol\":16524:16543  uint256 fromBalance */\n      0x00\n        /* \"0x7cec6f214afabc001b316c949d64cb0d0b18b652-TaxableERC20/TaxableERC20.sol\":16546:16561  _balances[from] */\n      swap1\n      dup2\n      mstore\n      0x20\n      dup2\n      swap1\n      mstore\n      0x40\n      swap1\n      keccak256\n      sload\n        /* \"0x7cec6f214afabc001b316c949d64cb0d0b18b652-TaxableERC20/TaxableERC20.sol\":16580:16601  fromBalance >= amount */\n      dup2\n      dup2\n      lt\n      iszero\n        /* \"0x7cec6f214afabc001b316c949d64cb0d0b18b652-TaxableERC20/TaxableERC20.sol\":16572:16644  require(fromBalance >= amount, \"ERC20: transfer amount exceeds balance\") */\n      tag_246\n      jumpi\n      mload(0x40)\n      shl(0xe5, 0x461bcd)\n      dup2\n      mstore\n        /* \"#utility.yul\":8345:8347   */\n      0x20\n        /* \"0x7cec6f214afabc001b316c949d64cb0d0b18b652-TaxableERC20/TaxableERC20.sol\":16572:16644  require(fromBalance >= amount, \"ERC20: transfer amount exceeds balance\") */\n      0x04\n      dup3\n      add\n        /* \"#utility.yul\":8327:8348   */\n      mstore\n        /* \"#utility.yul\":8384:8386   */\n      0x26\n        /* \"#utility.yul\":8364:8382   */\n      0x24\n      dup3\n      add\n        /* \"#utility.yul\":8357:8387   */\n      mstore\n        /* \"#utility.yul\":8423:8457   */\n      0x45524332303a207472616e7366657220616d6f756e7420657863656564732062\n        /* \"#utility.yul\":8403:8421   */\n      0x44\n      dup3\n      add\n        /* \"#utility.yul\":8396:8458   */\n      mstore\n      shl(0xd0, 0x616c616e6365)\n        /* \"#utility.yul\":8474:8492   */\n      0x64\n      dup3\n      add\n        /* \"#utility.yul\":8467:8503   */\n      mstore\n        /* \"#utility.yul\":8520:8539   */\n      0x84\n      add\n        /* \"0x7cec6f214afabc001b316c949d64cb0d0b18b652-TaxableERC20/TaxableERC20.sol\":16572:16644  require(fromBalance >= amount, \"ERC20: transfer amount exceeds balance\") */\n      tag_157\n        /* \"#utility.yul\":8143:8545   */\n      jump\n        /* \"0x7cec6f214afabc001b316c949d64cb0d0b18b652-TaxableERC20/TaxableERC20.sol\":16572:16644  require(fromBalance >= amount, \"ERC20: transfer amount exceeds balance\") */\n    tag_246:\n      sub(shl(0xa0, 0x01), 0x01)\n        /* \"0x7cec6f214afabc001b316c949d64cb0d0b18b652-TaxableERC20/TaxableERC20.sol\":16680:16695  _balances[from] */\n      dup5\n      dup2\n      and\n        /* \"0x7cec6f214afabc001b316c949d64cb0d0b18b652-TaxableERC20/TaxableERC20.sol\":16680:16689  _balances */\n      0x00\n        /* \"0x7cec6f214afabc001b316c949d64cb0d0b18b652-TaxableERC20/TaxableERC20.sol\":16680:16695  _balances[from] */\n      dup2\n      dup2\n      mstore\n      0x20\n      dup2\n      dup2\n      mstore\n      0x40\n      dup1\n      dup4\n      keccak256\n        /* \"0x7cec6f214afabc001b316c949d64cb0d0b18b652-TaxableERC20/TaxableERC20.sol\":16698:16718  fromBalance - amount */\n      dup8\n      dup8\n      sub\n        /* \"0x7cec6f214afabc001b316c949d64cb0d0b18b652-TaxableERC20/TaxableERC20.sol\":16680:16718  _balances[from] = fromBalance - amount */\n      swap1\n      sstore\n        /* \"0x7cec6f214afabc001b316c949d64cb0d0b18b652-TaxableERC20/TaxableERC20.sol\":16898:16911  _balances[to] */\n      swap4\n      dup8\n      and\n      dup1\n      dup4\n      mstore\n      swap2\n      dup5\n      swap1\n      keccak256\n        /* \"0x7cec6f214afabc001b316c949d64cb0d0b18b652-TaxableERC20/TaxableERC20.sol\":16898:16921  _balances[to] += amount */\n      dup1\n      sload\n      dup8\n      add\n      swap1\n      sstore\n        /* \"0x7cec6f214afabc001b316c949d64cb0d0b18b652-TaxableERC20/TaxableERC20.sol\":16950:16976  Transfer(from, to, amount) */\n      swap3\n      mload\n        /* \"#utility.yul\":1258:1283   */\n      dup6\n      dup2\n      mstore\n        /* \"0x7cec6f214afabc001b316c949d64cb0d0b18b652-TaxableERC20/TaxableERC20.sol\":16898:16911  _balances[to] */\n      swap1\n      swap3\n        /* \"0x7cec6f214afabc001b316c949d64cb0d0b18b652-TaxableERC20/TaxableERC20.sol\":16950:16976  Transfer(from, to, amount) */\n      0xddf252ad1be2c89b69c2b068fc378daa952ba7f163c4a11628f55a4df523b3ef\n      swap2\n        /* \"#utility.yul\":1231:1249   */\n      add\n        /* \"0x7cec6f214afabc001b316c949d64cb0d0b18b652-TaxableERC20/TaxableERC20.sol\":16950:16976  Transfer(from, to, amount) */\n      mload(0x40)\n      dup1\n      swap2\n      sub\n      swap1\n      log3\n        /* \"0x7cec6f214afabc001b316c949d64cb0d0b18b652-TaxableERC20/TaxableERC20.sol\":16989:17026  _afterTokenTransfer(from, to, amount) */\n      tag_236\n        /* \"0x7cec6f214afabc001b316c949d64cb0d0b18b652-TaxableERC20/TaxableERC20.sol\":21039:21164  function _beforeTokenTransfer(... */\n      jump\n        /* \"#utility.yul\":14:432   */\n    tag_29:\n        /* \"#utility.yul\":163:165   */\n      0x20\n        /* \"#utility.yul\":152:161   */\n      dup2\n        /* \"#utility.yul\":145:166   */\n      mstore\n        /* \"#utility.yul\":126:130   */\n      0x00\n        /* \"#utility.yul\":195:201   */\n      dup3\n        /* \"#utility.yul\":189:202   */\n      mload\n        /* \"#utility.yul\":238:244   */\n      dup1\n        /* \"#utility.yul\":233:235   */\n      0x20\n        /* \"#utility.yul\":222:231   */\n      dup5\n        /* \"#utility.yul\":218:236   */\n      add\n        /* \"#utility.yul\":211:245   */\n      mstore\n        /* \"#utility.yul\":297:303   */\n      dup1\n        /* \"#utility.yul\":292:294   */\n      0x20\n        /* \"#utility.yul\":284:290   */\n      dup6\n        /* \"#utility.yul\":280:295   */\n      add\n        /* \"#utility.yul\":275:277   */\n      0x40\n        /* \"#utility.yul\":264:273   */\n      dup6\n        /* \"#utility.yul\":260:278   */\n      add\n        /* \"#utility.yul\":254:304   */\n      mcopy\n        /* \"#utility.yul\":353:354   */\n      0x00\n        /* \"#utility.yul\":348:350   */\n      0x40\n        /* \"#utility.yul\":339:345   */\n      dup3\n        /* \"#utility.yul\":328:337   */\n      dup6\n        /* \"#utility.yul\":324:346   */\n      add\n        /* \"#utility.yul\":320:351   */\n      add\n        /* \"#utility.yul\":313:355   */\n      mstore\n        /* \"#utility.yul\":423:425   */\n      0x40\n        /* \"#utility.yul\":416:418   */\n      0x1f\n        /* \"#utility.yul\":412:419   */\n      not\n        /* \"#utility.yul\":407:409   */\n      0x1f\n        /* \"#utility.yul\":399:405   */\n      dup4\n        /* \"#utility.yul\":395:410   */\n      add\n        /* \"#utility.yul\":391:420   */\n      and\n        /* \"#utility.yul\":380:389   */\n      dup5\n        /* \"#utility.yul\":376:421   */\n      add\n        /* \"#utility.yul\":372:426   */\n      add\n        /* \"#utility.yul\":364:426   */\n      swap2\n      pop\n      pop\n        /* \"#utility.yul\":14:432   */\n      swap3\n      swap2\n      pop\n      pop\n      jump\t// out\n        /* \"#utility.yul\":437:610   */\n    tag_254:\n        /* \"#utility.yul\":505:525   */\n      dup1\n      calldataload\n      sub(shl(0xa0, 0x01), 0x01)\n        /* \"#utility.yul\":554:585   */\n      dup2\n      and\n        /* \"#utility.yul\":544:586   */\n      dup2\n      eq\n        /* \"#utility.yul\":534:604   */\n      tag_259\n      jumpi\n        /* \"#utility.yul\":600:601   */\n      0x00\n        /* \"#utility.yul\":597:598   */\n      dup1\n        /* \"#utility.yul\":590:602   */\n      revert\n        /* \"#utility.yul\":534:604   */\n    tag_259:\n        /* \"#utility.yul\":437:610   */\n      swap2\n      swap1\n      pop\n      jump\t// out\n        /* \"#utility.yul\":615:915   */\n    tag_32:\n        /* \"#utility.yul\":683:689   */\n      0x00\n        /* \"#utility.yul\":691:697   */\n      dup1\n        /* \"#utility.yul\":744:746   */\n      0x40\n        /* \"#utility.yul\":732:741   */\n      dup4\n        /* \"#utility.yul\":723:730   */\n      dup6\n        /* \"#utility.yul\":719:742   */\n      sub\n        /* \"#utility.yul\":715:747   */\n      slt\n        /* \"#utility.yul\":712:764   */\n      iszero\n      tag_261\n      jumpi\n        /* \"#utility.yul\":760:761   */\n      0x00\n        /* \"#utility.yul\":757:758   */\n      dup1\n        /* \"#utility.yul\":750:762   */\n      revert\n        /* \"#utility.yul\":712:764   */\n    tag_261:\n        /* \"#utility.yul\":783:812   */\n      tag_262\n        /* \"#utility.yul\":802:811   */\n      dup4\n        /* \"#utility.yul\":783:812   */\n      tag_254\n      jump\t// in\n    tag_262:\n        /* \"#utility.yul\":773:812   */\n      swap5\n        /* \"#utility.yul\":881:883   */\n      0x20\n        /* \"#utility.yul\":866:884   */\n      swap4\n      swap1\n      swap4\n      add\n        /* \"#utility.yul\":853:885   */\n      calldataload\n      swap4\n      pop\n      pop\n      pop\n        /* \"#utility.yul\":615:915   */\n      jump\t// out\n        /* \"#utility.yul\":1294:1668   */\n    tag_42:\n        /* \"#utility.yul\":1371:1377   */\n      0x00\n        /* \"#utility.yul\":1379:1385   */\n      dup1\n        /* \"#utility.yul\":1387:1393   */\n      0x00\n        /* \"#utility.yul\":1440:1442   */\n      0x60\n        /* \"#utility.yul\":1428:1437   */\n      dup5\n        /* \"#utility.yul\":1419:1426   */\n      dup7\n        /* \"#utility.yul\":1415:1438   */\n      sub\n        /* \"#utility.yul\":1411:1443   */\n      slt\n        /* \"#utility.yul\":1408:1460   */\n      iszero\n      tag_266\n      jumpi\n        /* \"#utility.yul\":1456:1457   */\n      0x00\n        /* \"#utility.yul\":1453:1454   */\n      dup1\n        /* \"#utility.yul\":1446:1458   */\n      revert\n        /* \"#utility.yul\":1408:1460   */\n    tag_266:\n        /* \"#utility.yul\":1479:1508   */\n      tag_267\n        /* \"#utility.yul\":1498:1507   */\n      dup5\n        /* \"#utility.yul\":1479:1508   */\n      tag_254\n      jump\t// in\n    tag_267:\n        /* \"#utility.yul\":1469:1508   */\n      swap3\n      pop\n        /* \"#utility.yul\":1527:1565   */\n      tag_268\n        /* \"#utility.yul\":1561:1563   */\n      0x20\n        /* \"#utility.yul\":1550:1559   */\n      dup6\n        /* \"#utility.yul\":1546:1564   */\n      add\n        /* \"#utility.yul\":1527:1565   */\n      tag_254\n      jump\t// in\n    tag_268:\n        /* \"#utility.yul\":1294:1668   */\n      swap3\n      swap6\n        /* \"#utility.yul\":1517:1565   */\n      swap3\n      swap5\n      pop\n      pop\n      pop\n        /* \"#utility.yul\":1634:1636   */\n      0x40\n        /* \"#utility.yul\":1619:1637   */\n      swap2\n      swap1\n      swap2\n      add\n        /* \"#utility.yul\":1606:1638   */\n      calldataload\n      swap1\n        /* \"#utility.yul\":1294:1668   */\n      jump\t// out\n        /* \"#utility.yul\":1673:2020   */\n    tag_47:\n        /* \"#utility.yul\":1738:1744   */\n      0x00\n        /* \"#utility.yul\":1746:1752   */\n      dup1\n        /* \"#utility.yul\":1799:1801   */\n      0x40\n        /* \"#utility.yul\":1787:1796   */\n      dup4\n        /* \"#utility.yul\":1778:1785   */\n      dup6\n        /* \"#utility.yul\":1774:1797   */\n      sub\n        /* \"#utility.yul\":1770:1802   */\n      slt\n        /* \"#utility.yul\":1767:1819   */\n      iszero\n      tag_270\n      jumpi\n        /* \"#utility.yul\":1815:1816   */\n      0x00\n        /* \"#utility.yul\":1812:1813   */\n      dup1\n        /* \"#utility.yul\":1805:1817   */\n      revert\n        /* \"#utility.yul\":1767:1819   */\n    tag_270:\n        /* \"#utility.yul\":1838:1867   */\n      tag_271\n        /* \"#utility.yul\":1857:1866   */\n      dup4\n        /* \"#utility.yul\":1838:1867   */\n      tag_254\n      jump\t// in\n    tag_271:\n        /* \"#utility.yul\":1828:1867   */\n      swap2\n      pop\n        /* \"#utility.yul\":1917:1919   */\n      0x20\n        /* \"#utility.yul\":1906:1915   */\n      dup4\n        /* \"#utility.yul\":1902:1920   */\n      add\n        /* \"#utility.yul\":1889:1921   */\n      calldataload\n        /* \"#utility.yul\":1964:1969   */\n      dup1\n        /* \"#utility.yul\":1957:1970   */\n      iszero\n        /* \"#utility.yul\":1950:1971   */\n      iszero\n        /* \"#utility.yul\":1943:1948   */\n      dup2\n        /* \"#utility.yul\":1940:1972   */\n      eq\n        /* \"#utility.yul\":1930:1990   */\n      tag_272\n      jumpi\n        /* \"#utility.yul\":1986:1987   */\n      0x00\n        /* \"#utility.yul\":1983:1984   */\n      dup1\n        /* \"#utility.yul\":1976:1988   */\n      revert\n        /* \"#utility.yul\":1930:1990   */\n    tag_272:\n        /* \"#utility.yul\":2009:2014   */\n      dup1\n        /* \"#utility.yul\":1999:2014   */\n      swap2\n      pop\n      pop\n        /* \"#utility.yul\":1673:2020   */\n      swap3\n      pop\n      swap3\n      swap1\n      pop\n      jump\t// out\n        /* \"#utility.yul\":2214:2400   */\n    tag_59:\n        /* \"#utility.yul\":2273:2279   */\n      0x00\n        /* \"#utility.yul\":2326:2328   */\n      0x20\n        /* \"#utility.yul\":2314:2323   */\n      dup3\n        /* \"#utility.yul\":2305:2312   */\n      dup5\n        /* \"#utility.yul\":2301:2324   */\n      sub\n        /* \"#utility.yul\":2297:2329   */\n      slt\n        /* \"#utility.yul\":2294:2346   */\n      iszero\n      tag_275\n      jumpi\n        /* \"#utility.yul\":2342:2343   */\n      0x00\n        /* \"#utility.yul\":2339:2340   */\n      dup1\n        /* \"#utility.yul\":2332:2344   */\n      revert\n        /* \"#utility.yul\":2294:2346   */\n    tag_275:\n        /* \"#utility.yul\":2365:2394   */\n      tag_161\n        /* \"#utility.yul\":2384:2393   */\n      dup3\n        /* \"#utility.yul\":2365:2394   */\n      tag_254\n      jump\t// in\n        /* \"#utility.yul\":2613:2839   */\n    tag_84:\n        /* \"#utility.yul\":2672:2678   */\n      0x00\n        /* \"#utility.yul\":2725:2727   */\n      0x20\n        /* \"#utility.yul\":2713:2722   */\n      dup3\n        /* \"#utility.yul\":2704:2711   */\n      dup5\n        /* \"#utility.yul\":2700:2723   */\n      sub\n        /* \"#utility.yul\":2696:2728   */\n      slt\n        /* \"#utility.yul\":2693:2745   */\n      iszero\n      tag_279\n      jumpi\n        /* \"#utility.yul\":2741:2742   */\n      0x00\n        /* \"#utility.yul\":2738:2739   */\n      dup1\n        /* \"#utility.yul\":2731:2743   */\n      revert\n        /* \"#utility.yul\":2693:2745   */\n    tag_279:\n      pop\n        /* \"#utility.yul\":2786:2809   */\n      calldataload\n      swap2\n        /* \"#utility.yul\":2613:2839   */\n      swap1\n      pop\n      jump\t// out\n        /* \"#utility.yul\":2844:3104   */\n    tag_98:\n        /* \"#utility.yul\":2912:2918   */\n      0x00\n        /* \"#utility.yul\":2920:2926   */\n      dup1\n        /* \"#utility.yul\":2973:2975   */\n      0x40\n        /* \"#utility.yul\":2961:2970   */\n      dup4\n        /* \"#utility.yul\":2952:2959   */\n      dup6\n        /* \"#utility.yul\":2948:2971   */\n      sub\n        /* \"#utility.yul\":2944:2976   */\n      slt\n        /* \"#utility.yul\":2941:2993   */\n      iszero\n      tag_281\n      jumpi\n        /* \"#utility.yul\":2989:2990   */\n      0x00\n        /* \"#utility.yul\":2986:2987   */\n      dup1\n        /* \"#utility.yul\":2979:2991   */\n      revert\n        /* \"#utility.yul\":2941:2993   */\n    tag_281:\n        /* \"#utility.yul\":3012:3041   */\n      tag_282\n        /* \"#utility.yul\":3031:3040   */\n      dup4\n        /* \"#utility.yul\":3012:3041   */\n      tag_254\n      jump\t// in\n    tag_282:\n        /* \"#utility.yul\":3002:3041   */\n      swap2\n      pop\n        /* \"#utility.yul\":3060:3098   */\n      tag_283\n        /* \"#utility.yul\":3094:3096   */\n      0x20\n        /* \"#utility.yul\":3083:3092   */\n      dup5\n        /* \"#utility.yul\":3079:3097   */\n      add\n        /* \"#utility.yul\":3060:3098   */\n      tag_254\n      jump\t// in\n    tag_283:\n        /* \"#utility.yul\":3050:3098   */\n      swap1\n      pop\n        /* \"#utility.yul\":2844:3104   */\n      swap3\n      pop\n      swap3\n      swap1\n      pop\n      jump\t// out\n        /* \"#utility.yul\":3109:3489   */\n    tag_106:\n        /* \"#utility.yul\":3188:3189   */\n      0x01\n        /* \"#utility.yul\":3184:3196   */\n      dup2\n      dup2\n      shr\n      swap1\n        /* \"#utility.yul\":3231:3243   */\n      dup3\n      and\n      dup1\n        /* \"#utility.yul\":3252:3313   */\n      tag_285\n      jumpi\n        /* \"#utility.yul\":3306:3310   */\n      0x7f\n        /* \"#utility.yul\":3298:3304   */\n      dup3\n        /* \"#utility.yul\":3294:3311   */\n      and\n        /* \"#utility.yul\":3284:3311   */\n      swap2\n      pop\n        /* \"#utility.yul\":3252:3313   */\n    tag_285:\n        /* \"#utility.yul\":3359:3361   */\n      0x20\n        /* \"#utility.yul\":3351:3357   */\n      dup3\n        /* \"#utility.yul\":3348:3362   */\n      lt\n        /* \"#utility.yul\":3328:3346   */\n      dup2\n        /* \"#utility.yul\":3325:3363   */\n      sub\n        /* \"#utility.yul\":3322:3483   */\n      tag_286\n      jumpi\n        /* \"#utility.yul\":3405:3415   */\n      0x4e487b71\n        /* \"#utility.yul\":3400:3403   */\n      0xe0\n        /* \"#utility.yul\":3396:3416   */\n      shl\n        /* \"#utility.yul\":3393:3394   */\n      0x00\n        /* \"#utility.yul\":3386:3417   */\n      mstore\n        /* \"#utility.yul\":3440:3444   */\n      0x22\n        /* \"#utility.yul\":3437:3438   */\n      0x04\n        /* \"#utility.yul\":3430:3445   */\n      mstore\n        /* \"#utility.yul\":3468:3472   */\n      0x24\n        /* \"#utility.yul\":3465:3466   */\n      0x00\n        /* \"#utility.yul\":3458:3473   */\n      revert\n        /* \"#utility.yul\":3322:3483   */\n    tag_286:\n      pop\n        /* \"#utility.yul\":3109:3489   */\n      swap2\n      swap1\n      pop\n      jump\t// out\n        /* \"#utility.yul\":3494:3621   */\n    tag_255:\n        /* \"#utility.yul\":3555:3565   */\n      0x4e487b71\n        /* \"#utility.yul\":3550:3553   */\n      0xe0\n        /* \"#utility.yul\":3546:3566   */\n      shl\n        /* \"#utility.yul\":3543:3544   */\n      0x00\n        /* \"#utility.yul\":3536:3567   */\n      mstore\n        /* \"#utility.yul\":3586:3590   */\n      0x11\n        /* \"#utility.yul\":3583:3584   */\n      0x04\n        /* \"#utility.yul\":3576:3591   */\n      mstore\n        /* \"#utility.yul\":3610:3614   */\n      0x24\n        /* \"#utility.yul\":3607:3608   */\n      0x00\n        /* \"#utility.yul\":3600:3615   */\n      revert\n        /* \"#utility.yul\":3626:3751   */\n    tag_134:\n        /* \"#utility.yul\":3691:3700   */\n      dup1\n      dup3\n      add\n        /* \"#utility.yul\":3712:3722   */\n      dup1\n      dup3\n      gt\n        /* \"#utility.yul\":3709:3745   */\n      iszero\n      tag_111\n      jumpi\n        /* \"#utility.yul\":3725:3743   */\n      tag_111\n      tag_255\n      jump\t// in\n        /* \"#utility.yul\":5377:5545   */\n    tag_196:\n        /* \"#utility.yul\":5450:5459   */\n      dup1\n      dup3\n      mul\n        /* \"#utility.yul\":5481:5490   */\n      dup2\n      iszero\n        /* \"#utility.yul\":5498:5513   */\n      dup3\n      dup3\n      div\n        /* \"#utility.yul\":5492:5514   */\n      dup5\n      eq\n        /* \"#utility.yul\":5478:5515   */\n      or\n        /* \"#utility.yul\":5468:5539   */\n      tag_111\n      jumpi\n        /* \"#utility.yul\":5519:5537   */\n      tag_111\n      tag_255\n      jump\t// in\n        /* \"#utility.yul\":5550:5767   */\n    tag_198:\n        /* \"#utility.yul\":5590:5591   */\n      0x00\n        /* \"#utility.yul\":5616:5617   */\n      dup3\n        /* \"#utility.yul\":5606:5738   */\n      tag_299\n      jumpi\n        /* \"#utility.yul\":5660:5670   */\n      0x4e487b71\n        /* \"#utility.yul\":5655:5658   */\n      0xe0\n        /* \"#utility.yul\":5651:5671   */\n      shl\n        /* \"#utility.yul\":5648:5649   */\n      0x00\n        /* \"#utility.yul\":5641:5672   */\n      mstore\n        /* \"#utility.yul\":5695:5699   */\n      0x12\n        /* \"#utility.yul\":5692:5693   */\n      0x04\n        /* \"#utility.yul\":5685:5700   */\n      mstore\n        /* \"#utility.yul\":5723:5727   */\n      0x24\n        /* \"#utility.yul\":5720:5721   */\n      0x00\n        /* \"#utility.yul\":5713:5728   */\n      revert\n        /* \"#utility.yul\":5606:5738   */\n    tag_299:\n      pop\n        /* \"#utility.yul\":5752:5761   */\n      div\n      swap1\n        /* \"#utility.yul\":5550:5767   */\n      jump\t// out\n\n    auxdata: 0xa264697066735822122012659be5dcbcb543bbd069a8d4751a0da57e397e950fbd65807c6bdc821fb52864736f6c634300081a0033\n}\n",
				"bytecode": {
					"linkReferences": {},
					"object": "60a0604052604051611545380380611545833981016040819052610022916104aa565b60408051808201909152600c81526b054617861626c6545524332360a41b60208201528190833387878b8e8e600361005a8382610600565b5060046100678282610600565b50505060ff16608052610079826101af565b6100828161022b565b6100a9336001600160a01b03165f908152600760205260409020805460ff19166001179055565b6001600160a01b03165f908152600760205260409020805460ff19166001179055506100d4336102c9565b60405163346386e160e01b81526001600160a01b0385169063346386e1903490610106908790879087906004016106e8565b5f604051808303818588803b15801561011d575f80fd5b505af115801561012f573d5f803e3d5ffd5b5050505050505050505f85116101985760405162461bcd60e51b815260206004820152602360248201527f54617861626c6545524332303a20737570706c792063616e6e6f74206265207a60448201526265726f60e81b60648201526084015b60405180910390fd5b6101a2338661031a565b505050505050505061074a565b6103e881106102265760405162461bcd60e51b815260206004820152603460248201527f455243323054617861626c653a207461784665655065724d696c6c655f206d7560448201527f7374206265206c657373207468616e2031303030000000000000000000000000606482015260840161018f565b600555565b6001600160a01b0381166102a75760405162461bcd60e51b815260206004820152603460248201527f455243323054617861626c653a20746178416464726573735f2063616e6e6f7460448201527f20626520746865207a65726f2061646472657373000000000000000000000000606482015260840161018f565b600680546001600160a01b0319166001600160a01b0392909216919091179055565b600880546001600160a01b038381166001600160a01b0319831681179093556040519116919082907f8be0079c531659141344cd1fd0a4f28419497f9722a3daafe3b4186f6b6457e0905f90a35050565b6001600160a01b0382166103705760405162461bcd60e51b815260206004820152601f60248201527f45524332303a206d696e7420746f20746865207a65726f206164647265737300604482015260640161018f565b8060025f8282546103819190610725565b90915550506001600160a01b0382165f81815260208181526040808320805486019055518481527fddf252ad1be2c89b69c2b068fc378daa952ba7f163c4a11628f55a4df523b3ef910160405180910390a35050565b505050565b634e487b7160e01b5f52604160045260245ffd5b5f82601f8301126103ff575f80fd5b8151602083015f806001600160401b0384111561041e5761041e6103dc565b50604051601f19601f85018116603f011681018181106001600160401b038211171561044c5761044c6103dc565b604052838152905080828401871015610463575f80fd5b8383602083015e5f602085830101528094505050505092915050565b805160ff8116811461048f575f80fd5b919050565b80516001600160a01b038116811461048f575f80fd5b5f805f805f805f80610100898b0312156104c2575f80fd5b88516001600160401b038111156104d7575f80fd5b6104e38b828c016103f0565b60208b015190995090506001600160401b03811115610500575f80fd5b61050c8b828c016103f0565b97505061051b60408a0161047f565b60608a015160808b01519197509550935061053860a08a01610494565b60c08a01519093506001600160401b03811115610553575f80fd5b61055f8b828c016103f0565b92505061056e60e08a01610494565b90509295985092959890939650565b600181811c9082168061059157607f821691505b6020821081036105af57634e487b7160e01b5f52602260045260245ffd5b50919050565b601f8211156103d757805f5260205f20601f840160051c810160208510156105da5750805b601f840160051c820191505b818110156105f9575f81556001016105e6565b5050505050565b81516001600160401b03811115610619576106196103dc565b61062d81610627845461057d565b846105b5565b6020601f82116001811461065f575f83156106485750848201515b5f19600385901b1c1916600184901b1784556105f9565b5f84815260208120601f198516915b8281101561068e578785015182556020948501946001909201910161066e565b50848210156106ab57868401515f19600387901b60f8161c191681555b50505050600190811b01905550565b5f81518084528060208401602086015e5f602082860101526020601f19601f83011685010191505092915050565b606081525f6106fa60608301866106ba565b828103602084015261070c81866106ba565b91505060018060a01b0383166040830152949350505050565b8082018082111561074457634e487b7160e01b5f52601160045260245ffd5b92915050565b608051610de36107625f395f6101ad0152610de35ff3fe608060405234801561000f575f80fd5b5060043610610127575f3560e01c806395d89b41116100a9578063b7bda68f1161006e578063b7bda68f14610293578063c283cd12146102a4578063c6d205fa146102cf578063dd62ed3e146102d7578063f2fde38b146102ea575f80fd5b806395d89b411461023f578063a1883d2614610247578063a457c2d71461025a578063a9059cbb1461026d578063b7600f7a14610280575f80fd5b8063313ce567116100ef578063313ce567146101a657806339509351146101d757806370a08231146101ea578063715018a6146102125780638da5cb5b1461021a575f80fd5b806306fdde031461012b578063095ea7b31461014957806318160ddd1461016c57806323b872dd1461017e5780632678999314610191575b5f80fd5b6101336102fd565b6040516101409190610bcc565b60405180910390f35b61015c610157366004610c1c565b61038d565b6040519015158152602001610140565b6002545b604051908152602001610140565b61015c61018c366004610c44565b6103a6565b6101a461019f366004610c7e565b6103ba565b005b60405160ff7f0000000000000000000000000000000000000000000000000000000000000000168152602001610140565b61015c6101e5366004610c1c565b6103e9565b6101706101f8366004610cb7565b6001600160a01b03165f9081526020819052604090205490565b6101a461040a565b6008546001600160a01b03165b6040516001600160a01b039091168152602001610140565b61013361041d565b6101a4610255366004610cb7565b61042c565b61015c610268366004610c1c565b610440565b61015c61027b366004610c1c565b6104ca565b6101a461028e366004610cd0565b6104dc565b6006546001600160a01b0316610227565b61015c6102b2366004610cb7565b6001600160a01b03165f9081526007602052604090205460ff1690565b600554610170565b6101706102e5366004610ce7565b6104ed565b6101a46102f8366004610cb7565b610517565b60606003805461030c90610d18565b80601f016020809104026020016040519081016040528092919081815260200182805461033890610d18565b80156103835780601f1061035a57610100808354040283529160200191610383565b820191905f5260205f20905b81548152906001019060200180831161036657829003601f168201915b5050505050905090565b5f3361039a81858561058d565b60019150505b92915050565b5f6103b28484846106b0565b949350505050565b6103c261075c565b6001600160a01b0382165f908152600760205260409020805460ff19168215151790555050565b5f3361039a8185856103fb83836104ed565b6104059190610d64565b61058d565b61041261075c565b61041b5f6107b6565b565b60606004805461030c90610d18565b61043461075c565b61043d81610807565b50565b5f338161044d82866104ed565b9050838110156104b25760405162461bcd60e51b815260206004820152602560248201527f45524332303a2064656372656173656420616c6c6f77616e63652062656c6f77604482015264207a65726f60d81b60648201526084015b60405180910390fd5b6104bf828686840361058d565b506001949350505050565b5f6104d5838361089c565b9392505050565b6104e461075c565b61043d8161093f565b6001600160a01b039182165f90815260016020908152604080832093909416825291909152205490565b61051f61075c565b6001600160a01b0381166105845760405162461bcd60e51b815260206004820152602660248201527f4f776e61626c653a206e6577206f776e657220697320746865207a65726f206160448201526564647265737360d01b60648201526084016104a9565b61043d816107b6565b6001600160a01b0383166105ef5760405162461bcd60e51b8152602060048201526024808201527f45524332303a20617070726f76652066726f6d20746865207a65726f206164646044820152637265737360e01b60648201526084016104a9565b6001600160a01b0382166106505760405162461bcd60e51b815260206004820152602260248201527f45524332303a20617070726f766520746f20746865207a65726f206164647265604482015261737360f01b60648201526084016104a9565b6001600160a01b038381165f8181526001602090815260408083209487168084529482529182902085905590518481527f8c5be1e5ebec7d5bd14f71427d1e84f3dd0314c0f7b2291e5b200ac8c7c3b925910160405180910390a3505050565b5f336106bd8582856109b2565b5f60055411801561070857506001600160a01b0385165f9081526007602052604090205460ff168061070657506001600160a01b0384165f9081526007602052604090205460ff165b155b15610751575f6103e86005548561071f9190610d77565b6107299190610d8e565b9050801561074f576006546107499087906001600160a01b031683610a2a565b80840393505b505b6104bf858585610a2a565b6008546001600160a01b0316331461041b5760405162461bcd60e51b815260206004820181905260248201527f4f776e61626c653a2063616c6c6572206973206e6f7420746865206f776e657260448201526064016104a9565b600880546001600160a01b038381166001600160a01b0319831681179093556040519116919082907f8be0079c531659141344cd1fd0a4f28419497f9722a3daafe3b4186f6b6457e0905f90a35050565b6001600160a01b03811661087a5760405162461bcd60e51b815260206004820152603460248201527f455243323054617861626c653a20746178416464726573735f2063616e6e6f7460448201527320626520746865207a65726f206164647265737360601b60648201526084016104a9565b600680546001600160a01b0319166001600160a01b0392909216919091179055565b6005545f903390158015906108eb57506001600160a01b0381165f9081526007602052604090205460ff16806108e957506001600160a01b0384165f9081526007602052604090205460ff165b155b15610934575f6103e8600554856109029190610d77565b61090c9190610d8e565b905080156109325760065461092c9083906001600160a01b031683610a2a565b80840393505b505b61039a818585610a2a565b6103e881106109ad5760405162461bcd60e51b815260206004820152603460248201527f455243323054617861626c653a207461784665655065724d696c6c655f206d7560448201527307374206265206c657373207468616e20313030360641b60648201526084016104a9565b600555565b5f6109bd84846104ed565b90505f198114610a245781811015610a175760405162461bcd60e51b815260206004820152601d60248201527f45524332303a20696e73756666696369656e7420616c6c6f77616e636500000060448201526064016104a9565b610a24848484840361058d565b50505050565b6001600160a01b038316610a8e5760405162461bcd60e51b815260206004820152602560248201527f45524332303a207472616e736665722066726f6d20746865207a65726f206164604482015264647265737360d81b60648201526084016104a9565b6001600160a01b038216610af05760405162461bcd60e51b815260206004820152602360248201527f45524332303a207472616e7366657220746f20746865207a65726f206164647260448201526265737360e81b60648201526084016104a9565b6001600160a01b0383165f9081526020819052604090205481811015610b675760405162461bcd60e51b815260206004820152602660248201527f45524332303a207472616e7366657220616d6f756e7420657863656564732062604482015265616c616e636560d01b60648201526084016104a9565b6001600160a01b038481165f81815260208181526040808320878703905593871680835291849020805487019055925185815290927fddf252ad1be2c89b69c2b068fc378daa952ba7f163c4a11628f55a4df523b3ef910160405180910390a3610a24565b602081525f82518060208401528060208501604085015e5f604082850101526040601f19601f83011684010191505092915050565b80356001600160a01b0381168114610c17575f80fd5b919050565b5f8060408385031215610c2d575f80fd5b610c3683610c01565b946020939093013593505050565b5f805f60608486031215610c56575f80fd5b610c5f84610c01565b9250610c6d60208501610c01565b929592945050506040919091013590565b5f8060408385031215610c8f575f80fd5b610c9883610c01565b915060208301358015158114610cac575f80fd5b809150509250929050565b5f60208284031215610cc7575f80fd5b6104d582610c01565b5f60208284031215610ce0575f80fd5b5035919050565b5f8060408385031215610cf8575f80fd5b610d0183610c01565b9150610d0f60208401610c01565b90509250929050565b600181811c90821680610d2c57607f821691505b602082108103610d4a57634e487b7160e01b5f52602260045260245ffd5b50919050565b634e487b7160e01b5f52601160045260245ffd5b808201808211156103a0576103a0610d50565b80820281158282048414176103a0576103a0610d50565b5f82610da857634e487b7160e01b5f52601260045260245ffd5b50049056fea264697066735822122012659be5dcbcb543bbd069a8d4751a0da57e397e950fbd65807c6bdc821fb52864736f6c634300081a0033",
					"opcodes": "PUSH1 0xA0 PUSH1 0x40 MSTORE PUSH1 0x40 MLOAD PUSH2 0x1545 CODESIZE SUB DUP1 PUSH2 0x1545 DUP4 CODECOPY DUP2 ADD PUSH1 0x40 DUP2 SWAP1 MSTORE PUSH2 0x22 SWAP2 PUSH2 0x4AA JUMP JUMPDEST PUSH1 0x40 DUP1 MLOAD DUP1 DUP3 ADD SWAP1 SWAP2 MSTORE PUSH1 0xC DUP2 MSTORE PUSH12 0x54617861626C65455243323 PUSH1 0xA4 SHL PUSH1 0x20 DUP3 ADD MSTORE DUP2 SWAP1 DUP4 CALLER DUP8 DUP8 DUP12 DUP15 DUP15 PUSH1 0x3 PUSH2 0x5A DUP4 DUP3 PUSH2 0x600 JUMP JUMPDEST POP PUSH1 0x4 PUSH2 0x67 DUP3 DUP3 PUSH2 0x600 JUMP JUMPDEST POP POP POP PUSH1 0xFF AND PUSH1 0x80 MSTORE PUSH2 0x79 DUP3 PUSH2 0x1AF JUMP JUMPDEST PUSH2 0x82 DUP2 PUSH2 0x22B JUMP JUMPDEST PUSH2 0xA9 CALLER PUSH1 0x1 PUSH1 0x1 PUSH1 0xA0 SHL SUB AND PUSH0 SWAP1 DUP2 MSTORE PUSH1 0x7 PUSH1 0x20 MSTORE PUSH1 0x40 SWAP1 KECCAK256 DUP1 SLOAD PUSH1 0xFF NOT AND PUSH1 0x1 OR SWAP1 SSTORE JUMP JUMPDEST PUSH1 0x1 PUSH1 0x1 PUSH1 0xA0 SHL SUB AND PUSH0 SWAP1 DUP2 MSTORE PUSH1 0x7 PUSH1 0x20 MSTORE PUSH1 0x40 SWAP1 KECCAK256 DUP1 SLOAD PUSH1 0xFF NOT AND PUSH1 0x1 OR SWAP1 SSTORE POP PUSH2 0xD4 CALLER PUSH2 0x2C9 JUMP JUMPDEST PUSH1 0x40 MLOAD PUSH4 0x346386E1 PUSH1 0xE0 SHL DUP2 MSTORE PUSH1 0x1 PUSH1 0x1 PUSH1 0xA0 SHL SUB DUP6 AND SWAP1 PUSH4 0x346386E1 SWAP1 CALLVALUE SWAP1 PUSH2 0x106 SWAP1 DUP8 SWAP1 DUP8 SWAP1 DUP8 SWAP1 PUSH1 0x4 ADD PUSH2 0x6E8 JUMP JUMPDEST PUSH0 PUSH1 0x40 MLOAD DUP1 DUP4 SUB DUP2 DUP6 DUP9 DUP1 EXTCODESIZE ISZERO DUP1 ISZERO PUSH2 0x11D JUMPI PUSH0 DUP1 REVERT JUMPDEST POP GAS CALL ISZERO DUP1 ISZERO PUSH2 0x12F JUMPI RETURNDATASIZE PUSH0 DUP1 RETURNDATACOPY RETURNDATASIZE PUSH0 REVERT JUMPDEST POP POP POP POP POP POP POP POP POP PUSH0 DUP6 GT PUSH2 0x198 JUMPI PUSH1 0x40 MLOAD PUSH3 0x461BCD PUSH1 0xE5 SHL DUP2 MSTORE PUSH1 0x20 PUSH1 0x4 DUP3 ADD MSTORE PUSH1 0x23 PUSH1 0x24 DUP3 ADD MSTORE PUSH32 0x54617861626C6545524332303A20737570706C792063616E6E6F74206265207A PUSH1 0x44 DUP3 ADD MSTORE PUSH3 0x65726F PUSH1 0xE8 SHL PUSH1 0x64 DUP3 ADD MSTORE PUSH1 0x84 ADD JUMPDEST PUSH1 0x40 MLOAD DUP1 SWAP2 SUB SWAP1 REVERT JUMPDEST PUSH2 0x1A2 CALLER DUP7 PUSH2 0x31A JUMP JUMPDEST POP POP POP POP POP POP POP POP PUSH2 0x74A JUMP JUMPDEST PUSH2 0x3E8 DUP2 LT PUSH2 0x226 JUMPI PUSH1 0x40 MLOAD PUSH3 0x461BCD PUSH1 0xE5 SHL DUP2 MSTORE PUSH1 0x20 PUSH1 0x4 DUP3 ADD MSTORE PUSH1 0x34 PUSH1 0x24 DUP3 ADD MSTORE PUSH32 0x455243323054617861626C653A207461784665655065724D696C6C655F206D75 PUSH1 0x44 DUP3 ADD MSTORE PUSH32 0x7374206265206C657373207468616E2031303030000000000000000000000000 PUSH1 0x64 DUP3 ADD MSTORE PUSH1 0x84 ADD PUSH2 0x18F JUMP JUMPDEST PUSH1 0x5 SSTORE JUMP JUMPDEST PUSH1 0x1 PUSH1 0x1 PUSH1 0xA0 SHL SUB DUP2 AND PUSH2 0x2A7 JUMPI PUSH1 0x40 MLOAD PUSH3 0x461BCD PUSH1 0xE5 SHL DUP2 MSTORE PUSH1 0x20 PUSH1 0x4 DUP3 ADD MSTORE PUSH1 0x34 PUSH1 0x24 DUP3 ADD MSTORE PUSH32 0x455243323054617861626C653A20746178416464726573735F2063616E6E6F74 PUSH1 0x44 DUP3 ADD MSTORE PUSH32 0x20626520746865207A65726F2061646472657373000000000000000000000000 PUSH1 0x64 DUP3 ADD MSTORE PUSH1 0x84 ADD PUSH2 0x18F JUMP JUMPDEST PUSH1 0x6 DUP1 SLOAD PUSH1 0x1 PUSH1 0x1 PUSH1 0xA0 SHL SUB NOT AND PUSH1 0x1 PUSH1 0x1 PUSH1 0xA0 SHL SUB SWAP3 SWAP1 SWAP3 AND SWAP2 SWAP1 SWAP2 OR SWAP1 SSTORE JUMP JUMPDEST PUSH1 0x8 DUP1 SLOAD PUSH1 0x1 PUSH1 0x1 PUSH1 0xA0 SHL SUB DUP4 DUP2 AND PUSH1 0x1 PUSH1 0x1 PUSH1 0xA0 SHL SUB NOT DUP4 AND DUP2 OR SWAP1 SWAP4 SSTORE PUSH1 0x40 MLOAD SWAP2 AND SWAP2 SWAP1 DUP3 SWAP1 PUSH32 0x8BE0079C531659141344CD1FD0A4F28419497F9722A3DAAFE3B4186F6B6457E0 SWAP1 PUSH0 SWAP1 LOG3 POP POP JUMP JUMPDEST PUSH1 0x1 PUSH1 0x1 PUSH1 0xA0 SHL SUB DUP3 AND PUSH2 0x370 JUMPI PUSH1 0x40 MLOAD PUSH3 0x461BCD PUSH1 0xE5 SHL DUP2 MSTORE PUSH1 0x20 PUSH1 0x4 DUP3 ADD MSTORE PUSH1 0x1F PUSH1 0x24 DUP3 ADD MSTORE PUSH32 0x45524332303A206D696E7420746F20746865207A65726F206164647265737300 PUSH1 0x44 DUP3 ADD MSTORE PUSH1 0x64 ADD PUSH2 0x18F JUMP JUMPDEST DUP1 PUSH1 0x2 PUSH0 DUP3 DUP3 SLOAD PUSH2 0x381 SWAP2 SWAP1 PUSH2 0x725 JUMP JUMPDEST SWAP1 SWAP2 SSTORE POP POP PUSH1 0x1 PUSH1 0x1 PUSH1 0xA0 SHL SUB DUP3 AND PUSH0 DUP2 DUP2 MSTORE PUSH1 0x20 DUP2 DUP2 MSTORE PUSH1 0x40 DUP1 DUP4 KECCAK256 DUP1 SLOAD DUP7 ADD SWAP1 SSTORE MLOAD DUP5 DUP2 MSTORE PUSH32 0xDDF252AD1BE2C89B69C2B068FC378DAA952BA7F163C4A11628F55A4DF523B3EF SWAP2 ADD PUSH1 0x40 MLOAD DUP1 SWAP2 SUB SWAP1 LOG3 POP POP JUMP JUMPDEST POP POP POP JUMP JUMPDEST PUSH4 0x4E487B71 PUSH1 0xE0 SHL PUSH0 MSTORE PUSH1 0x41 PUSH1 0x4 MSTORE PUSH1 0x24 PUSH0 REVERT JUMPDEST PUSH0 DUP3 PUSH1 0x1F DUP4 ADD SLT PUSH2 0x3FF JUMPI PUSH0 DUP1 REVERT JUMPDEST DUP2 MLOAD PUSH1 0x20 DUP4 ADD PUSH0 DUP1 PUSH1 0x1 PUSH1 0x1 PUSH1 0x40 SHL SUB DUP5 GT ISZERO PUSH2 0x41E JUMPI PUSH2 0x41E PUSH2 0x3DC JUMP JUMPDEST POP PUSH1 0x40 MLOAD PUSH1 0x1F NOT PUSH1 0x1F DUP6 ADD DUP2 AND PUSH1 0x3F ADD AND DUP2 ADD DUP2 DUP2 LT PUSH1 0x1 PUSH1 0x1 PUSH1 0x40 SHL SUB DUP3 GT OR ISZERO PUSH2 0x44C JUMPI PUSH2 0x44C PUSH2 0x3DC JUMP JUMPDEST PUSH1 0x40 MSTORE DUP4 DUP2 MSTORE SWAP1 POP DUP1 DUP3 DUP5 ADD DUP8 LT ISZERO PUSH2 0x463 JUMPI PUSH0 DUP1 REVERT JUMPDEST DUP4 DUP4 PUSH1 0x20 DUP4 ADD MCOPY PUSH0 PUSH1 0x20 DUP6 DUP4 ADD ADD MSTORE DUP1 SWAP5 POP POP POP POP POP SWAP3 SWAP2 POP POP JUMP JUMPDEST DUP1 MLOAD PUSH1 0xFF DUP2 AND DUP2 EQ PUSH2 0x48F JUMPI PUSH0 DUP1 REVERT JUMPDEST SWAP2 SWAP1 POP JUMP JUMPDEST DUP1 MLOAD PUSH1 0x1 PUSH1 0x1 PUSH1 0xA0 SHL SUB DUP2 AND DUP2 EQ PUSH2 0x48F JUMPI PUSH0 DUP1 REVERT JUMPDEST PUSH0 DUP1 PUSH0 DUP1 PUSH0 DUP1 PUSH0 DUP1 PUSH2 0x100 DUP10 DUP12 SUB SLT ISZERO PUSH2 0x4C2 JUMPI PUSH0 DUP1 REVERT JUMPDEST DUP9 MLOAD PUSH1 0x1 PUSH1 0x1 PUSH1 0x40 SHL SUB DUP2 GT ISZERO PUSH2 0x4D7 JUMPI PUSH0 DUP1 REVERT JUMPDEST PUSH2 0x4E3 DUP12 DUP3 DUP13 ADD PUSH2 0x3F0 JUMP JUMPDEST PUSH1 0x20 DUP12 ADD MLOAD SWAP1 SWAP10 POP SWAP1 POP PUSH1 0x1 PUSH1 0x1 PUSH1 0x40 SHL SUB DUP2 GT ISZERO PUSH2 0x500 JUMPI PUSH0 DUP1 REVERT JUMPDEST PUSH2 0x50C DUP12 DUP3 DUP13 ADD PUSH2 0x3F0 JUMP JUMPDEST SWAP8 POP POP PUSH2 0x51B PUSH1 0x40 DUP11 ADD PUSH2 0x47F JUMP JUMPDEST PUSH1 0x60 DUP11 ADD MLOAD PUSH1 0x80 DUP12 ADD MLOAD SWAP2 SWAP8 POP SWAP6 POP SWAP4 POP PUSH2 0x538 PUSH1 0xA0 DUP11 ADD PUSH2 0x494 JUMP JUMPDEST PUSH1 0xC0 DUP11 ADD MLOAD SWAP1 SWAP4 POP PUSH1 0x1 PUSH1 0x1 PUSH1 0x40 SHL SUB DUP2 GT ISZERO PUSH2 0x553 JUMPI PUSH0 DUP1 REVERT JUMPDEST PUSH2 0x55F DUP12 DUP3 DUP13 ADD PUSH2 0x3F0 JUMP JUMPDEST SWAP3 POP POP PUSH2 0x56E PUSH1 0xE0 DUP11 ADD PUSH2 0x494 JUMP JUMPDEST SWAP1 POP SWAP3 SWAP6 SWAP9 POP SWAP3 SWAP6 SWAP9 SWAP1 SWAP4 SWAP7 POP JUMP JUMPDEST PUSH1 0x1 DUP2 DUP2 SHR SWAP1 DUP3 AND DUP1 PUSH2 0x591 JUMPI PUSH1 0x7F DUP3 AND SWAP2 POP JUMPDEST PUSH1 0x20 DUP3 LT DUP2 SUB PUSH2 0x5AF JUMPI PUSH4 0x4E487B71 PUSH1 0xE0 SHL PUSH0 MSTORE PUSH1 0x22 PUSH1 0x4 MSTORE PUSH1 0x24 PUSH0 REVERT JUMPDEST POP SWAP2 SWAP1 POP JUMP JUMPDEST PUSH1 0x1F DUP3 GT ISZERO PUSH2 0x3D7 JUMPI DUP1 PUSH0 MSTORE PUSH1 0x20 PUSH0 KECCAK256 PUSH1 0x1F DUP5 ADD PUSH1 0x5 SHR DUP2 ADD PUSH1 0x20 DUP6 LT ISZERO PUSH2 0x5DA JUMPI POP DUP1 JUMPDEST PUSH1 0x1F DUP5 ADD PUSH1 0x5 SHR DUP3 ADD SWAP2 POP JUMPDEST DUP2 DUP2 LT ISZERO PUSH2 0x5F9 JUMPI PUSH0 DUP2 SSTORE PUSH1 0x1 ADD PUSH2 0x5E6 JUMP JUMPDEST POP POP POP POP POP JUMP JUMPDEST DUP2 MLOAD PUSH1 0x1 PUSH1 0x1 PUSH1 0x40 SHL SUB DUP2 GT ISZERO PUSH2 0x619 JUMPI PUSH2 0x619 PUSH2 0x3DC JUMP JUMPDEST PUSH2 0x62D DUP2 PUSH2 0x627 DUP5 SLOAD PUSH2 0x57D JUMP JUMPDEST DUP5 PUSH2 0x5B5 JUMP JUMPDEST PUSH1 0x20 PUSH1 0x1F DUP3 GT PUSH1 0x1 DUP2 EQ PUSH2 0x65F JUMPI PUSH0 DUP4 ISZERO PUSH2 0x648 JUMPI POP DUP5 DUP3 ADD MLOAD JUMPDEST PUSH0 NOT PUSH1 0x3 DUP6 SWAP1 SHL SHR NOT AND PUSH1 0x1 DUP5 SWAP1 SHL OR DUP5 SSTORE PUSH2 0x5F9 JUMP JUMPDEST PUSH0 DUP5 DUP2 MSTORE PUSH1 0x20 DUP2 KECCAK256 PUSH1 0x1F NOT DUP6 AND SWAP2 JUMPDEST DUP3 DUP2 LT ISZERO PUSH2 0x68E JUMPI DUP8 DUP6 ADD MLOAD DUP3 SSTORE PUSH1 0x20 SWAP5 DUP6 ADD SWAP5 PUSH1 0x1 SWAP1 SWAP3 ADD SWAP2 ADD PUSH2 0x66E JUMP JUMPDEST POP DUP5 DUP3 LT ISZERO PUSH2 0x6AB JUMPI DUP7 DUP5 ADD MLOAD PUSH0 NOT PUSH1 0x3 DUP8 SWAP1 SHL PUSH1 0xF8 AND SHR NOT AND DUP2 SSTORE JUMPDEST POP POP POP POP PUSH1 0x1 SWAP1 DUP2 SHL ADD SWAP1 SSTORE POP JUMP JUMPDEST PUSH0 DUP2 MLOAD DUP1 DUP5 MSTORE DUP1 PUSH1 0x20 DUP5 ADD PUSH1 0x20 DUP7 ADD MCOPY PUSH0 PUSH1 0x20 DUP3 DUP7 ADD ADD MSTORE PUSH1 0x20 PUSH1 0x1F NOT PUSH1 0x1F DUP4 ADD AND DUP6 ADD ADD SWAP2 POP POP SWAP3 SWAP2 POP POP JUMP JUMPDEST PUSH1 0x60 DUP2 MSTORE PUSH0 PUSH2 0x6FA PUSH1 0x60 DUP4 ADD DUP7 PUSH2 0x6BA JUMP JUMPDEST DUP3 DUP2 SUB PUSH1 0x20 DUP5 ADD MSTORE PUSH2 0x70C DUP2 DUP7 PUSH2 0x6BA JUMP JUMPDEST SWAP2 POP POP PUSH1 0x1 DUP1 PUSH1 0xA0 SHL SUB DUP4 AND PUSH1 0x40 DUP4 ADD MSTORE SWAP5 SWAP4 POP POP POP POP JUMP JUMPDEST DUP1 DUP3 ADD DUP1 DUP3 GT ISZERO PUSH2 0x744 JUMPI PUSH4 0x4E487B71 PUSH1 0xE0 SHL PUSH0 MSTORE PUSH1 0x11 PUSH1 0x4 MSTORE PUSH1 0x24 PUSH0 REVERT JUMPDEST SWAP3 SWAP2 POP POP JUMP JUMPDEST PUSH1 0x80 MLOAD PUSH2 0xDE3 PUSH2 0x762 PUSH0 CODECOPY PUSH0 PUSH2 0x1AD ADD MSTORE PUSH2 0xDE3 PUSH0 RETURN INVALID PUSH1 0x80 PUSH1 0x40 MSTORE CALLVALUE DUP1 ISZERO PUSH2 0xF JUMPI PUSH0 DUP1 REVERT JUMPDEST POP PUSH1 0x4 CALLDATASIZE LT PUSH2 0x127 JUMPI PUSH0 CALLDATALOAD PUSH1 0xE0 SHR DUP1 PUSH4 0x95D89B41 GT PUSH2 0xA9 JUMPI DUP1 PUSH4 0xB7BDA68F GT PUSH2 0x6E JUMPI DUP1 PUSH4 0xB7BDA68F EQ PUSH2 0x293 JUMPI DUP1 PUSH4 0xC283CD12 EQ PUSH2 0x2A4 JUMPI DUP1 PUSH4 0xC6D205FA EQ PUSH2 0x2CF JUMPI DUP1 PUSH4 0xDD62ED3E EQ PUSH2 0x2D7 JUMPI DUP1 PUSH4 0xF2FDE38B EQ PUSH2 0x2EA JUMPI PUSH0 DUP1 REVERT JUMPDEST DUP1 PUSH4 0x95D89B41 EQ PUSH2 0x23F JUMPI DUP1 PUSH4 0xA1883D26 EQ PUSH2 0x247 JUMPI DUP1 PUSH4 0xA457C2D7 EQ PUSH2 0x25A JUMPI DUP1 PUSH4 0xA9059CBB EQ PUSH2 0x26D JUMPI DUP1 PUSH4 0xB7600F7A EQ PUSH2 0x280 JUMPI PUSH0 DUP1 REVERT JUMPDEST DUP1 PUSH4 0x313CE567 GT PUSH2 0xEF JUMPI DUP1 PUSH4 0x313CE567 EQ PUSH2 0x1A6 JUMPI DUP1 PUSH4 0x39509351 EQ PUSH2 0x1D7 JUMPI DUP1 PUSH4 0x70A08231 EQ PUSH2 0x1EA JUMPI DUP1 PUSH4 0x715018A6 EQ PUSH2 0x212 JUMPI DUP1 PUSH4 0x8DA5CB5B EQ PUSH2 0x21A JUMPI PUSH0 DUP1 REVERT JUMPDEST DUP1 PUSH4 0x6FDDE03 EQ PUSH2 0x12B JUMPI DUP1 PUSH4 0x95EA7B3 EQ PUSH2 0x149 JUMPI DUP1 PUSH4 0x18160DDD EQ PUSH2 0x16C JUMPI DUP1 PUSH4 0x23B872DD EQ PUSH2 0x17E JUMPI DUP1 PUSH4 0x26789993 EQ PUSH2 0x191 JUMPI JUMPDEST PUSH0 DUP1 REVERT JUMPDEST PUSH2 0x133 PUSH2 0x2FD JUMP JUMPDEST PUSH1 0x40 MLOAD PUSH2 0x140 SWAP2 SWAP1 PUSH2 0xBCC JUMP JUMPDEST PUSH1 0x40 MLOAD DUP1 SWAP2 SUB SWAP1 RETURN JUMPDEST PUSH2 0x15C PUSH2 0x157 CALLDATASIZE PUSH1 0x4 PUSH2 0xC1C JUMP JUMPDEST PUSH2 0x38D JUMP JUMPDEST PUSH1 0x40 MLOAD SWAP1 ISZERO ISZERO DUP2 MSTORE PUSH1 0x20 ADD PUSH2 0x140 JUMP JUMPDEST PUSH1 0x2 SLOAD JUMPDEST PUSH1 0x40 MLOAD SWAP1 DUP2 MSTORE PUSH1 0x20 ADD PUSH2 0x140 JUMP JUMPDEST PUSH2 0x15C PUSH2 0x18C CALLDATASIZE PUSH1 0x4 PUSH2 0xC44 JUMP JUMPDEST PUSH2 0x3A6 JUMP JUMPDEST PUSH2 0x1A4 PUSH2 0x19F CALLDATASIZE PUSH1 0x4 PUSH2 0xC7E JUMP JUMPDEST PUSH2 0x3BA JUMP JUMPDEST STOP JUMPDEST PUSH1 0x40 MLOAD PUSH1 0xFF PUSH32 0x0 AND DUP2 MSTORE PUSH1 0x20 ADD PUSH2 0x140 JUMP JUMPDEST PUSH2 0x15C PUSH2 0x1E5 CALLDATASIZE PUSH1 0x4 PUSH2 0xC1C JUMP JUMPDEST PUSH2 0x3E9 JUMP JUMPDEST PUSH2 0x170 PUSH2 0x1F8 CALLDATASIZE PUSH1 0x4 PUSH2 0xCB7 JUMP JUMPDEST PUSH1 0x1 PUSH1 0x1 PUSH1 0xA0 SHL SUB AND PUSH0 SWAP1 DUP2 MSTORE PUSH1 0x20 DUP2 SWAP1 MSTORE PUSH1 0x40 SWAP1 KECCAK256 SLOAD SWAP1 JUMP JUMPDEST PUSH2 0x1A4 PUSH2 0x40A JUMP JUMPDEST PUSH1 0x8 SLOAD PUSH1 0x1 PUSH1 0x1 PUSH1 0xA0 SHL SUB AND JUMPDEST PUSH1 0x40 MLOAD PUSH1 0x1 PUSH1 0x1 PUSH1 0xA0 SHL SUB SWAP1 SWAP2 AND DUP2 MSTORE PUSH1 0x20 ADD PUSH2 0x140 JUMP JUMPDEST PUSH2 0x133 PUSH2 0x41D JUMP JUMPDEST PUSH2 0x1A4 PUSH2 0x255 CALLDATASIZE PUSH1 0x4 PUSH2 0xCB7 JUMP JUMPDEST PUSH2 0x42C JUMP JUMPDEST PUSH2 0x15C PUSH2 0x268 CALLDATASIZE PUSH1 0x4 PUSH2 0xC1C JUMP JUMPDEST PUSH2 0x440 JUMP JUMPDEST PUSH2 0x15C PUSH2 0x27B CALLDATASIZE PUSH1 0x4 PUSH2 0xC1C JUMP JUMPDEST PUSH2 0x4CA JUMP JUMPDEST PUSH2 0x1A4 PUSH2 0x28E CALLDATASIZE PUSH1 0x4 PUSH2 0xCD0 JUMP JUMPDEST PUSH2 0x4DC JUMP JUMPDEST PUSH1 0x6 SLOAD PUSH1 0x1 PUSH1 0x1 PUSH1 0xA0 SHL SUB AND PUSH2 0x227 JUMP JUMPDEST PUSH2 0x15C PUSH2 0x2B2 CALLDATASIZE PUSH1 0x4 PUSH2 0xCB7 JUMP JUMPDEST PUSH1 0x1 PUSH1 0x1 PUSH1 0xA0 SHL SUB AND PUSH0 SWAP1 DUP2 MSTORE PUSH1 0x7 PUSH1 0x20 MSTORE PUSH1 0x40 SWAP1 KECCAK256 SLOAD PUSH1 0xFF AND SWAP1 JUMP JUMPDEST PUSH1 0x5 SLOAD PUSH2 0x170 JUMP JUMPDEST PUSH2 0x170 PUSH2 0x2E5 CALLDATASIZE PUSH1 0x4 PUSH2 0xCE7 JUMP JUMPDEST PUSH2 0x4ED JUMP JUMPDEST PUSH2 0x1A4 PUSH2 0x2F8 CALLDATASIZE PUSH1 0x4 PUSH2 0xCB7 JUMP JUMPDEST PUSH2 0x517 JUMP JUMPDEST PUSH1 0x60 PUSH1 0x3 DUP1 SLOAD PUSH2 0x30C SWAP1 PUSH2 0xD18 JUMP JUMPDEST DUP1 PUSH1 0x1F ADD PUSH1 0x20 DUP1 SWAP2 DIV MUL PUSH1 0x20 ADD PUSH1 0x40 MLOAD SWAP1 DUP2 ADD PUSH1 0x40 MSTORE DUP1 SWAP3 SWAP2 SWAP1 DUP2 DUP2 MSTORE PUSH1 0x20 ADD DUP3 DUP1 SLOAD PUSH2 0x338 SWAP1 PUSH2 0xD18 JUMP JUMPDEST DUP1 ISZERO PUSH2 0x383 JUMPI DUP1 PUSH1 0x1F LT PUSH2 0x35A JUMPI PUSH2 0x100 DUP1 DUP4 SLOAD DIV MUL DUP4 MSTORE SWAP2 PUSH1 0x20 ADD SWAP2 PUSH2 0x383 JUMP JUMPDEST DUP3 ADD SWAP2 SWAP1 PUSH0 MSTORE PUSH1 0x20 PUSH0 KECCAK256 SWAP1 JUMPDEST DUP2 SLOAD DUP2 MSTORE SWAP1 PUSH1 0x1 ADD SWAP1 PUSH1 0x20 ADD DUP1 DUP4 GT PUSH2 0x366 JUMPI DUP3 SWAP1 SUB PUSH1 0x1F AND DUP3 ADD SWAP2 JUMPDEST POP POP POP POP POP SWAP1 POP SWAP1 JUMP JUMPDEST PUSH0 CALLER PUSH2 0x39A DUP2 DUP6 DUP6 PUSH2 0x58D JUMP JUMPDEST PUSH1 0x1 SWAP2 POP POP JUMPDEST SWAP3 SWAP2 POP POP JUMP JUMPDEST PUSH0 PUSH2 0x3B2 DUP5 DUP5 DUP5 PUSH2 0x6B0 JUMP JUMPDEST SWAP5 SWAP4 POP POP POP POP JUMP JUMPDEST PUSH2 0x3C2 PUSH2 0x75C JUMP JUMPDEST PUSH1 0x1 PUSH1 0x1 PUSH1 0xA0 SHL SUB DUP3 AND PUSH0 SWAP1 DUP2 MSTORE PUSH1 0x7 PUSH1 0x20 MSTORE PUSH1 0x40 SWAP1 KECCAK256 DUP1 SLOAD PUSH1 0xFF NOT AND DUP3 ISZERO ISZERO OR SWAP1 SSTORE POP POP JUMP JUMPDEST PUSH0 CALLER PUSH2 0x39A DUP2 DUP6 DUP6 PUSH2 0x3FB DUP4 DUP4 PUSH2 0x4ED JUMP JUMPDEST PUSH2 0x405 SWAP2 SWAP1 PUSH2 0xD64 JUMP JUMPDEST PUSH2 0x58D JUMP JUMPDEST PUSH2 0x412 PUSH2 0x75C JUMP JUMPDEST PUSH2 0x41B PUSH0 PUSH2 0x7B6 JUMP JUMPDEST JUMP JUMPDEST PUSH1 0x60 PUSH1 0x4 DUP1 SLOAD PUSH2 0x30C SWAP1 PUSH2 0xD18 JUMP JUMPDEST PUSH2 0x434 PUSH2 0x75C JUMP JUMPDEST PUSH2 0x43D DUP2 PUSH2 0x807 JUMP JUMPDEST POP JUMP JUMPDEST PUSH0 CALLER DUP2 PUSH2 0x44D DUP3 DUP7 PUSH2 0x4ED JUMP JUMPDEST SWAP1 POP DUP4 DUP2 LT ISZERO PUSH2 0x4B2 JUMPI PUSH1 0x40 MLOAD PUSH3 0x461BCD PUSH1 0xE5 SHL DUP2 MSTORE PUSH1 0x20 PUSH1 0x4 DUP3 ADD MSTORE PUSH1 0x25 PUSH1 0x24 DUP3 ADD MSTORE PUSH32 0x45524332303A2064656372656173656420616C6C6F77616E63652062656C6F77 PUSH1 0x44 DUP3 ADD MSTORE PUSH5 0x207A65726F PUSH1 0xD8 SHL PUSH1 0x64 DUP3 ADD MSTORE PUSH1 0x84 ADD JUMPDEST PUSH1 0x40 MLOAD DUP1 SWAP2 SUB SWAP1 REVERT JUMPDEST PUSH2 0x4BF DUP3 DUP7 DUP7 DUP5 SUB PUSH2 0x58D JUMP JUMPDEST POP PUSH1 0x1 SWAP5 SWAP4 POP POP POP POP JUMP JUMPDEST PUSH0 PUSH2 0x4D5 DUP4 DUP4 PUSH2 0x89C JUMP JUMPDEST SWAP4 SWAP3 POP POP POP JUMP JUMPDEST PUSH2 0x4E4 PUSH2 0x75C JUMP JUMPDEST PUSH2 0x43D DUP2 PUSH2 0x93F JUMP JUMPDEST PUSH1 0x1 PUSH1 0x1 PUSH1 0xA0 SHL SUB SWAP2 DUP3 AND PUSH0 SWAP1 DUP2 MSTORE PUSH1 0x1 PUSH1 0x20 SWAP1 DUP2 MSTORE PUSH1 0x40 DUP1 DUP4 KECCAK256 SWAP4 SWAP1 SWAP5 AND DUP3 MSTORE SWAP2 SWAP1 SWAP2 MSTORE KECCAK256 SLOAD SWAP1 JUMP JUMPDEST PUSH2 0x51F PUSH2 0x75C JUMP JUMPDEST PUSH1 0x1 PUSH1 0x1 PUSH1 0xA0 SHL SUB DUP2 AND PUSH2 0x584 JUMPI PUSH1 0x40 MLOAD PUSH3 0x461BCD PUSH1 0xE5 SHL DUP2 MSTORE PUSH1 0x20 PUSH1 0x4 DUP3 ADD MSTORE PUSH1 0x26 PUSH1 0x24 DUP3 ADD MSTORE PUSH32 0x4F776E61626C653A206E6577206F776E657220697320746865207A65726F2061 PUSH1 0x44 DUP3 ADD MSTORE PUSH6 0x646472657373 PUSH1 0xD0 SHL PUSH1 0x64 DUP3 ADD MSTORE PUSH1 0x84 ADD PUSH2 0x4A9 JUMP JUMPDEST PUSH2 0x43D DUP2 PUSH2 0x7B6 JUMP JUMPDEST PUSH1 0x1 PUSH1 0x1 PUSH1 0xA0 SHL SUB DUP4 AND PUSH2 0x5EF JUMPI PUSH1 0x40 MLOAD PUSH3 0x461BCD PUSH1 0xE5 SHL DUP2 MSTORE PUSH1 0x20 PUSH1 0x4 DUP3 ADD MSTORE PUSH1 0x24 DUP1 DUP3 ADD MSTORE PUSH32 0x45524332303A20617070726F76652066726F6D20746865207A65726F20616464 PUSH1 0x44 DUP3 ADD MSTORE PUSH4 0x72657373 PUSH1 0xE0 SHL PUSH1 0x64 DUP3 ADD MSTORE PUSH1 0x84 ADD PUSH2 0x4A9 JUMP JUMPDEST PUSH1 0x1 PUSH1 0x1 PUSH1 0xA0 SHL SUB DUP3 AND PUSH2 0x650 JUMPI PUSH1 0x40 MLOAD PUSH3 0x461BCD PUSH1 0xE5 SHL DUP2 MSTORE PUSH1 0x20 PUSH1 0x4 DUP3 ADD MSTORE PUSH1 0x22 PUSH1 0x24 DUP3 ADD MSTORE PUSH32 0x45524332303A20617070726F766520746F20746865207A65726F206164647265 PUSH1 0x44 DUP3 ADD MSTORE PUSH2 0x7373 PUSH1 0xF0 SHL PUSH1 0x64 DUP3 ADD MSTORE PUSH1 0x84 ADD PUSH2 0x4A9 JUMP JUMPDEST PUSH1 0x1 PUSH1 0x1 PUSH1 0xA0 SHL SUB DUP4 DUP2 AND PUSH0 DUP2 DUP2 MSTORE PUSH1 0x1 PUSH1 0x20 SWAP1 DUP2 MSTORE PUSH1 0x40 DUP1 DUP4 KECCAK256 SWAP5 DUP8 AND DUP1 DUP5 MSTORE SWAP5 DUP3 MSTORE SWAP2 DUP3 SWAP1 KECCAK256 DUP6 SWAP1 SSTORE SWAP1 MLOAD DUP5 DUP2 MSTORE PUSH32 0x8C5BE1E5EBEC7D5BD14F71427D1E84F3DD0314C0F7B2291E5B200AC8C7C3B925 SWAP2 ADD PUSH1 0x40 MLOAD DUP1 SWAP2 SUB SWAP1 LOG3 POP POP POP JUMP JUMPDEST PUSH0 CALLER PUSH2 0x6BD DUP6 DUP3 DUP6 PUSH2 0x9B2 JUMP JUMPDEST PUSH0 PUSH1 0x5 SLOAD GT DUP1 ISZERO PUSH2 0x708 JUMPI POP PUSH1 0x1 PUSH1 0x1 PUSH1 0xA0 SHL SUB DUP6 AND PUSH0 SWAP1 DUP2 MSTORE PUSH1 0x7 PUSH1 0x20 MSTORE PUSH1 0x40 SWAP1 KECCAK256 SLOAD PUSH1 0xFF AND DUP1 PUSH2 0x706 JUMPI POP PUSH1 0x1 PUSH1 0x1 PUSH1 0xA0 SHL SUB DUP5 AND PUSH0 SWAP1 DUP2 MSTORE PUSH1 0x7 PUSH1 0x20 MSTORE PUSH1 0x40 SWAP1 KECCAK256 SLOAD PUSH1 0xFF AND JUMPDEST ISZERO JUMPDEST ISZERO PUSH2 0x751 JUMPI PUSH0 PUSH2 0x3E8 PUSH1 0x5 SLOAD DUP6 PUSH2 0x71F SWAP2 SWAP1 PUSH2 0xD77 JUMP JUMPDEST PUSH2 0x729 SWAP2 SWAP1 PUSH2 0xD8E JUMP JUMPDEST SWAP1 POP DUP1 ISZERO PUSH2 0x74F JUMPI PUSH1 0x6 SLOAD PUSH2 0x749 SWAP1 DUP8 SWAP1 PUSH1 0x1 PUSH1 0x1 PUSH1 0xA0 SHL SUB AND DUP4 PUSH2 0xA2A JUMP JUMPDEST DUP1 DUP5 SUB SWAP4 POP JUMPDEST POP JUMPDEST PUSH2 0x4BF DUP6 DUP6 DUP6 PUSH2 0xA2A JUMP JUMPDEST PUSH1 0x8 SLOAD PUSH1 0x1 PUSH1 0x1 PUSH1 0xA0 SHL SUB AND CALLER EQ PUSH2 0x41B JUMPI PUSH1 0x40 MLOAD PUSH3 0x461BCD PUSH1 0xE5 SHL DUP2 MSTORE PUSH1 0x20 PUSH1 0x4 DUP3 ADD DUP2 SWAP1 MSTORE PUSH1 0x24 DUP3 ADD MSTORE PUSH32 0x4F776E61626C653A2063616C6C6572206973206E6F7420746865206F776E6572 PUSH1 0x44 DUP3 ADD MSTORE PUSH1 0x64 ADD PUSH2 0x4A9 JUMP JUMPDEST PUSH1 0x8 DUP1 SLOAD PUSH1 0x1 PUSH1 0x1 PUSH1 0xA0 SHL SUB DUP4 DUP2 AND PUSH1 0x1 PUSH1 0x1 PUSH1 0xA0 SHL SUB NOT DUP4 AND DUP2 OR SWAP1 SWAP4 SSTORE PUSH1 0x40 MLOAD SWAP2 AND SWAP2 SWAP1 DUP3 SWAP1 PUSH32 0x8BE0079C531659141344CD1FD0A4F28419497F9722A3DAAFE3B4186F6B6457E0 SWAP1 PUSH0 SWAP1 LOG3 POP POP JUMP JUMPDEST PUSH1 0x1 PUSH1 0x1 PUSH1 0xA0 SHL SUB DUP2 AND PUSH2 0x87A JUMPI PUSH1 0x40 MLOAD PUSH3 0x461BCD PUSH1 0xE5 SHL DUP2 MSTORE PUSH1 0x20 PUSH1 0x4 DUP3 ADD MSTORE PUSH1 0x34 PUSH1 0x24 DUP3 ADD MSTORE PUSH32 0x455243323054617861626C653A20746178416464726573735F2063616E6E6F74 PUSH1 0x44 DUP3 ADD MSTORE PUSH20 0x20626520746865207A65726F2061646472657373 PUSH1 0x60 SHL PUSH1 0x64 DUP3 ADD MSTORE PUSH1 0x84 ADD PUSH2 0x4A9 JUMP JUMPDEST PUSH1 0x6 DUP1 SLOAD PUSH1 0x1 PUSH1 0x1 PUSH1 0xA0 SHL SUB NOT AND PUSH1 0x1 PUSH1 0x1 PUSH1 0xA0 SHL SUB SWAP3 SWAP1 SWAP3 AND SWAP2 SWAP1 SWAP2 OR SWAP1 SSTORE JUMP JUMPDEST PUSH1 0x5 SLOAD PUSH0 SWAP1 CALLER SWAP1 ISZERO DUP1 ISZERO SWAP1 PUSH2 0x8EB JUMPI POP PUSH1 0x1 PUSH1 0x1 PUSH1 0xA0 SHL SUB DUP2 AND PUSH0 SWAP1 DUP2 MSTORE PUSH1 0x7 PUSH1 0x20 MSTORE PUSH1 0x40 SWAP1 KECCAK256 SLOAD PUSH1 0xFF AND DUP1 PUSH2 0x8E9 JUMPI POP PUSH1 0x1 PUSH1 0x1 PUSH1 0xA0 SHL SUB DUP5 AND PUSH0 SWAP1 DUP2 MSTORE PUSH1 0x7 PUSH1 0x20 MSTORE PUSH1 0x40 SWAP1 KECCAK256 SLOAD PUSH1 0xFF AND JUMPDEST ISZERO JUMPDEST ISZERO PUSH2 0x934 JUMPI PUSH0 PUSH2 0x3E8 PUSH1 0x5 SLOAD DUP6 PUSH2 0x902 SWAP2 SWAP1 PUSH2 0xD77 JUMP JUMPDEST PUSH2 0x90C SWAP2 SWAP1 PUSH2 0xD8E JUMP JUMPDEST SWAP1 POP DUP1 ISZERO PUSH2 0x932 JUMPI PUSH1 0x6 SLOAD PUSH2 0x92C SWAP1 DUP4 SWAP1 PUSH1 0x1 PUSH1 0x1 PUSH1 0xA0 SHL SUB AND DUP4 PUSH2 0xA2A JUMP JUMPDEST DUP1 DUP5 SUB SWAP4 POP JUMPDEST POP JUMPDEST PUSH2 0x39A DUP2 DUP6 DUP6 PUSH2 0xA2A JUMP JUMPDEST PUSH2 0x3E8 DUP2 LT PUSH2 0x9AD JUMPI PUSH1 0x40 MLOAD PUSH3 0x461BCD PUSH1 0xE5 SHL DUP2 MSTORE PUSH1 0x20 PUSH1 0x4 DUP3 ADD MSTORE PUSH1 0x34 PUSH1 0x24 DUP3 ADD MSTORE PUSH32 0x455243323054617861626C653A207461784665655065724D696C6C655F206D75 PUSH1 0x44 DUP3 ADD MSTORE PUSH20 0x7374206265206C657373207468616E203130303 PUSH1 0x64 SHL PUSH1 0x64 DUP3 ADD MSTORE PUSH1 0x84 ADD PUSH2 0x4A9 JUMP JUMPDEST PUSH1 0x5 SSTORE JUMP JUMPDEST PUSH0 PUSH2 0x9BD DUP5 DUP5 PUSH2 0x4ED JUMP JUMPDEST SWAP1 POP PUSH0 NOT DUP2 EQ PUSH2 0xA24 JUMPI DUP2 DUP2 LT ISZERO PUSH2 0xA17 JUMPI PUSH1 0x40 MLOAD PUSH3 0x461BCD PUSH1 0xE5 SHL DUP2 MSTORE PUSH1 0x20 PUSH1 0x4 DUP3 ADD MSTORE PUSH1 0x1D PUSH1 0x24 DUP3 ADD MSTORE PUSH32 0x45524332303A20696E73756666696369656E7420616C6C6F77616E6365000000 PUSH1 0x44 DUP3 ADD MSTORE PUSH1 0x64 ADD PUSH2 0x4A9 JUMP JUMPDEST PUSH2 0xA24 DUP5 DUP5 DUP5 DUP5 SUB PUSH2 0x58D JUMP JUMPDEST POP POP POP POP JUMP JUMPDEST PUSH1 0x1 PUSH1 0x1 PUSH1 0xA0 SHL SUB DUP4 AND PUSH2 0xA8E JUMPI PUSH1 0x40 MLOAD PUSH3 0x461BCD PUSH1 0xE5 SHL DUP2 MSTORE PUSH1 0x20 PUSH1 0x4 DUP3 ADD MSTORE PUSH1 0x25 PUSH1 0x24 DUP3 ADD MSTORE PUSH32 0x45524332303A207472616E736665722066726F6D20746865207A65726F206164 PUSH1 0x44 DUP3 ADD MSTORE PUSH5 0x6472657373 PUSH1 0xD8 SHL PUSH1 0x64 DUP3 ADD MSTORE PUSH1 0x84 ADD PUSH2 0x4A9 JUMP JUMPDEST PUSH1 0x1 PUSH1 0x1 PUSH1 0xA0 SHL SUB DUP3 AND PUSH2 0xAF0 JUMPI PUSH1 0x40 MLOAD PUSH3 0x461BCD PUSH1 0xE5 SHL DUP2 MSTORE PUSH1 0x20 PUSH1 0x4 DUP3 ADD MSTORE PUSH1 0x23 PUSH1 0x24 DUP3 ADD MSTORE PUSH32 0x45524332303A207472616E7366657220746F20746865207A65726F2061646472 PUSH1 0x44 DUP3 ADD MSTORE PUSH3 0x657373 PUSH1 0xE8 SHL PUSH1 0x64 DUP3 ADD MSTORE PUSH1 0x84 ADD PUSH2 0x4A9 JUMP JUMPDEST PUSH1 0x1 PUSH1 0x1 PUSH1 0xA0 SHL SUB DUP4 AND PUSH0 SWAP1 DUP2 MSTORE PUSH1 0x20 DUP2 SWAP1 MSTORE PUSH1 0x40 SWAP1 KECCAK256 SLOAD DUP2 DUP2 LT ISZERO PUSH2 0xB67 JUMPI PUSH1 0x40 MLOAD PUSH3 0x461BCD PUSH1 0xE5 SHL DUP2 MSTORE PUSH1 0x20 PUSH1 0x4 DUP3 ADD MSTORE PUSH1 0x26 PUSH1 0x24 DUP3 ADD MSTORE PUSH32 0x45524332303A207472616E7366657220616D6F756E7420657863656564732062 PUSH1 0x44 DUP3 ADD MSTORE PUSH6 0x616C616E6365 PUSH1 0xD0 SHL PUSH1 0x64 DUP3 ADD MSTORE PUSH1 0x84 ADD PUSH2 0x4A9 JUMP JUMPDEST PUSH1 0x1 PUSH1 0x1 PUSH1 0xA0 SHL SUB DUP5 DUP2 AND PUSH0 DUP2 DUP2 MSTORE PUSH1 0x20 DUP2 DUP2 MSTORE PUSH1 0x40 DUP1 DUP4 KECCAK256 DUP8 DUP8 SUB SWAP1 SSTORE SWAP4 DUP8 AND DUP1 DUP4 MSTORE SWAP2 DUP5 SWAP1 KECCAK256 DUP1 SLOAD DUP8 ADD SWAP1 SSTORE SWAP3 MLOAD DUP6 DUP2 MSTORE SWAP1 SWAP3 PUSH32 0xDDF252AD1BE2C89B69C2B068FC378DAA952BA7F163C4A11628F55A4DF523B3EF SWAP2 ADD PUSH1 0x40 MLOAD DUP1 SWAP2 SUB SWAP1 LOG3 PUSH2 0xA24 JUMP JUMPDEST PUSH1 0x20 DUP2 MSTORE PUSH0 DUP3 MLOAD DUP1 PUSH1 0x20 DUP5 ADD MSTORE DUP1 PUSH1 0x20 DUP6 ADD PUSH1 0x40 DUP6 ADD MCOPY PUSH0 PUSH1 0x40 DUP3 DUP6 ADD ADD MSTORE PUSH1 0x40 PUSH1 0x1F NOT PUSH1 0x1F DUP4 ADD AND DUP5 ADD ADD SWAP2 POP POP SWAP3 SWAP2 POP POP JUMP JUMPDEST DUP1 CALLDATALOAD PUSH1 0x1 PUSH1 0x1 PUSH1 0xA0 SHL SUB DUP2 AND DUP2 EQ PUSH2 0xC17 JUMPI PUSH0 DUP1 REVERT JUMPDEST SWAP2 SWAP1 POP JUMP JUMPDEST PUSH0 DUP1 PUSH1 0x40 DUP4 DUP6 SUB SLT ISZERO PUSH2 0xC2D JUMPI PUSH0 DUP1 REVERT JUMPDEST PUSH2 0xC36 DUP4 PUSH2 0xC01 JUMP JUMPDEST SWAP5 PUSH1 0x20 SWAP4 SWAP1 SWAP4 ADD CALLDATALOAD SWAP4 POP POP POP JUMP JUMPDEST PUSH0 DUP1 PUSH0 PUSH1 0x60 DUP5 DUP7 SUB SLT ISZERO PUSH2 0xC56 JUMPI PUSH0 DUP1 REVERT JUMPDEST PUSH2 0xC5F DUP5 PUSH2 0xC01 JUMP JUMPDEST SWAP3 POP PUSH2 0xC6D PUSH1 0x20 DUP6 ADD PUSH2 0xC01 JUMP JUMPDEST SWAP3 SWAP6 SWAP3 SWAP5 POP POP POP PUSH1 0x40 SWAP2 SWAP1 SWAP2 ADD CALLDATALOAD SWAP1 JUMP JUMPDEST PUSH0 DUP1 PUSH1 0x40 DUP4 DUP6 SUB SLT ISZERO PUSH2 0xC8F JUMPI PUSH0 DUP1 REVERT JUMPDEST PUSH2 0xC98 DUP4 PUSH2 0xC01 JUMP JUMPDEST SWAP2 POP PUSH1 0x20 DUP4 ADD CALLDATALOAD DUP1 ISZERO ISZERO DUP2 EQ PUSH2 0xCAC JUMPI PUSH0 DUP1 REVERT JUMPDEST DUP1 SWAP2 POP POP SWAP3 POP SWAP3 SWAP1 POP JUMP JUMPDEST PUSH0 PUSH1 0x20 DUP3 DUP5 SUB SLT ISZERO PUSH2 0xCC7 JUMPI PUSH0 DUP1 REVERT JUMPDEST PUSH2 0x4D5 DUP3 PUSH2 0xC01 JUMP JUMPDEST PUSH0 PUSH1 0x20 DUP3 DUP5 SUB SLT ISZERO PUSH2 0xCE0 JUMPI PUSH0 DUP1 REVERT JUMPDEST POP CALLDATALOAD SWAP2 SWAP1 POP JUMP JUMPDEST PUSH0 DUP1 PUSH1 0x40 DUP4 DUP6 SUB SLT ISZERO PUSH2 0xCF8 JUMPI PUSH0 DUP1 REVERT JUMPDEST PUSH2 0xD01 DUP4 PUSH2 0xC01 JUMP JUMPDEST SWAP2 POP PUSH2 0xD0F PUSH1 0x20 DUP5 ADD PUSH2 0xC01 JUMP JUMPDEST SWAP1 POP SWAP3 POP SWAP3 SWAP1 POP JUMP JUMPDEST PUSH1 0x1 DUP2 DUP2 SHR SWAP1 DUP3 AND DUP1 PUSH2 0xD2C JUMPI PUSH1 0x7F DUP3 AND SWAP2 POP JUMPDEST PUSH1 0x20 DUP3 LT DUP2 SUB PUSH2 0xD4A JUMPI PUSH4 0x4E487B71 PUSH1 0xE0 SHL PUSH0 MSTORE PUSH1 0x22 PUSH1 0x4 MSTORE PUSH1 0x24 PUSH0 REVERT JUMPDEST POP SWAP2 SWAP1 POP JUMP JUMPDEST PUSH4 0x4E487B71 PUSH1 0xE0 SHL PUSH0 MSTORE PUSH1 0x11 PUSH1 0x4 MSTORE PUSH1 0x24 PUSH0 REVERT JUMPDEST DUP1 DUP3 ADD DUP1 DUP3 GT ISZERO PUSH2 0x3A0 JUMPI PUSH2 0x3A0 PUSH2 0xD50 JUMP JUMPDEST DUP1 DUP3 MUL DUP2 ISZERO DUP3 DUP3 DIV DUP5 EQ OR PUSH2 0x3A0 JUMPI PUSH2 0x3A0 PUSH2 0xD50 JUMP JUMPDEST PUSH0 DUP3 PUSH2 0xDA8 JUMPI PUSH4 0x4E487B71 PUSH1 0xE0 SHL PUSH0 MSTORE PUSH1 0x12 PUSH1 0x4 MSTORE PUSH1 0x24 PUSH0 REVERT JUMPDEST POP DIV SWAP1 JUMP INVALID LOG2 PUSH5 0x6970667358 0x22 SLT KECCAK256 SLT PUSH6 0x9BE5DCBCB543 0xBB 0xD0 PUSH10 0xA8D4751A0DA57E397E95 0xF 0xBD PUSH6 0x807C6BDC821F 0xB5 0x28 PUSH5 0x736F6C6343 STOP ADDMOD BYTE STOP CALLER "
				},
				"gasEstimates": {
					"creation": {
						"codeDepositCost": "711000",
						"executionCost": "infinite",
						"totalCost": "infinite"
					},
					"external": {
						"allowance(address,address)": "infinite",
						"approve(address,uint256)": "24647",
						"balanceOf(address)": "2604",
						"decimals()": "infinite",
						"decreaseAllowance(address,uint256)": "27012",
						"increaseAllowance(address,uint256)": "infinite",
						"isExcludedFromTaxFee(address)": "2590",
						"name()": "infinite",
						"owner()": "2430",
						"renounceOwnership()": "infinite",
						"setExclusionFromTaxFee(address,bool)": "26956",
						"setTaxAddress(address)": "26842",
						"setTaxFeePerMille(uint256)": "24649",
						"symbol()": "infinite",
						"taxAddress()": "2352",
						"taxFeePerMille()": "2357",
						"totalSupply()": "2348",
						"transfer(address,uint256)": "infinite",
						"transferFrom(address,address,uint256)": "infinite",
						"transferOwnership(address)": "28443"
					}
				},
				"methodIdentifiers": {
					"allowance(address,address)": "dd62ed3e",
					"approve(address,uint256)": "095ea7b3",
					"balanceOf(address)": "70a08231",
					"decimals()": "313ce567",
					"decreaseAllowance(address,uint256)": "a457c2d7",
					"increaseAllowance(address,uint256)": "39509351",
					"isExcludedFromTaxFee(address)": "c283cd12",
					"name()": "06fdde03",
					"owner()": "8da5cb5b",
					"renounceOwnership()": "715018a6",
					"setExclusionFromTaxFee(address,bool)": "26789993",
					"setTaxAddress(address)": "a1883d26",
					"setTaxFeePerMille(uint256)": "b7600f7a",
					"symbol()": "95d89b41",
					"taxAddress()": "b7bda68f",
					"taxFeePerMille()": "c6d205fa",
					"totalSupply()": "18160ddd",
					"transfer(address,uint256)": "a9059cbb",
					"transferFrom(address,address,uint256)": "23b872dd",
					"transferOwnership(address)": "f2fde38b"
				}
			},
			"storageLayout": {
				"storage": [
					{
						"astId": 244,
						"contract": "0x7cec6f214afabc001b316c949d64cb0d0b18b652-TaxableERC20/TaxableERC20.sol:TaxableERC20",
						"label": "_balances",
						"offset": 0,
						"slot": "0",
						"type": "t_mapping(t_address,t_uint256)"
					},
					{
						"astId": 250,
						"contract": "0x7cec6f214afabc001b316c949d64cb0d0b18b652-TaxableERC20/TaxableERC20.sol:TaxableERC20",
						"label": "_allowances",
						"offset": 0,
						"slot": "1",
						"type": "t_mapping(t_address,t_mapping(t_address,t_uint256))"
					},
					{
						"astId": 252,
						"contract": "0x7cec6f214afabc001b316c949d64cb0d0b18b652-TaxableERC20/TaxableERC20.sol:TaxableERC20",
						"label": "_totalSupply",
						"offset": 0,
						"slot": "2",
						"type": "t_uint256"
					},
					{
						"astId": 254,
						"contract": "0x7cec6f214afabc001b316c949d64cb0d0b18b652-TaxableERC20/TaxableERC20.sol:TaxableERC20",
						"label": "_name",
						"offset": 0,
						"slot": "3",
						"type": "t_string_storage"
					},
					{
						"astId": 256,
						"contract": "0x7cec6f214afabc001b316c949d64cb0d0b18b652-TaxableERC20/TaxableERC20.sol:TaxableERC20",
						"label": "_symbol",
						"offset": 0,
						"slot": "4",
						"type": "t_string_storage"
					},
					{
						"astId": 848,
						"contract": "0x7cec6f214afabc001b316c949d64cb0d0b18b652-TaxableERC20/TaxableERC20.sol:TaxableERC20",
						"label": "_taxRate",
						"offset": 0,
						"slot": "5",
						"type": "t_uint256"
					},
					{
						"astId": 850,
						"contract": "0x7cec6f214afabc001b316c949d64cb0d0b18b652-TaxableERC20/TaxableERC20.sol:TaxableERC20",
						"label": "_taxAddress",
						"offset": 0,
						"slot": "6",
						"type": "t_address"
					},
					{
						"astId": 854,
						"contract": "0x7cec6f214afabc001b316c949d64cb0d0b18b652-TaxableERC20/TaxableERC20.sol:TaxableERC20",
						"label": "_isExcludedFromTaxFee",
						"offset": 0,
						"slot": "7",
						"type": "t_mapping(t_address,t_bool)"
					},
					{
						"astId": 27,
						"contract": "0x7cec6f214afabc001b316c949d64cb0d0b18b652-TaxableERC20/TaxableERC20.sol:TaxableERC20",
						"label": "_owner",
						"offset": 0,
						"slot": "8",
						"type": "t_address"
					}
				],
				"types": {
					"t_address": {
						"encoding": "inplace",
						"label": "address",
						"numberOfBytes": "20"
					},
					"t_bool": {
						"encoding": "inplace",
						"label": "bool",
						"numberOfBytes": "1"
					},
					"t_mapping(t_address,t_bool)": {
						"encoding": "mapping",
						"key": "t_address",
						"label": "mapping(address => bool)",
						"numberOfBytes": "32",
						"value": "t_bool"
					},
					"t_mapping(t_address,t_mapping(t_address,t_uint256))": {
						"encoding": "mapping",
						"key": "t_address",
						"label": "mapping(address => mapping(address => uint256))",
						"numberOfBytes": "32",
						"value": "t_mapping(t_address,t_uint256)"
					},
					"t_mapping(t_address,t_uint256)": {
						"encoding": "mapping",
						"key": "t_address",
						"label": "mapping(address => uint256)",
						"numberOfBytes": "32",
						"value": "t_uint256"
					},
					"t_string_storage": {
						"encoding": "bytes",
						"label": "string",
						"numberOfBytes": "32"
					},
					"t_uint256": {
						"encoding": "inplace",
						"label": "uint256",
						"numberOfBytes": "32"
					}
				}
			},
			"userdoc": {
				"kind": "user",
				"methods": {},
				"version": 1
			}
		}
	}
}