{
	"data": {
		"bytecode": {
			"linkReferences": {},
			"object": "61044e610034600b8282823980515f1a607314602857634e487b7160e01b5f525f60045260245ffd5b305f52607381538281f3fe730000000000000000000000000000000000000000301460806040526004361061006b575f3560e01c80633148f14f1461006f5780634ceda263146100a157806353df6e35146100c057806375baeb42146100f8578063d3dc2a0f1461010b578063fa6bcfec14610119575b5f80fd5b81801561007a575f80fd5b5061008e610089366004610298565b61012c565b6040519081526020015b60405180910390f35b8180156100ac575f80fd5b5061008e6100bb3660046102dc565b610174565b8180156100cb575f80fd5b506100df6100da36600461031b565b61019a565b60405167ffffffffffffffff9091168152602001610098565b61008e61010636600461035b565b6101d3565b6100df6603632c8eb5af3b81565b61008e610127366004610392565b610233565b5f60405160208152602080820152602060408201528460608201528360808201528260a082015260c05160208160c0845f60055f19f161016a575f80fd5b5195945050505050565b5f6101936001600160a01b038085169084166603632c8eb5af3b61012c565b9392505050565b5f67ffffffffffffffff80851690848116908481169084906101bd85858561012c565b6101c791906103d7565b98975050505050505050565b5f806101e0600f856103ea565b90505b815f0361022b576603632c8eb5af3b6101fc8685610233565b6102068787610233565b0a81610214576102146103c3565b06915060026001600160a01b0382160490506101e3565b509392505050565b5f8281610241600f856103ea565b90505b825f03610290576603632c8eb5af3b6001600160a01b038083168482160a16066001600160a01b031692506002816001600160a01b031681610288576102886103c3565b049050610244565b505092915050565b5f805f606084860312156102aa575f80fd5b505081359360208301359350604090920135919050565b80356001600160a01b03811681146102d7575f80fd5b919050565b5f80604083850312156102ed575f80fd5b6102f6836102c1565b946020939093013593505050565b803567ffffffffffffffff811681146102d7575f80fd5b5f805f6060848603121561032d575f80fd5b61033684610304565b925061034460208501610304565b915061035260408501610304565b90509250925092565b5f805f6060848603121561036d575f80fd5b610376846102c1565b9250610384602085016102c1565b9150610352604085016102c1565b5f80604083850312156103a3575f80fd5b6103ac836102c1565b91506103ba602084016102c1565b90509250929050565b634e487b7160e01b5f52601260045260245ffd5b5f826103e5576103e56103c3565b500690565b5f6001600160a01b03831680610402576104026103c3565b6001600160a01b0392909216919091049291505056fea264697066735822122099bc8d4ec726dfc97d63d1f3875e1dd1a298742d56ce07540ffeba63da1be2e264736f6c634300081a0033",
			"opcodes": "PUSH2 0x44E PUSH2 0x34 PUSH1 0xB DUP3 DUP3 DUP3 CODECOPY DUP1 MLOAD PUSH0 BYTE PUSH1 0x73 EQ PUSH1 0x28 JUMPI PUSH4 0x4E487B71 PUSH1 0xE0 SHL PUSH0 MSTORE PUSH0 PUSH1 0x4 MSTORE PUSH1 0x24 PUSH0 REVERT JUMPDEST ADDRESS PUSH0 MSTORE PUSH1 0x73 DUP2 MSTORE8 DUP3 DUP2 RETURN INVALID PUSH20 0x0 ADDRESS EQ PUSH1 0x80 PUSH1 0x40 MSTORE PUSH1 0x4 CALLDATASIZE LT PUSH2 0x6B JUMPI PUSH0 CALLDATALOAD PUSH1 0xE0 SHR DUP1 PUSH4 0x3148F14F EQ PUSH2 0x6F JUMPI DUP1 PUSH4 0x4CEDA263 EQ PUSH2 0xA1 JUMPI DUP1 PUSH4 0x53DF6E35 EQ PUSH2 0xC0 JUMPI DUP1 PUSH4 0x75BAEB42 EQ PUSH2 0xF8 JUMPI DUP1 PUSH4 0xD3DC2A0F EQ PUSH2 0x10B JUMPI DUP1 PUSH4 0xFA6BCFEC EQ PUSH2 0x119 JUMPI JUMPDEST PUSH0 DUP1 REVERT JUMPDEST DUP2 DUP1 ISZERO PUSH2 0x7A JUMPI PUSH0 DUP1 REVERT JUMPDEST POP PUSH2 0x8E PUSH2 0x89 CALLDATASIZE PUSH1 0x4 PUSH2 0x298 JUMP JUMPDEST PUSH2 0x12C JUMP JUMPDEST PUSH1 0x40 MLOAD SWAP1 DUP2 MSTORE PUSH1 0x20 ADD JUMPDEST PUSH1 0x40 MLOAD DUP1 SWAP2 SUB SWAP1 RETURN JUMPDEST DUP2 DUP1 ISZERO PUSH2 0xAC JUMPI PUSH0 DUP1 REVERT JUMPDEST POP PUSH2 0x8E PUSH2 0xBB CALLDATASIZE PUSH1 0x4 PUSH2 0x2DC JUMP JUMPDEST PUSH2 0x174 JUMP JUMPDEST DUP2 DUP1 ISZERO PUSH2 0xCB JUMPI PUSH0 DUP1 REVERT JUMPDEST POP PUSH2 0xDF PUSH2 0xDA CALLDATASIZE PUSH1 0x4 PUSH2 0x31B JUMP JUMPDEST PUSH2 0x19A JUMP JUMPDEST PUSH1 0x40 MLOAD PUSH8 0xFFFFFFFFFFFFFFFF SWAP1 SWAP2 AND DUP2 MSTORE PUSH1 0x20 ADD PUSH2 0x98 JUMP JUMPDEST PUSH2 0x8E PUSH2 0x106 CALLDATASIZE PUSH1 0x4 PUSH2 0x35B JUMP JUMPDEST PUSH2 0x1D3 JUMP JUMPDEST PUSH2 0xDF PUSH7 0x3632C8EB5AF3B DUP2 JUMP JUMPDEST PUSH2 0x8E PUSH2 0x127 CALLDATASIZE PUSH1 0x4 PUSH2 0x392 JUMP JUMPDEST PUSH2 0x233 JUMP JUMPDEST PUSH0 PUSH1 0x40 MLOAD PUSH1 0x20 DUP2 MSTORE PUSH1 0x20 DUP1 DUP3 ADD MSTORE PUSH1 0x20 PUSH1 0x40 DUP3 ADD MSTORE DUP5 PUSH1 0x60 DUP3 ADD MSTORE DUP4 PUSH1 0x80 DUP3 ADD MSTORE DUP3 PUSH1 0xA0 DUP3 ADD MSTORE PUSH1 0xC0 MLOAD PUSH1 0x20 DUP2 PUSH1 0xC0 DUP5 PUSH0 PUSH1 0x5 PUSH0 NOT CALL PUSH2 0x16A JUMPI PUSH0 DUP1 REVERT JUMPDEST MLOAD SWAP6 SWAP5 POP POP POP POP POP JUMP JUMPDEST PUSH0 PUSH2 0x193 PUSH1 0x1 PUSH1 0x1 PUSH1 0xA0 SHL SUB DUP1 DUP6 AND SWAP1 DUP5 AND PUSH7 0x3632C8EB5AF3B PUSH2 0x12C JUMP JUMPDEST SWAP4 SWAP3 POP POP POP JUMP JUMPDEST PUSH0 PUSH8 0xFFFFFFFFFFFFFFFF DUP1 DUP6 AND SWAP1 DUP5 DUP2 AND SWAP1 DUP5 DUP2 AND SWAP1 DUP5 SWAP1 PUSH2 0x1BD DUP6 DUP6 DUP6 PUSH2 0x12C JUMP JUMPDEST PUSH2 0x1C7 SWAP2 SWAP1 PUSH2 0x3D7 JUMP JUMPDEST SWAP9 SWAP8 POP POP POP POP POP POP POP POP JUMP JUMPDEST PUSH0 DUP1 PUSH2 0x1E0 PUSH1 0xF DUP6 PUSH2 0x3EA JUMP JUMPDEST SWAP1 POP JUMPDEST DUP2 PUSH0 SUB PUSH2 0x22B JUMPI PUSH7 0x3632C8EB5AF3B PUSH2 0x1FC DUP7 DUP6 PUSH2 0x233 JUMP JUMPDEST PUSH2 0x206 DUP8 DUP8 PUSH2 0x233 JUMP JUMPDEST EXP DUP2 PUSH2 0x214 JUMPI PUSH2 0x214 PUSH2 0x3C3 JUMP JUMPDEST MOD SWAP2 POP PUSH1 0x2 PUSH1 0x1 PUSH1 0x1 PUSH1 0xA0 SHL SUB DUP3 AND DIV SWAP1 POP PUSH2 0x1E3 JUMP JUMPDEST POP SWAP4 SWAP3 POP POP POP JUMP JUMPDEST PUSH0 DUP3 DUP2 PUSH2 0x241 PUSH1 0xF DUP6 PUSH2 0x3EA JUMP JUMPDEST SWAP1 POP JUMPDEST DUP3 PUSH0 SUB PUSH2 0x290 JUMPI PUSH7 0x3632C8EB5AF3B PUSH1 0x1 PUSH1 0x1 PUSH1 0xA0 SHL SUB DUP1 DUP4 AND DUP5 DUP3 AND EXP AND MOD PUSH1 0x1 PUSH1 0x1 PUSH1 0xA0 SHL SUB AND SWAP3 POP PUSH1 0x2 DUP2 PUSH1 0x1 PUSH1 0x1 PUSH1 0xA0 SHL SUB AND DUP2 PUSH2 0x288 JUMPI PUSH2 0x288 PUSH2 0x3C3 JUMP JUMPDEST DIV SWAP1 POP PUSH2 0x244 JUMP JUMPDEST POP POP SWAP3 SWAP2 POP POP JUMP JUMPDEST PUSH0 DUP1 PUSH0 PUSH1 0x60 DUP5 DUP7 SUB SLT ISZERO PUSH2 0x2AA JUMPI PUSH0 DUP1 REVERT JUMPDEST POP POP DUP2 CALLDATALOAD SWAP4 PUSH1 0x20 DUP4 ADD CALLDATALOAD SWAP4 POP PUSH1 0x40 SWAP1 SWAP3 ADD CALLDATALOAD SWAP2 SWAP1 POP JUMP JUMPDEST DUP1 CALLDATALOAD PUSH1 0x1 PUSH1 0x1 PUSH1 0xA0 SHL SUB DUP2 AND DUP2 EQ PUSH2 0x2D7 JUMPI PUSH0 DUP1 REVERT JUMPDEST SWAP2 SWAP1 POP JUMP JUMPDEST PUSH0 DUP1 PUSH1 0x40 DUP4 DUP6 SUB SLT ISZERO PUSH2 0x2ED JUMPI PUSH0 DUP1 REVERT JUMPDEST PUSH2 0x2F6 DUP4 PUSH2 0x2C1 JUMP JUMPDEST SWAP5 PUSH1 0x20 SWAP4 SWAP1 SWAP4 ADD CALLDATALOAD SWAP4 POP POP POP JUMP JUMPDEST DUP1 CALLDATALOAD PUSH8 0xFFFFFFFFFFFFFFFF DUP2 AND DUP2 EQ PUSH2 0x2D7 JUMPI PUSH0 DUP1 REVERT JUMPDEST PUSH0 DUP1 PUSH0 PUSH1 0x60 DUP5 DUP7 SUB SLT ISZERO PUSH2 0x32D JUMPI PUSH0 DUP1 REVERT JUMPDEST PUSH2 0x336 DUP5 PUSH2 0x304 JUMP JUMPDEST SWAP3 POP PUSH2 0x344 PUSH1 0x20 DUP6 ADD PUSH2 0x304 JUMP JUMPDEST SWAP2 POP PUSH2 0x352 PUSH1 0x40 DUP6 ADD PUSH2 0x304 JUMP JUMPDEST SWAP1 POP SWAP3 POP SWAP3 POP SWAP3 JUMP JUMPDEST PUSH0 DUP1 PUSH0 PUSH1 0x60 DUP5 DUP7 SUB SLT ISZERO PUSH2 0x36D JUMPI PUSH0 DUP1 REVERT JUMPDEST PUSH2 0x376 DUP5 PUSH2 0x2C1 JUMP JUMPDEST SWAP3 POP PUSH2 0x384 PUSH1 0x20 DUP6 ADD PUSH2 0x2C1 JUMP JUMPDEST SWAP2 POP PUSH2 0x352 PUSH1 0x40 DUP6 ADD PUSH2 0x2C1 JUMP JUMPDEST PUSH0 DUP1 PUSH1 0x40 DUP4 DUP6 SUB SLT ISZERO PUSH2 0x3A3 JUMPI PUSH0 DUP1 REVERT JUMPDEST PUSH2 0x3AC DUP4 PUSH2 0x2C1 JUMP JUMPDEST SWAP2 POP PUSH2 0x3BA PUSH1 0x20 DUP5 ADD PUSH2 0x2C1 JUMP JUMPDEST SWAP1 POP SWAP3 POP SWAP3 SWAP1 POP JUMP JUMPDEST PUSH4 0x4E487B71 PUSH1 0xE0 SHL PUSH0 MSTORE PUSH1 0x12 PUSH1 0x4 MSTORE PUSH1 0x24 PUSH0 REVERT JUMPDEST PUSH0 DUP3 PUSH2 0x3E5 JUMPI PUSH2 0x3E5 PUSH2 0x3C3 JUMP JUMPDEST POP MOD SWAP1 JUMP JUMPDEST PUSH0 PUSH1 0x1 PUSH1 0x1 PUSH1 0xA0 SHL SUB DUP4 AND DUP1 PUSH2 0x402 JUMPI PUSH2 0x402 PUSH2 0x3C3 JUMP JUMPDEST PUSH1 0x1 PUSH1 0x1 PUSH1 0xA0 SHL SUB SWAP3 SWAP1 SWAP3 AND SWAP2 SWAP1 SWAP2 DIV SWAP3 SWAP2 POP POP JUMP INVALID LOG2 PUSH5 0x6970667358 0x22 SLT KECCAK256 SWAP10 0xBC DUP14 0x4E 0xC7 0x26 0xDF 0xC9 PUSH30 0x63D1F3875E1DD1A298742D56CE07540FFEBA63DA1BE2E264736F6C634300 ADDMOD BYTE STOP CALLER "
		},
		"gasEstimates": {
			"creation": {
				"codeDepositCost": "220400",
				"executionCost": "290",
				"totalCost": "220690"
			},
			"external": {
				"MotzkinPrime()": "253",
				"hashWith(address,address)": "infinite",
				"hashWithD(address,address,address)": "infinite",
				"hashWithId(address,uint256)": "infinite",
				"modExp(uint256,uint256,uint256)": "infinite",
				"modExp64(uint64,uint64,uint64)": "infinite"
			}
		},
		"methodIdentifiers": {
			"MotzkinPrime()": "d3dc2a0f",
			"hashWith(address,address)": "fa6bcfec",
			"hashWithD(address,address,address)": "75baeb42",
			"hashWithId(address,uint256)": "4ceda263",
			"modExp(uint256,uint256,uint256)": "3148f14f",
			"modExp64(uint64,uint64,uint64)": "53df6e35"
		}
	},
	"abi": [
		{
			"inputs": [],
			"name": "MotzkinPrime",
			"outputs": [
				{
					"internalType": "uint64",
					"name": "",
					"type": "uint64"
				}
			],
			"stateMutability": "view",
			"type": "function"
		},
		{
			"inputs": [
				{
					"internalType": "address",
					"name": "a",
					"type": "address"
				},
				{
					"internalType": "address",
					"name": "b",
					"type": "address"
				}
			],
			"name": "hashWith",
			"outputs": [
				{
					"internalType": "uint256",
					"name": "hash",
					"type": "uint256"
				}
			],
			"stateMutability": "pure",
			"type": "function"
		},
		{
			"inputs": [
				{
					"internalType": "address",
					"name": "a",
					"type": "address"
				},
				{
					"internalType": "address",
					"name": "b",
					"type": "address"
				},
				{
					"internalType": "address",
					"name": "c",
					"type": "address"
				}
			],
			"name": "hashWithD",
			"outputs": [
				{
					"internalType": "uint256",
					"name": "hash",
					"type": "uint256"
				}
			],
			"stateMutability": "pure",
			"type": "function"
		}
	]
}