{
	"data": {
		"bytecode": {
			"linkReferences": {},
			"object": "6102ff610035600b8282823980515f1a60731461002957634e487b7160e01b5f525f60045260245ffd5b305f52607381538281f3fe730000000000000000000000000000000000000000301460806040526004361061004a575f3560e01c80633148f14f1461004e57806353df6e3514610080578063fa6bcfec146100b8575b5f80fd5b818015610059575f80fd5b5061006d6100683660046101b1565b6100cb565b6040519081526020015b60405180910390f35b81801561008b575f80fd5b5061009f61009a3660046101f6565b610113565b60405167ffffffffffffffff9091168152602001610077565b61006d6100c636600461024c565b61014c565b5f60405160208152602080820152602060408201528460608201528360808201528260a082015260c05160208160c0845f60055f19f1610109575f80fd5b5195945050505050565b5f67ffffffffffffffff80851690848116908481169084906101368585856100cb565b6101409190610291565b98975050505050505050565b5f828161015a600f856102a4565b90505b825f036101a9576603632c8eb5af3b6001600160a01b038083168482160a16066001600160a01b031692506002816001600160a01b0316816101a1576101a161027d565b04905061015d565b505092915050565b5f805f606084860312156101c3575f80fd5b505081359360208301359350604090920135919050565b803567ffffffffffffffff811681146101f1575f80fd5b919050565b5f805f60608486031215610208575f80fd5b610211846101da565b925061021f602085016101da565b915061022d604085016101da565b90509250925092565b80356001600160a01b03811681146101f1575f80fd5b5f806040838503121561025d575f80fd5b61026683610236565b915061027460208401610236565b90509250929050565b634e487b7160e01b5f52601260045260245ffd5b5f8261029f5761029f61027d565b500690565b5f6001600160a01b03838116806102bd576102bd61027d565b9216919091049291505056fea264697066735822122089653e783cd9fd51cf261c7e764ea0bb51084429ba9d4ba58cced5b544b9f85264736f6c63430008150033",
			"opcodes": "PUSH2 0x2FF PUSH2 0x35 PUSH1 0xB DUP3 DUP3 DUP3 CODECOPY DUP1 MLOAD PUSH0 BYTE PUSH1 0x73 EQ PUSH2 0x29 JUMPI PUSH4 0x4E487B71 PUSH1 0xE0 SHL PUSH0 MSTORE PUSH0 PUSH1 0x4 MSTORE PUSH1 0x24 PUSH0 REVERT JUMPDEST ADDRESS PUSH0 MSTORE PUSH1 0x73 DUP2 MSTORE8 DUP3 DUP2 RETURN INVALID PUSH20 0x0 ADDRESS EQ PUSH1 0x80 PUSH1 0x40 MSTORE PUSH1 0x4 CALLDATASIZE LT PUSH2 0x4A JUMPI PUSH0 CALLDATALOAD PUSH1 0xE0 SHR DUP1 PUSH4 0x3148F14F EQ PUSH2 0x4E JUMPI DUP1 PUSH4 0x53DF6E35 EQ PUSH2 0x80 JUMPI DUP1 PUSH4 0xFA6BCFEC EQ PUSH2 0xB8 JUMPI JUMPDEST PUSH0 DUP1 REVERT JUMPDEST DUP2 DUP1 ISZERO PUSH2 0x59 JUMPI PUSH0 DUP1 REVERT JUMPDEST POP PUSH2 0x6D PUSH2 0x68 CALLDATASIZE PUSH1 0x4 PUSH2 0x1B1 JUMP JUMPDEST PUSH2 0xCB JUMP JUMPDEST PUSH1 0x40 MLOAD SWAP1 DUP2 MSTORE PUSH1 0x20 ADD JUMPDEST PUSH1 0x40 MLOAD DUP1 SWAP2 SUB SWAP1 RETURN JUMPDEST DUP2 DUP1 ISZERO PUSH2 0x8B JUMPI PUSH0 DUP1 REVERT JUMPDEST POP PUSH2 0x9F PUSH2 0x9A CALLDATASIZE PUSH1 0x4 PUSH2 0x1F6 JUMP JUMPDEST PUSH2 0x113 JUMP JUMPDEST PUSH1 0x40 MLOAD PUSH8 0xFFFFFFFFFFFFFFFF SWAP1 SWAP2 AND DUP2 MSTORE PUSH1 0x20 ADD PUSH2 0x77 JUMP JUMPDEST PUSH2 0x6D PUSH2 0xC6 CALLDATASIZE PUSH1 0x4 PUSH2 0x24C JUMP JUMPDEST PUSH2 0x14C JUMP JUMPDEST PUSH0 PUSH1 0x40 MLOAD PUSH1 0x20 DUP2 MSTORE PUSH1 0x20 DUP1 DUP3 ADD MSTORE PUSH1 0x20 PUSH1 0x40 DUP3 ADD MSTORE DUP5 PUSH1 0x60 DUP3 ADD MSTORE DUP4 PUSH1 0x80 DUP3 ADD MSTORE DUP3 PUSH1 0xA0 DUP3 ADD MSTORE PUSH1 0xC0 MLOAD PUSH1 0x20 DUP2 PUSH1 0xC0 DUP5 PUSH0 PUSH1 0x5 PUSH0 NOT CALL PUSH2 0x109 JUMPI PUSH0 DUP1 REVERT JUMPDEST MLOAD SWAP6 SWAP5 POP POP POP POP POP JUMP JUMPDEST PUSH0 PUSH8 0xFFFFFFFFFFFFFFFF DUP1 DUP6 AND SWAP1 DUP5 DUP2 AND SWAP1 DUP5 DUP2 AND SWAP1 DUP5 SWAP1 PUSH2 0x136 DUP6 DUP6 DUP6 PUSH2 0xCB JUMP JUMPDEST PUSH2 0x140 SWAP2 SWAP1 PUSH2 0x291 JUMP JUMPDEST SWAP9 SWAP8 POP POP POP POP POP POP POP POP JUMP JUMPDEST PUSH0 DUP3 DUP2 PUSH2 0x15A PUSH1 0xF DUP6 PUSH2 0x2A4 JUMP JUMPDEST SWAP1 POP JUMPDEST DUP3 PUSH0 SUB PUSH2 0x1A9 JUMPI PUSH7 0x3632C8EB5AF3B PUSH1 0x1 PUSH1 0x1 PUSH1 0xA0 SHL SUB DUP1 DUP4 AND DUP5 DUP3 AND EXP AND MOD PUSH1 0x1 PUSH1 0x1 PUSH1 0xA0 SHL SUB AND SWAP3 POP PUSH1 0x2 DUP2 PUSH1 0x1 PUSH1 0x1 PUSH1 0xA0 SHL SUB AND DUP2 PUSH2 0x1A1 JUMPI PUSH2 0x1A1 PUSH2 0x27D JUMP JUMPDEST DIV SWAP1 POP PUSH2 0x15D JUMP JUMPDEST POP POP SWAP3 SWAP2 POP POP JUMP JUMPDEST PUSH0 DUP1 PUSH0 PUSH1 0x60 DUP5 DUP7 SUB SLT ISZERO PUSH2 0x1C3 JUMPI PUSH0 DUP1 REVERT JUMPDEST POP POP DUP2 CALLDATALOAD SWAP4 PUSH1 0x20 DUP4 ADD CALLDATALOAD SWAP4 POP PUSH1 0x40 SWAP1 SWAP3 ADD CALLDATALOAD SWAP2 SWAP1 POP JUMP JUMPDEST DUP1 CALLDATALOAD PUSH8 0xFFFFFFFFFFFFFFFF DUP2 AND DUP2 EQ PUSH2 0x1F1 JUMPI PUSH0 DUP1 REVERT JUMPDEST SWAP2 SWAP1 POP JUMP JUMPDEST PUSH0 DUP1 PUSH0 PUSH1 0x60 DUP5 DUP7 SUB SLT ISZERO PUSH2 0x208 JUMPI PUSH0 DUP1 REVERT JUMPDEST PUSH2 0x211 DUP5 PUSH2 0x1DA JUMP JUMPDEST SWAP3 POP PUSH2 0x21F PUSH1 0x20 DUP6 ADD PUSH2 0x1DA JUMP JUMPDEST SWAP2 POP PUSH2 0x22D PUSH1 0x40 DUP6 ADD PUSH2 0x1DA JUMP JUMPDEST SWAP1 POP SWAP3 POP SWAP3 POP SWAP3 JUMP JUMPDEST DUP1 CALLDATALOAD PUSH1 0x1 PUSH1 0x1 PUSH1 0xA0 SHL SUB DUP2 AND DUP2 EQ PUSH2 0x1F1 JUMPI PUSH0 DUP1 REVERT JUMPDEST PUSH0 DUP1 PUSH1 0x40 DUP4 DUP6 SUB SLT ISZERO PUSH2 0x25D JUMPI PUSH0 DUP1 REVERT JUMPDEST PUSH2 0x266 DUP4 PUSH2 0x236 JUMP JUMPDEST SWAP2 POP PUSH2 0x274 PUSH1 0x20 DUP5 ADD PUSH2 0x236 JUMP JUMPDEST SWAP1 POP SWAP3 POP SWAP3 SWAP1 POP JUMP JUMPDEST PUSH4 0x4E487B71 PUSH1 0xE0 SHL PUSH0 MSTORE PUSH1 0x12 PUSH1 0x4 MSTORE PUSH1 0x24 PUSH0 REVERT JUMPDEST PUSH0 DUP3 PUSH2 0x29F JUMPI PUSH2 0x29F PUSH2 0x27D JUMP JUMPDEST POP MOD SWAP1 JUMP JUMPDEST PUSH0 PUSH1 0x1 PUSH1 0x1 PUSH1 0xA0 SHL SUB DUP4 DUP2 AND DUP1 PUSH2 0x2BD JUMPI PUSH2 0x2BD PUSH2 0x27D JUMP JUMPDEST SWAP3 AND SWAP2 SWAP1 SWAP2 DIV SWAP3 SWAP2 POP POP JUMP INVALID LOG2 PUSH5 0x6970667358 0x22 SLT KECCAK256 DUP10 PUSH6 0x3E783CD9FD51 0xCF 0x26 SHR PUSH31 0x764EA0BB51084429BA9D4BA58CCED5B544B9F85264736F6C63430008150033 "
		},
		"gasEstimates": {
			"creation": {
				"codeDepositCost": "153400",
				"executionCost": "226",
				"totalCost": "153626"
			},
			"external": {
				"hashWith(address,address)": "infinite",
				"modExp(uint256,uint256,uint256)": "infinite",
				"modExp64(uint64,uint64,uint64)": "infinite"
			}
		},
		"methodIdentifiers": {
			"hashWith(address,address)": "fa6bcfec",
			"modExp(uint256,uint256,uint256)": "3148f14f",
			"modExp64(uint64,uint64,uint64)": "53df6e35"
		}
	},
	"abi": [
		{
			"inputs": [
				{
					"internalType": "address",
					"name": "a",
					"type": "address"
				},
				{
					"internalType": "address",
					"name": "b",
					"type": "address"
				}
			],
			"name": "hashWith",
			"outputs": [
				{
					"internalType": "uint256",
					"name": "hash",
					"type": "uint256"
				}
			],
			"stateMutability": "pure",
			"type": "function"
		}
	]
}