{
	"data": {
		"bytecode": {
			"linkReferences": {},
			"object": "610102610034600b8282823980515f1a607314602857634e487b7160e01b5f525f60045260245ffd5b305f52607381538281f3fe73000000000000000000000000000000000000000030146080604052600436106032575f3560e01c806336913318146036575b5f80fd5b604c60413660046060565b602001516005131590565b604051901515815260200160405180910390f35b5f60408284031280156070575f80fd5b506040805190810167ffffffffffffffff81118282101715609f57634e487b7160e01b5f52604160045260245ffd5b60405282356001600160a01b038116811460b7575f80fd5b8152602092830135928101929092525091905056fea26469706673582212207e967974cb2a686d295cfae66514dc5fce097c999619dc50e8ec4abd0b80317564736f6c634300081a0033",
			"opcodes": "PUSH2 0x102 PUSH2 0x34 PUSH1 0xB DUP3 DUP3 DUP3 CODECOPY DUP1 MLOAD PUSH0 BYTE PUSH1 0x73 EQ PUSH1 0x28 JUMPI PUSH4 0x4E487B71 PUSH1 0xE0 SHL PUSH0 MSTORE PUSH0 PUSH1 0x4 MSTORE PUSH1 0x24 PUSH0 REVERT JUMPDEST ADDRESS PUSH0 MSTORE PUSH1 0x73 DUP2 MSTORE8 DUP3 DUP2 RETURN INVALID PUSH20 0x0 ADDRESS EQ PUSH1 0x80 PUSH1 0x40 MSTORE PUSH1 0x4 CALLDATASIZE LT PUSH1 0x32 JUMPI PUSH0 CALLDATALOAD PUSH1 0xE0 SHR DUP1 PUSH4 0x36913318 EQ PUSH1 0x36 JUMPI JUMPDEST PUSH0 DUP1 REVERT JUMPDEST PUSH1 0x4C PUSH1 0x41 CALLDATASIZE PUSH1 0x4 PUSH1 0x60 JUMP JUMPDEST PUSH1 0x20 ADD MLOAD PUSH1 0x5 SGT ISZERO SWAP1 JUMP JUMPDEST PUSH1 0x40 MLOAD SWAP1 ISZERO ISZERO DUP2 MSTORE PUSH1 0x20 ADD PUSH1 0x40 MLOAD DUP1 SWAP2 SUB SWAP1 RETURN JUMPDEST PUSH0 PUSH1 0x40 DUP3 DUP5 SUB SLT DUP1 ISZERO PUSH1 0x70 JUMPI PUSH0 DUP1 REVERT JUMPDEST POP PUSH1 0x40 DUP1 MLOAD SWAP1 DUP2 ADD PUSH8 0xFFFFFFFFFFFFFFFF DUP2 GT DUP3 DUP3 LT OR ISZERO PUSH1 0x9F JUMPI PUSH4 0x4E487B71 PUSH1 0xE0 SHL PUSH0 MSTORE PUSH1 0x41 PUSH1 0x4 MSTORE PUSH1 0x24 PUSH0 REVERT JUMPDEST PUSH1 0x40 MSTORE DUP3 CALLDATALOAD PUSH1 0x1 PUSH1 0x1 PUSH1 0xA0 SHL SUB DUP2 AND DUP2 EQ PUSH1 0xB7 JUMPI PUSH0 DUP1 REVERT JUMPDEST DUP2 MSTORE PUSH1 0x20 SWAP3 DUP4 ADD CALLDATALOAD SWAP3 DUP2 ADD SWAP3 SWAP1 SWAP3 MSTORE POP SWAP2 SWAP1 POP JUMP INVALID LOG2 PUSH5 0x6970667358 0x22 SLT KECCAK256 PUSH31 0x967974CB2A686D295CFAE66514DC5FCE097C999619DC50E8EC4ABD0B803175 PUSH5 0x736F6C6343 STOP ADDMOD BYTE STOP CALLER "
		},
		"gasEstimates": {
			"creation": {
				"codeDepositCost": "51600",
				"executionCost": "132",
				"totalCost": "51732"
			},
			"external": {
				"PassedVote(ClassRegistry.ProposedClass)": "400"
			}
		},
		"methodIdentifiers": {
			"PassedVote(ClassRegistry.ProposedClass)": "36913318"
		}
	},
	"abi": [
		{
			"inputs": [
				{
					"components": [
						{
							"internalType": "address",
							"name": "classAddress",
							"type": "address"
						},
						{
							"internalType": "int256",
							"name": "votes",
							"type": "int256"
						}
					],
					"internalType": "struct ClassRegistry.ProposedClass",
					"name": "A",
					"type": "tuple"
				}
			],
			"name": "PassedVote",
			"outputs": [
				{
					"internalType": "bool",
					"name": "",
					"type": "bool"
				}
			],
			"stateMutability": "view",
			"type": "function"
		}
	]
}