{
	"data": {
		"bytecode": {
			"linkReferences": {
				"contracts/tester.sol": {
					"Conjecture": [
						{
							"length": 20,
							"start": 412
						},
						{
							"length": 20,
							"start": 566
						}
					],
					"Dynamic": [
						{
							"length": 20,
							"start": 680
						}
					],
					"atropaMath": [
						{
							"length": 20,
							"start": 4672
						},
						{
							"length": 20,
							"start": 4879
						},
						{
							"length": 20,
							"start": 5062
						},
						{
							"length": 20,
							"start": 5378
						},
						{
							"length": 20,
							"start": 5484
						},
						{
							"length": 20,
							"start": 14017
						},
						{
							"length": 20,
							"start": 14197
						},
						{
							"length": 20,
							"start": 14960
						}
					]
				}
			},
			"object": "608060405234801562000010575f80fd5b50336040518060400160405280601781526020017f52616e646f6d204e756d6265722047656e657261746f7200000000000000000081525060405180604001604052806003815260200162524e4760e81b81525081600390816200007591906200175d565b5060046200008482826200175d565b5050506001600160a01b038116620000b657604051631e4fbdf760e01b81525f60048201526024015b60405180910390fd5b620000c18162000f4f565b50601380546001600160a01b0319908116736b175474e89094c44da98b954eedeac495271d0f1790915560148054821673a0b86991c6218b36c1d19d4a2e9eb0ce3606eb4817905560158054821673dac17f958d2ee523a2206206994597c13d831ec7179055601680548216732fc636e7fdf9f3e8d61033103052079781a6e7d21790556017805490911673a2262d7728c689526693ae893d0fd8a352c7073c1790556040516339d431c360e01b8152660227025d8e13ca60048201526602ee53d1d08d2b60248201526601eea60f04790260448201525f9073__$3358b3f8171bfb494982fa1595af7f99ff$__906339d431c39060640161024060405180830381865af4158015620001d6573d5f803e3d5ffd5b505050506040513d601f19601f82011682018060405250810190620001fc919062001a22565b6040516339d431c360e01b8152660227025d8e13ca600482015266028246aec62b3d602482015265aac3dc86188860448201529091505f9073__$3358b3f8171bfb494982fa1595af7f99ff$__906339d431c39060640161024060405180830381865af415801562000270573d5f803e3d5ffd5b505050506040513d601f19601f8201168201806040525081019062000296919062001a22565b60405163332d390160e01b815290915073__$e2f684245cb475e3b4ef34c47cf39eb76c$__9063332d390190620002ef908590859066011dd325062a3990660110e309ee098490660256b4efa8c6ba9060040162001ba9565b61060060405180830381865af41580156200030c573d5f803e3d5ffd5b505050506040513d601f19601f8201168201806040525081019062000332919062001bf6565b60065f820151815f015f820151815f015f6101000a8154816001600160401b0302191690836001600160401b031602179055506020820151815f0160086101000a8154816001600160401b0302191690836001600160401b031602179055506040820151815f0160106101000a8154816001600160401b0302191690836001600160401b031602179055506060820151815f0160186101000a8154816001600160401b0302191690836001600160401b031602179055506080820151816001015f6101000a8154816001600160401b0302191690836001600160401b0316021790555060a08201518160010160086101000a8154816001600160401b0302191690836001600160401b0316021790555060c08201518160010160106101000a8154816001600160401b0302191690836001600160401b0316021790555060e08201518160010160186101000a8154816001600160401b0302191690836001600160401b03160217905550610100820151816002015f6101000a8154816001600160401b0302191690836001600160401b031602179055506101208201518160020160086101000a8154816001600160401b0302191690836001600160401b031602179055506101408201518160020160106101000a8154816001600160401b0302191690836001600160401b031602179055506101608201518160020160186101000a8154816001600160401b0302191690836001600160401b03160217905550610180820151816003015f6101000a8154816001600160401b0302191690836001600160401b031602179055506101a08201518160030160086101000a8154816001600160401b0302191690836001600160401b031602179055506101c08201518160030160106101000a8154816001600160401b0302191690836001600160401b031602179055506101e08201518160030160186101000a8154816001600160401b0302191690836001600160401b03160217905550610200820151816004015f6101000a8154816001600160401b0302191690836001600160401b031602179055506102208201518160040160086101000a81548160ff021916908360ff16021790555050506020820151816005015f820151815f015f6101000a8154816001600160401b0302191690836001600160401b031602179055506020820151815f0160086101000a8154816001600160401b0302191690836001600160401b031602179055506040820151815f0160106101000a8154816001600160401b0302191690836001600160401b031602179055506060820151815f0160186101000a8154816001600160401b0302191690836001600160401b031602179055506080820151816001015f6101000a8154816001600160401b0302191690836001600160401b0316021790555060a08201518160010160086101000a8154816001600160401b0302191690836001600160401b0316021790555060c08201518160010160106101000a8154816001600160401b0302191690836001600160401b0316021790555060e08201518160010160186101000a8154816001600160401b0302191690836001600160401b03160217905550610100820151816002015f6101000a8154816001600160401b0302191690836001600160401b031602179055506101208201518160020160086101000a8154816001600160401b0302191690836001600160401b031602179055506101408201518160020160106101000a8154816001600160401b0302191690836001600160401b031602179055506101608201518160020160186101000a8154816001600160401b0302191690836001600160401b03160217905550610180820151816003015f6101000a8154816001600160401b0302191690836001600160401b031602179055506101a08201518160030160086101000a8154816001600160401b0302191690836001600160401b031602179055506101c08201518160030160106101000a8154816001600160401b0302191690836001600160401b031602179055506101e08201518160030160186101000a8154816001600160401b0302191690836001600160401b03160217905550610200820151816004015f6101000a8154816001600160401b0302191690836001600160401b031602179055506102208201518160040160086101000a81548160ff021916908360ff1602179055505050604082015181600a015f6101000a8154816001600160401b0302191690836001600160401b03160217905550606082015181600a0160086101000a8154816001600160401b0302191690836001600160401b03160217905550608082015181600a0160106101000a8154816001600160401b0302191690836001600160401b0316021790555060a082015181600a0160186101000a8154816001600160401b0302191690836001600160401b0316021790555060c082015181600b015f6101000a8154816001600160401b0302191690836001600160401b0316021790555060e082015181600b0160086101000a8154816001600160401b0302191690836001600160401b0316021790555061010082015181600b0160106101000a8154816001600160401b0302191690836001600160401b0316021790555061012082015181600b0160186101000a8154816001600160401b0302191690836001600160401b0316021790555061014082015181600c015f6101000a8154816001600160401b0302191690836001600160401b0316021790555061016082015181600c0160086101000a8154816001600160401b0302191690836001600160401b0316021790555061018082015181600c0160106101000a8154816001600160401b0302191690836001600160401b031602179055506101a082015181600c0160186101000a81548160ff021916908360ff16021790555090505062000bc56006805f015f0160109054906101000a90046001600160401b031662000fa060201b60201c565b60115460046001600160401b039091161162000be55762000be562001d32565b62000bf1600662000ff4565b62000bfd600662001046565b62000c096006620010a2565b62000c156006620010f5565b62000c21600662001143565b60115462000c4290600690600160801b90046001600160401b0316620011fe565b600a5462000c5c906006906001600160401b0316620012c7565b600a5462000c76906006906001600160401b0316620012c7565b600a54600d5462000c97916006916001600160401b039182169116620012d7565b600a5460085462000cb891600b916001600160401b039182169116620012d7565b60118054600160801b600160c01b03198116600160c01b8083046001600160401b03908116600160801b9485900482161881169093029190911790925560095462000d0992600b92910416620011fe565b600f5462000d2390600b906001600160401b0316620012c7565b600f5462000d3d90600b906001600160401b0316620012c7565b600f546006805462000d63926001600160401b0390811691600160c01b900416620012d7565b600f54600b805462000d89926001600160401b0390811691600160c01b900416620012d7565b60095462000daa90600b90600160801b90046001600160401b0316620011fe565b600f5460118054600160801b600160c01b0319166001600160401b03928316600160801b908102919091179182905562000dec92600b929190910416620012c7565b600f54601180546001600160c01b03166001600160401b03928316600160c01b908102919091179182905562000e2a92600b929190910416620012c7565b600f54601280546001600160401b0319166001600160401b03928316908117909155600d5462000e5f92600b929116620012d7565b600e5460128054680100000000000000006001600160401b03600160c01b909404841602600160401b600160801b03198216811790925560085462000eb2936006938116928116929092179116620012d7565b60095460128054600160801b8082046001600160401b03908116600160c01b9586900482161881168202600160801b600160c01b03198085168217909555601180548481048416978104841697909718918316948316949094171816029290911691909117905562000f473062000f27601290565b62000f3490600a62001e55565b62000f4190600162001e65565b62001488565b505062001eb1565b600580546001600160a01b038381166001600160a01b0319831681179093556040519116919082907f8be0079c531659141344cd1fd0a4f28419497f9722a3daafe3b4186f6b6457e0905f90a35050565b806001600160401b03165f0362000fbb5762000fbb62001d32565b62000fca6005830182620014c0565b506009810154600b90910180546001600160401b0319166001600160401b03909216919091179055565b600b8101546200100f9082906001600160401b031662001525565b6004810154600b9091018054600160401b600160801b0319166001600160401b039092166801000000000000000002919091179055565b600b810154620010709060058301906801000000000000000090046001600160401b0316620011fe565b6009810154600b9091018054600160801b600160c01b0319166001600160401b03909216600160801b02919091179055565b600b810154620010c7906005830190600160801b90046001600160401b0316620012c7565b6009810154600b90910180546001600160c01b03166001600160401b03909216600160c01b02919091179055565b600b8101546200111a906005830190600160c01b90046001600160401b0316620012c7565b6009810154600c90910180546001600160401b0319166001600160401b03909216919091179055565b600c81015460058201546200116f9183916001600160401b0391821691600160c01b90910416620012d7565b600c81015481546200119b9160058401916001600160401b0391821691600160c01b90910416620012d7565b6008810154600c82018054600390930154600160401b600160c01b0319909316600160c01b928390046001600160401b039081166801000000000000000002600160801b600160c01b031916919091179290930492909216600160801b02179055565b600182015482546040516353df6e3560e01b81526001600160401b038085166004830152600160c01b938490048116602483015292909104909116604482015273__$40c8522fa779fa9e52854cf12871ab044f$__906353df6e35906064015b602060405180830381865af41580156200127a573d5f803e3d5ffd5b505050506040513d601f19601f82011682018060405250810190620012a0919062001e7f565b60049290920180546001600160401b0319166001600160401b039093169290921790915550565b620012d38282620011fe565b5050565b82546040516353df6e3560e01b81526001600160401b038085166004830152600160c01b90920482166024820152908216604482015273__$40c8522fa779fa9e52854cf12871ab044f$__906353df6e3590606401602060405180830381865af415801562001348573d5f803e3d5ffd5b505050506040513d601f19601f820116820180604052508101906200136e919062001e7f565b600384018054600160801b600160c01b031916600160801b6001600160401b039384160217905583546040516353df6e3560e01b815284831660048201528383166024820152600160c01b909104909116604482015273__$40c8522fa779fa9e52854cf12871ab044f$__906353df6e3590606401602060405180830381865af4158015620013ff573d5f803e3d5ffd5b505050506040513d601f19601f8201168201806040525081019062001425919062001e7f565b6003840180546001600160c01b0316600160c01b6001600160401b03938416021790819055600160801b900416158015906200147457506003830154600160c01b90046001600160401b031615155b62001483576200148362001d32565b505050565b6001600160a01b038216620014b35760405163ec442f0560e01b81525f6004820152602401620000ad565b620012d35f83836200158f565b60028201546040516353df6e3560e01b81526001600160401b03600160c01b8304811660048301528381166024830152600160801b909204909116604482015273__$40c8522fa779fa9e52854cf12871ab044f$__906353df6e35906064016200125e565b60028201546040516353df6e3560e01b81526001600160401b03808416600483015268010000000000000000830481166024830152600160801b909204909116604482015273__$40c8522fa779fa9e52854cf12871ab044f$__906353df6e35906064016200125e565b6001600160a01b038316620015bd578060025f828254620015b1919062001e9b565b909155506200162f9050565b6001600160a01b0383165f9081526020819052604090205481811015620016115760405163391434e360e21b81526001600160a01b03851660048201526024810182905260448101839052606401620000ad565b6001600160a01b0384165f9081526020819052604090209082900390555b6001600160a01b0382166200164d576002805482900390556200166b565b6001600160a01b0382165f9081526020819052604090208054820190555b816001600160a01b0316836001600160a01b03167fddf252ad1be2c89b69c2b068fc378daa952ba7f163c4a11628f55a4df523b3ef83604051620016b191815260200190565b60405180910390a3505050565b634e487b7160e01b5f52604160045260245ffd5b600181811c90821680620016e757607f821691505b6020821081036200170657634e487b7160e01b5f52602260045260245ffd5b50919050565b601f82111562001483575f81815260208120601f850160051c81016020861015620017345750805b601f850160051c820191505b81811015620017555782815560010162001740565b505050505050565b81516001600160401b03811115620017795762001779620016be565b62001791816200178a8454620016d2565b846200170c565b602080601f831160018114620017c7575f8415620017af5750858301515b5f19600386901b1c1916600185901b17855562001755565b5f85815260208120601f198616915b82811015620017f757888601518255948401946001909101908401620017d6565b50858210156200181557878501515f19600388901b60f8161c191681555b5050505050600190811b01905550565b60405161024081016001600160401b03811182821017156200184b576200184b620016be565b60405290565b6040516101c081016001600160401b03811182821017156200184b576200184b620016be565b80516001600160401b03811681146200188e575f80fd5b919050565b805160ff811681146200188e575f80fd5b5f6102408284031215620018b6575f80fd5b620018c062001825565b9050620018cd8262001877565b8152620018dd6020830162001877565b6020820152620018f06040830162001877565b6040820152620019036060830162001877565b6060820152620019166080830162001877565b60808201526200192960a0830162001877565b60a08201526200193c60c0830162001877565b60c08201526200194f60e0830162001877565b60e08201526101006200196481840162001877565b908201526101206200197883820162001877565b908201526101406200198c83820162001877565b90820152610160620019a083820162001877565b90820152610180620019b483820162001877565b908201526101a0620019c883820162001877565b908201526101c0620019dc83820162001877565b908201526101e0620019f083820162001877565b9082015261020062001a0483820162001877565b9082015261022062001a1883820162001893565b9082015292915050565b5f610240828403121562001a34575f80fd5b62001a408383620018a4565b9392505050565b80516001600160401b03168252602081015162001a6f60208401826001600160401b03169052565b50604081015162001a8b60408401826001600160401b03169052565b50606081015162001aa760608401826001600160401b03169052565b50608081015162001ac360808401826001600160401b03169052565b5060a081015162001adf60a08401826001600160401b03169052565b5060c081015162001afb60c08401826001600160401b03169052565b5060e081015162001b1760e08401826001600160401b03169052565b50610100818101516001600160401b0390811691840191909152610120808301518216908401526101408083015182169084015261016080830151821690840152610180808301518216908401526101a0808301518216908401526101c0808301518216908401526101e08083015182169084015261020080830151909116908301526102209081015160ff16910152565b6104e0810162001bba828862001a47565b62001bca61024083018762001a47565b6001600160401b039485166104808301529284166104a082015292166104c09092019190915292915050565b5f610600828403121562001c08575f80fd5b62001c1262001851565b62001c1e8484620018a4565b815262001c30846102408501620018a4565b602082015262001c44610480840162001877565b604082015262001c586104a0840162001877565b606082015262001c6c6104c0840162001877565b608082015262001c806104e0840162001877565b60a082015262001c94610500840162001877565b60c082015262001ca8610520840162001877565b60e082015262001cbc610540840162001877565b61010082015262001cd1610560840162001877565b61012082015262001ce6610580840162001877565b61014082015262001cfb6105a0840162001877565b61016082015262001d106105c0840162001877565b61018082015262001d256105e0840162001893565b6101a08201529392505050565b634e487b7160e01b5f52600160045260245ffd5b634e487b7160e01b5f52601160045260245ffd5b600181815b8085111562001d9a57815f190482111562001d7e5762001d7e62001d46565b8085161562001d8c57918102915b93841c939080029062001d5f565b509250929050565b5f8262001db25750600162001e4f565b8162001dc057505f62001e4f565b816001811462001dd9576002811462001de45762001e04565b600191505062001e4f565b60ff84111562001df85762001df862001d46565b50506001821b62001e4f565b5060208310610133831016604e8410600b841016171562001e29575081810a62001e4f565b62001e35838362001d5a565b805f190482111562001e4b5762001e4b62001d46565b0290505b92915050565b5f62001a4060ff84168362001da2565b808202811582820484141762001e4f5762001e4f62001d46565b5f6020828403121562001e90575f80fd5b62001a408262001877565b8082018082111562001e4f5762001e4f62001d46565b6123a38062001ebf5f395ff3fe608060405234801561000f575f80fd5b506004361061013d575f3560e01c806382bf4c54116100b4578063a5d16c2911610079578063a5d16c2914610270578063a9059cbb14610283578063d805b65014610296578063dd62ed3e146102b6578063f2fde38b146102c9578063fd2d8083146102dc575f80fd5b806382bf4c54146102215780638da5cb5b14610229578063919f53111461024257806395d89b41146102555780639f7574b51461025d575f80fd5b8063313ce56711610105578063313ce567146101bc57806342966c68146101cb57806370a08231146101e0578063715018a6146101f357806379cc6790146101fb5780637d1f22ba1461020e575f80fd5b806306fdde0314610141578063095ea7b31461015f5780631686f2651461018257806318160ddd1461019757806323b872dd146101a9575b5f80fd5b6101496102ef565b6040516101569190611d6c565b60405180910390f35b61017261016d366004611dd2565b61037f565b6040519015158152602001610156565b61018a610398565b6040516101569190611f5a565b6002545b604051908152602001610156565b6101726101b7366004612031565b610c61565b60405160128152602001610156565b6101de6101d936600461206a565b610c84565b005b61019b6101ee366004612081565b610c91565b6101de610cab565b6101de610209366004611dd2565b610cbe565b6101de61021c3660046120a1565b610cd7565b61019b610e67565b6005546001600160a01b031660405161015691906120c4565b6101de6102503660046120a1565b610e8c565b610149610fff565b6101de61026b3660046120a1565b61100e565b6101de61027e3660046120a1565b61117d565b610172610291366004611dd2565b6112e4565b61029e6112f1565b6040516001600160401b039091168152602001610156565b61019b6102c43660046120d8565b611497565b6101de6102d7366004612081565b6114c1565b6101de6102ea3660046120a1565b6114fb565b6060600380546102fe90612109565b80601f016020809104026020016040519081016040528092919081815260200182805461032a90612109565b80156103755780601f1061034c57610100808354040283529160200191610375565b820191905f5260205f20905b81548152906001019060200180831161035857829003601f168201915b5050505050905090565b5f3361038c81858561167b565b60019150505b92915050565b6103a0611c5a565b6006604051806101c00160405290815f8201604051806102400160405290815f82015f9054906101000a90046001600160401b03166001600160401b03166001600160401b031681526020015f820160089054906101000a90046001600160401b03166001600160401b03166001600160401b031681526020015f820160109054906101000a90046001600160401b03166001600160401b03166001600160401b031681526020015f820160189054906101000a90046001600160401b03166001600160401b03166001600160401b03168152602001600182015f9054906101000a90046001600160401b03166001600160401b03166001600160401b031681526020016001820160089054906101000a90046001600160401b03166001600160401b03166001600160401b031681526020016001820160109054906101000a90046001600160401b03166001600160401b03166001600160401b031681526020016001820160189054906101000a90046001600160401b03166001600160401b03166001600160401b03168152602001600282015f9054906101000a90046001600160401b03166001600160401b03166001600160401b031681526020016002820160089054906101000a90046001600160401b03166001600160401b03166001600160401b031681526020016002820160109054906101000a90046001600160401b03166001600160401b03166001600160401b031681526020016002820160189054906101000a90046001600160401b03166001600160401b03166001600160401b03168152602001600382015f9054906101000a90046001600160401b03166001600160401b03166001600160401b031681526020016003820160089054906101000a90046001600160401b03166001600160401b03166001600160401b031681526020016003820160109054906101000a90046001600160401b03166001600160401b03166001600160401b031681526020016003820160189054906101000a90046001600160401b03166001600160401b03166001600160401b03168152602001600482015f9054906101000a90046001600160401b03166001600160401b03166001600160401b031681526020016004820160089054906101000a900460ff1660ff1660ff1681525050815260200160058201604051806102400160405290815f82015f9054906101000a90046001600160401b03166001600160401b03166001600160401b031681526020015f820160089054906101000a90046001600160401b03166001600160401b03166001600160401b031681526020015f820160109054906101000a90046001600160401b03166001600160401b03166001600160401b031681526020015f820160189054906101000a90046001600160401b03166001600160401b03166001600160401b03168152602001600182015f9054906101000a90046001600160401b03166001600160401b03166001600160401b031681526020016001820160089054906101000a90046001600160401b03166001600160401b03166001600160401b031681526020016001820160109054906101000a90046001600160401b03166001600160401b03166001600160401b031681526020016001820160189054906101000a90046001600160401b03166001600160401b03166001600160401b03168152602001600282015f9054906101000a90046001600160401b03166001600160401b03166001600160401b031681526020016002820160089054906101000a90046001600160401b03166001600160401b03166001600160401b031681526020016002820160109054906101000a90046001600160401b03166001600160401b03166001600160401b031681526020016002820160189054906101000a90046001600160401b03166001600160401b03166001600160401b03168152602001600382015f9054906101000a90046001600160401b03166001600160401b03166001600160401b031681526020016003820160089054906101000a90046001600160401b03166001600160401b03166001600160401b031681526020016003820160109054906101000a90046001600160401b03166001600160401b03166001600160401b031681526020016003820160189054906101000a90046001600160401b03166001600160401b03166001600160401b03168152602001600482015f9054906101000a90046001600160401b03166001600160401b03166001600160401b031681526020016004820160089054906101000a900460ff1660ff1660ff16815250508152602001600a82015f9054906101000a90046001600160401b03166001600160401b03166001600160401b03168152602001600a820160089054906101000a90046001600160401b03166001600160401b03166001600160401b03168152602001600a820160109054906101000a90046001600160401b03166001600160401b03166001600160401b03168152602001600a820160189054906101000a90046001600160401b03166001600160401b03166001600160401b03168152602001600b82015f9054906101000a90046001600160401b03166001600160401b03166001600160401b03168152602001600b820160089054906101000a90046001600160401b03166001600160401b03166001600160401b03168152602001600b820160109054906101000a90046001600160401b03166001600160401b03166001600160401b03168152602001600b820160189054906101000a90046001600160401b03166001600160401b03166001600160401b03168152602001600c82015f9054906101000a90046001600160401b03166001600160401b03166001600160401b03168152602001600c820160089054906101000a90046001600160401b03166001600160401b03166001600160401b03168152602001600c820160109054906101000a90046001600160401b03166001600160401b03166001600160401b03168152602001600c820160189054906101000a900460ff1660ff1660ff1681525050905090565b5f33610c6e858285611688565b610c798585856116d8565b506001949350505050565b610c8e3382611735565b50565b6001600160a01b03165f9081526020819052604090205490565b610cb3611769565b610cbc5f611796565b565b610cc9823383611688565b610cd38282611735565b5050565b610ce36012600a612235565b610cf39063ffffffff8316612243565b610cfc30610c91565b1015610d0a57610d0a61225a565b6013546040805163313ce56760e01b815290515f926001600160a01b0316916323b872dd9133913091859163313ce5679160048083019260209291908290030181865afa158015610d5d573d5f803e3d5ffd5b505050506040513d601f19601f82011682018060405250810190610d81919061226e565b610d8c90600a612235565b610d9c9063ffffffff8816612243565b6040518463ffffffff1660e01b8152600401610dba9392919061228e565b6020604051808303815f875af1158015610dd6573d5f803e3d5ffd5b505050506040513d601f19601f82011682018060405250810190610dfa91906122b2565b905080610e425760405162461bcd60e51b81526020600482015260116024820152704e65656420417070726f7665642044414960781b60448201526064015b60405180910390fd5b610e6233610e526012600a612235565b6102919063ffffffff8616612243565b505050565b5f610e746012600a612235565b610e7d30610c91565b610e8791906122d1565b905090565b610e986012600a612235565b610ea89063ffffffff8316612243565b610eb130610c91565b1015610ebf57610ebf61225a565b6016546040805163313ce56760e01b815290515f926001600160a01b0316916323b872dd9133913091600491869163313ce5679180850191602091819003860181865afa158015610f12573d5f803e3d5ffd5b505050506040513d601f19601f82011682018060405250810190610f36919061226e565b610f4190600a612235565b610f519063ffffffff8916612243565b610f5b91906122d1565b6040518463ffffffff1660e01b8152600401610f799392919061228e565b6020604051808303815f875af1158015610f95573d5f803e3d5ffd5b505050506040513d601f19601f82011682018060405250810190610fb991906122b2565b905080610e425760405162461bcd60e51b81526020600482015260146024820152734e65656420417070726f7665642047696d6d653560601b6044820152606401610e39565b6060600480546102fe90612109565b61101a6012600a612235565b61102a9063ffffffff8316612243565b61103330610c91565b10156110415761104161225a565b6015546014546040805163313ce56760e01b815290515f936001600160a01b03908116936323b872dd93339330939092169163313ce567916004808201926020929091908290030181865afa15801561109c573d5f803e3d5ffd5b505050506040513d601f19601f820116820180604052508101906110c0919061226e565b6110cb90600a612235565b6110db9063ffffffff8816612243565b6040518463ffffffff1660e01b81526004016110f99392919061228e565b6020604051808303815f875af1158015611115573d5f803e3d5ffd5b505050506040513d601f19601f8201168201806040525081019061113991906122b2565b905080610e425760405162461bcd60e51b81526020600482015260126024820152711399595908105c1c1c9bdd9959081554d11560721b6044820152606401610e39565b6111896012600a612235565b6111999063ffffffff8316612243565b6111a230610c91565b10156111b0576111b061225a565b6014546040805163313ce56760e01b815290515f926001600160a01b0316916323b872dd9133913091859163313ce5679160048083019260209291908290030181865afa158015611203573d5f803e3d5ffd5b505050506040513d601f19601f82011682018060405250810190611227919061226e565b61123290600a612235565b6112429063ffffffff8816612243565b6040518463ffffffff1660e01b81526004016112609392919061228e565b6020604051808303815f875af115801561127c573d5f803e3d5ffd5b505050506040513d601f19601f820116820180604052508101906112a091906122b2565b905080610e425760405162461bcd60e51b81526020600482015260126024820152714e65656420417070726f766564205553444360701b6044820152606401610e39565b5f3361038c8185856116d8565b6011545f9061131290600b90600160801b90046001600160401b03166117e7565b600f54601180546001600160c01b03166001600160401b03928316600160c01b908102919091179182905561134e92600b9291909104166117e7565b600f546012805467ffffffffffffffff19166001600160401b03928316908117909155600d5461138292600b9291166117f1565b600e5460128054600160401b6001600160401b03600160c01b90940484160267ffffffffffffffff60401b19821681179092556008546113cf9360069381169281169290921791166117f1565b60095460128054600160801b8082046001600160401b03908116600160c01b958690048216188116820267ffffffffffffffff60801b198085168217909555601180548481048416978104841697909718918316948316949094171816029290911691909117905561143f601290565b61144a90600a612235565b6114589063423a35c7612243565b6002541161148057611480306114706012600a612235565b61147b906001612243565b611982565b50601154600160801b90046001600160401b031690565b6001600160a01b039182165f90815260016020908152604080832093909416825291909152205490565b6114c9611769565b6001600160a01b0381166114f2575f604051631e4fbdf760e01b8152600401610e3991906120c4565b610c8e81611796565b6115076012600a612235565b6115179063ffffffff8316612243565b61152030610c91565b101561152e5761152e61225a565b6017546040805163313ce56760e01b815290515f926001600160a01b0316916323b872dd913391309160d491869163313ce567916004808201926020929091908290030181865afa158015611585573d5f803e3d5ffd5b505050506040513d601f19601f820116820180604052508101906115a9919061226e565b6115b490600a612235565b6115c49063ffffffff8916612243565b6115ce91906122d1565b6040518463ffffffff1660e01b81526004016115ec9392919061228e565b6020604051808303815f875af1158015611608573d5f803e3d5ffd5b505050506040513d601f19601f8201168201806040525081019061162c91906122b2565b905080610e425760405162461bcd60e51b815260206004820152601b60248201527f4e65656420417070726f7665642070494e444550454e44454e434500000000006044820152606401610e39565b610e6283838360016119b6565b5f6116938484611497565b90505f1981146116d257818110156116c457828183604051637dc7a0d960e11b8152600401610e39939291906122f0565b6116d284848484035f6119b6565b50505050565b6001600160a01b038316611701575f604051634b637e8f60e11b8152600401610e3991906120c4565b6001600160a01b03821661172a575f60405163ec442f0560e01b8152600401610e3991906120c4565b610e62838383611a88565b6001600160a01b03821661175e575f604051634b637e8f60e11b8152600401610e3991906120c4565b610cd3825f83611a88565b6005546001600160a01b03163314610cbc573360405163118cdaa760e01b8152600401610e3991906120c4565b600580546001600160a01b038381166001600160a01b0319831681179093556040519116919082907f8be0079c531659141344cd1fd0a4f28419497f9722a3daafe3b4186f6b6457e0905f90a35050565b610cd38282611b9b565b82546040516353df6e3560e01b815273__$40c8522fa779fa9e52854cf12871ab044f$__916353df6e359161183e918691600160c01b9091046001600160401b0316908690600401612311565b602060405180830381865af4158015611859573d5f803e3d5ffd5b505050506040513d601f19601f8201168201806040525081019061187d9190612334565b60038401805467ffffffffffffffff60801b1916600160801b6001600160401b039384160217905583546040516353df6e3560e01b815273__$40c8522fa779fa9e52854cf12871ab044f$__926353df6e35926118e99287928792600160c01b90041690600401612311565b602060405180830381865af4158015611904573d5f803e3d5ffd5b505050506040513d601f19601f820116820180604052508101906119289190612334565b6003840180546001600160c01b0316600160c01b6001600160401b03938416021790819055600160801b9004161580159061197657506003830154600160c01b90046001600160401b031615155b610e6257610e6261225a565b6001600160a01b0382166119ab575f60405163ec442f0560e01b8152600401610e3991906120c4565b610cd35f8383611a88565b6001600160a01b0384166119df575f60405163e602df0560e01b8152600401610e3991906120c4565b6001600160a01b038316611a08575f604051634a1406b160e11b8152600401610e3991906120c4565b6001600160a01b038085165f90815260016020908152604080832093871683529290522082905580156116d257826001600160a01b0316846001600160a01b03167f8c5be1e5ebec7d5bd14f71427d1e84f3dd0314c0f7b2291e5b200ac8c7c3b92584604051611a7a91815260200190565b60405180910390a350505050565b6001600160a01b038316611ab2578060025f828254611aa7919061235a565b90915550611b0f9050565b6001600160a01b0383165f9081526020819052604090205481811015611af15783818360405163391434e360e21b8152600401610e39939291906122f0565b6001600160a01b0384165f9081526020819052604090209082900390555b6001600160a01b038216611b2b57600280548290039055611b49565b6001600160a01b0382165f9081526020819052604090208054820190555b816001600160a01b0316836001600160a01b03167fddf252ad1be2c89b69c2b068fc378daa952ba7f163c4a11628f55a4df523b3ef83604051611b8e91815260200190565b60405180910390a3505050565b600182015482546040516353df6e3560e01b815273__$40c8522fa779fa9e52854cf12871ab044f$__926353df6e3592611bf39286926001600160401b03600160c01b91829004811693919091041690600401612311565b602060405180830381865af4158015611c0e573d5f803e3d5ffd5b505050506040513d601f19601f82011682018060405250810190611c329190612334565b600492909201805467ffffffffffffffff19166001600160401b039093169290921790915550565b604051806101c00160405280611c6e611cd9565b8152602001611c7b611cd9565b81525f6020820181905260408201819052606082018190526080820181905260a0820181905260c0820181905260e0820181905261010082018190526101208201819052610140820181905261016082018190526101809091015290565b60408051610240810182525f80825260208201819052918101829052606081018290526080810182905260a0810182905260c0810182905260e08101829052610100810182905261012081018290526101408101829052610160810182905261018081018290526101a081018290526101c081018290526101e08101829052610200810182905261022081019190915290565b5f6020808352835180828501525f5b81811015611d9757858101830151858201604001528201611d7b565b505f604082860101526040601f19601f8301168501019250505092915050565b80356001600160a01b0381168114611dcd575f80fd5b919050565b5f8060408385031215611de3575f80fd5b611dec83611db7565b946020939093013593505050565b80516001600160401b031682526020810151611e2160208401826001600160401b03169052565b506040810151611e3c60408401826001600160401b03169052565b506060810151611e5760608401826001600160401b03169052565b506080810151611e7260808401826001600160401b03169052565b5060a0810151611e8d60a08401826001600160401b03169052565b5060c0810151611ea860c08401826001600160401b03169052565b5060e0810151611ec360e08401826001600160401b03169052565b50610100818101516001600160401b0390811691840191909152610120808301518216908401526101408083015182169084015261016080830151821690840152610180808301518216908401526101a0808301518216908401526101c0808301518216908401526101e08083015182169084015261020080830151909116908301526102208082015160ff8116828501526116d2565b5f61060082019050611f6d828451611dfa565b6020830151611f80610240840182611dfa565b5060408301516001600160401b03908116610480840152606084015181166104a0840152608084015181166104c084015260a084015181166104e084015260c0840151811661050084015260e0840151811661052084015261010084015181166105408401526101208401518116610560840152610140840151811661058084015261016084015181166105a0840152610180840151166105c08301526101a09092015160ff166105e09091015290565b5f805f60608486031215612043575f80fd5b61204c84611db7565b925061205a60208501611db7565b9150604084013590509250925092565b5f6020828403121561207a575f80fd5b5035919050565b5f60208284031215612091575f80fd5b61209a82611db7565b9392505050565b5f602082840312156120b1575f80fd5b813563ffffffff8116811461209a575f80fd5b6001600160a01b0391909116815260200190565b5f80604083850312156120e9575f80fd5b6120f283611db7565b915061210060208401611db7565b90509250929050565b600181811c9082168061211d57607f821691505b60208210810361213b57634e487b7160e01b5f52602260045260245ffd5b50919050565b634e487b7160e01b5f52601160045260245ffd5b600181815b8085111561218f57815f190482111561217557612175612141565b8085161561218257918102915b93841c939080029061215a565b509250929050565b5f826121a557506001610392565b816121b157505f610392565b81600181146121c757600281146121d1576121ed565b6001915050610392565b60ff8411156121e2576121e2612141565b50506001821b610392565b5060208310610133831016604e8410600b8410161715612210575081810a610392565b61221a8383612155565b805f190482111561222d5761222d612141565b029392505050565b5f61209a60ff841683612197565b808202811582820484141761039257610392612141565b634e487b7160e01b5f52600160045260245ffd5b5f6020828403121561227e575f80fd5b815160ff8116811461209a575f80fd5b6001600160a01b039384168152919092166020820152604081019190915260600190565b5f602082840312156122c2575f80fd5b8151801515811461209a575f80fd5b5f826122eb57634e487b7160e01b5f52601260045260245ffd5b500490565b6001600160a01b039390931683526020830191909152604082015260600190565b6001600160401b0393841681529183166020830152909116604082015260600190565b5f60208284031215612344575f80fd5b81516001600160401b038116811461209a575f80fd5b808201808211156103925761039261214156fea2646970667358221220d702a19bb75e5dace9b0ec4c2c149d929b5bc6f14f7585a517d6031a8ffed3d464736f6c63430008150033",
			"opcodes": "PUSH1 0x80 PUSH1 0x40 MSTORE CALLVALUE DUP1 ISZERO PUSH3 0x10 JUMPI PUSH0 DUP1 REVERT JUMPDEST POP CALLER PUSH1 0x40 MLOAD DUP1 PUSH1 0x40 ADD PUSH1 0x40 MSTORE DUP1 PUSH1 0x17 DUP2 MSTORE PUSH1 0x20 ADD PUSH32 0x52616E646F6D204E756D6265722047656E657261746F72000000000000000000 DUP2 MSTORE POP PUSH1 0x40 MLOAD DUP1 PUSH1 0x40 ADD PUSH1 0x40 MSTORE DUP1 PUSH1 0x3 DUP2 MSTORE PUSH1 0x20 ADD PUSH3 0x524E47 PUSH1 0xE8 SHL DUP2 MSTORE POP DUP2 PUSH1 0x3 SWAP1 DUP2 PUSH3 0x75 SWAP2 SWAP1 PUSH3 0x175D JUMP JUMPDEST POP PUSH1 0x4 PUSH3 0x84 DUP3 DUP3 PUSH3 0x175D JUMP JUMPDEST POP POP POP PUSH1 0x1 PUSH1 0x1 PUSH1 0xA0 SHL SUB DUP2 AND PUSH3 0xB6 JUMPI PUSH1 0x40 MLOAD PUSH4 0x1E4FBDF7 PUSH1 0xE0 SHL DUP2 MSTORE PUSH0 PUSH1 0x4 DUP3 ADD MSTORE PUSH1 0x24 ADD JUMPDEST PUSH1 0x40 MLOAD DUP1 SWAP2 SUB SWAP1 REVERT JUMPDEST PUSH3 0xC1 DUP2 PUSH3 0xF4F JUMP JUMPDEST POP PUSH1 0x13 DUP1 SLOAD PUSH1 0x1 PUSH1 0x1 PUSH1 0xA0 SHL SUB NOT SWAP1 DUP2 AND PUSH20 0x6B175474E89094C44DA98B954EEDEAC495271D0F OR SWAP1 SWAP2 SSTORE PUSH1 0x14 DUP1 SLOAD DUP3 AND PUSH20 0xA0B86991C6218B36C1D19D4A2E9EB0CE3606EB48 OR SWAP1 SSTORE PUSH1 0x15 DUP1 SLOAD DUP3 AND PUSH20 0xDAC17F958D2EE523A2206206994597C13D831EC7 OR SWAP1 SSTORE PUSH1 0x16 DUP1 SLOAD DUP3 AND PUSH20 0x2FC636E7FDF9F3E8D61033103052079781A6E7D2 OR SWAP1 SSTORE PUSH1 0x17 DUP1 SLOAD SWAP1 SWAP2 AND PUSH20 0xA2262D7728C689526693AE893D0FD8A352C7073C OR SWAP1 SSTORE PUSH1 0x40 MLOAD PUSH4 0x39D431C3 PUSH1 0xE0 SHL DUP2 MSTORE PUSH7 0x227025D8E13CA PUSH1 0x4 DUP3 ADD MSTORE PUSH7 0x2EE53D1D08D2B PUSH1 0x24 DUP3 ADD MSTORE PUSH7 0x1EEA60F047902 PUSH1 0x44 DUP3 ADD MSTORE PUSH0 SWAP1 PUSH20 0x0 SWAP1 PUSH4 0x39D431C3 SWAP1 PUSH1 0x64 ADD PUSH2 0x240 PUSH1 0x40 MLOAD DUP1 DUP4 SUB DUP2 DUP7 GAS DELEGATECALL ISZERO DUP1 ISZERO PUSH3 0x1D6 JUMPI RETURNDATASIZE PUSH0 DUP1 RETURNDATACOPY RETURNDATASIZE PUSH0 REVERT JUMPDEST POP POP POP POP PUSH1 0x40 MLOAD RETURNDATASIZE PUSH1 0x1F NOT PUSH1 0x1F DUP3 ADD AND DUP3 ADD DUP1 PUSH1 0x40 MSTORE POP DUP2 ADD SWAP1 PUSH3 0x1FC SWAP2 SWAP1 PUSH3 0x1A22 JUMP JUMPDEST PUSH1 0x40 MLOAD PUSH4 0x39D431C3 PUSH1 0xE0 SHL DUP2 MSTORE PUSH7 0x227025D8E13CA PUSH1 0x4 DUP3 ADD MSTORE PUSH7 0x28246AEC62B3D PUSH1 0x24 DUP3 ADD MSTORE PUSH6 0xAAC3DC861888 PUSH1 0x44 DUP3 ADD MSTORE SWAP1 SWAP2 POP PUSH0 SWAP1 PUSH20 0x0 SWAP1 PUSH4 0x39D431C3 SWAP1 PUSH1 0x64 ADD PUSH2 0x240 PUSH1 0x40 MLOAD DUP1 DUP4 SUB DUP2 DUP7 GAS DELEGATECALL ISZERO DUP1 ISZERO PUSH3 0x270 JUMPI RETURNDATASIZE PUSH0 DUP1 RETURNDATACOPY RETURNDATASIZE PUSH0 REVERT JUMPDEST POP POP POP POP PUSH1 0x40 MLOAD RETURNDATASIZE PUSH1 0x1F NOT PUSH1 0x1F DUP3 ADD AND DUP3 ADD DUP1 PUSH1 0x40 MSTORE POP DUP2 ADD SWAP1 PUSH3 0x296 SWAP2 SWAP1 PUSH3 0x1A22 JUMP JUMPDEST PUSH1 0x40 MLOAD PUSH4 0x332D3901 PUSH1 0xE0 SHL DUP2 MSTORE SWAP1 SWAP2 POP PUSH20 0x0 SWAP1 PUSH4 0x332D3901 SWAP1 PUSH3 0x2EF SWAP1 DUP6 SWAP1 DUP6 SWAP1 PUSH7 0x11DD325062A39 SWAP1 PUSH7 0x110E309EE0984 SWAP1 PUSH7 0x256B4EFA8C6BA SWAP1 PUSH1 0x4 ADD PUSH3 0x1BA9 JUMP JUMPDEST PUSH2 0x600 PUSH1 0x40 MLOAD DUP1 DUP4 SUB DUP2 DUP7 GAS DELEGATECALL ISZERO DUP1 ISZERO PUSH3 0x30C JUMPI RETURNDATASIZE PUSH0 DUP1 RETURNDATACOPY RETURNDATASIZE PUSH0 REVERT JUMPDEST POP POP POP POP PUSH1 0x40 MLOAD RETURNDATASIZE PUSH1 0x1F NOT PUSH1 0x1F DUP3 ADD AND DUP3 ADD DUP1 PUSH1 0x40 MSTORE POP DUP2 ADD SWAP1 PUSH3 0x332 SWAP2 SWAP1 PUSH3 0x1BF6 JUMP JUMPDEST PUSH1 0x6 PUSH0 DUP3 ADD MLOAD DUP2 PUSH0 ADD PUSH0 DUP3 ADD MLOAD DUP2 PUSH0 ADD PUSH0 PUSH2 0x100 EXP DUP2 SLOAD DUP2 PUSH1 0x1 PUSH1 0x1 PUSH1 0x40 SHL SUB MUL NOT AND SWAP1 DUP4 PUSH1 0x1 PUSH1 0x1 PUSH1 0x40 SHL SUB AND MUL OR SWAP1 SSTORE POP PUSH1 0x20 DUP3 ADD MLOAD DUP2 PUSH0 ADD PUSH1 0x8 PUSH2 0x100 EXP DUP2 SLOAD DUP2 PUSH1 0x1 PUSH1 0x1 PUSH1 0x40 SHL SUB MUL NOT AND SWAP1 DUP4 PUSH1 0x1 PUSH1 0x1 PUSH1 0x40 SHL SUB AND MUL OR SWAP1 SSTORE POP PUSH1 0x40 DUP3 ADD MLOAD DUP2 PUSH0 ADD PUSH1 0x10 PUSH2 0x100 EXP DUP2 SLOAD DUP2 PUSH1 0x1 PUSH1 0x1 PUSH1 0x40 SHL SUB MUL NOT AND SWAP1 DUP4 PUSH1 0x1 PUSH1 0x1 PUSH1 0x40 SHL SUB AND MUL OR SWAP1 SSTORE POP PUSH1 0x60 DUP3 ADD MLOAD DUP2 PUSH0 ADD PUSH1 0x18 PUSH2 0x100 EXP DUP2 SLOAD DUP2 PUSH1 0x1 PUSH1 0x1 PUSH1 0x40 SHL SUB MUL NOT AND SWAP1 DUP4 PUSH1 0x1 PUSH1 0x1 PUSH1 0x40 SHL SUB AND MUL OR SWAP1 SSTORE POP PUSH1 0x80 DUP3 ADD MLOAD DUP2 PUSH1 0x1 ADD PUSH0 PUSH2 0x100 EXP DUP2 SLOAD DUP2 PUSH1 0x1 PUSH1 0x1 PUSH1 0x40 SHL SUB MUL NOT AND SWAP1 DUP4 PUSH1 0x1 PUSH1 0x1 PUSH1 0x40 SHL SUB AND MUL OR SWAP1 SSTORE POP PUSH1 0xA0 DUP3 ADD MLOAD DUP2 PUSH1 0x1 ADD PUSH1 0x8 PUSH2 0x100 EXP DUP2 SLOAD DUP2 PUSH1 0x1 PUSH1 0x1 PUSH1 0x40 SHL SUB MUL NOT AND SWAP1 DUP4 PUSH1 0x1 PUSH1 0x1 PUSH1 0x40 SHL SUB AND MUL OR SWAP1 SSTORE POP PUSH1 0xC0 DUP3 ADD MLOAD DUP2 PUSH1 0x1 ADD PUSH1 0x10 PUSH2 0x100 EXP DUP2 SLOAD DUP2 PUSH1 0x1 PUSH1 0x1 PUSH1 0x40 SHL SUB MUL NOT AND SWAP1 DUP4 PUSH1 0x1 PUSH1 0x1 PUSH1 0x40 SHL SUB AND MUL OR SWAP1 SSTORE POP PUSH1 0xE0 DUP3 ADD MLOAD DUP2 PUSH1 0x1 ADD PUSH1 0x18 PUSH2 0x100 EXP DUP2 SLOAD DUP2 PUSH1 0x1 PUSH1 0x1 PUSH1 0x40 SHL SUB MUL NOT AND SWAP1 DUP4 PUSH1 0x1 PUSH1 0x1 PUSH1 0x40 SHL SUB AND MUL OR SWAP1 SSTORE POP PUSH2 0x100 DUP3 ADD MLOAD DUP2 PUSH1 0x2 ADD PUSH0 PUSH2 0x100 EXP DUP2 SLOAD DUP2 PUSH1 0x1 PUSH1 0x1 PUSH1 0x40 SHL SUB MUL NOT AND SWAP1 DUP4 PUSH1 0x1 PUSH1 0x1 PUSH1 0x40 SHL SUB AND MUL OR SWAP1 SSTORE POP PUSH2 0x120 DUP3 ADD MLOAD DUP2 PUSH1 0x2 ADD PUSH1 0x8 PUSH2 0x100 EXP DUP2 SLOAD DUP2 PUSH1 0x1 PUSH1 0x1 PUSH1 0x40 SHL SUB MUL NOT AND SWAP1 DUP4 PUSH1 0x1 PUSH1 0x1 PUSH1 0x40 SHL SUB AND MUL OR SWAP1 SSTORE POP PUSH2 0x140 DUP3 ADD MLOAD DUP2 PUSH1 0x2 ADD PUSH1 0x10 PUSH2 0x100 EXP DUP2 SLOAD DUP2 PUSH1 0x1 PUSH1 0x1 PUSH1 0x40 SHL SUB MUL NOT AND SWAP1 DUP4 PUSH1 0x1 PUSH1 0x1 PUSH1 0x40 SHL SUB AND MUL OR SWAP1 SSTORE POP PUSH2 0x160 DUP3 ADD MLOAD DUP2 PUSH1 0x2 ADD PUSH1 0x18 PUSH2 0x100 EXP DUP2 SLOAD DUP2 PUSH1 0x1 PUSH1 0x1 PUSH1 0x40 SHL SUB MUL NOT AND SWAP1 DUP4 PUSH1 0x1 PUSH1 0x1 PUSH1 0x40 SHL SUB AND MUL OR SWAP1 SSTORE POP PUSH2 0x180 DUP3 ADD MLOAD DUP2 PUSH1 0x3 ADD PUSH0 PUSH2 0x100 EXP DUP2 SLOAD DUP2 PUSH1 0x1 PUSH1 0x1 PUSH1 0x40 SHL SUB MUL NOT AND SWAP1 DUP4 PUSH1 0x1 PUSH1 0x1 PUSH1 0x40 SHL SUB AND MUL OR SWAP1 SSTORE POP PUSH2 0x1A0 DUP3 ADD MLOAD DUP2 PUSH1 0x3 ADD PUSH1 0x8 PUSH2 0x100 EXP DUP2 SLOAD DUP2 PUSH1 0x1 PUSH1 0x1 PUSH1 0x40 SHL SUB MUL NOT AND SWAP1 DUP4 PUSH1 0x1 PUSH1 0x1 PUSH1 0x40 SHL SUB AND MUL OR SWAP1 SSTORE POP PUSH2 0x1C0 DUP3 ADD MLOAD DUP2 PUSH1 0x3 ADD PUSH1 0x10 PUSH2 0x100 EXP DUP2 SLOAD DUP2 PUSH1 0x1 PUSH1 0x1 PUSH1 0x40 SHL SUB MUL NOT AND SWAP1 DUP4 PUSH1 0x1 PUSH1 0x1 PUSH1 0x40 SHL SUB AND MUL OR SWAP1 SSTORE POP PUSH2 0x1E0 DUP3 ADD MLOAD DUP2 PUSH1 0x3 ADD PUSH1 0x18 PUSH2 0x100 EXP DUP2 SLOAD DUP2 PUSH1 0x1 PUSH1 0x1 PUSH1 0x40 SHL SUB MUL NOT AND SWAP1 DUP4 PUSH1 0x1 PUSH1 0x1 PUSH1 0x40 SHL SUB AND MUL OR SWAP1 SSTORE POP PUSH2 0x200 DUP3 ADD MLOAD DUP2 PUSH1 0x4 ADD PUSH0 PUSH2 0x100 EXP DUP2 SLOAD DUP2 PUSH1 0x1 PUSH1 0x1 PUSH1 0x40 SHL SUB MUL NOT AND SWAP1 DUP4 PUSH1 0x1 PUSH1 0x1 PUSH1 0x40 SHL SUB AND MUL OR SWAP1 SSTORE POP PUSH2 0x220 DUP3 ADD MLOAD DUP2 PUSH1 0x4 ADD PUSH1 0x8 PUSH2 0x100 EXP DUP2 SLOAD DUP2 PUSH1 0xFF MUL NOT AND SWAP1 DUP4 PUSH1 0xFF AND MUL OR SWAP1 SSTORE POP POP POP PUSH1 0x20 DUP3 ADD MLOAD DUP2 PUSH1 0x5 ADD PUSH0 DUP3 ADD MLOAD DUP2 PUSH0 ADD PUSH0 PUSH2 0x100 EXP DUP2 SLOAD DUP2 PUSH1 0x1 PUSH1 0x1 PUSH1 0x40 SHL SUB MUL NOT AND SWAP1 DUP4 PUSH1 0x1 PUSH1 0x1 PUSH1 0x40 SHL SUB AND MUL OR SWAP1 SSTORE POP PUSH1 0x20 DUP3 ADD MLOAD DUP2 PUSH0 ADD PUSH1 0x8 PUSH2 0x100 EXP DUP2 SLOAD DUP2 PUSH1 0x1 PUSH1 0x1 PUSH1 0x40 SHL SUB MUL NOT AND SWAP1 DUP4 PUSH1 0x1 PUSH1 0x1 PUSH1 0x40 SHL SUB AND MUL OR SWAP1 SSTORE POP PUSH1 0x40 DUP3 ADD MLOAD DUP2 PUSH0 ADD PUSH1 0x10 PUSH2 0x100 EXP DUP2 SLOAD DUP2 PUSH1 0x1 PUSH1 0x1 PUSH1 0x40 SHL SUB MUL NOT AND SWAP1 DUP4 PUSH1 0x1 PUSH1 0x1 PUSH1 0x40 SHL SUB AND MUL OR SWAP1 SSTORE POP PUSH1 0x60 DUP3 ADD MLOAD DUP2 PUSH0 ADD PUSH1 0x18 PUSH2 0x100 EXP DUP2 SLOAD DUP2 PUSH1 0x1 PUSH1 0x1 PUSH1 0x40 SHL SUB MUL NOT AND SWAP1 DUP4 PUSH1 0x1 PUSH1 0x1 PUSH1 0x40 SHL SUB AND MUL OR SWAP1 SSTORE POP PUSH1 0x80 DUP3 ADD MLOAD DUP2 PUSH1 0x1 ADD PUSH0 PUSH2 0x100 EXP DUP2 SLOAD DUP2 PUSH1 0x1 PUSH1 0x1 PUSH1 0x40 SHL SUB MUL NOT AND SWAP1 DUP4 PUSH1 0x1 PUSH1 0x1 PUSH1 0x40 SHL SUB AND MUL OR SWAP1 SSTORE POP PUSH1 0xA0 DUP3 ADD MLOAD DUP2 PUSH1 0x1 ADD PUSH1 0x8 PUSH2 0x100 EXP DUP2 SLOAD DUP2 PUSH1 0x1 PUSH1 0x1 PUSH1 0x40 SHL SUB MUL NOT AND SWAP1 DUP4 PUSH1 0x1 PUSH1 0x1 PUSH1 0x40 SHL SUB AND MUL OR SWAP1 SSTORE POP PUSH1 0xC0 DUP3 ADD MLOAD DUP2 PUSH1 0x1 ADD PUSH1 0x10 PUSH2 0x100 EXP DUP2 SLOAD DUP2 PUSH1 0x1 PUSH1 0x1 PUSH1 0x40 SHL SUB MUL NOT AND SWAP1 DUP4 PUSH1 0x1 PUSH1 0x1 PUSH1 0x40 SHL SUB AND MUL OR SWAP1 SSTORE POP PUSH1 0xE0 DUP3 ADD MLOAD DUP2 PUSH1 0x1 ADD PUSH1 0x18 PUSH2 0x100 EXP DUP2 SLOAD DUP2 PUSH1 0x1 PUSH1 0x1 PUSH1 0x40 SHL SUB MUL NOT AND SWAP1 DUP4 PUSH1 0x1 PUSH1 0x1 PUSH1 0x40 SHL SUB AND MUL OR SWAP1 SSTORE POP PUSH2 0x100 DUP3 ADD MLOAD DUP2 PUSH1 0x2 ADD PUSH0 PUSH2 0x100 EXP DUP2 SLOAD DUP2 PUSH1 0x1 PUSH1 0x1 PUSH1 0x40 SHL SUB MUL NOT AND SWAP1 DUP4 PUSH1 0x1 PUSH1 0x1 PUSH1 0x40 SHL SUB AND MUL OR SWAP1 SSTORE POP PUSH2 0x120 DUP3 ADD MLOAD DUP2 PUSH1 0x2 ADD PUSH1 0x8 PUSH2 0x100 EXP DUP2 SLOAD DUP2 PUSH1 0x1 PUSH1 0x1 PUSH1 0x40 SHL SUB MUL NOT AND SWAP1 DUP4 PUSH1 0x1 PUSH1 0x1 PUSH1 0x40 SHL SUB AND MUL OR SWAP1 SSTORE POP PUSH2 0x140 DUP3 ADD MLOAD DUP2 PUSH1 0x2 ADD PUSH1 0x10 PUSH2 0x100 EXP DUP2 SLOAD DUP2 PUSH1 0x1 PUSH1 0x1 PUSH1 0x40 SHL SUB MUL NOT AND SWAP1 DUP4 PUSH1 0x1 PUSH1 0x1 PUSH1 0x40 SHL SUB AND MUL OR SWAP1 SSTORE POP PUSH2 0x160 DUP3 ADD MLOAD DUP2 PUSH1 0x2 ADD PUSH1 0x18 PUSH2 0x100 EXP DUP2 SLOAD DUP2 PUSH1 0x1 PUSH1 0x1 PUSH1 0x40 SHL SUB MUL NOT AND SWAP1 DUP4 PUSH1 0x1 PUSH1 0x1 PUSH1 0x40 SHL SUB AND MUL OR SWAP1 SSTORE POP PUSH2 0x180 DUP3 ADD MLOAD DUP2 PUSH1 0x3 ADD PUSH0 PUSH2 0x100 EXP DUP2 SLOAD DUP2 PUSH1 0x1 PUSH1 0x1 PUSH1 0x40 SHL SUB MUL NOT AND SWAP1 DUP4 PUSH1 0x1 PUSH1 0x1 PUSH1 0x40 SHL SUB AND MUL OR SWAP1 SSTORE POP PUSH2 0x1A0 DUP3 ADD MLOAD DUP2 PUSH1 0x3 ADD PUSH1 0x8 PUSH2 0x100 EXP DUP2 SLOAD DUP2 PUSH1 0x1 PUSH1 0x1 PUSH1 0x40 SHL SUB MUL NOT AND SWAP1 DUP4 PUSH1 0x1 PUSH1 0x1 PUSH1 0x40 SHL SUB AND MUL OR SWAP1 SSTORE POP PUSH2 0x1C0 DUP3 ADD MLOAD DUP2 PUSH1 0x3 ADD PUSH1 0x10 PUSH2 0x100 EXP DUP2 SLOAD DUP2 PUSH1 0x1 PUSH1 0x1 PUSH1 0x40 SHL SUB MUL NOT AND SWAP1 DUP4 PUSH1 0x1 PUSH1 0x1 PUSH1 0x40 SHL SUB AND MUL OR SWAP1 SSTORE POP PUSH2 0x1E0 DUP3 ADD MLOAD DUP2 PUSH1 0x3 ADD PUSH1 0x18 PUSH2 0x100 EXP DUP2 SLOAD DUP2 PUSH1 0x1 PUSH1 0x1 PUSH1 0x40 SHL SUB MUL NOT AND SWAP1 DUP4 PUSH1 0x1 PUSH1 0x1 PUSH1 0x40 SHL SUB AND MUL OR SWAP1 SSTORE POP PUSH2 0x200 DUP3 ADD MLOAD DUP2 PUSH1 0x4 ADD PUSH0 PUSH2 0x100 EXP DUP2 SLOAD DUP2 PUSH1 0x1 PUSH1 0x1 PUSH1 0x40 SHL SUB MUL NOT AND SWAP1 DUP4 PUSH1 0x1 PUSH1 0x1 PUSH1 0x40 SHL SUB AND MUL OR SWAP1 SSTORE POP PUSH2 0x220 DUP3 ADD MLOAD DUP2 PUSH1 0x4 ADD PUSH1 0x8 PUSH2 0x100 EXP DUP2 SLOAD DUP2 PUSH1 0xFF MUL NOT AND SWAP1 DUP4 PUSH1 0xFF AND MUL OR SWAP1 SSTORE POP POP POP PUSH1 0x40 DUP3 ADD MLOAD DUP2 PUSH1 0xA ADD PUSH0 PUSH2 0x100 EXP DUP2 SLOAD DUP2 PUSH1 0x1 PUSH1 0x1 PUSH1 0x40 SHL SUB MUL NOT AND SWAP1 DUP4 PUSH1 0x1 PUSH1 0x1 PUSH1 0x40 SHL SUB AND MUL OR SWAP1 SSTORE POP PUSH1 0x60 DUP3 ADD MLOAD DUP2 PUSH1 0xA ADD PUSH1 0x8 PUSH2 0x100 EXP DUP2 SLOAD DUP2 PUSH1 0x1 PUSH1 0x1 PUSH1 0x40 SHL SUB MUL NOT AND SWAP1 DUP4 PUSH1 0x1 PUSH1 0x1 PUSH1 0x40 SHL SUB AND MUL OR SWAP1 SSTORE POP PUSH1 0x80 DUP3 ADD MLOAD DUP2 PUSH1 0xA ADD PUSH1 0x10 PUSH2 0x100 EXP DUP2 SLOAD DUP2 PUSH1 0x1 PUSH1 0x1 PUSH1 0x40 SHL SUB MUL NOT AND SWAP1 DUP4 PUSH1 0x1 PUSH1 0x1 PUSH1 0x40 SHL SUB AND MUL OR SWAP1 SSTORE POP PUSH1 0xA0 DUP3 ADD MLOAD DUP2 PUSH1 0xA ADD PUSH1 0x18 PUSH2 0x100 EXP DUP2 SLOAD DUP2 PUSH1 0x1 PUSH1 0x1 PUSH1 0x40 SHL SUB MUL NOT AND SWAP1 DUP4 PUSH1 0x1 PUSH1 0x1 PUSH1 0x40 SHL SUB AND MUL OR SWAP1 SSTORE POP PUSH1 0xC0 DUP3 ADD MLOAD DUP2 PUSH1 0xB ADD PUSH0 PUSH2 0x100 EXP DUP2 SLOAD DUP2 PUSH1 0x1 PUSH1 0x1 PUSH1 0x40 SHL SUB MUL NOT AND SWAP1 DUP4 PUSH1 0x1 PUSH1 0x1 PUSH1 0x40 SHL SUB AND MUL OR SWAP1 SSTORE POP PUSH1 0xE0 DUP3 ADD MLOAD DUP2 PUSH1 0xB ADD PUSH1 0x8 PUSH2 0x100 EXP DUP2 SLOAD DUP2 PUSH1 0x1 PUSH1 0x1 PUSH1 0x40 SHL SUB MUL NOT AND SWAP1 DUP4 PUSH1 0x1 PUSH1 0x1 PUSH1 0x40 SHL SUB AND MUL OR SWAP1 SSTORE POP PUSH2 0x100 DUP3 ADD MLOAD DUP2 PUSH1 0xB ADD PUSH1 0x10 PUSH2 0x100 EXP DUP2 SLOAD DUP2 PUSH1 0x1 PUSH1 0x1 PUSH1 0x40 SHL SUB MUL NOT AND SWAP1 DUP4 PUSH1 0x1 PUSH1 0x1 PUSH1 0x40 SHL SUB AND MUL OR SWAP1 SSTORE POP PUSH2 0x120 DUP3 ADD MLOAD DUP2 PUSH1 0xB ADD PUSH1 0x18 PUSH2 0x100 EXP DUP2 SLOAD DUP2 PUSH1 0x1 PUSH1 0x1 PUSH1 0x40 SHL SUB MUL NOT AND SWAP1 DUP4 PUSH1 0x1 PUSH1 0x1 PUSH1 0x40 SHL SUB AND MUL OR SWAP1 SSTORE POP PUSH2 0x140 DUP3 ADD MLOAD DUP2 PUSH1 0xC ADD PUSH0 PUSH2 0x100 EXP DUP2 SLOAD DUP2 PUSH1 0x1 PUSH1 0x1 PUSH1 0x40 SHL SUB MUL NOT AND SWAP1 DUP4 PUSH1 0x1 PUSH1 0x1 PUSH1 0x40 SHL SUB AND MUL OR SWAP1 SSTORE POP PUSH2 0x160 DUP3 ADD MLOAD DUP2 PUSH1 0xC ADD PUSH1 0x8 PUSH2 0x100 EXP DUP2 SLOAD DUP2 PUSH1 0x1 PUSH1 0x1 PUSH1 0x40 SHL SUB MUL NOT AND SWAP1 DUP4 PUSH1 0x1 PUSH1 0x1 PUSH1 0x40 SHL SUB AND MUL OR SWAP1 SSTORE POP PUSH2 0x180 DUP3 ADD MLOAD DUP2 PUSH1 0xC ADD PUSH1 0x10 PUSH2 0x100 EXP DUP2 SLOAD DUP2 PUSH1 0x1 PUSH1 0x1 PUSH1 0x40 SHL SUB MUL NOT AND SWAP1 DUP4 PUSH1 0x1 PUSH1 0x1 PUSH1 0x40 SHL SUB AND MUL OR SWAP1 SSTORE POP PUSH2 0x1A0 DUP3 ADD MLOAD DUP2 PUSH1 0xC ADD PUSH1 0x18 PUSH2 0x100 EXP DUP2 SLOAD DUP2 PUSH1 0xFF MUL NOT AND SWAP1 DUP4 PUSH1 0xFF AND MUL OR SWAP1 SSTORE POP SWAP1 POP POP PUSH3 0xBC5 PUSH1 0x6 DUP1 PUSH0 ADD PUSH0 ADD PUSH1 0x10 SWAP1 SLOAD SWAP1 PUSH2 0x100 EXP SWAP1 DIV PUSH1 0x1 PUSH1 0x1 PUSH1 0x40 SHL SUB AND PUSH3 0xFA0 PUSH1 0x20 SHL PUSH1 0x20 SHR JUMP JUMPDEST PUSH1 0x11 SLOAD PUSH1 0x4 PUSH1 0x1 PUSH1 0x1 PUSH1 0x40 SHL SUB SWAP1 SWAP2 AND GT PUSH3 0xBE5 JUMPI PUSH3 0xBE5 PUSH3 0x1D32 JUMP JUMPDEST PUSH3 0xBF1 PUSH1 0x6 PUSH3 0xFF4 JUMP JUMPDEST PUSH3 0xBFD PUSH1 0x6 PUSH3 0x1046 JUMP JUMPDEST PUSH3 0xC09 PUSH1 0x6 PUSH3 0x10A2 JUMP JUMPDEST PUSH3 0xC15 PUSH1 0x6 PUSH3 0x10F5 JUMP JUMPDEST PUSH3 0xC21 PUSH1 0x6 PUSH3 0x1143 JUMP JUMPDEST PUSH1 0x11 SLOAD PUSH3 0xC42 SWAP1 PUSH1 0x6 SWAP1 PUSH1 0x1 PUSH1 0x80 SHL SWAP1 DIV PUSH1 0x1 PUSH1 0x1 PUSH1 0x40 SHL SUB AND PUSH3 0x11FE JUMP JUMPDEST PUSH1 0xA SLOAD PUSH3 0xC5C SWAP1 PUSH1 0x6 SWAP1 PUSH1 0x1 PUSH1 0x1 PUSH1 0x40 SHL SUB AND PUSH3 0x12C7 JUMP JUMPDEST PUSH1 0xA SLOAD PUSH3 0xC76 SWAP1 PUSH1 0x6 SWAP1 PUSH1 0x1 PUSH1 0x1 PUSH1 0x40 SHL SUB AND PUSH3 0x12C7 JUMP JUMPDEST PUSH1 0xA SLOAD PUSH1 0xD SLOAD PUSH3 0xC97 SWAP2 PUSH1 0x6 SWAP2 PUSH1 0x1 PUSH1 0x1 PUSH1 0x40 SHL SUB SWAP2 DUP3 AND SWAP2 AND PUSH3 0x12D7 JUMP JUMPDEST PUSH1 0xA SLOAD PUSH1 0x8 SLOAD PUSH3 0xCB8 SWAP2 PUSH1 0xB SWAP2 PUSH1 0x1 PUSH1 0x1 PUSH1 0x40 SHL SUB SWAP2 DUP3 AND SWAP2 AND PUSH3 0x12D7 JUMP JUMPDEST PUSH1 0x11 DUP1 SLOAD PUSH1 0x1 PUSH1 0x80 SHL PUSH1 0x1 PUSH1 0xC0 SHL SUB NOT DUP2 AND PUSH1 0x1 PUSH1 0xC0 SHL DUP1 DUP4 DIV PUSH1 0x1 PUSH1 0x1 PUSH1 0x40 SHL SUB SWAP1 DUP2 AND PUSH1 0x1 PUSH1 0x80 SHL SWAP5 DUP6 SWAP1 DIV DUP3 AND XOR DUP2 AND SWAP1 SWAP4 MUL SWAP2 SWAP1 SWAP2 OR SWAP1 SWAP3 SSTORE PUSH1 0x9 SLOAD PUSH3 0xD09 SWAP3 PUSH1 0xB SWAP3 SWAP2 DIV AND PUSH3 0x11FE JUMP JUMPDEST PUSH1 0xF SLOAD PUSH3 0xD23 SWAP1 PUSH1 0xB SWAP1 PUSH1 0x1 PUSH1 0x1 PUSH1 0x40 SHL SUB AND PUSH3 0x12C7 JUMP JUMPDEST PUSH1 0xF SLOAD PUSH3 0xD3D SWAP1 PUSH1 0xB SWAP1 PUSH1 0x1 PUSH1 0x1 PUSH1 0x40 SHL SUB AND PUSH3 0x12C7 JUMP JUMPDEST PUSH1 0xF SLOAD PUSH1 0x6 DUP1 SLOAD PUSH3 0xD63 SWAP3 PUSH1 0x1 PUSH1 0x1 PUSH1 0x40 SHL SUB SWAP1 DUP2 AND SWAP2 PUSH1 0x1 PUSH1 0xC0 SHL SWAP1 DIV AND PUSH3 0x12D7 JUMP JUMPDEST PUSH1 0xF SLOAD PUSH1 0xB DUP1 SLOAD PUSH3 0xD89 SWAP3 PUSH1 0x1 PUSH1 0x1 PUSH1 0x40 SHL SUB SWAP1 DUP2 AND SWAP2 PUSH1 0x1 PUSH1 0xC0 SHL SWAP1 DIV AND PUSH3 0x12D7 JUMP JUMPDEST PUSH1 0x9 SLOAD PUSH3 0xDAA SWAP1 PUSH1 0xB SWAP1 PUSH1 0x1 PUSH1 0x80 SHL SWAP1 DIV PUSH1 0x1 PUSH1 0x1 PUSH1 0x40 SHL SUB AND PUSH3 0x11FE JUMP JUMPDEST PUSH1 0xF SLOAD PUSH1 0x11 DUP1 SLOAD PUSH1 0x1 PUSH1 0x80 SHL PUSH1 0x1 PUSH1 0xC0 SHL SUB NOT AND PUSH1 0x1 PUSH1 0x1 PUSH1 0x40 SHL SUB SWAP3 DUP4 AND PUSH1 0x1 PUSH1 0x80 SHL SWAP1 DUP2 MUL SWAP2 SWAP1 SWAP2 OR SWAP2 DUP3 SWAP1 SSTORE PUSH3 0xDEC SWAP3 PUSH1 0xB SWAP3 SWAP2 SWAP1 SWAP2 DIV AND PUSH3 0x12C7 JUMP JUMPDEST PUSH1 0xF SLOAD PUSH1 0x11 DUP1 SLOAD PUSH1 0x1 PUSH1 0x1 PUSH1 0xC0 SHL SUB AND PUSH1 0x1 PUSH1 0x1 PUSH1 0x40 SHL SUB SWAP3 DUP4 AND PUSH1 0x1 PUSH1 0xC0 SHL SWAP1 DUP2 MUL SWAP2 SWAP1 SWAP2 OR SWAP2 DUP3 SWAP1 SSTORE PUSH3 0xE2A SWAP3 PUSH1 0xB SWAP3 SWAP2 SWAP1 SWAP2 DIV AND PUSH3 0x12C7 JUMP JUMPDEST PUSH1 0xF SLOAD PUSH1 0x12 DUP1 SLOAD PUSH1 0x1 PUSH1 0x1 PUSH1 0x40 SHL SUB NOT AND PUSH1 0x1 PUSH1 0x1 PUSH1 0x40 SHL SUB SWAP3 DUP4 AND SWAP1 DUP2 OR SWAP1 SWAP2 SSTORE PUSH1 0xD SLOAD PUSH3 0xE5F SWAP3 PUSH1 0xB SWAP3 SWAP2 AND PUSH3 0x12D7 JUMP JUMPDEST PUSH1 0xE SLOAD PUSH1 0x12 DUP1 SLOAD PUSH9 0x10000000000000000 PUSH1 0x1 PUSH1 0x1 PUSH1 0x40 SHL SUB PUSH1 0x1 PUSH1 0xC0 SHL SWAP1 SWAP5 DIV DUP5 AND MUL PUSH1 0x1 PUSH1 0x40 SHL PUSH1 0x1 PUSH1 0x80 SHL SUB NOT DUP3 AND DUP2 OR SWAP1 SWAP3 SSTORE PUSH1 0x8 SLOAD PUSH3 0xEB2 SWAP4 PUSH1 0x6 SWAP4 DUP2 AND SWAP3 DUP2 AND SWAP3 SWAP1 SWAP3 OR SWAP2 AND PUSH3 0x12D7 JUMP JUMPDEST PUSH1 0x9 SLOAD PUSH1 0x12 DUP1 SLOAD PUSH1 0x1 PUSH1 0x80 SHL DUP1 DUP3 DIV PUSH1 0x1 PUSH1 0x1 PUSH1 0x40 SHL SUB SWAP1 DUP2 AND PUSH1 0x1 PUSH1 0xC0 SHL SWAP6 DUP7 SWAP1 DIV DUP3 AND XOR DUP2 AND DUP3 MUL PUSH1 0x1 PUSH1 0x80 SHL PUSH1 0x1 PUSH1 0xC0 SHL SUB NOT DUP1 DUP6 AND DUP3 OR SWAP1 SWAP6 SSTORE PUSH1 0x11 DUP1 SLOAD DUP5 DUP2 DIV DUP5 AND SWAP8 DUP2 DIV DUP5 AND SWAP8 SWAP1 SWAP8 XOR SWAP2 DUP4 AND SWAP5 DUP4 AND SWAP5 SWAP1 SWAP5 OR XOR AND MUL SWAP3 SWAP1 SWAP2 AND SWAP2 SWAP1 SWAP2 OR SWAP1 SSTORE PUSH3 0xF47 ADDRESS PUSH3 0xF27 PUSH1 0x12 SWAP1 JUMP JUMPDEST PUSH3 0xF34 SWAP1 PUSH1 0xA PUSH3 0x1E55 JUMP JUMPDEST PUSH3 0xF41 SWAP1 PUSH1 0x1 PUSH3 0x1E65 JUMP JUMPDEST PUSH3 0x1488 JUMP JUMPDEST POP POP PUSH3 0x1EB1 JUMP JUMPDEST PUSH1 0x5 DUP1 SLOAD PUSH1 0x1 PUSH1 0x1 PUSH1 0xA0 SHL SUB DUP4 DUP2 AND PUSH1 0x1 PUSH1 0x1 PUSH1 0xA0 SHL SUB NOT DUP4 AND DUP2 OR SWAP1 SWAP4 SSTORE PUSH1 0x40 MLOAD SWAP2 AND SWAP2 SWAP1 DUP3 SWAP1 PUSH32 0x8BE0079C531659141344CD1FD0A4F28419497F9722A3DAAFE3B4186F6B6457E0 SWAP1 PUSH0 SWAP1 LOG3 POP POP JUMP JUMPDEST DUP1 PUSH1 0x1 PUSH1 0x1 PUSH1 0x40 SHL SUB AND PUSH0 SUB PUSH3 0xFBB JUMPI PUSH3 0xFBB PUSH3 0x1D32 JUMP JUMPDEST PUSH3 0xFCA PUSH1 0x5 DUP4 ADD DUP3 PUSH3 0x14C0 JUMP JUMPDEST POP PUSH1 0x9 DUP2 ADD SLOAD PUSH1 0xB SWAP1 SWAP2 ADD DUP1 SLOAD PUSH1 0x1 PUSH1 0x1 PUSH1 0x40 SHL SUB NOT AND PUSH1 0x1 PUSH1 0x1 PUSH1 0x40 SHL SUB SWAP1 SWAP3 AND SWAP2 SWAP1 SWAP2 OR SWAP1 SSTORE JUMP JUMPDEST PUSH1 0xB DUP2 ADD SLOAD PUSH3 0x100F SWAP1 DUP3 SWAP1 PUSH1 0x1 PUSH1 0x1 PUSH1 0x40 SHL SUB AND PUSH3 0x1525 JUMP JUMPDEST PUSH1 0x4 DUP2 ADD SLOAD PUSH1 0xB SWAP1 SWAP2 ADD DUP1 SLOAD PUSH1 0x1 PUSH1 0x40 SHL PUSH1 0x1 PUSH1 0x80 SHL SUB NOT AND PUSH1 0x1 PUSH1 0x1 PUSH1 0x40 SHL SUB SWAP1 SWAP3 AND PUSH9 0x10000000000000000 MUL SWAP2 SWAP1 SWAP2 OR SWAP1 SSTORE JUMP JUMPDEST PUSH1 0xB DUP2 ADD SLOAD PUSH3 0x1070 SWAP1 PUSH1 0x5 DUP4 ADD SWAP1 PUSH9 0x10000000000000000 SWAP1 DIV PUSH1 0x1 PUSH1 0x1 PUSH1 0x40 SHL SUB AND PUSH3 0x11FE JUMP JUMPDEST PUSH1 0x9 DUP2 ADD SLOAD PUSH1 0xB SWAP1 SWAP2 ADD DUP1 SLOAD PUSH1 0x1 PUSH1 0x80 SHL PUSH1 0x1 PUSH1 0xC0 SHL SUB NOT AND PUSH1 0x1 PUSH1 0x1 PUSH1 0x40 SHL SUB SWAP1 SWAP3 AND PUSH1 0x1 PUSH1 0x80 SHL MUL SWAP2 SWAP1 SWAP2 OR SWAP1 SSTORE JUMP JUMPDEST PUSH1 0xB DUP2 ADD SLOAD PUSH3 0x10C7 SWAP1 PUSH1 0x5 DUP4 ADD SWAP1 PUSH1 0x1 PUSH1 0x80 SHL SWAP1 DIV PUSH1 0x1 PUSH1 0x1 PUSH1 0x40 SHL SUB AND PUSH3 0x12C7 JUMP JUMPDEST PUSH1 0x9 DUP2 ADD SLOAD PUSH1 0xB SWAP1 SWAP2 ADD DUP1 SLOAD PUSH1 0x1 PUSH1 0x1 PUSH1 0xC0 SHL SUB AND PUSH1 0x1 PUSH1 0x1 PUSH1 0x40 SHL SUB SWAP1 SWAP3 AND PUSH1 0x1 PUSH1 0xC0 SHL MUL SWAP2 SWAP1 SWAP2 OR SWAP1 SSTORE JUMP JUMPDEST PUSH1 0xB DUP2 ADD SLOAD PUSH3 0x111A SWAP1 PUSH1 0x5 DUP4 ADD SWAP1 PUSH1 0x1 PUSH1 0xC0 SHL SWAP1 DIV PUSH1 0x1 PUSH1 0x1 PUSH1 0x40 SHL SUB AND PUSH3 0x12C7 JUMP JUMPDEST PUSH1 0x9 DUP2 ADD SLOAD PUSH1 0xC SWAP1 SWAP2 ADD DUP1 SLOAD PUSH1 0x1 PUSH1 0x1 PUSH1 0x40 SHL SUB NOT AND PUSH1 0x1 PUSH1 0x1 PUSH1 0x40 SHL SUB SWAP1 SWAP3 AND SWAP2 SWAP1 SWAP2 OR SWAP1 SSTORE JUMP JUMPDEST PUSH1 0xC DUP2 ADD SLOAD PUSH1 0x5 DUP3 ADD SLOAD PUSH3 0x116F SWAP2 DUP4 SWAP2 PUSH1 0x1 PUSH1 0x1 PUSH1 0x40 SHL SUB SWAP2 DUP3 AND SWAP2 PUSH1 0x1 PUSH1 0xC0 SHL SWAP1 SWAP2 DIV AND PUSH3 0x12D7 JUMP JUMPDEST PUSH1 0xC DUP2 ADD SLOAD DUP2 SLOAD PUSH3 0x119B SWAP2 PUSH1 0x5 DUP5 ADD SWAP2 PUSH1 0x1 PUSH1 0x1 PUSH1 0x40 SHL SUB SWAP2 DUP3 AND SWAP2 PUSH1 0x1 PUSH1 0xC0 SHL SWAP1 SWAP2 DIV AND PUSH3 0x12D7 JUMP JUMPDEST PUSH1 0x8 DUP2 ADD SLOAD PUSH1 0xC DUP3 ADD DUP1 SLOAD PUSH1 0x3 SWAP1 SWAP4 ADD SLOAD PUSH1 0x1 PUSH1 0x40 SHL PUSH1 0x1 PUSH1 0xC0 SHL SUB NOT SWAP1 SWAP4 AND PUSH1 0x1 PUSH1 0xC0 SHL SWAP3 DUP4 SWAP1 DIV PUSH1 0x1 PUSH1 0x1 PUSH1 0x40 SHL SUB SWAP1 DUP2 AND PUSH9 0x10000000000000000 MUL PUSH1 0x1 PUSH1 0x80 SHL PUSH1 0x1 PUSH1 0xC0 SHL SUB NOT AND SWAP2 SWAP1 SWAP2 OR SWAP3 SWAP1 SWAP4 DIV SWAP3 SWAP1 SWAP3 AND PUSH1 0x1 PUSH1 0x80 SHL MUL OR SWAP1 SSTORE JUMP JUMPDEST PUSH1 0x1 DUP3 ADD SLOAD DUP3 SLOAD PUSH1 0x40 MLOAD PUSH4 0x53DF6E35 PUSH1 0xE0 SHL DUP2 MSTORE PUSH1 0x1 PUSH1 0x1 PUSH1 0x40 SHL SUB DUP1 DUP6 AND PUSH1 0x4 DUP4 ADD MSTORE PUSH1 0x1 PUSH1 0xC0 SHL SWAP4 DUP5 SWAP1 DIV DUP2 AND PUSH1 0x24 DUP4 ADD MSTORE SWAP3 SWAP1 SWAP2 DIV SWAP1 SWAP2 AND PUSH1 0x44 DUP3 ADD MSTORE PUSH20 0x0 SWAP1 PUSH4 0x53DF6E35 SWAP1 PUSH1 0x64 ADD JUMPDEST PUSH1 0x20 PUSH1 0x40 MLOAD DUP1 DUP4 SUB DUP2 DUP7 GAS DELEGATECALL ISZERO DUP1 ISZERO PUSH3 0x127A JUMPI RETURNDATASIZE PUSH0 DUP1 RETURNDATACOPY RETURNDATASIZE PUSH0 REVERT JUMPDEST POP POP POP POP PUSH1 0x40 MLOAD RETURNDATASIZE PUSH1 0x1F NOT PUSH1 0x1F DUP3 ADD AND DUP3 ADD DUP1 PUSH1 0x40 MSTORE POP DUP2 ADD SWAP1 PUSH3 0x12A0 SWAP2 SWAP1 PUSH3 0x1E7F JUMP JUMPDEST PUSH1 0x4 SWAP3 SWAP1 SWAP3 ADD DUP1 SLOAD PUSH1 0x1 PUSH1 0x1 PUSH1 0x40 SHL SUB NOT AND PUSH1 0x1 PUSH1 0x1 PUSH1 0x40 SHL SUB SWAP1 SWAP4 AND SWAP3 SWAP1 SWAP3 OR SWAP1 SWAP2 SSTORE POP JUMP JUMPDEST PUSH3 0x12D3 DUP3 DUP3 PUSH3 0x11FE JUMP JUMPDEST POP POP JUMP JUMPDEST DUP3 SLOAD PUSH1 0x40 MLOAD PUSH4 0x53DF6E35 PUSH1 0xE0 SHL DUP2 MSTORE PUSH1 0x1 PUSH1 0x1 PUSH1 0x40 SHL SUB DUP1 DUP6 AND PUSH1 0x4 DUP4 ADD MSTORE PUSH1 0x1 PUSH1 0xC0 SHL SWAP1 SWAP3 DIV DUP3 AND PUSH1 0x24 DUP3 ADD MSTORE SWAP1 DUP3 AND PUSH1 0x44 DUP3 ADD MSTORE PUSH20 0x0 SWAP1 PUSH4 0x53DF6E35 SWAP1 PUSH1 0x64 ADD PUSH1 0x20 PUSH1 0x40 MLOAD DUP1 DUP4 SUB DUP2 DUP7 GAS DELEGATECALL ISZERO DUP1 ISZERO PUSH3 0x1348 JUMPI RETURNDATASIZE PUSH0 DUP1 RETURNDATACOPY RETURNDATASIZE PUSH0 REVERT JUMPDEST POP POP POP POP PUSH1 0x40 MLOAD RETURNDATASIZE PUSH1 0x1F NOT PUSH1 0x1F DUP3 ADD AND DUP3 ADD DUP1 PUSH1 0x40 MSTORE POP DUP2 ADD SWAP1 PUSH3 0x136E SWAP2 SWAP1 PUSH3 0x1E7F JUMP JUMPDEST PUSH1 0x3 DUP5 ADD DUP1 SLOAD PUSH1 0x1 PUSH1 0x80 SHL PUSH1 0x1 PUSH1 0xC0 SHL SUB NOT AND PUSH1 0x1 PUSH1 0x80 SHL PUSH1 0x1 PUSH1 0x1 PUSH1 0x40 SHL SUB SWAP4 DUP5 AND MUL OR SWAP1 SSTORE DUP4 SLOAD PUSH1 0x40 MLOAD PUSH4 0x53DF6E35 PUSH1 0xE0 SHL DUP2 MSTORE DUP5 DUP4 AND PUSH1 0x4 DUP3 ADD MSTORE DUP4 DUP4 AND PUSH1 0x24 DUP3 ADD MSTORE PUSH1 0x1 PUSH1 0xC0 SHL SWAP1 SWAP2 DIV SWAP1 SWAP2 AND PUSH1 0x44 DUP3 ADD MSTORE PUSH20 0x0 SWAP1 PUSH4 0x53DF6E35 SWAP1 PUSH1 0x64 ADD PUSH1 0x20 PUSH1 0x40 MLOAD DUP1 DUP4 SUB DUP2 DUP7 GAS DELEGATECALL ISZERO DUP1 ISZERO PUSH3 0x13FF JUMPI RETURNDATASIZE PUSH0 DUP1 RETURNDATACOPY RETURNDATASIZE PUSH0 REVERT JUMPDEST POP POP POP POP PUSH1 0x40 MLOAD RETURNDATASIZE PUSH1 0x1F NOT PUSH1 0x1F DUP3 ADD AND DUP3 ADD DUP1 PUSH1 0x40 MSTORE POP DUP2 ADD SWAP1 PUSH3 0x1425 SWAP2 SWAP1 PUSH3 0x1E7F JUMP JUMPDEST PUSH1 0x3 DUP5 ADD DUP1 SLOAD PUSH1 0x1 PUSH1 0x1 PUSH1 0xC0 SHL SUB AND PUSH1 0x1 PUSH1 0xC0 SHL PUSH1 0x1 PUSH1 0x1 PUSH1 0x40 SHL SUB SWAP4 DUP5 AND MUL OR SWAP1 DUP2 SWAP1 SSTORE PUSH1 0x1 PUSH1 0x80 SHL SWAP1 DIV AND ISZERO DUP1 ISZERO SWAP1 PUSH3 0x1474 JUMPI POP PUSH1 0x3 DUP4 ADD SLOAD PUSH1 0x1 PUSH1 0xC0 SHL SWAP1 DIV PUSH1 0x1 PUSH1 0x1 PUSH1 0x40 SHL SUB AND ISZERO ISZERO JUMPDEST PUSH3 0x1483 JUMPI PUSH3 0x1483 PUSH3 0x1D32 JUMP JUMPDEST POP POP POP JUMP JUMPDEST PUSH1 0x1 PUSH1 0x1 PUSH1 0xA0 SHL SUB DUP3 AND PUSH3 0x14B3 JUMPI PUSH1 0x40 MLOAD PUSH4 0xEC442F05 PUSH1 0xE0 SHL DUP2 MSTORE PUSH0 PUSH1 0x4 DUP3 ADD MSTORE PUSH1 0x24 ADD PUSH3 0xAD JUMP JUMPDEST PUSH3 0x12D3 PUSH0 DUP4 DUP4 PUSH3 0x158F JUMP JUMPDEST PUSH1 0x2 DUP3 ADD SLOAD PUSH1 0x40 MLOAD PUSH4 0x53DF6E35 PUSH1 0xE0 SHL DUP2 MSTORE PUSH1 0x1 PUSH1 0x1 PUSH1 0x40 SHL SUB PUSH1 0x1 PUSH1 0xC0 SHL DUP4 DIV DUP2 AND PUSH1 0x4 DUP4 ADD MSTORE DUP4 DUP2 AND PUSH1 0x24 DUP4 ADD MSTORE PUSH1 0x1 PUSH1 0x80 SHL SWAP1 SWAP3 DIV SWAP1 SWAP2 AND PUSH1 0x44 DUP3 ADD MSTORE PUSH20 0x0 SWAP1 PUSH4 0x53DF6E35 SWAP1 PUSH1 0x64 ADD PUSH3 0x125E JUMP JUMPDEST PUSH1 0x2 DUP3 ADD SLOAD PUSH1 0x40 MLOAD PUSH4 0x53DF6E35 PUSH1 0xE0 SHL DUP2 MSTORE PUSH1 0x1 PUSH1 0x1 PUSH1 0x40 SHL SUB DUP1 DUP5 AND PUSH1 0x4 DUP4 ADD MSTORE PUSH9 0x10000000000000000 DUP4 DIV DUP2 AND PUSH1 0x24 DUP4 ADD MSTORE PUSH1 0x1 PUSH1 0x80 SHL SWAP1 SWAP3 DIV SWAP1 SWAP2 AND PUSH1 0x44 DUP3 ADD MSTORE PUSH20 0x0 SWAP1 PUSH4 0x53DF6E35 SWAP1 PUSH1 0x64 ADD PUSH3 0x125E JUMP JUMPDEST PUSH1 0x1 PUSH1 0x1 PUSH1 0xA0 SHL SUB DUP4 AND PUSH3 0x15BD JUMPI DUP1 PUSH1 0x2 PUSH0 DUP3 DUP3 SLOAD PUSH3 0x15B1 SWAP2 SWAP1 PUSH3 0x1E9B JUMP JUMPDEST SWAP1 SWAP2 SSTORE POP PUSH3 0x162F SWAP1 POP JUMP JUMPDEST PUSH1 0x1 PUSH1 0x1 PUSH1 0xA0 SHL SUB DUP4 AND PUSH0 SWAP1 DUP2 MSTORE PUSH1 0x20 DUP2 SWAP1 MSTORE PUSH1 0x40 SWAP1 KECCAK256 SLOAD DUP2 DUP2 LT ISZERO PUSH3 0x1611 JUMPI PUSH1 0x40 MLOAD PUSH4 0x391434E3 PUSH1 0xE2 SHL DUP2 MSTORE PUSH1 0x1 PUSH1 0x1 PUSH1 0xA0 SHL SUB DUP6 AND PUSH1 0x4 DUP3 ADD MSTORE PUSH1 0x24 DUP2 ADD DUP3 SWAP1 MSTORE PUSH1 0x44 DUP2 ADD DUP4 SWAP1 MSTORE PUSH1 0x64 ADD PUSH3 0xAD JUMP JUMPDEST PUSH1 0x1 PUSH1 0x1 PUSH1 0xA0 SHL SUB DUP5 AND PUSH0 SWAP1 DUP2 MSTORE PUSH1 0x20 DUP2 SWAP1 MSTORE PUSH1 0x40 SWAP1 KECCAK256 SWAP1 DUP3 SWAP1 SUB SWAP1 SSTORE JUMPDEST PUSH1 0x1 PUSH1 0x1 PUSH1 0xA0 SHL SUB DUP3 AND PUSH3 0x164D JUMPI PUSH1 0x2 DUP1 SLOAD DUP3 SWAP1 SUB SWAP1 SSTORE PUSH3 0x166B JUMP JUMPDEST PUSH1 0x1 PUSH1 0x1 PUSH1 0xA0 SHL SUB DUP3 AND PUSH0 SWAP1 DUP2 MSTORE PUSH1 0x20 DUP2 SWAP1 MSTORE PUSH1 0x40 SWAP1 KECCAK256 DUP1 SLOAD DUP3 ADD SWAP1 SSTORE JUMPDEST DUP2 PUSH1 0x1 PUSH1 0x1 PUSH1 0xA0 SHL SUB AND DUP4 PUSH1 0x1 PUSH1 0x1 PUSH1 0xA0 SHL SUB AND PUSH32 0xDDF252AD1BE2C89B69C2B068FC378DAA952BA7F163C4A11628F55A4DF523B3EF DUP4 PUSH1 0x40 MLOAD PUSH3 0x16B1 SWAP2 DUP2 MSTORE PUSH1 0x20 ADD SWAP1 JUMP JUMPDEST PUSH1 0x40 MLOAD DUP1 SWAP2 SUB SWAP1 LOG3 POP POP POP JUMP JUMPDEST PUSH4 0x4E487B71 PUSH1 0xE0 SHL PUSH0 MSTORE PUSH1 0x41 PUSH1 0x4 MSTORE PUSH1 0x24 PUSH0 REVERT JUMPDEST PUSH1 0x1 DUP2 DUP2 SHR SWAP1 DUP3 AND DUP1 PUSH3 0x16E7 JUMPI PUSH1 0x7F DUP3 AND SWAP2 POP JUMPDEST PUSH1 0x20 DUP3 LT DUP2 SUB PUSH3 0x1706 JUMPI PUSH4 0x4E487B71 PUSH1 0xE0 SHL PUSH0 MSTORE PUSH1 0x22 PUSH1 0x4 MSTORE PUSH1 0x24 PUSH0 REVERT JUMPDEST POP SWAP2 SWAP1 POP JUMP JUMPDEST PUSH1 0x1F DUP3 GT ISZERO PUSH3 0x1483 JUMPI PUSH0 DUP2 DUP2 MSTORE PUSH1 0x20 DUP2 KECCAK256 PUSH1 0x1F DUP6 ADD PUSH1 0x5 SHR DUP2 ADD PUSH1 0x20 DUP7 LT ISZERO PUSH3 0x1734 JUMPI POP DUP1 JUMPDEST PUSH1 0x1F DUP6 ADD PUSH1 0x5 SHR DUP3 ADD SWAP2 POP JUMPDEST DUP2 DUP2 LT ISZERO PUSH3 0x1755 JUMPI DUP3 DUP2 SSTORE PUSH1 0x1 ADD PUSH3 0x1740 JUMP JUMPDEST POP POP POP POP POP POP JUMP JUMPDEST DUP2 MLOAD PUSH1 0x1 PUSH1 0x1 PUSH1 0x40 SHL SUB DUP2 GT ISZERO PUSH3 0x1779 JUMPI PUSH3 0x1779 PUSH3 0x16BE JUMP JUMPDEST PUSH3 0x1791 DUP2 PUSH3 0x178A DUP5 SLOAD PUSH3 0x16D2 JUMP JUMPDEST DUP5 PUSH3 0x170C JUMP JUMPDEST PUSH1 0x20 DUP1 PUSH1 0x1F DUP4 GT PUSH1 0x1 DUP2 EQ PUSH3 0x17C7 JUMPI PUSH0 DUP5 ISZERO PUSH3 0x17AF JUMPI POP DUP6 DUP4 ADD MLOAD JUMPDEST PUSH0 NOT PUSH1 0x3 DUP7 SWAP1 SHL SHR NOT AND PUSH1 0x1 DUP6 SWAP1 SHL OR DUP6 SSTORE PUSH3 0x1755 JUMP JUMPDEST PUSH0 DUP6 DUP2 MSTORE PUSH1 0x20 DUP2 KECCAK256 PUSH1 0x1F NOT DUP7 AND SWAP2 JUMPDEST DUP3 DUP2 LT ISZERO PUSH3 0x17F7 JUMPI DUP9 DUP7 ADD MLOAD DUP3 SSTORE SWAP5 DUP5 ADD SWAP5 PUSH1 0x1 SWAP1 SWAP2 ADD SWAP1 DUP5 ADD PUSH3 0x17D6 JUMP JUMPDEST POP DUP6 DUP3 LT ISZERO PUSH3 0x1815 JUMPI DUP8 DUP6 ADD MLOAD PUSH0 NOT PUSH1 0x3 DUP9 SWAP1 SHL PUSH1 0xF8 AND SHR NOT AND DUP2 SSTORE JUMPDEST POP POP POP POP POP PUSH1 0x1 SWAP1 DUP2 SHL ADD SWAP1 SSTORE POP JUMP JUMPDEST PUSH1 0x40 MLOAD PUSH2 0x240 DUP2 ADD PUSH1 0x1 PUSH1 0x1 PUSH1 0x40 SHL SUB DUP2 GT DUP3 DUP3 LT OR ISZERO PUSH3 0x184B JUMPI PUSH3 0x184B PUSH3 0x16BE JUMP JUMPDEST PUSH1 0x40 MSTORE SWAP1 JUMP JUMPDEST PUSH1 0x40 MLOAD PUSH2 0x1C0 DUP2 ADD PUSH1 0x1 PUSH1 0x1 PUSH1 0x40 SHL SUB DUP2 GT DUP3 DUP3 LT OR ISZERO PUSH3 0x184B JUMPI PUSH3 0x184B PUSH3 0x16BE JUMP JUMPDEST DUP1 MLOAD PUSH1 0x1 PUSH1 0x1 PUSH1 0x40 SHL SUB DUP2 AND DUP2 EQ PUSH3 0x188E JUMPI PUSH0 DUP1 REVERT JUMPDEST SWAP2 SWAP1 POP JUMP JUMPDEST DUP1 MLOAD PUSH1 0xFF DUP2 AND DUP2 EQ PUSH3 0x188E JUMPI PUSH0 DUP1 REVERT JUMPDEST PUSH0 PUSH2 0x240 DUP3 DUP5 SUB SLT ISZERO PUSH3 0x18B6 JUMPI PUSH0 DUP1 REVERT JUMPDEST PUSH3 0x18C0 PUSH3 0x1825 JUMP JUMPDEST SWAP1 POP PUSH3 0x18CD DUP3 PUSH3 0x1877 JUMP JUMPDEST DUP2 MSTORE PUSH3 0x18DD PUSH1 0x20 DUP4 ADD PUSH3 0x1877 JUMP JUMPDEST PUSH1 0x20 DUP3 ADD MSTORE PUSH3 0x18F0 PUSH1 0x40 DUP4 ADD PUSH3 0x1877 JUMP JUMPDEST PUSH1 0x40 DUP3 ADD MSTORE PUSH3 0x1903 PUSH1 0x60 DUP4 ADD PUSH3 0x1877 JUMP JUMPDEST PUSH1 0x60 DUP3 ADD MSTORE PUSH3 0x1916 PUSH1 0x80 DUP4 ADD PUSH3 0x1877 JUMP JUMPDEST PUSH1 0x80 DUP3 ADD MSTORE PUSH3 0x1929 PUSH1 0xA0 DUP4 ADD PUSH3 0x1877 JUMP JUMPDEST PUSH1 0xA0 DUP3 ADD MSTORE PUSH3 0x193C PUSH1 0xC0 DUP4 ADD PUSH3 0x1877 JUMP JUMPDEST PUSH1 0xC0 DUP3 ADD MSTORE PUSH3 0x194F PUSH1 0xE0 DUP4 ADD PUSH3 0x1877 JUMP JUMPDEST PUSH1 0xE0 DUP3 ADD MSTORE PUSH2 0x100 PUSH3 0x1964 DUP2 DUP5 ADD PUSH3 0x1877 JUMP JUMPDEST SWAP1 DUP3 ADD MSTORE PUSH2 0x120 PUSH3 0x1978 DUP4 DUP3 ADD PUSH3 0x1877 JUMP JUMPDEST SWAP1 DUP3 ADD MSTORE PUSH2 0x140 PUSH3 0x198C DUP4 DUP3 ADD PUSH3 0x1877 JUMP JUMPDEST SWAP1 DUP3 ADD MSTORE PUSH2 0x160 PUSH3 0x19A0 DUP4 DUP3 ADD PUSH3 0x1877 JUMP JUMPDEST SWAP1 DUP3 ADD MSTORE PUSH2 0x180 PUSH3 0x19B4 DUP4 DUP3 ADD PUSH3 0x1877 JUMP JUMPDEST SWAP1 DUP3 ADD MSTORE PUSH2 0x1A0 PUSH3 0x19C8 DUP4 DUP3 ADD PUSH3 0x1877 JUMP JUMPDEST SWAP1 DUP3 ADD MSTORE PUSH2 0x1C0 PUSH3 0x19DC DUP4 DUP3 ADD PUSH3 0x1877 JUMP JUMPDEST SWAP1 DUP3 ADD MSTORE PUSH2 0x1E0 PUSH3 0x19F0 DUP4 DUP3 ADD PUSH3 0x1877 JUMP JUMPDEST SWAP1 DUP3 ADD MSTORE PUSH2 0x200 PUSH3 0x1A04 DUP4 DUP3 ADD PUSH3 0x1877 JUMP JUMPDEST SWAP1 DUP3 ADD MSTORE PUSH2 0x220 PUSH3 0x1A18 DUP4 DUP3 ADD PUSH3 0x1893 JUMP JUMPDEST SWAP1 DUP3 ADD MSTORE SWAP3 SWAP2 POP POP JUMP JUMPDEST PUSH0 PUSH2 0x240 DUP3 DUP5 SUB SLT ISZERO PUSH3 0x1A34 JUMPI PUSH0 DUP1 REVERT JUMPDEST PUSH3 0x1A40 DUP4 DUP4 PUSH3 0x18A4 JUMP JUMPDEST SWAP4 SWAP3 POP POP POP JUMP JUMPDEST DUP1 MLOAD PUSH1 0x1 PUSH1 0x1 PUSH1 0x40 SHL SUB AND DUP3 MSTORE PUSH1 0x20 DUP2 ADD MLOAD PUSH3 0x1A6F PUSH1 0x20 DUP5 ADD DUP3 PUSH1 0x1 PUSH1 0x1 PUSH1 0x40 SHL SUB AND SWAP1 MSTORE JUMP JUMPDEST POP PUSH1 0x40 DUP2 ADD MLOAD PUSH3 0x1A8B PUSH1 0x40 DUP5 ADD DUP3 PUSH1 0x1 PUSH1 0x1 PUSH1 0x40 SHL SUB AND SWAP1 MSTORE JUMP JUMPDEST POP PUSH1 0x60 DUP2 ADD MLOAD PUSH3 0x1AA7 PUSH1 0x60 DUP5 ADD DUP3 PUSH1 0x1 PUSH1 0x1 PUSH1 0x40 SHL SUB AND SWAP1 MSTORE JUMP JUMPDEST POP PUSH1 0x80 DUP2 ADD MLOAD PUSH3 0x1AC3 PUSH1 0x80 DUP5 ADD DUP3 PUSH1 0x1 PUSH1 0x1 PUSH1 0x40 SHL SUB AND SWAP1 MSTORE JUMP JUMPDEST POP PUSH1 0xA0 DUP2 ADD MLOAD PUSH3 0x1ADF PUSH1 0xA0 DUP5 ADD DUP3 PUSH1 0x1 PUSH1 0x1 PUSH1 0x40 SHL SUB AND SWAP1 MSTORE JUMP JUMPDEST POP PUSH1 0xC0 DUP2 ADD MLOAD PUSH3 0x1AFB PUSH1 0xC0 DUP5 ADD DUP3 PUSH1 0x1 PUSH1 0x1 PUSH1 0x40 SHL SUB AND SWAP1 MSTORE JUMP JUMPDEST POP PUSH1 0xE0 DUP2 ADD MLOAD PUSH3 0x1B17 PUSH1 0xE0 DUP5 ADD DUP3 PUSH1 0x1 PUSH1 0x1 PUSH1 0x40 SHL SUB AND SWAP1 MSTORE JUMP JUMPDEST POP PUSH2 0x100 DUP2 DUP2 ADD MLOAD PUSH1 0x1 PUSH1 0x1 PUSH1 0x40 SHL SUB SWAP1 DUP2 AND SWAP2 DUP5 ADD SWAP2 SWAP1 SWAP2 MSTORE PUSH2 0x120 DUP1 DUP4 ADD MLOAD DUP3 AND SWAP1 DUP5 ADD MSTORE PUSH2 0x140 DUP1 DUP4 ADD MLOAD DUP3 AND SWAP1 DUP5 ADD MSTORE PUSH2 0x160 DUP1 DUP4 ADD MLOAD DUP3 AND SWAP1 DUP5 ADD MSTORE PUSH2 0x180 DUP1 DUP4 ADD MLOAD DUP3 AND SWAP1 DUP5 ADD MSTORE PUSH2 0x1A0 DUP1 DUP4 ADD MLOAD DUP3 AND SWAP1 DUP5 ADD MSTORE PUSH2 0x1C0 DUP1 DUP4 ADD MLOAD DUP3 AND SWAP1 DUP5 ADD MSTORE PUSH2 0x1E0 DUP1 DUP4 ADD MLOAD DUP3 AND SWAP1 DUP5 ADD MSTORE PUSH2 0x200 DUP1 DUP4 ADD MLOAD SWAP1 SWAP2 AND SWAP1 DUP4 ADD MSTORE PUSH2 0x220 SWAP1 DUP2 ADD MLOAD PUSH1 0xFF AND SWAP2 ADD MSTORE JUMP JUMPDEST PUSH2 0x4E0 DUP2 ADD PUSH3 0x1BBA DUP3 DUP9 PUSH3 0x1A47 JUMP JUMPDEST PUSH3 0x1BCA PUSH2 0x240 DUP4 ADD DUP8 PUSH3 0x1A47 JUMP JUMPDEST PUSH1 0x1 PUSH1 0x1 PUSH1 0x40 SHL SUB SWAP5 DUP6 AND PUSH2 0x480 DUP4 ADD MSTORE SWAP3 DUP5 AND PUSH2 0x4A0 DUP3 ADD MSTORE SWAP3 AND PUSH2 0x4C0 SWAP1 SWAP3 ADD SWAP2 SWAP1 SWAP2 MSTORE SWAP3 SWAP2 POP POP JUMP JUMPDEST PUSH0 PUSH2 0x600 DUP3 DUP5 SUB SLT ISZERO PUSH3 0x1C08 JUMPI PUSH0 DUP1 REVERT JUMPDEST PUSH3 0x1C12 PUSH3 0x1851 JUMP JUMPDEST PUSH3 0x1C1E DUP5 DUP5 PUSH3 0x18A4 JUMP JUMPDEST DUP2 MSTORE PUSH3 0x1C30 DUP5 PUSH2 0x240 DUP6 ADD PUSH3 0x18A4 JUMP JUMPDEST PUSH1 0x20 DUP3 ADD MSTORE PUSH3 0x1C44 PUSH2 0x480 DUP5 ADD PUSH3 0x1877 JUMP JUMPDEST PUSH1 0x40 DUP3 ADD MSTORE PUSH3 0x1C58 PUSH2 0x4A0 DUP5 ADD PUSH3 0x1877 JUMP JUMPDEST PUSH1 0x60 DUP3 ADD MSTORE PUSH3 0x1C6C PUSH2 0x4C0 DUP5 ADD PUSH3 0x1877 JUMP JUMPDEST PUSH1 0x80 DUP3 ADD MSTORE PUSH3 0x1C80 PUSH2 0x4E0 DUP5 ADD PUSH3 0x1877 JUMP JUMPDEST PUSH1 0xA0 DUP3 ADD MSTORE PUSH3 0x1C94 PUSH2 0x500 DUP5 ADD PUSH3 0x1877 JUMP JUMPDEST PUSH1 0xC0 DUP3 ADD MSTORE PUSH3 0x1CA8 PUSH2 0x520 DUP5 ADD PUSH3 0x1877 JUMP JUMPDEST PUSH1 0xE0 DUP3 ADD MSTORE PUSH3 0x1CBC PUSH2 0x540 DUP5 ADD PUSH3 0x1877 JUMP JUMPDEST PUSH2 0x100 DUP3 ADD MSTORE PUSH3 0x1CD1 PUSH2 0x560 DUP5 ADD PUSH3 0x1877 JUMP JUMPDEST PUSH2 0x120 DUP3 ADD MSTORE PUSH3 0x1CE6 PUSH2 0x580 DUP5 ADD PUSH3 0x1877 JUMP JUMPDEST PUSH2 0x140 DUP3 ADD MSTORE PUSH3 0x1CFB PUSH2 0x5A0 DUP5 ADD PUSH3 0x1877 JUMP JUMPDEST PUSH2 0x160 DUP3 ADD MSTORE PUSH3 0x1D10 PUSH2 0x5C0 DUP5 ADD PUSH3 0x1877 JUMP JUMPDEST PUSH2 0x180 DUP3 ADD MSTORE PUSH3 0x1D25 PUSH2 0x5E0 DUP5 ADD PUSH3 0x1893 JUMP JUMPDEST PUSH2 0x1A0 DUP3 ADD MSTORE SWAP4 SWAP3 POP POP POP JUMP JUMPDEST PUSH4 0x4E487B71 PUSH1 0xE0 SHL PUSH0 MSTORE PUSH1 0x1 PUSH1 0x4 MSTORE PUSH1 0x24 PUSH0 REVERT JUMPDEST PUSH4 0x4E487B71 PUSH1 0xE0 SHL PUSH0 MSTORE PUSH1 0x11 PUSH1 0x4 MSTORE PUSH1 0x24 PUSH0 REVERT JUMPDEST PUSH1 0x1 DUP2 DUP2 JUMPDEST DUP1 DUP6 GT ISZERO PUSH3 0x1D9A JUMPI DUP2 PUSH0 NOT DIV DUP3 GT ISZERO PUSH3 0x1D7E JUMPI PUSH3 0x1D7E PUSH3 0x1D46 JUMP JUMPDEST DUP1 DUP6 AND ISZERO PUSH3 0x1D8C JUMPI SWAP2 DUP2 MUL SWAP2 JUMPDEST SWAP4 DUP5 SHR SWAP4 SWAP1 DUP1 MUL SWAP1 PUSH3 0x1D5F JUMP JUMPDEST POP SWAP3 POP SWAP3 SWAP1 POP JUMP JUMPDEST PUSH0 DUP3 PUSH3 0x1DB2 JUMPI POP PUSH1 0x1 PUSH3 0x1E4F JUMP JUMPDEST DUP2 PUSH3 0x1DC0 JUMPI POP PUSH0 PUSH3 0x1E4F JUMP JUMPDEST DUP2 PUSH1 0x1 DUP2 EQ PUSH3 0x1DD9 JUMPI PUSH1 0x2 DUP2 EQ PUSH3 0x1DE4 JUMPI PUSH3 0x1E04 JUMP JUMPDEST PUSH1 0x1 SWAP2 POP POP PUSH3 0x1E4F JUMP JUMPDEST PUSH1 0xFF DUP5 GT ISZERO PUSH3 0x1DF8 JUMPI PUSH3 0x1DF8 PUSH3 0x1D46 JUMP JUMPDEST POP POP PUSH1 0x1 DUP3 SHL PUSH3 0x1E4F JUMP JUMPDEST POP PUSH1 0x20 DUP4 LT PUSH2 0x133 DUP4 LT AND PUSH1 0x4E DUP5 LT PUSH1 0xB DUP5 LT AND OR ISZERO PUSH3 0x1E29 JUMPI POP DUP2 DUP2 EXP PUSH3 0x1E4F JUMP JUMPDEST PUSH3 0x1E35 DUP4 DUP4 PUSH3 0x1D5A JUMP JUMPDEST DUP1 PUSH0 NOT DIV DUP3 GT ISZERO PUSH3 0x1E4B JUMPI PUSH3 0x1E4B PUSH3 0x1D46 JUMP JUMPDEST MUL SWAP1 POP JUMPDEST SWAP3 SWAP2 POP POP JUMP JUMPDEST PUSH0 PUSH3 0x1A40 PUSH1 0xFF DUP5 AND DUP4 PUSH3 0x1DA2 JUMP JUMPDEST DUP1 DUP3 MUL DUP2 ISZERO DUP3 DUP3 DIV DUP5 EQ OR PUSH3 0x1E4F JUMPI PUSH3 0x1E4F PUSH3 0x1D46 JUMP JUMPDEST PUSH0 PUSH1 0x20 DUP3 DUP5 SUB SLT ISZERO PUSH3 0x1E90 JUMPI PUSH0 DUP1 REVERT JUMPDEST PUSH3 0x1A40 DUP3 PUSH3 0x1877 JUMP JUMPDEST DUP1 DUP3 ADD DUP1 DUP3 GT ISZERO PUSH3 0x1E4F JUMPI PUSH3 0x1E4F PUSH3 0x1D46 JUMP JUMPDEST PUSH2 0x23A3 DUP1 PUSH3 0x1EBF PUSH0 CODECOPY PUSH0 RETURN INVALID PUSH1 0x80 PUSH1 0x40 MSTORE CALLVALUE DUP1 ISZERO PUSH2 0xF JUMPI PUSH0 DUP1 REVERT JUMPDEST POP PUSH1 0x4 CALLDATASIZE LT PUSH2 0x13D JUMPI PUSH0 CALLDATALOAD PUSH1 0xE0 SHR DUP1 PUSH4 0x82BF4C54 GT PUSH2 0xB4 JUMPI DUP1 PUSH4 0xA5D16C29 GT PUSH2 0x79 JUMPI DUP1 PUSH4 0xA5D16C29 EQ PUSH2 0x270 JUMPI DUP1 PUSH4 0xA9059CBB EQ PUSH2 0x283 JUMPI DUP1 PUSH4 0xD805B650 EQ PUSH2 0x296 JUMPI DUP1 PUSH4 0xDD62ED3E EQ PUSH2 0x2B6 JUMPI DUP1 PUSH4 0xF2FDE38B EQ PUSH2 0x2C9 JUMPI DUP1 PUSH4 0xFD2D8083 EQ PUSH2 0x2DC JUMPI PUSH0 DUP1 REVERT JUMPDEST DUP1 PUSH4 0x82BF4C54 EQ PUSH2 0x221 JUMPI DUP1 PUSH4 0x8DA5CB5B EQ PUSH2 0x229 JUMPI DUP1 PUSH4 0x919F5311 EQ PUSH2 0x242 JUMPI DUP1 PUSH4 0x95D89B41 EQ PUSH2 0x255 JUMPI DUP1 PUSH4 0x9F7574B5 EQ PUSH2 0x25D JUMPI PUSH0 DUP1 REVERT JUMPDEST DUP1 PUSH4 0x313CE567 GT PUSH2 0x105 JUMPI DUP1 PUSH4 0x313CE567 EQ PUSH2 0x1BC JUMPI DUP1 PUSH4 0x42966C68 EQ PUSH2 0x1CB JUMPI DUP1 PUSH4 0x70A08231 EQ PUSH2 0x1E0 JUMPI DUP1 PUSH4 0x715018A6 EQ PUSH2 0x1F3 JUMPI DUP1 PUSH4 0x79CC6790 EQ PUSH2 0x1FB JUMPI DUP1 PUSH4 0x7D1F22BA EQ PUSH2 0x20E JUMPI PUSH0 DUP1 REVERT JUMPDEST DUP1 PUSH4 0x6FDDE03 EQ PUSH2 0x141 JUMPI DUP1 PUSH4 0x95EA7B3 EQ PUSH2 0x15F JUMPI DUP1 PUSH4 0x1686F265 EQ PUSH2 0x182 JUMPI DUP1 PUSH4 0x18160DDD EQ PUSH2 0x197 JUMPI DUP1 PUSH4 0x23B872DD EQ PUSH2 0x1A9 JUMPI JUMPDEST PUSH0 DUP1 REVERT JUMPDEST PUSH2 0x149 PUSH2 0x2EF JUMP JUMPDEST PUSH1 0x40 MLOAD PUSH2 0x156 SWAP2 SWAP1 PUSH2 0x1D6C JUMP JUMPDEST PUSH1 0x40 MLOAD DUP1 SWAP2 SUB SWAP1 RETURN JUMPDEST PUSH2 0x172 PUSH2 0x16D CALLDATASIZE PUSH1 0x4 PUSH2 0x1DD2 JUMP JUMPDEST PUSH2 0x37F JUMP JUMPDEST PUSH1 0x40 MLOAD SWAP1 ISZERO ISZERO DUP2 MSTORE PUSH1 0x20 ADD PUSH2 0x156 JUMP JUMPDEST PUSH2 0x18A PUSH2 0x398 JUMP JUMPDEST PUSH1 0x40 MLOAD PUSH2 0x156 SWAP2 SWAP1 PUSH2 0x1F5A JUMP JUMPDEST PUSH1 0x2 SLOAD JUMPDEST PUSH1 0x40 MLOAD SWAP1 DUP2 MSTORE PUSH1 0x20 ADD PUSH2 0x156 JUMP JUMPDEST PUSH2 0x172 PUSH2 0x1B7 CALLDATASIZE PUSH1 0x4 PUSH2 0x2031 JUMP JUMPDEST PUSH2 0xC61 JUMP JUMPDEST PUSH1 0x40 MLOAD PUSH1 0x12 DUP2 MSTORE PUSH1 0x20 ADD PUSH2 0x156 JUMP JUMPDEST PUSH2 0x1DE PUSH2 0x1D9 CALLDATASIZE PUSH1 0x4 PUSH2 0x206A JUMP JUMPDEST PUSH2 0xC84 JUMP JUMPDEST STOP JUMPDEST PUSH2 0x19B PUSH2 0x1EE CALLDATASIZE PUSH1 0x4 PUSH2 0x2081 JUMP JUMPDEST PUSH2 0xC91 JUMP JUMPDEST PUSH2 0x1DE PUSH2 0xCAB JUMP JUMPDEST PUSH2 0x1DE PUSH2 0x209 CALLDATASIZE PUSH1 0x4 PUSH2 0x1DD2 JUMP JUMPDEST PUSH2 0xCBE JUMP JUMPDEST PUSH2 0x1DE PUSH2 0x21C CALLDATASIZE PUSH1 0x4 PUSH2 0x20A1 JUMP JUMPDEST PUSH2 0xCD7 JUMP JUMPDEST PUSH2 0x19B PUSH2 0xE67 JUMP JUMPDEST PUSH1 0x5 SLOAD PUSH1 0x1 PUSH1 0x1 PUSH1 0xA0 SHL SUB AND PUSH1 0x40 MLOAD PUSH2 0x156 SWAP2 SWAP1 PUSH2 0x20C4 JUMP JUMPDEST PUSH2 0x1DE PUSH2 0x250 CALLDATASIZE PUSH1 0x4 PUSH2 0x20A1 JUMP JUMPDEST PUSH2 0xE8C JUMP JUMPDEST PUSH2 0x149 PUSH2 0xFFF JUMP JUMPDEST PUSH2 0x1DE PUSH2 0x26B CALLDATASIZE PUSH1 0x4 PUSH2 0x20A1 JUMP JUMPDEST PUSH2 0x100E JUMP JUMPDEST PUSH2 0x1DE PUSH2 0x27E CALLDATASIZE PUSH1 0x4 PUSH2 0x20A1 JUMP JUMPDEST PUSH2 0x117D JUMP JUMPDEST PUSH2 0x172 PUSH2 0x291 CALLDATASIZE PUSH1 0x4 PUSH2 0x1DD2 JUMP JUMPDEST PUSH2 0x12E4 JUMP JUMPDEST PUSH2 0x29E PUSH2 0x12F1 JUMP JUMPDEST PUSH1 0x40 MLOAD PUSH1 0x1 PUSH1 0x1 PUSH1 0x40 SHL SUB SWAP1 SWAP2 AND DUP2 MSTORE PUSH1 0x20 ADD PUSH2 0x156 JUMP JUMPDEST PUSH2 0x19B PUSH2 0x2C4 CALLDATASIZE PUSH1 0x4 PUSH2 0x20D8 JUMP JUMPDEST PUSH2 0x1497 JUMP JUMPDEST PUSH2 0x1DE PUSH2 0x2D7 CALLDATASIZE PUSH1 0x4 PUSH2 0x2081 JUMP JUMPDEST PUSH2 0x14C1 JUMP JUMPDEST PUSH2 0x1DE PUSH2 0x2EA CALLDATASIZE PUSH1 0x4 PUSH2 0x20A1 JUMP JUMPDEST PUSH2 0x14FB JUMP JUMPDEST PUSH1 0x60 PUSH1 0x3 DUP1 SLOAD PUSH2 0x2FE SWAP1 PUSH2 0x2109 JUMP JUMPDEST DUP1 PUSH1 0x1F ADD PUSH1 0x20 DUP1 SWAP2 DIV MUL PUSH1 0x20 ADD PUSH1 0x40 MLOAD SWAP1 DUP2 ADD PUSH1 0x40 MSTORE DUP1 SWAP3 SWAP2 SWAP1 DUP2 DUP2 MSTORE PUSH1 0x20 ADD DUP3 DUP1 SLOAD PUSH2 0x32A SWAP1 PUSH2 0x2109 JUMP JUMPDEST DUP1 ISZERO PUSH2 0x375 JUMPI DUP1 PUSH1 0x1F LT PUSH2 0x34C JUMPI PUSH2 0x100 DUP1 DUP4 SLOAD DIV MUL DUP4 MSTORE SWAP2 PUSH1 0x20 ADD SWAP2 PUSH2 0x375 JUMP JUMPDEST DUP3 ADD SWAP2 SWAP1 PUSH0 MSTORE PUSH1 0x20 PUSH0 KECCAK256 SWAP1 JUMPDEST DUP2 SLOAD DUP2 MSTORE SWAP1 PUSH1 0x1 ADD SWAP1 PUSH1 0x20 ADD DUP1 DUP4 GT PUSH2 0x358 JUMPI DUP3 SWAP1 SUB PUSH1 0x1F AND DUP3 ADD SWAP2 JUMPDEST POP POP POP POP POP SWAP1 POP SWAP1 JUMP JUMPDEST PUSH0 CALLER PUSH2 0x38C DUP2 DUP6 DUP6 PUSH2 0x167B JUMP JUMPDEST PUSH1 0x1 SWAP2 POP POP JUMPDEST SWAP3 SWAP2 POP POP JUMP JUMPDEST PUSH2 0x3A0 PUSH2 0x1C5A JUMP JUMPDEST PUSH1 0x6 PUSH1 0x40 MLOAD DUP1 PUSH2 0x1C0 ADD PUSH1 0x40 MSTORE SWAP1 DUP2 PUSH0 DUP3 ADD PUSH1 0x40 MLOAD DUP1 PUSH2 0x240 ADD PUSH1 0x40 MSTORE SWAP1 DUP2 PUSH0 DUP3 ADD PUSH0 SWAP1 SLOAD SWAP1 PUSH2 0x100 EXP SWAP1 DIV PUSH1 0x1 PUSH1 0x1 PUSH1 0x40 SHL SUB AND PUSH1 0x1 PUSH1 0x1 PUSH1 0x40 SHL SUB AND PUSH1 0x1 PUSH1 0x1 PUSH1 0x40 SHL SUB AND DUP2 MSTORE PUSH1 0x20 ADD PUSH0 DUP3 ADD PUSH1 0x8 SWAP1 SLOAD SWAP1 PUSH2 0x100 EXP SWAP1 DIV PUSH1 0x1 PUSH1 0x1 PUSH1 0x40 SHL SUB AND PUSH1 0x1 PUSH1 0x1 PUSH1 0x40 SHL SUB AND PUSH1 0x1 PUSH1 0x1 PUSH1 0x40 SHL SUB AND DUP2 MSTORE PUSH1 0x20 ADD PUSH0 DUP3 ADD PUSH1 0x10 SWAP1 SLOAD SWAP1 PUSH2 0x100 EXP SWAP1 DIV PUSH1 0x1 PUSH1 0x1 PUSH1 0x40 SHL SUB AND PUSH1 0x1 PUSH1 0x1 PUSH1 0x40 SHL SUB AND PUSH1 0x1 PUSH1 0x1 PUSH1 0x40 SHL SUB AND DUP2 MSTORE PUSH1 0x20 ADD PUSH0 DUP3 ADD PUSH1 0x18 SWAP1 SLOAD SWAP1 PUSH2 0x100 EXP SWAP1 DIV PUSH1 0x1 PUSH1 0x1 PUSH1 0x40 SHL SUB AND PUSH1 0x1 PUSH1 0x1 PUSH1 0x40 SHL SUB AND PUSH1 0x1 PUSH1 0x1 PUSH1 0x40 SHL SUB AND DUP2 MSTORE PUSH1 0x20 ADD PUSH1 0x1 DUP3 ADD PUSH0 SWAP1 SLOAD SWAP1 PUSH2 0x100 EXP SWAP1 DIV PUSH1 0x1 PUSH1 0x1 PUSH1 0x40 SHL SUB AND PUSH1 0x1 PUSH1 0x1 PUSH1 0x40 SHL SUB AND PUSH1 0x1 PUSH1 0x1 PUSH1 0x40 SHL SUB AND DUP2 MSTORE PUSH1 0x20 ADD PUSH1 0x1 DUP3 ADD PUSH1 0x8 SWAP1 SLOAD SWAP1 PUSH2 0x100 EXP SWAP1 DIV PUSH1 0x1 PUSH1 0x1 PUSH1 0x40 SHL SUB AND PUSH1 0x1 PUSH1 0x1 PUSH1 0x40 SHL SUB AND PUSH1 0x1 PUSH1 0x1 PUSH1 0x40 SHL SUB AND DUP2 MSTORE PUSH1 0x20 ADD PUSH1 0x1 DUP3 ADD PUSH1 0x10 SWAP1 SLOAD SWAP1 PUSH2 0x100 EXP SWAP1 DIV PUSH1 0x1 PUSH1 0x1 PUSH1 0x40 SHL SUB AND PUSH1 0x1 PUSH1 0x1 PUSH1 0x40 SHL SUB AND PUSH1 0x1 PUSH1 0x1 PUSH1 0x40 SHL SUB AND DUP2 MSTORE PUSH1 0x20 ADD PUSH1 0x1 DUP3 ADD PUSH1 0x18 SWAP1 SLOAD SWAP1 PUSH2 0x100 EXP SWAP1 DIV PUSH1 0x1 PUSH1 0x1 PUSH1 0x40 SHL SUB AND PUSH1 0x1 PUSH1 0x1 PUSH1 0x40 SHL SUB AND PUSH1 0x1 PUSH1 0x1 PUSH1 0x40 SHL SUB AND DUP2 MSTORE PUSH1 0x20 ADD PUSH1 0x2 DUP3 ADD PUSH0 SWAP1 SLOAD SWAP1 PUSH2 0x100 EXP SWAP1 DIV PUSH1 0x1 PUSH1 0x1 PUSH1 0x40 SHL SUB AND PUSH1 0x1 PUSH1 0x1 PUSH1 0x40 SHL SUB AND PUSH1 0x1 PUSH1 0x1 PUSH1 0x40 SHL SUB AND DUP2 MSTORE PUSH1 0x20 ADD PUSH1 0x2 DUP3 ADD PUSH1 0x8 SWAP1 SLOAD SWAP1 PUSH2 0x100 EXP SWAP1 DIV PUSH1 0x1 PUSH1 0x1 PUSH1 0x40 SHL SUB AND PUSH1 0x1 PUSH1 0x1 PUSH1 0x40 SHL SUB AND PUSH1 0x1 PUSH1 0x1 PUSH1 0x40 SHL SUB AND DUP2 MSTORE PUSH1 0x20 ADD PUSH1 0x2 DUP3 ADD PUSH1 0x10 SWAP1 SLOAD SWAP1 PUSH2 0x100 EXP SWAP1 DIV PUSH1 0x1 PUSH1 0x1 PUSH1 0x40 SHL SUB AND PUSH1 0x1 PUSH1 0x1 PUSH1 0x40 SHL SUB AND PUSH1 0x1 PUSH1 0x1 PUSH1 0x40 SHL SUB AND DUP2 MSTORE PUSH1 0x20 ADD PUSH1 0x2 DUP3 ADD PUSH1 0x18 SWAP1 SLOAD SWAP1 PUSH2 0x100 EXP SWAP1 DIV PUSH1 0x1 PUSH1 0x1 PUSH1 0x40 SHL SUB AND PUSH1 0x1 PUSH1 0x1 PUSH1 0x40 SHL SUB AND PUSH1 0x1 PUSH1 0x1 PUSH1 0x40 SHL SUB AND DUP2 MSTORE PUSH1 0x20 ADD PUSH1 0x3 DUP3 ADD PUSH0 SWAP1 SLOAD SWAP1 PUSH2 0x100 EXP SWAP1 DIV PUSH1 0x1 PUSH1 0x1 PUSH1 0x40 SHL SUB AND PUSH1 0x1 PUSH1 0x1 PUSH1 0x40 SHL SUB AND PUSH1 0x1 PUSH1 0x1 PUSH1 0x40 SHL SUB AND DUP2 MSTORE PUSH1 0x20 ADD PUSH1 0x3 DUP3 ADD PUSH1 0x8 SWAP1 SLOAD SWAP1 PUSH2 0x100 EXP SWAP1 DIV PUSH1 0x1 PUSH1 0x1 PUSH1 0x40 SHL SUB AND PUSH1 0x1 PUSH1 0x1 PUSH1 0x40 SHL SUB AND PUSH1 0x1 PUSH1 0x1 PUSH1 0x40 SHL SUB AND DUP2 MSTORE PUSH1 0x20 ADD PUSH1 0x3 DUP3 ADD PUSH1 0x10 SWAP1 SLOAD SWAP1 PUSH2 0x100 EXP SWAP1 DIV PUSH1 0x1 PUSH1 0x1 PUSH1 0x40 SHL SUB AND PUSH1 0x1 PUSH1 0x1 PUSH1 0x40 SHL SUB AND PUSH1 0x1 PUSH1 0x1 PUSH1 0x40 SHL SUB AND DUP2 MSTORE PUSH1 0x20 ADD PUSH1 0x3 DUP3 ADD PUSH1 0x18 SWAP1 SLOAD SWAP1 PUSH2 0x100 EXP SWAP1 DIV PUSH1 0x1 PUSH1 0x1 PUSH1 0x40 SHL SUB AND PUSH1 0x1 PUSH1 0x1 PUSH1 0x40 SHL SUB AND PUSH1 0x1 PUSH1 0x1 PUSH1 0x40 SHL SUB AND DUP2 MSTORE PUSH1 0x20 ADD PUSH1 0x4 DUP3 ADD PUSH0 SWAP1 SLOAD SWAP1 PUSH2 0x100 EXP SWAP1 DIV PUSH1 0x1 PUSH1 0x1 PUSH1 0x40 SHL SUB AND PUSH1 0x1 PUSH1 0x1 PUSH1 0x40 SHL SUB AND PUSH1 0x1 PUSH1 0x1 PUSH1 0x40 SHL SUB AND DUP2 MSTORE PUSH1 0x20 ADD PUSH1 0x4 DUP3 ADD PUSH1 0x8 SWAP1 SLOAD SWAP1 PUSH2 0x100 EXP SWAP1 DIV PUSH1 0xFF AND PUSH1 0xFF AND PUSH1 0xFF AND DUP2 MSTORE POP POP DUP2 MSTORE PUSH1 0x20 ADD PUSH1 0x5 DUP3 ADD PUSH1 0x40 MLOAD DUP1 PUSH2 0x240 ADD PUSH1 0x40 MSTORE SWAP1 DUP2 PUSH0 DUP3 ADD PUSH0 SWAP1 SLOAD SWAP1 PUSH2 0x100 EXP SWAP1 DIV PUSH1 0x1 PUSH1 0x1 PUSH1 0x40 SHL SUB AND PUSH1 0x1 PUSH1 0x1 PUSH1 0x40 SHL SUB AND PUSH1 0x1 PUSH1 0x1 PUSH1 0x40 SHL SUB AND DUP2 MSTORE PUSH1 0x20 ADD PUSH0 DUP3 ADD PUSH1 0x8 SWAP1 SLOAD SWAP1 PUSH2 0x100 EXP SWAP1 DIV PUSH1 0x1 PUSH1 0x1 PUSH1 0x40 SHL SUB AND PUSH1 0x1 PUSH1 0x1 PUSH1 0x40 SHL SUB AND PUSH1 0x1 PUSH1 0x1 PUSH1 0x40 SHL SUB AND DUP2 MSTORE PUSH1 0x20 ADD PUSH0 DUP3 ADD PUSH1 0x10 SWAP1 SLOAD SWAP1 PUSH2 0x100 EXP SWAP1 DIV PUSH1 0x1 PUSH1 0x1 PUSH1 0x40 SHL SUB AND PUSH1 0x1 PUSH1 0x1 PUSH1 0x40 SHL SUB AND PUSH1 0x1 PUSH1 0x1 PUSH1 0x40 SHL SUB AND DUP2 MSTORE PUSH1 0x20 ADD PUSH0 DUP3 ADD PUSH1 0x18 SWAP1 SLOAD SWAP1 PUSH2 0x100 EXP SWAP1 DIV PUSH1 0x1 PUSH1 0x1 PUSH1 0x40 SHL SUB AND PUSH1 0x1 PUSH1 0x1 PUSH1 0x40 SHL SUB AND PUSH1 0x1 PUSH1 0x1 PUSH1 0x40 SHL SUB AND DUP2 MSTORE PUSH1 0x20 ADD PUSH1 0x1 DUP3 ADD PUSH0 SWAP1 SLOAD SWAP1 PUSH2 0x100 EXP SWAP1 DIV PUSH1 0x1 PUSH1 0x1 PUSH1 0x40 SHL SUB AND PUSH1 0x1 PUSH1 0x1 PUSH1 0x40 SHL SUB AND PUSH1 0x1 PUSH1 0x1 PUSH1 0x40 SHL SUB AND DUP2 MSTORE PUSH1 0x20 ADD PUSH1 0x1 DUP3 ADD PUSH1 0x8 SWAP1 SLOAD SWAP1 PUSH2 0x100 EXP SWAP1 DIV PUSH1 0x1 PUSH1 0x1 PUSH1 0x40 SHL SUB AND PUSH1 0x1 PUSH1 0x1 PUSH1 0x40 SHL SUB AND PUSH1 0x1 PUSH1 0x1 PUSH1 0x40 SHL SUB AND DUP2 MSTORE PUSH1 0x20 ADD PUSH1 0x1 DUP3 ADD PUSH1 0x10 SWAP1 SLOAD SWAP1 PUSH2 0x100 EXP SWAP1 DIV PUSH1 0x1 PUSH1 0x1 PUSH1 0x40 SHL SUB AND PUSH1 0x1 PUSH1 0x1 PUSH1 0x40 SHL SUB AND PUSH1 0x1 PUSH1 0x1 PUSH1 0x40 SHL SUB AND DUP2 MSTORE PUSH1 0x20 ADD PUSH1 0x1 DUP3 ADD PUSH1 0x18 SWAP1 SLOAD SWAP1 PUSH2 0x100 EXP SWAP1 DIV PUSH1 0x1 PUSH1 0x1 PUSH1 0x40 SHL SUB AND PUSH1 0x1 PUSH1 0x1 PUSH1 0x40 SHL SUB AND PUSH1 0x1 PUSH1 0x1 PUSH1 0x40 SHL SUB AND DUP2 MSTORE PUSH1 0x20 ADD PUSH1 0x2 DUP3 ADD PUSH0 SWAP1 SLOAD SWAP1 PUSH2 0x100 EXP SWAP1 DIV PUSH1 0x1 PUSH1 0x1 PUSH1 0x40 SHL SUB AND PUSH1 0x1 PUSH1 0x1 PUSH1 0x40 SHL SUB AND PUSH1 0x1 PUSH1 0x1 PUSH1 0x40 SHL SUB AND DUP2 MSTORE PUSH1 0x20 ADD PUSH1 0x2 DUP3 ADD PUSH1 0x8 SWAP1 SLOAD SWAP1 PUSH2 0x100 EXP SWAP1 DIV PUSH1 0x1 PUSH1 0x1 PUSH1 0x40 SHL SUB AND PUSH1 0x1 PUSH1 0x1 PUSH1 0x40 SHL SUB AND PUSH1 0x1 PUSH1 0x1 PUSH1 0x40 SHL SUB AND DUP2 MSTORE PUSH1 0x20 ADD PUSH1 0x2 DUP3 ADD PUSH1 0x10 SWAP1 SLOAD SWAP1 PUSH2 0x100 EXP SWAP1 DIV PUSH1 0x1 PUSH1 0x1 PUSH1 0x40 SHL SUB AND PUSH1 0x1 PUSH1 0x1 PUSH1 0x40 SHL SUB AND PUSH1 0x1 PUSH1 0x1 PUSH1 0x40 SHL SUB AND DUP2 MSTORE PUSH1 0x20 ADD PUSH1 0x2 DUP3 ADD PUSH1 0x18 SWAP1 SLOAD SWAP1 PUSH2 0x100 EXP SWAP1 DIV PUSH1 0x1 PUSH1 0x1 PUSH1 0x40 SHL SUB AND PUSH1 0x1 PUSH1 0x1 PUSH1 0x40 SHL SUB AND PUSH1 0x1 PUSH1 0x1 PUSH1 0x40 SHL SUB AND DUP2 MSTORE PUSH1 0x20 ADD PUSH1 0x3 DUP3 ADD PUSH0 SWAP1 SLOAD SWAP1 PUSH2 0x100 EXP SWAP1 DIV PUSH1 0x1 PUSH1 0x1 PUSH1 0x40 SHL SUB AND PUSH1 0x1 PUSH1 0x1 PUSH1 0x40 SHL SUB AND PUSH1 0x1 PUSH1 0x1 PUSH1 0x40 SHL SUB AND DUP2 MSTORE PUSH1 0x20 ADD PUSH1 0x3 DUP3 ADD PUSH1 0x8 SWAP1 SLOAD SWAP1 PUSH2 0x100 EXP SWAP1 DIV PUSH1 0x1 PUSH1 0x1 PUSH1 0x40 SHL SUB AND PUSH1 0x1 PUSH1 0x1 PUSH1 0x40 SHL SUB AND PUSH1 0x1 PUSH1 0x1 PUSH1 0x40 SHL SUB AND DUP2 MSTORE PUSH1 0x20 ADD PUSH1 0x3 DUP3 ADD PUSH1 0x10 SWAP1 SLOAD SWAP1 PUSH2 0x100 EXP SWAP1 DIV PUSH1 0x1 PUSH1 0x1 PUSH1 0x40 SHL SUB AND PUSH1 0x1 PUSH1 0x1 PUSH1 0x40 SHL SUB AND PUSH1 0x1 PUSH1 0x1 PUSH1 0x40 SHL SUB AND DUP2 MSTORE PUSH1 0x20 ADD PUSH1 0x3 DUP3 ADD PUSH1 0x18 SWAP1 SLOAD SWAP1 PUSH2 0x100 EXP SWAP1 DIV PUSH1 0x1 PUSH1 0x1 PUSH1 0x40 SHL SUB AND PUSH1 0x1 PUSH1 0x1 PUSH1 0x40 SHL SUB AND PUSH1 0x1 PUSH1 0x1 PUSH1 0x40 SHL SUB AND DUP2 MSTORE PUSH1 0x20 ADD PUSH1 0x4 DUP3 ADD PUSH0 SWAP1 SLOAD SWAP1 PUSH2 0x100 EXP SWAP1 DIV PUSH1 0x1 PUSH1 0x1 PUSH1 0x40 SHL SUB AND PUSH1 0x1 PUSH1 0x1 PUSH1 0x40 SHL SUB AND PUSH1 0x1 PUSH1 0x1 PUSH1 0x40 SHL SUB AND DUP2 MSTORE PUSH1 0x20 ADD PUSH1 0x4 DUP3 ADD PUSH1 0x8 SWAP1 SLOAD SWAP1 PUSH2 0x100 EXP SWAP1 DIV PUSH1 0xFF AND PUSH1 0xFF AND PUSH1 0xFF AND DUP2 MSTORE POP POP DUP2 MSTORE PUSH1 0x20 ADD PUSH1 0xA DUP3 ADD PUSH0 SWAP1 SLOAD SWAP1 PUSH2 0x100 EXP SWAP1 DIV PUSH1 0x1 PUSH1 0x1 PUSH1 0x40 SHL SUB AND PUSH1 0x1 PUSH1 0x1 PUSH1 0x40 SHL SUB AND PUSH1 0x1 PUSH1 0x1 PUSH1 0x40 SHL SUB AND DUP2 MSTORE PUSH1 0x20 ADD PUSH1 0xA DUP3 ADD PUSH1 0x8 SWAP1 SLOAD SWAP1 PUSH2 0x100 EXP SWAP1 DIV PUSH1 0x1 PUSH1 0x1 PUSH1 0x40 SHL SUB AND PUSH1 0x1 PUSH1 0x1 PUSH1 0x40 SHL SUB AND PUSH1 0x1 PUSH1 0x1 PUSH1 0x40 SHL SUB AND DUP2 MSTORE PUSH1 0x20 ADD PUSH1 0xA DUP3 ADD PUSH1 0x10 SWAP1 SLOAD SWAP1 PUSH2 0x100 EXP SWAP1 DIV PUSH1 0x1 PUSH1 0x1 PUSH1 0x40 SHL SUB AND PUSH1 0x1 PUSH1 0x1 PUSH1 0x40 SHL SUB AND PUSH1 0x1 PUSH1 0x1 PUSH1 0x40 SHL SUB AND DUP2 MSTORE PUSH1 0x20 ADD PUSH1 0xA DUP3 ADD PUSH1 0x18 SWAP1 SLOAD SWAP1 PUSH2 0x100 EXP SWAP1 DIV PUSH1 0x1 PUSH1 0x1 PUSH1 0x40 SHL SUB AND PUSH1 0x1 PUSH1 0x1 PUSH1 0x40 SHL SUB AND PUSH1 0x1 PUSH1 0x1 PUSH1 0x40 SHL SUB AND DUP2 MSTORE PUSH1 0x20 ADD PUSH1 0xB DUP3 ADD PUSH0 SWAP1 SLOAD SWAP1 PUSH2 0x100 EXP SWAP1 DIV PUSH1 0x1 PUSH1 0x1 PUSH1 0x40 SHL SUB AND PUSH1 0x1 PUSH1 0x1 PUSH1 0x40 SHL SUB AND PUSH1 0x1 PUSH1 0x1 PUSH1 0x40 SHL SUB AND DUP2 MSTORE PUSH1 0x20 ADD PUSH1 0xB DUP3 ADD PUSH1 0x8 SWAP1 SLOAD SWAP1 PUSH2 0x100 EXP SWAP1 DIV PUSH1 0x1 PUSH1 0x1 PUSH1 0x40 SHL SUB AND PUSH1 0x1 PUSH1 0x1 PUSH1 0x40 SHL SUB AND PUSH1 0x1 PUSH1 0x1 PUSH1 0x40 SHL SUB AND DUP2 MSTORE PUSH1 0x20 ADD PUSH1 0xB DUP3 ADD PUSH1 0x10 SWAP1 SLOAD SWAP1 PUSH2 0x100 EXP SWAP1 DIV PUSH1 0x1 PUSH1 0x1 PUSH1 0x40 SHL SUB AND PUSH1 0x1 PUSH1 0x1 PUSH1 0x40 SHL SUB AND PUSH1 0x1 PUSH1 0x1 PUSH1 0x40 SHL SUB AND DUP2 MSTORE PUSH1 0x20 ADD PUSH1 0xB DUP3 ADD PUSH1 0x18 SWAP1 SLOAD SWAP1 PUSH2 0x100 EXP SWAP1 DIV PUSH1 0x1 PUSH1 0x1 PUSH1 0x40 SHL SUB AND PUSH1 0x1 PUSH1 0x1 PUSH1 0x40 SHL SUB AND PUSH1 0x1 PUSH1 0x1 PUSH1 0x40 SHL SUB AND DUP2 MSTORE PUSH1 0x20 ADD PUSH1 0xC DUP3 ADD PUSH0 SWAP1 SLOAD SWAP1 PUSH2 0x100 EXP SWAP1 DIV PUSH1 0x1 PUSH1 0x1 PUSH1 0x40 SHL SUB AND PUSH1 0x1 PUSH1 0x1 PUSH1 0x40 SHL SUB AND PUSH1 0x1 PUSH1 0x1 PUSH1 0x40 SHL SUB AND DUP2 MSTORE PUSH1 0x20 ADD PUSH1 0xC DUP3 ADD PUSH1 0x8 SWAP1 SLOAD SWAP1 PUSH2 0x100 EXP SWAP1 DIV PUSH1 0x1 PUSH1 0x1 PUSH1 0x40 SHL SUB AND PUSH1 0x1 PUSH1 0x1 PUSH1 0x40 SHL SUB AND PUSH1 0x1 PUSH1 0x1 PUSH1 0x40 SHL SUB AND DUP2 MSTORE PUSH1 0x20 ADD PUSH1 0xC DUP3 ADD PUSH1 0x10 SWAP1 SLOAD SWAP1 PUSH2 0x100 EXP SWAP1 DIV PUSH1 0x1 PUSH1 0x1 PUSH1 0x40 SHL SUB AND PUSH1 0x1 PUSH1 0x1 PUSH1 0x40 SHL SUB AND PUSH1 0x1 PUSH1 0x1 PUSH1 0x40 SHL SUB AND DUP2 MSTORE PUSH1 0x20 ADD PUSH1 0xC DUP3 ADD PUSH1 0x18 SWAP1 SLOAD SWAP1 PUSH2 0x100 EXP SWAP1 DIV PUSH1 0xFF AND PUSH1 0xFF AND PUSH1 0xFF AND DUP2 MSTORE POP POP SWAP1 POP SWAP1 JUMP JUMPDEST PUSH0 CALLER PUSH2 0xC6E DUP6 DUP3 DUP6 PUSH2 0x1688 JUMP JUMPDEST PUSH2 0xC79 DUP6 DUP6 DUP6 PUSH2 0x16D8 JUMP JUMPDEST POP PUSH1 0x1 SWAP5 SWAP4 POP POP POP POP JUMP JUMPDEST PUSH2 0xC8E CALLER DUP3 PUSH2 0x1735 JUMP JUMPDEST POP JUMP JUMPDEST PUSH1 0x1 PUSH1 0x1 PUSH1 0xA0 SHL SUB AND PUSH0 SWAP1 DUP2 MSTORE PUSH1 0x20 DUP2 SWAP1 MSTORE PUSH1 0x40 SWAP1 KECCAK256 SLOAD SWAP1 JUMP JUMPDEST PUSH2 0xCB3 PUSH2 0x1769 JUMP JUMPDEST PUSH2 0xCBC PUSH0 PUSH2 0x1796 JUMP JUMPDEST JUMP JUMPDEST PUSH2 0xCC9 DUP3 CALLER DUP4 PUSH2 0x1688 JUMP JUMPDEST PUSH2 0xCD3 DUP3 DUP3 PUSH2 0x1735 JUMP JUMPDEST POP POP JUMP JUMPDEST PUSH2 0xCE3 PUSH1 0x12 PUSH1 0xA PUSH2 0x2235 JUMP JUMPDEST PUSH2 0xCF3 SWAP1 PUSH4 0xFFFFFFFF DUP4 AND PUSH2 0x2243 JUMP JUMPDEST PUSH2 0xCFC ADDRESS PUSH2 0xC91 JUMP JUMPDEST LT ISZERO PUSH2 0xD0A JUMPI PUSH2 0xD0A PUSH2 0x225A JUMP JUMPDEST PUSH1 0x13 SLOAD PUSH1 0x40 DUP1 MLOAD PUSH4 0x313CE567 PUSH1 0xE0 SHL DUP2 MSTORE SWAP1 MLOAD PUSH0 SWAP3 PUSH1 0x1 PUSH1 0x1 PUSH1 0xA0 SHL SUB AND SWAP2 PUSH4 0x23B872DD SWAP2 CALLER SWAP2 ADDRESS SWAP2 DUP6 SWAP2 PUSH4 0x313CE567 SWAP2 PUSH1 0x4 DUP1 DUP4 ADD SWAP3 PUSH1 0x20 SWAP3 SWAP2 SWAP1 DUP3 SWAP1 SUB ADD DUP2 DUP7 GAS STATICCALL ISZERO DUP1 ISZERO PUSH2 0xD5D JUMPI RETURNDATASIZE PUSH0 DUP1 RETURNDATACOPY RETURNDATASIZE PUSH0 REVERT JUMPDEST POP POP POP POP PUSH1 0x40 MLOAD RETURNDATASIZE PUSH1 0x1F NOT PUSH1 0x1F DUP3 ADD AND DUP3 ADD DUP1 PUSH1 0x40 MSTORE POP DUP2 ADD SWAP1 PUSH2 0xD81 SWAP2 SWAP1 PUSH2 0x226E JUMP JUMPDEST PUSH2 0xD8C SWAP1 PUSH1 0xA PUSH2 0x2235 JUMP JUMPDEST PUSH2 0xD9C SWAP1 PUSH4 0xFFFFFFFF DUP9 AND PUSH2 0x2243 JUMP JUMPDEST PUSH1 0x40 MLOAD DUP5 PUSH4 0xFFFFFFFF AND PUSH1 0xE0 SHL DUP2 MSTORE PUSH1 0x4 ADD PUSH2 0xDBA SWAP4 SWAP3 SWAP2 SWAP1 PUSH2 0x228E JUMP JUMPDEST PUSH1 0x20 PUSH1 0x40 MLOAD DUP1 DUP4 SUB DUP2 PUSH0 DUP8 GAS CALL ISZERO DUP1 ISZERO PUSH2 0xDD6 JUMPI RETURNDATASIZE PUSH0 DUP1 RETURNDATACOPY RETURNDATASIZE PUSH0 REVERT JUMPDEST POP POP POP POP PUSH1 0x40 MLOAD RETURNDATASIZE PUSH1 0x1F NOT PUSH1 0x1F DUP3 ADD AND DUP3 ADD DUP1 PUSH1 0x40 MSTORE POP DUP2 ADD SWAP1 PUSH2 0xDFA SWAP2 SWAP1 PUSH2 0x22B2 JUMP JUMPDEST SWAP1 POP DUP1 PUSH2 0xE42 JUMPI PUSH1 0x40 MLOAD PUSH3 0x461BCD PUSH1 0xE5 SHL DUP2 MSTORE PUSH1 0x20 PUSH1 0x4 DUP3 ADD MSTORE PUSH1 0x11 PUSH1 0x24 DUP3 ADD MSTORE PUSH17 0x4E65656420417070726F76656420444149 PUSH1 0x78 SHL PUSH1 0x44 DUP3 ADD MSTORE PUSH1 0x64 ADD JUMPDEST PUSH1 0x40 MLOAD DUP1 SWAP2 SUB SWAP1 REVERT JUMPDEST PUSH2 0xE62 CALLER PUSH2 0xE52 PUSH1 0x12 PUSH1 0xA PUSH2 0x2235 JUMP JUMPDEST PUSH2 0x291 SWAP1 PUSH4 0xFFFFFFFF DUP7 AND PUSH2 0x2243 JUMP JUMPDEST POP POP POP JUMP JUMPDEST PUSH0 PUSH2 0xE74 PUSH1 0x12 PUSH1 0xA PUSH2 0x2235 JUMP JUMPDEST PUSH2 0xE7D ADDRESS PUSH2 0xC91 JUMP JUMPDEST PUSH2 0xE87 SWAP2 SWAP1 PUSH2 0x22D1 JUMP JUMPDEST SWAP1 POP SWAP1 JUMP JUMPDEST PUSH2 0xE98 PUSH1 0x12 PUSH1 0xA PUSH2 0x2235 JUMP JUMPDEST PUSH2 0xEA8 SWAP1 PUSH4 0xFFFFFFFF DUP4 AND PUSH2 0x2243 JUMP JUMPDEST PUSH2 0xEB1 ADDRESS PUSH2 0xC91 JUMP JUMPDEST LT ISZERO PUSH2 0xEBF JUMPI PUSH2 0xEBF PUSH2 0x225A JUMP JUMPDEST PUSH1 0x16 SLOAD PUSH1 0x40 DUP1 MLOAD PUSH4 0x313CE567 PUSH1 0xE0 SHL DUP2 MSTORE SWAP1 MLOAD PUSH0 SWAP3 PUSH1 0x1 PUSH1 0x1 PUSH1 0xA0 SHL SUB AND SWAP2 PUSH4 0x23B872DD SWAP2 CALLER SWAP2 ADDRESS SWAP2 PUSH1 0x4 SWAP2 DUP7 SWAP2 PUSH4 0x313CE567 SWAP2 DUP1 DUP6 ADD SWAP2 PUSH1 0x20 SWAP2 DUP2 SWAP1 SUB DUP7 ADD DUP2 DUP7 GAS STATICCALL ISZERO DUP1 ISZERO PUSH2 0xF12 JUMPI RETURNDATASIZE PUSH0 DUP1 RETURNDATACOPY RETURNDATASIZE PUSH0 REVERT JUMPDEST POP POP POP POP PUSH1 0x40 MLOAD RETURNDATASIZE PUSH1 0x1F NOT PUSH1 0x1F DUP3 ADD AND DUP3 ADD DUP1 PUSH1 0x40 MSTORE POP DUP2 ADD SWAP1 PUSH2 0xF36 SWAP2 SWAP1 PUSH2 0x226E JUMP JUMPDEST PUSH2 0xF41 SWAP1 PUSH1 0xA PUSH2 0x2235 JUMP JUMPDEST PUSH2 0xF51 SWAP1 PUSH4 0xFFFFFFFF DUP10 AND PUSH2 0x2243 JUMP JUMPDEST PUSH2 0xF5B SWAP2 SWAP1 PUSH2 0x22D1 JUMP JUMPDEST PUSH1 0x40 MLOAD DUP5 PUSH4 0xFFFFFFFF AND PUSH1 0xE0 SHL DUP2 MSTORE PUSH1 0x4 ADD PUSH2 0xF79 SWAP4 SWAP3 SWAP2 SWAP1 PUSH2 0x228E JUMP JUMPDEST PUSH1 0x20 PUSH1 0x40 MLOAD DUP1 DUP4 SUB DUP2 PUSH0 DUP8 GAS CALL ISZERO DUP1 ISZERO PUSH2 0xF95 JUMPI RETURNDATASIZE PUSH0 DUP1 RETURNDATACOPY RETURNDATASIZE PUSH0 REVERT JUMPDEST POP POP POP POP PUSH1 0x40 MLOAD RETURNDATASIZE PUSH1 0x1F NOT PUSH1 0x1F DUP3 ADD AND DUP3 ADD DUP1 PUSH1 0x40 MSTORE POP DUP2 ADD SWAP1 PUSH2 0xFB9 SWAP2 SWAP1 PUSH2 0x22B2 JUMP JUMPDEST SWAP1 POP DUP1 PUSH2 0xE42 JUMPI PUSH1 0x40 MLOAD PUSH3 0x461BCD PUSH1 0xE5 SHL DUP2 MSTORE PUSH1 0x20 PUSH1 0x4 DUP3 ADD MSTORE PUSH1 0x14 PUSH1 0x24 DUP3 ADD MSTORE PUSH20 0x4E65656420417070726F7665642047696D6D6535 PUSH1 0x60 SHL PUSH1 0x44 DUP3 ADD MSTORE PUSH1 0x64 ADD PUSH2 0xE39 JUMP JUMPDEST PUSH1 0x60 PUSH1 0x4 DUP1 SLOAD PUSH2 0x2FE SWAP1 PUSH2 0x2109 JUMP JUMPDEST PUSH2 0x101A PUSH1 0x12 PUSH1 0xA PUSH2 0x2235 JUMP JUMPDEST PUSH2 0x102A SWAP1 PUSH4 0xFFFFFFFF DUP4 AND PUSH2 0x2243 JUMP JUMPDEST PUSH2 0x1033 ADDRESS PUSH2 0xC91 JUMP JUMPDEST LT ISZERO PUSH2 0x1041 JUMPI PUSH2 0x1041 PUSH2 0x225A JUMP JUMPDEST PUSH1 0x15 SLOAD PUSH1 0x14 SLOAD PUSH1 0x40 DUP1 MLOAD PUSH4 0x313CE567 PUSH1 0xE0 SHL DUP2 MSTORE SWAP1 MLOAD PUSH0 SWAP4 PUSH1 0x1 PUSH1 0x1 PUSH1 0xA0 SHL SUB SWAP1 DUP2 AND SWAP4 PUSH4 0x23B872DD SWAP4 CALLER SWAP4 ADDRESS SWAP4 SWAP1 SWAP3 AND SWAP2 PUSH4 0x313CE567 SWAP2 PUSH1 0x4 DUP1 DUP3 ADD SWAP3 PUSH1 0x20 SWAP3 SWAP1 SWAP2 SWAP1 DUP3 SWAP1 SUB ADD DUP2 DUP7 GAS STATICCALL ISZERO DUP1 ISZERO PUSH2 0x109C JUMPI RETURNDATASIZE PUSH0 DUP1 RETURNDATACOPY RETURNDATASIZE PUSH0 REVERT JUMPDEST POP POP POP POP PUSH1 0x40 MLOAD RETURNDATASIZE PUSH1 0x1F NOT PUSH1 0x1F DUP3 ADD AND DUP3 ADD DUP1 PUSH1 0x40 MSTORE POP DUP2 ADD SWAP1 PUSH2 0x10C0 SWAP2 SWAP1 PUSH2 0x226E JUMP JUMPDEST PUSH2 0x10CB SWAP1 PUSH1 0xA PUSH2 0x2235 JUMP JUMPDEST PUSH2 0x10DB SWAP1 PUSH4 0xFFFFFFFF DUP9 AND PUSH2 0x2243 JUMP JUMPDEST PUSH1 0x40 MLOAD DUP5 PUSH4 0xFFFFFFFF AND PUSH1 0xE0 SHL DUP2 MSTORE PUSH1 0x4 ADD PUSH2 0x10F9 SWAP4 SWAP3 SWAP2 SWAP1 PUSH2 0x228E JUMP JUMPDEST PUSH1 0x20 PUSH1 0x40 MLOAD DUP1 DUP4 SUB DUP2 PUSH0 DUP8 GAS CALL ISZERO DUP1 ISZERO PUSH2 0x1115 JUMPI RETURNDATASIZE PUSH0 DUP1 RETURNDATACOPY RETURNDATASIZE PUSH0 REVERT JUMPDEST POP POP POP POP PUSH1 0x40 MLOAD RETURNDATASIZE PUSH1 0x1F NOT PUSH1 0x1F DUP3 ADD AND DUP3 ADD DUP1 PUSH1 0x40 MSTORE POP DUP2 ADD SWAP1 PUSH2 0x1139 SWAP2 SWAP1 PUSH2 0x22B2 JUMP JUMPDEST SWAP1 POP DUP1 PUSH2 0xE42 JUMPI PUSH1 0x40 MLOAD PUSH3 0x461BCD PUSH1 0xE5 SHL DUP2 MSTORE PUSH1 0x20 PUSH1 0x4 DUP3 ADD MSTORE PUSH1 0x12 PUSH1 0x24 DUP3 ADD MSTORE PUSH18 0x1399595908105C1C1C9BDD9959081554D115 PUSH1 0x72 SHL PUSH1 0x44 DUP3 ADD MSTORE PUSH1 0x64 ADD PUSH2 0xE39 JUMP JUMPDEST PUSH2 0x1189 PUSH1 0x12 PUSH1 0xA PUSH2 0x2235 JUMP JUMPDEST PUSH2 0x1199 SWAP1 PUSH4 0xFFFFFFFF DUP4 AND PUSH2 0x2243 JUMP JUMPDEST PUSH2 0x11A2 ADDRESS PUSH2 0xC91 JUMP JUMPDEST LT ISZERO PUSH2 0x11B0 JUMPI PUSH2 0x11B0 PUSH2 0x225A JUMP JUMPDEST PUSH1 0x14 SLOAD PUSH1 0x40 DUP1 MLOAD PUSH4 0x313CE567 PUSH1 0xE0 SHL DUP2 MSTORE SWAP1 MLOAD PUSH0 SWAP3 PUSH1 0x1 PUSH1 0x1 PUSH1 0xA0 SHL SUB AND SWAP2 PUSH4 0x23B872DD SWAP2 CALLER SWAP2 ADDRESS SWAP2 DUP6 SWAP2 PUSH4 0x313CE567 SWAP2 PUSH1 0x4 DUP1 DUP4 ADD SWAP3 PUSH1 0x20 SWAP3 SWAP2 SWAP1 DUP3 SWAP1 SUB ADD DUP2 DUP7 GAS STATICCALL ISZERO DUP1 ISZERO PUSH2 0x1203 JUMPI RETURNDATASIZE PUSH0 DUP1 RETURNDATACOPY RETURNDATASIZE PUSH0 REVERT JUMPDEST POP POP POP POP PUSH1 0x40 MLOAD RETURNDATASIZE PUSH1 0x1F NOT PUSH1 0x1F DUP3 ADD AND DUP3 ADD DUP1 PUSH1 0x40 MSTORE POP DUP2 ADD SWAP1 PUSH2 0x1227 SWAP2 SWAP1 PUSH2 0x226E JUMP JUMPDEST PUSH2 0x1232 SWAP1 PUSH1 0xA PUSH2 0x2235 JUMP JUMPDEST PUSH2 0x1242 SWAP1 PUSH4 0xFFFFFFFF DUP9 AND PUSH2 0x2243 JUMP JUMPDEST PUSH1 0x40 MLOAD DUP5 PUSH4 0xFFFFFFFF AND PUSH1 0xE0 SHL DUP2 MSTORE PUSH1 0x4 ADD PUSH2 0x1260 SWAP4 SWAP3 SWAP2 SWAP1 PUSH2 0x228E JUMP JUMPDEST PUSH1 0x20 PUSH1 0x40 MLOAD DUP1 DUP4 SUB DUP2 PUSH0 DUP8 GAS CALL ISZERO DUP1 ISZERO PUSH2 0x127C JUMPI RETURNDATASIZE PUSH0 DUP1 RETURNDATACOPY RETURNDATASIZE PUSH0 REVERT JUMPDEST POP POP POP POP PUSH1 0x40 MLOAD RETURNDATASIZE PUSH1 0x1F NOT PUSH1 0x1F DUP3 ADD AND DUP3 ADD DUP1 PUSH1 0x40 MSTORE POP DUP2 ADD SWAP1 PUSH2 0x12A0 SWAP2 SWAP1 PUSH2 0x22B2 JUMP JUMPDEST SWAP1 POP DUP1 PUSH2 0xE42 JUMPI PUSH1 0x40 MLOAD PUSH3 0x461BCD PUSH1 0xE5 SHL DUP2 MSTORE PUSH1 0x20 PUSH1 0x4 DUP3 ADD MSTORE PUSH1 0x12 PUSH1 0x24 DUP3 ADD MSTORE PUSH18 0x4E65656420417070726F7665642055534443 PUSH1 0x70 SHL PUSH1 0x44 DUP3 ADD MSTORE PUSH1 0x64 ADD PUSH2 0xE39 JUMP JUMPDEST PUSH0 CALLER PUSH2 0x38C DUP2 DUP6 DUP6 PUSH2 0x16D8 JUMP JUMPDEST PUSH1 0x11 SLOAD PUSH0 SWAP1 PUSH2 0x1312 SWAP1 PUSH1 0xB SWAP1 PUSH1 0x1 PUSH1 0x80 SHL SWAP1 DIV PUSH1 0x1 PUSH1 0x1 PUSH1 0x40 SHL SUB AND PUSH2 0x17E7 JUMP JUMPDEST PUSH1 0xF SLOAD PUSH1 0x11 DUP1 SLOAD PUSH1 0x1 PUSH1 0x1 PUSH1 0xC0 SHL SUB AND PUSH1 0x1 PUSH1 0x1 PUSH1 0x40 SHL SUB SWAP3 DUP4 AND PUSH1 0x1 PUSH1 0xC0 SHL SWAP1 DUP2 MUL SWAP2 SWAP1 SWAP2 OR SWAP2 DUP3 SWAP1 SSTORE PUSH2 0x134E SWAP3 PUSH1 0xB SWAP3 SWAP2 SWAP1 SWAP2 DIV AND PUSH2 0x17E7 JUMP JUMPDEST PUSH1 0xF SLOAD PUSH1 0x12 DUP1 SLOAD PUSH8 0xFFFFFFFFFFFFFFFF NOT AND PUSH1 0x1 PUSH1 0x1 PUSH1 0x40 SHL SUB SWAP3 DUP4 AND SWAP1 DUP2 OR SWAP1 SWAP2 SSTORE PUSH1 0xD SLOAD PUSH2 0x1382 SWAP3 PUSH1 0xB SWAP3 SWAP2 AND PUSH2 0x17F1 JUMP JUMPDEST PUSH1 0xE SLOAD PUSH1 0x12 DUP1 SLOAD PUSH1 0x1 PUSH1 0x40 SHL PUSH1 0x1 PUSH1 0x1 PUSH1 0x40 SHL SUB PUSH1 0x1 PUSH1 0xC0 SHL SWAP1 SWAP5 DIV DUP5 AND MUL PUSH8 0xFFFFFFFFFFFFFFFF PUSH1 0x40 SHL NOT DUP3 AND DUP2 OR SWAP1 SWAP3 SSTORE PUSH1 0x8 SLOAD PUSH2 0x13CF SWAP4 PUSH1 0x6 SWAP4 DUP2 AND SWAP3 DUP2 AND SWAP3 SWAP1 SWAP3 OR SWAP2 AND PUSH2 0x17F1 JUMP JUMPDEST PUSH1 0x9 SLOAD PUSH1 0x12 DUP1 SLOAD PUSH1 0x1 PUSH1 0x80 SHL DUP1 DUP3 DIV PUSH1 0x1 PUSH1 0x1 PUSH1 0x40 SHL SUB SWAP1 DUP2 AND PUSH1 0x1 PUSH1 0xC0 SHL SWAP6 DUP7 SWAP1 DIV DUP3 AND XOR DUP2 AND DUP3 MUL PUSH8 0xFFFFFFFFFFFFFFFF PUSH1 0x80 SHL NOT DUP1 DUP6 AND DUP3 OR SWAP1 SWAP6 SSTORE PUSH1 0x11 DUP1 SLOAD DUP5 DUP2 DIV DUP5 AND SWAP8 DUP2 DIV DUP5 AND SWAP8 SWAP1 SWAP8 XOR SWAP2 DUP4 AND SWAP5 DUP4 AND SWAP5 SWAP1 SWAP5 OR XOR AND MUL SWAP3 SWAP1 SWAP2 AND SWAP2 SWAP1 SWAP2 OR SWAP1 SSTORE PUSH2 0x143F PUSH1 0x12 SWAP1 JUMP JUMPDEST PUSH2 0x144A SWAP1 PUSH1 0xA PUSH2 0x2235 JUMP JUMPDEST PUSH2 0x1458 SWAP1 PUSH4 0x423A35C7 PUSH2 0x2243 JUMP JUMPDEST PUSH1 0x2 SLOAD GT PUSH2 0x1480 JUMPI PUSH2 0x1480 ADDRESS PUSH2 0x1470 PUSH1 0x12 PUSH1 0xA PUSH2 0x2235 JUMP JUMPDEST PUSH2 0x147B SWAP1 PUSH1 0x1 PUSH2 0x2243 JUMP JUMPDEST PUSH2 0x1982 JUMP JUMPDEST POP PUSH1 0x11 SLOAD PUSH1 0x1 PUSH1 0x80 SHL SWAP1 DIV PUSH1 0x1 PUSH1 0x1 PUSH1 0x40 SHL SUB AND SWAP1 JUMP JUMPDEST PUSH1 0x1 PUSH1 0x1 PUSH1 0xA0 SHL SUB SWAP2 DUP3 AND PUSH0 SWAP1 DUP2 MSTORE PUSH1 0x1 PUSH1 0x20 SWAP1 DUP2 MSTORE PUSH1 0x40 DUP1 DUP4 KECCAK256 SWAP4 SWAP1 SWAP5 AND DUP3 MSTORE SWAP2 SWAP1 SWAP2 MSTORE KECCAK256 SLOAD SWAP1 JUMP JUMPDEST PUSH2 0x14C9 PUSH2 0x1769 JUMP JUMPDEST PUSH1 0x1 PUSH1 0x1 PUSH1 0xA0 SHL SUB DUP2 AND PUSH2 0x14F2 JUMPI PUSH0 PUSH1 0x40 MLOAD PUSH4 0x1E4FBDF7 PUSH1 0xE0 SHL DUP2 MSTORE PUSH1 0x4 ADD PUSH2 0xE39 SWAP2 SWAP1 PUSH2 0x20C4 JUMP JUMPDEST PUSH2 0xC8E DUP2 PUSH2 0x1796 JUMP JUMPDEST PUSH2 0x1507 PUSH1 0x12 PUSH1 0xA PUSH2 0x2235 JUMP JUMPDEST PUSH2 0x1517 SWAP1 PUSH4 0xFFFFFFFF DUP4 AND PUSH2 0x2243 JUMP JUMPDEST PUSH2 0x1520 ADDRESS PUSH2 0xC91 JUMP JUMPDEST LT ISZERO PUSH2 0x152E JUMPI PUSH2 0x152E PUSH2 0x225A JUMP JUMPDEST PUSH1 0x17 SLOAD PUSH1 0x40 DUP1 MLOAD PUSH4 0x313CE567 PUSH1 0xE0 SHL DUP2 MSTORE SWAP1 MLOAD PUSH0 SWAP3 PUSH1 0x1 PUSH1 0x1 PUSH1 0xA0 SHL SUB AND SWAP2 PUSH4 0x23B872DD SWAP2 CALLER SWAP2 ADDRESS SWAP2 PUSH1 0xD4 SWAP2 DUP7 SWAP2 PUSH4 0x313CE567 SWAP2 PUSH1 0x4 DUP1 DUP3 ADD SWAP3 PUSH1 0x20 SWAP3 SWAP1 SWAP2 SWAP1 DUP3 SWAP1 SUB ADD DUP2 DUP7 GAS STATICCALL ISZERO DUP1 ISZERO PUSH2 0x1585 JUMPI RETURNDATASIZE PUSH0 DUP1 RETURNDATACOPY RETURNDATASIZE PUSH0 REVERT JUMPDEST POP POP POP POP PUSH1 0x40 MLOAD RETURNDATASIZE PUSH1 0x1F NOT PUSH1 0x1F DUP3 ADD AND DUP3 ADD DUP1 PUSH1 0x40 MSTORE POP DUP2 ADD SWAP1 PUSH2 0x15A9 SWAP2 SWAP1 PUSH2 0x226E JUMP JUMPDEST PUSH2 0x15B4 SWAP1 PUSH1 0xA PUSH2 0x2235 JUMP JUMPDEST PUSH2 0x15C4 SWAP1 PUSH4 0xFFFFFFFF DUP10 AND PUSH2 0x2243 JUMP JUMPDEST PUSH2 0x15CE SWAP2 SWAP1 PUSH2 0x22D1 JUMP JUMPDEST PUSH1 0x40 MLOAD DUP5 PUSH4 0xFFFFFFFF AND PUSH1 0xE0 SHL DUP2 MSTORE PUSH1 0x4 ADD PUSH2 0x15EC SWAP4 SWAP3 SWAP2 SWAP1 PUSH2 0x228E JUMP JUMPDEST PUSH1 0x20 PUSH1 0x40 MLOAD DUP1 DUP4 SUB DUP2 PUSH0 DUP8 GAS CALL ISZERO DUP1 ISZERO PUSH2 0x1608 JUMPI RETURNDATASIZE PUSH0 DUP1 RETURNDATACOPY RETURNDATASIZE PUSH0 REVERT JUMPDEST POP POP POP POP PUSH1 0x40 MLOAD RETURNDATASIZE PUSH1 0x1F NOT PUSH1 0x1F DUP3 ADD AND DUP3 ADD DUP1 PUSH1 0x40 MSTORE POP DUP2 ADD SWAP1 PUSH2 0x162C SWAP2 SWAP1 PUSH2 0x22B2 JUMP JUMPDEST SWAP1 POP DUP1 PUSH2 0xE42 JUMPI PUSH1 0x40 MLOAD PUSH3 0x461BCD PUSH1 0xE5 SHL DUP2 MSTORE PUSH1 0x20 PUSH1 0x4 DUP3 ADD MSTORE PUSH1 0x1B PUSH1 0x24 DUP3 ADD MSTORE PUSH32 0x4E65656420417070726F7665642070494E444550454E44454E43450000000000 PUSH1 0x44 DUP3 ADD MSTORE PUSH1 0x64 ADD PUSH2 0xE39 JUMP JUMPDEST PUSH2 0xE62 DUP4 DUP4 DUP4 PUSH1 0x1 PUSH2 0x19B6 JUMP JUMPDEST PUSH0 PUSH2 0x1693 DUP5 DUP5 PUSH2 0x1497 JUMP JUMPDEST SWAP1 POP PUSH0 NOT DUP2 EQ PUSH2 0x16D2 JUMPI DUP2 DUP2 LT ISZERO PUSH2 0x16C4 JUMPI DUP3 DUP2 DUP4 PUSH1 0x40 MLOAD PUSH4 0x7DC7A0D9 PUSH1 0xE1 SHL DUP2 MSTORE PUSH1 0x4 ADD PUSH2 0xE39 SWAP4 SWAP3 SWAP2 SWAP1 PUSH2 0x22F0 JUMP JUMPDEST PUSH2 0x16D2 DUP5 DUP5 DUP5 DUP5 SUB PUSH0 PUSH2 0x19B6 JUMP JUMPDEST POP POP POP POP JUMP JUMPDEST PUSH1 0x1 PUSH1 0x1 PUSH1 0xA0 SHL SUB DUP4 AND PUSH2 0x1701 JUMPI PUSH0 PUSH1 0x40 MLOAD PUSH4 0x4B637E8F PUSH1 0xE1 SHL DUP2 MSTORE PUSH1 0x4 ADD PUSH2 0xE39 SWAP2 SWAP1 PUSH2 0x20C4 JUMP JUMPDEST PUSH1 0x1 PUSH1 0x1 PUSH1 0xA0 SHL SUB DUP3 AND PUSH2 0x172A JUMPI PUSH0 PUSH1 0x40 MLOAD PUSH4 0xEC442F05 PUSH1 0xE0 SHL DUP2 MSTORE PUSH1 0x4 ADD PUSH2 0xE39 SWAP2 SWAP1 PUSH2 0x20C4 JUMP JUMPDEST PUSH2 0xE62 DUP4 DUP4 DUP4 PUSH2 0x1A88 JUMP JUMPDEST PUSH1 0x1 PUSH1 0x1 PUSH1 0xA0 SHL SUB DUP3 AND PUSH2 0x175E JUMPI PUSH0 PUSH1 0x40 MLOAD PUSH4 0x4B637E8F PUSH1 0xE1 SHL DUP2 MSTORE PUSH1 0x4 ADD PUSH2 0xE39 SWAP2 SWAP1 PUSH2 0x20C4 JUMP JUMPDEST PUSH2 0xCD3 DUP3 PUSH0 DUP4 PUSH2 0x1A88 JUMP JUMPDEST PUSH1 0x5 SLOAD PUSH1 0x1 PUSH1 0x1 PUSH1 0xA0 SHL SUB AND CALLER EQ PUSH2 0xCBC JUMPI CALLER PUSH1 0x40 MLOAD PUSH4 0x118CDAA7 PUSH1 0xE0 SHL DUP2 MSTORE PUSH1 0x4 ADD PUSH2 0xE39 SWAP2 SWAP1 PUSH2 0x20C4 JUMP JUMPDEST PUSH1 0x5 DUP1 SLOAD PUSH1 0x1 PUSH1 0x1 PUSH1 0xA0 SHL SUB DUP4 DUP2 AND PUSH1 0x1 PUSH1 0x1 PUSH1 0xA0 SHL SUB NOT DUP4 AND DUP2 OR SWAP1 SWAP4 SSTORE PUSH1 0x40 MLOAD SWAP2 AND SWAP2 SWAP1 DUP3 SWAP1 PUSH32 0x8BE0079C531659141344CD1FD0A4F28419497F9722A3DAAFE3B4186F6B6457E0 SWAP1 PUSH0 SWAP1 LOG3 POP POP JUMP JUMPDEST PUSH2 0xCD3 DUP3 DUP3 PUSH2 0x1B9B JUMP JUMPDEST DUP3 SLOAD PUSH1 0x40 MLOAD PUSH4 0x53DF6E35 PUSH1 0xE0 SHL DUP2 MSTORE PUSH20 0x0 SWAP2 PUSH4 0x53DF6E35 SWAP2 PUSH2 0x183E SWAP2 DUP7 SWAP2 PUSH1 0x1 PUSH1 0xC0 SHL SWAP1 SWAP2 DIV PUSH1 0x1 PUSH1 0x1 PUSH1 0x40 SHL SUB AND SWAP1 DUP7 SWAP1 PUSH1 0x4 ADD PUSH2 0x2311 JUMP JUMPDEST PUSH1 0x20 PUSH1 0x40 MLOAD DUP1 DUP4 SUB DUP2 DUP7 GAS DELEGATECALL ISZERO DUP1 ISZERO PUSH2 0x1859 JUMPI RETURNDATASIZE PUSH0 DUP1 RETURNDATACOPY RETURNDATASIZE PUSH0 REVERT JUMPDEST POP POP POP POP PUSH1 0x40 MLOAD RETURNDATASIZE PUSH1 0x1F NOT PUSH1 0x1F DUP3 ADD AND DUP3 ADD DUP1 PUSH1 0x40 MSTORE POP DUP2 ADD SWAP1 PUSH2 0x187D SWAP2 SWAP1 PUSH2 0x2334 JUMP JUMPDEST PUSH1 0x3 DUP5 ADD DUP1 SLOAD PUSH8 0xFFFFFFFFFFFFFFFF PUSH1 0x80 SHL NOT AND PUSH1 0x1 PUSH1 0x80 SHL PUSH1 0x1 PUSH1 0x1 PUSH1 0x40 SHL SUB SWAP4 DUP5 AND MUL OR SWAP1 SSTORE DUP4 SLOAD PUSH1 0x40 MLOAD PUSH4 0x53DF6E35 PUSH1 0xE0 SHL DUP2 MSTORE PUSH20 0x0 SWAP3 PUSH4 0x53DF6E35 SWAP3 PUSH2 0x18E9 SWAP3 DUP8 SWAP3 DUP8 SWAP3 PUSH1 0x1 PUSH1 0xC0 SHL SWAP1 DIV AND SWAP1 PUSH1 0x4 ADD PUSH2 0x2311 JUMP JUMPDEST PUSH1 0x20 PUSH1 0x40 MLOAD DUP1 DUP4 SUB DUP2 DUP7 GAS DELEGATECALL ISZERO DUP1 ISZERO PUSH2 0x1904 JUMPI RETURNDATASIZE PUSH0 DUP1 RETURNDATACOPY RETURNDATASIZE PUSH0 REVERT JUMPDEST POP POP POP POP PUSH1 0x40 MLOAD RETURNDATASIZE PUSH1 0x1F NOT PUSH1 0x1F DUP3 ADD AND DUP3 ADD DUP1 PUSH1 0x40 MSTORE POP DUP2 ADD SWAP1 PUSH2 0x1928 SWAP2 SWAP1 PUSH2 0x2334 JUMP JUMPDEST PUSH1 0x3 DUP5 ADD DUP1 SLOAD PUSH1 0x1 PUSH1 0x1 PUSH1 0xC0 SHL SUB AND PUSH1 0x1 PUSH1 0xC0 SHL PUSH1 0x1 PUSH1 0x1 PUSH1 0x40 SHL SUB SWAP4 DUP5 AND MUL OR SWAP1 DUP2 SWAP1 SSTORE PUSH1 0x1 PUSH1 0x80 SHL SWAP1 DIV AND ISZERO DUP1 ISZERO SWAP1 PUSH2 0x1976 JUMPI POP PUSH1 0x3 DUP4 ADD SLOAD PUSH1 0x1 PUSH1 0xC0 SHL SWAP1 DIV PUSH1 0x1 PUSH1 0x1 PUSH1 0x40 SHL SUB AND ISZERO ISZERO JUMPDEST PUSH2 0xE62 JUMPI PUSH2 0xE62 PUSH2 0x225A JUMP JUMPDEST PUSH1 0x1 PUSH1 0x1 PUSH1 0xA0 SHL SUB DUP3 AND PUSH2 0x19AB JUMPI PUSH0 PUSH1 0x40 MLOAD PUSH4 0xEC442F05 PUSH1 0xE0 SHL DUP2 MSTORE PUSH1 0x4 ADD PUSH2 0xE39 SWAP2 SWAP1 PUSH2 0x20C4 JUMP JUMPDEST PUSH2 0xCD3 PUSH0 DUP4 DUP4 PUSH2 0x1A88 JUMP JUMPDEST PUSH1 0x1 PUSH1 0x1 PUSH1 0xA0 SHL SUB DUP5 AND PUSH2 0x19DF JUMPI PUSH0 PUSH1 0x40 MLOAD PUSH4 0xE602DF05 PUSH1 0xE0 SHL DUP2 MSTORE PUSH1 0x4 ADD PUSH2 0xE39 SWAP2 SWAP1 PUSH2 0x20C4 JUMP JUMPDEST PUSH1 0x1 PUSH1 0x1 PUSH1 0xA0 SHL SUB DUP4 AND PUSH2 0x1A08 JUMPI PUSH0 PUSH1 0x40 MLOAD PUSH4 0x4A1406B1 PUSH1 0xE1 SHL DUP2 MSTORE PUSH1 0x4 ADD PUSH2 0xE39 SWAP2 SWAP1 PUSH2 0x20C4 JUMP JUMPDEST PUSH1 0x1 PUSH1 0x1 PUSH1 0xA0 SHL SUB DUP1 DUP6 AND PUSH0 SWAP1 DUP2 MSTORE PUSH1 0x1 PUSH1 0x20 SWAP1 DUP2 MSTORE PUSH1 0x40 DUP1 DUP4 KECCAK256 SWAP4 DUP8 AND DUP4 MSTORE SWAP3 SWAP1 MSTORE KECCAK256 DUP3 SWAP1 SSTORE DUP1 ISZERO PUSH2 0x16D2 JUMPI DUP3 PUSH1 0x1 PUSH1 0x1 PUSH1 0xA0 SHL SUB AND DUP5 PUSH1 0x1 PUSH1 0x1 PUSH1 0xA0 SHL SUB AND PUSH32 0x8C5BE1E5EBEC7D5BD14F71427D1E84F3DD0314C0F7B2291E5B200AC8C7C3B925 DUP5 PUSH1 0x40 MLOAD PUSH2 0x1A7A SWAP2 DUP2 MSTORE PUSH1 0x20 ADD SWAP1 JUMP JUMPDEST PUSH1 0x40 MLOAD DUP1 SWAP2 SUB SWAP1 LOG3 POP POP POP POP JUMP JUMPDEST PUSH1 0x1 PUSH1 0x1 PUSH1 0xA0 SHL SUB DUP4 AND PUSH2 0x1AB2 JUMPI DUP1 PUSH1 0x2 PUSH0 DUP3 DUP3 SLOAD PUSH2 0x1AA7 SWAP2 SWAP1 PUSH2 0x235A JUMP JUMPDEST SWAP1 SWAP2 SSTORE POP PUSH2 0x1B0F SWAP1 POP JUMP JUMPDEST PUSH1 0x1 PUSH1 0x1 PUSH1 0xA0 SHL SUB DUP4 AND PUSH0 SWAP1 DUP2 MSTORE PUSH1 0x20 DUP2 SWAP1 MSTORE PUSH1 0x40 SWAP1 KECCAK256 SLOAD DUP2 DUP2 LT ISZERO PUSH2 0x1AF1 JUMPI DUP4 DUP2 DUP4 PUSH1 0x40 MLOAD PUSH4 0x391434E3 PUSH1 0xE2 SHL DUP2 MSTORE PUSH1 0x4 ADD PUSH2 0xE39 SWAP4 SWAP3 SWAP2 SWAP1 PUSH2 0x22F0 JUMP JUMPDEST PUSH1 0x1 PUSH1 0x1 PUSH1 0xA0 SHL SUB DUP5 AND PUSH0 SWAP1 DUP2 MSTORE PUSH1 0x20 DUP2 SWAP1 MSTORE PUSH1 0x40 SWAP1 KECCAK256 SWAP1 DUP3 SWAP1 SUB SWAP1 SSTORE JUMPDEST PUSH1 0x1 PUSH1 0x1 PUSH1 0xA0 SHL SUB DUP3 AND PUSH2 0x1B2B JUMPI PUSH1 0x2 DUP1 SLOAD DUP3 SWAP1 SUB SWAP1 SSTORE PUSH2 0x1B49 JUMP JUMPDEST PUSH1 0x1 PUSH1 0x1 PUSH1 0xA0 SHL SUB DUP3 AND PUSH0 SWAP1 DUP2 MSTORE PUSH1 0x20 DUP2 SWAP1 MSTORE PUSH1 0x40 SWAP1 KECCAK256 DUP1 SLOAD DUP3 ADD SWAP1 SSTORE JUMPDEST DUP2 PUSH1 0x1 PUSH1 0x1 PUSH1 0xA0 SHL SUB AND DUP4 PUSH1 0x1 PUSH1 0x1 PUSH1 0xA0 SHL SUB AND PUSH32 0xDDF252AD1BE2C89B69C2B068FC378DAA952BA7F163C4A11628F55A4DF523B3EF DUP4 PUSH1 0x40 MLOAD PUSH2 0x1B8E SWAP2 DUP2 MSTORE PUSH1 0x20 ADD SWAP1 JUMP JUMPDEST PUSH1 0x40 MLOAD DUP1 SWAP2 SUB SWAP1 LOG3 POP POP POP JUMP JUMPDEST PUSH1 0x1 DUP3 ADD SLOAD DUP3 SLOAD PUSH1 0x40 MLOAD PUSH4 0x53DF6E35 PUSH1 0xE0 SHL DUP2 MSTORE PUSH20 0x0 SWAP3 PUSH4 0x53DF6E35 SWAP3 PUSH2 0x1BF3 SWAP3 DUP7 SWAP3 PUSH1 0x1 PUSH1 0x1 PUSH1 0x40 SHL SUB PUSH1 0x1 PUSH1 0xC0 SHL SWAP2 DUP3 SWAP1 DIV DUP2 AND SWAP4 SWAP2 SWAP1 SWAP2 DIV AND SWAP1 PUSH1 0x4 ADD PUSH2 0x2311 JUMP JUMPDEST PUSH1 0x20 PUSH1 0x40 MLOAD DUP1 DUP4 SUB DUP2 DUP7 GAS DELEGATECALL ISZERO DUP1 ISZERO PUSH2 0x1C0E JUMPI RETURNDATASIZE PUSH0 DUP1 RETURNDATACOPY RETURNDATASIZE PUSH0 REVERT JUMPDEST POP POP POP POP PUSH1 0x40 MLOAD RETURNDATASIZE PUSH1 0x1F NOT PUSH1 0x1F DUP3 ADD AND DUP3 ADD DUP1 PUSH1 0x40 MSTORE POP DUP2 ADD SWAP1 PUSH2 0x1C32 SWAP2 SWAP1 PUSH2 0x2334 JUMP JUMPDEST PUSH1 0x4 SWAP3 SWAP1 SWAP3 ADD DUP1 SLOAD PUSH8 0xFFFFFFFFFFFFFFFF NOT AND PUSH1 0x1 PUSH1 0x1 PUSH1 0x40 SHL SUB SWAP1 SWAP4 AND SWAP3 SWAP1 SWAP3 OR SWAP1 SWAP2 SSTORE POP JUMP JUMPDEST PUSH1 0x40 MLOAD DUP1 PUSH2 0x1C0 ADD PUSH1 0x40 MSTORE DUP1 PUSH2 0x1C6E PUSH2 0x1CD9 JUMP JUMPDEST DUP2 MSTORE PUSH1 0x20 ADD PUSH2 0x1C7B PUSH2 0x1CD9 JUMP JUMPDEST DUP2 MSTORE PUSH0 PUSH1 0x20 DUP3 ADD DUP2 SWAP1 MSTORE PUSH1 0x40 DUP3 ADD DUP2 SWAP1 MSTORE PUSH1 0x60 DUP3 ADD DUP2 SWAP1 MSTORE PUSH1 0x80 DUP3 ADD DUP2 SWAP1 MSTORE PUSH1 0xA0 DUP3 ADD DUP2 SWAP1 MSTORE PUSH1 0xC0 DUP3 ADD DUP2 SWAP1 MSTORE PUSH1 0xE0 DUP3 ADD DUP2 SWAP1 MSTORE PUSH2 0x100 DUP3 ADD DUP2 SWAP1 MSTORE PUSH2 0x120 DUP3 ADD DUP2 SWAP1 MSTORE PUSH2 0x140 DUP3 ADD DUP2 SWAP1 MSTORE PUSH2 0x160 DUP3 ADD DUP2 SWAP1 MSTORE PUSH2 0x180 SWAP1 SWAP2 ADD MSTORE SWAP1 JUMP JUMPDEST PUSH1 0x40 DUP1 MLOAD PUSH2 0x240 DUP2 ADD DUP3 MSTORE PUSH0 DUP1 DUP3 MSTORE PUSH1 0x20 DUP3 ADD DUP2 SWAP1 MSTORE SWAP2 DUP2 ADD DUP3 SWAP1 MSTORE PUSH1 0x60 DUP2 ADD DUP3 SWAP1 MSTORE PUSH1 0x80 DUP2 ADD DUP3 SWAP1 MSTORE PUSH1 0xA0 DUP2 ADD DUP3 SWAP1 MSTORE PUSH1 0xC0 DUP2 ADD DUP3 SWAP1 MSTORE PUSH1 0xE0 DUP2 ADD DUP3 SWAP1 MSTORE PUSH2 0x100 DUP2 ADD DUP3 SWAP1 MSTORE PUSH2 0x120 DUP2 ADD DUP3 SWAP1 MSTORE PUSH2 0x140 DUP2 ADD DUP3 SWAP1 MSTORE PUSH2 0x160 DUP2 ADD DUP3 SWAP1 MSTORE PUSH2 0x180 DUP2 ADD DUP3 SWAP1 MSTORE PUSH2 0x1A0 DUP2 ADD DUP3 SWAP1 MSTORE PUSH2 0x1C0 DUP2 ADD DUP3 SWAP1 MSTORE PUSH2 0x1E0 DUP2 ADD DUP3 SWAP1 MSTORE PUSH2 0x200 DUP2 ADD DUP3 SWAP1 MSTORE PUSH2 0x220 DUP2 ADD SWAP2 SWAP1 SWAP2 MSTORE SWAP1 JUMP JUMPDEST PUSH0 PUSH1 0x20 DUP1 DUP4 MSTORE DUP4 MLOAD DUP1 DUP3 DUP6 ADD MSTORE PUSH0 JUMPDEST DUP2 DUP2 LT ISZERO PUSH2 0x1D97 JUMPI DUP6 DUP2 ADD DUP4 ADD MLOAD DUP6 DUP3 ADD PUSH1 0x40 ADD MSTORE DUP3 ADD PUSH2 0x1D7B JUMP JUMPDEST POP PUSH0 PUSH1 0x40 DUP3 DUP7 ADD ADD MSTORE PUSH1 0x40 PUSH1 0x1F NOT PUSH1 0x1F DUP4 ADD AND DUP6 ADD ADD SWAP3 POP POP POP SWAP3 SWAP2 POP POP JUMP JUMPDEST DUP1 CALLDATALOAD PUSH1 0x1 PUSH1 0x1 PUSH1 0xA0 SHL SUB DUP2 AND DUP2 EQ PUSH2 0x1DCD JUMPI PUSH0 DUP1 REVERT JUMPDEST SWAP2 SWAP1 POP JUMP JUMPDEST PUSH0 DUP1 PUSH1 0x40 DUP4 DUP6 SUB SLT ISZERO PUSH2 0x1DE3 JUMPI PUSH0 DUP1 REVERT JUMPDEST PUSH2 0x1DEC DUP4 PUSH2 0x1DB7 JUMP JUMPDEST SWAP5 PUSH1 0x20 SWAP4 SWAP1 SWAP4 ADD CALLDATALOAD SWAP4 POP POP POP JUMP JUMPDEST DUP1 MLOAD PUSH1 0x1 PUSH1 0x1 PUSH1 0x40 SHL SUB AND DUP3 MSTORE PUSH1 0x20 DUP2 ADD MLOAD PUSH2 0x1E21 PUSH1 0x20 DUP5 ADD DUP3 PUSH1 0x1 PUSH1 0x1 PUSH1 0x40 SHL SUB AND SWAP1 MSTORE JUMP JUMPDEST POP PUSH1 0x40 DUP2 ADD MLOAD PUSH2 0x1E3C PUSH1 0x40 DUP5 ADD DUP3 PUSH1 0x1 PUSH1 0x1 PUSH1 0x40 SHL SUB AND SWAP1 MSTORE JUMP JUMPDEST POP PUSH1 0x60 DUP2 ADD MLOAD PUSH2 0x1E57 PUSH1 0x60 DUP5 ADD DUP3 PUSH1 0x1 PUSH1 0x1 PUSH1 0x40 SHL SUB AND SWAP1 MSTORE JUMP JUMPDEST POP PUSH1 0x80 DUP2 ADD MLOAD PUSH2 0x1E72 PUSH1 0x80 DUP5 ADD DUP3 PUSH1 0x1 PUSH1 0x1 PUSH1 0x40 SHL SUB AND SWAP1 MSTORE JUMP JUMPDEST POP PUSH1 0xA0 DUP2 ADD MLOAD PUSH2 0x1E8D PUSH1 0xA0 DUP5 ADD DUP3 PUSH1 0x1 PUSH1 0x1 PUSH1 0x40 SHL SUB AND SWAP1 MSTORE JUMP JUMPDEST POP PUSH1 0xC0 DUP2 ADD MLOAD PUSH2 0x1EA8 PUSH1 0xC0 DUP5 ADD DUP3 PUSH1 0x1 PUSH1 0x1 PUSH1 0x40 SHL SUB AND SWAP1 MSTORE JUMP JUMPDEST POP PUSH1 0xE0 DUP2 ADD MLOAD PUSH2 0x1EC3 PUSH1 0xE0 DUP5 ADD DUP3 PUSH1 0x1 PUSH1 0x1 PUSH1 0x40 SHL SUB AND SWAP1 MSTORE JUMP JUMPDEST POP PUSH2 0x100 DUP2 DUP2 ADD MLOAD PUSH1 0x1 PUSH1 0x1 PUSH1 0x40 SHL SUB SWAP1 DUP2 AND SWAP2 DUP5 ADD SWAP2 SWAP1 SWAP2 MSTORE PUSH2 0x120 DUP1 DUP4 ADD MLOAD DUP3 AND SWAP1 DUP5 ADD MSTORE PUSH2 0x140 DUP1 DUP4 ADD MLOAD DUP3 AND SWAP1 DUP5 ADD MSTORE PUSH2 0x160 DUP1 DUP4 ADD MLOAD DUP3 AND SWAP1 DUP5 ADD MSTORE PUSH2 0x180 DUP1 DUP4 ADD MLOAD DUP3 AND SWAP1 DUP5 ADD MSTORE PUSH2 0x1A0 DUP1 DUP4 ADD MLOAD DUP3 AND SWAP1 DUP5 ADD MSTORE PUSH2 0x1C0 DUP1 DUP4 ADD MLOAD DUP3 AND SWAP1 DUP5 ADD MSTORE PUSH2 0x1E0 DUP1 DUP4 ADD MLOAD DUP3 AND SWAP1 DUP5 ADD MSTORE PUSH2 0x200 DUP1 DUP4 ADD MLOAD SWAP1 SWAP2 AND SWAP1 DUP4 ADD MSTORE PUSH2 0x220 DUP1 DUP3 ADD MLOAD PUSH1 0xFF DUP2 AND DUP3 DUP6 ADD MSTORE PUSH2 0x16D2 JUMP JUMPDEST PUSH0 PUSH2 0x600 DUP3 ADD SWAP1 POP PUSH2 0x1F6D DUP3 DUP5 MLOAD PUSH2 0x1DFA JUMP JUMPDEST PUSH1 0x20 DUP4 ADD MLOAD PUSH2 0x1F80 PUSH2 0x240 DUP5 ADD DUP3 PUSH2 0x1DFA JUMP JUMPDEST POP PUSH1 0x40 DUP4 ADD MLOAD PUSH1 0x1 PUSH1 0x1 PUSH1 0x40 SHL SUB SWAP1 DUP2 AND PUSH2 0x480 DUP5 ADD MSTORE PUSH1 0x60 DUP5 ADD MLOAD DUP2 AND PUSH2 0x4A0 DUP5 ADD MSTORE PUSH1 0x80 DUP5 ADD MLOAD DUP2 AND PUSH2 0x4C0 DUP5 ADD MSTORE PUSH1 0xA0 DUP5 ADD MLOAD DUP2 AND PUSH2 0x4E0 DUP5 ADD MSTORE PUSH1 0xC0 DUP5 ADD MLOAD DUP2 AND PUSH2 0x500 DUP5 ADD MSTORE PUSH1 0xE0 DUP5 ADD MLOAD DUP2 AND PUSH2 0x520 DUP5 ADD MSTORE PUSH2 0x100 DUP5 ADD MLOAD DUP2 AND PUSH2 0x540 DUP5 ADD MSTORE PUSH2 0x120 DUP5 ADD MLOAD DUP2 AND PUSH2 0x560 DUP5 ADD MSTORE PUSH2 0x140 DUP5 ADD MLOAD DUP2 AND PUSH2 0x580 DUP5 ADD MSTORE PUSH2 0x160 DUP5 ADD MLOAD DUP2 AND PUSH2 0x5A0 DUP5 ADD MSTORE PUSH2 0x180 DUP5 ADD MLOAD AND PUSH2 0x5C0 DUP4 ADD MSTORE PUSH2 0x1A0 SWAP1 SWAP3 ADD MLOAD PUSH1 0xFF AND PUSH2 0x5E0 SWAP1 SWAP2 ADD MSTORE SWAP1 JUMP JUMPDEST PUSH0 DUP1 PUSH0 PUSH1 0x60 DUP5 DUP7 SUB SLT ISZERO PUSH2 0x2043 JUMPI PUSH0 DUP1 REVERT JUMPDEST PUSH2 0x204C DUP5 PUSH2 0x1DB7 JUMP JUMPDEST SWAP3 POP PUSH2 0x205A PUSH1 0x20 DUP6 ADD PUSH2 0x1DB7 JUMP JUMPDEST SWAP2 POP PUSH1 0x40 DUP5 ADD CALLDATALOAD SWAP1 POP SWAP3 POP SWAP3 POP SWAP3 JUMP JUMPDEST PUSH0 PUSH1 0x20 DUP3 DUP5 SUB SLT ISZERO PUSH2 0x207A JUMPI PUSH0 DUP1 REVERT JUMPDEST POP CALLDATALOAD SWAP2 SWAP1 POP JUMP JUMPDEST PUSH0 PUSH1 0x20 DUP3 DUP5 SUB SLT ISZERO PUSH2 0x2091 JUMPI PUSH0 DUP1 REVERT JUMPDEST PUSH2 0x209A DUP3 PUSH2 0x1DB7 JUMP JUMPDEST SWAP4 SWAP3 POP POP POP JUMP JUMPDEST PUSH0 PUSH1 0x20 DUP3 DUP5 SUB SLT ISZERO PUSH2 0x20B1 JUMPI PUSH0 DUP1 REVERT JUMPDEST DUP2 CALLDATALOAD PUSH4 0xFFFFFFFF DUP2 AND DUP2 EQ PUSH2 0x209A JUMPI PUSH0 DUP1 REVERT JUMPDEST PUSH1 0x1 PUSH1 0x1 PUSH1 0xA0 SHL SUB SWAP2 SWAP1 SWAP2 AND DUP2 MSTORE PUSH1 0x20 ADD SWAP1 JUMP JUMPDEST PUSH0 DUP1 PUSH1 0x40 DUP4 DUP6 SUB SLT ISZERO PUSH2 0x20E9 JUMPI PUSH0 DUP1 REVERT JUMPDEST PUSH2 0x20F2 DUP4 PUSH2 0x1DB7 JUMP JUMPDEST SWAP2 POP PUSH2 0x2100 PUSH1 0x20 DUP5 ADD PUSH2 0x1DB7 JUMP JUMPDEST SWAP1 POP SWAP3 POP SWAP3 SWAP1 POP JUMP JUMPDEST PUSH1 0x1 DUP2 DUP2 SHR SWAP1 DUP3 AND DUP1 PUSH2 0x211D JUMPI PUSH1 0x7F DUP3 AND SWAP2 POP JUMPDEST PUSH1 0x20 DUP3 LT DUP2 SUB PUSH2 0x213B JUMPI PUSH4 0x4E487B71 PUSH1 0xE0 SHL PUSH0 MSTORE PUSH1 0x22 PUSH1 0x4 MSTORE PUSH1 0x24 PUSH0 REVERT JUMPDEST POP SWAP2 SWAP1 POP JUMP JUMPDEST PUSH4 0x4E487B71 PUSH1 0xE0 SHL PUSH0 MSTORE PUSH1 0x11 PUSH1 0x4 MSTORE PUSH1 0x24 PUSH0 REVERT JUMPDEST PUSH1 0x1 DUP2 DUP2 JUMPDEST DUP1 DUP6 GT ISZERO PUSH2 0x218F JUMPI DUP2 PUSH0 NOT DIV DUP3 GT ISZERO PUSH2 0x2175 JUMPI PUSH2 0x2175 PUSH2 0x2141 JUMP JUMPDEST DUP1 DUP6 AND ISZERO PUSH2 0x2182 JUMPI SWAP2 DUP2 MUL SWAP2 JUMPDEST SWAP4 DUP5 SHR SWAP4 SWAP1 DUP1 MUL SWAP1 PUSH2 0x215A JUMP JUMPDEST POP SWAP3 POP SWAP3 SWAP1 POP JUMP JUMPDEST PUSH0 DUP3 PUSH2 0x21A5 JUMPI POP PUSH1 0x1 PUSH2 0x392 JUMP JUMPDEST DUP2 PUSH2 0x21B1 JUMPI POP PUSH0 PUSH2 0x392 JUMP JUMPDEST DUP2 PUSH1 0x1 DUP2 EQ PUSH2 0x21C7 JUMPI PUSH1 0x2 DUP2 EQ PUSH2 0x21D1 JUMPI PUSH2 0x21ED JUMP JUMPDEST PUSH1 0x1 SWAP2 POP POP PUSH2 0x392 JUMP JUMPDEST PUSH1 0xFF DUP5 GT ISZERO PUSH2 0x21E2 JUMPI PUSH2 0x21E2 PUSH2 0x2141 JUMP JUMPDEST POP POP PUSH1 0x1 DUP3 SHL PUSH2 0x392 JUMP JUMPDEST POP PUSH1 0x20 DUP4 LT PUSH2 0x133 DUP4 LT AND PUSH1 0x4E DUP5 LT PUSH1 0xB DUP5 LT AND OR ISZERO PUSH2 0x2210 JUMPI POP DUP2 DUP2 EXP PUSH2 0x392 JUMP JUMPDEST PUSH2 0x221A DUP4 DUP4 PUSH2 0x2155 JUMP JUMPDEST DUP1 PUSH0 NOT DIV DUP3 GT ISZERO PUSH2 0x222D JUMPI PUSH2 0x222D PUSH2 0x2141 JUMP JUMPDEST MUL SWAP4 SWAP3 POP POP POP JUMP JUMPDEST PUSH0 PUSH2 0x209A PUSH1 0xFF DUP5 AND DUP4 PUSH2 0x2197 JUMP JUMPDEST DUP1 DUP3 MUL DUP2 ISZERO DUP3 DUP3 DIV DUP5 EQ OR PUSH2 0x392 JUMPI PUSH2 0x392 PUSH2 0x2141 JUMP JUMPDEST PUSH4 0x4E487B71 PUSH1 0xE0 SHL PUSH0 MSTORE PUSH1 0x1 PUSH1 0x4 MSTORE PUSH1 0x24 PUSH0 REVERT JUMPDEST PUSH0 PUSH1 0x20 DUP3 DUP5 SUB SLT ISZERO PUSH2 0x227E JUMPI PUSH0 DUP1 REVERT JUMPDEST DUP2 MLOAD PUSH1 0xFF DUP2 AND DUP2 EQ PUSH2 0x209A JUMPI PUSH0 DUP1 REVERT JUMPDEST PUSH1 0x1 PUSH1 0x1 PUSH1 0xA0 SHL SUB SWAP4 DUP5 AND DUP2 MSTORE SWAP2 SWAP1 SWAP3 AND PUSH1 0x20 DUP3 ADD MSTORE PUSH1 0x40 DUP2 ADD SWAP2 SWAP1 SWAP2 MSTORE PUSH1 0x60 ADD SWAP1 JUMP JUMPDEST PUSH0 PUSH1 0x20 DUP3 DUP5 SUB SLT ISZERO PUSH2 0x22C2 JUMPI PUSH0 DUP1 REVERT JUMPDEST DUP2 MLOAD DUP1 ISZERO ISZERO DUP2 EQ PUSH2 0x209A JUMPI PUSH0 DUP1 REVERT JUMPDEST PUSH0 DUP3 PUSH2 0x22EB JUMPI PUSH4 0x4E487B71 PUSH1 0xE0 SHL PUSH0 MSTORE PUSH1 0x12 PUSH1 0x4 MSTORE PUSH1 0x24 PUSH0 REVERT JUMPDEST POP DIV SWAP1 JUMP JUMPDEST PUSH1 0x1 PUSH1 0x1 PUSH1 0xA0 SHL SUB SWAP4 SWAP1 SWAP4 AND DUP4 MSTORE PUSH1 0x20 DUP4 ADD SWAP2 SWAP1 SWAP2 MSTORE PUSH1 0x40 DUP3 ADD MSTORE PUSH1 0x60 ADD SWAP1 JUMP JUMPDEST PUSH1 0x1 PUSH1 0x1 PUSH1 0x40 SHL SUB SWAP4 DUP5 AND DUP2 MSTORE SWAP2 DUP4 AND PUSH1 0x20 DUP4 ADD MSTORE SWAP1 SWAP2 AND PUSH1 0x40 DUP3 ADD MSTORE PUSH1 0x60 ADD SWAP1 JUMP JUMPDEST PUSH0 PUSH1 0x20 DUP3 DUP5 SUB SLT ISZERO PUSH2 0x2344 JUMPI PUSH0 DUP1 REVERT JUMPDEST DUP2 MLOAD PUSH1 0x1 PUSH1 0x1 PUSH1 0x40 SHL SUB DUP2 AND DUP2 EQ PUSH2 0x209A JUMPI PUSH0 DUP1 REVERT JUMPDEST DUP1 DUP3 ADD DUP1 DUP3 GT ISZERO PUSH2 0x392 JUMPI PUSH2 0x392 PUSH2 0x2141 JUMP INVALID LOG2 PUSH5 0x6970667358 0x22 SLT KECCAK256 0xD7 MUL LOG1 SWAP12 0xB7 0x5E 0x5D 0xAC 0xE9 0xB0 0xEC 0x4C 0x2C EQ SWAP14 SWAP3 SWAP12 JUMPDEST 0xC6 CALL 0x4F PUSH22 0x85A517D6031A8FFED3D464736F6C6343000815003300 "
		},
		"gasEstimates": {
			"creation": {
				"codeDepositCost": "1824600",
				"executionCost": "infinite",
				"totalCost": "infinite"
			},
			"external": {
				"AvailableForPurchase()": "2838",
				"BuyWithDAI(uint32)": "infinite",
				"BuyWithG5(uint32)": "infinite",
				"BuyWithPI(uint32)": "infinite",
				"BuyWithUSDC(uint32)": "infinite",
				"BuyWithUSDT(uint32)": "infinite",
				"Generate()": "infinite",
				"View()": "infinite",
				"allowance(address,address)": "infinite",
				"approve(address,uint256)": "24758",
				"balanceOf(address)": "2616",
				"burn(uint256)": "50961",
				"burnFrom(address,uint256)": "infinite",
				"decimals()": "199",
				"name()": "infinite",
				"owner()": "2387",
				"renounceOwnership()": "infinite",
				"symbol()": "infinite",
				"totalSupply()": "2370",
				"transfer(address,uint256)": "51260",
				"transferFrom(address,address,uint256)": "infinite",
				"transferOwnership(address)": "28443"
			}
		},
		"methodIdentifiers": {
			"AvailableForPurchase()": "82bf4c54",
			"BuyWithDAI(uint32)": "7d1f22ba",
			"BuyWithG5(uint32)": "919f5311",
			"BuyWithPI(uint32)": "fd2d8083",
			"BuyWithUSDC(uint32)": "a5d16c29",
			"BuyWithUSDT(uint32)": "9f7574b5",
			"Generate()": "d805b650",
			"View()": "1686f265",
			"allowance(address,address)": "dd62ed3e",
			"approve(address,uint256)": "095ea7b3",
			"balanceOf(address)": "70a08231",
			"burn(uint256)": "42966c68",
			"burnFrom(address,uint256)": "79cc6790",
			"decimals()": "313ce567",
			"name()": "06fdde03",
			"owner()": "8da5cb5b",
			"renounceOwnership()": "715018a6",
			"symbol()": "95d89b41",
			"totalSupply()": "18160ddd",
			"transfer(address,uint256)": "a9059cbb",
			"transferFrom(address,address,uint256)": "23b872dd",
			"transferOwnership(address)": "f2fde38b"
		}
	},
	"abi": [
		{
			"inputs": [],
			"stateMutability": "nonpayable",
			"type": "constructor"
		},
		{
			"inputs": [
				{
					"internalType": "address",
					"name": "spender",
					"type": "address"
				},
				{
					"internalType": "uint256",
					"name": "allowance",
					"type": "uint256"
				},
				{
					"internalType": "uint256",
					"name": "needed",
					"type": "uint256"
				}
			],
			"name": "ERC20InsufficientAllowance",
			"type": "error"
		},
		{
			"inputs": [
				{
					"internalType": "address",
					"name": "sender",
					"type": "address"
				},
				{
					"internalType": "uint256",
					"name": "balance",
					"type": "uint256"
				},
				{
					"internalType": "uint256",
					"name": "needed",
					"type": "uint256"
				}
			],
			"name": "ERC20InsufficientBalance",
			"type": "error"
		},
		{
			"inputs": [
				{
					"internalType": "address",
					"name": "approver",
					"type": "address"
				}
			],
			"name": "ERC20InvalidApprover",
			"type": "error"
		},
		{
			"inputs": [
				{
					"internalType": "address",
					"name": "receiver",
					"type": "address"
				}
			],
			"name": "ERC20InvalidReceiver",
			"type": "error"
		},
		{
			"inputs": [
				{
					"internalType": "address",
					"name": "sender",
					"type": "address"
				}
			],
			"name": "ERC20InvalidSender",
			"type": "error"
		},
		{
			"inputs": [
				{
					"internalType": "address",
					"name": "spender",
					"type": "address"
				}
			],
			"name": "ERC20InvalidSpender",
			"type": "error"
		},
		{
			"inputs": [
				{
					"internalType": "address",
					"name": "owner",
					"type": "address"
				}
			],
			"name": "OwnableInvalidOwner",
			"type": "error"
		},
		{
			"inputs": [
				{
					"internalType": "address",
					"name": "account",
					"type": "address"
				}
			],
			"name": "OwnableUnauthorizedAccount",
			"type": "error"
		},
		{
			"anonymous": false,
			"inputs": [
				{
					"indexed": true,
					"internalType": "address",
					"name": "owner",
					"type": "address"
				},
				{
					"indexed": true,
					"internalType": "address",
					"name": "spender",
					"type": "address"
				},
				{
					"indexed": false,
					"internalType": "uint256",
					"name": "value",
					"type": "uint256"
				}
			],
			"name": "Approval",
			"type": "event"
		},
		{
			"anonymous": false,
			"inputs": [
				{
					"indexed": true,
					"internalType": "address",
					"name": "previousOwner",
					"type": "address"
				},
				{
					"indexed": true,
					"internalType": "address",
					"name": "newOwner",
					"type": "address"
				}
			],
			"name": "OwnershipTransferred",
			"type": "event"
		},
		{
			"anonymous": false,
			"inputs": [
				{
					"indexed": true,
					"internalType": "address",
					"name": "from",
					"type": "address"
				},
				{
					"indexed": true,
					"internalType": "address",
					"name": "to",
					"type": "address"
				},
				{
					"indexed": false,
					"internalType": "uint256",
					"name": "value",
					"type": "uint256"
				}
			],
			"name": "Transfer",
			"type": "event"
		},
		{
			"inputs": [],
			"name": "AvailableForPurchase",
			"outputs": [
				{
					"internalType": "uint256",
					"name": "",
					"type": "uint256"
				}
			],
			"stateMutability": "view",
			"type": "function"
		},
		{
			"inputs": [
				{
					"internalType": "uint32",
					"name": "amount",
					"type": "uint32"
				}
			],
			"name": "BuyWithDAI",
			"outputs": [],
			"stateMutability": "nonpayable",
			"type": "function"
		},
		{
			"inputs": [
				{
					"internalType": "uint32",
					"name": "amount",
					"type": "uint32"
				}
			],
			"name": "BuyWithG5",
			"outputs": [],
			"stateMutability": "nonpayable",
			"type": "function"
		},
		{
			"inputs": [
				{
					"internalType": "uint32",
					"name": "amount",
					"type": "uint32"
				}
			],
			"name": "BuyWithPI",
			"outputs": [],
			"stateMutability": "nonpayable",
			"type": "function"
		},
		{
			"inputs": [
				{
					"internalType": "uint32",
					"name": "amount",
					"type": "uint32"
				}
			],
			"name": "BuyWithUSDC",
			"outputs": [],
			"stateMutability": "nonpayable",
			"type": "function"
		},
		{
			"inputs": [
				{
					"internalType": "uint32",
					"name": "amount",
					"type": "uint32"
				}
			],
			"name": "BuyWithUSDT",
			"outputs": [],
			"stateMutability": "nonpayable",
			"type": "function"
		},
		{
			"inputs": [],
			"name": "Generate",
			"outputs": [
				{
					"internalType": "uint64",
					"name": "",
					"type": "uint64"
				}
			],
			"stateMutability": "nonpayable",
			"type": "function"
		},
		{
			"inputs": [],
			"name": "View",
			"outputs": [
				{
					"components": [
						{
							"components": [
								{
									"internalType": "uint64",
									"name": "Base",
									"type": "uint64"
								},
								{
									"internalType": "uint64",
									"name": "Secret",
									"type": "uint64"
								},
								{
									"internalType": "uint64",
									"name": "Signal",
									"type": "uint64"
								},
								{
									"internalType": "uint64",
									"name": "Channel",
									"type": "uint64"
								},
								{
									"internalType": "uint64",
									"name": "Pole",
									"type": "uint64"
								},
								{
									"internalType": "uint64",
									"name": "Identity",
									"type": "uint64"
								},
								{
									"internalType": "uint64",
									"name": "Foundation",
									"type": "uint64"
								},
								{
									"internalType": "uint64",
									"name": "Element",
									"type": "uint64"
								},
								{
									"internalType": "uint64",
									"name": "Dynamo",
									"type": "uint64"
								},
								{
									"internalType": "uint64",
									"name": "Manifold",
									"type": "uint64"
								},
								{
									"internalType": "uint64",
									"name": "Ring",
									"type": "uint64"
								},
								{
									"internalType": "uint64",
									"name": "Barn",
									"type": "uint64"
								},
								{
									"internalType": "uint64",
									"name": "Coordinate",
									"type": "uint64"
								},
								{
									"internalType": "uint64",
									"name": "Tau",
									"type": "uint64"
								},
								{
									"internalType": "uint64",
									"name": "Eta",
									"type": "uint64"
								},
								{
									"internalType": "uint64",
									"name": "Kappa",
									"type": "uint64"
								},
								{
									"internalType": "uint64",
									"name": "Alpha",
									"type": "uint64"
								},
								{
									"internalType": "uint8",
									"name": "Nu",
									"type": "uint8"
								}
							],
							"internalType": "struct Conjecture.Fa",
							"name": "Rod",
							"type": "tuple"
						},
						{
							"components": [
								{
									"internalType": "uint64",
									"name": "Base",
									"type": "uint64"
								},
								{
									"internalType": "uint64",
									"name": "Secret",
									"type": "uint64"
								},
								{
									"internalType": "uint64",
									"name": "Signal",
									"type": "uint64"
								},
								{
									"internalType": "uint64",
									"name": "Channel",
									"type": "uint64"
								},
								{
									"internalType": "uint64",
									"name": "Pole",
									"type": "uint64"
								},
								{
									"internalType": "uint64",
									"name": "Identity",
									"type": "uint64"
								},
								{
									"internalType": "uint64",
									"name": "Foundation",
									"type": "uint64"
								},
								{
									"internalType": "uint64",
									"name": "Element",
									"type": "uint64"
								},
								{
									"internalType": "uint64",
									"name": "Dynamo",
									"type": "uint64"
								},
								{
									"internalType": "uint64",
									"name": "Manifold",
									"type": "uint64"
								},
								{
									"internalType": "uint64",
									"name": "Ring",
									"type": "uint64"
								},
								{
									"internalType": "uint64",
									"name": "Barn",
									"type": "uint64"
								},
								{
									"internalType": "uint64",
									"name": "Coordinate",
									"type": "uint64"
								},
								{
									"internalType": "uint64",
									"name": "Tau",
									"type": "uint64"
								},
								{
									"internalType": "uint64",
									"name": "Eta",
									"type": "uint64"
								},
								{
									"internalType": "uint64",
									"name": "Kappa",
									"type": "uint64"
								},
								{
									"internalType": "uint64",
									"name": "Alpha",
									"type": "uint64"
								},
								{
									"internalType": "uint8",
									"name": "Nu",
									"type": "uint8"
								}
							],
							"internalType": "struct Conjecture.Fa",
							"name": "Cone",
							"type": "tuple"
						},
						{
							"internalType": "uint64",
							"name": "Phi",
							"type": "uint64"
						},
						{
							"internalType": "uint64",
							"name": "Eta",
							"type": "uint64"
						},
						{
							"internalType": "uint64",
							"name": "Mu",
							"type": "uint64"
						},
						{
							"internalType": "uint64",
							"name": "Xi",
							"type": "uint64"
						},
						{
							"internalType": "uint64",
							"name": "Sigma",
							"type": "uint64"
						},
						{
							"internalType": "uint64",
							"name": "Rho",
							"type": "uint64"
						},
						{
							"internalType": "uint64",
							"name": "Upsilon",
							"type": "uint64"
						},
						{
							"internalType": "uint64",
							"name": "Ohm",
							"type": "uint64"
						},
						{
							"internalType": "uint64",
							"name": "Pi",
							"type": "uint64"
						},
						{
							"internalType": "uint64",
							"name": "Omicron",
							"type": "uint64"
						},
						{
							"internalType": "uint64",
							"name": "Omega",
							"type": "uint64"
						},
						{
							"internalType": "uint8",
							"name": "Chi",
							"type": "uint8"
						}
					],
					"internalType": "struct Dynamic.Faung",
					"name": "",
					"type": "tuple"
				}
			],
			"stateMutability": "view",
			"type": "function"
		},
		{
			"inputs": [
				{
					"internalType": "address",
					"name": "owner",
					"type": "address"
				},
				{
					"internalType": "address",
					"name": "spender",
					"type": "address"
				}
			],
			"name": "allowance",
			"outputs": [
				{
					"internalType": "uint256",
					"name": "",
					"type": "uint256"
				}
			],
			"stateMutability": "view",
			"type": "function"
		},
		{
			"inputs": [
				{
					"internalType": "address",
					"name": "spender",
					"type": "address"
				},
				{
					"internalType": "uint256",
					"name": "value",
					"type": "uint256"
				}
			],
			"name": "approve",
			"outputs": [
				{
					"internalType": "bool",
					"name": "",
					"type": "bool"
				}
			],
			"stateMutability": "nonpayable",
			"type": "function"
		},
		{
			"inputs": [
				{
					"internalType": "address",
					"name": "account",
					"type": "address"
				}
			],
			"name": "balanceOf",
			"outputs": [
				{
					"internalType": "uint256",
					"name": "",
					"type": "uint256"
				}
			],
			"stateMutability": "view",
			"type": "function"
		},
		{
			"inputs": [
				{
					"internalType": "uint256",
					"name": "value",
					"type": "uint256"
				}
			],
			"name": "burn",
			"outputs": [],
			"stateMutability": "nonpayable",
			"type": "function"
		},
		{
			"inputs": [
				{
					"internalType": "address",
					"name": "account",
					"type": "address"
				},
				{
					"internalType": "uint256",
					"name": "value",
					"type": "uint256"
				}
			],
			"name": "burnFrom",
			"outputs": [],
			"stateMutability": "nonpayable",
			"type": "function"
		},
		{
			"inputs": [],
			"name": "decimals",
			"outputs": [
				{
					"internalType": "uint8",
					"name": "",
					"type": "uint8"
				}
			],
			"stateMutability": "view",
			"type": "function"
		},
		{
			"inputs": [],
			"name": "name",
			"outputs": [
				{
					"internalType": "string",
					"name": "",
					"type": "string"
				}
			],
			"stateMutability": "view",
			"type": "function"
		},
		{
			"inputs": [],
			"name": "owner",
			"outputs": [
				{
					"internalType": "address",
					"name": "",
					"type": "address"
				}
			],
			"stateMutability": "view",
			"type": "function"
		},
		{
			"inputs": [],
			"name": "renounceOwnership",
			"outputs": [],
			"stateMutability": "nonpayable",
			"type": "function"
		},
		{
			"inputs": [],
			"name": "symbol",
			"outputs": [
				{
					"internalType": "string",
					"name": "",
					"type": "string"
				}
			],
			"stateMutability": "view",
			"type": "function"
		},
		{
			"inputs": [],
			"name": "totalSupply",
			"outputs": [
				{
					"internalType": "uint256",
					"name": "",
					"type": "uint256"
				}
			],
			"stateMutability": "view",
			"type": "function"
		},
		{
			"inputs": [
				{
					"internalType": "address",
					"name": "to",
					"type": "address"
				},
				{
					"internalType": "uint256",
					"name": "value",
					"type": "uint256"
				}
			],
			"name": "transfer",
			"outputs": [
				{
					"internalType": "bool",
					"name": "",
					"type": "bool"
				}
			],
			"stateMutability": "nonpayable",
			"type": "function"
		},
		{
			"inputs": [
				{
					"internalType": "address",
					"name": "from",
					"type": "address"
				},
				{
					"internalType": "address",
					"name": "to",
					"type": "address"
				},
				{
					"internalType": "uint256",
					"name": "value",
					"type": "uint256"
				}
			],
			"name": "transferFrom",
			"outputs": [
				{
					"internalType": "bool",
					"name": "",
					"type": "bool"
				}
			],
			"stateMutability": "nonpayable",
			"type": "function"
		},
		{
			"inputs": [
				{
					"internalType": "address",
					"name": "newOwner",
					"type": "address"
				}
			],
			"name": "transferOwnership",
			"outputs": [],
			"stateMutability": "nonpayable",
			"type": "function"
		}
	]
}