{
	"data": {
		"bytecode": {
			"linkReferences": {
				"contracts/AccessGovernanceLibrary.sol": {
					"AccessGovernanceLibrary": [
						{
							"length": 20,
							"start": 2045
						},
						{
							"length": 20,
							"start": 2558
						},
						{
							"length": 20,
							"start": 2735
						},
						{
							"length": 20,
							"start": 4984
						},
						{
							"length": 20,
							"start": 9582
						},
						{
							"length": 20,
							"start": 9723
						},
						{
							"length": 20,
							"start": 9863
						},
						{
							"length": 20,
							"start": 10233
						},
						{
							"length": 20,
							"start": 12775
						}
					]
				},
				"contracts/Vote.sol": {
					"VotePass": [
						{
							"length": 20,
							"start": 10934
						},
						{
							"length": 20,
							"start": 11850
						}
					]
				},
				"contracts/atropamath.sol": {
					"AtropaMath": [
						{
							"length": 20,
							"start": 1776
						},
						{
							"length": 20,
							"start": 2160
						},
						{
							"length": 20,
							"start": 2354
						},
						{
							"length": 20,
							"start": 3495
						},
						{
							"length": 20,
							"start": 3790
						},
						{
							"length": 20,
							"start": 4022
						},
						{
							"length": 20,
							"start": 4336
						},
						{
							"length": 20,
							"start": 4548
						},
						{
							"length": 20,
							"start": 4847
						},
						{
							"length": 20,
							"start": 5447
						},
						{
							"length": 20,
							"start": 5572
						},
						{
							"length": 20,
							"start": 5697
						},
						{
							"length": 20,
							"start": 6289
						},
						{
							"length": 20,
							"start": 6499
						},
						{
							"length": 20,
							"start": 7355
						},
						{
							"length": 20,
							"start": 7587
						},
						{
							"length": 20,
							"start": 7737
						},
						{
							"length": 20,
							"start": 8348
						},
						{
							"length": 20,
							"start": 9157
						},
						{
							"length": 20,
							"start": 9456
						},
						{
							"length": 20,
							"start": 10110
						},
						{
							"length": 20,
							"start": 10382
						},
						{
							"length": 20,
							"start": 11667
						},
						{
							"length": 20,
							"start": 12191
						},
						{
							"length": 20,
							"start": 12631
						}
					]
				},
				"contracts/registry.sol": {
					"LibRegistry": [
						{
							"length": 20,
							"start": 3277
						},
						{
							"length": 20,
							"start": 3737
						},
						{
							"length": 20,
							"start": 3969
						},
						{
							"length": 20,
							"start": 4159
						},
						{
							"length": 20,
							"start": 4283
						},
						{
							"length": 20,
							"start": 4473
						},
						{
							"length": 20,
							"start": 4773
						},
						{
							"length": 20,
							"start": 8076
						},
						{
							"length": 20,
							"start": 8829
						},
						{
							"length": 20,
							"start": 9024
						},
						{
							"length": 20,
							"start": 10519
						},
						{
							"length": 20,
							"start": 10657
						},
						{
							"length": 20,
							"start": 11134
						},
						{
							"length": 20,
							"start": 11234
						},
						{
							"length": 20,
							"start": 12337
						},
						{
							"length": 20,
							"start": 12975
						}
					]
				}
			},
			"object": "60c06040525f600381905564191666858060045565bcf290f3bc00600555600e81905561036960805260a052348015610036575f80fd5b50338061005c57604051631e4fbdf760e01b81525f600482015260240160405180910390fd5b6100658161006b565b506100ba565b5f80546001600160a01b038381166001600160a01b0319831681178455604051919092169283917f8be0079c531659141344cd1fd0a4f28419497f9722a3daafe3b4186f6b6457e09190a35050565b60805160a05161392b6100db5f395f61055501525f610388015261392b5ff3fe608060405234801561000f575f80fd5b5060043610610276575f3560e01c806366501a3c116101565780639f4216e8116100ca578063c462db0d11610084578063c462db0d14610592578063d6906610146105a5578063da1931af146105b8578063de053f55146105cb578063ed03b336146105de578063f2fde38b146105f1575f80fd5b80639f4216e814610508578063a1a418a41461052a578063a907133f1461053d578063ab70120714610550578063bf173c1614610577578063c36789f31461057f575f80fd5b80638b106bbe1161011b5780638b106bbe1461049e5780638da5cb5b146104b15780639067870d146104b957806390b583cb146104cc5780639501f33b146104d55780639cd0c8b7146104f5575f80fd5b806366501a3c1461044a578063715018a61461045d57806376537643146104655780637768990a146104785780637be936241461048b575f80fd5b8063319b0957116101ed5780634c2bd911116101b25780634c2bd911146103e357806350083d3d146103eb57806357e8d86d146103fe5780635d58077b14610411578063606bdca414610424578063637ae58114610437575f80fd5b8063319b09571461035d57806333bb6db91461037057806344df8e701461038357806347688c74146103b75780634aa95644146103c0575f80fd5b80631a2eff271161023e5780631a2eff27146102e65780631d2dc78a14610306578063214d97bd14610319578063219f5354146103395780632b80b3ea1461034c57806330e67af714610355575f80fd5b8063012944491461027a578063066034ea1461029657806309d76a28146102ab5780630cd1bbe3146102cb5780630e10d955146102de575b5f80fd5b610283600e5481565b6040519081526020015b60405180910390f35b6102a96102a4366004613313565b610604565b005b6102be6102b936600461333d565b610771565b60405161028d9190613370565b6102be6102d936600461333d565b610833565b6102836108f5565b6102f96102f436600461337e565b610985565b60405161028d91906133f7565b6102a961031436600461337e565b610b96565b61032c61032736600461337e565b610bcb565b60405161028d91906134a1565b61032c6103473660046134d8565b610cb3565b61028360055481565b610283610da6565b61028361036b36600461333d565b610de0565b6102be61037e36600461337e565b610e74565b6103aa7f000000000000000000000000000000000000000000000000000000000000000081565b60405161028d919061350f565b61028360035481565b6103d36103ce36600461333d565b610ec8565b604051901515815260200161028d565b610283610fc8565b6103d36103f936600461333d565b611002565b6103d361040c366004613523565b6110c0565b6102be61041f36600461337e565b611198565b6102a961043236600461333d565b6111ec565b6102a961044536600461333d565b611322565b6102a9610458366004613552565b61132e565b6102a961134e565b6102a961047336600461333d565b611361565b61028361048636600461357b565b611752565b6002546103aa906001600160a01b031681565b6102a96104ac366004613609565b611b86565b6103aa611b99565b6102a96104c7366004613523565b611ba7565b61028360045481565b6104e86104e336600461333d565b611bcc565b60405161028d9190613651565b6103d36105033660046134d8565b611cb5565b6103d361051636600461337e565b60186020525f908152604090205460ff1681565b6001546103aa906001600160a01b031681565b6102a961054b366004613313565b611d4d565b6102837f000000000000000000000000000000000000000000000000000000000000000081565b610283611e99565b6102a961058d36600461333d565b611ed3565b6102a96105a036600461333d565b611efd565b6102a96105b336600461333d565b6122b2565b6102a96105c636600461333d565b6122d9565b6102a96105d936600461333d565b6123d8565b6103d36105ec36600461333d565b612402565b6102a96105ff36600461333d565b61262f565b604051633e9af3fb60e21b81525f9073__$67a781dffa6e16f85432f473be341b2a0a$__9063fa6bcfec9061063f903090879060040161369c565b602060405180830381865af415801561065a573d5f803e3d5ffd5b505050506040513d601f19601f8201168201806040525081019061067e91906136b6565b60025460405163620d1b0560e11b8152600481018590529192506001600160a01b038581169291169063c41a360a906024016020604051808303815f875af11580156106cc573d5f803e3d5ffd5b505050506040513d601f19601f820116820180604052508101906106f091906136cd565b6001600160a01b03160361076c5760405163786fecb960e01b815260066004820152602481018290526044810183905273__$328d1f9d926c858012bb89345fcdc6854b$__9063786fecb9906064015f6040518083038186803b158015610755575f80fd5b505af4158015610767573d5f803e3d5ffd5b505050505b505050565b604080518082019091525f8082526020820152604051633e9af3fb60e21b81525f9073__$67a781dffa6e16f85432f473be341b2a0a$__9063fa6bcfec906107bf903090879060040161369c565b602060405180830381865af41580156107da573d5f803e3d5ffd5b505050506040513d601f19601f820116820180604052508101906107fe91906136b6565b5f90815260166020908152604091829020825180840190935280546001600160a01b0316835260010154908201529392505050565b604080518082019091525f8082526020820152604051633e9af3fb60e21b81525f9073__$67a781dffa6e16f85432f473be341b2a0a$__9063fa6bcfec90610881903090879060040161369c565b602060405180830381865af415801561089c573d5f803e3d5ffd5b505050506040513d601f19601f820116820180604052508101906108c091906136b6565b5f90815260156020908152604091829020825180840190935280546001600160a01b0316835260010154908201529392505050565b5f610901336006612669565b61090d5761090d6136e8565b604051633ed26acd60e11b81526006600482015273__$328d1f9d926c858012bb89345fcdc6854b$__90637da4d59a906024015b602060405180830381865af415801561095c573d5f803e3d5ffd5b505050506040513d601f19601f8201168201806040525081019061098091906136b6565b905090565b6109b56040805160a081019091525f80825260208201908152602001606081526020015f81526020015f81525090565b6040516334f5f30960e21b815260066004820152602481018390525f9073__$328d1f9d926c858012bb89345fcdc6854b$__9063d3d7cc2490604401602060405180830381865af4158015610a0c573d5f803e3d5ffd5b505050506040513d601f19601f82011682018060405250810190610a3091906136b6565b9050610a3d336006612669565b610a4957610a496136e8565b5f81815260096020908152604091829020825160a0810190935280546001600160a01b03811684529091830190600160a01b900460ff166006811115610a9157610a91613395565b6006811115610aa257610aa2613395565b815260200160018201805480602002602001604051908101604052809291908181526020015f905b82821015610b72578382905f5260205f20018054610ae7906136fc565b80601f0160208091040260200160405190810160405280929190818152602001828054610b13906136fc565b8015610b5e5780601f10610b3557610100808354040283529160200191610b5e565b820191905f5260205f20905b815481529060010190602001808311610b4157829003601f168201915b505050505081526020019060010190610aca565b50505050815260200160028201548152602001600382015481525050915050919050565b610ba1336001612669565b610bc65760405162461bcd60e51b8152600401610bbd90613734565b60405180910390fd5b600e55565b610bd3613253565b60405163cfe6aa6360e01b8152600a6004820152602481018390525f9073__$0302b47f2070ab02d534d3bad2f8e35698$__9063cfe6aa6390604401602060405180830381865af4158015610c2a573d5f803e3d5ffd5b505050506040513d601f19601f82011682018060405250810190610c4e91906136b6565b5f908152600d6020908152604091829020825160608101845281546001600160a01b038082168352600160a01b90910460ff16151582850152845180860186526001840154909116815260029092015492820192909252918101919091529392505050565b610cbb613253565b604051633e9af3fb60e21b81525f9073__$67a781dffa6e16f85432f473be341b2a0a$__9063fa6bcfec90610cff906001600160a01b03881690879060040161369c565b602060405180830381865af4158015610d1a573d5f803e3d5ffd5b505050506040513d601f19601f82011682018060405250810190610d3e91906136b6565b5f908152600d6020908152604091829020825160608101845281546001600160a01b038082168352600160a01b90910460ff16151582850152845180860186526001840154909116815260029092015492820192909252918101919091529150505b92915050565b604051639ba54d2d60e01b8152601260048201525f9073__$0302b47f2070ab02d534d3bad2f8e35698$__90639ba54d2d90602401610941565b604051633e9af3fb60e21b81525f90819073__$67a781dffa6e16f85432f473be341b2a0a$__9063fa6bcfec90610e1d903090879060040161369c565b602060405180830381865af4158015610e38573d5f803e3d5ffd5b505050506040513d601f19601f82011682018060405250810190610e5c91906136b6565b5f908152601560205260409020600101549392505050565b604080518082019091525f808252602082015260405163cfe6aa6360e01b815260126004820152602481018390525f9073__$0302b47f2070ab02d534d3bad2f8e35698$__9063cfe6aa6390604401610881565b604051633e9af3fb60e21b81525f90819073__$67a781dffa6e16f85432f473be341b2a0a$__9063fa6bcfec90610f05903090879060040161369c565b602060405180830381865af4158015610f20573d5f803e3d5ffd5b505050506040513d601f19601f82011682018060405250810190610f4491906136b6565b60405163129a396560e11b8152600f60048201526024810182905290915073__$0302b47f2070ab02d534d3bad2f8e35698$__9063253472ca906044015b602060405180830381865af4158015610f9d573d5f803e3d5ffd5b505050506040513d601f19601f82011682018060405250810190610fc1919061377f565b9392505050565b604051639ba54d2d60e01b8152600a60048201525f9073__$0302b47f2070ab02d534d3bad2f8e35698$__90639ba54d2d90602401610941565b604051633e9af3fb60e21b81525f90819073__$67a781dffa6e16f85432f473be341b2a0a$__9063fa6bcfec9061103f903090879060040161369c565b602060405180830381865af415801561105a573d5f803e3d5ffd5b505050506040513d601f19601f8201168201806040525081019061107e91906136b6565b60405163129a396560e11b8152601260048201526024810182905290915073__$0302b47f2070ab02d534d3bad2f8e35698$__9063253472ca90604401610f82565b5f6110cc336006612669565b6110d8576110d86136e8565b604051633e9af3fb60e21b81525f9073__$67a781dffa6e16f85432f473be341b2a0a$__9063fa6bcfec90611113903090889060040161369c565b602060405180830381865af415801561112e573d5f803e3d5ffd5b505050506040513d601f19601f8201168201806040525081019061115291906136b6565b905082600681111561116657611166613395565b5f82815260096020526040902054600160a01b900460ff16600681111561118f5761118f613395565b14949350505050565b604080518082019091525f808252602082015260405163cfe6aa6360e01b8152600f6004820152602481018390525f9073__$0302b47f2070ab02d534d3bad2f8e35698$__9063cfe6aa63906044016107bf565b6111f7336001612669565b611203576112036136e8565b604051633e9af3fb60e21b81525f9073__$67a781dffa6e16f85432f473be341b2a0a$__9063fa6bcfec9061123e903090869060040161369c565b602060405180830381865af4158015611259573d5f803e3d5ffd5b505050506040513d601f19601f8201168201806040525081019061127d91906136b6565b604051632b39735160e01b8152600660048201526024810182905290915073__$328d1f9d926c858012bb89345fcdc6854b$__90632b397351906044015f6040518083038186803b1580156112d0575f80fd5b505af41580156112e2573d5f803e3d5ffd5b5050505f82815260096020526040812080546001600160a81b0319168155915061130f6001830182613282565b505f600282018190556003909101555050565b61132b816127a2565b50565b611338335f612669565b611340575f80fd5b600392909255600455600555565b611356612b2b565b61135f5f612b5d565b565b61136c336006612669565b6113885760405162461bcd60e51b8152600401610bbd90613734565b60025460405163b10a8e7160e01b81526001600160a01b039091169063b10a8e71906113b890339060040161350f565b6020604051808303815f875af11580156113d4573d5f803e3d5ffd5b505050506040513d601f19601f820116820180604052508101906113f8919061377f565b6114145760405162461bcd60e51b8152600401610bbd9061379a565b61141d81610ec8565b61145b5760405162461bcd60e51b815260206004820152600f60248201526e4e6f7420757020666f7220766f746560881b6044820152606401610bbd565b604051633e9af3fb60e21b81525f9073__$67a781dffa6e16f85432f473be341b2a0a$__9063fa6bcfec90611496903090869060040161369c565b602060405180830381865af41580156114b1573d5f803e3d5ffd5b505050506040513d601f19601f820116820180604052508101906114d591906136b6565b604051633e9af3fb60e21b81529091505f9073__$67a781dffa6e16f85432f473be341b2a0a$__9063fa6bcfec90611513903390879060040161369c565b602060405180830381865af415801561152e573d5f803e3d5ffd5b505050506040513d601f19601f8201168201806040525081019061155291906136b6565b604051633e9af3fb60e21b81529091505f9073__$67a781dffa6e16f85432f473be341b2a0a$__9063fa6bcfec90611590903090339060040161369c565b602060405180830381865af41580156115ab573d5f803e3d5ffd5b505050506040513d601f19601f820116820180604052508101906115cf91906136b6565b90505f60065f83815260096020526040902054600160a01b900460ff1660068111156115fd576115fd613395565b0361160a575060016116ed565b60055f83815260096020526040902054600160a01b900460ff16600681111561163557611635613395565b03611642575060026116ed565b60045f83815260096020526040902054600160a01b900460ff16600681111561166d5761166d613395565b0361167a575060036116ed565b60035f83815260096020526040902054600160a01b900460ff1660068111156116a5576116a5613395565b036116b2575060046116ed565b60015f83815260096020526040902054600160a01b900460ff1660068111156116dd576116dd613395565b036116ea575060056116ed565b505f5b5f8381526017602052604090205460ff1661174b5761170d8160016137d4565b5f858152601660205260408120600101805490919061172d9084906137eb565b90915550505f838152601760205260409020805460ff191660011790555b5050505050565b5f61175c83612bac565b61176584612bef565b6117a35f368080601f0160208091040260200160405190810160405280939291908181526020018383808284375f92019190915250612c3892505050565b604051633e9af3fb60e21b81525f90819073__$67a781dffa6e16f85432f473be341b2a0a$__9063fa6bcfec906117e09030908d9060040161369c565b602060405180830381865af41580156117fb573d5f803e3d5ffd5b505050506040513d601f19601f8201168201806040525081019061181f91906136b6565b5f8181526018602052604090205490915060ff166118405761184089612c7b565b611848612c90565b61185189612402565b505f61185b610da6565b811015611b78575f5b61186c610da6565b811015611b435761188561187f82610e74565b51612bac565b5f73__$67a781dffa6e16f85432f473be341b2a0a$__63fa6bcfec6001600160a01b038e166118b385610e74565b516040516001600160e01b031960e085901b1681526118d692919060040161369c565b602060405180830381865af41580156118f1573d5f803e3d5ffd5b505050506040513d601f19601f8201168201806040525081019061191591906136b6565b90506119208c612bac565b5f61192a83610e74565b5f01516001600160a01b03166399192d8e8e8e8e8d8d6040518663ffffffff1660e01b81526004016119609594939291906137fe565b6020604051808303815f875af115801561197c573d5f803e3d5ffd5b505050506040513d601f19601f820116820180604052508101906119a0919061377f565b90505f6119ac84610e74565b5f01516001600160a01b031663ae0f93868f8f8f8e8e6040518663ffffffff1660e01b81526004016119e29594939291906137fe565b6020604051808303815f875af11580156119fe573d5f803e3d5ffd5b505050506040513d601f19601f82011682018060405250810190611a22919061377f565b90508115611a5a57611a3382612e0d565b5f838152600d60205260409020805460ff60a01b1916600160a01b179055611a5a87612e4e565b8015611a8257611a6981612e0d565b5f838152600d60205260409020805460ff60a01b191690555b5f838152600d6020526040902054611aa390600160a01b900460ff16612e0d565b5f838152600d6020526040902054600160a01b900460ff1615611b3857611ac984610e74565b5f01516001600160a01b031663677196966040518163ffffffff1660e01b8152600401602060405180830381865afa158015611b07573d5f803e3d5ffd5b505050506040513d601f19601f82011682018060405250810190611b2b91906136b6565b611b359088613831565b96505b505050600101611864565b506127108312611b5a5761270f9350505050611b7c565b5f8313611b6d5760fa9350505050611b7c565b829350505050611b7c565b5050505b9695505050505050565b611b8e612b2b565b61076c838383612e93565b5f546001600160a01b031690565b611bb2336002612669565b611bbe57611bbe6136e8565b611bc8828261306b565b5050565b604051633e9af3fb60e21b81526060905f9073__$67a781dffa6e16f85432f473be341b2a0a$__9063fa6bcfec90611c0a903090879060040161369c565b602060405180830381865af4158015611c25573d5f803e3d5ffd5b505050506040513d601f19601f82011682018060405250810190611c4991906136b6565b5f818152601a60209081526040918290208054835181840281018401909452808452939450919290830182828015611ca857602002820191905f5260205f20905b81546001600160a01b03168152600190910190602001808311611c8a575b5050505050915050919050565b604051633e9af3fb60e21b81525f90819073__$67a781dffa6e16f85432f473be341b2a0a$__9063fa6bcfec90611cfb906001600160a01b03881690879060040161369c565b602060405180830381865af4158015611d16573d5f803e3d5ffd5b505050506040513d601f19601f82011682018060405250810190611d3a91906136b6565b9050611d45816131b5565b949350505050565b604051633e9af3fb60e21b81525f9073__$67a781dffa6e16f85432f473be341b2a0a$__9063fa6bcfec90611d88903090879060040161369c565b602060405180830381865af4158015611da3573d5f803e3d5ffd5b505050506040513d601f19601f82011682018060405250810190611dc791906136b6565b6005545f828152600960205260409020600201549192501161076c5760025460405163620d1b0560e11b8152600481018490526001600160a01b0385811692169063c41a360a906024016020604051808303815f875af1158015611e2d573d5f803e3d5ffd5b505050506040513d601f19601f82011682018060405250810190611e5191906136cd565b6001600160a01b03160361076c57611e6a836003612669565b61076c575f81815260096020526040902080546003919060ff60a01b1916600160a01b835b0217905550505050565b604051639ba54d2d60e01b8152600f60048201525f9073__$0302b47f2070ab02d534d3bad2f8e35698$__90639ba54d2d90602401610941565b611edb612b2b565b600280546001600160a01b0319166001600160a01b0392909216919091179055565b611f08336006612669565b611f245760405162461bcd60e51b8152600401610bbd90613734565b60025460405163b10a8e7160e01b81526001600160a01b039091169063b10a8e7190611f5490339060040161350f565b6020604051808303815f875af1158015611f70573d5f803e3d5ffd5b505050506040513d601f19601f82011682018060405250810190611f94919061377f565b611fb05760405162461bcd60e51b8152600401610bbd9061379a565b604051633e9af3fb60e21b81525f9073__$67a781dffa6e16f85432f473be341b2a0a$__9063fa6bcfec90611feb903090869060040161369c565b602060405180830381865af4158015612006573d5f803e3d5ffd5b505050506040513d601f19601f8201168201806040525081019061202a91906136b6565b9050816001600160a01b031663677196966040518163ffffffff1660e01b8152600401602060405180830381865afa158015612068573d5f803e3d5ffd5b505050506040513d601f19601f8201168201806040525081019061208c91906136b6565b50816001600160a01b03166399192d8e6120a4611b99565b5f805f806040518663ffffffff1660e01b81526004016120c89594939291906137fe565b6020604051808303815f875af11580156120e4573d5f803e3d5ffd5b505050506040513d601f19601f82011682018060405250810190612108919061377f565b50816001600160a01b031663ae0f9386612120611b99565b5f805f806040518663ffffffff1660e01b81526004016121449594939291906137fe565b6020604051808303815f875af1158015612160573d5f803e3d5ffd5b505050506040513d601f19601f82011682018060405250810190612184919061377f565b5060405163129a396560e11b8152600f60048201526024810182905273__$0302b47f2070ab02d534d3bad2f8e35698$__9063253472ca90604401602060405180830381865af41580156121da573d5f803e3d5ffd5b505050506040513d601f19601f820116820180604052508101906121fe919061377f565b1561221c57604051633ca148c360e11b815260040160405180910390fd5b5f8181526016602052604080822080546001600160a01b0319166001600160a01b0386161781556001019190915551638b584f4d60e01b8152600f60048201526024810182905273__$0302b47f2070ab02d534d3bad2f8e35698$__90638b584f4d906044015f6040518083038186803b158015612298575f80fd5b505af41580156122aa573d5f803e3d5ffd5b505050505050565b6122bd336002612669565b6113225760405162461bcd60e51b8152600401610bbd90613734565b604051633e9af3fb60e21b81525f9073__$67a781dffa6e16f85432f473be341b2a0a$__9063fa6bcfec90612314903090869060040161369c565b602060405180830381865af415801561232f573d5f803e3d5ffd5b505050506040513d601f19601f8201168201806040525081019061235391906136b6565b6001546040516398179c4160e01b81529192506001600160a01b0316906398179c419061238490859060040161350f565b602060405180830381865afa15801561239f573d5f803e3d5ffd5b505050506040513d601f19601f820116820180604052508101906123c391906136b6565b5f918252600960205260409091206002015550565b6123e0612b2b565b600180546001600160a01b0319166001600160a01b0392909216919091179055565b604051633e9af3fb60e21b81525f90819073__$67a781dffa6e16f85432f473be341b2a0a$__9063fa6bcfec9061243f903090879060040161369c565b602060405180830381865af415801561245a573d5f803e3d5ffd5b505050506040513d601f19601f8201168201806040525081019061247e91906136b6565b600554604051634a0cecb760e11b815291925073__$328d1f9d926c858012bb89345fcdc6854b$__91639419d96e916124c09160069186916004908101613858565b602060405180830381865af41580156124db573d5f803e3d5ffd5b505050506040513d601f19601f820116820180604052508101906124ff919061377f565b1561250d5750600192915050565b60048054604051634a0cecb760e11b815273__$328d1f9d926c858012bb89345fcdc6854b$__92639419d96e9261254d9260069287929160059101613858565b602060405180830381865af4158015612568573d5f803e3d5ffd5b505050506040513d601f19601f8201168201806040525081019061258c919061377f565b1561259a5750600192915050565b600354604051634a0cecb760e11b815273__$328d1f9d926c858012bb89345fcdc6854b$__91639419d96e916125da916006918691908390600401613858565b602060405180830381865af41580156125f5573d5f803e3d5ffd5b505050506040513d601f19601f82011682018060405250810190612619919061377f565b156126275750600192915050565b505f92915050565b612637612b2b565b6001600160a01b038116612660575f604051631e4fbdf760e01b8152600401610bbd919061350f565b61132b81612b5d565b5f612672611b99565b6001600160a01b0316836001600160a01b03160361269257506001610da0565b604051633e9af3fb60e21b81525f9073__$67a781dffa6e16f85432f473be341b2a0a$__9063fa6bcfec906126cd903090889060040161369c565b602060405180830381865af41580156126e8573d5f803e3d5ffd5b505050506040513d601f19601f8201168201806040525081019061270c91906136b6565b60405163a4e84aa760e01b815290915073__$328d1f9d926c858012bb89345fcdc6854b$__9063a4e84aa79061274b9060069085908890600401613883565b602060405180830381865af4158015612766573d5f803e3d5ffd5b505050506040513d601f19601f8201168201806040525081019061278a919061377f565b15612799576001915050610da0565b505f9392505050565b604051633e9af3fb60e21b81525f9073__$67a781dffa6e16f85432f473be341b2a0a$__9063fa6bcfec906127dd903090869060040161369c565b602060405180830381865af41580156127f8573d5f803e3d5ffd5b505050506040513d601f19601f8201168201806040525081019061281c91906136b6565b60405163129a396560e11b8152601260048201526024810182905290915073__$0302b47f2070ab02d534d3bad2f8e35698$__9063253472ca90604401602060405180830381865af4158015612874573d5f803e3d5ffd5b505050506040513d601f19601f82011682018060405250810190612898919061377f565b506128a4336001612669565b156129ab57604051638b584f4d60e01b8152601260048201526024810182905273__$0302b47f2070ab02d534d3bad2f8e35698$__90638b584f4d906044015b5f6040518083038186803b1580156128fa575f80fd5b505af415801561290c573d5f803e3d5ffd5b5050505f8281526015602090815260409182902080546001600160a01b0319166001600160a01b03871690811790915582516333b8cb4b60e11b8152925190935063677196969260048082019392918290030181865afa158015612972573d5f803e3d5ffd5b505050506040513d601f19601f8201168201806040525081019061299691906136b6565b5f828152601560205260409020600101555050565b5f81815260166020908152604091829020825180840190935280546001600160a01b03168352600101549082015273__$a67c1e59e031be6ab81b0b5d4ed54092d5$__90631437ae57906129fd6108f5565b6040518363ffffffff1660e01b8152600401612a1a92919061389e565b602060405180830381865af4158015612a35573d5f803e3d5ffd5b505050506040513d601f19601f82011682018060405250810190612a59919061377f565b612a6557612a656136e8565b5f8181526016602052604080822080546001600160a01b03191681556001019190915551634823fb6f60e11b8152600f60048201526024810182905273__$0302b47f2070ab02d534d3bad2f8e35698$__90639047f6de906044015f6040518083038186803b158015612ad6575f80fd5b505af4158015612ae8573d5f803e3d5ffd5b5050604051638b584f4d60e01b8152601260048201526024810184905273__$0302b47f2070ab02d534d3bad2f8e35698$__9250638b584f4d91506044016128e4565b33612b34611b99565b6001600160a01b03161461135f573360405163118cdaa760e01b8152600401610bbd919061350f565b5f80546001600160a01b038381166001600160a01b0319831681178455604051919092169283917f8be0079c531659141344cd1fd0a4f28419497f9722a3daafe3b4186f6b6457e09190a35050565b61132b81604051602401612bc0919061350f565b60408051601f198184030181529190526020810180516001600160e01b031663161765e160e11b179052613230565b6040516001600160e01b03198216602482015261132b9060440160408051601f198184030181529190526020810180516001600160e01b031663e05f48d160e01b179052613230565b61132b81604051602401612c4c91906138b9565b60408051601f198184030181529190526020810180516001600160e01b03166305f3bfab60e11b179052613230565b61132b81612c885f610e74565b516001612e93565b612c9b336002612669565b1561135f575f612ca9611e99565b90505f5b81811015611bc8575f73__$67a781dffa6e16f85432f473be341b2a0a$__63fa6bcfec30612cda85611198565b516040516001600160e01b031960e085901b168152612cfd92919060040161369c565b602060405180830381865af4158015612d18573d5f803e3d5ffd5b505050506040513d601f19601f82011682018060405250810190612d3c91906136b6565b5f81815260166020908152604091829020825180840190935280546001600160a01b03168352600101549082015290915073__$a67c1e59e031be6ab81b0b5d4ed54092d5$__90631437ae5790612d916108f5565b6040518363ffffffff1660e01b8152600401612dae92919061389e565b602060405180830381865af4158015612dc9573d5f803e3d5ffd5b505050506040513d601f19601f82011682018060405250810190612ded919061377f565b15612e0457612e04612dfe83611198565b516127a2565b50600101612cad565b604051811515602482015261132b9060440160408051601f198184030181529190526020810180516001600160e01b03166332458eed60e01b179052613230565b61132b81604051602401612e6491815260200190565b60408051601f198184030181529190526020810180516001600160e01b0316632d5b6cb960e01b179052613230565b612e9c33612bac565b612ea7336002612669565b612eb357612eb36136e8565b604051633e9af3fb60e21b81525f9073__$67a781dffa6e16f85432f473be341b2a0a$__9063fa6bcfec90612ef7906001600160a01b03881690879060040161369c565b602060405180830381865af4158015612f12573d5f803e3d5ffd5b505050506040513d601f19601f82011682018060405250810190612f3691906136b6565b604051638b584f4d60e01b8152600a60048201526024810182905290915073__$0302b47f2070ab02d534d3bad2f8e35698$__90638b584f4d906044015f6040518083038186803b158015612f89575f80fd5b505af4158015612f9b573d5f803e3d5ffd5b5050505f828152600d602090815260409182902080546001600160a01b03808a166001600160a01b031992831617835560019092018054928916929091168217905582516333b8cb4b60e11b8152925190935063677196969260048082019392918290030181865afa158015613013573d5f803e3d5ffd5b505050506040513d601f19601f8201168201806040525081019061303791906136b6565b5f918252600d602052604090912060028101919091558054911515600160a01b0260ff60a01b199092169190911790555050565b604051633e9af3fb60e21b81525f9073__$67a781dffa6e16f85432f473be341b2a0a$__9063fa6bcfec906130a6903090879060040161369c565b602060405180830381865af41580156130c1573d5f803e3d5ffd5b505050506040513d601f19601f820116820180604052508101906130e591906136b6565b90506130f2336006612669565b6130fe576130fe6136e8565b60405162b1348160e61b815273__$328d1f9d926c858012bb89345fcdc6854b$__90632c4d20409061313b906006908590889088906004016138cb565b5f6040518083038186803b158015613151575f80fd5b505af4158015613163573d5f803e3d5ffd5b5050505f82815260096020526040902080546001600160a01b0386166001600160a01b03198216811783558593506001600160a81b031990911617600160a01b836006811115611e8f57611e8f613395565b60405163129a396560e11b8152600a6004820152602481018290525f9073__$0302b47f2070ab02d534d3bad2f8e35698$__9063253472ca90604401602060405180830381865af415801561320c573d5f803e3d5ffd5b505050506040513d601f19601f82011682018060405250810190610da0919061377f565b61132b815f6a636f6e736f6c652e6c6f6790505f80835160208501845afa505050565b604080516060810182525f80825260208083018290528351808501855282815290810191909152909182015290565b5080545f8255905f5260205f209081019061132b91905b808211156132b5575f6132ac82826132b9565b50600101613299565b5090565b5080546132c5906136fc565b5f825580601f106132d4575050565b601f0160209004905f5260205f209081019061132b91905b808211156132b5575f81556001016132ec565b6001600160a01b038116811461132b575f80fd5b5f8060408385031215613324575f80fd5b823561332f816132ff565b946020939093013593505050565b5f6020828403121561334d575f80fd5b8135610fc1816132ff565b80516001600160a01b03168252602090810151910152565b60408101610da08284613358565b5f6020828403121561338e575f80fd5b5035919050565b634e487b7160e01b5f52602160045260245ffd5b600781106133c557634e487b7160e01b5f52602160045260245ffd5b9052565b5f81518084528060208401602086015e5f602082860101526020601f19601f83011685010191505092915050565b602080825282516001600160a01b0316828201528201515f9060c083019061342260408501826133a9565b50604084015160a0606085015281815180845260e08601915060e08160051b87010193506020830192505f5b8181101561347f5760df1987860301835261346a8585516133c9565b9450602093840193929092019160010161344e565b5050505060608401516080840152608084015160a08401528091505092915050565b81516001600160a01b0316815260208083015115159082015260408083015160808301916134d190840182613358565b5092915050565b5f80604083850312156134e9575f80fd5b82356134f4816132ff565b91506020830135613504816132ff565b809150509250929050565b6001600160a01b0391909116815260200190565b5f8060408385031215613534575f80fd5b823561353f816132ff565b9150602083013560078110613504575f80fd5b5f805f60608486031215613564575f80fd5b505081359360208301359350604090920135919050565b5f805f805f8060c08789031215613590575f80fd5b863561359b816132ff565b955060208701356135ab816132ff565b945060408701356135bb816132ff565b935060608701356001600160e01b0319811681146135d7575f80fd5b925060808701356135e7816132ff565b9598949750929591949360a090920135925050565b801515811461132b575f80fd5b5f805f6060848603121561361b575f80fd5b8335613626816132ff565b92506020840135613636816132ff565b91506040840135613646816135fc565b809150509250925092565b602080825282518282018190525f918401906040840190835b818110156136915783516001600160a01b031683526020938401939092019160010161366a565b509095945050505050565b6001600160a01b0392831681529116602082015260400190565b5f602082840312156136c6575f80fd5b5051919050565b5f602082840312156136dd575f80fd5b8151610fc1816132ff565b634e487b7160e01b5f52600160045260245ffd5b600181811c9082168061371057607f821691505b60208210810361372e57634e487b7160e01b5f52602260045260245ffd5b50919050565b6020808252602b908201527f596f7520646f6e7420686176652061636365737320746f2070726f706f73652060408201526a61206e657720636c61737360a81b606082015260800190565b5f6020828403121561378f575f80fd5b8151610fc1816135fc565b6020808252600c908201526b4e656564204c69747061737360a01b604082015260600190565b634e487b7160e01b5f52601160045260245ffd5b8082028115828204841417610da057610da06137c0565b80820180821115610da057610da06137c0565b6001600160a01b039586168152938516602085015291841660408401529092166060820152608081019190915260a00190565b8082018281125f831280158216821582161715613850576138506137c0565b505092915050565b84815260208101849052604081018390526080810161387a60608301846133a9565b95945050505050565b8381526020810183905260608101611d4560408301846133a9565b606081016138ac8285613358565b8260408301529392505050565b602081525f610fc160208301846133c9565b848152602081018490526001600160a01b03831660408201526080810161387a60608301846133a956fea26469706673582212209d3cd85920775330c40ea1da1358c950aa442e9a966aa27bea6f2f7e164b81a364736f6c634300081a0033",
			"opcodes": "PUSH1 0xC0 PUSH1 0x40 MSTORE PUSH0 PUSH1 0x3 DUP2 SWAP1 SSTORE PUSH5 0x1916668580 PUSH1 0x4 SSTORE PUSH6 0xBCF290F3BC00 PUSH1 0x5 SSTORE PUSH1 0xE DUP2 SWAP1 SSTORE PUSH2 0x369 PUSH1 0x80 MSTORE PUSH1 0xA0 MSTORE CALLVALUE DUP1 ISZERO PUSH2 0x36 JUMPI PUSH0 DUP1 REVERT JUMPDEST POP CALLER DUP1 PUSH2 0x5C JUMPI PUSH1 0x40 MLOAD PUSH4 0x1E4FBDF7 PUSH1 0xE0 SHL DUP2 MSTORE PUSH0 PUSH1 0x4 DUP3 ADD MSTORE PUSH1 0x24 ADD PUSH1 0x40 MLOAD DUP1 SWAP2 SUB SWAP1 REVERT JUMPDEST PUSH2 0x65 DUP2 PUSH2 0x6B JUMP JUMPDEST POP PUSH2 0xBA JUMP JUMPDEST PUSH0 DUP1 SLOAD PUSH1 0x1 PUSH1 0x1 PUSH1 0xA0 SHL SUB DUP4 DUP2 AND PUSH1 0x1 PUSH1 0x1 PUSH1 0xA0 SHL SUB NOT DUP4 AND DUP2 OR DUP5 SSTORE PUSH1 0x40 MLOAD SWAP2 SWAP1 SWAP3 AND SWAP3 DUP4 SWAP2 PUSH32 0x8BE0079C531659141344CD1FD0A4F28419497F9722A3DAAFE3B4186F6B6457E0 SWAP2 SWAP1 LOG3 POP POP JUMP JUMPDEST PUSH1 0x80 MLOAD PUSH1 0xA0 MLOAD PUSH2 0x392B PUSH2 0xDB PUSH0 CODECOPY PUSH0 PUSH2 0x555 ADD MSTORE PUSH0 PUSH2 0x388 ADD MSTORE PUSH2 0x392B PUSH0 RETURN INVALID PUSH1 0x80 PUSH1 0x40 MSTORE CALLVALUE DUP1 ISZERO PUSH2 0xF JUMPI PUSH0 DUP1 REVERT JUMPDEST POP PUSH1 0x4 CALLDATASIZE LT PUSH2 0x276 JUMPI PUSH0 CALLDATALOAD PUSH1 0xE0 SHR DUP1 PUSH4 0x66501A3C GT PUSH2 0x156 JUMPI DUP1 PUSH4 0x9F4216E8 GT PUSH2 0xCA JUMPI DUP1 PUSH4 0xC462DB0D GT PUSH2 0x84 JUMPI DUP1 PUSH4 0xC462DB0D EQ PUSH2 0x592 JUMPI DUP1 PUSH4 0xD6906610 EQ PUSH2 0x5A5 JUMPI DUP1 PUSH4 0xDA1931AF EQ PUSH2 0x5B8 JUMPI DUP1 PUSH4 0xDE053F55 EQ PUSH2 0x5CB JUMPI DUP1 PUSH4 0xED03B336 EQ PUSH2 0x5DE JUMPI DUP1 PUSH4 0xF2FDE38B EQ PUSH2 0x5F1 JUMPI PUSH0 DUP1 REVERT JUMPDEST DUP1 PUSH4 0x9F4216E8 EQ PUSH2 0x508 JUMPI DUP1 PUSH4 0xA1A418A4 EQ PUSH2 0x52A JUMPI DUP1 PUSH4 0xA907133F EQ PUSH2 0x53D JUMPI DUP1 PUSH4 0xAB701207 EQ PUSH2 0x550 JUMPI DUP1 PUSH4 0xBF173C16 EQ PUSH2 0x577 JUMPI DUP1 PUSH4 0xC36789F3 EQ PUSH2 0x57F JUMPI PUSH0 DUP1 REVERT JUMPDEST DUP1 PUSH4 0x8B106BBE GT PUSH2 0x11B JUMPI DUP1 PUSH4 0x8B106BBE EQ PUSH2 0x49E JUMPI DUP1 PUSH4 0x8DA5CB5B EQ PUSH2 0x4B1 JUMPI DUP1 PUSH4 0x9067870D EQ PUSH2 0x4B9 JUMPI DUP1 PUSH4 0x90B583CB EQ PUSH2 0x4CC JUMPI DUP1 PUSH4 0x9501F33B EQ PUSH2 0x4D5 JUMPI DUP1 PUSH4 0x9CD0C8B7 EQ PUSH2 0x4F5 JUMPI PUSH0 DUP1 REVERT JUMPDEST DUP1 PUSH4 0x66501A3C EQ PUSH2 0x44A JUMPI DUP1 PUSH4 0x715018A6 EQ PUSH2 0x45D JUMPI DUP1 PUSH4 0x76537643 EQ PUSH2 0x465 JUMPI DUP1 PUSH4 0x7768990A EQ PUSH2 0x478 JUMPI DUP1 PUSH4 0x7BE93624 EQ PUSH2 0x48B JUMPI PUSH0 DUP1 REVERT JUMPDEST DUP1 PUSH4 0x319B0957 GT PUSH2 0x1ED JUMPI DUP1 PUSH4 0x4C2BD911 GT PUSH2 0x1B2 JUMPI DUP1 PUSH4 0x4C2BD911 EQ PUSH2 0x3E3 JUMPI DUP1 PUSH4 0x50083D3D EQ PUSH2 0x3EB JUMPI DUP1 PUSH4 0x57E8D86D EQ PUSH2 0x3FE JUMPI DUP1 PUSH4 0x5D58077B EQ PUSH2 0x411 JUMPI DUP1 PUSH4 0x606BDCA4 EQ PUSH2 0x424 JUMPI DUP1 PUSH4 0x637AE581 EQ PUSH2 0x437 JUMPI PUSH0 DUP1 REVERT JUMPDEST DUP1 PUSH4 0x319B0957 EQ PUSH2 0x35D JUMPI DUP1 PUSH4 0x33BB6DB9 EQ PUSH2 0x370 JUMPI DUP1 PUSH4 0x44DF8E70 EQ PUSH2 0x383 JUMPI DUP1 PUSH4 0x47688C74 EQ PUSH2 0x3B7 JUMPI DUP1 PUSH4 0x4AA95644 EQ PUSH2 0x3C0 JUMPI PUSH0 DUP1 REVERT JUMPDEST DUP1 PUSH4 0x1A2EFF27 GT PUSH2 0x23E JUMPI DUP1 PUSH4 0x1A2EFF27 EQ PUSH2 0x2E6 JUMPI DUP1 PUSH4 0x1D2DC78A EQ PUSH2 0x306 JUMPI DUP1 PUSH4 0x214D97BD EQ PUSH2 0x319 JUMPI DUP1 PUSH4 0x219F5354 EQ PUSH2 0x339 JUMPI DUP1 PUSH4 0x2B80B3EA EQ PUSH2 0x34C JUMPI DUP1 PUSH4 0x30E67AF7 EQ PUSH2 0x355 JUMPI PUSH0 DUP1 REVERT JUMPDEST DUP1 PUSH4 0x1294449 EQ PUSH2 0x27A JUMPI DUP1 PUSH4 0x66034EA EQ PUSH2 0x296 JUMPI DUP1 PUSH4 0x9D76A28 EQ PUSH2 0x2AB JUMPI DUP1 PUSH4 0xCD1BBE3 EQ PUSH2 0x2CB JUMPI DUP1 PUSH4 0xE10D955 EQ PUSH2 0x2DE JUMPI JUMPDEST PUSH0 DUP1 REVERT JUMPDEST PUSH2 0x283 PUSH1 0xE SLOAD DUP2 JUMP JUMPDEST PUSH1 0x40 MLOAD SWAP1 DUP2 MSTORE PUSH1 0x20 ADD JUMPDEST PUSH1 0x40 MLOAD DUP1 SWAP2 SUB SWAP1 RETURN JUMPDEST PUSH2 0x2A9 PUSH2 0x2A4 CALLDATASIZE PUSH1 0x4 PUSH2 0x3313 JUMP JUMPDEST PUSH2 0x604 JUMP JUMPDEST STOP JUMPDEST PUSH2 0x2BE PUSH2 0x2B9 CALLDATASIZE PUSH1 0x4 PUSH2 0x333D JUMP JUMPDEST PUSH2 0x771 JUMP JUMPDEST PUSH1 0x40 MLOAD PUSH2 0x28D SWAP2 SWAP1 PUSH2 0x3370 JUMP JUMPDEST PUSH2 0x2BE PUSH2 0x2D9 CALLDATASIZE PUSH1 0x4 PUSH2 0x333D JUMP JUMPDEST PUSH2 0x833 JUMP JUMPDEST PUSH2 0x283 PUSH2 0x8F5 JUMP JUMPDEST PUSH2 0x2F9 PUSH2 0x2F4 CALLDATASIZE PUSH1 0x4 PUSH2 0x337E JUMP JUMPDEST PUSH2 0x985 JUMP JUMPDEST PUSH1 0x40 MLOAD PUSH2 0x28D SWAP2 SWAP1 PUSH2 0x33F7 JUMP JUMPDEST PUSH2 0x2A9 PUSH2 0x314 CALLDATASIZE PUSH1 0x4 PUSH2 0x337E JUMP JUMPDEST PUSH2 0xB96 JUMP JUMPDEST PUSH2 0x32C PUSH2 0x327 CALLDATASIZE PUSH1 0x4 PUSH2 0x337E JUMP JUMPDEST PUSH2 0xBCB JUMP JUMPDEST PUSH1 0x40 MLOAD PUSH2 0x28D SWAP2 SWAP1 PUSH2 0x34A1 JUMP JUMPDEST PUSH2 0x32C PUSH2 0x347 CALLDATASIZE PUSH1 0x4 PUSH2 0x34D8 JUMP JUMPDEST PUSH2 0xCB3 JUMP JUMPDEST PUSH2 0x283 PUSH1 0x5 SLOAD DUP2 JUMP JUMPDEST PUSH2 0x283 PUSH2 0xDA6 JUMP JUMPDEST PUSH2 0x283 PUSH2 0x36B CALLDATASIZE PUSH1 0x4 PUSH2 0x333D JUMP JUMPDEST PUSH2 0xDE0 JUMP JUMPDEST PUSH2 0x2BE PUSH2 0x37E CALLDATASIZE PUSH1 0x4 PUSH2 0x337E JUMP JUMPDEST PUSH2 0xE74 JUMP JUMPDEST PUSH2 0x3AA PUSH32 0x0 DUP2 JUMP JUMPDEST PUSH1 0x40 MLOAD PUSH2 0x28D SWAP2 SWAP1 PUSH2 0x350F JUMP JUMPDEST PUSH2 0x283 PUSH1 0x3 SLOAD DUP2 JUMP JUMPDEST PUSH2 0x3D3 PUSH2 0x3CE CALLDATASIZE PUSH1 0x4 PUSH2 0x333D JUMP JUMPDEST PUSH2 0xEC8 JUMP JUMPDEST PUSH1 0x40 MLOAD SWAP1 ISZERO ISZERO DUP2 MSTORE PUSH1 0x20 ADD PUSH2 0x28D JUMP JUMPDEST PUSH2 0x283 PUSH2 0xFC8 JUMP JUMPDEST PUSH2 0x3D3 PUSH2 0x3F9 CALLDATASIZE PUSH1 0x4 PUSH2 0x333D JUMP JUMPDEST PUSH2 0x1002 JUMP JUMPDEST PUSH2 0x3D3 PUSH2 0x40C CALLDATASIZE PUSH1 0x4 PUSH2 0x3523 JUMP JUMPDEST PUSH2 0x10C0 JUMP JUMPDEST PUSH2 0x2BE PUSH2 0x41F CALLDATASIZE PUSH1 0x4 PUSH2 0x337E JUMP JUMPDEST PUSH2 0x1198 JUMP JUMPDEST PUSH2 0x2A9 PUSH2 0x432 CALLDATASIZE PUSH1 0x4 PUSH2 0x333D JUMP JUMPDEST PUSH2 0x11EC JUMP JUMPDEST PUSH2 0x2A9 PUSH2 0x445 CALLDATASIZE PUSH1 0x4 PUSH2 0x333D JUMP JUMPDEST PUSH2 0x1322 JUMP JUMPDEST PUSH2 0x2A9 PUSH2 0x458 CALLDATASIZE PUSH1 0x4 PUSH2 0x3552 JUMP JUMPDEST PUSH2 0x132E JUMP JUMPDEST PUSH2 0x2A9 PUSH2 0x134E JUMP JUMPDEST PUSH2 0x2A9 PUSH2 0x473 CALLDATASIZE PUSH1 0x4 PUSH2 0x333D JUMP JUMPDEST PUSH2 0x1361 JUMP JUMPDEST PUSH2 0x283 PUSH2 0x486 CALLDATASIZE PUSH1 0x4 PUSH2 0x357B JUMP JUMPDEST PUSH2 0x1752 JUMP JUMPDEST PUSH1 0x2 SLOAD PUSH2 0x3AA SWAP1 PUSH1 0x1 PUSH1 0x1 PUSH1 0xA0 SHL SUB AND DUP2 JUMP JUMPDEST PUSH2 0x2A9 PUSH2 0x4AC CALLDATASIZE PUSH1 0x4 PUSH2 0x3609 JUMP JUMPDEST PUSH2 0x1B86 JUMP JUMPDEST PUSH2 0x3AA PUSH2 0x1B99 JUMP JUMPDEST PUSH2 0x2A9 PUSH2 0x4C7 CALLDATASIZE PUSH1 0x4 PUSH2 0x3523 JUMP JUMPDEST PUSH2 0x1BA7 JUMP JUMPDEST PUSH2 0x283 PUSH1 0x4 SLOAD DUP2 JUMP JUMPDEST PUSH2 0x4E8 PUSH2 0x4E3 CALLDATASIZE PUSH1 0x4 PUSH2 0x333D JUMP JUMPDEST PUSH2 0x1BCC JUMP JUMPDEST PUSH1 0x40 MLOAD PUSH2 0x28D SWAP2 SWAP1 PUSH2 0x3651 JUMP JUMPDEST PUSH2 0x3D3 PUSH2 0x503 CALLDATASIZE PUSH1 0x4 PUSH2 0x34D8 JUMP JUMPDEST PUSH2 0x1CB5 JUMP JUMPDEST PUSH2 0x3D3 PUSH2 0x516 CALLDATASIZE PUSH1 0x4 PUSH2 0x337E JUMP JUMPDEST PUSH1 0x18 PUSH1 0x20 MSTORE PUSH0 SWAP1 DUP2 MSTORE PUSH1 0x40 SWAP1 KECCAK256 SLOAD PUSH1 0xFF AND DUP2 JUMP JUMPDEST PUSH1 0x1 SLOAD PUSH2 0x3AA SWAP1 PUSH1 0x1 PUSH1 0x1 PUSH1 0xA0 SHL SUB AND DUP2 JUMP JUMPDEST PUSH2 0x2A9 PUSH2 0x54B CALLDATASIZE PUSH1 0x4 PUSH2 0x3313 JUMP JUMPDEST PUSH2 0x1D4D JUMP JUMPDEST PUSH2 0x283 PUSH32 0x0 DUP2 JUMP JUMPDEST PUSH2 0x283 PUSH2 0x1E99 JUMP JUMPDEST PUSH2 0x2A9 PUSH2 0x58D CALLDATASIZE PUSH1 0x4 PUSH2 0x333D JUMP JUMPDEST PUSH2 0x1ED3 JUMP JUMPDEST PUSH2 0x2A9 PUSH2 0x5A0 CALLDATASIZE PUSH1 0x4 PUSH2 0x333D JUMP JUMPDEST PUSH2 0x1EFD JUMP JUMPDEST PUSH2 0x2A9 PUSH2 0x5B3 CALLDATASIZE PUSH1 0x4 PUSH2 0x333D JUMP JUMPDEST PUSH2 0x22B2 JUMP JUMPDEST PUSH2 0x2A9 PUSH2 0x5C6 CALLDATASIZE PUSH1 0x4 PUSH2 0x333D JUMP JUMPDEST PUSH2 0x22D9 JUMP JUMPDEST PUSH2 0x2A9 PUSH2 0x5D9 CALLDATASIZE PUSH1 0x4 PUSH2 0x333D JUMP JUMPDEST PUSH2 0x23D8 JUMP JUMPDEST PUSH2 0x3D3 PUSH2 0x5EC CALLDATASIZE PUSH1 0x4 PUSH2 0x333D JUMP JUMPDEST PUSH2 0x2402 JUMP JUMPDEST PUSH2 0x2A9 PUSH2 0x5FF CALLDATASIZE PUSH1 0x4 PUSH2 0x333D JUMP JUMPDEST PUSH2 0x262F JUMP JUMPDEST PUSH1 0x40 MLOAD PUSH4 0x3E9AF3FB PUSH1 0xE2 SHL DUP2 MSTORE PUSH0 SWAP1 PUSH20 0x0 SWAP1 PUSH4 0xFA6BCFEC SWAP1 PUSH2 0x63F SWAP1 ADDRESS SWAP1 DUP8 SWAP1 PUSH1 0x4 ADD PUSH2 0x369C JUMP JUMPDEST PUSH1 0x20 PUSH1 0x40 MLOAD DUP1 DUP4 SUB DUP2 DUP7 GAS DELEGATECALL ISZERO DUP1 ISZERO PUSH2 0x65A JUMPI RETURNDATASIZE PUSH0 DUP1 RETURNDATACOPY RETURNDATASIZE PUSH0 REVERT JUMPDEST POP POP POP POP PUSH1 0x40 MLOAD RETURNDATASIZE PUSH1 0x1F NOT PUSH1 0x1F DUP3 ADD AND DUP3 ADD DUP1 PUSH1 0x40 MSTORE POP DUP2 ADD SWAP1 PUSH2 0x67E SWAP2 SWAP1 PUSH2 0x36B6 JUMP JUMPDEST PUSH1 0x2 SLOAD PUSH1 0x40 MLOAD PUSH4 0x620D1B05 PUSH1 0xE1 SHL DUP2 MSTORE PUSH1 0x4 DUP2 ADD DUP6 SWAP1 MSTORE SWAP2 SWAP3 POP PUSH1 0x1 PUSH1 0x1 PUSH1 0xA0 SHL SUB DUP6 DUP2 AND SWAP3 SWAP2 AND SWAP1 PUSH4 0xC41A360A SWAP1 PUSH1 0x24 ADD PUSH1 0x20 PUSH1 0x40 MLOAD DUP1 DUP4 SUB DUP2 PUSH0 DUP8 GAS CALL ISZERO DUP1 ISZERO PUSH2 0x6CC JUMPI RETURNDATASIZE PUSH0 DUP1 RETURNDATACOPY RETURNDATASIZE PUSH0 REVERT JUMPDEST POP POP POP POP PUSH1 0x40 MLOAD RETURNDATASIZE PUSH1 0x1F NOT PUSH1 0x1F DUP3 ADD AND DUP3 ADD DUP1 PUSH1 0x40 MSTORE POP DUP2 ADD SWAP1 PUSH2 0x6F0 SWAP2 SWAP1 PUSH2 0x36CD JUMP JUMPDEST PUSH1 0x1 PUSH1 0x1 PUSH1 0xA0 SHL SUB AND SUB PUSH2 0x76C JUMPI PUSH1 0x40 MLOAD PUSH4 0x786FECB9 PUSH1 0xE0 SHL DUP2 MSTORE PUSH1 0x6 PUSH1 0x4 DUP3 ADD MSTORE PUSH1 0x24 DUP2 ADD DUP3 SWAP1 MSTORE PUSH1 0x44 DUP2 ADD DUP4 SWAP1 MSTORE PUSH20 0x0 SWAP1 PUSH4 0x786FECB9 SWAP1 PUSH1 0x64 ADD PUSH0 PUSH1 0x40 MLOAD DUP1 DUP4 SUB DUP2 DUP7 DUP1 EXTCODESIZE ISZERO DUP1 ISZERO PUSH2 0x755 JUMPI PUSH0 DUP1 REVERT JUMPDEST POP GAS DELEGATECALL ISZERO DUP1 ISZERO PUSH2 0x767 JUMPI RETURNDATASIZE PUSH0 DUP1 RETURNDATACOPY RETURNDATASIZE PUSH0 REVERT JUMPDEST POP POP POP POP JUMPDEST POP POP POP JUMP JUMPDEST PUSH1 0x40 DUP1 MLOAD DUP1 DUP3 ADD SWAP1 SWAP2 MSTORE PUSH0 DUP1 DUP3 MSTORE PUSH1 0x20 DUP3 ADD MSTORE PUSH1 0x40 MLOAD PUSH4 0x3E9AF3FB PUSH1 0xE2 SHL DUP2 MSTORE PUSH0 SWAP1 PUSH20 0x0 SWAP1 PUSH4 0xFA6BCFEC SWAP1 PUSH2 0x7BF SWAP1 ADDRESS SWAP1 DUP8 SWAP1 PUSH1 0x4 ADD PUSH2 0x369C JUMP JUMPDEST PUSH1 0x20 PUSH1 0x40 MLOAD DUP1 DUP4 SUB DUP2 DUP7 GAS DELEGATECALL ISZERO DUP1 ISZERO PUSH2 0x7DA JUMPI RETURNDATASIZE PUSH0 DUP1 RETURNDATACOPY RETURNDATASIZE PUSH0 REVERT JUMPDEST POP POP POP POP PUSH1 0x40 MLOAD RETURNDATASIZE PUSH1 0x1F NOT PUSH1 0x1F DUP3 ADD AND DUP3 ADD DUP1 PUSH1 0x40 MSTORE POP DUP2 ADD SWAP1 PUSH2 0x7FE SWAP2 SWAP1 PUSH2 0x36B6 JUMP JUMPDEST PUSH0 SWAP1 DUP2 MSTORE PUSH1 0x16 PUSH1 0x20 SWAP1 DUP2 MSTORE PUSH1 0x40 SWAP2 DUP3 SWAP1 KECCAK256 DUP3 MLOAD DUP1 DUP5 ADD SWAP1 SWAP4 MSTORE DUP1 SLOAD PUSH1 0x1 PUSH1 0x1 PUSH1 0xA0 SHL SUB AND DUP4 MSTORE PUSH1 0x1 ADD SLOAD SWAP1 DUP3 ADD MSTORE SWAP4 SWAP3 POP POP POP JUMP JUMPDEST PUSH1 0x40 DUP1 MLOAD DUP1 DUP3 ADD SWAP1 SWAP2 MSTORE PUSH0 DUP1 DUP3 MSTORE PUSH1 0x20 DUP3 ADD MSTORE PUSH1 0x40 MLOAD PUSH4 0x3E9AF3FB PUSH1 0xE2 SHL DUP2 MSTORE PUSH0 SWAP1 PUSH20 0x0 SWAP1 PUSH4 0xFA6BCFEC SWAP1 PUSH2 0x881 SWAP1 ADDRESS SWAP1 DUP8 SWAP1 PUSH1 0x4 ADD PUSH2 0x369C JUMP JUMPDEST PUSH1 0x20 PUSH1 0x40 MLOAD DUP1 DUP4 SUB DUP2 DUP7 GAS DELEGATECALL ISZERO DUP1 ISZERO PUSH2 0x89C JUMPI RETURNDATASIZE PUSH0 DUP1 RETURNDATACOPY RETURNDATASIZE PUSH0 REVERT JUMPDEST POP POP POP POP PUSH1 0x40 MLOAD RETURNDATASIZE PUSH1 0x1F NOT PUSH1 0x1F DUP3 ADD AND DUP3 ADD DUP1 PUSH1 0x40 MSTORE POP DUP2 ADD SWAP1 PUSH2 0x8C0 SWAP2 SWAP1 PUSH2 0x36B6 JUMP JUMPDEST PUSH0 SWAP1 DUP2 MSTORE PUSH1 0x15 PUSH1 0x20 SWAP1 DUP2 MSTORE PUSH1 0x40 SWAP2 DUP3 SWAP1 KECCAK256 DUP3 MLOAD DUP1 DUP5 ADD SWAP1 SWAP4 MSTORE DUP1 SLOAD PUSH1 0x1 PUSH1 0x1 PUSH1 0xA0 SHL SUB AND DUP4 MSTORE PUSH1 0x1 ADD SLOAD SWAP1 DUP3 ADD MSTORE SWAP4 SWAP3 POP POP POP JUMP JUMPDEST PUSH0 PUSH2 0x901 CALLER PUSH1 0x6 PUSH2 0x2669 JUMP JUMPDEST PUSH2 0x90D JUMPI PUSH2 0x90D PUSH2 0x36E8 JUMP JUMPDEST PUSH1 0x40 MLOAD PUSH4 0x3ED26ACD PUSH1 0xE1 SHL DUP2 MSTORE PUSH1 0x6 PUSH1 0x4 DUP3 ADD MSTORE PUSH20 0x0 SWAP1 PUSH4 0x7DA4D59A SWAP1 PUSH1 0x24 ADD JUMPDEST PUSH1 0x20 PUSH1 0x40 MLOAD DUP1 DUP4 SUB DUP2 DUP7 GAS DELEGATECALL ISZERO DUP1 ISZERO PUSH2 0x95C JUMPI RETURNDATASIZE PUSH0 DUP1 RETURNDATACOPY RETURNDATASIZE PUSH0 REVERT JUMPDEST POP POP POP POP PUSH1 0x40 MLOAD RETURNDATASIZE PUSH1 0x1F NOT PUSH1 0x1F DUP3 ADD AND DUP3 ADD DUP1 PUSH1 0x40 MSTORE POP DUP2 ADD SWAP1 PUSH2 0x980 SWAP2 SWAP1 PUSH2 0x36B6 JUMP JUMPDEST SWAP1 POP SWAP1 JUMP JUMPDEST PUSH2 0x9B5 PUSH1 0x40 DUP1 MLOAD PUSH1 0xA0 DUP2 ADD SWAP1 SWAP2 MSTORE PUSH0 DUP1 DUP3 MSTORE PUSH1 0x20 DUP3 ADD SWAP1 DUP2 MSTORE PUSH1 0x20 ADD PUSH1 0x60 DUP2 MSTORE PUSH1 0x20 ADD PUSH0 DUP2 MSTORE PUSH1 0x20 ADD PUSH0 DUP2 MSTORE POP SWAP1 JUMP JUMPDEST PUSH1 0x40 MLOAD PUSH4 0x34F5F309 PUSH1 0xE2 SHL DUP2 MSTORE PUSH1 0x6 PUSH1 0x4 DUP3 ADD MSTORE PUSH1 0x24 DUP2 ADD DUP4 SWAP1 MSTORE PUSH0 SWAP1 PUSH20 0x0 SWAP1 PUSH4 0xD3D7CC24 SWAP1 PUSH1 0x44 ADD PUSH1 0x20 PUSH1 0x40 MLOAD DUP1 DUP4 SUB DUP2 DUP7 GAS DELEGATECALL ISZERO DUP1 ISZERO PUSH2 0xA0C JUMPI RETURNDATASIZE PUSH0 DUP1 RETURNDATACOPY RETURNDATASIZE PUSH0 REVERT JUMPDEST POP POP POP POP PUSH1 0x40 MLOAD RETURNDATASIZE PUSH1 0x1F NOT PUSH1 0x1F DUP3 ADD AND DUP3 ADD DUP1 PUSH1 0x40 MSTORE POP DUP2 ADD SWAP1 PUSH2 0xA30 SWAP2 SWAP1 PUSH2 0x36B6 JUMP JUMPDEST SWAP1 POP PUSH2 0xA3D CALLER PUSH1 0x6 PUSH2 0x2669 JUMP JUMPDEST PUSH2 0xA49 JUMPI PUSH2 0xA49 PUSH2 0x36E8 JUMP JUMPDEST PUSH0 DUP2 DUP2 MSTORE PUSH1 0x9 PUSH1 0x20 SWAP1 DUP2 MSTORE PUSH1 0x40 SWAP2 DUP3 SWAP1 KECCAK256 DUP3 MLOAD PUSH1 0xA0 DUP2 ADD SWAP1 SWAP4 MSTORE DUP1 SLOAD PUSH1 0x1 PUSH1 0x1 PUSH1 0xA0 SHL SUB DUP2 AND DUP5 MSTORE SWAP1 SWAP2 DUP4 ADD SWAP1 PUSH1 0x1 PUSH1 0xA0 SHL SWAP1 DIV PUSH1 0xFF AND PUSH1 0x6 DUP2 GT ISZERO PUSH2 0xA91 JUMPI PUSH2 0xA91 PUSH2 0x3395 JUMP JUMPDEST PUSH1 0x6 DUP2 GT ISZERO PUSH2 0xAA2 JUMPI PUSH2 0xAA2 PUSH2 0x3395 JUMP JUMPDEST DUP2 MSTORE PUSH1 0x20 ADD PUSH1 0x1 DUP3 ADD DUP1 SLOAD DUP1 PUSH1 0x20 MUL PUSH1 0x20 ADD PUSH1 0x40 MLOAD SWAP1 DUP2 ADD PUSH1 0x40 MSTORE DUP1 SWAP3 SWAP2 SWAP1 DUP2 DUP2 MSTORE PUSH1 0x20 ADD PUSH0 SWAP1 JUMPDEST DUP3 DUP3 LT ISZERO PUSH2 0xB72 JUMPI DUP4 DUP3 SWAP1 PUSH0 MSTORE PUSH1 0x20 PUSH0 KECCAK256 ADD DUP1 SLOAD PUSH2 0xAE7 SWAP1 PUSH2 0x36FC JUMP JUMPDEST DUP1 PUSH1 0x1F ADD PUSH1 0x20 DUP1 SWAP2 DIV MUL PUSH1 0x20 ADD PUSH1 0x40 MLOAD SWAP1 DUP2 ADD PUSH1 0x40 MSTORE DUP1 SWAP3 SWAP2 SWAP1 DUP2 DUP2 MSTORE PUSH1 0x20 ADD DUP3 DUP1 SLOAD PUSH2 0xB13 SWAP1 PUSH2 0x36FC JUMP JUMPDEST DUP1 ISZERO PUSH2 0xB5E JUMPI DUP1 PUSH1 0x1F LT PUSH2 0xB35 JUMPI PUSH2 0x100 DUP1 DUP4 SLOAD DIV MUL DUP4 MSTORE SWAP2 PUSH1 0x20 ADD SWAP2 PUSH2 0xB5E JUMP JUMPDEST DUP3 ADD SWAP2 SWAP1 PUSH0 MSTORE PUSH1 0x20 PUSH0 KECCAK256 SWAP1 JUMPDEST DUP2 SLOAD DUP2 MSTORE SWAP1 PUSH1 0x1 ADD SWAP1 PUSH1 0x20 ADD DUP1 DUP4 GT PUSH2 0xB41 JUMPI DUP3 SWAP1 SUB PUSH1 0x1F AND DUP3 ADD SWAP2 JUMPDEST POP POP POP POP POP DUP2 MSTORE PUSH1 0x20 ADD SWAP1 PUSH1 0x1 ADD SWAP1 PUSH2 0xACA JUMP JUMPDEST POP POP POP POP DUP2 MSTORE PUSH1 0x20 ADD PUSH1 0x2 DUP3 ADD SLOAD DUP2 MSTORE PUSH1 0x20 ADD PUSH1 0x3 DUP3 ADD SLOAD DUP2 MSTORE POP POP SWAP2 POP POP SWAP2 SWAP1 POP JUMP JUMPDEST PUSH2 0xBA1 CALLER PUSH1 0x1 PUSH2 0x2669 JUMP JUMPDEST PUSH2 0xBC6 JUMPI PUSH1 0x40 MLOAD PUSH3 0x461BCD PUSH1 0xE5 SHL DUP2 MSTORE PUSH1 0x4 ADD PUSH2 0xBBD SWAP1 PUSH2 0x3734 JUMP JUMPDEST PUSH1 0x40 MLOAD DUP1 SWAP2 SUB SWAP1 REVERT JUMPDEST PUSH1 0xE SSTORE JUMP JUMPDEST PUSH2 0xBD3 PUSH2 0x3253 JUMP JUMPDEST PUSH1 0x40 MLOAD PUSH4 0xCFE6AA63 PUSH1 0xE0 SHL DUP2 MSTORE PUSH1 0xA PUSH1 0x4 DUP3 ADD MSTORE PUSH1 0x24 DUP2 ADD DUP4 SWAP1 MSTORE PUSH0 SWAP1 PUSH20 0x0 SWAP1 PUSH4 0xCFE6AA63 SWAP1 PUSH1 0x44 ADD PUSH1 0x20 PUSH1 0x40 MLOAD DUP1 DUP4 SUB DUP2 DUP7 GAS DELEGATECALL ISZERO DUP1 ISZERO PUSH2 0xC2A JUMPI RETURNDATASIZE PUSH0 DUP1 RETURNDATACOPY RETURNDATASIZE PUSH0 REVERT JUMPDEST POP POP POP POP PUSH1 0x40 MLOAD RETURNDATASIZE PUSH1 0x1F NOT PUSH1 0x1F DUP3 ADD AND DUP3 ADD DUP1 PUSH1 0x40 MSTORE POP DUP2 ADD SWAP1 PUSH2 0xC4E SWAP2 SWAP1 PUSH2 0x36B6 JUMP JUMPDEST PUSH0 SWAP1 DUP2 MSTORE PUSH1 0xD PUSH1 0x20 SWAP1 DUP2 MSTORE PUSH1 0x40 SWAP2 DUP3 SWAP1 KECCAK256 DUP3 MLOAD PUSH1 0x60 DUP2 ADD DUP5 MSTORE DUP2 SLOAD PUSH1 0x1 PUSH1 0x1 PUSH1 0xA0 SHL SUB DUP1 DUP3 AND DUP4 MSTORE PUSH1 0x1 PUSH1 0xA0 SHL SWAP1 SWAP2 DIV PUSH1 0xFF AND ISZERO ISZERO DUP3 DUP6 ADD MSTORE DUP5 MLOAD DUP1 DUP7 ADD DUP7 MSTORE PUSH1 0x1 DUP5 ADD SLOAD SWAP1 SWAP2 AND DUP2 MSTORE PUSH1 0x2 SWAP1 SWAP3 ADD SLOAD SWAP3 DUP3 ADD SWAP3 SWAP1 SWAP3 MSTORE SWAP2 DUP2 ADD SWAP2 SWAP1 SWAP2 MSTORE SWAP4 SWAP3 POP POP POP JUMP JUMPDEST PUSH2 0xCBB PUSH2 0x3253 JUMP JUMPDEST PUSH1 0x40 MLOAD PUSH4 0x3E9AF3FB PUSH1 0xE2 SHL DUP2 MSTORE PUSH0 SWAP1 PUSH20 0x0 SWAP1 PUSH4 0xFA6BCFEC SWAP1 PUSH2 0xCFF SWAP1 PUSH1 0x1 PUSH1 0x1 PUSH1 0xA0 SHL SUB DUP9 AND SWAP1 DUP8 SWAP1 PUSH1 0x4 ADD PUSH2 0x369C JUMP JUMPDEST PUSH1 0x20 PUSH1 0x40 MLOAD DUP1 DUP4 SUB DUP2 DUP7 GAS DELEGATECALL ISZERO DUP1 ISZERO PUSH2 0xD1A JUMPI RETURNDATASIZE PUSH0 DUP1 RETURNDATACOPY RETURNDATASIZE PUSH0 REVERT JUMPDEST POP POP POP POP PUSH1 0x40 MLOAD RETURNDATASIZE PUSH1 0x1F NOT PUSH1 0x1F DUP3 ADD AND DUP3 ADD DUP1 PUSH1 0x40 MSTORE POP DUP2 ADD SWAP1 PUSH2 0xD3E SWAP2 SWAP1 PUSH2 0x36B6 JUMP JUMPDEST PUSH0 SWAP1 DUP2 MSTORE PUSH1 0xD PUSH1 0x20 SWAP1 DUP2 MSTORE PUSH1 0x40 SWAP2 DUP3 SWAP1 KECCAK256 DUP3 MLOAD PUSH1 0x60 DUP2 ADD DUP5 MSTORE DUP2 SLOAD PUSH1 0x1 PUSH1 0x1 PUSH1 0xA0 SHL SUB DUP1 DUP3 AND DUP4 MSTORE PUSH1 0x1 PUSH1 0xA0 SHL SWAP1 SWAP2 DIV PUSH1 0xFF AND ISZERO ISZERO DUP3 DUP6 ADD MSTORE DUP5 MLOAD DUP1 DUP7 ADD DUP7 MSTORE PUSH1 0x1 DUP5 ADD SLOAD SWAP1 SWAP2 AND DUP2 MSTORE PUSH1 0x2 SWAP1 SWAP3 ADD SLOAD SWAP3 DUP3 ADD SWAP3 SWAP1 SWAP3 MSTORE SWAP2 DUP2 ADD SWAP2 SWAP1 SWAP2 MSTORE SWAP2 POP POP JUMPDEST SWAP3 SWAP2 POP POP JUMP JUMPDEST PUSH1 0x40 MLOAD PUSH4 0x9BA54D2D PUSH1 0xE0 SHL DUP2 MSTORE PUSH1 0x12 PUSH1 0x4 DUP3 ADD MSTORE PUSH0 SWAP1 PUSH20 0x0 SWAP1 PUSH4 0x9BA54D2D SWAP1 PUSH1 0x24 ADD PUSH2 0x941 JUMP JUMPDEST PUSH1 0x40 MLOAD PUSH4 0x3E9AF3FB PUSH1 0xE2 SHL DUP2 MSTORE PUSH0 SWAP1 DUP2 SWAP1 PUSH20 0x0 SWAP1 PUSH4 0xFA6BCFEC SWAP1 PUSH2 0xE1D SWAP1 ADDRESS SWAP1 DUP8 SWAP1 PUSH1 0x4 ADD PUSH2 0x369C JUMP JUMPDEST PUSH1 0x20 PUSH1 0x40 MLOAD DUP1 DUP4 SUB DUP2 DUP7 GAS DELEGATECALL ISZERO DUP1 ISZERO PUSH2 0xE38 JUMPI RETURNDATASIZE PUSH0 DUP1 RETURNDATACOPY RETURNDATASIZE PUSH0 REVERT JUMPDEST POP POP POP POP PUSH1 0x40 MLOAD RETURNDATASIZE PUSH1 0x1F NOT PUSH1 0x1F DUP3 ADD AND DUP3 ADD DUP1 PUSH1 0x40 MSTORE POP DUP2 ADD SWAP1 PUSH2 0xE5C SWAP2 SWAP1 PUSH2 0x36B6 JUMP JUMPDEST PUSH0 SWAP1 DUP2 MSTORE PUSH1 0x15 PUSH1 0x20 MSTORE PUSH1 0x40 SWAP1 KECCAK256 PUSH1 0x1 ADD SLOAD SWAP4 SWAP3 POP POP POP JUMP JUMPDEST PUSH1 0x40 DUP1 MLOAD DUP1 DUP3 ADD SWAP1 SWAP2 MSTORE PUSH0 DUP1 DUP3 MSTORE PUSH1 0x20 DUP3 ADD MSTORE PUSH1 0x40 MLOAD PUSH4 0xCFE6AA63 PUSH1 0xE0 SHL DUP2 MSTORE PUSH1 0x12 PUSH1 0x4 DUP3 ADD MSTORE PUSH1 0x24 DUP2 ADD DUP4 SWAP1 MSTORE PUSH0 SWAP1 PUSH20 0x0 SWAP1 PUSH4 0xCFE6AA63 SWAP1 PUSH1 0x44 ADD PUSH2 0x881 JUMP JUMPDEST PUSH1 0x40 MLOAD PUSH4 0x3E9AF3FB PUSH1 0xE2 SHL DUP2 MSTORE PUSH0 SWAP1 DUP2 SWAP1 PUSH20 0x0 SWAP1 PUSH4 0xFA6BCFEC SWAP1 PUSH2 0xF05 SWAP1 ADDRESS SWAP1 DUP8 SWAP1 PUSH1 0x4 ADD PUSH2 0x369C JUMP JUMPDEST PUSH1 0x20 PUSH1 0x40 MLOAD DUP1 DUP4 SUB DUP2 DUP7 GAS DELEGATECALL ISZERO DUP1 ISZERO PUSH2 0xF20 JUMPI RETURNDATASIZE PUSH0 DUP1 RETURNDATACOPY RETURNDATASIZE PUSH0 REVERT JUMPDEST POP POP POP POP PUSH1 0x40 MLOAD RETURNDATASIZE PUSH1 0x1F NOT PUSH1 0x1F DUP3 ADD AND DUP3 ADD DUP1 PUSH1 0x40 MSTORE POP DUP2 ADD SWAP1 PUSH2 0xF44 SWAP2 SWAP1 PUSH2 0x36B6 JUMP JUMPDEST PUSH1 0x40 MLOAD PUSH4 0x129A3965 PUSH1 0xE1 SHL DUP2 MSTORE PUSH1 0xF PUSH1 0x4 DUP3 ADD MSTORE PUSH1 0x24 DUP2 ADD DUP3 SWAP1 MSTORE SWAP1 SWAP2 POP PUSH20 0x0 SWAP1 PUSH4 0x253472CA SWAP1 PUSH1 0x44 ADD JUMPDEST PUSH1 0x20 PUSH1 0x40 MLOAD DUP1 DUP4 SUB DUP2 DUP7 GAS DELEGATECALL ISZERO DUP1 ISZERO PUSH2 0xF9D JUMPI RETURNDATASIZE PUSH0 DUP1 RETURNDATACOPY RETURNDATASIZE PUSH0 REVERT JUMPDEST POP POP POP POP PUSH1 0x40 MLOAD RETURNDATASIZE PUSH1 0x1F NOT PUSH1 0x1F DUP3 ADD AND DUP3 ADD DUP1 PUSH1 0x40 MSTORE POP DUP2 ADD SWAP1 PUSH2 0xFC1 SWAP2 SWAP1 PUSH2 0x377F JUMP JUMPDEST SWAP4 SWAP3 POP POP POP JUMP JUMPDEST PUSH1 0x40 MLOAD PUSH4 0x9BA54D2D PUSH1 0xE0 SHL DUP2 MSTORE PUSH1 0xA PUSH1 0x4 DUP3 ADD MSTORE PUSH0 SWAP1 PUSH20 0x0 SWAP1 PUSH4 0x9BA54D2D SWAP1 PUSH1 0x24 ADD PUSH2 0x941 JUMP JUMPDEST PUSH1 0x40 MLOAD PUSH4 0x3E9AF3FB PUSH1 0xE2 SHL DUP2 MSTORE PUSH0 SWAP1 DUP2 SWAP1 PUSH20 0x0 SWAP1 PUSH4 0xFA6BCFEC SWAP1 PUSH2 0x103F SWAP1 ADDRESS SWAP1 DUP8 SWAP1 PUSH1 0x4 ADD PUSH2 0x369C JUMP JUMPDEST PUSH1 0x20 PUSH1 0x40 MLOAD DUP1 DUP4 SUB DUP2 DUP7 GAS DELEGATECALL ISZERO DUP1 ISZERO PUSH2 0x105A JUMPI RETURNDATASIZE PUSH0 DUP1 RETURNDATACOPY RETURNDATASIZE PUSH0 REVERT JUMPDEST POP POP POP POP PUSH1 0x40 MLOAD RETURNDATASIZE PUSH1 0x1F NOT PUSH1 0x1F DUP3 ADD AND DUP3 ADD DUP1 PUSH1 0x40 MSTORE POP DUP2 ADD SWAP1 PUSH2 0x107E SWAP2 SWAP1 PUSH2 0x36B6 JUMP JUMPDEST PUSH1 0x40 MLOAD PUSH4 0x129A3965 PUSH1 0xE1 SHL DUP2 MSTORE PUSH1 0x12 PUSH1 0x4 DUP3 ADD MSTORE PUSH1 0x24 DUP2 ADD DUP3 SWAP1 MSTORE SWAP1 SWAP2 POP PUSH20 0x0 SWAP1 PUSH4 0x253472CA SWAP1 PUSH1 0x44 ADD PUSH2 0xF82 JUMP JUMPDEST PUSH0 PUSH2 0x10CC CALLER PUSH1 0x6 PUSH2 0x2669 JUMP JUMPDEST PUSH2 0x10D8 JUMPI PUSH2 0x10D8 PUSH2 0x36E8 JUMP JUMPDEST PUSH1 0x40 MLOAD PUSH4 0x3E9AF3FB PUSH1 0xE2 SHL DUP2 MSTORE PUSH0 SWAP1 PUSH20 0x0 SWAP1 PUSH4 0xFA6BCFEC SWAP1 PUSH2 0x1113 SWAP1 ADDRESS SWAP1 DUP9 SWAP1 PUSH1 0x4 ADD PUSH2 0x369C JUMP JUMPDEST PUSH1 0x20 PUSH1 0x40 MLOAD DUP1 DUP4 SUB DUP2 DUP7 GAS DELEGATECALL ISZERO DUP1 ISZERO PUSH2 0x112E JUMPI RETURNDATASIZE PUSH0 DUP1 RETURNDATACOPY RETURNDATASIZE PUSH0 REVERT JUMPDEST POP POP POP POP PUSH1 0x40 MLOAD RETURNDATASIZE PUSH1 0x1F NOT PUSH1 0x1F DUP3 ADD AND DUP3 ADD DUP1 PUSH1 0x40 MSTORE POP DUP2 ADD SWAP1 PUSH2 0x1152 SWAP2 SWAP1 PUSH2 0x36B6 JUMP JUMPDEST SWAP1 POP DUP3 PUSH1 0x6 DUP2 GT ISZERO PUSH2 0x1166 JUMPI PUSH2 0x1166 PUSH2 0x3395 JUMP JUMPDEST PUSH0 DUP3 DUP2 MSTORE PUSH1 0x9 PUSH1 0x20 MSTORE PUSH1 0x40 SWAP1 KECCAK256 SLOAD PUSH1 0x1 PUSH1 0xA0 SHL SWAP1 DIV PUSH1 0xFF AND PUSH1 0x6 DUP2 GT ISZERO PUSH2 0x118F JUMPI PUSH2 0x118F PUSH2 0x3395 JUMP JUMPDEST EQ SWAP5 SWAP4 POP POP POP POP JUMP JUMPDEST PUSH1 0x40 DUP1 MLOAD DUP1 DUP3 ADD SWAP1 SWAP2 MSTORE PUSH0 DUP1 DUP3 MSTORE PUSH1 0x20 DUP3 ADD MSTORE PUSH1 0x40 MLOAD PUSH4 0xCFE6AA63 PUSH1 0xE0 SHL DUP2 MSTORE PUSH1 0xF PUSH1 0x4 DUP3 ADD MSTORE PUSH1 0x24 DUP2 ADD DUP4 SWAP1 MSTORE PUSH0 SWAP1 PUSH20 0x0 SWAP1 PUSH4 0xCFE6AA63 SWAP1 PUSH1 0x44 ADD PUSH2 0x7BF JUMP JUMPDEST PUSH2 0x11F7 CALLER PUSH1 0x1 PUSH2 0x2669 JUMP JUMPDEST PUSH2 0x1203 JUMPI PUSH2 0x1203 PUSH2 0x36E8 JUMP JUMPDEST PUSH1 0x40 MLOAD PUSH4 0x3E9AF3FB PUSH1 0xE2 SHL DUP2 MSTORE PUSH0 SWAP1 PUSH20 0x0 SWAP1 PUSH4 0xFA6BCFEC SWAP1 PUSH2 0x123E SWAP1 ADDRESS SWAP1 DUP7 SWAP1 PUSH1 0x4 ADD PUSH2 0x369C JUMP JUMPDEST PUSH1 0x20 PUSH1 0x40 MLOAD DUP1 DUP4 SUB DUP2 DUP7 GAS DELEGATECALL ISZERO DUP1 ISZERO PUSH2 0x1259 JUMPI RETURNDATASIZE PUSH0 DUP1 RETURNDATACOPY RETURNDATASIZE PUSH0 REVERT JUMPDEST POP POP POP POP PUSH1 0x40 MLOAD RETURNDATASIZE PUSH1 0x1F NOT PUSH1 0x1F DUP3 ADD AND DUP3 ADD DUP1 PUSH1 0x40 MSTORE POP DUP2 ADD SWAP1 PUSH2 0x127D SWAP2 SWAP1 PUSH2 0x36B6 JUMP JUMPDEST PUSH1 0x40 MLOAD PUSH4 0x2B397351 PUSH1 0xE0 SHL DUP2 MSTORE PUSH1 0x6 PUSH1 0x4 DUP3 ADD MSTORE PUSH1 0x24 DUP2 ADD DUP3 SWAP1 MSTORE SWAP1 SWAP2 POP PUSH20 0x0 SWAP1 PUSH4 0x2B397351 SWAP1 PUSH1 0x44 ADD PUSH0 PUSH1 0x40 MLOAD DUP1 DUP4 SUB DUP2 DUP7 DUP1 EXTCODESIZE ISZERO DUP1 ISZERO PUSH2 0x12D0 JUMPI PUSH0 DUP1 REVERT JUMPDEST POP GAS DELEGATECALL ISZERO DUP1 ISZERO PUSH2 0x12E2 JUMPI RETURNDATASIZE PUSH0 DUP1 RETURNDATACOPY RETURNDATASIZE PUSH0 REVERT JUMPDEST POP POP POP PUSH0 DUP3 DUP2 MSTORE PUSH1 0x9 PUSH1 0x20 MSTORE PUSH1 0x40 DUP2 KECCAK256 DUP1 SLOAD PUSH1 0x1 PUSH1 0x1 PUSH1 0xA8 SHL SUB NOT AND DUP2 SSTORE SWAP2 POP PUSH2 0x130F PUSH1 0x1 DUP4 ADD DUP3 PUSH2 0x3282 JUMP JUMPDEST POP PUSH0 PUSH1 0x2 DUP3 ADD DUP2 SWAP1 SSTORE PUSH1 0x3 SWAP1 SWAP2 ADD SSTORE POP POP JUMP JUMPDEST PUSH2 0x132B DUP2 PUSH2 0x27A2 JUMP JUMPDEST POP JUMP JUMPDEST PUSH2 0x1338 CALLER PUSH0 PUSH2 0x2669 JUMP JUMPDEST PUSH2 0x1340 JUMPI PUSH0 DUP1 REVERT JUMPDEST PUSH1 0x3 SWAP3 SWAP1 SWAP3 SSTORE PUSH1 0x4 SSTORE PUSH1 0x5 SSTORE JUMP JUMPDEST PUSH2 0x1356 PUSH2 0x2B2B JUMP JUMPDEST PUSH2 0x135F PUSH0 PUSH2 0x2B5D JUMP JUMPDEST JUMP JUMPDEST PUSH2 0x136C CALLER PUSH1 0x6 PUSH2 0x2669 JUMP JUMPDEST PUSH2 0x1388 JUMPI PUSH1 0x40 MLOAD PUSH3 0x461BCD PUSH1 0xE5 SHL DUP2 MSTORE PUSH1 0x4 ADD PUSH2 0xBBD SWAP1 PUSH2 0x3734 JUMP JUMPDEST PUSH1 0x2 SLOAD PUSH1 0x40 MLOAD PUSH4 0xB10A8E71 PUSH1 0xE0 SHL DUP2 MSTORE PUSH1 0x1 PUSH1 0x1 PUSH1 0xA0 SHL SUB SWAP1 SWAP2 AND SWAP1 PUSH4 0xB10A8E71 SWAP1 PUSH2 0x13B8 SWAP1 CALLER SWAP1 PUSH1 0x4 ADD PUSH2 0x350F JUMP JUMPDEST PUSH1 0x20 PUSH1 0x40 MLOAD DUP1 DUP4 SUB DUP2 PUSH0 DUP8 GAS CALL ISZERO DUP1 ISZERO PUSH2 0x13D4 JUMPI RETURNDATASIZE PUSH0 DUP1 RETURNDATACOPY RETURNDATASIZE PUSH0 REVERT JUMPDEST POP POP POP POP PUSH1 0x40 MLOAD RETURNDATASIZE PUSH1 0x1F NOT PUSH1 0x1F DUP3 ADD AND DUP3 ADD DUP1 PUSH1 0x40 MSTORE POP DUP2 ADD SWAP1 PUSH2 0x13F8 SWAP2 SWAP1 PUSH2 0x377F JUMP JUMPDEST PUSH2 0x1414 JUMPI PUSH1 0x40 MLOAD PUSH3 0x461BCD PUSH1 0xE5 SHL DUP2 MSTORE PUSH1 0x4 ADD PUSH2 0xBBD SWAP1 PUSH2 0x379A JUMP JUMPDEST PUSH2 0x141D DUP2 PUSH2 0xEC8 JUMP JUMPDEST PUSH2 0x145B JUMPI PUSH1 0x40 MLOAD PUSH3 0x461BCD PUSH1 0xE5 SHL DUP2 MSTORE PUSH1 0x20 PUSH1 0x4 DUP3 ADD MSTORE PUSH1 0xF PUSH1 0x24 DUP3 ADD MSTORE PUSH15 0x4E6F7420757020666F7220766F7465 PUSH1 0x88 SHL PUSH1 0x44 DUP3 ADD MSTORE PUSH1 0x64 ADD PUSH2 0xBBD JUMP JUMPDEST PUSH1 0x40 MLOAD PUSH4 0x3E9AF3FB PUSH1 0xE2 SHL DUP2 MSTORE PUSH0 SWAP1 PUSH20 0x0 SWAP1 PUSH4 0xFA6BCFEC SWAP1 PUSH2 0x1496 SWAP1 ADDRESS SWAP1 DUP7 SWAP1 PUSH1 0x4 ADD PUSH2 0x369C JUMP JUMPDEST PUSH1 0x20 PUSH1 0x40 MLOAD DUP1 DUP4 SUB DUP2 DUP7 GAS DELEGATECALL ISZERO DUP1 ISZERO PUSH2 0x14B1 JUMPI RETURNDATASIZE PUSH0 DUP1 RETURNDATACOPY RETURNDATASIZE PUSH0 REVERT JUMPDEST POP POP POP POP PUSH1 0x40 MLOAD RETURNDATASIZE PUSH1 0x1F NOT PUSH1 0x1F DUP3 ADD AND DUP3 ADD DUP1 PUSH1 0x40 MSTORE POP DUP2 ADD SWAP1 PUSH2 0x14D5 SWAP2 SWAP1 PUSH2 0x36B6 JUMP JUMPDEST PUSH1 0x40 MLOAD PUSH4 0x3E9AF3FB PUSH1 0xE2 SHL DUP2 MSTORE SWAP1 SWAP2 POP PUSH0 SWAP1 PUSH20 0x0 SWAP1 PUSH4 0xFA6BCFEC SWAP1 PUSH2 0x1513 SWAP1 CALLER SWAP1 DUP8 SWAP1 PUSH1 0x4 ADD PUSH2 0x369C JUMP JUMPDEST PUSH1 0x20 PUSH1 0x40 MLOAD DUP1 DUP4 SUB DUP2 DUP7 GAS DELEGATECALL ISZERO DUP1 ISZERO PUSH2 0x152E JUMPI RETURNDATASIZE PUSH0 DUP1 RETURNDATACOPY RETURNDATASIZE PUSH0 REVERT JUMPDEST POP POP POP POP PUSH1 0x40 MLOAD RETURNDATASIZE PUSH1 0x1F NOT PUSH1 0x1F DUP3 ADD AND DUP3 ADD DUP1 PUSH1 0x40 MSTORE POP DUP2 ADD SWAP1 PUSH2 0x1552 SWAP2 SWAP1 PUSH2 0x36B6 JUMP JUMPDEST PUSH1 0x40 MLOAD PUSH4 0x3E9AF3FB PUSH1 0xE2 SHL DUP2 MSTORE SWAP1 SWAP2 POP PUSH0 SWAP1 PUSH20 0x0 SWAP1 PUSH4 0xFA6BCFEC SWAP1 PUSH2 0x1590 SWAP1 ADDRESS SWAP1 CALLER SWAP1 PUSH1 0x4 ADD PUSH2 0x369C JUMP JUMPDEST PUSH1 0x20 PUSH1 0x40 MLOAD DUP1 DUP4 SUB DUP2 DUP7 GAS DELEGATECALL ISZERO DUP1 ISZERO PUSH2 0x15AB JUMPI RETURNDATASIZE PUSH0 DUP1 RETURNDATACOPY RETURNDATASIZE PUSH0 REVERT JUMPDEST POP POP POP POP PUSH1 0x40 MLOAD RETURNDATASIZE PUSH1 0x1F NOT PUSH1 0x1F DUP3 ADD AND DUP3 ADD DUP1 PUSH1 0x40 MSTORE POP DUP2 ADD SWAP1 PUSH2 0x15CF SWAP2 SWAP1 PUSH2 0x36B6 JUMP JUMPDEST SWAP1 POP PUSH0 PUSH1 0x6 PUSH0 DUP4 DUP2 MSTORE PUSH1 0x9 PUSH1 0x20 MSTORE PUSH1 0x40 SWAP1 KECCAK256 SLOAD PUSH1 0x1 PUSH1 0xA0 SHL SWAP1 DIV PUSH1 0xFF AND PUSH1 0x6 DUP2 GT ISZERO PUSH2 0x15FD JUMPI PUSH2 0x15FD PUSH2 0x3395 JUMP JUMPDEST SUB PUSH2 0x160A JUMPI POP PUSH1 0x1 PUSH2 0x16ED JUMP JUMPDEST PUSH1 0x5 PUSH0 DUP4 DUP2 MSTORE PUSH1 0x9 PUSH1 0x20 MSTORE PUSH1 0x40 SWAP1 KECCAK256 SLOAD PUSH1 0x1 PUSH1 0xA0 SHL SWAP1 DIV PUSH1 0xFF AND PUSH1 0x6 DUP2 GT ISZERO PUSH2 0x1635 JUMPI PUSH2 0x1635 PUSH2 0x3395 JUMP JUMPDEST SUB PUSH2 0x1642 JUMPI POP PUSH1 0x2 PUSH2 0x16ED JUMP JUMPDEST PUSH1 0x4 PUSH0 DUP4 DUP2 MSTORE PUSH1 0x9 PUSH1 0x20 MSTORE PUSH1 0x40 SWAP1 KECCAK256 SLOAD PUSH1 0x1 PUSH1 0xA0 SHL SWAP1 DIV PUSH1 0xFF AND PUSH1 0x6 DUP2 GT ISZERO PUSH2 0x166D JUMPI PUSH2 0x166D PUSH2 0x3395 JUMP JUMPDEST SUB PUSH2 0x167A JUMPI POP PUSH1 0x3 PUSH2 0x16ED JUMP JUMPDEST PUSH1 0x3 PUSH0 DUP4 DUP2 MSTORE PUSH1 0x9 PUSH1 0x20 MSTORE PUSH1 0x40 SWAP1 KECCAK256 SLOAD PUSH1 0x1 PUSH1 0xA0 SHL SWAP1 DIV PUSH1 0xFF AND PUSH1 0x6 DUP2 GT ISZERO PUSH2 0x16A5 JUMPI PUSH2 0x16A5 PUSH2 0x3395 JUMP JUMPDEST SUB PUSH2 0x16B2 JUMPI POP PUSH1 0x4 PUSH2 0x16ED JUMP JUMPDEST PUSH1 0x1 PUSH0 DUP4 DUP2 MSTORE PUSH1 0x9 PUSH1 0x20 MSTORE PUSH1 0x40 SWAP1 KECCAK256 SLOAD PUSH1 0x1 PUSH1 0xA0 SHL SWAP1 DIV PUSH1 0xFF AND PUSH1 0x6 DUP2 GT ISZERO PUSH2 0x16DD JUMPI PUSH2 0x16DD PUSH2 0x3395 JUMP JUMPDEST SUB PUSH2 0x16EA JUMPI POP PUSH1 0x5 PUSH2 0x16ED JUMP JUMPDEST POP PUSH0 JUMPDEST PUSH0 DUP4 DUP2 MSTORE PUSH1 0x17 PUSH1 0x20 MSTORE PUSH1 0x40 SWAP1 KECCAK256 SLOAD PUSH1 0xFF AND PUSH2 0x174B JUMPI PUSH2 0x170D DUP2 PUSH1 0x1 PUSH2 0x37D4 JUMP JUMPDEST PUSH0 DUP6 DUP2 MSTORE PUSH1 0x16 PUSH1 0x20 MSTORE PUSH1 0x40 DUP2 KECCAK256 PUSH1 0x1 ADD DUP1 SLOAD SWAP1 SWAP2 SWAP1 PUSH2 0x172D SWAP1 DUP5 SWAP1 PUSH2 0x37EB JUMP JUMPDEST SWAP1 SWAP2 SSTORE POP POP PUSH0 DUP4 DUP2 MSTORE PUSH1 0x17 PUSH1 0x20 MSTORE PUSH1 0x40 SWAP1 KECCAK256 DUP1 SLOAD PUSH1 0xFF NOT AND PUSH1 0x1 OR SWAP1 SSTORE JUMPDEST POP POP POP POP POP JUMP JUMPDEST PUSH0 PUSH2 0x175C DUP4 PUSH2 0x2BAC JUMP JUMPDEST PUSH2 0x1765 DUP5 PUSH2 0x2BEF JUMP JUMPDEST PUSH2 0x17A3 PUSH0 CALLDATASIZE DUP1 DUP1 PUSH1 0x1F ADD PUSH1 0x20 DUP1 SWAP2 DIV MUL PUSH1 0x20 ADD PUSH1 0x40 MLOAD SWAP1 DUP2 ADD PUSH1 0x40 MSTORE DUP1 SWAP4 SWAP3 SWAP2 SWAP1 DUP2 DUP2 MSTORE PUSH1 0x20 ADD DUP4 DUP4 DUP1 DUP3 DUP5 CALLDATACOPY PUSH0 SWAP3 ADD SWAP2 SWAP1 SWAP2 MSTORE POP PUSH2 0x2C38 SWAP3 POP POP POP JUMP JUMPDEST PUSH1 0x40 MLOAD PUSH4 0x3E9AF3FB PUSH1 0xE2 SHL DUP2 MSTORE PUSH0 SWAP1 DUP2 SWAP1 PUSH20 0x0 SWAP1 PUSH4 0xFA6BCFEC SWAP1 PUSH2 0x17E0 SWAP1 ADDRESS SWAP1 DUP14 SWAP1 PUSH1 0x4 ADD PUSH2 0x369C JUMP JUMPDEST PUSH1 0x20 PUSH1 0x40 MLOAD DUP1 DUP4 SUB DUP2 DUP7 GAS DELEGATECALL ISZERO DUP1 ISZERO PUSH2 0x17FB JUMPI RETURNDATASIZE PUSH0 DUP1 RETURNDATACOPY RETURNDATASIZE PUSH0 REVERT JUMPDEST POP POP POP POP PUSH1 0x40 MLOAD RETURNDATASIZE PUSH1 0x1F NOT PUSH1 0x1F DUP3 ADD AND DUP3 ADD DUP1 PUSH1 0x40 MSTORE POP DUP2 ADD SWAP1 PUSH2 0x181F SWAP2 SWAP1 PUSH2 0x36B6 JUMP JUMPDEST PUSH0 DUP2 DUP2 MSTORE PUSH1 0x18 PUSH1 0x20 MSTORE PUSH1 0x40 SWAP1 KECCAK256 SLOAD SWAP1 SWAP2 POP PUSH1 0xFF AND PUSH2 0x1840 JUMPI PUSH2 0x1840 DUP10 PUSH2 0x2C7B JUMP JUMPDEST PUSH2 0x1848 PUSH2 0x2C90 JUMP JUMPDEST PUSH2 0x1851 DUP10 PUSH2 0x2402 JUMP JUMPDEST POP PUSH0 PUSH2 0x185B PUSH2 0xDA6 JUMP JUMPDEST DUP2 LT ISZERO PUSH2 0x1B78 JUMPI PUSH0 JUMPDEST PUSH2 0x186C PUSH2 0xDA6 JUMP JUMPDEST DUP2 LT ISZERO PUSH2 0x1B43 JUMPI PUSH2 0x1885 PUSH2 0x187F DUP3 PUSH2 0xE74 JUMP JUMPDEST MLOAD PUSH2 0x2BAC JUMP JUMPDEST PUSH0 PUSH20 0x0 PUSH4 0xFA6BCFEC PUSH1 0x1 PUSH1 0x1 PUSH1 0xA0 SHL SUB DUP15 AND PUSH2 0x18B3 DUP6 PUSH2 0xE74 JUMP JUMPDEST MLOAD PUSH1 0x40 MLOAD PUSH1 0x1 PUSH1 0x1 PUSH1 0xE0 SHL SUB NOT PUSH1 0xE0 DUP6 SWAP1 SHL AND DUP2 MSTORE PUSH2 0x18D6 SWAP3 SWAP2 SWAP1 PUSH1 0x4 ADD PUSH2 0x369C JUMP JUMPDEST PUSH1 0x20 PUSH1 0x40 MLOAD DUP1 DUP4 SUB DUP2 DUP7 GAS DELEGATECALL ISZERO DUP1 ISZERO PUSH2 0x18F1 JUMPI RETURNDATASIZE PUSH0 DUP1 RETURNDATACOPY RETURNDATASIZE PUSH0 REVERT JUMPDEST POP POP POP POP PUSH1 0x40 MLOAD RETURNDATASIZE PUSH1 0x1F NOT PUSH1 0x1F DUP3 ADD AND DUP3 ADD DUP1 PUSH1 0x40 MSTORE POP DUP2 ADD SWAP1 PUSH2 0x1915 SWAP2 SWAP1 PUSH2 0x36B6 JUMP JUMPDEST SWAP1 POP PUSH2 0x1920 DUP13 PUSH2 0x2BAC JUMP JUMPDEST PUSH0 PUSH2 0x192A DUP4 PUSH2 0xE74 JUMP JUMPDEST PUSH0 ADD MLOAD PUSH1 0x1 PUSH1 0x1 PUSH1 0xA0 SHL SUB AND PUSH4 0x99192D8E DUP15 DUP15 DUP15 DUP14 DUP14 PUSH1 0x40 MLOAD DUP7 PUSH4 0xFFFFFFFF AND PUSH1 0xE0 SHL DUP2 MSTORE PUSH1 0x4 ADD PUSH2 0x1960 SWAP6 SWAP5 SWAP4 SWAP3 SWAP2 SWAP1 PUSH2 0x37FE JUMP JUMPDEST PUSH1 0x20 PUSH1 0x40 MLOAD DUP1 DUP4 SUB DUP2 PUSH0 DUP8 GAS CALL ISZERO DUP1 ISZERO PUSH2 0x197C JUMPI RETURNDATASIZE PUSH0 DUP1 RETURNDATACOPY RETURNDATASIZE PUSH0 REVERT JUMPDEST POP POP POP POP PUSH1 0x40 MLOAD RETURNDATASIZE PUSH1 0x1F NOT PUSH1 0x1F DUP3 ADD AND DUP3 ADD DUP1 PUSH1 0x40 MSTORE POP DUP2 ADD SWAP1 PUSH2 0x19A0 SWAP2 SWAP1 PUSH2 0x377F JUMP JUMPDEST SWAP1 POP PUSH0 PUSH2 0x19AC DUP5 PUSH2 0xE74 JUMP JUMPDEST PUSH0 ADD MLOAD PUSH1 0x1 PUSH1 0x1 PUSH1 0xA0 SHL SUB AND PUSH4 0xAE0F9386 DUP16 DUP16 DUP16 DUP15 DUP15 PUSH1 0x40 MLOAD DUP7 PUSH4 0xFFFFFFFF AND PUSH1 0xE0 SHL DUP2 MSTORE PUSH1 0x4 ADD PUSH2 0x19E2 SWAP6 SWAP5 SWAP4 SWAP3 SWAP2 SWAP1 PUSH2 0x37FE JUMP JUMPDEST PUSH1 0x20 PUSH1 0x40 MLOAD DUP1 DUP4 SUB DUP2 PUSH0 DUP8 GAS CALL ISZERO DUP1 ISZERO PUSH2 0x19FE JUMPI RETURNDATASIZE PUSH0 DUP1 RETURNDATACOPY RETURNDATASIZE PUSH0 REVERT JUMPDEST POP POP POP POP PUSH1 0x40 MLOAD RETURNDATASIZE PUSH1 0x1F NOT PUSH1 0x1F DUP3 ADD AND DUP3 ADD DUP1 PUSH1 0x40 MSTORE POP DUP2 ADD SWAP1 PUSH2 0x1A22 SWAP2 SWAP1 PUSH2 0x377F JUMP JUMPDEST SWAP1 POP DUP2 ISZERO PUSH2 0x1A5A JUMPI PUSH2 0x1A33 DUP3 PUSH2 0x2E0D JUMP JUMPDEST PUSH0 DUP4 DUP2 MSTORE PUSH1 0xD PUSH1 0x20 MSTORE PUSH1 0x40 SWAP1 KECCAK256 DUP1 SLOAD PUSH1 0xFF PUSH1 0xA0 SHL NOT AND PUSH1 0x1 PUSH1 0xA0 SHL OR SWAP1 SSTORE PUSH2 0x1A5A DUP8 PUSH2 0x2E4E JUMP JUMPDEST DUP1 ISZERO PUSH2 0x1A82 JUMPI PUSH2 0x1A69 DUP2 PUSH2 0x2E0D JUMP JUMPDEST PUSH0 DUP4 DUP2 MSTORE PUSH1 0xD PUSH1 0x20 MSTORE PUSH1 0x40 SWAP1 KECCAK256 DUP1 SLOAD PUSH1 0xFF PUSH1 0xA0 SHL NOT AND SWAP1 SSTORE JUMPDEST PUSH0 DUP4 DUP2 MSTORE PUSH1 0xD PUSH1 0x20 MSTORE PUSH1 0x40 SWAP1 KECCAK256 SLOAD PUSH2 0x1AA3 SWAP1 PUSH1 0x1 PUSH1 0xA0 SHL SWAP1 DIV PUSH1 0xFF AND PUSH2 0x2E0D JUMP JUMPDEST PUSH0 DUP4 DUP2 MSTORE PUSH1 0xD PUSH1 0x20 MSTORE PUSH1 0x40 SWAP1 KECCAK256 SLOAD PUSH1 0x1 PUSH1 0xA0 SHL SWAP1 DIV PUSH1 0xFF AND ISZERO PUSH2 0x1B38 JUMPI PUSH2 0x1AC9 DUP5 PUSH2 0xE74 JUMP JUMPDEST PUSH0 ADD MLOAD PUSH1 0x1 PUSH1 0x1 PUSH1 0xA0 SHL SUB AND PUSH4 0x67719696 PUSH1 0x40 MLOAD DUP2 PUSH4 0xFFFFFFFF AND PUSH1 0xE0 SHL DUP2 MSTORE PUSH1 0x4 ADD PUSH1 0x20 PUSH1 0x40 MLOAD DUP1 DUP4 SUB DUP2 DUP7 GAS STATICCALL ISZERO DUP1 ISZERO PUSH2 0x1B07 JUMPI RETURNDATASIZE PUSH0 DUP1 RETURNDATACOPY RETURNDATASIZE PUSH0 REVERT JUMPDEST POP POP POP POP PUSH1 0x40 MLOAD RETURNDATASIZE PUSH1 0x1F NOT PUSH1 0x1F DUP3 ADD AND DUP3 ADD DUP1 PUSH1 0x40 MSTORE POP DUP2 ADD SWAP1 PUSH2 0x1B2B SWAP2 SWAP1 PUSH2 0x36B6 JUMP JUMPDEST PUSH2 0x1B35 SWAP1 DUP9 PUSH2 0x3831 JUMP JUMPDEST SWAP7 POP JUMPDEST POP POP POP PUSH1 0x1 ADD PUSH2 0x1864 JUMP JUMPDEST POP PUSH2 0x2710 DUP4 SLT PUSH2 0x1B5A JUMPI PUSH2 0x270F SWAP4 POP POP POP POP PUSH2 0x1B7C JUMP JUMPDEST PUSH0 DUP4 SGT PUSH2 0x1B6D JUMPI PUSH1 0xFA SWAP4 POP POP POP POP PUSH2 0x1B7C JUMP JUMPDEST DUP3 SWAP4 POP POP POP POP PUSH2 0x1B7C JUMP JUMPDEST POP POP POP JUMPDEST SWAP7 SWAP6 POP POP POP POP POP POP JUMP JUMPDEST PUSH2 0x1B8E PUSH2 0x2B2B JUMP JUMPDEST PUSH2 0x76C DUP4 DUP4 DUP4 PUSH2 0x2E93 JUMP JUMPDEST PUSH0 SLOAD PUSH1 0x1 PUSH1 0x1 PUSH1 0xA0 SHL SUB AND SWAP1 JUMP JUMPDEST PUSH2 0x1BB2 CALLER PUSH1 0x2 PUSH2 0x2669 JUMP JUMPDEST PUSH2 0x1BBE JUMPI PUSH2 0x1BBE PUSH2 0x36E8 JUMP JUMPDEST PUSH2 0x1BC8 DUP3 DUP3 PUSH2 0x306B JUMP JUMPDEST POP POP JUMP JUMPDEST PUSH1 0x40 MLOAD PUSH4 0x3E9AF3FB PUSH1 0xE2 SHL DUP2 MSTORE PUSH1 0x60 SWAP1 PUSH0 SWAP1 PUSH20 0x0 SWAP1 PUSH4 0xFA6BCFEC SWAP1 PUSH2 0x1C0A SWAP1 ADDRESS SWAP1 DUP8 SWAP1 PUSH1 0x4 ADD PUSH2 0x369C JUMP JUMPDEST PUSH1 0x20 PUSH1 0x40 MLOAD DUP1 DUP4 SUB DUP2 DUP7 GAS DELEGATECALL ISZERO DUP1 ISZERO PUSH2 0x1C25 JUMPI RETURNDATASIZE PUSH0 DUP1 RETURNDATACOPY RETURNDATASIZE PUSH0 REVERT JUMPDEST POP POP POP POP PUSH1 0x40 MLOAD RETURNDATASIZE PUSH1 0x1F NOT PUSH1 0x1F DUP3 ADD AND DUP3 ADD DUP1 PUSH1 0x40 MSTORE POP DUP2 ADD SWAP1 PUSH2 0x1C49 SWAP2 SWAP1 PUSH2 0x36B6 JUMP JUMPDEST PUSH0 DUP2 DUP2 MSTORE PUSH1 0x1A PUSH1 0x20 SWAP1 DUP2 MSTORE PUSH1 0x40 SWAP2 DUP3 SWAP1 KECCAK256 DUP1 SLOAD DUP4 MLOAD DUP2 DUP5 MUL DUP2 ADD DUP5 ADD SWAP1 SWAP5 MSTORE DUP1 DUP5 MSTORE SWAP4 SWAP5 POP SWAP2 SWAP3 SWAP1 DUP4 ADD DUP3 DUP3 DUP1 ISZERO PUSH2 0x1CA8 JUMPI PUSH1 0x20 MUL DUP3 ADD SWAP2 SWAP1 PUSH0 MSTORE PUSH1 0x20 PUSH0 KECCAK256 SWAP1 JUMPDEST DUP2 SLOAD PUSH1 0x1 PUSH1 0x1 PUSH1 0xA0 SHL SUB AND DUP2 MSTORE PUSH1 0x1 SWAP1 SWAP2 ADD SWAP1 PUSH1 0x20 ADD DUP1 DUP4 GT PUSH2 0x1C8A JUMPI JUMPDEST POP POP POP POP POP SWAP2 POP POP SWAP2 SWAP1 POP JUMP JUMPDEST PUSH1 0x40 MLOAD PUSH4 0x3E9AF3FB PUSH1 0xE2 SHL DUP2 MSTORE PUSH0 SWAP1 DUP2 SWAP1 PUSH20 0x0 SWAP1 PUSH4 0xFA6BCFEC SWAP1 PUSH2 0x1CFB SWAP1 PUSH1 0x1 PUSH1 0x1 PUSH1 0xA0 SHL SUB DUP9 AND SWAP1 DUP8 SWAP1 PUSH1 0x4 ADD PUSH2 0x369C JUMP JUMPDEST PUSH1 0x20 PUSH1 0x40 MLOAD DUP1 DUP4 SUB DUP2 DUP7 GAS DELEGATECALL ISZERO DUP1 ISZERO PUSH2 0x1D16 JUMPI RETURNDATASIZE PUSH0 DUP1 RETURNDATACOPY RETURNDATASIZE PUSH0 REVERT JUMPDEST POP POP POP POP PUSH1 0x40 MLOAD RETURNDATASIZE PUSH1 0x1F NOT PUSH1 0x1F DUP3 ADD AND DUP3 ADD DUP1 PUSH1 0x40 MSTORE POP DUP2 ADD SWAP1 PUSH2 0x1D3A SWAP2 SWAP1 PUSH2 0x36B6 JUMP JUMPDEST SWAP1 POP PUSH2 0x1D45 DUP2 PUSH2 0x31B5 JUMP JUMPDEST SWAP5 SWAP4 POP POP POP POP JUMP JUMPDEST PUSH1 0x40 MLOAD PUSH4 0x3E9AF3FB PUSH1 0xE2 SHL DUP2 MSTORE PUSH0 SWAP1 PUSH20 0x0 SWAP1 PUSH4 0xFA6BCFEC SWAP1 PUSH2 0x1D88 SWAP1 ADDRESS SWAP1 DUP8 SWAP1 PUSH1 0x4 ADD PUSH2 0x369C JUMP JUMPDEST PUSH1 0x20 PUSH1 0x40 MLOAD DUP1 DUP4 SUB DUP2 DUP7 GAS DELEGATECALL ISZERO DUP1 ISZERO PUSH2 0x1DA3 JUMPI RETURNDATASIZE PUSH0 DUP1 RETURNDATACOPY RETURNDATASIZE PUSH0 REVERT JUMPDEST POP POP POP POP PUSH1 0x40 MLOAD RETURNDATASIZE PUSH1 0x1F NOT PUSH1 0x1F DUP3 ADD AND DUP3 ADD DUP1 PUSH1 0x40 MSTORE POP DUP2 ADD SWAP1 PUSH2 0x1DC7 SWAP2 SWAP1 PUSH2 0x36B6 JUMP JUMPDEST PUSH1 0x5 SLOAD PUSH0 DUP3 DUP2 MSTORE PUSH1 0x9 PUSH1 0x20 MSTORE PUSH1 0x40 SWAP1 KECCAK256 PUSH1 0x2 ADD SLOAD SWAP2 SWAP3 POP GT PUSH2 0x76C JUMPI PUSH1 0x2 SLOAD PUSH1 0x40 MLOAD PUSH4 0x620D1B05 PUSH1 0xE1 SHL DUP2 MSTORE PUSH1 0x4 DUP2 ADD DUP5 SWAP1 MSTORE PUSH1 0x1 PUSH1 0x1 PUSH1 0xA0 SHL SUB DUP6 DUP2 AND SWAP3 AND SWAP1 PUSH4 0xC41A360A SWAP1 PUSH1 0x24 ADD PUSH1 0x20 PUSH1 0x40 MLOAD DUP1 DUP4 SUB DUP2 PUSH0 DUP8 GAS CALL ISZERO DUP1 ISZERO PUSH2 0x1E2D JUMPI RETURNDATASIZE PUSH0 DUP1 RETURNDATACOPY RETURNDATASIZE PUSH0 REVERT JUMPDEST POP POP POP POP PUSH1 0x40 MLOAD RETURNDATASIZE PUSH1 0x1F NOT PUSH1 0x1F DUP3 ADD AND DUP3 ADD DUP1 PUSH1 0x40 MSTORE POP DUP2 ADD SWAP1 PUSH2 0x1E51 SWAP2 SWAP1 PUSH2 0x36CD JUMP JUMPDEST PUSH1 0x1 PUSH1 0x1 PUSH1 0xA0 SHL SUB AND SUB PUSH2 0x76C JUMPI PUSH2 0x1E6A DUP4 PUSH1 0x3 PUSH2 0x2669 JUMP JUMPDEST PUSH2 0x76C JUMPI PUSH0 DUP2 DUP2 MSTORE PUSH1 0x9 PUSH1 0x20 MSTORE PUSH1 0x40 SWAP1 KECCAK256 DUP1 SLOAD PUSH1 0x3 SWAP2 SWAP1 PUSH1 0xFF PUSH1 0xA0 SHL NOT AND PUSH1 0x1 PUSH1 0xA0 SHL DUP4 JUMPDEST MUL OR SWAP1 SSTORE POP POP POP POP JUMP JUMPDEST PUSH1 0x40 MLOAD PUSH4 0x9BA54D2D PUSH1 0xE0 SHL DUP2 MSTORE PUSH1 0xF PUSH1 0x4 DUP3 ADD MSTORE PUSH0 SWAP1 PUSH20 0x0 SWAP1 PUSH4 0x9BA54D2D SWAP1 PUSH1 0x24 ADD PUSH2 0x941 JUMP JUMPDEST PUSH2 0x1EDB PUSH2 0x2B2B JUMP JUMPDEST PUSH1 0x2 DUP1 SLOAD PUSH1 0x1 PUSH1 0x1 PUSH1 0xA0 SHL SUB NOT AND PUSH1 0x1 PUSH1 0x1 PUSH1 0xA0 SHL SUB SWAP3 SWAP1 SWAP3 AND SWAP2 SWAP1 SWAP2 OR SWAP1 SSTORE JUMP JUMPDEST PUSH2 0x1F08 CALLER PUSH1 0x6 PUSH2 0x2669 JUMP JUMPDEST PUSH2 0x1F24 JUMPI PUSH1 0x40 MLOAD PUSH3 0x461BCD PUSH1 0xE5 SHL DUP2 MSTORE PUSH1 0x4 ADD PUSH2 0xBBD SWAP1 PUSH2 0x3734 JUMP JUMPDEST PUSH1 0x2 SLOAD PUSH1 0x40 MLOAD PUSH4 0xB10A8E71 PUSH1 0xE0 SHL DUP2 MSTORE PUSH1 0x1 PUSH1 0x1 PUSH1 0xA0 SHL SUB SWAP1 SWAP2 AND SWAP1 PUSH4 0xB10A8E71 SWAP1 PUSH2 0x1F54 SWAP1 CALLER SWAP1 PUSH1 0x4 ADD PUSH2 0x350F JUMP JUMPDEST PUSH1 0x20 PUSH1 0x40 MLOAD DUP1 DUP4 SUB DUP2 PUSH0 DUP8 GAS CALL ISZERO DUP1 ISZERO PUSH2 0x1F70 JUMPI RETURNDATASIZE PUSH0 DUP1 RETURNDATACOPY RETURNDATASIZE PUSH0 REVERT JUMPDEST POP POP POP POP PUSH1 0x40 MLOAD RETURNDATASIZE PUSH1 0x1F NOT PUSH1 0x1F DUP3 ADD AND DUP3 ADD DUP1 PUSH1 0x40 MSTORE POP DUP2 ADD SWAP1 PUSH2 0x1F94 SWAP2 SWAP1 PUSH2 0x377F JUMP JUMPDEST PUSH2 0x1FB0 JUMPI PUSH1 0x40 MLOAD PUSH3 0x461BCD PUSH1 0xE5 SHL DUP2 MSTORE PUSH1 0x4 ADD PUSH2 0xBBD SWAP1 PUSH2 0x379A JUMP JUMPDEST PUSH1 0x40 MLOAD PUSH4 0x3E9AF3FB PUSH1 0xE2 SHL DUP2 MSTORE PUSH0 SWAP1 PUSH20 0x0 SWAP1 PUSH4 0xFA6BCFEC SWAP1 PUSH2 0x1FEB SWAP1 ADDRESS SWAP1 DUP7 SWAP1 PUSH1 0x4 ADD PUSH2 0x369C JUMP JUMPDEST PUSH1 0x20 PUSH1 0x40 MLOAD DUP1 DUP4 SUB DUP2 DUP7 GAS DELEGATECALL ISZERO DUP1 ISZERO PUSH2 0x2006 JUMPI RETURNDATASIZE PUSH0 DUP1 RETURNDATACOPY RETURNDATASIZE PUSH0 REVERT JUMPDEST POP POP POP POP PUSH1 0x40 MLOAD RETURNDATASIZE PUSH1 0x1F NOT PUSH1 0x1F DUP3 ADD AND DUP3 ADD DUP1 PUSH1 0x40 MSTORE POP DUP2 ADD SWAP1 PUSH2 0x202A SWAP2 SWAP1 PUSH2 0x36B6 JUMP JUMPDEST SWAP1 POP DUP2 PUSH1 0x1 PUSH1 0x1 PUSH1 0xA0 SHL SUB AND PUSH4 0x67719696 PUSH1 0x40 MLOAD DUP2 PUSH4 0xFFFFFFFF AND PUSH1 0xE0 SHL DUP2 MSTORE PUSH1 0x4 ADD PUSH1 0x20 PUSH1 0x40 MLOAD DUP1 DUP4 SUB DUP2 DUP7 GAS STATICCALL ISZERO DUP1 ISZERO PUSH2 0x2068 JUMPI RETURNDATASIZE PUSH0 DUP1 RETURNDATACOPY RETURNDATASIZE PUSH0 REVERT JUMPDEST POP POP POP POP PUSH1 0x40 MLOAD RETURNDATASIZE PUSH1 0x1F NOT PUSH1 0x1F DUP3 ADD AND DUP3 ADD DUP1 PUSH1 0x40 MSTORE POP DUP2 ADD SWAP1 PUSH2 0x208C SWAP2 SWAP1 PUSH2 0x36B6 JUMP JUMPDEST POP DUP2 PUSH1 0x1 PUSH1 0x1 PUSH1 0xA0 SHL SUB AND PUSH4 0x99192D8E PUSH2 0x20A4 PUSH2 0x1B99 JUMP JUMPDEST PUSH0 DUP1 PUSH0 DUP1 PUSH1 0x40 MLOAD DUP7 PUSH4 0xFFFFFFFF AND PUSH1 0xE0 SHL DUP2 MSTORE PUSH1 0x4 ADD PUSH2 0x20C8 SWAP6 SWAP5 SWAP4 SWAP3 SWAP2 SWAP1 PUSH2 0x37FE JUMP JUMPDEST PUSH1 0x20 PUSH1 0x40 MLOAD DUP1 DUP4 SUB DUP2 PUSH0 DUP8 GAS CALL ISZERO DUP1 ISZERO PUSH2 0x20E4 JUMPI RETURNDATASIZE PUSH0 DUP1 RETURNDATACOPY RETURNDATASIZE PUSH0 REVERT JUMPDEST POP POP POP POP PUSH1 0x40 MLOAD RETURNDATASIZE PUSH1 0x1F NOT PUSH1 0x1F DUP3 ADD AND DUP3 ADD DUP1 PUSH1 0x40 MSTORE POP DUP2 ADD SWAP1 PUSH2 0x2108 SWAP2 SWAP1 PUSH2 0x377F JUMP JUMPDEST POP DUP2 PUSH1 0x1 PUSH1 0x1 PUSH1 0xA0 SHL SUB AND PUSH4 0xAE0F9386 PUSH2 0x2120 PUSH2 0x1B99 JUMP JUMPDEST PUSH0 DUP1 PUSH0 DUP1 PUSH1 0x40 MLOAD DUP7 PUSH4 0xFFFFFFFF AND PUSH1 0xE0 SHL DUP2 MSTORE PUSH1 0x4 ADD PUSH2 0x2144 SWAP6 SWAP5 SWAP4 SWAP3 SWAP2 SWAP1 PUSH2 0x37FE JUMP JUMPDEST PUSH1 0x20 PUSH1 0x40 MLOAD DUP1 DUP4 SUB DUP2 PUSH0 DUP8 GAS CALL ISZERO DUP1 ISZERO PUSH2 0x2160 JUMPI RETURNDATASIZE PUSH0 DUP1 RETURNDATACOPY RETURNDATASIZE PUSH0 REVERT JUMPDEST POP POP POP POP PUSH1 0x40 MLOAD RETURNDATASIZE PUSH1 0x1F NOT PUSH1 0x1F DUP3 ADD AND DUP3 ADD DUP1 PUSH1 0x40 MSTORE POP DUP2 ADD SWAP1 PUSH2 0x2184 SWAP2 SWAP1 PUSH2 0x377F JUMP JUMPDEST POP PUSH1 0x40 MLOAD PUSH4 0x129A3965 PUSH1 0xE1 SHL DUP2 MSTORE PUSH1 0xF PUSH1 0x4 DUP3 ADD MSTORE PUSH1 0x24 DUP2 ADD DUP3 SWAP1 MSTORE PUSH20 0x0 SWAP1 PUSH4 0x253472CA SWAP1 PUSH1 0x44 ADD PUSH1 0x20 PUSH1 0x40 MLOAD DUP1 DUP4 SUB DUP2 DUP7 GAS DELEGATECALL ISZERO DUP1 ISZERO PUSH2 0x21DA JUMPI RETURNDATASIZE PUSH0 DUP1 RETURNDATACOPY RETURNDATASIZE PUSH0 REVERT JUMPDEST POP POP POP POP PUSH1 0x40 MLOAD RETURNDATASIZE PUSH1 0x1F NOT PUSH1 0x1F DUP3 ADD AND DUP3 ADD DUP1 PUSH1 0x40 MSTORE POP DUP2 ADD SWAP1 PUSH2 0x21FE SWAP2 SWAP1 PUSH2 0x377F JUMP JUMPDEST ISZERO PUSH2 0x221C JUMPI PUSH1 0x40 MLOAD PUSH4 0x3CA148C3 PUSH1 0xE1 SHL DUP2 MSTORE PUSH1 0x4 ADD PUSH1 0x40 MLOAD DUP1 SWAP2 SUB SWAP1 REVERT JUMPDEST PUSH0 DUP2 DUP2 MSTORE PUSH1 0x16 PUSH1 0x20 MSTORE PUSH1 0x40 DUP1 DUP3 KECCAK256 DUP1 SLOAD PUSH1 0x1 PUSH1 0x1 PUSH1 0xA0 SHL SUB NOT AND PUSH1 0x1 PUSH1 0x1 PUSH1 0xA0 SHL SUB DUP7 AND OR DUP2 SSTORE PUSH1 0x1 ADD SWAP2 SWAP1 SWAP2 SSTORE MLOAD PUSH4 0x8B584F4D PUSH1 0xE0 SHL DUP2 MSTORE PUSH1 0xF PUSH1 0x4 DUP3 ADD MSTORE PUSH1 0x24 DUP2 ADD DUP3 SWAP1 MSTORE PUSH20 0x0 SWAP1 PUSH4 0x8B584F4D SWAP1 PUSH1 0x44 ADD PUSH0 PUSH1 0x40 MLOAD DUP1 DUP4 SUB DUP2 DUP7 DUP1 EXTCODESIZE ISZERO DUP1 ISZERO PUSH2 0x2298 JUMPI PUSH0 DUP1 REVERT JUMPDEST POP GAS DELEGATECALL ISZERO DUP1 ISZERO PUSH2 0x22AA JUMPI RETURNDATASIZE PUSH0 DUP1 RETURNDATACOPY RETURNDATASIZE PUSH0 REVERT JUMPDEST POP POP POP POP POP POP JUMP JUMPDEST PUSH2 0x22BD CALLER PUSH1 0x2 PUSH2 0x2669 JUMP JUMPDEST PUSH2 0x1322 JUMPI PUSH1 0x40 MLOAD PUSH3 0x461BCD PUSH1 0xE5 SHL DUP2 MSTORE PUSH1 0x4 ADD PUSH2 0xBBD SWAP1 PUSH2 0x3734 JUMP JUMPDEST PUSH1 0x40 MLOAD PUSH4 0x3E9AF3FB PUSH1 0xE2 SHL DUP2 MSTORE PUSH0 SWAP1 PUSH20 0x0 SWAP1 PUSH4 0xFA6BCFEC SWAP1 PUSH2 0x2314 SWAP1 ADDRESS SWAP1 DUP7 SWAP1 PUSH1 0x4 ADD PUSH2 0x369C JUMP JUMPDEST PUSH1 0x20 PUSH1 0x40 MLOAD DUP1 DUP4 SUB DUP2 DUP7 GAS DELEGATECALL ISZERO DUP1 ISZERO PUSH2 0x232F JUMPI RETURNDATASIZE PUSH0 DUP1 RETURNDATACOPY RETURNDATASIZE PUSH0 REVERT JUMPDEST POP POP POP POP PUSH1 0x40 MLOAD RETURNDATASIZE PUSH1 0x1F NOT PUSH1 0x1F DUP3 ADD AND DUP3 ADD DUP1 PUSH1 0x40 MSTORE POP DUP2 ADD SWAP1 PUSH2 0x2353 SWAP2 SWAP1 PUSH2 0x36B6 JUMP JUMPDEST PUSH1 0x1 SLOAD PUSH1 0x40 MLOAD PUSH4 0x98179C41 PUSH1 0xE0 SHL DUP2 MSTORE SWAP2 SWAP3 POP PUSH1 0x1 PUSH1 0x1 PUSH1 0xA0 SHL SUB AND SWAP1 PUSH4 0x98179C41 SWAP1 PUSH2 0x2384 SWAP1 DUP6 SWAP1 PUSH1 0x4 ADD PUSH2 0x350F JUMP JUMPDEST PUSH1 0x20 PUSH1 0x40 MLOAD DUP1 DUP4 SUB DUP2 DUP7 GAS STATICCALL ISZERO DUP1 ISZERO PUSH2 0x239F JUMPI RETURNDATASIZE PUSH0 DUP1 RETURNDATACOPY RETURNDATASIZE PUSH0 REVERT JUMPDEST POP POP POP POP PUSH1 0x40 MLOAD RETURNDATASIZE PUSH1 0x1F NOT PUSH1 0x1F DUP3 ADD AND DUP3 ADD DUP1 PUSH1 0x40 MSTORE POP DUP2 ADD SWAP1 PUSH2 0x23C3 SWAP2 SWAP1 PUSH2 0x36B6 JUMP JUMPDEST PUSH0 SWAP2 DUP3 MSTORE PUSH1 0x9 PUSH1 0x20 MSTORE PUSH1 0x40 SWAP1 SWAP2 KECCAK256 PUSH1 0x2 ADD SSTORE POP JUMP JUMPDEST PUSH2 0x23E0 PUSH2 0x2B2B JUMP JUMPDEST PUSH1 0x1 DUP1 SLOAD PUSH1 0x1 PUSH1 0x1 PUSH1 0xA0 SHL SUB NOT AND PUSH1 0x1 PUSH1 0x1 PUSH1 0xA0 SHL SUB SWAP3 SWAP1 SWAP3 AND SWAP2 SWAP1 SWAP2 OR SWAP1 SSTORE JUMP JUMPDEST PUSH1 0x40 MLOAD PUSH4 0x3E9AF3FB PUSH1 0xE2 SHL DUP2 MSTORE PUSH0 SWAP1 DUP2 SWAP1 PUSH20 0x0 SWAP1 PUSH4 0xFA6BCFEC SWAP1 PUSH2 0x243F SWAP1 ADDRESS SWAP1 DUP8 SWAP1 PUSH1 0x4 ADD PUSH2 0x369C JUMP JUMPDEST PUSH1 0x20 PUSH1 0x40 MLOAD DUP1 DUP4 SUB DUP2 DUP7 GAS DELEGATECALL ISZERO DUP1 ISZERO PUSH2 0x245A JUMPI RETURNDATASIZE PUSH0 DUP1 RETURNDATACOPY RETURNDATASIZE PUSH0 REVERT JUMPDEST POP POP POP POP PUSH1 0x40 MLOAD RETURNDATASIZE PUSH1 0x1F NOT PUSH1 0x1F DUP3 ADD AND DUP3 ADD DUP1 PUSH1 0x40 MSTORE POP DUP2 ADD SWAP1 PUSH2 0x247E SWAP2 SWAP1 PUSH2 0x36B6 JUMP JUMPDEST PUSH1 0x5 SLOAD PUSH1 0x40 MLOAD PUSH4 0x4A0CECB7 PUSH1 0xE1 SHL DUP2 MSTORE SWAP2 SWAP3 POP PUSH20 0x0 SWAP2 PUSH4 0x9419D96E SWAP2 PUSH2 0x24C0 SWAP2 PUSH1 0x6 SWAP2 DUP7 SWAP2 PUSH1 0x4 SWAP1 DUP2 ADD PUSH2 0x3858 JUMP JUMPDEST PUSH1 0x20 PUSH1 0x40 MLOAD DUP1 DUP4 SUB DUP2 DUP7 GAS DELEGATECALL ISZERO DUP1 ISZERO PUSH2 0x24DB JUMPI RETURNDATASIZE PUSH0 DUP1 RETURNDATACOPY RETURNDATASIZE PUSH0 REVERT JUMPDEST POP POP POP POP PUSH1 0x40 MLOAD RETURNDATASIZE PUSH1 0x1F NOT PUSH1 0x1F DUP3 ADD AND DUP3 ADD DUP1 PUSH1 0x40 MSTORE POP DUP2 ADD SWAP1 PUSH2 0x24FF SWAP2 SWAP1 PUSH2 0x377F JUMP JUMPDEST ISZERO PUSH2 0x250D JUMPI POP PUSH1 0x1 SWAP3 SWAP2 POP POP JUMP JUMPDEST PUSH1 0x4 DUP1 SLOAD PUSH1 0x40 MLOAD PUSH4 0x4A0CECB7 PUSH1 0xE1 SHL DUP2 MSTORE PUSH20 0x0 SWAP3 PUSH4 0x9419D96E SWAP3 PUSH2 0x254D SWAP3 PUSH1 0x6 SWAP3 DUP8 SWAP3 SWAP2 PUSH1 0x5 SWAP2 ADD PUSH2 0x3858 JUMP JUMPDEST PUSH1 0x20 PUSH1 0x40 MLOAD DUP1 DUP4 SUB DUP2 DUP7 GAS DELEGATECALL ISZERO DUP1 ISZERO PUSH2 0x2568 JUMPI RETURNDATASIZE PUSH0 DUP1 RETURNDATACOPY RETURNDATASIZE PUSH0 REVERT JUMPDEST POP POP POP POP PUSH1 0x40 MLOAD RETURNDATASIZE PUSH1 0x1F NOT PUSH1 0x1F DUP3 ADD AND DUP3 ADD DUP1 PUSH1 0x40 MSTORE POP DUP2 ADD SWAP1 PUSH2 0x258C SWAP2 SWAP1 PUSH2 0x377F JUMP JUMPDEST ISZERO PUSH2 0x259A JUMPI POP PUSH1 0x1 SWAP3 SWAP2 POP POP JUMP JUMPDEST PUSH1 0x3 SLOAD PUSH1 0x40 MLOAD PUSH4 0x4A0CECB7 PUSH1 0xE1 SHL DUP2 MSTORE PUSH20 0x0 SWAP2 PUSH4 0x9419D96E SWAP2 PUSH2 0x25DA SWAP2 PUSH1 0x6 SWAP2 DUP7 SWAP2 SWAP1 DUP4 SWAP1 PUSH1 0x4 ADD PUSH2 0x3858 JUMP JUMPDEST PUSH1 0x20 PUSH1 0x40 MLOAD DUP1 DUP4 SUB DUP2 DUP7 GAS DELEGATECALL ISZERO DUP1 ISZERO PUSH2 0x25F5 JUMPI RETURNDATASIZE PUSH0 DUP1 RETURNDATACOPY RETURNDATASIZE PUSH0 REVERT JUMPDEST POP POP POP POP PUSH1 0x40 MLOAD RETURNDATASIZE PUSH1 0x1F NOT PUSH1 0x1F DUP3 ADD AND DUP3 ADD DUP1 PUSH1 0x40 MSTORE POP DUP2 ADD SWAP1 PUSH2 0x2619 SWAP2 SWAP1 PUSH2 0x377F JUMP JUMPDEST ISZERO PUSH2 0x2627 JUMPI POP PUSH1 0x1 SWAP3 SWAP2 POP POP JUMP JUMPDEST POP PUSH0 SWAP3 SWAP2 POP POP JUMP JUMPDEST PUSH2 0x2637 PUSH2 0x2B2B JUMP JUMPDEST PUSH1 0x1 PUSH1 0x1 PUSH1 0xA0 SHL SUB DUP2 AND PUSH2 0x2660 JUMPI PUSH0 PUSH1 0x40 MLOAD PUSH4 0x1E4FBDF7 PUSH1 0xE0 SHL DUP2 MSTORE PUSH1 0x4 ADD PUSH2 0xBBD SWAP2 SWAP1 PUSH2 0x350F JUMP JUMPDEST PUSH2 0x132B DUP2 PUSH2 0x2B5D JUMP JUMPDEST PUSH0 PUSH2 0x2672 PUSH2 0x1B99 JUMP JUMPDEST PUSH1 0x1 PUSH1 0x1 PUSH1 0xA0 SHL SUB AND DUP4 PUSH1 0x1 PUSH1 0x1 PUSH1 0xA0 SHL SUB AND SUB PUSH2 0x2692 JUMPI POP PUSH1 0x1 PUSH2 0xDA0 JUMP JUMPDEST PUSH1 0x40 MLOAD PUSH4 0x3E9AF3FB PUSH1 0xE2 SHL DUP2 MSTORE PUSH0 SWAP1 PUSH20 0x0 SWAP1 PUSH4 0xFA6BCFEC SWAP1 PUSH2 0x26CD SWAP1 ADDRESS SWAP1 DUP9 SWAP1 PUSH1 0x4 ADD PUSH2 0x369C JUMP JUMPDEST PUSH1 0x20 PUSH1 0x40 MLOAD DUP1 DUP4 SUB DUP2 DUP7 GAS DELEGATECALL ISZERO DUP1 ISZERO PUSH2 0x26E8 JUMPI RETURNDATASIZE PUSH0 DUP1 RETURNDATACOPY RETURNDATASIZE PUSH0 REVERT JUMPDEST POP POP POP POP PUSH1 0x40 MLOAD RETURNDATASIZE PUSH1 0x1F NOT PUSH1 0x1F DUP3 ADD AND DUP3 ADD DUP1 PUSH1 0x40 MSTORE POP DUP2 ADD SWAP1 PUSH2 0x270C SWAP2 SWAP1 PUSH2 0x36B6 JUMP JUMPDEST PUSH1 0x40 MLOAD PUSH4 0xA4E84AA7 PUSH1 0xE0 SHL DUP2 MSTORE SWAP1 SWAP2 POP PUSH20 0x0 SWAP1 PUSH4 0xA4E84AA7 SWAP1 PUSH2 0x274B SWAP1 PUSH1 0x6 SWAP1 DUP6 SWAP1 DUP9 SWAP1 PUSH1 0x4 ADD PUSH2 0x3883 JUMP JUMPDEST PUSH1 0x20 PUSH1 0x40 MLOAD DUP1 DUP4 SUB DUP2 DUP7 GAS DELEGATECALL ISZERO DUP1 ISZERO PUSH2 0x2766 JUMPI RETURNDATASIZE PUSH0 DUP1 RETURNDATACOPY RETURNDATASIZE PUSH0 REVERT JUMPDEST POP POP POP POP PUSH1 0x40 MLOAD RETURNDATASIZE PUSH1 0x1F NOT PUSH1 0x1F DUP3 ADD AND DUP3 ADD DUP1 PUSH1 0x40 MSTORE POP DUP2 ADD SWAP1 PUSH2 0x278A SWAP2 SWAP1 PUSH2 0x377F JUMP JUMPDEST ISZERO PUSH2 0x2799 JUMPI PUSH1 0x1 SWAP2 POP POP PUSH2 0xDA0 JUMP JUMPDEST POP PUSH0 SWAP4 SWAP3 POP POP POP JUMP JUMPDEST PUSH1 0x40 MLOAD PUSH4 0x3E9AF3FB PUSH1 0xE2 SHL DUP2 MSTORE PUSH0 SWAP1 PUSH20 0x0 SWAP1 PUSH4 0xFA6BCFEC SWAP1 PUSH2 0x27DD SWAP1 ADDRESS SWAP1 DUP7 SWAP1 PUSH1 0x4 ADD PUSH2 0x369C JUMP JUMPDEST PUSH1 0x20 PUSH1 0x40 MLOAD DUP1 DUP4 SUB DUP2 DUP7 GAS DELEGATECALL ISZERO DUP1 ISZERO PUSH2 0x27F8 JUMPI RETURNDATASIZE PUSH0 DUP1 RETURNDATACOPY RETURNDATASIZE PUSH0 REVERT JUMPDEST POP POP POP POP PUSH1 0x40 MLOAD RETURNDATASIZE PUSH1 0x1F NOT PUSH1 0x1F DUP3 ADD AND DUP3 ADD DUP1 PUSH1 0x40 MSTORE POP DUP2 ADD SWAP1 PUSH2 0x281C SWAP2 SWAP1 PUSH2 0x36B6 JUMP JUMPDEST PUSH1 0x40 MLOAD PUSH4 0x129A3965 PUSH1 0xE1 SHL DUP2 MSTORE PUSH1 0x12 PUSH1 0x4 DUP3 ADD MSTORE PUSH1 0x24 DUP2 ADD DUP3 SWAP1 MSTORE SWAP1 SWAP2 POP PUSH20 0x0 SWAP1 PUSH4 0x253472CA SWAP1 PUSH1 0x44 ADD PUSH1 0x20 PUSH1 0x40 MLOAD DUP1 DUP4 SUB DUP2 DUP7 GAS DELEGATECALL ISZERO DUP1 ISZERO PUSH2 0x2874 JUMPI RETURNDATASIZE PUSH0 DUP1 RETURNDATACOPY RETURNDATASIZE PUSH0 REVERT JUMPDEST POP POP POP POP PUSH1 0x40 MLOAD RETURNDATASIZE PUSH1 0x1F NOT PUSH1 0x1F DUP3 ADD AND DUP3 ADD DUP1 PUSH1 0x40 MSTORE POP DUP2 ADD SWAP1 PUSH2 0x2898 SWAP2 SWAP1 PUSH2 0x377F JUMP JUMPDEST POP PUSH2 0x28A4 CALLER PUSH1 0x1 PUSH2 0x2669 JUMP JUMPDEST ISZERO PUSH2 0x29AB JUMPI PUSH1 0x40 MLOAD PUSH4 0x8B584F4D PUSH1 0xE0 SHL DUP2 MSTORE PUSH1 0x12 PUSH1 0x4 DUP3 ADD MSTORE PUSH1 0x24 DUP2 ADD DUP3 SWAP1 MSTORE PUSH20 0x0 SWAP1 PUSH4 0x8B584F4D SWAP1 PUSH1 0x44 ADD JUMPDEST PUSH0 PUSH1 0x40 MLOAD DUP1 DUP4 SUB DUP2 DUP7 DUP1 EXTCODESIZE ISZERO DUP1 ISZERO PUSH2 0x28FA JUMPI PUSH0 DUP1 REVERT JUMPDEST POP GAS DELEGATECALL ISZERO DUP1 ISZERO PUSH2 0x290C JUMPI RETURNDATASIZE PUSH0 DUP1 RETURNDATACOPY RETURNDATASIZE PUSH0 REVERT JUMPDEST POP POP POP PUSH0 DUP3 DUP2 MSTORE PUSH1 0x15 PUSH1 0x20 SWAP1 DUP2 MSTORE PUSH1 0x40 SWAP2 DUP3 SWAP1 KECCAK256 DUP1 SLOAD PUSH1 0x1 PUSH1 0x1 PUSH1 0xA0 SHL SUB NOT AND PUSH1 0x1 PUSH1 0x1 PUSH1 0xA0 SHL SUB DUP8 AND SWAP1 DUP2 OR SWAP1 SWAP2 SSTORE DUP3 MLOAD PUSH4 0x33B8CB4B PUSH1 0xE1 SHL DUP2 MSTORE SWAP3 MLOAD SWAP1 SWAP4 POP PUSH4 0x67719696 SWAP3 PUSH1 0x4 DUP1 DUP3 ADD SWAP4 SWAP3 SWAP2 DUP3 SWAP1 SUB ADD DUP2 DUP7 GAS STATICCALL ISZERO DUP1 ISZERO PUSH2 0x2972 JUMPI RETURNDATASIZE PUSH0 DUP1 RETURNDATACOPY RETURNDATASIZE PUSH0 REVERT JUMPDEST POP POP POP POP PUSH1 0x40 MLOAD RETURNDATASIZE PUSH1 0x1F NOT PUSH1 0x1F DUP3 ADD AND DUP3 ADD DUP1 PUSH1 0x40 MSTORE POP DUP2 ADD SWAP1 PUSH2 0x2996 SWAP2 SWAP1 PUSH2 0x36B6 JUMP JUMPDEST PUSH0 DUP3 DUP2 MSTORE PUSH1 0x15 PUSH1 0x20 MSTORE PUSH1 0x40 SWAP1 KECCAK256 PUSH1 0x1 ADD SSTORE POP POP JUMP JUMPDEST PUSH0 DUP2 DUP2 MSTORE PUSH1 0x16 PUSH1 0x20 SWAP1 DUP2 MSTORE PUSH1 0x40 SWAP2 DUP3 SWAP1 KECCAK256 DUP3 MLOAD DUP1 DUP5 ADD SWAP1 SWAP4 MSTORE DUP1 SLOAD PUSH1 0x1 PUSH1 0x1 PUSH1 0xA0 SHL SUB AND DUP4 MSTORE PUSH1 0x1 ADD SLOAD SWAP1 DUP3 ADD MSTORE PUSH20 0x0 SWAP1 PUSH4 0x1437AE57 SWAP1 PUSH2 0x29FD PUSH2 0x8F5 JUMP JUMPDEST PUSH1 0x40 MLOAD DUP4 PUSH4 0xFFFFFFFF AND PUSH1 0xE0 SHL DUP2 MSTORE PUSH1 0x4 ADD PUSH2 0x2A1A SWAP3 SWAP2 SWAP1 PUSH2 0x389E JUMP JUMPDEST PUSH1 0x20 PUSH1 0x40 MLOAD DUP1 DUP4 SUB DUP2 DUP7 GAS DELEGATECALL ISZERO DUP1 ISZERO PUSH2 0x2A35 JUMPI RETURNDATASIZE PUSH0 DUP1 RETURNDATACOPY RETURNDATASIZE PUSH0 REVERT JUMPDEST POP POP POP POP PUSH1 0x40 MLOAD RETURNDATASIZE PUSH1 0x1F NOT PUSH1 0x1F DUP3 ADD AND DUP3 ADD DUP1 PUSH1 0x40 MSTORE POP DUP2 ADD SWAP1 PUSH2 0x2A59 SWAP2 SWAP1 PUSH2 0x377F JUMP JUMPDEST PUSH2 0x2A65 JUMPI PUSH2 0x2A65 PUSH2 0x36E8 JUMP JUMPDEST PUSH0 DUP2 DUP2 MSTORE PUSH1 0x16 PUSH1 0x20 MSTORE PUSH1 0x40 DUP1 DUP3 KECCAK256 DUP1 SLOAD PUSH1 0x1 PUSH1 0x1 PUSH1 0xA0 SHL SUB NOT AND DUP2 SSTORE PUSH1 0x1 ADD SWAP2 SWAP1 SWAP2 SSTORE MLOAD PUSH4 0x4823FB6F PUSH1 0xE1 SHL DUP2 MSTORE PUSH1 0xF PUSH1 0x4 DUP3 ADD MSTORE PUSH1 0x24 DUP2 ADD DUP3 SWAP1 MSTORE PUSH20 0x0 SWAP1 PUSH4 0x9047F6DE SWAP1 PUSH1 0x44 ADD PUSH0 PUSH1 0x40 MLOAD DUP1 DUP4 SUB DUP2 DUP7 DUP1 EXTCODESIZE ISZERO DUP1 ISZERO PUSH2 0x2AD6 JUMPI PUSH0 DUP1 REVERT JUMPDEST POP GAS DELEGATECALL ISZERO DUP1 ISZERO PUSH2 0x2AE8 JUMPI RETURNDATASIZE PUSH0 DUP1 RETURNDATACOPY RETURNDATASIZE PUSH0 REVERT JUMPDEST POP POP PUSH1 0x40 MLOAD PUSH4 0x8B584F4D PUSH1 0xE0 SHL DUP2 MSTORE PUSH1 0x12 PUSH1 0x4 DUP3 ADD MSTORE PUSH1 0x24 DUP2 ADD DUP5 SWAP1 MSTORE PUSH20 0x0 SWAP3 POP PUSH4 0x8B584F4D SWAP2 POP PUSH1 0x44 ADD PUSH2 0x28E4 JUMP JUMPDEST CALLER PUSH2 0x2B34 PUSH2 0x1B99 JUMP JUMPDEST PUSH1 0x1 PUSH1 0x1 PUSH1 0xA0 SHL SUB AND EQ PUSH2 0x135F JUMPI CALLER PUSH1 0x40 MLOAD PUSH4 0x118CDAA7 PUSH1 0xE0 SHL DUP2 MSTORE PUSH1 0x4 ADD PUSH2 0xBBD SWAP2 SWAP1 PUSH2 0x350F JUMP JUMPDEST PUSH0 DUP1 SLOAD PUSH1 0x1 PUSH1 0x1 PUSH1 0xA0 SHL SUB DUP4 DUP2 AND PUSH1 0x1 PUSH1 0x1 PUSH1 0xA0 SHL SUB NOT DUP4 AND DUP2 OR DUP5 SSTORE PUSH1 0x40 MLOAD SWAP2 SWAP1 SWAP3 AND SWAP3 DUP4 SWAP2 PUSH32 0x8BE0079C531659141344CD1FD0A4F28419497F9722A3DAAFE3B4186F6B6457E0 SWAP2 SWAP1 LOG3 POP POP JUMP JUMPDEST PUSH2 0x132B DUP2 PUSH1 0x40 MLOAD PUSH1 0x24 ADD PUSH2 0x2BC0 SWAP2 SWAP1 PUSH2 0x350F JUMP JUMPDEST PUSH1 0x40 DUP1 MLOAD PUSH1 0x1F NOT DUP2 DUP5 SUB ADD DUP2 MSTORE SWAP2 SWAP1 MSTORE PUSH1 0x20 DUP2 ADD DUP1 MLOAD PUSH1 0x1 PUSH1 0x1 PUSH1 0xE0 SHL SUB AND PUSH4 0x161765E1 PUSH1 0xE1 SHL OR SWAP1 MSTORE PUSH2 0x3230 JUMP JUMPDEST PUSH1 0x40 MLOAD PUSH1 0x1 PUSH1 0x1 PUSH1 0xE0 SHL SUB NOT DUP3 AND PUSH1 0x24 DUP3 ADD MSTORE PUSH2 0x132B SWAP1 PUSH1 0x44 ADD PUSH1 0x40 DUP1 MLOAD PUSH1 0x1F NOT DUP2 DUP5 SUB ADD DUP2 MSTORE SWAP2 SWAP1 MSTORE PUSH1 0x20 DUP2 ADD DUP1 MLOAD PUSH1 0x1 PUSH1 0x1 PUSH1 0xE0 SHL SUB AND PUSH4 0xE05F48D1 PUSH1 0xE0 SHL OR SWAP1 MSTORE PUSH2 0x3230 JUMP JUMPDEST PUSH2 0x132B DUP2 PUSH1 0x40 MLOAD PUSH1 0x24 ADD PUSH2 0x2C4C SWAP2 SWAP1 PUSH2 0x38B9 JUMP JUMPDEST PUSH1 0x40 DUP1 MLOAD PUSH1 0x1F NOT DUP2 DUP5 SUB ADD DUP2 MSTORE SWAP2 SWAP1 MSTORE PUSH1 0x20 DUP2 ADD DUP1 MLOAD PUSH1 0x1 PUSH1 0x1 PUSH1 0xE0 SHL SUB AND PUSH4 0x5F3BFAB PUSH1 0xE1 SHL OR SWAP1 MSTORE PUSH2 0x3230 JUMP JUMPDEST PUSH2 0x132B DUP2 PUSH2 0x2C88 PUSH0 PUSH2 0xE74 JUMP JUMPDEST MLOAD PUSH1 0x1 PUSH2 0x2E93 JUMP JUMPDEST PUSH2 0x2C9B CALLER PUSH1 0x2 PUSH2 0x2669 JUMP JUMPDEST ISZERO PUSH2 0x135F JUMPI PUSH0 PUSH2 0x2CA9 PUSH2 0x1E99 JUMP JUMPDEST SWAP1 POP PUSH0 JUMPDEST DUP2 DUP2 LT ISZERO PUSH2 0x1BC8 JUMPI PUSH0 PUSH20 0x0 PUSH4 0xFA6BCFEC ADDRESS PUSH2 0x2CDA DUP6 PUSH2 0x1198 JUMP JUMPDEST MLOAD PUSH1 0x40 MLOAD PUSH1 0x1 PUSH1 0x1 PUSH1 0xE0 SHL SUB NOT PUSH1 0xE0 DUP6 SWAP1 SHL AND DUP2 MSTORE PUSH2 0x2CFD SWAP3 SWAP2 SWAP1 PUSH1 0x4 ADD PUSH2 0x369C JUMP JUMPDEST PUSH1 0x20 PUSH1 0x40 MLOAD DUP1 DUP4 SUB DUP2 DUP7 GAS DELEGATECALL ISZERO DUP1 ISZERO PUSH2 0x2D18 JUMPI RETURNDATASIZE PUSH0 DUP1 RETURNDATACOPY RETURNDATASIZE PUSH0 REVERT JUMPDEST POP POP POP POP PUSH1 0x40 MLOAD RETURNDATASIZE PUSH1 0x1F NOT PUSH1 0x1F DUP3 ADD AND DUP3 ADD DUP1 PUSH1 0x40 MSTORE POP DUP2 ADD SWAP1 PUSH2 0x2D3C SWAP2 SWAP1 PUSH2 0x36B6 JUMP JUMPDEST PUSH0 DUP2 DUP2 MSTORE PUSH1 0x16 PUSH1 0x20 SWAP1 DUP2 MSTORE PUSH1 0x40 SWAP2 DUP3 SWAP1 KECCAK256 DUP3 MLOAD DUP1 DUP5 ADD SWAP1 SWAP4 MSTORE DUP1 SLOAD PUSH1 0x1 PUSH1 0x1 PUSH1 0xA0 SHL SUB AND DUP4 MSTORE PUSH1 0x1 ADD SLOAD SWAP1 DUP3 ADD MSTORE SWAP1 SWAP2 POP PUSH20 0x0 SWAP1 PUSH4 0x1437AE57 SWAP1 PUSH2 0x2D91 PUSH2 0x8F5 JUMP JUMPDEST PUSH1 0x40 MLOAD DUP4 PUSH4 0xFFFFFFFF AND PUSH1 0xE0 SHL DUP2 MSTORE PUSH1 0x4 ADD PUSH2 0x2DAE SWAP3 SWAP2 SWAP1 PUSH2 0x389E JUMP JUMPDEST PUSH1 0x20 PUSH1 0x40 MLOAD DUP1 DUP4 SUB DUP2 DUP7 GAS DELEGATECALL ISZERO DUP1 ISZERO PUSH2 0x2DC9 JUMPI RETURNDATASIZE PUSH0 DUP1 RETURNDATACOPY RETURNDATASIZE PUSH0 REVERT JUMPDEST POP POP POP POP PUSH1 0x40 MLOAD RETURNDATASIZE PUSH1 0x1F NOT PUSH1 0x1F DUP3 ADD AND DUP3 ADD DUP1 PUSH1 0x40 MSTORE POP DUP2 ADD SWAP1 PUSH2 0x2DED SWAP2 SWAP1 PUSH2 0x377F JUMP JUMPDEST ISZERO PUSH2 0x2E04 JUMPI PUSH2 0x2E04 PUSH2 0x2DFE DUP4 PUSH2 0x1198 JUMP JUMPDEST MLOAD PUSH2 0x27A2 JUMP JUMPDEST POP PUSH1 0x1 ADD PUSH2 0x2CAD JUMP JUMPDEST PUSH1 0x40 MLOAD DUP2 ISZERO ISZERO PUSH1 0x24 DUP3 ADD MSTORE PUSH2 0x132B SWAP1 PUSH1 0x44 ADD PUSH1 0x40 DUP1 MLOAD PUSH1 0x1F NOT DUP2 DUP5 SUB ADD DUP2 MSTORE SWAP2 SWAP1 MSTORE PUSH1 0x20 DUP2 ADD DUP1 MLOAD PUSH1 0x1 PUSH1 0x1 PUSH1 0xE0 SHL SUB AND PUSH4 0x32458EED PUSH1 0xE0 SHL OR SWAP1 MSTORE PUSH2 0x3230 JUMP JUMPDEST PUSH2 0x132B DUP2 PUSH1 0x40 MLOAD PUSH1 0x24 ADD PUSH2 0x2E64 SWAP2 DUP2 MSTORE PUSH1 0x20 ADD SWAP1 JUMP JUMPDEST PUSH1 0x40 DUP1 MLOAD PUSH1 0x1F NOT DUP2 DUP5 SUB ADD DUP2 MSTORE SWAP2 SWAP1 MSTORE PUSH1 0x20 DUP2 ADD DUP1 MLOAD PUSH1 0x1 PUSH1 0x1 PUSH1 0xE0 SHL SUB AND PUSH4 0x2D5B6CB9 PUSH1 0xE0 SHL OR SWAP1 MSTORE PUSH2 0x3230 JUMP JUMPDEST PUSH2 0x2E9C CALLER PUSH2 0x2BAC JUMP JUMPDEST PUSH2 0x2EA7 CALLER PUSH1 0x2 PUSH2 0x2669 JUMP JUMPDEST PUSH2 0x2EB3 JUMPI PUSH2 0x2EB3 PUSH2 0x36E8 JUMP JUMPDEST PUSH1 0x40 MLOAD PUSH4 0x3E9AF3FB PUSH1 0xE2 SHL DUP2 MSTORE PUSH0 SWAP1 PUSH20 0x0 SWAP1 PUSH4 0xFA6BCFEC SWAP1 PUSH2 0x2EF7 SWAP1 PUSH1 0x1 PUSH1 0x1 PUSH1 0xA0 SHL SUB DUP9 AND SWAP1 DUP8 SWAP1 PUSH1 0x4 ADD PUSH2 0x369C JUMP JUMPDEST PUSH1 0x20 PUSH1 0x40 MLOAD DUP1 DUP4 SUB DUP2 DUP7 GAS DELEGATECALL ISZERO DUP1 ISZERO PUSH2 0x2F12 JUMPI RETURNDATASIZE PUSH0 DUP1 RETURNDATACOPY RETURNDATASIZE PUSH0 REVERT JUMPDEST POP POP POP POP PUSH1 0x40 MLOAD RETURNDATASIZE PUSH1 0x1F NOT PUSH1 0x1F DUP3 ADD AND DUP3 ADD DUP1 PUSH1 0x40 MSTORE POP DUP2 ADD SWAP1 PUSH2 0x2F36 SWAP2 SWAP1 PUSH2 0x36B6 JUMP JUMPDEST PUSH1 0x40 MLOAD PUSH4 0x8B584F4D PUSH1 0xE0 SHL DUP2 MSTORE PUSH1 0xA PUSH1 0x4 DUP3 ADD MSTORE PUSH1 0x24 DUP2 ADD DUP3 SWAP1 MSTORE SWAP1 SWAP2 POP PUSH20 0x0 SWAP1 PUSH4 0x8B584F4D SWAP1 PUSH1 0x44 ADD PUSH0 PUSH1 0x40 MLOAD DUP1 DUP4 SUB DUP2 DUP7 DUP1 EXTCODESIZE ISZERO DUP1 ISZERO PUSH2 0x2F89 JUMPI PUSH0 DUP1 REVERT JUMPDEST POP GAS DELEGATECALL ISZERO DUP1 ISZERO PUSH2 0x2F9B JUMPI RETURNDATASIZE PUSH0 DUP1 RETURNDATACOPY RETURNDATASIZE PUSH0 REVERT JUMPDEST POP POP POP PUSH0 DUP3 DUP2 MSTORE PUSH1 0xD PUSH1 0x20 SWAP1 DUP2 MSTORE PUSH1 0x40 SWAP2 DUP3 SWAP1 KECCAK256 DUP1 SLOAD PUSH1 0x1 PUSH1 0x1 PUSH1 0xA0 SHL SUB DUP1 DUP11 AND PUSH1 0x1 PUSH1 0x1 PUSH1 0xA0 SHL SUB NOT SWAP3 DUP4 AND OR DUP4 SSTORE PUSH1 0x1 SWAP1 SWAP3 ADD DUP1 SLOAD SWAP3 DUP10 AND SWAP3 SWAP1 SWAP2 AND DUP3 OR SWAP1 SSTORE DUP3 MLOAD PUSH4 0x33B8CB4B PUSH1 0xE1 SHL DUP2 MSTORE SWAP3 MLOAD SWAP1 SWAP4 POP PUSH4 0x67719696 SWAP3 PUSH1 0x4 DUP1 DUP3 ADD SWAP4 SWAP3 SWAP2 DUP3 SWAP1 SUB ADD DUP2 DUP7 GAS STATICCALL ISZERO DUP1 ISZERO PUSH2 0x3013 JUMPI RETURNDATASIZE PUSH0 DUP1 RETURNDATACOPY RETURNDATASIZE PUSH0 REVERT JUMPDEST POP POP POP POP PUSH1 0x40 MLOAD RETURNDATASIZE PUSH1 0x1F NOT PUSH1 0x1F DUP3 ADD AND DUP3 ADD DUP1 PUSH1 0x40 MSTORE POP DUP2 ADD SWAP1 PUSH2 0x3037 SWAP2 SWAP1 PUSH2 0x36B6 JUMP JUMPDEST PUSH0 SWAP2 DUP3 MSTORE PUSH1 0xD PUSH1 0x20 MSTORE PUSH1 0x40 SWAP1 SWAP2 KECCAK256 PUSH1 0x2 DUP2 ADD SWAP2 SWAP1 SWAP2 SSTORE DUP1 SLOAD SWAP2 ISZERO ISZERO PUSH1 0x1 PUSH1 0xA0 SHL MUL PUSH1 0xFF PUSH1 0xA0 SHL NOT SWAP1 SWAP3 AND SWAP2 SWAP1 SWAP2 OR SWAP1 SSTORE POP POP JUMP JUMPDEST PUSH1 0x40 MLOAD PUSH4 0x3E9AF3FB PUSH1 0xE2 SHL DUP2 MSTORE PUSH0 SWAP1 PUSH20 0x0 SWAP1 PUSH4 0xFA6BCFEC SWAP1 PUSH2 0x30A6 SWAP1 ADDRESS SWAP1 DUP8 SWAP1 PUSH1 0x4 ADD PUSH2 0x369C JUMP JUMPDEST PUSH1 0x20 PUSH1 0x40 MLOAD DUP1 DUP4 SUB DUP2 DUP7 GAS DELEGATECALL ISZERO DUP1 ISZERO PUSH2 0x30C1 JUMPI RETURNDATASIZE PUSH0 DUP1 RETURNDATACOPY RETURNDATASIZE PUSH0 REVERT JUMPDEST POP POP POP POP PUSH1 0x40 MLOAD RETURNDATASIZE PUSH1 0x1F NOT PUSH1 0x1F DUP3 ADD AND DUP3 ADD DUP1 PUSH1 0x40 MSTORE POP DUP2 ADD SWAP1 PUSH2 0x30E5 SWAP2 SWAP1 PUSH2 0x36B6 JUMP JUMPDEST SWAP1 POP PUSH2 0x30F2 CALLER PUSH1 0x6 PUSH2 0x2669 JUMP JUMPDEST PUSH2 0x30FE JUMPI PUSH2 0x30FE PUSH2 0x36E8 JUMP JUMPDEST PUSH1 0x40 MLOAD PUSH3 0xB13481 PUSH1 0xE6 SHL DUP2 MSTORE PUSH20 0x0 SWAP1 PUSH4 0x2C4D2040 SWAP1 PUSH2 0x313B SWAP1 PUSH1 0x6 SWAP1 DUP6 SWAP1 DUP9 SWAP1 DUP9 SWAP1 PUSH1 0x4 ADD PUSH2 0x38CB JUMP JUMPDEST PUSH0 PUSH1 0x40 MLOAD DUP1 DUP4 SUB DUP2 DUP7 DUP1 EXTCODESIZE ISZERO DUP1 ISZERO PUSH2 0x3151 JUMPI PUSH0 DUP1 REVERT JUMPDEST POP GAS DELEGATECALL ISZERO DUP1 ISZERO PUSH2 0x3163 JUMPI RETURNDATASIZE PUSH0 DUP1 RETURNDATACOPY RETURNDATASIZE PUSH0 REVERT JUMPDEST POP POP POP PUSH0 DUP3 DUP2 MSTORE PUSH1 0x9 PUSH1 0x20 MSTORE PUSH1 0x40 SWAP1 KECCAK256 DUP1 SLOAD PUSH1 0x1 PUSH1 0x1 PUSH1 0xA0 SHL SUB DUP7 AND PUSH1 0x1 PUSH1 0x1 PUSH1 0xA0 SHL SUB NOT DUP3 AND DUP2 OR DUP4 SSTORE DUP6 SWAP4 POP PUSH1 0x1 PUSH1 0x1 PUSH1 0xA8 SHL SUB NOT SWAP1 SWAP2 AND OR PUSH1 0x1 PUSH1 0xA0 SHL DUP4 PUSH1 0x6 DUP2 GT ISZERO PUSH2 0x1E8F JUMPI PUSH2 0x1E8F PUSH2 0x3395 JUMP JUMPDEST PUSH1 0x40 MLOAD PUSH4 0x129A3965 PUSH1 0xE1 SHL DUP2 MSTORE PUSH1 0xA PUSH1 0x4 DUP3 ADD MSTORE PUSH1 0x24 DUP2 ADD DUP3 SWAP1 MSTORE PUSH0 SWAP1 PUSH20 0x0 SWAP1 PUSH4 0x253472CA SWAP1 PUSH1 0x44 ADD PUSH1 0x20 PUSH1 0x40 MLOAD DUP1 DUP4 SUB DUP2 DUP7 GAS DELEGATECALL ISZERO DUP1 ISZERO PUSH2 0x320C JUMPI RETURNDATASIZE PUSH0 DUP1 RETURNDATACOPY RETURNDATASIZE PUSH0 REVERT JUMPDEST POP POP POP POP PUSH1 0x40 MLOAD RETURNDATASIZE PUSH1 0x1F NOT PUSH1 0x1F DUP3 ADD AND DUP3 ADD DUP1 PUSH1 0x40 MSTORE POP DUP2 ADD SWAP1 PUSH2 0xDA0 SWAP2 SWAP1 PUSH2 0x377F JUMP JUMPDEST PUSH2 0x132B DUP2 PUSH0 PUSH11 0x636F6E736F6C652E6C6F67 SWAP1 POP PUSH0 DUP1 DUP4 MLOAD PUSH1 0x20 DUP6 ADD DUP5 GAS STATICCALL POP POP POP JUMP JUMPDEST PUSH1 0x40 DUP1 MLOAD PUSH1 0x60 DUP2 ADD DUP3 MSTORE PUSH0 DUP1 DUP3 MSTORE PUSH1 0x20 DUP1 DUP4 ADD DUP3 SWAP1 MSTORE DUP4 MLOAD DUP1 DUP6 ADD DUP6 MSTORE DUP3 DUP2 MSTORE SWAP1 DUP2 ADD SWAP2 SWAP1 SWAP2 MSTORE SWAP1 SWAP2 DUP3 ADD MSTORE SWAP1 JUMP JUMPDEST POP DUP1 SLOAD PUSH0 DUP3 SSTORE SWAP1 PUSH0 MSTORE PUSH1 0x20 PUSH0 KECCAK256 SWAP1 DUP2 ADD SWAP1 PUSH2 0x132B SWAP2 SWAP1 JUMPDEST DUP1 DUP3 GT ISZERO PUSH2 0x32B5 JUMPI PUSH0 PUSH2 0x32AC DUP3 DUP3 PUSH2 0x32B9 JUMP JUMPDEST POP PUSH1 0x1 ADD PUSH2 0x3299 JUMP JUMPDEST POP SWAP1 JUMP JUMPDEST POP DUP1 SLOAD PUSH2 0x32C5 SWAP1 PUSH2 0x36FC JUMP JUMPDEST PUSH0 DUP3 SSTORE DUP1 PUSH1 0x1F LT PUSH2 0x32D4 JUMPI POP POP JUMP JUMPDEST PUSH1 0x1F ADD PUSH1 0x20 SWAP1 DIV SWAP1 PUSH0 MSTORE PUSH1 0x20 PUSH0 KECCAK256 SWAP1 DUP2 ADD SWAP1 PUSH2 0x132B SWAP2 SWAP1 JUMPDEST DUP1 DUP3 GT ISZERO PUSH2 0x32B5 JUMPI PUSH0 DUP2 SSTORE PUSH1 0x1 ADD PUSH2 0x32EC JUMP JUMPDEST PUSH1 0x1 PUSH1 0x1 PUSH1 0xA0 SHL SUB DUP2 AND DUP2 EQ PUSH2 0x132B JUMPI PUSH0 DUP1 REVERT JUMPDEST PUSH0 DUP1 PUSH1 0x40 DUP4 DUP6 SUB SLT ISZERO PUSH2 0x3324 JUMPI PUSH0 DUP1 REVERT JUMPDEST DUP3 CALLDATALOAD PUSH2 0x332F DUP2 PUSH2 0x32FF JUMP JUMPDEST SWAP5 PUSH1 0x20 SWAP4 SWAP1 SWAP4 ADD CALLDATALOAD SWAP4 POP POP POP JUMP JUMPDEST PUSH0 PUSH1 0x20 DUP3 DUP5 SUB SLT ISZERO PUSH2 0x334D JUMPI PUSH0 DUP1 REVERT JUMPDEST DUP2 CALLDATALOAD PUSH2 0xFC1 DUP2 PUSH2 0x32FF JUMP JUMPDEST DUP1 MLOAD PUSH1 0x1 PUSH1 0x1 PUSH1 0xA0 SHL SUB AND DUP3 MSTORE PUSH1 0x20 SWAP1 DUP2 ADD MLOAD SWAP2 ADD MSTORE JUMP JUMPDEST PUSH1 0x40 DUP2 ADD PUSH2 0xDA0 DUP3 DUP5 PUSH2 0x3358 JUMP JUMPDEST PUSH0 PUSH1 0x20 DUP3 DUP5 SUB SLT ISZERO PUSH2 0x338E JUMPI PUSH0 DUP1 REVERT JUMPDEST POP CALLDATALOAD SWAP2 SWAP1 POP JUMP JUMPDEST PUSH4 0x4E487B71 PUSH1 0xE0 SHL PUSH0 MSTORE PUSH1 0x21 PUSH1 0x4 MSTORE PUSH1 0x24 PUSH0 REVERT JUMPDEST PUSH1 0x7 DUP2 LT PUSH2 0x33C5 JUMPI PUSH4 0x4E487B71 PUSH1 0xE0 SHL PUSH0 MSTORE PUSH1 0x21 PUSH1 0x4 MSTORE PUSH1 0x24 PUSH0 REVERT JUMPDEST SWAP1 MSTORE JUMP JUMPDEST PUSH0 DUP2 MLOAD DUP1 DUP5 MSTORE DUP1 PUSH1 0x20 DUP5 ADD PUSH1 0x20 DUP7 ADD MCOPY PUSH0 PUSH1 0x20 DUP3 DUP7 ADD ADD MSTORE PUSH1 0x20 PUSH1 0x1F NOT PUSH1 0x1F DUP4 ADD AND DUP6 ADD ADD SWAP2 POP POP SWAP3 SWAP2 POP POP JUMP JUMPDEST PUSH1 0x20 DUP1 DUP3 MSTORE DUP3 MLOAD PUSH1 0x1 PUSH1 0x1 PUSH1 0xA0 SHL SUB AND DUP3 DUP3 ADD MSTORE DUP3 ADD MLOAD PUSH0 SWAP1 PUSH1 0xC0 DUP4 ADD SWAP1 PUSH2 0x3422 PUSH1 0x40 DUP6 ADD DUP3 PUSH2 0x33A9 JUMP JUMPDEST POP PUSH1 0x40 DUP5 ADD MLOAD PUSH1 0xA0 PUSH1 0x60 DUP6 ADD MSTORE DUP2 DUP2 MLOAD DUP1 DUP5 MSTORE PUSH1 0xE0 DUP7 ADD SWAP2 POP PUSH1 0xE0 DUP2 PUSH1 0x5 SHL DUP8 ADD ADD SWAP4 POP PUSH1 0x20 DUP4 ADD SWAP3 POP PUSH0 JUMPDEST DUP2 DUP2 LT ISZERO PUSH2 0x347F JUMPI PUSH1 0xDF NOT DUP8 DUP7 SUB ADD DUP4 MSTORE PUSH2 0x346A DUP6 DUP6 MLOAD PUSH2 0x33C9 JUMP JUMPDEST SWAP5 POP PUSH1 0x20 SWAP4 DUP5 ADD SWAP4 SWAP3 SWAP1 SWAP3 ADD SWAP2 PUSH1 0x1 ADD PUSH2 0x344E JUMP JUMPDEST POP POP POP POP PUSH1 0x60 DUP5 ADD MLOAD PUSH1 0x80 DUP5 ADD MSTORE PUSH1 0x80 DUP5 ADD MLOAD PUSH1 0xA0 DUP5 ADD MSTORE DUP1 SWAP2 POP POP SWAP3 SWAP2 POP POP JUMP JUMPDEST DUP2 MLOAD PUSH1 0x1 PUSH1 0x1 PUSH1 0xA0 SHL SUB AND DUP2 MSTORE PUSH1 0x20 DUP1 DUP4 ADD MLOAD ISZERO ISZERO SWAP1 DUP3 ADD MSTORE PUSH1 0x40 DUP1 DUP4 ADD MLOAD PUSH1 0x80 DUP4 ADD SWAP2 PUSH2 0x34D1 SWAP1 DUP5 ADD DUP3 PUSH2 0x3358 JUMP JUMPDEST POP SWAP3 SWAP2 POP POP JUMP JUMPDEST PUSH0 DUP1 PUSH1 0x40 DUP4 DUP6 SUB SLT ISZERO PUSH2 0x34E9 JUMPI PUSH0 DUP1 REVERT JUMPDEST DUP3 CALLDATALOAD PUSH2 0x34F4 DUP2 PUSH2 0x32FF JUMP JUMPDEST SWAP2 POP PUSH1 0x20 DUP4 ADD CALLDATALOAD PUSH2 0x3504 DUP2 PUSH2 0x32FF JUMP JUMPDEST DUP1 SWAP2 POP POP SWAP3 POP SWAP3 SWAP1 POP JUMP JUMPDEST PUSH1 0x1 PUSH1 0x1 PUSH1 0xA0 SHL SUB SWAP2 SWAP1 SWAP2 AND DUP2 MSTORE PUSH1 0x20 ADD SWAP1 JUMP JUMPDEST PUSH0 DUP1 PUSH1 0x40 DUP4 DUP6 SUB SLT ISZERO PUSH2 0x3534 JUMPI PUSH0 DUP1 REVERT JUMPDEST DUP3 CALLDATALOAD PUSH2 0x353F DUP2 PUSH2 0x32FF JUMP JUMPDEST SWAP2 POP PUSH1 0x20 DUP4 ADD CALLDATALOAD PUSH1 0x7 DUP2 LT PUSH2 0x3504 JUMPI PUSH0 DUP1 REVERT JUMPDEST PUSH0 DUP1 PUSH0 PUSH1 0x60 DUP5 DUP7 SUB SLT ISZERO PUSH2 0x3564 JUMPI PUSH0 DUP1 REVERT JUMPDEST POP POP DUP2 CALLDATALOAD SWAP4 PUSH1 0x20 DUP4 ADD CALLDATALOAD SWAP4 POP PUSH1 0x40 SWAP1 SWAP3 ADD CALLDATALOAD SWAP2 SWAP1 POP JUMP JUMPDEST PUSH0 DUP1 PUSH0 DUP1 PUSH0 DUP1 PUSH1 0xC0 DUP8 DUP10 SUB SLT ISZERO PUSH2 0x3590 JUMPI PUSH0 DUP1 REVERT JUMPDEST DUP7 CALLDATALOAD PUSH2 0x359B DUP2 PUSH2 0x32FF JUMP JUMPDEST SWAP6 POP PUSH1 0x20 DUP8 ADD CALLDATALOAD PUSH2 0x35AB DUP2 PUSH2 0x32FF JUMP JUMPDEST SWAP5 POP PUSH1 0x40 DUP8 ADD CALLDATALOAD PUSH2 0x35BB DUP2 PUSH2 0x32FF JUMP JUMPDEST SWAP4 POP PUSH1 0x60 DUP8 ADD CALLDATALOAD PUSH1 0x1 PUSH1 0x1 PUSH1 0xE0 SHL SUB NOT DUP2 AND DUP2 EQ PUSH2 0x35D7 JUMPI PUSH0 DUP1 REVERT JUMPDEST SWAP3 POP PUSH1 0x80 DUP8 ADD CALLDATALOAD PUSH2 0x35E7 DUP2 PUSH2 0x32FF JUMP JUMPDEST SWAP6 SWAP9 SWAP5 SWAP8 POP SWAP3 SWAP6 SWAP2 SWAP5 SWAP4 PUSH1 0xA0 SWAP1 SWAP3 ADD CALLDATALOAD SWAP3 POP POP JUMP JUMPDEST DUP1 ISZERO ISZERO DUP2 EQ PUSH2 0x132B JUMPI PUSH0 DUP1 REVERT JUMPDEST PUSH0 DUP1 PUSH0 PUSH1 0x60 DUP5 DUP7 SUB SLT ISZERO PUSH2 0x361B JUMPI PUSH0 DUP1 REVERT JUMPDEST DUP4 CALLDATALOAD PUSH2 0x3626 DUP2 PUSH2 0x32FF JUMP JUMPDEST SWAP3 POP PUSH1 0x20 DUP5 ADD CALLDATALOAD PUSH2 0x3636 DUP2 PUSH2 0x32FF JUMP JUMPDEST SWAP2 POP PUSH1 0x40 DUP5 ADD CALLDATALOAD PUSH2 0x3646 DUP2 PUSH2 0x35FC JUMP JUMPDEST DUP1 SWAP2 POP POP SWAP3 POP SWAP3 POP SWAP3 JUMP JUMPDEST PUSH1 0x20 DUP1 DUP3 MSTORE DUP3 MLOAD DUP3 DUP3 ADD DUP2 SWAP1 MSTORE PUSH0 SWAP2 DUP5 ADD SWAP1 PUSH1 0x40 DUP5 ADD SWAP1 DUP4 JUMPDEST DUP2 DUP2 LT ISZERO PUSH2 0x3691 JUMPI DUP4 MLOAD PUSH1 0x1 PUSH1 0x1 PUSH1 0xA0 SHL SUB AND DUP4 MSTORE PUSH1 0x20 SWAP4 DUP5 ADD SWAP4 SWAP1 SWAP3 ADD SWAP2 PUSH1 0x1 ADD PUSH2 0x366A JUMP JUMPDEST POP SWAP1 SWAP6 SWAP5 POP POP POP POP POP JUMP JUMPDEST PUSH1 0x1 PUSH1 0x1 PUSH1 0xA0 SHL SUB SWAP3 DUP4 AND DUP2 MSTORE SWAP2 AND PUSH1 0x20 DUP3 ADD MSTORE PUSH1 0x40 ADD SWAP1 JUMP JUMPDEST PUSH0 PUSH1 0x20 DUP3 DUP5 SUB SLT ISZERO PUSH2 0x36C6 JUMPI PUSH0 DUP1 REVERT JUMPDEST POP MLOAD SWAP2 SWAP1 POP JUMP JUMPDEST PUSH0 PUSH1 0x20 DUP3 DUP5 SUB SLT ISZERO PUSH2 0x36DD JUMPI PUSH0 DUP1 REVERT JUMPDEST DUP2 MLOAD PUSH2 0xFC1 DUP2 PUSH2 0x32FF JUMP JUMPDEST PUSH4 0x4E487B71 PUSH1 0xE0 SHL PUSH0 MSTORE PUSH1 0x1 PUSH1 0x4 MSTORE PUSH1 0x24 PUSH0 REVERT JUMPDEST PUSH1 0x1 DUP2 DUP2 SHR SWAP1 DUP3 AND DUP1 PUSH2 0x3710 JUMPI PUSH1 0x7F DUP3 AND SWAP2 POP JUMPDEST PUSH1 0x20 DUP3 LT DUP2 SUB PUSH2 0x372E JUMPI PUSH4 0x4E487B71 PUSH1 0xE0 SHL PUSH0 MSTORE PUSH1 0x22 PUSH1 0x4 MSTORE PUSH1 0x24 PUSH0 REVERT JUMPDEST POP SWAP2 SWAP1 POP JUMP JUMPDEST PUSH1 0x20 DUP1 DUP3 MSTORE PUSH1 0x2B SWAP1 DUP3 ADD MSTORE PUSH32 0x596F7520646F6E7420686176652061636365737320746F2070726F706F736520 PUSH1 0x40 DUP3 ADD MSTORE PUSH11 0x61206E657720636C617373 PUSH1 0xA8 SHL PUSH1 0x60 DUP3 ADD MSTORE PUSH1 0x80 ADD SWAP1 JUMP JUMPDEST PUSH0 PUSH1 0x20 DUP3 DUP5 SUB SLT ISZERO PUSH2 0x378F JUMPI PUSH0 DUP1 REVERT JUMPDEST DUP2 MLOAD PUSH2 0xFC1 DUP2 PUSH2 0x35FC JUMP JUMPDEST PUSH1 0x20 DUP1 DUP3 MSTORE PUSH1 0xC SWAP1 DUP3 ADD MSTORE PUSH12 0x4E656564204C697470617373 PUSH1 0xA0 SHL PUSH1 0x40 DUP3 ADD MSTORE PUSH1 0x60 ADD SWAP1 JUMP JUMPDEST PUSH4 0x4E487B71 PUSH1 0xE0 SHL PUSH0 MSTORE PUSH1 0x11 PUSH1 0x4 MSTORE PUSH1 0x24 PUSH0 REVERT JUMPDEST DUP1 DUP3 MUL DUP2 ISZERO DUP3 DUP3 DIV DUP5 EQ OR PUSH2 0xDA0 JUMPI PUSH2 0xDA0 PUSH2 0x37C0 JUMP JUMPDEST DUP1 DUP3 ADD DUP1 DUP3 GT ISZERO PUSH2 0xDA0 JUMPI PUSH2 0xDA0 PUSH2 0x37C0 JUMP JUMPDEST PUSH1 0x1 PUSH1 0x1 PUSH1 0xA0 SHL SUB SWAP6 DUP7 AND DUP2 MSTORE SWAP4 DUP6 AND PUSH1 0x20 DUP6 ADD MSTORE SWAP2 DUP5 AND PUSH1 0x40 DUP5 ADD MSTORE SWAP1 SWAP3 AND PUSH1 0x60 DUP3 ADD MSTORE PUSH1 0x80 DUP2 ADD SWAP2 SWAP1 SWAP2 MSTORE PUSH1 0xA0 ADD SWAP1 JUMP JUMPDEST DUP1 DUP3 ADD DUP3 DUP2 SLT PUSH0 DUP4 SLT DUP1 ISZERO DUP3 AND DUP3 ISZERO DUP3 AND OR ISZERO PUSH2 0x3850 JUMPI PUSH2 0x3850 PUSH2 0x37C0 JUMP JUMPDEST POP POP SWAP3 SWAP2 POP POP JUMP JUMPDEST DUP5 DUP2 MSTORE PUSH1 0x20 DUP2 ADD DUP5 SWAP1 MSTORE PUSH1 0x40 DUP2 ADD DUP4 SWAP1 MSTORE PUSH1 0x80 DUP2 ADD PUSH2 0x387A PUSH1 0x60 DUP4 ADD DUP5 PUSH2 0x33A9 JUMP JUMPDEST SWAP6 SWAP5 POP POP POP POP POP JUMP JUMPDEST DUP4 DUP2 MSTORE PUSH1 0x20 DUP2 ADD DUP4 SWAP1 MSTORE PUSH1 0x60 DUP2 ADD PUSH2 0x1D45 PUSH1 0x40 DUP4 ADD DUP5 PUSH2 0x33A9 JUMP JUMPDEST PUSH1 0x60 DUP2 ADD PUSH2 0x38AC DUP3 DUP6 PUSH2 0x3358 JUMP JUMPDEST DUP3 PUSH1 0x40 DUP4 ADD MSTORE SWAP4 SWAP3 POP POP POP JUMP JUMPDEST PUSH1 0x20 DUP2 MSTORE PUSH0 PUSH2 0xFC1 PUSH1 0x20 DUP4 ADD DUP5 PUSH2 0x33C9 JUMP JUMPDEST DUP5 DUP2 MSTORE PUSH1 0x20 DUP2 ADD DUP5 SWAP1 MSTORE PUSH1 0x1 PUSH1 0x1 PUSH1 0xA0 SHL SUB DUP4 AND PUSH1 0x40 DUP3 ADD MSTORE PUSH1 0x80 DUP2 ADD PUSH2 0x387A PUSH1 0x60 DUP4 ADD DUP5 PUSH2 0x33A9 JUMP INVALID LOG2 PUSH5 0x6970667358 0x22 SLT KECCAK256 SWAP14 EXTCODECOPY 0xD8 MSIZE KECCAK256 PUSH24 0x5330C40EA1DA1358C950AA442E9A966AA27BEA6F2F7E164B DUP2 LOG3 PUSH5 0x736F6C6343 STOP ADDMOD BYTE STOP CALLER "
		},
		"gasEstimates": {
			"creation": {
				"codeDepositCost": "2927000",
				"executionCost": "infinite",
				"totalCost": "infinite"
			},
			"external": {
				"AccessIsClass(address,uint8)": "infinite",
				"AccessRegistryCount()": "infinite",
				"ClassProposedValid(address)": "infinite",
				"ClassRegistryCount()": "infinite",
				"ClassValid(address)": "infinite",
				"GetAccessByIndex(uint256)": "infinite",
				"GetClassByIndex(uint256)": "infinite",
				"GetProspectClassByIndex(uint256)": "infinite",
				"GetUserByIndex(uint256)": "infinite",
				"GetUserClass(address,address)": "infinite",
				"HasUserClass(address,address)": "infinite",
				"Lit()": "2494",
				"ProposeClass(address)": "infinite",
				"ProposedClassRegistryCount()": "infinite",
				"RegisterClass(address)": "infinite",
				"RegisterGovAccess(address,uint8)": "infinite",
				"RegisterUserClass(address,address,bool)": "infinite",
				"RemoveAccess(address)": "infinite",
				"UserRegistryCount()": "infinite",
				"VoteClass(address)": "infinite",
				"addClass(address)": "infinite",
				"applyForKing(address,uint256)": "infinite",
				"burn()": "infinite",
				"getBasis(address)": "infinite",
				"getClass(address)": "infinite",
				"getProposed(address)": "infinite",
				"getUserClasses(address)": "infinite",
				"minBurnBalance()": "2330",
				"owner()": "2435",
				"participantAmount()": "2394",
				"processTransaction(address,address,address,bytes4,address,uint256)": "infinite",
				"renounceOwnership()": "infinite",
				"setLit(address)": "26926",
				"setLitpass(address,uint256)": "infinite",
				"setMinBurnBalance(uint256)": "infinite",
				"setRankingAmounts(uint256,uint256,uint256)": "infinite",
				"setXusd(address)": "26881",
				"soldierAmount()": "2417",
				"transferOwnership(address)": "infinite",
				"updateUser(address)": "infinite",
				"updateUserBurns(address)": "infinite",
				"userAmount()": "2395",
				"userIndex()": "infinite",
				"userList(uint256)": "2492",
				"xusd()": "2427"
			},
			"internal": {
				"_addUser(address)": "infinite",
				"addUser(address)": "infinite",
				"isNegative(int256)": "infinite"
			}
		},
		"methodIdentifiers": {
			"AccessIsClass(address,uint8)": "57e8d86d",
			"AccessRegistryCount()": "0e10d955",
			"ClassProposedValid(address)": "4aa95644",
			"ClassRegistryCount()": "30e67af7",
			"ClassValid(address)": "50083d3d",
			"GetAccessByIndex(uint256)": "1a2eff27",
			"GetClassByIndex(uint256)": "33bb6db9",
			"GetProspectClassByIndex(uint256)": "5d58077b",
			"GetUserByIndex(uint256)": "214d97bd",
			"GetUserClass(address,address)": "219f5354",
			"HasUserClass(address,address)": "9cd0c8b7",
			"Lit()": "7be93624",
			"ProposeClass(address)": "c462db0d",
			"ProposedClassRegistryCount()": "bf173c16",
			"RegisterClass(address)": "637ae581",
			"RegisterGovAccess(address,uint8)": "9067870d",
			"RegisterUserClass(address,address,bool)": "8b106bbe",
			"RemoveAccess(address)": "606bdca4",
			"UserRegistryCount()": "4c2bd911",
			"VoteClass(address)": "76537643",
			"addClass(address)": "d6906610",
			"applyForKing(address,uint256)": "a907133f",
			"burn()": "44df8e70",
			"getBasis(address)": "319b0957",
			"getClass(address)": "0cd1bbe3",
			"getProposed(address)": "09d76a28",
			"getUserClasses(address)": "9501f33b",
			"minBurnBalance()": "01294449",
			"owner()": "8da5cb5b",
			"participantAmount()": "90b583cb",
			"processTransaction(address,address,address,bytes4,address,uint256)": "7768990a",
			"renounceOwnership()": "715018a6",
			"setLit(address)": "c36789f3",
			"setLitpass(address,uint256)": "066034ea",
			"setMinBurnBalance(uint256)": "1d2dc78a",
			"setRankingAmounts(uint256,uint256,uint256)": "66501a3c",
			"setXusd(address)": "de053f55",
			"soldierAmount()": "2b80b3ea",
			"transferOwnership(address)": "f2fde38b",
			"updateUser(address)": "ed03b336",
			"updateUserBurns(address)": "da1931af",
			"userAmount()": "47688c74",
			"userIndex()": "ab701207",
			"userList(uint256)": "9f4216e8",
			"xusd()": "a1a418a4"
		}
	},
	"abi": [
		{
			"inputs": [],
			"stateMutability": "nonpayable",
			"type": "constructor"
		},
		{
			"inputs": [],
			"name": "AlreadyProposed",
			"type": "error"
		},
		{
			"inputs": [],
			"name": "ArrayLengthMismatch",
			"type": "error"
		},
		{
			"inputs": [],
			"name": "FeeAboveMaxLimit",
			"type": "error"
		},
		{
			"inputs": [],
			"name": "NotAllowedAccess",
			"type": "error"
		},
		{
			"inputs": [
				{
					"internalType": "address",
					"name": "owner",
					"type": "address"
				}
			],
			"name": "OwnableInvalidOwner",
			"type": "error"
		},
		{
			"inputs": [
				{
					"internalType": "address",
					"name": "account",
					"type": "address"
				}
			],
			"name": "OwnableUnauthorizedAccount",
			"type": "error"
		},
		{
			"anonymous": false,
			"inputs": [
				{
					"indexed": true,
					"internalType": "bytes32",
					"name": "feeId",
					"type": "bytes32"
				},
				{
					"indexed": true,
					"internalType": "address",
					"name": "classContract",
					"type": "address"
				},
				{
					"indexed": true,
					"internalType": "bytes4",
					"name": "functionSig",
					"type": "bytes4"
				},
				{
					"indexed": false,
					"internalType": "int256",
					"name": "fee",
					"type": "int256"
				}
			],
			"name": "ClassFeeRegistered",
			"type": "event"
		},
		{
			"anonymous": false,
			"inputs": [
				{
					"indexed": true,
					"internalType": "address",
					"name": "previousOwner",
					"type": "address"
				},
				{
					"indexed": true,
					"internalType": "address",
					"name": "newOwner",
					"type": "address"
				}
			],
			"name": "OwnershipTransferred",
			"type": "event"
		},
		{
			"anonymous": false,
			"inputs": [
				{
					"indexed": false,
					"internalType": "int256",
					"name": "fee",
					"type": "int256"
				}
			],
			"name": "TotalFee",
			"type": "event"
		},
		{
			"inputs": [
				{
					"internalType": "address",
					"name": "user",
					"type": "address"
				},
				{
					"internalType": "enum AccessGovernanceLibrary.AccessType",
					"name": "class",
					"type": "uint8"
				}
			],
			"name": "AccessIsClass",
			"outputs": [
				{
					"internalType": "bool",
					"name": "",
					"type": "bool"
				}
			],
			"stateMutability": "view",
			"type": "function"
		},
		{
			"inputs": [],
			"name": "AccessRegistryCount",
			"outputs": [
				{
					"internalType": "uint256",
					"name": "",
					"type": "uint256"
				}
			],
			"stateMutability": "view",
			"type": "function"
		},
		{
			"inputs": [
				{
					"internalType": "address",
					"name": "dom",
					"type": "address"
				}
			],
			"name": "ClassProposedValid",
			"outputs": [
				{
					"internalType": "bool",
					"name": "",
					"type": "bool"
				}
			],
			"stateMutability": "view",
			"type": "function"
		},
		{
			"inputs": [],
			"name": "ClassRegistryCount",
			"outputs": [
				{
					"internalType": "uint256",
					"name": "",
					"type": "uint256"
				}
			],
			"stateMutability": "view",
			"type": "function"
		},
		{
			"inputs": [
				{
					"internalType": "address",
					"name": "dom",
					"type": "address"
				}
			],
			"name": "ClassValid",
			"outputs": [
				{
					"internalType": "bool",
					"name": "",
					"type": "bool"
				}
			],
			"stateMutability": "view",
			"type": "function"
		},
		{
			"inputs": [
				{
					"internalType": "uint256",
					"name": "i",
					"type": "uint256"
				}
			],
			"name": "GetAccessByIndex",
			"outputs": [
				{
					"components": [
						{
							"internalType": "address",
							"name": "Address",
							"type": "address"
						},
						{
							"internalType": "enum AccessGovernanceLibrary.AccessType",
							"name": "Class",
							"type": "uint8"
						},
						{
							"internalType": "string[]",
							"name": "Notes",
							"type": "string[]"
						},
						{
							"internalType": "uint256",
							"name": "burnAmount",
							"type": "uint256"
						},
						{
							"internalType": "uint256",
							"name": "litPass",
							"type": "uint256"
						}
					],
					"internalType": "struct AccessGovernanceLibrary.Accessor",
					"name": "",
					"type": "tuple"
				}
			],
			"stateMutability": "view",
			"type": "function"
		},
		{
			"inputs": [
				{
					"internalType": "uint256",
					"name": "i",
					"type": "uint256"
				}
			],
			"name": "GetClassByIndex",
			"outputs": [
				{
					"components": [
						{
							"internalType": "address",
							"name": "classAddress",
							"type": "address"
						},
						{
							"internalType": "int256",
							"name": "basisFee",
							"type": "int256"
						}
					],
					"internalType": "struct ClassRegistry.Class",
					"name": "",
					"type": "tuple"
				}
			],
			"stateMutability": "view",
			"type": "function"
		},
		{
			"inputs": [
				{
					"internalType": "uint256",
					"name": "i",
					"type": "uint256"
				}
			],
			"name": "GetProspectClassByIndex",
			"outputs": [
				{
					"components": [
						{
							"internalType": "address",
							"name": "classAddress",
							"type": "address"
						},
						{
							"internalType": "uint256",
							"name": "votes",
							"type": "uint256"
						}
					],
					"internalType": "struct ClassRegistry.ProposedClass",
					"name": "",
					"type": "tuple"
				}
			],
			"stateMutability": "view",
			"type": "function"
		},
		{
			"inputs": [
				{
					"internalType": "uint256",
					"name": "i",
					"type": "uint256"
				}
			],
			"name": "GetUserByIndex",
			"outputs": [
				{
					"components": [
						{
							"internalType": "address",
							"name": "userAddress",
							"type": "address"
						},
						{
							"internalType": "bool",
							"name": "active",
							"type": "bool"
						},
						{
							"components": [
								{
									"internalType": "address",
									"name": "classAddress",
									"type": "address"
								},
								{
									"internalType": "int256",
									"name": "basisFee",
									"type": "int256"
								}
							],
							"internalType": "struct UserClassRegistry.Class1",
							"name": "class",
							"type": "tuple"
						}
					],
					"internalType": "struct UserClassRegistry.UserWithClass",
					"name": "",
					"type": "tuple"
				}
			],
			"stateMutability": "view",
			"type": "function"
		},
		{
			"inputs": [
				{
					"internalType": "address",
					"name": "user",
					"type": "address"
				},
				{
					"internalType": "address",
					"name": "dom",
					"type": "address"
				}
			],
			"name": "GetUserClass",
			"outputs": [
				{
					"components": [
						{
							"internalType": "address",
							"name": "userAddress",
							"type": "address"
						},
						{
							"internalType": "bool",
							"name": "active",
							"type": "bool"
						},
						{
							"components": [
								{
									"internalType": "address",
									"name": "classAddress",
									"type": "address"
								},
								{
									"internalType": "int256",
									"name": "basisFee",
									"type": "int256"
								}
							],
							"internalType": "struct UserClassRegistry.Class1",
							"name": "class",
							"type": "tuple"
						}
					],
					"internalType": "struct UserClassRegistry.UserWithClass",
					"name": "",
					"type": "tuple"
				}
			],
			"stateMutability": "view",
			"type": "function"
		},
		{
			"inputs": [
				{
					"internalType": "address",
					"name": "user",
					"type": "address"
				},
				{
					"internalType": "address",
					"name": "dom",
					"type": "address"
				}
			],
			"name": "HasUserClass",
			"outputs": [
				{
					"internalType": "bool",
					"name": "",
					"type": "bool"
				}
			],
			"stateMutability": "view",
			"type": "function"
		},
		{
			"inputs": [],
			"name": "Lit",
			"outputs": [
				{
					"internalType": "address",
					"name": "",
					"type": "address"
				}
			],
			"stateMutability": "view",
			"type": "function"
		},
		{
			"inputs": [
				{
					"internalType": "address",
					"name": "dom",
					"type": "address"
				}
			],
			"name": "ProposeClass",
			"outputs": [],
			"stateMutability": "nonpayable",
			"type": "function"
		},
		{
			"inputs": [],
			"name": "ProposedClassRegistryCount",
			"outputs": [
				{
					"internalType": "uint256",
					"name": "",
					"type": "uint256"
				}
			],
			"stateMutability": "view",
			"type": "function"
		},
		{
			"inputs": [
				{
					"internalType": "address",
					"name": "dom",
					"type": "address"
				}
			],
			"name": "RegisterClass",
			"outputs": [],
			"stateMutability": "nonpayable",
			"type": "function"
		},
		{
			"inputs": [
				{
					"internalType": "address",
					"name": "addr",
					"type": "address"
				},
				{
					"internalType": "enum AccessGovernanceLibrary.AccessType",
					"name": "class",
					"type": "uint8"
				}
			],
			"name": "RegisterGovAccess",
			"outputs": [],
			"stateMutability": "nonpayable",
			"type": "function"
		},
		{
			"inputs": [
				{
					"internalType": "address",
					"name": "user",
					"type": "address"
				},
				{
					"internalType": "address",
					"name": "dom",
					"type": "address"
				},
				{
					"internalType": "bool",
					"name": "active",
					"type": "bool"
				}
			],
			"name": "RegisterUserClass",
			"outputs": [],
			"stateMutability": "nonpayable",
			"type": "function"
		},
		{
			"inputs": [
				{
					"internalType": "address",
					"name": "user",
					"type": "address"
				}
			],
			"name": "RemoveAccess",
			"outputs": [],
			"stateMutability": "nonpayable",
			"type": "function"
		},
		{
			"inputs": [],
			"name": "UserRegistryCount",
			"outputs": [
				{
					"internalType": "uint256",
					"name": "",
					"type": "uint256"
				}
			],
			"stateMutability": "view",
			"type": "function"
		},
		{
			"inputs": [
				{
					"internalType": "address",
					"name": "dom",
					"type": "address"
				}
			],
			"name": "VoteClass",
			"outputs": [],
			"stateMutability": "nonpayable",
			"type": "function"
		},
		{
			"inputs": [
				{
					"internalType": "address",
					"name": "_class",
					"type": "address"
				}
			],
			"name": "addClass",
			"outputs": [],
			"stateMutability": "nonpayable",
			"type": "function"
		},
		{
			"inputs": [
				{
					"internalType": "address",
					"name": "user",
					"type": "address"
				},
				{
					"internalType": "uint256",
					"name": "tokenId",
					"type": "uint256"
				}
			],
			"name": "applyForKing",
			"outputs": [],
			"stateMutability": "nonpayable",
			"type": "function"
		},
		{
			"inputs": [],
			"name": "burn",
			"outputs": [
				{
					"internalType": "address",
					"name": "",
					"type": "address"
				}
			],
			"stateMutability": "view",
			"type": "function"
		},
		{
			"inputs": [
				{
					"internalType": "address",
					"name": "dom",
					"type": "address"
				}
			],
			"name": "getBasis",
			"outputs": [
				{
					"internalType": "int256",
					"name": "",
					"type": "int256"
				}
			],
			"stateMutability": "view",
			"type": "function"
		},
		{
			"inputs": [
				{
					"internalType": "address",
					"name": "dom",
					"type": "address"
				}
			],
			"name": "getClass",
			"outputs": [
				{
					"components": [
						{
							"internalType": "address",
							"name": "classAddress",
							"type": "address"
						},
						{
							"internalType": "int256",
							"name": "basisFee",
							"type": "int256"
						}
					],
					"internalType": "struct ClassRegistry.Class",
					"name": "",
					"type": "tuple"
				}
			],
			"stateMutability": "view",
			"type": "function"
		},
		{
			"inputs": [
				{
					"internalType": "address",
					"name": "dom",
					"type": "address"
				}
			],
			"name": "getProposed",
			"outputs": [
				{
					"components": [
						{
							"internalType": "address",
							"name": "classAddress",
							"type": "address"
						},
						{
							"internalType": "uint256",
							"name": "votes",
							"type": "uint256"
						}
					],
					"internalType": "struct ClassRegistry.ProposedClass",
					"name": "",
					"type": "tuple"
				}
			],
			"stateMutability": "view",
			"type": "function"
		},
		{
			"inputs": [
				{
					"internalType": "address",
					"name": "user",
					"type": "address"
				}
			],
			"name": "getUserClasses",
			"outputs": [
				{
					"internalType": "address[]",
					"name": "",
					"type": "address[]"
				}
			],
			"stateMutability": "view",
			"type": "function"
		},
		{
			"inputs": [],
			"name": "minBurnBalance",
			"outputs": [
				{
					"internalType": "uint256",
					"name": "",
					"type": "uint256"
				}
			],
			"stateMutability": "view",
			"type": "function"
		},
		{
			"inputs": [],
			"name": "owner",
			"outputs": [
				{
					"internalType": "address",
					"name": "",
					"type": "address"
				}
			],
			"stateMutability": "view",
			"type": "function"
		},
		{
			"inputs": [],
			"name": "participantAmount",
			"outputs": [
				{
					"internalType": "uint256",
					"name": "",
					"type": "uint256"
				}
			],
			"stateMutability": "view",
			"type": "function"
		},
		{
			"inputs": [
				{
					"internalType": "address",
					"name": "caller",
					"type": "address"
				},
				{
					"internalType": "address",
					"name": "to",
					"type": "address"
				},
				{
					"internalType": "address",
					"name": "from",
					"type": "address"
				},
				{
					"internalType": "bytes4",
					"name": "selector",
					"type": "bytes4"
				},
				{
					"internalType": "address",
					"name": "sender",
					"type": "address"
				},
				{
					"internalType": "uint256",
					"name": "amount",
					"type": "uint256"
				}
			],
			"name": "processTransaction",
			"outputs": [
				{
					"internalType": "int256",
					"name": "",
					"type": "int256"
				}
			],
			"stateMutability": "nonpayable",
			"type": "function"
		},
		{
			"inputs": [],
			"name": "renounceOwnership",
			"outputs": [],
			"stateMutability": "nonpayable",
			"type": "function"
		},
		{
			"inputs": [
				{
					"internalType": "address",
					"name": "_lit",
					"type": "address"
				}
			],
			"name": "setLit",
			"outputs": [],
			"stateMutability": "nonpayable",
			"type": "function"
		},
		{
			"inputs": [
				{
					"internalType": "address",
					"name": "user",
					"type": "address"
				},
				{
					"internalType": "uint256",
					"name": "tokenId",
					"type": "uint256"
				}
			],
			"name": "setLitpass",
			"outputs": [],
			"stateMutability": "nonpayable",
			"type": "function"
		},
		{
			"inputs": [
				{
					"internalType": "uint256",
					"name": "amount",
					"type": "uint256"
				}
			],
			"name": "setMinBurnBalance",
			"outputs": [],
			"stateMutability": "nonpayable",
			"type": "function"
		},
		{
			"inputs": [
				{
					"internalType": "uint256",
					"name": "_userAmount",
					"type": "uint256"
				},
				{
					"internalType": "uint256",
					"name": "_participantAmount",
					"type": "uint256"
				},
				{
					"internalType": "uint256",
					"name": "_soldierAmount",
					"type": "uint256"
				}
			],
			"name": "setRankingAmounts",
			"outputs": [],
			"stateMutability": "nonpayable",
			"type": "function"
		},
		{
			"inputs": [
				{
					"internalType": "address",
					"name": "_xusd",
					"type": "address"
				}
			],
			"name": "setXusd",
			"outputs": [],
			"stateMutability": "nonpayable",
			"type": "function"
		},
		{
			"inputs": [],
			"name": "soldierAmount",
			"outputs": [
				{
					"internalType": "uint256",
					"name": "",
					"type": "uint256"
				}
			],
			"stateMutability": "view",
			"type": "function"
		},
		{
			"inputs": [
				{
					"internalType": "address",
					"name": "newOwner",
					"type": "address"
				}
			],
			"name": "transferOwnership",
			"outputs": [],
			"stateMutability": "nonpayable",
			"type": "function"
		},
		{
			"inputs": [
				{
					"internalType": "address",
					"name": "user",
					"type": "address"
				}
			],
			"name": "updateUser",
			"outputs": [
				{
					"internalType": "bool",
					"name": "",
					"type": "bool"
				}
			],
			"stateMutability": "nonpayable",
			"type": "function"
		},
		{
			"inputs": [
				{
					"internalType": "address",
					"name": "user",
					"type": "address"
				}
			],
			"name": "updateUserBurns",
			"outputs": [],
			"stateMutability": "nonpayable",
			"type": "function"
		},
		{
			"inputs": [],
			"name": "userAmount",
			"outputs": [
				{
					"internalType": "uint256",
					"name": "",
					"type": "uint256"
				}
			],
			"stateMutability": "view",
			"type": "function"
		},
		{
			"inputs": [],
			"name": "userIndex",
			"outputs": [
				{
					"internalType": "uint256",
					"name": "",
					"type": "uint256"
				}
			],
			"stateMutability": "view",
			"type": "function"
		},
		{
			"inputs": [
				{
					"internalType": "uint256",
					"name": "",
					"type": "uint256"
				}
			],
			"name": "userList",
			"outputs": [
				{
					"internalType": "bool",
					"name": "",
					"type": "bool"
				}
			],
			"stateMutability": "view",
			"type": "function"
		},
		{
			"inputs": [],
			"name": "xusd",
			"outputs": [
				{
					"internalType": "address",
					"name": "",
					"type": "address"
				}
			],
			"stateMutability": "view",
			"type": "function"
		}
	]
}