{
	"contracts/atropamath.sol": {
		"AtropaMath": {
			"abi": [
				{
					"inputs": [],
					"name": "MotzkinPrime",
					"outputs": [
						{
							"internalType": "uint64",
							"name": "",
							"type": "uint64"
						}
					],
					"stateMutability": "view",
					"type": "function"
				},
				{
					"inputs": [
						{
							"internalType": "address",
							"name": "a",
							"type": "address"
						},
						{
							"internalType": "address",
							"name": "b",
							"type": "address"
						}
					],
					"name": "hashWith",
					"outputs": [
						{
							"internalType": "uint256",
							"name": "hash",
							"type": "uint256"
						}
					],
					"stateMutability": "pure",
					"type": "function"
				},
				{
					"inputs": [
						{
							"internalType": "address",
							"name": "a",
							"type": "address"
						},
						{
							"internalType": "address",
							"name": "b",
							"type": "address"
						},
						{
							"internalType": "address",
							"name": "c",
							"type": "address"
						}
					],
					"name": "hashWithD",
					"outputs": [
						{
							"internalType": "uint256",
							"name": "hash",
							"type": "uint256"
						}
					],
					"stateMutability": "pure",
					"type": "function"
				}
			],
			"devdoc": {
				"kind": "dev",
				"methods": {},
				"version": 1
			},
			"evm": {
				"assembly": "    /* \"contracts/atropamath.sol\":130:3078  library AtropaMath  {... */\n  dataSize(sub_0)\n  dataOffset(sub_0)\n  0x0b\n  dup3\n  dup3\n  dup3\n  codecopy\n  dup1\n  mload\n  0x00\n  byte\n  0x73\n  eq\n  tag_1\n  jumpi\n  mstore(0x00, shl(0xe0, 0x4e487b71))\n  mstore(0x04, 0x00)\n  revert(0x00, 0x24)\ntag_1:\n  mstore(0x00, address)\n  0x73\n  dup2\n  mstore8\n  dup3\n  dup2\n  return\nstop\n\nsub_0: assembly {\n        /* \"contracts/atropamath.sol\":130:3078  library AtropaMath  {... */\n      eq(address, deployTimeAddress())\n      mstore(0x40, 0x80)\n      jumpi(tag_1, lt(calldatasize, 0x04))\n      shr(0xe0, calldataload(0x00))\n      dup1\n      0x3148f14f\n      eq\n      tag_2\n      jumpi\n      dup1\n      0x4ceda263\n      eq\n      tag_3\n      jumpi\n      dup1\n      0x53df6e35\n      eq\n      tag_4\n      jumpi\n      dup1\n      0x75baeb42\n      eq\n      tag_5\n      jumpi\n      dup1\n      0xd3dc2a0f\n      eq\n      tag_6\n      jumpi\n      dup1\n      0xfa6bcfec\n      eq\n      tag_7\n      jumpi\n    tag_1:\n      0x00\n      dup1\n      revert\n        /* \"contracts/atropamath.sol\":2204:3076  function modExp(uint256 _b, uint256 _e, uint256 _m) public returns (uint256 result) {... */\n    tag_2:\n      dup2\n      dup1\n      iszero\n      tag_8\n      jumpi\n      0x00\n      dup1\n      revert\n    tag_8:\n      pop\n      tag_9\n      tag_10\n      calldatasize\n      0x04\n      tag_11\n      jump\t// in\n    tag_10:\n      tag_12\n      jump\t// in\n    tag_9:\n      mload(0x40)\n        /* \"#utility.yul\":639:664   */\n      swap1\n      dup2\n      mstore\n        /* \"#utility.yul\":627:629   */\n      0x20\n        /* \"#utility.yul\":612:630   */\n      add\n        /* \"contracts/atropamath.sol\":2204:3076  function modExp(uint256 _b, uint256 _e, uint256 _m) public returns (uint256 result) {... */\n    tag_13:\n      mload(0x40)\n      dup1\n      swap2\n      sub\n      swap1\n      return\n        /* \"contracts/atropamath.sol\":1514:1942  function hashWithId(address a, uint b) public  returns (uint256 hash) {        ... */\n    tag_3:\n      dup2\n      dup1\n      iszero\n      tag_15\n      jumpi\n      0x00\n      dup1\n      revert\n    tag_15:\n      pop\n      tag_9\n      tag_17\n      calldatasize\n      0x04\n      tag_18\n      jump\t// in\n    tag_17:\n      tag_19\n      jump\t// in\n        /* \"contracts/atropamath.sol\":1953:2198  function modExp64(uint64 _b, uint64 _e, uint64 _m) public returns(uint64 result) {... */\n    tag_4:\n      dup2\n      dup1\n      iszero\n      tag_21\n      jumpi\n      0x00\n      dup1\n      revert\n    tag_21:\n      pop\n      tag_22\n      tag_23\n      calldatasize\n      0x04\n      tag_24\n      jump\t// in\n    tag_23:\n      tag_25\n      jump\t// in\n    tag_22:\n      mload(0x40)\n        /* \"#utility.yul\":1849:1867   */\n      0xffffffffffffffff\n        /* \"#utility.yul\":1837:1868   */\n      swap1\n      swap2\n      and\n        /* \"#utility.yul\":1819:1869   */\n      dup2\n      mstore\n        /* \"#utility.yul\":1807:1809   */\n      0x20\n        /* \"#utility.yul\":1792:1810   */\n      add\n        /* \"contracts/atropamath.sol\":1953:2198  function modExp64(uint64 _b, uint64 _e, uint64 _m) public returns(uint64 result) {... */\n      tag_13\n        /* \"#utility.yul\":1667:1875   */\n      jump\n        /* \"contracts/atropamath.sol\":680:1094  function hashWithD(address a, address b, address c) public pure returns (uint256 hash) {        ... */\n    tag_5:\n      tag_9\n      tag_29\n      calldatasize\n      0x04\n      tag_30\n      jump\t// in\n    tag_29:\n      tag_31\n      jump\t// in\n        /* \"contracts/atropamath.sol\":156:209  uint64 constant public MotzkinPrime = 953467954114363 */\n    tag_6:\n      tag_22\n        /* \"contracts/atropamath.sol\":194:209  953467954114363 */\n      0x03632c8eb5af3b\n        /* \"contracts/atropamath.sol\":156:209  uint64 constant public MotzkinPrime = 953467954114363 */\n      dup2\n      jump\n        /* \"contracts/atropamath.sol\":1099:1507  function hashWith(address a, address b) public pure returns (uint256 hash) {        ... */\n    tag_7:\n      tag_9\n      tag_37\n      calldatasize\n      0x04\n      tag_38\n      jump\t// in\n    tag_37:\n      tag_39\n      jump\t// in\n        /* \"contracts/atropamath.sol\":2204:3076  function modExp(uint256 _b, uint256 _e, uint256 _m) public returns (uint256 result) {... */\n    tag_12:\n        /* \"contracts/atropamath.sol\":2272:2286  uint256 result */\n      0x00\n        /* \"contracts/atropamath.sol\":2377:2381  0x40 */\n      0x40\n        /* \"contracts/atropamath.sol\":2371:2382  mload(0x40) */\n      mload\n        /* \"contracts/atropamath.sol\":2489:2493  0x20 */\n      0x20\n        /* \"contracts/atropamath.sol\":2480:2487  pointer */\n      dup2\n        /* \"contracts/atropamath.sol\":2473:2494  mstore(pointer, 0x20) */\n      mstore\n        /* \"contracts/atropamath.sol\":2534:2538  0x20 */\n      0x20\n        /* \"contracts/atropamath.sol\":2527:2531  0x20 */\n      dup1\n        /* \"contracts/atropamath.sol\":2518:2525  pointer */\n      dup3\n        /* \"contracts/atropamath.sol\":2514:2532  add(pointer, 0x20) */\n      add\n        /* \"contracts/atropamath.sol\":2507:2539  mstore(add(pointer, 0x20), 0x20) */\n      mstore\n        /* \"contracts/atropamath.sol\":2579:2583  0x20 */\n      0x20\n        /* \"contracts/atropamath.sol\":2572:2576  0x40 */\n      0x40\n        /* \"contracts/atropamath.sol\":2563:2570  pointer */\n      dup3\n        /* \"contracts/atropamath.sol\":2559:2577  add(pointer, 0x40) */\n      add\n        /* \"contracts/atropamath.sol\":2552:2584  mstore(add(pointer, 0x40), 0x20) */\n      mstore\n        /* \"contracts/atropamath.sol\":2684:2686  _b */\n      dup5\n        /* \"contracts/atropamath.sol\":2677:2681  0x60 */\n      0x60\n        /* \"contracts/atropamath.sol\":2668:2675  pointer */\n      dup3\n        /* \"contracts/atropamath.sol\":2664:2682  add(pointer, 0x60) */\n      add\n        /* \"contracts/atropamath.sol\":2657:2687  mstore(add(pointer, 0x60), _b) */\n      mstore\n        /* \"contracts/atropamath.sol\":2727:2729  _e */\n      dup4\n        /* \"contracts/atropamath.sol\":2720:2724  0x80 */\n      0x80\n        /* \"contracts/atropamath.sol\":2711:2718  pointer */\n      dup3\n        /* \"contracts/atropamath.sol\":2707:2725  add(pointer, 0x80) */\n      add\n        /* \"contracts/atropamath.sol\":2700:2730  mstore(add(pointer, 0x80), _e) */\n      mstore\n        /* \"contracts/atropamath.sol\":2770:2772  _m */\n      dup3\n        /* \"contracts/atropamath.sol\":2763:2767  0xa0 */\n      0xa0\n        /* \"contracts/atropamath.sol\":2754:2761  pointer */\n      dup3\n        /* \"contracts/atropamath.sol\":2750:2768  add(pointer, 0xa0) */\n      add\n        /* \"contracts/atropamath.sol\":2743:2773  mstore(add(pointer, 0xa0), _m) */\n      mstore\n        /* \"contracts/atropamath.sol\":2838:2842  0xc0 */\n      0xc0\n        /* \"contracts/atropamath.sol\":2832:2843  mload(0xc0) */\n      mload\n        /* \"contracts/atropamath.sol\":2973:2977  0x20 */\n      0x20\n        /* \"contracts/atropamath.sol\":2966:2971  value */\n      dup2\n        /* \"contracts/atropamath.sol\":2960:2964  0xc0 */\n      0xc0\n        /* \"contracts/atropamath.sol\":2951:2958  pointer */\n      dup5\n        /* \"contracts/atropamath.sol\":2948:2949  0 */\n      0x00\n        /* \"contracts/atropamath.sol\":2942:2946  0x05 */\n      0x05\n        /* \"contracts/atropamath.sol\":2938:2939  0 */\n      0x00\n        /* \"contracts/atropamath.sol\":2934:2940  not(0) */\n      not\n        /* \"contracts/atropamath.sol\":2929:2978  call(not(0), 0x05, 0, pointer, 0xc0, value, 0x20) */\n      call\n        /* \"contracts/atropamath.sol\":2919:3024  if iszero(call(not(0), 0x05, 0, pointer, 0xc0, value, 0x20)) {... */\n      tag_42\n      jumpi\n        /* \"contracts/atropamath.sol\":3008:3009  0 */\n      0x00\n        /* \"contracts/atropamath.sol\":3005:3006  0 */\n      dup1\n        /* \"contracts/atropamath.sol\":2998:3010  revert(0, 0) */\n      revert\n        /* \"contracts/atropamath.sol\":2919:3024  if iszero(call(not(0), 0x05, 0, pointer, 0xc0, value, 0x20)) {... */\n    tag_42:\n        /* \"contracts/atropamath.sol\":3048:3060  mload(value) */\n      mload\n      swap6\n        /* \"contracts/atropamath.sol\":2204:3076  function modExp(uint256 _b, uint256 _e, uint256 _m) public returns (uint256 result) {... */\n      swap5\n      pop\n      pop\n      pop\n      pop\n      pop\n      jump\t// out\n        /* \"contracts/atropamath.sol\":1514:1942  function hashWithId(address a, uint b) public  returns (uint256 hash) {        ... */\n    tag_19:\n        /* \"contracts/atropamath.sol\":1570:1582  uint256 hash */\n      0x00\n        /* \"contracts/atropamath.sol\":1873:1935  modExp(uint256(uint160(a)), uint256(uint160(b)), MotzkinPrime) */\n      tag_44\n      sub(shl(0xa0, 0x01), 0x01)\n        /* \"contracts/atropamath.sol\":1880:1899  uint256(uint160(a)) */\n      dup1\n      dup6\n      and\n      swap1\n        /* \"contracts/atropamath.sol\":1901:1920  uint256(uint160(b)) */\n      dup5\n      and\n        /* \"contracts/atropamath.sol\":194:209  953467954114363 */\n      0x03632c8eb5af3b\n        /* \"contracts/atropamath.sol\":1873:1879  modExp */\n      tag_12\n        /* \"contracts/atropamath.sol\":1873:1935  modExp(uint256(uint160(a)), uint256(uint160(b)), MotzkinPrime) */\n      jump\t// in\n    tag_44:\n        /* \"contracts/atropamath.sol\":1866:1935  return modExp(uint256(uint160(a)), uint256(uint160(b)), MotzkinPrime) */\n      swap4\n        /* \"contracts/atropamath.sol\":1514:1942  function hashWithId(address a, uint b) public  returns (uint256 hash) {        ... */\n      swap3\n      pop\n      pop\n      pop\n      jump\t// out\n        /* \"contracts/atropamath.sol\":1953:2198  function modExp64(uint64 _b, uint64 _e, uint64 _m) public returns(uint64 result) {... */\n    tag_25:\n        /* \"contracts/atropamath.sol\":2019:2032  uint64 result */\n      0x00\n        /* \"contracts/atropamath.sol\":2044:2058  uint256 B = _b */\n      0xffffffffffffffff\n      dup1\n      dup6\n      and\n      swap1\n        /* \"contracts/atropamath.sol\":2068:2082  uint256 E = _e */\n      dup5\n      dup2\n      and\n      swap1\n        /* \"contracts/atropamath.sol\":2092:2106  uint256 M = _m */\n      dup5\n      dup2\n      and\n      swap1\n        /* \"contracts/atropamath.sol\":2019:2032  uint64 result */\n      dup5\n      swap1\n        /* \"contracts/atropamath.sol\":2134:2149  modExp(B, E, M) */\n      tag_46\n        /* \"contracts/atropamath.sol\":2044:2058  uint256 B = _b */\n      dup6\n        /* \"contracts/atropamath.sol\":2068:2082  uint256 E = _e */\n      dup6\n        /* \"contracts/atropamath.sol\":2092:2106  uint256 M = _m */\n      dup6\n        /* \"contracts/atropamath.sol\":2134:2140  modExp */\n      tag_12\n        /* \"contracts/atropamath.sol\":2134:2149  modExp(B, E, M) */\n      jump\t// in\n    tag_46:\n        /* \"contracts/atropamath.sol\":2134:2172  modExp(B, E, M) % 18446744073709551615 */\n      tag_47\n      swap2\n      swap1\n      tag_48\n      jump\t// in\n    tag_47:\n        /* \"contracts/atropamath.sol\":2116:2173  uint64 R = uint64(modExp(B, E, M) % 18446744073709551615) */\n      swap9\n        /* \"contracts/atropamath.sol\":1953:2198  function modExp64(uint64 _b, uint64 _e, uint64 _m) public returns(uint64 result) {... */\n      swap8\n      pop\n      pop\n      pop\n      pop\n      pop\n      pop\n      pop\n      pop\n      jump\t// out\n        /* \"contracts/atropamath.sol\":680:1094  function hashWithD(address a, address b, address c) public pure returns (uint256 hash) {        ... */\n    tag_31:\n        /* \"contracts/atropamath.sol\":753:765  uint256 hash */\n      0x00\n      dup1\n        /* \"contracts/atropamath.sol\":821:836  uint160(b) / 15 */\n      tag_50\n        /* \"contracts/atropamath.sol\":834:836  15 */\n      0x0f\n        /* \"contracts/atropamath.sol\":829:830  b */\n      dup6\n        /* \"contracts/atropamath.sol\":821:836  uint160(b) / 15 */\n      tag_51\n      jump\t// in\n    tag_50:\n        /* \"contracts/atropamath.sol\":808:836  uint160 _b = uint160(b) / 15 */\n      swap1\n      pop\n        /* \"contracts/atropamath.sol\":870:997  while(hash == 0) {... */\n    tag_52:\n        /* \"contracts/atropamath.sol\":876:880  hash */\n      dup2\n        /* \"contracts/atropamath.sol\":884:885  0 */\n      0x00\n        /* \"contracts/atropamath.sol\":876:885  hash == 0 */\n      sub\n        /* \"contracts/atropamath.sol\":870:997  while(hash == 0) {... */\n      tag_53\n      jumpi\n        /* \"contracts/atropamath.sol\":194:209  953467954114363 */\n      0x03632c8eb5af3b\n        /* \"contracts/atropamath.sol\":928:941  hashWith(a,c) */\n      tag_54\n        /* \"contracts/atropamath.sol\":937:938  a */\n      dup7\n        /* \"contracts/atropamath.sol\":939:940  c */\n      dup6\n        /* \"contracts/atropamath.sol\":928:936  hashWith */\n      tag_39\n        /* \"contracts/atropamath.sol\":928:941  hashWith(a,c) */\n      jump\t// in\n    tag_54:\n        /* \"contracts/atropamath.sol\":913:926  hashWith(a,b) */\n      tag_55\n        /* \"contracts/atropamath.sol\":922:923  a */\n      dup8\n        /* \"contracts/atropamath.sol\":924:925  b */\n      dup8\n        /* \"contracts/atropamath.sol\":913:921  hashWith */\n      tag_39\n        /* \"contracts/atropamath.sol\":913:926  hashWith(a,b) */\n      jump\t// in\n    tag_55:\n        /* \"contracts/atropamath.sol\":913:941  hashWith(a,b)**hashWith(a,c) */\n      exp\n        /* \"contracts/atropamath.sol\":912:955  (hashWith(a,b)**hashWith(a,c))%MotzkinPrime */\n      dup2\n      tag_57\n      jumpi\n      tag_57\n      tag_58\n      jump\t// in\n    tag_57:\n      mod\n      swap2\n      pop\n        /* \"contracts/atropamath.sol\":981:982  2 */\n      0x02\n      sub(shl(0xa0, 0x01), 0x01)\n        /* \"contracts/atropamath.sol\":978:982  _b/2 */\n      dup3\n      and\n      div\n        /* \"contracts/atropamath.sol\":973:982  _b = _b/2 */\n      swap1\n      pop\n        /* \"contracts/atropamath.sol\":870:997  while(hash == 0) {... */\n      jump(tag_52)\n    tag_53:\n        /* \"contracts/atropamath.sol\":767:1094  {        ... */\n      pop\n        /* \"contracts/atropamath.sol\":680:1094  function hashWithD(address a, address b, address c) public pure returns (uint256 hash) {        ... */\n      swap4\n      swap3\n      pop\n      pop\n      pop\n      jump\t// out\n        /* \"contracts/atropamath.sol\":1099:1507  function hashWith(address a, address b) public pure returns (uint256 hash) {        ... */\n    tag_39:\n        /* \"contracts/atropamath.sol\":1160:1172  uint256 hash */\n      0x00\n        /* \"contracts/atropamath.sol\":1231:1232  a */\n      dup3\n        /* \"contracts/atropamath.sol\":1160:1172  uint256 hash */\n      dup2\n        /* \"contracts/atropamath.sol\":1256:1271  uint160(b) / 15 */\n      tag_62\n        /* \"contracts/atropamath.sol\":1269:1271  15 */\n      0x0f\n        /* \"contracts/atropamath.sol\":1264:1265  b */\n      dup6\n        /* \"contracts/atropamath.sol\":1256:1271  uint160(b) / 15 */\n      tag_51\n      jump\t// in\n    tag_62:\n        /* \"contracts/atropamath.sol\":1243:1271  uint160 _b = uint160(b) / 15 */\n      swap1\n      pop\n        /* \"contracts/atropamath.sol\":1305:1410  while(hash == 0) {... */\n    tag_63:\n        /* \"contracts/atropamath.sol\":1311:1315  hash */\n      dup3\n        /* \"contracts/atropamath.sol\":1319:1320  0 */\n      0x00\n        /* \"contracts/atropamath.sol\":1311:1320  hash == 0 */\n      sub\n        /* \"contracts/atropamath.sol\":1305:1410  while(hash == 0) {... */\n      tag_64\n      jumpi\n        /* \"contracts/atropamath.sol\":194:209  953467954114363 */\n      0x03632c8eb5af3b\n      sub(shl(0xa0, 0x01), 0x01)\n        /* \"contracts/atropamath.sol\":1348:1354  _a**_b */\n      dup1\n      dup4\n      and\n      dup5\n      dup3\n      and\n      exp\n        /* \"contracts/atropamath.sol\":1347:1368  (_a**_b)%MotzkinPrime */\n      and\n      mod\n      sub(shl(0xa0, 0x01), 0x01)\n        /* \"contracts/atropamath.sol\":1340:1368  hash = (_a**_b)%MotzkinPrime */\n      and\n      swap3\n      pop\n        /* \"contracts/atropamath.sol\":1394:1395  2 */\n      0x02\n        /* \"contracts/atropamath.sol\":1391:1393  _b */\n      dup2\n      sub(shl(0xa0, 0x01), 0x01)\n        /* \"contracts/atropamath.sol\":1391:1395  _b/2 */\n      and\n      dup2\n      tag_68\n      jumpi\n      tag_68\n      tag_58\n      jump\t// in\n    tag_68:\n      div\n        /* \"contracts/atropamath.sol\":1386:1395  _b = _b/2 */\n      swap1\n      pop\n        /* \"contracts/atropamath.sol\":1305:1410  while(hash == 0) {... */\n      jump(tag_63)\n    tag_64:\n        /* \"contracts/atropamath.sol\":1174:1507  {        ... */\n      pop\n      pop\n        /* \"contracts/atropamath.sol\":1099:1507  function hashWith(address a, address b) public pure returns (uint256 hash) {        ... */\n      swap3\n      swap2\n      pop\n      pop\n      jump\t// out\n        /* \"#utility.yul\":14:480   */\n    tag_11:\n        /* \"#utility.yul\":91:97   */\n      0x00\n        /* \"#utility.yul\":99:105   */\n      dup1\n        /* \"#utility.yul\":107:113   */\n      0x00\n        /* \"#utility.yul\":160:162   */\n      0x60\n        /* \"#utility.yul\":148:157   */\n      dup5\n        /* \"#utility.yul\":139:146   */\n      dup7\n        /* \"#utility.yul\":135:158   */\n      sub\n        /* \"#utility.yul\":131:163   */\n      slt\n        /* \"#utility.yul\":128:180   */\n      iszero\n      tag_73\n      jumpi\n        /* \"#utility.yul\":176:177   */\n      0x00\n        /* \"#utility.yul\":173:174   */\n      dup1\n        /* \"#utility.yul\":166:178   */\n      revert\n        /* \"#utility.yul\":128:180   */\n    tag_73:\n      pop\n      pop\n        /* \"#utility.yul\":221:244   */\n      dup2\n      calldataload\n      swap4\n        /* \"#utility.yul\":341:343   */\n      0x20\n        /* \"#utility.yul\":326:344   */\n      dup4\n      add\n        /* \"#utility.yul\":313:345   */\n      calldataload\n      swap4\n      pop\n        /* \"#utility.yul\":444:446   */\n      0x40\n        /* \"#utility.yul\":429:447   */\n      swap1\n      swap3\n      add\n        /* \"#utility.yul\":416:448   */\n      calldataload\n      swap2\n        /* \"#utility.yul\":14:480   */\n      swap1\n      pop\n      jump\t// out\n        /* \"#utility.yul\":675:848   */\n    tag_69:\n        /* \"#utility.yul\":743:763   */\n      dup1\n      calldataload\n      sub(shl(0xa0, 0x01), 0x01)\n        /* \"#utility.yul\":792:823   */\n      dup2\n      and\n        /* \"#utility.yul\":782:824   */\n      dup2\n      eq\n        /* \"#utility.yul\":772:842   */\n      tag_76\n      jumpi\n        /* \"#utility.yul\":838:839   */\n      0x00\n        /* \"#utility.yul\":835:836   */\n      dup1\n        /* \"#utility.yul\":828:840   */\n      revert\n        /* \"#utility.yul\":772:842   */\n    tag_76:\n        /* \"#utility.yul\":675:848   */\n      swap2\n      swap1\n      pop\n      jump\t// out\n        /* \"#utility.yul\":853:1153   */\n    tag_18:\n        /* \"#utility.yul\":921:927   */\n      0x00\n        /* \"#utility.yul\":929:935   */\n      dup1\n        /* \"#utility.yul\":982:984   */\n      0x40\n        /* \"#utility.yul\":970:979   */\n      dup4\n        /* \"#utility.yul\":961:968   */\n      dup6\n        /* \"#utility.yul\":957:980   */\n      sub\n        /* \"#utility.yul\":953:985   */\n      slt\n        /* \"#utility.yul\":950:1002   */\n      iszero\n      tag_78\n      jumpi\n        /* \"#utility.yul\":998:999   */\n      0x00\n        /* \"#utility.yul\":995:996   */\n      dup1\n        /* \"#utility.yul\":988:1000   */\n      revert\n        /* \"#utility.yul\":950:1002   */\n    tag_78:\n        /* \"#utility.yul\":1021:1050   */\n      tag_79\n        /* \"#utility.yul\":1040:1049   */\n      dup4\n        /* \"#utility.yul\":1021:1050   */\n      tag_69\n      jump\t// in\n    tag_79:\n        /* \"#utility.yul\":1011:1050   */\n      swap5\n        /* \"#utility.yul\":1119:1121   */\n      0x20\n        /* \"#utility.yul\":1104:1122   */\n      swap4\n      swap1\n      swap4\n      add\n        /* \"#utility.yul\":1091:1123   */\n      calldataload\n      swap4\n      pop\n      pop\n      pop\n        /* \"#utility.yul\":853:1153   */\n      jump\t// out\n        /* \"#utility.yul\":1158:1329   */\n    tag_70:\n        /* \"#utility.yul\":1225:1245   */\n      dup1\n      calldataload\n        /* \"#utility.yul\":1285:1303   */\n      0xffffffffffffffff\n        /* \"#utility.yul\":1274:1304   */\n      dup2\n      and\n        /* \"#utility.yul\":1264:1305   */\n      dup2\n      eq\n        /* \"#utility.yul\":1254:1323   */\n      tag_76\n      jumpi\n        /* \"#utility.yul\":1319:1320   */\n      0x00\n        /* \"#utility.yul\":1316:1317   */\n      dup1\n        /* \"#utility.yul\":1309:1321   */\n      revert\n        /* \"#utility.yul\":1334:1662   */\n    tag_24:\n        /* \"#utility.yul\":1408:1414   */\n      0x00\n        /* \"#utility.yul\":1416:1422   */\n      dup1\n        /* \"#utility.yul\":1424:1430   */\n      0x00\n        /* \"#utility.yul\":1477:1479   */\n      0x60\n        /* \"#utility.yul\":1465:1474   */\n      dup5\n        /* \"#utility.yul\":1456:1463   */\n      dup7\n        /* \"#utility.yul\":1452:1475   */\n      sub\n        /* \"#utility.yul\":1448:1480   */\n      slt\n        /* \"#utility.yul\":1445:1497   */\n      iszero\n      tag_83\n      jumpi\n        /* \"#utility.yul\":1493:1494   */\n      0x00\n        /* \"#utility.yul\":1490:1491   */\n      dup1\n        /* \"#utility.yul\":1483:1495   */\n      revert\n        /* \"#utility.yul\":1445:1497   */\n    tag_83:\n        /* \"#utility.yul\":1516:1544   */\n      tag_84\n        /* \"#utility.yul\":1534:1543   */\n      dup5\n        /* \"#utility.yul\":1516:1544   */\n      tag_70\n      jump\t// in\n    tag_84:\n        /* \"#utility.yul\":1506:1544   */\n      swap3\n      pop\n        /* \"#utility.yul\":1563:1600   */\n      tag_85\n        /* \"#utility.yul\":1596:1598   */\n      0x20\n        /* \"#utility.yul\":1585:1594   */\n      dup6\n        /* \"#utility.yul\":1581:1599   */\n      add\n        /* \"#utility.yul\":1563:1600   */\n      tag_70\n      jump\t// in\n    tag_85:\n        /* \"#utility.yul\":1553:1600   */\n      swap2\n      pop\n        /* \"#utility.yul\":1619:1656   */\n      tag_86\n        /* \"#utility.yul\":1652:1654   */\n      0x40\n        /* \"#utility.yul\":1641:1650   */\n      dup6\n        /* \"#utility.yul\":1637:1655   */\n      add\n        /* \"#utility.yul\":1619:1656   */\n      tag_70\n      jump\t// in\n    tag_86:\n        /* \"#utility.yul\":1609:1656   */\n      swap1\n      pop\n        /* \"#utility.yul\":1334:1662   */\n      swap3\n      pop\n      swap3\n      pop\n      swap3\n      jump\t// out\n        /* \"#utility.yul\":1880:2214   */\n    tag_30:\n        /* \"#utility.yul\":1957:1963   */\n      0x00\n        /* \"#utility.yul\":1965:1971   */\n      dup1\n        /* \"#utility.yul\":1973:1979   */\n      0x00\n        /* \"#utility.yul\":2026:2028   */\n      0x60\n        /* \"#utility.yul\":2014:2023   */\n      dup5\n        /* \"#utility.yul\":2005:2012   */\n      dup7\n        /* \"#utility.yul\":2001:2024   */\n      sub\n        /* \"#utility.yul\":1997:2029   */\n      slt\n        /* \"#utility.yul\":1994:2046   */\n      iszero\n      tag_89\n      jumpi\n        /* \"#utility.yul\":2042:2043   */\n      0x00\n        /* \"#utility.yul\":2039:2040   */\n      dup1\n        /* \"#utility.yul\":2032:2044   */\n      revert\n        /* \"#utility.yul\":1994:2046   */\n    tag_89:\n        /* \"#utility.yul\":2065:2094   */\n      tag_90\n        /* \"#utility.yul\":2084:2093   */\n      dup5\n        /* \"#utility.yul\":2065:2094   */\n      tag_69\n      jump\t// in\n    tag_90:\n        /* \"#utility.yul\":2055:2094   */\n      swap3\n      pop\n        /* \"#utility.yul\":2113:2151   */\n      tag_91\n        /* \"#utility.yul\":2147:2149   */\n      0x20\n        /* \"#utility.yul\":2136:2145   */\n      dup6\n        /* \"#utility.yul\":2132:2150   */\n      add\n        /* \"#utility.yul\":2113:2151   */\n      tag_69\n      jump\t// in\n    tag_91:\n        /* \"#utility.yul\":2103:2151   */\n      swap2\n      pop\n        /* \"#utility.yul\":2170:2208   */\n      tag_86\n        /* \"#utility.yul\":2204:2206   */\n      0x40\n        /* \"#utility.yul\":2193:2202   */\n      dup6\n        /* \"#utility.yul\":2189:2207   */\n      add\n        /* \"#utility.yul\":2170:2208   */\n      tag_69\n      jump\t// in\n        /* \"#utility.yul\":2219:2479   */\n    tag_38:\n        /* \"#utility.yul\":2287:2293   */\n      0x00\n        /* \"#utility.yul\":2295:2301   */\n      dup1\n        /* \"#utility.yul\":2348:2350   */\n      0x40\n        /* \"#utility.yul\":2336:2345   */\n      dup4\n        /* \"#utility.yul\":2327:2334   */\n      dup6\n        /* \"#utility.yul\":2323:2346   */\n      sub\n        /* \"#utility.yul\":2319:2351   */\n      slt\n        /* \"#utility.yul\":2316:2368   */\n      iszero\n      tag_94\n      jumpi\n        /* \"#utility.yul\":2364:2365   */\n      0x00\n        /* \"#utility.yul\":2361:2362   */\n      dup1\n        /* \"#utility.yul\":2354:2366   */\n      revert\n        /* \"#utility.yul\":2316:2368   */\n    tag_94:\n        /* \"#utility.yul\":2387:2416   */\n      tag_95\n        /* \"#utility.yul\":2406:2415   */\n      dup4\n        /* \"#utility.yul\":2387:2416   */\n      tag_69\n      jump\t// in\n    tag_95:\n        /* \"#utility.yul\":2377:2416   */\n      swap2\n      pop\n        /* \"#utility.yul\":2435:2473   */\n      tag_96\n        /* \"#utility.yul\":2469:2471   */\n      0x20\n        /* \"#utility.yul\":2458:2467   */\n      dup5\n        /* \"#utility.yul\":2454:2472   */\n      add\n        /* \"#utility.yul\":2435:2473   */\n      tag_69\n      jump\t// in\n    tag_96:\n        /* \"#utility.yul\":2425:2473   */\n      swap1\n      pop\n        /* \"#utility.yul\":2219:2479   */\n      swap3\n      pop\n      swap3\n      swap1\n      pop\n      jump\t// out\n        /* \"#utility.yul\":2484:2611   */\n    tag_58:\n        /* \"#utility.yul\":2545:2555   */\n      0x4e487b71\n        /* \"#utility.yul\":2540:2543   */\n      0xe0\n        /* \"#utility.yul\":2536:2556   */\n      shl\n        /* \"#utility.yul\":2533:2534   */\n      0x00\n        /* \"#utility.yul\":2526:2557   */\n      mstore\n        /* \"#utility.yul\":2576:2580   */\n      0x12\n        /* \"#utility.yul\":2573:2574   */\n      0x04\n        /* \"#utility.yul\":2566:2581   */\n      mstore\n        /* \"#utility.yul\":2600:2604   */\n      0x24\n        /* \"#utility.yul\":2597:2598   */\n      0x00\n        /* \"#utility.yul\":2590:2605   */\n      revert\n        /* \"#utility.yul\":2616:2728   */\n    tag_48:\n        /* \"#utility.yul\":2648:2649   */\n      0x00\n        /* \"#utility.yul\":2674:2675   */\n      dup3\n        /* \"#utility.yul\":2664:2699   */\n      tag_100\n      jumpi\n        /* \"#utility.yul\":2679:2697   */\n      tag_100\n      tag_58\n      jump\t// in\n    tag_100:\n      pop\n        /* \"#utility.yul\":2713:2722   */\n      mod\n      swap1\n        /* \"#utility.yul\":2616:2728   */\n      jump\t// out\n        /* \"#utility.yul\":2733:2930   */\n    tag_51:\n        /* \"#utility.yul\":2773:2774   */\n      0x00\n      sub(shl(0xa0, 0x01), 0x01)\n        /* \"#utility.yul\":2800:2827   */\n      dup4\n      and\n      dup1\n        /* \"#utility.yul\":2836:2873   */\n      tag_103\n      jumpi\n        /* \"#utility.yul\":2853:2871   */\n      tag_103\n      tag_58\n      jump\t// in\n    tag_103:\n      sub(shl(0xa0, 0x01), 0x01)\n        /* \"#utility.yul\":2891:2918   */\n      swap3\n      swap1\n      swap3\n      and\n        /* \"#utility.yul\":2887:2924   */\n      swap2\n      swap1\n      swap2\n      div\n      swap3\n        /* \"#utility.yul\":2733:2930   */\n      swap2\n      pop\n      pop\n      jump\t// out\n\n    auxdata: 0xa264697066735822122099bc8d4ec726dfc97d63d1f3875e1dd1a298742d56ce07540ffeba63da1be2e264736f6c634300081a0033\n}\n",
				"bytecode": {
					"linkReferences": {},
					"object": "61044e610034600b8282823980515f1a607314602857634e487b7160e01b5f525f60045260245ffd5b305f52607381538281f3fe730000000000000000000000000000000000000000301460806040526004361061006b575f3560e01c80633148f14f1461006f5780634ceda263146100a157806353df6e35146100c057806375baeb42146100f8578063d3dc2a0f1461010b578063fa6bcfec14610119575b5f80fd5b81801561007a575f80fd5b5061008e610089366004610298565b61012c565b6040519081526020015b60405180910390f35b8180156100ac575f80fd5b5061008e6100bb3660046102dc565b610174565b8180156100cb575f80fd5b506100df6100da36600461031b565b61019a565b60405167ffffffffffffffff9091168152602001610098565b61008e61010636600461035b565b6101d3565b6100df6603632c8eb5af3b81565b61008e610127366004610392565b610233565b5f60405160208152602080820152602060408201528460608201528360808201528260a082015260c05160208160c0845f60055f19f161016a575f80fd5b5195945050505050565b5f6101936001600160a01b038085169084166603632c8eb5af3b61012c565b9392505050565b5f67ffffffffffffffff80851690848116908481169084906101bd85858561012c565b6101c791906103d7565b98975050505050505050565b5f806101e0600f856103ea565b90505b815f0361022b576603632c8eb5af3b6101fc8685610233565b6102068787610233565b0a81610214576102146103c3565b06915060026001600160a01b0382160490506101e3565b509392505050565b5f8281610241600f856103ea565b90505b825f03610290576603632c8eb5af3b6001600160a01b038083168482160a16066001600160a01b031692506002816001600160a01b031681610288576102886103c3565b049050610244565b505092915050565b5f805f606084860312156102aa575f80fd5b505081359360208301359350604090920135919050565b80356001600160a01b03811681146102d7575f80fd5b919050565b5f80604083850312156102ed575f80fd5b6102f6836102c1565b946020939093013593505050565b803567ffffffffffffffff811681146102d7575f80fd5b5f805f6060848603121561032d575f80fd5b61033684610304565b925061034460208501610304565b915061035260408501610304565b90509250925092565b5f805f6060848603121561036d575f80fd5b610376846102c1565b9250610384602085016102c1565b9150610352604085016102c1565b5f80604083850312156103a3575f80fd5b6103ac836102c1565b91506103ba602084016102c1565b90509250929050565b634e487b7160e01b5f52601260045260245ffd5b5f826103e5576103e56103c3565b500690565b5f6001600160a01b03831680610402576104026103c3565b6001600160a01b0392909216919091049291505056fea264697066735822122099bc8d4ec726dfc97d63d1f3875e1dd1a298742d56ce07540ffeba63da1be2e264736f6c634300081a0033",
					"opcodes": "PUSH2 0x44E PUSH2 0x34 PUSH1 0xB DUP3 DUP3 DUP3 CODECOPY DUP1 MLOAD PUSH0 BYTE PUSH1 0x73 EQ PUSH1 0x28 JUMPI PUSH4 0x4E487B71 PUSH1 0xE0 SHL PUSH0 MSTORE PUSH0 PUSH1 0x4 MSTORE PUSH1 0x24 PUSH0 REVERT JUMPDEST ADDRESS PUSH0 MSTORE PUSH1 0x73 DUP2 MSTORE8 DUP3 DUP2 RETURN INVALID PUSH20 0x0 ADDRESS EQ PUSH1 0x80 PUSH1 0x40 MSTORE PUSH1 0x4 CALLDATASIZE LT PUSH2 0x6B JUMPI PUSH0 CALLDATALOAD PUSH1 0xE0 SHR DUP1 PUSH4 0x3148F14F EQ PUSH2 0x6F JUMPI DUP1 PUSH4 0x4CEDA263 EQ PUSH2 0xA1 JUMPI DUP1 PUSH4 0x53DF6E35 EQ PUSH2 0xC0 JUMPI DUP1 PUSH4 0x75BAEB42 EQ PUSH2 0xF8 JUMPI DUP1 PUSH4 0xD3DC2A0F EQ PUSH2 0x10B JUMPI DUP1 PUSH4 0xFA6BCFEC EQ PUSH2 0x119 JUMPI JUMPDEST PUSH0 DUP1 REVERT JUMPDEST DUP2 DUP1 ISZERO PUSH2 0x7A JUMPI PUSH0 DUP1 REVERT JUMPDEST POP PUSH2 0x8E PUSH2 0x89 CALLDATASIZE PUSH1 0x4 PUSH2 0x298 JUMP JUMPDEST PUSH2 0x12C JUMP JUMPDEST PUSH1 0x40 MLOAD SWAP1 DUP2 MSTORE PUSH1 0x20 ADD JUMPDEST PUSH1 0x40 MLOAD DUP1 SWAP2 SUB SWAP1 RETURN JUMPDEST DUP2 DUP1 ISZERO PUSH2 0xAC JUMPI PUSH0 DUP1 REVERT JUMPDEST POP PUSH2 0x8E PUSH2 0xBB CALLDATASIZE PUSH1 0x4 PUSH2 0x2DC JUMP JUMPDEST PUSH2 0x174 JUMP JUMPDEST DUP2 DUP1 ISZERO PUSH2 0xCB JUMPI PUSH0 DUP1 REVERT JUMPDEST POP PUSH2 0xDF PUSH2 0xDA CALLDATASIZE PUSH1 0x4 PUSH2 0x31B JUMP JUMPDEST PUSH2 0x19A JUMP JUMPDEST PUSH1 0x40 MLOAD PUSH8 0xFFFFFFFFFFFFFFFF SWAP1 SWAP2 AND DUP2 MSTORE PUSH1 0x20 ADD PUSH2 0x98 JUMP JUMPDEST PUSH2 0x8E PUSH2 0x106 CALLDATASIZE PUSH1 0x4 PUSH2 0x35B JUMP JUMPDEST PUSH2 0x1D3 JUMP JUMPDEST PUSH2 0xDF PUSH7 0x3632C8EB5AF3B DUP2 JUMP JUMPDEST PUSH2 0x8E PUSH2 0x127 CALLDATASIZE PUSH1 0x4 PUSH2 0x392 JUMP JUMPDEST PUSH2 0x233 JUMP JUMPDEST PUSH0 PUSH1 0x40 MLOAD PUSH1 0x20 DUP2 MSTORE PUSH1 0x20 DUP1 DUP3 ADD MSTORE PUSH1 0x20 PUSH1 0x40 DUP3 ADD MSTORE DUP5 PUSH1 0x60 DUP3 ADD MSTORE DUP4 PUSH1 0x80 DUP3 ADD MSTORE DUP3 PUSH1 0xA0 DUP3 ADD MSTORE PUSH1 0xC0 MLOAD PUSH1 0x20 DUP2 PUSH1 0xC0 DUP5 PUSH0 PUSH1 0x5 PUSH0 NOT CALL PUSH2 0x16A JUMPI PUSH0 DUP1 REVERT JUMPDEST MLOAD SWAP6 SWAP5 POP POP POP POP POP JUMP JUMPDEST PUSH0 PUSH2 0x193 PUSH1 0x1 PUSH1 0x1 PUSH1 0xA0 SHL SUB DUP1 DUP6 AND SWAP1 DUP5 AND PUSH7 0x3632C8EB5AF3B PUSH2 0x12C JUMP JUMPDEST SWAP4 SWAP3 POP POP POP JUMP JUMPDEST PUSH0 PUSH8 0xFFFFFFFFFFFFFFFF DUP1 DUP6 AND SWAP1 DUP5 DUP2 AND SWAP1 DUP5 DUP2 AND SWAP1 DUP5 SWAP1 PUSH2 0x1BD DUP6 DUP6 DUP6 PUSH2 0x12C JUMP JUMPDEST PUSH2 0x1C7 SWAP2 SWAP1 PUSH2 0x3D7 JUMP JUMPDEST SWAP9 SWAP8 POP POP POP POP POP POP POP POP JUMP JUMPDEST PUSH0 DUP1 PUSH2 0x1E0 PUSH1 0xF DUP6 PUSH2 0x3EA JUMP JUMPDEST SWAP1 POP JUMPDEST DUP2 PUSH0 SUB PUSH2 0x22B JUMPI PUSH7 0x3632C8EB5AF3B PUSH2 0x1FC DUP7 DUP6 PUSH2 0x233 JUMP JUMPDEST PUSH2 0x206 DUP8 DUP8 PUSH2 0x233 JUMP JUMPDEST EXP DUP2 PUSH2 0x214 JUMPI PUSH2 0x214 PUSH2 0x3C3 JUMP JUMPDEST MOD SWAP2 POP PUSH1 0x2 PUSH1 0x1 PUSH1 0x1 PUSH1 0xA0 SHL SUB DUP3 AND DIV SWAP1 POP PUSH2 0x1E3 JUMP JUMPDEST POP SWAP4 SWAP3 POP POP POP JUMP JUMPDEST PUSH0 DUP3 DUP2 PUSH2 0x241 PUSH1 0xF DUP6 PUSH2 0x3EA JUMP JUMPDEST SWAP1 POP JUMPDEST DUP3 PUSH0 SUB PUSH2 0x290 JUMPI PUSH7 0x3632C8EB5AF3B PUSH1 0x1 PUSH1 0x1 PUSH1 0xA0 SHL SUB DUP1 DUP4 AND DUP5 DUP3 AND EXP AND MOD PUSH1 0x1 PUSH1 0x1 PUSH1 0xA0 SHL SUB AND SWAP3 POP PUSH1 0x2 DUP2 PUSH1 0x1 PUSH1 0x1 PUSH1 0xA0 SHL SUB AND DUP2 PUSH2 0x288 JUMPI PUSH2 0x288 PUSH2 0x3C3 JUMP JUMPDEST DIV SWAP1 POP PUSH2 0x244 JUMP JUMPDEST POP POP SWAP3 SWAP2 POP POP JUMP JUMPDEST PUSH0 DUP1 PUSH0 PUSH1 0x60 DUP5 DUP7 SUB SLT ISZERO PUSH2 0x2AA JUMPI PUSH0 DUP1 REVERT JUMPDEST POP POP DUP2 CALLDATALOAD SWAP4 PUSH1 0x20 DUP4 ADD CALLDATALOAD SWAP4 POP PUSH1 0x40 SWAP1 SWAP3 ADD CALLDATALOAD SWAP2 SWAP1 POP JUMP JUMPDEST DUP1 CALLDATALOAD PUSH1 0x1 PUSH1 0x1 PUSH1 0xA0 SHL SUB DUP2 AND DUP2 EQ PUSH2 0x2D7 JUMPI PUSH0 DUP1 REVERT JUMPDEST SWAP2 SWAP1 POP JUMP JUMPDEST PUSH0 DUP1 PUSH1 0x40 DUP4 DUP6 SUB SLT ISZERO PUSH2 0x2ED JUMPI PUSH0 DUP1 REVERT JUMPDEST PUSH2 0x2F6 DUP4 PUSH2 0x2C1 JUMP JUMPDEST SWAP5 PUSH1 0x20 SWAP4 SWAP1 SWAP4 ADD CALLDATALOAD SWAP4 POP POP POP JUMP JUMPDEST DUP1 CALLDATALOAD PUSH8 0xFFFFFFFFFFFFFFFF DUP2 AND DUP2 EQ PUSH2 0x2D7 JUMPI PUSH0 DUP1 REVERT JUMPDEST PUSH0 DUP1 PUSH0 PUSH1 0x60 DUP5 DUP7 SUB SLT ISZERO PUSH2 0x32D JUMPI PUSH0 DUP1 REVERT JUMPDEST PUSH2 0x336 DUP5 PUSH2 0x304 JUMP JUMPDEST SWAP3 POP PUSH2 0x344 PUSH1 0x20 DUP6 ADD PUSH2 0x304 JUMP JUMPDEST SWAP2 POP PUSH2 0x352 PUSH1 0x40 DUP6 ADD PUSH2 0x304 JUMP JUMPDEST SWAP1 POP SWAP3 POP SWAP3 POP SWAP3 JUMP JUMPDEST PUSH0 DUP1 PUSH0 PUSH1 0x60 DUP5 DUP7 SUB SLT ISZERO PUSH2 0x36D JUMPI PUSH0 DUP1 REVERT JUMPDEST PUSH2 0x376 DUP5 PUSH2 0x2C1 JUMP JUMPDEST SWAP3 POP PUSH2 0x384 PUSH1 0x20 DUP6 ADD PUSH2 0x2C1 JUMP JUMPDEST SWAP2 POP PUSH2 0x352 PUSH1 0x40 DUP6 ADD PUSH2 0x2C1 JUMP JUMPDEST PUSH0 DUP1 PUSH1 0x40 DUP4 DUP6 SUB SLT ISZERO PUSH2 0x3A3 JUMPI PUSH0 DUP1 REVERT JUMPDEST PUSH2 0x3AC DUP4 PUSH2 0x2C1 JUMP JUMPDEST SWAP2 POP PUSH2 0x3BA PUSH1 0x20 DUP5 ADD PUSH2 0x2C1 JUMP JUMPDEST SWAP1 POP SWAP3 POP SWAP3 SWAP1 POP JUMP JUMPDEST PUSH4 0x4E487B71 PUSH1 0xE0 SHL PUSH0 MSTORE PUSH1 0x12 PUSH1 0x4 MSTORE PUSH1 0x24 PUSH0 REVERT JUMPDEST PUSH0 DUP3 PUSH2 0x3E5 JUMPI PUSH2 0x3E5 PUSH2 0x3C3 JUMP JUMPDEST POP MOD SWAP1 JUMP JUMPDEST PUSH0 PUSH1 0x1 PUSH1 0x1 PUSH1 0xA0 SHL SUB DUP4 AND DUP1 PUSH2 0x402 JUMPI PUSH2 0x402 PUSH2 0x3C3 JUMP JUMPDEST PUSH1 0x1 PUSH1 0x1 PUSH1 0xA0 SHL SUB SWAP3 SWAP1 SWAP3 AND SWAP2 SWAP1 SWAP2 DIV SWAP3 SWAP2 POP POP JUMP INVALID LOG2 PUSH5 0x6970667358 0x22 SLT KECCAK256 SWAP10 0xBC DUP14 0x4E 0xC7 0x26 0xDF 0xC9 PUSH30 0x63D1F3875E1DD1A298742D56CE07540FFEBA63DA1BE2E264736F6C634300 ADDMOD BYTE STOP CALLER "
				},
				"gasEstimates": {
					"creation": {
						"codeDepositCost": "220400",
						"executionCost": "290",
						"totalCost": "220690"
					},
					"external": {
						"MotzkinPrime()": "253",
						"hashWith(address,address)": "infinite",
						"hashWithD(address,address,address)": "infinite",
						"hashWithId(address,uint256)": "infinite",
						"modExp(uint256,uint256,uint256)": "infinite",
						"modExp64(uint64,uint64,uint64)": "infinite"
					}
				},
				"methodIdentifiers": {
					"MotzkinPrime()": "d3dc2a0f",
					"hashWith(address,address)": "fa6bcfec",
					"hashWithD(address,address,address)": "75baeb42",
					"hashWithId(address,uint256)": "4ceda263",
					"modExp(uint256,uint256,uint256)": "3148f14f",
					"modExp64(uint64,uint64,uint64)": "53df6e35"
				}
			},
			"storageLayout": {
				"storage": [],
				"types": null
			},
			"userdoc": {
				"kind": "user",
				"methods": {},
				"version": 1
			}
		}
	}
}