{
	"contracts/atropamath.sol": {
		"AtropaMath": {
			"abi": [
				{
					"inputs": [],
					"name": "MotzkinPrime",
					"outputs": [
						{
							"internalType": "uint64",
							"name": "",
							"type": "uint64"
						}
					],
					"stateMutability": "view",
					"type": "function"
				},
				{
					"inputs": [
						{
							"internalType": "address",
							"name": "a",
							"type": "address"
						},
						{
							"internalType": "address",
							"name": "b",
							"type": "address"
						}
					],
					"name": "hashWith",
					"outputs": [
						{
							"internalType": "uint256",
							"name": "hash",
							"type": "uint256"
						}
					],
					"stateMutability": "pure",
					"type": "function"
				},
				{
					"inputs": [
						{
							"internalType": "address",
							"name": "a",
							"type": "address"
						},
						{
							"internalType": "address",
							"name": "b",
							"type": "address"
						},
						{
							"internalType": "address",
							"name": "c",
							"type": "address"
						},
						{
							"internalType": "address",
							"name": "g",
							"type": "address"
						}
					],
					"name": "hashWithD",
					"outputs": [
						{
							"internalType": "uint256",
							"name": "hash",
							"type": "uint256"
						}
					],
					"stateMutability": "pure",
					"type": "function"
				},
				{
					"inputs": [
						{
							"internalType": "address",
							"name": "a",
							"type": "address"
						},
						{
							"internalType": "uint256",
							"name": "b",
							"type": "uint256"
						}
					],
					"name": "hashWithHash",
					"outputs": [
						{
							"internalType": "uint256",
							"name": "hash",
							"type": "uint256"
						}
					],
					"stateMutability": "pure",
					"type": "function"
				},
				{
					"inputs": [
						{
							"internalType": "uint64",
							"name": "a",
							"type": "uint64"
						},
						{
							"internalType": "uint64",
							"name": "b",
							"type": "uint64"
						},
						{
							"internalType": "uint64",
							"name": "c",
							"type": "uint64"
						}
					],
					"name": "sortThree",
					"outputs": [
						{
							"internalType": "uint64",
							"name": "",
							"type": "uint64"
						},
						{
							"internalType": "uint64",
							"name": "",
							"type": "uint64"
						},
						{
							"internalType": "uint64",
							"name": "",
							"type": "uint64"
						}
					],
					"stateMutability": "pure",
					"type": "function"
				}
			],
			"devdoc": {
				"kind": "dev",
				"methods": {},
				"version": 1
			},
			"evm": {
				"assembly": "    /* \"contracts/atropamath.sol\":130:4209  library AtropaMath  {... */\n  dataSize(sub_0)\n  dataOffset(sub_0)\n  0x0b\n  dup3\n  dup3\n  dup3\n  codecopy\n  dup1\n  mload\n  0x00\n  byte\n  0x73\n  eq\n  tag_1\n  jumpi\n  mstore(0x00, shl(0xe0, 0x4e487b71))\n  mstore(0x04, 0x00)\n  revert(0x00, 0x24)\ntag_1:\n  mstore(0x00, address)\n  0x73\n  dup2\n  mstore8\n  dup3\n  dup2\n  return\nstop\n\nsub_0: assembly {\n        /* \"contracts/atropamath.sol\":130:4209  library AtropaMath  {... */\n      eq(address, deployTimeAddress())\n      mstore(0x40, 0x80)\n      jumpi(tag_1, lt(calldatasize, 0x04))\n      shr(0xe0, calldataload(0x00))\n      dup1\n      0x3148f14f\n      eq\n      tag_2\n      jumpi\n      dup1\n      0x53df6e35\n      eq\n      tag_3\n      jumpi\n      dup1\n      0x6592f007\n      eq\n      tag_4\n      jumpi\n      dup1\n      0x6e27811b\n      eq\n      tag_5\n      jumpi\n      dup1\n      0x98fdcdd6\n      eq\n      tag_6\n      jumpi\n      dup1\n      0xd3dc2a0f\n      eq\n      tag_7\n      jumpi\n      dup1\n      0xfa6bcfec\n      eq\n      tag_8\n      jumpi\n    tag_1:\n      0x00\n      dup1\n      revert\n        /* \"contracts/atropamath.sol\":2196:3068  function modExp(uint256 _b, uint256 _e, uint256 _m) public returns (uint256 result) {... */\n    tag_2:\n      dup2\n      dup1\n      iszero\n      tag_9\n      jumpi\n      0x00\n      dup1\n      revert\n    tag_9:\n      pop\n      tag_10\n      tag_11\n      calldatasize\n      0x04\n      tag_12\n      jump\t// in\n    tag_11:\n      tag_13\n      jump\t// in\n    tag_10:\n      mload(0x40)\n        /* \"#utility.yul\":639:664   */\n      swap1\n      dup2\n      mstore\n        /* \"#utility.yul\":627:629   */\n      0x20\n        /* \"#utility.yul\":612:630   */\n      add\n        /* \"contracts/atropamath.sol\":2196:3068  function modExp(uint256 _b, uint256 _e, uint256 _m) public returns (uint256 result) {... */\n    tag_14:\n      mload(0x40)\n      dup1\n      swap2\n      sub\n      swap1\n      return\n        /* \"contracts/atropamath.sol\":1945:2190  function modExp64(uint64 _b, uint64 _e, uint64 _m) public returns(uint64 result) {... */\n    tag_3:\n      dup2\n      dup1\n      iszero\n      tag_16\n      jumpi\n      0x00\n      dup1\n      revert\n    tag_16:\n      pop\n      tag_17\n      tag_18\n      calldatasize\n      0x04\n      tag_19\n      jump\t// in\n    tag_18:\n      tag_20\n      jump\t// in\n    tag_17:\n      mload(0x40)\n      sub(shl(0x40, 0x01), 0x01)\n        /* \"#utility.yul\":1354:1385   */\n      swap1\n      swap2\n      and\n        /* \"#utility.yul\":1336:1386   */\n      dup2\n      mstore\n        /* \"#utility.yul\":1324:1326   */\n      0x20\n        /* \"#utility.yul\":1309:1327   */\n      add\n        /* \"contracts/atropamath.sol\":1945:2190  function modExp64(uint64 _b, uint64 _e, uint64 _m) public returns(uint64 result) {... */\n      tag_14\n        /* \"#utility.yul\":1184:1392   */\n      jump\n        /* \"contracts/atropamath.sol\":1525:1934  function hashWithHash(address a, uint b) public pure returns (uint256 hash) {        ... */\n    tag_4:\n      tag_10\n      tag_24\n      calldatasize\n      0x04\n      tag_25\n      jump\t// in\n    tag_24:\n      tag_26\n      jump\t// in\n        /* \"contracts/atropamath.sol\":680:1105  function hashWithD(address a, address b, address c, address g) public pure returns (uint256 hash) {        ... */\n    tag_5:\n      tag_10\n      tag_29\n      calldatasize\n      0x04\n      tag_30\n      jump\t// in\n    tag_29:\n      tag_31\n      jump\t// in\n        /* \"contracts/atropamath.sol\":3078:4202  function sortThree(uint64 a, uint64 b, uint64 c) public pure returns (uint64, uint64, uint64) {... */\n    tag_6:\n      tag_33\n      tag_34\n      calldatasize\n      0x04\n      tag_19\n      jump\t// in\n    tag_34:\n      tag_35\n      jump\t// in\n    tag_33:\n      0x40\n      dup1\n      mload\n      sub(shl(0x40, 0x01), 0x01)\n        /* \"#utility.yul\":2516:2547   */\n      swap5\n      dup6\n      and\n        /* \"#utility.yul\":2498:2548   */\n      dup2\n      mstore\n        /* \"#utility.yul\":2584:2615   */\n      swap3\n      dup5\n      and\n        /* \"#utility.yul\":2579:2581   */\n      0x20\n        /* \"#utility.yul\":2564:2582   */\n      dup5\n      add\n        /* \"#utility.yul\":2557:2616   */\n      mstore\n        /* \"#utility.yul\":2652:2683   */\n      swap3\n      and\n        /* \"#utility.yul\":2632:2650   */\n      swap2\n      dup2\n      add\n        /* \"#utility.yul\":2625:2684   */\n      swap2\n      swap1\n      swap2\n      mstore\n        /* \"#utility.yul\":2486:2488   */\n      0x60\n        /* \"#utility.yul\":2471:2489   */\n      add\n        /* \"contracts/atropamath.sol\":3078:4202  function sortThree(uint64 a, uint64 b, uint64 c) public pure returns (uint64, uint64, uint64) {... */\n      tag_14\n        /* \"#utility.yul\":2294:2690   */\n      jump\n        /* \"contracts/atropamath.sol\":156:209  uint64 constant public MotzkinPrime = 953467954114363 */\n    tag_7:\n      tag_17\n        /* \"contracts/atropamath.sol\":194:209  953467954114363 */\n      0x03632c8eb5af3b\n        /* \"contracts/atropamath.sol\":156:209  uint64 constant public MotzkinPrime = 953467954114363 */\n      dup2\n      jump\n        /* \"contracts/atropamath.sol\":1110:1518  function hashWith(address a, address b) public pure returns (uint256 hash) {        ... */\n    tag_8:\n      tag_10\n      tag_42\n      calldatasize\n      0x04\n      tag_43\n      jump\t// in\n    tag_42:\n      tag_44\n      jump\t// in\n        /* \"contracts/atropamath.sol\":2196:3068  function modExp(uint256 _b, uint256 _e, uint256 _m) public returns (uint256 result) {... */\n    tag_13:\n        /* \"contracts/atropamath.sol\":2264:2278  uint256 result */\n      0x00\n        /* \"contracts/atropamath.sol\":2369:2373  0x40 */\n      0x40\n        /* \"contracts/atropamath.sol\":2363:2374  mload(0x40) */\n      mload\n        /* \"contracts/atropamath.sol\":2481:2485  0x20 */\n      0x20\n        /* \"contracts/atropamath.sol\":2472:2479  pointer */\n      dup2\n        /* \"contracts/atropamath.sol\":2465:2486  mstore(pointer, 0x20) */\n      mstore\n        /* \"contracts/atropamath.sol\":2526:2530  0x20 */\n      0x20\n        /* \"contracts/atropamath.sol\":2519:2523  0x20 */\n      dup1\n        /* \"contracts/atropamath.sol\":2510:2517  pointer */\n      dup3\n        /* \"contracts/atropamath.sol\":2506:2524  add(pointer, 0x20) */\n      add\n        /* \"contracts/atropamath.sol\":2499:2531  mstore(add(pointer, 0x20), 0x20) */\n      mstore\n        /* \"contracts/atropamath.sol\":2571:2575  0x20 */\n      0x20\n        /* \"contracts/atropamath.sol\":2564:2568  0x40 */\n      0x40\n        /* \"contracts/atropamath.sol\":2555:2562  pointer */\n      dup3\n        /* \"contracts/atropamath.sol\":2551:2569  add(pointer, 0x40) */\n      add\n        /* \"contracts/atropamath.sol\":2544:2576  mstore(add(pointer, 0x40), 0x20) */\n      mstore\n        /* \"contracts/atropamath.sol\":2676:2678  _b */\n      dup5\n        /* \"contracts/atropamath.sol\":2669:2673  0x60 */\n      0x60\n        /* \"contracts/atropamath.sol\":2660:2667  pointer */\n      dup3\n        /* \"contracts/atropamath.sol\":2656:2674  add(pointer, 0x60) */\n      add\n        /* \"contracts/atropamath.sol\":2649:2679  mstore(add(pointer, 0x60), _b) */\n      mstore\n        /* \"contracts/atropamath.sol\":2719:2721  _e */\n      dup4\n        /* \"contracts/atropamath.sol\":2712:2716  0x80 */\n      0x80\n        /* \"contracts/atropamath.sol\":2703:2710  pointer */\n      dup3\n        /* \"contracts/atropamath.sol\":2699:2717  add(pointer, 0x80) */\n      add\n        /* \"contracts/atropamath.sol\":2692:2722  mstore(add(pointer, 0x80), _e) */\n      mstore\n        /* \"contracts/atropamath.sol\":2762:2764  _m */\n      dup3\n        /* \"contracts/atropamath.sol\":2755:2759  0xa0 */\n      0xa0\n        /* \"contracts/atropamath.sol\":2746:2753  pointer */\n      dup3\n        /* \"contracts/atropamath.sol\":2742:2760  add(pointer, 0xa0) */\n      add\n        /* \"contracts/atropamath.sol\":2735:2765  mstore(add(pointer, 0xa0), _m) */\n      mstore\n        /* \"contracts/atropamath.sol\":2830:2834  0xc0 */\n      0xc0\n        /* \"contracts/atropamath.sol\":2824:2835  mload(0xc0) */\n      mload\n        /* \"contracts/atropamath.sol\":2965:2969  0x20 */\n      0x20\n        /* \"contracts/atropamath.sol\":2958:2963  value */\n      dup2\n        /* \"contracts/atropamath.sol\":2952:2956  0xc0 */\n      0xc0\n        /* \"contracts/atropamath.sol\":2943:2950  pointer */\n      dup5\n        /* \"contracts/atropamath.sol\":2940:2941  0 */\n      0x00\n        /* \"contracts/atropamath.sol\":2934:2938  0x05 */\n      0x05\n        /* \"contracts/atropamath.sol\":2930:2931  0 */\n      0x00\n        /* \"contracts/atropamath.sol\":2926:2932  not(0) */\n      not\n        /* \"contracts/atropamath.sol\":2921:2970  call(not(0), 0x05, 0, pointer, 0xc0, value, 0x20) */\n      call\n        /* \"contracts/atropamath.sol\":2911:3016  if iszero(call(not(0), 0x05, 0, pointer, 0xc0, value, 0x20)) {... */\n      tag_47\n      jumpi\n        /* \"contracts/atropamath.sol\":3000:3001  0 */\n      0x00\n        /* \"contracts/atropamath.sol\":2997:2998  0 */\n      dup1\n        /* \"contracts/atropamath.sol\":2990:3002  revert(0, 0) */\n      revert\n        /* \"contracts/atropamath.sol\":2911:3016  if iszero(call(not(0), 0x05, 0, pointer, 0xc0, value, 0x20)) {... */\n    tag_47:\n        /* \"contracts/atropamath.sol\":3040:3052  mload(value) */\n      mload\n      swap6\n        /* \"contracts/atropamath.sol\":2196:3068  function modExp(uint256 _b, uint256 _e, uint256 _m) public returns (uint256 result) {... */\n      swap5\n      pop\n      pop\n      pop\n      pop\n      pop\n      jump\t// out\n        /* \"contracts/atropamath.sol\":1945:2190  function modExp64(uint64 _b, uint64 _e, uint64 _m) public returns(uint64 result) {... */\n    tag_20:\n        /* \"contracts/atropamath.sol\":2011:2024  uint64 result */\n      0x00\n      sub(shl(0x40, 0x01), 0x01)\n        /* \"contracts/atropamath.sol\":2036:2050  uint256 B = _b */\n      dup1\n      dup6\n      and\n      swap1\n        /* \"contracts/atropamath.sol\":2060:2074  uint256 E = _e */\n      dup5\n      dup2\n      and\n      swap1\n        /* \"contracts/atropamath.sol\":2084:2098  uint256 M = _m */\n      dup5\n      dup2\n      and\n      swap1\n        /* \"contracts/atropamath.sol\":2011:2024  uint64 result */\n      dup5\n      swap1\n        /* \"contracts/atropamath.sol\":2126:2141  modExp(B, E, M) */\n      tag_49\n        /* \"contracts/atropamath.sol\":2036:2050  uint256 B = _b */\n      dup6\n        /* \"contracts/atropamath.sol\":2060:2074  uint256 E = _e */\n      dup6\n        /* \"contracts/atropamath.sol\":2084:2098  uint256 M = _m */\n      dup6\n        /* \"contracts/atropamath.sol\":2126:2132  modExp */\n      tag_13\n        /* \"contracts/atropamath.sol\":2126:2141  modExp(B, E, M) */\n      jump\t// in\n    tag_49:\n        /* \"contracts/atropamath.sol\":2126:2164  modExp(B, E, M) % 18446744073709551615 */\n      tag_50\n      swap2\n      swap1\n      tag_51\n      jump\t// in\n    tag_50:\n        /* \"contracts/atropamath.sol\":2108:2165  uint64 R = uint64(modExp(B, E, M) % 18446744073709551615) */\n      swap9\n        /* \"contracts/atropamath.sol\":1945:2190  function modExp64(uint64 _b, uint64 _e, uint64 _m) public returns(uint64 result) {... */\n      swap8\n      pop\n      pop\n      pop\n      pop\n      pop\n      pop\n      pop\n      pop\n      jump\t// out\n        /* \"contracts/atropamath.sol\":1525:1934  function hashWithHash(address a, uint b) public pure returns (uint256 hash) {        ... */\n    tag_26:\n        /* \"contracts/atropamath.sol\":1587:1599  uint256 hash */\n      0x00\n        /* \"contracts/atropamath.sol\":1658:1659  a */\n      dup3\n        /* \"contracts/atropamath.sol\":1587:1599  uint256 hash */\n      dup2\n        /* \"contracts/atropamath.sol\":1683:1698  uint160(b) / 15 */\n      tag_53\n        /* \"contracts/atropamath.sol\":1696:1698  15 */\n      0x0f\n        /* \"contracts/atropamath.sol\":1691:1692  b */\n      dup6\n        /* \"contracts/atropamath.sol\":1683:1698  uint160(b) / 15 */\n      tag_54\n      jump\t// in\n    tag_53:\n        /* \"contracts/atropamath.sol\":1670:1698  uint160 _b = uint160(b) / 15 */\n      swap1\n      pop\n        /* \"contracts/atropamath.sol\":1732:1837  while(hash == 0) {... */\n    tag_55:\n        /* \"contracts/atropamath.sol\":1738:1742  hash */\n      dup3\n        /* \"contracts/atropamath.sol\":1746:1747  0 */\n      0x00\n        /* \"contracts/atropamath.sol\":1738:1747  hash == 0 */\n      sub\n        /* \"contracts/atropamath.sol\":1732:1837  while(hash == 0) {... */\n      tag_56\n      jumpi\n        /* \"contracts/atropamath.sol\":194:209  953467954114363 */\n      0x03632c8eb5af3b\n      sub(shl(0xa0, 0x01), 0x01)\n        /* \"contracts/atropamath.sol\":1775:1781  _a**_b */\n      dup1\n      dup4\n      and\n      dup5\n      dup3\n      and\n      exp\n        /* \"contracts/atropamath.sol\":1774:1795  (_a**_b)%MotzkinPrime */\n      and\n      mod\n      sub(shl(0xa0, 0x01), 0x01)\n        /* \"contracts/atropamath.sol\":1767:1795  hash = (_a**_b)%MotzkinPrime */\n      and\n      swap3\n      pop\n        /* \"contracts/atropamath.sol\":1821:1822  2 */\n      0x02\n        /* \"contracts/atropamath.sol\":1818:1820  _b */\n      dup2\n      sub(shl(0xa0, 0x01), 0x01)\n        /* \"contracts/atropamath.sol\":1818:1822  _b/2 */\n      and\n      dup2\n      tag_61\n      jumpi\n      tag_61\n      tag_59\n      jump\t// in\n    tag_61:\n      div\n        /* \"contracts/atropamath.sol\":1813:1822  _b = _b/2 */\n      swap1\n      pop\n        /* \"contracts/atropamath.sol\":1732:1837  while(hash == 0) {... */\n      jump(tag_55)\n    tag_56:\n        /* \"contracts/atropamath.sol\":1601:1934  {        ... */\n      pop\n      pop\n        /* \"contracts/atropamath.sol\":1525:1934  function hashWithHash(address a, uint b) public pure returns (uint256 hash) {        ... */\n      swap3\n      swap2\n      pop\n      pop\n      jump\t// out\n        /* \"contracts/atropamath.sol\":680:1105  function hashWithD(address a, address b, address c, address g) public pure returns (uint256 hash) {        ... */\n    tag_31:\n        /* \"contracts/atropamath.sol\":764:776  uint256 hash */\n      0x00\n      dup1\n        /* \"contracts/atropamath.sol\":832:847  uint160(b) / 15 */\n      tag_63\n        /* \"contracts/atropamath.sol\":845:847  15 */\n      0x0f\n        /* \"contracts/atropamath.sol\":840:841  b */\n      dup7\n        /* \"contracts/atropamath.sol\":832:847  uint160(b) / 15 */\n      tag_54\n      jump\t// in\n    tag_63:\n        /* \"contracts/atropamath.sol\":819:847  uint160 _b = uint160(b) / 15 */\n      swap1\n      pop\n        /* \"contracts/atropamath.sol\":881:1008  while(hash == 0) {... */\n    tag_64:\n        /* \"contracts/atropamath.sol\":887:891  hash */\n      dup2\n        /* \"contracts/atropamath.sol\":895:896  0 */\n      0x00\n        /* \"contracts/atropamath.sol\":887:896  hash == 0 */\n      sub\n        /* \"contracts/atropamath.sol\":881:1008  while(hash == 0) {... */\n      tag_65\n      jumpi\n        /* \"contracts/atropamath.sol\":194:209  953467954114363 */\n      0x03632c8eb5af3b\n        /* \"contracts/atropamath.sol\":939:952  hashWith(c,g) */\n      tag_66\n        /* \"contracts/atropamath.sol\":948:949  c */\n      dup6\n        /* \"contracts/atropamath.sol\":950:951  g */\n      dup6\n        /* \"contracts/atropamath.sol\":939:947  hashWith */\n      tag_44\n        /* \"contracts/atropamath.sol\":939:952  hashWith(c,g) */\n      jump\t// in\n    tag_66:\n        /* \"contracts/atropamath.sol\":924:937  hashWith(a,b) */\n      tag_67\n        /* \"contracts/atropamath.sol\":933:934  a */\n      dup9\n        /* \"contracts/atropamath.sol\":935:936  b */\n      dup9\n        /* \"contracts/atropamath.sol\":924:932  hashWith */\n      tag_44\n        /* \"contracts/atropamath.sol\":924:937  hashWith(a,b) */\n      jump\t// in\n    tag_67:\n        /* \"contracts/atropamath.sol\":924:952  hashWith(a,b)**hashWith(c,g) */\n      exp\n        /* \"contracts/atropamath.sol\":923:966  (hashWith(a,b)**hashWith(c,g))%MotzkinPrime */\n      dup2\n      tag_69\n      jumpi\n      tag_69\n      tag_59\n      jump\t// in\n    tag_69:\n      mod\n      swap2\n      pop\n        /* \"contracts/atropamath.sol\":992:993  2 */\n      0x02\n      sub(shl(0xa0, 0x01), 0x01)\n        /* \"contracts/atropamath.sol\":989:993  _b/2 */\n      dup3\n      and\n      div\n        /* \"contracts/atropamath.sol\":984:993  _b = _b/2 */\n      swap1\n      pop\n        /* \"contracts/atropamath.sol\":881:1008  while(hash == 0) {... */\n      jump(tag_64)\n    tag_65:\n        /* \"contracts/atropamath.sol\":778:1105  {        ... */\n      pop\n        /* \"contracts/atropamath.sol\":680:1105  function hashWithD(address a, address b, address c, address g) public pure returns (uint256 hash) {        ... */\n      swap5\n      swap4\n      pop\n      pop\n      pop\n      pop\n      jump\t// out\n        /* \"contracts/atropamath.sol\":3078:4202  function sortThree(uint64 a, uint64 b, uint64 c) public pure returns (uint64, uint64, uint64) {... */\n    tag_35:\n        /* \"contracts/atropamath.sol\":3148:3154  uint64 */\n      0x00\n        /* \"contracts/atropamath.sol\":3156:3162  uint64 */\n      dup1\n        /* \"contracts/atropamath.sol\":3164:3170  uint64 */\n      0x00\n        /* \"contracts/atropamath.sol\":3231:3232  b */\n      dup5\n      sub(shl(0x40, 0x01), 0x01)\n        /* \"contracts/atropamath.sol\":3226:3232  a == b */\n      and\n        /* \"contracts/atropamath.sol\":3226:3227  a */\n      dup7\n      sub(shl(0x40, 0x01), 0x01)\n        /* \"contracts/atropamath.sol\":3226:3232  a == b */\n      and\n      eq\n        /* \"contracts/atropamath.sol\":3226:3242  a == b && b == c */\n      dup1\n      iszero\n      tag_73\n      jumpi\n      pop\n        /* \"contracts/atropamath.sol\":3241:3242  c */\n      dup4\n      sub(shl(0x40, 0x01), 0x01)\n        /* \"contracts/atropamath.sol\":3236:3242  b == c */\n      and\n        /* \"contracts/atropamath.sol\":3236:3237  b */\n      dup6\n      sub(shl(0x40, 0x01), 0x01)\n        /* \"contracts/atropamath.sol\":3236:3242  b == c */\n      and\n      eq\n        /* \"contracts/atropamath.sol\":3226:3242  a == b && b == c */\n    tag_73:\n        /* \"contracts/atropamath.sol\":3222:3302  if (a == b && b == c) {... */\n      iszero\n      tag_74\n      jumpi\n      pop\n        /* \"contracts/atropamath.sol\":3266:3267  0 */\n      0x00\n      swap2\n      pop\n      dup2\n      swap1\n      pop\n        /* \"contracts/atropamath.sol\":3272:3273  a */\n      dup5\n        /* \"contracts/atropamath.sol\":3258:3274  return (0, 0, a) */\n      jump(tag_95)\n        /* \"contracts/atropamath.sol\":3222:3302  if (a == b && b == c) {... */\n    tag_74:\n        /* \"contracts/atropamath.sol\":3363:3364  b */\n      dup5\n      sub(shl(0x40, 0x01), 0x01)\n        /* \"contracts/atropamath.sol\":3358:3364  a == b */\n      and\n        /* \"contracts/atropamath.sol\":3358:3359  a */\n      dup7\n      sub(shl(0x40, 0x01), 0x01)\n        /* \"contracts/atropamath.sol\":3358:3364  a == b */\n      and\n      sub\n        /* \"contracts/atropamath.sol\":3354:3429  if (a == b) {... */\n      tag_75\n      jumpi\n        /* \"contracts/atropamath.sol\":3388:3389  0 */\n      0x00\n        /* \"contracts/atropamath.sol\":3391:3392  a */\n      dup7\n        /* \"contracts/atropamath.sol\":3398:3399  a */\n      dup8\n      sub(shl(0x40, 0x01), 0x01)\n        /* \"contracts/atropamath.sol\":3394:3399  c > a */\n      and\n        /* \"contracts/atropamath.sol\":3394:3395  c */\n      dup7\n      sub(shl(0x40, 0x01), 0x01)\n        /* \"contracts/atropamath.sol\":3394:3399  c > a */\n      and\n      gt\n        /* \"contracts/atropamath.sol\":3394:3407  c > a ? c : a */\n      tag_76\n      jumpi\n        /* \"contracts/atropamath.sol\":3406:3407  a */\n      dup8\n        /* \"contracts/atropamath.sol\":3394:3407  c > a ? c : a */\n      jump(tag_77)\n    tag_76:\n        /* \"contracts/atropamath.sol\":3402:3403  c */\n      dup6\n        /* \"contracts/atropamath.sol\":3394:3407  c > a ? c : a */\n    tag_77:\n        /* \"contracts/atropamath.sol\":3380:3408  return (0, a, c > a ? c : a) */\n      swap3\n      pop\n      swap3\n      pop\n      swap3\n      pop\n      jump(tag_95)\n        /* \"contracts/atropamath.sol\":3354:3429  if (a == b) {... */\n    tag_75:\n        /* \"contracts/atropamath.sol\":3447:3448  c */\n      dup4\n      sub(shl(0x40, 0x01), 0x01)\n        /* \"contracts/atropamath.sol\":3442:3448  a == c */\n      and\n        /* \"contracts/atropamath.sol\":3442:3443  a */\n      dup7\n      sub(shl(0x40, 0x01), 0x01)\n        /* \"contracts/atropamath.sol\":3442:3448  a == c */\n      and\n      sub\n        /* \"contracts/atropamath.sol\":3438:3513  if (a == c) {... */\n      tag_78\n      jumpi\n        /* \"contracts/atropamath.sol\":3472:3473  0 */\n      0x00\n        /* \"contracts/atropamath.sol\":3475:3476  a */\n      dup7\n        /* \"contracts/atropamath.sol\":3482:3483  a */\n      dup8\n      sub(shl(0x40, 0x01), 0x01)\n        /* \"contracts/atropamath.sol\":3478:3483  b > a */\n      and\n        /* \"contracts/atropamath.sol\":3478:3479  b */\n      dup8\n      sub(shl(0x40, 0x01), 0x01)\n        /* \"contracts/atropamath.sol\":3478:3483  b > a */\n      and\n      gt\n        /* \"contracts/atropamath.sol\":3478:3491  b > a ? b : a */\n      tag_79\n      jumpi\n        /* \"contracts/atropamath.sol\":3490:3491  a */\n      dup8\n        /* \"contracts/atropamath.sol\":3478:3491  b > a ? b : a */\n      jump(tag_77)\n    tag_79:\n        /* \"contracts/atropamath.sol\":3486:3487  b */\n      dup7\n        /* \"contracts/atropamath.sol\":3464:3492  return (0, a, b > a ? b : a) */\n      swap3\n      pop\n      swap3\n      pop\n      swap3\n      pop\n      jump(tag_95)\n        /* \"contracts/atropamath.sol\":3438:3513  if (a == c) {... */\n    tag_78:\n        /* \"contracts/atropamath.sol\":3531:3532  c */\n      dup4\n      sub(shl(0x40, 0x01), 0x01)\n        /* \"contracts/atropamath.sol\":3526:3532  b == c */\n      and\n        /* \"contracts/atropamath.sol\":3526:3527  b */\n      dup6\n      sub(shl(0x40, 0x01), 0x01)\n        /* \"contracts/atropamath.sol\":3526:3532  b == c */\n      and\n      sub\n        /* \"contracts/atropamath.sol\":3522:3597  if (b == c) {... */\n      tag_81\n      jumpi\n        /* \"contracts/atropamath.sol\":3556:3557  0 */\n      0x00\n        /* \"contracts/atropamath.sol\":3559:3560  b */\n      dup6\n        /* \"contracts/atropamath.sol\":3566:3567  b */\n      dup7\n      sub(shl(0x40, 0x01), 0x01)\n        /* \"contracts/atropamath.sol\":3562:3567  a > b */\n      and\n        /* \"contracts/atropamath.sol\":3562:3563  a */\n      dup9\n      sub(shl(0x40, 0x01), 0x01)\n        /* \"contracts/atropamath.sol\":3562:3567  a > b */\n      and\n      gt\n        /* \"contracts/atropamath.sol\":3562:3575  a > b ? a : b */\n      tag_82\n      jumpi\n        /* \"contracts/atropamath.sol\":3574:3575  b */\n      dup7\n        /* \"contracts/atropamath.sol\":3562:3575  a > b ? a : b */\n      jump(tag_77)\n    tag_82:\n        /* \"contracts/atropamath.sol\":3570:3571  a */\n      dup8\n        /* \"contracts/atropamath.sol\":3548:3576  return (0, b, a > b ? a : b) */\n      swap3\n      pop\n      swap3\n      pop\n      swap3\n      pop\n      jump(tag_95)\n        /* \"contracts/atropamath.sol\":3522:3597  if (b == c) {... */\n    tag_81:\n        /* \"contracts/atropamath.sol\":3651:3652  b */\n      dup5\n      sub(shl(0x40, 0x01), 0x01)\n        /* \"contracts/atropamath.sol\":3646:3652  a <= b */\n      and\n        /* \"contracts/atropamath.sol\":3646:3647  a */\n      dup7\n      sub(shl(0x40, 0x01), 0x01)\n        /* \"contracts/atropamath.sol\":3646:3652  a <= b */\n      and\n      gt\n      iszero\n        /* \"contracts/atropamath.sol\":3646:3662  a <= b && a <= c */\n      dup1\n      iszero\n      tag_84\n      jumpi\n      pop\n        /* \"contracts/atropamath.sol\":3661:3662  c */\n      dup4\n      sub(shl(0x40, 0x01), 0x01)\n        /* \"contracts/atropamath.sol\":3656:3662  a <= c */\n      and\n        /* \"contracts/atropamath.sol\":3656:3657  a */\n      dup7\n      sub(shl(0x40, 0x01), 0x01)\n        /* \"contracts/atropamath.sol\":3656:3662  a <= c */\n      and\n      gt\n      iszero\n        /* \"contracts/atropamath.sol\":3646:3662  a <= b && a <= c */\n    tag_84:\n        /* \"contracts/atropamath.sol\":3642:4196  if (a <= b && a <= c) {... */\n      iszero\n      tag_85\n      jumpi\n        /* \"contracts/atropamath.sol\":3687:3688  c */\n      dup4\n      sub(shl(0x40, 0x01), 0x01)\n        /* \"contracts/atropamath.sol\":3682:3688  b <= c */\n      and\n        /* \"contracts/atropamath.sol\":3682:3683  b */\n      dup6\n      sub(shl(0x40, 0x01), 0x01)\n        /* \"contracts/atropamath.sol\":3682:3688  b <= c */\n      and\n      gt\n        /* \"contracts/atropamath.sol\":3678:3820  if (b <= c) {... */\n      tag_86\n      jumpi\n      pop\n        /* \"contracts/atropamath.sol\":3716:3717  a */\n      dup5\n      swap2\n      pop\n        /* \"contracts/atropamath.sol\":3719:3720  b */\n      dup4\n      swap1\n      pop\n        /* \"contracts/atropamath.sol\":3722:3723  c */\n      dup3\n        /* \"contracts/atropamath.sol\":3708:3724  return (a, b, c) */\n      jump(tag_95)\n        /* \"contracts/atropamath.sol\":3678:3820  if (b <= c) {... */\n    tag_86:\n      pop\n        /* \"contracts/atropamath.sol\":3784:3785  a */\n      dup5\n      swap2\n      pop\n        /* \"contracts/atropamath.sol\":3787:3788  c */\n      dup3\n      swap1\n      pop\n        /* \"contracts/atropamath.sol\":3790:3791  b */\n      dup4\n        /* \"contracts/atropamath.sol\":3776:3792  return (a, c, b) */\n      jump(tag_95)\n        /* \"contracts/atropamath.sol\":3642:4196  if (a <= b && a <= c) {... */\n    tag_85:\n        /* \"contracts/atropamath.sol\":3845:3846  a */\n      dup6\n      sub(shl(0x40, 0x01), 0x01)\n        /* \"contracts/atropamath.sol\":3840:3846  b <= a */\n      and\n        /* \"contracts/atropamath.sol\":3840:3841  b */\n      dup6\n      sub(shl(0x40, 0x01), 0x01)\n        /* \"contracts/atropamath.sol\":3840:3846  b <= a */\n      and\n      gt\n      iszero\n        /* \"contracts/atropamath.sol\":3840:3856  b <= a && b <= c */\n      dup1\n      iszero\n      tag_89\n      jumpi\n      pop\n        /* \"contracts/atropamath.sol\":3855:3856  c */\n      dup4\n      sub(shl(0x40, 0x01), 0x01)\n        /* \"contracts/atropamath.sol\":3850:3856  b <= c */\n      and\n        /* \"contracts/atropamath.sol\":3850:3851  b */\n      dup6\n      sub(shl(0x40, 0x01), 0x01)\n        /* \"contracts/atropamath.sol\":3850:3856  b <= c */\n      and\n      gt\n      iszero\n        /* \"contracts/atropamath.sol\":3840:3856  b <= a && b <= c */\n    tag_89:\n        /* \"contracts/atropamath.sol\":3836:4196  if (b <= a && b <= c) {... */\n      iszero\n      tag_90\n      jumpi\n        /* \"contracts/atropamath.sol\":3881:3882  c */\n      dup4\n      sub(shl(0x40, 0x01), 0x01)\n        /* \"contracts/atropamath.sol\":3876:3882  a <= c */\n      and\n        /* \"contracts/atropamath.sol\":3876:3877  a */\n      dup7\n      sub(shl(0x40, 0x01), 0x01)\n        /* \"contracts/atropamath.sol\":3876:3882  a <= c */\n      and\n      gt\n        /* \"contracts/atropamath.sol\":3872:4014  if (a <= c) {... */\n      tag_91\n      jumpi\n      pop\n        /* \"contracts/atropamath.sol\":3910:3911  b */\n      dup4\n      swap2\n      pop\n        /* \"contracts/atropamath.sol\":3913:3914  a */\n      dup5\n      swap1\n      pop\n        /* \"contracts/atropamath.sol\":3916:3917  c */\n      dup3\n        /* \"contracts/atropamath.sol\":3902:3918  return (b, a, c) */\n      jump(tag_95)\n        /* \"contracts/atropamath.sol\":3872:4014  if (a <= c) {... */\n    tag_91:\n      pop\n        /* \"contracts/atropamath.sol\":3978:3979  b */\n      dup4\n      swap2\n      pop\n        /* \"contracts/atropamath.sol\":3981:3982  c */\n      dup3\n      swap1\n      pop\n        /* \"contracts/atropamath.sol\":3984:3985  a */\n      dup5\n        /* \"contracts/atropamath.sol\":3970:3986  return (b, c, a) */\n      jump(tag_95)\n        /* \"contracts/atropamath.sol\":3836:4196  if (b <= a && b <= c) {... */\n    tag_90:\n        /* \"contracts/atropamath.sol\":4053:4054  b */\n      dup5\n      sub(shl(0x40, 0x01), 0x01)\n        /* \"contracts/atropamath.sol\":4048:4054  a <= b */\n      and\n        /* \"contracts/atropamath.sol\":4048:4049  a */\n      dup7\n      sub(shl(0x40, 0x01), 0x01)\n        /* \"contracts/atropamath.sol\":4048:4054  a <= b */\n      and\n      gt\n        /* \"contracts/atropamath.sol\":4044:4186  if (a <= b) {... */\n      tag_94\n      jumpi\n      pop\n        /* \"contracts/atropamath.sol\":4082:4083  c */\n      dup3\n      swap2\n      pop\n        /* \"contracts/atropamath.sol\":4085:4086  a */\n      dup5\n      swap1\n      pop\n        /* \"contracts/atropamath.sol\":4088:4089  b */\n      dup4\n        /* \"contracts/atropamath.sol\":4074:4090  return (c, a, b) */\n      jump(tag_95)\n        /* \"contracts/atropamath.sol\":4044:4186  if (a <= b) {... */\n    tag_94:\n      pop\n        /* \"contracts/atropamath.sol\":4150:4151  c */\n      dup3\n      swap2\n      pop\n        /* \"contracts/atropamath.sol\":4153:4154  b */\n      dup4\n      swap1\n      pop\n        /* \"contracts/atropamath.sol\":4156:4157  a */\n      dup5\n        /* \"contracts/atropamath.sol\":4044:4186  if (a <= b) {... */\n    tag_95:\n        /* \"contracts/atropamath.sol\":3078:4202  function sortThree(uint64 a, uint64 b, uint64 c) public pure returns (uint64, uint64, uint64) {... */\n      swap4\n      pop\n      swap4\n      pop\n      swap4\n      swap1\n      pop\n      jump\t// out\n        /* \"contracts/atropamath.sol\":1110:1518  function hashWith(address a, address b) public pure returns (uint256 hash) {        ... */\n    tag_44:\n        /* \"contracts/atropamath.sol\":1171:1183  uint256 hash */\n      0x00\n        /* \"contracts/atropamath.sol\":1242:1243  a */\n      dup3\n        /* \"contracts/atropamath.sol\":1171:1183  uint256 hash */\n      dup2\n        /* \"contracts/atropamath.sol\":1267:1282  uint160(b) / 15 */\n      tag_97\n        /* \"contracts/atropamath.sol\":1280:1282  15 */\n      0x0f\n        /* \"contracts/atropamath.sol\":1275:1276  b */\n      dup6\n        /* \"contracts/atropamath.sol\":1267:1282  uint160(b) / 15 */\n      tag_54\n      jump\t// in\n    tag_97:\n        /* \"contracts/atropamath.sol\":1254:1282  uint160 _b = uint160(b) / 15 */\n      swap1\n      pop\n        /* \"contracts/atropamath.sol\":1316:1421  while(hash == 0) {... */\n    tag_98:\n        /* \"contracts/atropamath.sol\":1322:1326  hash */\n      dup3\n        /* \"contracts/atropamath.sol\":1330:1331  0 */\n      0x00\n        /* \"contracts/atropamath.sol\":1322:1331  hash == 0 */\n      sub\n        /* \"contracts/atropamath.sol\":1316:1421  while(hash == 0) {... */\n      tag_56\n      jumpi\n        /* \"contracts/atropamath.sol\":194:209  953467954114363 */\n      0x03632c8eb5af3b\n      sub(shl(0xa0, 0x01), 0x01)\n        /* \"contracts/atropamath.sol\":1359:1365  _a**_b */\n      dup1\n      dup4\n      and\n      dup5\n      dup3\n      and\n      exp\n        /* \"contracts/atropamath.sol\":1358:1379  (_a**_b)%MotzkinPrime */\n      and\n      mod\n      sub(shl(0xa0, 0x01), 0x01)\n        /* \"contracts/atropamath.sol\":1351:1379  hash = (_a**_b)%MotzkinPrime */\n      and\n      swap3\n      pop\n        /* \"contracts/atropamath.sol\":1405:1406  2 */\n      0x02\n        /* \"contracts/atropamath.sol\":1402:1404  _b */\n      dup2\n      sub(shl(0xa0, 0x01), 0x01)\n        /* \"contracts/atropamath.sol\":1402:1406  _b/2 */\n      and\n      dup2\n      tag_103\n      jumpi\n      tag_103\n      tag_59\n      jump\t// in\n    tag_103:\n      div\n        /* \"contracts/atropamath.sol\":1397:1406  _b = _b/2 */\n      swap1\n      pop\n        /* \"contracts/atropamath.sol\":1316:1421  while(hash == 0) {... */\n      jump(tag_98)\n        /* \"#utility.yul\":14:480   */\n    tag_12:\n        /* \"#utility.yul\":91:97   */\n      0x00\n        /* \"#utility.yul\":99:105   */\n      dup1\n        /* \"#utility.yul\":107:113   */\n      0x00\n        /* \"#utility.yul\":160:162   */\n      0x60\n        /* \"#utility.yul\":148:157   */\n      dup5\n        /* \"#utility.yul\":139:146   */\n      dup7\n        /* \"#utility.yul\":135:158   */\n      sub\n        /* \"#utility.yul\":131:163   */\n      slt\n        /* \"#utility.yul\":128:180   */\n      iszero\n      tag_108\n      jumpi\n        /* \"#utility.yul\":176:177   */\n      0x00\n        /* \"#utility.yul\":173:174   */\n      dup1\n        /* \"#utility.yul\":166:178   */\n      revert\n        /* \"#utility.yul\":128:180   */\n    tag_108:\n      pop\n      pop\n        /* \"#utility.yul\":221:244   */\n      dup2\n      calldataload\n      swap4\n        /* \"#utility.yul\":341:343   */\n      0x20\n        /* \"#utility.yul\":326:344   */\n      dup4\n      add\n        /* \"#utility.yul\":313:345   */\n      calldataload\n      swap4\n      pop\n        /* \"#utility.yul\":444:446   */\n      0x40\n        /* \"#utility.yul\":429:447   */\n      swap1\n      swap3\n      add\n        /* \"#utility.yul\":416:448   */\n      calldataload\n      swap2\n        /* \"#utility.yul\":14:480   */\n      swap1\n      pop\n      jump\t// out\n        /* \"#utility.yul\":675:846   */\n    tag_104:\n        /* \"#utility.yul\":742:762   */\n      dup1\n      calldataload\n      sub(shl(0x40, 0x01), 0x01)\n        /* \"#utility.yul\":791:821   */\n      dup2\n      and\n        /* \"#utility.yul\":781:822   */\n      dup2\n      eq\n        /* \"#utility.yul\":771:840   */\n      tag_111\n      jumpi\n        /* \"#utility.yul\":836:837   */\n      0x00\n        /* \"#utility.yul\":833:834   */\n      dup1\n        /* \"#utility.yul\":826:838   */\n      revert\n        /* \"#utility.yul\":771:840   */\n    tag_111:\n        /* \"#utility.yul\":675:846   */\n      swap2\n      swap1\n      pop\n      jump\t// out\n        /* \"#utility.yul\":851:1179   */\n    tag_19:\n        /* \"#utility.yul\":925:931   */\n      0x00\n        /* \"#utility.yul\":933:939   */\n      dup1\n        /* \"#utility.yul\":941:947   */\n      0x00\n        /* \"#utility.yul\":994:996   */\n      0x60\n        /* \"#utility.yul\":982:991   */\n      dup5\n        /* \"#utility.yul\":973:980   */\n      dup7\n        /* \"#utility.yul\":969:992   */\n      sub\n        /* \"#utility.yul\":965:997   */\n      slt\n        /* \"#utility.yul\":962:1014   */\n      iszero\n      tag_113\n      jumpi\n        /* \"#utility.yul\":1010:1011   */\n      0x00\n        /* \"#utility.yul\":1007:1008   */\n      dup1\n        /* \"#utility.yul\":1000:1012   */\n      revert\n        /* \"#utility.yul\":962:1014   */\n    tag_113:\n        /* \"#utility.yul\":1033:1061   */\n      tag_114\n        /* \"#utility.yul\":1051:1060   */\n      dup5\n        /* \"#utility.yul\":1033:1061   */\n      tag_104\n      jump\t// in\n    tag_114:\n        /* \"#utility.yul\":1023:1061   */\n      swap3\n      pop\n        /* \"#utility.yul\":1080:1117   */\n      tag_115\n        /* \"#utility.yul\":1113:1115   */\n      0x20\n        /* \"#utility.yul\":1102:1111   */\n      dup6\n        /* \"#utility.yul\":1098:1116   */\n      add\n        /* \"#utility.yul\":1080:1117   */\n      tag_104\n      jump\t// in\n    tag_115:\n        /* \"#utility.yul\":1070:1117   */\n      swap2\n      pop\n        /* \"#utility.yul\":1136:1173   */\n      tag_116\n        /* \"#utility.yul\":1169:1171   */\n      0x40\n        /* \"#utility.yul\":1158:1167   */\n      dup6\n        /* \"#utility.yul\":1154:1172   */\n      add\n        /* \"#utility.yul\":1136:1173   */\n      tag_104\n      jump\t// in\n    tag_116:\n        /* \"#utility.yul\":1126:1173   */\n      swap1\n      pop\n        /* \"#utility.yul\":851:1179   */\n      swap3\n      pop\n      swap3\n      pop\n      swap3\n      jump\t// out\n        /* \"#utility.yul\":1397:1570   */\n    tag_105:\n        /* \"#utility.yul\":1465:1485   */\n      dup1\n      calldataload\n      sub(shl(0xa0, 0x01), 0x01)\n        /* \"#utility.yul\":1514:1545   */\n      dup2\n      and\n        /* \"#utility.yul\":1504:1546   */\n      dup2\n      eq\n        /* \"#utility.yul\":1494:1564   */\n      tag_111\n      jumpi\n        /* \"#utility.yul\":1560:1561   */\n      0x00\n        /* \"#utility.yul\":1557:1558   */\n      dup1\n        /* \"#utility.yul\":1550:1562   */\n      revert\n        /* \"#utility.yul\":1575:1875   */\n    tag_25:\n        /* \"#utility.yul\":1643:1649   */\n      0x00\n        /* \"#utility.yul\":1651:1657   */\n      dup1\n        /* \"#utility.yul\":1704:1706   */\n      0x40\n        /* \"#utility.yul\":1692:1701   */\n      dup4\n        /* \"#utility.yul\":1683:1690   */\n      dup6\n        /* \"#utility.yul\":1679:1702   */\n      sub\n        /* \"#utility.yul\":1675:1707   */\n      slt\n        /* \"#utility.yul\":1672:1724   */\n      iszero\n      tag_121\n      jumpi\n        /* \"#utility.yul\":1720:1721   */\n      0x00\n        /* \"#utility.yul\":1717:1718   */\n      dup1\n        /* \"#utility.yul\":1710:1722   */\n      revert\n        /* \"#utility.yul\":1672:1724   */\n    tag_121:\n        /* \"#utility.yul\":1743:1772   */\n      tag_122\n        /* \"#utility.yul\":1762:1771   */\n      dup4\n        /* \"#utility.yul\":1743:1772   */\n      tag_105\n      jump\t// in\n    tag_122:\n        /* \"#utility.yul\":1733:1772   */\n      swap5\n        /* \"#utility.yul\":1841:1843   */\n      0x20\n        /* \"#utility.yul\":1826:1844   */\n      swap4\n      swap1\n      swap4\n      add\n        /* \"#utility.yul\":1813:1845   */\n      calldataload\n      swap4\n      pop\n      pop\n      pop\n        /* \"#utility.yul\":1575:1875   */\n      jump\t// out\n        /* \"#utility.yul\":1880:2289   */\n    tag_30:\n        /* \"#utility.yul\":1966:1972   */\n      0x00\n        /* \"#utility.yul\":1974:1980   */\n      dup1\n        /* \"#utility.yul\":1982:1988   */\n      0x00\n        /* \"#utility.yul\":1990:1996   */\n      dup1\n        /* \"#utility.yul\":2043:2046   */\n      0x80\n        /* \"#utility.yul\":2031:2040   */\n      dup6\n        /* \"#utility.yul\":2022:2029   */\n      dup8\n        /* \"#utility.yul\":2018:2041   */\n      sub\n        /* \"#utility.yul\":2014:2047   */\n      slt\n        /* \"#utility.yul\":2011:2064   */\n      iszero\n      tag_124\n      jumpi\n        /* \"#utility.yul\":2060:2061   */\n      0x00\n        /* \"#utility.yul\":2057:2058   */\n      dup1\n        /* \"#utility.yul\":2050:2062   */\n      revert\n        /* \"#utility.yul\":2011:2064   */\n    tag_124:\n        /* \"#utility.yul\":2083:2112   */\n      tag_125\n        /* \"#utility.yul\":2102:2111   */\n      dup6\n        /* \"#utility.yul\":2083:2112   */\n      tag_105\n      jump\t// in\n    tag_125:\n        /* \"#utility.yul\":2073:2112   */\n      swap4\n      pop\n        /* \"#utility.yul\":2131:2169   */\n      tag_126\n        /* \"#utility.yul\":2165:2167   */\n      0x20\n        /* \"#utility.yul\":2154:2163   */\n      dup7\n        /* \"#utility.yul\":2150:2168   */\n      add\n        /* \"#utility.yul\":2131:2169   */\n      tag_105\n      jump\t// in\n    tag_126:\n        /* \"#utility.yul\":2121:2169   */\n      swap3\n      pop\n        /* \"#utility.yul\":2188:2226   */\n      tag_127\n        /* \"#utility.yul\":2222:2224   */\n      0x40\n        /* \"#utility.yul\":2211:2220   */\n      dup7\n        /* \"#utility.yul\":2207:2225   */\n      add\n        /* \"#utility.yul\":2188:2226   */\n      tag_105\n      jump\t// in\n    tag_127:\n        /* \"#utility.yul\":2178:2226   */\n      swap2\n      pop\n        /* \"#utility.yul\":2245:2283   */\n      tag_128\n        /* \"#utility.yul\":2279:2281   */\n      0x60\n        /* \"#utility.yul\":2268:2277   */\n      dup7\n        /* \"#utility.yul\":2264:2282   */\n      add\n        /* \"#utility.yul\":2245:2283   */\n      tag_105\n      jump\t// in\n    tag_128:\n        /* \"#utility.yul\":2235:2283   */\n      swap1\n      pop\n        /* \"#utility.yul\":1880:2289   */\n      swap3\n      swap6\n      swap2\n      swap5\n      pop\n      swap3\n      pop\n      jump\t// out\n        /* \"#utility.yul\":2695:2955   */\n    tag_43:\n        /* \"#utility.yul\":2763:2769   */\n      0x00\n        /* \"#utility.yul\":2771:2777   */\n      dup1\n        /* \"#utility.yul\":2824:2826   */\n      0x40\n        /* \"#utility.yul\":2812:2821   */\n      dup4\n        /* \"#utility.yul\":2803:2810   */\n      dup6\n        /* \"#utility.yul\":2799:2822   */\n      sub\n        /* \"#utility.yul\":2795:2827   */\n      slt\n        /* \"#utility.yul\":2792:2844   */\n      iszero\n      tag_131\n      jumpi\n        /* \"#utility.yul\":2840:2841   */\n      0x00\n        /* \"#utility.yul\":2837:2838   */\n      dup1\n        /* \"#utility.yul\":2830:2842   */\n      revert\n        /* \"#utility.yul\":2792:2844   */\n    tag_131:\n        /* \"#utility.yul\":2863:2892   */\n      tag_132\n        /* \"#utility.yul\":2882:2891   */\n      dup4\n        /* \"#utility.yul\":2863:2892   */\n      tag_105\n      jump\t// in\n    tag_132:\n        /* \"#utility.yul\":2853:2892   */\n      swap2\n      pop\n        /* \"#utility.yul\":2911:2949   */\n      tag_133\n        /* \"#utility.yul\":2945:2947   */\n      0x20\n        /* \"#utility.yul\":2934:2943   */\n      dup5\n        /* \"#utility.yul\":2930:2948   */\n      add\n        /* \"#utility.yul\":2911:2949   */\n      tag_105\n      jump\t// in\n    tag_133:\n        /* \"#utility.yul\":2901:2949   */\n      swap1\n      pop\n        /* \"#utility.yul\":2695:2955   */\n      swap3\n      pop\n      swap3\n      swap1\n      pop\n      jump\t// out\n        /* \"#utility.yul\":2960:3087   */\n    tag_59:\n        /* \"#utility.yul\":3021:3031   */\n      0x4e487b71\n        /* \"#utility.yul\":3016:3019   */\n      0xe0\n        /* \"#utility.yul\":3012:3032   */\n      shl\n        /* \"#utility.yul\":3009:3010   */\n      0x00\n        /* \"#utility.yul\":3002:3033   */\n      mstore\n        /* \"#utility.yul\":3052:3056   */\n      0x12\n        /* \"#utility.yul\":3049:3050   */\n      0x04\n        /* \"#utility.yul\":3042:3057   */\n      mstore\n        /* \"#utility.yul\":3076:3080   */\n      0x24\n        /* \"#utility.yul\":3073:3074   */\n      0x00\n        /* \"#utility.yul\":3066:3081   */\n      revert\n        /* \"#utility.yul\":3092:3204   */\n    tag_51:\n        /* \"#utility.yul\":3124:3125   */\n      0x00\n        /* \"#utility.yul\":3150:3151   */\n      dup3\n        /* \"#utility.yul\":3140:3175   */\n      tag_137\n      jumpi\n        /* \"#utility.yul\":3155:3173   */\n      tag_137\n      tag_59\n      jump\t// in\n    tag_137:\n      pop\n        /* \"#utility.yul\":3189:3198   */\n      mod\n      swap1\n        /* \"#utility.yul\":3092:3204   */\n      jump\t// out\n        /* \"#utility.yul\":3209:3406   */\n    tag_54:\n        /* \"#utility.yul\":3249:3250   */\n      0x00\n      sub(shl(0xa0, 0x01), 0x01)\n        /* \"#utility.yul\":3276:3303   */\n      dup4\n      and\n      dup1\n        /* \"#utility.yul\":3312:3349   */\n      tag_140\n      jumpi\n        /* \"#utility.yul\":3329:3347   */\n      tag_140\n      tag_59\n      jump\t// in\n    tag_140:\n      sub(shl(0xa0, 0x01), 0x01)\n        /* \"#utility.yul\":3367:3394   */\n      swap3\n      swap1\n      swap3\n      and\n        /* \"#utility.yul\":3363:3400   */\n      swap2\n      swap1\n      swap2\n      div\n      swap3\n        /* \"#utility.yul\":3209:3406   */\n      swap2\n      pop\n      pop\n      jump\t// out\n\n    auxdata: 0xa26469706673582212200bb49fe34d71c742fb1bf17054219323be48bd312d185c66905e1415055b3ca664736f6c634300081a0033\n}\n",
				"bytecode": {
					"linkReferences": {},
					"object": "610703610034600b8282823980515f1a607314602857634e487b7160e01b5f525f60045260245ffd5b305f52607381538281f3fe7300000000000000000000000000000000000000003014608060405260043610610076575f3560e01c80633148f14f1461007a57806353df6e35146100ac5780636592f007146100e35780636e27811b146100f657806398fdcdd614610109578063d3dc2a0f14610146578063fa6bcfec14610154575b5f80fd5b818015610085575f80fd5b50610099610094366004610534565b610167565b6040519081526020015b60405180910390f35b8180156100b7575f80fd5b506100cb6100c6366004610578565b6101af565b6040516001600160401b0390911681526020016100a3565b6100996100f13660046105ce565b6101e7565b6100996101043660046105f6565b61024c565b61011c610117366004610578565b6102ad565b604080516001600160401b03948516815292841660208401529216918101919091526060016100a3565b6100cb6603632c8eb5af3b81565b610099610162366004610647565b6104d7565b5f60405160208152602080820152602060408201528460608201528360808201528260a082015260c05160208160c0845f60055f19f16101a5575f80fd5b5195945050505050565b5f6001600160401b0380851690848116908481169084906101d1858585610167565b6101db919061068c565b98975050505050505050565b5f82816101f5600f8561069f565b90505b825f03610244576603632c8eb5af3b6001600160a01b038083168482160a16066001600160a01b031692506002816001600160a01b03168161023c5761023c610678565b0490506101f8565b505092915050565b5f80610259600f8661069f565b90505b815f036102a4576603632c8eb5af3b61027585856104d7565b61027f88886104d7565b0a8161028d5761028d610678565b06915060026001600160a01b03821604905061025c565b50949350505050565b5f805f846001600160401b0316866001600160401b03161480156102e25750836001600160401b0316856001600160401b0316145b156102f457505f9150819050846104ce565b846001600160401b0316866001600160401b03160361033b575f86876001600160401b0316866001600160401b03161161032e5787610330565b855b9250925092506104ce565b836001600160401b0316866001600160401b031603610381575f86876001600160401b0316876001600160401b0316116103755787610330565b869250925092506104ce565b836001600160401b0316856001600160401b0316036103c7575f85866001600160401b0316886001600160401b0316116103bb5786610330565b879250925092506104ce565b846001600160401b0316866001600160401b0316111580156103fb5750836001600160401b0316866001600160401b031611155b1561043357836001600160401b0316856001600160401b0316116104265750849150839050826104ce565b50849150829050836104ce565b856001600160401b0316856001600160401b0316111580156104675750836001600160401b0316856001600160401b031611155b1561049f57836001600160401b0316866001600160401b0316116104925750839150849050826104ce565b50839150829050846104ce565b846001600160401b0316866001600160401b0316116104c55750829150849050836104ce565b50829150839050845b93509350939050565b5f82816104e5600f8561069f565b90505b825f03610244576603632c8eb5af3b6001600160a01b038083168482160a16066001600160a01b031692506002816001600160a01b03168161052c5761052c610678565b0490506104e8565b5f805f60608486031215610546575f80fd5b505081359360208301359350604090920135919050565b80356001600160401b0381168114610573575f80fd5b919050565b5f805f6060848603121561058a575f80fd5b6105938461055d565b92506105a16020850161055d565b91506105af6040850161055d565b90509250925092565b80356001600160a01b0381168114610573575f80fd5b5f80604083850312156105df575f80fd5b6105e8836105b8565b946020939093013593505050565b5f805f8060808587031215610609575f80fd5b610612856105b8565b9350610620602086016105b8565b925061062e604086016105b8565b915061063c606086016105b8565b905092959194509250565b5f8060408385031215610658575f80fd5b610661836105b8565b915061066f602084016105b8565b90509250929050565b634e487b7160e01b5f52601260045260245ffd5b5f8261069a5761069a610678565b500690565b5f6001600160a01b038316806106b7576106b7610678565b6001600160a01b0392909216919091049291505056fea26469706673582212200bb49fe34d71c742fb1bf17054219323be48bd312d185c66905e1415055b3ca664736f6c634300081a0033",
					"opcodes": "PUSH2 0x703 PUSH2 0x34 PUSH1 0xB DUP3 DUP3 DUP3 CODECOPY DUP1 MLOAD PUSH0 BYTE PUSH1 0x73 EQ PUSH1 0x28 JUMPI PUSH4 0x4E487B71 PUSH1 0xE0 SHL PUSH0 MSTORE PUSH0 PUSH1 0x4 MSTORE PUSH1 0x24 PUSH0 REVERT JUMPDEST ADDRESS PUSH0 MSTORE PUSH1 0x73 DUP2 MSTORE8 DUP3 DUP2 RETURN INVALID PUSH20 0x0 ADDRESS EQ PUSH1 0x80 PUSH1 0x40 MSTORE PUSH1 0x4 CALLDATASIZE LT PUSH2 0x76 JUMPI PUSH0 CALLDATALOAD PUSH1 0xE0 SHR DUP1 PUSH4 0x3148F14F EQ PUSH2 0x7A JUMPI DUP1 PUSH4 0x53DF6E35 EQ PUSH2 0xAC JUMPI DUP1 PUSH4 0x6592F007 EQ PUSH2 0xE3 JUMPI DUP1 PUSH4 0x6E27811B EQ PUSH2 0xF6 JUMPI DUP1 PUSH4 0x98FDCDD6 EQ PUSH2 0x109 JUMPI DUP1 PUSH4 0xD3DC2A0F EQ PUSH2 0x146 JUMPI DUP1 PUSH4 0xFA6BCFEC EQ PUSH2 0x154 JUMPI JUMPDEST PUSH0 DUP1 REVERT JUMPDEST DUP2 DUP1 ISZERO PUSH2 0x85 JUMPI PUSH0 DUP1 REVERT JUMPDEST POP PUSH2 0x99 PUSH2 0x94 CALLDATASIZE PUSH1 0x4 PUSH2 0x534 JUMP JUMPDEST PUSH2 0x167 JUMP JUMPDEST PUSH1 0x40 MLOAD SWAP1 DUP2 MSTORE PUSH1 0x20 ADD JUMPDEST PUSH1 0x40 MLOAD DUP1 SWAP2 SUB SWAP1 RETURN JUMPDEST DUP2 DUP1 ISZERO PUSH2 0xB7 JUMPI PUSH0 DUP1 REVERT JUMPDEST POP PUSH2 0xCB PUSH2 0xC6 CALLDATASIZE PUSH1 0x4 PUSH2 0x578 JUMP JUMPDEST PUSH2 0x1AF JUMP JUMPDEST PUSH1 0x40 MLOAD PUSH1 0x1 PUSH1 0x1 PUSH1 0x40 SHL SUB SWAP1 SWAP2 AND DUP2 MSTORE PUSH1 0x20 ADD PUSH2 0xA3 JUMP JUMPDEST PUSH2 0x99 PUSH2 0xF1 CALLDATASIZE PUSH1 0x4 PUSH2 0x5CE JUMP JUMPDEST PUSH2 0x1E7 JUMP JUMPDEST PUSH2 0x99 PUSH2 0x104 CALLDATASIZE PUSH1 0x4 PUSH2 0x5F6 JUMP JUMPDEST PUSH2 0x24C JUMP JUMPDEST PUSH2 0x11C PUSH2 0x117 CALLDATASIZE PUSH1 0x4 PUSH2 0x578 JUMP JUMPDEST PUSH2 0x2AD JUMP JUMPDEST PUSH1 0x40 DUP1 MLOAD PUSH1 0x1 PUSH1 0x1 PUSH1 0x40 SHL SUB SWAP5 DUP6 AND DUP2 MSTORE SWAP3 DUP5 AND PUSH1 0x20 DUP5 ADD MSTORE SWAP3 AND SWAP2 DUP2 ADD SWAP2 SWAP1 SWAP2 MSTORE PUSH1 0x60 ADD PUSH2 0xA3 JUMP JUMPDEST PUSH2 0xCB PUSH7 0x3632C8EB5AF3B DUP2 JUMP JUMPDEST PUSH2 0x99 PUSH2 0x162 CALLDATASIZE PUSH1 0x4 PUSH2 0x647 JUMP JUMPDEST PUSH2 0x4D7 JUMP JUMPDEST PUSH0 PUSH1 0x40 MLOAD PUSH1 0x20 DUP2 MSTORE PUSH1 0x20 DUP1 DUP3 ADD MSTORE PUSH1 0x20 PUSH1 0x40 DUP3 ADD MSTORE DUP5 PUSH1 0x60 DUP3 ADD MSTORE DUP4 PUSH1 0x80 DUP3 ADD MSTORE DUP3 PUSH1 0xA0 DUP3 ADD MSTORE PUSH1 0xC0 MLOAD PUSH1 0x20 DUP2 PUSH1 0xC0 DUP5 PUSH0 PUSH1 0x5 PUSH0 NOT CALL PUSH2 0x1A5 JUMPI PUSH0 DUP1 REVERT JUMPDEST MLOAD SWAP6 SWAP5 POP POP POP POP POP JUMP JUMPDEST PUSH0 PUSH1 0x1 PUSH1 0x1 PUSH1 0x40 SHL SUB DUP1 DUP6 AND SWAP1 DUP5 DUP2 AND SWAP1 DUP5 DUP2 AND SWAP1 DUP5 SWAP1 PUSH2 0x1D1 DUP6 DUP6 DUP6 PUSH2 0x167 JUMP JUMPDEST PUSH2 0x1DB SWAP2 SWAP1 PUSH2 0x68C JUMP JUMPDEST SWAP9 SWAP8 POP POP POP POP POP POP POP POP JUMP JUMPDEST PUSH0 DUP3 DUP2 PUSH2 0x1F5 PUSH1 0xF DUP6 PUSH2 0x69F JUMP JUMPDEST SWAP1 POP JUMPDEST DUP3 PUSH0 SUB PUSH2 0x244 JUMPI PUSH7 0x3632C8EB5AF3B PUSH1 0x1 PUSH1 0x1 PUSH1 0xA0 SHL SUB DUP1 DUP4 AND DUP5 DUP3 AND EXP AND MOD PUSH1 0x1 PUSH1 0x1 PUSH1 0xA0 SHL SUB AND SWAP3 POP PUSH1 0x2 DUP2 PUSH1 0x1 PUSH1 0x1 PUSH1 0xA0 SHL SUB AND DUP2 PUSH2 0x23C JUMPI PUSH2 0x23C PUSH2 0x678 JUMP JUMPDEST DIV SWAP1 POP PUSH2 0x1F8 JUMP JUMPDEST POP POP SWAP3 SWAP2 POP POP JUMP JUMPDEST PUSH0 DUP1 PUSH2 0x259 PUSH1 0xF DUP7 PUSH2 0x69F JUMP JUMPDEST SWAP1 POP JUMPDEST DUP2 PUSH0 SUB PUSH2 0x2A4 JUMPI PUSH7 0x3632C8EB5AF3B PUSH2 0x275 DUP6 DUP6 PUSH2 0x4D7 JUMP JUMPDEST PUSH2 0x27F DUP9 DUP9 PUSH2 0x4D7 JUMP JUMPDEST EXP DUP2 PUSH2 0x28D JUMPI PUSH2 0x28D PUSH2 0x678 JUMP JUMPDEST MOD SWAP2 POP PUSH1 0x2 PUSH1 0x1 PUSH1 0x1 PUSH1 0xA0 SHL SUB DUP3 AND DIV SWAP1 POP PUSH2 0x25C JUMP JUMPDEST POP SWAP5 SWAP4 POP POP POP POP JUMP JUMPDEST PUSH0 DUP1 PUSH0 DUP5 PUSH1 0x1 PUSH1 0x1 PUSH1 0x40 SHL SUB AND DUP7 PUSH1 0x1 PUSH1 0x1 PUSH1 0x40 SHL SUB AND EQ DUP1 ISZERO PUSH2 0x2E2 JUMPI POP DUP4 PUSH1 0x1 PUSH1 0x1 PUSH1 0x40 SHL SUB AND DUP6 PUSH1 0x1 PUSH1 0x1 PUSH1 0x40 SHL SUB AND EQ JUMPDEST ISZERO PUSH2 0x2F4 JUMPI POP PUSH0 SWAP2 POP DUP2 SWAP1 POP DUP5 PUSH2 0x4CE JUMP JUMPDEST DUP5 PUSH1 0x1 PUSH1 0x1 PUSH1 0x40 SHL SUB AND DUP7 PUSH1 0x1 PUSH1 0x1 PUSH1 0x40 SHL SUB AND SUB PUSH2 0x33B JUMPI PUSH0 DUP7 DUP8 PUSH1 0x1 PUSH1 0x1 PUSH1 0x40 SHL SUB AND DUP7 PUSH1 0x1 PUSH1 0x1 PUSH1 0x40 SHL SUB AND GT PUSH2 0x32E JUMPI DUP8 PUSH2 0x330 JUMP JUMPDEST DUP6 JUMPDEST SWAP3 POP SWAP3 POP SWAP3 POP PUSH2 0x4CE JUMP JUMPDEST DUP4 PUSH1 0x1 PUSH1 0x1 PUSH1 0x40 SHL SUB AND DUP7 PUSH1 0x1 PUSH1 0x1 PUSH1 0x40 SHL SUB AND SUB PUSH2 0x381 JUMPI PUSH0 DUP7 DUP8 PUSH1 0x1 PUSH1 0x1 PUSH1 0x40 SHL SUB AND DUP8 PUSH1 0x1 PUSH1 0x1 PUSH1 0x40 SHL SUB AND GT PUSH2 0x375 JUMPI DUP8 PUSH2 0x330 JUMP JUMPDEST DUP7 SWAP3 POP SWAP3 POP SWAP3 POP PUSH2 0x4CE JUMP JUMPDEST DUP4 PUSH1 0x1 PUSH1 0x1 PUSH1 0x40 SHL SUB AND DUP6 PUSH1 0x1 PUSH1 0x1 PUSH1 0x40 SHL SUB AND SUB PUSH2 0x3C7 JUMPI PUSH0 DUP6 DUP7 PUSH1 0x1 PUSH1 0x1 PUSH1 0x40 SHL SUB AND DUP9 PUSH1 0x1 PUSH1 0x1 PUSH1 0x40 SHL SUB AND GT PUSH2 0x3BB JUMPI DUP7 PUSH2 0x330 JUMP JUMPDEST DUP8 SWAP3 POP SWAP3 POP SWAP3 POP PUSH2 0x4CE JUMP JUMPDEST DUP5 PUSH1 0x1 PUSH1 0x1 PUSH1 0x40 SHL SUB AND DUP7 PUSH1 0x1 PUSH1 0x1 PUSH1 0x40 SHL SUB AND GT ISZERO DUP1 ISZERO PUSH2 0x3FB JUMPI POP DUP4 PUSH1 0x1 PUSH1 0x1 PUSH1 0x40 SHL SUB AND DUP7 PUSH1 0x1 PUSH1 0x1 PUSH1 0x40 SHL SUB AND GT ISZERO JUMPDEST ISZERO PUSH2 0x433 JUMPI DUP4 PUSH1 0x1 PUSH1 0x1 PUSH1 0x40 SHL SUB AND DUP6 PUSH1 0x1 PUSH1 0x1 PUSH1 0x40 SHL SUB AND GT PUSH2 0x426 JUMPI POP DUP5 SWAP2 POP DUP4 SWAP1 POP DUP3 PUSH2 0x4CE JUMP JUMPDEST POP DUP5 SWAP2 POP DUP3 SWAP1 POP DUP4 PUSH2 0x4CE JUMP JUMPDEST DUP6 PUSH1 0x1 PUSH1 0x1 PUSH1 0x40 SHL SUB AND DUP6 PUSH1 0x1 PUSH1 0x1 PUSH1 0x40 SHL SUB AND GT ISZERO DUP1 ISZERO PUSH2 0x467 JUMPI POP DUP4 PUSH1 0x1 PUSH1 0x1 PUSH1 0x40 SHL SUB AND DUP6 PUSH1 0x1 PUSH1 0x1 PUSH1 0x40 SHL SUB AND GT ISZERO JUMPDEST ISZERO PUSH2 0x49F JUMPI DUP4 PUSH1 0x1 PUSH1 0x1 PUSH1 0x40 SHL SUB AND DUP7 PUSH1 0x1 PUSH1 0x1 PUSH1 0x40 SHL SUB AND GT PUSH2 0x492 JUMPI POP DUP4 SWAP2 POP DUP5 SWAP1 POP DUP3 PUSH2 0x4CE JUMP JUMPDEST POP DUP4 SWAP2 POP DUP3 SWAP1 POP DUP5 PUSH2 0x4CE JUMP JUMPDEST DUP5 PUSH1 0x1 PUSH1 0x1 PUSH1 0x40 SHL SUB AND DUP7 PUSH1 0x1 PUSH1 0x1 PUSH1 0x40 SHL SUB AND GT PUSH2 0x4C5 JUMPI POP DUP3 SWAP2 POP DUP5 SWAP1 POP DUP4 PUSH2 0x4CE JUMP JUMPDEST POP DUP3 SWAP2 POP DUP4 SWAP1 POP DUP5 JUMPDEST SWAP4 POP SWAP4 POP SWAP4 SWAP1 POP JUMP JUMPDEST PUSH0 DUP3 DUP2 PUSH2 0x4E5 PUSH1 0xF DUP6 PUSH2 0x69F JUMP JUMPDEST SWAP1 POP JUMPDEST DUP3 PUSH0 SUB PUSH2 0x244 JUMPI PUSH7 0x3632C8EB5AF3B PUSH1 0x1 PUSH1 0x1 PUSH1 0xA0 SHL SUB DUP1 DUP4 AND DUP5 DUP3 AND EXP AND MOD PUSH1 0x1 PUSH1 0x1 PUSH1 0xA0 SHL SUB AND SWAP3 POP PUSH1 0x2 DUP2 PUSH1 0x1 PUSH1 0x1 PUSH1 0xA0 SHL SUB AND DUP2 PUSH2 0x52C JUMPI PUSH2 0x52C PUSH2 0x678 JUMP JUMPDEST DIV SWAP1 POP PUSH2 0x4E8 JUMP JUMPDEST PUSH0 DUP1 PUSH0 PUSH1 0x60 DUP5 DUP7 SUB SLT ISZERO PUSH2 0x546 JUMPI PUSH0 DUP1 REVERT JUMPDEST POP POP DUP2 CALLDATALOAD SWAP4 PUSH1 0x20 DUP4 ADD CALLDATALOAD SWAP4 POP PUSH1 0x40 SWAP1 SWAP3 ADD CALLDATALOAD SWAP2 SWAP1 POP JUMP JUMPDEST DUP1 CALLDATALOAD PUSH1 0x1 PUSH1 0x1 PUSH1 0x40 SHL SUB DUP2 AND DUP2 EQ PUSH2 0x573 JUMPI PUSH0 DUP1 REVERT JUMPDEST SWAP2 SWAP1 POP JUMP JUMPDEST PUSH0 DUP1 PUSH0 PUSH1 0x60 DUP5 DUP7 SUB SLT ISZERO PUSH2 0x58A JUMPI PUSH0 DUP1 REVERT JUMPDEST PUSH2 0x593 DUP5 PUSH2 0x55D JUMP JUMPDEST SWAP3 POP PUSH2 0x5A1 PUSH1 0x20 DUP6 ADD PUSH2 0x55D JUMP JUMPDEST SWAP2 POP PUSH2 0x5AF PUSH1 0x40 DUP6 ADD PUSH2 0x55D JUMP JUMPDEST SWAP1 POP SWAP3 POP SWAP3 POP SWAP3 JUMP JUMPDEST DUP1 CALLDATALOAD PUSH1 0x1 PUSH1 0x1 PUSH1 0xA0 SHL SUB DUP2 AND DUP2 EQ PUSH2 0x573 JUMPI PUSH0 DUP1 REVERT JUMPDEST PUSH0 DUP1 PUSH1 0x40 DUP4 DUP6 SUB SLT ISZERO PUSH2 0x5DF JUMPI PUSH0 DUP1 REVERT JUMPDEST PUSH2 0x5E8 DUP4 PUSH2 0x5B8 JUMP JUMPDEST SWAP5 PUSH1 0x20 SWAP4 SWAP1 SWAP4 ADD CALLDATALOAD SWAP4 POP POP POP JUMP JUMPDEST PUSH0 DUP1 PUSH0 DUP1 PUSH1 0x80 DUP6 DUP8 SUB SLT ISZERO PUSH2 0x609 JUMPI PUSH0 DUP1 REVERT JUMPDEST PUSH2 0x612 DUP6 PUSH2 0x5B8 JUMP JUMPDEST SWAP4 POP PUSH2 0x620 PUSH1 0x20 DUP7 ADD PUSH2 0x5B8 JUMP JUMPDEST SWAP3 POP PUSH2 0x62E PUSH1 0x40 DUP7 ADD PUSH2 0x5B8 JUMP JUMPDEST SWAP2 POP PUSH2 0x63C PUSH1 0x60 DUP7 ADD PUSH2 0x5B8 JUMP JUMPDEST SWAP1 POP SWAP3 SWAP6 SWAP2 SWAP5 POP SWAP3 POP JUMP JUMPDEST PUSH0 DUP1 PUSH1 0x40 DUP4 DUP6 SUB SLT ISZERO PUSH2 0x658 JUMPI PUSH0 DUP1 REVERT JUMPDEST PUSH2 0x661 DUP4 PUSH2 0x5B8 JUMP JUMPDEST SWAP2 POP PUSH2 0x66F PUSH1 0x20 DUP5 ADD PUSH2 0x5B8 JUMP JUMPDEST SWAP1 POP SWAP3 POP SWAP3 SWAP1 POP JUMP JUMPDEST PUSH4 0x4E487B71 PUSH1 0xE0 SHL PUSH0 MSTORE PUSH1 0x12 PUSH1 0x4 MSTORE PUSH1 0x24 PUSH0 REVERT JUMPDEST PUSH0 DUP3 PUSH2 0x69A JUMPI PUSH2 0x69A PUSH2 0x678 JUMP JUMPDEST POP MOD SWAP1 JUMP JUMPDEST PUSH0 PUSH1 0x1 PUSH1 0x1 PUSH1 0xA0 SHL SUB DUP4 AND DUP1 PUSH2 0x6B7 JUMPI PUSH2 0x6B7 PUSH2 0x678 JUMP JUMPDEST PUSH1 0x1 PUSH1 0x1 PUSH1 0xA0 SHL SUB SWAP3 SWAP1 SWAP3 AND SWAP2 SWAP1 SWAP2 DIV SWAP3 SWAP2 POP POP JUMP INVALID LOG2 PUSH5 0x6970667358 0x22 SLT KECCAK256 SIGNEXTEND 0xB4 SWAP16 0xE3 0x4D PUSH18 0xC742FB1BF17054219323BE48BD312D185C66 SWAP1 MCOPY EQ ISZERO SDIV JUMPDEST EXTCODECOPY 0xA6 PUSH5 0x736F6C6343 STOP ADDMOD BYTE STOP CALLER "
				},
				"gasEstimates": {
					"creation": {
						"codeDepositCost": "359000",
						"executionCost": "426",
						"totalCost": "359426"
					},
					"external": {
						"MotzkinPrime()": "287",
						"hashWith(address,address)": "infinite",
						"hashWithD(address,address,address,address)": "infinite",
						"hashWithHash(address,uint256)": "infinite",
						"modExp(uint256,uint256,uint256)": "infinite",
						"modExp64(uint64,uint64,uint64)": "infinite",
						"sortThree(uint64,uint64,uint64)": "infinite"
					}
				},
				"methodIdentifiers": {
					"MotzkinPrime()": "d3dc2a0f",
					"hashWith(address,address)": "fa6bcfec",
					"hashWithD(address,address,address,address)": "6e27811b",
					"hashWithHash(address,uint256)": "6592f007",
					"modExp(uint256,uint256,uint256)": "3148f14f",
					"modExp64(uint64,uint64,uint64)": "53df6e35",
					"sortThree(uint64,uint64,uint64)": "98fdcdd6"
				}
			},
			"storageLayout": {
				"storage": [],
				"types": null
			},
			"userdoc": {
				"kind": "user",
				"methods": {},
				"version": 1
			}
		}
	}
}