{
	"contracts/atropamath.sol": {
		"AtropaMath": {
			"abi": [
				{
					"inputs": [],
					"name": "MotzkinPrime",
					"outputs": [
						{
							"internalType": "uint64",
							"name": "",
							"type": "uint64"
						}
					],
					"stateMutability": "view",
					"type": "function"
				},
				{
					"inputs": [
						{
							"internalType": "address",
							"name": "a",
							"type": "address"
						},
						{
							"internalType": "uint256",
							"name": "b",
							"type": "uint256"
						}
					],
					"name": "hashWithHash",
					"outputs": [
						{
							"internalType": "uint256",
							"name": "hash",
							"type": "uint256"
						}
					],
					"stateMutability": "pure",
					"type": "function"
				},
				{
					"inputs": [
						{
							"internalType": "uint64",
							"name": "a",
							"type": "uint64"
						},
						{
							"internalType": "uint64",
							"name": "b",
							"type": "uint64"
						},
						{
							"internalType": "uint64",
							"name": "c",
							"type": "uint64"
						}
					],
					"name": "sortThree",
					"outputs": [
						{
							"internalType": "uint64",
							"name": "",
							"type": "uint64"
						},
						{
							"internalType": "uint64",
							"name": "",
							"type": "uint64"
						},
						{
							"internalType": "uint64",
							"name": "",
							"type": "uint64"
						}
					],
					"stateMutability": "pure",
					"type": "function"
				}
			],
			"devdoc": {
				"kind": "dev",
				"methods": {},
				"version": 1
			},
			"evm": {
				"assembly": "    /* \"contracts/atropamath.sol\":130:3770  library AtropaMath  {... */\n  dataSize(sub_0)\n  dataOffset(sub_0)\n  0x0b\n  dup3\n  dup3\n  dup3\n  codecopy\n  dup1\n  mload\n  0x00\n  byte\n  0x73\n  eq\n  tag_1\n  jumpi\n  mstore(0x00, shl(0xe0, 0x4e487b71))\n  mstore(0x04, 0x00)\n  revert(0x00, 0x24)\ntag_1:\n  mstore(0x00, address)\n  0x73\n  dup2\n  mstore8\n  dup3\n  dup2\n  return\nstop\n\nsub_0: assembly {\n        /* \"contracts/atropamath.sol\":130:3770  library AtropaMath  {... */\n      eq(address, deployTimeAddress())\n      mstore(0x40, 0x80)\n      jumpi(tag_1, lt(calldatasize, 0x04))\n      shr(0xe0, calldataload(0x00))\n      dup1\n      0x3148f14f\n      eq\n      tag_2\n      jumpi\n      dup1\n      0x53df6e35\n      eq\n      tag_3\n      jumpi\n      dup1\n      0x6592f007\n      eq\n      tag_4\n      jumpi\n      dup1\n      0x98fdcdd6\n      eq\n      tag_5\n      jumpi\n      dup1\n      0xd3dc2a0f\n      eq\n      tag_6\n      jumpi\n      dup1\n      0xfa6bcfec\n      eq\n      tag_7\n      jumpi\n    tag_1:\n      0x00\n      dup1\n      revert\n        /* \"contracts/atropamath.sol\":1757:2629  function modExp(uint256 _b, uint256 _e, uint256 _m) public returns (uint256 result) {... */\n    tag_2:\n      dup2\n      dup1\n      iszero\n      tag_8\n      jumpi\n      0x00\n      dup1\n      revert\n    tag_8:\n      pop\n      tag_9\n      tag_10\n      calldatasize\n      0x04\n      tag_11\n      jump\t// in\n    tag_10:\n      tag_12\n      jump\t// in\n    tag_9:\n      mload(0x40)\n        /* \"#utility.yul\":639:664   */\n      swap1\n      dup2\n      mstore\n        /* \"#utility.yul\":627:629   */\n      0x20\n        /* \"#utility.yul\":612:630   */\n      add\n        /* \"contracts/atropamath.sol\":1757:2629  function modExp(uint256 _b, uint256 _e, uint256 _m) public returns (uint256 result) {... */\n    tag_13:\n      mload(0x40)\n      dup1\n      swap2\n      sub\n      swap1\n      return\n        /* \"contracts/atropamath.sol\":1506:1751  function modExp64(uint64 _b, uint64 _e, uint64 _m) public returns(uint64 result) {... */\n    tag_3:\n      dup2\n      dup1\n      iszero\n      tag_15\n      jumpi\n      0x00\n      dup1\n      revert\n    tag_15:\n      pop\n      tag_16\n      tag_17\n      calldatasize\n      0x04\n      tag_18\n      jump\t// in\n    tag_17:\n      tag_19\n      jump\t// in\n    tag_16:\n      mload(0x40)\n      sub(shl(0x40, 0x01), 0x01)\n        /* \"#utility.yul\":1354:1385   */\n      swap1\n      swap2\n      and\n        /* \"#utility.yul\":1336:1386   */\n      dup2\n      mstore\n        /* \"#utility.yul\":1324:1326   */\n      0x20\n        /* \"#utility.yul\":1309:1327   */\n      add\n        /* \"contracts/atropamath.sol\":1506:1751  function modExp64(uint64 _b, uint64 _e, uint64 _m) public returns(uint64 result) {... */\n      tag_13\n        /* \"#utility.yul\":1184:1392   */\n      jump\n        /* \"contracts/atropamath.sol\":1086:1495  function hashWithHash(address a, uint b) public pure returns (uint256 hash) {        ... */\n    tag_4:\n      tag_9\n      tag_23\n      calldatasize\n      0x04\n      tag_24\n      jump\t// in\n    tag_23:\n      tag_25\n      jump\t// in\n        /* \"contracts/atropamath.sol\":2639:3763  function sortThree(uint64 a, uint64 b, uint64 c) public pure returns (uint64, uint64, uint64) {... */\n    tag_5:\n      tag_27\n      tag_28\n      calldatasize\n      0x04\n      tag_18\n      jump\t// in\n    tag_28:\n      tag_29\n      jump\t// in\n    tag_27:\n      0x40\n      dup1\n      mload\n      sub(shl(0x40, 0x01), 0x01)\n        /* \"#utility.yul\":2102:2133   */\n      swap5\n      dup6\n      and\n        /* \"#utility.yul\":2084:2134   */\n      dup2\n      mstore\n        /* \"#utility.yul\":2170:2201   */\n      swap3\n      dup5\n      and\n        /* \"#utility.yul\":2165:2167   */\n      0x20\n        /* \"#utility.yul\":2150:2168   */\n      dup5\n      add\n        /* \"#utility.yul\":2143:2202   */\n      mstore\n        /* \"#utility.yul\":2238:2269   */\n      swap3\n      and\n        /* \"#utility.yul\":2218:2236   */\n      swap2\n      dup2\n      add\n        /* \"#utility.yul\":2211:2270   */\n      swap2\n      swap1\n      swap2\n      mstore\n        /* \"#utility.yul\":2072:2074   */\n      0x60\n        /* \"#utility.yul\":2057:2075   */\n      add\n        /* \"contracts/atropamath.sol\":2639:3763  function sortThree(uint64 a, uint64 b, uint64 c) public pure returns (uint64, uint64, uint64) {... */\n      tag_13\n        /* \"#utility.yul\":1880:2276   */\n      jump\n        /* \"contracts/atropamath.sol\":156:209  uint64 constant public MotzkinPrime = 953467954114363 */\n    tag_6:\n      tag_16\n        /* \"contracts/atropamath.sol\":194:209  953467954114363 */\n      0x03632c8eb5af3b\n        /* \"contracts/atropamath.sol\":156:209  uint64 constant public MotzkinPrime = 953467954114363 */\n      dup2\n      jump\n        /* \"contracts/atropamath.sol\":678:1079  function hashWith(address a, address b) public returns (uint256 hash) {        ... */\n    tag_7:\n      dup2\n      dup1\n      iszero\n      tag_35\n      jumpi\n      0x00\n      dup1\n      revert\n    tag_35:\n      pop\n      tag_9\n      tag_37\n      calldatasize\n      0x04\n      tag_38\n      jump\t// in\n    tag_37:\n      tag_39\n      jump\t// in\n        /* \"contracts/atropamath.sol\":1757:2629  function modExp(uint256 _b, uint256 _e, uint256 _m) public returns (uint256 result) {... */\n    tag_12:\n        /* \"contracts/atropamath.sol\":1825:1839  uint256 result */\n      0x00\n        /* \"contracts/atropamath.sol\":1930:1934  0x40 */\n      0x40\n        /* \"contracts/atropamath.sol\":1924:1935  mload(0x40) */\n      mload\n        /* \"contracts/atropamath.sol\":2042:2046  0x20 */\n      0x20\n        /* \"contracts/atropamath.sol\":2033:2040  pointer */\n      dup2\n        /* \"contracts/atropamath.sol\":2026:2047  mstore(pointer, 0x20) */\n      mstore\n        /* \"contracts/atropamath.sol\":2087:2091  0x20 */\n      0x20\n        /* \"contracts/atropamath.sol\":2080:2084  0x20 */\n      dup1\n        /* \"contracts/atropamath.sol\":2071:2078  pointer */\n      dup3\n        /* \"contracts/atropamath.sol\":2067:2085  add(pointer, 0x20) */\n      add\n        /* \"contracts/atropamath.sol\":2060:2092  mstore(add(pointer, 0x20), 0x20) */\n      mstore\n        /* \"contracts/atropamath.sol\":2132:2136  0x20 */\n      0x20\n        /* \"contracts/atropamath.sol\":2125:2129  0x40 */\n      0x40\n        /* \"contracts/atropamath.sol\":2116:2123  pointer */\n      dup3\n        /* \"contracts/atropamath.sol\":2112:2130  add(pointer, 0x40) */\n      add\n        /* \"contracts/atropamath.sol\":2105:2137  mstore(add(pointer, 0x40), 0x20) */\n      mstore\n        /* \"contracts/atropamath.sol\":2237:2239  _b */\n      dup5\n        /* \"contracts/atropamath.sol\":2230:2234  0x60 */\n      0x60\n        /* \"contracts/atropamath.sol\":2221:2228  pointer */\n      dup3\n        /* \"contracts/atropamath.sol\":2217:2235  add(pointer, 0x60) */\n      add\n        /* \"contracts/atropamath.sol\":2210:2240  mstore(add(pointer, 0x60), _b) */\n      mstore\n        /* \"contracts/atropamath.sol\":2280:2282  _e */\n      dup4\n        /* \"contracts/atropamath.sol\":2273:2277  0x80 */\n      0x80\n        /* \"contracts/atropamath.sol\":2264:2271  pointer */\n      dup3\n        /* \"contracts/atropamath.sol\":2260:2278  add(pointer, 0x80) */\n      add\n        /* \"contracts/atropamath.sol\":2253:2283  mstore(add(pointer, 0x80), _e) */\n      mstore\n        /* \"contracts/atropamath.sol\":2323:2325  _m */\n      dup3\n        /* \"contracts/atropamath.sol\":2316:2320  0xa0 */\n      0xa0\n        /* \"contracts/atropamath.sol\":2307:2314  pointer */\n      dup3\n        /* \"contracts/atropamath.sol\":2303:2321  add(pointer, 0xa0) */\n      add\n        /* \"contracts/atropamath.sol\":2296:2326  mstore(add(pointer, 0xa0), _m) */\n      mstore\n        /* \"contracts/atropamath.sol\":2391:2395  0xc0 */\n      0xc0\n        /* \"contracts/atropamath.sol\":2385:2396  mload(0xc0) */\n      mload\n        /* \"contracts/atropamath.sol\":2526:2530  0x20 */\n      0x20\n        /* \"contracts/atropamath.sol\":2519:2524  value */\n      dup2\n        /* \"contracts/atropamath.sol\":2513:2517  0xc0 */\n      0xc0\n        /* \"contracts/atropamath.sol\":2504:2511  pointer */\n      dup5\n        /* \"contracts/atropamath.sol\":2501:2502  0 */\n      0x00\n        /* \"contracts/atropamath.sol\":2495:2499  0x05 */\n      0x05\n        /* \"contracts/atropamath.sol\":2491:2492  0 */\n      0x00\n        /* \"contracts/atropamath.sol\":2487:2493  not(0) */\n      not\n        /* \"contracts/atropamath.sol\":2482:2531  call(not(0), 0x05, 0, pointer, 0xc0, value, 0x20) */\n      call\n        /* \"contracts/atropamath.sol\":2472:2577  if iszero(call(not(0), 0x05, 0, pointer, 0xc0, value, 0x20)) {... */\n      tag_42\n      jumpi\n        /* \"contracts/atropamath.sol\":2561:2562  0 */\n      0x00\n        /* \"contracts/atropamath.sol\":2558:2559  0 */\n      dup1\n        /* \"contracts/atropamath.sol\":2551:2563  revert(0, 0) */\n      revert\n        /* \"contracts/atropamath.sol\":2472:2577  if iszero(call(not(0), 0x05, 0, pointer, 0xc0, value, 0x20)) {... */\n    tag_42:\n        /* \"contracts/atropamath.sol\":2601:2613  mload(value) */\n      mload\n      swap6\n        /* \"contracts/atropamath.sol\":1757:2629  function modExp(uint256 _b, uint256 _e, uint256 _m) public returns (uint256 result) {... */\n      swap5\n      pop\n      pop\n      pop\n      pop\n      pop\n      jump\t// out\n        /* \"contracts/atropamath.sol\":1506:1751  function modExp64(uint64 _b, uint64 _e, uint64 _m) public returns(uint64 result) {... */\n    tag_19:\n        /* \"contracts/atropamath.sol\":1572:1585  uint64 result */\n      0x00\n      sub(shl(0x40, 0x01), 0x01)\n        /* \"contracts/atropamath.sol\":1597:1611  uint256 B = _b */\n      dup1\n      dup6\n      and\n      swap1\n        /* \"contracts/atropamath.sol\":1621:1635  uint256 E = _e */\n      dup5\n      dup2\n      and\n      swap1\n        /* \"contracts/atropamath.sol\":1645:1659  uint256 M = _m */\n      dup5\n      dup2\n      and\n      swap1\n        /* \"contracts/atropamath.sol\":1572:1585  uint64 result */\n      dup5\n      swap1\n        /* \"contracts/atropamath.sol\":1687:1702  modExp(B, E, M) */\n      tag_44\n        /* \"contracts/atropamath.sol\":1597:1611  uint256 B = _b */\n      dup6\n        /* \"contracts/atropamath.sol\":1621:1635  uint256 E = _e */\n      dup6\n        /* \"contracts/atropamath.sol\":1645:1659  uint256 M = _m */\n      dup6\n        /* \"contracts/atropamath.sol\":1687:1693  modExp */\n      tag_12\n        /* \"contracts/atropamath.sol\":1687:1702  modExp(B, E, M) */\n      jump\t// in\n    tag_44:\n        /* \"contracts/atropamath.sol\":1687:1725  modExp(B, E, M) % 18446744073709551615 */\n      tag_45\n      swap2\n      swap1\n      tag_46\n      jump\t// in\n    tag_45:\n        /* \"contracts/atropamath.sol\":1669:1726  uint64 R = uint64(modExp(B, E, M) % 18446744073709551615) */\n      swap9\n        /* \"contracts/atropamath.sol\":1506:1751  function modExp64(uint64 _b, uint64 _e, uint64 _m) public returns(uint64 result) {... */\n      swap8\n      pop\n      pop\n      pop\n      pop\n      pop\n      pop\n      pop\n      pop\n      jump\t// out\n        /* \"contracts/atropamath.sol\":1086:1495  function hashWithHash(address a, uint b) public pure returns (uint256 hash) {        ... */\n    tag_25:\n        /* \"contracts/atropamath.sol\":1148:1160  uint256 hash */\n      0x00\n        /* \"contracts/atropamath.sol\":1219:1220  a */\n      dup3\n        /* \"contracts/atropamath.sol\":1148:1160  uint256 hash */\n      dup2\n        /* \"contracts/atropamath.sol\":1244:1259  uint160(b) / 15 */\n      tag_48\n        /* \"contracts/atropamath.sol\":1257:1259  15 */\n      0x0f\n        /* \"contracts/atropamath.sol\":1252:1253  b */\n      dup6\n        /* \"contracts/atropamath.sol\":1244:1259  uint160(b) / 15 */\n      tag_49\n      jump\t// in\n    tag_48:\n        /* \"contracts/atropamath.sol\":1231:1259  uint160 _b = uint160(b) / 15 */\n      swap1\n      pop\n        /* \"contracts/atropamath.sol\":1293:1398  while(hash == 0) {... */\n    tag_50:\n        /* \"contracts/atropamath.sol\":1299:1303  hash */\n      dup3\n        /* \"contracts/atropamath.sol\":1307:1308  0 */\n      0x00\n        /* \"contracts/atropamath.sol\":1299:1308  hash == 0 */\n      sub\n        /* \"contracts/atropamath.sol\":1293:1398  while(hash == 0) {... */\n      tag_51\n      jumpi\n        /* \"contracts/atropamath.sol\":194:209  953467954114363 */\n      0x03632c8eb5af3b\n      sub(shl(0xa0, 0x01), 0x01)\n        /* \"contracts/atropamath.sol\":1336:1342  _a**_b */\n      dup1\n      dup4\n      and\n      dup5\n      dup3\n      and\n      exp\n        /* \"contracts/atropamath.sol\":1335:1356  (_a**_b)%MotzkinPrime */\n      and\n      mod\n      sub(shl(0xa0, 0x01), 0x01)\n        /* \"contracts/atropamath.sol\":1328:1356  hash = (_a**_b)%MotzkinPrime */\n      and\n      swap3\n      pop\n        /* \"contracts/atropamath.sol\":1382:1383  2 */\n      0x02\n        /* \"contracts/atropamath.sol\":1379:1381  _b */\n      dup2\n      sub(shl(0xa0, 0x01), 0x01)\n        /* \"contracts/atropamath.sol\":1379:1383  _b/2 */\n      and\n      dup2\n      tag_56\n      jumpi\n      tag_56\n      tag_54\n      jump\t// in\n    tag_56:\n      div\n        /* \"contracts/atropamath.sol\":1374:1383  _b = _b/2 */\n      swap1\n      pop\n        /* \"contracts/atropamath.sol\":1293:1398  while(hash == 0) {... */\n      jump(tag_50)\n    tag_51:\n        /* \"contracts/atropamath.sol\":1162:1495  {        ... */\n      pop\n      pop\n        /* \"contracts/atropamath.sol\":1086:1495  function hashWithHash(address a, uint b) public pure returns (uint256 hash) {        ... */\n      swap3\n      swap2\n      pop\n      pop\n      jump\t// out\n        /* \"contracts/atropamath.sol\":2639:3763  function sortThree(uint64 a, uint64 b, uint64 c) public pure returns (uint64, uint64, uint64) {... */\n    tag_29:\n        /* \"contracts/atropamath.sol\":2709:2715  uint64 */\n      0x00\n        /* \"contracts/atropamath.sol\":2717:2723  uint64 */\n      dup1\n        /* \"contracts/atropamath.sol\":2725:2731  uint64 */\n      0x00\n        /* \"contracts/atropamath.sol\":2792:2793  b */\n      dup5\n      sub(shl(0x40, 0x01), 0x01)\n        /* \"contracts/atropamath.sol\":2787:2793  a == b */\n      and\n        /* \"contracts/atropamath.sol\":2787:2788  a */\n      dup7\n      sub(shl(0x40, 0x01), 0x01)\n        /* \"contracts/atropamath.sol\":2787:2793  a == b */\n      and\n      eq\n        /* \"contracts/atropamath.sol\":2787:2803  a == b && b == c */\n      dup1\n      iszero\n      tag_58\n      jumpi\n      pop\n        /* \"contracts/atropamath.sol\":2802:2803  c */\n      dup4\n      sub(shl(0x40, 0x01), 0x01)\n        /* \"contracts/atropamath.sol\":2797:2803  b == c */\n      and\n        /* \"contracts/atropamath.sol\":2797:2798  b */\n      dup6\n      sub(shl(0x40, 0x01), 0x01)\n        /* \"contracts/atropamath.sol\":2797:2803  b == c */\n      and\n      eq\n        /* \"contracts/atropamath.sol\":2787:2803  a == b && b == c */\n    tag_58:\n        /* \"contracts/atropamath.sol\":2783:2863  if (a == b && b == c) {... */\n      iszero\n      tag_59\n      jumpi\n      pop\n        /* \"contracts/atropamath.sol\":2827:2828  0 */\n      0x00\n      swap2\n      pop\n      dup2\n      swap1\n      pop\n        /* \"contracts/atropamath.sol\":2833:2834  a */\n      dup5\n        /* \"contracts/atropamath.sol\":2819:2835  return (0, 0, a) */\n      jump(tag_80)\n        /* \"contracts/atropamath.sol\":2783:2863  if (a == b && b == c) {... */\n    tag_59:\n        /* \"contracts/atropamath.sol\":2924:2925  b */\n      dup5\n      sub(shl(0x40, 0x01), 0x01)\n        /* \"contracts/atropamath.sol\":2919:2925  a == b */\n      and\n        /* \"contracts/atropamath.sol\":2919:2920  a */\n      dup7\n      sub(shl(0x40, 0x01), 0x01)\n        /* \"contracts/atropamath.sol\":2919:2925  a == b */\n      and\n      sub\n        /* \"contracts/atropamath.sol\":2915:2990  if (a == b) {... */\n      tag_60\n      jumpi\n        /* \"contracts/atropamath.sol\":2949:2950  0 */\n      0x00\n        /* \"contracts/atropamath.sol\":2952:2953  a */\n      dup7\n        /* \"contracts/atropamath.sol\":2959:2960  a */\n      dup8\n      sub(shl(0x40, 0x01), 0x01)\n        /* \"contracts/atropamath.sol\":2955:2960  c > a */\n      and\n        /* \"contracts/atropamath.sol\":2955:2956  c */\n      dup7\n      sub(shl(0x40, 0x01), 0x01)\n        /* \"contracts/atropamath.sol\":2955:2960  c > a */\n      and\n      gt\n        /* \"contracts/atropamath.sol\":2955:2968  c > a ? c : a */\n      tag_61\n      jumpi\n        /* \"contracts/atropamath.sol\":2967:2968  a */\n      dup8\n        /* \"contracts/atropamath.sol\":2955:2968  c > a ? c : a */\n      jump(tag_62)\n    tag_61:\n        /* \"contracts/atropamath.sol\":2963:2964  c */\n      dup6\n        /* \"contracts/atropamath.sol\":2955:2968  c > a ? c : a */\n    tag_62:\n        /* \"contracts/atropamath.sol\":2941:2969  return (0, a, c > a ? c : a) */\n      swap3\n      pop\n      swap3\n      pop\n      swap3\n      pop\n      jump(tag_80)\n        /* \"contracts/atropamath.sol\":2915:2990  if (a == b) {... */\n    tag_60:\n        /* \"contracts/atropamath.sol\":3008:3009  c */\n      dup4\n      sub(shl(0x40, 0x01), 0x01)\n        /* \"contracts/atropamath.sol\":3003:3009  a == c */\n      and\n        /* \"contracts/atropamath.sol\":3003:3004  a */\n      dup7\n      sub(shl(0x40, 0x01), 0x01)\n        /* \"contracts/atropamath.sol\":3003:3009  a == c */\n      and\n      sub\n        /* \"contracts/atropamath.sol\":2999:3074  if (a == c) {... */\n      tag_63\n      jumpi\n        /* \"contracts/atropamath.sol\":3033:3034  0 */\n      0x00\n        /* \"contracts/atropamath.sol\":3036:3037  a */\n      dup7\n        /* \"contracts/atropamath.sol\":3043:3044  a */\n      dup8\n      sub(shl(0x40, 0x01), 0x01)\n        /* \"contracts/atropamath.sol\":3039:3044  b > a */\n      and\n        /* \"contracts/atropamath.sol\":3039:3040  b */\n      dup8\n      sub(shl(0x40, 0x01), 0x01)\n        /* \"contracts/atropamath.sol\":3039:3044  b > a */\n      and\n      gt\n        /* \"contracts/atropamath.sol\":3039:3052  b > a ? b : a */\n      tag_64\n      jumpi\n        /* \"contracts/atropamath.sol\":3051:3052  a */\n      dup8\n        /* \"contracts/atropamath.sol\":3039:3052  b > a ? b : a */\n      jump(tag_62)\n    tag_64:\n        /* \"contracts/atropamath.sol\":3047:3048  b */\n      dup7\n        /* \"contracts/atropamath.sol\":3025:3053  return (0, a, b > a ? b : a) */\n      swap3\n      pop\n      swap3\n      pop\n      swap3\n      pop\n      jump(tag_80)\n        /* \"contracts/atropamath.sol\":2999:3074  if (a == c) {... */\n    tag_63:\n        /* \"contracts/atropamath.sol\":3092:3093  c */\n      dup4\n      sub(shl(0x40, 0x01), 0x01)\n        /* \"contracts/atropamath.sol\":3087:3093  b == c */\n      and\n        /* \"contracts/atropamath.sol\":3087:3088  b */\n      dup6\n      sub(shl(0x40, 0x01), 0x01)\n        /* \"contracts/atropamath.sol\":3087:3093  b == c */\n      and\n      sub\n        /* \"contracts/atropamath.sol\":3083:3158  if (b == c) {... */\n      tag_66\n      jumpi\n        /* \"contracts/atropamath.sol\":3117:3118  0 */\n      0x00\n        /* \"contracts/atropamath.sol\":3120:3121  b */\n      dup6\n        /* \"contracts/atropamath.sol\":3127:3128  b */\n      dup7\n      sub(shl(0x40, 0x01), 0x01)\n        /* \"contracts/atropamath.sol\":3123:3128  a > b */\n      and\n        /* \"contracts/atropamath.sol\":3123:3124  a */\n      dup9\n      sub(shl(0x40, 0x01), 0x01)\n        /* \"contracts/atropamath.sol\":3123:3128  a > b */\n      and\n      gt\n        /* \"contracts/atropamath.sol\":3123:3136  a > b ? a : b */\n      tag_67\n      jumpi\n        /* \"contracts/atropamath.sol\":3135:3136  b */\n      dup7\n        /* \"contracts/atropamath.sol\":3123:3136  a > b ? a : b */\n      jump(tag_62)\n    tag_67:\n        /* \"contracts/atropamath.sol\":3131:3132  a */\n      dup8\n        /* \"contracts/atropamath.sol\":3109:3137  return (0, b, a > b ? a : b) */\n      swap3\n      pop\n      swap3\n      pop\n      swap3\n      pop\n      jump(tag_80)\n        /* \"contracts/atropamath.sol\":3083:3158  if (b == c) {... */\n    tag_66:\n        /* \"contracts/atropamath.sol\":3212:3213  b */\n      dup5\n      sub(shl(0x40, 0x01), 0x01)\n        /* \"contracts/atropamath.sol\":3207:3213  a <= b */\n      and\n        /* \"contracts/atropamath.sol\":3207:3208  a */\n      dup7\n      sub(shl(0x40, 0x01), 0x01)\n        /* \"contracts/atropamath.sol\":3207:3213  a <= b */\n      and\n      gt\n      iszero\n        /* \"contracts/atropamath.sol\":3207:3223  a <= b && a <= c */\n      dup1\n      iszero\n      tag_69\n      jumpi\n      pop\n        /* \"contracts/atropamath.sol\":3222:3223  c */\n      dup4\n      sub(shl(0x40, 0x01), 0x01)\n        /* \"contracts/atropamath.sol\":3217:3223  a <= c */\n      and\n        /* \"contracts/atropamath.sol\":3217:3218  a */\n      dup7\n      sub(shl(0x40, 0x01), 0x01)\n        /* \"contracts/atropamath.sol\":3217:3223  a <= c */\n      and\n      gt\n      iszero\n        /* \"contracts/atropamath.sol\":3207:3223  a <= b && a <= c */\n    tag_69:\n        /* \"contracts/atropamath.sol\":3203:3757  if (a <= b && a <= c) {... */\n      iszero\n      tag_70\n      jumpi\n        /* \"contracts/atropamath.sol\":3248:3249  c */\n      dup4\n      sub(shl(0x40, 0x01), 0x01)\n        /* \"contracts/atropamath.sol\":3243:3249  b <= c */\n      and\n        /* \"contracts/atropamath.sol\":3243:3244  b */\n      dup6\n      sub(shl(0x40, 0x01), 0x01)\n        /* \"contracts/atropamath.sol\":3243:3249  b <= c */\n      and\n      gt\n        /* \"contracts/atropamath.sol\":3239:3381  if (b <= c) {... */\n      tag_71\n      jumpi\n      pop\n        /* \"contracts/atropamath.sol\":3277:3278  a */\n      dup5\n      swap2\n      pop\n        /* \"contracts/atropamath.sol\":3280:3281  b */\n      dup4\n      swap1\n      pop\n        /* \"contracts/atropamath.sol\":3283:3284  c */\n      dup3\n        /* \"contracts/atropamath.sol\":3269:3285  return (a, b, c) */\n      jump(tag_80)\n        /* \"contracts/atropamath.sol\":3239:3381  if (b <= c) {... */\n    tag_71:\n      pop\n        /* \"contracts/atropamath.sol\":3345:3346  a */\n      dup5\n      swap2\n      pop\n        /* \"contracts/atropamath.sol\":3348:3349  c */\n      dup3\n      swap1\n      pop\n        /* \"contracts/atropamath.sol\":3351:3352  b */\n      dup4\n        /* \"contracts/atropamath.sol\":3337:3353  return (a, c, b) */\n      jump(tag_80)\n        /* \"contracts/atropamath.sol\":3203:3757  if (a <= b && a <= c) {... */\n    tag_70:\n        /* \"contracts/atropamath.sol\":3406:3407  a */\n      dup6\n      sub(shl(0x40, 0x01), 0x01)\n        /* \"contracts/atropamath.sol\":3401:3407  b <= a */\n      and\n        /* \"contracts/atropamath.sol\":3401:3402  b */\n      dup6\n      sub(shl(0x40, 0x01), 0x01)\n        /* \"contracts/atropamath.sol\":3401:3407  b <= a */\n      and\n      gt\n      iszero\n        /* \"contracts/atropamath.sol\":3401:3417  b <= a && b <= c */\n      dup1\n      iszero\n      tag_74\n      jumpi\n      pop\n        /* \"contracts/atropamath.sol\":3416:3417  c */\n      dup4\n      sub(shl(0x40, 0x01), 0x01)\n        /* \"contracts/atropamath.sol\":3411:3417  b <= c */\n      and\n        /* \"contracts/atropamath.sol\":3411:3412  b */\n      dup6\n      sub(shl(0x40, 0x01), 0x01)\n        /* \"contracts/atropamath.sol\":3411:3417  b <= c */\n      and\n      gt\n      iszero\n        /* \"contracts/atropamath.sol\":3401:3417  b <= a && b <= c */\n    tag_74:\n        /* \"contracts/atropamath.sol\":3397:3757  if (b <= a && b <= c) {... */\n      iszero\n      tag_75\n      jumpi\n        /* \"contracts/atropamath.sol\":3442:3443  c */\n      dup4\n      sub(shl(0x40, 0x01), 0x01)\n        /* \"contracts/atropamath.sol\":3437:3443  a <= c */\n      and\n        /* \"contracts/atropamath.sol\":3437:3438  a */\n      dup7\n      sub(shl(0x40, 0x01), 0x01)\n        /* \"contracts/atropamath.sol\":3437:3443  a <= c */\n      and\n      gt\n        /* \"contracts/atropamath.sol\":3433:3575  if (a <= c) {... */\n      tag_76\n      jumpi\n      pop\n        /* \"contracts/atropamath.sol\":3471:3472  b */\n      dup4\n      swap2\n      pop\n        /* \"contracts/atropamath.sol\":3474:3475  a */\n      dup5\n      swap1\n      pop\n        /* \"contracts/atropamath.sol\":3477:3478  c */\n      dup3\n        /* \"contracts/atropamath.sol\":3463:3479  return (b, a, c) */\n      jump(tag_80)\n        /* \"contracts/atropamath.sol\":3433:3575  if (a <= c) {... */\n    tag_76:\n      pop\n        /* \"contracts/atropamath.sol\":3539:3540  b */\n      dup4\n      swap2\n      pop\n        /* \"contracts/atropamath.sol\":3542:3543  c */\n      dup3\n      swap1\n      pop\n        /* \"contracts/atropamath.sol\":3545:3546  a */\n      dup5\n        /* \"contracts/atropamath.sol\":3531:3547  return (b, c, a) */\n      jump(tag_80)\n        /* \"contracts/atropamath.sol\":3397:3757  if (b <= a && b <= c) {... */\n    tag_75:\n        /* \"contracts/atropamath.sol\":3614:3615  b */\n      dup5\n      sub(shl(0x40, 0x01), 0x01)\n        /* \"contracts/atropamath.sol\":3609:3615  a <= b */\n      and\n        /* \"contracts/atropamath.sol\":3609:3610  a */\n      dup7\n      sub(shl(0x40, 0x01), 0x01)\n        /* \"contracts/atropamath.sol\":3609:3615  a <= b */\n      and\n      gt\n        /* \"contracts/atropamath.sol\":3605:3747  if (a <= b) {... */\n      tag_79\n      jumpi\n      pop\n        /* \"contracts/atropamath.sol\":3643:3644  c */\n      dup3\n      swap2\n      pop\n        /* \"contracts/atropamath.sol\":3646:3647  a */\n      dup5\n      swap1\n      pop\n        /* \"contracts/atropamath.sol\":3649:3650  b */\n      dup4\n        /* \"contracts/atropamath.sol\":3635:3651  return (c, a, b) */\n      jump(tag_80)\n        /* \"contracts/atropamath.sol\":3605:3747  if (a <= b) {... */\n    tag_79:\n      pop\n        /* \"contracts/atropamath.sol\":3711:3712  c */\n      dup3\n      swap2\n      pop\n        /* \"contracts/atropamath.sol\":3714:3715  b */\n      dup4\n      swap1\n      pop\n        /* \"contracts/atropamath.sol\":3717:3718  a */\n      dup5\n        /* \"contracts/atropamath.sol\":3605:3747  if (a <= b) {... */\n    tag_80:\n        /* \"contracts/atropamath.sol\":2639:3763  function sortThree(uint64 a, uint64 b, uint64 c) public pure returns (uint64, uint64, uint64) {... */\n      swap4\n      pop\n      swap4\n      pop\n      swap4\n      swap1\n      pop\n      jump\t// out\n        /* \"contracts/atropamath.sol\":678:1079  function hashWith(address a, address b) public returns (uint256 hash) {        ... */\n    tag_39:\n        /* \"contracts/atropamath.sol\":734:746  uint256 hash */\n      0x00\n        /* \"contracts/atropamath.sol\":805:806  a */\n      dup3\n        /* \"contracts/atropamath.sol\":734:746  uint256 hash */\n      dup2\n        /* \"contracts/atropamath.sol\":830:845  uint160(b) / 15 */\n      tag_82\n        /* \"contracts/atropamath.sol\":843:845  15 */\n      0x0f\n        /* \"contracts/atropamath.sol\":838:839  b */\n      dup6\n        /* \"contracts/atropamath.sol\":830:845  uint160(b) / 15 */\n      tag_49\n      jump\t// in\n    tag_82:\n        /* \"contracts/atropamath.sol\":817:845  uint160 _b = uint160(b) / 15 */\n      swap1\n      pop\n        /* \"contracts/atropamath.sol\":879:984  while(hash == 0) {... */\n    tag_83:\n        /* \"contracts/atropamath.sol\":885:889  hash */\n      dup3\n        /* \"contracts/atropamath.sol\":893:894  0 */\n      0x00\n        /* \"contracts/atropamath.sol\":885:894  hash == 0 */\n      sub\n        /* \"contracts/atropamath.sol\":879:984  while(hash == 0) {... */\n      tag_84\n      jumpi\n        /* \"contracts/atropamath.sol\":194:209  953467954114363 */\n      0x03632c8eb5af3b\n      sub(shl(0xa0, 0x01), 0x01)\n        /* \"contracts/atropamath.sol\":922:928  _a**_b */\n      dup1\n      dup4\n      and\n      dup5\n      dup3\n      and\n      exp\n        /* \"contracts/atropamath.sol\":921:942  (_a**_b)%MotzkinPrime */\n      and\n      mod\n      sub(shl(0xa0, 0x01), 0x01)\n        /* \"contracts/atropamath.sol\":914:942  hash = (_a**_b)%MotzkinPrime */\n      and\n      swap3\n      pop\n        /* \"contracts/atropamath.sol\":968:969  2 */\n      0x02\n        /* \"contracts/atropamath.sol\":965:967  _b */\n      dup2\n      sub(shl(0xa0, 0x01), 0x01)\n        /* \"contracts/atropamath.sol\":965:969  _b/2 */\n      and\n      dup2\n      tag_88\n      jumpi\n      tag_88\n      tag_54\n      jump\t// in\n    tag_88:\n      div\n        /* \"contracts/atropamath.sol\":960:969  _b = _b/2 */\n      swap1\n      pop\n        /* \"contracts/atropamath.sol\":879:984  while(hash == 0) {... */\n      jump(tag_83)\n    tag_84:\n        /* \"contracts/atropamath.sol\":1010:1072  modExp(uint256(uint160(a)), uint256(uint160(b)), MotzkinPrime) */\n      tag_89\n      sub(shl(0xa0, 0x01), 0x01)\n        /* \"contracts/atropamath.sol\":1017:1036  uint256(uint160(a)) */\n      dup1\n      dup8\n      and\n      swap1\n        /* \"contracts/atropamath.sol\":1038:1057  uint256(uint160(b)) */\n      dup7\n      and\n        /* \"contracts/atropamath.sol\":194:209  953467954114363 */\n      0x03632c8eb5af3b\n        /* \"contracts/atropamath.sol\":1010:1016  modExp */\n      tag_12\n        /* \"contracts/atropamath.sol\":1010:1072  modExp(uint256(uint160(a)), uint256(uint160(b)), MotzkinPrime) */\n      jump\t// in\n    tag_89:\n        /* \"contracts/atropamath.sol\":1003:1072  return modExp(uint256(uint160(a)), uint256(uint160(b)), MotzkinPrime) */\n      swap6\n        /* \"contracts/atropamath.sol\":678:1079  function hashWith(address a, address b) public returns (uint256 hash) {        ... */\n      swap5\n      pop\n      pop\n      pop\n      pop\n      pop\n      jump\t// out\n        /* \"#utility.yul\":14:480   */\n    tag_11:\n        /* \"#utility.yul\":91:97   */\n      0x00\n        /* \"#utility.yul\":99:105   */\n      dup1\n        /* \"#utility.yul\":107:113   */\n      0x00\n        /* \"#utility.yul\":160:162   */\n      0x60\n        /* \"#utility.yul\":148:157   */\n      dup5\n        /* \"#utility.yul\":139:146   */\n      dup7\n        /* \"#utility.yul\":135:158   */\n      sub\n        /* \"#utility.yul\":131:163   */\n      slt\n        /* \"#utility.yul\":128:180   */\n      iszero\n      tag_94\n      jumpi\n        /* \"#utility.yul\":176:177   */\n      0x00\n        /* \"#utility.yul\":173:174   */\n      dup1\n        /* \"#utility.yul\":166:178   */\n      revert\n        /* \"#utility.yul\":128:180   */\n    tag_94:\n      pop\n      pop\n        /* \"#utility.yul\":221:244   */\n      dup2\n      calldataload\n      swap4\n        /* \"#utility.yul\":341:343   */\n      0x20\n        /* \"#utility.yul\":326:344   */\n      dup4\n      add\n        /* \"#utility.yul\":313:345   */\n      calldataload\n      swap4\n      pop\n        /* \"#utility.yul\":444:446   */\n      0x40\n        /* \"#utility.yul\":429:447   */\n      swap1\n      swap3\n      add\n        /* \"#utility.yul\":416:448   */\n      calldataload\n      swap2\n        /* \"#utility.yul\":14:480   */\n      swap1\n      pop\n      jump\t// out\n        /* \"#utility.yul\":675:846   */\n    tag_90:\n        /* \"#utility.yul\":742:762   */\n      dup1\n      calldataload\n      sub(shl(0x40, 0x01), 0x01)\n        /* \"#utility.yul\":791:821   */\n      dup2\n      and\n        /* \"#utility.yul\":781:822   */\n      dup2\n      eq\n        /* \"#utility.yul\":771:840   */\n      tag_97\n      jumpi\n        /* \"#utility.yul\":836:837   */\n      0x00\n        /* \"#utility.yul\":833:834   */\n      dup1\n        /* \"#utility.yul\":826:838   */\n      revert\n        /* \"#utility.yul\":771:840   */\n    tag_97:\n        /* \"#utility.yul\":675:846   */\n      swap2\n      swap1\n      pop\n      jump\t// out\n        /* \"#utility.yul\":851:1179   */\n    tag_18:\n        /* \"#utility.yul\":925:931   */\n      0x00\n        /* \"#utility.yul\":933:939   */\n      dup1\n        /* \"#utility.yul\":941:947   */\n      0x00\n        /* \"#utility.yul\":994:996   */\n      0x60\n        /* \"#utility.yul\":982:991   */\n      dup5\n        /* \"#utility.yul\":973:980   */\n      dup7\n        /* \"#utility.yul\":969:992   */\n      sub\n        /* \"#utility.yul\":965:997   */\n      slt\n        /* \"#utility.yul\":962:1014   */\n      iszero\n      tag_99\n      jumpi\n        /* \"#utility.yul\":1010:1011   */\n      0x00\n        /* \"#utility.yul\":1007:1008   */\n      dup1\n        /* \"#utility.yul\":1000:1012   */\n      revert\n        /* \"#utility.yul\":962:1014   */\n    tag_99:\n        /* \"#utility.yul\":1033:1061   */\n      tag_100\n        /* \"#utility.yul\":1051:1060   */\n      dup5\n        /* \"#utility.yul\":1033:1061   */\n      tag_90\n      jump\t// in\n    tag_100:\n        /* \"#utility.yul\":1023:1061   */\n      swap3\n      pop\n        /* \"#utility.yul\":1080:1117   */\n      tag_101\n        /* \"#utility.yul\":1113:1115   */\n      0x20\n        /* \"#utility.yul\":1102:1111   */\n      dup6\n        /* \"#utility.yul\":1098:1116   */\n      add\n        /* \"#utility.yul\":1080:1117   */\n      tag_90\n      jump\t// in\n    tag_101:\n        /* \"#utility.yul\":1070:1117   */\n      swap2\n      pop\n        /* \"#utility.yul\":1136:1173   */\n      tag_102\n        /* \"#utility.yul\":1169:1171   */\n      0x40\n        /* \"#utility.yul\":1158:1167   */\n      dup6\n        /* \"#utility.yul\":1154:1172   */\n      add\n        /* \"#utility.yul\":1136:1173   */\n      tag_90\n      jump\t// in\n    tag_102:\n        /* \"#utility.yul\":1126:1173   */\n      swap1\n      pop\n        /* \"#utility.yul\":851:1179   */\n      swap3\n      pop\n      swap3\n      pop\n      swap3\n      jump\t// out\n        /* \"#utility.yul\":1397:1570   */\n    tag_91:\n        /* \"#utility.yul\":1465:1485   */\n      dup1\n      calldataload\n      sub(shl(0xa0, 0x01), 0x01)\n        /* \"#utility.yul\":1514:1545   */\n      dup2\n      and\n        /* \"#utility.yul\":1504:1546   */\n      dup2\n      eq\n        /* \"#utility.yul\":1494:1564   */\n      tag_97\n      jumpi\n        /* \"#utility.yul\":1560:1561   */\n      0x00\n        /* \"#utility.yul\":1557:1558   */\n      dup1\n        /* \"#utility.yul\":1550:1562   */\n      revert\n        /* \"#utility.yul\":1575:1875   */\n    tag_24:\n        /* \"#utility.yul\":1643:1649   */\n      0x00\n        /* \"#utility.yul\":1651:1657   */\n      dup1\n        /* \"#utility.yul\":1704:1706   */\n      0x40\n        /* \"#utility.yul\":1692:1701   */\n      dup4\n        /* \"#utility.yul\":1683:1690   */\n      dup6\n        /* \"#utility.yul\":1679:1702   */\n      sub\n        /* \"#utility.yul\":1675:1707   */\n      slt\n        /* \"#utility.yul\":1672:1724   */\n      iszero\n      tag_107\n      jumpi\n        /* \"#utility.yul\":1720:1721   */\n      0x00\n        /* \"#utility.yul\":1717:1718   */\n      dup1\n        /* \"#utility.yul\":1710:1722   */\n      revert\n        /* \"#utility.yul\":1672:1724   */\n    tag_107:\n        /* \"#utility.yul\":1743:1772   */\n      tag_108\n        /* \"#utility.yul\":1762:1771   */\n      dup4\n        /* \"#utility.yul\":1743:1772   */\n      tag_91\n      jump\t// in\n    tag_108:\n        /* \"#utility.yul\":1733:1772   */\n      swap5\n        /* \"#utility.yul\":1841:1843   */\n      0x20\n        /* \"#utility.yul\":1826:1844   */\n      swap4\n      swap1\n      swap4\n      add\n        /* \"#utility.yul\":1813:1845   */\n      calldataload\n      swap4\n      pop\n      pop\n      pop\n        /* \"#utility.yul\":1575:1875   */\n      jump\t// out\n        /* \"#utility.yul\":2281:2541   */\n    tag_38:\n        /* \"#utility.yul\":2349:2355   */\n      0x00\n        /* \"#utility.yul\":2357:2363   */\n      dup1\n        /* \"#utility.yul\":2410:2412   */\n      0x40\n        /* \"#utility.yul\":2398:2407   */\n      dup4\n        /* \"#utility.yul\":2389:2396   */\n      dup6\n        /* \"#utility.yul\":2385:2408   */\n      sub\n        /* \"#utility.yul\":2381:2413   */\n      slt\n        /* \"#utility.yul\":2378:2430   */\n      iszero\n      tag_111\n      jumpi\n        /* \"#utility.yul\":2426:2427   */\n      0x00\n        /* \"#utility.yul\":2423:2424   */\n      dup1\n        /* \"#utility.yul\":2416:2428   */\n      revert\n        /* \"#utility.yul\":2378:2430   */\n    tag_111:\n        /* \"#utility.yul\":2449:2478   */\n      tag_112\n        /* \"#utility.yul\":2468:2477   */\n      dup4\n        /* \"#utility.yul\":2449:2478   */\n      tag_91\n      jump\t// in\n    tag_112:\n        /* \"#utility.yul\":2439:2478   */\n      swap2\n      pop\n        /* \"#utility.yul\":2497:2535   */\n      tag_113\n        /* \"#utility.yul\":2531:2533   */\n      0x20\n        /* \"#utility.yul\":2520:2529   */\n      dup5\n        /* \"#utility.yul\":2516:2534   */\n      add\n        /* \"#utility.yul\":2497:2535   */\n      tag_91\n      jump\t// in\n    tag_113:\n        /* \"#utility.yul\":2487:2535   */\n      swap1\n      pop\n        /* \"#utility.yul\":2281:2541   */\n      swap3\n      pop\n      swap3\n      swap1\n      pop\n      jump\t// out\n        /* \"#utility.yul\":2546:2673   */\n    tag_54:\n        /* \"#utility.yul\":2607:2617   */\n      0x4e487b71\n        /* \"#utility.yul\":2602:2605   */\n      0xe0\n        /* \"#utility.yul\":2598:2618   */\n      shl\n        /* \"#utility.yul\":2595:2596   */\n      0x00\n        /* \"#utility.yul\":2588:2619   */\n      mstore\n        /* \"#utility.yul\":2638:2642   */\n      0x12\n        /* \"#utility.yul\":2635:2636   */\n      0x04\n        /* \"#utility.yul\":2628:2643   */\n      mstore\n        /* \"#utility.yul\":2662:2666   */\n      0x24\n        /* \"#utility.yul\":2659:2660   */\n      0x00\n        /* \"#utility.yul\":2652:2667   */\n      revert\n        /* \"#utility.yul\":2678:2790   */\n    tag_46:\n        /* \"#utility.yul\":2710:2711   */\n      0x00\n        /* \"#utility.yul\":2736:2737   */\n      dup3\n        /* \"#utility.yul\":2726:2761   */\n      tag_117\n      jumpi\n        /* \"#utility.yul\":2741:2759   */\n      tag_117\n      tag_54\n      jump\t// in\n    tag_117:\n      pop\n        /* \"#utility.yul\":2775:2784   */\n      mod\n      swap1\n        /* \"#utility.yul\":2678:2790   */\n      jump\t// out\n        /* \"#utility.yul\":2795:2992   */\n    tag_49:\n        /* \"#utility.yul\":2835:2836   */\n      0x00\n      sub(shl(0xa0, 0x01), 0x01)\n        /* \"#utility.yul\":2862:2889   */\n      dup4\n      and\n      dup1\n        /* \"#utility.yul\":2898:2935   */\n      tag_120\n      jumpi\n        /* \"#utility.yul\":2915:2933   */\n      tag_120\n      tag_54\n      jump\t// in\n    tag_120:\n      sub(shl(0xa0, 0x01), 0x01)\n        /* \"#utility.yul\":2953:2980   */\n      swap3\n      swap1\n      swap3\n      and\n        /* \"#utility.yul\":2949:2986   */\n      swap2\n      swap1\n      swap2\n      div\n      swap3\n        /* \"#utility.yul\":2795:2992   */\n      swap2\n      pop\n      pop\n      jump\t// out\n\n    auxdata: 0xa26469706673582212208b2b9a5b50fb99d07efd9c8d75a3770de37ff0df78e9a7fbf0839bf78373e56264736f6c634300081a0033\n}\n",
				"bytecode": {
					"linkReferences": {},
					"object": "610666610034600b8282823980515f1a607314602857634e487b7160e01b5f525f60045260245ffd5b305f52607381538281f3fe730000000000000000000000000000000000000000301460806040526004361061006b575f3560e01c80633148f14f1461006f57806353df6e35146100a15780636592f007146100d857806398fdcdd6146100eb578063d3dc2a0f14610128578063fa6bcfec14610136575b5f80fd5b81801561007a575f80fd5b5061008e6100893660046104e8565b610155565b6040519081526020015b60405180910390f35b8180156100ac575f80fd5b506100c06100bb36600461052c565b61019d565b6040516001600160401b039091168152602001610098565b61008e6100e6366004610582565b6101d5565b6100fe6100f936600461052c565b61023a565b604080516001600160401b0394851681529284166020840152921691810191909152606001610098565b6100c06603632c8eb5af3b81565b818015610141575f80fd5b5061008e6101503660046105aa565b610464565b5f60405160208152602080820152602060408201528460608201528360808201528260a082015260c05160208160c0845f60055f19f1610193575f80fd5b5195945050505050565b5f6001600160401b0380851690848116908481169084906101bf858585610155565b6101c991906105ef565b98975050505050505050565b5f82816101e3600f85610602565b90505b825f03610232576603632c8eb5af3b6001600160a01b038083168482160a16066001600160a01b031692506002816001600160a01b03168161022a5761022a6105db565b0490506101e6565b505092915050565b5f805f846001600160401b0316866001600160401b031614801561026f5750836001600160401b0316856001600160401b0316145b1561028157505f91508190508461045b565b846001600160401b0316866001600160401b0316036102c8575f86876001600160401b0316866001600160401b0316116102bb57876102bd565b855b92509250925061045b565b836001600160401b0316866001600160401b03160361030e575f86876001600160401b0316876001600160401b03161161030257876102bd565b8692509250925061045b565b836001600160401b0316856001600160401b031603610354575f85866001600160401b0316886001600160401b03161161034857866102bd565b8792509250925061045b565b846001600160401b0316866001600160401b0316111580156103885750836001600160401b0316866001600160401b031611155b156103c057836001600160401b0316856001600160401b0316116103b357508491508390508261045b565b508491508290508361045b565b856001600160401b0316856001600160401b0316111580156103f45750836001600160401b0316856001600160401b031611155b1561042c57836001600160401b0316866001600160401b03161161041f57508391508490508261045b565b508391508290508461045b565b846001600160401b0316866001600160401b03161161045257508291508490508361045b565b50829150839050845b93509350939050565b5f8281610472600f85610602565b90505b825f036104c1576603632c8eb5af3b6001600160a01b038083168482160a16066001600160a01b031692506002816001600160a01b0316816104b9576104b96105db565b049050610475565b6104df6001600160a01b038087169086166603632c8eb5af3b610155565b95945050505050565b5f805f606084860312156104fa575f80fd5b505081359360208301359350604090920135919050565b80356001600160401b0381168114610527575f80fd5b919050565b5f805f6060848603121561053e575f80fd5b61054784610511565b925061055560208501610511565b915061056360408501610511565b90509250925092565b80356001600160a01b0381168114610527575f80fd5b5f8060408385031215610593575f80fd5b61059c8361056c565b946020939093013593505050565b5f80604083850312156105bb575f80fd5b6105c48361056c565b91506105d26020840161056c565b90509250929050565b634e487b7160e01b5f52601260045260245ffd5b5f826105fd576105fd6105db565b500690565b5f6001600160a01b0383168061061a5761061a6105db565b6001600160a01b0392909216919091049291505056fea26469706673582212208b2b9a5b50fb99d07efd9c8d75a3770de37ff0df78e9a7fbf0839bf78373e56264736f6c634300081a0033",
					"opcodes": "PUSH2 0x666 PUSH2 0x34 PUSH1 0xB DUP3 DUP3 DUP3 CODECOPY DUP1 MLOAD PUSH0 BYTE PUSH1 0x73 EQ PUSH1 0x28 JUMPI PUSH4 0x4E487B71 PUSH1 0xE0 SHL PUSH0 MSTORE PUSH0 PUSH1 0x4 MSTORE PUSH1 0x24 PUSH0 REVERT JUMPDEST ADDRESS PUSH0 MSTORE PUSH1 0x73 DUP2 MSTORE8 DUP3 DUP2 RETURN INVALID PUSH20 0x0 ADDRESS EQ PUSH1 0x80 PUSH1 0x40 MSTORE PUSH1 0x4 CALLDATASIZE LT PUSH2 0x6B JUMPI PUSH0 CALLDATALOAD PUSH1 0xE0 SHR DUP1 PUSH4 0x3148F14F EQ PUSH2 0x6F JUMPI DUP1 PUSH4 0x53DF6E35 EQ PUSH2 0xA1 JUMPI DUP1 PUSH4 0x6592F007 EQ PUSH2 0xD8 JUMPI DUP1 PUSH4 0x98FDCDD6 EQ PUSH2 0xEB JUMPI DUP1 PUSH4 0xD3DC2A0F EQ PUSH2 0x128 JUMPI DUP1 PUSH4 0xFA6BCFEC EQ PUSH2 0x136 JUMPI JUMPDEST PUSH0 DUP1 REVERT JUMPDEST DUP2 DUP1 ISZERO PUSH2 0x7A JUMPI PUSH0 DUP1 REVERT JUMPDEST POP PUSH2 0x8E PUSH2 0x89 CALLDATASIZE PUSH1 0x4 PUSH2 0x4E8 JUMP JUMPDEST PUSH2 0x155 JUMP JUMPDEST PUSH1 0x40 MLOAD SWAP1 DUP2 MSTORE PUSH1 0x20 ADD JUMPDEST PUSH1 0x40 MLOAD DUP1 SWAP2 SUB SWAP1 RETURN JUMPDEST DUP2 DUP1 ISZERO PUSH2 0xAC JUMPI PUSH0 DUP1 REVERT JUMPDEST POP PUSH2 0xC0 PUSH2 0xBB CALLDATASIZE PUSH1 0x4 PUSH2 0x52C JUMP JUMPDEST PUSH2 0x19D JUMP JUMPDEST PUSH1 0x40 MLOAD PUSH1 0x1 PUSH1 0x1 PUSH1 0x40 SHL SUB SWAP1 SWAP2 AND DUP2 MSTORE PUSH1 0x20 ADD PUSH2 0x98 JUMP JUMPDEST PUSH2 0x8E PUSH2 0xE6 CALLDATASIZE PUSH1 0x4 PUSH2 0x582 JUMP JUMPDEST PUSH2 0x1D5 JUMP JUMPDEST PUSH2 0xFE PUSH2 0xF9 CALLDATASIZE PUSH1 0x4 PUSH2 0x52C JUMP JUMPDEST PUSH2 0x23A JUMP JUMPDEST PUSH1 0x40 DUP1 MLOAD PUSH1 0x1 PUSH1 0x1 PUSH1 0x40 SHL SUB SWAP5 DUP6 AND DUP2 MSTORE SWAP3 DUP5 AND PUSH1 0x20 DUP5 ADD MSTORE SWAP3 AND SWAP2 DUP2 ADD SWAP2 SWAP1 SWAP2 MSTORE PUSH1 0x60 ADD PUSH2 0x98 JUMP JUMPDEST PUSH2 0xC0 PUSH7 0x3632C8EB5AF3B DUP2 JUMP JUMPDEST DUP2 DUP1 ISZERO PUSH2 0x141 JUMPI PUSH0 DUP1 REVERT JUMPDEST POP PUSH2 0x8E PUSH2 0x150 CALLDATASIZE PUSH1 0x4 PUSH2 0x5AA JUMP JUMPDEST PUSH2 0x464 JUMP JUMPDEST PUSH0 PUSH1 0x40 MLOAD PUSH1 0x20 DUP2 MSTORE PUSH1 0x20 DUP1 DUP3 ADD MSTORE PUSH1 0x20 PUSH1 0x40 DUP3 ADD MSTORE DUP5 PUSH1 0x60 DUP3 ADD MSTORE DUP4 PUSH1 0x80 DUP3 ADD MSTORE DUP3 PUSH1 0xA0 DUP3 ADD MSTORE PUSH1 0xC0 MLOAD PUSH1 0x20 DUP2 PUSH1 0xC0 DUP5 PUSH0 PUSH1 0x5 PUSH0 NOT CALL PUSH2 0x193 JUMPI PUSH0 DUP1 REVERT JUMPDEST MLOAD SWAP6 SWAP5 POP POP POP POP POP JUMP JUMPDEST PUSH0 PUSH1 0x1 PUSH1 0x1 PUSH1 0x40 SHL SUB DUP1 DUP6 AND SWAP1 DUP5 DUP2 AND SWAP1 DUP5 DUP2 AND SWAP1 DUP5 SWAP1 PUSH2 0x1BF DUP6 DUP6 DUP6 PUSH2 0x155 JUMP JUMPDEST PUSH2 0x1C9 SWAP2 SWAP1 PUSH2 0x5EF JUMP JUMPDEST SWAP9 SWAP8 POP POP POP POP POP POP POP POP JUMP JUMPDEST PUSH0 DUP3 DUP2 PUSH2 0x1E3 PUSH1 0xF DUP6 PUSH2 0x602 JUMP JUMPDEST SWAP1 POP JUMPDEST DUP3 PUSH0 SUB PUSH2 0x232 JUMPI PUSH7 0x3632C8EB5AF3B PUSH1 0x1 PUSH1 0x1 PUSH1 0xA0 SHL SUB DUP1 DUP4 AND DUP5 DUP3 AND EXP AND MOD PUSH1 0x1 PUSH1 0x1 PUSH1 0xA0 SHL SUB AND SWAP3 POP PUSH1 0x2 DUP2 PUSH1 0x1 PUSH1 0x1 PUSH1 0xA0 SHL SUB AND DUP2 PUSH2 0x22A JUMPI PUSH2 0x22A PUSH2 0x5DB JUMP JUMPDEST DIV SWAP1 POP PUSH2 0x1E6 JUMP JUMPDEST POP POP SWAP3 SWAP2 POP POP JUMP JUMPDEST PUSH0 DUP1 PUSH0 DUP5 PUSH1 0x1 PUSH1 0x1 PUSH1 0x40 SHL SUB AND DUP7 PUSH1 0x1 PUSH1 0x1 PUSH1 0x40 SHL SUB AND EQ DUP1 ISZERO PUSH2 0x26F JUMPI POP DUP4 PUSH1 0x1 PUSH1 0x1 PUSH1 0x40 SHL SUB AND DUP6 PUSH1 0x1 PUSH1 0x1 PUSH1 0x40 SHL SUB AND EQ JUMPDEST ISZERO PUSH2 0x281 JUMPI POP PUSH0 SWAP2 POP DUP2 SWAP1 POP DUP5 PUSH2 0x45B JUMP JUMPDEST DUP5 PUSH1 0x1 PUSH1 0x1 PUSH1 0x40 SHL SUB AND DUP7 PUSH1 0x1 PUSH1 0x1 PUSH1 0x40 SHL SUB AND SUB PUSH2 0x2C8 JUMPI PUSH0 DUP7 DUP8 PUSH1 0x1 PUSH1 0x1 PUSH1 0x40 SHL SUB AND DUP7 PUSH1 0x1 PUSH1 0x1 PUSH1 0x40 SHL SUB AND GT PUSH2 0x2BB JUMPI DUP8 PUSH2 0x2BD JUMP JUMPDEST DUP6 JUMPDEST SWAP3 POP SWAP3 POP SWAP3 POP PUSH2 0x45B JUMP JUMPDEST DUP4 PUSH1 0x1 PUSH1 0x1 PUSH1 0x40 SHL SUB AND DUP7 PUSH1 0x1 PUSH1 0x1 PUSH1 0x40 SHL SUB AND SUB PUSH2 0x30E JUMPI PUSH0 DUP7 DUP8 PUSH1 0x1 PUSH1 0x1 PUSH1 0x40 SHL SUB AND DUP8 PUSH1 0x1 PUSH1 0x1 PUSH1 0x40 SHL SUB AND GT PUSH2 0x302 JUMPI DUP8 PUSH2 0x2BD JUMP JUMPDEST DUP7 SWAP3 POP SWAP3 POP SWAP3 POP PUSH2 0x45B JUMP JUMPDEST DUP4 PUSH1 0x1 PUSH1 0x1 PUSH1 0x40 SHL SUB AND DUP6 PUSH1 0x1 PUSH1 0x1 PUSH1 0x40 SHL SUB AND SUB PUSH2 0x354 JUMPI PUSH0 DUP6 DUP7 PUSH1 0x1 PUSH1 0x1 PUSH1 0x40 SHL SUB AND DUP9 PUSH1 0x1 PUSH1 0x1 PUSH1 0x40 SHL SUB AND GT PUSH2 0x348 JUMPI DUP7 PUSH2 0x2BD JUMP JUMPDEST DUP8 SWAP3 POP SWAP3 POP SWAP3 POP PUSH2 0x45B JUMP JUMPDEST DUP5 PUSH1 0x1 PUSH1 0x1 PUSH1 0x40 SHL SUB AND DUP7 PUSH1 0x1 PUSH1 0x1 PUSH1 0x40 SHL SUB AND GT ISZERO DUP1 ISZERO PUSH2 0x388 JUMPI POP DUP4 PUSH1 0x1 PUSH1 0x1 PUSH1 0x40 SHL SUB AND DUP7 PUSH1 0x1 PUSH1 0x1 PUSH1 0x40 SHL SUB AND GT ISZERO JUMPDEST ISZERO PUSH2 0x3C0 JUMPI DUP4 PUSH1 0x1 PUSH1 0x1 PUSH1 0x40 SHL SUB AND DUP6 PUSH1 0x1 PUSH1 0x1 PUSH1 0x40 SHL SUB AND GT PUSH2 0x3B3 JUMPI POP DUP5 SWAP2 POP DUP4 SWAP1 POP DUP3 PUSH2 0x45B JUMP JUMPDEST POP DUP5 SWAP2 POP DUP3 SWAP1 POP DUP4 PUSH2 0x45B JUMP JUMPDEST DUP6 PUSH1 0x1 PUSH1 0x1 PUSH1 0x40 SHL SUB AND DUP6 PUSH1 0x1 PUSH1 0x1 PUSH1 0x40 SHL SUB AND GT ISZERO DUP1 ISZERO PUSH2 0x3F4 JUMPI POP DUP4 PUSH1 0x1 PUSH1 0x1 PUSH1 0x40 SHL SUB AND DUP6 PUSH1 0x1 PUSH1 0x1 PUSH1 0x40 SHL SUB AND GT ISZERO JUMPDEST ISZERO PUSH2 0x42C JUMPI DUP4 PUSH1 0x1 PUSH1 0x1 PUSH1 0x40 SHL SUB AND DUP7 PUSH1 0x1 PUSH1 0x1 PUSH1 0x40 SHL SUB AND GT PUSH2 0x41F JUMPI POP DUP4 SWAP2 POP DUP5 SWAP1 POP DUP3 PUSH2 0x45B JUMP JUMPDEST POP DUP4 SWAP2 POP DUP3 SWAP1 POP DUP5 PUSH2 0x45B JUMP JUMPDEST DUP5 PUSH1 0x1 PUSH1 0x1 PUSH1 0x40 SHL SUB AND DUP7 PUSH1 0x1 PUSH1 0x1 PUSH1 0x40 SHL SUB AND GT PUSH2 0x452 JUMPI POP DUP3 SWAP2 POP DUP5 SWAP1 POP DUP4 PUSH2 0x45B JUMP JUMPDEST POP DUP3 SWAP2 POP DUP4 SWAP1 POP DUP5 JUMPDEST SWAP4 POP SWAP4 POP SWAP4 SWAP1 POP JUMP JUMPDEST PUSH0 DUP3 DUP2 PUSH2 0x472 PUSH1 0xF DUP6 PUSH2 0x602 JUMP JUMPDEST SWAP1 POP JUMPDEST DUP3 PUSH0 SUB PUSH2 0x4C1 JUMPI PUSH7 0x3632C8EB5AF3B PUSH1 0x1 PUSH1 0x1 PUSH1 0xA0 SHL SUB DUP1 DUP4 AND DUP5 DUP3 AND EXP AND MOD PUSH1 0x1 PUSH1 0x1 PUSH1 0xA0 SHL SUB AND SWAP3 POP PUSH1 0x2 DUP2 PUSH1 0x1 PUSH1 0x1 PUSH1 0xA0 SHL SUB AND DUP2 PUSH2 0x4B9 JUMPI PUSH2 0x4B9 PUSH2 0x5DB JUMP JUMPDEST DIV SWAP1 POP PUSH2 0x475 JUMP JUMPDEST PUSH2 0x4DF PUSH1 0x1 PUSH1 0x1 PUSH1 0xA0 SHL SUB DUP1 DUP8 AND SWAP1 DUP7 AND PUSH7 0x3632C8EB5AF3B PUSH2 0x155 JUMP JUMPDEST SWAP6 SWAP5 POP POP POP POP POP JUMP JUMPDEST PUSH0 DUP1 PUSH0 PUSH1 0x60 DUP5 DUP7 SUB SLT ISZERO PUSH2 0x4FA JUMPI PUSH0 DUP1 REVERT JUMPDEST POP POP DUP2 CALLDATALOAD SWAP4 PUSH1 0x20 DUP4 ADD CALLDATALOAD SWAP4 POP PUSH1 0x40 SWAP1 SWAP3 ADD CALLDATALOAD SWAP2 SWAP1 POP JUMP JUMPDEST DUP1 CALLDATALOAD PUSH1 0x1 PUSH1 0x1 PUSH1 0x40 SHL SUB DUP2 AND DUP2 EQ PUSH2 0x527 JUMPI PUSH0 DUP1 REVERT JUMPDEST SWAP2 SWAP1 POP JUMP JUMPDEST PUSH0 DUP1 PUSH0 PUSH1 0x60 DUP5 DUP7 SUB SLT ISZERO PUSH2 0x53E JUMPI PUSH0 DUP1 REVERT JUMPDEST PUSH2 0x547 DUP5 PUSH2 0x511 JUMP JUMPDEST SWAP3 POP PUSH2 0x555 PUSH1 0x20 DUP6 ADD PUSH2 0x511 JUMP JUMPDEST SWAP2 POP PUSH2 0x563 PUSH1 0x40 DUP6 ADD PUSH2 0x511 JUMP JUMPDEST SWAP1 POP SWAP3 POP SWAP3 POP SWAP3 JUMP JUMPDEST DUP1 CALLDATALOAD PUSH1 0x1 PUSH1 0x1 PUSH1 0xA0 SHL SUB DUP2 AND DUP2 EQ PUSH2 0x527 JUMPI PUSH0 DUP1 REVERT JUMPDEST PUSH0 DUP1 PUSH1 0x40 DUP4 DUP6 SUB SLT ISZERO PUSH2 0x593 JUMPI PUSH0 DUP1 REVERT JUMPDEST PUSH2 0x59C DUP4 PUSH2 0x56C JUMP JUMPDEST SWAP5 PUSH1 0x20 SWAP4 SWAP1 SWAP4 ADD CALLDATALOAD SWAP4 POP POP POP JUMP JUMPDEST PUSH0 DUP1 PUSH1 0x40 DUP4 DUP6 SUB SLT ISZERO PUSH2 0x5BB JUMPI PUSH0 DUP1 REVERT JUMPDEST PUSH2 0x5C4 DUP4 PUSH2 0x56C JUMP JUMPDEST SWAP2 POP PUSH2 0x5D2 PUSH1 0x20 DUP5 ADD PUSH2 0x56C JUMP JUMPDEST SWAP1 POP SWAP3 POP SWAP3 SWAP1 POP JUMP JUMPDEST PUSH4 0x4E487B71 PUSH1 0xE0 SHL PUSH0 MSTORE PUSH1 0x12 PUSH1 0x4 MSTORE PUSH1 0x24 PUSH0 REVERT JUMPDEST PUSH0 DUP3 PUSH2 0x5FD JUMPI PUSH2 0x5FD PUSH2 0x5DB JUMP JUMPDEST POP MOD SWAP1 JUMP JUMPDEST PUSH0 PUSH1 0x1 PUSH1 0x1 PUSH1 0xA0 SHL SUB DUP4 AND DUP1 PUSH2 0x61A JUMPI PUSH2 0x61A PUSH2 0x5DB JUMP JUMPDEST PUSH1 0x1 PUSH1 0x1 PUSH1 0xA0 SHL SUB SWAP3 SWAP1 SWAP3 AND SWAP2 SWAP1 SWAP2 DIV SWAP3 SWAP2 POP POP JUMP INVALID LOG2 PUSH5 0x6970667358 0x22 SLT KECCAK256 DUP12 0x2B SWAP11 JUMPDEST POP 0xFB SWAP10 0xD0 PUSH31 0xFD9C8D75A3770DE37FF0DF78E9A7FBF0839BF78373E56264736F6C63430008 BYTE STOP CALLER "
				},
				"gasEstimates": {
					"creation": {
						"codeDepositCost": "327600",
						"executionCost": "395",
						"totalCost": "327995"
					},
					"external": {
						"MotzkinPrime()": "265",
						"hashWith(address,address)": "infinite",
						"hashWithHash(address,uint256)": "infinite",
						"modExp(uint256,uint256,uint256)": "infinite",
						"modExp64(uint64,uint64,uint64)": "infinite",
						"sortThree(uint64,uint64,uint64)": "infinite"
					}
				},
				"methodIdentifiers": {
					"MotzkinPrime()": "d3dc2a0f",
					"hashWith(address,address)": "fa6bcfec",
					"hashWithHash(address,uint256)": "6592f007",
					"modExp(uint256,uint256,uint256)": "3148f14f",
					"modExp64(uint64,uint64,uint64)": "53df6e35",
					"sortThree(uint64,uint64,uint64)": "98fdcdd6"
				}
			},
			"storageLayout": {
				"storage": [],
				"types": null
			},
			"userdoc": {
				"kind": "user",
				"methods": {},
				"version": 1
			}
		}
	}
}