{
	"contracts/atropamath.sol": {
		"atropaMath": {
			"abi": [
				{
					"inputs": [],
					"name": "MotzkinPrime",
					"outputs": [
						{
							"internalType": "uint64",
							"name": "",
							"type": "uint64"
						}
					],
					"stateMutability": "view",
					"type": "function"
				},
				{
					"inputs": [
						{
							"internalType": "address",
							"name": "a",
							"type": "address"
						},
						{
							"internalType": "address",
							"name": "b",
							"type": "address"
						}
					],
					"name": "hashWith",
					"outputs": [
						{
							"internalType": "uint256",
							"name": "hash",
							"type": "uint256"
						}
					],
					"stateMutability": "pure",
					"type": "function"
				}
			],
			"devdoc": {
				"kind": "dev",
				"methods": {},
				"version": 1
			},
			"evm": {
				"assembly": "    /* \"contracts/atropamath.sol\":140:3409  library atropaMath {... */\n  dataSize(sub_0)\n  dataOffset(sub_0)\n  0x0b\n  dup3\n  dup3\n  dup3\n  codecopy\n  dup1\n  mload\n  0x00\n  byte\n  0x73\n  eq\n  tag_1\n  jumpi\n  mstore(0x00, shl(0xe0, 0x4e487b71))\n  mstore(0x04, 0x00)\n  revert(0x00, 0x24)\ntag_1:\n  mstore(0x00, address)\n  0x73\n  dup2\n  mstore8\n  dup3\n  dup2\n  return\nstop\n\nsub_0: assembly {\n        /* \"contracts/atropamath.sol\":140:3409  library atropaMath {... */\n      eq(address, deployTimeAddress())\n      mstore(0x40, 0x80)\n      jumpi(tag_1, lt(calldatasize, 0x04))\n      shr(0xe0, calldataload(0x00))\n      dup1\n      0xd3dc2a0f\n      eq\n      tag_2\n      jumpi\n      dup1\n      0xfa6bcfec\n      eq\n      tag_3\n      jumpi\n    tag_1:\n      0x00\n      dup1\n      revert\n        /* \"contracts/atropamath.sol\":165:218  uint64 constant public MotzkinPrime = 953467954114363 */\n    tag_2:\n      tag_4\n        /* \"contracts/atropamath.sol\":203:218  953467954114363 */\n      0x03632c8eb5af3b\n        /* \"contracts/atropamath.sol\":165:218  uint64 constant public MotzkinPrime = 953467954114363 */\n      dup2\n      jump\n    tag_4:\n      mload(0x40)\n        /* \"#utility.yul\":196:214   */\n      0xffffffffffffffff\n        /* \"#utility.yul\":184:215   */\n      swap1\n      swap2\n      and\n        /* \"#utility.yul\":166:216   */\n      dup2\n      mstore\n        /* \"#utility.yul\":154:156   */\n      0x20\n        /* \"#utility.yul\":139:157   */\n      add\n        /* \"contracts/atropamath.sol\":165:218  uint64 constant public MotzkinPrime = 953467954114363 */\n    tag_6:\n      mload(0x40)\n      dup1\n      swap2\n      sub\n      swap1\n      return\n        /* \"contracts/atropamath.sol\":1226:1634  function hashWith(address a, address b) public pure returns (uint256 hash) {        ... */\n    tag_3:\n      tag_8\n      tag_9\n      calldatasize\n      0x04\n      tag_10\n      jump\t// in\n    tag_9:\n      tag_11\n      jump\t// in\n    tag_8:\n      mload(0x40)\n        /* \"#utility.yul\":824:849   */\n      swap1\n      dup2\n      mstore\n        /* \"#utility.yul\":812:814   */\n      0x20\n        /* \"#utility.yul\":797:815   */\n      add\n        /* \"contracts/atropamath.sol\":1226:1634  function hashWith(address a, address b) public pure returns (uint256 hash) {        ... */\n      tag_6\n        /* \"#utility.yul\":670:855   */\n      jump\n        /* \"contracts/atropamath.sol\":1226:1634  function hashWith(address a, address b) public pure returns (uint256 hash) {        ... */\n    tag_11:\n        /* \"contracts/atropamath.sol\":1287:1299  uint256 hash */\n      0x00\n        /* \"contracts/atropamath.sol\":1358:1359  a */\n      dup3\n        /* \"contracts/atropamath.sol\":1287:1299  uint256 hash */\n      dup2\n        /* \"contracts/atropamath.sol\":1383:1398  uint160(b) / 15 */\n      tag_15\n        /* \"contracts/atropamath.sol\":1396:1398  15 */\n      0x0f\n        /* \"contracts/atropamath.sol\":1391:1392  b */\n      dup6\n        /* \"contracts/atropamath.sol\":1383:1398  uint160(b) / 15 */\n      tag_16\n      jump\t// in\n    tag_15:\n        /* \"contracts/atropamath.sol\":1370:1398  uint160 _b = uint160(b) / 15 */\n      swap1\n      pop\n        /* \"contracts/atropamath.sol\":1432:1537  while(hash == 0) {... */\n    tag_17:\n        /* \"contracts/atropamath.sol\":1438:1442  hash */\n      dup3\n        /* \"contracts/atropamath.sol\":1446:1447  0 */\n      0x00\n        /* \"contracts/atropamath.sol\":1438:1447  hash == 0 */\n      sub\n        /* \"contracts/atropamath.sol\":1432:1537  while(hash == 0) {... */\n      tag_18\n      jumpi\n        /* \"contracts/atropamath.sol\":203:218  953467954114363 */\n      0x03632c8eb5af3b\n      sub(shl(0xa0, 0x01), 0x01)\n        /* \"contracts/atropamath.sol\":1475:1481  _a**_b */\n      dup1\n      dup4\n      and\n      dup5\n      dup3\n      and\n      exp\n        /* \"contracts/atropamath.sol\":1474:1495  (_a**_b)%MotzkinPrime */\n      and\n      mod\n      sub(shl(0xa0, 0x01), 0x01)\n        /* \"contracts/atropamath.sol\":1467:1495  hash = (_a**_b)%MotzkinPrime */\n      and\n      swap3\n      pop\n        /* \"contracts/atropamath.sol\":1521:1522  2 */\n      0x02\n        /* \"contracts/atropamath.sol\":1518:1520  _b */\n      dup2\n      sub(shl(0xa0, 0x01), 0x01)\n        /* \"contracts/atropamath.sol\":1518:1522  _b/2 */\n      and\n      dup2\n      tag_23\n      jumpi\n      tag_23\n      tag_21\n      jump\t// in\n    tag_23:\n      div\n        /* \"contracts/atropamath.sol\":1513:1522  _b = _b/2 */\n      swap1\n      pop\n        /* \"contracts/atropamath.sol\":1432:1537  while(hash == 0) {... */\n      jump(tag_17)\n    tag_18:\n        /* \"contracts/atropamath.sol\":1301:1634  {        ... */\n      pop\n      pop\n        /* \"contracts/atropamath.sol\":1226:1634  function hashWith(address a, address b) public pure returns (uint256 hash) {        ... */\n      swap3\n      swap2\n      pop\n      pop\n      jump\t// out\n        /* \"#utility.yul\":227:400   */\n    tag_24:\n        /* \"#utility.yul\":295:315   */\n      dup1\n      calldataload\n      sub(shl(0xa0, 0x01), 0x01)\n        /* \"#utility.yul\":344:375   */\n      dup2\n      and\n        /* \"#utility.yul\":334:376   */\n      dup2\n      eq\n        /* \"#utility.yul\":324:394   */\n      tag_28\n      jumpi\n        /* \"#utility.yul\":390:391   */\n      0x00\n        /* \"#utility.yul\":387:388   */\n      dup1\n        /* \"#utility.yul\":380:392   */\n      revert\n        /* \"#utility.yul\":324:394   */\n    tag_28:\n        /* \"#utility.yul\":227:400   */\n      swap2\n      swap1\n      pop\n      jump\t// out\n        /* \"#utility.yul\":405:665   */\n    tag_10:\n        /* \"#utility.yul\":473:479   */\n      0x00\n        /* \"#utility.yul\":481:487   */\n      dup1\n        /* \"#utility.yul\":534:536   */\n      0x40\n        /* \"#utility.yul\":522:531   */\n      dup4\n        /* \"#utility.yul\":513:520   */\n      dup6\n        /* \"#utility.yul\":509:532   */\n      sub\n        /* \"#utility.yul\":505:537   */\n      slt\n        /* \"#utility.yul\":502:554   */\n      iszero\n      tag_30\n      jumpi\n        /* \"#utility.yul\":550:551   */\n      0x00\n        /* \"#utility.yul\":547:548   */\n      dup1\n        /* \"#utility.yul\":540:552   */\n      revert\n        /* \"#utility.yul\":502:554   */\n    tag_30:\n        /* \"#utility.yul\":573:602   */\n      tag_31\n        /* \"#utility.yul\":592:601   */\n      dup4\n        /* \"#utility.yul\":573:602   */\n      tag_24\n      jump\t// in\n    tag_31:\n        /* \"#utility.yul\":563:602   */\n      swap2\n      pop\n        /* \"#utility.yul\":621:659   */\n      tag_32\n        /* \"#utility.yul\":655:657   */\n      0x20\n        /* \"#utility.yul\":644:653   */\n      dup5\n        /* \"#utility.yul\":640:658   */\n      add\n        /* \"#utility.yul\":621:659   */\n      tag_24\n      jump\t// in\n    tag_32:\n        /* \"#utility.yul\":611:659   */\n      swap1\n      pop\n        /* \"#utility.yul\":405:665   */\n      swap3\n      pop\n      swap3\n      swap1\n      pop\n      jump\t// out\n        /* \"#utility.yul\":860:987   */\n    tag_21:\n        /* \"#utility.yul\":921:931   */\n      0x4e487b71\n        /* \"#utility.yul\":916:919   */\n      0xe0\n        /* \"#utility.yul\":912:932   */\n      shl\n        /* \"#utility.yul\":909:910   */\n      0x00\n        /* \"#utility.yul\":902:933   */\n      mstore\n        /* \"#utility.yul\":952:956   */\n      0x12\n        /* \"#utility.yul\":949:950   */\n      0x04\n        /* \"#utility.yul\":942:957   */\n      mstore\n        /* \"#utility.yul\":976:980   */\n      0x24\n        /* \"#utility.yul\":973:974   */\n      0x00\n        /* \"#utility.yul\":966:981   */\n      revert\n        /* \"#utility.yul\":992:1286   */\n    tag_16:\n        /* \"#utility.yul\":1032:1033   */\n      0x00\n      sub(shl(0xa0, 0x01), 0x01)\n        /* \"#utility.yul\":1059:1086   */\n      dup4\n      and\n      dup1\n        /* \"#utility.yul\":1095:1229   */\n      tag_36\n      jumpi\n        /* \"#utility.yul\":1151:1161   */\n      0x4e487b71\n        /* \"#utility.yul\":1146:1149   */\n      0xe0\n        /* \"#utility.yul\":1142:1162   */\n      shl\n        /* \"#utility.yul\":1139:1140   */\n      0x00\n        /* \"#utility.yul\":1132:1163   */\n      mstore\n        /* \"#utility.yul\":1186:1190   */\n      0x12\n        /* \"#utility.yul\":1183:1184   */\n      0x04\n        /* \"#utility.yul\":1176:1191   */\n      mstore\n        /* \"#utility.yul\":1214:1218   */\n      0x24\n        /* \"#utility.yul\":1211:1212   */\n      0x00\n        /* \"#utility.yul\":1204:1219   */\n      revert\n        /* \"#utility.yul\":1095:1229   */\n    tag_36:\n      sub(shl(0xa0, 0x01), 0x01)\n        /* \"#utility.yul\":1247:1274   */\n      swap3\n      swap1\n      swap3\n      and\n        /* \"#utility.yul\":1243:1280   */\n      swap2\n      swap1\n      swap2\n      div\n      swap3\n        /* \"#utility.yul\":992:1286   */\n      swap2\n      pop\n      pop\n      jump\t// out\n\n    auxdata: 0xa264697066735822122081fddc1911292d5589b87e7f2cffd0ec776475ba714ac83d92843f64fef52a9264736f6c634300081a0033\n}\n",
				"bytecode": {
					"linkReferences": {},
					"object": "6101c5610034600b8282823980515f1a607314602857634e487b7160e01b5f525f60045260245ffd5b305f52607381538281f3fe730000000000000000000000000000000000000000301460806040526004361061003f575f3560e01c8063d3dc2a0f14610043578063fa6bcfec1461006f575b5f80fd5b6100516603632c8eb5af3b81565b60405167ffffffffffffffff90911681526020015b60405180910390f35b61008261007d366004610110565b610090565b604051908152602001610066565b5f828161009e600f85610155565b90505b825f036100ed576603632c8eb5af3b6001600160a01b038083168482160a16066001600160a01b031692506002816001600160a01b0316816100e5576100e5610141565b0490506100a1565b505092915050565b80356001600160a01b038116811461010b575f80fd5b919050565b5f8060408385031215610121575f80fd5b61012a836100f5565b9150610138602084016100f5565b90509250929050565b634e487b7160e01b5f52601260045260245ffd5b5f6001600160a01b0383168061017957634e487b7160e01b5f52601260045260245ffd5b6001600160a01b0392909216919091049291505056fea264697066735822122081fddc1911292d5589b87e7f2cffd0ec776475ba714ac83d92843f64fef52a9264736f6c634300081a0033",
					"opcodes": "PUSH2 0x1C5 PUSH2 0x34 PUSH1 0xB DUP3 DUP3 DUP3 CODECOPY DUP1 MLOAD PUSH0 BYTE PUSH1 0x73 EQ PUSH1 0x28 JUMPI PUSH4 0x4E487B71 PUSH1 0xE0 SHL PUSH0 MSTORE PUSH0 PUSH1 0x4 MSTORE PUSH1 0x24 PUSH0 REVERT JUMPDEST ADDRESS PUSH0 MSTORE PUSH1 0x73 DUP2 MSTORE8 DUP3 DUP2 RETURN INVALID PUSH20 0x0 ADDRESS EQ PUSH1 0x80 PUSH1 0x40 MSTORE PUSH1 0x4 CALLDATASIZE LT PUSH2 0x3F JUMPI PUSH0 CALLDATALOAD PUSH1 0xE0 SHR DUP1 PUSH4 0xD3DC2A0F EQ PUSH2 0x43 JUMPI DUP1 PUSH4 0xFA6BCFEC EQ PUSH2 0x6F JUMPI JUMPDEST PUSH0 DUP1 REVERT JUMPDEST PUSH2 0x51 PUSH7 0x3632C8EB5AF3B DUP2 JUMP JUMPDEST PUSH1 0x40 MLOAD PUSH8 0xFFFFFFFFFFFFFFFF SWAP1 SWAP2 AND DUP2 MSTORE PUSH1 0x20 ADD JUMPDEST PUSH1 0x40 MLOAD DUP1 SWAP2 SUB SWAP1 RETURN JUMPDEST PUSH2 0x82 PUSH2 0x7D CALLDATASIZE PUSH1 0x4 PUSH2 0x110 JUMP JUMPDEST PUSH2 0x90 JUMP JUMPDEST PUSH1 0x40 MLOAD SWAP1 DUP2 MSTORE PUSH1 0x20 ADD PUSH2 0x66 JUMP JUMPDEST PUSH0 DUP3 DUP2 PUSH2 0x9E PUSH1 0xF DUP6 PUSH2 0x155 JUMP JUMPDEST SWAP1 POP JUMPDEST DUP3 PUSH0 SUB PUSH2 0xED JUMPI PUSH7 0x3632C8EB5AF3B PUSH1 0x1 PUSH1 0x1 PUSH1 0xA0 SHL SUB DUP1 DUP4 AND DUP5 DUP3 AND EXP AND MOD PUSH1 0x1 PUSH1 0x1 PUSH1 0xA0 SHL SUB AND SWAP3 POP PUSH1 0x2 DUP2 PUSH1 0x1 PUSH1 0x1 PUSH1 0xA0 SHL SUB AND DUP2 PUSH2 0xE5 JUMPI PUSH2 0xE5 PUSH2 0x141 JUMP JUMPDEST DIV SWAP1 POP PUSH2 0xA1 JUMP JUMPDEST POP POP SWAP3 SWAP2 POP POP JUMP JUMPDEST DUP1 CALLDATALOAD PUSH1 0x1 PUSH1 0x1 PUSH1 0xA0 SHL SUB DUP2 AND DUP2 EQ PUSH2 0x10B JUMPI PUSH0 DUP1 REVERT JUMPDEST SWAP2 SWAP1 POP JUMP JUMPDEST PUSH0 DUP1 PUSH1 0x40 DUP4 DUP6 SUB SLT ISZERO PUSH2 0x121 JUMPI PUSH0 DUP1 REVERT JUMPDEST PUSH2 0x12A DUP4 PUSH2 0xF5 JUMP JUMPDEST SWAP2 POP PUSH2 0x138 PUSH1 0x20 DUP5 ADD PUSH2 0xF5 JUMP JUMPDEST SWAP1 POP SWAP3 POP SWAP3 SWAP1 POP JUMP JUMPDEST PUSH4 0x4E487B71 PUSH1 0xE0 SHL PUSH0 MSTORE PUSH1 0x12 PUSH1 0x4 MSTORE PUSH1 0x24 PUSH0 REVERT JUMPDEST PUSH0 PUSH1 0x1 PUSH1 0x1 PUSH1 0xA0 SHL SUB DUP4 AND DUP1 PUSH2 0x179 JUMPI PUSH4 0x4E487B71 PUSH1 0xE0 SHL PUSH0 MSTORE PUSH1 0x12 PUSH1 0x4 MSTORE PUSH1 0x24 PUSH0 REVERT JUMPDEST PUSH1 0x1 PUSH1 0x1 PUSH1 0xA0 SHL SUB SWAP3 SWAP1 SWAP3 AND SWAP2 SWAP1 SWAP2 DIV SWAP3 SWAP2 POP POP JUMP INVALID LOG2 PUSH5 0x6970667358 0x22 SLT KECCAK256 DUP2 REVERT 0xDC NOT GT 0x29 0x2D SSTORE DUP10 0xB8 PUSH31 0x7F2CFFD0EC776475BA714AC83D92843F64FEF52A9264736F6C634300081A00 CALLER "
				},
				"gasEstimates": {
					"creation": {
						"codeDepositCost": "90600",
						"executionCost": "168",
						"totalCost": "90768"
					},
					"external": {
						"MotzkinPrime()": "154",
						"hashWith(address,address)": "infinite"
					}
				},
				"methodIdentifiers": {
					"MotzkinPrime()": "d3dc2a0f",
					"hashWith(address,address)": "fa6bcfec"
				}
			},
			"storageLayout": {
				"storage": [],
				"types": null
			},
			"userdoc": {
				"kind": "user",
				"methods": {},
				"version": 1
			}
		}
	}
}