{
	"contracts/PriceDecay.sol": {
		"PriceSlowDecay": {
			"abi": [
				{
					"inputs": [
						{
							"internalType": "uint256",
							"name": "_initialPrice",
							"type": "uint256"
						},
						{
							"internalType": "uint256",
							"name": "_minPrice",
							"type": "uint256"
						},
						{
							"internalType": "uint256",
							"name": "_duration",
							"type": "uint256"
						}
					],
					"stateMutability": "nonpayable",
					"type": "constructor"
				},
				{
					"inputs": [],
					"name": "duration",
					"outputs": [
						{
							"internalType": "uint256",
							"name": "",
							"type": "uint256"
						}
					],
					"stateMutability": "view",
					"type": "function"
				},
				{
					"inputs": [],
					"name": "getCurrentPrice",
					"outputs": [
						{
							"internalType": "uint256",
							"name": "",
							"type": "uint256"
						}
					],
					"stateMutability": "view",
					"type": "function"
				},
				{
					"inputs": [],
					"name": "initialPrice",
					"outputs": [
						{
							"internalType": "uint256",
							"name": "",
							"type": "uint256"
						}
					],
					"stateMutability": "view",
					"type": "function"
				},
				{
					"inputs": [],
					"name": "minPrice",
					"outputs": [
						{
							"internalType": "uint256",
							"name": "",
							"type": "uint256"
						}
					],
					"stateMutability": "view",
					"type": "function"
				},
				{
					"inputs": [],
					"name": "startTime",
					"outputs": [
						{
							"internalType": "uint256",
							"name": "",
							"type": "uint256"
						}
					],
					"stateMutability": "view",
					"type": "function"
				}
			],
			"devdoc": {
				"kind": "dev",
				"methods": {},
				"version": 1
			},
			"evm": {
				"assembly": "    /* \"contracts/PriceDecay.sol\":57:1704  contract PriceSlowDecay {... */\n  mstore(0x40, 0x0100)\n    /* \"contracts/PriceDecay.sol\":386:829  constructor(uint256 _initialPrice, uint256 _minPrice, uint256 _duration) {... */\n  callvalue\n  dup1\n  iszero\n  tag_1\n  jumpi\n  0x00\n  dup1\n  revert\ntag_1:\n  pop\n  mload(0x40)\n  sub(codesize, bytecodeSize)\n  dup1\n  bytecodeSize\n  dup4\n  codecopy\n  dup2\n  add\n  0x40\n  dup2\n  swap1\n  mstore\n  tag_2\n  swap2\n  tag_3\n  jump\t// in\ntag_2:\n    /* \"contracts/PriceDecay.sol\":493:502  _minPrice */\n  dup2\n    /* \"contracts/PriceDecay.sol\":477:490  _initialPrice */\n  dup4\n    /* \"contracts/PriceDecay.sol\":477:502  _initialPrice > _minPrice */\n  gt\n    /* \"contracts/PriceDecay.sol\":469:556  require(_initialPrice > _minPrice, \"Initial price must be greater than minimum price.\") */\n  tag_6\n  jumpi\n  mload(0x40)\n  shl(0xe5, 0x461bcd)\n  dup2\n  mstore\n    /* \"#utility.yul\":677:679   */\n  0x20\n    /* \"contracts/PriceDecay.sol\":469:556  require(_initialPrice > _minPrice, \"Initial price must be greater than minimum price.\") */\n  0x04\n  dup3\n  add\n    /* \"#utility.yul\":659:680   */\n  mstore\n    /* \"#utility.yul\":716:718   */\n  0x31\n    /* \"#utility.yul\":696:714   */\n  0x24\n  dup3\n  add\n    /* \"#utility.yul\":689:719   */\n  mstore\n    /* \"#utility.yul\":755:789   */\n  0x496e697469616c207072696365206d7573742062652067726561746572207468\n    /* \"#utility.yul\":735:753   */\n  0x44\n  dup3\n  add\n    /* \"#utility.yul\":728:790   */\n  mstore\n  shl(0x79, 0x30b71036b4b734b6bab690383934b1b297)\n    /* \"#utility.yul\":806:824   */\n  0x64\n  dup3\n  add\n    /* \"#utility.yul\":799:846   */\n  mstore\n    /* \"#utility.yul\":863:882   */\n  0x84\n  add\n    /* \"contracts/PriceDecay.sol\":469:556  require(_initialPrice > _minPrice, \"Initial price must be greater than minimum price.\") */\ntag_7:\n  mload(0x40)\n  dup1\n  swap2\n  sub\n  swap1\n  revert\ntag_6:\n    /* \"contracts/PriceDecay.sol\":586:587  0 */\n  0x00\n    /* \"contracts/PriceDecay.sol\":574:583  _duration */\n  dup2\n    /* \"contracts/PriceDecay.sol\":574:587  _duration > 0 */\n  gt\n    /* \"contracts/PriceDecay.sol\":566:624  require(_duration > 0, \"Duration must be greater than 0.\") */\n  tag_9\n  jumpi\n  mload(0x40)\n  shl(0xe5, 0x461bcd)\n  dup2\n  mstore\n    /* \"#utility.yul\":1095:1097   */\n  0x20\n    /* \"contracts/PriceDecay.sol\":566:624  require(_duration > 0, \"Duration must be greater than 0.\") */\n  0x04\n  dup3\n  add\n    /* \"#utility.yul\":1077:1098   */\n  dup2\n  swap1\n  mstore\n    /* \"#utility.yul\":1114:1132   */\n  0x24\n  dup3\n  add\n    /* \"#utility.yul\":1107:1137   */\n  mstore\n    /* \"#utility.yul\":1173:1207   */\n  0x4475726174696f6e206d7573742062652067726561746572207468616e20302e\n    /* \"#utility.yul\":1153:1171   */\n  0x44\n  dup3\n  add\n    /* \"#utility.yul\":1146:1208   */\n  mstore\n    /* \"#utility.yul\":1225:1243   */\n  0x64\n  add\n    /* \"contracts/PriceDecay.sol\":566:624  require(_duration > 0, \"Duration must be greater than 0.\") */\n  tag_7\n    /* \"#utility.yul\":893:1249   */\n  jump\n    /* \"contracts/PriceDecay.sol\":566:624  require(_duration > 0, \"Duration must be greater than 0.\") */\ntag_9:\n    /* \"contracts/PriceDecay.sol\":643:671  initialPrice = _initialPrice */\n  0x80\n  dup4\n  swap1\n  mstore\n    /* \"contracts/PriceDecay.sol\":681:701  minPrice = _minPrice */\n  0xa0\n  dup3\n  swap1\n  mstore\n    /* \"contracts/PriceDecay.sol\":722:739  _duration * 86400 */\n  tag_12\n    /* \"contracts/PriceDecay.sol\":722:731  _duration */\n  dup2\n    /* \"contracts/PriceDecay.sol\":734:739  86400 */\n  0x015180\n    /* \"contracts/PriceDecay.sol\":722:739  _duration * 86400 */\n  tag_13\n  jump\t// in\ntag_12:\n    /* \"contracts/PriceDecay.sol\":711:739  duration = _duration * 86400 */\n  0xe0\n  mstore\n  pop\n  pop\n    /* \"contracts/PriceDecay.sol\":761:776  block.timestamp */\n  timestamp\n    /* \"contracts/PriceDecay.sol\":749:776  startTime = block.timestamp */\n  0xc0\n  mstore\n  pop\n    /* \"contracts/PriceDecay.sol\":57:1704  contract PriceSlowDecay {... */\n  jump(tag_15)\n    /* \"#utility.yul\":14:470   */\ntag_3:\n    /* \"#utility.yul\":102:108   */\n  0x00\n    /* \"#utility.yul\":110:116   */\n  dup1\n    /* \"#utility.yul\":118:124   */\n  0x00\n    /* \"#utility.yul\":171:173   */\n  0x60\n    /* \"#utility.yul\":159:168   */\n  dup5\n    /* \"#utility.yul\":150:157   */\n  dup7\n    /* \"#utility.yul\":146:169   */\n  sub\n    /* \"#utility.yul\":142:174   */\n  slt\n    /* \"#utility.yul\":139:191   */\n  iszero\n  tag_17\n  jumpi\n    /* \"#utility.yul\":187:188   */\n  0x00\n    /* \"#utility.yul\":184:185   */\n  dup1\n    /* \"#utility.yul\":177:189   */\n  revert\n    /* \"#utility.yul\":139:191   */\ntag_17:\n  pop\n  pop\n    /* \"#utility.yul\":232:248   */\n  dup2\n  mload\n    /* \"#utility.yul\":338:340   */\n  0x20\n    /* \"#utility.yul\":323:341   */\n  dup4\n  add\n    /* \"#utility.yul\":317:342   */\n  mload\n    /* \"#utility.yul\":434:436   */\n  0x40\n    /* \"#utility.yul\":419:437   */\n  swap1\n  swap4\n  add\n    /* \"#utility.yul\":413:438   */\n  mload\n    /* \"#utility.yul\":232:248   */\n  swap1\n  swap5\n    /* \"#utility.yul\":317:342   */\n  swap3\n  swap4\n  pop\n    /* \"#utility.yul\":413:438   */\n  swap2\n    /* \"#utility.yul\":14:470   */\n  swap1\n  pop\n  jump\t// out\n    /* \"#utility.yul\":1254:1519   */\ntag_13:\n    /* \"#utility.yul\":1327:1336   */\n  dup1\n  dup3\n  mul\n    /* \"#utility.yul\":1358:1367   */\n  dup2\n  iszero\n    /* \"#utility.yul\":1375:1390   */\n  dup3\n  dup3\n  div\n    /* \"#utility.yul\":1369:1391   */\n  dup5\n  eq\n    /* \"#utility.yul\":1355:1392   */\n  or\n    /* \"#utility.yul\":1345:1513   */\n  tag_21\n  jumpi\n    /* \"#utility.yul\":1435:1445   */\n  0x4e487b71\n    /* \"#utility.yul\":1430:1433   */\n  0xe0\n    /* \"#utility.yul\":1426:1446   */\n  shl\n    /* \"#utility.yul\":1423:1424   */\n  0x00\n    /* \"#utility.yul\":1416:1447   */\n  mstore\n    /* \"#utility.yul\":1470:1474   */\n  0x11\n    /* \"#utility.yul\":1467:1468   */\n  0x04\n    /* \"#utility.yul\":1460:1475   */\n  mstore\n    /* \"#utility.yul\":1498:1502   */\n  0x24\n    /* \"#utility.yul\":1495:1496   */\n  0x00\n    /* \"#utility.yul\":1488:1503   */\n  revert\n    /* \"#utility.yul\":1345:1513   */\ntag_21:\n    /* \"#utility.yul\":1254:1519   */\n  swap3\n  swap2\n  pop\n  pop\n  jump\t// out\ntag_15:\n    /* \"contracts/PriceDecay.sol\":57:1704  contract PriceSlowDecay {... */\n  mload(0x80)\n  mload(0xa0)\n  mload(0xc0)\n  mload(0xe0)\n  codecopy(0x00, dataOffset(sub_0), dataSize(sub_0))\n  0x00\n  assignImmutable(\"0xd2f8f61201b2b11a78d6e866abc9c3db2ae8631fa656bfe5cb53668255367afb\")\n  0x00\n  assignImmutable(\"0x52f1a9b320cab38e5da8a8f97989383aab0a49165fc91c737310e4f7e9821021\")\n  0x00\n  assignImmutable(\"0xceebf77a833b30520287ddd9478ff51abbdffa30aa90a8d655dba0e8a79ce0c1\")\n  0x00\n  assignImmutable(\"0x2a80e1ef1d7842f27f2e6be0972bb708b9a135c38860dbe73c27c3486c34f4de\")\n  return(0x00, dataSize(sub_0))\nstop\n\nsub_0: assembly {\n        /* \"contracts/PriceDecay.sol\":57:1704  contract PriceSlowDecay {... */\n      mstore(0x40, 0x80)\n      callvalue\n      dup1\n      iszero\n      tag_1\n      jumpi\n      0x00\n      dup1\n      revert\n    tag_1:\n      pop\n      jumpi(tag_2, lt(calldatasize, 0x04))\n      shr(0xe0, calldataload(0x00))\n      dup1\n      0x0fb5a6b4\n      eq\n      tag_3\n      jumpi\n      dup1\n      0x1d0806ae\n      eq\n      tag_4\n      jumpi\n      dup1\n      0x78e97925\n      eq\n      tag_5\n      jumpi\n      dup1\n      0xe45be8eb\n      eq\n      tag_6\n      jumpi\n      dup1\n      0xeb91d37e\n      eq\n      tag_7\n      jumpi\n    tag_2:\n      0x00\n      dup1\n      revert\n        /* \"contracts/PriceDecay.sol\":301:334  uint256 public immutable duration */\n    tag_3:\n      tag_8\n      immutable(\"0xd2f8f61201b2b11a78d6e866abc9c3db2ae8631fa656bfe5cb53668255367afb\")\n      dup2\n      jump\n    tag_8:\n      mload(0x40)\n        /* \"#utility.yul\":160:185   */\n      swap1\n      dup2\n      mstore\n        /* \"#utility.yul\":148:150   */\n      0x20\n        /* \"#utility.yul\":133:151   */\n      add\n        /* \"contracts/PriceDecay.sol\":301:334  uint256 public immutable duration */\n      mload(0x40)\n      dup1\n      swap2\n      sub\n      swap1\n      return\n        /* \"contracts/PriceDecay.sol\":87:124  uint256 public immutable initialPrice */\n    tag_4:\n      tag_8\n      immutable(\"0x2a80e1ef1d7842f27f2e6be0972bb708b9a135c38860dbe73c27c3486c34f4de\")\n      dup2\n      jump\n        /* \"contracts/PriceDecay.sol\":231:265  uint256 public immutable startTime */\n    tag_5:\n      tag_8\n      immutable(\"0x52f1a9b320cab38e5da8a8f97989383aab0a49165fc91c737310e4f7e9821021\")\n      dup2\n      jump\n        /* \"contracts/PriceDecay.sol\":153:186  uint256 public immutable minPrice */\n    tag_6:\n      tag_8\n      immutable(\"0xceebf77a833b30520287ddd9478ff51abbdffa30aa90a8d655dba0e8a79ce0c1\")\n      dup2\n      jump\n        /* \"contracts/PriceDecay.sol\":894:1702  function getCurrentPrice() public view returns (uint256) {... */\n    tag_7:\n      tag_8\n        /* \"contracts/PriceDecay.sol\":942:949  uint256 */\n      0x00\n      dup1\n        /* \"contracts/PriceDecay.sol\":1028:1055  block.timestamp - startTime */\n      tag_25\n        /* \"contracts/PriceDecay.sol\":1046:1055  startTime */\n      immutable(\"0x52f1a9b320cab38e5da8a8f97989383aab0a49165fc91c737310e4f7e9821021\")\n        /* \"contracts/PriceDecay.sol\":1028:1043  block.timestamp */\n      timestamp\n        /* \"contracts/PriceDecay.sol\":1028:1055  block.timestamp - startTime */\n      tag_26\n      jump\t// in\n    tag_25:\n        /* \"contracts/PriceDecay.sol\":1006:1055  uint256 elapsedTime = block.timestamp - startTime */\n      swap1\n      pop\n        /* \"contracts/PriceDecay.sol\":1147:1155  duration */\n      immutable(\"0xd2f8f61201b2b11a78d6e866abc9c3db2ae8631fa656bfe5cb53668255367afb\")\n        /* \"contracts/PriceDecay.sol\":1132:1143  elapsedTime */\n      dup2\n        /* \"contracts/PriceDecay.sol\":1132:1155  elapsedTime >= duration */\n      lt\n        /* \"contracts/PriceDecay.sol\":1128:1197  if (elapsedTime >= duration) {... */\n      tag_27\n      jumpi\n        /* \"contracts/PriceDecay.sol\":1178:1186  minPrice */\n      immutable(\"0xceebf77a833b30520287ddd9478ff51abbdffa30aa90a8d655dba0e8a79ce0c1\")\n        /* \"contracts/PriceDecay.sol\":1171:1186  return minPrice */\n      swap2\n      pop\n      pop\n        /* \"contracts/PriceDecay.sol\":894:1702  function getCurrentPrice() public view returns (uint256) {... */\n      swap1\n      jump\t// out\n        /* \"contracts/PriceDecay.sol\":1128:1197  if (elapsedTime >= duration) {... */\n    tag_27:\n        /* \"contracts/PriceDecay.sol\":1275:1293  uint256 timeFactor */\n      0x00\n        /* \"contracts/PriceDecay.sol\":1318:1326  duration */\n      immutable(\"0xd2f8f61201b2b11a78d6e866abc9c3db2ae8631fa656bfe5cb53668255367afb\")\n        /* \"contracts/PriceDecay.sol\":1297:1315  elapsedTime * 1e18 */\n      tag_28\n        /* \"contracts/PriceDecay.sol\":1297:1308  elapsedTime */\n      dup4\n        /* \"contracts/PriceDecay.sol\":1311:1315  1e18 */\n      0x0de0b6b3a7640000\n        /* \"contracts/PriceDecay.sol\":1297:1315  elapsedTime * 1e18 */\n      tag_29\n      jump\t// in\n    tag_28:\n        /* \"contracts/PriceDecay.sol\":1297:1326  elapsedTime * 1e18 / duration */\n      tag_30\n      swap2\n      swap1\n      tag_31\n      jump\t// in\n    tag_30:\n        /* \"contracts/PriceDecay.sol\":1275:1327  uint256 timeFactor = (elapsedTime * 1e18 / duration) */\n      swap1\n      pop\n        /* \"contracts/PriceDecay.sol\":1364:1383  uint256 decayFactor */\n      0x00\n        /* \"contracts/PriceDecay.sol\":1420:1424  1e18 */\n      0x0de0b6b3a7640000\n        /* \"contracts/PriceDecay.sol\":1394:1417  timeFactor * timeFactor */\n      tag_32\n        /* \"contracts/PriceDecay.sol\":1275:1327  uint256 timeFactor = (elapsedTime * 1e18 / duration) */\n      dup4\n      dup1\n        /* \"contracts/PriceDecay.sol\":1394:1417  timeFactor * timeFactor */\n      tag_29\n      jump\t// in\n    tag_32:\n        /* \"contracts/PriceDecay.sol\":1394:1424  timeFactor * timeFactor / 1e18 */\n      tag_33\n      swap2\n      swap1\n      tag_31\n      jump\t// in\n    tag_33:\n        /* \"contracts/PriceDecay.sol\":1386:1425  1e18 - (timeFactor * timeFactor / 1e18) */\n      tag_34\n      swap1\n        /* \"contracts/PriceDecay.sol\":1386:1390  1e18 */\n      0x0de0b6b3a7640000\n        /* \"contracts/PriceDecay.sol\":1386:1425  1e18 - (timeFactor * timeFactor / 1e18) */\n      tag_26\n      jump\t// in\n    tag_34:\n        /* \"contracts/PriceDecay.sol\":1364:1425  uint256 decayFactor = 1e18 - (timeFactor * timeFactor / 1e18) */\n      swap1\n      pop\n        /* \"contracts/PriceDecay.sol\":1520:1538  uint256 priceRange */\n      0x00\n        /* \"contracts/PriceDecay.sol\":1541:1564  initialPrice - minPrice */\n      tag_35\n        /* \"contracts/PriceDecay.sol\":1556:1564  minPrice */\n      immutable(\"0xceebf77a833b30520287ddd9478ff51abbdffa30aa90a8d655dba0e8a79ce0c1\")\n        /* \"contracts/PriceDecay.sol\":1541:1553  initialPrice */\n      immutable(\"0x2a80e1ef1d7842f27f2e6be0972bb708b9a135c38860dbe73c27c3486c34f4de\")\n        /* \"contracts/PriceDecay.sol\":1541:1564  initialPrice - minPrice */\n      tag_26\n      jump\t// in\n    tag_35:\n        /* \"contracts/PriceDecay.sol\":1520:1564  uint256 priceRange = initialPrice - minPrice */\n      swap1\n      pop\n        /* \"contracts/PriceDecay.sol\":1574:1595  uint256 decayedAmount */\n      0x00\n        /* \"contracts/PriceDecay.sol\":1627:1631  1e18 */\n      0x0de0b6b3a7640000\n        /* \"contracts/PriceDecay.sol\":1599:1623  priceRange * decayFactor */\n      tag_36\n        /* \"contracts/PriceDecay.sol\":1612:1623  decayFactor */\n      dup5\n        /* \"contracts/PriceDecay.sol\":1520:1564  uint256 priceRange = initialPrice - minPrice */\n      dup5\n        /* \"contracts/PriceDecay.sol\":1599:1623  priceRange * decayFactor */\n      tag_29\n      jump\t// in\n    tag_36:\n        /* \"contracts/PriceDecay.sol\":1598:1631  (priceRange * decayFactor) / 1e18 */\n      tag_37\n      swap2\n      swap1\n      tag_31\n      jump\t// in\n    tag_37:\n        /* \"contracts/PriceDecay.sol\":1574:1631  uint256 decayedAmount = (priceRange * decayFactor) / 1e18 */\n      swap1\n      pop\n        /* \"contracts/PriceDecay.sol\":1671:1695  minPrice + decayedAmount */\n      tag_38\n        /* \"contracts/PriceDecay.sol\":1574:1631  uint256 decayedAmount = (priceRange * decayFactor) / 1e18 */\n      dup2\n        /* \"contracts/PriceDecay.sol\":1671:1679  minPrice */\n      immutable(\"0xceebf77a833b30520287ddd9478ff51abbdffa30aa90a8d655dba0e8a79ce0c1\")\n        /* \"contracts/PriceDecay.sol\":1671:1695  minPrice + decayedAmount */\n      tag_39\n      jump\t// in\n    tag_38:\n        /* \"contracts/PriceDecay.sol\":1664:1695  return minPrice + decayedAmount */\n      swap6\n      pop\n      pop\n      pop\n      pop\n      pop\n      pop\n        /* \"contracts/PriceDecay.sol\":894:1702  function getCurrentPrice() public view returns (uint256) {... */\n      swap1\n      jump\t// out\n        /* \"#utility.yul\":196:323   */\n    tag_40:\n        /* \"#utility.yul\":257:267   */\n      0x4e487b71\n        /* \"#utility.yul\":252:255   */\n      0xe0\n        /* \"#utility.yul\":248:268   */\n      shl\n        /* \"#utility.yul\":245:246   */\n      0x00\n        /* \"#utility.yul\":238:269   */\n      mstore\n        /* \"#utility.yul\":288:292   */\n      0x11\n        /* \"#utility.yul\":285:286   */\n      0x04\n        /* \"#utility.yul\":278:293   */\n      mstore\n        /* \"#utility.yul\":312:316   */\n      0x24\n        /* \"#utility.yul\":309:310   */\n      0x00\n        /* \"#utility.yul\":302:317   */\n      revert\n        /* \"#utility.yul\":328:456   */\n    tag_26:\n        /* \"#utility.yul\":395:404   */\n      dup2\n      dup2\n      sub\n        /* \"#utility.yul\":416:427   */\n      dup2\n      dup2\n      gt\n        /* \"#utility.yul\":413:450   */\n      iszero\n      tag_46\n      jumpi\n        /* \"#utility.yul\":430:448   */\n      tag_46\n      tag_40\n      jump\t// in\n    tag_46:\n        /* \"#utility.yul\":328:456   */\n      swap3\n      swap2\n      pop\n      pop\n      jump\t// out\n        /* \"#utility.yul\":461:629   */\n    tag_29:\n        /* \"#utility.yul\":534:543   */\n      dup1\n      dup3\n      mul\n        /* \"#utility.yul\":565:574   */\n      dup2\n      iszero\n        /* \"#utility.yul\":582:597   */\n      dup3\n      dup3\n      div\n        /* \"#utility.yul\":576:598   */\n      dup5\n      eq\n        /* \"#utility.yul\":562:599   */\n      or\n        /* \"#utility.yul\":552:623   */\n      tag_46\n      jumpi\n        /* \"#utility.yul\":603:621   */\n      tag_46\n      tag_40\n      jump\t// in\n        /* \"#utility.yul\":634:851   */\n    tag_31:\n        /* \"#utility.yul\":674:675   */\n      0x00\n        /* \"#utility.yul\":700:701   */\n      dup3\n        /* \"#utility.yul\":690:822   */\n      tag_51\n      jumpi\n        /* \"#utility.yul\":744:754   */\n      0x4e487b71\n        /* \"#utility.yul\":739:742   */\n      0xe0\n        /* \"#utility.yul\":735:755   */\n      shl\n        /* \"#utility.yul\":732:733   */\n      0x00\n        /* \"#utility.yul\":725:756   */\n      mstore\n        /* \"#utility.yul\":779:783   */\n      0x12\n        /* \"#utility.yul\":776:777   */\n      0x04\n        /* \"#utility.yul\":769:784   */\n      mstore\n        /* \"#utility.yul\":807:811   */\n      0x24\n        /* \"#utility.yul\":804:805   */\n      0x00\n        /* \"#utility.yul\":797:812   */\n      revert\n        /* \"#utility.yul\":690:822   */\n    tag_51:\n      pop\n        /* \"#utility.yul\":836:845   */\n      div\n      swap1\n        /* \"#utility.yul\":634:851   */\n      jump\t// out\n        /* \"#utility.yul\":856:981   */\n    tag_39:\n        /* \"#utility.yul\":921:930   */\n      dup1\n      dup3\n      add\n        /* \"#utility.yul\":942:952   */\n      dup1\n      dup3\n      gt\n        /* \"#utility.yul\":939:975   */\n      iszero\n      tag_46\n      jumpi\n        /* \"#utility.yul\":955:973   */\n      tag_46\n      tag_40\n      jump\t// in\n\n    auxdata: 0xa2646970667358221220280c6ea4eb7d421fba07af45af3461b4e7c4452511ee750d7de0d2da034511b964736f6c634300081a0033\n}\n",
				"bytecode": {
					"linkReferences": {},
					"object": "610100604052348015610010575f80fd5b5060405161050b38038061050b83398101604081905261002f91610112565b81831161009d5760405162461bcd60e51b815260206004820152603160248201527f496e697469616c207072696365206d757374206265206772656174657220746860448201527030b71036b4b734b6bab690383934b1b29760791b60648201526084015b60405180910390fd5b5f81116100ec5760405162461bcd60e51b815260206004820181905260248201527f4475726174696f6e206d7573742062652067726561746572207468616e20302e6044820152606401610094565b608083905260a0829052610103816201518061013d565b60e05250504260c05250610166565b5f805f60608486031215610124575f80fd5b5050815160208301516040909301519094929350919050565b808202811582820484141761016057634e487b7160e01b5f52601160045260245ffd5b92915050565b60805160a05160c05160e0516103456101c65f395f8181605e0152818161013a015261018901525f818160be015261011101525f818160e501528181610161015281816101fe015261026b01525f81816097015261021f01526103455ff3fe608060405234801561000f575f80fd5b5060043610610055575f3560e01c80630fb5a6b4146100595780631d0806ae1461009257806378e97925146100b9578063e45be8eb146100e0578063eb91d37e14610107575b5f80fd5b6100807f000000000000000000000000000000000000000000000000000000000000000081565b60405190815260200160405180910390f35b6100807f000000000000000000000000000000000000000000000000000000000000000081565b6100807f000000000000000000000000000000000000000000000000000000000000000081565b6100807f000000000000000000000000000000000000000000000000000000000000000081565b6100805f806101367f0000000000000000000000000000000000000000000000000000000000000000426102ad565b90507f00000000000000000000000000000000000000000000000000000000000000008110610186577f000000000000000000000000000000000000000000000000000000000000000091505090565b5f7f00000000000000000000000000000000000000000000000000000000000000006101ba83670de0b6b3a76400006102c6565b6101c491906102dd565b90505f670de0b6b3a76400006101da83806102c6565b6101e491906102dd565b6101f690670de0b6b3a76400006102ad565b90505f6102437f00000000000000000000000000000000000000000000000000000000000000007f00000000000000000000000000000000000000000000000000000000000000006102ad565b90505f670de0b6b3a764000061025984846102c6565b61026391906102dd565b905061028f817f00000000000000000000000000000000000000000000000000000000000000006102fc565b9550505050505090565b634e487b7160e01b5f52601160045260245ffd5b818103818111156102c0576102c0610299565b92915050565b80820281158282048414176102c0576102c0610299565b5f826102f757634e487b7160e01b5f52601260045260245ffd5b500490565b808201808211156102c0576102c061029956fea2646970667358221220280c6ea4eb7d421fba07af45af3461b4e7c4452511ee750d7de0d2da034511b964736f6c634300081a0033",
					"opcodes": "PUSH2 0x100 PUSH1 0x40 MSTORE CALLVALUE DUP1 ISZERO PUSH2 0x10 JUMPI PUSH0 DUP1 REVERT JUMPDEST POP PUSH1 0x40 MLOAD PUSH2 0x50B CODESIZE SUB DUP1 PUSH2 0x50B DUP4 CODECOPY DUP2 ADD PUSH1 0x40 DUP2 SWAP1 MSTORE PUSH2 0x2F SWAP2 PUSH2 0x112 JUMP JUMPDEST DUP2 DUP4 GT PUSH2 0x9D JUMPI PUSH1 0x40 MLOAD PUSH3 0x461BCD PUSH1 0xE5 SHL DUP2 MSTORE PUSH1 0x20 PUSH1 0x4 DUP3 ADD MSTORE PUSH1 0x31 PUSH1 0x24 DUP3 ADD MSTORE PUSH32 0x496E697469616C207072696365206D7573742062652067726561746572207468 PUSH1 0x44 DUP3 ADD MSTORE PUSH17 0x30B71036B4B734B6BAB690383934B1B297 PUSH1 0x79 SHL PUSH1 0x64 DUP3 ADD MSTORE PUSH1 0x84 ADD JUMPDEST PUSH1 0x40 MLOAD DUP1 SWAP2 SUB SWAP1 REVERT JUMPDEST PUSH0 DUP2 GT PUSH2 0xEC JUMPI PUSH1 0x40 MLOAD PUSH3 0x461BCD PUSH1 0xE5 SHL DUP2 MSTORE PUSH1 0x20 PUSH1 0x4 DUP3 ADD DUP2 SWAP1 MSTORE PUSH1 0x24 DUP3 ADD MSTORE PUSH32 0x4475726174696F6E206D7573742062652067726561746572207468616E20302E PUSH1 0x44 DUP3 ADD MSTORE PUSH1 0x64 ADD PUSH2 0x94 JUMP JUMPDEST PUSH1 0x80 DUP4 SWAP1 MSTORE PUSH1 0xA0 DUP3 SWAP1 MSTORE PUSH2 0x103 DUP2 PUSH3 0x15180 PUSH2 0x13D JUMP JUMPDEST PUSH1 0xE0 MSTORE POP POP TIMESTAMP PUSH1 0xC0 MSTORE POP PUSH2 0x166 JUMP JUMPDEST PUSH0 DUP1 PUSH0 PUSH1 0x60 DUP5 DUP7 SUB SLT ISZERO PUSH2 0x124 JUMPI PUSH0 DUP1 REVERT JUMPDEST POP POP DUP2 MLOAD PUSH1 0x20 DUP4 ADD MLOAD PUSH1 0x40 SWAP1 SWAP4 ADD MLOAD SWAP1 SWAP5 SWAP3 SWAP4 POP SWAP2 SWAP1 POP JUMP JUMPDEST DUP1 DUP3 MUL DUP2 ISZERO DUP3 DUP3 DIV DUP5 EQ OR PUSH2 0x160 JUMPI PUSH4 0x4E487B71 PUSH1 0xE0 SHL PUSH0 MSTORE PUSH1 0x11 PUSH1 0x4 MSTORE PUSH1 0x24 PUSH0 REVERT JUMPDEST SWAP3 SWAP2 POP POP JUMP JUMPDEST PUSH1 0x80 MLOAD PUSH1 0xA0 MLOAD PUSH1 0xC0 MLOAD PUSH1 0xE0 MLOAD PUSH2 0x345 PUSH2 0x1C6 PUSH0 CODECOPY PUSH0 DUP2 DUP2 PUSH1 0x5E ADD MSTORE DUP2 DUP2 PUSH2 0x13A ADD MSTORE PUSH2 0x189 ADD MSTORE PUSH0 DUP2 DUP2 PUSH1 0xBE ADD MSTORE PUSH2 0x111 ADD MSTORE PUSH0 DUP2 DUP2 PUSH1 0xE5 ADD MSTORE DUP2 DUP2 PUSH2 0x161 ADD MSTORE DUP2 DUP2 PUSH2 0x1FE ADD MSTORE PUSH2 0x26B ADD MSTORE PUSH0 DUP2 DUP2 PUSH1 0x97 ADD MSTORE PUSH2 0x21F ADD MSTORE PUSH2 0x345 PUSH0 RETURN INVALID PUSH1 0x80 PUSH1 0x40 MSTORE CALLVALUE DUP1 ISZERO PUSH2 0xF JUMPI PUSH0 DUP1 REVERT JUMPDEST POP PUSH1 0x4 CALLDATASIZE LT PUSH2 0x55 JUMPI PUSH0 CALLDATALOAD PUSH1 0xE0 SHR DUP1 PUSH4 0xFB5A6B4 EQ PUSH2 0x59 JUMPI DUP1 PUSH4 0x1D0806AE EQ PUSH2 0x92 JUMPI DUP1 PUSH4 0x78E97925 EQ PUSH2 0xB9 JUMPI DUP1 PUSH4 0xE45BE8EB EQ PUSH2 0xE0 JUMPI DUP1 PUSH4 0xEB91D37E EQ PUSH2 0x107 JUMPI JUMPDEST PUSH0 DUP1 REVERT JUMPDEST PUSH2 0x80 PUSH32 0x0 DUP2 JUMP JUMPDEST PUSH1 0x40 MLOAD SWAP1 DUP2 MSTORE PUSH1 0x20 ADD PUSH1 0x40 MLOAD DUP1 SWAP2 SUB SWAP1 RETURN JUMPDEST PUSH2 0x80 PUSH32 0x0 DUP2 JUMP JUMPDEST PUSH2 0x80 PUSH32 0x0 DUP2 JUMP JUMPDEST PUSH2 0x80 PUSH32 0x0 DUP2 JUMP JUMPDEST PUSH2 0x80 PUSH0 DUP1 PUSH2 0x136 PUSH32 0x0 TIMESTAMP PUSH2 0x2AD JUMP JUMPDEST SWAP1 POP PUSH32 0x0 DUP2 LT PUSH2 0x186 JUMPI PUSH32 0x0 SWAP2 POP POP SWAP1 JUMP JUMPDEST PUSH0 PUSH32 0x0 PUSH2 0x1BA DUP4 PUSH8 0xDE0B6B3A7640000 PUSH2 0x2C6 JUMP JUMPDEST PUSH2 0x1C4 SWAP2 SWAP1 PUSH2 0x2DD JUMP JUMPDEST SWAP1 POP PUSH0 PUSH8 0xDE0B6B3A7640000 PUSH2 0x1DA DUP4 DUP1 PUSH2 0x2C6 JUMP JUMPDEST PUSH2 0x1E4 SWAP2 SWAP1 PUSH2 0x2DD JUMP JUMPDEST PUSH2 0x1F6 SWAP1 PUSH8 0xDE0B6B3A7640000 PUSH2 0x2AD JUMP JUMPDEST SWAP1 POP PUSH0 PUSH2 0x243 PUSH32 0x0 PUSH32 0x0 PUSH2 0x2AD JUMP JUMPDEST SWAP1 POP PUSH0 PUSH8 0xDE0B6B3A7640000 PUSH2 0x259 DUP5 DUP5 PUSH2 0x2C6 JUMP JUMPDEST PUSH2 0x263 SWAP2 SWAP1 PUSH2 0x2DD JUMP JUMPDEST SWAP1 POP PUSH2 0x28F DUP2 PUSH32 0x0 PUSH2 0x2FC JUMP JUMPDEST SWAP6 POP POP POP POP POP POP SWAP1 JUMP JUMPDEST PUSH4 0x4E487B71 PUSH1 0xE0 SHL PUSH0 MSTORE PUSH1 0x11 PUSH1 0x4 MSTORE PUSH1 0x24 PUSH0 REVERT JUMPDEST DUP2 DUP2 SUB DUP2 DUP2 GT ISZERO PUSH2 0x2C0 JUMPI PUSH2 0x2C0 PUSH2 0x299 JUMP JUMPDEST SWAP3 SWAP2 POP POP JUMP JUMPDEST DUP1 DUP3 MUL DUP2 ISZERO DUP3 DUP3 DIV DUP5 EQ OR PUSH2 0x2C0 JUMPI PUSH2 0x2C0 PUSH2 0x299 JUMP JUMPDEST PUSH0 DUP3 PUSH2 0x2F7 JUMPI PUSH4 0x4E487B71 PUSH1 0xE0 SHL PUSH0 MSTORE PUSH1 0x12 PUSH1 0x4 MSTORE PUSH1 0x24 PUSH0 REVERT JUMPDEST POP DIV SWAP1 JUMP JUMPDEST DUP1 DUP3 ADD DUP1 DUP3 GT ISZERO PUSH2 0x2C0 JUMPI PUSH2 0x2C0 PUSH2 0x299 JUMP INVALID LOG2 PUSH5 0x6970667358 0x22 SLT KECCAK256 0x28 0xC PUSH15 0xA4EB7D421FBA07AF45AF3461B4E7C4 GASLIMIT 0x25 GT 0xEE PUSH22 0xD7DE0D2DA034511B964736F6C634300081A00330000 "
				},
				"gasEstimates": {
					"creation": {
						"codeDepositCost": "167400",
						"executionCost": "infinite",
						"totalCost": "infinite"
					},
					"external": {
						"duration()": "infinite",
						"getCurrentPrice()": "infinite",
						"initialPrice()": "infinite",
						"minPrice()": "infinite",
						"startTime()": "infinite"
					}
				},
				"methodIdentifiers": {
					"duration()": "0fb5a6b4",
					"getCurrentPrice()": "eb91d37e",
					"initialPrice()": "1d0806ae",
					"minPrice()": "e45be8eb",
					"startTime()": "78e97925"
				}
			},
			"storageLayout": {
				"storage": [],
				"types": null
			},
			"userdoc": {
				"kind": "user",
				"methods": {},
				"version": 1
			}
		}
	}
}