{
	"contracts/staking.sol": {
		"XusdGenesisRewardPool": {
			"abi": [
				{
					"inputs": [
						{
							"internalType": "address",
							"name": "_Xusd",
							"type": "address"
						},
						{
							"internalType": "address[]",
							"name": "comissionTokens_",
							"type": "address[]"
						},
						{
							"internalType": "uint256",
							"name": "_comissionPercent",
							"type": "uint256"
						},
						{
							"internalType": "uint256",
							"name": "_poolStartTime",
							"type": "uint256"
						},
						{
							"internalType": "uint256",
							"name": "_totalRewards",
							"type": "uint256"
						},
						{
							"internalType": "uint256",
							"name": "_runningTime",
							"type": "uint256"
						}
					],
					"stateMutability": "nonpayable",
					"type": "constructor"
				},
				{
					"anonymous": false,
					"inputs": [
						{
							"indexed": true,
							"internalType": "address",
							"name": "user",
							"type": "address"
						},
						{
							"indexed": true,
							"internalType": "uint256",
							"name": "pid",
							"type": "uint256"
						},
						{
							"indexed": false,
							"internalType": "uint256",
							"name": "amount",
							"type": "uint256"
						}
					],
					"name": "Deposit",
					"type": "event"
				},
				{
					"anonymous": false,
					"inputs": [
						{
							"indexed": true,
							"internalType": "address",
							"name": "user",
							"type": "address"
						},
						{
							"indexed": true,
							"internalType": "uint256",
							"name": "pid",
							"type": "uint256"
						},
						{
							"indexed": false,
							"internalType": "uint256",
							"name": "amount",
							"type": "uint256"
						}
					],
					"name": "EmergencyWithdraw",
					"type": "event"
				},
				{
					"anonymous": false,
					"inputs": [
						{
							"indexed": true,
							"internalType": "address",
							"name": "user",
							"type": "address"
						},
						{
							"indexed": false,
							"internalType": "uint256",
							"name": "amount",
							"type": "uint256"
						}
					],
					"name": "RewardPaid",
					"type": "event"
				},
				{
					"anonymous": false,
					"inputs": [
						{
							"indexed": true,
							"internalType": "address",
							"name": "user",
							"type": "address"
						},
						{
							"indexed": true,
							"internalType": "uint256",
							"name": "pid",
							"type": "uint256"
						},
						{
							"indexed": false,
							"internalType": "uint256",
							"name": "amount",
							"type": "uint256"
						}
					],
					"name": "Withdraw",
					"type": "event"
				},
				{
					"inputs": [],
					"name": "Xusd",
					"outputs": [
						{
							"internalType": "contract IERC20",
							"name": "",
							"type": "address"
						}
					],
					"stateMutability": "view",
					"type": "function"
				},
				{
					"inputs": [],
					"name": "XusdPerSecond",
					"outputs": [
						{
							"internalType": "uint256",
							"name": "",
							"type": "uint256"
						}
					],
					"stateMutability": "view",
					"type": "function"
				},
				{
					"inputs": [
						{
							"internalType": "uint256",
							"name": "_allocPoint",
							"type": "uint256"
						},
						{
							"internalType": "contract IERC20",
							"name": "_token",
							"type": "address"
						},
						{
							"internalType": "bool",
							"name": "_withUpdate",
							"type": "bool"
						},
						{
							"internalType": "uint256",
							"name": "_lastRewardTime",
							"type": "uint256"
						},
						{
							"internalType": "uint256",
							"name": "_maxDeposit",
							"type": "uint256"
						}
					],
					"name": "add",
					"outputs": [],
					"stateMutability": "nonpayable",
					"type": "function"
				},
				{
					"inputs": [],
					"name": "comissionPercent",
					"outputs": [
						{
							"internalType": "uint256",
							"name": "",
							"type": "uint256"
						}
					],
					"stateMutability": "view",
					"type": "function"
				},
				{
					"inputs": [
						{
							"internalType": "uint256",
							"name": "index",
							"type": "uint256"
						}
					],
					"name": "comissionToken",
					"outputs": [
						{
							"internalType": "address",
							"name": "",
							"type": "address"
						}
					],
					"stateMutability": "view",
					"type": "function"
				},
				{
					"inputs": [],
					"name": "comissionTokensCount",
					"outputs": [
						{
							"internalType": "uint256",
							"name": "",
							"type": "uint256"
						}
					],
					"stateMutability": "view",
					"type": "function"
				},
				{
					"inputs": [
						{
							"internalType": "uint256",
							"name": "_pid",
							"type": "uint256"
						},
						{
							"internalType": "uint256",
							"name": "_amount",
							"type": "uint256"
						}
					],
					"name": "deposit",
					"outputs": [],
					"stateMutability": "nonpayable",
					"type": "function"
				},
				{
					"inputs": [
						{
							"internalType": "uint256",
							"name": "_pid",
							"type": "uint256"
						}
					],
					"name": "emergencyWithdraw",
					"outputs": [],
					"stateMutability": "nonpayable",
					"type": "function"
				},
				{
					"inputs": [
						{
							"internalType": "uint256",
							"name": "_fromTime",
							"type": "uint256"
						},
						{
							"internalType": "uint256",
							"name": "_toTime",
							"type": "uint256"
						}
					],
					"name": "getGeneratedReward",
					"outputs": [
						{
							"internalType": "uint256",
							"name": "",
							"type": "uint256"
						}
					],
					"stateMutability": "view",
					"type": "function"
				},
				{
					"inputs": [
						{
							"internalType": "contract IERC20",
							"name": "_token",
							"type": "address"
						},
						{
							"internalType": "uint256",
							"name": "amount",
							"type": "uint256"
						},
						{
							"internalType": "address",
							"name": "to",
							"type": "address"
						}
					],
					"name": "governanceRecoverUnsupported",
					"outputs": [],
					"stateMutability": "nonpayable",
					"type": "function"
				},
				{
					"inputs": [],
					"name": "massUpdatePools",
					"outputs": [],
					"stateMutability": "nonpayable",
					"type": "function"
				},
				{
					"inputs": [],
					"name": "operator",
					"outputs": [
						{
							"internalType": "address",
							"name": "",
							"type": "address"
						}
					],
					"stateMutability": "view",
					"type": "function"
				},
				{
					"inputs": [
						{
							"internalType": "uint256",
							"name": "_pid",
							"type": "uint256"
						},
						{
							"internalType": "address",
							"name": "_user",
							"type": "address"
						}
					],
					"name": "pendingXusd",
					"outputs": [
						{
							"internalType": "uint256",
							"name": "",
							"type": "uint256"
						}
					],
					"stateMutability": "view",
					"type": "function"
				},
				{
					"inputs": [],
					"name": "poolEndTime",
					"outputs": [
						{
							"internalType": "uint256",
							"name": "",
							"type": "uint256"
						}
					],
					"stateMutability": "view",
					"type": "function"
				},
				{
					"inputs": [
						{
							"internalType": "uint256",
							"name": "",
							"type": "uint256"
						}
					],
					"name": "poolInfo",
					"outputs": [
						{
							"internalType": "contract IERC20",
							"name": "token",
							"type": "address"
						},
						{
							"internalType": "uint256",
							"name": "allocPoint",
							"type": "uint256"
						},
						{
							"internalType": "uint256",
							"name": "lastRewardTime",
							"type": "uint256"
						},
						{
							"internalType": "uint256",
							"name": "accXusdPerShare",
							"type": "uint256"
						},
						{
							"internalType": "bool",
							"name": "isStarted",
							"type": "bool"
						},
						{
							"internalType": "uint256",
							"name": "maxDeposit",
							"type": "uint256"
						}
					],
					"stateMutability": "view",
					"type": "function"
				},
				{
					"inputs": [],
					"name": "poolStartTime",
					"outputs": [
						{
							"internalType": "uint256",
							"name": "",
							"type": "uint256"
						}
					],
					"stateMutability": "view",
					"type": "function"
				},
				{
					"inputs": [],
					"name": "runningTime",
					"outputs": [
						{
							"internalType": "uint256",
							"name": "",
							"type": "uint256"
						}
					],
					"stateMutability": "view",
					"type": "function"
				},
				{
					"inputs": [
						{
							"internalType": "uint256",
							"name": "_pid",
							"type": "uint256"
						},
						{
							"internalType": "uint256",
							"name": "_allocPoint",
							"type": "uint256"
						}
					],
					"name": "set",
					"outputs": [],
					"stateMutability": "nonpayable",
					"type": "function"
				},
				{
					"inputs": [
						{
							"internalType": "address",
							"name": "_operator",
							"type": "address"
						}
					],
					"name": "setOperator",
					"outputs": [],
					"stateMutability": "nonpayable",
					"type": "function"
				},
				{
					"inputs": [],
					"name": "totalAllocPoint",
					"outputs": [
						{
							"internalType": "uint256",
							"name": "",
							"type": "uint256"
						}
					],
					"stateMutability": "view",
					"type": "function"
				},
				{
					"inputs": [],
					"name": "totalRewards",
					"outputs": [
						{
							"internalType": "uint256",
							"name": "",
							"type": "uint256"
						}
					],
					"stateMutability": "view",
					"type": "function"
				},
				{
					"inputs": [
						{
							"internalType": "uint256",
							"name": "_pid",
							"type": "uint256"
						}
					],
					"name": "updatePool",
					"outputs": [],
					"stateMutability": "nonpayable",
					"type": "function"
				},
				{
					"inputs": [
						{
							"internalType": "uint256",
							"name": "",
							"type": "uint256"
						},
						{
							"internalType": "address",
							"name": "",
							"type": "address"
						}
					],
					"name": "userInfo",
					"outputs": [
						{
							"internalType": "uint256",
							"name": "amount",
							"type": "uint256"
						},
						{
							"internalType": "uint256",
							"name": "rewardDebt",
							"type": "uint256"
						}
					],
					"stateMutability": "view",
					"type": "function"
				},
				{
					"inputs": [
						{
							"internalType": "uint256",
							"name": "_pid",
							"type": "uint256"
						},
						{
							"internalType": "uint256",
							"name": "_amount",
							"type": "uint256"
						}
					],
					"name": "withdraw",
					"outputs": [],
					"stateMutability": "nonpayable",
					"type": "function"
				}
			],
			"devdoc": {
				"kind": "dev",
				"methods": {},
				"version": 1
			},
			"evm": {
				"assembly": "    /* \"contracts/staking.sol\":181:10092  contract XusdGenesisRewardPool {... */\n  mstore(0x40, 0x80)\n    /* \"contracts/staking.sol\":831:832  0 */\n  0x00\n    /* \"contracts/staking.sol\":798:832  uint256 public totalAllocPoint = 0 */\n  0x07\n  sstore\n    /* \"contracts/staking.sol\":1311:2273  constructor(... */\n  callvalue\n  dup1\n  iszero\n  tag_1\n  jumpi\n  revert(0x00, 0x00)\ntag_1:\n  pop\n  mload(0x40)\n  sub(codesize, bytecodeSize)\n  dup1\n  bytecodeSize\n  dup4\n  codecopy\n  dup2\n  add\n  0x40\n  dup2\n  swap1\n  mstore\n  tag_2\n  swap2\n  tag_3\n  jump\t// in\ntag_2:\n    /* \"contracts/staking.sol\":1559:1573  _poolStartTime */\n  dup3\n    /* \"contracts/staking.sol\":1541:1556  block.timestamp */\n  timestamp\n    /* \"contracts/staking.sol\":1541:1573  block.timestamp < _poolStartTime */\n  lt\n    /* \"contracts/staking.sol\":1533:1582  require(block.timestamp < _poolStartTime, \"late\") */\n  tag_6\n  jumpi\n  mload(0x40)\n  shl(0xe5, 0x461bcd)\n  dup2\n  mstore\n  0x04\n  add\n  tag_7\n  swap1\n    /* \"#utility.yul\":2204:2206   */\n  0x20\n    /* \"#utility.yul\":2186:2207   */\n  dup1\n  dup3\n  mstore\n    /* \"#utility.yul\":2243:2244   */\n  0x04\n    /* \"#utility.yul\":2223:2241   */\n  swap1\n  dup3\n  add\n    /* \"#utility.yul\":2216:2245   */\n  mstore\n  shl(0xe0, 0x6c617465)\n    /* \"#utility.yul\":2276:2278   */\n  0x40\n    /* \"#utility.yul\":2261:2279   */\n  dup3\n  add\n    /* \"#utility.yul\":2254:2288   */\n  mstore\n    /* \"#utility.yul\":2320:2322   */\n  0x60\n    /* \"#utility.yul\":2305:2323   */\n  add\n  swap1\n    /* \"#utility.yul\":2002:2329   */\n  jump\n    /* \"contracts/staking.sol\":1533:1582  require(block.timestamp < _poolStartTime, \"late\") */\ntag_7:\n  mload(0x40)\n  dup1\n  swap2\n  sub\n  swap1\n  revert\ntag_6:\n  sub(shl(0xa0, 0x01), 0x01)\n    /* \"contracts/staking.sol\":1600:1619  _Xusd != address(0) */\n  dup7\n  and\n    /* \"contracts/staking.sol\":1592:1661  require(_Xusd != address(0), \"XusdGenesisPool: Xusd is zero address\") */\n  tag_9\n  jumpi\n  mload(0x40)\n  shl(0xe5, 0x461bcd)\n  dup2\n  mstore\n    /* \"#utility.yul\":2536:2538   */\n  0x20\n    /* \"contracts/staking.sol\":1592:1661  require(_Xusd != address(0), \"XusdGenesisPool: Xusd is zero address\") */\n  0x04\n  dup3\n  add\n    /* \"#utility.yul\":2518:2539   */\n  mstore\n    /* \"#utility.yul\":2575:2577   */\n  0x25\n    /* \"#utility.yul\":2555:2573   */\n  0x24\n  dup3\n  add\n    /* \"#utility.yul\":2548:2578   */\n  mstore\n    /* \"#utility.yul\":2614:2648   */\n  0x5875736447656e65736973506f6f6c3a2058757364206973207a65726f206164\n    /* \"#utility.yul\":2594:2612   */\n  0x44\n  dup3\n  add\n    /* \"#utility.yul\":2587:2649   */\n  mstore\n  shl(0xd8, 0x6472657373)\n    /* \"#utility.yul\":2665:2683   */\n  0x64\n  dup3\n  add\n    /* \"#utility.yul\":2658:2693   */\n  mstore\n    /* \"#utility.yul\":2710:2729   */\n  0x84\n  add\n    /* \"contracts/staking.sol\":1592:1661  require(_Xusd != address(0), \"XusdGenesisPool: Xusd is zero address\") */\n  tag_7\n    /* \"#utility.yul\":2334:2735   */\n  jump\n    /* \"contracts/staking.sol\":1592:1661  require(_Xusd != address(0), \"XusdGenesisPool: Xusd is zero address\") */\ntag_9:\n    /* \"contracts/staking.sol\":1695:1696  0 */\n  0x00\n    /* \"contracts/staking.sol\":1679:1692  _totalRewards */\n  dup3\n    /* \"contracts/staking.sol\":1679:1696  _totalRewards > 0 */\n  gt\n    /* \"contracts/staking.sol\":1671:1738  require(_totalRewards > 0, \"XusdGenesisPool: totalRewards is zero\") */\n  tag_12\n  jumpi\n  mload(0x40)\n  shl(0xe5, 0x461bcd)\n  dup2\n  mstore\n    /* \"#utility.yul\":2942:2944   */\n  0x20\n    /* \"contracts/staking.sol\":1671:1738  require(_totalRewards > 0, \"XusdGenesisPool: totalRewards is zero\") */\n  0x04\n  dup3\n  add\n    /* \"#utility.yul\":2924:2945   */\n  mstore\n    /* \"#utility.yul\":2981:2983   */\n  0x25\n    /* \"#utility.yul\":2961:2979   */\n  0x24\n  dup3\n  add\n    /* \"#utility.yul\":2954:2984   */\n  mstore\n    /* \"#utility.yul\":3020:3054   */\n  0x5875736447656e65736973506f6f6c3a20746f74616c52657761726473206973\n    /* \"#utility.yul\":3000:3018   */\n  0x44\n  dup3\n  add\n    /* \"#utility.yul\":2993:3055   */\n  mstore\n  shl(0xd8, 0x207a65726f)\n    /* \"#utility.yul\":3071:3089   */\n  0x64\n  dup3\n  add\n    /* \"#utility.yul\":3064:3099   */\n  mstore\n    /* \"#utility.yul\":3116:3135   */\n  0x84\n  add\n    /* \"contracts/staking.sol\":1671:1738  require(_totalRewards > 0, \"XusdGenesisPool: totalRewards is zero\") */\n  tag_7\n    /* \"#utility.yul\":2740:3141   */\n  jump\n    /* \"contracts/staking.sol\":1671:1738  require(_totalRewards > 0, \"XusdGenesisPool: totalRewards is zero\") */\ntag_12:\n    /* \"contracts/staking.sol\":1771:1772  0 */\n  0x00\n    /* \"contracts/staking.sol\":1756:1768  _runningTime */\n  dup2\n    /* \"contracts/staking.sol\":1756:1772  _runningTime > 0 */\n  gt\n    /* \"contracts/staking.sol\":1748:1813  require(_runningTime > 0, \"XusdGenesisPool: runningTime is zero\") */\n  tag_15\n  jumpi\n  mload(0x40)\n  shl(0xe5, 0x461bcd)\n  dup2\n  mstore\n    /* \"#utility.yul\":3348:3350   */\n  0x20\n    /* \"contracts/staking.sol\":1748:1813  require(_runningTime > 0, \"XusdGenesisPool: runningTime is zero\") */\n  0x04\n  dup3\n  add\n    /* \"#utility.yul\":3330:3351   */\n  mstore\n    /* \"#utility.yul\":3387:3389   */\n  0x24\n    /* \"#utility.yul\":3367:3385   */\n  dup1\n  dup3\n  add\n    /* \"#utility.yul\":3360:3390   */\n  mstore\n    /* \"#utility.yul\":3426:3460   */\n  0x5875736447656e65736973506f6f6c3a2072756e6e696e6754696d6520697320\n    /* \"#utility.yul\":3406:3424   */\n  0x44\n  dup3\n  add\n    /* \"#utility.yul\":3399:3461   */\n  mstore\n  shl(0xe0, 0x7a65726f)\n    /* \"#utility.yul\":3477:3495   */\n  0x64\n  dup3\n  add\n    /* \"#utility.yul\":3470:3504   */\n  mstore\n    /* \"#utility.yul\":3521:3540   */\n  0x84\n  add\n    /* \"contracts/staking.sol\":1748:1813  require(_runningTime > 0, \"XusdGenesisPool: runningTime is zero\") */\n  tag_7\n    /* \"#utility.yul\":3146:3546   */\n  jump\n    /* \"contracts/staking.sol\":1748:1813  require(_runningTime > 0, \"XusdGenesisPool: runningTime is zero\") */\ntag_15:\n    /* \"contracts/staking.sol\":1823:1827  Xusd */\n  0x04\n    /* \"contracts/staking.sol\":1823:1843  Xusd = IERC20(_Xusd) */\n  dup1\n  sload\n  not(sub(shl(0xa0, 0x01), 0x01))\n  and\n  sub(shl(0xa0, 0x01), 0x01)\n  dup9\n  and\n  or\n  swap1\n  sstore\n    /* \"contracts/staking.sol\":1853:1865  totalRewards */\n  0x0c\n    /* \"contracts/staking.sol\":1853:1881  totalRewards = _totalRewards */\n  dup3\n  swap1\n  sstore\n    /* \"contracts/staking.sol\":1891:1902  runningTime */\n  0x0b\n    /* \"contracts/staking.sol\":1891:1917  runningTime = _runningTime */\n  dup2\n  swap1\n  sstore\n    /* \"contracts/staking.sol\":1943:1969  totalRewards / runningTime */\n  tag_18\n    /* \"contracts/staking.sol\":1891:1917  runningTime = _runningTime */\n  dup2\n    /* \"contracts/staking.sol\":1853:1881  totalRewards = _totalRewards */\n  dup4\n    /* \"contracts/staking.sol\":1943:1969  totalRewards / runningTime */\n  tag_19\n  jump\t// in\ntag_18:\n    /* \"contracts/staking.sol\":1927:1940  XusdPerSecond */\n  0x0a\n    /* \"contracts/staking.sol\":1927:1969  XusdPerSecond = totalRewards / runningTime */\n  sstore\n    /* \"contracts/staking.sol\":1984:1993  uint256 i */\n  0x00\n    /* \"contracts/staking.sol\":1979:2099  for (uint256 i = 0; i < comissionTokens_.length; i++) {... */\ntag_20:\n    /* \"contracts/staking.sol\":2003:2019  comissionTokens_ */\n  dup6\n    /* \"contracts/staking.sol\":2003:2026  comissionTokens_.length */\n  mload\n    /* \"contracts/staking.sol\":1999:2000  i */\n  dup2\n    /* \"contracts/staking.sol\":1999:2026  i < comissionTokens_.length */\n  lt\n    /* \"contracts/staking.sol\":1979:2099  for (uint256 i = 0; i < comissionTokens_.length; i++) {... */\n  iszero\n  tag_21\n  jumpi\n    /* \"contracts/staking.sol\":2047:2088  _comissionTokens.add(comissionTokens_[i]) */\n  tag_23\n    /* \"contracts/staking.sol\":2068:2084  comissionTokens_ */\n  dup7\n    /* \"contracts/staking.sol\":2085:2086  i */\n  dup3\n    /* \"contracts/staking.sol\":2068:2087  comissionTokens_[i] */\n  dup2\n  mload\n  dup2\n  lt\n  tag_25\n  jumpi\n  tag_25\n  tag_26\n  jump\t// in\ntag_25:\n  0x20\n  mul\n  0x20\n  add\n  add\n  mload\n    /* \"contracts/staking.sol\":2047:2063  _comissionTokens */\n  0x00\n    /* \"contracts/staking.sol\":2047:2067  _comissionTokens.add */\n  shl(0x20, tag_27)\n  swap1\n    /* \"contracts/staking.sol\":2047:2088  _comissionTokens.add(comissionTokens_[i]) */\n  swap2\n  swap1\n  0x20\n  shr\n  jump\t// in\ntag_23:\n  pop\n    /* \"contracts/staking.sol\":2028:2031  i++ */\n  0x01\n  add\n    /* \"contracts/staking.sol\":1979:2099  for (uint256 i = 0; i < comissionTokens_.length; i++) {... */\n  jump(tag_20)\ntag_21:\n  pop\n    /* \"contracts/staking.sol\":2108:2124  comissionPercent */\n  0x02\n    /* \"contracts/staking.sol\":2108:2144  comissionPercent = _comissionPercent */\n  dup5\n  swap1\n  sstore\n    /* \"contracts/staking.sol\":2154:2167  poolStartTime */\n  0x08\n    /* \"contracts/staking.sol\":2154:2184  poolStartTime = _poolStartTime */\n  dup4\n  swap1\n  sstore\n    /* \"contracts/staking.sol\":2224:2235  runningTime */\n  sload(0x0b)\n    /* \"contracts/staking.sol\":2208:2235  poolStartTime + runningTime */\n  tag_28\n  swap1\n    /* \"contracts/staking.sol\":2170:2184  _poolStartTime */\n  dup5\n    /* \"contracts/staking.sol\":2208:2235  poolStartTime + runningTime */\n  tag_29\n  jump\t// in\ntag_28:\n    /* \"contracts/staking.sol\":2194:2205  poolEndTime */\n  0x09\n    /* \"contracts/staking.sol\":2194:2235  poolEndTime = poolStartTime + runningTime */\n  sstore\n  pop\n  pop\n    /* \"contracts/staking.sol\":2245:2253  operator */\n  0x03\n    /* \"contracts/staking.sol\":2245:2266  operator = msg.sender */\n  dup1\n  sload\n  not(sub(shl(0xa0, 0x01), 0x01))\n  and\n    /* \"contracts/staking.sol\":2256:2266  msg.sender */\n  caller\n    /* \"contracts/staking.sol\":2245:2266  operator = msg.sender */\n  or\n  swap1\n  sstore\n  pop\n    /* \"contracts/staking.sol\":181:10092  contract XusdGenesisRewardPool {... */\n  tag_43\n  swap3\n  pop\n  pop\n  pop\n  jump\n    /* \"@openzeppelin/contracts/utils/structs/EnumerableSet.sol\":8316:8466  function add(AddressSet storage set, address value) internal returns (bool) {... */\ntag_27:\n    /* \"@openzeppelin/contracts/utils/structs/EnumerableSet.sol\":8386:8390  bool */\n  0x00\n    /* \"@openzeppelin/contracts/utils/structs/EnumerableSet.sol\":8409:8459  _add(set._inner, bytes32(uint256(uint160(value)))) */\n  tag_32\n    /* \"@openzeppelin/contracts/utils/structs/EnumerableSet.sol\":8414:8417  set */\n  dup4\n  sub(shl(0xa0, 0x01), 0x01)\n    /* \"@openzeppelin/contracts/utils/structs/EnumerableSet.sol\":8434:8457  uint256(uint160(value)) */\n  dup5\n  and\n    /* \"@openzeppelin/contracts/utils/structs/EnumerableSet.sol\":8409:8413  _add */\n  tag_33\n    /* \"@openzeppelin/contracts/utils/structs/EnumerableSet.sol\":8409:8459  _add(set._inner, bytes32(uint256(uint160(value)))) */\n  jump\t// in\ntag_32:\n    /* \"@openzeppelin/contracts/utils/structs/EnumerableSet.sol\":8402:8459  return _add(set._inner, bytes32(uint256(uint160(value)))) */\n  swap1\n  pop\n    /* \"@openzeppelin/contracts/utils/structs/EnumerableSet.sol\":8316:8466  function add(AddressSet storage set, address value) internal returns (bool) {... */\ntag_31:\n  swap3\n  swap2\n  pop\n  pop\n  jump\t// out\n    /* \"@openzeppelin/contracts/utils/structs/EnumerableSet.sol\":2241:2647  function _add(Set storage set, bytes32 value) private returns (bool) {... */\ntag_33:\n    /* \"@openzeppelin/contracts/utils/structs/EnumerableSet.sol\":2304:2308  bool */\n  0x00\n    /* \"@openzeppelin/contracts/utils/structs/EnumerableSet.sol\":4360:4381  set._positions[value] */\n  dup2\n  dup2\n  mstore\n    /* \"@openzeppelin/contracts/utils/structs/EnumerableSet.sol\":4360:4374  set._positions */\n  0x01\n  dup4\n  add\n    /* \"@openzeppelin/contracts/utils/structs/EnumerableSet.sol\":4360:4381  set._positions[value] */\n  0x20\n  mstore\n  0x40\n  dup2\n  keccak256\n  sload\n    /* \"@openzeppelin/contracts/utils/structs/EnumerableSet.sol\":2320:2641  if (!_contains(set, value)) {... */\n  tag_37\n  jumpi\n  pop\n    /* \"@openzeppelin/contracts/utils/structs/EnumerableSet.sol\":2362:2385  set._values.push(value) */\n  dup2\n  sload\n  0x01\n  dup2\n  dup2\n  add\n  dup5\n  sstore\n    /* \"@openzeppelin/contracts/utils/structs/EnumerableSet.sol\":2362:2373  set._values */\n  0x00\n    /* \"@openzeppelin/contracts/utils/structs/EnumerableSet.sol\":2362:2385  set._values.push(value) */\n  dup5\n  dup2\n  mstore\n  0x20\n  dup1\n  dup3\n  keccak256\n  swap1\n  swap4\n  add\n  dup5\n  swap1\n  sstore\n    /* \"@openzeppelin/contracts/utils/structs/EnumerableSet.sol\":2544:2562  set._values.length */\n  dup5\n  sload\n    /* \"@openzeppelin/contracts/utils/structs/EnumerableSet.sol\":2520:2541  set._positions[value] */\n  dup5\n  dup3\n  mstore\n    /* \"@openzeppelin/contracts/utils/structs/EnumerableSet.sol\":2520:2534  set._positions */\n  dup3\n  dup7\n  add\n    /* \"@openzeppelin/contracts/utils/structs/EnumerableSet.sol\":2520:2541  set._positions[value] */\n  swap1\n  swap4\n  mstore\n  0x40\n  swap1\n  keccak256\n    /* \"@openzeppelin/contracts/utils/structs/EnumerableSet.sol\":2520:2562  set._positions[value] = set._values.length */\n  swap2\n  swap1\n  swap2\n  sstore\n    /* \"@openzeppelin/contracts/utils/structs/EnumerableSet.sol\":2576:2587  return true */\n  jump(tag_31)\n    /* \"@openzeppelin/contracts/utils/structs/EnumerableSet.sol\":2320:2641  if (!_contains(set, value)) {... */\ntag_37:\n  pop\n    /* \"@openzeppelin/contracts/utils/structs/EnumerableSet.sol\":2625:2630  false */\n  0x00\n    /* \"@openzeppelin/contracts/utils/structs/EnumerableSet.sol\":2618:2630  return false */\n  jump(tag_31)\n    /* \"#utility.yul\":14:191   */\ntag_41:\n    /* \"#utility.yul\":93:106   */\n  dup1\n  mload\n  sub(shl(0xa0, 0x01), 0x01)\n    /* \"#utility.yul\":135:166   */\n  dup2\n  and\n    /* \"#utility.yul\":125:167   */\n  dup2\n  eq\n    /* \"#utility.yul\":115:185   */\n  tag_45\n  jumpi\n    /* \"#utility.yul\":181:182   */\n  0x00\n    /* \"#utility.yul\":178:179   */\n  0x00\n    /* \"#utility.yul\":171:183   */\n  revert\n    /* \"#utility.yul\":115:185   */\ntag_45:\n    /* \"#utility.yul\":14:191   */\n  swap2\n  swap1\n  pop\n  jump\t// out\n    /* \"#utility.yul\":196:323   */\ntag_42:\n    /* \"#utility.yul\":257:267   */\n  0x4e487b71\n    /* \"#utility.yul\":252:255   */\n  0xe0\n    /* \"#utility.yul\":248:268   */\n  shl\n    /* \"#utility.yul\":245:246   */\n  0x00\n    /* \"#utility.yul\":238:269   */\n  mstore\n    /* \"#utility.yul\":288:292   */\n  0x41\n    /* \"#utility.yul\":285:286   */\n  0x04\n    /* \"#utility.yul\":278:293   */\n  mstore\n    /* \"#utility.yul\":312:316   */\n  0x24\n    /* \"#utility.yul\":309:310   */\n  0x00\n    /* \"#utility.yul\":302:317   */\n  revert\n    /* \"#utility.yul\":328:1997   */\ntag_3:\n    /* \"#utility.yul\":468:474   */\n  0x00\n    /* \"#utility.yul\":476:482   */\n  0x00\n    /* \"#utility.yul\":484:490   */\n  0x00\n    /* \"#utility.yul\":492:498   */\n  0x00\n    /* \"#utility.yul\":500:506   */\n  0x00\n    /* \"#utility.yul\":508:514   */\n  0x00\n    /* \"#utility.yul\":561:564   */\n  0xc0\n    /* \"#utility.yul\":549:558   */\n  dup8\n    /* \"#utility.yul\":540:547   */\n  dup10\n    /* \"#utility.yul\":536:559   */\n  sub\n    /* \"#utility.yul\":532:565   */\n  slt\n    /* \"#utility.yul\":529:582   */\n  iszero\n  tag_48\n  jumpi\n    /* \"#utility.yul\":578:579   */\n  0x00\n    /* \"#utility.yul\":575:576   */\n  0x00\n    /* \"#utility.yul\":568:580   */\n  revert\n    /* \"#utility.yul\":529:582   */\ntag_48:\n    /* \"#utility.yul\":601:641   */\n  tag_49\n    /* \"#utility.yul\":631:640   */\n  dup8\n    /* \"#utility.yul\":601:641   */\n  tag_41\n  jump\t// in\ntag_49:\n    /* \"#utility.yul\":685:687   */\n  0x20\n    /* \"#utility.yul\":670:688   */\n  dup9\n  add\n    /* \"#utility.yul\":664:689   */\n  mload\n    /* \"#utility.yul\":591:641   */\n  swap1\n  swap7\n  pop\n  sub(shl(0x40, 0x01), 0x01)\n    /* \"#utility.yul\":701:731   */\n  dup2\n  gt\n    /* \"#utility.yul\":698:748   */\n  iszero\n  tag_50\n  jumpi\n    /* \"#utility.yul\":744:745   */\n  0x00\n    /* \"#utility.yul\":741:742   */\n  0x00\n    /* \"#utility.yul\":734:746   */\n  revert\n    /* \"#utility.yul\":698:748   */\ntag_50:\n    /* \"#utility.yul\":767:789   */\n  dup8\n  add\n    /* \"#utility.yul\":820:824   */\n  0x1f\n    /* \"#utility.yul\":812:825   */\n  dup2\n  add\n    /* \"#utility.yul\":808:835   */\n  dup10\n  sgt\n    /* \"#utility.yul\":798:853   */\n  tag_51\n  jumpi\n    /* \"#utility.yul\":849:850   */\n  0x00\n    /* \"#utility.yul\":846:847   */\n  0x00\n    /* \"#utility.yul\":839:851   */\n  revert\n    /* \"#utility.yul\":798:853   */\ntag_51:\n    /* \"#utility.yul\":876:885   */\n  dup1\n  mload\n  sub(shl(0x40, 0x01), 0x01)\n    /* \"#utility.yul\":897:927   */\n  dup2\n  gt\n    /* \"#utility.yul\":894:950   */\n  iszero\n  tag_53\n  jumpi\n    /* \"#utility.yul\":930:948   */\n  tag_53\n  tag_42\n  jump\t// in\ntag_53:\n    /* \"#utility.yul\":1012:1014   */\n  0x40\n    /* \"#utility.yul\":1006:1015   */\n  mload\n    /* \"#utility.yul\":973:974   */\n  0x05\n    /* \"#utility.yul\":969:983   */\n  dup3\n  swap1\n  shl\n  swap1\n    /* \"#utility.yul\":1066:1068   */\n  0x3f\n    /* \"#utility.yul\":1058:1069   */\n  dup3\n  add\n  not(0x1f)\n    /* \"#utility.yul\":1054:1079   */\n  and\n    /* \"#utility.yul\":1042:1080   */\n  dup2\n  add\n  sub(shl(0x40, 0x01), 0x01)\n    /* \"#utility.yul\":1095:1129   */\n  dup2\n  gt\n    /* \"#utility.yul\":1131:1153   */\n  dup3\n  dup3\n  lt\n    /* \"#utility.yul\":1092:1154   */\n  or\n    /* \"#utility.yul\":1089:1177   */\n  iszero\n  tag_55\n  jumpi\n    /* \"#utility.yul\":1157:1175   */\n  tag_55\n  tag_42\n  jump\t// in\ntag_55:\n    /* \"#utility.yul\":1193:1195   */\n  0x40\n    /* \"#utility.yul\":1186:1208   */\n  mstore\n    /* \"#utility.yul\":1243:1265   */\n  swap2\n  dup3\n  mstore\n    /* \"#utility.yul\":1293:1295   */\n  0x20\n    /* \"#utility.yul\":1323:1334   */\n  dup2\n  dup5\n  add\n    /* \"#utility.yul\":1319:1339   */\n  dup2\n  add\n  swap3\n    /* \"#utility.yul\":1243:1265   */\n  swap1\n    /* \"#utility.yul\":1281:1296   */\n  dup2\n  add\n    /* \"#utility.yul\":1351:1370   */\n  dup13\n  dup5\n  gt\n    /* \"#utility.yul\":1348:1387   */\n  iszero\n  tag_56\n  jumpi\n    /* \"#utility.yul\":1383:1384   */\n  0x00\n    /* \"#utility.yul\":1380:1381   */\n  0x00\n    /* \"#utility.yul\":1373:1385   */\n  revert\n    /* \"#utility.yul\":1348:1387   */\ntag_56:\n    /* \"#utility.yul\":1415:1417   */\n  0x20\n    /* \"#utility.yul\":1411:1413   */\n  dup6\n    /* \"#utility.yul\":1407:1418   */\n  add\n    /* \"#utility.yul\":1396:1418   */\n  swap5\n  pop\n    /* \"#utility.yul\":1427:1586   */\ntag_57:\n    /* \"#utility.yul\":1443:1449   */\n  dup4\n    /* \"#utility.yul\":1438:1441   */\n  dup6\n    /* \"#utility.yul\":1435:1450   */\n  lt\n    /* \"#utility.yul\":1427:1586   */\n  iszero\n  tag_59\n  jumpi\n    /* \"#utility.yul\":1509:1543   */\n  tag_60\n    /* \"#utility.yul\":1539:1542   */\n  dup6\n    /* \"#utility.yul\":1509:1543   */\n  tag_41\n  jump\t// in\ntag_60:\n    /* \"#utility.yul\":1497:1544   */\n  dup2\n  mstore\n    /* \"#utility.yul\":1573:1575   */\n  0x20\n    /* \"#utility.yul\":1460:1472   */\n  swap5\n  dup6\n  add\n  swap5\n    /* \"#utility.yul\":1564:1576   */\n  add\n    /* \"#utility.yul\":1427:1586   */\n  jump(tag_57)\ntag_59:\n  pop\n    /* \"#utility.yul\":1673:1675   */\n  0x40\n    /* \"#utility.yul\":1658:1676   */\n  dup12\n  add\n    /* \"#utility.yul\":1652:1677   */\n  mload\n    /* \"#utility.yul\":1767:1769   */\n  0x60\n    /* \"#utility.yul\":1752:1770   */\n  dup13\n  add\n    /* \"#utility.yul\":1746:1771   */\n  mload\n    /* \"#utility.yul\":1863:1866   */\n  0x80\n    /* \"#utility.yul\":1848:1867   */\n  dup14\n  add\n    /* \"#utility.yul\":1842:1868   */\n  mload\n    /* \"#utility.yul\":1960:1963   */\n  0xa0\n    /* \"#utility.yul\":1945:1964   */\n  swap1\n  swap14\n  add\n    /* \"#utility.yul\":1939:1965   */\n  mload\n    /* \"#utility.yul\":328:1997   */\n  swap12\n  swap15\n    /* \"#utility.yul\":1605:1611   */\n  swap3\n  swap14\n  pop\n    /* \"#utility.yul\":1652:1677   */\n  swap1\n  swap12\n    /* \"#utility.yul\":1746:1771   */\n  swap1\n  swap11\n    /* \"#utility.yul\":1842:1868   */\n  swap1\n  swap10\n  pop\n    /* \"#utility.yul\":1939:1965   */\n  swap8\n  pop\n    /* \"#utility.yul\":328:1997   */\n  swap6\n  pop\n  pop\n  pop\n  pop\n  pop\n  pop\n  jump\t// out\n    /* \"#utility.yul\":3551:3768   */\ntag_19:\n    /* \"#utility.yul\":3591:3592   */\n  0x00\n    /* \"#utility.yul\":3617:3618   */\n  dup3\n    /* \"#utility.yul\":3607:3739   */\n  tag_66\n  jumpi\n    /* \"#utility.yul\":3661:3671   */\n  0x4e487b71\n    /* \"#utility.yul\":3656:3659   */\n  0xe0\n    /* \"#utility.yul\":3652:3672   */\n  shl\n    /* \"#utility.yul\":3649:3650   */\n  0x00\n    /* \"#utility.yul\":3642:3673   */\n  mstore\n    /* \"#utility.yul\":3696:3700   */\n  0x12\n    /* \"#utility.yul\":3693:3694   */\n  0x04\n    /* \"#utility.yul\":3686:3701   */\n  mstore\n    /* \"#utility.yul\":3724:3728   */\n  0x24\n    /* \"#utility.yul\":3721:3722   */\n  0x00\n    /* \"#utility.yul\":3714:3729   */\n  revert\n    /* \"#utility.yul\":3607:3739   */\ntag_66:\n  pop\n    /* \"#utility.yul\":3753:3762   */\n  div\n  swap1\n    /* \"#utility.yul\":3551:3768   */\n  jump\t// out\n    /* \"#utility.yul\":3773:3900   */\ntag_26:\n    /* \"#utility.yul\":3834:3844   */\n  0x4e487b71\n    /* \"#utility.yul\":3829:3832   */\n  0xe0\n    /* \"#utility.yul\":3825:3845   */\n  shl\n    /* \"#utility.yul\":3822:3823   */\n  0x00\n    /* \"#utility.yul\":3815:3846   */\n  mstore\n    /* \"#utility.yul\":3865:3869   */\n  0x32\n    /* \"#utility.yul\":3862:3863   */\n  0x04\n    /* \"#utility.yul\":3855:3870   */\n  mstore\n    /* \"#utility.yul\":3889:3893   */\n  0x24\n    /* \"#utility.yul\":3886:3887   */\n  0x00\n    /* \"#utility.yul\":3879:3894   */\n  revert\n    /* \"#utility.yul\":3905:4127   */\ntag_29:\n    /* \"#utility.yul\":3970:3979   */\n  dup1\n  dup3\n  add\n    /* \"#utility.yul\":3991:4001   */\n  dup1\n  dup3\n  gt\n    /* \"#utility.yul\":3988:4121   */\n  iszero\n  tag_31\n  jumpi\n    /* \"#utility.yul\":4043:4053   */\n  0x4e487b71\n    /* \"#utility.yul\":4038:4041   */\n  0xe0\n    /* \"#utility.yul\":4034:4054   */\n  shl\n    /* \"#utility.yul\":4031:4032   */\n  0x00\n    /* \"#utility.yul\":4024:4055   */\n  mstore\n    /* \"#utility.yul\":4078:4082   */\n  0x11\n    /* \"#utility.yul\":4075:4076   */\n  0x04\n    /* \"#utility.yul\":4068:4083   */\n  mstore\n    /* \"#utility.yul\":4106:4110   */\n  0x24\n    /* \"#utility.yul\":4103:4104   */\n  0x00\n    /* \"#utility.yul\":4096:4111   */\n  revert\n    /* \"#utility.yul\":3905:4127   */\ntag_43:\n    /* \"contracts/staking.sol\":181:10092  contract XusdGenesisRewardPool {... */\n  dataSize(sub_0)\n  dup1\n  dataOffset(sub_0)\n  0x00\n  codecopy\n  0x00\n  return\nstop\n\nsub_0: assembly {\n        /* \"contracts/staking.sol\":181:10092  contract XusdGenesisRewardPool {... */\n      mstore(0x40, 0x80)\n      callvalue\n      dup1\n      iszero\n      tag_1\n      jumpi\n      revert(0x00, 0x00)\n    tag_1:\n      pop\n      jumpi(tag_2, lt(calldatasize, 0x04))\n      shr(0xe0, calldataload(0x00))\n      dup1\n      0x5f96dc11\n      gt\n      tag_27\n      jumpi\n      dup1\n      0x92fae48d\n      gt\n      tag_28\n      jumpi\n      dup1\n      0x92fae48d\n      eq\n      tag_21\n      jumpi\n      dup1\n      0x93f1a40b\n      eq\n      tag_22\n      jumpi\n      dup1\n      0x943f013d\n      eq\n      tag_23\n      jumpi\n      dup1\n      0xb3ab15fb\n      eq\n      tag_24\n      jumpi\n      dup1\n      0xe2bbb158\n      eq\n      tag_25\n      jumpi\n      dup1\n      0xf25bb865\n      eq\n      tag_26\n      jumpi\n      revert(0x00, 0x00)\n    tag_28:\n      dup1\n      0x5f96dc11\n      eq\n      tag_15\n      jumpi\n      dup1\n      0x628b409f\n      eq\n      tag_16\n      jumpi\n      dup1\n      0x62e006c7\n      eq\n      tag_17\n      jumpi\n      dup1\n      0x630b5ba1\n      eq\n      tag_18\n      jumpi\n      dup1\n      0x6e271dd5\n      eq\n      tag_19\n      jumpi\n      dup1\n      0x7805583c\n      eq\n      tag_20\n      jumpi\n      revert(0x00, 0x00)\n    tag_27:\n      dup1\n      0x51eb05a6\n      gt\n      tag_29\n      jumpi\n      dup1\n      0x51eb05a6\n      eq\n      tag_9\n      jumpi\n      dup1\n      0x5312ea8e\n      eq\n      tag_10\n      jumpi\n      dup1\n      0x54575af4\n      eq\n      tag_11\n      jumpi\n      dup1\n      0x570ca735\n      eq\n      tag_12\n      jumpi\n      dup1\n      0x5715f8f9\n      eq\n      tag_13\n      jumpi\n      dup1\n      0x5b142956\n      eq\n      tag_14\n      jumpi\n      revert(0x00, 0x00)\n    tag_29:\n      dup1\n      0x0e15561a\n      eq\n      tag_3\n      jumpi\n      dup1\n      0x1526fe27\n      eq\n      tag_4\n      jumpi\n      dup1\n      0x17caf6f1\n      eq\n      tag_5\n      jumpi\n      dup1\n      0x1ab06ee5\n      eq\n      tag_6\n      jumpi\n      dup1\n      0x231f0c6a\n      eq\n      tag_7\n      jumpi\n      dup1\n      0x441a3e70\n      eq\n      tag_8\n      jumpi\n    tag_2:\n      revert(0x00, 0x00)\n        /* \"contracts/staking.sol\":971:998  uint256 public totalRewards */\n    tag_3:\n      tag_30\n      sload(0x0c)\n      dup2\n      jump\n    tag_30:\n      mload(0x40)\n        /* \"#utility.yul\":160:185   */\n      swap1\n      dup2\n      mstore\n        /* \"#utility.yul\":148:150   */\n      0x20\n        /* \"#utility.yul\":133:151   */\n      add\n        /* \"contracts/staking.sol\":971:998  uint256 public totalRewards */\n    tag_32:\n      mload(0x40)\n      dup1\n      swap2\n      sub\n      swap1\n      return\n        /* \"contracts/staking.sol\":696:722  PoolInfo[] public poolInfo */\n    tag_4:\n      tag_34\n      tag_35\n      calldatasize\n      0x04\n      tag_36\n      jump\t// in\n    tag_35:\n      tag_37\n      jump\t// in\n    tag_34:\n      0x40\n      dup1\n      mload\n      sub(shl(0xa0, 0x01), 0x01)\n        /* \"#utility.yul\":740:772   */\n      swap1\n      swap8\n      and\n        /* \"#utility.yul\":722:773   */\n      dup8\n      mstore\n        /* \"#utility.yul\":804:806   */\n      0x20\n        /* \"#utility.yul\":789:807   */\n      dup8\n      add\n        /* \"#utility.yul\":782:816   */\n      swap6\n      swap1\n      swap6\n      mstore\n        /* \"#utility.yul\":832:850   */\n      swap4\n      dup6\n      add\n        /* \"#utility.yul\":825:859   */\n      swap3\n      swap1\n      swap3\n      mstore\n        /* \"#utility.yul\":890:892   */\n      0x60\n        /* \"#utility.yul\":875:893   */\n      dup5\n      add\n        /* \"#utility.yul\":868:902   */\n      mstore\n        /* \"#utility.yul\":946:960   */\n      iszero\n        /* \"#utility.yul\":939:961   */\n      iszero\n        /* \"#utility.yul\":933:936   */\n      0x80\n        /* \"#utility.yul\":918:937   */\n      dup4\n      add\n        /* \"#utility.yul\":911:962   */\n      mstore\n        /* \"#utility.yul\":760:763   */\n      0xa0\n        /* \"#utility.yul\":978:997   */\n      dup3\n      add\n        /* \"#utility.yul\":971:1006   */\n      mstore\n        /* \"#utility.yul\":709:712   */\n      0xc0\n        /* \"#utility.yul\":694:713   */\n      add\n        /* \"contracts/staking.sol\":696:722  PoolInfo[] public poolInfo */\n      tag_32\n        /* \"#utility.yul\":427:1012   */\n      jump\n        /* \"contracts/staking.sol\":798:832  uint256 public totalAllocPoint = 0 */\n    tag_5:\n      tag_30\n      sload(0x07)\n      dup2\n      jump\n        /* \"contracts/staking.sol\":7393:7703  function set(uint256 _pid, uint256 _allocPoint) external onlyOperator {... */\n    tag_6:\n      tag_43\n      tag_44\n      calldatasize\n      0x04\n      tag_45\n      jump\t// in\n    tag_44:\n      tag_46\n      jump\t// in\n    tag_43:\n      stop\n        /* \"contracts/staking.sol\":3256:3882  function getGeneratedReward(uint256 _fromTime, uint256 _toTime) public view returns (uint256) {... */\n    tag_7:\n      tag_30\n      tag_48\n      calldatasize\n      0x04\n      tag_45\n      jump\t// in\n    tag_48:\n      tag_49\n      jump\t// in\n        /* \"contracts/staking.sol\":7814:8578  function withdraw(uint256 _pid, uint256 _amount) external {... */\n    tag_8:\n      tag_43\n      tag_52\n      calldatasize\n      0x04\n      tag_45\n      jump\t// in\n    tag_52:\n      tag_53\n      jump\t// in\n        /* \"contracts/staking.sol\":8765:9600  function updatePool(uint256 _pid) public {... */\n    tag_9:\n      tag_43\n      tag_55\n      calldatasize\n      0x04\n      tag_36\n      jump\t// in\n    tag_55:\n      tag_56\n      jump\t// in\n        /* \"contracts/staking.sol\":6524:6891  function emergencyWithdraw(uint256 _pid) external {... */\n    tag_10:\n      tag_43\n      tag_58\n      calldatasize\n      0x04\n      tag_36\n      jump\t// in\n    tag_58:\n      tag_59\n      jump\t// in\n        /* \"contracts/staking.sol\":6897:7387  function governanceRecoverUnsupported(IERC20 _token, uint256 amount, address to) external onlyOperator {... */\n    tag_11:\n      tag_43\n      tag_61\n      calldatasize\n      0x04\n      tag_62\n      jump\t// in\n    tag_61:\n      tag_63\n      jump\t// in\n        /* \"contracts/staking.sol\":643:666  address public operator */\n    tag_12:\n      sload(0x03)\n      tag_64\n      swap1\n      sub(shl(0xa0, 0x01), 0x01)\n      and\n      dup2\n      jump\n    tag_64:\n      mload(0x40)\n      tag_32\n      swap2\n      swap1\n      tag_67\n      jump\t// in\n        /* \"contracts/staking.sol\":605:636  uint256 public comissionPercent */\n    tag_13:\n      tag_30\n      sload(0x02)\n      dup2\n      jump\n        /* \"contracts/staking.sol\":2398:2519  function comissionToken(uint256 index) external view returns (address) {... */\n    tag_14:\n      tag_64\n      tag_72\n      calldatasize\n      0x04\n      tag_36\n      jump\t// in\n    tag_72:\n      tag_73\n      jump\t// in\n        /* \"contracts/staking.sol\":838:866  uint256 public poolStartTime */\n    tag_15:\n      tag_30\n      sload(0x08)\n      dup2\n      jump\n        /* \"contracts/staking.sol\":905:933  uint256 public XusdPerSecond */\n    tag_16:\n      tag_30\n      sload(0x0a)\n      dup2\n      jump\n        /* \"contracts/staking.sol\":4150:5358  function add(... */\n    tag_17:\n      tag_43\n      tag_82\n      calldatasize\n      0x04\n      tag_83\n      jump\t// in\n    tag_82:\n      tag_84\n      jump\t// in\n        /* \"contracts/staking.sol\":8584:8759  function massUpdatePools() public {... */\n    tag_18:\n      tag_43\n      tag_86\n      jump\t// in\n        /* \"contracts/staking.sol\":872:898  uint256 public poolEndTime */\n    tag_19:\n      tag_30\n      sload(0x09)\n      dup2\n      jump\n        /* \"contracts/staking.sol\":2525:3250  function pendingXusd(uint256 _pid, address _user) external view returns (uint256) {... */\n    tag_20:\n      tag_30\n      tag_91\n      calldatasize\n      0x04\n      tag_92\n      jump\t// in\n    tag_91:\n      tag_93\n      jump\t// in\n        /* \"contracts/staking.sol\":2279:2392  function comissionTokensCount() external view returns (uint256) {... */\n    tag_21:\n      tag_30\n      tag_96\n      jump\t// in\n        /* \"contracts/staking.sol\":728:792  mapping(uint256 => mapping(address => UserInfo)) public userInfo */\n    tag_22:\n      tag_98\n      tag_99\n      calldatasize\n      0x04\n      tag_92\n      jump\t// in\n    tag_99:\n      0x06\n      0x20\n      swap1\n      dup2\n      mstore\n      0x00\n      swap3\n      dup4\n      mstore\n      0x40\n      dup1\n      dup5\n      keccak256\n      swap1\n      swap2\n      mstore\n      swap1\n      dup3\n      mstore\n      swap1\n      keccak256\n      dup1\n      sload\n      0x01\n      swap1\n      swap2\n      add\n      sload\n      dup3\n      jump\n    tag_98:\n      0x40\n      dup1\n      mload\n        /* \"#utility.yul\":3711:3736   */\n      swap3\n      dup4\n      mstore\n        /* \"#utility.yul\":3767:3769   */\n      0x20\n        /* \"#utility.yul\":3752:3770   */\n      dup4\n      add\n        /* \"#utility.yul\":3745:3779   */\n      swap2\n      swap1\n      swap2\n      mstore\n        /* \"#utility.yul\":3684:3702   */\n      add\n        /* \"contracts/staking.sol\":728:792  mapping(uint256 => mapping(address => UserInfo)) public userInfo */\n      tag_32\n        /* \"#utility.yul\":3537:3785   */\n      jump\n        /* \"contracts/staking.sol\":939:965  uint256 public runningTime */\n    tag_23:\n      tag_30\n      sload(0x0b)\n      dup2\n      jump\n        /* \"contracts/staking.sol\":7709:7808  function setOperator(address _operator) external onlyOperator {... */\n    tag_24:\n      tag_43\n      tag_107\n      calldatasize\n      0x04\n      tag_108\n      jump\t// in\n    tag_107:\n      tag_109\n      jump\t// in\n        /* \"contracts/staking.sol\":5364:6518  function deposit(uint256 _pid, uint256 _amount) external {... */\n    tag_25:\n      tag_43\n      tag_111\n      calldatasize\n      0x04\n      tag_45\n      jump\t// in\n    tag_111:\n      tag_112\n      jump\t// in\n        /* \"contracts/staking.sol\":672:690  IERC20 public Xusd */\n    tag_26:\n      sload(0x04)\n      tag_64\n      swap1\n      sub(shl(0xa0, 0x01), 0x01)\n      and\n      dup2\n      jump\n        /* \"contracts/staking.sol\":696:722  PoolInfo[] public poolInfo */\n    tag_37:\n      0x05\n      dup2\n      dup2\n      sload\n      dup2\n      lt\n      tag_117\n      jumpi\n      0x00\n      dup1\n      revert\n    tag_117:\n      0x00\n      swap2\n      dup3\n      mstore\n      0x20\n      swap1\n      swap2\n      keccak256\n      0x06\n      swap1\n      swap2\n      mul\n      add\n      dup1\n      sload\n      0x01\n      dup3\n      add\n      sload\n      0x02\n      dup4\n      add\n      sload\n      0x03\n      dup5\n      add\n      sload\n      0x04\n      dup6\n      add\n      sload\n      0x05\n      swap1\n      swap6\n      add\n      sload\n      sub(shl(0xa0, 0x01), 0x01)\n      swap1\n      swap5\n      and\n      swap6\n      pop\n      swap2\n      swap4\n      swap1\n      swap3\n      0xff\n      swap1\n      swap2\n      and\n      swap1\n      dup7\n      jump\t// out\n        /* \"contracts/staking.sol\":7393:7703  function set(uint256 _pid, uint256 _allocPoint) external onlyOperator {... */\n    tag_46:\n        /* \"contracts/staking.sol\":10002:10010  operator */\n      and(sub(shl(0xa0, 0x01), 0x01), sload(0x03))\n        /* \"contracts/staking.sol\":10014:10024  msg.sender */\n      caller\n        /* \"contracts/staking.sol\":10002:10024  operator == msg.sender */\n      eq\n        /* \"contracts/staking.sol\":9994:10072  require(operator == msg.sender, \"XusdGenesisPool: caller is not the operator\") */\n      tag_120\n      jumpi\n      mload(0x40)\n      shl(0xe5, 0x461bcd)\n      dup2\n      mstore\n      0x04\n      add\n      tag_121\n      swap1\n      tag_122\n      jump\t// in\n    tag_121:\n      mload(0x40)\n      dup1\n      swap2\n      sub\n      swap1\n      revert\n    tag_120:\n        /* \"contracts/staking.sol\":7473:7490  massUpdatePools() */\n      tag_124\n        /* \"contracts/staking.sol\":7473:7488  massUpdatePools */\n      tag_86\n        /* \"contracts/staking.sol\":7473:7490  massUpdatePools() */\n      jump\t// in\n    tag_124:\n        /* \"contracts/staking.sol\":7500:7521  PoolInfo storage pool */\n      0x00\n        /* \"contracts/staking.sol\":7524:7532  poolInfo */\n      0x05\n        /* \"contracts/staking.sol\":7533:7537  _pid */\n      dup4\n        /* \"contracts/staking.sol\":7524:7538  poolInfo[_pid] */\n      dup2\n      sload\n      dup2\n      lt\n      tag_126\n      jumpi\n      tag_126\n      tag_127\n      jump\t// in\n    tag_126:\n      0x00\n      swap2\n      dup3\n      mstore\n      0x20\n      swap1\n      swap2\n      keccak256\n      0x06\n      swap1\n      swap2\n      mul\n      add\n        /* \"contracts/staking.sol\":7552:7566  pool.isStarted */\n      0x04\n      dup2\n      add\n      sload\n        /* \"contracts/staking.sol\":7524:7538  poolInfo[_pid] */\n      swap1\n      swap2\n      pop\n        /* \"contracts/staking.sol\":7552:7566  pool.isStarted */\n      0xff\n      and\n        /* \"contracts/staking.sol\":7548:7658  if (pool.isStarted) {... */\n      iszero\n      tag_129\n      jumpi\n        /* \"contracts/staking.sol\":7636:7647  _allocPoint */\n      dup2\n        /* \"contracts/staking.sol\":7618:7622  pool */\n      dup2\n        /* \"contracts/staking.sol\":7618:7633  pool.allocPoint */\n      0x01\n      add\n      sload\n        /* \"contracts/staking.sol\":7600:7615  totalAllocPoint */\n      sload(0x07)\n        /* \"contracts/staking.sol\":7600:7633  totalAllocPoint - pool.allocPoint */\n      tag_130\n      swap2\n      swap1\n      tag_131\n      jump\t// in\n    tag_130:\n        /* \"contracts/staking.sol\":7600:7647  totalAllocPoint - pool.allocPoint + _allocPoint */\n      tag_132\n      swap2\n      swap1\n      tag_133\n      jump\t// in\n    tag_132:\n        /* \"contracts/staking.sol\":7582:7597  totalAllocPoint */\n      0x07\n        /* \"contracts/staking.sol\":7582:7647  totalAllocPoint = totalAllocPoint - pool.allocPoint + _allocPoint */\n      sstore\n        /* \"contracts/staking.sol\":7548:7658  if (pool.isStarted) {... */\n    tag_129:\n        /* \"contracts/staking.sol\":7667:7682  pool.allocPoint */\n      0x01\n      add\n        /* \"contracts/staking.sol\":7667:7696  pool.allocPoint = _allocPoint */\n      sstore\n      pop\n        /* \"contracts/staking.sol\":7393:7703  function set(uint256 _pid, uint256 _allocPoint) external onlyOperator {... */\n      jump\t// out\n        /* \"contracts/staking.sol\":3256:3882  function getGeneratedReward(uint256 _fromTime, uint256 _toTime) public view returns (uint256) {... */\n    tag_49:\n        /* \"contracts/staking.sol\":3341:3348  uint256 */\n      0x00\n        /* \"contracts/staking.sol\":3377:3384  _toTime */\n      dup2\n        /* \"contracts/staking.sol\":3364:3373  _fromTime */\n      dup4\n        /* \"contracts/staking.sol\":3364:3384  _fromTime >= _toTime */\n      lt\n        /* \"contracts/staking.sol\":3360:3394  if (_fromTime >= _toTime) return 0 */\n      tag_135\n      jumpi\n      pop\n        /* \"contracts/staking.sol\":3393:3394  0 */\n      0x00\n        /* \"contracts/staking.sol\":3386:3394  return 0 */\n      jump(tag_144)\n        /* \"contracts/staking.sol\":3360:3394  if (_fromTime >= _toTime) return 0 */\n    tag_135:\n        /* \"contracts/staking.sol\":3419:3430  poolEndTime */\n      sload(0x09)\n        /* \"contracts/staking.sol\":3408:3415  _toTime */\n      dup3\n        /* \"contracts/staking.sol\":3408:3430  _toTime >= poolEndTime */\n      lt\n        /* \"contracts/staking.sol\":3404:3876  if (_toTime >= poolEndTime) {... */\n      tag_136\n      jumpi\n        /* \"contracts/staking.sol\":3463:3474  poolEndTime */\n      sload(0x09)\n        /* \"contracts/staking.sol\":3450:3459  _fromTime */\n      dup4\n        /* \"contracts/staking.sol\":3450:3474  _fromTime >= poolEndTime */\n      lt\n        /* \"contracts/staking.sol\":3446:3484  if (_fromTime >= poolEndTime) return 0 */\n      tag_137\n      jumpi\n      pop\n        /* \"contracts/staking.sol\":3483:3484  0 */\n      0x00\n        /* \"contracts/staking.sol\":3476:3484  return 0 */\n      jump(tag_144)\n        /* \"contracts/staking.sol\":3446:3484  if (_fromTime >= poolEndTime) return 0 */\n    tag_137:\n        /* \"contracts/staking.sol\":3515:3528  poolStartTime */\n      sload(0x08)\n        /* \"contracts/staking.sol\":3502:3511  _fromTime */\n      dup4\n        /* \"contracts/staking.sol\":3502:3528  _fromTime <= poolStartTime */\n      gt\n        /* \"contracts/staking.sol\":3498:3582  if (_fromTime <= poolStartTime) return (poolEndTime - poolStartTime) * XusdPerSecond */\n      tag_138\n      jumpi\n        /* \"contracts/staking.sol\":3569:3582  XusdPerSecond */\n      sload(0x0a)\n        /* \"contracts/staking.sol\":3552:3565  poolStartTime */\n      sload(0x08)\n        /* \"contracts/staking.sol\":3538:3549  poolEndTime */\n      sload(0x09)\n        /* \"contracts/staking.sol\":3538:3565  poolEndTime - poolStartTime */\n      tag_139\n      swap2\n      swap1\n      tag_131\n      jump\t// in\n    tag_139:\n        /* \"contracts/staking.sol\":3537:3582  (poolEndTime - poolStartTime) * XusdPerSecond */\n      tag_140\n      swap2\n      swap1\n      tag_141\n      jump\t// in\n    tag_140:\n        /* \"contracts/staking.sol\":3530:3582  return (poolEndTime - poolStartTime) * XusdPerSecond */\n      swap1\n      pop\n      jump(tag_144)\n        /* \"contracts/staking.sol\":3498:3582  if (_fromTime <= poolStartTime) return (poolEndTime - poolStartTime) * XusdPerSecond */\n    tag_138:\n        /* \"contracts/staking.sol\":3631:3644  XusdPerSecond */\n      sload(0x0a)\n        /* \"contracts/staking.sol\":3618:3627  _fromTime */\n      dup4\n        /* \"contracts/staking.sol\":3604:3615  poolEndTime */\n      sload(0x09)\n        /* \"contracts/staking.sol\":3604:3627  poolEndTime - _fromTime */\n      tag_139\n      swap2\n      swap1\n      tag_131\n      jump\t// in\n        /* \"contracts/staking.sol\":3404:3876  if (_toTime >= poolEndTime) {... */\n    tag_136:\n        /* \"contracts/staking.sol\":3690:3703  poolStartTime */\n      sload(0x08)\n        /* \"contracts/staking.sol\":3679:3686  _toTime */\n      dup3\n        /* \"contracts/staking.sol\":3679:3703  _toTime <= poolStartTime */\n      gt\n        /* \"contracts/staking.sol\":3675:3713  if (_toTime <= poolStartTime) return 0 */\n      tag_145\n      jumpi\n      pop\n        /* \"contracts/staking.sol\":3712:3713  0 */\n      0x00\n        /* \"contracts/staking.sol\":3705:3713  return 0 */\n      jump(tag_144)\n        /* \"contracts/staking.sol\":3675:3713  if (_toTime <= poolStartTime) return 0 */\n    tag_145:\n        /* \"contracts/staking.sol\":3744:3757  poolStartTime */\n      sload(0x08)\n        /* \"contracts/staking.sol\":3731:3740  _fromTime */\n      dup4\n        /* \"contracts/staking.sol\":3731:3757  _fromTime <= poolStartTime */\n      gt\n        /* \"contracts/staking.sol\":3727:3807  if (_fromTime <= poolStartTime) return (_toTime - poolStartTime) * XusdPerSecond */\n      tag_146\n      jumpi\n        /* \"contracts/staking.sol\":3794:3807  XusdPerSecond */\n      sload(0x0a)\n        /* \"contracts/staking.sol\":3777:3790  poolStartTime */\n      sload(0x08)\n        /* \"contracts/staking.sol\":3767:3790  _toTime - poolStartTime */\n      tag_139\n      swap1\n        /* \"contracts/staking.sol\":3767:3774  _toTime */\n      dup5\n        /* \"contracts/staking.sol\":3767:3790  _toTime - poolStartTime */\n      tag_131\n      jump\t// in\n        /* \"contracts/staking.sol\":3727:3807  if (_fromTime <= poolStartTime) return (_toTime - poolStartTime) * XusdPerSecond */\n    tag_146:\n        /* \"contracts/staking.sol\":3852:3865  XusdPerSecond */\n      sload(0x0a)\n        /* \"contracts/staking.sol\":3829:3848  _toTime - _fromTime */\n      tag_139\n        /* \"contracts/staking.sol\":3839:3848  _fromTime */\n      dup5\n        /* \"contracts/staking.sol\":3829:3836  _toTime */\n      dup5\n        /* \"contracts/staking.sol\":3829:3848  _toTime - _fromTime */\n      tag_131\n      jump\t// in\n        /* \"contracts/staking.sol\":3404:3876  if (_toTime >= poolEndTime) {... */\n    tag_144:\n        /* \"contracts/staking.sol\":3256:3882  function getGeneratedReward(uint256 _fromTime, uint256 _toTime) public view returns (uint256) {... */\n      swap3\n      swap2\n      pop\n      pop\n      jump\t// out\n        /* \"contracts/staking.sol\":7814:8578  function withdraw(uint256 _pid, uint256 _amount) external {... */\n    tag_53:\n        /* \"contracts/staking.sol\":7882:7897  address _sender */\n      0x00\n        /* \"contracts/staking.sol\":7900:7910  msg.sender */\n      caller\n        /* \"contracts/staking.sol\":7882:7910  address _sender = msg.sender */\n      swap1\n      pop\n        /* \"contracts/staking.sol\":7920:7941  PoolInfo storage pool */\n      0x00\n        /* \"contracts/staking.sol\":7944:7952  poolInfo */\n      0x05\n        /* \"contracts/staking.sol\":7953:7957  _pid */\n      dup5\n        /* \"contracts/staking.sol\":7944:7958  poolInfo[_pid] */\n      dup2\n      sload\n      dup2\n      lt\n      tag_153\n      jumpi\n      tag_153\n      tag_127\n      jump\t// in\n    tag_153:\n      0x00\n      swap2\n      dup3\n      mstore\n      0x20\n      dup1\n      dup4\n      keccak256\n        /* \"contracts/staking.sol\":7992:8006  userInfo[_pid] */\n      dup8\n      dup5\n      mstore\n        /* \"contracts/staking.sol\":7944:7958  poolInfo[_pid] */\n      0x06\n        /* \"contracts/staking.sol\":7992:8006  userInfo[_pid] */\n      dup1\n      dup4\n      mstore\n      0x40\n      dup1\n      dup7\n      keccak256\n      sub(shl(0xa0, 0x01), 0x01)\n        /* \"contracts/staking.sol\":7992:8015  userInfo[_pid][_sender] */\n      dup10\n      and\n      dup8\n      mstore\n      swap1\n      swap4\n      mstore\n      swap2\n      swap1\n      swap4\n      keccak256\n        /* \"contracts/staking.sol\":8033:8044  user.amount */\n      dup1\n      sload\n        /* \"contracts/staking.sol\":7944:7958  poolInfo[_pid] */\n      swap3\n      swap1\n      swap2\n      mul\n      swap1\n      swap3\n      add\n      swap3\n      pop\n      dup5\n      gt\n        /* \"contracts/staking.sol\":8033:8055  user.amount >= _amount */\n      iszero\n        /* \"contracts/staking.sol\":8025:8078  require(user.amount >= _amount, \"withdraw: not good\") */\n      tag_155\n      jumpi\n      mload(0x40)\n      shl(0xe5, 0x461bcd)\n      dup2\n      mstore\n        /* \"#utility.yul\":5586:5588   */\n      0x20\n        /* \"contracts/staking.sol\":8025:8078  require(user.amount >= _amount, \"withdraw: not good\") */\n      0x04\n      dup3\n      add\n        /* \"#utility.yul\":5568:5589   */\n      mstore\n        /* \"#utility.yul\":5625:5627   */\n      0x12\n        /* \"#utility.yul\":5605:5623   */\n      0x24\n      dup3\n      add\n        /* \"#utility.yul\":5598:5628   */\n      mstore\n      shl(0x72, 0x1dda5d1a191c985dce881b9bdd0819dbdbd9)\n        /* \"#utility.yul\":5644:5662   */\n      0x44\n      dup3\n      add\n        /* \"#utility.yul\":5637:5685   */\n      mstore\n        /* \"#utility.yul\":5702:5720   */\n      0x64\n      add\n        /* \"contracts/staking.sol\":8025:8078  require(user.amount >= _amount, \"withdraw: not good\") */\n      tag_121\n        /* \"#utility.yul\":5384:5726   */\n      jump\n        /* \"contracts/staking.sol\":8025:8078  require(user.amount >= _amount, \"withdraw: not good\") */\n    tag_155:\n        /* \"contracts/staking.sol\":8088:8104  updatePool(_pid) */\n      tag_158\n        /* \"contracts/staking.sol\":8099:8103  _pid */\n      dup6\n        /* \"contracts/staking.sol\":8088:8098  updatePool */\n      tag_56\n        /* \"contracts/staking.sol\":8088:8104  updatePool(_pid) */\n      jump\t// in\n    tag_158:\n        /* \"contracts/staking.sol\":8114:8130  uint256 _pending */\n      0x00\n        /* \"contracts/staking.sol\":8179:8183  user */\n      dup2\n        /* \"contracts/staking.sol\":8179:8194  user.rewardDebt */\n      0x01\n      add\n      sload\n        /* \"contracts/staking.sol\":8172:8176  1e18 */\n      0x0de0b6b3a7640000\n        /* \"contracts/staking.sol\":8148:8152  pool */\n      dup5\n        /* \"contracts/staking.sol\":8148:8168  pool.accXusdPerShare */\n      0x03\n      add\n      sload\n        /* \"contracts/staking.sol\":8134:8138  user */\n      dup5\n        /* \"contracts/staking.sol\":8134:8145  user.amount */\n      0x00\n      add\n      sload\n        /* \"contracts/staking.sol\":8134:8168  user.amount * pool.accXusdPerShare */\n      tag_159\n      swap2\n      swap1\n      tag_141\n      jump\t// in\n    tag_159:\n        /* \"contracts/staking.sol\":8133:8176  (user.amount * pool.accXusdPerShare) / 1e18 */\n      tag_160\n      swap2\n      swap1\n      tag_161\n      jump\t// in\n    tag_160:\n        /* \"contracts/staking.sol\":8133:8194  (user.amount * pool.accXusdPerShare) / 1e18 - user.rewardDebt */\n      tag_162\n      swap2\n      swap1\n      tag_131\n      jump\t// in\n    tag_162:\n        /* \"contracts/staking.sol\":8114:8194  uint256 _pending = (user.amount * pool.accXusdPerShare) / 1e18 - user.rewardDebt */\n      swap1\n      pop\n        /* \"contracts/staking.sol\":8208:8220  _pending > 0 */\n      dup1\n      iszero\n        /* \"contracts/staking.sol\":8204:8330  if (_pending > 0) {... */\n      tag_163\n      jumpi\n        /* \"contracts/staking.sol\":8236:8271  safeXusdTransfer(_sender, _pending) */\n      tag_164\n        /* \"contracts/staking.sol\":8253:8260  _sender */\n      dup5\n        /* \"contracts/staking.sol\":8262:8270  _pending */\n      dup3\n        /* \"contracts/staking.sol\":8236:8252  safeXusdTransfer */\n      tag_165\n        /* \"contracts/staking.sol\":8236:8271  safeXusdTransfer(_sender, _pending) */\n      jump\t// in\n    tag_164:\n        /* \"contracts/staking.sol\":8301:8308  _sender */\n      dup4\n      sub(shl(0xa0, 0x01), 0x01)\n        /* \"contracts/staking.sol\":8290:8319  RewardPaid(_sender, _pending) */\n      and\n      0xe2403640ba68fed3a2f88b7557551d1993f84b99bb10ff833f0cf8db0c5e0486\n        /* \"contracts/staking.sol\":8310:8318  _pending */\n      dup3\n        /* \"contracts/staking.sol\":8290:8319  RewardPaid(_sender, _pending) */\n      mload(0x40)\n      tag_166\n      swap2\n        /* \"#utility.yul\":160:185   */\n      dup2\n      mstore\n        /* \"#utility.yul\":148:150   */\n      0x20\n        /* \"#utility.yul\":133:151   */\n      add\n      swap1\n        /* \"#utility.yul\":14:191   */\n      jump\n        /* \"contracts/staking.sol\":8290:8319  RewardPaid(_sender, _pending) */\n    tag_166:\n      mload(0x40)\n      dup1\n      swap2\n      sub\n      swap1\n      log2\n        /* \"contracts/staking.sol\":8204:8330  if (_pending > 0) {... */\n    tag_163:\n        /* \"contracts/staking.sol\":8343:8354  _amount > 0 */\n      dup5\n      iszero\n        /* \"contracts/staking.sol\":8339:8454  if (_amount > 0) {... */\n      tag_167\n      jumpi\n        /* \"contracts/staking.sol\":8385:8392  _amount */\n      dup5\n        /* \"contracts/staking.sol\":8370:8374  user */\n      dup3\n        /* \"contracts/staking.sol\":8370:8381  user.amount */\n      0x00\n      add\n      0x00\n        /* \"contracts/staking.sol\":8370:8392  user.amount -= _amount */\n      dup3\n      dup3\n      sload\n      tag_168\n      swap2\n      swap1\n      tag_131\n      jump\t// in\n    tag_168:\n      swap1\n      swap2\n      sstore\n      pop\n      pop\n        /* \"contracts/staking.sol\":8406:8416  pool.token */\n      dup3\n      sload\n        /* \"contracts/staking.sol\":8406:8443  pool.token.transfer(_sender, _amount) */\n      mload(0x40)\n      shl(0xe0, 0xa9059cbb)\n      dup2\n      mstore\n      sub(shl(0xa0, 0x01), 0x01)\n        /* \"contracts/staking.sol\":8406:8416  pool.token */\n      swap1\n      swap2\n      and\n      swap1\n        /* \"contracts/staking.sol\":8406:8425  pool.token.transfer */\n      0xa9059cbb\n      swap1\n        /* \"contracts/staking.sol\":8406:8443  pool.token.transfer(_sender, _amount) */\n      tag_169\n      swap1\n        /* \"contracts/staking.sol\":8426:8433  _sender */\n      dup8\n      swap1\n        /* \"contracts/staking.sol\":8435:8442  _amount */\n      dup10\n      swap1\n        /* \"contracts/staking.sol\":8406:8443  pool.token.transfer(_sender, _amount) */\n      0x04\n      add\n      tag_170\n      jump\t// in\n    tag_169:\n      0x20\n      mload(0x40)\n      dup1\n      dup4\n      sub\n      dup2\n      0x00\n      dup8\n      gas\n      call\n      iszero\n      dup1\n      iszero\n      tag_172\n      jumpi\n      returndatacopy(0x00, 0x00, returndatasize)\n      revert(0x00, returndatasize)\n    tag_172:\n      pop\n      pop\n      pop\n      pop\n      mload(0x40)\n      returndatasize\n      not(0x1f)\n      0x1f\n      dup3\n      add\n      and\n      dup3\n      add\n      dup1\n      0x40\n      mstore\n      pop\n      dup2\n      add\n      swap1\n      tag_173\n      swap2\n      swap1\n      tag_174\n      jump\t// in\n    tag_173:\n      pop\n        /* \"contracts/staking.sol\":8339:8454  if (_amount > 0) {... */\n    tag_167:\n        /* \"contracts/staking.sol\":8496:8516  pool.accXusdPerShare */\n      0x03\n      dup4\n      add\n      sload\n        /* \"contracts/staking.sol\":8482:8493  user.amount */\n      dup3\n      sload\n        /* \"contracts/staking.sol\":8520:8524  1e18 */\n      0x0de0b6b3a7640000\n      swap2\n        /* \"contracts/staking.sol\":8482:8516  user.amount * pool.accXusdPerShare */\n      tag_175\n      swap2\n      tag_141\n      jump\t// in\n    tag_175:\n        /* \"contracts/staking.sol\":8481:8524  (user.amount * pool.accXusdPerShare) / 1e18 */\n      tag_176\n      swap2\n      swap1\n      tag_161\n      jump\t// in\n    tag_176:\n        /* \"contracts/staking.sol\":8463:8478  user.rewardDebt */\n      0x01\n      dup4\n      add\n        /* \"contracts/staking.sol\":8463:8524  user.rewardDebt = (user.amount * pool.accXusdPerShare) / 1e18 */\n      sstore\n        /* \"contracts/staking.sol\":8539:8571  Withdraw(_sender, _pid, _amount) */\n      mload(0x40)\n        /* \"#utility.yul\":160:185   */\n      dup6\n      dup2\n      mstore\n        /* \"contracts/staking.sol\":8557:8561  _pid */\n      dup7\n      swap1\n      sub(shl(0xa0, 0x01), 0x01)\n        /* \"contracts/staking.sol\":8539:8571  Withdraw(_sender, _pid, _amount) */\n      dup7\n      and\n      swap1\n      0xf279e6a1f5e320cca91135676d9cb6e44ca8a08c0b88342bcdb1144f6511b568\n      swap1\n        /* \"#utility.yul\":148:150   */\n      0x20\n        /* \"#utility.yul\":133:151   */\n      add\n        /* \"contracts/staking.sol\":8539:8571  Withdraw(_sender, _pid, _amount) */\n      mload(0x40)\n      dup1\n      swap2\n      sub\n      swap1\n      log3\n        /* \"contracts/staking.sol\":7872:8578  {... */\n      pop\n      pop\n      pop\n      pop\n        /* \"contracts/staking.sol\":7814:8578  function withdraw(uint256 _pid, uint256 _amount) external {... */\n      pop\n      pop\n      jump\t// out\n        /* \"contracts/staking.sol\":8765:9600  function updatePool(uint256 _pid) public {... */\n    tag_56:\n        /* \"contracts/staking.sol\":8816:8837  PoolInfo storage pool */\n      0x00\n        /* \"contracts/staking.sol\":8840:8848  poolInfo */\n      0x05\n        /* \"contracts/staking.sol\":8849:8853  _pid */\n      dup3\n        /* \"contracts/staking.sol\":8840:8854  poolInfo[_pid] */\n      dup2\n      sload\n      dup2\n      lt\n      tag_180\n      jumpi\n      tag_180\n      tag_127\n      jump\t// in\n    tag_180:\n      swap1\n      0x00\n      mstore\n      keccak256(0x00, 0x20)\n      swap1\n      0x06\n      mul\n      add\n        /* \"contracts/staking.sol\":8816:8854  PoolInfo storage pool = poolInfo[_pid] */\n      swap1\n      pop\n        /* \"contracts/staking.sol\":8887:8891  pool */\n      dup1\n        /* \"contracts/staking.sol\":8887:8906  pool.lastRewardTime */\n      0x02\n      add\n      sload\n        /* \"contracts/staking.sol\":8868:8883  block.timestamp */\n      timestamp\n        /* \"contracts/staking.sol\":8868:8906  block.timestamp <= pool.lastRewardTime */\n      gt\n        /* \"contracts/staking.sol\":8864:8939  if (block.timestamp <= pool.lastRewardTime) {... */\n      tag_182\n      jumpi\n        /* \"contracts/staking.sol\":8922:8929  return; */\n      pop\n        /* \"contracts/staking.sol\":8765:9600  function updatePool(uint256 _pid) public {... */\n      pop\n      jump\t// out\n        /* \"contracts/staking.sol\":8864:8939  if (block.timestamp <= pool.lastRewardTime) {... */\n    tag_182:\n        /* \"contracts/staking.sol\":8970:8980  pool.token */\n      dup1\n      sload\n        /* \"contracts/staking.sol\":8970:9005  pool.token.balanceOf(address(this)) */\n      mload(0x40)\n      shl(0xe0, 0x70a08231)\n      dup2\n      mstore\n        /* \"contracts/staking.sol\":8948:8967  uint256 tokenSupply */\n      0x00\n      swap2\n      sub(shl(0xa0, 0x01), 0x01)\n        /* \"contracts/staking.sol\":8970:8980  pool.token */\n      and\n      swap1\n        /* \"contracts/staking.sol\":8970:8990  pool.token.balanceOf */\n      0x70a08231\n      swap1\n        /* \"contracts/staking.sol\":8970:9005  pool.token.balanceOf(address(this)) */\n      tag_183\n      swap1\n        /* \"contracts/staking.sol\":8999:9003  this */\n      address\n      swap1\n        /* \"contracts/staking.sol\":8970:9005  pool.token.balanceOf(address(this)) */\n      0x04\n      add\n      tag_67\n      jump\t// in\n    tag_183:\n      0x20\n      mload(0x40)\n      dup1\n      dup4\n      sub\n      dup2\n      dup7\n      gas\n      staticcall\n      iszero\n      dup1\n      iszero\n      tag_185\n      jumpi\n      returndatacopy(0x00, 0x00, returndatasize)\n      revert(0x00, returndatasize)\n    tag_185:\n      pop\n      pop\n      pop\n      pop\n      mload(0x40)\n      returndatasize\n      not(0x1f)\n      0x1f\n      dup3\n      add\n      and\n      dup3\n      add\n      dup1\n      0x40\n      mstore\n      pop\n      dup2\n      add\n      swap1\n      tag_186\n      swap2\n      swap1\n      tag_187\n      jump\t// in\n    tag_186:\n        /* \"contracts/staking.sol\":8948:9005  uint256 tokenSupply = pool.token.balanceOf(address(this)) */\n      swap1\n      pop\n        /* \"contracts/staking.sol\":9019:9030  tokenSupply */\n      dup1\n        /* \"contracts/staking.sol\":9034:9035  0 */\n      0x00\n        /* \"contracts/staking.sol\":9019:9035  tokenSupply == 0 */\n      sub\n        /* \"contracts/staking.sol\":9015:9119  if (tokenSupply == 0) {... */\n      tag_188\n      jumpi\n      pop\n        /* \"contracts/staking.sol\":9073:9088  block.timestamp */\n      timestamp\n        /* \"contracts/staking.sol\":9051:9070  pool.lastRewardTime */\n      0x02\n      swap1\n      swap2\n      add\n        /* \"contracts/staking.sol\":9051:9088  pool.lastRewardTime = block.timestamp */\n      sstore\n      pop\n        /* \"contracts/staking.sol\":8765:9600  function updatePool(uint256 _pid) public {... */\n      jump\t// out\n        /* \"contracts/staking.sol\":9015:9119  if (tokenSupply == 0) {... */\n    tag_188:\n        /* \"contracts/staking.sol\":9133:9147  pool.isStarted */\n      0x04\n      dup3\n      add\n      sload\n      0xff\n      and\n        /* \"contracts/staking.sol\":9128:9243  if (!pool.isStarted) {... */\n      tag_189\n      jumpi\n        /* \"contracts/staking.sol\":9163:9177  pool.isStarted */\n      0x04\n      dup3\n      add\n        /* \"contracts/staking.sol\":9163:9184  pool.isStarted = true */\n      dup1\n      sload\n      not(0xff)\n      and\n        /* \"contracts/staking.sol\":9180:9184  true */\n      0x01\n        /* \"contracts/staking.sol\":9163:9184  pool.isStarted = true */\n      swap1\n      dup2\n      or\n      swap1\n      swap2\n      sstore\n        /* \"contracts/staking.sol\":9217:9232  pool.allocPoint */\n      dup3\n      add\n      sload\n        /* \"contracts/staking.sol\":9198:9213  totalAllocPoint */\n      0x07\n        /* \"contracts/staking.sol\":9198:9232  totalAllocPoint += pool.allocPoint */\n      dup1\n      sload\n        /* \"contracts/staking.sol\":9163:9177  pool.isStarted */\n      0x00\n      swap1\n        /* \"contracts/staking.sol\":9198:9232  totalAllocPoint += pool.allocPoint */\n      tag_190\n      swap1\n        /* \"contracts/staking.sol\":9217:9232  pool.allocPoint */\n      dup5\n      swap1\n        /* \"contracts/staking.sol\":9198:9232  totalAllocPoint += pool.allocPoint */\n      tag_133\n      jump\t// in\n    tag_190:\n      swap1\n      swap2\n      sstore\n      pop\n      pop\n        /* \"contracts/staking.sol\":9128:9243  if (!pool.isStarted) {... */\n    tag_189:\n        /* \"contracts/staking.sol\":9256:9271  totalAllocPoint */\n      sload(0x07)\n        /* \"contracts/staking.sol\":9256:9275  totalAllocPoint > 0 */\n      iszero\n        /* \"contracts/staking.sol\":9252:9547  if (totalAllocPoint > 0) {... */\n      tag_191\n      jumpi\n        /* \"contracts/staking.sol\":9291:9315  uint256 _generatedReward */\n      0x00\n        /* \"contracts/staking.sol\":9318:9374  getGeneratedReward(pool.lastRewardTime, block.timestamp) */\n      tag_192\n        /* \"contracts/staking.sol\":9337:9341  pool */\n      dup4\n        /* \"contracts/staking.sol\":9337:9356  pool.lastRewardTime */\n      0x02\n      add\n      sload\n        /* \"contracts/staking.sol\":9358:9373  block.timestamp */\n      timestamp\n        /* \"contracts/staking.sol\":9318:9336  getGeneratedReward */\n      tag_49\n        /* \"contracts/staking.sol\":9318:9374  getGeneratedReward(pool.lastRewardTime, block.timestamp) */\n      jump\t// in\n    tag_192:\n        /* \"contracts/staking.sol\":9291:9374  uint256 _generatedReward = getGeneratedReward(pool.lastRewardTime, block.timestamp) */\n      swap1\n      pop\n        /* \"contracts/staking.sol\":9388:9407  uint256 _XusdReward */\n      0x00\n        /* \"contracts/staking.sol\":9449:9464  totalAllocPoint */\n      sload(0x07)\n        /* \"contracts/staking.sol\":9430:9434  pool */\n      dup5\n        /* \"contracts/staking.sol\":9430:9445  pool.allocPoint */\n      0x01\n      add\n      sload\n        /* \"contracts/staking.sol\":9411:9427  _generatedReward */\n      dup4\n        /* \"contracts/staking.sol\":9411:9445  _generatedReward * pool.allocPoint */\n      tag_193\n      swap2\n      swap1\n      tag_141\n      jump\t// in\n    tag_193:\n        /* \"contracts/staking.sol\":9410:9464  (_generatedReward * pool.allocPoint) / totalAllocPoint */\n      tag_194\n      swap2\n      swap1\n      tag_161\n      jump\t// in\n    tag_194:\n        /* \"contracts/staking.sol\":9388:9464  uint256 _XusdReward = (_generatedReward * pool.allocPoint) / totalAllocPoint */\n      swap1\n      pop\n        /* \"contracts/staking.sol\":9525:9536  tokenSupply */\n      dup3\n        /* \"contracts/staking.sol\":9503:9521  _XusdReward * 1e18 */\n      tag_195\n        /* \"contracts/staking.sol\":9388:9464  uint256 _XusdReward = (_generatedReward * pool.allocPoint) / totalAllocPoint */\n      dup3\n        /* \"contracts/staking.sol\":9517:9521  1e18 */\n      0x0de0b6b3a7640000\n        /* \"contracts/staking.sol\":9503:9521  _XusdReward * 1e18 */\n      tag_141\n      jump\t// in\n    tag_195:\n        /* \"contracts/staking.sol\":9502:9536  (_XusdReward * 1e18) / tokenSupply */\n      tag_196\n      swap2\n      swap1\n      tag_161\n      jump\t// in\n    tag_196:\n        /* \"contracts/staking.sol\":9478:9482  pool */\n      dup5\n        /* \"contracts/staking.sol\":9478:9498  pool.accXusdPerShare */\n      0x03\n      add\n      0x00\n        /* \"contracts/staking.sol\":9478:9536  pool.accXusdPerShare += (_XusdReward * 1e18) / tokenSupply */\n      dup3\n      dup3\n      sload\n      tag_197\n      swap2\n      swap1\n      tag_133\n      jump\t// in\n    tag_197:\n      swap1\n      swap2\n      sstore\n      pop\n      pop\n      pop\n      pop\n        /* \"contracts/staking.sol\":9252:9547  if (totalAllocPoint > 0) {... */\n    tag_191:\n      pop\n        /* \"contracts/staking.sol\":9578:9593  block.timestamp */\n      timestamp\n        /* \"contracts/staking.sol\":9556:9575  pool.lastRewardTime */\n      0x02\n      swap1\n      swap2\n      add\n        /* \"contracts/staking.sol\":9556:9593  pool.lastRewardTime = block.timestamp */\n      sstore\n      pop\n        /* \"contracts/staking.sol\":8765:9600  function updatePool(uint256 _pid) public {... */\n      jump\t// out\n        /* \"contracts/staking.sol\":6524:6891  function emergencyWithdraw(uint256 _pid) external {... */\n    tag_59:\n        /* \"contracts/staking.sol\":6584:6605  PoolInfo storage pool */\n      0x00\n        /* \"contracts/staking.sol\":6608:6616  poolInfo */\n      0x05\n        /* \"contracts/staking.sol\":6617:6621  _pid */\n      dup3\n        /* \"contracts/staking.sol\":6608:6622  poolInfo[_pid] */\n      dup2\n      sload\n      dup2\n      lt\n      tag_200\n      jumpi\n      tag_200\n      tag_127\n      jump\t// in\n    tag_200:\n      0x00\n      swap2\n      dup3\n      mstore\n      0x20\n      dup1\n      dup4\n      keccak256\n        /* \"contracts/staking.sol\":6656:6670  userInfo[_pid] */\n      dup6\n      dup5\n      mstore\n        /* \"contracts/staking.sol\":6608:6622  poolInfo[_pid] */\n      0x06\n        /* \"contracts/staking.sol\":6656:6670  userInfo[_pid] */\n      dup1\n      dup4\n      mstore\n      0x40\n      dup1\n      dup7\n      keccak256\n        /* \"contracts/staking.sol\":6671:6681  msg.sender */\n      caller\n        /* \"contracts/staking.sol\":6656:6682  userInfo[_pid][msg.sender] */\n      dup1\n      dup9\n      mstore\n      swap5\n      mstore\n      dup1\n      dup7\n      keccak256\n        /* \"contracts/staking.sol\":6710:6721  user.amount */\n      dup1\n      sload\n        /* \"contracts/staking.sol\":6731:6746  user.amount = 0 */\n      dup8\n      dup3\n      sstore\n      0x01\n        /* \"contracts/staking.sol\":6756:6771  user.rewardDebt */\n      dup3\n      add\n        /* \"contracts/staking.sol\":6756:6775  user.rewardDebt = 0 */\n      swap8\n      swap1\n      swap8\n      sstore\n        /* \"contracts/staking.sol\":6608:6622  poolInfo[_pid] */\n      swap2\n      swap1\n      swap5\n      mul\n      swap1\n      swap2\n      add\n        /* \"contracts/staking.sol\":6785:6795  pool.token */\n      dup1\n      sload\n        /* \"contracts/staking.sol\":6785:6825  pool.token.transfer(msg.sender, _amount) */\n      swap4\n      mload\n      shl(0xe0, 0xa9059cbb)\n      dup2\n      mstore\n        /* \"contracts/staking.sol\":6608:6622  poolInfo[_pid] */\n      swap1\n      swap6\n      pop\n        /* \"contracts/staking.sol\":6656:6682  userInfo[_pid][msg.sender] */\n      swap1\n      swap4\n        /* \"contracts/staking.sol\":6710:6721  user.amount */\n      swap3\n      sub(shl(0xa0, 0x01), 0x01)\n        /* \"contracts/staking.sol\":6785:6795  pool.token */\n      and\n      swap2\n        /* \"contracts/staking.sol\":6785:6804  pool.token.transfer */\n      0xa9059cbb\n      swap2\n        /* \"contracts/staking.sol\":6785:6825  pool.token.transfer(msg.sender, _amount) */\n      tag_202\n      swap2\n        /* \"contracts/staking.sol\":6671:6681  msg.sender */\n      swap1\n        /* \"contracts/staking.sol\":6710:6721  user.amount */\n      dup6\n      swap1\n        /* \"contracts/staking.sol\":6785:6825  pool.token.transfer(msg.sender, _amount) */\n      0x04\n      add\n      tag_170\n      jump\t// in\n    tag_202:\n      0x20\n      mload(0x40)\n      dup1\n      dup4\n      sub\n      dup2\n      0x00\n      dup8\n      gas\n      call\n      iszero\n      dup1\n      iszero\n      tag_204\n      jumpi\n      returndatacopy(0x00, 0x00, returndatasize)\n      revert(0x00, returndatasize)\n    tag_204:\n      pop\n      pop\n      pop\n      pop\n      mload(0x40)\n      returndatasize\n      not(0x1f)\n      0x1f\n      dup3\n      add\n      and\n      dup3\n      add\n      dup1\n      0x40\n      mstore\n      pop\n      dup2\n      add\n      swap1\n      tag_205\n      swap2\n      swap1\n      tag_174\n      jump\t// in\n    tag_205:\n      pop\n        /* \"contracts/staking.sol\":6840:6884  EmergencyWithdraw(msg.sender, _pid, _amount) */\n      mload(0x40)\n        /* \"#utility.yul\":160:185   */\n      dup2\n      dup2\n      mstore\n        /* \"contracts/staking.sol\":6870:6874  _pid */\n      dup5\n      swap1\n        /* \"contracts/staking.sol\":6858:6868  msg.sender */\n      caller\n      swap1\n        /* \"contracts/staking.sol\":6840:6884  EmergencyWithdraw(msg.sender, _pid, _amount) */\n      0xbb757047c2b5f3974fe26b7c10f732e7bce710b0952a71082702781e62ae0595\n      swap1\n        /* \"#utility.yul\":148:150   */\n      0x20\n        /* \"#utility.yul\":133:151   */\n      add\n        /* \"contracts/staking.sol\":6840:6884  EmergencyWithdraw(msg.sender, _pid, _amount) */\n      mload(0x40)\n      dup1\n      swap2\n      sub\n      swap1\n      log3\n        /* \"contracts/staking.sol\":6574:6891  {... */\n      pop\n      pop\n      pop\n        /* \"contracts/staking.sol\":6524:6891  function emergencyWithdraw(uint256 _pid) external {... */\n      pop\n      jump\t// out\n        /* \"contracts/staking.sol\":6897:7387  function governanceRecoverUnsupported(IERC20 _token, uint256 amount, address to) external onlyOperator {... */\n    tag_63:\n        /* \"contracts/staking.sol\":10002:10010  operator */\n      and(sub(shl(0xa0, 0x01), 0x01), sload(0x03))\n        /* \"contracts/staking.sol\":10014:10024  msg.sender */\n      caller\n        /* \"contracts/staking.sol\":10002:10024  operator == msg.sender */\n      eq\n        /* \"contracts/staking.sol\":9994:10072  require(operator == msg.sender, \"XusdGenesisPool: caller is not the operator\") */\n      tag_208\n      jumpi\n      mload(0x40)\n      shl(0xe5, 0x461bcd)\n      dup2\n      mstore\n      0x04\n      add\n      tag_121\n      swap1\n      tag_122\n      jump\t// in\n    tag_208:\n        /* \"contracts/staking.sol\":7032:7043  poolEndTime */\n      sload(0x09)\n        /* \"contracts/staking.sol\":7032:7053  poolEndTime + 30 days */\n      tag_211\n      swap1\n        /* \"contracts/staking.sol\":7046:7053  30 days */\n      0x278d00\n        /* \"contracts/staking.sol\":7032:7053  poolEndTime + 30 days */\n      tag_133\n      jump\t// in\n    tag_211:\n        /* \"contracts/staking.sol\":7014:7029  block.timestamp */\n      timestamp\n        /* \"contracts/staking.sol\":7014:7053  block.timestamp < poolEndTime + 30 days */\n      lt\n        /* \"contracts/staking.sol\":7010:7344  if (block.timestamp < poolEndTime + 30 days) {... */\n      iszero\n      tag_212\n      jumpi\n        /* \"contracts/staking.sol\":7087:7091  Xusd */\n      sload(0x04)\n      sub(shl(0xa0, 0x01), 0x01)\n      swap1\n      dup2\n      and\n        /* \"contracts/staking.sol\":7077:7091  _token != Xusd */\n      swap1\n      dup5\n      and\n      sub\n        /* \"contracts/staking.sol\":7069:7100  require(_token != Xusd, \"Xusd\") */\n      tag_213\n      jumpi\n      mload(0x40)\n      shl(0xe5, 0x461bcd)\n      dup2\n      mstore\n      0x04\n      add\n      tag_121\n      swap1\n        /* \"#utility.yul\":6873:6875   */\n      0x20\n        /* \"#utility.yul\":6855:6876   */\n      dup1\n      dup3\n      mstore\n        /* \"#utility.yul\":6912:6913   */\n      0x04\n        /* \"#utility.yul\":6892:6910   */\n      swap1\n      dup3\n      add\n        /* \"#utility.yul\":6885:6914   */\n      mstore\n      shl(0xe2, 0x161d5cd9)\n        /* \"#utility.yul\":6945:6947   */\n      0x40\n        /* \"#utility.yul\":6930:6948   */\n      dup3\n      add\n        /* \"#utility.yul\":6923:6957   */\n      mstore\n        /* \"#utility.yul\":6989:6991   */\n      0x60\n        /* \"#utility.yul\":6974:6992   */\n      add\n      swap1\n        /* \"#utility.yul\":6671:6998   */\n      jump\n        /* \"contracts/staking.sol\":7069:7100  require(_token != Xusd, \"Xusd\") */\n    tag_213:\n        /* \"contracts/staking.sol\":7131:7139  poolInfo */\n      0x05\n        /* \"contracts/staking.sol\":7131:7146  poolInfo.length */\n      sload\n        /* \"contracts/staking.sol\":7114:7128  uint256 length */\n      0x00\n        /* \"contracts/staking.sol\":7160:7334  for (uint256 pid = 0; pid < length; ++pid) {... */\n    tag_216:\n        /* \"contracts/staking.sol\":7188:7194  length */\n      dup2\n        /* \"contracts/staking.sol\":7182:7185  pid */\n      dup2\n        /* \"contracts/staking.sol\":7182:7194  pid < length */\n      lt\n        /* \"contracts/staking.sol\":7160:7334  for (uint256 pid = 0; pid < length; ++pid) {... */\n      iszero\n      tag_217\n      jumpi\n        /* \"contracts/staking.sol\":7221:7242  PoolInfo storage pool */\n      0x00\n        /* \"contracts/staking.sol\":7245:7253  poolInfo */\n      0x05\n        /* \"contracts/staking.sol\":7254:7257  pid */\n      dup3\n        /* \"contracts/staking.sol\":7245:7258  poolInfo[pid] */\n      dup2\n      sload\n      dup2\n      lt\n      tag_220\n      jumpi\n      tag_220\n      tag_127\n      jump\t// in\n    tag_220:\n      0x00\n      swap2\n      dup3\n      mstore\n      0x20\n      swap1\n      swap2\n      keccak256\n      0x06\n      swap1\n      swap2\n      mul\n      add\n        /* \"contracts/staking.sol\":7294:7304  pool.token */\n      dup1\n      sload\n        /* \"contracts/staking.sol\":7245:7258  poolInfo[pid] */\n      swap1\n      swap2\n      pop\n      sub(shl(0xa0, 0x01), 0x01)\n        /* \"contracts/staking.sol\":7294:7304  pool.token */\n      swap1\n      dup2\n      and\n        /* \"contracts/staking.sol\":7284:7304  _token != pool.token */\n      swap1\n      dup8\n      and\n      sub\n        /* \"contracts/staking.sol\":7276:7319  require(_token != pool.token, \"pool.token\") */\n      tag_222\n      jumpi\n      mload(0x40)\n      shl(0xe5, 0x461bcd)\n      dup2\n      mstore\n        /* \"#utility.yul\":7205:7207   */\n      0x20\n        /* \"contracts/staking.sol\":7276:7319  require(_token != pool.token, \"pool.token\") */\n      0x04\n      dup3\n      add\n        /* \"#utility.yul\":7187:7208   */\n      mstore\n        /* \"#utility.yul\":7244:7246   */\n      0x0a\n        /* \"#utility.yul\":7224:7242   */\n      0x24\n      dup3\n      add\n        /* \"#utility.yul\":7217:7247   */\n      mstore\n      shl(0xb1, 0x3837b7b6173a37b5b2b7)\n        /* \"#utility.yul\":7263:7281   */\n      0x44\n      dup3\n      add\n        /* \"#utility.yul\":7256:7296   */\n      mstore\n        /* \"#utility.yul\":7313:7331   */\n      0x64\n      add\n        /* \"contracts/staking.sol\":7276:7319  require(_token != pool.token, \"pool.token\") */\n      tag_121\n        /* \"#utility.yul\":7003:7337   */\n      jump\n        /* \"contracts/staking.sol\":7276:7319  require(_token != pool.token, \"pool.token\") */\n    tag_222:\n      pop\n        /* \"contracts/staking.sol\":7196:7201  ++pid */\n      0x01\n      add\n        /* \"contracts/staking.sol\":7160:7334  for (uint256 pid = 0; pid < length; ++pid) {... */\n      jump(tag_216)\n    tag_217:\n      pop\n        /* \"contracts/staking.sol\":7055:7344  {... */\n      pop\n        /* \"contracts/staking.sol\":7010:7344  if (block.timestamp < poolEndTime + 30 days) {... */\n    tag_212:\n        /* \"contracts/staking.sol\":7353:7380  _token.transfer(to, amount) */\n      mload(0x40)\n      shl(0xe0, 0xa9059cbb)\n      dup2\n      mstore\n      sub(shl(0xa0, 0x01), 0x01)\n        /* \"contracts/staking.sol\":7353:7368  _token.transfer */\n      dup5\n      and\n      swap1\n      0xa9059cbb\n      swap1\n        /* \"contracts/staking.sol\":7353:7380  _token.transfer(to, amount) */\n      tag_225\n      swap1\n        /* \"contracts/staking.sol\":7369:7371  to */\n      dup5\n      swap1\n        /* \"contracts/staking.sol\":7373:7379  amount */\n      dup7\n      swap1\n        /* \"contracts/staking.sol\":7353:7380  _token.transfer(to, amount) */\n      0x04\n      add\n      tag_170\n      jump\t// in\n    tag_225:\n      0x20\n      mload(0x40)\n      dup1\n      dup4\n      sub\n      dup2\n      0x00\n      dup8\n      gas\n      call\n      iszero\n      dup1\n      iszero\n      tag_227\n      jumpi\n      returndatacopy(0x00, 0x00, returndatasize)\n      revert(0x00, returndatasize)\n    tag_227:\n      pop\n      pop\n      pop\n      pop\n      mload(0x40)\n      returndatasize\n      not(0x1f)\n      0x1f\n      dup3\n      add\n      and\n      dup3\n      add\n      dup1\n      0x40\n      mstore\n      pop\n      dup2\n      add\n      swap1\n      tag_228\n      swap2\n      swap1\n      tag_174\n      jump\t// in\n    tag_228:\n      pop\n        /* \"contracts/staking.sol\":6897:7387  function governanceRecoverUnsupported(IERC20 _token, uint256 amount, address to) external onlyOperator {... */\n      pop\n      pop\n      pop\n      jump\t// out\n        /* \"contracts/staking.sol\":2398:2519  function comissionToken(uint256 index) external view returns (address) {... */\n    tag_73:\n        /* \"contracts/staking.sol\":2460:2467  address */\n      0x00\n        /* \"contracts/staking.sol\":2486:2512  _comissionTokens.at(index) */\n      tag_144\n        /* \"contracts/staking.sol\":2460:2467  address */\n      dup2\n        /* \"contracts/staking.sol\":2506:2511  index */\n      dup4\n        /* \"contracts/staking.sol\":2486:2505  _comissionTokens.at */\n      tag_231\n        /* \"contracts/staking.sol\":2486:2512  _comissionTokens.at(index) */\n      jump\t// in\n        /* \"contracts/staking.sol\":4150:5358  function add(... */\n    tag_84:\n        /* \"contracts/staking.sol\":10002:10010  operator */\n      and(sub(shl(0xa0, 0x01), 0x01), sload(0x03))\n        /* \"contracts/staking.sol\":10014:10024  msg.sender */\n      caller\n        /* \"contracts/staking.sol\":10002:10024  operator == msg.sender */\n      eq\n        /* \"contracts/staking.sol\":9994:10072  require(operator == msg.sender, \"XusdGenesisPool: caller is not the operator\") */\n      tag_233\n      jumpi\n      mload(0x40)\n      shl(0xe5, 0x461bcd)\n      dup2\n      mstore\n      0x04\n      add\n      tag_121\n      swap1\n      tag_122\n      jump\t// in\n    tag_233:\n        /* \"contracts/staking.sol\":4341:4367  checkPoolDuplicate(_token) */\n      tag_236\n        /* \"contracts/staking.sol\":4360:4366  _token */\n      dup5\n        /* \"contracts/staking.sol\":4341:4359  checkPoolDuplicate */\n      tag_237\n        /* \"contracts/staking.sol\":4341:4367  checkPoolDuplicate(_token) */\n      jump\t// in\n    tag_236:\n        /* \"contracts/staking.sol\":4381:4392  _withUpdate */\n      dup3\n        /* \"contracts/staking.sol\":4377:4436  if (_withUpdate) {... */\n      iszero\n      tag_239\n      jumpi\n        /* \"contracts/staking.sol\":4408:4425  massUpdatePools() */\n      tag_239\n        /* \"contracts/staking.sol\":4408:4423  massUpdatePools */\n      tag_86\n        /* \"contracts/staking.sol\":4408:4425  massUpdatePools() */\n      jump\t// in\n    tag_239:\n        /* \"contracts/staking.sol\":4467:4480  poolStartTime */\n      sload(0x08)\n        /* \"contracts/staking.sol\":4449:4464  block.timestamp */\n      timestamp\n        /* \"contracts/staking.sol\":4449:4480  block.timestamp < poolStartTime */\n      lt\n        /* \"contracts/staking.sol\":4445:4862  if (block.timestamp < poolStartTime) {... */\n      iszero\n      tag_240\n      jumpi\n        /* \"contracts/staking.sol\":4500:4515  _lastRewardTime */\n      dup2\n        /* \"contracts/staking.sol\":4519:4520  0 */\n      0x00\n        /* \"contracts/staking.sol\":4500:4520  _lastRewardTime == 0 */\n      sub\n        /* \"contracts/staking.sol\":4496:4693  if (_lastRewardTime == 0) {... */\n      tag_241\n      jumpi\n        /* \"contracts/staking.sol\":4558:4571  poolStartTime */\n      sload(0x08)\n        /* \"contracts/staking.sol\":4540:4571  _lastRewardTime = poolStartTime */\n      swap2\n      pop\n        /* \"contracts/staking.sol\":4445:4862  if (block.timestamp < poolStartTime) {... */\n      jump(tag_246)\n        /* \"contracts/staking.sol\":4496:4693  if (_lastRewardTime == 0) {... */\n    tag_241:\n        /* \"contracts/staking.sol\":4614:4627  poolStartTime */\n      sload(0x08)\n        /* \"contracts/staking.sol\":4596:4611  _lastRewardTime */\n      dup3\n        /* \"contracts/staking.sol\":4596:4627  _lastRewardTime < poolStartTime */\n      lt\n        /* \"contracts/staking.sol\":4592:4693  if (_lastRewardTime < poolStartTime) {... */\n      iszero\n      tag_243\n      jumpi\n        /* \"contracts/staking.sol\":4665:4678  poolStartTime */\n      sload(0x08)\n        /* \"contracts/staking.sol\":4647:4678  _lastRewardTime = poolStartTime */\n      swap2\n      pop\n        /* \"contracts/staking.sol\":4592:4693  if (_lastRewardTime < poolStartTime) {... */\n    tag_243:\n        /* \"contracts/staking.sol\":4445:4862  if (block.timestamp < poolStartTime) {... */\n      jump(tag_246)\n    tag_240:\n        /* \"contracts/staking.sol\":4727:4747  _lastRewardTime == 0 */\n      dup2\n      iszero\n      dup1\n        /* \"contracts/staking.sol\":4727:4784  _lastRewardTime == 0 || _lastRewardTime < block.timestamp */\n      tag_245\n      jumpi\n      pop\n        /* \"contracts/staking.sol\":4769:4784  block.timestamp */\n      timestamp\n        /* \"contracts/staking.sol\":4751:4766  _lastRewardTime */\n      dup3\n        /* \"contracts/staking.sol\":4751:4784  _lastRewardTime < block.timestamp */\n      lt\n        /* \"contracts/staking.sol\":4727:4784  _lastRewardTime == 0 || _lastRewardTime < block.timestamp */\n    tag_245:\n        /* \"contracts/staking.sol\":4723:4852  if (_lastRewardTime == 0 || _lastRewardTime < block.timestamp) {... */\n      iszero\n      tag_246\n      jumpi\n        /* \"contracts/staking.sol\":4822:4837  block.timestamp */\n      timestamp\n        /* \"contracts/staking.sol\":4804:4837  _lastRewardTime = block.timestamp */\n      swap2\n      pop\n        /* \"contracts/staking.sol\":4723:4852  if (_lastRewardTime == 0 || _lastRewardTime < block.timestamp) {... */\n    tag_246:\n        /* \"contracts/staking.sol\":4871:4886  bool _isStarted */\n      0x00\n        /* \"contracts/staking.sol\":4909:4922  poolStartTime */\n      sload(0x08)\n        /* \"contracts/staking.sol\":4890:4905  _lastRewardTime */\n      dup4\n        /* \"contracts/staking.sol\":4890:4922  _lastRewardTime <= poolStartTime */\n      gt\n      iszero\n        /* \"contracts/staking.sol\":4889:4963  (_lastRewardTime <= poolStartTime) || (_lastRewardTime <= block.timestamp) */\n      dup1\n      tag_247\n      jumpi\n      pop\n        /* \"contracts/staking.sol\":4947:4962  block.timestamp */\n      timestamp\n        /* \"contracts/staking.sol\":4928:4943  _lastRewardTime */\n      dup4\n        /* \"contracts/staking.sol\":4928:4962  _lastRewardTime <= block.timestamp */\n      gt\n      iszero\n        /* \"contracts/staking.sol\":4889:4963  (_lastRewardTime <= poolStartTime) || (_lastRewardTime <= block.timestamp) */\n    tag_247:\n        /* \"contracts/staking.sol\":5000:5261  PoolInfo({... */\n      0x40\n      dup1\n      mload\n      0xc0\n      dup2\n      add\n      dup3\n      mstore\n      sub(shl(0xa0, 0x01), 0x01)\n      dup9\n      dup2\n      and\n      dup3\n      mstore\n      0x20\n      dup3\n      add\n      dup11\n      dup2\n      mstore\n      swap3\n      dup3\n      add\n      dup8\n      dup2\n      mstore\n      0x00\n      0x60\n      dup5\n      add\n      dup2\n      dup2\n      mstore\n      dup7\n      iszero\n      dup1\n      iszero\n      0x80\n      dup8\n      add\n      swap1\n      dup2\n      mstore\n      0xa0\n      dup8\n      add\n      dup12\n      dup2\n      mstore\n        /* \"contracts/staking.sol\":4973:4981  poolInfo */\n      0x05\n        /* \"contracts/staking.sol\":4973:5271  poolInfo.push(... */\n      dup1\n      sload\n      0x01\n      dup2\n      add\n      dup3\n      sstore\n      swap6\n      mstore\n      swap7\n      mload\n      0x036b6384b5eca791c62761152d0c79bb0604c104a5fb6f4eb0703f3154bb3db0\n      0x06\n      swap1\n      swap6\n      mul\n      swap5\n      dup6\n      add\n      dup1\n      sload\n      not(sub(shl(0xa0, 0x01), 0x01))\n      and\n      swap2\n      swap1\n      swap8\n      and\n      or\n      swap1\n      swap6\n      sstore\n      swap6\n      mload\n      0x036b6384b5eca791c62761152d0c79bb0604c104a5fb6f4eb0703f3154bb3db1\n      dup4\n      add\n      sstore\n      swap2\n      mload\n      0x036b6384b5eca791c62761152d0c79bb0604c104a5fb6f4eb0703f3154bb3db2\n      dup3\n      add\n      sstore\n      swap1\n      mload\n      0x036b6384b5eca791c62761152d0c79bb0604c104a5fb6f4eb0703f3154bb3db3\n      dup3\n      add\n      sstore\n      swap1\n      mload\n      0x036b6384b5eca791c62761152d0c79bb0604c104a5fb6f4eb0703f3154bb3db4\n      dup3\n      add\n      dup1\n      sload\n      not(0xff)\n      and\n      swap2\n      iszero\n      iszero\n      swap2\n      swap1\n      swap2\n      or\n      swap1\n      sstore\n      swap1\n      mload\n      0x036b6384b5eca791c62761152d0c79bb0604c104a5fb6f4eb0703f3154bb3db5\n      swap1\n      swap2\n      add\n      sstore\n        /* \"contracts/staking.sol\":5000:5261  PoolInfo({... */\n      swap1\n      swap2\n      pop\n        /* \"contracts/staking.sol\":5281:5352  if (_isStarted) {... */\n      tag_249\n      jumpi\n        /* \"contracts/staking.sol\":5330:5341  _allocPoint */\n      dup6\n        /* \"contracts/staking.sol\":5311:5326  totalAllocPoint */\n      0x07\n      0x00\n        /* \"contracts/staking.sol\":5311:5341  totalAllocPoint += _allocPoint */\n      dup3\n      dup3\n      sload\n      tag_250\n      swap2\n      swap1\n      tag_133\n      jump\t// in\n    tag_250:\n      swap1\n      swap2\n      sstore\n      pop\n      pop\n        /* \"contracts/staking.sol\":5281:5352  if (_isStarted) {... */\n    tag_249:\n        /* \"contracts/staking.sol\":4331:5358  {... */\n      pop\n        /* \"contracts/staking.sol\":4150:5358  function add(... */\n      pop\n      pop\n      pop\n      pop\n      pop\n      jump\t// out\n        /* \"contracts/staking.sol\":8584:8759  function massUpdatePools() public {... */\n    tag_86:\n        /* \"contracts/staking.sol\":8645:8653  poolInfo */\n      0x05\n        /* \"contracts/staking.sol\":8645:8660  poolInfo.length */\n      sload\n        /* \"contracts/staking.sol\":8628:8642  uint256 length */\n      0x00\n        /* \"contracts/staking.sol\":8670:8753  for (uint256 pid = 0; pid < length; ++pid) {... */\n    tag_252:\n        /* \"contracts/staking.sol\":8698:8704  length */\n      dup2\n        /* \"contracts/staking.sol\":8692:8695  pid */\n      dup2\n        /* \"contracts/staking.sol\":8692:8704  pid < length */\n      lt\n        /* \"contracts/staking.sol\":8670:8753  for (uint256 pid = 0; pid < length; ++pid) {... */\n      iszero\n      tag_253\n      jumpi\n        /* \"contracts/staking.sol\":8727:8742  updatePool(pid) */\n      tag_255\n        /* \"contracts/staking.sol\":8738:8741  pid */\n      dup2\n        /* \"contracts/staking.sol\":8727:8737  updatePool */\n      tag_56\n        /* \"contracts/staking.sol\":8727:8742  updatePool(pid) */\n      jump\t// in\n    tag_255:\n        /* \"contracts/staking.sol\":8706:8711  ++pid */\n      0x01\n      add\n        /* \"contracts/staking.sol\":8670:8753  for (uint256 pid = 0; pid < length; ++pid) {... */\n      jump(tag_252)\n    tag_253:\n      pop\n        /* \"contracts/staking.sol\":8618:8759  {... */\n      pop\n        /* \"contracts/staking.sol\":8584:8759  function massUpdatePools() public {... */\n      jump\t// out\n        /* \"contracts/staking.sol\":2525:3250  function pendingXusd(uint256 _pid, address _user) external view returns (uint256) {... */\n    tag_93:\n        /* \"contracts/staking.sol\":2598:2605  uint256 */\n      0x00\n        /* \"contracts/staking.sol\":2617:2638  PoolInfo storage pool */\n      0x00\n        /* \"contracts/staking.sol\":2641:2649  poolInfo */\n      0x05\n        /* \"contracts/staking.sol\":2650:2654  _pid */\n      dup5\n        /* \"contracts/staking.sol\":2641:2655  poolInfo[_pid] */\n      dup2\n      sload\n      dup2\n      lt\n      tag_258\n      jumpi\n      tag_258\n      tag_127\n      jump\t// in\n    tag_258:\n      0x00\n      swap2\n      dup3\n      mstore\n      0x20\n      dup1\n      dup4\n      keccak256\n        /* \"contracts/staking.sol\":2689:2703  userInfo[_pid] */\n      dup8\n      dup5\n      mstore\n        /* \"contracts/staking.sol\":2641:2655  poolInfo[_pid] */\n      0x06\n        /* \"contracts/staking.sol\":2689:2703  userInfo[_pid] */\n      dup1\n      dup4\n      mstore\n      0x40\n      dup1\n      dup7\n      keccak256\n      sub(shl(0xa0, 0x01), 0x01)\n        /* \"contracts/staking.sol\":2689:2710  userInfo[_pid][_user] */\n      dup11\n      dup2\n      and\n      dup9\n      mstore\n      swap5\n      mstore\n      dup1\n      dup7\n      keccak256\n        /* \"contracts/staking.sol\":2641:2655  poolInfo[_pid] */\n      swap5\n      swap1\n      swap2\n      mul\n      swap1\n      swap2\n      add\n        /* \"contracts/staking.sol\":2746:2766  pool.accXusdPerShare */\n      0x03\n      dup2\n      add\n      sload\n        /* \"contracts/staking.sol\":2798:2808  pool.token */\n      dup2\n      sload\n        /* \"contracts/staking.sol\":2798:2833  pool.token.balanceOf(address(this)) */\n      swap3\n      mload\n      shl(0xe0, 0x70a08231)\n      dup2\n      mstore\n        /* \"contracts/staking.sol\":2641:2655  poolInfo[_pid] */\n      swap2\n      swap7\n      pop\n        /* \"contracts/staking.sol\":2689:2710  userInfo[_pid][_user] */\n      swap4\n      swap5\n        /* \"contracts/staking.sol\":2641:2655  poolInfo[_pid] */\n      swap3\n        /* \"contracts/staking.sol\":2798:2808  pool.token */\n      swap2\n      swap1\n      swap2\n      and\n      swap1\n        /* \"contracts/staking.sol\":2798:2818  pool.token.balanceOf */\n      0x70a08231\n      swap1\n        /* \"contracts/staking.sol\":2798:2833  pool.token.balanceOf(address(this)) */\n      tag_260\n      swap1\n        /* \"contracts/staking.sol\":2827:2831  this */\n      address\n      swap1\n        /* \"contracts/staking.sol\":2798:2833  pool.token.balanceOf(address(this)) */\n      0x04\n      add\n      tag_67\n      jump\t// in\n    tag_260:\n      0x20\n      mload(0x40)\n      dup1\n      dup4\n      sub\n      dup2\n      dup7\n      gas\n      staticcall\n      iszero\n      dup1\n      iszero\n      tag_262\n      jumpi\n      returndatacopy(0x00, 0x00, returndatasize)\n      revert(0x00, returndatasize)\n    tag_262:\n      pop\n      pop\n      pop\n      pop\n      mload(0x40)\n      returndatasize\n      not(0x1f)\n      0x1f\n      dup3\n      add\n      and\n      dup3\n      add\n      dup1\n      0x40\n      mstore\n      pop\n      dup2\n      add\n      swap1\n      tag_263\n      swap2\n      swap1\n      tag_187\n      jump\t// in\n    tag_263:\n        /* \"contracts/staking.sol\":2776:2833  uint256 tokenSupply = pool.token.balanceOf(address(this)) */\n      swap1\n      pop\n        /* \"contracts/staking.sol\":2865:2869  pool */\n      dup4\n        /* \"contracts/staking.sol\":2865:2884  pool.lastRewardTime */\n      0x02\n      add\n      sload\n        /* \"contracts/staking.sol\":2847:2862  block.timestamp */\n      timestamp\n        /* \"contracts/staking.sol\":2847:2884  block.timestamp > pool.lastRewardTime */\n      gt\n        /* \"contracts/staking.sol\":2847:2904  block.timestamp > pool.lastRewardTime && tokenSupply != 0 */\n      dup1\n      iszero\n      tag_264\n      jumpi\n      pop\n        /* \"contracts/staking.sol\":2888:2904  tokenSupply != 0 */\n      dup1\n      iszero\n      iszero\n        /* \"contracts/staking.sol\":2847:2904  block.timestamp > pool.lastRewardTime && tokenSupply != 0 */\n    tag_264:\n        /* \"contracts/staking.sol\":2843:3171  if (block.timestamp > pool.lastRewardTime && tokenSupply != 0) {... */\n      iszero\n      tag_265\n      jumpi\n        /* \"contracts/staking.sol\":2920:2944  uint256 _generatedReward */\n      0x00\n        /* \"contracts/staking.sol\":2947:3003  getGeneratedReward(pool.lastRewardTime, block.timestamp) */\n      tag_266\n        /* \"contracts/staking.sol\":2966:2970  pool */\n      dup6\n        /* \"contracts/staking.sol\":2966:2985  pool.lastRewardTime */\n      0x02\n      add\n      sload\n        /* \"contracts/staking.sol\":2987:3002  block.timestamp */\n      timestamp\n        /* \"contracts/staking.sol\":2947:2965  getGeneratedReward */\n      tag_49\n        /* \"contracts/staking.sol\":2947:3003  getGeneratedReward(pool.lastRewardTime, block.timestamp) */\n      jump\t// in\n    tag_266:\n        /* \"contracts/staking.sol\":2920:3003  uint256 _generatedReward = getGeneratedReward(pool.lastRewardTime, block.timestamp) */\n      swap1\n      pop\n        /* \"contracts/staking.sol\":3017:3036  uint256 _XusdReward */\n      0x00\n        /* \"contracts/staking.sol\":3078:3093  totalAllocPoint */\n      sload(0x07)\n        /* \"contracts/staking.sol\":3059:3063  pool */\n      dup7\n        /* \"contracts/staking.sol\":3059:3074  pool.allocPoint */\n      0x01\n      add\n      sload\n        /* \"contracts/staking.sol\":3040:3056  _generatedReward */\n      dup4\n        /* \"contracts/staking.sol\":3040:3074  _generatedReward * pool.allocPoint */\n      tag_267\n      swap2\n      swap1\n      tag_141\n      jump\t// in\n    tag_267:\n        /* \"contracts/staking.sol\":3039:3093  (_generatedReward * pool.allocPoint) / totalAllocPoint */\n      tag_268\n      swap2\n      swap1\n      tag_161\n      jump\t// in\n    tag_268:\n        /* \"contracts/staking.sol\":3017:3093  uint256 _XusdReward = (_generatedReward * pool.allocPoint) / totalAllocPoint */\n      swap1\n      pop\n        /* \"contracts/staking.sol\":3149:3160  tokenSupply */\n      dup3\n        /* \"contracts/staking.sol\":3127:3145  _XusdReward * 1e18 */\n      tag_269\n        /* \"contracts/staking.sol\":3017:3093  uint256 _XusdReward = (_generatedReward * pool.allocPoint) / totalAllocPoint */\n      dup3\n        /* \"contracts/staking.sol\":3141:3145  1e18 */\n      0x0de0b6b3a7640000\n        /* \"contracts/staking.sol\":3127:3145  _XusdReward * 1e18 */\n      tag_141\n      jump\t// in\n    tag_269:\n        /* \"contracts/staking.sol\":3126:3160  (_XusdReward * 1e18) / tokenSupply */\n      tag_270\n      swap2\n      swap1\n      tag_161\n      jump\t// in\n    tag_270:\n        /* \"contracts/staking.sol\":3107:3160  accXusdPerShare += (_XusdReward * 1e18) / tokenSupply */\n      tag_271\n      swap1\n      dup6\n      tag_133\n      jump\t// in\n    tag_271:\n      swap4\n      pop\n        /* \"contracts/staking.sol\":2906:3171  {... */\n      pop\n      pop\n        /* \"contracts/staking.sol\":2843:3171  if (block.timestamp > pool.lastRewardTime && tokenSupply != 0) {... */\n    tag_265:\n        /* \"contracts/staking.sol\":3228:3243  user.rewardDebt */\n      0x01\n      dup4\n      add\n      sload\n        /* \"contracts/staking.sol\":3188:3199  user.amount */\n      dup4\n      sload\n        /* \"contracts/staking.sol\":3221:3225  1e18 */\n      0x0de0b6b3a7640000\n      swap1\n        /* \"contracts/staking.sol\":3188:3217  user.amount * accXusdPerShare */\n      tag_272\n      swap1\n        /* \"contracts/staking.sol\":3202:3217  accXusdPerShare */\n      dup6\n      swap1\n        /* \"contracts/staking.sol\":3188:3217  user.amount * accXusdPerShare */\n      tag_141\n      jump\t// in\n    tag_272:\n        /* \"contracts/staking.sol\":3187:3225  (user.amount * accXusdPerShare) / 1e18 */\n      tag_273\n      swap2\n      swap1\n      tag_161\n      jump\t// in\n    tag_273:\n        /* \"contracts/staking.sol\":3187:3243  (user.amount * accXusdPerShare) / 1e18 - user.rewardDebt */\n      tag_274\n      swap2\n      swap1\n      tag_131\n      jump\t// in\n    tag_274:\n        /* \"contracts/staking.sol\":3180:3243  return (user.amount * accXusdPerShare) / 1e18 - user.rewardDebt */\n      swap8\n        /* \"contracts/staking.sol\":2525:3250  function pendingXusd(uint256 _pid, address _user) external view returns (uint256) {... */\n      swap7\n      pop\n      pop\n      pop\n      pop\n      pop\n      pop\n      pop\n      jump\t// out\n        /* \"contracts/staking.sol\":2279:2392  function comissionTokensCount() external view returns (uint256) {... */\n    tag_96:\n        /* \"contracts/staking.sol\":2334:2341  uint256 */\n      0x00\n        /* \"contracts/staking.sol\":2360:2385  _comissionTokens.length() */\n      tag_276\n        /* \"contracts/staking.sol\":2360:2376  _comissionTokens */\n      0x00\n        /* \"contracts/staking.sol\":2360:2383  _comissionTokens.length */\n      tag_277\n        /* \"contracts/staking.sol\":2360:2385  _comissionTokens.length() */\n      jump\t// in\n    tag_276:\n        /* \"contracts/staking.sol\":2353:2385  return _comissionTokens.length() */\n      swap1\n      pop\n        /* \"contracts/staking.sol\":2279:2392  function comissionTokensCount() external view returns (uint256) {... */\n      swap1\n      jump\t// out\n        /* \"contracts/staking.sol\":7709:7808  function setOperator(address _operator) external onlyOperator {... */\n    tag_109:\n        /* \"contracts/staking.sol\":10002:10010  operator */\n      and(sub(shl(0xa0, 0x01), 0x01), sload(0x03))\n        /* \"contracts/staking.sol\":10014:10024  msg.sender */\n      caller\n        /* \"contracts/staking.sol\":10002:10024  operator == msg.sender */\n      eq\n        /* \"contracts/staking.sol\":9994:10072  require(operator == msg.sender, \"XusdGenesisPool: caller is not the operator\") */\n      tag_279\n      jumpi\n      mload(0x40)\n      shl(0xe5, 0x461bcd)\n      dup2\n      mstore\n      0x04\n      add\n      tag_121\n      swap1\n      tag_122\n      jump\t// in\n    tag_279:\n        /* \"contracts/staking.sol\":7781:7789  operator */\n      0x03\n        /* \"contracts/staking.sol\":7781:7801  operator = _operator */\n      dup1\n      sload\n      not(sub(shl(0xa0, 0x01), 0x01))\n      and\n      sub(shl(0xa0, 0x01), 0x01)\n      swap3\n      swap1\n      swap3\n      and\n      swap2\n      swap1\n      swap2\n      or\n      swap1\n      sstore\n        /* \"contracts/staking.sol\":7709:7808  function setOperator(address _operator) external onlyOperator {... */\n      jump\t// out\n        /* \"contracts/staking.sol\":5364:6518  function deposit(uint256 _pid, uint256 _amount) external {... */\n    tag_112:\n        /* \"contracts/staking.sol\":5431:5446  address _sender */\n      0x00\n        /* \"contracts/staking.sol\":5449:5459  msg.sender */\n      caller\n        /* \"contracts/staking.sol\":5431:5459  address _sender = msg.sender */\n      swap1\n      pop\n        /* \"contracts/staking.sol\":5469:5490  PoolInfo storage pool */\n      0x00\n        /* \"contracts/staking.sol\":5493:5501  poolInfo */\n      0x05\n        /* \"contracts/staking.sol\":5502:5506  _pid */\n      dup5\n        /* \"contracts/staking.sol\":5493:5507  poolInfo[_pid] */\n      dup2\n      sload\n      dup2\n      lt\n      tag_284\n      jumpi\n      tag_284\n      tag_127\n      jump\t// in\n    tag_284:\n      0x00\n      swap2\n      dup3\n      mstore\n      0x20\n      dup1\n      dup4\n      keccak256\n        /* \"contracts/staking.sol\":5541:5555  userInfo[_pid] */\n      dup8\n      dup5\n      mstore\n        /* \"contracts/staking.sol\":5493:5507  poolInfo[_pid] */\n      0x06\n        /* \"contracts/staking.sol\":5541:5555  userInfo[_pid] */\n      dup1\n      dup4\n      mstore\n      0x40\n      dup1\n      dup7\n      keccak256\n      sub(shl(0xa0, 0x01), 0x01)\n        /* \"contracts/staking.sol\":5541:5564  userInfo[_pid][_sender] */\n      dup10\n      and\n      dup8\n      mstore\n      swap1\n      swap4\n      mstore\n      swap2\n      swap1\n      swap4\n      keccak256\n        /* \"contracts/staking.sol\":5493:5507  poolInfo[_pid] */\n      swap2\n      mul\n      swap1\n      swap2\n      add\n      swap2\n      pop\n        /* \"contracts/staking.sol\":5574:5590  updatePool(_pid) */\n      tag_286\n        /* \"contracts/staking.sol\":5550:5554  _pid */\n      dup6\n        /* \"contracts/staking.sol\":5574:5584  updatePool */\n      tag_56\n        /* \"contracts/staking.sol\":5574:5590  updatePool(_pid) */\n      jump\t// in\n    tag_286:\n        /* \"contracts/staking.sol\":5604:5615  user.amount */\n      dup1\n      sload\n        /* \"contracts/staking.sol\":5604:5619  user.amount > 0 */\n      iszero\n        /* \"contracts/staking.sol\":5600:5877  if (user.amount > 0) {... */\n      tag_287\n      jumpi\n        /* \"contracts/staking.sol\":5635:5651  uint256 _pending */\n      0x00\n        /* \"contracts/staking.sol\":5700:5704  user */\n      dup2\n        /* \"contracts/staking.sol\":5700:5715  user.rewardDebt */\n      0x01\n      add\n      sload\n        /* \"contracts/staking.sol\":5693:5697  1e18 */\n      0x0de0b6b3a7640000\n        /* \"contracts/staking.sol\":5669:5673  pool */\n      dup5\n        /* \"contracts/staking.sol\":5669:5689  pool.accXusdPerShare */\n      0x03\n      add\n      sload\n        /* \"contracts/staking.sol\":5655:5659  user */\n      dup5\n        /* \"contracts/staking.sol\":5655:5666  user.amount */\n      0x00\n      add\n      sload\n        /* \"contracts/staking.sol\":5655:5689  user.amount * pool.accXusdPerShare */\n      tag_288\n      swap2\n      swap1\n      tag_141\n      jump\t// in\n    tag_288:\n        /* \"contracts/staking.sol\":5654:5697  (user.amount * pool.accXusdPerShare) / 1e18 */\n      tag_289\n      swap2\n      swap1\n      tag_161\n      jump\t// in\n    tag_289:\n        /* \"contracts/staking.sol\":5654:5715  (user.amount * pool.accXusdPerShare) / 1e18 - user.rewardDebt */\n      tag_290\n      swap2\n      swap1\n      tag_131\n      jump\t// in\n    tag_290:\n        /* \"contracts/staking.sol\":5635:5715  uint256 _pending = (user.amount * pool.accXusdPerShare) / 1e18 - user.rewardDebt */\n      swap1\n      pop\n        /* \"contracts/staking.sol\":5733:5745  _pending > 0 */\n      dup1\n      iszero\n        /* \"contracts/staking.sol\":5729:5867  if (_pending > 0) {... */\n      tag_291\n      jumpi\n        /* \"contracts/staking.sol\":5765:5800  safeXusdTransfer(_sender, _pending) */\n      tag_292\n        /* \"contracts/staking.sol\":5782:5789  _sender */\n      dup5\n        /* \"contracts/staking.sol\":5791:5799  _pending */\n      dup3\n        /* \"contracts/staking.sol\":5765:5781  safeXusdTransfer */\n      tag_165\n        /* \"contracts/staking.sol\":5765:5800  safeXusdTransfer(_sender, _pending) */\n      jump\t// in\n    tag_292:\n        /* \"contracts/staking.sol\":5834:5841  _sender */\n      dup4\n      sub(shl(0xa0, 0x01), 0x01)\n        /* \"contracts/staking.sol\":5823:5852  RewardPaid(_sender, _pending) */\n      and\n      0xe2403640ba68fed3a2f88b7557551d1993f84b99bb10ff833f0cf8db0c5e0486\n        /* \"contracts/staking.sol\":5843:5851  _pending */\n      dup3\n        /* \"contracts/staking.sol\":5823:5852  RewardPaid(_sender, _pending) */\n      mload(0x40)\n      tag_293\n      swap2\n        /* \"#utility.yul\":160:185   */\n      dup2\n      mstore\n        /* \"#utility.yul\":148:150   */\n      0x20\n        /* \"#utility.yul\":133:151   */\n      add\n      swap1\n        /* \"#utility.yul\":14:191   */\n      jump\n        /* \"contracts/staking.sol\":5823:5852  RewardPaid(_sender, _pending) */\n    tag_293:\n      mload(0x40)\n      dup1\n      swap2\n      sub\n      swap1\n      log2\n        /* \"contracts/staking.sol\":5729:5867  if (_pending > 0) {... */\n    tag_291:\n        /* \"contracts/staking.sol\":5621:5877  {... */\n      pop\n        /* \"contracts/staking.sol\":5600:5877  if (user.amount > 0) {... */\n    tag_287:\n        /* \"contracts/staking.sol\":5932:5943  user.amount */\n      dup1\n      sload\n        /* \"contracts/staking.sol\":5914:5929  pool.maxDeposit */\n      0x05\n      dup4\n      add\n      sload\n        /* \"contracts/staking.sol\":5886:5911  uint256 possibleToDeposit */\n      0x00\n      swap2\n        /* \"contracts/staking.sol\":5914:5943  pool.maxDeposit - user.amount */\n      tag_294\n      swap2\n      tag_131\n      jump\t// in\n    tag_294:\n        /* \"contracts/staking.sol\":5886:5943  uint256 possibleToDeposit = pool.maxDeposit - user.amount */\n      swap1\n      pop\n        /* \"contracts/staking.sol\":5953:5967  uint256 amount */\n      0x00\n        /* \"contracts/staking.sol\":5980:5997  possibleToDeposit */\n      dup2\n        /* \"contracts/staking.sol\":5970:5977  _amount */\n      dup7\n        /* \"contracts/staking.sol\":5970:5997  _amount > possibleToDeposit */\n      gt\n        /* \"contracts/staking.sol\":5970:6027  _amount > possibleToDeposit ? possibleToDeposit : _amount */\n      tag_295\n      jumpi\n        /* \"contracts/staking.sol\":6020:6027  _amount */\n      dup6\n        /* \"contracts/staking.sol\":5970:6027  _amount > possibleToDeposit ? possibleToDeposit : _amount */\n      jump(tag_296)\n    tag_295:\n        /* \"contracts/staking.sol\":6000:6017  possibleToDeposit */\n      dup2\n        /* \"contracts/staking.sol\":5970:6027  _amount > possibleToDeposit ? possibleToDeposit : _amount */\n    tag_296:\n        /* \"contracts/staking.sol\":5953:6027  uint256 amount = _amount > possibleToDeposit ? possibleToDeposit : _amount */\n      swap1\n      pop\n        /* \"contracts/staking.sol\":6041:6051  amount > 0 */\n      dup1\n      iszero\n        /* \"contracts/staking.sol\":6037:6396  if (amount > 0) {... */\n      tag_310\n      jumpi\n        /* \"contracts/staking.sol\":6067:6077  pool.token */\n      dup4\n      sload\n        /* \"contracts/staking.sol\":6067:6122  pool.token.transferFrom(_sender, address(this), amount) */\n      mload(0x40)\n      shl(0xe0, 0x23b872dd)\n      dup2\n      mstore\n      sub(shl(0xa0, 0x01), 0x01)\n        /* \"#utility.yul\":7562:7594   */\n      dup8\n      dup2\n      and\n        /* \"contracts/staking.sol\":6067:6122  pool.token.transferFrom(_sender, address(this), amount) */\n      0x04\n      dup4\n      add\n        /* \"#utility.yul\":7544:7595   */\n      mstore\n        /* \"contracts/staking.sol\":6108:6112  this */\n      address\n        /* \"#utility.yul\":7611:7629   */\n      0x24\n      dup4\n      add\n        /* \"#utility.yul\":7604:7664   */\n      mstore\n        /* \"#utility.yul\":7680:7698   */\n      0x44\n      dup3\n      add\n        /* \"#utility.yul\":7673:7707   */\n      dup5\n      swap1\n      mstore\n        /* \"contracts/staking.sol\":6067:6077  pool.token */\n      swap1\n      swap2\n      and\n      swap1\n        /* \"contracts/staking.sol\":6067:6090  pool.token.transferFrom */\n      0x23b872dd\n      swap1\n        /* \"#utility.yul\":7517:7535   */\n      0x64\n      add\n        /* \"contracts/staking.sol\":6067:6122  pool.token.transferFrom(_sender, address(this), amount) */\n      0x20\n      mload(0x40)\n      dup1\n      dup4\n      sub\n      dup2\n      0x00\n      dup8\n      gas\n      call\n      iszero\n      dup1\n      iszero\n      tag_301\n      jumpi\n      returndatacopy(0x00, 0x00, returndatasize)\n      revert(0x00, returndatasize)\n    tag_301:\n      pop\n      pop\n      pop\n      pop\n      mload(0x40)\n      returndatasize\n      not(0x1f)\n      0x1f\n      dup3\n      add\n      and\n      dup3\n      add\n      dup1\n      0x40\n      mstore\n      pop\n      dup2\n      add\n      swap1\n      tag_302\n      swap2\n      swap1\n      tag_174\n      jump\t// in\n    tag_302:\n      pop\n        /* \"contracts/staking.sol\":6174:6184  pool.token */\n      dup4\n      sload\n        /* \"contracts/staking.sol\":6140:6186  _comissionTokens.contains(address(pool.token)) */\n      tag_303\n      swap1\n        /* \"contracts/staking.sol\":6174:6184  pool.token */\n      0x00\n      swap1\n      sub(shl(0xa0, 0x01), 0x01)\n      and\n        /* \"contracts/staking.sol\":6140:6165  _comissionTokens.contains */\n      tag_304\n        /* \"contracts/staking.sol\":6140:6186  _comissionTokens.contains(address(pool.token)) */\n      jump\t// in\n    tag_303:\n        /* \"contracts/staking.sol\":6136:6386  if (_comissionTokens.contains(address(pool.token))) {... */\n      iszero\n      tag_305\n      jumpi\n        /* \"contracts/staking.sol\":6283:6299  comissionPercent */\n      sload(0x02)\n        /* \"contracts/staking.sol\":6224:6229  10000 */\n      0x2710\n      swap1\n      dup2\n      swap1\n        /* \"contracts/staking.sol\":6273:6299  hundred - comissionPercent */\n      tag_306\n      swap1\n        /* \"contracts/staking.sol\":6224:6229  10000 */\n      dup3\n        /* \"contracts/staking.sol\":6273:6299  hundred - comissionPercent */\n      tag_131\n      jump\t// in\n    tag_306:\n        /* \"contracts/staking.sol\":6263:6300  amount * (hundred - comissionPercent) */\n      tag_307\n      swap1\n        /* \"contracts/staking.sol\":6263:6269  amount */\n      dup5\n        /* \"contracts/staking.sol\":6263:6300  amount * (hundred - comissionPercent) */\n      tag_141\n      jump\t// in\n    tag_307:\n        /* \"contracts/staking.sol\":6262:6311  (amount * (hundred - comissionPercent)) / hundred */\n      tag_308\n      swap2\n      swap1\n      tag_161\n      jump\t// in\n    tag_308:\n        /* \"contracts/staking.sol\":6247:6251  user */\n      dup5\n        /* \"contracts/staking.sol\":6247:6258  user.amount */\n      0x00\n      add\n      0x00\n        /* \"contracts/staking.sol\":6247:6311  user.amount += (amount * (hundred - comissionPercent)) / hundred */\n      dup3\n      dup3\n      sload\n      tag_309\n      swap2\n      swap1\n      tag_133\n      jump\t// in\n    tag_309:\n      swap1\n      swap2\n      sstore\n      pop\n        /* \"contracts/staking.sol\":6136:6386  if (_comissionTokens.contains(address(pool.token))) {... */\n      tag_310\n      swap2\n      pop\n      pop\n      jump\n    tag_305:\n        /* \"contracts/staking.sol\":6365:6371  amount */\n      dup1\n        /* \"contracts/staking.sol\":6350:6354  user */\n      dup4\n        /* \"contracts/staking.sol\":6350:6361  user.amount */\n      0x00\n      add\n      0x00\n        /* \"contracts/staking.sol\":6350:6371  user.amount += amount */\n      dup3\n      dup3\n      sload\n      tag_311\n      swap2\n      swap1\n      tag_133\n      jump\t// in\n    tag_311:\n      swap1\n      swap2\n      sstore\n      pop\n      pop\n        /* \"contracts/staking.sol\":6136:6386  if (_comissionTokens.contains(address(pool.token))) {... */\n    tag_310:\n        /* \"contracts/staking.sol\":6438:6458  pool.accXusdPerShare */\n      0x03\n      dup5\n      add\n      sload\n        /* \"contracts/staking.sol\":6424:6435  user.amount */\n      dup4\n      sload\n        /* \"contracts/staking.sol\":6462:6466  1e18 */\n      0x0de0b6b3a7640000\n      swap2\n        /* \"contracts/staking.sol\":6424:6458  user.amount * pool.accXusdPerShare */\n      tag_312\n      swap2\n      tag_141\n      jump\t// in\n    tag_312:\n        /* \"contracts/staking.sol\":6423:6466  (user.amount * pool.accXusdPerShare) / 1e18 */\n      tag_313\n      swap2\n      swap1\n      tag_161\n      jump\t// in\n    tag_313:\n        /* \"contracts/staking.sol\":6405:6420  user.rewardDebt */\n      0x01\n      dup5\n      add\n        /* \"contracts/staking.sol\":6405:6466  user.rewardDebt = (user.amount * pool.accXusdPerShare) / 1e18 */\n      sstore\n        /* \"contracts/staking.sol\":6481:6511  Deposit(_sender, _pid, amount) */\n      mload(0x40)\n        /* \"#utility.yul\":160:185   */\n      dup2\n      dup2\n      mstore\n        /* \"contracts/staking.sol\":6498:6502  _pid */\n      dup8\n      swap1\n      sub(shl(0xa0, 0x01), 0x01)\n        /* \"contracts/staking.sol\":6481:6511  Deposit(_sender, _pid, amount) */\n      dup8\n      and\n      swap1\n      0x90890809c654f11d6e72a28fa60149770a0d11ec6c92319d6ceb2bb0a4ea1a15\n      swap1\n        /* \"#utility.yul\":148:150   */\n      0x20\n        /* \"#utility.yul\":133:151   */\n      add\n        /* \"contracts/staking.sol\":6481:6511  Deposit(_sender, _pid, amount) */\n      mload(0x40)\n      dup1\n      swap2\n      sub\n      swap1\n      log3\n        /* \"contracts/staking.sol\":5421:6518  {... */\n      pop\n      pop\n      pop\n      pop\n      pop\n        /* \"contracts/staking.sol\":5364:6518  function deposit(uint256 _pid, uint256 _amount) external {... */\n      pop\n      pop\n      jump\t// out\n        /* \"contracts/staking.sol\":9606:9954  function safeXusdTransfer(address _to, uint256 _amount) internal {... */\n    tag_165:\n        /* \"contracts/staking.sol\":9704:9708  Xusd */\n      0x04\n      dup1\n      sload\n        /* \"contracts/staking.sol\":9704:9733  Xusd.balanceOf(address(this)) */\n      mload(0x40)\n      shl(0xe0, 0x70a08231)\n      dup2\n      mstore\n        /* \"contracts/staking.sol\":9681:9701  uint256 _XusdBalance */\n      0x00\n      swap3\n      sub(shl(0xa0, 0x01), 0x01)\n        /* \"contracts/staking.sol\":9704:9708  Xusd */\n      swap1\n      swap3\n      and\n      swap2\n        /* \"contracts/staking.sol\":9704:9718  Xusd.balanceOf */\n      0x70a08231\n      swap2\n        /* \"contracts/staking.sol\":9704:9733  Xusd.balanceOf(address(this)) */\n      tag_316\n      swap2\n        /* \"contracts/staking.sol\":9727:9731  this */\n      address\n      swap2\n        /* \"contracts/staking.sol\":9704:9733  Xusd.balanceOf(address(this)) */\n      add\n      tag_67\n      jump\t// in\n    tag_316:\n      0x20\n      mload(0x40)\n      dup1\n      dup4\n      sub\n      dup2\n      dup7\n      gas\n      staticcall\n      iszero\n      dup1\n      iszero\n      tag_318\n      jumpi\n      returndatacopy(0x00, 0x00, returndatasize)\n      revert(0x00, returndatasize)\n    tag_318:\n      pop\n      pop\n      pop\n      pop\n      mload(0x40)\n      returndatasize\n      not(0x1f)\n      0x1f\n      dup3\n      add\n      and\n      dup3\n      add\n      dup1\n      0x40\n      mstore\n      pop\n      dup2\n      add\n      swap1\n      tag_319\n      swap2\n      swap1\n      tag_187\n      jump\t// in\n    tag_319:\n        /* \"contracts/staking.sol\":9681:9733  uint256 _XusdBalance = Xusd.balanceOf(address(this)) */\n      swap1\n      pop\n        /* \"contracts/staking.sol\":9747:9763  _XusdBalance > 0 */\n      dup1\n      iszero\n        /* \"contracts/staking.sol\":9743:9948  if (_XusdBalance > 0) {... */\n      tag_326\n      jumpi\n        /* \"contracts/staking.sol\":9793:9805  _XusdBalance */\n      dup1\n        /* \"contracts/staking.sol\":9783:9790  _amount */\n      dup3\n        /* \"contracts/staking.sol\":9783:9805  _amount > _XusdBalance */\n      gt\n        /* \"contracts/staking.sol\":9779:9938  if (_amount > _XusdBalance) {... */\n      iszero\n      tag_321\n      jumpi\n        /* \"contracts/staking.sol\":9825:9829  Xusd */\n      0x04\n      dup1\n      sload\n        /* \"contracts/staking.sol\":9825:9857  Xusd.transfer(_to, _XusdBalance) */\n      mload(0x40)\n      shl(0xe0, 0xa9059cbb)\n      dup2\n      mstore\n      sub(shl(0xa0, 0x01), 0x01)\n        /* \"contracts/staking.sol\":9825:9829  Xusd */\n      swap1\n      swap2\n      and\n      swap2\n        /* \"contracts/staking.sol\":9825:9838  Xusd.transfer */\n      0xa9059cbb\n      swap2\n        /* \"contracts/staking.sol\":9825:9857  Xusd.transfer(_to, _XusdBalance) */\n      tag_225\n      swap2\n        /* \"contracts/staking.sol\":9839:9842  _to */\n      dup8\n      swap2\n        /* \"contracts/staking.sol\":9844:9856  _XusdBalance */\n      dup7\n      swap2\n        /* \"contracts/staking.sol\":9825:9857  Xusd.transfer(_to, _XusdBalance) */\n      add\n      tag_170\n      jump\t// in\n        /* \"contracts/staking.sol\":9779:9938  if (_amount > _XusdBalance) {... */\n    tag_321:\n        /* \"contracts/staking.sol\":9896:9900  Xusd */\n      0x04\n      dup1\n      sload\n        /* \"contracts/staking.sol\":9896:9923  Xusd.transfer(_to, _amount) */\n      mload(0x40)\n      shl(0xe0, 0xa9059cbb)\n      dup2\n      mstore\n      sub(shl(0xa0, 0x01), 0x01)\n        /* \"contracts/staking.sol\":9896:9900  Xusd */\n      swap1\n      swap2\n      and\n      swap2\n        /* \"contracts/staking.sol\":9896:9909  Xusd.transfer */\n      0xa9059cbb\n      swap2\n        /* \"contracts/staking.sol\":9896:9923  Xusd.transfer(_to, _amount) */\n      tag_225\n      swap2\n        /* \"contracts/staking.sol\":9910:9913  _to */\n      dup8\n      swap2\n        /* \"contracts/staking.sol\":9915:9922  _amount */\n      dup8\n      swap2\n        /* \"contracts/staking.sol\":9896:9923  Xusd.transfer(_to, _amount) */\n      add\n      tag_170\n      jump\t// in\n        /* \"contracts/staking.sol\":9779:9938  if (_amount > _XusdBalance) {... */\n    tag_326:\n        /* \"contracts/staking.sol\":9671:9954  {... */\n      pop\n        /* \"contracts/staking.sol\":9606:9954  function safeXusdTransfer(address _to, uint256 _amount) internal {... */\n      pop\n      pop\n      jump\t// out\n        /* \"@openzeppelin/contracts/utils/structs/EnumerableSet.sol\":9574:9730  function at(AddressSet storage set, uint256 index) internal view returns (address) {... */\n    tag_231:\n        /* \"@openzeppelin/contracts/utils/structs/EnumerableSet.sol\":9648:9655  address */\n      0x00\n        /* \"@openzeppelin/contracts/utils/structs/EnumerableSet.sol\":9698:9720  _at(set._inner, index) */\n      tag_332\n        /* \"@openzeppelin/contracts/utils/structs/EnumerableSet.sol\":9702:9705  set */\n      dup4\n        /* \"@openzeppelin/contracts/utils/structs/EnumerableSet.sol\":9714:9719  index */\n      dup4\n        /* \"@openzeppelin/contracts/utils/structs/EnumerableSet.sol\":9698:9701  _at */\n      tag_333\n        /* \"@openzeppelin/contracts/utils/structs/EnumerableSet.sol\":9698:9720  _at(set._inner, index) */\n      jump\t// in\n    tag_332:\n        /* \"@openzeppelin/contracts/utils/structs/EnumerableSet.sol\":9690:9721  uint256(_at(set._inner, index)) */\n      swap4\n        /* \"@openzeppelin/contracts/utils/structs/EnumerableSet.sol\":9574:9730  function at(AddressSet storage set, uint256 index) internal view returns (address) {... */\n      swap3\n      pop\n      pop\n      pop\n      jump\t// out\n        /* \"contracts/staking.sol\":3888:4144  function checkPoolDuplicate(IERC20 _token) internal view {... */\n    tag_237:\n        /* \"contracts/staking.sol\":3972:3980  poolInfo */\n      0x05\n        /* \"contracts/staking.sol\":3972:3987  poolInfo.length */\n      sload\n        /* \"contracts/staking.sol\":3955:3969  uint256 length */\n      0x00\n        /* \"contracts/staking.sol\":3997:4138  for (uint256 pid = 0; pid < length; ++pid) {... */\n    tag_335:\n        /* \"contracts/staking.sol\":4025:4031  length */\n      dup2\n        /* \"contracts/staking.sol\":4019:4022  pid */\n      dup2\n        /* \"contracts/staking.sol\":4019:4031  pid < length */\n      lt\n        /* \"contracts/staking.sol\":3997:4138  for (uint256 pid = 0; pid < length; ++pid) {... */\n      iszero\n      tag_326\n      jumpi\n        /* \"contracts/staking.sol\":4085:4091  _token */\n      dup3\n      sub(shl(0xa0, 0x01), 0x01)\n        /* \"contracts/staking.sol\":4062:4091  poolInfo[pid].token != _token */\n      and\n        /* \"contracts/staking.sol\":4062:4070  poolInfo */\n      0x05\n        /* \"contracts/staking.sol\":4071:4074  pid */\n      dup3\n        /* \"contracts/staking.sol\":4062:4075  poolInfo[pid] */\n      dup2\n      sload\n      dup2\n      lt\n      tag_339\n      jumpi\n      tag_339\n      tag_127\n      jump\t// in\n    tag_339:\n      0x00\n      swap2\n      dup3\n      mstore\n      0x20\n      swap1\n      swap2\n      keccak256\n      0x06\n      swap1\n      swap2\n      mul\n      add\n        /* \"contracts/staking.sol\":4062:4081  poolInfo[pid].token */\n      sload\n      sub(shl(0xa0, 0x01), 0x01)\n      and\n        /* \"contracts/staking.sol\":4062:4091  poolInfo[pid].token != _token */\n      sub\n        /* \"contracts/staking.sol\":4054:4127  require(poolInfo[pid].token != _token, \"XusdGenesisPool: existing pool?\") */\n      tag_341\n      jumpi\n      mload(0x40)\n      shl(0xe5, 0x461bcd)\n      dup2\n      mstore\n        /* \"#utility.yul\":7920:7922   */\n      0x20\n        /* \"contracts/staking.sol\":4054:4127  require(poolInfo[pid].token != _token, \"XusdGenesisPool: existing pool?\") */\n      0x04\n      dup3\n      add\n        /* \"#utility.yul\":7902:7923   */\n      mstore\n        /* \"#utility.yul\":7959:7961   */\n      0x1f\n        /* \"#utility.yul\":7939:7957   */\n      0x24\n      dup3\n      add\n        /* \"#utility.yul\":7932:7962   */\n      mstore\n        /* \"#utility.yul\":7998:8031   */\n      0x5875736447656e65736973506f6f6c3a206578697374696e6720706f6f6c3f00\n        /* \"#utility.yul\":7978:7996   */\n      0x44\n      dup3\n      add\n        /* \"#utility.yul\":7971:8032   */\n      mstore\n        /* \"#utility.yul\":8049:8067   */\n      0x64\n      add\n        /* \"contracts/staking.sol\":4054:4127  require(poolInfo[pid].token != _token, \"XusdGenesisPool: existing pool?\") */\n      tag_121\n        /* \"#utility.yul\":7718:8073   */\n      jump\n        /* \"contracts/staking.sol\":4054:4127  require(poolInfo[pid].token != _token, \"XusdGenesisPool: existing pool?\") */\n    tag_341:\n        /* \"contracts/staking.sol\":4033:4038  ++pid */\n      0x01\n      add\n        /* \"contracts/staking.sol\":3997:4138  for (uint256 pid = 0; pid < length; ++pid) {... */\n      jump(tag_335)\n        /* \"@openzeppelin/contracts/utils/structs/EnumerableSet.sol\":9117:9232  function length(AddressSet storage set) internal view returns (uint256) {... */\n    tag_277:\n        /* \"@openzeppelin/contracts/utils/structs/EnumerableSet.sol\":9180:9187  uint256 */\n      0x00\n        /* \"@openzeppelin/contracts/utils/structs/EnumerableSet.sol\":9206:9225  _length(set._inner) */\n      tag_144\n        /* \"@openzeppelin/contracts/utils/structs/EnumerableSet.sol\":9214:9217  set */\n      dup3\n        /* \"@openzeppelin/contracts/utils/structs/EnumerableSet.sol\":4556:4574  set._values.length */\n      sload\n      swap1\n        /* \"@openzeppelin/contracts/utils/structs/EnumerableSet.sol\":4474:4581  function _length(Set storage set) private view returns (uint256) {... */\n      jump\n        /* \"@openzeppelin/contracts/utils/structs/EnumerableSet.sol\":8871:9036  function contains(AddressSet storage set, address value) internal view returns (bool) {... */\n    tag_304:\n      sub(shl(0xa0, 0x01), 0x01)\n        /* \"@openzeppelin/contracts/utils/structs/EnumerableSet.sol\":9004:9027  uint256(uint160(value)) */\n      dup2\n      and\n        /* \"@openzeppelin/contracts/utils/structs/EnumerableSet.sol\":8951:8955  bool */\n      0x00\n        /* \"@openzeppelin/contracts/utils/structs/EnumerableSet.sol\":4360:4381  set._positions[value] */\n      swap1\n      dup2\n      mstore\n        /* \"@openzeppelin/contracts/utils/structs/EnumerableSet.sol\":4360:4374  set._positions */\n      0x01\n      dup4\n      add\n        /* \"@openzeppelin/contracts/utils/structs/EnumerableSet.sol\":4360:4381  set._positions[value] */\n      0x20\n      mstore\n      0x40\n      dup2\n      keccak256\n      sload\n        /* \"@openzeppelin/contracts/utils/structs/EnumerableSet.sol\":4360:4386  set._positions[value] != 0 */\n      iszero\n      iszero\n        /* \"@openzeppelin/contracts/utils/structs/EnumerableSet.sol\":8974:9029  _contains(set._inner, bytes32(uint256(uint160(value)))) */\n      tag_332\n        /* \"@openzeppelin/contracts/utils/structs/EnumerableSet.sol\":4264:4393  function _contains(Set storage set, bytes32 value) private view returns (bool) {... */\n      jump\n        /* \"@openzeppelin/contracts/utils/structs/EnumerableSet.sol\":4923:5041  function _at(Set storage set, uint256 index) private view returns (bytes32) {... */\n    tag_333:\n        /* \"@openzeppelin/contracts/utils/structs/EnumerableSet.sol\":4990:4997  bytes32 */\n      0x00\n        /* \"@openzeppelin/contracts/utils/structs/EnumerableSet.sol\":5016:5019  set */\n      dup3\n        /* \"@openzeppelin/contracts/utils/structs/EnumerableSet.sol\":5016:5027  set._values */\n      0x00\n      add\n        /* \"@openzeppelin/contracts/utils/structs/EnumerableSet.sol\":5028:5033  index */\n      dup3\n        /* \"@openzeppelin/contracts/utils/structs/EnumerableSet.sol\":5016:5034  set._values[index] */\n      dup2\n      sload\n      dup2\n      lt\n      tag_352\n      jumpi\n      tag_352\n      tag_127\n      jump\t// in\n    tag_352:\n      swap1\n      0x00\n      mstore\n      keccak256(0x00, 0x20)\n      add\n      sload\n        /* \"@openzeppelin/contracts/utils/structs/EnumerableSet.sol\":5009:5034  return set._values[index] */\n      swap1\n      pop\n        /* \"@openzeppelin/contracts/utils/structs/EnumerableSet.sol\":4923:5041  function _at(Set storage set, uint256 index) private view returns (bytes32) {... */\n      swap3\n      swap2\n      pop\n      pop\n      jump\t// out\n        /* \"#utility.yul\":196:422   */\n    tag_36:\n        /* \"#utility.yul\":255:261   */\n      0x00\n        /* \"#utility.yul\":308:310   */\n      0x20\n        /* \"#utility.yul\":296:305   */\n      dup3\n        /* \"#utility.yul\":287:294   */\n      dup5\n        /* \"#utility.yul\":283:306   */\n      sub\n        /* \"#utility.yul\":279:311   */\n      slt\n        /* \"#utility.yul\":276:328   */\n      iszero\n      tag_362\n      jumpi\n        /* \"#utility.yul\":324:325   */\n      0x00\n        /* \"#utility.yul\":321:322   */\n      0x00\n        /* \"#utility.yul\":314:326   */\n      revert\n        /* \"#utility.yul\":276:328   */\n    tag_362:\n      pop\n        /* \"#utility.yul\":369:392   */\n      calldataload\n      swap2\n        /* \"#utility.yul\":196:422   */\n      swap1\n      pop\n      jump\t// out\n        /* \"#utility.yul\":1017:1363   */\n    tag_45:\n        /* \"#utility.yul\":1085:1091   */\n      0x00\n        /* \"#utility.yul\":1093:1099   */\n      0x00\n        /* \"#utility.yul\":1146:1148   */\n      0x40\n        /* \"#utility.yul\":1134:1143   */\n      dup4\n        /* \"#utility.yul\":1125:1132   */\n      dup6\n        /* \"#utility.yul\":1121:1144   */\n      sub\n        /* \"#utility.yul\":1117:1149   */\n      slt\n        /* \"#utility.yul\":1114:1166   */\n      iszero\n      tag_365\n      jumpi\n        /* \"#utility.yul\":1162:1163   */\n      0x00\n        /* \"#utility.yul\":1159:1160   */\n      0x00\n        /* \"#utility.yul\":1152:1164   */\n      revert\n        /* \"#utility.yul\":1114:1166   */\n    tag_365:\n      pop\n      pop\n        /* \"#utility.yul\":1207:1230   */\n      dup1\n      calldataload\n      swap3\n        /* \"#utility.yul\":1327:1329   */\n      0x20\n        /* \"#utility.yul\":1312:1330   */\n      swap1\n      swap2\n      add\n        /* \"#utility.yul\":1299:1331   */\n      calldataload\n      swap2\n      pop\n        /* \"#utility.yul\":1017:1363   */\n      jump\t// out\n        /* \"#utility.yul\":1368:1507   */\n    tag_356:\n      sub(shl(0xa0, 0x01), 0x01)\n        /* \"#utility.yul\":1451:1482   */\n      dup2\n      and\n        /* \"#utility.yul\":1441:1483   */\n      dup2\n      eq\n        /* \"#utility.yul\":1431:1501   */\n      tag_367\n      jumpi\n        /* \"#utility.yul\":1497:1498   */\n      0x00\n        /* \"#utility.yul\":1494:1495   */\n      0x00\n        /* \"#utility.yul\":1487:1499   */\n      revert\n        /* \"#utility.yul\":1431:1501   */\n    tag_367:\n        /* \"#utility.yul\":1368:1507   */\n      pop\n      jump\t// out\n        /* \"#utility.yul\":1512:2050   */\n    tag_62:\n        /* \"#utility.yul\":1603:1609   */\n      0x00\n        /* \"#utility.yul\":1611:1617   */\n      0x00\n        /* \"#utility.yul\":1619:1625   */\n      0x00\n        /* \"#utility.yul\":1672:1674   */\n      0x60\n        /* \"#utility.yul\":1660:1669   */\n      dup5\n        /* \"#utility.yul\":1651:1658   */\n      dup7\n        /* \"#utility.yul\":1647:1670   */\n      sub\n        /* \"#utility.yul\":1643:1675   */\n      slt\n        /* \"#utility.yul\":1640:1692   */\n      iszero\n      tag_369\n      jumpi\n        /* \"#utility.yul\":1688:1689   */\n      0x00\n        /* \"#utility.yul\":1685:1686   */\n      0x00\n        /* \"#utility.yul\":1678:1690   */\n      revert\n        /* \"#utility.yul\":1640:1692   */\n    tag_369:\n        /* \"#utility.yul\":1727:1736   */\n      dup4\n        /* \"#utility.yul\":1714:1737   */\n      calldataload\n        /* \"#utility.yul\":1746:1785   */\n      tag_370\n        /* \"#utility.yul\":1779:1784   */\n      dup2\n        /* \"#utility.yul\":1746:1785   */\n      tag_356\n      jump\t// in\n    tag_370:\n        /* \"#utility.yul\":1804:1809   */\n      swap3\n      pop\n        /* \"#utility.yul\":1882:1884   */\n      0x20\n        /* \"#utility.yul\":1867:1885   */\n      dup5\n      add\n        /* \"#utility.yul\":1854:1886   */\n      calldataload\n      swap2\n      pop\n        /* \"#utility.yul\":1964:1966   */\n      0x40\n        /* \"#utility.yul\":1949:1967   */\n      dup5\n      add\n        /* \"#utility.yul\":1936:1968   */\n      calldataload\n        /* \"#utility.yul\":1977:2018   */\n      tag_371\n        /* \"#utility.yul\":1936:1968   */\n      dup2\n        /* \"#utility.yul\":1977:2018   */\n      tag_356\n      jump\t// in\n    tag_371:\n        /* \"#utility.yul\":2037:2044   */\n      dup1\n        /* \"#utility.yul\":2027:2044   */\n      swap2\n      pop\n      pop\n        /* \"#utility.yul\":1512:2050   */\n      swap3\n      pop\n      swap3\n      pop\n      swap3\n      jump\t// out\n        /* \"#utility.yul\":2055:2258   */\n    tag_67:\n      sub(shl(0xa0, 0x01), 0x01)\n        /* \"#utility.yul\":2219:2251   */\n      swap2\n      swap1\n      swap2\n      and\n        /* \"#utility.yul\":2201:2252   */\n      dup2\n      mstore\n        /* \"#utility.yul\":2189:2191   */\n      0x20\n        /* \"#utility.yul\":2174:2192   */\n      add\n      swap1\n        /* \"#utility.yul\":2055:2258   */\n      jump\t// out\n        /* \"#utility.yul\":2263:2381   */\n    tag_357:\n        /* \"#utility.yul\":2349:2354   */\n      dup1\n        /* \"#utility.yul\":2342:2355   */\n      iszero\n        /* \"#utility.yul\":2335:2356   */\n      iszero\n        /* \"#utility.yul\":2328:2333   */\n      dup2\n        /* \"#utility.yul\":2325:2357   */\n      eq\n        /* \"#utility.yul\":2315:2375   */\n      tag_367\n      jumpi\n        /* \"#utility.yul\":2371:2372   */\n      0x00\n        /* \"#utility.yul\":2368:2369   */\n      0x00\n        /* \"#utility.yul\":2361:2373   */\n      revert\n        /* \"#utility.yul\":2386:3152   */\n    tag_83:\n        /* \"#utility.yul\":2492:2498   */\n      0x00\n        /* \"#utility.yul\":2500:2506   */\n      0x00\n        /* \"#utility.yul\":2508:2514   */\n      0x00\n        /* \"#utility.yul\":2516:2522   */\n      0x00\n        /* \"#utility.yul\":2524:2530   */\n      0x00\n        /* \"#utility.yul\":2577:2580   */\n      0xa0\n        /* \"#utility.yul\":2565:2574   */\n      dup7\n        /* \"#utility.yul\":2556:2563   */\n      dup9\n        /* \"#utility.yul\":2552:2575   */\n      sub\n        /* \"#utility.yul\":2548:2581   */\n      slt\n        /* \"#utility.yul\":2545:2598   */\n      iszero\n      tag_376\n      jumpi\n        /* \"#utility.yul\":2594:2595   */\n      0x00\n        /* \"#utility.yul\":2591:2592   */\n      0x00\n        /* \"#utility.yul\":2584:2596   */\n      revert\n        /* \"#utility.yul\":2545:2598   */\n    tag_376:\n        /* \"#utility.yul\":2639:2662   */\n      dup6\n      calldataload\n      swap5\n      pop\n        /* \"#utility.yul\":2738:2740   */\n      0x20\n        /* \"#utility.yul\":2723:2741   */\n      dup7\n      add\n        /* \"#utility.yul\":2710:2742   */\n      calldataload\n        /* \"#utility.yul\":2751:2792   */\n      tag_377\n        /* \"#utility.yul\":2710:2742   */\n      dup2\n        /* \"#utility.yul\":2751:2792   */\n      tag_356\n      jump\t// in\n    tag_377:\n        /* \"#utility.yul\":2811:2818   */\n      swap4\n      pop\n        /* \"#utility.yul\":2870:2872   */\n      0x40\n        /* \"#utility.yul\":2855:2873   */\n      dup7\n      add\n        /* \"#utility.yul\":2842:2874   */\n      calldataload\n        /* \"#utility.yul\":2883:2913   */\n      tag_378\n        /* \"#utility.yul\":2842:2874   */\n      dup2\n        /* \"#utility.yul\":2883:2913   */\n      tag_357\n      jump\t// in\n    tag_378:\n        /* \"#utility.yul\":2386:3152   */\n      swap5\n      swap8\n      swap4\n      swap7\n      pop\n        /* \"#utility.yul\":2932:2939   */\n      swap4\n      swap5\n        /* \"#utility.yul\":3012:3014   */\n      0x60\n        /* \"#utility.yul\":2997:3015   */\n      dup2\n      add\n        /* \"#utility.yul\":2984:3016   */\n      calldataload\n      swap5\n      pop\n        /* \"#utility.yul\":3115:3118   */\n      0x80\n        /* \"#utility.yul\":3100:3119   */\n      add\n        /* \"#utility.yul\":3087:3120   */\n      calldataload\n      swap3\n        /* \"#utility.yul\":2386:3152   */\n      swap2\n      pop\n      pop\n      jump\t// out\n        /* \"#utility.yul\":3157:3532   */\n    tag_92:\n        /* \"#utility.yul\":3225:3231   */\n      0x00\n        /* \"#utility.yul\":3233:3239   */\n      0x00\n        /* \"#utility.yul\":3286:3288   */\n      0x40\n        /* \"#utility.yul\":3274:3283   */\n      dup4\n        /* \"#utility.yul\":3265:3272   */\n      dup6\n        /* \"#utility.yul\":3261:3284   */\n      sub\n        /* \"#utility.yul\":3257:3289   */\n      slt\n        /* \"#utility.yul\":3254:3306   */\n      iszero\n      tag_380\n      jumpi\n        /* \"#utility.yul\":3302:3303   */\n      0x00\n        /* \"#utility.yul\":3299:3300   */\n      0x00\n        /* \"#utility.yul\":3292:3304   */\n      revert\n        /* \"#utility.yul\":3254:3306   */\n    tag_380:\n        /* \"#utility.yul\":3347:3370   */\n      dup3\n      calldataload\n      swap2\n      pop\n        /* \"#utility.yul\":3446:3448   */\n      0x20\n        /* \"#utility.yul\":3431:3449   */\n      dup4\n      add\n        /* \"#utility.yul\":3418:3450   */\n      calldataload\n        /* \"#utility.yul\":3459:3500   */\n      tag_381\n        /* \"#utility.yul\":3418:3450   */\n      dup2\n        /* \"#utility.yul\":3459:3500   */\n      tag_356\n      jump\t// in\n    tag_381:\n        /* \"#utility.yul\":3519:3526   */\n      dup1\n        /* \"#utility.yul\":3509:3526   */\n      swap2\n      pop\n      pop\n        /* \"#utility.yul\":3157:3532   */\n      swap3\n      pop\n      swap3\n      swap1\n      pop\n      jump\t// out\n        /* \"#utility.yul\":3790:4045   */\n    tag_108:\n        /* \"#utility.yul\":3849:3855   */\n      0x00\n        /* \"#utility.yul\":3902:3904   */\n      0x20\n        /* \"#utility.yul\":3890:3899   */\n      dup3\n        /* \"#utility.yul\":3881:3888   */\n      dup5\n        /* \"#utility.yul\":3877:3900   */\n      sub\n        /* \"#utility.yul\":3873:3905   */\n      slt\n        /* \"#utility.yul\":3870:3922   */\n      iszero\n      tag_384\n      jumpi\n        /* \"#utility.yul\":3918:3919   */\n      0x00\n        /* \"#utility.yul\":3915:3916   */\n      0x00\n        /* \"#utility.yul\":3908:3920   */\n      revert\n        /* \"#utility.yul\":3870:3922   */\n    tag_384:\n        /* \"#utility.yul\":3957:3966   */\n      dup2\n        /* \"#utility.yul\":3944:3967   */\n      calldataload\n        /* \"#utility.yul\":3976:4015   */\n      tag_332\n        /* \"#utility.yul\":4009:4014   */\n      dup2\n        /* \"#utility.yul\":3976:4015   */\n      tag_356\n      jump\t// in\n        /* \"#utility.yul\":4272:4679   */\n    tag_122:\n        /* \"#utility.yul\":4474:4476   */\n      0x20\n        /* \"#utility.yul\":4456:4477   */\n      dup1\n      dup3\n      mstore\n        /* \"#utility.yul\":4513:4515   */\n      0x2b\n        /* \"#utility.yul\":4493:4511   */\n      swap1\n      dup3\n      add\n        /* \"#utility.yul\":4486:4516   */\n      mstore\n        /* \"#utility.yul\":4552:4586   */\n      0x5875736447656e65736973506f6f6c3a2063616c6c6572206973206e6f742074\n        /* \"#utility.yul\":4547:4549   */\n      0x40\n        /* \"#utility.yul\":4532:4550   */\n      dup3\n      add\n        /* \"#utility.yul\":4525:4587   */\n      mstore\n      shl(0xa9, 0x34329037b832b930ba37b9)\n        /* \"#utility.yul\":4618:4620   */\n      0x60\n        /* \"#utility.yul\":4603:4621   */\n      dup3\n      add\n        /* \"#utility.yul\":4596:4637   */\n      mstore\n        /* \"#utility.yul\":4669:4672   */\n      0x80\n        /* \"#utility.yul\":4654:4673   */\n      add\n      swap1\n        /* \"#utility.yul\":4272:4679   */\n      jump\t// out\n        /* \"#utility.yul\":4684:4811   */\n    tag_127:\n        /* \"#utility.yul\":4745:4755   */\n      0x4e487b71\n        /* \"#utility.yul\":4740:4743   */\n      0xe0\n        /* \"#utility.yul\":4736:4756   */\n      shl\n        /* \"#utility.yul\":4733:4734   */\n      0x00\n        /* \"#utility.yul\":4726:4757   */\n      mstore\n        /* \"#utility.yul\":4776:4780   */\n      0x32\n        /* \"#utility.yul\":4773:4774   */\n      0x04\n        /* \"#utility.yul\":4766:4781   */\n      mstore\n        /* \"#utility.yul\":4800:4804   */\n      0x24\n        /* \"#utility.yul\":4797:4798   */\n      0x00\n        /* \"#utility.yul\":4790:4805   */\n      revert\n        /* \"#utility.yul\":4816:4943   */\n    tag_358:\n        /* \"#utility.yul\":4877:4887   */\n      0x4e487b71\n        /* \"#utility.yul\":4872:4875   */\n      0xe0\n        /* \"#utility.yul\":4868:4888   */\n      shl\n        /* \"#utility.yul\":4865:4866   */\n      0x00\n        /* \"#utility.yul\":4858:4889   */\n      mstore\n        /* \"#utility.yul\":4908:4912   */\n      0x11\n        /* \"#utility.yul\":4905:4906   */\n      0x04\n        /* \"#utility.yul\":4898:4913   */\n      mstore\n        /* \"#utility.yul\":4932:4936   */\n      0x24\n        /* \"#utility.yul\":4929:4930   */\n      0x00\n        /* \"#utility.yul\":4922:4937   */\n      revert\n        /* \"#utility.yul\":4948:5076   */\n    tag_131:\n        /* \"#utility.yul\":5015:5024   */\n      dup2\n      dup2\n      sub\n        /* \"#utility.yul\":5036:5047   */\n      dup2\n      dup2\n      gt\n        /* \"#utility.yul\":5033:5070   */\n      iszero\n      tag_144\n      jumpi\n        /* \"#utility.yul\":5050:5068   */\n      tag_144\n      tag_358\n      jump\t// in\n        /* \"#utility.yul\":5081:5206   */\n    tag_133:\n        /* \"#utility.yul\":5146:5155   */\n      dup1\n      dup3\n      add\n        /* \"#utility.yul\":5167:5177   */\n      dup1\n      dup3\n      gt\n        /* \"#utility.yul\":5164:5200   */\n      iszero\n      tag_144\n      jumpi\n        /* \"#utility.yul\":5180:5198   */\n      tag_144\n      tag_358\n      jump\t// in\n        /* \"#utility.yul\":5211:5379   */\n    tag_141:\n        /* \"#utility.yul\":5284:5293   */\n      dup1\n      dup3\n      mul\n        /* \"#utility.yul\":5315:5324   */\n      dup2\n      iszero\n        /* \"#utility.yul\":5332:5347   */\n      dup3\n      dup3\n      div\n        /* \"#utility.yul\":5326:5348   */\n      dup5\n      eq\n        /* \"#utility.yul\":5312:5349   */\n      or\n        /* \"#utility.yul\":5302:5373   */\n      tag_144\n      jumpi\n        /* \"#utility.yul\":5353:5371   */\n      tag_144\n      tag_358\n      jump\t// in\n        /* \"#utility.yul\":5731:5948   */\n    tag_161:\n        /* \"#utility.yul\":5771:5772   */\n      0x00\n        /* \"#utility.yul\":5797:5798   */\n      dup3\n        /* \"#utility.yul\":5787:5919   */\n      tag_401\n      jumpi\n        /* \"#utility.yul\":5841:5851   */\n      0x4e487b71\n        /* \"#utility.yul\":5836:5839   */\n      0xe0\n        /* \"#utility.yul\":5832:5852   */\n      shl\n        /* \"#utility.yul\":5829:5830   */\n      0x00\n        /* \"#utility.yul\":5822:5853   */\n      mstore\n        /* \"#utility.yul\":5876:5880   */\n      0x12\n        /* \"#utility.yul\":5873:5874   */\n      0x04\n        /* \"#utility.yul\":5866:5881   */\n      mstore\n        /* \"#utility.yul\":5904:5908   */\n      0x24\n        /* \"#utility.yul\":5901:5902   */\n      0x00\n        /* \"#utility.yul\":5894:5909   */\n      revert\n        /* \"#utility.yul\":5787:5919   */\n    tag_401:\n      pop\n        /* \"#utility.yul\":5933:5942   */\n      div\n      swap1\n        /* \"#utility.yul\":5731:5948   */\n      jump\t// out\n        /* \"#utility.yul\":5953:6227   */\n    tag_170:\n      sub(shl(0xa0, 0x01), 0x01)\n        /* \"#utility.yul\":6145:6177   */\n      swap3\n      swap1\n      swap3\n      and\n        /* \"#utility.yul\":6127:6178   */\n      dup3\n      mstore\n        /* \"#utility.yul\":6209:6211   */\n      0x20\n        /* \"#utility.yul\":6194:6212   */\n      dup3\n      add\n        /* \"#utility.yul\":6187:6221   */\n      mstore\n        /* \"#utility.yul\":6115:6117   */\n      0x40\n        /* \"#utility.yul\":6100:6118   */\n      add\n      swap1\n        /* \"#utility.yul\":5953:6227   */\n      jump\t// out\n        /* \"#utility.yul\":6232:6477   */\n    tag_174:\n        /* \"#utility.yul\":6299:6305   */\n      0x00\n        /* \"#utility.yul\":6352:6354   */\n      0x20\n        /* \"#utility.yul\":6340:6349   */\n      dup3\n        /* \"#utility.yul\":6331:6338   */\n      dup5\n        /* \"#utility.yul\":6327:6350   */\n      sub\n        /* \"#utility.yul\":6323:6355   */\n      slt\n        /* \"#utility.yul\":6320:6372   */\n      iszero\n      tag_404\n      jumpi\n        /* \"#utility.yul\":6368:6369   */\n      0x00\n        /* \"#utility.yul\":6365:6366   */\n      0x00\n        /* \"#utility.yul\":6358:6370   */\n      revert\n        /* \"#utility.yul\":6320:6372   */\n    tag_404:\n        /* \"#utility.yul\":6400:6409   */\n      dup2\n        /* \"#utility.yul\":6394:6410   */\n      mload\n        /* \"#utility.yul\":6419:6447   */\n      tag_332\n        /* \"#utility.yul\":6441:6446   */\n      dup2\n        /* \"#utility.yul\":6419:6447   */\n      tag_357\n      jump\t// in\n        /* \"#utility.yul\":6482:6666   */\n    tag_187:\n        /* \"#utility.yul\":6552:6558   */\n      0x00\n        /* \"#utility.yul\":6605:6607   */\n      0x20\n        /* \"#utility.yul\":6593:6602   */\n      dup3\n        /* \"#utility.yul\":6584:6591   */\n      dup5\n        /* \"#utility.yul\":6580:6603   */\n      sub\n        /* \"#utility.yul\":6576:6608   */\n      slt\n        /* \"#utility.yul\":6573:6625   */\n      iszero\n      tag_407\n      jumpi\n        /* \"#utility.yul\":6621:6622   */\n      0x00\n        /* \"#utility.yul\":6618:6619   */\n      0x00\n        /* \"#utility.yul\":6611:6623   */\n      revert\n        /* \"#utility.yul\":6573:6625   */\n    tag_407:\n      pop\n        /* \"#utility.yul\":6644:6660   */\n      mload\n      swap2\n        /* \"#utility.yul\":6482:6666   */\n      swap1\n      pop\n      jump\t// out\n\n    auxdata: 0xa2646970667358221220e39b6ba85b135184adef6900236c7e8d953eb40ac576770644fb1d557b358bcf64736f6c634300081b0033\n}\n",
				"bytecode": {
					"linkReferences": {},
					"object": "60806040525f600755348015610013575f5ffd5b50604051611a04380380611a04833981016040819052610032916102d2565b8242106100735760405162461bcd60e51b815260040161006a906020808252600490820152636c61746560e01b604082015260600190565b60405180910390fd5b6001600160a01b0386166100d75760405162461bcd60e51b815260206004820152602560248201527f5875736447656e65736973506f6f6c3a2058757364206973207a65726f206164604482015264647265737360d81b606482015260840161006a565b5f82116101345760405162461bcd60e51b815260206004820152602560248201527f5875736447656e65736973506f6f6c3a20746f74616c52657761726473206973604482015264207a65726f60d81b606482015260840161006a565b5f811161018f5760405162461bcd60e51b8152602060048201526024808201527f5875736447656e65736973506f6f6c3a2072756e6e696e6754696d65206973206044820152637a65726f60e01b606482015260840161006a565b600480546001600160a01b0319166001600160a01b038816179055600c829055600b8190556101be81836103d2565b600a555f5b8551811015610201576101f88682815181106101e1576101e16103f1565b60200260200101515f61023a60201b90919060201c565b506001016101c3565b5060028490556008839055600b546102199084610405565b6009555050600380546001600160a01b031916331790555061042492505050565b5f61024e836001600160a01b038416610257565b90505b92915050565b5f81815260018301602052604081205461029c57508154600181810184555f848152602080822090930184905584548482528286019093526040902091909155610251565b505f610251565b80516001600160a01b03811681146102b9575f5ffd5b919050565b634e487b7160e01b5f52604160045260245ffd5b5f5f5f5f5f5f60c087890312156102e7575f5ffd5b6102f0876102a3565b60208801519096506001600160401b0381111561030b575f5ffd5b8701601f8101891361031b575f5ffd5b80516001600160401b03811115610334576103346102be565b604051600582901b90603f8201601f191681016001600160401b0381118282101715610362576103626102be565b60405291825260208184018101929081018c84111561037f575f5ffd5b6020850194505b838510156103a557610397856102a3565b815260209485019401610386565b5060408b015160608c015160808d015160a0909d01519b9e929d50909b909a909950975095505050505050565b5f826103ec57634e487b7160e01b5f52601260045260245ffd5b500490565b634e487b7160e01b5f52603260045260245ffd5b8082018082111561025157634e487b7160e01b5f52601160045260245ffd5b6115d3806104315f395ff3fe608060405234801561000f575f5ffd5b5060043610610153575f3560e01c80635f96dc11116100bf57806392fae48d1161007957806392fae48d146102c157806393f1a40b146102c9578063943f013d1461030f578063b3ab15fb14610318578063e2bbb1581461032b578063f25bb8651461033e575f5ffd5b80635f96dc1114610278578063628b409f1461028157806362e006c71461028a578063630b5ba11461029d5780636e271dd5146102a55780637805583c146102ae575f5ffd5b806351eb05a61161011057806351eb05a6146102035780635312ea8e1461021657806354575af414610229578063570ca7351461023c5780635715f8f91461025c5780635b14295614610265575f5ffd5b80630e15561a146101575780631526fe271461017357806317caf6f1146101bf5780631ab06ee5146101c8578063231f0c6a146101dd578063441a3e70146101f0575b5f5ffd5b610160600c5481565b6040519081526020015b60405180910390f35b61018661018136600461133e565b610351565b604080516001600160a01b03909716875260208701959095529385019290925260608401521515608083015260a082015260c00161016a565b61016060075481565b6101db6101d6366004611355565b6103a5565b005b6101606101eb366004611355565b61043b565b6101db6101fe366004611355565b6104dd565b6101db61021136600461133e565b610703565b6101db61022436600461133e565b610869565b6101db61023736600461138c565b610961565b60035461024f906001600160a01b031681565b60405161016a91906113cb565b61016060025481565b61024f61027336600461133e565b610ae6565b61016060085481565b610160600a5481565b6101db6102983660046113ec565b610af1565b6101db610d05565b61016060095481565b6101606102bc36600461143a565b610d27565b610160610e8d565b6102fa6102d736600461143a565b600660209081525f92835260408084209091529082529020805460019091015482565b6040805192835260208301919091520161016a565b610160600b5481565b6101db610326366004611468565b610e9c565b6101db610339366004611355565b610ee8565b60045461024f906001600160a01b031681565b60058181548110610360575f80fd5b5f9182526020909120600690910201805460018201546002830154600384015460048501546005909501546001600160a01b0390941695509193909260ff9091169086565b6003546001600160a01b031633146103d85760405162461bcd60e51b81526004016103cf90611483565b60405180910390fd5b6103e0610d05565b5f600583815481106103f4576103f46114ce565b5f9182526020909120600690910201600481015490915060ff16156104345781816001015460075461042691906114f6565b6104309190611509565b6007555b6001015550565b5f81831061044a57505f6104d7565b60095482106104a157600954831061046357505f6104d7565b600854831161049057600a5460085460095461047f91906114f6565b610489919061151c565b90506104d7565b600a548360095461047f91906114f6565b60085482116104b157505f6104d7565b60085483116104ca57600a5460085461047f90846114f6565b600a5461047f84846114f6565b92915050565b5f3390505f600584815481106104f5576104f56114ce565b5f9182526020808320878452600680835260408086206001600160a01b038916875290935291909320805492909102909201925084111561056d5760405162461bcd60e51b81526020600482015260126024820152711dda5d1a191c985dce881b9bdd0819dbdbd960721b60448201526064016103cf565b61057685610703565b5f8160010154670de0b6b3a76400008460030154845f0154610598919061151c565b6105a29190611533565b6105ac91906114f6565b90508015610602576105be848261115d565b836001600160a01b03167fe2403640ba68fed3a2f88b7557551d1993f84b99bb10ff833f0cf8db0c5e0486826040516105f991815260200190565b60405180910390a25b84156106925784825f015f82825461061a91906114f6565b9091555050825460405163a9059cbb60e01b81526001600160a01b039091169063a9059cbb906106509087908990600401611552565b6020604051808303815f875af115801561066c573d5f5f3e3d5ffd5b505050506040513d601f19601f82011682018060405250810190610690919061156b565b505b60038301548254670de0b6b3a7640000916106ac9161151c565b6106b69190611533565b600183015560405185815286906001600160a01b038616907ff279e6a1f5e320cca91135676d9cb6e44ca8a08c0b88342bcdb1144f6511b5689060200160405180910390a3505050505050565b5f60058281548110610717576107176114ce565b905f5260205f209060060201905080600201544211610734575050565b80546040516370a0823160e01b81525f916001600160a01b0316906370a08231906107639030906004016113cb565b602060405180830381865afa15801561077e573d5f5f3e3d5ffd5b505050506040513d601f19601f820116820180604052508101906107a29190611586565b9050805f036107b657504260029091015550565b600482015460ff166107ee5760048201805460ff19166001908117909155820154600780545f906107e8908490611509565b90915550505b6007541561085e575f61080583600201544261043b565b90505f60075484600101548361081b919061151c565b6108259190611533565b90508261083a82670de0b6b3a764000061151c565b6108449190611533565b846003015f8282546108569190611509565b909155505050505b504260029091015550565b5f6005828154811061087d5761087d6114ce565b5f91825260208083208584526006808352604080862033808852945280862080548782556001820197909755919094029091018054935163a9059cbb60e01b81529095509093926001600160a01b03169163a9059cbb916108e391908590600401611552565b6020604051808303815f875af11580156108ff573d5f5f3e3d5ffd5b505050506040513d601f19601f82011682018060405250810190610923919061156b565b50604051818152849033907fbb757047c2b5f3974fe26b7c10f732e7bce710b0952a71082702781e62ae05959060200160405180910390a350505050565b6003546001600160a01b0316331461098b5760405162461bcd60e51b81526004016103cf90611483565b60095461099b9062278d00611509565b421015610a72576004546001600160a01b03908116908416036109e95760405162461bcd60e51b81526004016103cf90602080825260049082015263161d5cd960e21b604082015260600190565b6005545f5b81811015610a6f575f60058281548110610a0a57610a0a6114ce565b5f918252602090912060069091020180549091506001600160a01b0390811690871603610a665760405162461bcd60e51b815260206004820152600a6024820152693837b7b6173a37b5b2b760b11b60448201526064016103cf565b506001016109ee565b50505b60405163a9059cbb60e01b81526001600160a01b0384169063a9059cbb90610aa09084908690600401611552565b6020604051808303815f875af1158015610abc573d5f5f3e3d5ffd5b505050506040513d601f19601f82011682018060405250810190610ae0919061156b565b50505050565b5f6104d78183611244565b6003546001600160a01b03163314610b1b5760405162461bcd60e51b81526004016103cf90611483565b610b2484611256565b8215610b3257610b32610d05565b600854421015610b6257815f03610b4d576008549150610b77565b600854821015610b5d5760085491505b610b77565b811580610b6e57504282105b15610b77574291505b5f60085483111580610b895750428311155b6040805160c0810182526001600160a01b038881168252602082018a81529282018781525f60608401818152861580156080870190815260a087018b815260058054600181018255955296517f036b6384b5eca791c62761152d0c79bb0604c104a5fb6f4eb0703f3154bb3db0600690950294850180546001600160a01b031916919097161790955595517f036b6384b5eca791c62761152d0c79bb0604c104a5fb6f4eb0703f3154bb3db183015591517f036b6384b5eca791c62761152d0c79bb0604c104a5fb6f4eb0703f3154bb3db282015590517f036b6384b5eca791c62761152d0c79bb0604c104a5fb6f4eb0703f3154bb3db382015590517f036b6384b5eca791c62761152d0c79bb0604c104a5fb6f4eb0703f3154bb3db48201805460ff191691151591909117905590517f036b6384b5eca791c62761152d0c79bb0604c104a5fb6f4eb0703f3154bb3db590910155909150610cfd578560075f828254610cf79190611509565b90915550505b505050505050565b6005545f5b81811015610d2357610d1b81610703565b600101610d0a565b5050565b5f5f60058481548110610d3c57610d3c6114ce565b5f9182526020808320878452600680835260408086206001600160a01b038a811688529452808620949091029091016003810154815492516370a0823160e01b815291965093949291909116906370a0823190610d9d9030906004016113cb565b602060405180830381865afa158015610db8573d5f5f3e3d5ffd5b505050506040513d601f19601f82011682018060405250810190610ddc9190611586565b9050836002015442118015610df057508015155b15610e52575f610e0485600201544261043b565b90505f600754866001015483610e1a919061151c565b610e249190611533565b905082610e3982670de0b6b3a764000061151c565b610e439190611533565b610e4d9085611509565b935050505b60018301548354670de0b6b3a764000090610e6e90859061151c565b610e789190611533565b610e8291906114f6565b979650505050505050565b5f610e975f6112ee565b905090565b6003546001600160a01b03163314610ec65760405162461bcd60e51b81526004016103cf90611483565b600380546001600160a01b0319166001600160a01b0392909216919091179055565b5f3390505f60058481548110610f0057610f006114ce565b5f9182526020808320878452600680835260408086206001600160a01b03891687529093529190932091029091019150610f3985610703565b805415610fce575f8160010154670de0b6b3a76400008460030154845f0154610f62919061151c565b610f6c9190611533565b610f7691906114f6565b90508015610fcc57610f88848261115d565b836001600160a01b03167fe2403640ba68fed3a2f88b7557551d1993f84b99bb10ff833f0cf8db0c5e048682604051610fc391815260200190565b60405180910390a25b505b805460058301545f91610fe0916114f6565b90505f818611610ff05785610ff2565b815b905080156110eb5783546040516323b872dd60e01b81526001600160a01b03878116600483015230602483015260448201849052909116906323b872dd906064016020604051808303815f875af115801561104f573d5f5f3e3d5ffd5b505050506040513d601f19601f82011682018060405250810190611073919061156b565b50835461108a905f906001600160a01b03166112f7565b156110d3576002546127109081906110a290826114f6565b6110ac908461151c565b6110b69190611533565b845f015f8282546110c79190611509565b909155506110eb915050565b80835f015f8282546110e59190611509565b90915550505b60038401548354670de0b6b3a7640000916111059161151c565b61110f9190611533565b600184015560405181815287906001600160a01b038716907f90890809c654f11d6e72a28fa60149770a0d11ec6c92319d6ceb2bb0a4ea1a159060200160405180910390a350505050505050565b600480546040516370a0823160e01b81525f926001600160a01b03909216916370a082319161118e913091016113cb565b602060405180830381865afa1580156111a9573d5f5f3e3d5ffd5b505050506040513d601f19601f820116820180604052508101906111cd9190611586565b9050801561123f578082111561120e576004805460405163a9059cbb60e01b81526001600160a01b039091169163a9059cbb91610aa0918791869101611552565b6004805460405163a9059cbb60e01b81526001600160a01b039091169163a9059cbb91610aa0918791879101611552565b505050565b5f61124f8383611318565b9392505050565b6005545f5b8181101561123f57826001600160a01b031660058281548110611280576112806114ce565b5f9182526020909120600690910201546001600160a01b0316036112e65760405162461bcd60e51b815260206004820152601f60248201527f5875736447656e65736973506f6f6c3a206578697374696e6720706f6f6c3f0060448201526064016103cf565b60010161125b565b5f6104d7825490565b6001600160a01b0381165f908152600183016020526040812054151561124f565b5f825f01828154811061132d5761132d6114ce565b905f5260205f200154905092915050565b5f6020828403121561134e575f5ffd5b5035919050565b5f5f60408385031215611366575f5ffd5b50508035926020909101359150565b6001600160a01b0381168114611389575f5ffd5b50565b5f5f5f6060848603121561139e575f5ffd5b83356113a981611375565b92506020840135915060408401356113c081611375565b809150509250925092565b6001600160a01b0391909116815260200190565b8015158114611389575f5ffd5b5f5f5f5f5f60a08688031215611400575f5ffd5b85359450602086013561141281611375565b93506040860135611422816113df565b94979396509394606081013594506080013592915050565b5f5f6040838503121561144b575f5ffd5b82359150602083013561145d81611375565b809150509250929050565b5f60208284031215611478575f5ffd5b813561124f81611375565b6020808252602b908201527f5875736447656e65736973506f6f6c3a2063616c6c6572206973206e6f74207460408201526a34329037b832b930ba37b960a91b606082015260800190565b634e487b7160e01b5f52603260045260245ffd5b634e487b7160e01b5f52601160045260245ffd5b818103818111156104d7576104d76114e2565b808201808211156104d7576104d76114e2565b80820281158282048414176104d7576104d76114e2565b5f8261154d57634e487b7160e01b5f52601260045260245ffd5b500490565b6001600160a01b03929092168252602082015260400190565b5f6020828403121561157b575f5ffd5b815161124f816113df565b5f60208284031215611596575f5ffd5b505191905056fea2646970667358221220e39b6ba85b135184adef6900236c7e8d953eb40ac576770644fb1d557b358bcf64736f6c634300081b0033",
					"opcodes": "PUSH1 0x80 PUSH1 0x40 MSTORE PUSH0 PUSH1 0x7 SSTORE CALLVALUE DUP1 ISZERO PUSH2 0x13 JUMPI PUSH0 PUSH0 REVERT JUMPDEST POP PUSH1 0x40 MLOAD PUSH2 0x1A04 CODESIZE SUB DUP1 PUSH2 0x1A04 DUP4 CODECOPY DUP2 ADD PUSH1 0x40 DUP2 SWAP1 MSTORE PUSH2 0x32 SWAP2 PUSH2 0x2D2 JUMP JUMPDEST DUP3 TIMESTAMP LT PUSH2 0x73 JUMPI PUSH1 0x40 MLOAD PUSH3 0x461BCD PUSH1 0xE5 SHL DUP2 MSTORE PUSH1 0x4 ADD PUSH2 0x6A SWAP1 PUSH1 0x20 DUP1 DUP3 MSTORE PUSH1 0x4 SWAP1 DUP3 ADD MSTORE PUSH4 0x6C617465 PUSH1 0xE0 SHL PUSH1 0x40 DUP3 ADD MSTORE PUSH1 0x60 ADD SWAP1 JUMP JUMPDEST PUSH1 0x40 MLOAD DUP1 SWAP2 SUB SWAP1 REVERT JUMPDEST PUSH1 0x1 PUSH1 0x1 PUSH1 0xA0 SHL SUB DUP7 AND PUSH2 0xD7 JUMPI PUSH1 0x40 MLOAD PUSH3 0x461BCD PUSH1 0xE5 SHL DUP2 MSTORE PUSH1 0x20 PUSH1 0x4 DUP3 ADD MSTORE PUSH1 0x25 PUSH1 0x24 DUP3 ADD MSTORE PUSH32 0x5875736447656E65736973506F6F6C3A2058757364206973207A65726F206164 PUSH1 0x44 DUP3 ADD MSTORE PUSH5 0x6472657373 PUSH1 0xD8 SHL PUSH1 0x64 DUP3 ADD MSTORE PUSH1 0x84 ADD PUSH2 0x6A JUMP JUMPDEST PUSH0 DUP3 GT PUSH2 0x134 JUMPI PUSH1 0x40 MLOAD PUSH3 0x461BCD PUSH1 0xE5 SHL DUP2 MSTORE PUSH1 0x20 PUSH1 0x4 DUP3 ADD MSTORE PUSH1 0x25 PUSH1 0x24 DUP3 ADD MSTORE PUSH32 0x5875736447656E65736973506F6F6C3A20746F74616C52657761726473206973 PUSH1 0x44 DUP3 ADD MSTORE PUSH5 0x207A65726F PUSH1 0xD8 SHL PUSH1 0x64 DUP3 ADD MSTORE PUSH1 0x84 ADD PUSH2 0x6A JUMP JUMPDEST PUSH0 DUP2 GT PUSH2 0x18F JUMPI PUSH1 0x40 MLOAD PUSH3 0x461BCD PUSH1 0xE5 SHL DUP2 MSTORE PUSH1 0x20 PUSH1 0x4 DUP3 ADD MSTORE PUSH1 0x24 DUP1 DUP3 ADD MSTORE PUSH32 0x5875736447656E65736973506F6F6C3A2072756E6E696E6754696D6520697320 PUSH1 0x44 DUP3 ADD MSTORE PUSH4 0x7A65726F PUSH1 0xE0 SHL PUSH1 0x64 DUP3 ADD MSTORE PUSH1 0x84 ADD PUSH2 0x6A JUMP JUMPDEST PUSH1 0x4 DUP1 SLOAD PUSH1 0x1 PUSH1 0x1 PUSH1 0xA0 SHL SUB NOT AND PUSH1 0x1 PUSH1 0x1 PUSH1 0xA0 SHL SUB DUP9 AND OR SWAP1 SSTORE PUSH1 0xC DUP3 SWAP1 SSTORE PUSH1 0xB DUP2 SWAP1 SSTORE PUSH2 0x1BE DUP2 DUP4 PUSH2 0x3D2 JUMP JUMPDEST PUSH1 0xA SSTORE PUSH0 JUMPDEST DUP6 MLOAD DUP2 LT ISZERO PUSH2 0x201 JUMPI PUSH2 0x1F8 DUP7 DUP3 DUP2 MLOAD DUP2 LT PUSH2 0x1E1 JUMPI PUSH2 0x1E1 PUSH2 0x3F1 JUMP JUMPDEST PUSH1 0x20 MUL PUSH1 0x20 ADD ADD MLOAD PUSH0 PUSH2 0x23A PUSH1 0x20 SHL SWAP1 SWAP2 SWAP1 PUSH1 0x20 SHR JUMP JUMPDEST POP PUSH1 0x1 ADD PUSH2 0x1C3 JUMP JUMPDEST POP PUSH1 0x2 DUP5 SWAP1 SSTORE PUSH1 0x8 DUP4 SWAP1 SSTORE PUSH1 0xB SLOAD PUSH2 0x219 SWAP1 DUP5 PUSH2 0x405 JUMP JUMPDEST PUSH1 0x9 SSTORE POP POP PUSH1 0x3 DUP1 SLOAD PUSH1 0x1 PUSH1 0x1 PUSH1 0xA0 SHL SUB NOT AND CALLER OR SWAP1 SSTORE POP PUSH2 0x424 SWAP3 POP POP POP JUMP JUMPDEST PUSH0 PUSH2 0x24E DUP4 PUSH1 0x1 PUSH1 0x1 PUSH1 0xA0 SHL SUB DUP5 AND PUSH2 0x257 JUMP JUMPDEST SWAP1 POP JUMPDEST SWAP3 SWAP2 POP POP JUMP JUMPDEST PUSH0 DUP2 DUP2 MSTORE PUSH1 0x1 DUP4 ADD PUSH1 0x20 MSTORE PUSH1 0x40 DUP2 KECCAK256 SLOAD PUSH2 0x29C JUMPI POP DUP2 SLOAD PUSH1 0x1 DUP2 DUP2 ADD DUP5 SSTORE PUSH0 DUP5 DUP2 MSTORE PUSH1 0x20 DUP1 DUP3 KECCAK256 SWAP1 SWAP4 ADD DUP5 SWAP1 SSTORE DUP5 SLOAD DUP5 DUP3 MSTORE DUP3 DUP7 ADD SWAP1 SWAP4 MSTORE PUSH1 0x40 SWAP1 KECCAK256 SWAP2 SWAP1 SWAP2 SSTORE PUSH2 0x251 JUMP JUMPDEST POP PUSH0 PUSH2 0x251 JUMP JUMPDEST DUP1 MLOAD PUSH1 0x1 PUSH1 0x1 PUSH1 0xA0 SHL SUB DUP2 AND DUP2 EQ PUSH2 0x2B9 JUMPI PUSH0 PUSH0 REVERT JUMPDEST SWAP2 SWAP1 POP JUMP JUMPDEST PUSH4 0x4E487B71 PUSH1 0xE0 SHL PUSH0 MSTORE PUSH1 0x41 PUSH1 0x4 MSTORE PUSH1 0x24 PUSH0 REVERT JUMPDEST PUSH0 PUSH0 PUSH0 PUSH0 PUSH0 PUSH0 PUSH1 0xC0 DUP8 DUP10 SUB SLT ISZERO PUSH2 0x2E7 JUMPI PUSH0 PUSH0 REVERT JUMPDEST PUSH2 0x2F0 DUP8 PUSH2 0x2A3 JUMP JUMPDEST PUSH1 0x20 DUP9 ADD MLOAD SWAP1 SWAP7 POP PUSH1 0x1 PUSH1 0x1 PUSH1 0x40 SHL SUB DUP2 GT ISZERO PUSH2 0x30B JUMPI PUSH0 PUSH0 REVERT JUMPDEST DUP8 ADD PUSH1 0x1F DUP2 ADD DUP10 SGT PUSH2 0x31B JUMPI PUSH0 PUSH0 REVERT JUMPDEST DUP1 MLOAD PUSH1 0x1 PUSH1 0x1 PUSH1 0x40 SHL SUB DUP2 GT ISZERO PUSH2 0x334 JUMPI PUSH2 0x334 PUSH2 0x2BE JUMP JUMPDEST PUSH1 0x40 MLOAD PUSH1 0x5 DUP3 SWAP1 SHL SWAP1 PUSH1 0x3F DUP3 ADD PUSH1 0x1F NOT AND DUP2 ADD PUSH1 0x1 PUSH1 0x1 PUSH1 0x40 SHL SUB DUP2 GT DUP3 DUP3 LT OR ISZERO PUSH2 0x362 JUMPI PUSH2 0x362 PUSH2 0x2BE JUMP JUMPDEST PUSH1 0x40 MSTORE SWAP2 DUP3 MSTORE PUSH1 0x20 DUP2 DUP5 ADD DUP2 ADD SWAP3 SWAP1 DUP2 ADD DUP13 DUP5 GT ISZERO PUSH2 0x37F JUMPI PUSH0 PUSH0 REVERT JUMPDEST PUSH1 0x20 DUP6 ADD SWAP5 POP JUMPDEST DUP4 DUP6 LT ISZERO PUSH2 0x3A5 JUMPI PUSH2 0x397 DUP6 PUSH2 0x2A3 JUMP JUMPDEST DUP2 MSTORE PUSH1 0x20 SWAP5 DUP6 ADD SWAP5 ADD PUSH2 0x386 JUMP JUMPDEST POP PUSH1 0x40 DUP12 ADD MLOAD PUSH1 0x60 DUP13 ADD MLOAD PUSH1 0x80 DUP14 ADD MLOAD PUSH1 0xA0 SWAP1 SWAP14 ADD MLOAD SWAP12 SWAP15 SWAP3 SWAP14 POP SWAP1 SWAP12 SWAP1 SWAP11 SWAP1 SWAP10 POP SWAP8 POP SWAP6 POP POP POP POP POP POP JUMP JUMPDEST PUSH0 DUP3 PUSH2 0x3EC JUMPI PUSH4 0x4E487B71 PUSH1 0xE0 SHL PUSH0 MSTORE PUSH1 0x12 PUSH1 0x4 MSTORE PUSH1 0x24 PUSH0 REVERT JUMPDEST POP DIV SWAP1 JUMP JUMPDEST PUSH4 0x4E487B71 PUSH1 0xE0 SHL PUSH0 MSTORE PUSH1 0x32 PUSH1 0x4 MSTORE PUSH1 0x24 PUSH0 REVERT JUMPDEST DUP1 DUP3 ADD DUP1 DUP3 GT ISZERO PUSH2 0x251 JUMPI PUSH4 0x4E487B71 PUSH1 0xE0 SHL PUSH0 MSTORE PUSH1 0x11 PUSH1 0x4 MSTORE PUSH1 0x24 PUSH0 REVERT JUMPDEST PUSH2 0x15D3 DUP1 PUSH2 0x431 PUSH0 CODECOPY PUSH0 RETURN INVALID PUSH1 0x80 PUSH1 0x40 MSTORE CALLVALUE DUP1 ISZERO PUSH2 0xF JUMPI PUSH0 PUSH0 REVERT JUMPDEST POP PUSH1 0x4 CALLDATASIZE LT PUSH2 0x153 JUMPI PUSH0 CALLDATALOAD PUSH1 0xE0 SHR DUP1 PUSH4 0x5F96DC11 GT PUSH2 0xBF JUMPI DUP1 PUSH4 0x92FAE48D GT PUSH2 0x79 JUMPI DUP1 PUSH4 0x92FAE48D EQ PUSH2 0x2C1 JUMPI DUP1 PUSH4 0x93F1A40B EQ PUSH2 0x2C9 JUMPI DUP1 PUSH4 0x943F013D EQ PUSH2 0x30F JUMPI DUP1 PUSH4 0xB3AB15FB EQ PUSH2 0x318 JUMPI DUP1 PUSH4 0xE2BBB158 EQ PUSH2 0x32B JUMPI DUP1 PUSH4 0xF25BB865 EQ PUSH2 0x33E JUMPI PUSH0 PUSH0 REVERT JUMPDEST DUP1 PUSH4 0x5F96DC11 EQ PUSH2 0x278 JUMPI DUP1 PUSH4 0x628B409F EQ PUSH2 0x281 JUMPI DUP1 PUSH4 0x62E006C7 EQ PUSH2 0x28A JUMPI DUP1 PUSH4 0x630B5BA1 EQ PUSH2 0x29D JUMPI DUP1 PUSH4 0x6E271DD5 EQ PUSH2 0x2A5 JUMPI DUP1 PUSH4 0x7805583C EQ PUSH2 0x2AE JUMPI PUSH0 PUSH0 REVERT JUMPDEST DUP1 PUSH4 0x51EB05A6 GT PUSH2 0x110 JUMPI DUP1 PUSH4 0x51EB05A6 EQ PUSH2 0x203 JUMPI DUP1 PUSH4 0x5312EA8E EQ PUSH2 0x216 JUMPI DUP1 PUSH4 0x54575AF4 EQ PUSH2 0x229 JUMPI DUP1 PUSH4 0x570CA735 EQ PUSH2 0x23C JUMPI DUP1 PUSH4 0x5715F8F9 EQ PUSH2 0x25C JUMPI DUP1 PUSH4 0x5B142956 EQ PUSH2 0x265 JUMPI PUSH0 PUSH0 REVERT JUMPDEST DUP1 PUSH4 0xE15561A EQ PUSH2 0x157 JUMPI DUP1 PUSH4 0x1526FE27 EQ PUSH2 0x173 JUMPI DUP1 PUSH4 0x17CAF6F1 EQ PUSH2 0x1BF JUMPI DUP1 PUSH4 0x1AB06EE5 EQ PUSH2 0x1C8 JUMPI DUP1 PUSH4 0x231F0C6A EQ PUSH2 0x1DD JUMPI DUP1 PUSH4 0x441A3E70 EQ PUSH2 0x1F0 JUMPI JUMPDEST PUSH0 PUSH0 REVERT JUMPDEST PUSH2 0x160 PUSH1 0xC SLOAD DUP2 JUMP JUMPDEST PUSH1 0x40 MLOAD SWAP1 DUP2 MSTORE PUSH1 0x20 ADD JUMPDEST PUSH1 0x40 MLOAD DUP1 SWAP2 SUB SWAP1 RETURN JUMPDEST PUSH2 0x186 PUSH2 0x181 CALLDATASIZE PUSH1 0x4 PUSH2 0x133E JUMP JUMPDEST PUSH2 0x351 JUMP JUMPDEST PUSH1 0x40 DUP1 MLOAD PUSH1 0x1 PUSH1 0x1 PUSH1 0xA0 SHL SUB SWAP1 SWAP8 AND DUP8 MSTORE PUSH1 0x20 DUP8 ADD SWAP6 SWAP1 SWAP6 MSTORE SWAP4 DUP6 ADD SWAP3 SWAP1 SWAP3 MSTORE PUSH1 0x60 DUP5 ADD MSTORE ISZERO ISZERO PUSH1 0x80 DUP4 ADD MSTORE PUSH1 0xA0 DUP3 ADD MSTORE PUSH1 0xC0 ADD PUSH2 0x16A JUMP JUMPDEST PUSH2 0x160 PUSH1 0x7 SLOAD DUP2 JUMP JUMPDEST PUSH2 0x1DB PUSH2 0x1D6 CALLDATASIZE PUSH1 0x4 PUSH2 0x1355 JUMP JUMPDEST PUSH2 0x3A5 JUMP JUMPDEST STOP JUMPDEST PUSH2 0x160 PUSH2 0x1EB CALLDATASIZE PUSH1 0x4 PUSH2 0x1355 JUMP JUMPDEST PUSH2 0x43B JUMP JUMPDEST PUSH2 0x1DB PUSH2 0x1FE CALLDATASIZE PUSH1 0x4 PUSH2 0x1355 JUMP JUMPDEST PUSH2 0x4DD JUMP JUMPDEST PUSH2 0x1DB PUSH2 0x211 CALLDATASIZE PUSH1 0x4 PUSH2 0x133E JUMP JUMPDEST PUSH2 0x703 JUMP JUMPDEST PUSH2 0x1DB PUSH2 0x224 CALLDATASIZE PUSH1 0x4 PUSH2 0x133E JUMP JUMPDEST PUSH2 0x869 JUMP JUMPDEST PUSH2 0x1DB PUSH2 0x237 CALLDATASIZE PUSH1 0x4 PUSH2 0x138C JUMP JUMPDEST PUSH2 0x961 JUMP JUMPDEST PUSH1 0x3 SLOAD PUSH2 0x24F SWAP1 PUSH1 0x1 PUSH1 0x1 PUSH1 0xA0 SHL SUB AND DUP2 JUMP JUMPDEST PUSH1 0x40 MLOAD PUSH2 0x16A SWAP2 SWAP1 PUSH2 0x13CB JUMP JUMPDEST PUSH2 0x160 PUSH1 0x2 SLOAD DUP2 JUMP JUMPDEST PUSH2 0x24F PUSH2 0x273 CALLDATASIZE PUSH1 0x4 PUSH2 0x133E JUMP JUMPDEST PUSH2 0xAE6 JUMP JUMPDEST PUSH2 0x160 PUSH1 0x8 SLOAD DUP2 JUMP JUMPDEST PUSH2 0x160 PUSH1 0xA SLOAD DUP2 JUMP JUMPDEST PUSH2 0x1DB PUSH2 0x298 CALLDATASIZE PUSH1 0x4 PUSH2 0x13EC JUMP JUMPDEST PUSH2 0xAF1 JUMP JUMPDEST PUSH2 0x1DB PUSH2 0xD05 JUMP JUMPDEST PUSH2 0x160 PUSH1 0x9 SLOAD DUP2 JUMP JUMPDEST PUSH2 0x160 PUSH2 0x2BC CALLDATASIZE PUSH1 0x4 PUSH2 0x143A JUMP JUMPDEST PUSH2 0xD27 JUMP JUMPDEST PUSH2 0x160 PUSH2 0xE8D JUMP JUMPDEST PUSH2 0x2FA PUSH2 0x2D7 CALLDATASIZE PUSH1 0x4 PUSH2 0x143A JUMP JUMPDEST PUSH1 0x6 PUSH1 0x20 SWAP1 DUP2 MSTORE PUSH0 SWAP3 DUP4 MSTORE PUSH1 0x40 DUP1 DUP5 KECCAK256 SWAP1 SWAP2 MSTORE SWAP1 DUP3 MSTORE SWAP1 KECCAK256 DUP1 SLOAD PUSH1 0x1 SWAP1 SWAP2 ADD SLOAD DUP3 JUMP JUMPDEST PUSH1 0x40 DUP1 MLOAD SWAP3 DUP4 MSTORE PUSH1 0x20 DUP4 ADD SWAP2 SWAP1 SWAP2 MSTORE ADD PUSH2 0x16A JUMP JUMPDEST PUSH2 0x160 PUSH1 0xB SLOAD DUP2 JUMP JUMPDEST PUSH2 0x1DB PUSH2 0x326 CALLDATASIZE PUSH1 0x4 PUSH2 0x1468 JUMP JUMPDEST PUSH2 0xE9C JUMP JUMPDEST PUSH2 0x1DB PUSH2 0x339 CALLDATASIZE PUSH1 0x4 PUSH2 0x1355 JUMP JUMPDEST PUSH2 0xEE8 JUMP JUMPDEST PUSH1 0x4 SLOAD PUSH2 0x24F SWAP1 PUSH1 0x1 PUSH1 0x1 PUSH1 0xA0 SHL SUB AND DUP2 JUMP JUMPDEST PUSH1 0x5 DUP2 DUP2 SLOAD DUP2 LT PUSH2 0x360 JUMPI PUSH0 DUP1 REVERT JUMPDEST PUSH0 SWAP2 DUP3 MSTORE PUSH1 0x20 SWAP1 SWAP2 KECCAK256 PUSH1 0x6 SWAP1 SWAP2 MUL ADD DUP1 SLOAD PUSH1 0x1 DUP3 ADD SLOAD PUSH1 0x2 DUP4 ADD SLOAD PUSH1 0x3 DUP5 ADD SLOAD PUSH1 0x4 DUP6 ADD SLOAD PUSH1 0x5 SWAP1 SWAP6 ADD SLOAD PUSH1 0x1 PUSH1 0x1 PUSH1 0xA0 SHL SUB SWAP1 SWAP5 AND SWAP6 POP SWAP2 SWAP4 SWAP1 SWAP3 PUSH1 0xFF SWAP1 SWAP2 AND SWAP1 DUP7 JUMP JUMPDEST PUSH1 0x3 SLOAD PUSH1 0x1 PUSH1 0x1 PUSH1 0xA0 SHL SUB AND CALLER EQ PUSH2 0x3D8 JUMPI PUSH1 0x40 MLOAD PUSH3 0x461BCD PUSH1 0xE5 SHL DUP2 MSTORE PUSH1 0x4 ADD PUSH2 0x3CF SWAP1 PUSH2 0x1483 JUMP JUMPDEST PUSH1 0x40 MLOAD DUP1 SWAP2 SUB SWAP1 REVERT JUMPDEST PUSH2 0x3E0 PUSH2 0xD05 JUMP JUMPDEST PUSH0 PUSH1 0x5 DUP4 DUP2 SLOAD DUP2 LT PUSH2 0x3F4 JUMPI PUSH2 0x3F4 PUSH2 0x14CE JUMP JUMPDEST PUSH0 SWAP2 DUP3 MSTORE PUSH1 0x20 SWAP1 SWAP2 KECCAK256 PUSH1 0x6 SWAP1 SWAP2 MUL ADD PUSH1 0x4 DUP2 ADD SLOAD SWAP1 SWAP2 POP PUSH1 0xFF AND ISZERO PUSH2 0x434 JUMPI DUP2 DUP2 PUSH1 0x1 ADD SLOAD PUSH1 0x7 SLOAD PUSH2 0x426 SWAP2 SWAP1 PUSH2 0x14F6 JUMP JUMPDEST PUSH2 0x430 SWAP2 SWAP1 PUSH2 0x1509 JUMP JUMPDEST PUSH1 0x7 SSTORE JUMPDEST PUSH1 0x1 ADD SSTORE POP JUMP JUMPDEST PUSH0 DUP2 DUP4 LT PUSH2 0x44A JUMPI POP PUSH0 PUSH2 0x4D7 JUMP JUMPDEST PUSH1 0x9 SLOAD DUP3 LT PUSH2 0x4A1 JUMPI PUSH1 0x9 SLOAD DUP4 LT PUSH2 0x463 JUMPI POP PUSH0 PUSH2 0x4D7 JUMP JUMPDEST PUSH1 0x8 SLOAD DUP4 GT PUSH2 0x490 JUMPI PUSH1 0xA SLOAD PUSH1 0x8 SLOAD PUSH1 0x9 SLOAD PUSH2 0x47F SWAP2 SWAP1 PUSH2 0x14F6 JUMP JUMPDEST PUSH2 0x489 SWAP2 SWAP1 PUSH2 0x151C JUMP JUMPDEST SWAP1 POP PUSH2 0x4D7 JUMP JUMPDEST PUSH1 0xA SLOAD DUP4 PUSH1 0x9 SLOAD PUSH2 0x47F SWAP2 SWAP1 PUSH2 0x14F6 JUMP JUMPDEST PUSH1 0x8 SLOAD DUP3 GT PUSH2 0x4B1 JUMPI POP PUSH0 PUSH2 0x4D7 JUMP JUMPDEST PUSH1 0x8 SLOAD DUP4 GT PUSH2 0x4CA JUMPI PUSH1 0xA SLOAD PUSH1 0x8 SLOAD PUSH2 0x47F SWAP1 DUP5 PUSH2 0x14F6 JUMP JUMPDEST PUSH1 0xA SLOAD PUSH2 0x47F DUP5 DUP5 PUSH2 0x14F6 JUMP JUMPDEST SWAP3 SWAP2 POP POP JUMP JUMPDEST PUSH0 CALLER SWAP1 POP PUSH0 PUSH1 0x5 DUP5 DUP2 SLOAD DUP2 LT PUSH2 0x4F5 JUMPI PUSH2 0x4F5 PUSH2 0x14CE JUMP JUMPDEST PUSH0 SWAP2 DUP3 MSTORE PUSH1 0x20 DUP1 DUP4 KECCAK256 DUP8 DUP5 MSTORE PUSH1 0x6 DUP1 DUP4 MSTORE PUSH1 0x40 DUP1 DUP7 KECCAK256 PUSH1 0x1 PUSH1 0x1 PUSH1 0xA0 SHL SUB DUP10 AND DUP8 MSTORE SWAP1 SWAP4 MSTORE SWAP2 SWAP1 SWAP4 KECCAK256 DUP1 SLOAD SWAP3 SWAP1 SWAP2 MUL SWAP1 SWAP3 ADD SWAP3 POP DUP5 GT ISZERO PUSH2 0x56D JUMPI PUSH1 0x40 MLOAD PUSH3 0x461BCD PUSH1 0xE5 SHL DUP2 MSTORE PUSH1 0x20 PUSH1 0x4 DUP3 ADD MSTORE PUSH1 0x12 PUSH1 0x24 DUP3 ADD MSTORE PUSH18 0x1DDA5D1A191C985DCE881B9BDD0819DBDBD9 PUSH1 0x72 SHL PUSH1 0x44 DUP3 ADD MSTORE PUSH1 0x64 ADD PUSH2 0x3CF JUMP JUMPDEST PUSH2 0x576 DUP6 PUSH2 0x703 JUMP JUMPDEST PUSH0 DUP2 PUSH1 0x1 ADD SLOAD PUSH8 0xDE0B6B3A7640000 DUP5 PUSH1 0x3 ADD SLOAD DUP5 PUSH0 ADD SLOAD PUSH2 0x598 SWAP2 SWAP1 PUSH2 0x151C JUMP JUMPDEST PUSH2 0x5A2 SWAP2 SWAP1 PUSH2 0x1533 JUMP JUMPDEST PUSH2 0x5AC SWAP2 SWAP1 PUSH2 0x14F6 JUMP JUMPDEST SWAP1 POP DUP1 ISZERO PUSH2 0x602 JUMPI PUSH2 0x5BE DUP5 DUP3 PUSH2 0x115D JUMP JUMPDEST DUP4 PUSH1 0x1 PUSH1 0x1 PUSH1 0xA0 SHL SUB AND PUSH32 0xE2403640BA68FED3A2F88B7557551D1993F84B99BB10FF833F0CF8DB0C5E0486 DUP3 PUSH1 0x40 MLOAD PUSH2 0x5F9 SWAP2 DUP2 MSTORE PUSH1 0x20 ADD SWAP1 JUMP JUMPDEST PUSH1 0x40 MLOAD DUP1 SWAP2 SUB SWAP1 LOG2 JUMPDEST DUP5 ISZERO PUSH2 0x692 JUMPI DUP5 DUP3 PUSH0 ADD PUSH0 DUP3 DUP3 SLOAD PUSH2 0x61A SWAP2 SWAP1 PUSH2 0x14F6 JUMP JUMPDEST SWAP1 SWAP2 SSTORE POP POP DUP3 SLOAD PUSH1 0x40 MLOAD PUSH4 0xA9059CBB PUSH1 0xE0 SHL DUP2 MSTORE PUSH1 0x1 PUSH1 0x1 PUSH1 0xA0 SHL SUB SWAP1 SWAP2 AND SWAP1 PUSH4 0xA9059CBB SWAP1 PUSH2 0x650 SWAP1 DUP8 SWAP1 DUP10 SWAP1 PUSH1 0x4 ADD PUSH2 0x1552 JUMP JUMPDEST PUSH1 0x20 PUSH1 0x40 MLOAD DUP1 DUP4 SUB DUP2 PUSH0 DUP8 GAS CALL ISZERO DUP1 ISZERO PUSH2 0x66C JUMPI RETURNDATASIZE PUSH0 PUSH0 RETURNDATACOPY RETURNDATASIZE PUSH0 REVERT JUMPDEST POP POP POP POP PUSH1 0x40 MLOAD RETURNDATASIZE PUSH1 0x1F NOT PUSH1 0x1F DUP3 ADD AND DUP3 ADD DUP1 PUSH1 0x40 MSTORE POP DUP2 ADD SWAP1 PUSH2 0x690 SWAP2 SWAP1 PUSH2 0x156B JUMP JUMPDEST POP JUMPDEST PUSH1 0x3 DUP4 ADD SLOAD DUP3 SLOAD PUSH8 0xDE0B6B3A7640000 SWAP2 PUSH2 0x6AC SWAP2 PUSH2 0x151C JUMP JUMPDEST PUSH2 0x6B6 SWAP2 SWAP1 PUSH2 0x1533 JUMP JUMPDEST PUSH1 0x1 DUP4 ADD SSTORE PUSH1 0x40 MLOAD DUP6 DUP2 MSTORE DUP7 SWAP1 PUSH1 0x1 PUSH1 0x1 PUSH1 0xA0 SHL SUB DUP7 AND SWAP1 PUSH32 0xF279E6A1F5E320CCA91135676D9CB6E44CA8A08C0B88342BCDB1144F6511B568 SWAP1 PUSH1 0x20 ADD PUSH1 0x40 MLOAD DUP1 SWAP2 SUB SWAP1 LOG3 POP POP POP POP POP POP JUMP JUMPDEST PUSH0 PUSH1 0x5 DUP3 DUP2 SLOAD DUP2 LT PUSH2 0x717 JUMPI PUSH2 0x717 PUSH2 0x14CE JUMP JUMPDEST SWAP1 PUSH0 MSTORE PUSH1 0x20 PUSH0 KECCAK256 SWAP1 PUSH1 0x6 MUL ADD SWAP1 POP DUP1 PUSH1 0x2 ADD SLOAD TIMESTAMP GT PUSH2 0x734 JUMPI POP POP JUMP JUMPDEST DUP1 SLOAD PUSH1 0x40 MLOAD PUSH4 0x70A08231 PUSH1 0xE0 SHL DUP2 MSTORE PUSH0 SWAP2 PUSH1 0x1 PUSH1 0x1 PUSH1 0xA0 SHL SUB AND SWAP1 PUSH4 0x70A08231 SWAP1 PUSH2 0x763 SWAP1 ADDRESS SWAP1 PUSH1 0x4 ADD PUSH2 0x13CB JUMP JUMPDEST PUSH1 0x20 PUSH1 0x40 MLOAD DUP1 DUP4 SUB DUP2 DUP7 GAS STATICCALL ISZERO DUP1 ISZERO PUSH2 0x77E JUMPI RETURNDATASIZE PUSH0 PUSH0 RETURNDATACOPY RETURNDATASIZE PUSH0 REVERT JUMPDEST POP POP POP POP PUSH1 0x40 MLOAD RETURNDATASIZE PUSH1 0x1F NOT PUSH1 0x1F DUP3 ADD AND DUP3 ADD DUP1 PUSH1 0x40 MSTORE POP DUP2 ADD SWAP1 PUSH2 0x7A2 SWAP2 SWAP1 PUSH2 0x1586 JUMP JUMPDEST SWAP1 POP DUP1 PUSH0 SUB PUSH2 0x7B6 JUMPI POP TIMESTAMP PUSH1 0x2 SWAP1 SWAP2 ADD SSTORE POP JUMP JUMPDEST PUSH1 0x4 DUP3 ADD SLOAD PUSH1 0xFF AND PUSH2 0x7EE JUMPI PUSH1 0x4 DUP3 ADD DUP1 SLOAD PUSH1 0xFF NOT AND PUSH1 0x1 SWAP1 DUP2 OR SWAP1 SWAP2 SSTORE DUP3 ADD SLOAD PUSH1 0x7 DUP1 SLOAD PUSH0 SWAP1 PUSH2 0x7E8 SWAP1 DUP5 SWAP1 PUSH2 0x1509 JUMP JUMPDEST SWAP1 SWAP2 SSTORE POP POP JUMPDEST PUSH1 0x7 SLOAD ISZERO PUSH2 0x85E JUMPI PUSH0 PUSH2 0x805 DUP4 PUSH1 0x2 ADD SLOAD TIMESTAMP PUSH2 0x43B JUMP JUMPDEST SWAP1 POP PUSH0 PUSH1 0x7 SLOAD DUP5 PUSH1 0x1 ADD SLOAD DUP4 PUSH2 0x81B SWAP2 SWAP1 PUSH2 0x151C JUMP JUMPDEST PUSH2 0x825 SWAP2 SWAP1 PUSH2 0x1533 JUMP JUMPDEST SWAP1 POP DUP3 PUSH2 0x83A DUP3 PUSH8 0xDE0B6B3A7640000 PUSH2 0x151C JUMP JUMPDEST PUSH2 0x844 SWAP2 SWAP1 PUSH2 0x1533 JUMP JUMPDEST DUP5 PUSH1 0x3 ADD PUSH0 DUP3 DUP3 SLOAD PUSH2 0x856 SWAP2 SWAP1 PUSH2 0x1509 JUMP JUMPDEST SWAP1 SWAP2 SSTORE POP POP POP POP JUMPDEST POP TIMESTAMP PUSH1 0x2 SWAP1 SWAP2 ADD SSTORE POP JUMP JUMPDEST PUSH0 PUSH1 0x5 DUP3 DUP2 SLOAD DUP2 LT PUSH2 0x87D JUMPI PUSH2 0x87D PUSH2 0x14CE JUMP JUMPDEST PUSH0 SWAP2 DUP3 MSTORE PUSH1 0x20 DUP1 DUP4 KECCAK256 DUP6 DUP5 MSTORE PUSH1 0x6 DUP1 DUP4 MSTORE PUSH1 0x40 DUP1 DUP7 KECCAK256 CALLER DUP1 DUP9 MSTORE SWAP5 MSTORE DUP1 DUP7 KECCAK256 DUP1 SLOAD DUP8 DUP3 SSTORE PUSH1 0x1 DUP3 ADD SWAP8 SWAP1 SWAP8 SSTORE SWAP2 SWAP1 SWAP5 MUL SWAP1 SWAP2 ADD DUP1 SLOAD SWAP4 MLOAD PUSH4 0xA9059CBB PUSH1 0xE0 SHL DUP2 MSTORE SWAP1 SWAP6 POP SWAP1 SWAP4 SWAP3 PUSH1 0x1 PUSH1 0x1 PUSH1 0xA0 SHL SUB AND SWAP2 PUSH4 0xA9059CBB SWAP2 PUSH2 0x8E3 SWAP2 SWAP1 DUP6 SWAP1 PUSH1 0x4 ADD PUSH2 0x1552 JUMP JUMPDEST PUSH1 0x20 PUSH1 0x40 MLOAD DUP1 DUP4 SUB DUP2 PUSH0 DUP8 GAS CALL ISZERO DUP1 ISZERO PUSH2 0x8FF JUMPI RETURNDATASIZE PUSH0 PUSH0 RETURNDATACOPY RETURNDATASIZE PUSH0 REVERT JUMPDEST POP POP POP POP PUSH1 0x40 MLOAD RETURNDATASIZE PUSH1 0x1F NOT PUSH1 0x1F DUP3 ADD AND DUP3 ADD DUP1 PUSH1 0x40 MSTORE POP DUP2 ADD SWAP1 PUSH2 0x923 SWAP2 SWAP1 PUSH2 0x156B JUMP JUMPDEST POP PUSH1 0x40 MLOAD DUP2 DUP2 MSTORE DUP5 SWAP1 CALLER SWAP1 PUSH32 0xBB757047C2B5F3974FE26B7C10F732E7BCE710B0952A71082702781E62AE0595 SWAP1 PUSH1 0x20 ADD PUSH1 0x40 MLOAD DUP1 SWAP2 SUB SWAP1 LOG3 POP POP POP POP JUMP JUMPDEST PUSH1 0x3 SLOAD PUSH1 0x1 PUSH1 0x1 PUSH1 0xA0 SHL SUB AND CALLER EQ PUSH2 0x98B JUMPI PUSH1 0x40 MLOAD PUSH3 0x461BCD PUSH1 0xE5 SHL DUP2 MSTORE PUSH1 0x4 ADD PUSH2 0x3CF SWAP1 PUSH2 0x1483 JUMP JUMPDEST PUSH1 0x9 SLOAD PUSH2 0x99B SWAP1 PUSH3 0x278D00 PUSH2 0x1509 JUMP JUMPDEST TIMESTAMP LT ISZERO PUSH2 0xA72 JUMPI PUSH1 0x4 SLOAD PUSH1 0x1 PUSH1 0x1 PUSH1 0xA0 SHL SUB SWAP1 DUP2 AND SWAP1 DUP5 AND SUB PUSH2 0x9E9 JUMPI PUSH1 0x40 MLOAD PUSH3 0x461BCD PUSH1 0xE5 SHL DUP2 MSTORE PUSH1 0x4 ADD PUSH2 0x3CF SWAP1 PUSH1 0x20 DUP1 DUP3 MSTORE PUSH1 0x4 SWAP1 DUP3 ADD MSTORE PUSH4 0x161D5CD9 PUSH1 0xE2 SHL PUSH1 0x40 DUP3 ADD MSTORE PUSH1 0x60 ADD SWAP1 JUMP JUMPDEST PUSH1 0x5 SLOAD PUSH0 JUMPDEST DUP2 DUP2 LT ISZERO PUSH2 0xA6F JUMPI PUSH0 PUSH1 0x5 DUP3 DUP2 SLOAD DUP2 LT PUSH2 0xA0A JUMPI PUSH2 0xA0A PUSH2 0x14CE JUMP JUMPDEST PUSH0 SWAP2 DUP3 MSTORE PUSH1 0x20 SWAP1 SWAP2 KECCAK256 PUSH1 0x6 SWAP1 SWAP2 MUL ADD DUP1 SLOAD SWAP1 SWAP2 POP PUSH1 0x1 PUSH1 0x1 PUSH1 0xA0 SHL SUB SWAP1 DUP2 AND SWAP1 DUP8 AND SUB PUSH2 0xA66 JUMPI PUSH1 0x40 MLOAD PUSH3 0x461BCD PUSH1 0xE5 SHL DUP2 MSTORE PUSH1 0x20 PUSH1 0x4 DUP3 ADD MSTORE PUSH1 0xA PUSH1 0x24 DUP3 ADD MSTORE PUSH10 0x3837B7B6173A37B5B2B7 PUSH1 0xB1 SHL PUSH1 0x44 DUP3 ADD MSTORE PUSH1 0x64 ADD PUSH2 0x3CF JUMP JUMPDEST POP PUSH1 0x1 ADD PUSH2 0x9EE JUMP JUMPDEST POP POP JUMPDEST PUSH1 0x40 MLOAD PUSH4 0xA9059CBB PUSH1 0xE0 SHL DUP2 MSTORE PUSH1 0x1 PUSH1 0x1 PUSH1 0xA0 SHL SUB DUP5 AND SWAP1 PUSH4 0xA9059CBB SWAP1 PUSH2 0xAA0 SWAP1 DUP5 SWAP1 DUP7 SWAP1 PUSH1 0x4 ADD PUSH2 0x1552 JUMP JUMPDEST PUSH1 0x20 PUSH1 0x40 MLOAD DUP1 DUP4 SUB DUP2 PUSH0 DUP8 GAS CALL ISZERO DUP1 ISZERO PUSH2 0xABC JUMPI RETURNDATASIZE PUSH0 PUSH0 RETURNDATACOPY RETURNDATASIZE PUSH0 REVERT JUMPDEST POP POP POP POP PUSH1 0x40 MLOAD RETURNDATASIZE PUSH1 0x1F NOT PUSH1 0x1F DUP3 ADD AND DUP3 ADD DUP1 PUSH1 0x40 MSTORE POP DUP2 ADD SWAP1 PUSH2 0xAE0 SWAP2 SWAP1 PUSH2 0x156B JUMP JUMPDEST POP POP POP POP JUMP JUMPDEST PUSH0 PUSH2 0x4D7 DUP2 DUP4 PUSH2 0x1244 JUMP JUMPDEST PUSH1 0x3 SLOAD PUSH1 0x1 PUSH1 0x1 PUSH1 0xA0 SHL SUB AND CALLER EQ PUSH2 0xB1B JUMPI PUSH1 0x40 MLOAD PUSH3 0x461BCD PUSH1 0xE5 SHL DUP2 MSTORE PUSH1 0x4 ADD PUSH2 0x3CF SWAP1 PUSH2 0x1483 JUMP JUMPDEST PUSH2 0xB24 DUP5 PUSH2 0x1256 JUMP JUMPDEST DUP3 ISZERO PUSH2 0xB32 JUMPI PUSH2 0xB32 PUSH2 0xD05 JUMP JUMPDEST PUSH1 0x8 SLOAD TIMESTAMP LT ISZERO PUSH2 0xB62 JUMPI DUP2 PUSH0 SUB PUSH2 0xB4D JUMPI PUSH1 0x8 SLOAD SWAP2 POP PUSH2 0xB77 JUMP JUMPDEST PUSH1 0x8 SLOAD DUP3 LT ISZERO PUSH2 0xB5D JUMPI PUSH1 0x8 SLOAD SWAP2 POP JUMPDEST PUSH2 0xB77 JUMP JUMPDEST DUP2 ISZERO DUP1 PUSH2 0xB6E JUMPI POP TIMESTAMP DUP3 LT JUMPDEST ISZERO PUSH2 0xB77 JUMPI TIMESTAMP SWAP2 POP JUMPDEST PUSH0 PUSH1 0x8 SLOAD DUP4 GT ISZERO DUP1 PUSH2 0xB89 JUMPI POP TIMESTAMP DUP4 GT ISZERO JUMPDEST PUSH1 0x40 DUP1 MLOAD PUSH1 0xC0 DUP2 ADD DUP3 MSTORE PUSH1 0x1 PUSH1 0x1 PUSH1 0xA0 SHL SUB DUP9 DUP2 AND DUP3 MSTORE PUSH1 0x20 DUP3 ADD DUP11 DUP2 MSTORE SWAP3 DUP3 ADD DUP8 DUP2 MSTORE PUSH0 PUSH1 0x60 DUP5 ADD DUP2 DUP2 MSTORE DUP7 ISZERO DUP1 ISZERO PUSH1 0x80 DUP8 ADD SWAP1 DUP2 MSTORE PUSH1 0xA0 DUP8 ADD DUP12 DUP2 MSTORE PUSH1 0x5 DUP1 SLOAD PUSH1 0x1 DUP2 ADD DUP3 SSTORE SWAP6 MSTORE SWAP7 MLOAD PUSH32 0x36B6384B5ECA791C62761152D0C79BB0604C104A5FB6F4EB0703F3154BB3DB0 PUSH1 0x6 SWAP1 SWAP6 MUL SWAP5 DUP6 ADD DUP1 SLOAD PUSH1 0x1 PUSH1 0x1 PUSH1 0xA0 SHL SUB NOT AND SWAP2 SWAP1 SWAP8 AND OR SWAP1 SWAP6 SSTORE SWAP6 MLOAD PUSH32 0x36B6384B5ECA791C62761152D0C79BB0604C104A5FB6F4EB0703F3154BB3DB1 DUP4 ADD SSTORE SWAP2 MLOAD PUSH32 0x36B6384B5ECA791C62761152D0C79BB0604C104A5FB6F4EB0703F3154BB3DB2 DUP3 ADD SSTORE SWAP1 MLOAD PUSH32 0x36B6384B5ECA791C62761152D0C79BB0604C104A5FB6F4EB0703F3154BB3DB3 DUP3 ADD SSTORE SWAP1 MLOAD PUSH32 0x36B6384B5ECA791C62761152D0C79BB0604C104A5FB6F4EB0703F3154BB3DB4 DUP3 ADD DUP1 SLOAD PUSH1 0xFF NOT AND SWAP2 ISZERO ISZERO SWAP2 SWAP1 SWAP2 OR SWAP1 SSTORE SWAP1 MLOAD PUSH32 0x36B6384B5ECA791C62761152D0C79BB0604C104A5FB6F4EB0703F3154BB3DB5 SWAP1 SWAP2 ADD SSTORE SWAP1 SWAP2 POP PUSH2 0xCFD JUMPI DUP6 PUSH1 0x7 PUSH0 DUP3 DUP3 SLOAD PUSH2 0xCF7 SWAP2 SWAP1 PUSH2 0x1509 JUMP JUMPDEST SWAP1 SWAP2 SSTORE POP POP JUMPDEST POP POP POP POP POP POP JUMP JUMPDEST PUSH1 0x5 SLOAD PUSH0 JUMPDEST DUP2 DUP2 LT ISZERO PUSH2 0xD23 JUMPI PUSH2 0xD1B DUP2 PUSH2 0x703 JUMP JUMPDEST PUSH1 0x1 ADD PUSH2 0xD0A JUMP JUMPDEST POP POP JUMP JUMPDEST PUSH0 PUSH0 PUSH1 0x5 DUP5 DUP2 SLOAD DUP2 LT PUSH2 0xD3C JUMPI PUSH2 0xD3C PUSH2 0x14CE JUMP JUMPDEST PUSH0 SWAP2 DUP3 MSTORE PUSH1 0x20 DUP1 DUP4 KECCAK256 DUP8 DUP5 MSTORE PUSH1 0x6 DUP1 DUP4 MSTORE PUSH1 0x40 DUP1 DUP7 KECCAK256 PUSH1 0x1 PUSH1 0x1 PUSH1 0xA0 SHL SUB DUP11 DUP2 AND DUP9 MSTORE SWAP5 MSTORE DUP1 DUP7 KECCAK256 SWAP5 SWAP1 SWAP2 MUL SWAP1 SWAP2 ADD PUSH1 0x3 DUP2 ADD SLOAD DUP2 SLOAD SWAP3 MLOAD PUSH4 0x70A08231 PUSH1 0xE0 SHL DUP2 MSTORE SWAP2 SWAP7 POP SWAP4 SWAP5 SWAP3 SWAP2 SWAP1 SWAP2 AND SWAP1 PUSH4 0x70A08231 SWAP1 PUSH2 0xD9D SWAP1 ADDRESS SWAP1 PUSH1 0x4 ADD PUSH2 0x13CB JUMP JUMPDEST PUSH1 0x20 PUSH1 0x40 MLOAD DUP1 DUP4 SUB DUP2 DUP7 GAS STATICCALL ISZERO DUP1 ISZERO PUSH2 0xDB8 JUMPI RETURNDATASIZE PUSH0 PUSH0 RETURNDATACOPY RETURNDATASIZE PUSH0 REVERT JUMPDEST POP POP POP POP PUSH1 0x40 MLOAD RETURNDATASIZE PUSH1 0x1F NOT PUSH1 0x1F DUP3 ADD AND DUP3 ADD DUP1 PUSH1 0x40 MSTORE POP DUP2 ADD SWAP1 PUSH2 0xDDC SWAP2 SWAP1 PUSH2 0x1586 JUMP JUMPDEST SWAP1 POP DUP4 PUSH1 0x2 ADD SLOAD TIMESTAMP GT DUP1 ISZERO PUSH2 0xDF0 JUMPI POP DUP1 ISZERO ISZERO JUMPDEST ISZERO PUSH2 0xE52 JUMPI PUSH0 PUSH2 0xE04 DUP6 PUSH1 0x2 ADD SLOAD TIMESTAMP PUSH2 0x43B JUMP JUMPDEST SWAP1 POP PUSH0 PUSH1 0x7 SLOAD DUP7 PUSH1 0x1 ADD SLOAD DUP4 PUSH2 0xE1A SWAP2 SWAP1 PUSH2 0x151C JUMP JUMPDEST PUSH2 0xE24 SWAP2 SWAP1 PUSH2 0x1533 JUMP JUMPDEST SWAP1 POP DUP3 PUSH2 0xE39 DUP3 PUSH8 0xDE0B6B3A7640000 PUSH2 0x151C JUMP JUMPDEST PUSH2 0xE43 SWAP2 SWAP1 PUSH2 0x1533 JUMP JUMPDEST PUSH2 0xE4D SWAP1 DUP6 PUSH2 0x1509 JUMP JUMPDEST SWAP4 POP POP POP JUMPDEST PUSH1 0x1 DUP4 ADD SLOAD DUP4 SLOAD PUSH8 0xDE0B6B3A7640000 SWAP1 PUSH2 0xE6E SWAP1 DUP6 SWAP1 PUSH2 0x151C JUMP JUMPDEST PUSH2 0xE78 SWAP2 SWAP1 PUSH2 0x1533 JUMP JUMPDEST PUSH2 0xE82 SWAP2 SWAP1 PUSH2 0x14F6 JUMP JUMPDEST SWAP8 SWAP7 POP POP POP POP POP POP POP JUMP JUMPDEST PUSH0 PUSH2 0xE97 PUSH0 PUSH2 0x12EE JUMP JUMPDEST SWAP1 POP SWAP1 JUMP JUMPDEST PUSH1 0x3 SLOAD PUSH1 0x1 PUSH1 0x1 PUSH1 0xA0 SHL SUB AND CALLER EQ PUSH2 0xEC6 JUMPI PUSH1 0x40 MLOAD PUSH3 0x461BCD PUSH1 0xE5 SHL DUP2 MSTORE PUSH1 0x4 ADD PUSH2 0x3CF SWAP1 PUSH2 0x1483 JUMP JUMPDEST PUSH1 0x3 DUP1 SLOAD PUSH1 0x1 PUSH1 0x1 PUSH1 0xA0 SHL SUB NOT AND PUSH1 0x1 PUSH1 0x1 PUSH1 0xA0 SHL SUB SWAP3 SWAP1 SWAP3 AND SWAP2 SWAP1 SWAP2 OR SWAP1 SSTORE JUMP JUMPDEST PUSH0 CALLER SWAP1 POP PUSH0 PUSH1 0x5 DUP5 DUP2 SLOAD DUP2 LT PUSH2 0xF00 JUMPI PUSH2 0xF00 PUSH2 0x14CE JUMP JUMPDEST PUSH0 SWAP2 DUP3 MSTORE PUSH1 0x20 DUP1 DUP4 KECCAK256 DUP8 DUP5 MSTORE PUSH1 0x6 DUP1 DUP4 MSTORE PUSH1 0x40 DUP1 DUP7 KECCAK256 PUSH1 0x1 PUSH1 0x1 PUSH1 0xA0 SHL SUB DUP10 AND DUP8 MSTORE SWAP1 SWAP4 MSTORE SWAP2 SWAP1 SWAP4 KECCAK256 SWAP2 MUL SWAP1 SWAP2 ADD SWAP2 POP PUSH2 0xF39 DUP6 PUSH2 0x703 JUMP JUMPDEST DUP1 SLOAD ISZERO PUSH2 0xFCE JUMPI PUSH0 DUP2 PUSH1 0x1 ADD SLOAD PUSH8 0xDE0B6B3A7640000 DUP5 PUSH1 0x3 ADD SLOAD DUP5 PUSH0 ADD SLOAD PUSH2 0xF62 SWAP2 SWAP1 PUSH2 0x151C JUMP JUMPDEST PUSH2 0xF6C SWAP2 SWAP1 PUSH2 0x1533 JUMP JUMPDEST PUSH2 0xF76 SWAP2 SWAP1 PUSH2 0x14F6 JUMP JUMPDEST SWAP1 POP DUP1 ISZERO PUSH2 0xFCC JUMPI PUSH2 0xF88 DUP5 DUP3 PUSH2 0x115D JUMP JUMPDEST DUP4 PUSH1 0x1 PUSH1 0x1 PUSH1 0xA0 SHL SUB AND PUSH32 0xE2403640BA68FED3A2F88B7557551D1993F84B99BB10FF833F0CF8DB0C5E0486 DUP3 PUSH1 0x40 MLOAD PUSH2 0xFC3 SWAP2 DUP2 MSTORE PUSH1 0x20 ADD SWAP1 JUMP JUMPDEST PUSH1 0x40 MLOAD DUP1 SWAP2 SUB SWAP1 LOG2 JUMPDEST POP JUMPDEST DUP1 SLOAD PUSH1 0x5 DUP4 ADD SLOAD PUSH0 SWAP2 PUSH2 0xFE0 SWAP2 PUSH2 0x14F6 JUMP JUMPDEST SWAP1 POP PUSH0 DUP2 DUP7 GT PUSH2 0xFF0 JUMPI DUP6 PUSH2 0xFF2 JUMP JUMPDEST DUP2 JUMPDEST SWAP1 POP DUP1 ISZERO PUSH2 0x10EB JUMPI DUP4 SLOAD PUSH1 0x40 MLOAD PUSH4 0x23B872DD PUSH1 0xE0 SHL DUP2 MSTORE PUSH1 0x1 PUSH1 0x1 PUSH1 0xA0 SHL SUB DUP8 DUP2 AND PUSH1 0x4 DUP4 ADD MSTORE ADDRESS PUSH1 0x24 DUP4 ADD MSTORE PUSH1 0x44 DUP3 ADD DUP5 SWAP1 MSTORE SWAP1 SWAP2 AND SWAP1 PUSH4 0x23B872DD SWAP1 PUSH1 0x64 ADD PUSH1 0x20 PUSH1 0x40 MLOAD DUP1 DUP4 SUB DUP2 PUSH0 DUP8 GAS CALL ISZERO DUP1 ISZERO PUSH2 0x104F JUMPI RETURNDATASIZE PUSH0 PUSH0 RETURNDATACOPY RETURNDATASIZE PUSH0 REVERT JUMPDEST POP POP POP POP PUSH1 0x40 MLOAD RETURNDATASIZE PUSH1 0x1F NOT PUSH1 0x1F DUP3 ADD AND DUP3 ADD DUP1 PUSH1 0x40 MSTORE POP DUP2 ADD SWAP1 PUSH2 0x1073 SWAP2 SWAP1 PUSH2 0x156B JUMP JUMPDEST POP DUP4 SLOAD PUSH2 0x108A SWAP1 PUSH0 SWAP1 PUSH1 0x1 PUSH1 0x1 PUSH1 0xA0 SHL SUB AND PUSH2 0x12F7 JUMP JUMPDEST ISZERO PUSH2 0x10D3 JUMPI PUSH1 0x2 SLOAD PUSH2 0x2710 SWAP1 DUP2 SWAP1 PUSH2 0x10A2 SWAP1 DUP3 PUSH2 0x14F6 JUMP JUMPDEST PUSH2 0x10AC SWAP1 DUP5 PUSH2 0x151C JUMP JUMPDEST PUSH2 0x10B6 SWAP2 SWAP1 PUSH2 0x1533 JUMP JUMPDEST DUP5 PUSH0 ADD PUSH0 DUP3 DUP3 SLOAD PUSH2 0x10C7 SWAP2 SWAP1 PUSH2 0x1509 JUMP JUMPDEST SWAP1 SWAP2 SSTORE POP PUSH2 0x10EB SWAP2 POP POP JUMP JUMPDEST DUP1 DUP4 PUSH0 ADD PUSH0 DUP3 DUP3 SLOAD PUSH2 0x10E5 SWAP2 SWAP1 PUSH2 0x1509 JUMP JUMPDEST SWAP1 SWAP2 SSTORE POP POP JUMPDEST PUSH1 0x3 DUP5 ADD SLOAD DUP4 SLOAD PUSH8 0xDE0B6B3A7640000 SWAP2 PUSH2 0x1105 SWAP2 PUSH2 0x151C JUMP JUMPDEST PUSH2 0x110F SWAP2 SWAP1 PUSH2 0x1533 JUMP JUMPDEST PUSH1 0x1 DUP5 ADD SSTORE PUSH1 0x40 MLOAD DUP2 DUP2 MSTORE DUP8 SWAP1 PUSH1 0x1 PUSH1 0x1 PUSH1 0xA0 SHL SUB DUP8 AND SWAP1 PUSH32 0x90890809C654F11D6E72A28FA60149770A0D11EC6C92319D6CEB2BB0A4EA1A15 SWAP1 PUSH1 0x20 ADD PUSH1 0x40 MLOAD DUP1 SWAP2 SUB SWAP1 LOG3 POP POP POP POP POP POP POP JUMP JUMPDEST PUSH1 0x4 DUP1 SLOAD PUSH1 0x40 MLOAD PUSH4 0x70A08231 PUSH1 0xE0 SHL DUP2 MSTORE PUSH0 SWAP3 PUSH1 0x1 PUSH1 0x1 PUSH1 0xA0 SHL SUB SWAP1 SWAP3 AND SWAP2 PUSH4 0x70A08231 SWAP2 PUSH2 0x118E SWAP2 ADDRESS SWAP2 ADD PUSH2 0x13CB JUMP JUMPDEST PUSH1 0x20 PUSH1 0x40 MLOAD DUP1 DUP4 SUB DUP2 DUP7 GAS STATICCALL ISZERO DUP1 ISZERO PUSH2 0x11A9 JUMPI RETURNDATASIZE PUSH0 PUSH0 RETURNDATACOPY RETURNDATASIZE PUSH0 REVERT JUMPDEST POP POP POP POP PUSH1 0x40 MLOAD RETURNDATASIZE PUSH1 0x1F NOT PUSH1 0x1F DUP3 ADD AND DUP3 ADD DUP1 PUSH1 0x40 MSTORE POP DUP2 ADD SWAP1 PUSH2 0x11CD SWAP2 SWAP1 PUSH2 0x1586 JUMP JUMPDEST SWAP1 POP DUP1 ISZERO PUSH2 0x123F JUMPI DUP1 DUP3 GT ISZERO PUSH2 0x120E JUMPI PUSH1 0x4 DUP1 SLOAD PUSH1 0x40 MLOAD PUSH4 0xA9059CBB PUSH1 0xE0 SHL DUP2 MSTORE PUSH1 0x1 PUSH1 0x1 PUSH1 0xA0 SHL SUB SWAP1 SWAP2 AND SWAP2 PUSH4 0xA9059CBB SWAP2 PUSH2 0xAA0 SWAP2 DUP8 SWAP2 DUP7 SWAP2 ADD PUSH2 0x1552 JUMP JUMPDEST PUSH1 0x4 DUP1 SLOAD PUSH1 0x40 MLOAD PUSH4 0xA9059CBB PUSH1 0xE0 SHL DUP2 MSTORE PUSH1 0x1 PUSH1 0x1 PUSH1 0xA0 SHL SUB SWAP1 SWAP2 AND SWAP2 PUSH4 0xA9059CBB SWAP2 PUSH2 0xAA0 SWAP2 DUP8 SWAP2 DUP8 SWAP2 ADD PUSH2 0x1552 JUMP JUMPDEST POP POP POP JUMP JUMPDEST PUSH0 PUSH2 0x124F DUP4 DUP4 PUSH2 0x1318 JUMP JUMPDEST SWAP4 SWAP3 POP POP POP JUMP JUMPDEST PUSH1 0x5 SLOAD PUSH0 JUMPDEST DUP2 DUP2 LT ISZERO PUSH2 0x123F JUMPI DUP3 PUSH1 0x1 PUSH1 0x1 PUSH1 0xA0 SHL SUB AND PUSH1 0x5 DUP3 DUP2 SLOAD DUP2 LT PUSH2 0x1280 JUMPI PUSH2 0x1280 PUSH2 0x14CE JUMP JUMPDEST PUSH0 SWAP2 DUP3 MSTORE PUSH1 0x20 SWAP1 SWAP2 KECCAK256 PUSH1 0x6 SWAP1 SWAP2 MUL ADD SLOAD PUSH1 0x1 PUSH1 0x1 PUSH1 0xA0 SHL SUB AND SUB PUSH2 0x12E6 JUMPI PUSH1 0x40 MLOAD PUSH3 0x461BCD PUSH1 0xE5 SHL DUP2 MSTORE PUSH1 0x20 PUSH1 0x4 DUP3 ADD MSTORE PUSH1 0x1F PUSH1 0x24 DUP3 ADD MSTORE PUSH32 0x5875736447656E65736973506F6F6C3A206578697374696E6720706F6F6C3F00 PUSH1 0x44 DUP3 ADD MSTORE PUSH1 0x64 ADD PUSH2 0x3CF JUMP JUMPDEST PUSH1 0x1 ADD PUSH2 0x125B JUMP JUMPDEST PUSH0 PUSH2 0x4D7 DUP3 SLOAD SWAP1 JUMP JUMPDEST PUSH1 0x1 PUSH1 0x1 PUSH1 0xA0 SHL SUB DUP2 AND PUSH0 SWAP1 DUP2 MSTORE PUSH1 0x1 DUP4 ADD PUSH1 0x20 MSTORE PUSH1 0x40 DUP2 KECCAK256 SLOAD ISZERO ISZERO PUSH2 0x124F JUMP JUMPDEST PUSH0 DUP3 PUSH0 ADD DUP3 DUP2 SLOAD DUP2 LT PUSH2 0x132D JUMPI PUSH2 0x132D PUSH2 0x14CE JUMP JUMPDEST SWAP1 PUSH0 MSTORE PUSH1 0x20 PUSH0 KECCAK256 ADD SLOAD SWAP1 POP SWAP3 SWAP2 POP POP JUMP JUMPDEST PUSH0 PUSH1 0x20 DUP3 DUP5 SUB SLT ISZERO PUSH2 0x134E JUMPI PUSH0 PUSH0 REVERT JUMPDEST POP CALLDATALOAD SWAP2 SWAP1 POP JUMP JUMPDEST PUSH0 PUSH0 PUSH1 0x40 DUP4 DUP6 SUB SLT ISZERO PUSH2 0x1366 JUMPI PUSH0 PUSH0 REVERT JUMPDEST POP POP DUP1 CALLDATALOAD SWAP3 PUSH1 0x20 SWAP1 SWAP2 ADD CALLDATALOAD SWAP2 POP JUMP JUMPDEST PUSH1 0x1 PUSH1 0x1 PUSH1 0xA0 SHL SUB DUP2 AND DUP2 EQ PUSH2 0x1389 JUMPI PUSH0 PUSH0 REVERT JUMPDEST POP JUMP JUMPDEST PUSH0 PUSH0 PUSH0 PUSH1 0x60 DUP5 DUP7 SUB SLT ISZERO PUSH2 0x139E JUMPI PUSH0 PUSH0 REVERT JUMPDEST DUP4 CALLDATALOAD PUSH2 0x13A9 DUP2 PUSH2 0x1375 JUMP JUMPDEST SWAP3 POP PUSH1 0x20 DUP5 ADD CALLDATALOAD SWAP2 POP PUSH1 0x40 DUP5 ADD CALLDATALOAD PUSH2 0x13C0 DUP2 PUSH2 0x1375 JUMP JUMPDEST DUP1 SWAP2 POP POP SWAP3 POP SWAP3 POP SWAP3 JUMP JUMPDEST PUSH1 0x1 PUSH1 0x1 PUSH1 0xA0 SHL SUB SWAP2 SWAP1 SWAP2 AND DUP2 MSTORE PUSH1 0x20 ADD SWAP1 JUMP JUMPDEST DUP1 ISZERO ISZERO DUP2 EQ PUSH2 0x1389 JUMPI PUSH0 PUSH0 REVERT JUMPDEST PUSH0 PUSH0 PUSH0 PUSH0 PUSH0 PUSH1 0xA0 DUP7 DUP9 SUB SLT ISZERO PUSH2 0x1400 JUMPI PUSH0 PUSH0 REVERT JUMPDEST DUP6 CALLDATALOAD SWAP5 POP PUSH1 0x20 DUP7 ADD CALLDATALOAD PUSH2 0x1412 DUP2 PUSH2 0x1375 JUMP JUMPDEST SWAP4 POP PUSH1 0x40 DUP7 ADD CALLDATALOAD PUSH2 0x1422 DUP2 PUSH2 0x13DF JUMP JUMPDEST SWAP5 SWAP8 SWAP4 SWAP7 POP SWAP4 SWAP5 PUSH1 0x60 DUP2 ADD CALLDATALOAD SWAP5 POP PUSH1 0x80 ADD CALLDATALOAD SWAP3 SWAP2 POP POP JUMP JUMPDEST PUSH0 PUSH0 PUSH1 0x40 DUP4 DUP6 SUB SLT ISZERO PUSH2 0x144B JUMPI PUSH0 PUSH0 REVERT JUMPDEST DUP3 CALLDATALOAD SWAP2 POP PUSH1 0x20 DUP4 ADD CALLDATALOAD PUSH2 0x145D DUP2 PUSH2 0x1375 JUMP JUMPDEST DUP1 SWAP2 POP POP SWAP3 POP SWAP3 SWAP1 POP JUMP JUMPDEST PUSH0 PUSH1 0x20 DUP3 DUP5 SUB SLT ISZERO PUSH2 0x1478 JUMPI PUSH0 PUSH0 REVERT JUMPDEST DUP2 CALLDATALOAD PUSH2 0x124F DUP2 PUSH2 0x1375 JUMP JUMPDEST PUSH1 0x20 DUP1 DUP3 MSTORE PUSH1 0x2B SWAP1 DUP3 ADD MSTORE PUSH32 0x5875736447656E65736973506F6F6C3A2063616C6C6572206973206E6F742074 PUSH1 0x40 DUP3 ADD MSTORE PUSH11 0x34329037B832B930BA37B9 PUSH1 0xA9 SHL PUSH1 0x60 DUP3 ADD MSTORE PUSH1 0x80 ADD SWAP1 JUMP JUMPDEST PUSH4 0x4E487B71 PUSH1 0xE0 SHL PUSH0 MSTORE PUSH1 0x32 PUSH1 0x4 MSTORE PUSH1 0x24 PUSH0 REVERT JUMPDEST PUSH4 0x4E487B71 PUSH1 0xE0 SHL PUSH0 MSTORE PUSH1 0x11 PUSH1 0x4 MSTORE PUSH1 0x24 PUSH0 REVERT JUMPDEST DUP2 DUP2 SUB DUP2 DUP2 GT ISZERO PUSH2 0x4D7 JUMPI PUSH2 0x4D7 PUSH2 0x14E2 JUMP JUMPDEST DUP1 DUP3 ADD DUP1 DUP3 GT ISZERO PUSH2 0x4D7 JUMPI PUSH2 0x4D7 PUSH2 0x14E2 JUMP JUMPDEST DUP1 DUP3 MUL DUP2 ISZERO DUP3 DUP3 DIV DUP5 EQ OR PUSH2 0x4D7 JUMPI PUSH2 0x4D7 PUSH2 0x14E2 JUMP JUMPDEST PUSH0 DUP3 PUSH2 0x154D JUMPI PUSH4 0x4E487B71 PUSH1 0xE0 SHL PUSH0 MSTORE PUSH1 0x12 PUSH1 0x4 MSTORE PUSH1 0x24 PUSH0 REVERT JUMPDEST POP DIV SWAP1 JUMP JUMPDEST PUSH1 0x1 PUSH1 0x1 PUSH1 0xA0 SHL SUB SWAP3 SWAP1 SWAP3 AND DUP3 MSTORE PUSH1 0x20 DUP3 ADD MSTORE PUSH1 0x40 ADD SWAP1 JUMP JUMPDEST PUSH0 PUSH1 0x20 DUP3 DUP5 SUB SLT ISZERO PUSH2 0x157B JUMPI PUSH0 PUSH0 REVERT JUMPDEST DUP2 MLOAD PUSH2 0x124F DUP2 PUSH2 0x13DF JUMP JUMPDEST PUSH0 PUSH1 0x20 DUP3 DUP5 SUB SLT ISZERO PUSH2 0x1596 JUMPI PUSH0 PUSH0 REVERT JUMPDEST POP MLOAD SWAP2 SWAP1 POP JUMP INVALID LOG2 PUSH5 0x6970667358 0x22 SLT KECCAK256 0xE3 SWAP12 PUSH12 0xA85B135184ADEF6900236C7E DUP14 SWAP6 RETURNDATACOPY 0xB4 EXP 0xC5 PUSH23 0x770644FB1D557B358BCF64736F6C634300081B00330000 "
				},
				"gasEstimates": {
					"creation": {
						"codeDepositCost": "1117400",
						"executionCost": "infinite",
						"totalCost": "infinite"
					},
					"external": {
						"Xusd()": "2492",
						"XusdPerSecond()": "2328",
						"add(uint256,address,bool,uint256,uint256)": "infinite",
						"comissionPercent()": "2394",
						"comissionToken(uint256)": "4843",
						"comissionTokensCount()": "2377",
						"deposit(uint256,uint256)": "infinite",
						"emergencyWithdraw(uint256)": "infinite",
						"getGeneratedReward(uint256,uint256)": "infinite",
						"governanceRecoverUnsupported(address,uint256,address)": "infinite",
						"massUpdatePools()": "infinite",
						"operator()": "2449",
						"pendingXusd(uint256,address)": "infinite",
						"poolEndTime()": "2394",
						"poolInfo(uint256)": "15357",
						"poolStartTime()": "2306",
						"runningTime()": "2349",
						"set(uint256,uint256)": "infinite",
						"setOperator(address)": "26791",
						"totalAllocPoint()": "2351",
						"totalRewards()": "2307",
						"updatePool(uint256)": "infinite",
						"userInfo(uint256,address)": "4795",
						"withdraw(uint256,uint256)": "infinite"
					},
					"internal": {
						"checkPoolDuplicate(contract IERC20)": "infinite",
						"safeXusdTransfer(address,uint256)": "infinite"
					}
				},
				"methodIdentifiers": {
					"Xusd()": "f25bb865",
					"XusdPerSecond()": "628b409f",
					"add(uint256,address,bool,uint256,uint256)": "62e006c7",
					"comissionPercent()": "5715f8f9",
					"comissionToken(uint256)": "5b142956",
					"comissionTokensCount()": "92fae48d",
					"deposit(uint256,uint256)": "e2bbb158",
					"emergencyWithdraw(uint256)": "5312ea8e",
					"getGeneratedReward(uint256,uint256)": "231f0c6a",
					"governanceRecoverUnsupported(address,uint256,address)": "54575af4",
					"massUpdatePools()": "630b5ba1",
					"operator()": "570ca735",
					"pendingXusd(uint256,address)": "7805583c",
					"poolEndTime()": "6e271dd5",
					"poolInfo(uint256)": "1526fe27",
					"poolStartTime()": "5f96dc11",
					"runningTime()": "943f013d",
					"set(uint256,uint256)": "1ab06ee5",
					"setOperator(address)": "b3ab15fb",
					"totalAllocPoint()": "17caf6f1",
					"totalRewards()": "0e15561a",
					"updatePool(uint256)": "51eb05a6",
					"userInfo(uint256,address)": "93f1a40b",
					"withdraw(uint256,uint256)": "441a3e70"
				}
			},
			"storageLayout": {
				"storage": [
					{
						"astId": 1428,
						"contract": "contracts/staking.sol:XusdGenesisRewardPool",
						"label": "_comissionTokens",
						"offset": 0,
						"slot": "0",
						"type": "t_struct(AddressSet)1111_storage"
					},
					{
						"astId": 1430,
						"contract": "contracts/staking.sol:XusdGenesisRewardPool",
						"label": "comissionPercent",
						"offset": 0,
						"slot": "2",
						"type": "t_uint256"
					},
					{
						"astId": 1432,
						"contract": "contracts/staking.sol:XusdGenesisRewardPool",
						"label": "operator",
						"offset": 0,
						"slot": "3",
						"type": "t_address"
					},
					{
						"astId": 1435,
						"contract": "contracts/staking.sol:XusdGenesisRewardPool",
						"label": "Xusd",
						"offset": 0,
						"slot": "4",
						"type": "t_contract(IERC20)729"
					},
					{
						"astId": 1439,
						"contract": "contracts/staking.sol:XusdGenesisRewardPool",
						"label": "poolInfo",
						"offset": 0,
						"slot": "5",
						"type": "t_array(t_struct(PoolInfo)1425_storage)dyn_storage"
					},
					{
						"astId": 1446,
						"contract": "contracts/staking.sol:XusdGenesisRewardPool",
						"label": "userInfo",
						"offset": 0,
						"slot": "6",
						"type": "t_mapping(t_uint256,t_mapping(t_address,t_struct(UserInfo)1411_storage))"
					},
					{
						"astId": 1449,
						"contract": "contracts/staking.sol:XusdGenesisRewardPool",
						"label": "totalAllocPoint",
						"offset": 0,
						"slot": "7",
						"type": "t_uint256"
					},
					{
						"astId": 1451,
						"contract": "contracts/staking.sol:XusdGenesisRewardPool",
						"label": "poolStartTime",
						"offset": 0,
						"slot": "8",
						"type": "t_uint256"
					},
					{
						"astId": 1453,
						"contract": "contracts/staking.sol:XusdGenesisRewardPool",
						"label": "poolEndTime",
						"offset": 0,
						"slot": "9",
						"type": "t_uint256"
					},
					{
						"astId": 1455,
						"contract": "contracts/staking.sol:XusdGenesisRewardPool",
						"label": "XusdPerSecond",
						"offset": 0,
						"slot": "10",
						"type": "t_uint256"
					},
					{
						"astId": 1457,
						"contract": "contracts/staking.sol:XusdGenesisRewardPool",
						"label": "runningTime",
						"offset": 0,
						"slot": "11",
						"type": "t_uint256"
					},
					{
						"astId": 1459,
						"contract": "contracts/staking.sol:XusdGenesisRewardPool",
						"label": "totalRewards",
						"offset": 0,
						"slot": "12",
						"type": "t_uint256"
					}
				],
				"types": {
					"t_address": {
						"encoding": "inplace",
						"label": "address",
						"numberOfBytes": "20"
					},
					"t_array(t_bytes32)dyn_storage": {
						"base": "t_bytes32",
						"encoding": "dynamic_array",
						"label": "bytes32[]",
						"numberOfBytes": "32"
					},
					"t_array(t_struct(PoolInfo)1425_storage)dyn_storage": {
						"base": "t_struct(PoolInfo)1425_storage",
						"encoding": "dynamic_array",
						"label": "struct XusdGenesisRewardPool.PoolInfo[]",
						"numberOfBytes": "32"
					},
					"t_bool": {
						"encoding": "inplace",
						"label": "bool",
						"numberOfBytes": "1"
					},
					"t_bytes32": {
						"encoding": "inplace",
						"label": "bytes32",
						"numberOfBytes": "32"
					},
					"t_contract(IERC20)729": {
						"encoding": "inplace",
						"label": "contract IERC20",
						"numberOfBytes": "20"
					},
					"t_mapping(t_address,t_struct(UserInfo)1411_storage)": {
						"encoding": "mapping",
						"key": "t_address",
						"label": "mapping(address => struct XusdGenesisRewardPool.UserInfo)",
						"numberOfBytes": "32",
						"value": "t_struct(UserInfo)1411_storage"
					},
					"t_mapping(t_bytes32,t_uint256)": {
						"encoding": "mapping",
						"key": "t_bytes32",
						"label": "mapping(bytes32 => uint256)",
						"numberOfBytes": "32",
						"value": "t_uint256"
					},
					"t_mapping(t_uint256,t_mapping(t_address,t_struct(UserInfo)1411_storage))": {
						"encoding": "mapping",
						"key": "t_uint256",
						"label": "mapping(uint256 => mapping(address => struct XusdGenesisRewardPool.UserInfo))",
						"numberOfBytes": "32",
						"value": "t_mapping(t_address,t_struct(UserInfo)1411_storage)"
					},
					"t_struct(AddressSet)1111_storage": {
						"encoding": "inplace",
						"label": "struct EnumerableSet.AddressSet",
						"members": [
							{
								"astId": 1110,
								"contract": "contracts/staking.sol:XusdGenesisRewardPool",
								"label": "_inner",
								"offset": 0,
								"slot": "0",
								"type": "t_struct(Set)796_storage"
							}
						],
						"numberOfBytes": "64"
					},
					"t_struct(PoolInfo)1425_storage": {
						"encoding": "inplace",
						"label": "struct XusdGenesisRewardPool.PoolInfo",
						"members": [
							{
								"astId": 1414,
								"contract": "contracts/staking.sol:XusdGenesisRewardPool",
								"label": "token",
								"offset": 0,
								"slot": "0",
								"type": "t_contract(IERC20)729"
							},
							{
								"astId": 1416,
								"contract": "contracts/staking.sol:XusdGenesisRewardPool",
								"label": "allocPoint",
								"offset": 0,
								"slot": "1",
								"type": "t_uint256"
							},
							{
								"astId": 1418,
								"contract": "contracts/staking.sol:XusdGenesisRewardPool",
								"label": "lastRewardTime",
								"offset": 0,
								"slot": "2",
								"type": "t_uint256"
							},
							{
								"astId": 1420,
								"contract": "contracts/staking.sol:XusdGenesisRewardPool",
								"label": "accXusdPerShare",
								"offset": 0,
								"slot": "3",
								"type": "t_uint256"
							},
							{
								"astId": 1422,
								"contract": "contracts/staking.sol:XusdGenesisRewardPool",
								"label": "isStarted",
								"offset": 0,
								"slot": "4",
								"type": "t_bool"
							},
							{
								"astId": 1424,
								"contract": "contracts/staking.sol:XusdGenesisRewardPool",
								"label": "maxDeposit",
								"offset": 0,
								"slot": "5",
								"type": "t_uint256"
							}
						],
						"numberOfBytes": "192"
					},
					"t_struct(Set)796_storage": {
						"encoding": "inplace",
						"label": "struct EnumerableSet.Set",
						"members": [
							{
								"astId": 791,
								"contract": "contracts/staking.sol:XusdGenesisRewardPool",
								"label": "_values",
								"offset": 0,
								"slot": "0",
								"type": "t_array(t_bytes32)dyn_storage"
							},
							{
								"astId": 795,
								"contract": "contracts/staking.sol:XusdGenesisRewardPool",
								"label": "_positions",
								"offset": 0,
								"slot": "1",
								"type": "t_mapping(t_bytes32,t_uint256)"
							}
						],
						"numberOfBytes": "64"
					},
					"t_struct(UserInfo)1411_storage": {
						"encoding": "inplace",
						"label": "struct XusdGenesisRewardPool.UserInfo",
						"members": [
							{
								"astId": 1408,
								"contract": "contracts/staking.sol:XusdGenesisRewardPool",
								"label": "amount",
								"offset": 0,
								"slot": "0",
								"type": "t_uint256"
							},
							{
								"astId": 1410,
								"contract": "contracts/staking.sol:XusdGenesisRewardPool",
								"label": "rewardDebt",
								"offset": 0,
								"slot": "1",
								"type": "t_uint256"
							}
						],
						"numberOfBytes": "64"
					},
					"t_uint256": {
						"encoding": "inplace",
						"label": "uint256",
						"numberOfBytes": "32"
					}
				}
			},
			"userdoc": {
				"kind": "user",
				"methods": {},
				"version": 1
			}
		}
	}
}