{
	"contracts/Classes/randomizedVibeCalculator.sol": {
		"RandomizedVibeCalculator": {
			"abi": [
				{
					"inputs": [
						{
							"internalType": "int256",
							"name": "_minRateBasisPoints",
							"type": "int256"
						},
						{
							"internalType": "int256",
							"name": "_maxRateBasisPoints",
							"type": "int256"
						},
						{
							"components": [
								{
									"internalType": "address",
									"name": "creatorAddress",
									"type": "address"
								},
								{
									"internalType": "string",
									"name": "info",
									"type": "string"
								},
								{
									"internalType": "enum VibeBase.Importance",
									"name": "level",
									"type": "uint8"
								}
							],
							"internalType": "struct VibeBase.VibeInfo",
							"name": "_description",
							"type": "tuple"
						},
						{
							"internalType": "address",
							"name": "_access",
							"type": "address"
						}
					],
					"stateMutability": "nonpayable",
					"type": "constructor"
				},
				{
					"inputs": [],
					"name": "Description",
					"outputs": [
						{
							"internalType": "string",
							"name": "",
							"type": "string"
						}
					],
					"stateMutability": "view",
					"type": "function"
				},
				{
					"inputs": [
						{
							"internalType": "uint256",
							"name": "",
							"type": "uint256"
						}
					],
					"name": "UserActiveList",
					"outputs": [
						{
							"internalType": "bool",
							"name": "",
							"type": "bool"
						}
					],
					"stateMutability": "view",
					"type": "function"
				},
				{
					"inputs": [
						{
							"internalType": "address",
							"name": "addy",
							"type": "address"
						},
						{
							"internalType": "uint256",
							"name": "amount",
							"type": "uint256"
						}
					],
					"name": "calculateTotalBasisFee",
					"outputs": [
						{
							"internalType": "int256",
							"name": "",
							"type": "int256"
						},
						{
							"internalType": "uint256",
							"name": "",
							"type": "uint256"
						}
					],
					"stateMutability": "view",
					"type": "function"
				},
				{
					"inputs": [],
					"name": "description",
					"outputs": [
						{
							"internalType": "string",
							"name": "",
							"type": "string"
						}
					],
					"stateMutability": "view",
					"type": "function"
				},
				{
					"inputs": [],
					"name": "getDescription",
					"outputs": [
						{
							"internalType": "string",
							"name": "",
							"type": "string"
						}
					],
					"stateMutability": "view",
					"type": "function"
				},
				{
					"inputs": [],
					"name": "getLevel",
					"outputs": [
						{
							"internalType": "enum VibeBase.Importance",
							"name": "",
							"type": "uint8"
						}
					],
					"stateMutability": "view",
					"type": "function"
				},
				{
					"inputs": [],
					"name": "id",
					"outputs": [
						{
							"internalType": "address",
							"name": "creatorAddress",
							"type": "address"
						},
						{
							"internalType": "string",
							"name": "info",
							"type": "string"
						},
						{
							"internalType": "enum VibeBase.Importance",
							"name": "level",
							"type": "uint8"
						}
					],
					"stateMutability": "view",
					"type": "function"
				},
				{
					"inputs": [],
					"name": "maxRateBasisPoints",
					"outputs": [
						{
							"internalType": "int256",
							"name": "",
							"type": "int256"
						}
					],
					"stateMutability": "view",
					"type": "function"
				},
				{
					"inputs": [],
					"name": "minRateBasisPoints",
					"outputs": [
						{
							"internalType": "int256",
							"name": "",
							"type": "int256"
						}
					],
					"stateMutability": "view",
					"type": "function"
				},
				{
					"inputs": [
						{
							"internalType": "enum VibeBase.Importance",
							"name": "level",
							"type": "uint8"
						}
					],
					"name": "setBaseImportance",
					"outputs": [],
					"stateMutability": "nonpayable",
					"type": "function"
				}
			],
			"devdoc": {
				"details": "A vibe calculator that applies a random vibe rate within a specified range.",
				"kind": "dev",
				"methods": {
					"constructor": {
						"details": "Constructor to set the range for the random vibe rate.",
						"params": {
							"_maxRateBasisPoints": "The maximum vibe rate in basis points.",
							"_minRateBasisPoints": "The minimum vibe rate in basis points."
						}
					}
				},
				"title": "RandomizedVibeCalculator",
				"version": 1
			},
			"evm": {
				"assembly": "    /* \"contracts/Classes/randomizedVibeCalculator.sol\":242:1298  contract RandomizedVibeCalculator is VibeBase {... */\n  mstore(0x40, 0xc0)\n    /* \"contracts/Classes/VibeBase.sol\":1233:1234  1 */\n  0x01\n    /* \"contracts/Classes/VibeBase.sol\":1208:1234  uint256 private locked = 1 */\n  0x06\n  sstore\n    /* \"contracts/Classes/randomizedVibeCalculator.sol\":644:991  constructor(int _minRateBasisPoints, int _maxRateBasisPoints, VibeInfo memory _description, address _access... */\n  callvalue\n  dup1\n  iszero\n  tag_1\n  jumpi\n  0x00\n  dup1\n  revert\ntag_1:\n  pop\n  mload(0x40)\n  sub(codesize, bytecodeSize)\n  dup1\n  bytecodeSize\n  dup4\n  codecopy\n  dup2\n  add\n  0x40\n  dup2\n  swap1\n  mstore\n  tag_2\n  swap2\n  tag_3\n  jump\t// in\ntag_2:\n    /* \"contracts/Classes/VibeBase.sol\":736:749  accessControl */\n  0x01\n    /* \"contracts/Classes/VibeBase.sol\":736:785  accessControl = HierarchicalAccessControl(access) */\n  dup1\n  sload\n  sub(shl(0xa0, 0x01), 0x01)\n  dup1\n  dup5\n  and\n  not(sub(shl(0xa0, 0x01), 0x01))\n  swap3\n  dup4\n  and\n  or\n  swap1\n  swap3\n  sstore\n    /* \"contracts/Classes/VibeBase.sol\":795:803  id = _id */\n  dup4\n  mload\n    /* \"contracts/Classes/VibeBase.sol\":795:797  id */\n  0x03\n    /* \"contracts/Classes/VibeBase.sol\":795:803  id = _id */\n  dup1\n  sload\n  swap2\n  swap1\n  swap4\n  and\n  swap2\n  and\n  or\n  dup2\n  sstore\n  0x20\n  dup4\n  add\n  mload\n    /* \"contracts/Classes/randomizedVibeCalculator.sol\":768:780  _description */\n  dup4\n  swap2\n    /* \"contracts/Classes/randomizedVibeCalculator.sol\":782:789  _access */\n  dup4\n  swap2\n    /* \"contracts/Classes/randomizedVibeCalculator.sol\":768:780  _description */\n  dup4\n  swap2\n    /* \"contracts/Classes/VibeBase.sol\":795:797  id */\n  swap1\n    /* \"contracts/Classes/VibeBase.sol\":795:803  id = _id */\n  0x04\n  swap1\n  tag_7\n  swap1\n  dup3\n  tag_8\n  jump\t// in\ntag_7:\n  pop\n  0x40\n  dup3\n  add\n  mload\n  dup2\n  0x02\n  add\n  exp(0x0100, 0x00)\n  dup2\n  sload\n  dup2\n  0xff\n  mul\n  not\n  and\n  swap1\n  dup4\n  0x02\n  dup2\n  gt\n  iszero\n  tag_10\n  jumpi\n  tag_10\n  tag_11\n  jump\t// in\ntag_10:\n  mul\n  or\n  swap1\n  sstore\n  pop\n  swap1\n  pop\n  pop\n    /* \"contracts/Classes/VibeBase.sol\":681:811  constructor(VibeInfo memory _id, address access) {... */\n  pop\n  pop\n    /* \"contracts/Classes/randomizedVibeCalculator.sol\":832:851  _maxRateBasisPoints */\n  dup3\n    /* \"contracts/Classes/randomizedVibeCalculator.sol\":809:828  _minRateBasisPoints */\n  dup5\n    /* \"contracts/Classes/randomizedVibeCalculator.sol\":809:851  _minRateBasisPoints <= _maxRateBasisPoints */\n  sgt\n  iszero\n    /* \"contracts/Classes/randomizedVibeCalculator.sol\":801:884  require(_minRateBasisPoints <= _maxRateBasisPoints, \"Min rate must be <= max rate\") */\n  tag_13\n  jumpi\n  mload(0x40)\n  shl(0xe5, 0x461bcd)\n  dup2\n  mstore\n    /* \"#utility.yul\":5377:5379   */\n  0x20\n    /* \"contracts/Classes/randomizedVibeCalculator.sol\":801:884  require(_minRateBasisPoints <= _maxRateBasisPoints, \"Min rate must be <= max rate\") */\n  0x04\n  dup3\n  add\n    /* \"#utility.yul\":5359:5380   */\n  mstore\n    /* \"#utility.yul\":5416:5418   */\n  0x1c\n    /* \"#utility.yul\":5396:5414   */\n  0x24\n  dup3\n  add\n    /* \"#utility.yul\":5389:5419   */\n  mstore\n    /* \"#utility.yul\":5455:5485   */\n  0x4d696e2072617465206d757374206265203c3d206d6178207261746500000000\n    /* \"#utility.yul\":5435:5453   */\n  0x44\n  dup3\n  add\n    /* \"#utility.yul\":5428:5486   */\n  mstore\n    /* \"#utility.yul\":5503:5521   */\n  0x64\n  add\n    /* \"contracts/Classes/randomizedVibeCalculator.sol\":801:884  require(_minRateBasisPoints <= _maxRateBasisPoints, \"Min rate must be <= max rate\") */\n  mload(0x40)\n  dup1\n  swap2\n  sub\n  swap1\n  revert\ntag_13:\n  pop\n  pop\n    /* \"contracts/Classes/randomizedVibeCalculator.sol\":894:934  minRateBasisPoints = _minRateBasisPoints */\n  0x80\n  swap2\n  swap1\n  swap2\n  mstore\n    /* \"contracts/Classes/randomizedVibeCalculator.sol\":944:984  maxRateBasisPoints = _maxRateBasisPoints */\n  0xa0\n  mstore\n    /* \"contracts/Classes/randomizedVibeCalculator.sol\":242:1298  contract RandomizedVibeCalculator is VibeBase {... */\n  jump(tag_26)\n    /* \"#utility.yul\":14:141   */\ntag_17:\n    /* \"#utility.yul\":75:85   */\n  0x4e487b71\n    /* \"#utility.yul\":70:73   */\n  0xe0\n    /* \"#utility.yul\":66:86   */\n  shl\n    /* \"#utility.yul\":63:64   */\n  0x00\n    /* \"#utility.yul\":56:87   */\n  mstore\n    /* \"#utility.yul\":106:110   */\n  0x41\n    /* \"#utility.yul\":103:104   */\n  0x04\n    /* \"#utility.yul\":96:111   */\n  mstore\n    /* \"#utility.yul\":130:134   */\n  0x24\n    /* \"#utility.yul\":127:128   */\n  0x00\n    /* \"#utility.yul\":120:135   */\n  revert\n    /* \"#utility.yul\":146:398   */\ntag_18:\n    /* \"#utility.yul\":217:219   */\n  0x40\n    /* \"#utility.yul\":211:220   */\n  mload\n    /* \"#utility.yul\":259:263   */\n  0x60\n    /* \"#utility.yul\":247:264   */\n  dup2\n  add\n  sub(shl(0x40, 0x01), 0x01)\n    /* \"#utility.yul\":279:313   */\n  dup2\n  gt\n    /* \"#utility.yul\":315:337   */\n  dup3\n  dup3\n  lt\n    /* \"#utility.yul\":276:338   */\n  or\n    /* \"#utility.yul\":273:361   */\n  iszero\n  tag_30\n  jumpi\n    /* \"#utility.yul\":341:359   */\n  tag_30\n  tag_17\n  jump\t// in\ntag_30:\n    /* \"#utility.yul\":377:379   */\n  0x40\n    /* \"#utility.yul\":370:392   */\n  mstore\n    /* \"#utility.yul\":146:398   */\n  swap1\n  jump\t// out\n    /* \"#utility.yul\":403:678   */\ntag_19:\n    /* \"#utility.yul\":474:476   */\n  0x40\n    /* \"#utility.yul\":468:477   */\n  mload\n    /* \"#utility.yul\":539:541   */\n  0x1f\n    /* \"#utility.yul\":520:533   */\n  dup3\n  add\n  not(0x1f)\n    /* \"#utility.yul\":516:543   */\n  and\n    /* \"#utility.yul\":504:544   */\n  dup2\n  add\n  sub(shl(0x40, 0x01), 0x01)\n    /* \"#utility.yul\":559:593   */\n  dup2\n  gt\n    /* \"#utility.yul\":595:617   */\n  dup3\n  dup3\n  lt\n    /* \"#utility.yul\":556:618   */\n  or\n    /* \"#utility.yul\":553:641   */\n  iszero\n  tag_33\n  jumpi\n    /* \"#utility.yul\":621:639   */\n  tag_33\n  tag_17\n  jump\t// in\ntag_33:\n    /* \"#utility.yul\":657:659   */\n  0x40\n    /* \"#utility.yul\":650:672   */\n  mstore\n    /* \"#utility.yul\":403:678   */\n  swap2\n  swap1\n  pop\n  jump\t// out\n    /* \"#utility.yul\":683:860   */\ntag_20:\n    /* \"#utility.yul\":762:775   */\n  dup1\n  mload\n  sub(shl(0xa0, 0x01), 0x01)\n    /* \"#utility.yul\":804:835   */\n  dup2\n  and\n    /* \"#utility.yul\":794:836   */\n  dup2\n  eq\n    /* \"#utility.yul\":784:854   */\n  tag_35\n  jumpi\n    /* \"#utility.yul\":850:851   */\n  0x00\n    /* \"#utility.yul\":847:848   */\n  dup1\n    /* \"#utility.yul\":840:852   */\n  revert\n    /* \"#utility.yul\":784:854   */\ntag_35:\n    /* \"#utility.yul\":683:860   */\n  swap2\n  swap1\n  pop\n  jump\t// out\n    /* \"#utility.yul\":865:1020   */\ntag_21:\n    /* \"#utility.yul\":952:965   */\n  dup1\n  mload\n    /* \"#utility.yul\":994:995   */\n  0x03\n    /* \"#utility.yul\":984:996   */\n  dup2\n  lt\n    /* \"#utility.yul\":974:1014   */\n  tag_35\n  jumpi\n    /* \"#utility.yul\":1010:1011   */\n  0x00\n    /* \"#utility.yul\":1007:1008   */\n  dup1\n    /* \"#utility.yul\":1000:1012   */\n  revert\n    /* \"#utility.yul\":1025:2529   */\ntag_3:\n    /* \"#utility.yul\":1145:1151   */\n  0x00\n    /* \"#utility.yul\":1153:1159   */\n  dup1\n    /* \"#utility.yul\":1161:1167   */\n  0x00\n    /* \"#utility.yul\":1169:1175   */\n  dup1\n    /* \"#utility.yul\":1222:1225   */\n  0x80\n    /* \"#utility.yul\":1210:1219   */\n  dup6\n    /* \"#utility.yul\":1201:1208   */\n  dup8\n    /* \"#utility.yul\":1197:1220   */\n  sub\n    /* \"#utility.yul\":1193:1226   */\n  slt\n    /* \"#utility.yul\":1190:1243   */\n  iszero\n  tag_39\n  jumpi\n    /* \"#utility.yul\":1239:1240   */\n  0x00\n    /* \"#utility.yul\":1236:1237   */\n  dup1\n    /* \"#utility.yul\":1229:1241   */\n  revert\n    /* \"#utility.yul\":1190:1243   */\ntag_39:\n    /* \"#utility.yul\":1284:1300   */\n  dup5\n  mload\n    /* \"#utility.yul\":1390:1392   */\n  0x20\n    /* \"#utility.yul\":1375:1393   */\n  dup7\n  add\n    /* \"#utility.yul\":1369:1394   */\n  mload\n    /* \"#utility.yul\":1464:1466   */\n  0x40\n    /* \"#utility.yul\":1449:1467   */\n  dup8\n  add\n    /* \"#utility.yul\":1443:1468   */\n  mload\n    /* \"#utility.yul\":1284:1300   */\n  swap2\n  swap6\n  pop\n    /* \"#utility.yul\":1369:1394   */\n  swap4\n  pop\n  sub(shl(0x40, 0x01), 0x01)\n    /* \"#utility.yul\":1480:1510   */\n  dup2\n  gt\n    /* \"#utility.yul\":1477:1527   */\n  iszero\n  tag_40\n  jumpi\n    /* \"#utility.yul\":1523:1524   */\n  0x00\n    /* \"#utility.yul\":1520:1521   */\n  dup1\n    /* \"#utility.yul\":1513:1525   */\n  revert\n    /* \"#utility.yul\":1477:1527   */\ntag_40:\n    /* \"#utility.yul\":1546:1568   */\n  dup6\n  add\n    /* \"#utility.yul\":1602:1606   */\n  0x60\n    /* \"#utility.yul\":1584:1600   */\n  dup2\n  dup9\n  sub\n    /* \"#utility.yul\":1580:1607   */\n  slt\n    /* \"#utility.yul\":1577:1624   */\n  iszero\n  tag_41\n  jumpi\n    /* \"#utility.yul\":1620:1621   */\n  0x00\n    /* \"#utility.yul\":1617:1618   */\n  dup1\n    /* \"#utility.yul\":1610:1622   */\n  revert\n    /* \"#utility.yul\":1577:1624   */\ntag_41:\n    /* \"#utility.yul\":1648:1669   */\n  tag_42\n  tag_18\n  jump\t// in\ntag_42:\n    /* \"#utility.yul\":1694:1727   */\n  tag_43\n    /* \"#utility.yul\":1724:1726   */\n  dup3\n    /* \"#utility.yul\":1694:1727   */\n  tag_20\n  jump\t// in\ntag_43:\n    /* \"#utility.yul\":1678:1728   */\n  dup2\n  mstore\n    /* \"#utility.yul\":1767:1769   */\n  0x20\n    /* \"#utility.yul\":1759:1770   */\n  dup3\n  add\n    /* \"#utility.yul\":1753:1771   */\n  mload\n  sub(shl(0x40, 0x01), 0x01)\n    /* \"#utility.yul\":1783:1815   */\n  dup2\n  gt\n    /* \"#utility.yul\":1780:1832   */\n  iszero\n  tag_44\n  jumpi\n    /* \"#utility.yul\":1828:1829   */\n  0x00\n    /* \"#utility.yul\":1825:1826   */\n  dup1\n    /* \"#utility.yul\":1818:1830   */\n  revert\n    /* \"#utility.yul\":1780:1832   */\ntag_44:\n    /* \"#utility.yul\":1851:1868   */\n  dup3\n  add\n    /* \"#utility.yul\":1899:1903   */\n  0x1f\n    /* \"#utility.yul\":1891:1904   */\n  dup2\n  add\n    /* \"#utility.yul\":1887:1914   */\n  dup10\n  sgt\n    /* \"#utility.yul\":1877:1932   */\n  tag_45\n  jumpi\n    /* \"#utility.yul\":1928:1929   */\n  0x00\n    /* \"#utility.yul\":1925:1926   */\n  dup1\n    /* \"#utility.yul\":1918:1930   */\n  revert\n    /* \"#utility.yul\":1877:1932   */\ntag_45:\n    /* \"#utility.yul\":1955:1964   */\n  dup1\n  mload\n  sub(shl(0x40, 0x01), 0x01)\n    /* \"#utility.yul\":1976:2006   */\n  dup2\n  gt\n    /* \"#utility.yul\":1973:2029   */\n  iszero\n  tag_47\n  jumpi\n    /* \"#utility.yul\":2009:2027   */\n  tag_47\n  tag_17\n  jump\t// in\ntag_47:\n    /* \"#utility.yul\":2051:2108   */\n  tag_48\n    /* \"#utility.yul\":2098:2100   */\n  0x1f\n    /* \"#utility.yul\":2075:2092   */\n  dup3\n  add\n  not(0x1f)\n    /* \"#utility.yul\":2071:2102   */\n  and\n    /* \"#utility.yul\":2104:2106   */\n  0x20\n    /* \"#utility.yul\":2067:2107   */\n  add\n    /* \"#utility.yul\":2051:2108   */\n  tag_19\n  jump\t// in\ntag_48:\n    /* \"#utility.yul\":2131:2137   */\n  dup2\n    /* \"#utility.yul\":2124:2129   */\n  dup2\n    /* \"#utility.yul\":2117:2138   */\n  mstore\n    /* \"#utility.yul\":2179:2186   */\n  dup11\n    /* \"#utility.yul\":2174:2176   */\n  0x20\n    /* \"#utility.yul\":2165:2171   */\n  dup4\n    /* \"#utility.yul\":2161:2163   */\n  dup6\n    /* \"#utility.yul\":2157:2172   */\n  add\n    /* \"#utility.yul\":2153:2177   */\n  add\n    /* \"#utility.yul\":2150:2187   */\n  gt\n    /* \"#utility.yul\":2147:2204   */\n  iszero\n  tag_49\n  jumpi\n    /* \"#utility.yul\":2200:2201   */\n  0x00\n    /* \"#utility.yul\":2197:2198   */\n  dup1\n    /* \"#utility.yul\":2190:2202   */\n  revert\n    /* \"#utility.yul\":2147:2204   */\ntag_49:\n    /* \"#utility.yul\":2248:2254   */\n  dup2\n    /* \"#utility.yul\":2243:2245   */\n  0x20\n    /* \"#utility.yul\":2239:2241   */\n  dup5\n    /* \"#utility.yul\":2235:2246   */\n  add\n    /* \"#utility.yul\":2230:2232   */\n  0x20\n    /* \"#utility.yul\":2223:2228   */\n  dup4\n    /* \"#utility.yul\":2219:2233   */\n  add\n    /* \"#utility.yul\":2213:2255   */\n  mcopy\n    /* \"#utility.yul\":2300:2301   */\n  0x00\n    /* \"#utility.yul\":2295:2297   */\n  0x20\n    /* \"#utility.yul\":2286:2292   */\n  dup4\n    /* \"#utility.yul\":2279:2284   */\n  dup4\n    /* \"#utility.yul\":2275:2293   */\n  add\n    /* \"#utility.yul\":2271:2298   */\n  add\n    /* \"#utility.yul\":2264:2302   */\n  mstore\n    /* \"#utility.yul\":2336:2341   */\n  dup1\n    /* \"#utility.yul\":2331:2333   */\n  0x20\n    /* \"#utility.yul\":2322:2329   */\n  dup6\n    /* \"#utility.yul\":2318:2334   */\n  add\n    /* \"#utility.yul\":2311:2342   */\n  mstore\n  pop\n  pop\n  pop\n    /* \"#utility.yul\":2376:2426   */\n  tag_50\n    /* \"#utility.yul\":2422:2424   */\n  0x40\n    /* \"#utility.yul\":2418:2420   */\n  dup4\n    /* \"#utility.yul\":2414:2425   */\n  add\n    /* \"#utility.yul\":2376:2426   */\n  tag_21\n  jump\t// in\ntag_50:\n    /* \"#utility.yul\":2371:2373   */\n  0x40\n    /* \"#utility.yul\":2358:2374   */\n  dup3\n  add\n    /* \"#utility.yul\":2351:2427   */\n  mstore\n    /* \"#utility.yul\":2362:2369   */\n  swap3\n  pop\n    /* \"#utility.yul\":2472:2523   */\n  tag_51\n  swap1\n  pop\n    /* \"#utility.yul\":2517:2521   */\n  0x60\n    /* \"#utility.yul\":2502:2522   */\n  dup7\n  add\n    /* \"#utility.yul\":2472:2523   */\n  tag_20\n  jump\t// in\ntag_51:\n    /* \"#utility.yul\":2462:2523   */\n  swap1\n  pop\n    /* \"#utility.yul\":1025:2529   */\n  swap3\n  swap6\n  swap2\n  swap5\n  pop\n  swap3\n  pop\n  jump\t// out\n    /* \"#utility.yul\":2534:2914   */\ntag_22:\n    /* \"#utility.yul\":2613:2614   */\n  0x01\n    /* \"#utility.yul\":2609:2621   */\n  dup2\n  dup2\n  shr\n  swap1\n    /* \"#utility.yul\":2656:2668   */\n  dup3\n  and\n  dup1\n    /* \"#utility.yul\":2677:2738   */\n  tag_53\n  jumpi\n    /* \"#utility.yul\":2731:2735   */\n  0x7f\n    /* \"#utility.yul\":2723:2729   */\n  dup3\n    /* \"#utility.yul\":2719:2736   */\n  and\n    /* \"#utility.yul\":2709:2736   */\n  swap2\n  pop\n    /* \"#utility.yul\":2677:2738   */\ntag_53:\n    /* \"#utility.yul\":2784:2786   */\n  0x20\n    /* \"#utility.yul\":2776:2782   */\n  dup3\n    /* \"#utility.yul\":2773:2787   */\n  lt\n    /* \"#utility.yul\":2753:2771   */\n  dup2\n    /* \"#utility.yul\":2750:2788   */\n  sub\n    /* \"#utility.yul\":2747:2908   */\n  tag_54\n  jumpi\n    /* \"#utility.yul\":2830:2840   */\n  0x4e487b71\n    /* \"#utility.yul\":2825:2828   */\n  0xe0\n    /* \"#utility.yul\":2821:2841   */\n  shl\n    /* \"#utility.yul\":2818:2819   */\n  0x00\n    /* \"#utility.yul\":2811:2842   */\n  mstore\n    /* \"#utility.yul\":2865:2869   */\n  0x22\n    /* \"#utility.yul\":2862:2863   */\n  0x04\n    /* \"#utility.yul\":2855:2870   */\n  mstore\n    /* \"#utility.yul\":2893:2897   */\n  0x24\n    /* \"#utility.yul\":2890:2891   */\n  0x00\n    /* \"#utility.yul\":2883:2898   */\n  revert\n    /* \"#utility.yul\":2747:2908   */\ntag_54:\n  pop\n    /* \"#utility.yul\":2534:2914   */\n  swap2\n  swap1\n  pop\n  jump\t// out\n    /* \"#utility.yul\":3045:3563   */\ntag_24:\n    /* \"#utility.yul\":3147:3149   */\n  0x1f\n    /* \"#utility.yul\":3142:3145   */\n  dup3\n    /* \"#utility.yul\":3139:3150   */\n  gt\n    /* \"#utility.yul\":3136:3557   */\n  iszero\n  tag_57\n  jumpi\n    /* \"#utility.yul\":3183:3188   */\n  dup1\n    /* \"#utility.yul\":3180:3181   */\n  0x00\n    /* \"#utility.yul\":3173:3189   */\n  mstore\n    /* \"#utility.yul\":3227:3231   */\n  0x20\n    /* \"#utility.yul\":3224:3225   */\n  0x00\n    /* \"#utility.yul\":3214:3232   */\n  keccak256\n    /* \"#utility.yul\":3297:3299   */\n  0x1f\n    /* \"#utility.yul\":3285:3295   */\n  dup5\n    /* \"#utility.yul\":3281:3300   */\n  add\n    /* \"#utility.yul\":3278:3279   */\n  0x05\n    /* \"#utility.yul\":3274:3301   */\n  shr\n    /* \"#utility.yul\":3268:3272   */\n  dup2\n    /* \"#utility.yul\":3264:3302   */\n  add\n    /* \"#utility.yul\":3333:3337   */\n  0x20\n    /* \"#utility.yul\":3321:3331   */\n  dup6\n    /* \"#utility.yul\":3318:3338   */\n  lt\n    /* \"#utility.yul\":3315:3362   */\n  iszero\n  tag_58\n  jumpi\n  pop\n    /* \"#utility.yul\":3356:3360   */\n  dup1\n    /* \"#utility.yul\":3315:3362   */\ntag_58:\n    /* \"#utility.yul\":3411:3413   */\n  0x1f\n    /* \"#utility.yul\":3406:3409   */\n  dup5\n    /* \"#utility.yul\":3402:3414   */\n  add\n    /* \"#utility.yul\":3399:3400   */\n  0x05\n    /* \"#utility.yul\":3395:3415   */\n  shr\n    /* \"#utility.yul\":3389:3393   */\n  dup3\n    /* \"#utility.yul\":3385:3416   */\n  add\n    /* \"#utility.yul\":3375:3416   */\n  swap2\n  pop\n    /* \"#utility.yul\":3466:3547   */\ntag_59:\n    /* \"#utility.yul\":3484:3486   */\n  dup2\n    /* \"#utility.yul\":3477:3482   */\n  dup2\n    /* \"#utility.yul\":3474:3487   */\n  lt\n    /* \"#utility.yul\":3466:3547   */\n  iszero\n  tag_61\n  jumpi\n    /* \"#utility.yul\":3543:3544   */\n  0x00\n    /* \"#utility.yul\":3529:3545   */\n  dup2\n  sstore\n    /* \"#utility.yul\":3510:3511   */\n  0x01\n    /* \"#utility.yul\":3499:3512   */\n  add\n    /* \"#utility.yul\":3466:3547   */\n  jump(tag_59)\ntag_61:\n    /* \"#utility.yul\":3470:3473   */\n  pop\n  pop\n    /* \"#utility.yul\":3136:3557   */\ntag_57:\n    /* \"#utility.yul\":3045:3563   */\n  pop\n  pop\n  pop\n  jump\t// out\n    /* \"#utility.yul\":3739:5038   */\ntag_8:\n    /* \"#utility.yul\":3859:3869   */\n  dup2\n  mload\n  sub(shl(0x40, 0x01), 0x01)\n    /* \"#utility.yul\":3881:3911   */\n  dup2\n  gt\n    /* \"#utility.yul\":3878:3934   */\n  iszero\n  tag_65\n  jumpi\n    /* \"#utility.yul\":3914:3932   */\n  tag_65\n  tag_17\n  jump\t// in\ntag_65:\n    /* \"#utility.yul\":3943:4040   */\n  tag_66\n    /* \"#utility.yul\":4033:4039   */\n  dup2\n    /* \"#utility.yul\":3993:4031   */\n  tag_67\n    /* \"#utility.yul\":4025:4029   */\n  dup5\n    /* \"#utility.yul\":4019:4030   */\n  sload\n    /* \"#utility.yul\":3993:4031   */\n  tag_22\n  jump\t// in\ntag_67:\n    /* \"#utility.yul\":3987:3991   */\n  dup5\n    /* \"#utility.yul\":3943:4040   */\n  tag_24\n  jump\t// in\ntag_66:\n    /* \"#utility.yul\":4089:4093   */\n  0x20\n    /* \"#utility.yul\":4120:4122   */\n  0x1f\n    /* \"#utility.yul\":4109:4123   */\n  dup3\n  gt\n    /* \"#utility.yul\":4137:4138   */\n  0x01\n    /* \"#utility.yul\":4132:4781   */\n  dup2\n  eq\n  tag_69\n  jumpi\n    /* \"#utility.yul\":4825:4826   */\n  0x00\n    /* \"#utility.yul\":4842:4848   */\n  dup4\n    /* \"#utility.yul\":4839:4928   */\n  iszero\n  tag_70\n  jumpi\n  pop\n    /* \"#utility.yul\":4894:4913   */\n  dup5\n  dup3\n  add\n    /* \"#utility.yul\":4888:4914   */\n  mload\n    /* \"#utility.yul\":4839:4928   */\ntag_70:\n  not(0x00)\n    /* \"#utility.yul\":3696:3697   */\n  0x03\n    /* \"#utility.yul\":3692:3703   */\n  dup6\n  swap1\n  shl\n    /* \"#utility.yul\":3688:3712   */\n  shr\n    /* \"#utility.yul\":3684:3713   */\n  not\n    /* \"#utility.yul\":3674:3714   */\n  and\n    /* \"#utility.yul\":3720:3721   */\n  0x01\n    /* \"#utility.yul\":3716:3727   */\n  dup5\n  swap1\n  shl\n    /* \"#utility.yul\":3671:3728   */\n  or\n    /* \"#utility.yul\":4941:5022   */\n  dup5\n  sstore\n    /* \"#utility.yul\":4102:5032   */\n  jump(tag_61)\n    /* \"#utility.yul\":4132:4781   */\ntag_69:\n    /* \"#utility.yul\":2992:2993   */\n  0x00\n    /* \"#utility.yul\":2985:2999   */\n  dup5\n  dup2\n  mstore\n    /* \"#utility.yul\":3029:3033   */\n  0x20\n    /* \"#utility.yul\":3016:3034   */\n  dup2\n  keccak256\n  not(0x1f)\n    /* \"#utility.yul\":4168:4188   */\n  dup6\n  and\n  swap2\n    /* \"#utility.yul\":4286:4508   */\ntag_73:\n    /* \"#utility.yul\":4300:4307   */\n  dup3\n    /* \"#utility.yul\":4297:4298   */\n  dup2\n    /* \"#utility.yul\":4294:4308   */\n  lt\n    /* \"#utility.yul\":4286:4508   */\n  iszero\n  tag_75\n  jumpi\n    /* \"#utility.yul\":4382:4401   */\n  dup8\n  dup6\n  add\n    /* \"#utility.yul\":4376:4402   */\n  mload\n    /* \"#utility.yul\":4361:4403   */\n  dup3\n  sstore\n    /* \"#utility.yul\":4489:4493   */\n  0x20\n    /* \"#utility.yul\":4474:4494   */\n  swap5\n  dup6\n  add\n  swap5\n    /* \"#utility.yul\":4442:4443   */\n  0x01\n    /* \"#utility.yul\":4430:4444   */\n  swap1\n  swap3\n  add\n  swap2\n    /* \"#utility.yul\":4316:4328   */\n  add\n    /* \"#utility.yul\":4286:4508   */\n  jump(tag_73)\ntag_75:\n    /* \"#utility.yul\":4290:4293   */\n  pop\n    /* \"#utility.yul\":4536:4542   */\n  dup5\n    /* \"#utility.yul\":4527:4534   */\n  dup3\n    /* \"#utility.yul\":4524:4543   */\n  lt\n    /* \"#utility.yul\":4521:4722   */\n  iszero\n  tag_76\n  jumpi\n    /* \"#utility.yul\":4597:4616   */\n  dup7\n  dup5\n  add\n    /* \"#utility.yul\":4591:4617   */\n  mload\n  not(0x00)\n    /* \"#utility.yul\":4680:4681   */\n  0x03\n    /* \"#utility.yul\":4676:4690   */\n  dup8\n  swap1\n  shl\n    /* \"#utility.yul\":4692:4695   */\n  0xf8\n    /* \"#utility.yul\":4672:4696   */\n  and\n    /* \"#utility.yul\":4668:4705   */\n  shr\n    /* \"#utility.yul\":4664:4706   */\n  not\n    /* \"#utility.yul\":4649:4707   */\n  and\n    /* \"#utility.yul\":4634:4708   */\n  dup2\n  sstore\n    /* \"#utility.yul\":4521:4722   */\ntag_76:\n  pop\n  pop\n  pop\n  pop\n    /* \"#utility.yul\":4768:4769   */\n  0x01\n    /* \"#utility.yul\":4752:4766   */\n  swap1\n  dup2\n  shl\n    /* \"#utility.yul\":4748:4770   */\n  add\n    /* \"#utility.yul\":4735:4771   */\n  swap1\n  sstore\n  pop\n    /* \"#utility.yul\":3739:5038   */\n  jump\t// out\n    /* \"#utility.yul\":5043:5170   */\ntag_11:\n    /* \"#utility.yul\":5104:5114   */\n  0x4e487b71\n    /* \"#utility.yul\":5099:5102   */\n  0xe0\n    /* \"#utility.yul\":5095:5115   */\n  shl\n    /* \"#utility.yul\":5092:5093   */\n  0x00\n    /* \"#utility.yul\":5085:5116   */\n  mstore\n    /* \"#utility.yul\":5135:5139   */\n  0x21\n    /* \"#utility.yul\":5132:5133   */\n  0x04\n    /* \"#utility.yul\":5125:5140   */\n  mstore\n    /* \"#utility.yul\":5159:5163   */\n  0x24\n    /* \"#utility.yul\":5156:5157   */\n  0x00\n    /* \"#utility.yul\":5149:5164   */\n  revert\n    /* \"#utility.yul\":5175:5527   */\ntag_26:\n    /* \"contracts/Classes/randomizedVibeCalculator.sol\":242:1298  contract RandomizedVibeCalculator is VibeBase {... */\n  mload(0x80)\n  mload(0xa0)\n  codecopy(0x00, dataOffset(sub_0), dataSize(sub_0))\n  0x00\n  assignImmutable(\"0xe96cc20f241c05b09b05be99fa40d483e0c60480c24cfabd29fea373217f3b30\")\n  0x00\n  assignImmutable(\"0x4ce4dab4689da140a0c12de1a6af6b8f679594aeb723205f513e052d27f5b26f\")\n  return(0x00, dataSize(sub_0))\nstop\n\nsub_0: assembly {\n        /* \"contracts/Classes/randomizedVibeCalculator.sol\":242:1298  contract RandomizedVibeCalculator is VibeBase {... */\n      mstore(0x40, 0x80)\n      callvalue\n      dup1\n      iszero\n      tag_1\n      jumpi\n      0x00\n      dup1\n      revert\n    tag_1:\n      pop\n      jumpi(tag_2, lt(calldatasize, 0x04))\n      shr(0xe0, calldataload(0x00))\n      dup1\n      0xa5985e8c\n      gt\n      tag_13\n      jumpi\n      dup1\n      0xa5985e8c\n      eq\n      tag_8\n      jumpi\n      dup1\n      0xaf640d0f\n      eq\n      tag_9\n      jumpi\n      dup1\n      0xb7b7fac7\n      eq\n      tag_10\n      jumpi\n      dup1\n      0xc4fbbe54\n      eq\n      tag_11\n      jumpi\n      dup1\n      0xf9da3bd8\n      eq\n      tag_12\n      jumpi\n      0x00\n      dup1\n      revert\n    tag_13:\n      dup1\n      0x1a092541\n      eq\n      tag_3\n      jumpi\n      dup1\n      0x7284e416\n      eq\n      tag_4\n      jumpi\n      dup1\n      0x8191745f\n      eq\n      tag_5\n      jumpi\n      dup1\n      0x9ee7c993\n      eq\n      tag_6\n      jumpi\n      dup1\n      0xa27327dc\n      eq\n      tag_7\n      jumpi\n    tag_2:\n      0x00\n      dup1\n      revert\n        /* \"contracts/Classes/VibeBase.sol\":1384:1483  function getDescription() external view returns (string memory) {... */\n    tag_3:\n      tag_14\n      tag_15\n      jump\t// in\n    tag_14:\n      mload(0x40)\n      tag_16\n      swap2\n      swap1\n      tag_17\n      jump\t// in\n    tag_16:\n      mload(0x40)\n      dup1\n      swap2\n      sub\n      swap1\n      return\n        /* \"contracts/Classes/VibeBase.sol\":426:451  string public description */\n    tag_4:\n      tag_14\n      tag_19\n      jump\t// in\n        /* \"contracts/Classes/randomizedVibeCalculator.sol\":384:409  string public Description */\n    tag_5:\n      tag_14\n      tag_22\n      jump\t// in\n        /* \"contracts/Classes/VibeBase.sol\":817:1113  function setBaseImportance(Importance level) external {... */\n    tag_6:\n      tag_24\n      tag_25\n      calldatasize\n      0x04\n      tag_26\n      jump\t// in\n    tag_25:\n      tag_27\n      jump\t// in\n    tag_24:\n      stop\n        /* \"contracts/Classes/randomizedVibeCalculator.sol\":294:333  int public immutable minRateBasisPoints */\n    tag_7:\n      tag_28\n      immutable(\"0x4ce4dab4689da140a0c12de1a6af6b8f679594aeb723205f513e052d27f5b26f\")\n      dup2\n      jump\n    tag_28:\n      mload(0x40)\n        /* \"#utility.yul\":952:977   */\n      swap1\n      dup2\n      mstore\n        /* \"#utility.yul\":940:942   */\n      0x20\n        /* \"#utility.yul\":925:943   */\n      add\n        /* \"contracts/Classes/randomizedVibeCalculator.sol\":294:333  int public immutable minRateBasisPoints */\n      tag_16\n        /* \"#utility.yul\":808:983   */\n      jump\n        /* \"contracts/Classes/VibeBase.sol\":1119:1202  function getLevel() public view returns(Importance){... */\n    tag_8:\n        /* \"contracts/Classes/VibeBase.sol\":1187:1195  id.level */\n      and(0xff, sload(0x05))\n        /* \"contracts/Classes/VibeBase.sol\":1119:1202  function getLevel() public view returns(Importance){... */\n      mload(0x40)\n      tag_16\n      swap2\n      swap1\n      tag_35\n      jump\t// in\n        /* \"contracts/Classes/VibeBase.sol\":656:674  VibeInfo public id */\n    tag_9:\n      tag_36\n      tag_37\n      jump\t// in\n    tag_36:\n      mload(0x40)\n      tag_16\n      swap4\n      swap3\n      swap2\n      swap1\n      tag_39\n      jump\t// in\n        /* \"contracts/Classes/VibeBase.sol\":327:370  mapping(uint => bool) public UserActiveList */\n    tag_10:\n      tag_40\n      tag_41\n      calldatasize\n      0x04\n      tag_42\n      jump\t// in\n    tag_41:\n      0x00\n      0x20\n      dup2\n      swap1\n      mstore\n      swap1\n      dup2\n      mstore\n      0x40\n      swap1\n      keccak256\n      sload\n      0xff\n      and\n      dup2\n      jump\n    tag_40:\n      mload(0x40)\n        /* \"#utility.yul\":2301:2315   */\n      swap1\n      iszero\n        /* \"#utility.yul\":2294:2316   */\n      iszero\n        /* \"#utility.yul\":2276:2317   */\n      dup2\n      mstore\n        /* \"#utility.yul\":2264:2266   */\n      0x20\n        /* \"#utility.yul\":2249:2267   */\n      add\n        /* \"contracts/Classes/VibeBase.sol\":327:370  mapping(uint => bool) public UserActiveList */\n      tag_16\n        /* \"#utility.yul\":2136:2323   */\n      jump\n        /* \"contracts/Classes/randomizedVibeCalculator.sol\":997:1296  function calculateTotalBasisFee(address addy, uint amount) external view override returns (int, uint) {... */\n    tag_11:\n      tag_46\n      tag_47\n      calldatasize\n      0x04\n      tag_48\n      jump\t// in\n    tag_47:\n      tag_49\n      jump\t// in\n    tag_46:\n      0x40\n      dup1\n      mload\n        /* \"#utility.yul\":2911:2936   */\n      swap3\n      dup4\n      mstore\n        /* \"#utility.yul\":2967:2969   */\n      0x20\n        /* \"#utility.yul\":2952:2970   */\n      dup4\n      add\n        /* \"#utility.yul\":2945:2979   */\n      swap2\n      swap1\n      swap2\n      mstore\n        /* \"#utility.yul\":2884:2902   */\n      add\n        /* \"contracts/Classes/randomizedVibeCalculator.sol\":997:1296  function calculateTotalBasisFee(address addy, uint amount) external view override returns (int, uint) {... */\n      tag_16\n        /* \"#utility.yul\":2739:2985   */\n      jump\n        /* \"contracts/Classes/randomizedVibeCalculator.sol\":339:378  int public immutable maxRateBasisPoints */\n    tag_12:\n      tag_28\n      immutable(\"0xe96cc20f241c05b09b05be99fa40d483e0c60480c24cfabd29fea373217f3b30\")\n      dup2\n      jump\n        /* \"contracts/Classes/VibeBase.sol\":1384:1483  function getDescription() external view returns (string memory) {... */\n    tag_15:\n        /* \"contracts/Classes/VibeBase.sol\":1433:1446  string memory */\n      0x60\n        /* \"contracts/Classes/VibeBase.sol\":1465:1476  description */\n      0x02\n        /* \"contracts/Classes/VibeBase.sol\":1458:1476  return description */\n      dup1\n      sload\n      tag_56\n      swap1\n      tag_57\n      jump\t// in\n    tag_56:\n      dup1\n      0x1f\n      add\n      0x20\n      dup1\n      swap2\n      div\n      mul\n      0x20\n      add\n      mload(0x40)\n      swap1\n      dup2\n      add\n      0x40\n      mstore\n      dup1\n      swap3\n      swap2\n      swap1\n      dup2\n      dup2\n      mstore\n      0x20\n      add\n      dup3\n      dup1\n      sload\n      tag_58\n      swap1\n      tag_57\n      jump\t// in\n    tag_58:\n      dup1\n      iszero\n      tag_59\n      jumpi\n      dup1\n      0x1f\n      lt\n      tag_60\n      jumpi\n      0x0100\n      dup1\n      dup4\n      sload\n      div\n      mul\n      dup4\n      mstore\n      swap2\n      0x20\n      add\n      swap2\n      jump(tag_59)\n    tag_60:\n      dup3\n      add\n      swap2\n      swap1\n      0x00\n      mstore\n      keccak256(0x00, 0x20)\n      swap1\n    tag_61:\n      dup2\n      sload\n      dup2\n      mstore\n      swap1\n      0x01\n      add\n      swap1\n      0x20\n      add\n      dup1\n      dup4\n      gt\n      tag_61\n      jumpi\n      dup3\n      swap1\n      sub\n      0x1f\n      and\n      dup3\n      add\n      swap2\n    tag_59:\n      pop\n      pop\n      pop\n      pop\n      pop\n      swap1\n      pop\n        /* \"contracts/Classes/VibeBase.sol\":1384:1483  function getDescription() external view returns (string memory) {... */\n      swap1\n      jump\t// out\n        /* \"contracts/Classes/VibeBase.sol\":426:451  string public description */\n    tag_19:\n      0x02\n      dup1\n      sload\n      tag_62\n      swap1\n      tag_57\n      jump\t// in\n    tag_62:\n      dup1\n      0x1f\n      add\n      0x20\n      dup1\n      swap2\n      div\n      mul\n      0x20\n      add\n      mload(0x40)\n      swap1\n      dup2\n      add\n      0x40\n      mstore\n      dup1\n      swap3\n      swap2\n      swap1\n      dup2\n      dup2\n      mstore\n      0x20\n      add\n      dup3\n      dup1\n      sload\n      tag_63\n      swap1\n      tag_57\n      jump\t// in\n    tag_63:\n      dup1\n      iszero\n      tag_64\n      jumpi\n      dup1\n      0x1f\n      lt\n      tag_65\n      jumpi\n      0x0100\n      dup1\n      dup4\n      sload\n      div\n      mul\n      dup4\n      mstore\n      swap2\n      0x20\n      add\n      swap2\n      jump(tag_64)\n    tag_65:\n      dup3\n      add\n      swap2\n      swap1\n      0x00\n      mstore\n      keccak256(0x00, 0x20)\n      swap1\n    tag_66:\n      dup2\n      sload\n      dup2\n      mstore\n      swap1\n      0x01\n      add\n      swap1\n      0x20\n      add\n      dup1\n      dup4\n      gt\n      tag_66\n      jumpi\n      dup3\n      swap1\n      sub\n      0x1f\n      and\n      dup3\n      add\n      swap2\n    tag_64:\n      pop\n      pop\n      pop\n      pop\n      pop\n      dup2\n      jump\t// out\n        /* \"contracts/Classes/randomizedVibeCalculator.sol\":384:409  string public Description */\n    tag_22:\n      0x07\n      dup1\n      sload\n      tag_62\n      swap1\n      tag_57\n      jump\t// in\n        /* \"contracts/Classes/VibeBase.sol\":817:1113  function setBaseImportance(Importance level) external {... */\n    tag_27:\n        /* \"contracts/Classes/VibeBase.sol\":898:911  accessControl */\n      sload(0x01)\n        /* \"contracts/Classes/VibeBase.sol\":898:1016  accessControl.hasRank(... */\n      mload(0x40)\n      shl(0xe3, 0x1035dec9)\n      dup2\n      mstore\n      sub(shl(0xa0, 0x01), 0x01)\n        /* \"contracts/Classes/VibeBase.sol\":898:911  accessControl */\n      swap1\n      swap2\n      and\n      swap1\n        /* \"contracts/Classes/VibeBase.sol\":898:919  accessControl.hasRank */\n      0x81aef648\n      swap1\n        /* \"contracts/Classes/VibeBase.sol\":898:1016  accessControl.hasRank(... */\n      tag_73\n      swap1\n        /* \"contracts/Classes/VibeBase.sol\":937:974  HierarchicalAccessControl.Rank.CONSUL */\n      0x04\n      swap1\n        /* \"contracts/Classes/VibeBase.sol\":992:1002  msg.sender */\n      caller\n      swap1\n        /* \"contracts/Classes/VibeBase.sol\":898:1016  accessControl.hasRank(... */\n      dup3\n      add\n      tag_74\n      jump\t// in\n    tag_73:\n      0x20\n      mload(0x40)\n      dup1\n      dup4\n      sub\n      dup2\n      dup7\n      gas\n      staticcall\n      iszero\n      dup1\n      iszero\n      tag_76\n      jumpi\n      returndatasize\n      0x00\n      dup1\n      returndatacopy\n      revert(0x00, returndatasize)\n    tag_76:\n      pop\n      pop\n      pop\n      pop\n      mload(0x40)\n      returndatasize\n      not(0x1f)\n      0x1f\n      dup3\n      add\n      and\n      dup3\n      add\n      dup1\n      0x40\n      mstore\n      pop\n      dup2\n      add\n      swap1\n      tag_77\n      swap2\n      swap1\n      tag_78\n      jump\t// in\n    tag_77:\n        /* \"contracts/Classes/VibeBase.sol\":877:1080  require(... */\n      tag_79\n      jumpi\n      mload(0x40)\n      shl(0xe5, 0x461bcd)\n      dup2\n      mstore\n        /* \"#utility.yul\":4199:4201   */\n      0x20\n        /* \"contracts/Classes/VibeBase.sol\":877:1080  require(... */\n      0x04\n      dup3\n      add\n        /* \"#utility.yul\":4181:4202   */\n      mstore\n        /* \"#utility.yul\":4238:4240   */\n      0x26\n        /* \"#utility.yul\":4218:4236   */\n      0x24\n      dup3\n      add\n        /* \"#utility.yul\":4211:4241   */\n      mstore\n        /* \"#utility.yul\":4277:4311   */\n      0x43616c6c657220646f6573206e6f742068617665207468652072657175697265\n        /* \"#utility.yul\":4257:4275   */\n      0x44\n      dup3\n      add\n        /* \"#utility.yul\":4250:4312   */\n      mstore\n      shl(0xd0, 0x642072616e6b)\n        /* \"#utility.yul\":4328:4346   */\n      0x64\n      dup3\n      add\n        /* \"#utility.yul\":4321:4357   */\n      mstore\n        /* \"#utility.yul\":4374:4393   */\n      0x84\n      add\n        /* \"contracts/Classes/VibeBase.sol\":877:1080  require(... */\n      mload(0x40)\n      dup1\n      swap2\n      sub\n      swap1\n      revert\n    tag_79:\n        /* \"contracts/Classes/VibeBase.sol\":1090:1098  id.level */\n      0x05\n        /* \"contracts/Classes/VibeBase.sol\":1090:1106  id.level = level */\n      dup1\n      sload\n        /* \"contracts/Classes/VibeBase.sol\":1101:1106  level */\n      dup3\n      swap2\n        /* \"contracts/Classes/VibeBase.sol\":1090:1098  id.level */\n      swap1\n      not(0xff)\n        /* \"contracts/Classes/VibeBase.sol\":1090:1106  id.level = level */\n      and\n      0x01\n        /* \"contracts/Classes/VibeBase.sol\":1101:1106  level */\n      dup4\n        /* \"contracts/Classes/VibeBase.sol\":1090:1098  id.level */\n      0x02\n        /* \"contracts/Classes/VibeBase.sol\":1090:1106  id.level = level */\n      dup2\n      gt\n      iszero\n      tag_83\n      jumpi\n      tag_83\n      tag_84\n      jump\t// in\n    tag_83:\n      mul\n      or\n      swap1\n      sstore\n      pop\n        /* \"contracts/Classes/VibeBase.sol\":817:1113  function setBaseImportance(Importance level) external {... */\n      pop\n      jump\t// out\n        /* \"contracts/Classes/VibeBase.sol\":656:674  VibeInfo public id */\n    tag_37:\n      0x03\n      dup1\n      sload\n      0x04\n      dup1\n      sload\n      sub(shl(0xa0, 0x01), 0x01)\n      swap1\n      swap3\n      and\n      swap3\n      swap2\n      tag_86\n      swap1\n      tag_57\n      jump\t// in\n    tag_86:\n      dup1\n      0x1f\n      add\n      0x20\n      dup1\n      swap2\n      div\n      mul\n      0x20\n      add\n      mload(0x40)\n      swap1\n      dup2\n      add\n      0x40\n      mstore\n      dup1\n      swap3\n      swap2\n      swap1\n      dup2\n      dup2\n      mstore\n      0x20\n      add\n      dup3\n      dup1\n      sload\n      tag_87\n      swap1\n      tag_57\n      jump\t// in\n    tag_87:\n      dup1\n      iszero\n      tag_88\n      jumpi\n      dup1\n      0x1f\n      lt\n      tag_89\n      jumpi\n      0x0100\n      dup1\n      dup4\n      sload\n      div\n      mul\n      dup4\n      mstore\n      swap2\n      0x20\n      add\n      swap2\n      jump(tag_88)\n    tag_89:\n      dup3\n      add\n      swap2\n      swap1\n      0x00\n      mstore\n      keccak256(0x00, 0x20)\n      swap1\n    tag_90:\n      dup2\n      sload\n      dup2\n      mstore\n      swap1\n      0x01\n      add\n      swap1\n      0x20\n      add\n      dup1\n      dup4\n      gt\n      tag_90\n      jumpi\n      dup3\n      swap1\n      sub\n      0x1f\n      and\n      dup3\n      add\n      swap2\n    tag_88:\n      pop\n      pop\n      pop\n      0x02\n      swap1\n      swap4\n      add\n      sload\n      swap2\n      swap3\n      pop\n      pop\n      0xff\n      and\n      dup4\n      jump\t// out\n        /* \"contracts/Classes/randomizedVibeCalculator.sol\":997:1296  function calculateTotalBasisFee(address addy, uint amount) external view override returns (int, uint) {... */\n    tag_49:\n        /* \"contracts/Classes/randomizedVibeCalculator.sol\":1088:1091  int */\n      0x00\n      dup1\n      dup1\n        /* \"contracts/Classes/randomizedVibeCalculator.sol\":1197:1254  uint256(maxRateBasisPoints) - uint256(minRateBasisPoints) */\n      tag_92\n        /* \"contracts/Classes/randomizedVibeCalculator.sol\":1235:1253  minRateBasisPoints */\n      immutable(\"0x4ce4dab4689da140a0c12de1a6af6b8f679594aeb723205f513e052d27f5b26f\")\n        /* \"contracts/Classes/randomizedVibeCalculator.sol\":1205:1223  maxRateBasisPoints */\n      immutable(\"0xe96cc20f241c05b09b05be99fa40d483e0c60480c24cfabd29fea373217f3b30\")\n        /* \"contracts/Classes/randomizedVibeCalculator.sol\":1197:1254  uint256(maxRateBasisPoints) - uint256(minRateBasisPoints) */\n      tag_93\n      jump\t// in\n    tag_92:\n        /* \"contracts/Classes/randomizedVibeCalculator.sol\":1197:1258  uint256(maxRateBasisPoints) - uint256(minRateBasisPoints) + 1 */\n      tag_94\n      swap1\n        /* \"contracts/Classes/randomizedVibeCalculator.sol\":1257:1258  1 */\n      0x01\n        /* \"contracts/Classes/randomizedVibeCalculator.sol\":1197:1258  uint256(maxRateBasisPoints) - uint256(minRateBasisPoints) + 1 */\n      tag_95\n      jump\t// in\n    tag_94:\n        /* \"contracts/Classes/randomizedVibeCalculator.sol\":1144:1191  abi.encodePacked(block.timestamp, addy, amount) */\n      0x40\n      dup1\n      mload\n        /* \"contracts/Classes/randomizedVibeCalculator.sol\":1161:1176  block.timestamp */\n      timestamp\n        /* \"contracts/Classes/randomizedVibeCalculator.sol\":1144:1191  abi.encodePacked(block.timestamp, addy, amount) */\n      0x20\n      dup3\n      add\n        /* \"#utility.yul\":4984:5003   */\n      mstore\n      not(0xffffffffffffffffffffffff)\n        /* \"#utility.yul\":5041:5043   */\n      0x60\n        /* \"#utility.yul\":5037:5052   */\n      dup10\n      swap1\n      shl\n        /* \"#utility.yul\":5033:5086   */\n      and\n        /* \"#utility.yul\":5019:5031   */\n      swap2\n      dup2\n      add\n        /* \"#utility.yul\":5012:5087   */\n      swap2\n      swap1\n      swap2\n      mstore\n        /* \"#utility.yul\":5103:5115   */\n      0x54\n      dup2\n      add\n        /* \"#utility.yul\":5096:5124   */\n      dup7\n      swap1\n      mstore\n        /* \"#utility.yul\":5140:5152   */\n      0x74\n      add\n        /* \"contracts/Classes/randomizedVibeCalculator.sol\":1144:1191  abi.encodePacked(block.timestamp, addy, amount) */\n      mload(0x40)\n      0x20\n      dup2\n      dup4\n      sub\n      sub\n      dup2\n      mstore\n      swap1\n      0x40\n      mstore\n        /* \"contracts/Classes/randomizedVibeCalculator.sol\":1134:1192  keccak256(abi.encodePacked(block.timestamp, addy, amount)) */\n      dup1\n      mload\n      swap1\n      0x20\n      add\n      keccak256\n        /* \"contracts/Classes/randomizedVibeCalculator.sol\":1126:1193  uint256(keccak256(abi.encodePacked(block.timestamp, addy, amount))) */\n      0x00\n      shr\n        /* \"contracts/Classes/randomizedVibeCalculator.sol\":1126:1259  uint256(keccak256(abi.encodePacked(block.timestamp, addy, amount))) % (uint256(maxRateBasisPoints) - uint256(minRateBasisPoints) + 1) */\n      tag_98\n      swap2\n      swap1\n      tag_99\n      jump\t// in\n    tag_98:\n      pop\n        /* \"contracts/Classes/randomizedVibeCalculator.sol\":1277:1280  400 */\n      0x0190\n      swap6\n        /* \"contracts/Classes/randomizedVibeCalculator.sol\":1282:1288  amount */\n      swap4\n      swap5\n      pop\n      pop\n      pop\n      pop\n        /* \"contracts/Classes/randomizedVibeCalculator.sol\":997:1296  function calculateTotalBasisFee(address addy, uint amount) external view override returns (int, uint) {... */\n      jump\t// out\n        /* \"#utility.yul\":14:303   */\n    tag_100:\n        /* \"#utility.yul\":56:59   */\n      0x00\n        /* \"#utility.yul\":94:99   */\n      dup2\n        /* \"#utility.yul\":88:100   */\n      mload\n        /* \"#utility.yul\":121:127   */\n      dup1\n        /* \"#utility.yul\":116:119   */\n      dup5\n        /* \"#utility.yul\":109:128   */\n      mstore\n        /* \"#utility.yul\":177:183   */\n      dup1\n        /* \"#utility.yul\":170:174   */\n      0x20\n        /* \"#utility.yul\":163:168   */\n      dup5\n        /* \"#utility.yul\":159:175   */\n      add\n        /* \"#utility.yul\":152:156   */\n      0x20\n        /* \"#utility.yul\":147:150   */\n      dup7\n        /* \"#utility.yul\":143:157   */\n      add\n        /* \"#utility.yul\":137:184   */\n      mcopy\n        /* \"#utility.yul\":229:230   */\n      0x00\n        /* \"#utility.yul\":222:226   */\n      0x20\n        /* \"#utility.yul\":213:219   */\n      dup3\n        /* \"#utility.yul\":208:211   */\n      dup7\n        /* \"#utility.yul\":204:220   */\n      add\n        /* \"#utility.yul\":200:227   */\n      add\n        /* \"#utility.yul\":193:231   */\n      mstore\n        /* \"#utility.yul\":292:296   */\n      0x20\n        /* \"#utility.yul\":285:287   */\n      0x1f\n        /* \"#utility.yul\":281:288   */\n      not\n        /* \"#utility.yul\":276:278   */\n      0x1f\n        /* \"#utility.yul\":268:274   */\n      dup4\n        /* \"#utility.yul\":264:279   */\n      add\n        /* \"#utility.yul\":260:289   */\n      and\n        /* \"#utility.yul\":255:258   */\n      dup6\n        /* \"#utility.yul\":251:290   */\n      add\n        /* \"#utility.yul\":247:297   */\n      add\n        /* \"#utility.yul\":240:297   */\n      swap2\n      pop\n      pop\n        /* \"#utility.yul\":14:303   */\n      swap3\n      swap2\n      pop\n      pop\n      jump\t// out\n        /* \"#utility.yul\":308:528   */\n    tag_17:\n        /* \"#utility.yul\":457:459   */\n      0x20\n        /* \"#utility.yul\":446:455   */\n      dup2\n        /* \"#utility.yul\":439:460   */\n      mstore\n        /* \"#utility.yul\":420:424   */\n      0x00\n        /* \"#utility.yul\":477:522   */\n      tag_106\n        /* \"#utility.yul\":518:520   */\n      0x20\n        /* \"#utility.yul\":507:516   */\n      dup4\n        /* \"#utility.yul\":503:521   */\n      add\n        /* \"#utility.yul\":495:501   */\n      dup5\n        /* \"#utility.yul\":477:522   */\n      tag_100\n      jump\t// in\n    tag_106:\n        /* \"#utility.yul\":469:522   */\n      swap4\n        /* \"#utility.yul\":308:528   */\n      swap3\n      pop\n      pop\n      pop\n      jump\t// out\n        /* \"#utility.yul\":533:803   */\n    tag_26:\n        /* \"#utility.yul\":606:612   */\n      0x00\n        /* \"#utility.yul\":659:661   */\n      0x20\n        /* \"#utility.yul\":647:656   */\n      dup3\n        /* \"#utility.yul\":638:645   */\n      dup5\n        /* \"#utility.yul\":634:657   */\n      sub\n        /* \"#utility.yul\":630:662   */\n      slt\n        /* \"#utility.yul\":627:679   */\n      iszero\n      tag_108\n      jumpi\n        /* \"#utility.yul\":675:676   */\n      0x00\n        /* \"#utility.yul\":672:673   */\n      dup1\n        /* \"#utility.yul\":665:677   */\n      revert\n        /* \"#utility.yul\":627:679   */\n    tag_108:\n        /* \"#utility.yul\":714:723   */\n      dup2\n        /* \"#utility.yul\":701:724   */\n      calldataload\n        /* \"#utility.yul\":753:754   */\n      0x03\n        /* \"#utility.yul\":746:751   */\n      dup2\n        /* \"#utility.yul\":743:755   */\n      lt\n        /* \"#utility.yul\":733:773   */\n      tag_106\n      jumpi\n        /* \"#utility.yul\":769:770   */\n      0x00\n        /* \"#utility.yul\":766:767   */\n      dup1\n        /* \"#utility.yul\":759:771   */\n      revert\n        /* \"#utility.yul\":988:1115   */\n    tag_84:\n        /* \"#utility.yul\":1049:1059   */\n      0x4e487b71\n        /* \"#utility.yul\":1044:1047   */\n      0xe0\n        /* \"#utility.yul\":1040:1060   */\n      shl\n        /* \"#utility.yul\":1037:1038   */\n      0x00\n        /* \"#utility.yul\":1030:1061   */\n      mstore\n        /* \"#utility.yul\":1080:1084   */\n      0x21\n        /* \"#utility.yul\":1077:1078   */\n      0x04\n        /* \"#utility.yul\":1070:1085   */\n      mstore\n        /* \"#utility.yul\":1104:1108   */\n      0x24\n        /* \"#utility.yul\":1101:1102   */\n      0x00\n        /* \"#utility.yul\":1094:1109   */\n      revert\n        /* \"#utility.yul\":1120:1261   */\n    tag_101:\n        /* \"#utility.yul\":1202:1203   */\n      0x03\n        /* \"#utility.yul\":1195:1200   */\n      dup2\n        /* \"#utility.yul\":1192:1204   */\n      lt\n        /* \"#utility.yul\":1182:1228   */\n      tag_114\n      jumpi\n        /* \"#utility.yul\":1208:1226   */\n      tag_114\n      tag_84\n      jump\t// in\n    tag_114:\n        /* \"#utility.yul\":1237:1255   */\n      swap1\n      mstore\n        /* \"#utility.yul\":1120:1261   */\n      jump\t// out\n        /* \"#utility.yul\":1266:1475   */\n    tag_35:\n        /* \"#utility.yul\":1412:1414   */\n      0x20\n        /* \"#utility.yul\":1397:1415   */\n      dup2\n      add\n        /* \"#utility.yul\":1424:1469   */\n      tag_116\n        /* \"#utility.yul\":1401:1410   */\n      dup3\n        /* \"#utility.yul\":1451:1457   */\n      dup5\n        /* \"#utility.yul\":1424:1469   */\n      tag_101\n      jump\t// in\n    tag_116:\n        /* \"#utility.yul\":1266:1475   */\n      swap3\n      swap2\n      pop\n      pop\n      jump\t// out\n        /* \"#utility.yul\":1480:1900   */\n    tag_39:\n      sub(shl(0xa0, 0x01), 0x01)\n        /* \"#utility.yul\":1697:1729   */\n      dup5\n      and\n        /* \"#utility.yul\":1679:1730   */\n      dup2\n      mstore\n        /* \"#utility.yul\":1766:1768   */\n      0x60\n        /* \"#utility.yul\":1761:1763   */\n      0x20\n        /* \"#utility.yul\":1746:1764   */\n      dup3\n      add\n        /* \"#utility.yul\":1739:1769   */\n      dup2\n      swap1\n      mstore\n      0x00\n      swap1\n        /* \"#utility.yul\":1786:1831   */\n      tag_118\n      swap1\n        /* \"#utility.yul\":1812:1830   */\n      dup4\n      add\n        /* \"#utility.yul\":1804:1810   */\n      dup6\n        /* \"#utility.yul\":1786:1831   */\n      tag_100\n      jump\t// in\n    tag_118:\n        /* \"#utility.yul\":1778:1831   */\n      swap1\n      pop\n        /* \"#utility.yul\":1840:1894   */\n      tag_119\n        /* \"#utility.yul\":1890:1892   */\n      0x40\n        /* \"#utility.yul\":1879:1888   */\n      dup4\n        /* \"#utility.yul\":1875:1893   */\n      add\n        /* \"#utility.yul\":1867:1873   */\n      dup5\n        /* \"#utility.yul\":1840:1894   */\n      tag_101\n      jump\t// in\n    tag_119:\n        /* \"#utility.yul\":1480:1900   */\n      swap5\n      swap4\n      pop\n      pop\n      pop\n      pop\n      jump\t// out\n        /* \"#utility.yul\":1905:2131   */\n    tag_42:\n        /* \"#utility.yul\":1964:1970   */\n      0x00\n        /* \"#utility.yul\":2017:2019   */\n      0x20\n        /* \"#utility.yul\":2005:2014   */\n      dup3\n        /* \"#utility.yul\":1996:2003   */\n      dup5\n        /* \"#utility.yul\":1992:2015   */\n      sub\n        /* \"#utility.yul\":1988:2020   */\n      slt\n        /* \"#utility.yul\":1985:2037   */\n      iszero\n      tag_121\n      jumpi\n        /* \"#utility.yul\":2033:2034   */\n      0x00\n        /* \"#utility.yul\":2030:2031   */\n      dup1\n        /* \"#utility.yul\":2023:2035   */\n      revert\n        /* \"#utility.yul\":1985:2037   */\n    tag_121:\n      pop\n        /* \"#utility.yul\":2078:2101   */\n      calldataload\n      swap2\n        /* \"#utility.yul\":1905:2131   */\n      swap1\n      pop\n      jump\t// out\n        /* \"#utility.yul\":2328:2734   */\n    tag_48:\n        /* \"#utility.yul\":2396:2402   */\n      0x00\n        /* \"#utility.yul\":2404:2410   */\n      dup1\n        /* \"#utility.yul\":2457:2459   */\n      0x40\n        /* \"#utility.yul\":2445:2454   */\n      dup4\n        /* \"#utility.yul\":2436:2443   */\n      dup6\n        /* \"#utility.yul\":2432:2455   */\n      sub\n        /* \"#utility.yul\":2428:2460   */\n      slt\n        /* \"#utility.yul\":2425:2477   */\n      iszero\n      tag_124\n      jumpi\n        /* \"#utility.yul\":2473:2474   */\n      0x00\n        /* \"#utility.yul\":2470:2471   */\n      dup1\n        /* \"#utility.yul\":2463:2475   */\n      revert\n        /* \"#utility.yul\":2425:2477   */\n    tag_124:\n        /* \"#utility.yul\":2499:2522   */\n      dup3\n      calldataload\n      sub(shl(0xa0, 0x01), 0x01)\n        /* \"#utility.yul\":2551:2582   */\n      dup2\n      and\n        /* \"#utility.yul\":2541:2583   */\n      dup2\n      eq\n        /* \"#utility.yul\":2531:2601   */\n      tag_125\n      jumpi\n        /* \"#utility.yul\":2597:2598   */\n      0x00\n        /* \"#utility.yul\":2594:2595   */\n      dup1\n        /* \"#utility.yul\":2587:2599   */\n      revert\n        /* \"#utility.yul\":2531:2601   */\n    tag_125:\n        /* \"#utility.yul\":2620:2625   */\n      swap5\n        /* \"#utility.yul\":2698:2700   */\n      0x20\n        /* \"#utility.yul\":2683:2701   */\n      swap4\n      swap1\n      swap4\n      add\n        /* \"#utility.yul\":2670:2702   */\n      calldataload\n      swap4\n      pop\n      pop\n      pop\n        /* \"#utility.yul\":2328:2734   */\n      jump\t// out\n        /* \"#utility.yul\":2990:3370   */\n    tag_57:\n        /* \"#utility.yul\":3069:3070   */\n      0x01\n        /* \"#utility.yul\":3065:3077   */\n      dup2\n      dup2\n      shr\n      swap1\n        /* \"#utility.yul\":3112:3124   */\n      dup3\n      and\n      dup1\n        /* \"#utility.yul\":3133:3194   */\n      tag_128\n      jumpi\n        /* \"#utility.yul\":3187:3191   */\n      0x7f\n        /* \"#utility.yul\":3179:3185   */\n      dup3\n        /* \"#utility.yul\":3175:3192   */\n      and\n        /* \"#utility.yul\":3165:3192   */\n      swap2\n      pop\n        /* \"#utility.yul\":3133:3194   */\n    tag_128:\n        /* \"#utility.yul\":3240:3242   */\n      0x20\n        /* \"#utility.yul\":3232:3238   */\n      dup3\n        /* \"#utility.yul\":3229:3243   */\n      lt\n        /* \"#utility.yul\":3209:3227   */\n      dup2\n        /* \"#utility.yul\":3206:3244   */\n      sub\n        /* \"#utility.yul\":3203:3364   */\n      tag_129\n      jumpi\n        /* \"#utility.yul\":3286:3296   */\n      0x4e487b71\n        /* \"#utility.yul\":3281:3284   */\n      0xe0\n        /* \"#utility.yul\":3277:3297   */\n      shl\n        /* \"#utility.yul\":3274:3275   */\n      0x00\n        /* \"#utility.yul\":3267:3298   */\n      mstore\n        /* \"#utility.yul\":3321:3325   */\n      0x22\n        /* \"#utility.yul\":3318:3319   */\n      0x04\n        /* \"#utility.yul\":3311:3326   */\n      mstore\n        /* \"#utility.yul\":3349:3353   */\n      0x24\n        /* \"#utility.yul\":3346:3347   */\n      0x00\n        /* \"#utility.yul\":3339:3354   */\n      revert\n        /* \"#utility.yul\":3203:3364   */\n    tag_129:\n      pop\n        /* \"#utility.yul\":2990:3370   */\n      swap2\n      swap1\n      pop\n      jump\t// out\n        /* \"#utility.yul\":3375:3710   */\n    tag_74:\n        /* \"#utility.yul\":3542:3544   */\n      0x40\n        /* \"#utility.yul\":3527:3545   */\n      dup2\n      add\n        /* \"#utility.yul\":3575:3576   */\n      0x06\n        /* \"#utility.yul\":3564:3577   */\n      dup5\n      lt\n        /* \"#utility.yul\":3554:3601   */\n      tag_132\n      jumpi\n        /* \"#utility.yul\":3581:3599   */\n      tag_132\n      tag_84\n      jump\t// in\n    tag_132:\n        /* \"#utility.yul\":3610:3635   */\n      swap3\n      dup2\n      mstore\n      sub(shl(0xa0, 0x01), 0x01)\n        /* \"#utility.yul\":3671:3703   */\n      swap2\n      swap1\n      swap2\n      and\n        /* \"#utility.yul\":3666:3668   */\n      0x20\n        /* \"#utility.yul\":3651:3669   */\n      swap1\n      swap2\n      add\n        /* \"#utility.yul\":3644:3704   */\n      mstore\n        /* \"#utility.yul\":3375:3710   */\n      swap1\n      jump\t// out\n        /* \"#utility.yul\":3715:3992   */\n    tag_78:\n        /* \"#utility.yul\":3782:3788   */\n      0x00\n        /* \"#utility.yul\":3835:3837   */\n      0x20\n        /* \"#utility.yul\":3823:3832   */\n      dup3\n        /* \"#utility.yul\":3814:3821   */\n      dup5\n        /* \"#utility.yul\":3810:3833   */\n      sub\n        /* \"#utility.yul\":3806:3838   */\n      slt\n        /* \"#utility.yul\":3803:3855   */\n      iszero\n      tag_134\n      jumpi\n        /* \"#utility.yul\":3851:3852   */\n      0x00\n        /* \"#utility.yul\":3848:3849   */\n      dup1\n        /* \"#utility.yul\":3841:3853   */\n      revert\n        /* \"#utility.yul\":3803:3855   */\n    tag_134:\n        /* \"#utility.yul\":3883:3892   */\n      dup2\n        /* \"#utility.yul\":3877:3893   */\n      mload\n        /* \"#utility.yul\":3936:3941   */\n      dup1\n        /* \"#utility.yul\":3929:3942   */\n      iszero\n        /* \"#utility.yul\":3922:3943   */\n      iszero\n        /* \"#utility.yul\":3915:3920   */\n      dup2\n        /* \"#utility.yul\":3912:3944   */\n      eq\n        /* \"#utility.yul\":3902:3962   */\n      tag_106\n      jumpi\n        /* \"#utility.yul\":3958:3959   */\n      0x00\n        /* \"#utility.yul\":3955:3956   */\n      dup1\n        /* \"#utility.yul\":3948:3960   */\n      revert\n        /* \"#utility.yul\":4404:4531   */\n    tag_102:\n        /* \"#utility.yul\":4465:4475   */\n      0x4e487b71\n        /* \"#utility.yul\":4460:4463   */\n      0xe0\n        /* \"#utility.yul\":4456:4476   */\n      shl\n        /* \"#utility.yul\":4453:4454   */\n      0x00\n        /* \"#utility.yul\":4446:4477   */\n      mstore\n        /* \"#utility.yul\":4496:4500   */\n      0x11\n        /* \"#utility.yul\":4493:4494   */\n      0x04\n        /* \"#utility.yul\":4486:4501   */\n      mstore\n        /* \"#utility.yul\":4520:4524   */\n      0x24\n        /* \"#utility.yul\":4517:4518   */\n      0x00\n        /* \"#utility.yul\":4510:4525   */\n      revert\n        /* \"#utility.yul\":4536:4664   */\n    tag_93:\n        /* \"#utility.yul\":4603:4612   */\n      dup2\n      dup2\n      sub\n        /* \"#utility.yul\":4624:4635   */\n      dup2\n      dup2\n      gt\n        /* \"#utility.yul\":4621:4658   */\n      iszero\n      tag_116\n      jumpi\n        /* \"#utility.yul\":4638:4656   */\n      tag_116\n      tag_102\n      jump\t// in\n        /* \"#utility.yul\":4669:4794   */\n    tag_95:\n        /* \"#utility.yul\":4734:4743   */\n      dup1\n      dup3\n      add\n        /* \"#utility.yul\":4755:4765   */\n      dup1\n      dup3\n      gt\n        /* \"#utility.yul\":4752:4788   */\n      iszero\n      tag_116\n      jumpi\n        /* \"#utility.yul\":4768:4786   */\n      tag_116\n      tag_102\n      jump\t// in\n        /* \"#utility.yul\":5163:5372   */\n    tag_99:\n        /* \"#utility.yul\":5195:5196   */\n      0x00\n        /* \"#utility.yul\":5221:5222   */\n      dup3\n        /* \"#utility.yul\":5211:5343   */\n      tag_146\n      jumpi\n        /* \"#utility.yul\":5265:5275   */\n      0x4e487b71\n        /* \"#utility.yul\":5260:5263   */\n      0xe0\n        /* \"#utility.yul\":5256:5276   */\n      shl\n        /* \"#utility.yul\":5253:5254   */\n      0x00\n        /* \"#utility.yul\":5246:5277   */\n      mstore\n        /* \"#utility.yul\":5300:5304   */\n      0x12\n        /* \"#utility.yul\":5297:5298   */\n      0x04\n        /* \"#utility.yul\":5290:5305   */\n      mstore\n        /* \"#utility.yul\":5328:5332   */\n      0x24\n        /* \"#utility.yul\":5325:5326   */\n      0x00\n        /* \"#utility.yul\":5318:5333   */\n      revert\n        /* \"#utility.yul\":5211:5343   */\n    tag_146:\n      pop\n        /* \"#utility.yul\":5357:5366   */\n      mod\n      swap1\n        /* \"#utility.yul\":5163:5372   */\n      jump\t// out\n\n    auxdata: 0xa26469706673582212204e6489ea74399d18e3a3f9b1c25828b5e2b8ad6fecc480bec61e104b305817a464736f6c634300081a0033\n}\n",
				"bytecode": {
					"linkReferences": {},
					"object": "60c06040526001600655348015610014575f80fd5b50604051610baa380380610baa833981016040819052610033916101a7565b600180546001600160a01b038084166001600160a01b03199283161790925583516003805491909316911617815560208301518391839183919060049061007a9082610335565b506040820151816002015f6101000a81548160ff021916908360028111156100a4576100a46103ef565b02179055509050505050828413156101025760405162461bcd60e51b815260206004820152601c60248201527f4d696e2072617465206d757374206265203c3d206d6178207261746500000000604482015260640160405180910390fd5b505060809190915260a052610403565b634e487b7160e01b5f52604160045260245ffd5b604051606081016001600160401b038111828210171561014857610148610112565b60405290565b604051601f8201601f191681016001600160401b038111828210171561017657610176610112565b604052919050565b80516001600160a01b0381168114610194575f80fd5b919050565b805160038110610194575f80fd5b5f805f80608085870312156101ba575f80fd5b84516020860151604087015191955093506001600160401b038111156101de575f80fd5b8501606081880312156101ef575f80fd5b6101f7610126565b6102008261017e565b815260208201516001600160401b0381111561021a575f80fd5b8201601f8101891361022a575f80fd5b80516001600160401b0381111561024357610243610112565b610256601f8201601f191660200161014e565b8181528a602083850101111561026a575f80fd5b8160208401602083015e5f6020838301015280602085015250505061029160408301610199565b604082015292506102a690506060860161017e565b905092959194509250565b600181811c908216806102c557607f821691505b6020821081036102e357634e487b7160e01b5f52602260045260245ffd5b50919050565b601f82111561033057805f5260205f20601f840160051c8101602085101561030e5750805b601f840160051c820191505b8181101561032d575f815560010161031a565b50505b505050565b81516001600160401b0381111561034e5761034e610112565b6103628161035c84546102b1565b846102e9565b6020601f821160018114610394575f831561037d5750848201515b5f19600385901b1c1916600184901b17845561032d565b5f84815260208120601f198516915b828110156103c357878501518255602094850194600190920191016103a3565b50848210156103e057868401515f19600387901b60f8161c191681555b50505050600190811b01905550565b634e487b7160e01b5f52602160045260245ffd5b60805160a0516107796104315f395f81816101a001526104b301525f818160e7015261049201526107795ff3fe608060405234801561000f575f80fd5b506004361061009b575f3560e01c8063a5985e8c11610063578063a5985e8c14610117578063af640d0f1461012a578063b7b7fac714610141578063c4fbbe5414610173578063f9da3bd81461019b575f80fd5b80631a0925411461009f5780637284e416146100bd5780638191745f146100c55780639ee7c993146100cd578063a27327dc146100e2575b5f80fd5b6100a76101c2565b6040516100b4919061056e565b60405180910390f35b6100a7610252565b6100a76102de565b6100e06100db366004610587565b6102eb565b005b6101097f000000000000000000000000000000000000000000000000000000000000000081565b6040519081526020016100b4565b60055460ff166040516100b491906105cd565b6101326103e2565b6040516100b4939291906105e1565b61016361014f36600461061b565b5f6020819052908152604090205460ff1681565b60405190151581526020016100b4565b610186610181366004610632565b61048a565b604080519283526020830191909152016100b4565b6101097f000000000000000000000000000000000000000000000000000000000000000081565b6060600280546101d190610667565b80601f01602080910402602001604051908101604052809291908181526020018280546101fd90610667565b80156102485780601f1061021f57610100808354040283529160200191610248565b820191905f5260205f20905b81548152906001019060200180831161022b57829003601f168201915b5050505050905090565b6002805461025f90610667565b80601f016020809104026020016040519081016040528092919081815260200182805461028b90610667565b80156102d65780601f106102ad576101008083540402835291602001916102d6565b820191905f5260205f20905b8154815290600101906020018083116102b957829003601f168201915b505050505081565b6007805461025f90610667565b600154604051631035dec960e31b81526001600160a01b03909116906381aef6489061031d906004903390820161069f565b602060405180830381865afa158015610338573d5f803e3d5ffd5b505050506040513d601f19601f8201168201806040525081019061035c91906106cb565b6103bb5760405162461bcd60e51b815260206004820152602660248201527f43616c6c657220646f6573206e6f742068617665207468652072657175697265604482015265642072616e6b60d01b606482015260840160405180910390fd5b6005805482919060ff191660018360028111156103da576103da6105a5565b021790555050565b60038054600480546001600160a01b03909216929161040090610667565b80601f016020809104026020016040519081016040528092919081815260200182805461042c90610667565b80156104775780601f1061044e57610100808354040283529160200191610477565b820191905f5260205f20905b81548152906001019060200180831161045a57829003601f168201915b5050506002909301549192505060ff1683565b5f80806104d77f00000000000000000000000000000000000000000000000000000000000000007f00000000000000000000000000000000000000000000000000000000000000006106fe565b6104e2906001610711565b604080514260208201526bffffffffffffffffffffffff19606089901b169181019190915260548101869052607401604051602081830303815290604052805190602001205f1c6105339190610724565b5061019095939450505050565b5f81518084528060208401602086015e5f602082860101526020601f19601f83011685010191505092915050565b602081525f6105806020830184610540565b9392505050565b5f60208284031215610597575f80fd5b813560038110610580575f80fd5b634e487b7160e01b5f52602160045260245ffd5b600381106105c9576105c96105a5565b9052565b602081016105db82846105b9565b92915050565b6001600160a01b03841681526060602082018190525f9061060490830185610540565b905061061360408301846105b9565b949350505050565b5f6020828403121561062b575f80fd5b5035919050565b5f8060408385031215610643575f80fd5b82356001600160a01b0381168114610659575f80fd5b946020939093013593505050565b600181811c9082168061067b57607f821691505b60208210810361069957634e487b7160e01b5f52602260045260245ffd5b50919050565b60408101600684106106b3576106b36105a5565b9281526001600160a01b039190911660209091015290565b5f602082840312156106db575f80fd5b81518015158114610580575f80fd5b634e487b7160e01b5f52601160045260245ffd5b818103818111156105db576105db6106ea565b808201808211156105db576105db6106ea565b5f8261073e57634e487b7160e01b5f52601260045260245ffd5b50069056fea26469706673582212204e6489ea74399d18e3a3f9b1c25828b5e2b8ad6fecc480bec61e104b305817a464736f6c634300081a0033",
					"opcodes": "PUSH1 0xC0 PUSH1 0x40 MSTORE PUSH1 0x1 PUSH1 0x6 SSTORE CALLVALUE DUP1 ISZERO PUSH2 0x14 JUMPI PUSH0 DUP1 REVERT JUMPDEST POP PUSH1 0x40 MLOAD PUSH2 0xBAA CODESIZE SUB DUP1 PUSH2 0xBAA DUP4 CODECOPY DUP2 ADD PUSH1 0x40 DUP2 SWAP1 MSTORE PUSH2 0x33 SWAP2 PUSH2 0x1A7 JUMP JUMPDEST PUSH1 0x1 DUP1 SLOAD PUSH1 0x1 PUSH1 0x1 PUSH1 0xA0 SHL SUB DUP1 DUP5 AND PUSH1 0x1 PUSH1 0x1 PUSH1 0xA0 SHL SUB NOT SWAP3 DUP4 AND OR SWAP1 SWAP3 SSTORE DUP4 MLOAD PUSH1 0x3 DUP1 SLOAD SWAP2 SWAP1 SWAP4 AND SWAP2 AND OR DUP2 SSTORE PUSH1 0x20 DUP4 ADD MLOAD DUP4 SWAP2 DUP4 SWAP2 DUP4 SWAP2 SWAP1 PUSH1 0x4 SWAP1 PUSH2 0x7A SWAP1 DUP3 PUSH2 0x335 JUMP JUMPDEST POP PUSH1 0x40 DUP3 ADD MLOAD DUP2 PUSH1 0x2 ADD PUSH0 PUSH2 0x100 EXP DUP2 SLOAD DUP2 PUSH1 0xFF MUL NOT AND SWAP1 DUP4 PUSH1 0x2 DUP2 GT ISZERO PUSH2 0xA4 JUMPI PUSH2 0xA4 PUSH2 0x3EF JUMP JUMPDEST MUL OR SWAP1 SSTORE POP SWAP1 POP POP POP POP DUP3 DUP5 SGT ISZERO PUSH2 0x102 JUMPI PUSH1 0x40 MLOAD PUSH3 0x461BCD PUSH1 0xE5 SHL DUP2 MSTORE PUSH1 0x20 PUSH1 0x4 DUP3 ADD MSTORE PUSH1 0x1C PUSH1 0x24 DUP3 ADD MSTORE PUSH32 0x4D696E2072617465206D757374206265203C3D206D6178207261746500000000 PUSH1 0x44 DUP3 ADD MSTORE PUSH1 0x64 ADD PUSH1 0x40 MLOAD DUP1 SWAP2 SUB SWAP1 REVERT JUMPDEST POP POP PUSH1 0x80 SWAP2 SWAP1 SWAP2 MSTORE PUSH1 0xA0 MSTORE PUSH2 0x403 JUMP JUMPDEST PUSH4 0x4E487B71 PUSH1 0xE0 SHL PUSH0 MSTORE PUSH1 0x41 PUSH1 0x4 MSTORE PUSH1 0x24 PUSH0 REVERT JUMPDEST PUSH1 0x40 MLOAD PUSH1 0x60 DUP2 ADD PUSH1 0x1 PUSH1 0x1 PUSH1 0x40 SHL SUB DUP2 GT DUP3 DUP3 LT OR ISZERO PUSH2 0x148 JUMPI PUSH2 0x148 PUSH2 0x112 JUMP JUMPDEST PUSH1 0x40 MSTORE SWAP1 JUMP JUMPDEST PUSH1 0x40 MLOAD PUSH1 0x1F DUP3 ADD PUSH1 0x1F NOT AND DUP2 ADD PUSH1 0x1 PUSH1 0x1 PUSH1 0x40 SHL SUB DUP2 GT DUP3 DUP3 LT OR ISZERO PUSH2 0x176 JUMPI PUSH2 0x176 PUSH2 0x112 JUMP JUMPDEST PUSH1 0x40 MSTORE SWAP2 SWAP1 POP JUMP JUMPDEST DUP1 MLOAD PUSH1 0x1 PUSH1 0x1 PUSH1 0xA0 SHL SUB DUP2 AND DUP2 EQ PUSH2 0x194 JUMPI PUSH0 DUP1 REVERT JUMPDEST SWAP2 SWAP1 POP JUMP JUMPDEST DUP1 MLOAD PUSH1 0x3 DUP2 LT PUSH2 0x194 JUMPI PUSH0 DUP1 REVERT JUMPDEST PUSH0 DUP1 PUSH0 DUP1 PUSH1 0x80 DUP6 DUP8 SUB SLT ISZERO PUSH2 0x1BA JUMPI PUSH0 DUP1 REVERT JUMPDEST DUP5 MLOAD PUSH1 0x20 DUP7 ADD MLOAD PUSH1 0x40 DUP8 ADD MLOAD SWAP2 SWAP6 POP SWAP4 POP PUSH1 0x1 PUSH1 0x1 PUSH1 0x40 SHL SUB DUP2 GT ISZERO PUSH2 0x1DE JUMPI PUSH0 DUP1 REVERT JUMPDEST DUP6 ADD PUSH1 0x60 DUP2 DUP9 SUB SLT ISZERO PUSH2 0x1EF JUMPI PUSH0 DUP1 REVERT JUMPDEST PUSH2 0x1F7 PUSH2 0x126 JUMP JUMPDEST PUSH2 0x200 DUP3 PUSH2 0x17E JUMP JUMPDEST DUP2 MSTORE PUSH1 0x20 DUP3 ADD MLOAD PUSH1 0x1 PUSH1 0x1 PUSH1 0x40 SHL SUB DUP2 GT ISZERO PUSH2 0x21A JUMPI PUSH0 DUP1 REVERT JUMPDEST DUP3 ADD PUSH1 0x1F DUP2 ADD DUP10 SGT PUSH2 0x22A JUMPI PUSH0 DUP1 REVERT JUMPDEST DUP1 MLOAD PUSH1 0x1 PUSH1 0x1 PUSH1 0x40 SHL SUB DUP2 GT ISZERO PUSH2 0x243 JUMPI PUSH2 0x243 PUSH2 0x112 JUMP JUMPDEST PUSH2 0x256 PUSH1 0x1F DUP3 ADD PUSH1 0x1F NOT AND PUSH1 0x20 ADD PUSH2 0x14E JUMP JUMPDEST DUP2 DUP2 MSTORE DUP11 PUSH1 0x20 DUP4 DUP6 ADD ADD GT ISZERO PUSH2 0x26A JUMPI PUSH0 DUP1 REVERT JUMPDEST DUP2 PUSH1 0x20 DUP5 ADD PUSH1 0x20 DUP4 ADD MCOPY PUSH0 PUSH1 0x20 DUP4 DUP4 ADD ADD MSTORE DUP1 PUSH1 0x20 DUP6 ADD MSTORE POP POP POP PUSH2 0x291 PUSH1 0x40 DUP4 ADD PUSH2 0x199 JUMP JUMPDEST PUSH1 0x40 DUP3 ADD MSTORE SWAP3 POP PUSH2 0x2A6 SWAP1 POP PUSH1 0x60 DUP7 ADD PUSH2 0x17E JUMP JUMPDEST SWAP1 POP SWAP3 SWAP6 SWAP2 SWAP5 POP SWAP3 POP JUMP JUMPDEST PUSH1 0x1 DUP2 DUP2 SHR SWAP1 DUP3 AND DUP1 PUSH2 0x2C5 JUMPI PUSH1 0x7F DUP3 AND SWAP2 POP JUMPDEST PUSH1 0x20 DUP3 LT DUP2 SUB PUSH2 0x2E3 JUMPI PUSH4 0x4E487B71 PUSH1 0xE0 SHL PUSH0 MSTORE PUSH1 0x22 PUSH1 0x4 MSTORE PUSH1 0x24 PUSH0 REVERT JUMPDEST POP SWAP2 SWAP1 POP JUMP JUMPDEST PUSH1 0x1F DUP3 GT ISZERO PUSH2 0x330 JUMPI DUP1 PUSH0 MSTORE PUSH1 0x20 PUSH0 KECCAK256 PUSH1 0x1F DUP5 ADD PUSH1 0x5 SHR DUP2 ADD PUSH1 0x20 DUP6 LT ISZERO PUSH2 0x30E JUMPI POP DUP1 JUMPDEST PUSH1 0x1F DUP5 ADD PUSH1 0x5 SHR DUP3 ADD SWAP2 POP JUMPDEST DUP2 DUP2 LT ISZERO PUSH2 0x32D JUMPI PUSH0 DUP2 SSTORE PUSH1 0x1 ADD PUSH2 0x31A JUMP JUMPDEST POP POP JUMPDEST POP POP POP JUMP JUMPDEST DUP2 MLOAD PUSH1 0x1 PUSH1 0x1 PUSH1 0x40 SHL SUB DUP2 GT ISZERO PUSH2 0x34E JUMPI PUSH2 0x34E PUSH2 0x112 JUMP JUMPDEST PUSH2 0x362 DUP2 PUSH2 0x35C DUP5 SLOAD PUSH2 0x2B1 JUMP JUMPDEST DUP5 PUSH2 0x2E9 JUMP JUMPDEST PUSH1 0x20 PUSH1 0x1F DUP3 GT PUSH1 0x1 DUP2 EQ PUSH2 0x394 JUMPI PUSH0 DUP4 ISZERO PUSH2 0x37D JUMPI POP DUP5 DUP3 ADD MLOAD JUMPDEST PUSH0 NOT PUSH1 0x3 DUP6 SWAP1 SHL SHR NOT AND PUSH1 0x1 DUP5 SWAP1 SHL OR DUP5 SSTORE PUSH2 0x32D JUMP JUMPDEST PUSH0 DUP5 DUP2 MSTORE PUSH1 0x20 DUP2 KECCAK256 PUSH1 0x1F NOT DUP6 AND SWAP2 JUMPDEST DUP3 DUP2 LT ISZERO PUSH2 0x3C3 JUMPI DUP8 DUP6 ADD MLOAD DUP3 SSTORE PUSH1 0x20 SWAP5 DUP6 ADD SWAP5 PUSH1 0x1 SWAP1 SWAP3 ADD SWAP2 ADD PUSH2 0x3A3 JUMP JUMPDEST POP DUP5 DUP3 LT ISZERO PUSH2 0x3E0 JUMPI DUP7 DUP5 ADD MLOAD PUSH0 NOT PUSH1 0x3 DUP8 SWAP1 SHL PUSH1 0xF8 AND SHR NOT AND DUP2 SSTORE JUMPDEST POP POP POP POP PUSH1 0x1 SWAP1 DUP2 SHL ADD SWAP1 SSTORE POP JUMP JUMPDEST PUSH4 0x4E487B71 PUSH1 0xE0 SHL PUSH0 MSTORE PUSH1 0x21 PUSH1 0x4 MSTORE PUSH1 0x24 PUSH0 REVERT JUMPDEST PUSH1 0x80 MLOAD PUSH1 0xA0 MLOAD PUSH2 0x779 PUSH2 0x431 PUSH0 CODECOPY PUSH0 DUP2 DUP2 PUSH2 0x1A0 ADD MSTORE PUSH2 0x4B3 ADD MSTORE PUSH0 DUP2 DUP2 PUSH1 0xE7 ADD MSTORE PUSH2 0x492 ADD MSTORE PUSH2 0x779 PUSH0 RETURN INVALID PUSH1 0x80 PUSH1 0x40 MSTORE CALLVALUE DUP1 ISZERO PUSH2 0xF JUMPI PUSH0 DUP1 REVERT JUMPDEST POP PUSH1 0x4 CALLDATASIZE LT PUSH2 0x9B JUMPI PUSH0 CALLDATALOAD PUSH1 0xE0 SHR DUP1 PUSH4 0xA5985E8C GT PUSH2 0x63 JUMPI DUP1 PUSH4 0xA5985E8C EQ PUSH2 0x117 JUMPI DUP1 PUSH4 0xAF640D0F EQ PUSH2 0x12A JUMPI DUP1 PUSH4 0xB7B7FAC7 EQ PUSH2 0x141 JUMPI DUP1 PUSH4 0xC4FBBE54 EQ PUSH2 0x173 JUMPI DUP1 PUSH4 0xF9DA3BD8 EQ PUSH2 0x19B JUMPI PUSH0 DUP1 REVERT JUMPDEST DUP1 PUSH4 0x1A092541 EQ PUSH2 0x9F JUMPI DUP1 PUSH4 0x7284E416 EQ PUSH2 0xBD JUMPI DUP1 PUSH4 0x8191745F EQ PUSH2 0xC5 JUMPI DUP1 PUSH4 0x9EE7C993 EQ PUSH2 0xCD JUMPI DUP1 PUSH4 0xA27327DC EQ PUSH2 0xE2 JUMPI JUMPDEST PUSH0 DUP1 REVERT JUMPDEST PUSH2 0xA7 PUSH2 0x1C2 JUMP JUMPDEST PUSH1 0x40 MLOAD PUSH2 0xB4 SWAP2 SWAP1 PUSH2 0x56E JUMP JUMPDEST PUSH1 0x40 MLOAD DUP1 SWAP2 SUB SWAP1 RETURN JUMPDEST PUSH2 0xA7 PUSH2 0x252 JUMP JUMPDEST PUSH2 0xA7 PUSH2 0x2DE JUMP JUMPDEST PUSH2 0xE0 PUSH2 0xDB CALLDATASIZE PUSH1 0x4 PUSH2 0x587 JUMP JUMPDEST PUSH2 0x2EB JUMP JUMPDEST STOP JUMPDEST PUSH2 0x109 PUSH32 0x0 DUP2 JUMP JUMPDEST PUSH1 0x40 MLOAD SWAP1 DUP2 MSTORE PUSH1 0x20 ADD PUSH2 0xB4 JUMP JUMPDEST PUSH1 0x5 SLOAD PUSH1 0xFF AND PUSH1 0x40 MLOAD PUSH2 0xB4 SWAP2 SWAP1 PUSH2 0x5CD JUMP JUMPDEST PUSH2 0x132 PUSH2 0x3E2 JUMP JUMPDEST PUSH1 0x40 MLOAD PUSH2 0xB4 SWAP4 SWAP3 SWAP2 SWAP1 PUSH2 0x5E1 JUMP JUMPDEST PUSH2 0x163 PUSH2 0x14F CALLDATASIZE PUSH1 0x4 PUSH2 0x61B JUMP JUMPDEST PUSH0 PUSH1 0x20 DUP2 SWAP1 MSTORE SWAP1 DUP2 MSTORE PUSH1 0x40 SWAP1 KECCAK256 SLOAD PUSH1 0xFF AND DUP2 JUMP JUMPDEST PUSH1 0x40 MLOAD SWAP1 ISZERO ISZERO DUP2 MSTORE PUSH1 0x20 ADD PUSH2 0xB4 JUMP JUMPDEST PUSH2 0x186 PUSH2 0x181 CALLDATASIZE PUSH1 0x4 PUSH2 0x632 JUMP JUMPDEST PUSH2 0x48A JUMP JUMPDEST PUSH1 0x40 DUP1 MLOAD SWAP3 DUP4 MSTORE PUSH1 0x20 DUP4 ADD SWAP2 SWAP1 SWAP2 MSTORE ADD PUSH2 0xB4 JUMP JUMPDEST PUSH2 0x109 PUSH32 0x0 DUP2 JUMP JUMPDEST PUSH1 0x60 PUSH1 0x2 DUP1 SLOAD PUSH2 0x1D1 SWAP1 PUSH2 0x667 JUMP JUMPDEST DUP1 PUSH1 0x1F ADD PUSH1 0x20 DUP1 SWAP2 DIV MUL PUSH1 0x20 ADD PUSH1 0x40 MLOAD SWAP1 DUP2 ADD PUSH1 0x40 MSTORE DUP1 SWAP3 SWAP2 SWAP1 DUP2 DUP2 MSTORE PUSH1 0x20 ADD DUP3 DUP1 SLOAD PUSH2 0x1FD SWAP1 PUSH2 0x667 JUMP JUMPDEST DUP1 ISZERO PUSH2 0x248 JUMPI DUP1 PUSH1 0x1F LT PUSH2 0x21F JUMPI PUSH2 0x100 DUP1 DUP4 SLOAD DIV MUL DUP4 MSTORE SWAP2 PUSH1 0x20 ADD SWAP2 PUSH2 0x248 JUMP JUMPDEST DUP3 ADD SWAP2 SWAP1 PUSH0 MSTORE PUSH1 0x20 PUSH0 KECCAK256 SWAP1 JUMPDEST DUP2 SLOAD DUP2 MSTORE SWAP1 PUSH1 0x1 ADD SWAP1 PUSH1 0x20 ADD DUP1 DUP4 GT PUSH2 0x22B JUMPI DUP3 SWAP1 SUB PUSH1 0x1F AND DUP3 ADD SWAP2 JUMPDEST POP POP POP POP POP SWAP1 POP SWAP1 JUMP JUMPDEST PUSH1 0x2 DUP1 SLOAD PUSH2 0x25F SWAP1 PUSH2 0x667 JUMP JUMPDEST DUP1 PUSH1 0x1F ADD PUSH1 0x20 DUP1 SWAP2 DIV MUL PUSH1 0x20 ADD PUSH1 0x40 MLOAD SWAP1 DUP2 ADD PUSH1 0x40 MSTORE DUP1 SWAP3 SWAP2 SWAP1 DUP2 DUP2 MSTORE PUSH1 0x20 ADD DUP3 DUP1 SLOAD PUSH2 0x28B SWAP1 PUSH2 0x667 JUMP JUMPDEST DUP1 ISZERO PUSH2 0x2D6 JUMPI DUP1 PUSH1 0x1F LT PUSH2 0x2AD JUMPI PUSH2 0x100 DUP1 DUP4 SLOAD DIV MUL DUP4 MSTORE SWAP2 PUSH1 0x20 ADD SWAP2 PUSH2 0x2D6 JUMP JUMPDEST DUP3 ADD SWAP2 SWAP1 PUSH0 MSTORE PUSH1 0x20 PUSH0 KECCAK256 SWAP1 JUMPDEST DUP2 SLOAD DUP2 MSTORE SWAP1 PUSH1 0x1 ADD SWAP1 PUSH1 0x20 ADD DUP1 DUP4 GT PUSH2 0x2B9 JUMPI DUP3 SWAP1 SUB PUSH1 0x1F AND DUP3 ADD SWAP2 JUMPDEST POP POP POP POP POP DUP2 JUMP JUMPDEST PUSH1 0x7 DUP1 SLOAD PUSH2 0x25F SWAP1 PUSH2 0x667 JUMP JUMPDEST PUSH1 0x1 SLOAD PUSH1 0x40 MLOAD PUSH4 0x1035DEC9 PUSH1 0xE3 SHL DUP2 MSTORE PUSH1 0x1 PUSH1 0x1 PUSH1 0xA0 SHL SUB SWAP1 SWAP2 AND SWAP1 PUSH4 0x81AEF648 SWAP1 PUSH2 0x31D SWAP1 PUSH1 0x4 SWAP1 CALLER SWAP1 DUP3 ADD PUSH2 0x69F JUMP JUMPDEST PUSH1 0x20 PUSH1 0x40 MLOAD DUP1 DUP4 SUB DUP2 DUP7 GAS STATICCALL ISZERO DUP1 ISZERO PUSH2 0x338 JUMPI RETURNDATASIZE PUSH0 DUP1 RETURNDATACOPY RETURNDATASIZE PUSH0 REVERT JUMPDEST POP POP POP POP PUSH1 0x40 MLOAD RETURNDATASIZE PUSH1 0x1F NOT PUSH1 0x1F DUP3 ADD AND DUP3 ADD DUP1 PUSH1 0x40 MSTORE POP DUP2 ADD SWAP1 PUSH2 0x35C SWAP2 SWAP1 PUSH2 0x6CB JUMP JUMPDEST PUSH2 0x3BB JUMPI PUSH1 0x40 MLOAD PUSH3 0x461BCD PUSH1 0xE5 SHL DUP2 MSTORE PUSH1 0x20 PUSH1 0x4 DUP3 ADD MSTORE PUSH1 0x26 PUSH1 0x24 DUP3 ADD MSTORE PUSH32 0x43616C6C657220646F6573206E6F742068617665207468652072657175697265 PUSH1 0x44 DUP3 ADD MSTORE PUSH6 0x642072616E6B PUSH1 0xD0 SHL PUSH1 0x64 DUP3 ADD MSTORE PUSH1 0x84 ADD PUSH1 0x40 MLOAD DUP1 SWAP2 SUB SWAP1 REVERT JUMPDEST PUSH1 0x5 DUP1 SLOAD DUP3 SWAP2 SWAP1 PUSH1 0xFF NOT AND PUSH1 0x1 DUP4 PUSH1 0x2 DUP2 GT ISZERO PUSH2 0x3DA JUMPI PUSH2 0x3DA PUSH2 0x5A5 JUMP JUMPDEST MUL OR SWAP1 SSTORE POP POP JUMP JUMPDEST PUSH1 0x3 DUP1 SLOAD PUSH1 0x4 DUP1 SLOAD PUSH1 0x1 PUSH1 0x1 PUSH1 0xA0 SHL SUB SWAP1 SWAP3 AND SWAP3 SWAP2 PUSH2 0x400 SWAP1 PUSH2 0x667 JUMP JUMPDEST DUP1 PUSH1 0x1F ADD PUSH1 0x20 DUP1 SWAP2 DIV MUL PUSH1 0x20 ADD PUSH1 0x40 MLOAD SWAP1 DUP2 ADD PUSH1 0x40 MSTORE DUP1 SWAP3 SWAP2 SWAP1 DUP2 DUP2 MSTORE PUSH1 0x20 ADD DUP3 DUP1 SLOAD PUSH2 0x42C SWAP1 PUSH2 0x667 JUMP JUMPDEST DUP1 ISZERO PUSH2 0x477 JUMPI DUP1 PUSH1 0x1F LT PUSH2 0x44E JUMPI PUSH2 0x100 DUP1 DUP4 SLOAD DIV MUL DUP4 MSTORE SWAP2 PUSH1 0x20 ADD SWAP2 PUSH2 0x477 JUMP JUMPDEST DUP3 ADD SWAP2 SWAP1 PUSH0 MSTORE PUSH1 0x20 PUSH0 KECCAK256 SWAP1 JUMPDEST DUP2 SLOAD DUP2 MSTORE SWAP1 PUSH1 0x1 ADD SWAP1 PUSH1 0x20 ADD DUP1 DUP4 GT PUSH2 0x45A JUMPI DUP3 SWAP1 SUB PUSH1 0x1F AND DUP3 ADD SWAP2 JUMPDEST POP POP POP PUSH1 0x2 SWAP1 SWAP4 ADD SLOAD SWAP2 SWAP3 POP POP PUSH1 0xFF AND DUP4 JUMP JUMPDEST PUSH0 DUP1 DUP1 PUSH2 0x4D7 PUSH32 0x0 PUSH32 0x0 PUSH2 0x6FE JUMP JUMPDEST PUSH2 0x4E2 SWAP1 PUSH1 0x1 PUSH2 0x711 JUMP JUMPDEST PUSH1 0x40 DUP1 MLOAD TIMESTAMP PUSH1 0x20 DUP3 ADD MSTORE PUSH12 0xFFFFFFFFFFFFFFFFFFFFFFFF NOT PUSH1 0x60 DUP10 SWAP1 SHL AND SWAP2 DUP2 ADD SWAP2 SWAP1 SWAP2 MSTORE PUSH1 0x54 DUP2 ADD DUP7 SWAP1 MSTORE PUSH1 0x74 ADD PUSH1 0x40 MLOAD PUSH1 0x20 DUP2 DUP4 SUB SUB DUP2 MSTORE SWAP1 PUSH1 0x40 MSTORE DUP1 MLOAD SWAP1 PUSH1 0x20 ADD KECCAK256 PUSH0 SHR PUSH2 0x533 SWAP2 SWAP1 PUSH2 0x724 JUMP JUMPDEST POP PUSH2 0x190 SWAP6 SWAP4 SWAP5 POP POP POP POP JUMP JUMPDEST PUSH0 DUP2 MLOAD DUP1 DUP5 MSTORE DUP1 PUSH1 0x20 DUP5 ADD PUSH1 0x20 DUP7 ADD MCOPY PUSH0 PUSH1 0x20 DUP3 DUP7 ADD ADD MSTORE PUSH1 0x20 PUSH1 0x1F NOT PUSH1 0x1F DUP4 ADD AND DUP6 ADD ADD SWAP2 POP POP SWAP3 SWAP2 POP POP JUMP JUMPDEST PUSH1 0x20 DUP2 MSTORE PUSH0 PUSH2 0x580 PUSH1 0x20 DUP4 ADD DUP5 PUSH2 0x540 JUMP JUMPDEST SWAP4 SWAP3 POP POP POP JUMP JUMPDEST PUSH0 PUSH1 0x20 DUP3 DUP5 SUB SLT ISZERO PUSH2 0x597 JUMPI PUSH0 DUP1 REVERT JUMPDEST DUP2 CALLDATALOAD PUSH1 0x3 DUP2 LT PUSH2 0x580 JUMPI PUSH0 DUP1 REVERT JUMPDEST PUSH4 0x4E487B71 PUSH1 0xE0 SHL PUSH0 MSTORE PUSH1 0x21 PUSH1 0x4 MSTORE PUSH1 0x24 PUSH0 REVERT JUMPDEST PUSH1 0x3 DUP2 LT PUSH2 0x5C9 JUMPI PUSH2 0x5C9 PUSH2 0x5A5 JUMP JUMPDEST SWAP1 MSTORE JUMP JUMPDEST PUSH1 0x20 DUP2 ADD PUSH2 0x5DB DUP3 DUP5 PUSH2 0x5B9 JUMP JUMPDEST SWAP3 SWAP2 POP POP JUMP JUMPDEST PUSH1 0x1 PUSH1 0x1 PUSH1 0xA0 SHL SUB DUP5 AND DUP2 MSTORE PUSH1 0x60 PUSH1 0x20 DUP3 ADD DUP2 SWAP1 MSTORE PUSH0 SWAP1 PUSH2 0x604 SWAP1 DUP4 ADD DUP6 PUSH2 0x540 JUMP JUMPDEST SWAP1 POP PUSH2 0x613 PUSH1 0x40 DUP4 ADD DUP5 PUSH2 0x5B9 JUMP JUMPDEST SWAP5 SWAP4 POP POP POP POP JUMP JUMPDEST PUSH0 PUSH1 0x20 DUP3 DUP5 SUB SLT ISZERO PUSH2 0x62B JUMPI PUSH0 DUP1 REVERT JUMPDEST POP CALLDATALOAD SWAP2 SWAP1 POP JUMP JUMPDEST PUSH0 DUP1 PUSH1 0x40 DUP4 DUP6 SUB SLT ISZERO PUSH2 0x643 JUMPI PUSH0 DUP1 REVERT JUMPDEST DUP3 CALLDATALOAD PUSH1 0x1 PUSH1 0x1 PUSH1 0xA0 SHL SUB DUP2 AND DUP2 EQ PUSH2 0x659 JUMPI PUSH0 DUP1 REVERT JUMPDEST SWAP5 PUSH1 0x20 SWAP4 SWAP1 SWAP4 ADD CALLDATALOAD SWAP4 POP POP POP JUMP JUMPDEST PUSH1 0x1 DUP2 DUP2 SHR SWAP1 DUP3 AND DUP1 PUSH2 0x67B JUMPI PUSH1 0x7F DUP3 AND SWAP2 POP JUMPDEST PUSH1 0x20 DUP3 LT DUP2 SUB PUSH2 0x699 JUMPI PUSH4 0x4E487B71 PUSH1 0xE0 SHL PUSH0 MSTORE PUSH1 0x22 PUSH1 0x4 MSTORE PUSH1 0x24 PUSH0 REVERT JUMPDEST POP SWAP2 SWAP1 POP JUMP JUMPDEST PUSH1 0x40 DUP2 ADD PUSH1 0x6 DUP5 LT PUSH2 0x6B3 JUMPI PUSH2 0x6B3 PUSH2 0x5A5 JUMP JUMPDEST SWAP3 DUP2 MSTORE PUSH1 0x1 PUSH1 0x1 PUSH1 0xA0 SHL SUB SWAP2 SWAP1 SWAP2 AND PUSH1 0x20 SWAP1 SWAP2 ADD MSTORE SWAP1 JUMP JUMPDEST PUSH0 PUSH1 0x20 DUP3 DUP5 SUB SLT ISZERO PUSH2 0x6DB JUMPI PUSH0 DUP1 REVERT JUMPDEST DUP2 MLOAD DUP1 ISZERO ISZERO DUP2 EQ PUSH2 0x580 JUMPI PUSH0 DUP1 REVERT JUMPDEST PUSH4 0x4E487B71 PUSH1 0xE0 SHL PUSH0 MSTORE PUSH1 0x11 PUSH1 0x4 MSTORE PUSH1 0x24 PUSH0 REVERT JUMPDEST DUP2 DUP2 SUB DUP2 DUP2 GT ISZERO PUSH2 0x5DB JUMPI PUSH2 0x5DB PUSH2 0x6EA JUMP JUMPDEST DUP1 DUP3 ADD DUP1 DUP3 GT ISZERO PUSH2 0x5DB JUMPI PUSH2 0x5DB PUSH2 0x6EA JUMP JUMPDEST PUSH0 DUP3 PUSH2 0x73E JUMPI PUSH4 0x4E487B71 PUSH1 0xE0 SHL PUSH0 MSTORE PUSH1 0x12 PUSH1 0x4 MSTORE PUSH1 0x24 PUSH0 REVERT JUMPDEST POP MOD SWAP1 JUMP INVALID LOG2 PUSH5 0x6970667358 0x22 SLT KECCAK256 0x4E PUSH5 0x89EA74399D XOR 0xE3 LOG3 0xF9 0xB1 0xC2 PC 0x28 0xB5 0xE2 0xB8 0xAD PUSH16 0xECC480BEC61E104B305817A464736F6C PUSH4 0x4300081A STOP CALLER "
				},
				"gasEstimates": {
					"creation": {
						"codeDepositCost": "382600",
						"executionCost": "infinite",
						"totalCost": "infinite"
					},
					"external": {
						"Description()": "infinite",
						"UserActiveList(uint256)": "2494",
						"calculateTotalBasisFee(address,uint256)": "infinite",
						"description()": "infinite",
						"getDescription()": "infinite",
						"getLevel()": "2366",
						"id()": "infinite",
						"maxRateBasisPoints()": "infinite",
						"minRateBasisPoints()": "infinite",
						"setBaseImportance(uint8)": "infinite"
					}
				},
				"methodIdentifiers": {
					"Description()": "8191745f",
					"UserActiveList(uint256)": "b7b7fac7",
					"calculateTotalBasisFee(address,uint256)": "c4fbbe54",
					"description()": "7284e416",
					"getDescription()": "1a092541",
					"getLevel()": "a5985e8c",
					"id()": "af640d0f",
					"maxRateBasisPoints()": "f9da3bd8",
					"minRateBasisPoints()": "a27327dc",
					"setBaseImportance(uint8)": "9ee7c993"
				}
			},
			"storageLayout": {
				"storage": [
					{
						"astId": 354,
						"contract": "contracts/Classes/randomizedVibeCalculator.sol:RandomizedVibeCalculator",
						"label": "UserActiveList",
						"offset": 0,
						"slot": "0",
						"type": "t_mapping(t_uint256,t_bool)"
					},
					{
						"astId": 357,
						"contract": "contracts/Classes/randomizedVibeCalculator.sol:RandomizedVibeCalculator",
						"label": "accessControl",
						"offset": 0,
						"slot": "1",
						"type": "t_contract(HierarchicalAccessControl)313"
					},
					{
						"astId": 359,
						"contract": "contracts/Classes/randomizedVibeCalculator.sol:RandomizedVibeCalculator",
						"label": "description",
						"offset": 0,
						"slot": "2",
						"type": "t_string_storage"
					},
					{
						"astId": 374,
						"contract": "contracts/Classes/randomizedVibeCalculator.sol:RandomizedVibeCalculator",
						"label": "id",
						"offset": 0,
						"slot": "3",
						"type": "t_struct(VibeInfo)371_storage"
					},
					{
						"astId": 431,
						"contract": "contracts/Classes/randomizedVibeCalculator.sol:RandomizedVibeCalculator",
						"label": "locked",
						"offset": 0,
						"slot": "6",
						"type": "t_uint256"
					},
					{
						"astId": 486,
						"contract": "contracts/Classes/randomizedVibeCalculator.sol:RandomizedVibeCalculator",
						"label": "Description",
						"offset": 0,
						"slot": "7",
						"type": "t_string_storage"
					}
				],
				"types": {
					"t_address": {
						"encoding": "inplace",
						"label": "address",
						"numberOfBytes": "20"
					},
					"t_bool": {
						"encoding": "inplace",
						"label": "bool",
						"numberOfBytes": "1"
					},
					"t_contract(HierarchicalAccessControl)313": {
						"encoding": "inplace",
						"label": "contract HierarchicalAccessControl",
						"numberOfBytes": "20"
					},
					"t_enum(Importance)363": {
						"encoding": "inplace",
						"label": "enum VibeBase.Importance",
						"numberOfBytes": "1"
					},
					"t_mapping(t_uint256,t_bool)": {
						"encoding": "mapping",
						"key": "t_uint256",
						"label": "mapping(uint256 => bool)",
						"numberOfBytes": "32",
						"value": "t_bool"
					},
					"t_string_storage": {
						"encoding": "bytes",
						"label": "string",
						"numberOfBytes": "32"
					},
					"t_struct(VibeInfo)371_storage": {
						"encoding": "inplace",
						"label": "struct VibeBase.VibeInfo",
						"members": [
							{
								"astId": 365,
								"contract": "contracts/Classes/randomizedVibeCalculator.sol:RandomizedVibeCalculator",
								"label": "creatorAddress",
								"offset": 0,
								"slot": "0",
								"type": "t_address"
							},
							{
								"astId": 367,
								"contract": "contracts/Classes/randomizedVibeCalculator.sol:RandomizedVibeCalculator",
								"label": "info",
								"offset": 0,
								"slot": "1",
								"type": "t_string_storage"
							},
							{
								"astId": 370,
								"contract": "contracts/Classes/randomizedVibeCalculator.sol:RandomizedVibeCalculator",
								"label": "level",
								"offset": 0,
								"slot": "2",
								"type": "t_enum(Importance)363"
							}
						],
						"numberOfBytes": "96"
					},
					"t_uint256": {
						"encoding": "inplace",
						"label": "uint256",
						"numberOfBytes": "32"
					}
				}
			},
			"userdoc": {
				"kind": "user",
				"methods": {},
				"version": 1
			}
		}
	}
}