{
	"contracts/Access.sol": {
		"HierarchicalAccessControl": {
			"abi": [
				{
					"inputs": [],
					"stateMutability": "nonpayable",
					"type": "constructor"
				},
				{
					"inputs": [
						{
							"internalType": "address",
							"name": "account",
							"type": "address"
						},
						{
							"internalType": "enum HierarchicalAccessControl.Rank",
							"name": "requiredRank",
							"type": "uint8"
						}
					],
					"name": "AccessDenied",
					"type": "error"
				},
				{
					"inputs": [
						{
							"internalType": "string",
							"name": "reason",
							"type": "string"
						}
					],
					"name": "InvalidOperation",
					"type": "error"
				},
				{
					"anonymous": false,
					"inputs": [
						{
							"indexed": true,
							"internalType": "address",
							"name": "account",
							"type": "address"
						},
						{
							"indexed": false,
							"internalType": "enum HierarchicalAccessControl.Rank",
							"name": "rank",
							"type": "uint8"
						}
					],
					"name": "RankAssigned",
					"type": "event"
				},
				{
					"anonymous": false,
					"inputs": [
						{
							"indexed": true,
							"internalType": "address",
							"name": "account",
							"type": "address"
						},
						{
							"indexed": false,
							"internalType": "enum HierarchicalAccessControl.Rank",
							"name": "newRank",
							"type": "uint8"
						}
					],
					"name": "RankDowngraded",
					"type": "event"
				},
				{
					"anonymous": false,
					"inputs": [
						{
							"indexed": true,
							"internalType": "address",
							"name": "account",
							"type": "address"
						}
					],
					"name": "RankRevoked",
					"type": "event"
				},
				{
					"anonymous": false,
					"inputs": [
						{
							"indexed": true,
							"internalType": "address",
							"name": "account",
							"type": "address"
						},
						{
							"indexed": false,
							"internalType": "enum HierarchicalAccessControl.Rank",
							"name": "newRank",
							"type": "uint8"
						}
					],
					"name": "RankUpgraded",
					"type": "event"
				},
				{
					"inputs": [
						{
							"internalType": "address",
							"name": "account",
							"type": "address"
						},
						{
							"internalType": "enum HierarchicalAccessControl.Rank",
							"name": "rank",
							"type": "uint8"
						}
					],
					"name": "assignRank",
					"outputs": [],
					"stateMutability": "nonpayable",
					"type": "function"
				},
				{
					"inputs": [
						{
							"internalType": "address",
							"name": "account",
							"type": "address"
						}
					],
					"name": "downgradeRank",
					"outputs": [],
					"stateMutability": "nonpayable",
					"type": "function"
				},
				{
					"inputs": [
						{
							"internalType": "address",
							"name": "account",
							"type": "address"
						}
					],
					"name": "getRank",
					"outputs": [
						{
							"internalType": "enum HierarchicalAccessControl.Rank",
							"name": "",
							"type": "uint8"
						}
					],
					"stateMutability": "view",
					"type": "function"
				},
				{
					"inputs": [
						{
							"internalType": "enum HierarchicalAccessControl.Rank",
							"name": "requiredRank",
							"type": "uint8"
						},
						{
							"internalType": "address",
							"name": "account",
							"type": "address"
						}
					],
					"name": "hasRank",
					"outputs": [
						{
							"internalType": "bool",
							"name": "",
							"type": "bool"
						}
					],
					"stateMutability": "view",
					"type": "function"
				},
				{
					"inputs": [
						{
							"internalType": "address",
							"name": "account",
							"type": "address"
						}
					],
					"name": "revokeRank",
					"outputs": [],
					"stateMutability": "nonpayable",
					"type": "function"
				},
				{
					"inputs": [
						{
							"internalType": "address",
							"name": "account",
							"type": "address"
						}
					],
					"name": "upgradeRank",
					"outputs": [],
					"stateMutability": "nonpayable",
					"type": "function"
				}
			],
			"devdoc": {
				"details": "Implements role-based access control with hierarchical ranks.",
				"errors": {
					"AccessDenied(address,uint8)": [
						{
							"details": "Error thrown when an account lacks the required rank.",
							"params": {
								"account": "The address of the account attempting the operation.",
								"requiredRank": "The rank required for the operation."
							}
						}
					],
					"InvalidOperation(string)": [
						{
							"details": "Error thrown when an invalid operation is attempted.",
							"params": {
								"reason": "The reason why the operation is invalid."
							}
						}
					]
				},
				"events": {
					"RankAssigned(address,uint8)": {
						"details": "Emitted when a rank is assigned to an account.",
						"params": {
							"account": "The address of the account being assigned a rank.",
							"rank": "The rank assigned to the account."
						}
					},
					"RankDowngraded(address,uint8)": {
						"details": "Emitted when an account's rank is downgraded.",
						"params": {
							"account": "The address of the account being downgraded.",
							"newRank": "The new rank assigned to the account."
						}
					},
					"RankRevoked(address)": {
						"details": "Emitted when a rank is revoked from an account.",
						"params": {
							"account": "The address of the account whose rank is revoked."
						}
					},
					"RankUpgraded(address,uint8)": {
						"details": "Emitted when an account's rank is upgraded.",
						"params": {
							"account": "The address of the account being upgraded.",
							"newRank": "The new rank assigned to the account."
						}
					}
				},
				"kind": "dev",
				"methods": {
					"assignRank(address,uint8)": {
						"details": "Can only be called by accounts with CONSUL rank or higher.",
						"params": {
							"account": "The address to assign the rank to.",
							"rank": "The rank to be assigned."
						}
					},
					"constructor": {
						"details": "Constructor that assigns the deployer the highest rank (PREATORMAXIMUS)."
					},
					"downgradeRank(address)": {
						"details": "Can only be called by accounts with CONSUL rank or higher.",
						"params": {
							"account": "The address to downgrade the rank for."
						}
					},
					"getRank(address)": {
						"params": {
							"account": "The address to check."
						},
						"returns": {
							"_0": "Rank The rank of the account."
						}
					},
					"hasRank(uint8,address)": {
						"params": {
							"account": "The address of the account to check.",
							"requiredRank": "The rank required."
						},
						"returns": {
							"_0": "bool True if the account has the required rank or higher, false otherwise."
						}
					},
					"revokeRank(address)": {
						"details": "Can only be called by accounts with SENATOR rank or higher.",
						"params": {
							"account": "The address to revoke the rank from."
						}
					},
					"upgradeRank(address)": {
						"details": "Can only be called by accounts with CONSUL rank or higher.",
						"params": {
							"account": "The address to upgrade the rank for."
						}
					}
				},
				"title": "HierarchicalAccessControl",
				"version": 1
			},
			"evm": {
				"assembly": "    /* \"contracts/Access.sol\":224:5906  contract HierarchicalAccessControl {... */\n  mstore(0x40, 0x80)\n    /* \"contracts/Access.sol\":2419:2494  constructor() {... */\n  callvalue\n  dup1\n  iszero\n  tag_1\n  jumpi\n  0x00\n  dup1\n  revert\ntag_1:\n  pop\n    /* \"contracts/Access.sol\":2443:2487  _assignRank(msg.sender, Rank.PREATORMAXIMUS) */\n  tag_4\n    /* \"contracts/Access.sol\":2455:2465  msg.sender */\n  caller\n    /* \"contracts/Access.sol\":2467:2486  Rank.PREATORMAXIMUS */\n  0x05\n    /* \"contracts/Access.sol\":2443:2454  _assignRank */\n  tag_5\n    /* \"contracts/Access.sol\":2443:2487  _assignRank(msg.sender, Rank.PREATORMAXIMUS) */\n  jump\t// in\ntag_4:\n    /* \"contracts/Access.sol\":224:5906  contract HierarchicalAccessControl {... */\n  jump(tag_13)\n    /* \"contracts/Access.sol\":3941:4079  function _assignRank(address account, Rank rank) internal {... */\ntag_5:\n  sub(shl(0xa0, 0x01), 0x01)\n    /* \"contracts/Access.sol\":4009:4023  Ranks[account] */\n  dup3\n  and\n  0x00\n  swap1\n  dup2\n  mstore\n    /* \"contracts/Access.sol\":4009:4014  Ranks */\n  0x03\n    /* \"contracts/Access.sol\":4009:4023  Ranks[account] */\n  0x20\n  mstore\n  0x40\n  swap1\n  keccak256\n    /* \"contracts/Access.sol\":4009:4030  Ranks[account] = rank */\n  dup1\n  sload\n    /* \"contracts/Access.sol\":4026:4030  rank */\n  dup3\n  swap2\n    /* \"contracts/Access.sol\":4009:4023  Ranks[account] */\n  swap1\n  not(0xff)\n    /* \"contracts/Access.sol\":4009:4030  Ranks[account] = rank */\n  and\n  0x01\n    /* \"contracts/Access.sol\":4026:4030  rank */\n  dup4\n    /* \"contracts/Access.sol\":4009:4030  Ranks[account] = rank */\n  0x05\n  dup2\n  gt\n  iszero\n  tag_9\n  jumpi\n  tag_9\n  tag_10\n  jump\t// in\ntag_9:\n  mul\n  or\n  swap1\n  sstore\n  pop\n    /* \"contracts/Access.sol\":4058:4065  account */\n  dup2\n  sub(shl(0xa0, 0x01), 0x01)\n    /* \"contracts/Access.sol\":4045:4072  RankAssigned(account, rank) */\n  and\n  0xca74a9674343e6a05554618ca7953f960439f10b46cdd457fb2ac670b271c7b9\n    /* \"contracts/Access.sol\":4067:4071  rank */\n  dup3\n    /* \"contracts/Access.sol\":4045:4072  RankAssigned(account, rank) */\n  mload(0x40)\n  tag_11\n  swap2\n  swap1\n  tag_12\n  jump\t// in\ntag_11:\n  mload(0x40)\n  dup1\n  swap2\n  sub\n  swap1\n  log2\n    /* \"contracts/Access.sol\":3941:4079  function _assignRank(address account, Rank rank) internal {... */\n  pop\n  pop\n  jump\t// out\n    /* \"#utility.yul\":14:141   */\ntag_10:\n    /* \"#utility.yul\":75:85   */\n  0x4e487b71\n    /* \"#utility.yul\":70:73   */\n  0xe0\n    /* \"#utility.yul\":66:86   */\n  shl\n    /* \"#utility.yul\":63:64   */\n  0x00\n    /* \"#utility.yul\":56:87   */\n  mstore\n    /* \"#utility.yul\":106:110   */\n  0x21\n    /* \"#utility.yul\":103:104   */\n  0x04\n    /* \"#utility.yul\":96:111   */\n  mstore\n    /* \"#utility.yul\":130:134   */\n  0x24\n    /* \"#utility.yul\":127:128   */\n  0x00\n    /* \"#utility.yul\":120:135   */\n  revert\n    /* \"#utility.yul\":146:481   */\ntag_12:\n    /* \"#utility.yul\":285:287   */\n  0x20\n    /* \"#utility.yul\":270:288   */\n  dup2\n  add\n    /* \"#utility.yul\":318:319   */\n  0x06\n    /* \"#utility.yul\":307:320   */\n  dup4\n  lt\n    /* \"#utility.yul\":297:441   */\n  tag_16\n  jumpi\n    /* \"#utility.yul\":363:373   */\n  0x4e487b71\n    /* \"#utility.yul\":358:361   */\n  0xe0\n    /* \"#utility.yul\":354:374   */\n  shl\n    /* \"#utility.yul\":351:352   */\n  0x00\n    /* \"#utility.yul\":344:375   */\n  mstore\n    /* \"#utility.yul\":398:402   */\n  0x21\n    /* \"#utility.yul\":395:396   */\n  0x04\n    /* \"#utility.yul\":388:403   */\n  mstore\n    /* \"#utility.yul\":426:430   */\n  0x24\n    /* \"#utility.yul\":423:424   */\n  0x00\n    /* \"#utility.yul\":416:431   */\n  revert\n    /* \"#utility.yul\":297:441   */\ntag_16:\n    /* \"#utility.yul\":450:475   */\n  swap2\n  swap1\n  mstore\n    /* \"#utility.yul\":146:481   */\n  swap1\n  jump\t// out\ntag_13:\n    /* \"contracts/Access.sol\":224:5906  contract HierarchicalAccessControl {... */\n  dataSize(sub_0)\n  dup1\n  dataOffset(sub_0)\n  0x00\n  codecopy\n  0x00\n  return\nstop\n\nsub_0: assembly {\n        /* \"contracts/Access.sol\":224:5906  contract HierarchicalAccessControl {... */\n      mstore(0x40, 0x80)\n      callvalue\n      dup1\n      iszero\n      tag_1\n      jumpi\n      0x00\n      dup1\n      revert\n    tag_1:\n      pop\n      jumpi(tag_2, lt(calldatasize, 0x04))\n      shr(0xe0, calldataload(0x00))\n      dup1\n      0x548c0ef4\n      eq\n      tag_3\n      jumpi\n      dup1\n      0x6cb51792\n      eq\n      tag_4\n      jumpi\n      dup1\n      0x81aef648\n      eq\n      tag_5\n      jumpi\n      dup1\n      0xb17b2291\n      eq\n      tag_6\n      jumpi\n      dup1\n      0xb2a54985\n      eq\n      tag_7\n      jumpi\n      dup1\n      0xb4045174\n      eq\n      tag_8\n      jumpi\n    tag_2:\n      0x00\n      dup1\n      revert\n        /* \"contracts/Access.sol\":4233:4332  function getRank(address account) public view returns (Rank) {... */\n    tag_3:\n      tag_9\n      tag_10\n      calldatasize\n      0x04\n      tag_11\n      jump\t// in\n    tag_10:\n      sub(shl(0xa0, 0x01), 0x01)\n        /* \"contracts/Access.sol\":4311:4325  Ranks[account] */\n      and\n        /* \"contracts/Access.sol\":4288:4292  Rank */\n      0x00\n        /* \"contracts/Access.sol\":4311:4325  Ranks[account] */\n      swap1\n      dup2\n      mstore\n        /* \"contracts/Access.sol\":4311:4316  Ranks */\n      0x03\n        /* \"contracts/Access.sol\":4311:4325  Ranks[account] */\n      0x20\n      mstore\n      0x40\n      swap1\n      keccak256\n      sload\n      0xff\n      and\n      swap1\n        /* \"contracts/Access.sol\":4233:4332  function getRank(address account) public view returns (Rank) {... */\n      jump\n    tag_9:\n      mload(0x40)\n      tag_13\n      swap2\n      swap1\n      tag_14\n      jump\t// in\n    tag_13:\n      mload(0x40)\n      dup1\n      swap2\n      sub\n      swap1\n      return\n        /* \"contracts/Access.sol\":3484:3753  function assignRank(address account, Rank rank) public onlyRank(Rank.CONSUL) {... */\n    tag_4:\n      tag_15\n      tag_16\n      calldatasize\n      0x04\n      tag_17\n      jump\t// in\n    tag_16:\n      tag_18\n      jump\t// in\n    tag_15:\n      stop\n        /* \"contracts/Access.sol\":3112:3246  function hasRank(Rank requiredRank, address account) public view returns (bool) {... */\n    tag_5:\n      tag_19\n      tag_20\n      calldatasize\n      0x04\n      tag_21\n      jump\t// in\n    tag_20:\n      tag_22\n      jump\t// in\n    tag_19:\n      mload(0x40)\n        /* \"#utility.yul\":1816:1830   */\n      swap1\n      iszero\n        /* \"#utility.yul\":1809:1831   */\n      iszero\n        /* \"#utility.yul\":1791:1832   */\n      dup2\n      mstore\n        /* \"#utility.yul\":1779:1781   */\n      0x20\n        /* \"#utility.yul\":1764:1782   */\n      add\n        /* \"contracts/Access.sol\":3112:3246  function hasRank(Rank requiredRank, address account) public view returns (bool) {... */\n      tag_13\n        /* \"#utility.yul\":1651:1838   */\n      jump\n        /* \"contracts/Access.sol\":5555:5904  function downgradeRank(address account) public onlyRank(Rank.CONSUL) {... */\n    tag_6:\n      tag_15\n      tag_26\n      calldatasize\n      0x04\n      tag_11\n      jump\t// in\n    tag_26:\n      tag_27\n      jump\t// in\n        /* \"contracts/Access.sol\":5007:5352  function upgradeRank(address account) public onlyRank(Rank.CONSUL) {... */\n    tag_7:\n      tag_15\n      tag_29\n      calldatasize\n      0x04\n      tag_11\n      jump\t// in\n    tag_29:\n      tag_30\n      jump\t// in\n        /* \"contracts/Access.sol\":4531:4808  function revokeRank(address account) public onlyRank(Rank.SENATOR) {... */\n    tag_8:\n      tag_15\n      tag_32\n      calldatasize\n      0x04\n      tag_11\n      jump\t// in\n    tag_32:\n      tag_33\n      jump\t// in\n        /* \"contracts/Access.sol\":3484:3753  function assignRank(address account, Rank rank) public onlyRank(Rank.CONSUL) {... */\n    tag_18:\n        /* \"contracts/Access.sol\":3548:3559  Rank.CONSUL */\n      0x04\n        /* \"contracts/Access.sol\":2705:2738  hasRank(requiredRank, msg.sender) */\n      tag_36\n        /* \"contracts/Access.sol\":2713:2725  requiredRank */\n      dup2\n        /* \"contracts/Access.sol\":2727:2737  msg.sender */\n      caller\n        /* \"contracts/Access.sol\":2705:2712  hasRank */\n      tag_22\n        /* \"contracts/Access.sol\":2705:2738  hasRank(requiredRank, msg.sender) */\n      jump\t// in\n    tag_36:\n        /* \"contracts/Access.sol\":2700:2810  if (!hasRank(requiredRank, msg.sender)) {... */\n      tag_37\n      jumpi\n        /* \"contracts/Access.sol\":2774:2784  msg.sender */\n      caller\n        /* \"contracts/Access.sol\":2786:2798  requiredRank */\n      dup2\n        /* \"contracts/Access.sol\":2761:2799  AccessDenied(msg.sender, requiredRank) */\n      mload(0x40)\n      shl(0xe1, 0x1f3ad95d)\n      dup2\n      mstore\n      0x04\n      add\n      tag_38\n      swap3\n      swap2\n      swap1\n      tag_39\n      jump\t// in\n    tag_38:\n      mload(0x40)\n      dup1\n      swap2\n      sub\n      swap1\n      revert\n        /* \"contracts/Access.sol\":2700:2810  if (!hasRank(requiredRank, msg.sender)) {... */\n    tag_37:\n        /* \"contracts/Access.sol\":3593:3612  Rank.PREATORMAXIMUS */\n      0x05\n      sub(shl(0xa0, 0x01), 0x01)\n        /* \"contracts/Access.sol\":3575:3589  Ranks[account] */\n      dup5\n      and\n      0x00\n      swap1\n      dup2\n      mstore\n        /* \"contracts/Access.sol\":3575:3580  Ranks */\n      0x03\n        /* \"contracts/Access.sol\":3575:3589  Ranks[account] */\n      0x20\n      mstore\n      0x40\n      swap1\n      keccak256\n      sload\n      0xff\n      and\n        /* \"contracts/Access.sol\":3575:3612  Ranks[account] >= Rank.PREATORMAXIMUS */\n      0x05\n      dup2\n      gt\n      iszero\n      tag_45\n      jumpi\n      tag_45\n      tag_43\n      jump\t// in\n    tag_45:\n      lt\n        /* \"contracts/Access.sol\":3571:3711  if (Ranks[account] >= Rank.PREATORMAXIMUS) {... */\n      tag_46\n      jumpi\n        /* \"contracts/Access.sol\":3635:3700  InvalidOperation(\"Cannot assign or reassign PREATORMAXIMUS rank\") */\n      mload(0x40)\n      shl(0xe0, 0xe066a8d7)\n      dup2\n      mstore\n        /* \"#utility.yul\":2343:2345   */\n      0x20\n        /* \"contracts/Access.sol\":3635:3700  InvalidOperation(\"Cannot assign or reassign PREATORMAXIMUS rank\") */\n      0x04\n      dup3\n      add\n        /* \"#utility.yul\":2325:2346   */\n      mstore\n        /* \"#utility.yul\":2382:2384   */\n      0x2d\n        /* \"#utility.yul\":2362:2380   */\n      0x24\n      dup3\n      add\n        /* \"#utility.yul\":2355:2385   */\n      mstore\n        /* \"#utility.yul\":2421:2455   */\n      0x43616e6e6f742061737369676e206f7220726561737369676e2050524541544f\n        /* \"#utility.yul\":2401:2419   */\n      0x44\n      dup3\n      add\n        /* \"#utility.yul\":2394:2456   */\n      mstore\n      shl(0x98, 0x524d4158494d55532072616e6b)\n        /* \"#utility.yul\":2472:2490   */\n      0x64\n      dup3\n      add\n        /* \"#utility.yul\":2465:2508   */\n      mstore\n        /* \"#utility.yul\":2525:2544   */\n      0x84\n      add\n        /* \"contracts/Access.sol\":3635:3700  InvalidOperation(\"Cannot assign or reassign PREATORMAXIMUS rank\") */\n      tag_38\n        /* \"#utility.yul\":2141:2550   */\n      jump\n        /* \"contracts/Access.sol\":3571:3711  if (Ranks[account] >= Rank.PREATORMAXIMUS) {... */\n    tag_46:\n        /* \"contracts/Access.sol\":3720:3746  _assignRank(account, rank) */\n      tag_49\n        /* \"contracts/Access.sol\":3732:3739  account */\n      dup4\n        /* \"contracts/Access.sol\":3741:3745  rank */\n      dup4\n        /* \"contracts/Access.sol\":3720:3731  _assignRank */\n      tag_50\n        /* \"contracts/Access.sol\":3720:3746  _assignRank(account, rank) */\n      jump\t// in\n    tag_49:\n        /* \"contracts/Access.sol\":3484:3753  function assignRank(address account, Rank rank) public onlyRank(Rank.CONSUL) {... */\n      pop\n      pop\n      pop\n      jump\t// out\n        /* \"contracts/Access.sol\":3112:3246  function hasRank(Rank requiredRank, address account) public view returns (bool) {... */\n    tag_22:\n        /* \"contracts/Access.sol\":3186:3190  bool */\n      0x00\n        /* \"contracts/Access.sol\":3227:3239  requiredRank */\n      dup3\n        /* \"contracts/Access.sol\":3209:3239  Ranks[account] >= requiredRank */\n      0x05\n      dup2\n      gt\n      iszero\n      tag_53\n      jumpi\n      tag_53\n      tag_43\n      jump\t// in\n    tag_53:\n      sub(shl(0xa0, 0x01), 0x01)\n        /* \"contracts/Access.sol\":3209:3223  Ranks[account] */\n      dup4\n      and\n      0x00\n      swap1\n      dup2\n      mstore\n        /* \"contracts/Access.sol\":3209:3214  Ranks */\n      0x03\n        /* \"contracts/Access.sol\":3209:3223  Ranks[account] */\n      0x20\n      mstore\n      0x40\n      swap1\n      keccak256\n      sload\n      0xff\n      and\n        /* \"contracts/Access.sol\":3209:3239  Ranks[account] >= requiredRank */\n      0x05\n      dup2\n      gt\n      iszero\n      tag_55\n      jumpi\n      tag_55\n      tag_43\n      jump\t// in\n    tag_55:\n      lt\n      iszero\n        /* \"contracts/Access.sol\":3202:3239  return Ranks[account] >= requiredRank */\n      swap1\n      pop\n        /* \"contracts/Access.sol\":3112:3246  function hasRank(Rank requiredRank, address account) public view returns (bool) {... */\n    tag_51:\n      swap3\n      swap2\n      pop\n      pop\n      jump\t// out\n        /* \"contracts/Access.sol\":5555:5904  function downgradeRank(address account) public onlyRank(Rank.CONSUL) {... */\n    tag_27:\n        /* \"contracts/Access.sol\":5611:5622  Rank.CONSUL */\n      0x04\n        /* \"contracts/Access.sol\":2705:2738  hasRank(requiredRank, msg.sender) */\n      tag_57\n        /* \"contracts/Access.sol\":2713:2725  requiredRank */\n      dup2\n        /* \"contracts/Access.sol\":2727:2737  msg.sender */\n      caller\n        /* \"contracts/Access.sol\":2705:2712  hasRank */\n      tag_22\n        /* \"contracts/Access.sol\":2705:2738  hasRank(requiredRank, msg.sender) */\n      jump\t// in\n    tag_57:\n        /* \"contracts/Access.sol\":2700:2810  if (!hasRank(requiredRank, msg.sender)) {... */\n      tag_58\n      jumpi\n        /* \"contracts/Access.sol\":2774:2784  msg.sender */\n      caller\n        /* \"contracts/Access.sol\":2786:2798  requiredRank */\n      dup2\n        /* \"contracts/Access.sol\":2761:2799  AccessDenied(msg.sender, requiredRank) */\n      mload(0x40)\n      shl(0xe1, 0x1f3ad95d)\n      dup2\n      mstore\n      0x04\n      add\n      tag_38\n      swap3\n      swap2\n      swap1\n      tag_39\n      jump\t// in\n        /* \"contracts/Access.sol\":2700:2810  if (!hasRank(requiredRank, msg.sender)) {... */\n    tag_58:\n      sub(shl(0xa0, 0x01), 0x01)\n        /* \"contracts/Access.sol\":5653:5667  Ranks[account] */\n      dup3\n      and\n        /* \"contracts/Access.sol\":5634:5650  Rank currentRank */\n      0x00\n        /* \"contracts/Access.sol\":5653:5667  Ranks[account] */\n      swap1\n      dup2\n      mstore\n        /* \"contracts/Access.sol\":5653:5658  Ranks */\n      0x03\n        /* \"contracts/Access.sol\":5653:5667  Ranks[account] */\n      0x20\n      mstore\n      0x40\n      dup2\n      keccak256\n      sload\n      0xff\n      and\n      swap1\n        /* \"contracts/Access.sol\":5681:5692  currentRank */\n      dup2\n        /* \"contracts/Access.sol\":5681:5709  currentRank <= Rank.PRINCEPS */\n      0x05\n      dup2\n      gt\n      iszero\n      tag_64\n      jumpi\n      tag_64\n      tag_43\n      jump\t// in\n    tag_64:\n      gt\n        /* \"contracts/Access.sol\":5677:5785  if (currentRank <= Rank.PRINCEPS) {... */\n      tag_65\n      jumpi\n        /* \"contracts/Access.sol\":5732:5774  InvalidOperation(\"Already at lowest rank\") */\n      mload(0x40)\n      shl(0xe0, 0xe066a8d7)\n      dup2\n      mstore\n        /* \"#utility.yul\":2757:2759   */\n      0x20\n        /* \"contracts/Access.sol\":5732:5774  InvalidOperation(\"Already at lowest rank\") */\n      0x04\n      dup3\n      add\n        /* \"#utility.yul\":2739:2760   */\n      mstore\n        /* \"#utility.yul\":2796:2798   */\n      0x16\n        /* \"#utility.yul\":2776:2794   */\n      0x24\n      dup3\n      add\n        /* \"#utility.yul\":2769:2799   */\n      mstore\n      shl(0x50, 0x416c7265616479206174206c6f776573742072616e6b)\n        /* \"#utility.yul\":2815:2833   */\n      0x44\n      dup3\n      add\n        /* \"#utility.yul\":2808:2860   */\n      mstore\n        /* \"#utility.yul\":2877:2895   */\n      0x64\n      add\n        /* \"contracts/Access.sol\":5732:5774  InvalidOperation(\"Already at lowest rank\") */\n      tag_38\n        /* \"#utility.yul\":2555:2901   */\n      jump\n        /* \"contracts/Access.sol\":5677:5785  if (currentRank <= Rank.PRINCEPS) {... */\n    tag_65:\n        /* \"contracts/Access.sol\":5794:5843  _assignRank(account, Rank(uint(currentRank) - 1)) */\n      tag_68\n        /* \"contracts/Access.sol\":5806:5813  account */\n      dup4\n        /* \"contracts/Access.sol\":5840:5841  1 */\n      0x01\n        /* \"contracts/Access.sol\":5825:5836  currentRank */\n      dup4\n        /* \"contracts/Access.sol\":5820:5837  uint(currentRank) */\n      0x05\n      dup2\n      gt\n      iszero\n      tag_70\n      jumpi\n      tag_70\n      tag_43\n      jump\t// in\n    tag_70:\n        /* \"contracts/Access.sol\":5820:5841  uint(currentRank) - 1 */\n      tag_71\n      swap2\n      swap1\n      tag_72\n      jump\t// in\n    tag_71:\n        /* \"contracts/Access.sol\":5815:5842  Rank(uint(currentRank) - 1) */\n      0x05\n      dup2\n      gt\n      iszero\n      tag_74\n      jumpi\n      tag_74\n      tag_43\n      jump\t// in\n    tag_74:\n        /* \"contracts/Access.sol\":5794:5805  _assignRank */\n      tag_50\n        /* \"contracts/Access.sol\":5794:5843  _assignRank(account, Rank(uint(currentRank) - 1)) */\n      jump\t// in\n    tag_68:\n      sub(shl(0xa0, 0x01), 0x01)\n        /* \"contracts/Access.sol\":5858:5897  RankDowngraded(account, Ranks[account]) */\n      dup4\n      and\n        /* \"contracts/Access.sol\":5882:5896  Ranks[account] */\n      0x00\n      dup2\n      dup2\n      mstore\n        /* \"contracts/Access.sol\":5882:5887  Ranks */\n      0x03\n        /* \"contracts/Access.sol\":5882:5896  Ranks[account] */\n      0x20\n      mstore\n      0x40\n      swap1\n      dup2\n      swap1\n      keccak256\n      sload\n        /* \"contracts/Access.sol\":5858:5897  RankDowngraded(account, Ranks[account]) */\n      swap1\n      mload\n      0x45284fdcf691ab877427ff787e38072bdf235fb7e85baaaa9f17dd7bd305c75e\n      swap2\n      tag_75\n      swap2\n        /* \"contracts/Access.sol\":5882:5896  Ranks[account] */\n      0xff\n      swap1\n      swap2\n      and\n      swap1\n        /* \"contracts/Access.sol\":5858:5897  RankDowngraded(account, Ranks[account]) */\n      tag_14\n      jump\t// in\n    tag_75:\n      mload(0x40)\n      dup1\n      swap2\n      sub\n      swap1\n      log2\n        /* \"contracts/Access.sol\":5624:5904  {... */\n      pop\n        /* \"contracts/Access.sol\":5555:5904  function downgradeRank(address account) public onlyRank(Rank.CONSUL) {... */\n      pop\n      pop\n      jump\t// out\n        /* \"contracts/Access.sol\":5007:5352  function upgradeRank(address account) public onlyRank(Rank.CONSUL) {... */\n    tag_30:\n        /* \"contracts/Access.sol\":5061:5072  Rank.CONSUL */\n      0x04\n        /* \"contracts/Access.sol\":2705:2738  hasRank(requiredRank, msg.sender) */\n      tag_77\n        /* \"contracts/Access.sol\":2713:2725  requiredRank */\n      dup2\n        /* \"contracts/Access.sol\":2727:2737  msg.sender */\n      caller\n        /* \"contracts/Access.sol\":2705:2712  hasRank */\n      tag_22\n        /* \"contracts/Access.sol\":2705:2738  hasRank(requiredRank, msg.sender) */\n      jump\t// in\n    tag_77:\n        /* \"contracts/Access.sol\":2700:2810  if (!hasRank(requiredRank, msg.sender)) {... */\n      tag_78\n      jumpi\n        /* \"contracts/Access.sol\":2774:2784  msg.sender */\n      caller\n        /* \"contracts/Access.sol\":2786:2798  requiredRank */\n      dup2\n        /* \"contracts/Access.sol\":2761:2799  AccessDenied(msg.sender, requiredRank) */\n      mload(0x40)\n      shl(0xe1, 0x1f3ad95d)\n      dup2\n      mstore\n      0x04\n      add\n      tag_38\n      swap3\n      swap2\n      swap1\n      tag_39\n      jump\t// in\n        /* \"contracts/Access.sol\":2700:2810  if (!hasRank(requiredRank, msg.sender)) {... */\n    tag_78:\n      sub(shl(0xa0, 0x01), 0x01)\n        /* \"contracts/Access.sol\":5103:5117  Ranks[account] */\n      dup3\n      and\n        /* \"contracts/Access.sol\":5084:5100  Rank currentRank */\n      0x00\n        /* \"contracts/Access.sol\":5103:5117  Ranks[account] */\n      swap1\n      dup2\n      mstore\n        /* \"contracts/Access.sol\":5103:5108  Ranks */\n      0x03\n        /* \"contracts/Access.sol\":5103:5117  Ranks[account] */\n      0x20\n      mstore\n      0x40\n      swap1\n      keccak256\n      sload\n      0xff\n      and\n        /* \"contracts/Access.sol\":5146:5158  Rank.LEGATUS */\n      0x02\n        /* \"contracts/Access.sol\":5131:5142  currentRank */\n      dup2\n        /* \"contracts/Access.sol\":5131:5158  currentRank >= Rank.LEGATUS */\n      0x05\n      dup2\n      gt\n      iszero\n      tag_84\n      jumpi\n      tag_84\n      tag_43\n      jump\t// in\n    tag_84:\n      lt\n        /* \"contracts/Access.sol\":5127:5235  if (currentRank >= Rank.LEGATUS) {... */\n      tag_85\n      jumpi\n        /* \"contracts/Access.sol\":5181:5224  InvalidOperation(\"Already at highest rank\") */\n      mload(0x40)\n      shl(0xe0, 0xe066a8d7)\n      dup2\n      mstore\n        /* \"#utility.yul\":3373:3375   */\n      0x20\n        /* \"contracts/Access.sol\":5181:5224  InvalidOperation(\"Already at highest rank\") */\n      0x04\n      dup3\n      add\n        /* \"#utility.yul\":3355:3376   */\n      mstore\n        /* \"#utility.yul\":3412:3414   */\n      0x17\n        /* \"#utility.yul\":3392:3410   */\n      0x24\n      dup3\n      add\n        /* \"#utility.yul\":3385:3415   */\n      mstore\n      shl(0x48, 0x416c726561647920617420686967686573742072616e6b)\n        /* \"#utility.yul\":3431:3449   */\n      0x44\n      dup3\n      add\n        /* \"#utility.yul\":3424:3477   */\n      mstore\n        /* \"#utility.yul\":3494:3512   */\n      0x64\n      add\n        /* \"contracts/Access.sol\":5181:5224  InvalidOperation(\"Already at highest rank\") */\n      tag_38\n        /* \"#utility.yul\":3171:3518   */\n      jump\n        /* \"contracts/Access.sol\":5127:5235  if (currentRank >= Rank.LEGATUS) {... */\n    tag_85:\n        /* \"contracts/Access.sol\":5244:5293  _assignRank(account, Rank(uint(currentRank) + 1)) */\n      tag_88\n        /* \"contracts/Access.sol\":5256:5263  account */\n      dup4\n        /* \"contracts/Access.sol\":5275:5286  currentRank */\n      dup3\n        /* \"contracts/Access.sol\":5270:5287  uint(currentRank) */\n      0x05\n      dup2\n      gt\n      iszero\n      tag_90\n      jumpi\n      tag_90\n      tag_43\n      jump\t// in\n    tag_90:\n        /* \"contracts/Access.sol\":5270:5291  uint(currentRank) + 1 */\n      tag_71\n      swap1\n        /* \"contracts/Access.sol\":5290:5291  1 */\n      0x01\n        /* \"contracts/Access.sol\":5270:5291  uint(currentRank) + 1 */\n      tag_92\n      jump\t// in\n        /* \"contracts/Access.sol\":5244:5293  _assignRank(account, Rank(uint(currentRank) + 1)) */\n    tag_88:\n      sub(shl(0xa0, 0x01), 0x01)\n        /* \"contracts/Access.sol\":5308:5345  RankUpgraded(account, Ranks[account]) */\n      dup4\n      and\n        /* \"contracts/Access.sol\":5330:5344  Ranks[account] */\n      0x00\n      dup2\n      dup2\n      mstore\n        /* \"contracts/Access.sol\":5330:5335  Ranks */\n      0x03\n        /* \"contracts/Access.sol\":5330:5344  Ranks[account] */\n      0x20\n      mstore\n      0x40\n      swap1\n      dup2\n      swap1\n      keccak256\n      sload\n        /* \"contracts/Access.sol\":5308:5345  RankUpgraded(account, Ranks[account]) */\n      swap1\n      mload\n      0xc044cb19a6b2fe37c1a0618f3a47a874033707b4034762c63477d77c5556e22e\n      swap2\n      tag_75\n      swap2\n        /* \"contracts/Access.sol\":5330:5344  Ranks[account] */\n      0xff\n      swap1\n      swap2\n      and\n      swap1\n        /* \"contracts/Access.sol\":5308:5345  RankUpgraded(account, Ranks[account]) */\n      tag_14\n      jump\t// in\n        /* \"contracts/Access.sol\":4531:4808  function revokeRank(address account) public onlyRank(Rank.SENATOR) {... */\n    tag_33:\n        /* \"contracts/Access.sol\":4584:4596  Rank.SENATOR */\n      0x03\n        /* \"contracts/Access.sol\":2705:2738  hasRank(requiredRank, msg.sender) */\n      tag_97\n        /* \"contracts/Access.sol\":2713:2725  requiredRank */\n      dup2\n        /* \"contracts/Access.sol\":2727:2737  msg.sender */\n      caller\n        /* \"contracts/Access.sol\":2705:2712  hasRank */\n      tag_22\n        /* \"contracts/Access.sol\":2705:2738  hasRank(requiredRank, msg.sender) */\n      jump\t// in\n    tag_97:\n        /* \"contracts/Access.sol\":2700:2810  if (!hasRank(requiredRank, msg.sender)) {... */\n      tag_98\n      jumpi\n        /* \"contracts/Access.sol\":2774:2784  msg.sender */\n      caller\n        /* \"contracts/Access.sol\":2786:2798  requiredRank */\n      dup2\n        /* \"contracts/Access.sol\":2761:2799  AccessDenied(msg.sender, requiredRank) */\n      mload(0x40)\n      shl(0xe1, 0x1f3ad95d)\n      dup2\n      mstore\n      0x04\n      add\n      tag_38\n      swap3\n      swap2\n      swap1\n      tag_39\n      jump\t// in\n        /* \"contracts/Access.sol\":2700:2810  if (!hasRank(requiredRank, msg.sender)) {... */\n    tag_98:\n        /* \"contracts/Access.sol\":4630:4649  Rank.PREATORMAXIMUS */\n      0x05\n      sub(shl(0xa0, 0x01), 0x01)\n        /* \"contracts/Access.sol\":4612:4626  Ranks[account] */\n      dup4\n      and\n      0x00\n      swap1\n      dup2\n      mstore\n        /* \"contracts/Access.sol\":4612:4617  Ranks */\n      0x03\n        /* \"contracts/Access.sol\":4612:4626  Ranks[account] */\n      0x20\n      mstore\n      0x40\n      swap1\n      keccak256\n      sload\n      0xff\n      and\n        /* \"contracts/Access.sol\":4612:4649  Ranks[account] == Rank.PREATORMAXIMUS */\n      0x05\n      dup2\n      gt\n      iszero\n      tag_104\n      jumpi\n      tag_104\n      tag_43\n      jump\t// in\n    tag_104:\n      sub\n        /* \"contracts/Access.sol\":4608:4736  if (Ranks[account] == Rank.PREATORMAXIMUS) {... */\n      tag_105\n      jumpi\n        /* \"contracts/Access.sol\":4672:4725  InvalidOperation(\"Cannot revoke PREATORMAXIMUS rank\") */\n      mload(0x40)\n      shl(0xe0, 0xe066a8d7)\n      dup2\n      mstore\n        /* \"#utility.yul\":3855:3857   */\n      0x20\n        /* \"contracts/Access.sol\":4672:4725  InvalidOperation(\"Cannot revoke PREATORMAXIMUS rank\") */\n      0x04\n      dup3\n      add\n        /* \"#utility.yul\":3837:3858   */\n      mstore\n        /* \"#utility.yul\":3894:3896   */\n      0x21\n        /* \"#utility.yul\":3874:3892   */\n      0x24\n      dup3\n      add\n        /* \"#utility.yul\":3867:3897   */\n      mstore\n        /* \"#utility.yul\":3933:3967   */\n      0x43616e6e6f74207265766f6b652050524541544f524d4158494d55532072616e\n        /* \"#utility.yul\":3913:3931   */\n      0x44\n      dup3\n      add\n        /* \"#utility.yul\":3906:3968   */\n      mstore\n      shl(0xf8, 0x6b)\n        /* \"#utility.yul\":3984:4002   */\n      0x64\n      dup3\n      add\n        /* \"#utility.yul\":3977:4008   */\n      mstore\n        /* \"#utility.yul\":4025:4044   */\n      0x84\n      add\n        /* \"contracts/Access.sol\":4672:4725  InvalidOperation(\"Cannot revoke PREATORMAXIMUS rank\") */\n      tag_38\n        /* \"#utility.yul\":3653:4050   */\n      jump\n        /* \"contracts/Access.sol\":4608:4736  if (Ranks[account] == Rank.PREATORMAXIMUS) {... */\n    tag_105:\n      sub(shl(0xa0, 0x01), 0x01)\n        /* \"contracts/Access.sol\":4752:4766  Ranks[account] */\n      dup3\n      and\n      0x00\n      dup2\n      dup2\n      mstore\n        /* \"contracts/Access.sol\":4752:4757  Ranks */\n      0x03\n        /* \"contracts/Access.sol\":4752:4766  Ranks[account] */\n      0x20\n      mstore\n      0x40\n      dup1\n      dup3\n      keccak256\n        /* \"contracts/Access.sol\":4745:4766  delete Ranks[account] */\n      dup1\n      sload\n      not(0xff)\n      and\n      swap1\n      sstore\n        /* \"contracts/Access.sol\":4781:4801  RankRevoked(account) */\n      mload\n      0x46fff916a56004bfd9422d162bd432fadbf612654ff2c641633d4897bda23d3c\n      swap2\n        /* \"contracts/Access.sol\":4752:4766  Ranks[account] */\n      swap1\n        /* \"contracts/Access.sol\":4781:4801  RankRevoked(account) */\n      log2\n        /* \"contracts/Access.sol\":4531:4808  function revokeRank(address account) public onlyRank(Rank.SENATOR) {... */\n      pop\n      pop\n      jump\t// out\n        /* \"contracts/Access.sol\":3941:4079  function _assignRank(address account, Rank rank) internal {... */\n    tag_50:\n      sub(shl(0xa0, 0x01), 0x01)\n        /* \"contracts/Access.sol\":4009:4023  Ranks[account] */\n      dup3\n      and\n      0x00\n      swap1\n      dup2\n      mstore\n        /* \"contracts/Access.sol\":4009:4014  Ranks */\n      0x03\n        /* \"contracts/Access.sol\":4009:4023  Ranks[account] */\n      0x20\n      mstore\n      0x40\n      swap1\n      keccak256\n        /* \"contracts/Access.sol\":4009:4030  Ranks[account] = rank */\n      dup1\n      sload\n        /* \"contracts/Access.sol\":4026:4030  rank */\n      dup3\n      swap2\n        /* \"contracts/Access.sol\":4009:4023  Ranks[account] */\n      swap1\n      not(0xff)\n        /* \"contracts/Access.sol\":4009:4030  Ranks[account] = rank */\n      and\n      0x01\n        /* \"contracts/Access.sol\":4026:4030  rank */\n      dup4\n        /* \"contracts/Access.sol\":4009:4030  Ranks[account] = rank */\n      0x05\n      dup2\n      gt\n      iszero\n      tag_110\n      jumpi\n      tag_110\n      tag_43\n      jump\t// in\n    tag_110:\n      mul\n      or\n      swap1\n      sstore\n      pop\n        /* \"contracts/Access.sol\":4058:4065  account */\n      dup2\n      sub(shl(0xa0, 0x01), 0x01)\n        /* \"contracts/Access.sol\":4045:4072  RankAssigned(account, rank) */\n      and\n      0xca74a9674343e6a05554618ca7953f960439f10b46cdd457fb2ac670b271c7b9\n        /* \"contracts/Access.sol\":4067:4071  rank */\n      dup3\n        /* \"contracts/Access.sol\":4045:4072  RankAssigned(account, rank) */\n      mload(0x40)\n      tag_111\n      swap2\n      swap1\n      tag_14\n      jump\t// in\n    tag_111:\n      mload(0x40)\n      dup1\n      swap2\n      sub\n      swap1\n      log2\n        /* \"contracts/Access.sol\":3941:4079  function _assignRank(address account, Rank rank) internal {... */\n      pop\n      pop\n      jump\t// out\n        /* \"#utility.yul\":14:187   */\n    tag_112:\n        /* \"#utility.yul\":82:102   */\n      dup1\n      calldataload\n      sub(shl(0xa0, 0x01), 0x01)\n        /* \"#utility.yul\":131:162   */\n      dup2\n      and\n        /* \"#utility.yul\":121:163   */\n      dup2\n      eq\n        /* \"#utility.yul\":111:181   */\n      tag_118\n      jumpi\n        /* \"#utility.yul\":177:178   */\n      0x00\n        /* \"#utility.yul\":174:175   */\n      dup1\n        /* \"#utility.yul\":167:179   */\n      revert\n        /* \"#utility.yul\":111:181   */\n    tag_118:\n        /* \"#utility.yul\":14:187   */\n      swap2\n      swap1\n      pop\n      jump\t// out\n        /* \"#utility.yul\":192:378   */\n    tag_11:\n        /* \"#utility.yul\":251:257   */\n      0x00\n        /* \"#utility.yul\":304:306   */\n      0x20\n        /* \"#utility.yul\":292:301   */\n      dup3\n        /* \"#utility.yul\":283:290   */\n      dup5\n        /* \"#utility.yul\":279:302   */\n      sub\n        /* \"#utility.yul\":275:307   */\n      slt\n        /* \"#utility.yul\":272:324   */\n      iszero\n      tag_120\n      jumpi\n        /* \"#utility.yul\":320:321   */\n      0x00\n        /* \"#utility.yul\":317:318   */\n      dup1\n        /* \"#utility.yul\":310:322   */\n      revert\n        /* \"#utility.yul\":272:324   */\n    tag_120:\n        /* \"#utility.yul\":343:372   */\n      tag_121\n        /* \"#utility.yul\":362:371   */\n      dup3\n        /* \"#utility.yul\":343:372   */\n      tag_112\n      jump\t// in\n    tag_121:\n        /* \"#utility.yul\":333:372   */\n      swap4\n        /* \"#utility.yul\":192:378   */\n      swap3\n      pop\n      pop\n      pop\n      jump\t// out\n        /* \"#utility.yul\":383:510   */\n    tag_43:\n        /* \"#utility.yul\":444:454   */\n      0x4e487b71\n        /* \"#utility.yul\":439:442   */\n      0xe0\n        /* \"#utility.yul\":435:455   */\n      shl\n        /* \"#utility.yul\":432:433   */\n      0x00\n        /* \"#utility.yul\":425:456   */\n      mstore\n        /* \"#utility.yul\":475:479   */\n      0x21\n        /* \"#utility.yul\":472:473   */\n      0x04\n        /* \"#utility.yul\":465:480   */\n      mstore\n        /* \"#utility.yul\":499:503   */\n      0x24\n        /* \"#utility.yul\":496:497   */\n      0x00\n        /* \"#utility.yul\":489:504   */\n      revert\n        /* \"#utility.yul\":515:747   */\n    tag_113:\n        /* \"#utility.yul\":591:592   */\n      0x06\n        /* \"#utility.yul\":584:589   */\n      dup2\n        /* \"#utility.yul\":581:593   */\n      lt\n        /* \"#utility.yul\":571:714   */\n      tag_124\n      jumpi\n        /* \"#utility.yul\":636:646   */\n      0x4e487b71\n        /* \"#utility.yul\":631:634   */\n      0xe0\n        /* \"#utility.yul\":627:647   */\n      shl\n        /* \"#utility.yul\":624:625   */\n      0x00\n        /* \"#utility.yul\":617:648   */\n      mstore\n        /* \"#utility.yul\":671:675   */\n      0x21\n        /* \"#utility.yul\":668:669   */\n      0x04\n        /* \"#utility.yul\":661:676   */\n      mstore\n        /* \"#utility.yul\":699:703   */\n      0x24\n        /* \"#utility.yul\":696:697   */\n      0x00\n        /* \"#utility.yul\":689:704   */\n      revert\n        /* \"#utility.yul\":571:714   */\n    tag_124:\n        /* \"#utility.yul\":723:741   */\n      swap1\n      mstore\n        /* \"#utility.yul\":515:747   */\n      jump\t// out\n        /* \"#utility.yul\":752:948   */\n    tag_14:\n        /* \"#utility.yul\":891:893   */\n      0x20\n        /* \"#utility.yul\":876:894   */\n      dup2\n      add\n        /* \"#utility.yul\":903:942   */\n      tag_51\n        /* \"#utility.yul\":880:889   */\n      dup3\n        /* \"#utility.yul\":924:930   */\n      dup5\n        /* \"#utility.yul\":903:942   */\n      tag_113\n      jump\t// in\n        /* \"#utility.yul\":953:1098   */\n    tag_114:\n        /* \"#utility.yul\":1023:1043   */\n      dup1\n      calldataload\n        /* \"#utility.yul\":1072:1073   */\n      0x06\n        /* \"#utility.yul\":1062:1074   */\n      dup2\n      lt\n        /* \"#utility.yul\":1052:1092   */\n      tag_118\n      jumpi\n        /* \"#utility.yul\":1088:1089   */\n      0x00\n        /* \"#utility.yul\":1085:1086   */\n      dup1\n        /* \"#utility.yul\":1078:1090   */\n      revert\n        /* \"#utility.yul\":1103:1372   */\n    tag_17:\n        /* \"#utility.yul\":1178:1184   */\n      0x00\n        /* \"#utility.yul\":1186:1192   */\n      dup1\n        /* \"#utility.yul\":1239:1241   */\n      0x40\n        /* \"#utility.yul\":1227:1236   */\n      dup4\n        /* \"#utility.yul\":1218:1225   */\n      dup6\n        /* \"#utility.yul\":1214:1237   */\n      sub\n        /* \"#utility.yul\":1210:1242   */\n      slt\n        /* \"#utility.yul\":1207:1259   */\n      iszero\n      tag_130\n      jumpi\n        /* \"#utility.yul\":1255:1256   */\n      0x00\n        /* \"#utility.yul\":1252:1253   */\n      dup1\n        /* \"#utility.yul\":1245:1257   */\n      revert\n        /* \"#utility.yul\":1207:1259   */\n    tag_130:\n        /* \"#utility.yul\":1278:1307   */\n      tag_131\n        /* \"#utility.yul\":1297:1306   */\n      dup4\n        /* \"#utility.yul\":1278:1307   */\n      tag_112\n      jump\t// in\n    tag_131:\n        /* \"#utility.yul\":1268:1307   */\n      swap2\n      pop\n        /* \"#utility.yul\":1326:1366   */\n      tag_132\n        /* \"#utility.yul\":1362:1364   */\n      0x20\n        /* \"#utility.yul\":1351:1360   */\n      dup5\n        /* \"#utility.yul\":1347:1365   */\n      add\n        /* \"#utility.yul\":1326:1366   */\n      tag_114\n      jump\t// in\n    tag_132:\n        /* \"#utility.yul\":1316:1366   */\n      swap1\n      pop\n        /* \"#utility.yul\":1103:1372   */\n      swap3\n      pop\n      swap3\n      swap1\n      pop\n      jump\t// out\n        /* \"#utility.yul\":1377:1646   */\n    tag_21:\n        /* \"#utility.yul\":1452:1458   */\n      0x00\n        /* \"#utility.yul\":1460:1466   */\n      dup1\n        /* \"#utility.yul\":1513:1515   */\n      0x40\n        /* \"#utility.yul\":1501:1510   */\n      dup4\n        /* \"#utility.yul\":1492:1499   */\n      dup6\n        /* \"#utility.yul\":1488:1511   */\n      sub\n        /* \"#utility.yul\":1484:1516   */\n      slt\n        /* \"#utility.yul\":1481:1533   */\n      iszero\n      tag_134\n      jumpi\n        /* \"#utility.yul\":1529:1530   */\n      0x00\n        /* \"#utility.yul\":1526:1527   */\n      dup1\n        /* \"#utility.yul\":1519:1531   */\n      revert\n        /* \"#utility.yul\":1481:1533   */\n    tag_134:\n        /* \"#utility.yul\":1552:1583   */\n      tag_135\n        /* \"#utility.yul\":1573:1582   */\n      dup4\n        /* \"#utility.yul\":1552:1583   */\n      tag_114\n      jump\t// in\n    tag_135:\n        /* \"#utility.yul\":1542:1583   */\n      swap2\n      pop\n        /* \"#utility.yul\":1602:1640   */\n      tag_132\n        /* \"#utility.yul\":1636:1638   */\n      0x20\n        /* \"#utility.yul\":1625:1634   */\n      dup5\n        /* \"#utility.yul\":1621:1639   */\n      add\n        /* \"#utility.yul\":1602:1640   */\n      tag_112\n      jump\t// in\n        /* \"#utility.yul\":1843:2136   */\n    tag_39:\n      sub(shl(0xa0, 0x01), 0x01)\n        /* \"#utility.yul\":2040:2072   */\n      dup4\n      and\n        /* \"#utility.yul\":2022:2073   */\n      dup2\n      mstore\n        /* \"#utility.yul\":2010:2012   */\n      0x40\n        /* \"#utility.yul\":1995:2013   */\n      dup2\n      add\n        /* \"#utility.yul\":2082:2130   */\n      tag_121\n        /* \"#utility.yul\":2126:2128   */\n      0x20\n        /* \"#utility.yul\":2111:2129   */\n      dup4\n      add\n        /* \"#utility.yul\":2103:2109   */\n      dup5\n        /* \"#utility.yul\":2082:2130   */\n      tag_113\n      jump\t// in\n        /* \"#utility.yul\":2906:3033   */\n    tag_115:\n        /* \"#utility.yul\":2967:2977   */\n      0x4e487b71\n        /* \"#utility.yul\":2962:2965   */\n      0xe0\n        /* \"#utility.yul\":2958:2978   */\n      shl\n        /* \"#utility.yul\":2955:2956   */\n      0x00\n        /* \"#utility.yul\":2948:2979   */\n      mstore\n        /* \"#utility.yul\":2998:3002   */\n      0x11\n        /* \"#utility.yul\":2995:2996   */\n      0x04\n        /* \"#utility.yul\":2988:3003   */\n      mstore\n        /* \"#utility.yul\":3022:3026   */\n      0x24\n        /* \"#utility.yul\":3019:3020   */\n      0x00\n        /* \"#utility.yul\":3012:3027   */\n      revert\n        /* \"#utility.yul\":3038:3166   */\n    tag_72:\n        /* \"#utility.yul\":3105:3114   */\n      dup2\n      dup2\n      sub\n        /* \"#utility.yul\":3126:3137   */\n      dup2\n      dup2\n      gt\n        /* \"#utility.yul\":3123:3160   */\n      iszero\n      tag_51\n      jumpi\n        /* \"#utility.yul\":3140:3158   */\n      tag_51\n      tag_115\n      jump\t// in\n        /* \"#utility.yul\":3523:3648   */\n    tag_92:\n        /* \"#utility.yul\":3588:3597   */\n      dup1\n      dup3\n      add\n        /* \"#utility.yul\":3609:3619   */\n      dup1\n      dup3\n      gt\n        /* \"#utility.yul\":3606:3642   */\n      iszero\n      tag_51\n      jumpi\n        /* \"#utility.yul\":3622:3640   */\n      tag_51\n      tag_115\n      jump\t// in\n\n    auxdata: 0xa264697066735822122026e3b79f67302041f9e8eeb694a7d6b60de97cc1cb57fcd4222db274a509698464736f6c634300081a0033\n}\n",
				"bytecode": {
					"linkReferences": {},
					"object": "6080604052348015600e575f80fd5b506018336005601c565b60ce565b6001600160a01b0382165f908152600360205260409020805482919060ff19166001836005811115604d57604d6095565b0217905550816001600160a01b03167fca74a9674343e6a05554618ca7953f960439f10b46cdd457fb2ac670b271c7b9826040516089919060a9565b60405180910390a25050565b634e487b7160e01b5f52602160045260245ffd5b602081016006831060c857634e487b7160e01b5f52602160045260245ffd5b91905290565b610768806100db5f395ff3fe608060405234801561000f575f80fd5b5060043610610060575f3560e01c8063548c0ef4146100645780636cb51792146100a557806381aef648146100ba578063b17b2291146100dd578063b2a54985146100f0578063b404517414610103575b5f80fd5b61008f610072366004610612565b6001600160a01b03165f9081526003602052604090205460ff1690565b60405161009c9190610666565b60405180910390f35b6100b86100b3366004610682565b610116565b005b6100cd6100c83660046106b3565b6101ed565b604051901515815260200161009c565b6100b86100eb366004610612565b610237565b6100b86100fe366004610612565b61036b565b6100b8610111366004610612565b61047d565b600461012281336101ed565b61014c573381604051631f3ad95d60e11b81526004016101439291906106db565b60405180910390fd5b60056001600160a01b0384165f9081526003602052604090205460ff16600581111561017a5761017a610632565b106101de5760405163e066a8d760e01b815260206004820152602d60248201527f43616e6e6f742061737369676e206f7220726561737369676e2050524541544f60448201526c524d4158494d55532072616e6b60981b6064820152608401610143565b6101e88383610579565b505050565b5f82600581111561020057610200610632565b6001600160a01b0383165f9081526003602052604090205460ff16600581111561022c5761022c610632565b101590505b92915050565b600461024381336101ed565b610264573381604051631f3ad95d60e11b81526004016101439291906106db565b6001600160a01b0382165f9081526003602052604081205460ff169081600581111561029257610292610632565b116102d95760405163e066a8d760e01b8152602060048201526016602482015275416c7265616479206174206c6f776573742072616e6b60501b6044820152606401610143565b6103118360018360058111156102f1576102f1610632565b6102fb919061070c565b600581111561030c5761030c610632565b610579565b6001600160a01b0383165f81815260036020526040908190205490517f45284fdcf691ab877427ff787e38072bdf235fb7e85baaaa9f17dd7bd305c75e9161035e9160ff90911690610666565b60405180910390a2505050565b600461037781336101ed565b610398573381604051631f3ad95d60e11b81526004016101439291906106db565b6001600160a01b0382165f9081526003602052604090205460ff1660028160058111156103c7576103c7610632565b1061040f5760405163e066a8d760e01b8152602060048201526017602482015276416c726561647920617420686967686573742072616e6b60481b6044820152606401610143565b6104308382600581111561042557610425610632565b6102fb90600161071f565b6001600160a01b0383165f81815260036020526040908190205490517fc044cb19a6b2fe37c1a0618f3a47a874033707b4034762c63477d77c5556e22e9161035e9160ff90911690610666565b600361048981336101ed565b6104aa573381604051631f3ad95d60e11b81526004016101439291906106db565b60056001600160a01b0383165f9081526003602052604090205460ff1660058111156104d8576104d8610632565b036105305760405163e066a8d760e01b815260206004820152602160248201527f43616e6e6f74207265766f6b652050524541544f524d4158494d55532072616e6044820152606b60f81b6064820152608401610143565b6001600160a01b0382165f81815260036020526040808220805460ff19169055517f46fff916a56004bfd9422d162bd432fadbf612654ff2c641633d4897bda23d3c9190a25050565b6001600160a01b0382165f908152600360205260409020805482919060ff191660018360058111156105ad576105ad610632565b0217905550816001600160a01b03167fca74a9674343e6a05554618ca7953f960439f10b46cdd457fb2ac670b271c7b9826040516105eb9190610666565b60405180910390a25050565b80356001600160a01b038116811461060d575f80fd5b919050565b5f60208284031215610622575f80fd5b61062b826105f7565b9392505050565b634e487b7160e01b5f52602160045260245ffd5b6006811061066257634e487b7160e01b5f52602160045260245ffd5b9052565b602081016102318284610646565b80356006811061060d575f80fd5b5f8060408385031215610693575f80fd5b61069c836105f7565b91506106aa60208401610674565b90509250929050565b5f80604083850312156106c4575f80fd5b6106cd83610674565b91506106aa602084016105f7565b6001600160a01b03831681526040810161062b6020830184610646565b634e487b7160e01b5f52601160045260245ffd5b81810381811115610231576102316106f8565b80820180821115610231576102316106f856fea264697066735822122026e3b79f67302041f9e8eeb694a7d6b60de97cc1cb57fcd4222db274a509698464736f6c634300081a0033",
					"opcodes": "PUSH1 0x80 PUSH1 0x40 MSTORE CALLVALUE DUP1 ISZERO PUSH1 0xE JUMPI PUSH0 DUP1 REVERT JUMPDEST POP PUSH1 0x18 CALLER PUSH1 0x5 PUSH1 0x1C JUMP JUMPDEST PUSH1 0xCE JUMP JUMPDEST PUSH1 0x1 PUSH1 0x1 PUSH1 0xA0 SHL SUB DUP3 AND PUSH0 SWAP1 DUP2 MSTORE PUSH1 0x3 PUSH1 0x20 MSTORE PUSH1 0x40 SWAP1 KECCAK256 DUP1 SLOAD DUP3 SWAP2 SWAP1 PUSH1 0xFF NOT AND PUSH1 0x1 DUP4 PUSH1 0x5 DUP2 GT ISZERO PUSH1 0x4D JUMPI PUSH1 0x4D PUSH1 0x95 JUMP JUMPDEST MUL OR SWAP1 SSTORE POP DUP2 PUSH1 0x1 PUSH1 0x1 PUSH1 0xA0 SHL SUB AND PUSH32 0xCA74A9674343E6A05554618CA7953F960439F10B46CDD457FB2AC670B271C7B9 DUP3 PUSH1 0x40 MLOAD PUSH1 0x89 SWAP2 SWAP1 PUSH1 0xA9 JUMP JUMPDEST PUSH1 0x40 MLOAD DUP1 SWAP2 SUB SWAP1 LOG2 POP POP JUMP JUMPDEST PUSH4 0x4E487B71 PUSH1 0xE0 SHL PUSH0 MSTORE PUSH1 0x21 PUSH1 0x4 MSTORE PUSH1 0x24 PUSH0 REVERT JUMPDEST PUSH1 0x20 DUP2 ADD PUSH1 0x6 DUP4 LT PUSH1 0xC8 JUMPI PUSH4 0x4E487B71 PUSH1 0xE0 SHL PUSH0 MSTORE PUSH1 0x21 PUSH1 0x4 MSTORE PUSH1 0x24 PUSH0 REVERT JUMPDEST SWAP2 SWAP1 MSTORE SWAP1 JUMP JUMPDEST PUSH2 0x768 DUP1 PUSH2 0xDB PUSH0 CODECOPY PUSH0 RETURN INVALID PUSH1 0x80 PUSH1 0x40 MSTORE CALLVALUE DUP1 ISZERO PUSH2 0xF JUMPI PUSH0 DUP1 REVERT JUMPDEST POP PUSH1 0x4 CALLDATASIZE LT PUSH2 0x60 JUMPI PUSH0 CALLDATALOAD PUSH1 0xE0 SHR DUP1 PUSH4 0x548C0EF4 EQ PUSH2 0x64 JUMPI DUP1 PUSH4 0x6CB51792 EQ PUSH2 0xA5 JUMPI DUP1 PUSH4 0x81AEF648 EQ PUSH2 0xBA JUMPI DUP1 PUSH4 0xB17B2291 EQ PUSH2 0xDD JUMPI DUP1 PUSH4 0xB2A54985 EQ PUSH2 0xF0 JUMPI DUP1 PUSH4 0xB4045174 EQ PUSH2 0x103 JUMPI JUMPDEST PUSH0 DUP1 REVERT JUMPDEST PUSH2 0x8F PUSH2 0x72 CALLDATASIZE PUSH1 0x4 PUSH2 0x612 JUMP JUMPDEST PUSH1 0x1 PUSH1 0x1 PUSH1 0xA0 SHL SUB AND PUSH0 SWAP1 DUP2 MSTORE PUSH1 0x3 PUSH1 0x20 MSTORE PUSH1 0x40 SWAP1 KECCAK256 SLOAD PUSH1 0xFF AND SWAP1 JUMP JUMPDEST PUSH1 0x40 MLOAD PUSH2 0x9C SWAP2 SWAP1 PUSH2 0x666 JUMP JUMPDEST PUSH1 0x40 MLOAD DUP1 SWAP2 SUB SWAP1 RETURN JUMPDEST PUSH2 0xB8 PUSH2 0xB3 CALLDATASIZE PUSH1 0x4 PUSH2 0x682 JUMP JUMPDEST PUSH2 0x116 JUMP JUMPDEST STOP JUMPDEST PUSH2 0xCD PUSH2 0xC8 CALLDATASIZE PUSH1 0x4 PUSH2 0x6B3 JUMP JUMPDEST PUSH2 0x1ED JUMP JUMPDEST PUSH1 0x40 MLOAD SWAP1 ISZERO ISZERO DUP2 MSTORE PUSH1 0x20 ADD PUSH2 0x9C JUMP JUMPDEST PUSH2 0xB8 PUSH2 0xEB CALLDATASIZE PUSH1 0x4 PUSH2 0x612 JUMP JUMPDEST PUSH2 0x237 JUMP JUMPDEST PUSH2 0xB8 PUSH2 0xFE CALLDATASIZE PUSH1 0x4 PUSH2 0x612 JUMP JUMPDEST PUSH2 0x36B JUMP JUMPDEST PUSH2 0xB8 PUSH2 0x111 CALLDATASIZE PUSH1 0x4 PUSH2 0x612 JUMP JUMPDEST PUSH2 0x47D JUMP JUMPDEST PUSH1 0x4 PUSH2 0x122 DUP2 CALLER PUSH2 0x1ED JUMP JUMPDEST PUSH2 0x14C JUMPI CALLER DUP2 PUSH1 0x40 MLOAD PUSH4 0x1F3AD95D PUSH1 0xE1 SHL DUP2 MSTORE PUSH1 0x4 ADD PUSH2 0x143 SWAP3 SWAP2 SWAP1 PUSH2 0x6DB JUMP JUMPDEST PUSH1 0x40 MLOAD DUP1 SWAP2 SUB SWAP1 REVERT JUMPDEST PUSH1 0x5 PUSH1 0x1 PUSH1 0x1 PUSH1 0xA0 SHL SUB DUP5 AND PUSH0 SWAP1 DUP2 MSTORE PUSH1 0x3 PUSH1 0x20 MSTORE PUSH1 0x40 SWAP1 KECCAK256 SLOAD PUSH1 0xFF AND PUSH1 0x5 DUP2 GT ISZERO PUSH2 0x17A JUMPI PUSH2 0x17A PUSH2 0x632 JUMP JUMPDEST LT PUSH2 0x1DE JUMPI PUSH1 0x40 MLOAD PUSH4 0xE066A8D7 PUSH1 0xE0 SHL DUP2 MSTORE PUSH1 0x20 PUSH1 0x4 DUP3 ADD MSTORE PUSH1 0x2D PUSH1 0x24 DUP3 ADD MSTORE PUSH32 0x43616E6E6F742061737369676E206F7220726561737369676E2050524541544F PUSH1 0x44 DUP3 ADD MSTORE PUSH13 0x524D4158494D55532072616E6B PUSH1 0x98 SHL PUSH1 0x64 DUP3 ADD MSTORE PUSH1 0x84 ADD PUSH2 0x143 JUMP JUMPDEST PUSH2 0x1E8 DUP4 DUP4 PUSH2 0x579 JUMP JUMPDEST POP POP POP JUMP JUMPDEST PUSH0 DUP3 PUSH1 0x5 DUP2 GT ISZERO PUSH2 0x200 JUMPI PUSH2 0x200 PUSH2 0x632 JUMP JUMPDEST PUSH1 0x1 PUSH1 0x1 PUSH1 0xA0 SHL SUB DUP4 AND PUSH0 SWAP1 DUP2 MSTORE PUSH1 0x3 PUSH1 0x20 MSTORE PUSH1 0x40 SWAP1 KECCAK256 SLOAD PUSH1 0xFF AND PUSH1 0x5 DUP2 GT ISZERO PUSH2 0x22C JUMPI PUSH2 0x22C PUSH2 0x632 JUMP JUMPDEST LT ISZERO SWAP1 POP JUMPDEST SWAP3 SWAP2 POP POP JUMP JUMPDEST PUSH1 0x4 PUSH2 0x243 DUP2 CALLER PUSH2 0x1ED JUMP JUMPDEST PUSH2 0x264 JUMPI CALLER DUP2 PUSH1 0x40 MLOAD PUSH4 0x1F3AD95D PUSH1 0xE1 SHL DUP2 MSTORE PUSH1 0x4 ADD PUSH2 0x143 SWAP3 SWAP2 SWAP1 PUSH2 0x6DB JUMP JUMPDEST PUSH1 0x1 PUSH1 0x1 PUSH1 0xA0 SHL SUB DUP3 AND PUSH0 SWAP1 DUP2 MSTORE PUSH1 0x3 PUSH1 0x20 MSTORE PUSH1 0x40 DUP2 KECCAK256 SLOAD PUSH1 0xFF AND SWAP1 DUP2 PUSH1 0x5 DUP2 GT ISZERO PUSH2 0x292 JUMPI PUSH2 0x292 PUSH2 0x632 JUMP JUMPDEST GT PUSH2 0x2D9 JUMPI PUSH1 0x40 MLOAD PUSH4 0xE066A8D7 PUSH1 0xE0 SHL DUP2 MSTORE PUSH1 0x20 PUSH1 0x4 DUP3 ADD MSTORE PUSH1 0x16 PUSH1 0x24 DUP3 ADD MSTORE PUSH22 0x416C7265616479206174206C6F776573742072616E6B PUSH1 0x50 SHL PUSH1 0x44 DUP3 ADD MSTORE PUSH1 0x64 ADD PUSH2 0x143 JUMP JUMPDEST PUSH2 0x311 DUP4 PUSH1 0x1 DUP4 PUSH1 0x5 DUP2 GT ISZERO PUSH2 0x2F1 JUMPI PUSH2 0x2F1 PUSH2 0x632 JUMP JUMPDEST PUSH2 0x2FB SWAP2 SWAP1 PUSH2 0x70C JUMP JUMPDEST PUSH1 0x5 DUP2 GT ISZERO PUSH2 0x30C JUMPI PUSH2 0x30C PUSH2 0x632 JUMP JUMPDEST PUSH2 0x579 JUMP JUMPDEST PUSH1 0x1 PUSH1 0x1 PUSH1 0xA0 SHL SUB DUP4 AND PUSH0 DUP2 DUP2 MSTORE PUSH1 0x3 PUSH1 0x20 MSTORE PUSH1 0x40 SWAP1 DUP2 SWAP1 KECCAK256 SLOAD SWAP1 MLOAD PUSH32 0x45284FDCF691AB877427FF787E38072BDF235FB7E85BAAAA9F17DD7BD305C75E SWAP2 PUSH2 0x35E SWAP2 PUSH1 0xFF SWAP1 SWAP2 AND SWAP1 PUSH2 0x666 JUMP JUMPDEST PUSH1 0x40 MLOAD DUP1 SWAP2 SUB SWAP1 LOG2 POP POP POP JUMP JUMPDEST PUSH1 0x4 PUSH2 0x377 DUP2 CALLER PUSH2 0x1ED JUMP JUMPDEST PUSH2 0x398 JUMPI CALLER DUP2 PUSH1 0x40 MLOAD PUSH4 0x1F3AD95D PUSH1 0xE1 SHL DUP2 MSTORE PUSH1 0x4 ADD PUSH2 0x143 SWAP3 SWAP2 SWAP1 PUSH2 0x6DB JUMP JUMPDEST PUSH1 0x1 PUSH1 0x1 PUSH1 0xA0 SHL SUB DUP3 AND PUSH0 SWAP1 DUP2 MSTORE PUSH1 0x3 PUSH1 0x20 MSTORE PUSH1 0x40 SWAP1 KECCAK256 SLOAD PUSH1 0xFF AND PUSH1 0x2 DUP2 PUSH1 0x5 DUP2 GT ISZERO PUSH2 0x3C7 JUMPI PUSH2 0x3C7 PUSH2 0x632 JUMP JUMPDEST LT PUSH2 0x40F JUMPI PUSH1 0x40 MLOAD PUSH4 0xE066A8D7 PUSH1 0xE0 SHL DUP2 MSTORE PUSH1 0x20 PUSH1 0x4 DUP3 ADD MSTORE PUSH1 0x17 PUSH1 0x24 DUP3 ADD MSTORE PUSH23 0x416C726561647920617420686967686573742072616E6B PUSH1 0x48 SHL PUSH1 0x44 DUP3 ADD MSTORE PUSH1 0x64 ADD PUSH2 0x143 JUMP JUMPDEST PUSH2 0x430 DUP4 DUP3 PUSH1 0x5 DUP2 GT ISZERO PUSH2 0x425 JUMPI PUSH2 0x425 PUSH2 0x632 JUMP JUMPDEST PUSH2 0x2FB SWAP1 PUSH1 0x1 PUSH2 0x71F JUMP JUMPDEST PUSH1 0x1 PUSH1 0x1 PUSH1 0xA0 SHL SUB DUP4 AND PUSH0 DUP2 DUP2 MSTORE PUSH1 0x3 PUSH1 0x20 MSTORE PUSH1 0x40 SWAP1 DUP2 SWAP1 KECCAK256 SLOAD SWAP1 MLOAD PUSH32 0xC044CB19A6B2FE37C1A0618F3A47A874033707B4034762C63477D77C5556E22E SWAP2 PUSH2 0x35E SWAP2 PUSH1 0xFF SWAP1 SWAP2 AND SWAP1 PUSH2 0x666 JUMP JUMPDEST PUSH1 0x3 PUSH2 0x489 DUP2 CALLER PUSH2 0x1ED JUMP JUMPDEST PUSH2 0x4AA JUMPI CALLER DUP2 PUSH1 0x40 MLOAD PUSH4 0x1F3AD95D PUSH1 0xE1 SHL DUP2 MSTORE PUSH1 0x4 ADD PUSH2 0x143 SWAP3 SWAP2 SWAP1 PUSH2 0x6DB JUMP JUMPDEST PUSH1 0x5 PUSH1 0x1 PUSH1 0x1 PUSH1 0xA0 SHL SUB DUP4 AND PUSH0 SWAP1 DUP2 MSTORE PUSH1 0x3 PUSH1 0x20 MSTORE PUSH1 0x40 SWAP1 KECCAK256 SLOAD PUSH1 0xFF AND PUSH1 0x5 DUP2 GT ISZERO PUSH2 0x4D8 JUMPI PUSH2 0x4D8 PUSH2 0x632 JUMP JUMPDEST SUB PUSH2 0x530 JUMPI PUSH1 0x40 MLOAD PUSH4 0xE066A8D7 PUSH1 0xE0 SHL DUP2 MSTORE PUSH1 0x20 PUSH1 0x4 DUP3 ADD MSTORE PUSH1 0x21 PUSH1 0x24 DUP3 ADD MSTORE PUSH32 0x43616E6E6F74207265766F6B652050524541544F524D4158494D55532072616E PUSH1 0x44 DUP3 ADD MSTORE PUSH1 0x6B PUSH1 0xF8 SHL PUSH1 0x64 DUP3 ADD MSTORE PUSH1 0x84 ADD PUSH2 0x143 JUMP JUMPDEST PUSH1 0x1 PUSH1 0x1 PUSH1 0xA0 SHL SUB DUP3 AND PUSH0 DUP2 DUP2 MSTORE PUSH1 0x3 PUSH1 0x20 MSTORE PUSH1 0x40 DUP1 DUP3 KECCAK256 DUP1 SLOAD PUSH1 0xFF NOT AND SWAP1 SSTORE MLOAD PUSH32 0x46FFF916A56004BFD9422D162BD432FADBF612654FF2C641633D4897BDA23D3C SWAP2 SWAP1 LOG2 POP POP JUMP JUMPDEST PUSH1 0x1 PUSH1 0x1 PUSH1 0xA0 SHL SUB DUP3 AND PUSH0 SWAP1 DUP2 MSTORE PUSH1 0x3 PUSH1 0x20 MSTORE PUSH1 0x40 SWAP1 KECCAK256 DUP1 SLOAD DUP3 SWAP2 SWAP1 PUSH1 0xFF NOT AND PUSH1 0x1 DUP4 PUSH1 0x5 DUP2 GT ISZERO PUSH2 0x5AD JUMPI PUSH2 0x5AD PUSH2 0x632 JUMP JUMPDEST MUL OR SWAP1 SSTORE POP DUP2 PUSH1 0x1 PUSH1 0x1 PUSH1 0xA0 SHL SUB AND PUSH32 0xCA74A9674343E6A05554618CA7953F960439F10B46CDD457FB2AC670B271C7B9 DUP3 PUSH1 0x40 MLOAD PUSH2 0x5EB SWAP2 SWAP1 PUSH2 0x666 JUMP JUMPDEST PUSH1 0x40 MLOAD DUP1 SWAP2 SUB SWAP1 LOG2 POP POP JUMP JUMPDEST DUP1 CALLDATALOAD PUSH1 0x1 PUSH1 0x1 PUSH1 0xA0 SHL SUB DUP2 AND DUP2 EQ PUSH2 0x60D JUMPI PUSH0 DUP1 REVERT JUMPDEST SWAP2 SWAP1 POP JUMP JUMPDEST PUSH0 PUSH1 0x20 DUP3 DUP5 SUB SLT ISZERO PUSH2 0x622 JUMPI PUSH0 DUP1 REVERT JUMPDEST PUSH2 0x62B DUP3 PUSH2 0x5F7 JUMP JUMPDEST SWAP4 SWAP3 POP POP POP JUMP JUMPDEST PUSH4 0x4E487B71 PUSH1 0xE0 SHL PUSH0 MSTORE PUSH1 0x21 PUSH1 0x4 MSTORE PUSH1 0x24 PUSH0 REVERT JUMPDEST PUSH1 0x6 DUP2 LT PUSH2 0x662 JUMPI PUSH4 0x4E487B71 PUSH1 0xE0 SHL PUSH0 MSTORE PUSH1 0x21 PUSH1 0x4 MSTORE PUSH1 0x24 PUSH0 REVERT JUMPDEST SWAP1 MSTORE JUMP JUMPDEST PUSH1 0x20 DUP2 ADD PUSH2 0x231 DUP3 DUP5 PUSH2 0x646 JUMP JUMPDEST DUP1 CALLDATALOAD PUSH1 0x6 DUP2 LT PUSH2 0x60D JUMPI PUSH0 DUP1 REVERT JUMPDEST PUSH0 DUP1 PUSH1 0x40 DUP4 DUP6 SUB SLT ISZERO PUSH2 0x693 JUMPI PUSH0 DUP1 REVERT JUMPDEST PUSH2 0x69C DUP4 PUSH2 0x5F7 JUMP JUMPDEST SWAP2 POP PUSH2 0x6AA PUSH1 0x20 DUP5 ADD PUSH2 0x674 JUMP JUMPDEST SWAP1 POP SWAP3 POP SWAP3 SWAP1 POP JUMP JUMPDEST PUSH0 DUP1 PUSH1 0x40 DUP4 DUP6 SUB SLT ISZERO PUSH2 0x6C4 JUMPI PUSH0 DUP1 REVERT JUMPDEST PUSH2 0x6CD DUP4 PUSH2 0x674 JUMP JUMPDEST SWAP2 POP PUSH2 0x6AA PUSH1 0x20 DUP5 ADD PUSH2 0x5F7 JUMP JUMPDEST PUSH1 0x1 PUSH1 0x1 PUSH1 0xA0 SHL SUB DUP4 AND DUP2 MSTORE PUSH1 0x40 DUP2 ADD PUSH2 0x62B PUSH1 0x20 DUP4 ADD DUP5 PUSH2 0x646 JUMP JUMPDEST PUSH4 0x4E487B71 PUSH1 0xE0 SHL PUSH0 MSTORE PUSH1 0x11 PUSH1 0x4 MSTORE PUSH1 0x24 PUSH0 REVERT JUMPDEST DUP2 DUP2 SUB DUP2 DUP2 GT ISZERO PUSH2 0x231 JUMPI PUSH2 0x231 PUSH2 0x6F8 JUMP JUMPDEST DUP1 DUP3 ADD DUP1 DUP3 GT ISZERO PUSH2 0x231 JUMPI PUSH2 0x231 PUSH2 0x6F8 JUMP INVALID LOG2 PUSH5 0x6970667358 0x22 SLT KECCAK256 0x26 0xE3 0xB7 SWAP16 PUSH8 0x302041F9E8EEB694 0xA7 0xD6 0xB6 0xD 0xE9 PUSH29 0xC1CB57FCD4222DB274A509698464736F6C634300081A00330000000000 "
				},
				"gasEstimates": {
					"creation": {
						"codeDepositCost": "379200",
						"executionCost": "26322",
						"totalCost": "405522"
					},
					"external": {
						"assignRank(address,uint8)": "infinite",
						"downgradeRank(address)": "infinite",
						"getRank(address)": "2599",
						"hasRank(uint8,address)": "infinite",
						"revokeRank(address)": "infinite",
						"upgradeRank(address)": "infinite"
					},
					"internal": {
						"_assignRank(address,enum HierarchicalAccessControl.Rank)": "infinite"
					}
				},
				"methodIdentifiers": {
					"assignRank(address,uint8)": "6cb51792",
					"downgradeRank(address)": "b17b2291",
					"getRank(address)": "548c0ef4",
					"hasRank(uint8,address)": "81aef648",
					"revokeRank(address)": "b4045174",
					"upgradeRank(address)": "b2a54985"
				}
			},
			"storageLayout": {
				"storage": [
					{
						"astId": 20,
						"contract": "contracts/Access.sol:HierarchicalAccessControl",
						"label": "Registry",
						"offset": 0,
						"slot": "0",
						"type": "t_struct(Registry)905_storage"
					},
					{
						"astId": 26,
						"contract": "contracts/Access.sol:HierarchicalAccessControl",
						"label": "Ranks",
						"offset": 0,
						"slot": "3",
						"type": "t_mapping(t_address,t_enum(Rank)16)"
					}
				],
				"types": {
					"t_address": {
						"encoding": "inplace",
						"label": "address",
						"numberOfBytes": "20"
					},
					"t_array(t_uint256)dyn_storage": {
						"base": "t_uint256",
						"encoding": "dynamic_array",
						"label": "uint256[]",
						"numberOfBytes": "32"
					},
					"t_bool": {
						"encoding": "inplace",
						"label": "bool",
						"numberOfBytes": "1"
					},
					"t_enum(Rank)16": {
						"encoding": "inplace",
						"label": "enum HierarchicalAccessControl.Rank",
						"numberOfBytes": "1"
					},
					"t_mapping(t_address,t_enum(Rank)16)": {
						"encoding": "mapping",
						"key": "t_address",
						"label": "mapping(address => enum HierarchicalAccessControl.Rank)",
						"numberOfBytes": "32",
						"value": "t_enum(Rank)16"
					},
					"t_mapping(t_uint256,t_bool)": {
						"encoding": "mapping",
						"key": "t_uint256",
						"label": "mapping(uint256 => bool)",
						"numberOfBytes": "32",
						"value": "t_bool"
					},
					"t_mapping(t_uint256,t_uint256)": {
						"encoding": "mapping",
						"key": "t_uint256",
						"label": "mapping(uint256 => uint256)",
						"numberOfBytes": "32",
						"value": "t_uint256"
					},
					"t_struct(Registry)905_storage": {
						"encoding": "inplace",
						"label": "struct LibRegistry.Registry",
						"members": [
							{
								"astId": 896,
								"contract": "contracts/Access.sol:HierarchicalAccessControl",
								"label": "keys",
								"offset": 0,
								"slot": "0",
								"type": "t_array(t_uint256)dyn_storage"
							},
							{
								"astId": 900,
								"contract": "contracts/Access.sol:HierarchicalAccessControl",
								"label": "indexOf",
								"offset": 0,
								"slot": "1",
								"type": "t_mapping(t_uint256,t_uint256)"
							},
							{
								"astId": 904,
								"contract": "contracts/Access.sol:HierarchicalAccessControl",
								"label": "inserted",
								"offset": 0,
								"slot": "2",
								"type": "t_mapping(t_uint256,t_bool)"
							}
						],
						"numberOfBytes": "96"
					},
					"t_uint256": {
						"encoding": "inplace",
						"label": "uint256",
						"numberOfBytes": "32"
					}
				}
			},
			"userdoc": {
				"kind": "user",
				"methods": {
					"assignRank(address,uint8)": {
						"notice": "Assign a rank to an account."
					},
					"downgradeRank(address)": {
						"notice": "Downgrade the rank of an account."
					},
					"getRank(address)": {
						"notice": "Get the rank of an account."
					},
					"hasRank(uint8,address)": {
						"notice": "Check if an account has the required rank or higher."
					},
					"revokeRank(address)": {
						"notice": "Revoke the rank of an account."
					},
					"upgradeRank(address)": {
						"notice": "Upgrade the rank of an account."
					}
				},
				"version": 1
			}
		}
	}
}