{
	"contracts/Classes/NormUserClass.sol": {
		"NormUserClass": {
			"abi": [
				{
					"inputs": [
						{
							"internalType": "int256",
							"name": "_classBasis",
							"type": "int256"
						}
					],
					"stateMutability": "nonpayable",
					"type": "constructor"
				},
				{
					"anonymous": false,
					"inputs": [
						{
							"indexed": true,
							"internalType": "address",
							"name": "caller",
							"type": "address"
						},
						{
							"indexed": false,
							"internalType": "uint256",
							"name": "value",
							"type": "uint256"
						}
					],
					"name": "FunctionCalled",
					"type": "event"
				},
				{
					"anonymous": false,
					"inputs": [
						{
							"indexed": true,
							"internalType": "address",
							"name": "previousOwner",
							"type": "address"
						},
						{
							"indexed": true,
							"internalType": "address",
							"name": "newOwner",
							"type": "address"
						}
					],
					"name": "OwnershipTransferred",
					"type": "event"
				},
				{
					"anonymous": false,
					"inputs": [
						{
							"indexed": false,
							"internalType": "uint256",
							"name": "sum",
							"type": "uint256"
						},
						{
							"indexed": false,
							"internalType": "uint256",
							"name": "blockNumber",
							"type": "uint256"
						}
					],
					"name": "TransactionSumUpdated",
					"type": "event"
				},
				{
					"anonymous": false,
					"inputs": [
						{
							"indexed": true,
							"internalType": "address",
							"name": "_user",
							"type": "address"
						}
					],
					"name": "userAdded",
					"type": "event"
				},
				{
					"anonymous": false,
					"inputs": [
						{
							"indexed": true,
							"internalType": "address",
							"name": "_user",
							"type": "address"
						}
					],
					"name": "userDeleted",
					"type": "event"
				},
				{
					"inputs": [
						{
							"internalType": "uint256",
							"name": "",
							"type": "uint256"
						}
					],
					"name": "TwapValueStorage",
					"outputs": [
						{
							"internalType": "uint256",
							"name": "currentBlock",
							"type": "uint256"
						},
						{
							"internalType": "uint256",
							"name": "totalValue",
							"type": "uint256"
						}
					],
					"stateMutability": "view",
					"type": "function"
				},
				{
					"inputs": [
						{
							"internalType": "address",
							"name": "",
							"type": "address"
						}
					],
					"name": "UserList",
					"outputs": [
						{
							"internalType": "bool",
							"name": "",
							"type": "bool"
						}
					],
					"stateMutability": "view",
					"type": "function"
				},
				{
					"inputs": [
						{
							"internalType": "address",
							"name": "user",
							"type": "address"
						}
					],
					"name": "addUser",
					"outputs": [
						{
							"internalType": "bool",
							"name": "",
							"type": "bool"
						}
					],
					"stateMutability": "nonpayable",
					"type": "function"
				},
				{
					"inputs": [],
					"name": "classBasis",
					"outputs": [
						{
							"internalType": "int256",
							"name": "",
							"type": "int256"
						}
					],
					"stateMutability": "view",
					"type": "function"
				},
				{
					"inputs": [],
					"name": "classRegistry",
					"outputs": [
						{
							"internalType": "address",
							"name": "",
							"type": "address"
						}
					],
					"stateMutability": "view",
					"type": "function"
				},
				{
					"inputs": [
						{
							"internalType": "address",
							"name": "user",
							"type": "address"
						}
					],
					"name": "deleteUser",
					"outputs": [
						{
							"internalType": "bool",
							"name": "",
							"type": "bool"
						}
					],
					"stateMutability": "nonpayable",
					"type": "function"
				},
				{
					"inputs": [],
					"name": "getClassBasis",
					"outputs": [
						{
							"internalType": "int256",
							"name": "",
							"type": "int256"
						}
					],
					"stateMutability": "view",
					"type": "function"
				},
				{
					"inputs": [],
					"name": "getUpDown",
					"outputs": [
						{
							"internalType": "bool",
							"name": "",
							"type": "bool"
						}
					],
					"stateMutability": "view",
					"type": "function"
				},
				{
					"inputs": [],
					"name": "owner",
					"outputs": [
						{
							"internalType": "address",
							"name": "",
							"type": "address"
						}
					],
					"stateMutability": "view",
					"type": "function"
				},
				{
					"inputs": [],
					"name": "renounceOwnership",
					"outputs": [],
					"stateMutability": "nonpayable",
					"type": "function"
				},
				{
					"inputs": [
						{
							"internalType": "uint256",
							"name": "value",
							"type": "uint256"
						}
					],
					"name": "storeValueOfTx",
					"outputs": [],
					"stateMutability": "nonpayable",
					"type": "function"
				},
				{
					"inputs": [
						{
							"internalType": "address",
							"name": "newOwner",
							"type": "address"
						}
					],
					"name": "transferOwnership",
					"outputs": [],
					"stateMutability": "nonpayable",
					"type": "function"
				},
				{
					"inputs": [],
					"name": "twapIndex",
					"outputs": [
						{
							"internalType": "uint256",
							"name": "",
							"type": "uint256"
						}
					],
					"stateMutability": "view",
					"type": "function"
				},
				{
					"inputs": [],
					"name": "upOrDown",
					"outputs": [
						{
							"internalType": "bool",
							"name": "",
							"type": "bool"
						}
					],
					"stateMutability": "view",
					"type": "function"
				},
				{
					"inputs": [
						{
							"internalType": "address",
							"name": "registry",
							"type": "address"
						}
					],
					"name": "updateClassRegistry",
					"outputs": [],
					"stateMutability": "nonpayable",
					"type": "function"
				}
			],
			"devdoc": {
				"details": "This is an example of a class contract.",
				"events": {
					"FunctionCalled(address,uint256)": {
						"details": "Event emitted when a function in ClassA is called."
					}
				},
				"kind": "dev",
				"methods": {
					"owner()": {
						"details": "Returns the address of the current owner."
					},
					"renounceOwnership()": {
						"details": "Leaves the contract without owner. It will not be possible to call `onlyOwner` functions anymore. Can only be called by the current owner. NOTE: Renouncing ownership will leave the contract without an owner, thereby removing any functionality that is only available to the owner."
					},
					"transferOwnership(address)": {
						"details": "Transfers ownership of the contract to a new account (`newOwner`). Can only be called by the current owner."
					}
				},
				"stateVariables": {
					"lastUpdateBlock": {
						"details": "Block number when the sum was last updated"
					},
					"transactionSum": {
						"details": "Running total of transaction values"
					}
				},
				"title": "ClassA",
				"version": 1
			},
			"evm": {
				"assembly": "    /* \"contracts/Classes/NormUserClass.sol\":155:2662  contract NormUserClass is Ownable {... */\n  mstore(0x40, 0x80)\n    /* \"contracts/Classes/NormUserClass.sol\":599:600  0 */\n  0x00\n    /* \"contracts/Classes/NormUserClass.sol\":575:600  uint public twapIndex = 0 */\n  0x01\n  sstore\n    /* \"contracts/Classes/NormUserClass.sol\":985:1062  constructor( int _classBasis) {... */\n  callvalue\n  dup1\n  iszero\n  tag_1\n  jumpi\n  0x00\n  dup1\n  revert\ntag_1:\n  pop\n  mload(0x40)\n  sub(codesize, bytecodeSize)\n  dup1\n  bytecodeSize\n  dup4\n  codecopy\n  dup2\n  add\n  0x40\n  dup2\n  swap1\n  mstore\n  tag_2\n  swap2\n  tag_3\n  jump\t// in\ntag_2:\n    /* \"contracts/Ownable.sol\":853:870  address msgSender */\n  0x00\n    /* \"contracts/Ownable.sol\":895:913  _owner = msgSender */\n  dup1\n  sload\n  not(sub(shl(0xa0, 0x01), 0x01))\n  and\n    /* \"contracts/Context.sol\":735:745  msg.sender */\n  caller\n    /* \"contracts/Ownable.sol\":895:913  _owner = msgSender */\n  swap1\n  dup2\n  or\n  dup3\n  sstore\n    /* \"contracts/Ownable.sol\":928:971  OwnershipTransferred(address(0), msgSender) */\n  mload(0x40)\n    /* \"contracts/Context.sol\":735:745  msg.sender */\n  swap1\n  swap2\n  dup3\n  swap2\n    /* \"contracts/Ownable.sol\":928:971  OwnershipTransferred(address(0), msgSender) */\n  0x8be0079c531659141344cd1fd0a4f28419497f9722a3daafe3b4186f6b6457e0\n  swap1\n    /* \"contracts/Ownable.sol\":853:870  address msgSender */\n  dup3\n  swap1\n    /* \"contracts/Ownable.sol\":928:971  OwnershipTransferred(address(0), msgSender) */\n  log3\n  pop\n    /* \"contracts/Classes/NormUserClass.sol\":1028:1038  classBasis */\n  0x07\n    /* \"contracts/Classes/NormUserClass.sol\":1028:1052  classBasis = _classBasis */\n  sstore\n    /* \"contracts/Classes/NormUserClass.sol\":155:2662  contract NormUserClass is Ownable {... */\n  jump(tag_12)\n    /* \"#utility.yul\":14:197   */\ntag_3:\n    /* \"#utility.yul\":83:89   */\n  0x00\n    /* \"#utility.yul\":136:138   */\n  0x20\n    /* \"#utility.yul\":124:133   */\n  dup3\n    /* \"#utility.yul\":115:122   */\n  dup5\n    /* \"#utility.yul\":111:134   */\n  sub\n    /* \"#utility.yul\":107:139   */\n  slt\n    /* \"#utility.yul\":104:156   */\n  iszero\n  tag_14\n  jumpi\n    /* \"#utility.yul\":152:153   */\n  0x00\n    /* \"#utility.yul\":149:150   */\n  dup1\n    /* \"#utility.yul\":142:154   */\n  revert\n    /* \"#utility.yul\":104:156   */\ntag_14:\n  pop\n    /* \"#utility.yul\":175:191   */\n  mload\n  swap2\n    /* \"#utility.yul\":14:197   */\n  swap1\n  pop\n  jump\t// out\ntag_12:\n    /* \"contracts/Classes/NormUserClass.sol\":155:2662  contract NormUserClass is Ownable {... */\n  dataSize(sub_0)\n  dup1\n  dataOffset(sub_0)\n  0x00\n  codecopy\n  0x00\n  return\nstop\n\nsub_0: assembly {\n        /* \"contracts/Classes/NormUserClass.sol\":155:2662  contract NormUserClass is Ownable {... */\n      mstore(0x40, 0x80)\n      callvalue\n      dup1\n      iszero\n      tag_1\n      jumpi\n      0x00\n      dup1\n      revert\n    tag_1:\n      pop\n      jumpi(tag_2, lt(calldatasize, 0x04))\n      shr(0xe0, calldataload(0x00))\n      dup1\n      0x715018a6\n      gt\n      tag_18\n      jumpi\n      dup1\n      0x715018a6\n      eq\n      tag_10\n      jumpi\n      dup1\n      0x84f25a79\n      eq\n      tag_11\n      jumpi\n      dup1\n      0x8da5cb5b\n      eq\n      tag_12\n      jumpi\n      dup1\n      0xb17d79aa\n      eq\n      tag_13\n      jumpi\n      dup1\n      0xd92d37ba\n      eq\n      tag_14\n      jumpi\n      dup1\n      0xe87c14fc\n      eq\n      tag_15\n      jumpi\n      dup1\n      0xeb63a59e\n      eq\n      tag_16\n      jumpi\n      dup1\n      0xf2fde38b\n      eq\n      tag_17\n      jumpi\n      0x00\n      dup1\n      revert\n    tag_18:\n      dup1\n      0x0135ee58\n      eq\n      tag_3\n      jumpi\n      dup1\n      0x26647eaf\n      eq\n      tag_4\n      jumpi\n      dup1\n      0x350c2bc4\n      eq\n      tag_5\n      jumpi\n      dup1\n      0x421b2d8b\n      eq\n      tag_6\n      jumpi\n      dup1\n      0x47c0bdde\n      eq\n      tag_7\n      jumpi\n      dup1\n      0x5c60f226\n      eq\n      tag_8\n      jumpi\n      dup1\n      0x67719696\n      eq\n      tag_9\n      jumpi\n    tag_2:\n      0x00\n      dup1\n      revert\n        /* \"contracts/Classes/NormUserClass.sol\":575:600  uint public twapIndex = 0 */\n    tag_3:\n      tag_19\n      sload(0x01)\n      dup2\n      jump\n    tag_19:\n      mload(0x40)\n        /* \"#utility.yul\":160:185   */\n      swap1\n      dup2\n      mstore\n        /* \"#utility.yul\":148:150   */\n      0x20\n        /* \"#utility.yul\":133:151   */\n      add\n        /* \"contracts/Classes/NormUserClass.sol\":575:600  uint public twapIndex = 0 */\n    tag_21:\n      mload(0x40)\n      dup1\n      swap2\n      sub\n      swap1\n      return\n        /* \"contracts/Classes/NormUserClass.sol\":785:841  mapping(uint => TwapValueStruct) public TwapValueStorage */\n    tag_4:\n      tag_23\n      tag_24\n      calldatasize\n      0x04\n      tag_25\n      jump\t// in\n    tag_24:\n      mstore(0x20, 0x04)\n      0x00\n      swap1\n      dup2\n      mstore\n      0x40\n      swap1\n      keccak256\n      dup1\n      sload\n      0x01\n      swap1\n      swap2\n      add\n      sload\n      dup3\n      jump\n    tag_23:\n      0x40\n      dup1\n      mload\n        /* \"#utility.yul\":555:580   */\n      swap3\n      dup4\n      mstore\n        /* \"#utility.yul\":611:613   */\n      0x20\n        /* \"#utility.yul\":596:614   */\n      dup4\n      add\n        /* \"#utility.yul\":589:623   */\n      swap2\n      swap1\n      swap2\n      mstore\n        /* \"#utility.yul\":528:546   */\n      add\n        /* \"contracts/Classes/NormUserClass.sol\":785:841  mapping(uint => TwapValueStruct) public TwapValueStorage */\n      tag_21\n        /* \"#utility.yul\":381:629   */\n      jump\n        /* \"contracts/Classes/NormUserClass.sol\":958:978  bool public upOrDown */\n    tag_5:\n      sload(0x08)\n      tag_29\n      swap1\n      0xff\n      and\n      dup2\n      jump\n    tag_29:\n      mload(0x40)\n        /* \"#utility.yul\":799:813   */\n      swap1\n      iszero\n        /* \"#utility.yul\":792:814   */\n      iszero\n        /* \"#utility.yul\":774:815   */\n      dup2\n      mstore\n        /* \"#utility.yul\":762:764   */\n      0x20\n        /* \"#utility.yul\":747:765   */\n      add\n        /* \"contracts/Classes/NormUserClass.sol\":958:978  bool public upOrDown */\n      tag_21\n        /* \"#utility.yul\":634:821   */\n      jump\n        /* \"contracts/Classes/NormUserClass.sol\":2112:2375  function addUser(address user)external onlyRegistry returns(bool){... */\n    tag_6:\n      tag_29\n      tag_34\n      calldatasize\n      0x04\n      tag_35\n      jump\t// in\n    tag_34:\n      tag_36\n      jump\t// in\n        /* \"contracts/Classes/NormUserClass.sol\":894:922  address public classRegistry */\n    tag_7:\n      sload(0x06)\n      tag_38\n      swap1\n      sub(shl(0xa0, 0x01), 0x01)\n      and\n      dup2\n      jump\n    tag_38:\n      mload(0x40)\n      sub(shl(0xa0, 0x01), 0x01)\n        /* \"#utility.yul\":1281:1313   */\n      swap1\n      swap2\n      and\n        /* \"#utility.yul\":1263:1314   */\n      dup2\n      mstore\n        /* \"#utility.yul\":1251:1253   */\n      0x20\n        /* \"#utility.yul\":1236:1254   */\n      add\n        /* \"contracts/Classes/NormUserClass.sol\":894:922  address public classRegistry */\n      tag_21\n        /* \"#utility.yul\":1117:1320   */\n      jump\n        /* \"contracts/Classes/NormUserClass.sol\":2381:2658  function deleteUser(address user)external onlyRegistry returns(bool){... */\n    tag_8:\n      tag_29\n      tag_43\n      calldatasize\n      0x04\n      tag_35\n      jump\t// in\n    tag_43:\n      tag_44\n      jump\t// in\n        /* \"contracts/Classes/NormUserClass.sol\":1389:1475  function getClassBasis()public view returns(int256) {... */\n    tag_9:\n        /* \"contracts/Classes/NormUserClass.sol\":1458:1468  classBasis */\n      sload(0x07)\n        /* \"contracts/Classes/NormUserClass.sol\":1389:1475  function getClassBasis()public view returns(int256) {... */\n      jump(tag_19)\n        /* \"contracts/Ownable.sol\":1677:1822  function renounceOwnership() public virtual onlyOwner {... */\n    tag_10:\n      tag_50\n      tag_51\n      jump\t// in\n    tag_50:\n      stop\n        /* \"contracts/Classes/NormUserClass.sol\":1481:2105  function storeValueOfTx(uint value)external onlyRegistry{... */\n    tag_11:\n      tag_50\n      tag_53\n      calldatasize\n      0x04\n      tag_25\n      jump\t// in\n    tag_53:\n      tag_54\n      jump\t// in\n        /* \"contracts/Ownable.sol\":1054:1131  function owner() public view returns (address) {... */\n    tag_12:\n        /* \"contracts/Ownable.sol\":1092:1099  address */\n      0x00\n        /* \"contracts/Ownable.sol\":1118:1124  _owner */\n      sload\n      sub(shl(0xa0, 0x01), 0x01)\n      and\n        /* \"contracts/Ownable.sol\":1054:1131  function owner() public view returns (address) {... */\n      jump(tag_38)\n        /* \"contracts/Classes/NormUserClass.sol\":928:952  int256 public classBasis */\n    tag_13:\n      tag_19\n      sload(0x07)\n      dup2\n      jump\n        /* \"contracts/Classes/NormUserClass.sol\":1188:1299  function updateClassRegistry(address registry)external onlyOwner{... */\n    tag_14:\n      tag_50\n      tag_62\n      calldatasize\n      0x04\n      tag_35\n      jump\t// in\n    tag_62:\n      tag_63\n      jump\t// in\n        /* \"contracts/Classes/NormUserClass.sol\":1305:1383  function getUpDown()public view returns(bool) {... */\n    tag_15:\n        /* \"contracts/Classes/NormUserClass.sol\":1368:1376  upOrDown */\n      and(0xff, sload(0x08))\n        /* \"contracts/Classes/NormUserClass.sol\":1305:1383  function getUpDown()public view returns(bool) {... */\n      jump(tag_29)\n        /* \"contracts/Classes/NormUserClass.sol\":847:887  mapping(address => bool) public UserList */\n    tag_16:\n      tag_29\n      tag_68\n      calldatasize\n      0x04\n      tag_35\n      jump\t// in\n    tag_68:\n      mstore(0x20, 0x05)\n      0x00\n      swap1\n      dup2\n      mstore\n      0x40\n      swap1\n      keccak256\n      sload\n      0xff\n      and\n      dup2\n      jump\n        /* \"contracts/Ownable.sol\":1971:2211  function transferOwnership(address newOwner) public virtual onlyOwner {... */\n    tag_17:\n      tag_50\n      tag_72\n      calldatasize\n      0x04\n      tag_35\n      jump\t// in\n    tag_72:\n      tag_73\n      jump\t// in\n        /* \"contracts/Classes/NormUserClass.sol\":2112:2375  function addUser(address user)external onlyRegistry returns(bool){... */\n    tag_36:\n        /* \"contracts/Classes/NormUserClass.sol\":1127:1140  classRegistry */\n      sload(0x06)\n        /* \"contracts/Classes/NormUserClass.sol\":2172:2176  bool */\n      0x00\n      swap1\n      sub(shl(0xa0, 0x01), 0x01)\n        /* \"contracts/Classes/NormUserClass.sol\":1127:1140  classRegistry */\n      and\n        /* \"contracts/Classes/NormUserClass.sol\":1113:1123  msg.sender */\n      caller\n        /* \"contracts/Classes/NormUserClass.sol\":1113:1140  msg.sender == classRegistry */\n      eq\n        /* \"contracts/Classes/NormUserClass.sol\":1105:1167  require(msg.sender == classRegistry, \"Only registry can call\") */\n      tag_75\n      jumpi\n      mload(0x40)\n      shl(0xe5, 0x461bcd)\n      dup2\n      mstore\n      0x04\n      add\n      tag_76\n      swap1\n      tag_77\n      jump\t// in\n    tag_76:\n      mload(0x40)\n      dup1\n      swap2\n      sub\n      swap1\n      revert\n    tag_75:\n      sub(shl(0xa0, 0x01), 0x01)\n        /* \"contracts/Classes/NormUserClass.sol\":2203:2217  UserList[user] */\n      dup3\n      and\n      0x00\n      swap1\n      dup2\n      mstore\n        /* \"contracts/Classes/NormUserClass.sol\":2203:2211  UserList */\n      0x05\n        /* \"contracts/Classes/NormUserClass.sol\":2203:2217  UserList[user] */\n      0x20\n      mstore\n      0x40\n      swap1\n      keccak256\n      sload\n      0xff\n      and\n        /* \"contracts/Classes/NormUserClass.sol\":2203:2225  UserList[user] != true */\n      iszero\n      iszero\n        /* \"contracts/Classes/NormUserClass.sol\":2203:2217  UserList[user] */\n      0x01\n        /* \"contracts/Classes/NormUserClass.sol\":2203:2225  UserList[user] != true */\n      sub\n        /* \"contracts/Classes/NormUserClass.sol\":2195:2257  require(UserList[user] != true, \"User already added to class\") */\n      tag_79\n      jumpi\n      mload(0x40)\n      shl(0xe5, 0x461bcd)\n      dup2\n      mstore\n        /* \"#utility.yul\":2058:2060   */\n      0x20\n        /* \"contracts/Classes/NormUserClass.sol\":2195:2257  require(UserList[user] != true, \"User already added to class\") */\n      0x04\n      dup3\n      add\n        /* \"#utility.yul\":2040:2061   */\n      mstore\n        /* \"#utility.yul\":2097:2099   */\n      0x1b\n        /* \"#utility.yul\":2077:2095   */\n      0x24\n      dup3\n      add\n        /* \"#utility.yul\":2070:2100   */\n      mstore\n        /* \"#utility.yul\":2136:2165   */\n      0x5573657220616c726561647920616464656420746f20636c6173730000000000\n        /* \"#utility.yul\":2116:2134   */\n      0x44\n      dup3\n      add\n        /* \"#utility.yul\":2109:2166   */\n      mstore\n        /* \"#utility.yul\":2183:2201   */\n      0x64\n      add\n        /* \"contracts/Classes/NormUserClass.sol\":2195:2257  require(UserList[user] != true, \"User already added to class\") */\n      tag_76\n        /* \"#utility.yul\":1856:2207   */\n      jump\n        /* \"contracts/Classes/NormUserClass.sol\":2195:2257  require(UserList[user] != true, \"User already added to class\") */\n    tag_79:\n      sub(shl(0xa0, 0x01), 0x01)\n        /* \"contracts/Classes/NormUserClass.sol\":2275:2289  UserList[user] */\n      dup3\n      and\n      0x00\n      dup2\n      dup2\n      mstore\n        /* \"contracts/Classes/NormUserClass.sol\":2275:2283  UserList */\n      0x05\n        /* \"contracts/Classes/NormUserClass.sol\":2275:2289  UserList[user] */\n      0x20\n      mstore\n      0x40\n      dup1\n      dup3\n      keccak256\n        /* \"contracts/Classes/NormUserClass.sol\":2275:2296  UserList[user] = true */\n      dup1\n      sload\n      not(0xff)\n      and\n        /* \"contracts/Classes/NormUserClass.sol\":2292:2296  true */\n      0x01\n        /* \"contracts/Classes/NormUserClass.sol\":2275:2296  UserList[user] = true */\n      or\n      swap1\n      sstore\n        /* \"contracts/Classes/NormUserClass.sol\":2320:2335  userAdded(user) */\n      mload\n      0x6bda722b0c3246f6ab28656c881bcc965fcfa5819f23788ac625429a6fcae7a4\n      swap2\n        /* \"contracts/Classes/NormUserClass.sol\":2275:2289  UserList[user] */\n      swap1\n        /* \"contracts/Classes/NormUserClass.sol\":2320:2335  userAdded(user) */\n      log2\n      pop\n        /* \"contracts/Classes/NormUserClass.sol\":2360:2364  true */\n      0x01\n        /* \"contracts/Classes/NormUserClass.sol\":2112:2375  function addUser(address user)external onlyRegistry returns(bool){... */\n      swap2\n      swap1\n      pop\n      jump\t// out\n        /* \"contracts/Classes/NormUserClass.sol\":2381:2658  function deleteUser(address user)external onlyRegistry returns(bool){... */\n    tag_44:\n        /* \"contracts/Classes/NormUserClass.sol\":1127:1140  classRegistry */\n      sload(0x06)\n        /* \"contracts/Classes/NormUserClass.sol\":2444:2448  bool */\n      0x00\n      swap1\n      sub(shl(0xa0, 0x01), 0x01)\n        /* \"contracts/Classes/NormUserClass.sol\":1127:1140  classRegistry */\n      and\n        /* \"contracts/Classes/NormUserClass.sol\":1113:1123  msg.sender */\n      caller\n        /* \"contracts/Classes/NormUserClass.sol\":1113:1140  msg.sender == classRegistry */\n      eq\n        /* \"contracts/Classes/NormUserClass.sol\":1105:1167  require(msg.sender == classRegistry, \"Only registry can call\") */\n      tag_83\n      jumpi\n      mload(0x40)\n      shl(0xe5, 0x461bcd)\n      dup2\n      mstore\n      0x04\n      add\n      tag_76\n      swap1\n      tag_77\n      jump\t// in\n    tag_83:\n      sub(shl(0xa0, 0x01), 0x01)\n        /* \"contracts/Classes/NormUserClass.sol\":2475:2489  UserList[user] */\n      dup3\n      and\n      0x00\n      swap1\n      dup2\n      mstore\n        /* \"contracts/Classes/NormUserClass.sol\":2475:2483  UserList */\n      0x05\n        /* \"contracts/Classes/NormUserClass.sol\":2475:2489  UserList[user] */\n      0x20\n      mstore\n      0x40\n      swap1\n      keccak256\n      sload\n      0xff\n      and\n        /* \"contracts/Classes/NormUserClass.sol\":2475:2497  UserList[user] == true */\n      iszero\n      iszero\n        /* \"contracts/Classes/NormUserClass.sol\":2475:2489  UserList[user] */\n      0x01\n        /* \"contracts/Classes/NormUserClass.sol\":2475:2497  UserList[user] == true */\n      eq\n        /* \"contracts/Classes/NormUserClass.sol\":2467:2537  require(UserList[user] == true, \"Cant delete a user not in the class\") */\n      tag_86\n      jumpi\n      mload(0x40)\n      shl(0xe5, 0x461bcd)\n      dup2\n      mstore\n        /* \"#utility.yul\":2414:2416   */\n      0x20\n        /* \"contracts/Classes/NormUserClass.sol\":2467:2537  require(UserList[user] == true, \"Cant delete a user not in the class\") */\n      0x04\n      dup3\n      add\n        /* \"#utility.yul\":2396:2417   */\n      mstore\n        /* \"#utility.yul\":2453:2455   */\n      0x23\n        /* \"#utility.yul\":2433:2451   */\n      0x24\n      dup3\n      add\n        /* \"#utility.yul\":2426:2456   */\n      mstore\n        /* \"#utility.yul\":2492:2526   */\n      0x43616e742064656c65746520612075736572206e6f7420696e2074686520636c\n        /* \"#utility.yul\":2472:2490   */\n      0x44\n      dup3\n      add\n        /* \"#utility.yul\":2465:2527   */\n      mstore\n      shl(0xe8, 0x617373)\n        /* \"#utility.yul\":2543:2561   */\n      0x64\n      dup3\n      add\n        /* \"#utility.yul\":2536:2569   */\n      mstore\n        /* \"#utility.yul\":2586:2605   */\n      0x84\n      add\n        /* \"contracts/Classes/NormUserClass.sol\":2467:2537  require(UserList[user] == true, \"Cant delete a user not in the class\") */\n      tag_76\n        /* \"#utility.yul\":2212:2611   */\n      jump\n        /* \"contracts/Classes/NormUserClass.sol\":2467:2537  require(UserList[user] == true, \"Cant delete a user not in the class\") */\n    tag_86:\n      sub(shl(0xa0, 0x01), 0x01)\n        /* \"contracts/Classes/NormUserClass.sol\":2555:2569  UserList[user] */\n      dup3\n      and\n        /* \"contracts/Classes/NormUserClass.sol\":2572:2577  false */\n      0x00\n        /* \"contracts/Classes/NormUserClass.sol\":2555:2569  UserList[user] */\n      dup2\n      dup2\n      mstore\n        /* \"contracts/Classes/NormUserClass.sol\":2555:2563  UserList */\n      0x05\n        /* \"contracts/Classes/NormUserClass.sol\":2555:2569  UserList[user] */\n      0x20\n      mstore\n      0x40\n      dup1\n      dup3\n      keccak256\n        /* \"contracts/Classes/NormUserClass.sol\":2555:2577  UserList[user] = false */\n      dup1\n      sload\n      not(0xff)\n      and\n      swap1\n      sstore\n        /* \"contracts/Classes/NormUserClass.sol\":2601:2618  userDeleted(user) */\n      mload\n      0xc21b9cfcceff9f2d82efde7cd64d3fe7bfd7f14b9b0020ed54eb6ae56056e9ac\n      swap2\n        /* \"contracts/Classes/NormUserClass.sol\":2572:2577  false */\n      swap1\n        /* \"contracts/Classes/NormUserClass.sol\":2601:2618  userDeleted(user) */\n      log2\n      pop\n        /* \"contracts/Classes/NormUserClass.sol\":2643:2647  true */\n      0x01\n        /* \"contracts/Classes/NormUserClass.sol\":2381:2658  function deleteUser(address user)external onlyRegistry returns(bool){... */\n      swap2\n      swap1\n      pop\n      jump\t// out\n        /* \"contracts/Ownable.sol\":1677:1822  function renounceOwnership() public virtual onlyOwner {... */\n    tag_51:\n        /* \"contracts/Ownable.sol\":1258:1264  _owner */\n      and(sub(shl(0xa0, 0x01), 0x01), sload(0x00))\n        /* \"contracts/Context.sol\":735:745  msg.sender */\n      caller\n        /* \"contracts/Ownable.sol\":1258:1280  _owner == _msgSender() */\n      eq\n        /* \"contracts/Ownable.sol\":1250:1317  require(_owner == _msgSender(), \"Ownable: caller is not the owner\") */\n      tag_93\n      jumpi\n      mload(0x40)\n      shl(0xe5, 0x461bcd)\n      dup2\n      mstore\n      0x04\n      add\n      tag_76\n      swap1\n      tag_95\n      jump\t// in\n    tag_93:\n        /* \"contracts/Ownable.sol\":1783:1784  0 */\n      0x00\n        /* \"contracts/Ownable.sol\":1767:1773  _owner */\n      dup1\n      sload\n        /* \"contracts/Ownable.sol\":1746:1786  OwnershipTransferred(_owner, address(0)) */\n      mload(0x40)\n      sub(shl(0xa0, 0x01), 0x01)\n        /* \"contracts/Ownable.sol\":1767:1773  _owner */\n      swap1\n      swap2\n      and\n      swap1\n        /* \"contracts/Ownable.sol\":1746:1786  OwnershipTransferred(_owner, address(0)) */\n      0x8be0079c531659141344cd1fd0a4f28419497f9722a3daafe3b4186f6b6457e0\n      swap1\n        /* \"contracts/Ownable.sol\":1783:1784  0 */\n      dup4\n      swap1\n        /* \"contracts/Ownable.sol\":1746:1786  OwnershipTransferred(_owner, address(0)) */\n      log3\n        /* \"contracts/Ownable.sol\":1813:1814  0 */\n      0x00\n        /* \"contracts/Ownable.sol\":1796:1815  _owner = address(0) */\n      dup1\n      sload\n      not(sub(shl(0xa0, 0x01), 0x01))\n      and\n      swap1\n      sstore\n        /* \"contracts/Ownable.sol\":1677:1822  function renounceOwnership() public virtual onlyOwner {... */\n      jump\t// out\n        /* \"contracts/Classes/NormUserClass.sol\":1481:2105  function storeValueOfTx(uint value)external onlyRegistry{... */\n    tag_54:\n        /* \"contracts/Classes/NormUserClass.sol\":1127:1140  classRegistry */\n      and(sub(shl(0xa0, 0x01), 0x01), sload(0x06))\n        /* \"contracts/Classes/NormUserClass.sol\":1113:1123  msg.sender */\n      caller\n        /* \"contracts/Classes/NormUserClass.sol\":1113:1140  msg.sender == classRegistry */\n      eq\n        /* \"contracts/Classes/NormUserClass.sol\":1105:1167  require(msg.sender == classRegistry, \"Only registry can call\") */\n      tag_98\n      jumpi\n      mload(0x40)\n      shl(0xe5, 0x461bcd)\n      dup2\n      mstore\n      0x04\n      add\n      tag_76\n      swap1\n      tag_77\n      jump\t// in\n    tag_98:\n        /* \"contracts/Classes/NormUserClass.sol\":1566:1571  value */\n      dup1\n        /* \"contracts/Classes/NormUserClass.sol\":1548:1562  transactionSum */\n      0x02\n      0x00\n        /* \"contracts/Classes/NormUserClass.sol\":1548:1571  transactionSum += value */\n      dup3\n      dup3\n      sload\n      tag_101\n      swap2\n      swap1\n      tag_102\n      jump\t// in\n    tag_101:\n      swap1\n      swap2\n      sstore\n      pop\n      pop\n        /* \"contracts/Classes/NormUserClass.sol\":1667:1682  lastUpdateBlock */\n      sload(0x03)\n        /* \"contracts/Classes/NormUserClass.sol\":1667:1688  lastUpdateBlock + 100 */\n      tag_103\n      swap1\n        /* \"contracts/Classes/NormUserClass.sol\":1685:1688  100 */\n      0x64\n        /* \"contracts/Classes/NormUserClass.sol\":1667:1688  lastUpdateBlock + 100 */\n      tag_102\n      jump\t// in\n    tag_103:\n        /* \"contracts/Classes/NormUserClass.sol\":1651:1663  block.number */\n      number\n        /* \"contracts/Classes/NormUserClass.sol\":1651:1688  block.number >= lastUpdateBlock + 100 */\n      lt\n        /* \"contracts/Classes/NormUserClass.sol\":1647:2099  if (block.number >= lastUpdateBlock + 100) {... */\n      tag_104\n      jumpi\n        /* \"contracts/Classes/NormUserClass.sol\":1741:1860  TwapValueStruct({... */\n      0x40\n      dup1\n      mload\n      dup1\n      dup3\n      add\n      dup3\n      mstore\n        /* \"contracts/Classes/NormUserClass.sol\":1789:1801  block.number */\n      number\n        /* \"contracts/Classes/NormUserClass.sol\":1741:1860  TwapValueStruct({... */\n      dup2\n      mstore\n        /* \"contracts/Classes/NormUserClass.sol\":1831:1845  transactionSum */\n      sload(0x02)\n        /* \"contracts/Classes/NormUserClass.sol\":1741:1860  TwapValueStruct({... */\n      0x20\n      dup1\n      dup4\n      add\n      swap2\n      dup3\n      mstore\n        /* \"contracts/Classes/NormUserClass.sol\":1891:1900  twapIndex */\n      0x01\n      dup1\n      sload\n        /* \"contracts/Classes/NormUserClass.sol\":1702:1737  TwapValueStruct memory valueStorage */\n      0x00\n        /* \"contracts/Classes/NormUserClass.sol\":1874:1901  TwapValueStorage[twapIndex] */\n      swap1\n      dup2\n      mstore\n        /* \"contracts/Classes/NormUserClass.sol\":1874:1890  TwapValueStorage */\n      0x04\n        /* \"contracts/Classes/NormUserClass.sol\":1874:1901  TwapValueStorage[twapIndex] */\n      swap1\n      swap3\n      mstore\n      swap4\n      dup2\n      keccak256\n        /* \"contracts/Classes/NormUserClass.sol\":1874:1916  TwapValueStorage[twapIndex] = valueStorage */\n      dup4\n      mload\n      dup2\n      sstore\n      swap2\n      mload\n      swap2\n      dup5\n      add\n      swap2\n      swap1\n      swap2\n      sstore\n        /* \"contracts/Classes/NormUserClass.sol\":1930:1942  twapIndex ++ */\n      dup3\n      sload\n        /* \"contracts/Classes/NormUserClass.sol\":1741:1860  TwapValueStruct({... */\n      swap2\n      swap3\n        /* \"contracts/Classes/NormUserClass.sol\":1891:1900  twapIndex */\n      swap1\n        /* \"contracts/Classes/NormUserClass.sol\":1930:1942  twapIndex ++ */\n      tag_105\n      dup4\n      tag_106\n      jump\t// in\n    tag_105:\n      swap1\n      swap2\n      sstore\n      pop\n      pop\n        /* \"contracts/Classes/NormUserClass.sol\":1983:1997  transactionSum */\n      sload(0x02)\n        /* \"contracts/Classes/NormUserClass.sol\":1961:2012  TransactionSumUpdated(transactionSum, block.number) */\n      0x40\n      dup1\n      mload\n        /* \"#utility.yul\":555:580   */\n      swap2\n      dup3\n      mstore\n        /* \"contracts/Classes/NormUserClass.sol\":1999:2011  block.number */\n      number\n        /* \"#utility.yul\":611:613   */\n      0x20\n        /* \"#utility.yul\":596:614   */\n      dup4\n      add\n        /* \"#utility.yul\":589:623   */\n      mstore\n        /* \"contracts/Classes/NormUserClass.sol\":1961:2012  TransactionSumUpdated(transactionSum, block.number) */\n      0x1f26da3766cbd3669ac209aa41d36bf843d7661199d60b23dd28db7f288b20b8\n      swap2\n        /* \"#utility.yul\":528:546   */\n      add\n        /* \"contracts/Classes/NormUserClass.sol\":1961:2012  TransactionSumUpdated(transactionSum, block.number) */\n      mload(0x40)\n      dup1\n      swap2\n      sub\n      swap1\n      log1\n      pop\n        /* \"contracts/Classes/NormUserClass.sol\":2043:2044  0 */\n      0x00\n        /* \"contracts/Classes/NormUserClass.sol\":2026:2040  transactionSum */\n      0x02\n        /* \"contracts/Classes/NormUserClass.sol\":2026:2044  transactionSum = 0 */\n      sstore\n        /* \"contracts/Classes/NormUserClass.sol\":2076:2088  block.number */\n      number\n        /* \"contracts/Classes/NormUserClass.sol\":2058:2073  lastUpdateBlock */\n      0x03\n        /* \"contracts/Classes/NormUserClass.sol\":2058:2088  lastUpdateBlock = block.number */\n      sstore\n        /* \"contracts/Classes/NormUserClass.sol\":1647:2099  if (block.number >= lastUpdateBlock + 100) {... */\n    tag_104:\n        /* \"contracts/Classes/NormUserClass.sol\":1481:2105  function storeValueOfTx(uint value)external onlyRegistry{... */\n      pop\n      jump\t// out\n        /* \"contracts/Classes/NormUserClass.sol\":1188:1299  function updateClassRegistry(address registry)external onlyOwner{... */\n    tag_63:\n        /* \"contracts/Ownable.sol\":1258:1264  _owner */\n      and(sub(shl(0xa0, 0x01), 0x01), sload(0x00))\n        /* \"contracts/Context.sol\":735:745  msg.sender */\n      caller\n        /* \"contracts/Ownable.sol\":1258:1280  _owner == _msgSender() */\n      eq\n        /* \"contracts/Ownable.sol\":1250:1317  require(_owner == _msgSender(), \"Ownable: caller is not the owner\") */\n      tag_111\n      jumpi\n      mload(0x40)\n      shl(0xe5, 0x461bcd)\n      dup2\n      mstore\n      0x04\n      add\n      tag_76\n      swap1\n      tag_95\n      jump\t// in\n    tag_111:\n        /* \"contracts/Classes/NormUserClass.sol\":1262:1275  classRegistry */\n      0x06\n        /* \"contracts/Classes/NormUserClass.sol\":1262:1286  classRegistry = registry */\n      dup1\n      sload\n      not(sub(shl(0xa0, 0x01), 0x01))\n      and\n      sub(shl(0xa0, 0x01), 0x01)\n      swap3\n      swap1\n      swap3\n      and\n      swap2\n      swap1\n      swap2\n      or\n      swap1\n      sstore\n        /* \"contracts/Classes/NormUserClass.sol\":1188:1299  function updateClassRegistry(address registry)external onlyOwner{... */\n      jump\t// out\n        /* \"contracts/Ownable.sol\":1971:2211  function transferOwnership(address newOwner) public virtual onlyOwner {... */\n    tag_73:\n        /* \"contracts/Ownable.sol\":1258:1264  _owner */\n      and(sub(shl(0xa0, 0x01), 0x01), sload(0x00))\n        /* \"contracts/Context.sol\":735:745  msg.sender */\n      caller\n        /* \"contracts/Ownable.sol\":1258:1280  _owner == _msgSender() */\n      eq\n        /* \"contracts/Ownable.sol\":1250:1317  require(_owner == _msgSender(), \"Ownable: caller is not the owner\") */\n      tag_117\n      jumpi\n      mload(0x40)\n      shl(0xe5, 0x461bcd)\n      dup2\n      mstore\n      0x04\n      add\n      tag_76\n      swap1\n      tag_95\n      jump\t// in\n    tag_117:\n      sub(shl(0xa0, 0x01), 0x01)\n        /* \"contracts/Ownable.sol\":2059:2081  newOwner != address(0) */\n      dup2\n      and\n        /* \"contracts/Ownable.sol\":2051:2124  require(newOwner != address(0), \"Ownable: new owner is the zero address\") */\n      tag_120\n      jumpi\n      mload(0x40)\n      shl(0xe5, 0x461bcd)\n      dup2\n      mstore\n        /* \"#utility.yul\":3581:3583   */\n      0x20\n        /* \"contracts/Ownable.sol\":2051:2124  require(newOwner != address(0), \"Ownable: new owner is the zero address\") */\n      0x04\n      dup3\n      add\n        /* \"#utility.yul\":3563:3584   */\n      mstore\n        /* \"#utility.yul\":3620:3622   */\n      0x26\n        /* \"#utility.yul\":3600:3618   */\n      0x24\n      dup3\n      add\n        /* \"#utility.yul\":3593:3623   */\n      mstore\n        /* \"#utility.yul\":3659:3693   */\n      0x4f776e61626c653a206e6577206f776e657220697320746865207a65726f2061\n        /* \"#utility.yul\":3639:3657   */\n      0x44\n      dup3\n      add\n        /* \"#utility.yul\":3632:3694   */\n      mstore\n      shl(0xd0, 0x646472657373)\n        /* \"#utility.yul\":3710:3728   */\n      0x64\n      dup3\n      add\n        /* \"#utility.yul\":3703:3739   */\n      mstore\n        /* \"#utility.yul\":3756:3775   */\n      0x84\n      add\n        /* \"contracts/Ownable.sol\":2051:2124  require(newOwner != address(0), \"Ownable: new owner is the zero address\") */\n      tag_76\n        /* \"#utility.yul\":3379:3781   */\n      jump\n        /* \"contracts/Ownable.sol\":2051:2124  require(newOwner != address(0), \"Ownable: new owner is the zero address\") */\n    tag_120:\n        /* \"contracts/Ownable.sol\":2160:2166  _owner */\n      0x00\n      dup1\n      sload\n        /* \"contracts/Ownable.sol\":2139:2177  OwnershipTransferred(_owner, newOwner) */\n      mload(0x40)\n      sub(shl(0xa0, 0x01), 0x01)\n      dup1\n      dup6\n      and\n      swap4\n        /* \"contracts/Ownable.sol\":2160:2166  _owner */\n      swap3\n      and\n      swap2\n        /* \"contracts/Ownable.sol\":2139:2177  OwnershipTransferred(_owner, newOwner) */\n      0x8be0079c531659141344cd1fd0a4f28419497f9722a3daafe3b4186f6b6457e0\n      swap2\n      log3\n        /* \"contracts/Ownable.sol\":2187:2193  _owner */\n      0x00\n        /* \"contracts/Ownable.sol\":2187:2204  _owner = newOwner */\n      dup1\n      sload\n      not(sub(shl(0xa0, 0x01), 0x01))\n      and\n      sub(shl(0xa0, 0x01), 0x01)\n      swap3\n      swap1\n      swap3\n      and\n      swap2\n      swap1\n      swap2\n      or\n      swap1\n      sstore\n        /* \"contracts/Ownable.sol\":1971:2211  function transferOwnership(address newOwner) public virtual onlyOwner {... */\n      jump\t// out\n        /* \"#utility.yul\":196:376   */\n    tag_25:\n        /* \"#utility.yul\":255:261   */\n      0x00\n        /* \"#utility.yul\":308:310   */\n      0x20\n        /* \"#utility.yul\":296:305   */\n      dup3\n        /* \"#utility.yul\":287:294   */\n      dup5\n        /* \"#utility.yul\":283:306   */\n      sub\n        /* \"#utility.yul\":279:311   */\n      slt\n        /* \"#utility.yul\":276:328   */\n      iszero\n      tag_128\n      jumpi\n        /* \"#utility.yul\":324:325   */\n      0x00\n        /* \"#utility.yul\":321:322   */\n      dup1\n        /* \"#utility.yul\":314:326   */\n      revert\n        /* \"#utility.yul\":276:328   */\n    tag_128:\n      pop\n        /* \"#utility.yul\":347:370   */\n      calldataload\n      swap2\n        /* \"#utility.yul\":196:376   */\n      swap1\n      pop\n      jump\t// out\n        /* \"#utility.yul\":826:1112   */\n    tag_35:\n        /* \"#utility.yul\":885:891   */\n      0x00\n        /* \"#utility.yul\":938:940   */\n      0x20\n        /* \"#utility.yul\":926:935   */\n      dup3\n        /* \"#utility.yul\":917:924   */\n      dup5\n        /* \"#utility.yul\":913:936   */\n      sub\n        /* \"#utility.yul\":909:941   */\n      slt\n        /* \"#utility.yul\":906:958   */\n      iszero\n      tag_132\n      jumpi\n        /* \"#utility.yul\":954:955   */\n      0x00\n        /* \"#utility.yul\":951:952   */\n      dup1\n        /* \"#utility.yul\":944:956   */\n      revert\n        /* \"#utility.yul\":906:958   */\n    tag_132:\n        /* \"#utility.yul\":980:1003   */\n      dup2\n      calldataload\n      sub(shl(0xa0, 0x01), 0x01)\n        /* \"#utility.yul\":1032:1063   */\n      dup2\n      and\n        /* \"#utility.yul\":1022:1064   */\n      dup2\n      eq\n        /* \"#utility.yul\":1012:1082   */\n      tag_133\n      jumpi\n        /* \"#utility.yul\":1078:1079   */\n      0x00\n        /* \"#utility.yul\":1075:1076   */\n      dup1\n        /* \"#utility.yul\":1068:1080   */\n      revert\n        /* \"#utility.yul\":1012:1082   */\n    tag_133:\n        /* \"#utility.yul\":1101:1106   */\n      swap4\n        /* \"#utility.yul\":826:1112   */\n      swap3\n      pop\n      pop\n      pop\n      jump\t// out\n        /* \"#utility.yul\":1505:1851   */\n    tag_77:\n        /* \"#utility.yul\":1707:1709   */\n      0x20\n        /* \"#utility.yul\":1689:1710   */\n      dup1\n      dup3\n      mstore\n        /* \"#utility.yul\":1746:1748   */\n      0x16\n        /* \"#utility.yul\":1726:1744   */\n      swap1\n      dup3\n      add\n        /* \"#utility.yul\":1719:1749   */\n      mstore\n      shl(0x52, 0x13db9b1e481c9959da5cdd1c9e4818d85b8818d85b1b)\n        /* \"#utility.yul\":1780:1782   */\n      0x40\n        /* \"#utility.yul\":1765:1783   */\n      dup3\n      add\n        /* \"#utility.yul\":1758:1810   */\n      mstore\n        /* \"#utility.yul\":1842:1844   */\n      0x60\n        /* \"#utility.yul\":1827:1845   */\n      add\n      swap1\n        /* \"#utility.yul\":1505:1851   */\n      jump\t// out\n        /* \"#utility.yul\":2616:2972   */\n    tag_95:\n        /* \"#utility.yul\":2818:2820   */\n      0x20\n        /* \"#utility.yul\":2800:2821   */\n      dup1\n      dup3\n      mstore\n        /* \"#utility.yul\":2837:2855   */\n      dup2\n      dup2\n      add\n        /* \"#utility.yul\":2830:2860   */\n      mstore\n        /* \"#utility.yul\":2896:2930   */\n      0x4f776e61626c653a2063616c6c6572206973206e6f7420746865206f776e6572\n        /* \"#utility.yul\":2891:2893   */\n      0x40\n        /* \"#utility.yul\":2876:2894   */\n      dup3\n      add\n        /* \"#utility.yul\":2869:2931   */\n      mstore\n        /* \"#utility.yul\":2963:2965   */\n      0x60\n        /* \"#utility.yul\":2948:2966   */\n      add\n      swap1\n        /* \"#utility.yul\":2616:2972   */\n      jump\t// out\n        /* \"#utility.yul\":2977:3104   */\n    tag_124:\n        /* \"#utility.yul\":3038:3048   */\n      0x4e487b71\n        /* \"#utility.yul\":3033:3036   */\n      0xe0\n        /* \"#utility.yul\":3029:3049   */\n      shl\n        /* \"#utility.yul\":3026:3027   */\n      0x00\n        /* \"#utility.yul\":3019:3050   */\n      mstore\n        /* \"#utility.yul\":3069:3073   */\n      0x11\n        /* \"#utility.yul\":3066:3067   */\n      0x04\n        /* \"#utility.yul\":3059:3074   */\n      mstore\n        /* \"#utility.yul\":3093:3097   */\n      0x24\n        /* \"#utility.yul\":3090:3091   */\n      0x00\n        /* \"#utility.yul\":3083:3098   */\n      revert\n        /* \"#utility.yul\":3109:3234   */\n    tag_102:\n        /* \"#utility.yul\":3174:3183   */\n      dup1\n      dup3\n      add\n        /* \"#utility.yul\":3195:3205   */\n      dup1\n      dup3\n      gt\n        /* \"#utility.yul\":3192:3228   */\n      iszero\n      tag_143\n      jumpi\n        /* \"#utility.yul\":3208:3226   */\n      tag_143\n      tag_124\n      jump\t// in\n    tag_143:\n        /* \"#utility.yul\":3109:3234   */\n      swap3\n      swap2\n      pop\n      pop\n      jump\t// out\n        /* \"#utility.yul\":3239:3374   */\n    tag_106:\n        /* \"#utility.yul\":3278:3281   */\n      0x00\n        /* \"#utility.yul\":3299:3316   */\n      0x01\n      dup3\n      add\n        /* \"#utility.yul\":3296:3339   */\n      tag_146\n      jumpi\n        /* \"#utility.yul\":3319:3337   */\n      tag_146\n      tag_124\n      jump\t// in\n    tag_146:\n      pop\n        /* \"#utility.yul\":3366:3367   */\n      0x01\n        /* \"#utility.yul\":3355:3368   */\n      add\n      swap1\n        /* \"#utility.yul\":3239:3374   */\n      jump\t// out\n\n    auxdata: 0xa264697066735822122046a1615dc020b23958506c04136e9a0bdb88240966f6ac5da6b208e363ea05b264736f6c634300081a0033\n}\n",
				"bytecode": {
					"linkReferences": {},
					"object": "60806040525f6001553480156012575f80fd5b50604051610851380380610851833981016040819052602f916076565b5f80546001600160a01b031916339081178255604051909182917f8be0079c531659141344cd1fd0a4f28419497f9722a3daafe3b4186f6b6457e0908290a350600755608c565b5f602082840312156085575f80fd5b5051919050565b6107b8806100995f395ff3fe608060405234801561000f575f80fd5b50600436106100d2575f3560e01c8063715018a611610084578063715018a6146101a357806384f25a79146101ad5780638da5cb5b146101c0578063b17d79aa146101d0578063d92d37ba146101d9578063e87c14fc146101ec578063eb63a59e146101f7578063f2fde38b14610219575f80fd5b80630135ee58146100d657806326647eaf146100f2578063350c2bc41461012d578063421b2d8b1461014a57806347c0bdde1461015d5780635c60f22614610188578063677196961461019b575b5f80fd5b6100df60015481565b6040519081526020015b60405180910390f35b610118610100366004610694565b60046020525f90815260409020805460019091015482565b604080519283526020830191909152016100e9565b60085461013a9060ff1681565b60405190151581526020016100e9565b61013a6101583660046106ab565b61022c565b600654610170906001600160a01b031681565b6040516001600160a01b0390911681526020016100e9565b61013a6101963660046106ab565b61031d565b6007546100df565b6101ab61040e565b005b6101ab6101bb366004610694565b61047f565b5f546001600160a01b0316610170565b6100df60075481565b6101ab6101e73660046106ab565b610562565b60085460ff1661013a565b61013a6102053660046106ab565b60056020525f908152604090205460ff1681565b6101ab6102273660046106ab565b6105ad565b6006545f906001600160a01b031633146102615760405162461bcd60e51b8152600401610258906106d8565b60405180910390fd5b6001600160a01b0382165f9081526005602052604090205460ff1615156001036102cd5760405162461bcd60e51b815260206004820152601b60248201527f5573657220616c726561647920616464656420746f20636c61737300000000006044820152606401610258565b6001600160a01b0382165f81815260056020526040808220805460ff19166001179055517f6bda722b0c3246f6ab28656c881bcc965fcfa5819f23788ac625429a6fcae7a49190a2506001919050565b6006545f906001600160a01b031633146103495760405162461bcd60e51b8152600401610258906106d8565b6001600160a01b0382165f9081526005602052604090205460ff1615156001146103c15760405162461bcd60e51b815260206004820152602360248201527f43616e742064656c65746520612075736572206e6f7420696e2074686520636c60448201526261737360e81b6064820152608401610258565b6001600160a01b0382165f81815260056020526040808220805460ff19169055517fc21b9cfcceff9f2d82efde7cd64d3fe7bfd7f14b9b0020ed54eb6ae56056e9ac9190a2506001919050565b5f546001600160a01b031633146104375760405162461bcd60e51b815260040161025890610708565b5f80546040516001600160a01b03909116907f8be0079c531659141344cd1fd0a4f28419497f9722a3daafe3b4186f6b6457e0908390a35f80546001600160a01b0319169055565b6006546001600160a01b031633146104a95760405162461bcd60e51b8152600401610258906106d8565b8060025f8282546104ba9190610751565b90915550506003546104cd906064610751565b431061055f576040805180820182524381526002546020808301918252600180545f90815260049092529381208351815591519184019190915582549192906105158361076a565b9091555050600254604080519182524360208301527f1f26da3766cbd3669ac209aa41d36bf843d7661199d60b23dd28db7f288b20b8910160405180910390a1505f600255436003555b50565b5f546001600160a01b0316331461058b5760405162461bcd60e51b815260040161025890610708565b600680546001600160a01b0319166001600160a01b0392909216919091179055565b5f546001600160a01b031633146105d65760405162461bcd60e51b815260040161025890610708565b6001600160a01b03811661063b5760405162461bcd60e51b815260206004820152602660248201527f4f776e61626c653a206e6577206f776e657220697320746865207a65726f206160448201526564647265737360d01b6064820152608401610258565b5f80546040516001600160a01b03808516939216917f8be0079c531659141344cd1fd0a4f28419497f9722a3daafe3b4186f6b6457e091a35f80546001600160a01b0319166001600160a01b0392909216919091179055565b5f602082840312156106a4575f80fd5b5035919050565b5f602082840312156106bb575f80fd5b81356001600160a01b03811681146106d1575f80fd5b9392505050565b60208082526016908201527513db9b1e481c9959da5cdd1c9e4818d85b8818d85b1b60521b604082015260600190565b6020808252818101527f4f776e61626c653a2063616c6c6572206973206e6f7420746865206f776e6572604082015260600190565b634e487b7160e01b5f52601160045260245ffd5b808201808211156107645761076461073d565b92915050565b5f6001820161077b5761077b61073d565b506001019056fea264697066735822122046a1615dc020b23958506c04136e9a0bdb88240966f6ac5da6b208e363ea05b264736f6c634300081a0033",
					"opcodes": "PUSH1 0x80 PUSH1 0x40 MSTORE PUSH0 PUSH1 0x1 SSTORE CALLVALUE DUP1 ISZERO PUSH1 0x12 JUMPI PUSH0 DUP1 REVERT JUMPDEST POP PUSH1 0x40 MLOAD PUSH2 0x851 CODESIZE SUB DUP1 PUSH2 0x851 DUP4 CODECOPY DUP2 ADD PUSH1 0x40 DUP2 SWAP1 MSTORE PUSH1 0x2F SWAP2 PUSH1 0x76 JUMP JUMPDEST PUSH0 DUP1 SLOAD PUSH1 0x1 PUSH1 0x1 PUSH1 0xA0 SHL SUB NOT AND CALLER SWAP1 DUP2 OR DUP3 SSTORE PUSH1 0x40 MLOAD SWAP1 SWAP2 DUP3 SWAP2 PUSH32 0x8BE0079C531659141344CD1FD0A4F28419497F9722A3DAAFE3B4186F6B6457E0 SWAP1 DUP3 SWAP1 LOG3 POP PUSH1 0x7 SSTORE PUSH1 0x8C JUMP JUMPDEST PUSH0 PUSH1 0x20 DUP3 DUP5 SUB SLT ISZERO PUSH1 0x85 JUMPI PUSH0 DUP1 REVERT JUMPDEST POP MLOAD SWAP2 SWAP1 POP JUMP JUMPDEST PUSH2 0x7B8 DUP1 PUSH2 0x99 PUSH0 CODECOPY PUSH0 RETURN INVALID PUSH1 0x80 PUSH1 0x40 MSTORE CALLVALUE DUP1 ISZERO PUSH2 0xF JUMPI PUSH0 DUP1 REVERT JUMPDEST POP PUSH1 0x4 CALLDATASIZE LT PUSH2 0xD2 JUMPI PUSH0 CALLDATALOAD PUSH1 0xE0 SHR DUP1 PUSH4 0x715018A6 GT PUSH2 0x84 JUMPI DUP1 PUSH4 0x715018A6 EQ PUSH2 0x1A3 JUMPI DUP1 PUSH4 0x84F25A79 EQ PUSH2 0x1AD JUMPI DUP1 PUSH4 0x8DA5CB5B EQ PUSH2 0x1C0 JUMPI DUP1 PUSH4 0xB17D79AA EQ PUSH2 0x1D0 JUMPI DUP1 PUSH4 0xD92D37BA EQ PUSH2 0x1D9 JUMPI DUP1 PUSH4 0xE87C14FC EQ PUSH2 0x1EC JUMPI DUP1 PUSH4 0xEB63A59E EQ PUSH2 0x1F7 JUMPI DUP1 PUSH4 0xF2FDE38B EQ PUSH2 0x219 JUMPI PUSH0 DUP1 REVERT JUMPDEST DUP1 PUSH4 0x135EE58 EQ PUSH2 0xD6 JUMPI DUP1 PUSH4 0x26647EAF EQ PUSH2 0xF2 JUMPI DUP1 PUSH4 0x350C2BC4 EQ PUSH2 0x12D JUMPI DUP1 PUSH4 0x421B2D8B EQ PUSH2 0x14A JUMPI DUP1 PUSH4 0x47C0BDDE EQ PUSH2 0x15D JUMPI DUP1 PUSH4 0x5C60F226 EQ PUSH2 0x188 JUMPI DUP1 PUSH4 0x67719696 EQ PUSH2 0x19B JUMPI JUMPDEST PUSH0 DUP1 REVERT JUMPDEST PUSH2 0xDF PUSH1 0x1 SLOAD DUP2 JUMP JUMPDEST PUSH1 0x40 MLOAD SWAP1 DUP2 MSTORE PUSH1 0x20 ADD JUMPDEST PUSH1 0x40 MLOAD DUP1 SWAP2 SUB SWAP1 RETURN JUMPDEST PUSH2 0x118 PUSH2 0x100 CALLDATASIZE PUSH1 0x4 PUSH2 0x694 JUMP JUMPDEST PUSH1 0x4 PUSH1 0x20 MSTORE PUSH0 SWAP1 DUP2 MSTORE PUSH1 0x40 SWAP1 KECCAK256 DUP1 SLOAD PUSH1 0x1 SWAP1 SWAP2 ADD SLOAD DUP3 JUMP JUMPDEST PUSH1 0x40 DUP1 MLOAD SWAP3 DUP4 MSTORE PUSH1 0x20 DUP4 ADD SWAP2 SWAP1 SWAP2 MSTORE ADD PUSH2 0xE9 JUMP JUMPDEST PUSH1 0x8 SLOAD PUSH2 0x13A SWAP1 PUSH1 0xFF AND DUP2 JUMP JUMPDEST PUSH1 0x40 MLOAD SWAP1 ISZERO ISZERO DUP2 MSTORE PUSH1 0x20 ADD PUSH2 0xE9 JUMP JUMPDEST PUSH2 0x13A PUSH2 0x158 CALLDATASIZE PUSH1 0x4 PUSH2 0x6AB JUMP JUMPDEST PUSH2 0x22C JUMP JUMPDEST PUSH1 0x6 SLOAD PUSH2 0x170 SWAP1 PUSH1 0x1 PUSH1 0x1 PUSH1 0xA0 SHL SUB AND DUP2 JUMP JUMPDEST PUSH1 0x40 MLOAD PUSH1 0x1 PUSH1 0x1 PUSH1 0xA0 SHL SUB SWAP1 SWAP2 AND DUP2 MSTORE PUSH1 0x20 ADD PUSH2 0xE9 JUMP JUMPDEST PUSH2 0x13A PUSH2 0x196 CALLDATASIZE PUSH1 0x4 PUSH2 0x6AB JUMP JUMPDEST PUSH2 0x31D JUMP JUMPDEST PUSH1 0x7 SLOAD PUSH2 0xDF JUMP JUMPDEST PUSH2 0x1AB PUSH2 0x40E JUMP JUMPDEST STOP JUMPDEST PUSH2 0x1AB PUSH2 0x1BB CALLDATASIZE PUSH1 0x4 PUSH2 0x694 JUMP JUMPDEST PUSH2 0x47F JUMP JUMPDEST PUSH0 SLOAD PUSH1 0x1 PUSH1 0x1 PUSH1 0xA0 SHL SUB AND PUSH2 0x170 JUMP JUMPDEST PUSH2 0xDF PUSH1 0x7 SLOAD DUP2 JUMP JUMPDEST PUSH2 0x1AB PUSH2 0x1E7 CALLDATASIZE PUSH1 0x4 PUSH2 0x6AB JUMP JUMPDEST PUSH2 0x562 JUMP JUMPDEST PUSH1 0x8 SLOAD PUSH1 0xFF AND PUSH2 0x13A JUMP JUMPDEST PUSH2 0x13A PUSH2 0x205 CALLDATASIZE PUSH1 0x4 PUSH2 0x6AB JUMP JUMPDEST PUSH1 0x5 PUSH1 0x20 MSTORE PUSH0 SWAP1 DUP2 MSTORE PUSH1 0x40 SWAP1 KECCAK256 SLOAD PUSH1 0xFF AND DUP2 JUMP JUMPDEST PUSH2 0x1AB PUSH2 0x227 CALLDATASIZE PUSH1 0x4 PUSH2 0x6AB JUMP JUMPDEST PUSH2 0x5AD JUMP JUMPDEST PUSH1 0x6 SLOAD PUSH0 SWAP1 PUSH1 0x1 PUSH1 0x1 PUSH1 0xA0 SHL SUB AND CALLER EQ PUSH2 0x261 JUMPI PUSH1 0x40 MLOAD PUSH3 0x461BCD PUSH1 0xE5 SHL DUP2 MSTORE PUSH1 0x4 ADD PUSH2 0x258 SWAP1 PUSH2 0x6D8 JUMP JUMPDEST PUSH1 0x40 MLOAD DUP1 SWAP2 SUB SWAP1 REVERT JUMPDEST PUSH1 0x1 PUSH1 0x1 PUSH1 0xA0 SHL SUB DUP3 AND PUSH0 SWAP1 DUP2 MSTORE PUSH1 0x5 PUSH1 0x20 MSTORE PUSH1 0x40 SWAP1 KECCAK256 SLOAD PUSH1 0xFF AND ISZERO ISZERO PUSH1 0x1 SUB PUSH2 0x2CD JUMPI PUSH1 0x40 MLOAD PUSH3 0x461BCD PUSH1 0xE5 SHL DUP2 MSTORE PUSH1 0x20 PUSH1 0x4 DUP3 ADD MSTORE PUSH1 0x1B PUSH1 0x24 DUP3 ADD MSTORE PUSH32 0x5573657220616C726561647920616464656420746F20636C6173730000000000 PUSH1 0x44 DUP3 ADD MSTORE PUSH1 0x64 ADD PUSH2 0x258 JUMP JUMPDEST PUSH1 0x1 PUSH1 0x1 PUSH1 0xA0 SHL SUB DUP3 AND PUSH0 DUP2 DUP2 MSTORE PUSH1 0x5 PUSH1 0x20 MSTORE PUSH1 0x40 DUP1 DUP3 KECCAK256 DUP1 SLOAD PUSH1 0xFF NOT AND PUSH1 0x1 OR SWAP1 SSTORE MLOAD PUSH32 0x6BDA722B0C3246F6AB28656C881BCC965FCFA5819F23788AC625429A6FCAE7A4 SWAP2 SWAP1 LOG2 POP PUSH1 0x1 SWAP2 SWAP1 POP JUMP JUMPDEST PUSH1 0x6 SLOAD PUSH0 SWAP1 PUSH1 0x1 PUSH1 0x1 PUSH1 0xA0 SHL SUB AND CALLER EQ PUSH2 0x349 JUMPI PUSH1 0x40 MLOAD PUSH3 0x461BCD PUSH1 0xE5 SHL DUP2 MSTORE PUSH1 0x4 ADD PUSH2 0x258 SWAP1 PUSH2 0x6D8 JUMP JUMPDEST PUSH1 0x1 PUSH1 0x1 PUSH1 0xA0 SHL SUB DUP3 AND PUSH0 SWAP1 DUP2 MSTORE PUSH1 0x5 PUSH1 0x20 MSTORE PUSH1 0x40 SWAP1 KECCAK256 SLOAD PUSH1 0xFF AND ISZERO ISZERO PUSH1 0x1 EQ PUSH2 0x3C1 JUMPI PUSH1 0x40 MLOAD PUSH3 0x461BCD PUSH1 0xE5 SHL DUP2 MSTORE PUSH1 0x20 PUSH1 0x4 DUP3 ADD MSTORE PUSH1 0x23 PUSH1 0x24 DUP3 ADD MSTORE PUSH32 0x43616E742064656C65746520612075736572206E6F7420696E2074686520636C PUSH1 0x44 DUP3 ADD MSTORE PUSH3 0x617373 PUSH1 0xE8 SHL PUSH1 0x64 DUP3 ADD MSTORE PUSH1 0x84 ADD PUSH2 0x258 JUMP JUMPDEST PUSH1 0x1 PUSH1 0x1 PUSH1 0xA0 SHL SUB DUP3 AND PUSH0 DUP2 DUP2 MSTORE PUSH1 0x5 PUSH1 0x20 MSTORE PUSH1 0x40 DUP1 DUP3 KECCAK256 DUP1 SLOAD PUSH1 0xFF NOT AND SWAP1 SSTORE MLOAD PUSH32 0xC21B9CFCCEFF9F2D82EFDE7CD64D3FE7BFD7F14B9B0020ED54EB6AE56056E9AC SWAP2 SWAP1 LOG2 POP PUSH1 0x1 SWAP2 SWAP1 POP JUMP JUMPDEST PUSH0 SLOAD PUSH1 0x1 PUSH1 0x1 PUSH1 0xA0 SHL SUB AND CALLER EQ PUSH2 0x437 JUMPI PUSH1 0x40 MLOAD PUSH3 0x461BCD PUSH1 0xE5 SHL DUP2 MSTORE PUSH1 0x4 ADD PUSH2 0x258 SWAP1 PUSH2 0x708 JUMP JUMPDEST PUSH0 DUP1 SLOAD PUSH1 0x40 MLOAD PUSH1 0x1 PUSH1 0x1 PUSH1 0xA0 SHL SUB SWAP1 SWAP2 AND SWAP1 PUSH32 0x8BE0079C531659141344CD1FD0A4F28419497F9722A3DAAFE3B4186F6B6457E0 SWAP1 DUP4 SWAP1 LOG3 PUSH0 DUP1 SLOAD PUSH1 0x1 PUSH1 0x1 PUSH1 0xA0 SHL SUB NOT AND SWAP1 SSTORE JUMP JUMPDEST PUSH1 0x6 SLOAD PUSH1 0x1 PUSH1 0x1 PUSH1 0xA0 SHL SUB AND CALLER EQ PUSH2 0x4A9 JUMPI PUSH1 0x40 MLOAD PUSH3 0x461BCD PUSH1 0xE5 SHL DUP2 MSTORE PUSH1 0x4 ADD PUSH2 0x258 SWAP1 PUSH2 0x6D8 JUMP JUMPDEST DUP1 PUSH1 0x2 PUSH0 DUP3 DUP3 SLOAD PUSH2 0x4BA SWAP2 SWAP1 PUSH2 0x751 JUMP JUMPDEST SWAP1 SWAP2 SSTORE POP POP PUSH1 0x3 SLOAD PUSH2 0x4CD SWAP1 PUSH1 0x64 PUSH2 0x751 JUMP JUMPDEST NUMBER LT PUSH2 0x55F JUMPI PUSH1 0x40 DUP1 MLOAD DUP1 DUP3 ADD DUP3 MSTORE NUMBER DUP2 MSTORE PUSH1 0x2 SLOAD PUSH1 0x20 DUP1 DUP4 ADD SWAP2 DUP3 MSTORE PUSH1 0x1 DUP1 SLOAD PUSH0 SWAP1 DUP2 MSTORE PUSH1 0x4 SWAP1 SWAP3 MSTORE SWAP4 DUP2 KECCAK256 DUP4 MLOAD DUP2 SSTORE SWAP2 MLOAD SWAP2 DUP5 ADD SWAP2 SWAP1 SWAP2 SSTORE DUP3 SLOAD SWAP2 SWAP3 SWAP1 PUSH2 0x515 DUP4 PUSH2 0x76A JUMP JUMPDEST SWAP1 SWAP2 SSTORE POP POP PUSH1 0x2 SLOAD PUSH1 0x40 DUP1 MLOAD SWAP2 DUP3 MSTORE NUMBER PUSH1 0x20 DUP4 ADD MSTORE PUSH32 0x1F26DA3766CBD3669AC209AA41D36BF843D7661199D60B23DD28DB7F288B20B8 SWAP2 ADD PUSH1 0x40 MLOAD DUP1 SWAP2 SUB SWAP1 LOG1 POP PUSH0 PUSH1 0x2 SSTORE NUMBER PUSH1 0x3 SSTORE JUMPDEST POP JUMP JUMPDEST PUSH0 SLOAD PUSH1 0x1 PUSH1 0x1 PUSH1 0xA0 SHL SUB AND CALLER EQ PUSH2 0x58B JUMPI PUSH1 0x40 MLOAD PUSH3 0x461BCD PUSH1 0xE5 SHL DUP2 MSTORE PUSH1 0x4 ADD PUSH2 0x258 SWAP1 PUSH2 0x708 JUMP JUMPDEST PUSH1 0x6 DUP1 SLOAD PUSH1 0x1 PUSH1 0x1 PUSH1 0xA0 SHL SUB NOT AND PUSH1 0x1 PUSH1 0x1 PUSH1 0xA0 SHL SUB SWAP3 SWAP1 SWAP3 AND SWAP2 SWAP1 SWAP2 OR SWAP1 SSTORE JUMP JUMPDEST PUSH0 SLOAD PUSH1 0x1 PUSH1 0x1 PUSH1 0xA0 SHL SUB AND CALLER EQ PUSH2 0x5D6 JUMPI PUSH1 0x40 MLOAD PUSH3 0x461BCD PUSH1 0xE5 SHL DUP2 MSTORE PUSH1 0x4 ADD PUSH2 0x258 SWAP1 PUSH2 0x708 JUMP JUMPDEST PUSH1 0x1 PUSH1 0x1 PUSH1 0xA0 SHL SUB DUP2 AND PUSH2 0x63B JUMPI PUSH1 0x40 MLOAD PUSH3 0x461BCD PUSH1 0xE5 SHL DUP2 MSTORE PUSH1 0x20 PUSH1 0x4 DUP3 ADD MSTORE PUSH1 0x26 PUSH1 0x24 DUP3 ADD MSTORE PUSH32 0x4F776E61626C653A206E6577206F776E657220697320746865207A65726F2061 PUSH1 0x44 DUP3 ADD MSTORE PUSH6 0x646472657373 PUSH1 0xD0 SHL PUSH1 0x64 DUP3 ADD MSTORE PUSH1 0x84 ADD PUSH2 0x258 JUMP JUMPDEST PUSH0 DUP1 SLOAD PUSH1 0x40 MLOAD PUSH1 0x1 PUSH1 0x1 PUSH1 0xA0 SHL SUB DUP1 DUP6 AND SWAP4 SWAP3 AND SWAP2 PUSH32 0x8BE0079C531659141344CD1FD0A4F28419497F9722A3DAAFE3B4186F6B6457E0 SWAP2 LOG3 PUSH0 DUP1 SLOAD PUSH1 0x1 PUSH1 0x1 PUSH1 0xA0 SHL SUB NOT AND PUSH1 0x1 PUSH1 0x1 PUSH1 0xA0 SHL SUB SWAP3 SWAP1 SWAP3 AND SWAP2 SWAP1 SWAP2 OR SWAP1 SSTORE JUMP JUMPDEST PUSH0 PUSH1 0x20 DUP3 DUP5 SUB SLT ISZERO PUSH2 0x6A4 JUMPI PUSH0 DUP1 REVERT JUMPDEST POP CALLDATALOAD SWAP2 SWAP1 POP JUMP JUMPDEST PUSH0 PUSH1 0x20 DUP3 DUP5 SUB SLT ISZERO PUSH2 0x6BB JUMPI PUSH0 DUP1 REVERT JUMPDEST DUP2 CALLDATALOAD PUSH1 0x1 PUSH1 0x1 PUSH1 0xA0 SHL SUB DUP2 AND DUP2 EQ PUSH2 0x6D1 JUMPI PUSH0 DUP1 REVERT JUMPDEST SWAP4 SWAP3 POP POP POP JUMP JUMPDEST PUSH1 0x20 DUP1 DUP3 MSTORE PUSH1 0x16 SWAP1 DUP3 ADD MSTORE PUSH22 0x13DB9B1E481C9959DA5CDD1C9E4818D85B8818D85B1B PUSH1 0x52 SHL PUSH1 0x40 DUP3 ADD MSTORE PUSH1 0x60 ADD SWAP1 JUMP JUMPDEST PUSH1 0x20 DUP1 DUP3 MSTORE DUP2 DUP2 ADD MSTORE PUSH32 0x4F776E61626C653A2063616C6C6572206973206E6F7420746865206F776E6572 PUSH1 0x40 DUP3 ADD MSTORE PUSH1 0x60 ADD SWAP1 JUMP JUMPDEST PUSH4 0x4E487B71 PUSH1 0xE0 SHL PUSH0 MSTORE PUSH1 0x11 PUSH1 0x4 MSTORE PUSH1 0x24 PUSH0 REVERT JUMPDEST DUP1 DUP3 ADD DUP1 DUP3 GT ISZERO PUSH2 0x764 JUMPI PUSH2 0x764 PUSH2 0x73D JUMP JUMPDEST SWAP3 SWAP2 POP POP JUMP JUMPDEST PUSH0 PUSH1 0x1 DUP3 ADD PUSH2 0x77B JUMPI PUSH2 0x77B PUSH2 0x73D JUMP JUMPDEST POP PUSH1 0x1 ADD SWAP1 JUMP INVALID LOG2 PUSH5 0x6970667358 0x22 SLT KECCAK256 CHAINID LOG1 PUSH2 0x5DC0 KECCAK256 0xB2 CODECOPY PC POP PUSH13 0x4136E9A0BDB88240966F6AC5D 0xA6 0xB2 ADDMOD 0xE3 PUSH4 0xEA05B264 PUSH20 0x6F6C634300081A00330000000000000000000000 "
				},
				"gasEstimates": {
					"creation": {
						"codeDepositCost": "395200",
						"executionCost": "infinite",
						"totalCost": "infinite"
					},
					"external": {
						"TwapValueStorage(uint256)": "4597",
						"UserList(address)": "2625",
						"addUser(address)": "30224",
						"classBasis()": "2349",
						"classRegistry()": "2425",
						"deleteUser(address)": "30262",
						"getClassBasis()": "2413",
						"getUpDown()": "2413",
						"owner()": "2373",
						"renounceOwnership()": "30161",
						"storeValueOfTx(uint256)": "infinite",
						"transferOwnership(address)": "30514",
						"twapIndex()": "2284",
						"upOrDown()": "2354",
						"updateClassRegistry(address)": "26761"
					}
				},
				"methodIdentifiers": {
					"TwapValueStorage(uint256)": "26647eaf",
					"UserList(address)": "eb63a59e",
					"addUser(address)": "421b2d8b",
					"classBasis()": "b17d79aa",
					"classRegistry()": "47c0bdde",
					"deleteUser(address)": "5c60f226",
					"getClassBasis()": "67719696",
					"getUpDown()": "e87c14fc",
					"owner()": "8da5cb5b",
					"renounceOwnership()": "715018a6",
					"storeValueOfTx(uint256)": "84f25a79",
					"transferOwnership(address)": "f2fde38b",
					"twapIndex()": "0135ee58",
					"upOrDown()": "350c2bc4",
					"updateClassRegistry(address)": "d92d37ba"
				}
			},
			"storageLayout": {
				"storage": [
					{
						"astId": 259,
						"contract": "contracts/Classes/NormUserClass.sol:NormUserClass",
						"label": "_owner",
						"offset": 0,
						"slot": "0",
						"type": "t_address"
					},
					{
						"astId": 34,
						"contract": "contracts/Classes/NormUserClass.sol:NormUserClass",
						"label": "twapIndex",
						"offset": 0,
						"slot": "1",
						"type": "t_uint256"
					},
					{
						"astId": 37,
						"contract": "contracts/Classes/NormUserClass.sol:NormUserClass",
						"label": "transactionSum",
						"offset": 0,
						"slot": "2",
						"type": "t_uint256"
					},
					{
						"astId": 40,
						"contract": "contracts/Classes/NormUserClass.sol:NormUserClass",
						"label": "lastUpdateBlock",
						"offset": 0,
						"slot": "3",
						"type": "t_uint256"
					},
					{
						"astId": 45,
						"contract": "contracts/Classes/NormUserClass.sol:NormUserClass",
						"label": "TwapValueStorage",
						"offset": 0,
						"slot": "4",
						"type": "t_mapping(t_uint256,t_struct(TwapValueStruct)31_storage)"
					},
					{
						"astId": 49,
						"contract": "contracts/Classes/NormUserClass.sol:NormUserClass",
						"label": "UserList",
						"offset": 0,
						"slot": "5",
						"type": "t_mapping(t_address,t_bool)"
					},
					{
						"astId": 51,
						"contract": "contracts/Classes/NormUserClass.sol:NormUserClass",
						"label": "classRegistry",
						"offset": 0,
						"slot": "6",
						"type": "t_address"
					},
					{
						"astId": 53,
						"contract": "contracts/Classes/NormUserClass.sol:NormUserClass",
						"label": "classBasis",
						"offset": 0,
						"slot": "7",
						"type": "t_int256"
					},
					{
						"astId": 55,
						"contract": "contracts/Classes/NormUserClass.sol:NormUserClass",
						"label": "upOrDown",
						"offset": 0,
						"slot": "8",
						"type": "t_bool"
					}
				],
				"types": {
					"t_address": {
						"encoding": "inplace",
						"label": "address",
						"numberOfBytes": "20"
					},
					"t_bool": {
						"encoding": "inplace",
						"label": "bool",
						"numberOfBytes": "1"
					},
					"t_int256": {
						"encoding": "inplace",
						"label": "int256",
						"numberOfBytes": "32"
					},
					"t_mapping(t_address,t_bool)": {
						"encoding": "mapping",
						"key": "t_address",
						"label": "mapping(address => bool)",
						"numberOfBytes": "32",
						"value": "t_bool"
					},
					"t_mapping(t_uint256,t_struct(TwapValueStruct)31_storage)": {
						"encoding": "mapping",
						"key": "t_uint256",
						"label": "mapping(uint256 => struct NormUserClass.TwapValueStruct)",
						"numberOfBytes": "32",
						"value": "t_struct(TwapValueStruct)31_storage"
					},
					"t_struct(TwapValueStruct)31_storage": {
						"encoding": "inplace",
						"label": "struct NormUserClass.TwapValueStruct",
						"members": [
							{
								"astId": 28,
								"contract": "contracts/Classes/NormUserClass.sol:NormUserClass",
								"label": "currentBlock",
								"offset": 0,
								"slot": "0",
								"type": "t_uint256"
							},
							{
								"astId": 30,
								"contract": "contracts/Classes/NormUserClass.sol:NormUserClass",
								"label": "totalValue",
								"offset": 0,
								"slot": "1",
								"type": "t_uint256"
							}
						],
						"numberOfBytes": "64"
					},
					"t_uint256": {
						"encoding": "inplace",
						"label": "uint256",
						"numberOfBytes": "32"
					}
				}
			},
			"userdoc": {
				"kind": "user",
				"methods": {},
				"version": 1
			}
		}
	}
}