{
	"data": {
		"bytecode": {
			"linkReferences": {},
			"object": "610703610034600b8282823980515f1a607314602857634e487b7160e01b5f525f60045260245ffd5b305f52607381538281f3fe7300000000000000000000000000000000000000003014608060405260043610610076575f3560e01c80633148f14f1461007a57806353df6e35146100ac5780636592f007146100e35780636e27811b146100f657806398fdcdd614610109578063d3dc2a0f14610146578063fa6bcfec14610154575b5f80fd5b818015610085575f80fd5b50610099610094366004610534565b610167565b6040519081526020015b60405180910390f35b8180156100b7575f80fd5b506100cb6100c6366004610578565b6101af565b6040516001600160401b0390911681526020016100a3565b6100996100f13660046105ce565b6101e7565b6100996101043660046105f6565b61024c565b61011c610117366004610578565b6102ad565b604080516001600160401b03948516815292841660208401529216918101919091526060016100a3565b6100cb6603632c8eb5af3b81565b610099610162366004610647565b6104d7565b5f60405160208152602080820152602060408201528460608201528360808201528260a082015260c05160208160c0845f60055f19f16101a5575f80fd5b5195945050505050565b5f6001600160401b0380851690848116908481169084906101d1858585610167565b6101db919061068c565b98975050505050505050565b5f82816101f5600f8561069f565b90505b825f03610244576603632c8eb5af3b6001600160a01b038083168482160a16066001600160a01b031692506002816001600160a01b03168161023c5761023c610678565b0490506101f8565b505092915050565b5f80610259600f8661069f565b90505b815f036102a4576603632c8eb5af3b61027585856104d7565b61027f88886104d7565b0a8161028d5761028d610678565b06915060026001600160a01b03821604905061025c565b50949350505050565b5f805f846001600160401b0316866001600160401b03161480156102e25750836001600160401b0316856001600160401b0316145b156102f457505f9150819050846104ce565b846001600160401b0316866001600160401b03160361033b575f86876001600160401b0316866001600160401b03161161032e5787610330565b855b9250925092506104ce565b836001600160401b0316866001600160401b031603610381575f86876001600160401b0316876001600160401b0316116103755787610330565b869250925092506104ce565b836001600160401b0316856001600160401b0316036103c7575f85866001600160401b0316886001600160401b0316116103bb5786610330565b879250925092506104ce565b846001600160401b0316866001600160401b0316111580156103fb5750836001600160401b0316866001600160401b031611155b1561043357836001600160401b0316856001600160401b0316116104265750849150839050826104ce565b50849150829050836104ce565b856001600160401b0316856001600160401b0316111580156104675750836001600160401b0316856001600160401b031611155b1561049f57836001600160401b0316866001600160401b0316116104925750839150849050826104ce565b50839150829050846104ce565b846001600160401b0316866001600160401b0316116104c55750829150849050836104ce565b50829150839050845b93509350939050565b5f82816104e5600f8561069f565b90505b825f03610244576603632c8eb5af3b6001600160a01b038083168482160a16066001600160a01b031692506002816001600160a01b03168161052c5761052c610678565b0490506104e8565b5f805f60608486031215610546575f80fd5b505081359360208301359350604090920135919050565b80356001600160401b0381168114610573575f80fd5b919050565b5f805f6060848603121561058a575f80fd5b6105938461055d565b92506105a16020850161055d565b91506105af6040850161055d565b90509250925092565b80356001600160a01b0381168114610573575f80fd5b5f80604083850312156105df575f80fd5b6105e8836105b8565b946020939093013593505050565b5f805f8060808587031215610609575f80fd5b610612856105b8565b9350610620602086016105b8565b925061062e604086016105b8565b915061063c606086016105b8565b905092959194509250565b5f8060408385031215610658575f80fd5b610661836105b8565b915061066f602084016105b8565b90509250929050565b634e487b7160e01b5f52601260045260245ffd5b5f8261069a5761069a610678565b500690565b5f6001600160a01b038316806106b7576106b7610678565b6001600160a01b0392909216919091049291505056fea26469706673582212200bb49fe34d71c742fb1bf17054219323be48bd312d185c66905e1415055b3ca664736f6c634300081a0033",
			"opcodes": "PUSH2 0x703 PUSH2 0x34 PUSH1 0xB DUP3 DUP3 DUP3 CODECOPY DUP1 MLOAD PUSH0 BYTE PUSH1 0x73 EQ PUSH1 0x28 JUMPI PUSH4 0x4E487B71 PUSH1 0xE0 SHL PUSH0 MSTORE PUSH0 PUSH1 0x4 MSTORE PUSH1 0x24 PUSH0 REVERT JUMPDEST ADDRESS PUSH0 MSTORE PUSH1 0x73 DUP2 MSTORE8 DUP3 DUP2 RETURN INVALID PUSH20 0x0 ADDRESS EQ PUSH1 0x80 PUSH1 0x40 MSTORE PUSH1 0x4 CALLDATASIZE LT PUSH2 0x76 JUMPI PUSH0 CALLDATALOAD PUSH1 0xE0 SHR DUP1 PUSH4 0x3148F14F EQ PUSH2 0x7A JUMPI DUP1 PUSH4 0x53DF6E35 EQ PUSH2 0xAC JUMPI DUP1 PUSH4 0x6592F007 EQ PUSH2 0xE3 JUMPI DUP1 PUSH4 0x6E27811B EQ PUSH2 0xF6 JUMPI DUP1 PUSH4 0x98FDCDD6 EQ PUSH2 0x109 JUMPI DUP1 PUSH4 0xD3DC2A0F EQ PUSH2 0x146 JUMPI DUP1 PUSH4 0xFA6BCFEC EQ PUSH2 0x154 JUMPI JUMPDEST PUSH0 DUP1 REVERT JUMPDEST DUP2 DUP1 ISZERO PUSH2 0x85 JUMPI PUSH0 DUP1 REVERT JUMPDEST POP PUSH2 0x99 PUSH2 0x94 CALLDATASIZE PUSH1 0x4 PUSH2 0x534 JUMP JUMPDEST PUSH2 0x167 JUMP JUMPDEST PUSH1 0x40 MLOAD SWAP1 DUP2 MSTORE PUSH1 0x20 ADD JUMPDEST PUSH1 0x40 MLOAD DUP1 SWAP2 SUB SWAP1 RETURN JUMPDEST DUP2 DUP1 ISZERO PUSH2 0xB7 JUMPI PUSH0 DUP1 REVERT JUMPDEST POP PUSH2 0xCB PUSH2 0xC6 CALLDATASIZE PUSH1 0x4 PUSH2 0x578 JUMP JUMPDEST PUSH2 0x1AF JUMP JUMPDEST PUSH1 0x40 MLOAD PUSH1 0x1 PUSH1 0x1 PUSH1 0x40 SHL SUB SWAP1 SWAP2 AND DUP2 MSTORE PUSH1 0x20 ADD PUSH2 0xA3 JUMP JUMPDEST PUSH2 0x99 PUSH2 0xF1 CALLDATASIZE PUSH1 0x4 PUSH2 0x5CE JUMP JUMPDEST PUSH2 0x1E7 JUMP JUMPDEST PUSH2 0x99 PUSH2 0x104 CALLDATASIZE PUSH1 0x4 PUSH2 0x5F6 JUMP JUMPDEST PUSH2 0x24C JUMP JUMPDEST PUSH2 0x11C PUSH2 0x117 CALLDATASIZE PUSH1 0x4 PUSH2 0x578 JUMP JUMPDEST PUSH2 0x2AD JUMP JUMPDEST PUSH1 0x40 DUP1 MLOAD PUSH1 0x1 PUSH1 0x1 PUSH1 0x40 SHL SUB SWAP5 DUP6 AND DUP2 MSTORE SWAP3 DUP5 AND PUSH1 0x20 DUP5 ADD MSTORE SWAP3 AND SWAP2 DUP2 ADD SWAP2 SWAP1 SWAP2 MSTORE PUSH1 0x60 ADD PUSH2 0xA3 JUMP JUMPDEST PUSH2 0xCB PUSH7 0x3632C8EB5AF3B DUP2 JUMP JUMPDEST PUSH2 0x99 PUSH2 0x162 CALLDATASIZE PUSH1 0x4 PUSH2 0x647 JUMP JUMPDEST PUSH2 0x4D7 JUMP JUMPDEST PUSH0 PUSH1 0x40 MLOAD PUSH1 0x20 DUP2 MSTORE PUSH1 0x20 DUP1 DUP3 ADD MSTORE PUSH1 0x20 PUSH1 0x40 DUP3 ADD MSTORE DUP5 PUSH1 0x60 DUP3 ADD MSTORE DUP4 PUSH1 0x80 DUP3 ADD MSTORE DUP3 PUSH1 0xA0 DUP3 ADD MSTORE PUSH1 0xC0 MLOAD PUSH1 0x20 DUP2 PUSH1 0xC0 DUP5 PUSH0 PUSH1 0x5 PUSH0 NOT CALL PUSH2 0x1A5 JUMPI PUSH0 DUP1 REVERT JUMPDEST MLOAD SWAP6 SWAP5 POP POP POP POP POP JUMP JUMPDEST PUSH0 PUSH1 0x1 PUSH1 0x1 PUSH1 0x40 SHL SUB DUP1 DUP6 AND SWAP1 DUP5 DUP2 AND SWAP1 DUP5 DUP2 AND SWAP1 DUP5 SWAP1 PUSH2 0x1D1 DUP6 DUP6 DUP6 PUSH2 0x167 JUMP JUMPDEST PUSH2 0x1DB SWAP2 SWAP1 PUSH2 0x68C JUMP JUMPDEST SWAP9 SWAP8 POP POP POP POP POP POP POP POP JUMP JUMPDEST PUSH0 DUP3 DUP2 PUSH2 0x1F5 PUSH1 0xF DUP6 PUSH2 0x69F JUMP JUMPDEST SWAP1 POP JUMPDEST DUP3 PUSH0 SUB PUSH2 0x244 JUMPI PUSH7 0x3632C8EB5AF3B PUSH1 0x1 PUSH1 0x1 PUSH1 0xA0 SHL SUB DUP1 DUP4 AND DUP5 DUP3 AND EXP AND MOD PUSH1 0x1 PUSH1 0x1 PUSH1 0xA0 SHL SUB AND SWAP3 POP PUSH1 0x2 DUP2 PUSH1 0x1 PUSH1 0x1 PUSH1 0xA0 SHL SUB AND DUP2 PUSH2 0x23C JUMPI PUSH2 0x23C PUSH2 0x678 JUMP JUMPDEST DIV SWAP1 POP PUSH2 0x1F8 JUMP JUMPDEST POP POP SWAP3 SWAP2 POP POP JUMP JUMPDEST PUSH0 DUP1 PUSH2 0x259 PUSH1 0xF DUP7 PUSH2 0x69F JUMP JUMPDEST SWAP1 POP JUMPDEST DUP2 PUSH0 SUB PUSH2 0x2A4 JUMPI PUSH7 0x3632C8EB5AF3B PUSH2 0x275 DUP6 DUP6 PUSH2 0x4D7 JUMP JUMPDEST PUSH2 0x27F DUP9 DUP9 PUSH2 0x4D7 JUMP JUMPDEST EXP DUP2 PUSH2 0x28D JUMPI PUSH2 0x28D PUSH2 0x678 JUMP JUMPDEST MOD SWAP2 POP PUSH1 0x2 PUSH1 0x1 PUSH1 0x1 PUSH1 0xA0 SHL SUB DUP3 AND DIV SWAP1 POP PUSH2 0x25C JUMP JUMPDEST POP SWAP5 SWAP4 POP POP POP POP JUMP JUMPDEST PUSH0 DUP1 PUSH0 DUP5 PUSH1 0x1 PUSH1 0x1 PUSH1 0x40 SHL SUB AND DUP7 PUSH1 0x1 PUSH1 0x1 PUSH1 0x40 SHL SUB AND EQ DUP1 ISZERO PUSH2 0x2E2 JUMPI POP DUP4 PUSH1 0x1 PUSH1 0x1 PUSH1 0x40 SHL SUB AND DUP6 PUSH1 0x1 PUSH1 0x1 PUSH1 0x40 SHL SUB AND EQ JUMPDEST ISZERO PUSH2 0x2F4 JUMPI POP PUSH0 SWAP2 POP DUP2 SWAP1 POP DUP5 PUSH2 0x4CE JUMP JUMPDEST DUP5 PUSH1 0x1 PUSH1 0x1 PUSH1 0x40 SHL SUB AND DUP7 PUSH1 0x1 PUSH1 0x1 PUSH1 0x40 SHL SUB AND SUB PUSH2 0x33B JUMPI PUSH0 DUP7 DUP8 PUSH1 0x1 PUSH1 0x1 PUSH1 0x40 SHL SUB AND DUP7 PUSH1 0x1 PUSH1 0x1 PUSH1 0x40 SHL SUB AND GT PUSH2 0x32E JUMPI DUP8 PUSH2 0x330 JUMP JUMPDEST DUP6 JUMPDEST SWAP3 POP SWAP3 POP SWAP3 POP PUSH2 0x4CE JUMP JUMPDEST DUP4 PUSH1 0x1 PUSH1 0x1 PUSH1 0x40 SHL SUB AND DUP7 PUSH1 0x1 PUSH1 0x1 PUSH1 0x40 SHL SUB AND SUB PUSH2 0x381 JUMPI PUSH0 DUP7 DUP8 PUSH1 0x1 PUSH1 0x1 PUSH1 0x40 SHL SUB AND DUP8 PUSH1 0x1 PUSH1 0x1 PUSH1 0x40 SHL SUB AND GT PUSH2 0x375 JUMPI DUP8 PUSH2 0x330 JUMP JUMPDEST DUP7 SWAP3 POP SWAP3 POP SWAP3 POP PUSH2 0x4CE JUMP JUMPDEST DUP4 PUSH1 0x1 PUSH1 0x1 PUSH1 0x40 SHL SUB AND DUP6 PUSH1 0x1 PUSH1 0x1 PUSH1 0x40 SHL SUB AND SUB PUSH2 0x3C7 JUMPI PUSH0 DUP6 DUP7 PUSH1 0x1 PUSH1 0x1 PUSH1 0x40 SHL SUB AND DUP9 PUSH1 0x1 PUSH1 0x1 PUSH1 0x40 SHL SUB AND GT PUSH2 0x3BB JUMPI DUP7 PUSH2 0x330 JUMP JUMPDEST DUP8 SWAP3 POP SWAP3 POP SWAP3 POP PUSH2 0x4CE JUMP JUMPDEST DUP5 PUSH1 0x1 PUSH1 0x1 PUSH1 0x40 SHL SUB AND DUP7 PUSH1 0x1 PUSH1 0x1 PUSH1 0x40 SHL SUB AND GT ISZERO DUP1 ISZERO PUSH2 0x3FB JUMPI POP DUP4 PUSH1 0x1 PUSH1 0x1 PUSH1 0x40 SHL SUB AND DUP7 PUSH1 0x1 PUSH1 0x1 PUSH1 0x40 SHL SUB AND GT ISZERO JUMPDEST ISZERO PUSH2 0x433 JUMPI DUP4 PUSH1 0x1 PUSH1 0x1 PUSH1 0x40 SHL SUB AND DUP6 PUSH1 0x1 PUSH1 0x1 PUSH1 0x40 SHL SUB AND GT PUSH2 0x426 JUMPI POP DUP5 SWAP2 POP DUP4 SWAP1 POP DUP3 PUSH2 0x4CE JUMP JUMPDEST POP DUP5 SWAP2 POP DUP3 SWAP1 POP DUP4 PUSH2 0x4CE JUMP JUMPDEST DUP6 PUSH1 0x1 PUSH1 0x1 PUSH1 0x40 SHL SUB AND DUP6 PUSH1 0x1 PUSH1 0x1 PUSH1 0x40 SHL SUB AND GT ISZERO DUP1 ISZERO PUSH2 0x467 JUMPI POP DUP4 PUSH1 0x1 PUSH1 0x1 PUSH1 0x40 SHL SUB AND DUP6 PUSH1 0x1 PUSH1 0x1 PUSH1 0x40 SHL SUB AND GT ISZERO JUMPDEST ISZERO PUSH2 0x49F JUMPI DUP4 PUSH1 0x1 PUSH1 0x1 PUSH1 0x40 SHL SUB AND DUP7 PUSH1 0x1 PUSH1 0x1 PUSH1 0x40 SHL SUB AND GT PUSH2 0x492 JUMPI POP DUP4 SWAP2 POP DUP5 SWAP1 POP DUP3 PUSH2 0x4CE JUMP JUMPDEST POP DUP4 SWAP2 POP DUP3 SWAP1 POP DUP5 PUSH2 0x4CE JUMP JUMPDEST DUP5 PUSH1 0x1 PUSH1 0x1 PUSH1 0x40 SHL SUB AND DUP7 PUSH1 0x1 PUSH1 0x1 PUSH1 0x40 SHL SUB AND GT PUSH2 0x4C5 JUMPI POP DUP3 SWAP2 POP DUP5 SWAP1 POP DUP4 PUSH2 0x4CE JUMP JUMPDEST POP DUP3 SWAP2 POP DUP4 SWAP1 POP DUP5 JUMPDEST SWAP4 POP SWAP4 POP SWAP4 SWAP1 POP JUMP JUMPDEST PUSH0 DUP3 DUP2 PUSH2 0x4E5 PUSH1 0xF DUP6 PUSH2 0x69F JUMP JUMPDEST SWAP1 POP JUMPDEST DUP3 PUSH0 SUB PUSH2 0x244 JUMPI PUSH7 0x3632C8EB5AF3B PUSH1 0x1 PUSH1 0x1 PUSH1 0xA0 SHL SUB DUP1 DUP4 AND DUP5 DUP3 AND EXP AND MOD PUSH1 0x1 PUSH1 0x1 PUSH1 0xA0 SHL SUB AND SWAP3 POP PUSH1 0x2 DUP2 PUSH1 0x1 PUSH1 0x1 PUSH1 0xA0 SHL SUB AND DUP2 PUSH2 0x52C JUMPI PUSH2 0x52C PUSH2 0x678 JUMP JUMPDEST DIV SWAP1 POP PUSH2 0x4E8 JUMP JUMPDEST PUSH0 DUP1 PUSH0 PUSH1 0x60 DUP5 DUP7 SUB SLT ISZERO PUSH2 0x546 JUMPI PUSH0 DUP1 REVERT JUMPDEST POP POP DUP2 CALLDATALOAD SWAP4 PUSH1 0x20 DUP4 ADD CALLDATALOAD SWAP4 POP PUSH1 0x40 SWAP1 SWAP3 ADD CALLDATALOAD SWAP2 SWAP1 POP JUMP JUMPDEST DUP1 CALLDATALOAD PUSH1 0x1 PUSH1 0x1 PUSH1 0x40 SHL SUB DUP2 AND DUP2 EQ PUSH2 0x573 JUMPI PUSH0 DUP1 REVERT JUMPDEST SWAP2 SWAP1 POP JUMP JUMPDEST PUSH0 DUP1 PUSH0 PUSH1 0x60 DUP5 DUP7 SUB SLT ISZERO PUSH2 0x58A JUMPI PUSH0 DUP1 REVERT JUMPDEST PUSH2 0x593 DUP5 PUSH2 0x55D JUMP JUMPDEST SWAP3 POP PUSH2 0x5A1 PUSH1 0x20 DUP6 ADD PUSH2 0x55D JUMP JUMPDEST SWAP2 POP PUSH2 0x5AF PUSH1 0x40 DUP6 ADD PUSH2 0x55D JUMP JUMPDEST SWAP1 POP SWAP3 POP SWAP3 POP SWAP3 JUMP JUMPDEST DUP1 CALLDATALOAD PUSH1 0x1 PUSH1 0x1 PUSH1 0xA0 SHL SUB DUP2 AND DUP2 EQ PUSH2 0x573 JUMPI PUSH0 DUP1 REVERT JUMPDEST PUSH0 DUP1 PUSH1 0x40 DUP4 DUP6 SUB SLT ISZERO PUSH2 0x5DF JUMPI PUSH0 DUP1 REVERT JUMPDEST PUSH2 0x5E8 DUP4 PUSH2 0x5B8 JUMP JUMPDEST SWAP5 PUSH1 0x20 SWAP4 SWAP1 SWAP4 ADD CALLDATALOAD SWAP4 POP POP POP JUMP JUMPDEST PUSH0 DUP1 PUSH0 DUP1 PUSH1 0x80 DUP6 DUP8 SUB SLT ISZERO PUSH2 0x609 JUMPI PUSH0 DUP1 REVERT JUMPDEST PUSH2 0x612 DUP6 PUSH2 0x5B8 JUMP JUMPDEST SWAP4 POP PUSH2 0x620 PUSH1 0x20 DUP7 ADD PUSH2 0x5B8 JUMP JUMPDEST SWAP3 POP PUSH2 0x62E PUSH1 0x40 DUP7 ADD PUSH2 0x5B8 JUMP JUMPDEST SWAP2 POP PUSH2 0x63C PUSH1 0x60 DUP7 ADD PUSH2 0x5B8 JUMP JUMPDEST SWAP1 POP SWAP3 SWAP6 SWAP2 SWAP5 POP SWAP3 POP JUMP JUMPDEST PUSH0 DUP1 PUSH1 0x40 DUP4 DUP6 SUB SLT ISZERO PUSH2 0x658 JUMPI PUSH0 DUP1 REVERT JUMPDEST PUSH2 0x661 DUP4 PUSH2 0x5B8 JUMP JUMPDEST SWAP2 POP PUSH2 0x66F PUSH1 0x20 DUP5 ADD PUSH2 0x5B8 JUMP JUMPDEST SWAP1 POP SWAP3 POP SWAP3 SWAP1 POP JUMP JUMPDEST PUSH4 0x4E487B71 PUSH1 0xE0 SHL PUSH0 MSTORE PUSH1 0x12 PUSH1 0x4 MSTORE PUSH1 0x24 PUSH0 REVERT JUMPDEST PUSH0 DUP3 PUSH2 0x69A JUMPI PUSH2 0x69A PUSH2 0x678 JUMP JUMPDEST POP MOD SWAP1 JUMP JUMPDEST PUSH0 PUSH1 0x1 PUSH1 0x1 PUSH1 0xA0 SHL SUB DUP4 AND DUP1 PUSH2 0x6B7 JUMPI PUSH2 0x6B7 PUSH2 0x678 JUMP JUMPDEST PUSH1 0x1 PUSH1 0x1 PUSH1 0xA0 SHL SUB SWAP3 SWAP1 SWAP3 AND SWAP2 SWAP1 SWAP2 DIV SWAP3 SWAP2 POP POP JUMP INVALID LOG2 PUSH5 0x6970667358 0x22 SLT KECCAK256 SIGNEXTEND 0xB4 SWAP16 0xE3 0x4D PUSH18 0xC742FB1BF17054219323BE48BD312D185C66 SWAP1 MCOPY EQ ISZERO SDIV JUMPDEST EXTCODECOPY 0xA6 PUSH5 0x736F6C6343 STOP ADDMOD BYTE STOP CALLER "
		},
		"gasEstimates": {
			"creation": {
				"codeDepositCost": "359000",
				"executionCost": "426",
				"totalCost": "359426"
			},
			"external": {
				"MotzkinPrime()": "287",
				"hashWith(address,address)": "infinite",
				"hashWithD(address,address,address,address)": "infinite",
				"hashWithHash(address,uint256)": "infinite",
				"modExp(uint256,uint256,uint256)": "infinite",
				"modExp64(uint64,uint64,uint64)": "infinite",
				"sortThree(uint64,uint64,uint64)": "infinite"
			}
		},
		"methodIdentifiers": {
			"MotzkinPrime()": "d3dc2a0f",
			"hashWith(address,address)": "fa6bcfec",
			"hashWithD(address,address,address,address)": "6e27811b",
			"hashWithHash(address,uint256)": "6592f007",
			"modExp(uint256,uint256,uint256)": "3148f14f",
			"modExp64(uint64,uint64,uint64)": "53df6e35",
			"sortThree(uint64,uint64,uint64)": "98fdcdd6"
		}
	},
	"abi": [
		{
			"inputs": [],
			"name": "MotzkinPrime",
			"outputs": [
				{
					"internalType": "uint64",
					"name": "",
					"type": "uint64"
				}
			],
			"stateMutability": "view",
			"type": "function"
		},
		{
			"inputs": [
				{
					"internalType": "address",
					"name": "a",
					"type": "address"
				},
				{
					"internalType": "address",
					"name": "b",
					"type": "address"
				}
			],
			"name": "hashWith",
			"outputs": [
				{
					"internalType": "uint256",
					"name": "hash",
					"type": "uint256"
				}
			],
			"stateMutability": "pure",
			"type": "function"
		},
		{
			"inputs": [
				{
					"internalType": "address",
					"name": "a",
					"type": "address"
				},
				{
					"internalType": "address",
					"name": "b",
					"type": "address"
				},
				{
					"internalType": "address",
					"name": "c",
					"type": "address"
				},
				{
					"internalType": "address",
					"name": "g",
					"type": "address"
				}
			],
			"name": "hashWithD",
			"outputs": [
				{
					"internalType": "uint256",
					"name": "hash",
					"type": "uint256"
				}
			],
			"stateMutability": "pure",
			"type": "function"
		},
		{
			"inputs": [
				{
					"internalType": "address",
					"name": "a",
					"type": "address"
				},
				{
					"internalType": "uint256",
					"name": "b",
					"type": "uint256"
				}
			],
			"name": "hashWithHash",
			"outputs": [
				{
					"internalType": "uint256",
					"name": "hash",
					"type": "uint256"
				}
			],
			"stateMutability": "pure",
			"type": "function"
		},
		{
			"inputs": [
				{
					"internalType": "uint64",
					"name": "a",
					"type": "uint64"
				},
				{
					"internalType": "uint64",
					"name": "b",
					"type": "uint64"
				},
				{
					"internalType": "uint64",
					"name": "c",
					"type": "uint64"
				}
			],
			"name": "sortThree",
			"outputs": [
				{
					"internalType": "uint64",
					"name": "",
					"type": "uint64"
				},
				{
					"internalType": "uint64",
					"name": "",
					"type": "uint64"
				},
				{
					"internalType": "uint64",
					"name": "",
					"type": "uint64"
				}
			],
			"stateMutability": "pure",
			"type": "function"
		}
	]
}