{
	"data": {
		"bytecode": {
			"linkReferences": {
				"contracts/atropamath.sol": {
					"AtropaMath": [
						{
							"length": 20,
							"start": 1466
						},
						{
							"length": 20,
							"start": 2036
						},
						{
							"length": 20,
							"start": 2508
						},
						{
							"length": 20,
							"start": 2836
						},
						{
							"length": 20,
							"start": 3249
						},
						{
							"length": 20,
							"start": 3521
						},
						{
							"length": 20,
							"start": 4235
						},
						{
							"length": 20,
							"start": 5866
						},
						{
							"length": 20,
							"start": 6279
						}
					]
				},
				"contracts/registry.sol": {
					"LibRegistry": [
						{
							"length": 20,
							"start": 1031
						},
						{
							"length": 20,
							"start": 1187
						},
						{
							"length": 20,
							"start": 1640
						},
						{
							"length": 20,
							"start": 1803
						},
						{
							"length": 20,
							"start": 2654
						},
						{
							"length": 20,
							"start": 2982
						},
						{
							"length": 20,
							"start": 3667
						},
						{
							"length": 20,
							"start": 3952
						},
						{
							"length": 20,
							"start": 4091
						},
						{
							"length": 20,
							"start": 4405
						},
						{
							"length": 20,
							"start": 4543
						},
						{
							"length": 20,
							"start": 4695
						},
						{
							"length": 20,
							"start": 5003
						},
						{
							"length": 20,
							"start": 5141
						},
						{
							"length": 20,
							"start": 5272
						},
						{
							"length": 20,
							"start": 5454
						},
						{
							"length": 20,
							"start": 6012
						},
						{
							"length": 20,
							"start": 6425
						}
					]
				}
			},
			"object": "60806040526005805460ff191690553480156018575f80fd5b503380603d57604051631e4fbdf760e01b81525f600482015260240160405180910390fd5b6044816049565b506098565b5f80546001600160a01b038381166001600160a01b0319831681178455604051919092169283917f8be0079c531659141344cd1fd0a4f28419497f9722a3daafe3b4186f6b6457e09190a35050565b611cf9806100a55f395ff3fe608060405234801561000f575f80fd5b506004361061013d575f3560e01c80638da5cb5b116100b4578063b810fb4311610079578063b810fb43146102d5578063c9678a21146102e8578063ccf61fc3146102f1578063d0ef3d3f14610304578063f29a1bdd1461030d578063f2fde38b14610320575f80fd5b80638da5cb5b146102135780638fb4772f1461022c578063a970de0e14610235578063aa46dbf614610299578063abbf468a146102a2575f80fd5b80632f9095b5116101055780632f9095b5146101c157806349faa4d4146101d45780634a78e1e3146101dc578063549cc69b146101ef578063715018a6146101f85780637981fb0714610200575f80fd5b80630e10d955146101415780631a2eff271461015c5780631f0ba6c91461017c57806322392565146101995780632457ed42146101ae575b5f80fd5b610149610333565b6040519081526020015b60405180910390f35b61016f61016a366004611a2a565b6103c3565b6040516101539190611a55565b6005546101899060ff1681565b6040519015158152602001610153565b6101ac6101a7366004611ac2565b6104ec565b005b61016f6101bc366004611af8565b61070a565b6101496101cf366004611b12565b61083e565b610149603281565b6101ac6101ea366004611af8565b6108ee565b61014960105481565b6101ac610a33565b6101ac61020e366004611b68565b610a46565b5f546001600160a01b03165b6040516101539190611ba8565b610149600e5481565b610271610243366004611a2a565b60066020525f9081526040902080546001820154600283015460038401546004909401549293919290919085565b604080519586526020860194909452928401919091526060830152608082015260a001610153565b610149600d5481565b61021f6102b0366004611bbc565b600860209081525f92835260408084209091529082529020546001600160a01b031681565b61021f6102e3366004611a2a565b610bba565b610149600f5481565b6101896102ff366004611bdc565b610be2565b610149600c5481565b61018961031b366004611b68565b610cc7565b6101ac61032e366004611c13565b610e5c565b5f61034033600330610cc7565b61034c5761034c611c2c565b604051639ba54d2d60e01b81526001600482015273__$0302b47f2070ab02d534d3bad2f8e35698$__90639ba54d2d90602401602060405180830381865af415801561039a573d5f803e3d5ffd5b505050506040513d601f19601f820116820180604052508101906103be9190611c40565b905090565b604080516060810182525f808252602082018190529181019190915260405163cfe6aa6360e01b815260016004820152602481018390525f9073__$0302b47f2070ab02d534d3bad2f8e35698$__9063cfe6aa6390604401602060405180830381865af4158015610436573d5f803e3d5ffd5b505050506040513d601f19601f8201168201806040525081019061045a9190611c40565b905061046833600330610cc7565b61047457610474611c2c565b5f8181526004602090815260409182902082516060810190935280546001600160a01b03811684529091830190600160a01b900460ff1660068111156104bc576104bc611a41565b60068111156104cd576104cd611a41565b8152600191909101546001600160a01b03166020909101529392505050565b6104f833600183610cc7565b61050457610504611c2c565b604051633e9af3fb60e21b81525f9073__$67a781dffa6e16f85432f473be341b2a0a$__9063fa6bcfec9061053f9030908690600401611c57565b602060405180830381865af415801561055a573d5f803e3d5ffd5b505050506040513d601f19601f8201168201806040525081019061057e9190611c40565b905060075f84600581111561059557610595611a41565b8152602081019190915260409081015f20905163129a396560e11b815260048101919091526024810182905273__$0302b47f2070ab02d534d3bad2f8e35698$__9063253472ca90604401602060405180830381865af41580156105fb573d5f803e3d5ffd5b505050506040513d601f19601f8201168201806040525081019061061f9190611c71565b6107055760075f84600581111561063857610638611a41565b8152602081019190915260409081015f209051638b584f4d60e01b815260048101919091526024810182905273__$0302b47f2070ab02d534d3bad2f8e35698$__90638b584f4d906044015f6040518083038186803b158015610699575f80fd5b505af41580156106ab573d5f803e3d5ffd5b505050508160085f8560058111156106c5576106c5611a41565b81526020019081526020015f205f8381526020019081526020015f205f6101000a8154816001600160a01b0302191690836001600160a01b031602179055505b505050565b604080516060810182525f808252602082018190529181019190915261073233600585610cc7565b61073e5761073e611c2c565b604051633e9af3fb60e21b81525f9073__$67a781dffa6e16f85432f473be341b2a0a$__9063fa6bcfec90610782906001600160a01b038816908790600401611c57565b602060405180830381865af415801561079d573d5f803e3d5ffd5b505050506040513d601f19601f820116820180604052508101906107c19190611c40565b5f8181526004602090815260409182902082516060810190935280546001600160a01b0381168452939450919290830190600160a01b900460ff16600681111561080d5761080d611a41565b600681111561081e5761081e611a41565b8152600191909101546001600160a01b0316602090910152949350505050565b5f8061084f60025b87856001610ea2565b6108599082611c90565b9050610868600186855f610ea2565b6108729082611c90565b90506108805f85855f610ea2565b61088a9082611c90565b90506108966005610846565b6108a09082611c90565b90506108af600487855f610ea2565b6108b99082611c90565b90506108c6600e54611574565b6108d1600f54611574565b6108dc601054611574565b6108e581611574565b95945050505050565b5f6108f9838361070a565b905061090a335f8360400151610cc7565b61091657610916611c2c565b604051633e9af3fb60e21b81525f9073__$67a781dffa6e16f85432f473be341b2a0a$__9063fa6bcfec9061095a906001600160a01b038816908790600401611c57565b602060405180830381865af4158015610975573d5f803e3d5ffd5b505050506040513d601f19601f820116820180604052508101906109999190611c40565b604051634823fb6f60e11b8152600160048201526024810182905290915073__$0302b47f2070ab02d534d3bad2f8e35698$__90639047f6de906044015f6040518083038186803b1580156109ec575f80fd5b505af41580156109fe573d5f803e3d5ffd5b5050505f9182525060046020526040902080546001600160a81b031916815560010180546001600160a01b0319169055505050565b610a3b6115b9565b610a445f6115e5565b565b610a5233600130610cc7565b610a5e57610a5e611c2c565b604051633e9af3fb60e21b81525f9073__$67a781dffa6e16f85432f473be341b2a0a$__9063fa6bcfec90610aa2906001600160a01b038816908690600401611c57565b602060405180830381865af4158015610abd573d5f803e3d5ffd5b505050506040513d601f19601f82011682018060405250810190610ae19190611c40565b60405163129a396560e11b8152600160048201526024810182905290915073__$0302b47f2070ab02d534d3bad2f8e35698$__9063253472ca90604401602060405180830381865af4158015610b39573d5f803e3d5ffd5b505050506040513d601f19601f82011682018060405250810190610b5d9190611c71565b15610ba9575f81815260046020526040902054610b86903390600160a01b900460ff1686610cc7565b610b9257610b92611c2c565b610b9d338484610cc7565b610ba957610ba9611c2c565b610bb4848484611634565b50505050565b600b8181548110610bc9575f80fd5b5f918252602090912001546001600160a01b0316905081565b5f610bef33600586610cc7565b610bfb57610bfb611c2c565b604051633e9af3fb60e21b81525f9073__$67a781dffa6e16f85432f473be341b2a0a$__9063fa6bcfec90610c3f906001600160a01b038916908890600401611c57565b602060405180830381865af4158015610c5a573d5f803e3d5ffd5b505050506040513d601f19601f82011682018060405250810190610c7e9190611c40565b9050826006811115610c9257610c92611a41565b5f82815260046020526040902054600160a01b900460ff166006811115610cbb57610cbb611a41565b149150505b9392505050565b5f80546001600160a01b03166001600160a01b0316846001600160a01b031603610cf357506001610cc0565b610cff336005866117a5565b610d0b57610d0b611c2c565b604051633e9af3fb60e21b81525f9073__$67a781dffa6e16f85432f473be341b2a0a$__9063fa6bcfec90610d4f906001600160a01b038916908790600401611c57565b602060405180830381865af4158015610d6a573d5f803e3d5ffd5b505050506040513d601f19601f82011682018060405250810190610d8e9190611c40565b60405163129a396560e11b8152600160048201526024810182905290915073__$0302b47f2070ab02d534d3bad2f8e35698$__9063253472ca90604401602060405180830381865af4158015610de6573d5f803e3d5ffd5b505050506040513d601f19601f82011682018060405250810190610e0a9190611c71565b15610e52575f81815260046020526040902054610e33903390600160a01b900460ff16876117a5565b610e3f57610e3f611c2c565b610e4a81858561196a565b915050610cc0565b505f949350505050565b610e646115b9565b6001600160a01b038116610e96575f604051631e4fbdf760e01b8152600401610e8d9190611ba8565b60405180910390fd5b610e9f816115e5565b50565b5f80805b5f87815260076020526040908190209051639ba54d2d60e01b8152600481019190915273__$0302b47f2070ab02d534d3bad2f8e35698$__90639ba54d2d90602401602060405180830381865af4158015610f03573d5f803e3d5ffd5b505050506040513d601f19601f82011682018060405250810190610f279190611c40565b81101561156a575f8781526008602090815260408083206007909252808320905163cfe6aa6360e01b8152839173__$0302b47f2070ab02d534d3bad2f8e35698$__9163cfe6aa6391610f87918890600401918252602082015260400190565b602060405180830381865af4158015610fa2573d5f803e3d5ffd5b505050506040513d601f19601f82011682018060405250810190610fc69190611c40565b8152602081019190915260409081015f20549051633e9af3fb60e21b815273__$67a781dffa6e16f85432f473be341b2a0a$__9163fa6bcfec91611018916001600160a01b0316908b90600401611c57565b602060405180830381865af4158015611033573d5f803e3d5ffd5b505050506040513d601f19601f820116820180604052508101906110579190611c40565b5f8981526009602090815260408083206007909252808320905163cfe6aa6360e01b81526004810191909152602481018690529293509173__$0302b47f2070ab02d534d3bad2f8e35698$__9063cfe6aa6390604401602060405180830381865af41580156110c8573d5f803e3d5ffd5b505050506040513d601f19601f820116820180604052508101906110ec9190611c40565b8152602081019190915260409081015f20905163129a396560e11b815260048101919091526024810182905273__$0302b47f2070ab02d534d3bad2f8e35698$__9063253472ca90604401602060405180830381865af4158015611152573d5f803e3d5ffd5b505050506040513d601f19601f820116820180604052508101906111769190611c71565b611471575f8881526008602090815260408083206007909252808320905163cfe6aa6360e01b815260048101919091526024810185905290919073__$0302b47f2070ab02d534d3bad2f8e35698$__9063cfe6aa6390604401602060405180830381865af41580156111ea573d5f803e3d5ffd5b505050506040513d601f19601f8201168201806040525081019061120e9190611c40565b8152602081019190915260409081015f20549051634d55fa5760e11b81526001600160a01b0389811660048301526024820189905290911690639aabf4ae906044016020604051808303815f875af115801561126c573d5f803e3d5ffd5b505050506040513d601f19601f820116820180604052508101906112909190611c40565b5084156112ae575f600e5f8282546112a89190611c90565b90915550505b5f8881526009602090815260408083206007909252808320905163cfe6aa6360e01b815260048101919091526024810185905290919073__$0302b47f2070ab02d534d3bad2f8e35698$__9063cfe6aa6390604401602060405180830381865af415801561131e573d5f803e3d5ffd5b505050506040513d601f19601f820116820180604052508101906113429190611c40565b8152602081019190915260409081015f209051638b584f4d60e01b815260048101919091526024810182905273__$0302b47f2070ab02d534d3bad2f8e35698$__90638b584f4d906044015f6040518083038186803b1580156113a3575f80fd5b505af41580156113b5573d5f803e3d5ffd5b5050505f898152600a602090815260408083206007909252808320905163cfe6aa6360e01b815260048101919091526024810186905291925090829073__$0302b47f2070ab02d534d3bad2f8e35698$__9063cfe6aa6390604401602060405180830381865af415801561142b573d5f803e3d5ffd5b505050506040513d601f19601f8201168201806040525081019061144f9190611c40565b815260208082019290925260409081015f908120858252909252902055611561565b5f888152600a602090815260408083206007909252808320905163cfe6aa6360e01b815260048101919091526024810185905290919073__$0302b47f2070ab02d534d3bad2f8e35698$__9063cfe6aa6390604401602060405180830381865af41580156114e1573d5f803e3d5ffd5b505050506040513d601f19601f820116820180604052508101906115059190611c40565b815260208082019290925260409081015f90812084825283529081205481805260069092527f54cdd369e4e8a8515e52ca72ec816c2101831ad1f18bf44102ed171459c9b4f9805490919061155b908490611c90565b90915550505b50600101610ea6565b5095945050505050565b610e9f8160405160240161158a91815260200190565b60408051601f198184030181529190526020810180516001600160e01b0316632d5b6cb960e01b179052611a07565b5f546001600160a01b03163314610a44573360405163118cdaa760e01b8152600401610e8d9190611ba8565b5f80546001600160a01b038381166001600160a01b0319831681178455604051919092169283917f8be0079c531659141344cd1fd0a4f28419497f9722a3daafe3b4186f6b6457e09190a35050565b604051633e9af3fb60e21b81525f9073__$67a781dffa6e16f85432f473be341b2a0a$__9063fa6bcfec90611678906001600160a01b038816908690600401611c57565b602060405180830381865af4158015611693573d5f803e3d5ffd5b505050506040513d601f19601f820116820180604052508101906116b79190611c40565b604051638b584f4d60e01b8152600160048201526024810182905290915073__$0302b47f2070ab02d534d3bad2f8e35698$__90638b584f4d906044015f6040518083038186803b15801561170a575f80fd5b505af415801561171c573d5f803e3d5ffd5b5050505f82815260046020526040902080546001600160a01b0387166001600160a01b03198216811783558693506001600160a81b031990911617600160a01b83600681111561176e5761176e611a41565b02179055505f90815260046020526040902060010180546001600160a01b0319166001600160a01b03929092169190911790555050565b5f80546001600160a01b03166001600160a01b0316846001600160a01b0316036117d157506001610cc0565b604051633e9af3fb60e21b81525f9073__$67a781dffa6e16f85432f473be341b2a0a$__9063fa6bcfec90611815906001600160a01b038916908790600401611c57565b602060405180830381865af4158015611830573d5f803e3d5ffd5b505050506040513d601f19601f820116820180604052508101906118549190611c40565b60405163129a396560e11b8152600160048201526024810182905290915073__$0302b47f2070ab02d534d3bad2f8e35698$__9063253472ca90604401602060405180830381865af41580156118ac573d5f803e3d5ffd5b505050506040513d601f19601f820116820180604052508101906118d09190611c71565b15610e52578360068111156118e7576118e7611a41565b5f82815260046020526040902054600160a01b900460ff16600681111561191057611910611a41565b1115801561195b57505f818152600460205260409020600101546001600160a01b031630148061195b57505f818152600460205260409020600101546001600160a01b038481169116145b15610e52576001915050610cc0565b5f82600681111561197d5761197d611a41565b5f85815260046020526040902054600160a01b900460ff1660068111156119a6576119a6611a41565b111580156119f157505f848152600460205260409020600101546001600160a01b03163014806119f157505f848152600460205260409020600101546001600160a01b038381169116145b156119fe57506001610cc0565b505f9392505050565b610e9f815f6a636f6e736f6c652e6c6f6790505f80835160208501845afa505050565b5f60208284031215611a3a575f80fd5b5035919050565b634e487b7160e01b5f52602160045260245ffd5b81516001600160a01b031681526020820151606082019060078110611a8857634e487b7160e01b5f52602160045260245ffd5b60208301526040928301516001600160a01b0316929091019190915290565b80356001600160a01b0381168114611abd575f80fd5b919050565b5f8060408385031215611ad3575f80fd5b823560068110611ae1575f80fd5b9150611aef60208401611aa7565b90509250929050565b5f8060408385031215611b09575f80fd5b611ae183611aa7565b5f805f8060808587031215611b25575f80fd5b611b2e85611aa7565b9350611b3c60208601611aa7565b9250611b4a60408601611aa7565b9396929550929360600135925050565b803560078110611abd575f80fd5b5f805f60608486031215611b7a575f80fd5b611b8384611aa7565b9250611b9160208501611b5a565b9150611b9f60408501611aa7565b90509250925092565b6001600160a01b0391909116815260200190565b5f8060408385031215611bcd575f80fd5b50508035926020909101359150565b5f805f60608486031215611bee575f80fd5b611bf784611aa7565b9250611c0560208501611aa7565b9150611b9f60408501611b5a565b5f60208284031215611c23575f80fd5b610cc082611aa7565b634e487b7160e01b5f52600160045260245ffd5b5f60208284031215611c50575f80fd5b5051919050565b6001600160a01b0392831681529116602082015260400190565b5f60208284031215611c81575f80fd5b81518015158114610cc0575f80fd5b8082018281125f831280158216821582161715611cbb57634e487b7160e01b5f52601160045260245ffd5b50509291505056fea264697066735822122090cb8e845ffde4c1823a7b015ae3adc75b1edacef02578b43303f38f30d8c04564736f6c634300081a0033",
			"opcodes": "PUSH1 0x80 PUSH1 0x40 MSTORE PUSH1 0x5 DUP1 SLOAD PUSH1 0xFF NOT AND SWAP1 SSTORE CALLVALUE DUP1 ISZERO PUSH1 0x18 JUMPI PUSH0 DUP1 REVERT JUMPDEST POP CALLER DUP1 PUSH1 0x3D JUMPI PUSH1 0x40 MLOAD PUSH4 0x1E4FBDF7 PUSH1 0xE0 SHL DUP2 MSTORE PUSH0 PUSH1 0x4 DUP3 ADD MSTORE PUSH1 0x24 ADD PUSH1 0x40 MLOAD DUP1 SWAP2 SUB SWAP1 REVERT JUMPDEST PUSH1 0x44 DUP2 PUSH1 0x49 JUMP JUMPDEST POP PUSH1 0x98 JUMP JUMPDEST PUSH0 DUP1 SLOAD PUSH1 0x1 PUSH1 0x1 PUSH1 0xA0 SHL SUB DUP4 DUP2 AND PUSH1 0x1 PUSH1 0x1 PUSH1 0xA0 SHL SUB NOT DUP4 AND DUP2 OR DUP5 SSTORE PUSH1 0x40 MLOAD SWAP2 SWAP1 SWAP3 AND SWAP3 DUP4 SWAP2 PUSH32 0x8BE0079C531659141344CD1FD0A4F28419497F9722A3DAAFE3B4186F6B6457E0 SWAP2 SWAP1 LOG3 POP POP JUMP JUMPDEST PUSH2 0x1CF9 DUP1 PUSH2 0xA5 PUSH0 CODECOPY PUSH0 RETURN INVALID PUSH1 0x80 PUSH1 0x40 MSTORE CALLVALUE DUP1 ISZERO PUSH2 0xF JUMPI PUSH0 DUP1 REVERT JUMPDEST POP PUSH1 0x4 CALLDATASIZE LT PUSH2 0x13D JUMPI PUSH0 CALLDATALOAD PUSH1 0xE0 SHR DUP1 PUSH4 0x8DA5CB5B GT PUSH2 0xB4 JUMPI DUP1 PUSH4 0xB810FB43 GT PUSH2 0x79 JUMPI DUP1 PUSH4 0xB810FB43 EQ PUSH2 0x2D5 JUMPI DUP1 PUSH4 0xC9678A21 EQ PUSH2 0x2E8 JUMPI DUP1 PUSH4 0xCCF61FC3 EQ PUSH2 0x2F1 JUMPI DUP1 PUSH4 0xD0EF3D3F EQ PUSH2 0x304 JUMPI DUP1 PUSH4 0xF29A1BDD EQ PUSH2 0x30D JUMPI DUP1 PUSH4 0xF2FDE38B EQ PUSH2 0x320 JUMPI PUSH0 DUP1 REVERT JUMPDEST DUP1 PUSH4 0x8DA5CB5B EQ PUSH2 0x213 JUMPI DUP1 PUSH4 0x8FB4772F EQ PUSH2 0x22C JUMPI DUP1 PUSH4 0xA970DE0E EQ PUSH2 0x235 JUMPI DUP1 PUSH4 0xAA46DBF6 EQ PUSH2 0x299 JUMPI DUP1 PUSH4 0xABBF468A EQ PUSH2 0x2A2 JUMPI PUSH0 DUP1 REVERT JUMPDEST DUP1 PUSH4 0x2F9095B5 GT PUSH2 0x105 JUMPI DUP1 PUSH4 0x2F9095B5 EQ PUSH2 0x1C1 JUMPI DUP1 PUSH4 0x49FAA4D4 EQ PUSH2 0x1D4 JUMPI DUP1 PUSH4 0x4A78E1E3 EQ PUSH2 0x1DC JUMPI DUP1 PUSH4 0x549CC69B EQ PUSH2 0x1EF JUMPI DUP1 PUSH4 0x715018A6 EQ PUSH2 0x1F8 JUMPI DUP1 PUSH4 0x7981FB07 EQ PUSH2 0x200 JUMPI PUSH0 DUP1 REVERT JUMPDEST DUP1 PUSH4 0xE10D955 EQ PUSH2 0x141 JUMPI DUP1 PUSH4 0x1A2EFF27 EQ PUSH2 0x15C JUMPI DUP1 PUSH4 0x1F0BA6C9 EQ PUSH2 0x17C JUMPI DUP1 PUSH4 0x22392565 EQ PUSH2 0x199 JUMPI DUP1 PUSH4 0x2457ED42 EQ PUSH2 0x1AE JUMPI JUMPDEST PUSH0 DUP1 REVERT JUMPDEST PUSH2 0x149 PUSH2 0x333 JUMP JUMPDEST PUSH1 0x40 MLOAD SWAP1 DUP2 MSTORE PUSH1 0x20 ADD JUMPDEST PUSH1 0x40 MLOAD DUP1 SWAP2 SUB SWAP1 RETURN JUMPDEST PUSH2 0x16F PUSH2 0x16A CALLDATASIZE PUSH1 0x4 PUSH2 0x1A2A JUMP JUMPDEST PUSH2 0x3C3 JUMP JUMPDEST PUSH1 0x40 MLOAD PUSH2 0x153 SWAP2 SWAP1 PUSH2 0x1A55 JUMP JUMPDEST PUSH1 0x5 SLOAD PUSH2 0x189 SWAP1 PUSH1 0xFF AND DUP2 JUMP JUMPDEST PUSH1 0x40 MLOAD SWAP1 ISZERO ISZERO DUP2 MSTORE PUSH1 0x20 ADD PUSH2 0x153 JUMP JUMPDEST PUSH2 0x1AC PUSH2 0x1A7 CALLDATASIZE PUSH1 0x4 PUSH2 0x1AC2 JUMP JUMPDEST PUSH2 0x4EC JUMP JUMPDEST STOP JUMPDEST PUSH2 0x16F PUSH2 0x1BC CALLDATASIZE PUSH1 0x4 PUSH2 0x1AF8 JUMP JUMPDEST PUSH2 0x70A JUMP JUMPDEST PUSH2 0x149 PUSH2 0x1CF CALLDATASIZE PUSH1 0x4 PUSH2 0x1B12 JUMP JUMPDEST PUSH2 0x83E JUMP JUMPDEST PUSH2 0x149 PUSH1 0x32 DUP2 JUMP JUMPDEST PUSH2 0x1AC PUSH2 0x1EA CALLDATASIZE PUSH1 0x4 PUSH2 0x1AF8 JUMP JUMPDEST PUSH2 0x8EE JUMP JUMPDEST PUSH2 0x149 PUSH1 0x10 SLOAD DUP2 JUMP JUMPDEST PUSH2 0x1AC PUSH2 0xA33 JUMP JUMPDEST PUSH2 0x1AC PUSH2 0x20E CALLDATASIZE PUSH1 0x4 PUSH2 0x1B68 JUMP JUMPDEST PUSH2 0xA46 JUMP JUMPDEST PUSH0 SLOAD PUSH1 0x1 PUSH1 0x1 PUSH1 0xA0 SHL SUB AND JUMPDEST PUSH1 0x40 MLOAD PUSH2 0x153 SWAP2 SWAP1 PUSH2 0x1BA8 JUMP JUMPDEST PUSH2 0x149 PUSH1 0xE SLOAD DUP2 JUMP JUMPDEST PUSH2 0x271 PUSH2 0x243 CALLDATASIZE PUSH1 0x4 PUSH2 0x1A2A JUMP JUMPDEST PUSH1 0x6 PUSH1 0x20 MSTORE PUSH0 SWAP1 DUP2 MSTORE PUSH1 0x40 SWAP1 KECCAK256 DUP1 SLOAD PUSH1 0x1 DUP3 ADD SLOAD PUSH1 0x2 DUP4 ADD SLOAD PUSH1 0x3 DUP5 ADD SLOAD PUSH1 0x4 SWAP1 SWAP5 ADD SLOAD SWAP3 SWAP4 SWAP2 SWAP3 SWAP1 SWAP2 SWAP1 DUP6 JUMP JUMPDEST PUSH1 0x40 DUP1 MLOAD SWAP6 DUP7 MSTORE PUSH1 0x20 DUP7 ADD SWAP5 SWAP1 SWAP5 MSTORE SWAP3 DUP5 ADD SWAP2 SWAP1 SWAP2 MSTORE PUSH1 0x60 DUP4 ADD MSTORE PUSH1 0x80 DUP3 ADD MSTORE PUSH1 0xA0 ADD PUSH2 0x153 JUMP JUMPDEST PUSH2 0x149 PUSH1 0xD SLOAD DUP2 JUMP JUMPDEST PUSH2 0x21F PUSH2 0x2B0 CALLDATASIZE PUSH1 0x4 PUSH2 0x1BBC JUMP JUMPDEST PUSH1 0x8 PUSH1 0x20 SWAP1 DUP2 MSTORE PUSH0 SWAP3 DUP4 MSTORE PUSH1 0x40 DUP1 DUP5 KECCAK256 SWAP1 SWAP2 MSTORE SWAP1 DUP3 MSTORE SWAP1 KECCAK256 SLOAD PUSH1 0x1 PUSH1 0x1 PUSH1 0xA0 SHL SUB AND DUP2 JUMP JUMPDEST PUSH2 0x21F PUSH2 0x2E3 CALLDATASIZE PUSH1 0x4 PUSH2 0x1A2A JUMP JUMPDEST PUSH2 0xBBA JUMP JUMPDEST PUSH2 0x149 PUSH1 0xF SLOAD DUP2 JUMP JUMPDEST PUSH2 0x189 PUSH2 0x2FF CALLDATASIZE PUSH1 0x4 PUSH2 0x1BDC JUMP JUMPDEST PUSH2 0xBE2 JUMP JUMPDEST PUSH2 0x149 PUSH1 0xC SLOAD DUP2 JUMP JUMPDEST PUSH2 0x189 PUSH2 0x31B CALLDATASIZE PUSH1 0x4 PUSH2 0x1B68 JUMP JUMPDEST PUSH2 0xCC7 JUMP JUMPDEST PUSH2 0x1AC PUSH2 0x32E CALLDATASIZE PUSH1 0x4 PUSH2 0x1C13 JUMP JUMPDEST PUSH2 0xE5C JUMP JUMPDEST PUSH0 PUSH2 0x340 CALLER PUSH1 0x3 ADDRESS PUSH2 0xCC7 JUMP JUMPDEST PUSH2 0x34C JUMPI PUSH2 0x34C PUSH2 0x1C2C JUMP JUMPDEST PUSH1 0x40 MLOAD PUSH4 0x9BA54D2D PUSH1 0xE0 SHL DUP2 MSTORE PUSH1 0x1 PUSH1 0x4 DUP3 ADD MSTORE PUSH20 0x0 SWAP1 PUSH4 0x9BA54D2D SWAP1 PUSH1 0x24 ADD PUSH1 0x20 PUSH1 0x40 MLOAD DUP1 DUP4 SUB DUP2 DUP7 GAS DELEGATECALL ISZERO DUP1 ISZERO PUSH2 0x39A JUMPI RETURNDATASIZE PUSH0 DUP1 RETURNDATACOPY RETURNDATASIZE PUSH0 REVERT JUMPDEST POP POP POP POP PUSH1 0x40 MLOAD RETURNDATASIZE PUSH1 0x1F NOT PUSH1 0x1F DUP3 ADD AND DUP3 ADD DUP1 PUSH1 0x40 MSTORE POP DUP2 ADD SWAP1 PUSH2 0x3BE SWAP2 SWAP1 PUSH2 0x1C40 JUMP JUMPDEST SWAP1 POP SWAP1 JUMP JUMPDEST PUSH1 0x40 DUP1 MLOAD PUSH1 0x60 DUP2 ADD DUP3 MSTORE PUSH0 DUP1 DUP3 MSTORE PUSH1 0x20 DUP3 ADD DUP2 SWAP1 MSTORE SWAP2 DUP2 ADD SWAP2 SWAP1 SWAP2 MSTORE PUSH1 0x40 MLOAD PUSH4 0xCFE6AA63 PUSH1 0xE0 SHL DUP2 MSTORE PUSH1 0x1 PUSH1 0x4 DUP3 ADD MSTORE PUSH1 0x24 DUP2 ADD DUP4 SWAP1 MSTORE PUSH0 SWAP1 PUSH20 0x0 SWAP1 PUSH4 0xCFE6AA63 SWAP1 PUSH1 0x44 ADD PUSH1 0x20 PUSH1 0x40 MLOAD DUP1 DUP4 SUB DUP2 DUP7 GAS DELEGATECALL ISZERO DUP1 ISZERO PUSH2 0x436 JUMPI RETURNDATASIZE PUSH0 DUP1 RETURNDATACOPY RETURNDATASIZE PUSH0 REVERT JUMPDEST POP POP POP POP PUSH1 0x40 MLOAD RETURNDATASIZE PUSH1 0x1F NOT PUSH1 0x1F DUP3 ADD AND DUP3 ADD DUP1 PUSH1 0x40 MSTORE POP DUP2 ADD SWAP1 PUSH2 0x45A SWAP2 SWAP1 PUSH2 0x1C40 JUMP JUMPDEST SWAP1 POP PUSH2 0x468 CALLER PUSH1 0x3 ADDRESS PUSH2 0xCC7 JUMP JUMPDEST PUSH2 0x474 JUMPI PUSH2 0x474 PUSH2 0x1C2C JUMP JUMPDEST PUSH0 DUP2 DUP2 MSTORE PUSH1 0x4 PUSH1 0x20 SWAP1 DUP2 MSTORE PUSH1 0x40 SWAP2 DUP3 SWAP1 KECCAK256 DUP3 MLOAD PUSH1 0x60 DUP2 ADD SWAP1 SWAP4 MSTORE DUP1 SLOAD PUSH1 0x1 PUSH1 0x1 PUSH1 0xA0 SHL SUB DUP2 AND DUP5 MSTORE SWAP1 SWAP2 DUP4 ADD SWAP1 PUSH1 0x1 PUSH1 0xA0 SHL SWAP1 DIV PUSH1 0xFF AND PUSH1 0x6 DUP2 GT ISZERO PUSH2 0x4BC JUMPI PUSH2 0x4BC PUSH2 0x1A41 JUMP JUMPDEST PUSH1 0x6 DUP2 GT ISZERO PUSH2 0x4CD JUMPI PUSH2 0x4CD PUSH2 0x1A41 JUMP JUMPDEST DUP2 MSTORE PUSH1 0x1 SWAP2 SWAP1 SWAP2 ADD SLOAD PUSH1 0x1 PUSH1 0x1 PUSH1 0xA0 SHL SUB AND PUSH1 0x20 SWAP1 SWAP2 ADD MSTORE SWAP4 SWAP3 POP POP POP JUMP JUMPDEST PUSH2 0x4F8 CALLER PUSH1 0x1 DUP4 PUSH2 0xCC7 JUMP JUMPDEST PUSH2 0x504 JUMPI PUSH2 0x504 PUSH2 0x1C2C JUMP JUMPDEST PUSH1 0x40 MLOAD PUSH4 0x3E9AF3FB PUSH1 0xE2 SHL DUP2 MSTORE PUSH0 SWAP1 PUSH20 0x0 SWAP1 PUSH4 0xFA6BCFEC SWAP1 PUSH2 0x53F SWAP1 ADDRESS SWAP1 DUP7 SWAP1 PUSH1 0x4 ADD PUSH2 0x1C57 JUMP JUMPDEST PUSH1 0x20 PUSH1 0x40 MLOAD DUP1 DUP4 SUB DUP2 DUP7 GAS DELEGATECALL ISZERO DUP1 ISZERO PUSH2 0x55A JUMPI RETURNDATASIZE PUSH0 DUP1 RETURNDATACOPY RETURNDATASIZE PUSH0 REVERT JUMPDEST POP POP POP POP PUSH1 0x40 MLOAD RETURNDATASIZE PUSH1 0x1F NOT PUSH1 0x1F DUP3 ADD AND DUP3 ADD DUP1 PUSH1 0x40 MSTORE POP DUP2 ADD SWAP1 PUSH2 0x57E SWAP2 SWAP1 PUSH2 0x1C40 JUMP JUMPDEST SWAP1 POP PUSH1 0x7 PUSH0 DUP5 PUSH1 0x5 DUP2 GT ISZERO PUSH2 0x595 JUMPI PUSH2 0x595 PUSH2 0x1A41 JUMP JUMPDEST DUP2 MSTORE PUSH1 0x20 DUP2 ADD SWAP2 SWAP1 SWAP2 MSTORE PUSH1 0x40 SWAP1 DUP2 ADD PUSH0 KECCAK256 SWAP1 MLOAD PUSH4 0x129A3965 PUSH1 0xE1 SHL DUP2 MSTORE PUSH1 0x4 DUP2 ADD SWAP2 SWAP1 SWAP2 MSTORE PUSH1 0x24 DUP2 ADD DUP3 SWAP1 MSTORE PUSH20 0x0 SWAP1 PUSH4 0x253472CA SWAP1 PUSH1 0x44 ADD PUSH1 0x20 PUSH1 0x40 MLOAD DUP1 DUP4 SUB DUP2 DUP7 GAS DELEGATECALL ISZERO DUP1 ISZERO PUSH2 0x5FB JUMPI RETURNDATASIZE PUSH0 DUP1 RETURNDATACOPY RETURNDATASIZE PUSH0 REVERT JUMPDEST POP POP POP POP PUSH1 0x40 MLOAD RETURNDATASIZE PUSH1 0x1F NOT PUSH1 0x1F DUP3 ADD AND DUP3 ADD DUP1 PUSH1 0x40 MSTORE POP DUP2 ADD SWAP1 PUSH2 0x61F SWAP2 SWAP1 PUSH2 0x1C71 JUMP JUMPDEST PUSH2 0x705 JUMPI PUSH1 0x7 PUSH0 DUP5 PUSH1 0x5 DUP2 GT ISZERO PUSH2 0x638 JUMPI PUSH2 0x638 PUSH2 0x1A41 JUMP JUMPDEST DUP2 MSTORE PUSH1 0x20 DUP2 ADD SWAP2 SWAP1 SWAP2 MSTORE PUSH1 0x40 SWAP1 DUP2 ADD PUSH0 KECCAK256 SWAP1 MLOAD PUSH4 0x8B584F4D PUSH1 0xE0 SHL DUP2 MSTORE PUSH1 0x4 DUP2 ADD SWAP2 SWAP1 SWAP2 MSTORE PUSH1 0x24 DUP2 ADD DUP3 SWAP1 MSTORE PUSH20 0x0 SWAP1 PUSH4 0x8B584F4D SWAP1 PUSH1 0x44 ADD PUSH0 PUSH1 0x40 MLOAD DUP1 DUP4 SUB DUP2 DUP7 DUP1 EXTCODESIZE ISZERO DUP1 ISZERO PUSH2 0x699 JUMPI PUSH0 DUP1 REVERT JUMPDEST POP GAS DELEGATECALL ISZERO DUP1 ISZERO PUSH2 0x6AB JUMPI RETURNDATASIZE PUSH0 DUP1 RETURNDATACOPY RETURNDATASIZE PUSH0 REVERT JUMPDEST POP POP POP POP DUP2 PUSH1 0x8 PUSH0 DUP6 PUSH1 0x5 DUP2 GT ISZERO PUSH2 0x6C5 JUMPI PUSH2 0x6C5 PUSH2 0x1A41 JUMP JUMPDEST DUP2 MSTORE PUSH1 0x20 ADD SWAP1 DUP2 MSTORE PUSH1 0x20 ADD PUSH0 KECCAK256 PUSH0 DUP4 DUP2 MSTORE PUSH1 0x20 ADD SWAP1 DUP2 MSTORE PUSH1 0x20 ADD PUSH0 KECCAK256 PUSH0 PUSH2 0x100 EXP DUP2 SLOAD DUP2 PUSH1 0x1 PUSH1 0x1 PUSH1 0xA0 SHL SUB MUL NOT AND SWAP1 DUP4 PUSH1 0x1 PUSH1 0x1 PUSH1 0xA0 SHL SUB AND MUL OR SWAP1 SSTORE POP JUMPDEST POP POP POP JUMP JUMPDEST PUSH1 0x40 DUP1 MLOAD PUSH1 0x60 DUP2 ADD DUP3 MSTORE PUSH0 DUP1 DUP3 MSTORE PUSH1 0x20 DUP3 ADD DUP2 SWAP1 MSTORE SWAP2 DUP2 ADD SWAP2 SWAP1 SWAP2 MSTORE PUSH2 0x732 CALLER PUSH1 0x5 DUP6 PUSH2 0xCC7 JUMP JUMPDEST PUSH2 0x73E JUMPI PUSH2 0x73E PUSH2 0x1C2C JUMP JUMPDEST PUSH1 0x40 MLOAD PUSH4 0x3E9AF3FB PUSH1 0xE2 SHL DUP2 MSTORE PUSH0 SWAP1 PUSH20 0x0 SWAP1 PUSH4 0xFA6BCFEC SWAP1 PUSH2 0x782 SWAP1 PUSH1 0x1 PUSH1 0x1 PUSH1 0xA0 SHL SUB DUP9 AND SWAP1 DUP8 SWAP1 PUSH1 0x4 ADD PUSH2 0x1C57 JUMP JUMPDEST PUSH1 0x20 PUSH1 0x40 MLOAD DUP1 DUP4 SUB DUP2 DUP7 GAS DELEGATECALL ISZERO DUP1 ISZERO PUSH2 0x79D JUMPI RETURNDATASIZE PUSH0 DUP1 RETURNDATACOPY RETURNDATASIZE PUSH0 REVERT JUMPDEST POP POP POP POP PUSH1 0x40 MLOAD RETURNDATASIZE PUSH1 0x1F NOT PUSH1 0x1F DUP3 ADD AND DUP3 ADD DUP1 PUSH1 0x40 MSTORE POP DUP2 ADD SWAP1 PUSH2 0x7C1 SWAP2 SWAP1 PUSH2 0x1C40 JUMP JUMPDEST PUSH0 DUP2 DUP2 MSTORE PUSH1 0x4 PUSH1 0x20 SWAP1 DUP2 MSTORE PUSH1 0x40 SWAP2 DUP3 SWAP1 KECCAK256 DUP3 MLOAD PUSH1 0x60 DUP2 ADD SWAP1 SWAP4 MSTORE DUP1 SLOAD PUSH1 0x1 PUSH1 0x1 PUSH1 0xA0 SHL SUB DUP2 AND DUP5 MSTORE SWAP4 SWAP5 POP SWAP2 SWAP3 SWAP1 DUP4 ADD SWAP1 PUSH1 0x1 PUSH1 0xA0 SHL SWAP1 DIV PUSH1 0xFF AND PUSH1 0x6 DUP2 GT ISZERO PUSH2 0x80D JUMPI PUSH2 0x80D PUSH2 0x1A41 JUMP JUMPDEST PUSH1 0x6 DUP2 GT ISZERO PUSH2 0x81E JUMPI PUSH2 0x81E PUSH2 0x1A41 JUMP JUMPDEST DUP2 MSTORE PUSH1 0x1 SWAP2 SWAP1 SWAP2 ADD SLOAD PUSH1 0x1 PUSH1 0x1 PUSH1 0xA0 SHL SUB AND PUSH1 0x20 SWAP1 SWAP2 ADD MSTORE SWAP5 SWAP4 POP POP POP POP JUMP JUMPDEST PUSH0 DUP1 PUSH2 0x84F PUSH1 0x2 JUMPDEST DUP8 DUP6 PUSH1 0x1 PUSH2 0xEA2 JUMP JUMPDEST PUSH2 0x859 SWAP1 DUP3 PUSH2 0x1C90 JUMP JUMPDEST SWAP1 POP PUSH2 0x868 PUSH1 0x1 DUP7 DUP6 PUSH0 PUSH2 0xEA2 JUMP JUMPDEST PUSH2 0x872 SWAP1 DUP3 PUSH2 0x1C90 JUMP JUMPDEST SWAP1 POP PUSH2 0x880 PUSH0 DUP6 DUP6 PUSH0 PUSH2 0xEA2 JUMP JUMPDEST PUSH2 0x88A SWAP1 DUP3 PUSH2 0x1C90 JUMP JUMPDEST SWAP1 POP PUSH2 0x896 PUSH1 0x5 PUSH2 0x846 JUMP JUMPDEST PUSH2 0x8A0 SWAP1 DUP3 PUSH2 0x1C90 JUMP JUMPDEST SWAP1 POP PUSH2 0x8AF PUSH1 0x4 DUP8 DUP6 PUSH0 PUSH2 0xEA2 JUMP JUMPDEST PUSH2 0x8B9 SWAP1 DUP3 PUSH2 0x1C90 JUMP JUMPDEST SWAP1 POP PUSH2 0x8C6 PUSH1 0xE SLOAD PUSH2 0x1574 JUMP JUMPDEST PUSH2 0x8D1 PUSH1 0xF SLOAD PUSH2 0x1574 JUMP JUMPDEST PUSH2 0x8DC PUSH1 0x10 SLOAD PUSH2 0x1574 JUMP JUMPDEST PUSH2 0x8E5 DUP2 PUSH2 0x1574 JUMP JUMPDEST SWAP6 SWAP5 POP POP POP POP POP JUMP JUMPDEST PUSH0 PUSH2 0x8F9 DUP4 DUP4 PUSH2 0x70A JUMP JUMPDEST SWAP1 POP PUSH2 0x90A CALLER PUSH0 DUP4 PUSH1 0x40 ADD MLOAD PUSH2 0xCC7 JUMP JUMPDEST PUSH2 0x916 JUMPI PUSH2 0x916 PUSH2 0x1C2C JUMP JUMPDEST PUSH1 0x40 MLOAD PUSH4 0x3E9AF3FB PUSH1 0xE2 SHL DUP2 MSTORE PUSH0 SWAP1 PUSH20 0x0 SWAP1 PUSH4 0xFA6BCFEC SWAP1 PUSH2 0x95A SWAP1 PUSH1 0x1 PUSH1 0x1 PUSH1 0xA0 SHL SUB DUP9 AND SWAP1 DUP8 SWAP1 PUSH1 0x4 ADD PUSH2 0x1C57 JUMP JUMPDEST PUSH1 0x20 PUSH1 0x40 MLOAD DUP1 DUP4 SUB DUP2 DUP7 GAS DELEGATECALL ISZERO DUP1 ISZERO PUSH2 0x975 JUMPI RETURNDATASIZE PUSH0 DUP1 RETURNDATACOPY RETURNDATASIZE PUSH0 REVERT JUMPDEST POP POP POP POP PUSH1 0x40 MLOAD RETURNDATASIZE PUSH1 0x1F NOT PUSH1 0x1F DUP3 ADD AND DUP3 ADD DUP1 PUSH1 0x40 MSTORE POP DUP2 ADD SWAP1 PUSH2 0x999 SWAP2 SWAP1 PUSH2 0x1C40 JUMP JUMPDEST PUSH1 0x40 MLOAD PUSH4 0x4823FB6F PUSH1 0xE1 SHL DUP2 MSTORE PUSH1 0x1 PUSH1 0x4 DUP3 ADD MSTORE PUSH1 0x24 DUP2 ADD DUP3 SWAP1 MSTORE SWAP1 SWAP2 POP PUSH20 0x0 SWAP1 PUSH4 0x9047F6DE SWAP1 PUSH1 0x44 ADD PUSH0 PUSH1 0x40 MLOAD DUP1 DUP4 SUB DUP2 DUP7 DUP1 EXTCODESIZE ISZERO DUP1 ISZERO PUSH2 0x9EC JUMPI PUSH0 DUP1 REVERT JUMPDEST POP GAS DELEGATECALL ISZERO DUP1 ISZERO PUSH2 0x9FE JUMPI RETURNDATASIZE PUSH0 DUP1 RETURNDATACOPY RETURNDATASIZE PUSH0 REVERT JUMPDEST POP POP POP PUSH0 SWAP2 DUP3 MSTORE POP PUSH1 0x4 PUSH1 0x20 MSTORE PUSH1 0x40 SWAP1 KECCAK256 DUP1 SLOAD PUSH1 0x1 PUSH1 0x1 PUSH1 0xA8 SHL SUB NOT AND DUP2 SSTORE PUSH1 0x1 ADD DUP1 SLOAD PUSH1 0x1 PUSH1 0x1 PUSH1 0xA0 SHL SUB NOT AND SWAP1 SSTORE POP POP POP JUMP JUMPDEST PUSH2 0xA3B PUSH2 0x15B9 JUMP JUMPDEST PUSH2 0xA44 PUSH0 PUSH2 0x15E5 JUMP JUMPDEST JUMP JUMPDEST PUSH2 0xA52 CALLER PUSH1 0x1 ADDRESS PUSH2 0xCC7 JUMP JUMPDEST PUSH2 0xA5E JUMPI PUSH2 0xA5E PUSH2 0x1C2C JUMP JUMPDEST PUSH1 0x40 MLOAD PUSH4 0x3E9AF3FB PUSH1 0xE2 SHL DUP2 MSTORE PUSH0 SWAP1 PUSH20 0x0 SWAP1 PUSH4 0xFA6BCFEC SWAP1 PUSH2 0xAA2 SWAP1 PUSH1 0x1 PUSH1 0x1 PUSH1 0xA0 SHL SUB DUP9 AND SWAP1 DUP7 SWAP1 PUSH1 0x4 ADD PUSH2 0x1C57 JUMP JUMPDEST PUSH1 0x20 PUSH1 0x40 MLOAD DUP1 DUP4 SUB DUP2 DUP7 GAS DELEGATECALL ISZERO DUP1 ISZERO PUSH2 0xABD JUMPI RETURNDATASIZE PUSH0 DUP1 RETURNDATACOPY RETURNDATASIZE PUSH0 REVERT JUMPDEST POP POP POP POP PUSH1 0x40 MLOAD RETURNDATASIZE PUSH1 0x1F NOT PUSH1 0x1F DUP3 ADD AND DUP3 ADD DUP1 PUSH1 0x40 MSTORE POP DUP2 ADD SWAP1 PUSH2 0xAE1 SWAP2 SWAP1 PUSH2 0x1C40 JUMP JUMPDEST PUSH1 0x40 MLOAD PUSH4 0x129A3965 PUSH1 0xE1 SHL DUP2 MSTORE PUSH1 0x1 PUSH1 0x4 DUP3 ADD MSTORE PUSH1 0x24 DUP2 ADD DUP3 SWAP1 MSTORE SWAP1 SWAP2 POP PUSH20 0x0 SWAP1 PUSH4 0x253472CA SWAP1 PUSH1 0x44 ADD PUSH1 0x20 PUSH1 0x40 MLOAD DUP1 DUP4 SUB DUP2 DUP7 GAS DELEGATECALL ISZERO DUP1 ISZERO PUSH2 0xB39 JUMPI RETURNDATASIZE PUSH0 DUP1 RETURNDATACOPY RETURNDATASIZE PUSH0 REVERT JUMPDEST POP POP POP POP PUSH1 0x40 MLOAD RETURNDATASIZE PUSH1 0x1F NOT PUSH1 0x1F DUP3 ADD AND DUP3 ADD DUP1 PUSH1 0x40 MSTORE POP DUP2 ADD SWAP1 PUSH2 0xB5D SWAP2 SWAP1 PUSH2 0x1C71 JUMP JUMPDEST ISZERO PUSH2 0xBA9 JUMPI PUSH0 DUP2 DUP2 MSTORE PUSH1 0x4 PUSH1 0x20 MSTORE PUSH1 0x40 SWAP1 KECCAK256 SLOAD PUSH2 0xB86 SWAP1 CALLER SWAP1 PUSH1 0x1 PUSH1 0xA0 SHL SWAP1 DIV PUSH1 0xFF AND DUP7 PUSH2 0xCC7 JUMP JUMPDEST PUSH2 0xB92 JUMPI PUSH2 0xB92 PUSH2 0x1C2C JUMP JUMPDEST PUSH2 0xB9D CALLER DUP5 DUP5 PUSH2 0xCC7 JUMP JUMPDEST PUSH2 0xBA9 JUMPI PUSH2 0xBA9 PUSH2 0x1C2C JUMP JUMPDEST PUSH2 0xBB4 DUP5 DUP5 DUP5 PUSH2 0x1634 JUMP JUMPDEST POP POP POP POP JUMP JUMPDEST PUSH1 0xB DUP2 DUP2 SLOAD DUP2 LT PUSH2 0xBC9 JUMPI PUSH0 DUP1 REVERT JUMPDEST PUSH0 SWAP2 DUP3 MSTORE PUSH1 0x20 SWAP1 SWAP2 KECCAK256 ADD SLOAD PUSH1 0x1 PUSH1 0x1 PUSH1 0xA0 SHL SUB AND SWAP1 POP DUP2 JUMP JUMPDEST PUSH0 PUSH2 0xBEF CALLER PUSH1 0x5 DUP7 PUSH2 0xCC7 JUMP JUMPDEST PUSH2 0xBFB JUMPI PUSH2 0xBFB PUSH2 0x1C2C JUMP JUMPDEST PUSH1 0x40 MLOAD PUSH4 0x3E9AF3FB PUSH1 0xE2 SHL DUP2 MSTORE PUSH0 SWAP1 PUSH20 0x0 SWAP1 PUSH4 0xFA6BCFEC SWAP1 PUSH2 0xC3F SWAP1 PUSH1 0x1 PUSH1 0x1 PUSH1 0xA0 SHL SUB DUP10 AND SWAP1 DUP9 SWAP1 PUSH1 0x4 ADD PUSH2 0x1C57 JUMP JUMPDEST PUSH1 0x20 PUSH1 0x40 MLOAD DUP1 DUP4 SUB DUP2 DUP7 GAS DELEGATECALL ISZERO DUP1 ISZERO PUSH2 0xC5A JUMPI RETURNDATASIZE PUSH0 DUP1 RETURNDATACOPY RETURNDATASIZE PUSH0 REVERT JUMPDEST POP POP POP POP PUSH1 0x40 MLOAD RETURNDATASIZE PUSH1 0x1F NOT PUSH1 0x1F DUP3 ADD AND DUP3 ADD DUP1 PUSH1 0x40 MSTORE POP DUP2 ADD SWAP1 PUSH2 0xC7E SWAP2 SWAP1 PUSH2 0x1C40 JUMP JUMPDEST SWAP1 POP DUP3 PUSH1 0x6 DUP2 GT ISZERO PUSH2 0xC92 JUMPI PUSH2 0xC92 PUSH2 0x1A41 JUMP JUMPDEST PUSH0 DUP3 DUP2 MSTORE PUSH1 0x4 PUSH1 0x20 MSTORE PUSH1 0x40 SWAP1 KECCAK256 SLOAD PUSH1 0x1 PUSH1 0xA0 SHL SWAP1 DIV PUSH1 0xFF AND PUSH1 0x6 DUP2 GT ISZERO PUSH2 0xCBB JUMPI PUSH2 0xCBB PUSH2 0x1A41 JUMP JUMPDEST EQ SWAP2 POP POP JUMPDEST SWAP4 SWAP3 POP POP POP JUMP JUMPDEST PUSH0 DUP1 SLOAD PUSH1 0x1 PUSH1 0x1 PUSH1 0xA0 SHL SUB AND PUSH1 0x1 PUSH1 0x1 PUSH1 0xA0 SHL SUB AND DUP5 PUSH1 0x1 PUSH1 0x1 PUSH1 0xA0 SHL SUB AND SUB PUSH2 0xCF3 JUMPI POP PUSH1 0x1 PUSH2 0xCC0 JUMP JUMPDEST PUSH2 0xCFF CALLER PUSH1 0x5 DUP7 PUSH2 0x17A5 JUMP JUMPDEST PUSH2 0xD0B JUMPI PUSH2 0xD0B PUSH2 0x1C2C JUMP JUMPDEST PUSH1 0x40 MLOAD PUSH4 0x3E9AF3FB PUSH1 0xE2 SHL DUP2 MSTORE PUSH0 SWAP1 PUSH20 0x0 SWAP1 PUSH4 0xFA6BCFEC SWAP1 PUSH2 0xD4F SWAP1 PUSH1 0x1 PUSH1 0x1 PUSH1 0xA0 SHL SUB DUP10 AND SWAP1 DUP8 SWAP1 PUSH1 0x4 ADD PUSH2 0x1C57 JUMP JUMPDEST PUSH1 0x20 PUSH1 0x40 MLOAD DUP1 DUP4 SUB DUP2 DUP7 GAS DELEGATECALL ISZERO DUP1 ISZERO PUSH2 0xD6A JUMPI RETURNDATASIZE PUSH0 DUP1 RETURNDATACOPY RETURNDATASIZE PUSH0 REVERT JUMPDEST POP POP POP POP PUSH1 0x40 MLOAD RETURNDATASIZE PUSH1 0x1F NOT PUSH1 0x1F DUP3 ADD AND DUP3 ADD DUP1 PUSH1 0x40 MSTORE POP DUP2 ADD SWAP1 PUSH2 0xD8E SWAP2 SWAP1 PUSH2 0x1C40 JUMP JUMPDEST PUSH1 0x40 MLOAD PUSH4 0x129A3965 PUSH1 0xE1 SHL DUP2 MSTORE PUSH1 0x1 PUSH1 0x4 DUP3 ADD MSTORE PUSH1 0x24 DUP2 ADD DUP3 SWAP1 MSTORE SWAP1 SWAP2 POP PUSH20 0x0 SWAP1 PUSH4 0x253472CA SWAP1 PUSH1 0x44 ADD PUSH1 0x20 PUSH1 0x40 MLOAD DUP1 DUP4 SUB DUP2 DUP7 GAS DELEGATECALL ISZERO DUP1 ISZERO PUSH2 0xDE6 JUMPI RETURNDATASIZE PUSH0 DUP1 RETURNDATACOPY RETURNDATASIZE PUSH0 REVERT JUMPDEST POP POP POP POP PUSH1 0x40 MLOAD RETURNDATASIZE PUSH1 0x1F NOT PUSH1 0x1F DUP3 ADD AND DUP3 ADD DUP1 PUSH1 0x40 MSTORE POP DUP2 ADD SWAP1 PUSH2 0xE0A SWAP2 SWAP1 PUSH2 0x1C71 JUMP JUMPDEST ISZERO PUSH2 0xE52 JUMPI PUSH0 DUP2 DUP2 MSTORE PUSH1 0x4 PUSH1 0x20 MSTORE PUSH1 0x40 SWAP1 KECCAK256 SLOAD PUSH2 0xE33 SWAP1 CALLER SWAP1 PUSH1 0x1 PUSH1 0xA0 SHL SWAP1 DIV PUSH1 0xFF AND DUP8 PUSH2 0x17A5 JUMP JUMPDEST PUSH2 0xE3F JUMPI PUSH2 0xE3F PUSH2 0x1C2C JUMP JUMPDEST PUSH2 0xE4A DUP2 DUP6 DUP6 PUSH2 0x196A JUMP JUMPDEST SWAP2 POP POP PUSH2 0xCC0 JUMP JUMPDEST POP PUSH0 SWAP5 SWAP4 POP POP POP POP JUMP JUMPDEST PUSH2 0xE64 PUSH2 0x15B9 JUMP JUMPDEST PUSH1 0x1 PUSH1 0x1 PUSH1 0xA0 SHL SUB DUP2 AND PUSH2 0xE96 JUMPI PUSH0 PUSH1 0x40 MLOAD PUSH4 0x1E4FBDF7 PUSH1 0xE0 SHL DUP2 MSTORE PUSH1 0x4 ADD PUSH2 0xE8D SWAP2 SWAP1 PUSH2 0x1BA8 JUMP JUMPDEST PUSH1 0x40 MLOAD DUP1 SWAP2 SUB SWAP1 REVERT JUMPDEST PUSH2 0xE9F DUP2 PUSH2 0x15E5 JUMP JUMPDEST POP JUMP JUMPDEST PUSH0 DUP1 DUP1 JUMPDEST PUSH0 DUP8 DUP2 MSTORE PUSH1 0x7 PUSH1 0x20 MSTORE PUSH1 0x40 SWAP1 DUP2 SWAP1 KECCAK256 SWAP1 MLOAD PUSH4 0x9BA54D2D PUSH1 0xE0 SHL DUP2 MSTORE PUSH1 0x4 DUP2 ADD SWAP2 SWAP1 SWAP2 MSTORE PUSH20 0x0 SWAP1 PUSH4 0x9BA54D2D SWAP1 PUSH1 0x24 ADD PUSH1 0x20 PUSH1 0x40 MLOAD DUP1 DUP4 SUB DUP2 DUP7 GAS DELEGATECALL ISZERO DUP1 ISZERO PUSH2 0xF03 JUMPI RETURNDATASIZE PUSH0 DUP1 RETURNDATACOPY RETURNDATASIZE PUSH0 REVERT JUMPDEST POP POP POP POP PUSH1 0x40 MLOAD RETURNDATASIZE PUSH1 0x1F NOT PUSH1 0x1F DUP3 ADD AND DUP3 ADD DUP1 PUSH1 0x40 MSTORE POP DUP2 ADD SWAP1 PUSH2 0xF27 SWAP2 SWAP1 PUSH2 0x1C40 JUMP JUMPDEST DUP2 LT ISZERO PUSH2 0x156A JUMPI PUSH0 DUP8 DUP2 MSTORE PUSH1 0x8 PUSH1 0x20 SWAP1 DUP2 MSTORE PUSH1 0x40 DUP1 DUP4 KECCAK256 PUSH1 0x7 SWAP1 SWAP3 MSTORE DUP1 DUP4 KECCAK256 SWAP1 MLOAD PUSH4 0xCFE6AA63 PUSH1 0xE0 SHL DUP2 MSTORE DUP4 SWAP2 PUSH20 0x0 SWAP2 PUSH4 0xCFE6AA63 SWAP2 PUSH2 0xF87 SWAP2 DUP9 SWAP1 PUSH1 0x4 ADD SWAP2 DUP3 MSTORE PUSH1 0x20 DUP3 ADD MSTORE PUSH1 0x40 ADD SWAP1 JUMP JUMPDEST PUSH1 0x20 PUSH1 0x40 MLOAD DUP1 DUP4 SUB DUP2 DUP7 GAS DELEGATECALL ISZERO DUP1 ISZERO PUSH2 0xFA2 JUMPI RETURNDATASIZE PUSH0 DUP1 RETURNDATACOPY RETURNDATASIZE PUSH0 REVERT JUMPDEST POP POP POP POP PUSH1 0x40 MLOAD RETURNDATASIZE PUSH1 0x1F NOT PUSH1 0x1F DUP3 ADD AND DUP3 ADD DUP1 PUSH1 0x40 MSTORE POP DUP2 ADD SWAP1 PUSH2 0xFC6 SWAP2 SWAP1 PUSH2 0x1C40 JUMP JUMPDEST DUP2 MSTORE PUSH1 0x20 DUP2 ADD SWAP2 SWAP1 SWAP2 MSTORE PUSH1 0x40 SWAP1 DUP2 ADD PUSH0 KECCAK256 SLOAD SWAP1 MLOAD PUSH4 0x3E9AF3FB PUSH1 0xE2 SHL DUP2 MSTORE PUSH20 0x0 SWAP2 PUSH4 0xFA6BCFEC SWAP2 PUSH2 0x1018 SWAP2 PUSH1 0x1 PUSH1 0x1 PUSH1 0xA0 SHL SUB AND SWAP1 DUP12 SWAP1 PUSH1 0x4 ADD PUSH2 0x1C57 JUMP JUMPDEST PUSH1 0x20 PUSH1 0x40 MLOAD DUP1 DUP4 SUB DUP2 DUP7 GAS DELEGATECALL ISZERO DUP1 ISZERO PUSH2 0x1033 JUMPI RETURNDATASIZE PUSH0 DUP1 RETURNDATACOPY RETURNDATASIZE PUSH0 REVERT JUMPDEST POP POP POP POP PUSH1 0x40 MLOAD RETURNDATASIZE PUSH1 0x1F NOT PUSH1 0x1F DUP3 ADD AND DUP3 ADD DUP1 PUSH1 0x40 MSTORE POP DUP2 ADD SWAP1 PUSH2 0x1057 SWAP2 SWAP1 PUSH2 0x1C40 JUMP JUMPDEST PUSH0 DUP10 DUP2 MSTORE PUSH1 0x9 PUSH1 0x20 SWAP1 DUP2 MSTORE PUSH1 0x40 DUP1 DUP4 KECCAK256 PUSH1 0x7 SWAP1 SWAP3 MSTORE DUP1 DUP4 KECCAK256 SWAP1 MLOAD PUSH4 0xCFE6AA63 PUSH1 0xE0 SHL DUP2 MSTORE PUSH1 0x4 DUP2 ADD SWAP2 SWAP1 SWAP2 MSTORE PUSH1 0x24 DUP2 ADD DUP7 SWAP1 MSTORE SWAP3 SWAP4 POP SWAP2 PUSH20 0x0 SWAP1 PUSH4 0xCFE6AA63 SWAP1 PUSH1 0x44 ADD PUSH1 0x20 PUSH1 0x40 MLOAD DUP1 DUP4 SUB DUP2 DUP7 GAS DELEGATECALL ISZERO DUP1 ISZERO PUSH2 0x10C8 JUMPI RETURNDATASIZE PUSH0 DUP1 RETURNDATACOPY RETURNDATASIZE PUSH0 REVERT JUMPDEST POP POP POP POP PUSH1 0x40 MLOAD RETURNDATASIZE PUSH1 0x1F NOT PUSH1 0x1F DUP3 ADD AND DUP3 ADD DUP1 PUSH1 0x40 MSTORE POP DUP2 ADD SWAP1 PUSH2 0x10EC SWAP2 SWAP1 PUSH2 0x1C40 JUMP JUMPDEST DUP2 MSTORE PUSH1 0x20 DUP2 ADD SWAP2 SWAP1 SWAP2 MSTORE PUSH1 0x40 SWAP1 DUP2 ADD PUSH0 KECCAK256 SWAP1 MLOAD PUSH4 0x129A3965 PUSH1 0xE1 SHL DUP2 MSTORE PUSH1 0x4 DUP2 ADD SWAP2 SWAP1 SWAP2 MSTORE PUSH1 0x24 DUP2 ADD DUP3 SWAP1 MSTORE PUSH20 0x0 SWAP1 PUSH4 0x253472CA SWAP1 PUSH1 0x44 ADD PUSH1 0x20 PUSH1 0x40 MLOAD DUP1 DUP4 SUB DUP2 DUP7 GAS DELEGATECALL ISZERO DUP1 ISZERO PUSH2 0x1152 JUMPI RETURNDATASIZE PUSH0 DUP1 RETURNDATACOPY RETURNDATASIZE PUSH0 REVERT JUMPDEST POP POP POP POP PUSH1 0x40 MLOAD RETURNDATASIZE PUSH1 0x1F NOT PUSH1 0x1F DUP3 ADD AND DUP3 ADD DUP1 PUSH1 0x40 MSTORE POP DUP2 ADD SWAP1 PUSH2 0x1176 SWAP2 SWAP1 PUSH2 0x1C71 JUMP JUMPDEST PUSH2 0x1471 JUMPI PUSH0 DUP9 DUP2 MSTORE PUSH1 0x8 PUSH1 0x20 SWAP1 DUP2 MSTORE PUSH1 0x40 DUP1 DUP4 KECCAK256 PUSH1 0x7 SWAP1 SWAP3 MSTORE DUP1 DUP4 KECCAK256 SWAP1 MLOAD PUSH4 0xCFE6AA63 PUSH1 0xE0 SHL DUP2 MSTORE PUSH1 0x4 DUP2 ADD SWAP2 SWAP1 SWAP2 MSTORE PUSH1 0x24 DUP2 ADD DUP6 SWAP1 MSTORE SWAP1 SWAP2 SWAP1 PUSH20 0x0 SWAP1 PUSH4 0xCFE6AA63 SWAP1 PUSH1 0x44 ADD PUSH1 0x20 PUSH1 0x40 MLOAD DUP1 DUP4 SUB DUP2 DUP7 GAS DELEGATECALL ISZERO DUP1 ISZERO PUSH2 0x11EA JUMPI RETURNDATASIZE PUSH0 DUP1 RETURNDATACOPY RETURNDATASIZE PUSH0 REVERT JUMPDEST POP POP POP POP PUSH1 0x40 MLOAD RETURNDATASIZE PUSH1 0x1F NOT PUSH1 0x1F DUP3 ADD AND DUP3 ADD DUP1 PUSH1 0x40 MSTORE POP DUP2 ADD SWAP1 PUSH2 0x120E SWAP2 SWAP1 PUSH2 0x1C40 JUMP JUMPDEST DUP2 MSTORE PUSH1 0x20 DUP2 ADD SWAP2 SWAP1 SWAP2 MSTORE PUSH1 0x40 SWAP1 DUP2 ADD PUSH0 KECCAK256 SLOAD SWAP1 MLOAD PUSH4 0x4D55FA57 PUSH1 0xE1 SHL DUP2 MSTORE PUSH1 0x1 PUSH1 0x1 PUSH1 0xA0 SHL SUB DUP10 DUP2 AND PUSH1 0x4 DUP4 ADD MSTORE PUSH1 0x24 DUP3 ADD DUP10 SWAP1 MSTORE SWAP1 SWAP2 AND SWAP1 PUSH4 0x9AABF4AE SWAP1 PUSH1 0x44 ADD PUSH1 0x20 PUSH1 0x40 MLOAD DUP1 DUP4 SUB DUP2 PUSH0 DUP8 GAS CALL ISZERO DUP1 ISZERO PUSH2 0x126C JUMPI RETURNDATASIZE PUSH0 DUP1 RETURNDATACOPY RETURNDATASIZE PUSH0 REVERT JUMPDEST POP POP POP POP PUSH1 0x40 MLOAD RETURNDATASIZE PUSH1 0x1F NOT PUSH1 0x1F DUP3 ADD AND DUP3 ADD DUP1 PUSH1 0x40 MSTORE POP DUP2 ADD SWAP1 PUSH2 0x1290 SWAP2 SWAP1 PUSH2 0x1C40 JUMP JUMPDEST POP DUP5 ISZERO PUSH2 0x12AE JUMPI PUSH0 PUSH1 0xE PUSH0 DUP3 DUP3 SLOAD PUSH2 0x12A8 SWAP2 SWAP1 PUSH2 0x1C90 JUMP JUMPDEST SWAP1 SWAP2 SSTORE POP POP JUMPDEST PUSH0 DUP9 DUP2 MSTORE PUSH1 0x9 PUSH1 0x20 SWAP1 DUP2 MSTORE PUSH1 0x40 DUP1 DUP4 KECCAK256 PUSH1 0x7 SWAP1 SWAP3 MSTORE DUP1 DUP4 KECCAK256 SWAP1 MLOAD PUSH4 0xCFE6AA63 PUSH1 0xE0 SHL DUP2 MSTORE PUSH1 0x4 DUP2 ADD SWAP2 SWAP1 SWAP2 MSTORE PUSH1 0x24 DUP2 ADD DUP6 SWAP1 MSTORE SWAP1 SWAP2 SWAP1 PUSH20 0x0 SWAP1 PUSH4 0xCFE6AA63 SWAP1 PUSH1 0x44 ADD PUSH1 0x20 PUSH1 0x40 MLOAD DUP1 DUP4 SUB DUP2 DUP7 GAS DELEGATECALL ISZERO DUP1 ISZERO PUSH2 0x131E JUMPI RETURNDATASIZE PUSH0 DUP1 RETURNDATACOPY RETURNDATASIZE PUSH0 REVERT JUMPDEST POP POP POP POP PUSH1 0x40 MLOAD RETURNDATASIZE PUSH1 0x1F NOT PUSH1 0x1F DUP3 ADD AND DUP3 ADD DUP1 PUSH1 0x40 MSTORE POP DUP2 ADD SWAP1 PUSH2 0x1342 SWAP2 SWAP1 PUSH2 0x1C40 JUMP JUMPDEST DUP2 MSTORE PUSH1 0x20 DUP2 ADD SWAP2 SWAP1 SWAP2 MSTORE PUSH1 0x40 SWAP1 DUP2 ADD PUSH0 KECCAK256 SWAP1 MLOAD PUSH4 0x8B584F4D PUSH1 0xE0 SHL DUP2 MSTORE PUSH1 0x4 DUP2 ADD SWAP2 SWAP1 SWAP2 MSTORE PUSH1 0x24 DUP2 ADD DUP3 SWAP1 MSTORE PUSH20 0x0 SWAP1 PUSH4 0x8B584F4D SWAP1 PUSH1 0x44 ADD PUSH0 PUSH1 0x40 MLOAD DUP1 DUP4 SUB DUP2 DUP7 DUP1 EXTCODESIZE ISZERO DUP1 ISZERO PUSH2 0x13A3 JUMPI PUSH0 DUP1 REVERT JUMPDEST POP GAS DELEGATECALL ISZERO DUP1 ISZERO PUSH2 0x13B5 JUMPI RETURNDATASIZE PUSH0 DUP1 RETURNDATACOPY RETURNDATASIZE PUSH0 REVERT JUMPDEST POP POP POP PUSH0 DUP10 DUP2 MSTORE PUSH1 0xA PUSH1 0x20 SWAP1 DUP2 MSTORE PUSH1 0x40 DUP1 DUP4 KECCAK256 PUSH1 0x7 SWAP1 SWAP3 MSTORE DUP1 DUP4 KECCAK256 SWAP1 MLOAD PUSH4 0xCFE6AA63 PUSH1 0xE0 SHL DUP2 MSTORE PUSH1 0x4 DUP2 ADD SWAP2 SWAP1 SWAP2 MSTORE PUSH1 0x24 DUP2 ADD DUP7 SWAP1 MSTORE SWAP2 SWAP3 POP SWAP1 DUP3 SWAP1 PUSH20 0x0 SWAP1 PUSH4 0xCFE6AA63 SWAP1 PUSH1 0x44 ADD PUSH1 0x20 PUSH1 0x40 MLOAD DUP1 DUP4 SUB DUP2 DUP7 GAS DELEGATECALL ISZERO DUP1 ISZERO PUSH2 0x142B JUMPI RETURNDATASIZE PUSH0 DUP1 RETURNDATACOPY RETURNDATASIZE PUSH0 REVERT JUMPDEST POP POP POP POP PUSH1 0x40 MLOAD RETURNDATASIZE PUSH1 0x1F NOT PUSH1 0x1F DUP3 ADD AND DUP3 ADD DUP1 PUSH1 0x40 MSTORE POP DUP2 ADD SWAP1 PUSH2 0x144F SWAP2 SWAP1 PUSH2 0x1C40 JUMP JUMPDEST DUP2 MSTORE PUSH1 0x20 DUP1 DUP3 ADD SWAP3 SWAP1 SWAP3 MSTORE PUSH1 0x40 SWAP1 DUP2 ADD PUSH0 SWAP1 DUP2 KECCAK256 DUP6 DUP3 MSTORE SWAP1 SWAP3 MSTORE SWAP1 KECCAK256 SSTORE PUSH2 0x1561 JUMP JUMPDEST PUSH0 DUP9 DUP2 MSTORE PUSH1 0xA PUSH1 0x20 SWAP1 DUP2 MSTORE PUSH1 0x40 DUP1 DUP4 KECCAK256 PUSH1 0x7 SWAP1 SWAP3 MSTORE DUP1 DUP4 KECCAK256 SWAP1 MLOAD PUSH4 0xCFE6AA63 PUSH1 0xE0 SHL DUP2 MSTORE PUSH1 0x4 DUP2 ADD SWAP2 SWAP1 SWAP2 MSTORE PUSH1 0x24 DUP2 ADD DUP6 SWAP1 MSTORE SWAP1 SWAP2 SWAP1 PUSH20 0x0 SWAP1 PUSH4 0xCFE6AA63 SWAP1 PUSH1 0x44 ADD PUSH1 0x20 PUSH1 0x40 MLOAD DUP1 DUP4 SUB DUP2 DUP7 GAS DELEGATECALL ISZERO DUP1 ISZERO PUSH2 0x14E1 JUMPI RETURNDATASIZE PUSH0 DUP1 RETURNDATACOPY RETURNDATASIZE PUSH0 REVERT JUMPDEST POP POP POP POP PUSH1 0x40 MLOAD RETURNDATASIZE PUSH1 0x1F NOT PUSH1 0x1F DUP3 ADD AND DUP3 ADD DUP1 PUSH1 0x40 MSTORE POP DUP2 ADD SWAP1 PUSH2 0x1505 SWAP2 SWAP1 PUSH2 0x1C40 JUMP JUMPDEST DUP2 MSTORE PUSH1 0x20 DUP1 DUP3 ADD SWAP3 SWAP1 SWAP3 MSTORE PUSH1 0x40 SWAP1 DUP2 ADD PUSH0 SWAP1 DUP2 KECCAK256 DUP5 DUP3 MSTORE DUP4 MSTORE SWAP1 DUP2 KECCAK256 SLOAD DUP2 DUP1 MSTORE PUSH1 0x6 SWAP1 SWAP3 MSTORE PUSH32 0x54CDD369E4E8A8515E52CA72EC816C2101831AD1F18BF44102ED171459C9B4F9 DUP1 SLOAD SWAP1 SWAP2 SWAP1 PUSH2 0x155B SWAP1 DUP5 SWAP1 PUSH2 0x1C90 JUMP JUMPDEST SWAP1 SWAP2 SSTORE POP POP JUMPDEST POP PUSH1 0x1 ADD PUSH2 0xEA6 JUMP JUMPDEST POP SWAP6 SWAP5 POP POP POP POP POP JUMP JUMPDEST PUSH2 0xE9F DUP2 PUSH1 0x40 MLOAD PUSH1 0x24 ADD PUSH2 0x158A SWAP2 DUP2 MSTORE PUSH1 0x20 ADD SWAP1 JUMP JUMPDEST PUSH1 0x40 DUP1 MLOAD PUSH1 0x1F NOT DUP2 DUP5 SUB ADD DUP2 MSTORE SWAP2 SWAP1 MSTORE PUSH1 0x20 DUP2 ADD DUP1 MLOAD PUSH1 0x1 PUSH1 0x1 PUSH1 0xE0 SHL SUB AND PUSH4 0x2D5B6CB9 PUSH1 0xE0 SHL OR SWAP1 MSTORE PUSH2 0x1A07 JUMP JUMPDEST PUSH0 SLOAD PUSH1 0x1 PUSH1 0x1 PUSH1 0xA0 SHL SUB AND CALLER EQ PUSH2 0xA44 JUMPI CALLER PUSH1 0x40 MLOAD PUSH4 0x118CDAA7 PUSH1 0xE0 SHL DUP2 MSTORE PUSH1 0x4 ADD PUSH2 0xE8D SWAP2 SWAP1 PUSH2 0x1BA8 JUMP JUMPDEST PUSH0 DUP1 SLOAD PUSH1 0x1 PUSH1 0x1 PUSH1 0xA0 SHL SUB DUP4 DUP2 AND PUSH1 0x1 PUSH1 0x1 PUSH1 0xA0 SHL SUB NOT DUP4 AND DUP2 OR DUP5 SSTORE PUSH1 0x40 MLOAD SWAP2 SWAP1 SWAP3 AND SWAP3 DUP4 SWAP2 PUSH32 0x8BE0079C531659141344CD1FD0A4F28419497F9722A3DAAFE3B4186F6B6457E0 SWAP2 SWAP1 LOG3 POP POP JUMP JUMPDEST PUSH1 0x40 MLOAD PUSH4 0x3E9AF3FB PUSH1 0xE2 SHL DUP2 MSTORE PUSH0 SWAP1 PUSH20 0x0 SWAP1 PUSH4 0xFA6BCFEC SWAP1 PUSH2 0x1678 SWAP1 PUSH1 0x1 PUSH1 0x1 PUSH1 0xA0 SHL SUB DUP9 AND SWAP1 DUP7 SWAP1 PUSH1 0x4 ADD PUSH2 0x1C57 JUMP JUMPDEST PUSH1 0x20 PUSH1 0x40 MLOAD DUP1 DUP4 SUB DUP2 DUP7 GAS DELEGATECALL ISZERO DUP1 ISZERO PUSH2 0x1693 JUMPI RETURNDATASIZE PUSH0 DUP1 RETURNDATACOPY RETURNDATASIZE PUSH0 REVERT JUMPDEST POP POP POP POP PUSH1 0x40 MLOAD RETURNDATASIZE PUSH1 0x1F NOT PUSH1 0x1F DUP3 ADD AND DUP3 ADD DUP1 PUSH1 0x40 MSTORE POP DUP2 ADD SWAP1 PUSH2 0x16B7 SWAP2 SWAP1 PUSH2 0x1C40 JUMP JUMPDEST PUSH1 0x40 MLOAD PUSH4 0x8B584F4D PUSH1 0xE0 SHL DUP2 MSTORE PUSH1 0x1 PUSH1 0x4 DUP3 ADD MSTORE PUSH1 0x24 DUP2 ADD DUP3 SWAP1 MSTORE SWAP1 SWAP2 POP PUSH20 0x0 SWAP1 PUSH4 0x8B584F4D SWAP1 PUSH1 0x44 ADD PUSH0 PUSH1 0x40 MLOAD DUP1 DUP4 SUB DUP2 DUP7 DUP1 EXTCODESIZE ISZERO DUP1 ISZERO PUSH2 0x170A JUMPI PUSH0 DUP1 REVERT JUMPDEST POP GAS DELEGATECALL ISZERO DUP1 ISZERO PUSH2 0x171C JUMPI RETURNDATASIZE PUSH0 DUP1 RETURNDATACOPY RETURNDATASIZE PUSH0 REVERT JUMPDEST POP POP POP PUSH0 DUP3 DUP2 MSTORE PUSH1 0x4 PUSH1 0x20 MSTORE PUSH1 0x40 SWAP1 KECCAK256 DUP1 SLOAD PUSH1 0x1 PUSH1 0x1 PUSH1 0xA0 SHL SUB DUP8 AND PUSH1 0x1 PUSH1 0x1 PUSH1 0xA0 SHL SUB NOT DUP3 AND DUP2 OR DUP4 SSTORE DUP7 SWAP4 POP PUSH1 0x1 PUSH1 0x1 PUSH1 0xA8 SHL SUB NOT SWAP1 SWAP2 AND OR PUSH1 0x1 PUSH1 0xA0 SHL DUP4 PUSH1 0x6 DUP2 GT ISZERO PUSH2 0x176E JUMPI PUSH2 0x176E PUSH2 0x1A41 JUMP JUMPDEST MUL OR SWAP1 SSTORE POP PUSH0 SWAP1 DUP2 MSTORE PUSH1 0x4 PUSH1 0x20 MSTORE PUSH1 0x40 SWAP1 KECCAK256 PUSH1 0x1 ADD DUP1 SLOAD PUSH1 0x1 PUSH1 0x1 PUSH1 0xA0 SHL SUB NOT AND PUSH1 0x1 PUSH1 0x1 PUSH1 0xA0 SHL SUB SWAP3 SWAP1 SWAP3 AND SWAP2 SWAP1 SWAP2 OR SWAP1 SSTORE POP POP JUMP JUMPDEST PUSH0 DUP1 SLOAD PUSH1 0x1 PUSH1 0x1 PUSH1 0xA0 SHL SUB AND PUSH1 0x1 PUSH1 0x1 PUSH1 0xA0 SHL SUB AND DUP5 PUSH1 0x1 PUSH1 0x1 PUSH1 0xA0 SHL SUB AND SUB PUSH2 0x17D1 JUMPI POP PUSH1 0x1 PUSH2 0xCC0 JUMP JUMPDEST PUSH1 0x40 MLOAD PUSH4 0x3E9AF3FB PUSH1 0xE2 SHL DUP2 MSTORE PUSH0 SWAP1 PUSH20 0x0 SWAP1 PUSH4 0xFA6BCFEC SWAP1 PUSH2 0x1815 SWAP1 PUSH1 0x1 PUSH1 0x1 PUSH1 0xA0 SHL SUB DUP10 AND SWAP1 DUP8 SWAP1 PUSH1 0x4 ADD PUSH2 0x1C57 JUMP JUMPDEST PUSH1 0x20 PUSH1 0x40 MLOAD DUP1 DUP4 SUB DUP2 DUP7 GAS DELEGATECALL ISZERO DUP1 ISZERO PUSH2 0x1830 JUMPI RETURNDATASIZE PUSH0 DUP1 RETURNDATACOPY RETURNDATASIZE PUSH0 REVERT JUMPDEST POP POP POP POP PUSH1 0x40 MLOAD RETURNDATASIZE PUSH1 0x1F NOT PUSH1 0x1F DUP3 ADD AND DUP3 ADD DUP1 PUSH1 0x40 MSTORE POP DUP2 ADD SWAP1 PUSH2 0x1854 SWAP2 SWAP1 PUSH2 0x1C40 JUMP JUMPDEST PUSH1 0x40 MLOAD PUSH4 0x129A3965 PUSH1 0xE1 SHL DUP2 MSTORE PUSH1 0x1 PUSH1 0x4 DUP3 ADD MSTORE PUSH1 0x24 DUP2 ADD DUP3 SWAP1 MSTORE SWAP1 SWAP2 POP PUSH20 0x0 SWAP1 PUSH4 0x253472CA SWAP1 PUSH1 0x44 ADD PUSH1 0x20 PUSH1 0x40 MLOAD DUP1 DUP4 SUB DUP2 DUP7 GAS DELEGATECALL ISZERO DUP1 ISZERO PUSH2 0x18AC JUMPI RETURNDATASIZE PUSH0 DUP1 RETURNDATACOPY RETURNDATASIZE PUSH0 REVERT JUMPDEST POP POP POP POP PUSH1 0x40 MLOAD RETURNDATASIZE PUSH1 0x1F NOT PUSH1 0x1F DUP3 ADD AND DUP3 ADD DUP1 PUSH1 0x40 MSTORE POP DUP2 ADD SWAP1 PUSH2 0x18D0 SWAP2 SWAP1 PUSH2 0x1C71 JUMP JUMPDEST ISZERO PUSH2 0xE52 JUMPI DUP4 PUSH1 0x6 DUP2 GT ISZERO PUSH2 0x18E7 JUMPI PUSH2 0x18E7 PUSH2 0x1A41 JUMP JUMPDEST PUSH0 DUP3 DUP2 MSTORE PUSH1 0x4 PUSH1 0x20 MSTORE PUSH1 0x40 SWAP1 KECCAK256 SLOAD PUSH1 0x1 PUSH1 0xA0 SHL SWAP1 DIV PUSH1 0xFF AND PUSH1 0x6 DUP2 GT ISZERO PUSH2 0x1910 JUMPI PUSH2 0x1910 PUSH2 0x1A41 JUMP JUMPDEST GT ISZERO DUP1 ISZERO PUSH2 0x195B JUMPI POP PUSH0 DUP2 DUP2 MSTORE PUSH1 0x4 PUSH1 0x20 MSTORE PUSH1 0x40 SWAP1 KECCAK256 PUSH1 0x1 ADD SLOAD PUSH1 0x1 PUSH1 0x1 PUSH1 0xA0 SHL SUB AND ADDRESS EQ DUP1 PUSH2 0x195B JUMPI POP PUSH0 DUP2 DUP2 MSTORE PUSH1 0x4 PUSH1 0x20 MSTORE PUSH1 0x40 SWAP1 KECCAK256 PUSH1 0x1 ADD SLOAD PUSH1 0x1 PUSH1 0x1 PUSH1 0xA0 SHL SUB DUP5 DUP2 AND SWAP2 AND EQ JUMPDEST ISZERO PUSH2 0xE52 JUMPI PUSH1 0x1 SWAP2 POP POP PUSH2 0xCC0 JUMP JUMPDEST PUSH0 DUP3 PUSH1 0x6 DUP2 GT ISZERO PUSH2 0x197D JUMPI PUSH2 0x197D PUSH2 0x1A41 JUMP JUMPDEST PUSH0 DUP6 DUP2 MSTORE PUSH1 0x4 PUSH1 0x20 MSTORE PUSH1 0x40 SWAP1 KECCAK256 SLOAD PUSH1 0x1 PUSH1 0xA0 SHL SWAP1 DIV PUSH1 0xFF AND PUSH1 0x6 DUP2 GT ISZERO PUSH2 0x19A6 JUMPI PUSH2 0x19A6 PUSH2 0x1A41 JUMP JUMPDEST GT ISZERO DUP1 ISZERO PUSH2 0x19F1 JUMPI POP PUSH0 DUP5 DUP2 MSTORE PUSH1 0x4 PUSH1 0x20 MSTORE PUSH1 0x40 SWAP1 KECCAK256 PUSH1 0x1 ADD SLOAD PUSH1 0x1 PUSH1 0x1 PUSH1 0xA0 SHL SUB AND ADDRESS EQ DUP1 PUSH2 0x19F1 JUMPI POP PUSH0 DUP5 DUP2 MSTORE PUSH1 0x4 PUSH1 0x20 MSTORE PUSH1 0x40 SWAP1 KECCAK256 PUSH1 0x1 ADD SLOAD PUSH1 0x1 PUSH1 0x1 PUSH1 0xA0 SHL SUB DUP4 DUP2 AND SWAP2 AND EQ JUMPDEST ISZERO PUSH2 0x19FE JUMPI POP PUSH1 0x1 PUSH2 0xCC0 JUMP JUMPDEST POP PUSH0 SWAP4 SWAP3 POP POP POP JUMP JUMPDEST PUSH2 0xE9F DUP2 PUSH0 PUSH11 0x636F6E736F6C652E6C6F67 SWAP1 POP PUSH0 DUP1 DUP4 MLOAD PUSH1 0x20 DUP6 ADD DUP5 GAS STATICCALL POP POP POP JUMP JUMPDEST PUSH0 PUSH1 0x20 DUP3 DUP5 SUB SLT ISZERO PUSH2 0x1A3A JUMPI PUSH0 DUP1 REVERT JUMPDEST POP CALLDATALOAD SWAP2 SWAP1 POP JUMP JUMPDEST PUSH4 0x4E487B71 PUSH1 0xE0 SHL PUSH0 MSTORE PUSH1 0x21 PUSH1 0x4 MSTORE PUSH1 0x24 PUSH0 REVERT JUMPDEST DUP2 MLOAD PUSH1 0x1 PUSH1 0x1 PUSH1 0xA0 SHL SUB AND DUP2 MSTORE PUSH1 0x20 DUP3 ADD MLOAD PUSH1 0x60 DUP3 ADD SWAP1 PUSH1 0x7 DUP2 LT PUSH2 0x1A88 JUMPI PUSH4 0x4E487B71 PUSH1 0xE0 SHL PUSH0 MSTORE PUSH1 0x21 PUSH1 0x4 MSTORE PUSH1 0x24 PUSH0 REVERT JUMPDEST PUSH1 0x20 DUP4 ADD MSTORE PUSH1 0x40 SWAP3 DUP4 ADD MLOAD PUSH1 0x1 PUSH1 0x1 PUSH1 0xA0 SHL SUB AND SWAP3 SWAP1 SWAP2 ADD SWAP2 SWAP1 SWAP2 MSTORE SWAP1 JUMP JUMPDEST DUP1 CALLDATALOAD PUSH1 0x1 PUSH1 0x1 PUSH1 0xA0 SHL SUB DUP2 AND DUP2 EQ PUSH2 0x1ABD JUMPI PUSH0 DUP1 REVERT JUMPDEST SWAP2 SWAP1 POP JUMP JUMPDEST PUSH0 DUP1 PUSH1 0x40 DUP4 DUP6 SUB SLT ISZERO PUSH2 0x1AD3 JUMPI PUSH0 DUP1 REVERT JUMPDEST DUP3 CALLDATALOAD PUSH1 0x6 DUP2 LT PUSH2 0x1AE1 JUMPI PUSH0 DUP1 REVERT JUMPDEST SWAP2 POP PUSH2 0x1AEF PUSH1 0x20 DUP5 ADD PUSH2 0x1AA7 JUMP JUMPDEST SWAP1 POP SWAP3 POP SWAP3 SWAP1 POP JUMP JUMPDEST PUSH0 DUP1 PUSH1 0x40 DUP4 DUP6 SUB SLT ISZERO PUSH2 0x1B09 JUMPI PUSH0 DUP1 REVERT JUMPDEST PUSH2 0x1AE1 DUP4 PUSH2 0x1AA7 JUMP JUMPDEST PUSH0 DUP1 PUSH0 DUP1 PUSH1 0x80 DUP6 DUP8 SUB SLT ISZERO PUSH2 0x1B25 JUMPI PUSH0 DUP1 REVERT JUMPDEST PUSH2 0x1B2E DUP6 PUSH2 0x1AA7 JUMP JUMPDEST SWAP4 POP PUSH2 0x1B3C PUSH1 0x20 DUP7 ADD PUSH2 0x1AA7 JUMP JUMPDEST SWAP3 POP PUSH2 0x1B4A PUSH1 0x40 DUP7 ADD PUSH2 0x1AA7 JUMP JUMPDEST SWAP4 SWAP7 SWAP3 SWAP6 POP SWAP3 SWAP4 PUSH1 0x60 ADD CALLDATALOAD SWAP3 POP POP JUMP JUMPDEST DUP1 CALLDATALOAD PUSH1 0x7 DUP2 LT PUSH2 0x1ABD JUMPI PUSH0 DUP1 REVERT JUMPDEST PUSH0 DUP1 PUSH0 PUSH1 0x60 DUP5 DUP7 SUB SLT ISZERO PUSH2 0x1B7A JUMPI PUSH0 DUP1 REVERT JUMPDEST PUSH2 0x1B83 DUP5 PUSH2 0x1AA7 JUMP JUMPDEST SWAP3 POP PUSH2 0x1B91 PUSH1 0x20 DUP6 ADD PUSH2 0x1B5A JUMP JUMPDEST SWAP2 POP PUSH2 0x1B9F PUSH1 0x40 DUP6 ADD PUSH2 0x1AA7 JUMP JUMPDEST SWAP1 POP SWAP3 POP SWAP3 POP SWAP3 JUMP JUMPDEST PUSH1 0x1 PUSH1 0x1 PUSH1 0xA0 SHL SUB SWAP2 SWAP1 SWAP2 AND DUP2 MSTORE PUSH1 0x20 ADD SWAP1 JUMP JUMPDEST PUSH0 DUP1 PUSH1 0x40 DUP4 DUP6 SUB SLT ISZERO PUSH2 0x1BCD JUMPI PUSH0 DUP1 REVERT JUMPDEST POP POP DUP1 CALLDATALOAD SWAP3 PUSH1 0x20 SWAP1 SWAP2 ADD CALLDATALOAD SWAP2 POP JUMP JUMPDEST PUSH0 DUP1 PUSH0 PUSH1 0x60 DUP5 DUP7 SUB SLT ISZERO PUSH2 0x1BEE JUMPI PUSH0 DUP1 REVERT JUMPDEST PUSH2 0x1BF7 DUP5 PUSH2 0x1AA7 JUMP JUMPDEST SWAP3 POP PUSH2 0x1C05 PUSH1 0x20 DUP6 ADD PUSH2 0x1AA7 JUMP JUMPDEST SWAP2 POP PUSH2 0x1B9F PUSH1 0x40 DUP6 ADD PUSH2 0x1B5A JUMP JUMPDEST PUSH0 PUSH1 0x20 DUP3 DUP5 SUB SLT ISZERO PUSH2 0x1C23 JUMPI PUSH0 DUP1 REVERT JUMPDEST PUSH2 0xCC0 DUP3 PUSH2 0x1AA7 JUMP JUMPDEST PUSH4 0x4E487B71 PUSH1 0xE0 SHL PUSH0 MSTORE PUSH1 0x1 PUSH1 0x4 MSTORE PUSH1 0x24 PUSH0 REVERT JUMPDEST PUSH0 PUSH1 0x20 DUP3 DUP5 SUB SLT ISZERO PUSH2 0x1C50 JUMPI PUSH0 DUP1 REVERT JUMPDEST POP MLOAD SWAP2 SWAP1 POP JUMP JUMPDEST PUSH1 0x1 PUSH1 0x1 PUSH1 0xA0 SHL SUB SWAP3 DUP4 AND DUP2 MSTORE SWAP2 AND PUSH1 0x20 DUP3 ADD MSTORE PUSH1 0x40 ADD SWAP1 JUMP JUMPDEST PUSH0 PUSH1 0x20 DUP3 DUP5 SUB SLT ISZERO PUSH2 0x1C81 JUMPI PUSH0 DUP1 REVERT JUMPDEST DUP2 MLOAD DUP1 ISZERO ISZERO DUP2 EQ PUSH2 0xCC0 JUMPI PUSH0 DUP1 REVERT JUMPDEST DUP1 DUP3 ADD DUP3 DUP2 SLT PUSH0 DUP4 SLT DUP1 ISZERO DUP3 AND DUP3 ISZERO DUP3 AND OR ISZERO PUSH2 0x1CBB JUMPI PUSH4 0x4E487B71 PUSH1 0xE0 SHL PUSH0 MSTORE PUSH1 0x11 PUSH1 0x4 MSTORE PUSH1 0x24 PUSH0 REVERT JUMPDEST POP POP SWAP3 SWAP2 POP POP JUMP INVALID LOG2 PUSH5 0x6970667358 0x22 SLT KECCAK256 SWAP1 0xCB DUP15 DUP5 PUSH0 REVERT 0xE4 0xC1 DUP3 GASPRICE PUSH28 0x15AE3ADC75B1EDACEF02578B43303F38F30D8C04564736F6C634300 ADDMOD BYTE STOP CALLER "
		},
		"gasEstimates": {
			"creation": {
				"codeDepositCost": "1483400",
				"executionCost": "51626",
				"totalCost": "1535026"
			},
			"external": {
				"AccessIsClass(address,address,uint8)": "infinite",
				"AccessRegistryCount()": "infinite",
				"BATCH_SIZE()": "228",
				"GetAccess(address,address)": "infinite",
				"GetAccessByIndex(uint256)": "infinite",
				"HasAccess(address,uint8,address)": "infinite",
				"MasterMap(uint256,uint256)": "2704",
				"RegisterAccess(address,uint8,address)": "infinite",
				"RemoveAccess(address,address)": "infinite",
				"addressList(uint256)": "4657",
				"basisCaller()": "2328",
				"basisFrom()": "2327",
				"basisTo()": "2372",
				"calculateAndSumBasis(address,address,address,int256)": "infinite",
				"noeTrader(uint256)": "11046",
				"owner()": "2365",
				"previousBatchIndex()": "2371",
				"renounceOwnership()": "infinite",
				"saveVibes(uint8,address)": "infinite",
				"sumBasis()": "2372",
				"trade()": "2377",
				"transferOwnership(address)": "28461"
			},
			"internal": {
				"processTradeType(uint256,address,int256,bool)": "infinite"
			}
		},
		"methodIdentifiers": {
			"AccessIsClass(address,address,uint8)": "ccf61fc3",
			"AccessRegistryCount()": "0e10d955",
			"BATCH_SIZE()": "49faa4d4",
			"GetAccess(address,address)": "2457ed42",
			"GetAccessByIndex(uint256)": "1a2eff27",
			"HasAccess(address,uint8,address)": "f29a1bdd",
			"MasterMap(uint256,uint256)": "abbf468a",
			"RegisterAccess(address,uint8,address)": "7981fb07",
			"RemoveAccess(address,address)": "4a78e1e3",
			"addressList(uint256)": "b810fb43",
			"basisCaller()": "8fb4772f",
			"basisFrom()": "c9678a21",
			"basisTo()": "549cc69b",
			"calculateAndSumBasis(address,address,address,int256)": "2f9095b5",
			"noeTrader(uint256)": "a970de0e",
			"owner()": "8da5cb5b",
			"previousBatchIndex()": "d0ef3d3f",
			"renounceOwnership()": "715018a6",
			"saveVibes(uint8,address)": "22392565",
			"sumBasis()": "aa46dbf6",
			"trade()": "1f0ba6c9",
			"transferOwnership(address)": "f2fde38b"
		}
	},
	"abi": [
		{
			"inputs": [],
			"stateMutability": "nonpayable",
			"type": "constructor"
		},
		{
			"inputs": [],
			"name": "AlreadyProposed",
			"type": "error"
		},
		{
			"inputs": [],
			"name": "NotAllowedAccess",
			"type": "error"
		},
		{
			"inputs": [
				{
					"internalType": "address",
					"name": "owner",
					"type": "address"
				}
			],
			"name": "OwnableInvalidOwner",
			"type": "error"
		},
		{
			"inputs": [
				{
					"internalType": "address",
					"name": "account",
					"type": "address"
				}
			],
			"name": "OwnableUnauthorizedAccount",
			"type": "error"
		},
		{
			"anonymous": false,
			"inputs": [
				{
					"indexed": true,
					"internalType": "address",
					"name": "previousOwner",
					"type": "address"
				},
				{
					"indexed": true,
					"internalType": "address",
					"name": "newOwner",
					"type": "address"
				}
			],
			"name": "OwnershipTransferred",
			"type": "event"
		},
		{
			"anonymous": false,
			"inputs": [
				{
					"indexed": false,
					"internalType": "address",
					"name": "newContractClass",
					"type": "address"
				},
				{
					"indexed": false,
					"internalType": "bool",
					"name": "approval",
					"type": "bool"
				}
			],
			"name": "whitelistedClassContractFeeChange",
			"type": "event"
		},
		{
			"anonymous": false,
			"inputs": [
				{
					"indexed": false,
					"internalType": "address",
					"name": "newFromClass",
					"type": "address"
				},
				{
					"indexed": false,
					"internalType": "bool",
					"name": "approval",
					"type": "bool"
				}
			],
			"name": "whitelistedClassFromFeeChange",
			"type": "event"
		},
		{
			"anonymous": false,
			"inputs": [
				{
					"indexed": false,
					"internalType": "address",
					"name": "newToClass",
					"type": "address"
				},
				{
					"indexed": false,
					"internalType": "bool",
					"name": "approval",
					"type": "bool"
				}
			],
			"name": "whitelistedClassToFeeChange",
			"type": "event"
		},
		{
			"inputs": [
				{
					"internalType": "address",
					"name": "user",
					"type": "address"
				},
				{
					"internalType": "address",
					"name": "dom",
					"type": "address"
				},
				{
					"internalType": "enum AccessRegistry.AccessType",
					"name": "class",
					"type": "uint8"
				}
			],
			"name": "AccessIsClass",
			"outputs": [
				{
					"internalType": "bool",
					"name": "",
					"type": "bool"
				}
			],
			"stateMutability": "view",
			"type": "function"
		},
		{
			"inputs": [],
			"name": "AccessRegistryCount",
			"outputs": [
				{
					"internalType": "uint256",
					"name": "",
					"type": "uint256"
				}
			],
			"stateMutability": "view",
			"type": "function"
		},
		{
			"inputs": [],
			"name": "BATCH_SIZE",
			"outputs": [
				{
					"internalType": "uint256",
					"name": "",
					"type": "uint256"
				}
			],
			"stateMutability": "view",
			"type": "function"
		},
		{
			"inputs": [
				{
					"internalType": "address",
					"name": "user",
					"type": "address"
				},
				{
					"internalType": "address",
					"name": "dom",
					"type": "address"
				}
			],
			"name": "GetAccess",
			"outputs": [
				{
					"components": [
						{
							"internalType": "address",
							"name": "Address",
							"type": "address"
						},
						{
							"internalType": "enum AccessRegistry.AccessType",
							"name": "Class",
							"type": "uint8"
						},
						{
							"internalType": "address",
							"name": "Domain",
							"type": "address"
						}
					],
					"internalType": "struct AccessRegistry.Accessor",
					"name": "",
					"type": "tuple"
				}
			],
			"stateMutability": "view",
			"type": "function"
		},
		{
			"inputs": [
				{
					"internalType": "uint256",
					"name": "i",
					"type": "uint256"
				}
			],
			"name": "GetAccessByIndex",
			"outputs": [
				{
					"components": [
						{
							"internalType": "address",
							"name": "Address",
							"type": "address"
						},
						{
							"internalType": "enum AccessRegistry.AccessType",
							"name": "Class",
							"type": "uint8"
						},
						{
							"internalType": "address",
							"name": "Domain",
							"type": "address"
						}
					],
					"internalType": "struct AccessRegistry.Accessor",
					"name": "",
					"type": "tuple"
				}
			],
			"stateMutability": "view",
			"type": "function"
		},
		{
			"inputs": [
				{
					"internalType": "address",
					"name": "user",
					"type": "address"
				},
				{
					"internalType": "enum AccessRegistry.AccessType",
					"name": "min",
					"type": "uint8"
				},
				{
					"internalType": "address",
					"name": "dom",
					"type": "address"
				}
			],
			"name": "HasAccess",
			"outputs": [
				{
					"internalType": "bool",
					"name": "",
					"type": "bool"
				}
			],
			"stateMutability": "view",
			"type": "function"
		},
		{
			"inputs": [
				{
					"internalType": "uint256",
					"name": "",
					"type": "uint256"
				},
				{
					"internalType": "uint256",
					"name": "",
					"type": "uint256"
				}
			],
			"name": "MasterMap",
			"outputs": [
				{
					"internalType": "address",
					"name": "",
					"type": "address"
				}
			],
			"stateMutability": "view",
			"type": "function"
		},
		{
			"inputs": [
				{
					"internalType": "address",
					"name": "addr",
					"type": "address"
				},
				{
					"internalType": "enum AccessRegistry.AccessType",
					"name": "class",
					"type": "uint8"
				},
				{
					"internalType": "address",
					"name": "dom",
					"type": "address"
				}
			],
			"name": "RegisterAccess",
			"outputs": [],
			"stateMutability": "nonpayable",
			"type": "function"
		},
		{
			"inputs": [
				{
					"internalType": "address",
					"name": "user",
					"type": "address"
				},
				{
					"internalType": "address",
					"name": "dom",
					"type": "address"
				}
			],
			"name": "RemoveAccess",
			"outputs": [],
			"stateMutability": "nonpayable",
			"type": "function"
		},
		{
			"inputs": [
				{
					"internalType": "uint256",
					"name": "",
					"type": "uint256"
				}
			],
			"name": "addressList",
			"outputs": [
				{
					"internalType": "address",
					"name": "",
					"type": "address"
				}
			],
			"stateMutability": "view",
			"type": "function"
		},
		{
			"inputs": [],
			"name": "basisCaller",
			"outputs": [
				{
					"internalType": "int256",
					"name": "",
					"type": "int256"
				}
			],
			"stateMutability": "view",
			"type": "function"
		},
		{
			"inputs": [],
			"name": "basisFrom",
			"outputs": [
				{
					"internalType": "int256",
					"name": "",
					"type": "int256"
				}
			],
			"stateMutability": "view",
			"type": "function"
		},
		{
			"inputs": [],
			"name": "basisTo",
			"outputs": [
				{
					"internalType": "int256",
					"name": "",
					"type": "int256"
				}
			],
			"stateMutability": "view",
			"type": "function"
		},
		{
			"inputs": [
				{
					"internalType": "address",
					"name": "origin",
					"type": "address"
				},
				{
					"internalType": "address",
					"name": "from",
					"type": "address"
				},
				{
					"internalType": "address",
					"name": "to",
					"type": "address"
				},
				{
					"internalType": "int256",
					"name": "amount",
					"type": "int256"
				}
			],
			"name": "calculateAndSumBasis",
			"outputs": [
				{
					"internalType": "int256",
					"name": "",
					"type": "int256"
				}
			],
			"stateMutability": "nonpayable",
			"type": "function"
		},
		{
			"inputs": [
				{
					"internalType": "uint256",
					"name": "",
					"type": "uint256"
				}
			],
			"name": "noeTrader",
			"outputs": [
				{
					"internalType": "uint256",
					"name": "basisFrom",
					"type": "uint256"
				},
				{
					"internalType": "int256",
					"name": "basisTo",
					"type": "int256"
				},
				{
					"internalType": "int256",
					"name": "basisCaller",
					"type": "int256"
				},
				{
					"internalType": "int256",
					"name": "basissneder",
					"type": "int256"
				},
				{
					"internalType": "int256",
					"name": "amount",
					"type": "int256"
				}
			],
			"stateMutability": "view",
			"type": "function"
		},
		{
			"inputs": [],
			"name": "owner",
			"outputs": [
				{
					"internalType": "address",
					"name": "",
					"type": "address"
				}
			],
			"stateMutability": "view",
			"type": "function"
		},
		{
			"inputs": [],
			"name": "previousBatchIndex",
			"outputs": [
				{
					"internalType": "uint256",
					"name": "",
					"type": "uint256"
				}
			],
			"stateMutability": "view",
			"type": "function"
		},
		{
			"inputs": [],
			"name": "renounceOwnership",
			"outputs": [],
			"stateMutability": "nonpayable",
			"type": "function"
		},
		{
			"inputs": [
				{
					"internalType": "enum ClassRegistry.TradeType",
					"name": "tradem",
					"type": "uint8"
				},
				{
					"internalType": "address",
					"name": "class",
					"type": "address"
				}
			],
			"name": "saveVibes",
			"outputs": [],
			"stateMutability": "nonpayable",
			"type": "function"
		},
		{
			"inputs": [],
			"name": "sumBasis",
			"outputs": [
				{
					"internalType": "int256",
					"name": "",
					"type": "int256"
				}
			],
			"stateMutability": "view",
			"type": "function"
		},
		{
			"inputs": [],
			"name": "trade",
			"outputs": [
				{
					"internalType": "bool",
					"name": "",
					"type": "bool"
				}
			],
			"stateMutability": "view",
			"type": "function"
		},
		{
			"inputs": [
				{
					"internalType": "address",
					"name": "newOwner",
					"type": "address"
				}
			],
			"name": "transferOwnership",
			"outputs": [],
			"stateMutability": "nonpayable",
			"type": "function"
		}
	]
}