{
	"data": {
		"bytecode": {
			"linkReferences": {},
			"object": "610100604052348015610010575f80fd5b506040516103d13803806103d183398101604081905261002f9161009b565b60188210801561003f5750601881105b6100845760405162461bcd60e51b8152602060048201526012602482015271496e76616c6964207065616b20686f75727360701b604482015260640160405180910390fd5b60809390935260a09190915260c05260e0526100ce565b5f805f80608085870312156100ae575f80fd5b505082516020840151604085015160609095015191969095509092509050565b60805160a05160c05160e0516102b86101195f395f818160e5015261016801525f81816097015261013d01525f8181605e01526101ba01525f818160be015261019101526102b85ff3fe608060405234801561000f575f80fd5b5060043610610055575f3560e01c80631c28a18a14610059578063434d5a3614610092578063470b33ec146100b9578063918ec498146100e0578063b4dd204214610107575b5f80fd5b6100807f000000000000000000000000000000000000000000000000000000000000000081565b60405190815260200160405180910390f35b6100807f000000000000000000000000000000000000000000000000000000000000000081565b6100807f000000000000000000000000000000000000000000000000000000000000000081565b6100807f000000000000000000000000000000000000000000000000000000000000000081565b610080610115366004610200565b5f806018603c610125814261025c565b61012f919061025c565b610139919061026f565b90507f0000000000000000000000000000000000000000000000000000000000000000811015801561018a57507f000000000000000000000000000000000000000000000000000000000000000081105b156101b8577f00000000000000000000000000000000000000000000000000000000000000009150506101dd565b7f00000000000000000000000000000000000000000000000000000000000000009150505b949350505050565b80356001600160a01b03811681146101fb575f80fd5b919050565b5f805f8060808587031215610213575f80fd5b61021c856101e5565b935061022a602086016101e5565b9250610238604086016101e5565b9396929550929360600135925050565b634e487b7160e01b5f52601260045260245ffd5b5f8261026a5761026a610248565b500490565b5f8261027d5761027d610248565b50069056fea2646970667358221220e42701d470f52928c61dd70602bf0a692f89825a213fe1d058b359917285e3fd64736f6c634300081a0033",
			"opcodes": "PUSH2 0x100 PUSH1 0x40 MSTORE CALLVALUE DUP1 ISZERO PUSH2 0x10 JUMPI PUSH0 DUP1 REVERT JUMPDEST POP PUSH1 0x40 MLOAD PUSH2 0x3D1 CODESIZE SUB DUP1 PUSH2 0x3D1 DUP4 CODECOPY DUP2 ADD PUSH1 0x40 DUP2 SWAP1 MSTORE PUSH2 0x2F SWAP2 PUSH2 0x9B JUMP JUMPDEST PUSH1 0x18 DUP3 LT DUP1 ISZERO PUSH2 0x3F JUMPI POP PUSH1 0x18 DUP2 LT JUMPDEST PUSH2 0x84 JUMPI PUSH1 0x40 MLOAD PUSH3 0x461BCD PUSH1 0xE5 SHL DUP2 MSTORE PUSH1 0x20 PUSH1 0x4 DUP3 ADD MSTORE PUSH1 0x12 PUSH1 0x24 DUP3 ADD MSTORE PUSH18 0x496E76616C6964207065616B20686F757273 PUSH1 0x70 SHL PUSH1 0x44 DUP3 ADD MSTORE PUSH1 0x64 ADD PUSH1 0x40 MLOAD DUP1 SWAP2 SUB SWAP1 REVERT JUMPDEST PUSH1 0x80 SWAP4 SWAP1 SWAP4 MSTORE PUSH1 0xA0 SWAP2 SWAP1 SWAP2 MSTORE PUSH1 0xC0 MSTORE PUSH1 0xE0 MSTORE PUSH2 0xCE JUMP JUMPDEST PUSH0 DUP1 PUSH0 DUP1 PUSH1 0x80 DUP6 DUP8 SUB SLT ISZERO PUSH2 0xAE JUMPI PUSH0 DUP1 REVERT JUMPDEST POP POP DUP3 MLOAD PUSH1 0x20 DUP5 ADD MLOAD PUSH1 0x40 DUP6 ADD MLOAD PUSH1 0x60 SWAP1 SWAP6 ADD MLOAD SWAP2 SWAP7 SWAP1 SWAP6 POP SWAP1 SWAP3 POP SWAP1 POP JUMP JUMPDEST PUSH1 0x80 MLOAD PUSH1 0xA0 MLOAD PUSH1 0xC0 MLOAD PUSH1 0xE0 MLOAD PUSH2 0x2B8 PUSH2 0x119 PUSH0 CODECOPY PUSH0 DUP2 DUP2 PUSH1 0xE5 ADD MSTORE PUSH2 0x168 ADD MSTORE PUSH0 DUP2 DUP2 PUSH1 0x97 ADD MSTORE PUSH2 0x13D ADD MSTORE PUSH0 DUP2 DUP2 PUSH1 0x5E ADD MSTORE PUSH2 0x1BA ADD MSTORE PUSH0 DUP2 DUP2 PUSH1 0xBE ADD MSTORE PUSH2 0x191 ADD MSTORE PUSH2 0x2B8 PUSH0 RETURN INVALID PUSH1 0x80 PUSH1 0x40 MSTORE CALLVALUE DUP1 ISZERO PUSH2 0xF JUMPI PUSH0 DUP1 REVERT JUMPDEST POP PUSH1 0x4 CALLDATASIZE LT PUSH2 0x55 JUMPI PUSH0 CALLDATALOAD PUSH1 0xE0 SHR DUP1 PUSH4 0x1C28A18A EQ PUSH2 0x59 JUMPI DUP1 PUSH4 0x434D5A36 EQ PUSH2 0x92 JUMPI DUP1 PUSH4 0x470B33EC EQ PUSH2 0xB9 JUMPI DUP1 PUSH4 0x918EC498 EQ PUSH2 0xE0 JUMPI DUP1 PUSH4 0xB4DD2042 EQ PUSH2 0x107 JUMPI JUMPDEST PUSH0 DUP1 REVERT JUMPDEST PUSH2 0x80 PUSH32 0x0 DUP2 JUMP JUMPDEST PUSH1 0x40 MLOAD SWAP1 DUP2 MSTORE PUSH1 0x20 ADD PUSH1 0x40 MLOAD DUP1 SWAP2 SUB SWAP1 RETURN JUMPDEST PUSH2 0x80 PUSH32 0x0 DUP2 JUMP JUMPDEST PUSH2 0x80 PUSH32 0x0 DUP2 JUMP JUMPDEST PUSH2 0x80 PUSH32 0x0 DUP2 JUMP JUMPDEST PUSH2 0x80 PUSH2 0x115 CALLDATASIZE PUSH1 0x4 PUSH2 0x200 JUMP JUMPDEST PUSH0 DUP1 PUSH1 0x18 PUSH1 0x3C PUSH2 0x125 DUP2 TIMESTAMP PUSH2 0x25C JUMP JUMPDEST PUSH2 0x12F SWAP2 SWAP1 PUSH2 0x25C JUMP JUMPDEST PUSH2 0x139 SWAP2 SWAP1 PUSH2 0x26F JUMP JUMPDEST SWAP1 POP PUSH32 0x0 DUP2 LT ISZERO DUP1 ISZERO PUSH2 0x18A JUMPI POP PUSH32 0x0 DUP2 LT JUMPDEST ISZERO PUSH2 0x1B8 JUMPI PUSH32 0x0 SWAP2 POP POP PUSH2 0x1DD JUMP JUMPDEST PUSH32 0x0 SWAP2 POP POP JUMPDEST SWAP5 SWAP4 POP POP POP POP JUMP JUMPDEST DUP1 CALLDATALOAD PUSH1 0x1 PUSH1 0x1 PUSH1 0xA0 SHL SUB DUP2 AND DUP2 EQ PUSH2 0x1FB JUMPI PUSH0 DUP1 REVERT JUMPDEST SWAP2 SWAP1 POP JUMP JUMPDEST PUSH0 DUP1 PUSH0 DUP1 PUSH1 0x80 DUP6 DUP8 SUB SLT ISZERO PUSH2 0x213 JUMPI PUSH0 DUP1 REVERT JUMPDEST PUSH2 0x21C DUP6 PUSH2 0x1E5 JUMP JUMPDEST SWAP4 POP PUSH2 0x22A PUSH1 0x20 DUP7 ADD PUSH2 0x1E5 JUMP JUMPDEST SWAP3 POP PUSH2 0x238 PUSH1 0x40 DUP7 ADD PUSH2 0x1E5 JUMP JUMPDEST SWAP4 SWAP7 SWAP3 SWAP6 POP SWAP3 SWAP4 PUSH1 0x60 ADD CALLDATALOAD SWAP3 POP POP JUMP JUMPDEST PUSH4 0x4E487B71 PUSH1 0xE0 SHL PUSH0 MSTORE PUSH1 0x12 PUSH1 0x4 MSTORE PUSH1 0x24 PUSH0 REVERT JUMPDEST PUSH0 DUP3 PUSH2 0x26A JUMPI PUSH2 0x26A PUSH2 0x248 JUMP JUMPDEST POP DIV SWAP1 JUMP JUMPDEST PUSH0 DUP3 PUSH2 0x27D JUMPI PUSH2 0x27D PUSH2 0x248 JUMP JUMPDEST POP MOD SWAP1 JUMP INVALID LOG2 PUSH5 0x6970667358 0x22 SLT KECCAK256 0xE4 0x27 ADD 0xD4 PUSH17 0xF52928C61DD70602BF0A692F89825A213F 0xE1 0xD0 PC 0xB3 MSIZE SWAP2 PUSH19 0x85E3FD64736F6C634300081A00330000000000 "
		},
		"gasEstimates": {
			"creation": {
				"codeDepositCost": "139200",
				"executionCost": "infinite",
				"totalCost": "infinite"
			},
			"external": {
				"calculateTotalBasisFee(address,address,address,uint256)": "infinite",
				"offPeakRateBasisPoints()": "infinite",
				"peakEndHour()": "infinite",
				"peakRateBasisPoints()": "infinite",
				"peakStartHour()": "infinite"
			}
		},
		"methodIdentifiers": {
			"calculateTotalBasisFee(address,address,address,uint256)": "b4dd2042",
			"offPeakRateBasisPoints()": "1c28a18a",
			"peakEndHour()": "918ec498",
			"peakRateBasisPoints()": "470b33ec",
			"peakStartHour()": "434d5a36"
		}
	},
	"abi": [
		{
			"inputs": [
				{
					"internalType": "int256",
					"name": "_peakRateBasisPoints",
					"type": "int256"
				},
				{
					"internalType": "int256",
					"name": "_offPeakRateBasisPoints",
					"type": "int256"
				},
				{
					"internalType": "uint256",
					"name": "_peakStartHour",
					"type": "uint256"
				},
				{
					"internalType": "uint256",
					"name": "_peakEndHour",
					"type": "uint256"
				}
			],
			"stateMutability": "nonpayable",
			"type": "constructor"
		},
		{
			"inputs": [
				{
					"internalType": "address",
					"name": "origin",
					"type": "address"
				},
				{
					"internalType": "address",
					"name": "from",
					"type": "address"
				},
				{
					"internalType": "address",
					"name": "to",
					"type": "address"
				},
				{
					"internalType": "uint256",
					"name": "amount",
					"type": "uint256"
				}
			],
			"name": "calculateTotalBasisFee",
			"outputs": [
				{
					"internalType": "int256",
					"name": "",
					"type": "int256"
				}
			],
			"stateMutability": "nonpayable",
			"type": "function"
		},
		{
			"inputs": [],
			"name": "offPeakRateBasisPoints",
			"outputs": [
				{
					"internalType": "int256",
					"name": "",
					"type": "int256"
				}
			],
			"stateMutability": "view",
			"type": "function"
		},
		{
			"inputs": [],
			"name": "peakEndHour",
			"outputs": [
				{
					"internalType": "uint256",
					"name": "",
					"type": "uint256"
				}
			],
			"stateMutability": "view",
			"type": "function"
		},
		{
			"inputs": [],
			"name": "peakRateBasisPoints",
			"outputs": [
				{
					"internalType": "int256",
					"name": "",
					"type": "int256"
				}
			],
			"stateMutability": "view",
			"type": "function"
		},
		{
			"inputs": [],
			"name": "peakStartHour",
			"outputs": [
				{
					"internalType": "uint256",
					"name": "",
					"type": "uint256"
				}
			],
			"stateMutability": "view",
			"type": "function"
		}
	]
}