{
	"data": {
		"bytecode": {
			"linkReferences": {
				"contracts/Access.sol": {
					"AuthLib": [
						{
							"length": 20,
							"start": 30
						},
						{
							"length": 20,
							"start": 418
						},
						{
							"length": 20,
							"start": 567
						},
						{
							"length": 20,
							"start": 803
						},
						{
							"length": 20,
							"start": 976
						},
						{
							"length": 20,
							"start": 1208
						},
						{
							"length": 20,
							"start": 1364
						}
					]
				}
			},
			"object": "6080604052348015600e575f5ffd5b506040516319bd96c160e11b815273__$4021719a63c0dd831007d94ed8205bbab3$__9063337b2d82906049905f9033906005906004016077565b5f6040518083038186803b158015605e575f5ffd5b505af4158015606f573d5f5f3e3d5ffd5b5050505060b6565b8381526001600160a01b0383166020820152606081016006831060a857634e487b7160e01b5f52602160045260245ffd5b826040830152949350505050565b61064e806100c35f395ff3fe608060405234801561000f575f5ffd5b506004361061004a575f3560e01c806323a3ad721461004e5780633e8402361461007657806380e52e3f1461008b578063a89027f81461009e575b5f5ffd5b61006161005c366004610524565b6100be565b60405190151581526020015b60405180910390f35b610089610084366004610524565b610164565b005b610089610099366004610559565b6102fd565b6100b16100ac366004610559565b610481565b60405161006d91906105ad565b5f8160058111156100d1576100d1610579565b6040516276e81360e21b815273__$4021719a63c0dd831007d94ed8205bbab3$__906301dba04c90610109905f9088906004016105bb565b602060405180830381865af4158015610124573d5f5f3e3d5ffd5b505050506040513d601f19601f8201168201806040525081019061014891906105d2565b600581111561015957610159610579565b101590505b92915050565b60046040516276e81360e21b815273__$4021719a63c0dd831007d94ed8205bbab3$__906301dba04c9061019e905f9033906004016105bb565b602060405180830381865af41580156101b9573d5f5f3e3d5ffd5b505050506040513d601f19601f820116820180604052508101906101dd91906105d2565b60058111156101ee576101ee610579565b10156102515760405162461bcd60e51b815260206004820152602760248201527f496e73756666696369656e742070726976696c6567657320746f206772616e74604482015266103937b632b99760c91b60648201526084015b60405180910390fd5b6040516319bd96c160e11b815273__$4021719a63c0dd831007d94ed8205bbab3$__9063337b2d829061028c905f90869086906004016105ed565b5f6040518083038186803b1580156102a2575f5ffd5b505af41580156102b4573d5f5f3e3d5ffd5b50505050816001600160a01b03167faa259565575c834bc07e74dca784b4071676133ac78513b431afb6ee7edae121826040516102f191906105ad565b60405180910390a25050565b60046040516276e81360e21b815273__$4021719a63c0dd831007d94ed8205bbab3$__906301dba04c90610337905f9033906004016105bb565b602060405180830381865af4158015610352573d5f5f3e3d5ffd5b505050506040513d601f19601f8201168201806040525081019061037691906105d2565b600581111561038757610387610579565b10156103e65760405162461bcd60e51b815260206004820152602860248201527f496e73756666696369656e742070726976696c6567657320746f207265766f6b60448201526732903937b632b99760c11b6064820152608401610248565b604051631fe3a8a360e01b815273__$4021719a63c0dd831007d94ed8205bbab3$__90631fe3a8a39061041f905f9085906004016105bb565b5f6040518083038186803b158015610435575f5ffd5b505af4158015610447573d5f5f3e3d5ffd5b50506040516001600160a01b03841692507f6107a4a5447a4208ba14e3ec240bccf0a93828124ccf501af04601031070b18391505f90a250565b6040516276e81360e21b81525f9073__$4021719a63c0dd831007d94ed8205bbab3$__906301dba04c906104bb90849086906004016105bb565b602060405180830381865af41580156104d6573d5f5f3e3d5ffd5b505050506040513d601f19601f8201168201806040525081019061015e91906105d2565b80356001600160a01b0381168114610510575f5ffd5b919050565b60068110610521575f5ffd5b50565b5f5f60408385031215610535575f5ffd5b61053e836104fa565b9150602083013561054e81610515565b809150509250929050565b5f60208284031215610569575f5ffd5b610572826104fa565b9392505050565b634e487b7160e01b5f52602160045260245ffd5b600681106105a957634e487b7160e01b5f52602160045260245ffd5b9052565b6020810161015e828461058d565b9182526001600160a01b0316602082015260400190565b5f602082840312156105e2575f5ffd5b815161057281610515565b8381526001600160a01b038316602082015260608101610610604083018461058d565b94935050505056fea26469706673582212200dd6cbf073b3a95736b1bd6c990c76571643876648f9ac52c081c938a1ceb49d64736f6c634300081b0033",
			"opcodes": "PUSH1 0x80 PUSH1 0x40 MSTORE CALLVALUE DUP1 ISZERO PUSH1 0xE JUMPI PUSH0 PUSH0 REVERT JUMPDEST POP PUSH1 0x40 MLOAD PUSH4 0x19BD96C1 PUSH1 0xE1 SHL DUP2 MSTORE PUSH20 0x0 SWAP1 PUSH4 0x337B2D82 SWAP1 PUSH1 0x49 SWAP1 PUSH0 SWAP1 CALLER SWAP1 PUSH1 0x5 SWAP1 PUSH1 0x4 ADD PUSH1 0x77 JUMP JUMPDEST PUSH0 PUSH1 0x40 MLOAD DUP1 DUP4 SUB DUP2 DUP7 DUP1 EXTCODESIZE ISZERO DUP1 ISZERO PUSH1 0x5E JUMPI PUSH0 PUSH0 REVERT JUMPDEST POP GAS DELEGATECALL ISZERO DUP1 ISZERO PUSH1 0x6F JUMPI RETURNDATASIZE PUSH0 PUSH0 RETURNDATACOPY RETURNDATASIZE PUSH0 REVERT JUMPDEST POP POP POP POP PUSH1 0xB6 JUMP JUMPDEST DUP4 DUP2 MSTORE PUSH1 0x1 PUSH1 0x1 PUSH1 0xA0 SHL SUB DUP4 AND PUSH1 0x20 DUP3 ADD MSTORE PUSH1 0x60 DUP2 ADD PUSH1 0x6 DUP4 LT PUSH1 0xA8 JUMPI PUSH4 0x4E487B71 PUSH1 0xE0 SHL PUSH0 MSTORE PUSH1 0x21 PUSH1 0x4 MSTORE PUSH1 0x24 PUSH0 REVERT JUMPDEST DUP3 PUSH1 0x40 DUP4 ADD MSTORE SWAP5 SWAP4 POP POP POP POP JUMP JUMPDEST PUSH2 0x64E DUP1 PUSH2 0xC3 PUSH0 CODECOPY PUSH0 RETURN INVALID PUSH1 0x80 PUSH1 0x40 MSTORE CALLVALUE DUP1 ISZERO PUSH2 0xF JUMPI PUSH0 PUSH0 REVERT JUMPDEST POP PUSH1 0x4 CALLDATASIZE LT PUSH2 0x4A JUMPI PUSH0 CALLDATALOAD PUSH1 0xE0 SHR DUP1 PUSH4 0x23A3AD72 EQ PUSH2 0x4E JUMPI DUP1 PUSH4 0x3E840236 EQ PUSH2 0x76 JUMPI DUP1 PUSH4 0x80E52E3F EQ PUSH2 0x8B JUMPI DUP1 PUSH4 0xA89027F8 EQ PUSH2 0x9E JUMPI JUMPDEST PUSH0 PUSH0 REVERT JUMPDEST PUSH2 0x61 PUSH2 0x5C CALLDATASIZE PUSH1 0x4 PUSH2 0x524 JUMP JUMPDEST PUSH2 0xBE JUMP JUMPDEST PUSH1 0x40 MLOAD SWAP1 ISZERO ISZERO DUP2 MSTORE PUSH1 0x20 ADD JUMPDEST PUSH1 0x40 MLOAD DUP1 SWAP2 SUB SWAP1 RETURN JUMPDEST PUSH2 0x89 PUSH2 0x84 CALLDATASIZE PUSH1 0x4 PUSH2 0x524 JUMP JUMPDEST PUSH2 0x164 JUMP JUMPDEST STOP JUMPDEST PUSH2 0x89 PUSH2 0x99 CALLDATASIZE PUSH1 0x4 PUSH2 0x559 JUMP JUMPDEST PUSH2 0x2FD JUMP JUMPDEST PUSH2 0xB1 PUSH2 0xAC CALLDATASIZE PUSH1 0x4 PUSH2 0x559 JUMP JUMPDEST PUSH2 0x481 JUMP JUMPDEST PUSH1 0x40 MLOAD PUSH2 0x6D SWAP2 SWAP1 PUSH2 0x5AD JUMP JUMPDEST PUSH0 DUP2 PUSH1 0x5 DUP2 GT ISZERO PUSH2 0xD1 JUMPI PUSH2 0xD1 PUSH2 0x579 JUMP JUMPDEST PUSH1 0x40 MLOAD PUSH3 0x76E813 PUSH1 0xE2 SHL DUP2 MSTORE PUSH20 0x0 SWAP1 PUSH4 0x1DBA04C SWAP1 PUSH2 0x109 SWAP1 PUSH0 SWAP1 DUP9 SWAP1 PUSH1 0x4 ADD PUSH2 0x5BB JUMP JUMPDEST PUSH1 0x20 PUSH1 0x40 MLOAD DUP1 DUP4 SUB DUP2 DUP7 GAS DELEGATECALL ISZERO DUP1 ISZERO PUSH2 0x124 JUMPI RETURNDATASIZE PUSH0 PUSH0 RETURNDATACOPY RETURNDATASIZE PUSH0 REVERT JUMPDEST POP POP POP POP PUSH1 0x40 MLOAD RETURNDATASIZE PUSH1 0x1F NOT PUSH1 0x1F DUP3 ADD AND DUP3 ADD DUP1 PUSH1 0x40 MSTORE POP DUP2 ADD SWAP1 PUSH2 0x148 SWAP2 SWAP1 PUSH2 0x5D2 JUMP JUMPDEST PUSH1 0x5 DUP2 GT ISZERO PUSH2 0x159 JUMPI PUSH2 0x159 PUSH2 0x579 JUMP JUMPDEST LT ISZERO SWAP1 POP JUMPDEST SWAP3 SWAP2 POP POP JUMP JUMPDEST PUSH1 0x4 PUSH1 0x40 MLOAD PUSH3 0x76E813 PUSH1 0xE2 SHL DUP2 MSTORE PUSH20 0x0 SWAP1 PUSH4 0x1DBA04C SWAP1 PUSH2 0x19E SWAP1 PUSH0 SWAP1 CALLER SWAP1 PUSH1 0x4 ADD PUSH2 0x5BB JUMP JUMPDEST PUSH1 0x20 PUSH1 0x40 MLOAD DUP1 DUP4 SUB DUP2 DUP7 GAS DELEGATECALL ISZERO DUP1 ISZERO PUSH2 0x1B9 JUMPI RETURNDATASIZE PUSH0 PUSH0 RETURNDATACOPY RETURNDATASIZE PUSH0 REVERT JUMPDEST POP POP POP POP PUSH1 0x40 MLOAD RETURNDATASIZE PUSH1 0x1F NOT PUSH1 0x1F DUP3 ADD AND DUP3 ADD DUP1 PUSH1 0x40 MSTORE POP DUP2 ADD SWAP1 PUSH2 0x1DD SWAP2 SWAP1 PUSH2 0x5D2 JUMP JUMPDEST PUSH1 0x5 DUP2 GT ISZERO PUSH2 0x1EE JUMPI PUSH2 0x1EE PUSH2 0x579 JUMP JUMPDEST LT ISZERO PUSH2 0x251 JUMPI PUSH1 0x40 MLOAD PUSH3 0x461BCD PUSH1 0xE5 SHL DUP2 MSTORE PUSH1 0x20 PUSH1 0x4 DUP3 ADD MSTORE PUSH1 0x27 PUSH1 0x24 DUP3 ADD MSTORE PUSH32 0x496E73756666696369656E742070726976696C6567657320746F206772616E74 PUSH1 0x44 DUP3 ADD MSTORE PUSH7 0x103937B632B997 PUSH1 0xC9 SHL PUSH1 0x64 DUP3 ADD MSTORE PUSH1 0x84 ADD JUMPDEST PUSH1 0x40 MLOAD DUP1 SWAP2 SUB SWAP1 REVERT JUMPDEST PUSH1 0x40 MLOAD PUSH4 0x19BD96C1 PUSH1 0xE1 SHL DUP2 MSTORE PUSH20 0x0 SWAP1 PUSH4 0x337B2D82 SWAP1 PUSH2 0x28C SWAP1 PUSH0 SWAP1 DUP7 SWAP1 DUP7 SWAP1 PUSH1 0x4 ADD PUSH2 0x5ED JUMP JUMPDEST PUSH0 PUSH1 0x40 MLOAD DUP1 DUP4 SUB DUP2 DUP7 DUP1 EXTCODESIZE ISZERO DUP1 ISZERO PUSH2 0x2A2 JUMPI PUSH0 PUSH0 REVERT JUMPDEST POP GAS DELEGATECALL ISZERO DUP1 ISZERO PUSH2 0x2B4 JUMPI RETURNDATASIZE PUSH0 PUSH0 RETURNDATACOPY RETURNDATASIZE PUSH0 REVERT JUMPDEST POP POP POP POP DUP2 PUSH1 0x1 PUSH1 0x1 PUSH1 0xA0 SHL SUB AND PUSH32 0xAA259565575C834BC07E74DCA784B4071676133AC78513B431AFB6EE7EDAE121 DUP3 PUSH1 0x40 MLOAD PUSH2 0x2F1 SWAP2 SWAP1 PUSH2 0x5AD JUMP JUMPDEST PUSH1 0x40 MLOAD DUP1 SWAP2 SUB SWAP1 LOG2 POP POP JUMP JUMPDEST PUSH1 0x4 PUSH1 0x40 MLOAD PUSH3 0x76E813 PUSH1 0xE2 SHL DUP2 MSTORE PUSH20 0x0 SWAP1 PUSH4 0x1DBA04C SWAP1 PUSH2 0x337 SWAP1 PUSH0 SWAP1 CALLER SWAP1 PUSH1 0x4 ADD PUSH2 0x5BB JUMP JUMPDEST PUSH1 0x20 PUSH1 0x40 MLOAD DUP1 DUP4 SUB DUP2 DUP7 GAS DELEGATECALL ISZERO DUP1 ISZERO PUSH2 0x352 JUMPI RETURNDATASIZE PUSH0 PUSH0 RETURNDATACOPY RETURNDATASIZE PUSH0 REVERT JUMPDEST POP POP POP POP PUSH1 0x40 MLOAD RETURNDATASIZE PUSH1 0x1F NOT PUSH1 0x1F DUP3 ADD AND DUP3 ADD DUP1 PUSH1 0x40 MSTORE POP DUP2 ADD SWAP1 PUSH2 0x376 SWAP2 SWAP1 PUSH2 0x5D2 JUMP JUMPDEST PUSH1 0x5 DUP2 GT ISZERO PUSH2 0x387 JUMPI PUSH2 0x387 PUSH2 0x579 JUMP JUMPDEST LT ISZERO PUSH2 0x3E6 JUMPI PUSH1 0x40 MLOAD PUSH3 0x461BCD PUSH1 0xE5 SHL DUP2 MSTORE PUSH1 0x20 PUSH1 0x4 DUP3 ADD MSTORE PUSH1 0x28 PUSH1 0x24 DUP3 ADD MSTORE PUSH32 0x496E73756666696369656E742070726976696C6567657320746F207265766F6B PUSH1 0x44 DUP3 ADD MSTORE PUSH8 0x32903937B632B997 PUSH1 0xC1 SHL PUSH1 0x64 DUP3 ADD MSTORE PUSH1 0x84 ADD PUSH2 0x248 JUMP JUMPDEST PUSH1 0x40 MLOAD PUSH4 0x1FE3A8A3 PUSH1 0xE0 SHL DUP2 MSTORE PUSH20 0x0 SWAP1 PUSH4 0x1FE3A8A3 SWAP1 PUSH2 0x41F SWAP1 PUSH0 SWAP1 DUP6 SWAP1 PUSH1 0x4 ADD PUSH2 0x5BB JUMP JUMPDEST PUSH0 PUSH1 0x40 MLOAD DUP1 DUP4 SUB DUP2 DUP7 DUP1 EXTCODESIZE ISZERO DUP1 ISZERO PUSH2 0x435 JUMPI PUSH0 PUSH0 REVERT JUMPDEST POP GAS DELEGATECALL ISZERO DUP1 ISZERO PUSH2 0x447 JUMPI RETURNDATASIZE PUSH0 PUSH0 RETURNDATACOPY RETURNDATASIZE PUSH0 REVERT JUMPDEST POP POP PUSH1 0x40 MLOAD PUSH1 0x1 PUSH1 0x1 PUSH1 0xA0 SHL SUB DUP5 AND SWAP3 POP PUSH32 0x6107A4A5447A4208BA14E3EC240BCCF0A93828124CCF501AF04601031070B183 SWAP2 POP PUSH0 SWAP1 LOG2 POP JUMP JUMPDEST PUSH1 0x40 MLOAD PUSH3 0x76E813 PUSH1 0xE2 SHL DUP2 MSTORE PUSH0 SWAP1 PUSH20 0x0 SWAP1 PUSH4 0x1DBA04C SWAP1 PUSH2 0x4BB SWAP1 DUP5 SWAP1 DUP7 SWAP1 PUSH1 0x4 ADD PUSH2 0x5BB JUMP JUMPDEST PUSH1 0x20 PUSH1 0x40 MLOAD DUP1 DUP4 SUB DUP2 DUP7 GAS DELEGATECALL ISZERO DUP1 ISZERO PUSH2 0x4D6 JUMPI RETURNDATASIZE PUSH0 PUSH0 RETURNDATACOPY RETURNDATASIZE PUSH0 REVERT JUMPDEST POP POP POP POP PUSH1 0x40 MLOAD RETURNDATASIZE PUSH1 0x1F NOT PUSH1 0x1F DUP3 ADD AND DUP3 ADD DUP1 PUSH1 0x40 MSTORE POP DUP2 ADD SWAP1 PUSH2 0x15E SWAP2 SWAP1 PUSH2 0x5D2 JUMP JUMPDEST DUP1 CALLDATALOAD PUSH1 0x1 PUSH1 0x1 PUSH1 0xA0 SHL SUB DUP2 AND DUP2 EQ PUSH2 0x510 JUMPI PUSH0 PUSH0 REVERT JUMPDEST SWAP2 SWAP1 POP JUMP JUMPDEST PUSH1 0x6 DUP2 LT PUSH2 0x521 JUMPI PUSH0 PUSH0 REVERT JUMPDEST POP JUMP JUMPDEST PUSH0 PUSH0 PUSH1 0x40 DUP4 DUP6 SUB SLT ISZERO PUSH2 0x535 JUMPI PUSH0 PUSH0 REVERT JUMPDEST PUSH2 0x53E DUP4 PUSH2 0x4FA JUMP JUMPDEST SWAP2 POP PUSH1 0x20 DUP4 ADD CALLDATALOAD PUSH2 0x54E DUP2 PUSH2 0x515 JUMP JUMPDEST DUP1 SWAP2 POP POP SWAP3 POP SWAP3 SWAP1 POP JUMP JUMPDEST PUSH0 PUSH1 0x20 DUP3 DUP5 SUB SLT ISZERO PUSH2 0x569 JUMPI PUSH0 PUSH0 REVERT JUMPDEST PUSH2 0x572 DUP3 PUSH2 0x4FA JUMP JUMPDEST SWAP4 SWAP3 POP POP POP JUMP JUMPDEST PUSH4 0x4E487B71 PUSH1 0xE0 SHL PUSH0 MSTORE PUSH1 0x21 PUSH1 0x4 MSTORE PUSH1 0x24 PUSH0 REVERT JUMPDEST PUSH1 0x6 DUP2 LT PUSH2 0x5A9 JUMPI PUSH4 0x4E487B71 PUSH1 0xE0 SHL PUSH0 MSTORE PUSH1 0x21 PUSH1 0x4 MSTORE PUSH1 0x24 PUSH0 REVERT JUMPDEST SWAP1 MSTORE JUMP JUMPDEST PUSH1 0x20 DUP2 ADD PUSH2 0x15E DUP3 DUP5 PUSH2 0x58D JUMP JUMPDEST SWAP2 DUP3 MSTORE PUSH1 0x1 PUSH1 0x1 PUSH1 0xA0 SHL SUB AND PUSH1 0x20 DUP3 ADD MSTORE PUSH1 0x40 ADD SWAP1 JUMP JUMPDEST PUSH0 PUSH1 0x20 DUP3 DUP5 SUB SLT ISZERO PUSH2 0x5E2 JUMPI PUSH0 PUSH0 REVERT JUMPDEST DUP2 MLOAD PUSH2 0x572 DUP2 PUSH2 0x515 JUMP JUMPDEST DUP4 DUP2 MSTORE PUSH1 0x1 PUSH1 0x1 PUSH1 0xA0 SHL SUB DUP4 AND PUSH1 0x20 DUP3 ADD MSTORE PUSH1 0x60 DUP2 ADD PUSH2 0x610 PUSH1 0x40 DUP4 ADD DUP5 PUSH2 0x58D JUMP JUMPDEST SWAP5 SWAP4 POP POP POP POP JUMP INVALID LOG2 PUSH5 0x6970667358 0x22 SLT KECCAK256 0xD 0xD6 0xCB CREATE PUSH20 0xB3A95736B1BD6C990C76571643876648F9AC52C0 DUP2 0xC9 CODESIZE LOG1 0xCE 0xB4 SWAP14 PUSH5 0x736F6C6343 STOP ADDMOD SHL STOP CALLER "
		},
		"gasEstimates": {
			"creation": {
				"codeDepositCost": "322800",
				"executionCost": "infinite",
				"totalCost": "infinite"
			},
			"external": {
				"checkRole(address,uint8)": "infinite",
				"getAccountRank(address)": "infinite",
				"grantRole(address,uint8)": "infinite",
				"revokeRole(address)": "infinite"
			}
		},
		"methodIdentifiers": {
			"checkRole(address,uint8)": "23a3ad72",
			"getAccountRank(address)": "a89027f8",
			"grantRole(address,uint8)": "3e840236",
			"revokeRole(address)": "80e52e3f"
		}
	},
	"abi": [
		{
			"inputs": [],
			"stateMutability": "nonpayable",
			"type": "constructor"
		},
		{
			"anonymous": false,
			"inputs": [
				{
					"indexed": true,
					"internalType": "address",
					"name": "account",
					"type": "address"
				},
				{
					"indexed": false,
					"internalType": "enum AuthLib.Rank",
					"name": "role",
					"type": "uint8"
				}
			],
			"name": "RoleGranted",
			"type": "event"
		},
		{
			"anonymous": false,
			"inputs": [
				{
					"indexed": true,
					"internalType": "address",
					"name": "account",
					"type": "address"
				}
			],
			"name": "RoleRevoked",
			"type": "event"
		},
		{
			"inputs": [
				{
					"internalType": "address",
					"name": "account",
					"type": "address"
				},
				{
					"internalType": "enum AuthLib.Rank",
					"name": "rank",
					"type": "uint8"
				}
			],
			"name": "checkRole",
			"outputs": [
				{
					"internalType": "bool",
					"name": "",
					"type": "bool"
				}
			],
			"stateMutability": "view",
			"type": "function"
		},
		{
			"inputs": [
				{
					"internalType": "address",
					"name": "account",
					"type": "address"
				}
			],
			"name": "getAccountRank",
			"outputs": [
				{
					"internalType": "enum AuthLib.Rank",
					"name": "",
					"type": "uint8"
				}
			],
			"stateMutability": "view",
			"type": "function"
		},
		{
			"inputs": [
				{
					"internalType": "address",
					"name": "account",
					"type": "address"
				},
				{
					"internalType": "enum AuthLib.Rank",
					"name": "rank",
					"type": "uint8"
				}
			],
			"name": "grantRole",
			"outputs": [],
			"stateMutability": "nonpayable",
			"type": "function"
		},
		{
			"inputs": [
				{
					"internalType": "address",
					"name": "account",
					"type": "address"
				}
			],
			"name": "revokeRole",
			"outputs": [],
			"stateMutability": "nonpayable",
			"type": "function"
		}
	]
}