{
	"data": {
		"bytecode": {
			"linkReferences": {},
			"object": "610666610034600b8282823980515f1a607314602857634e487b7160e01b5f525f60045260245ffd5b305f52607381538281f3fe730000000000000000000000000000000000000000301460806040526004361061006b575f3560e01c80633148f14f1461006f57806353df6e35146100a15780636592f007146100d857806398fdcdd6146100eb578063d3dc2a0f14610128578063fa6bcfec14610136575b5f80fd5b81801561007a575f80fd5b5061008e6100893660046104e8565b610155565b6040519081526020015b60405180910390f35b8180156100ac575f80fd5b506100c06100bb36600461052c565b61019d565b6040516001600160401b039091168152602001610098565b61008e6100e6366004610582565b6101d5565b6100fe6100f936600461052c565b61023a565b604080516001600160401b0394851681529284166020840152921691810191909152606001610098565b6100c06603632c8eb5af3b81565b818015610141575f80fd5b5061008e6101503660046105aa565b610464565b5f60405160208152602080820152602060408201528460608201528360808201528260a082015260c05160208160c0845f60055f19f1610193575f80fd5b5195945050505050565b5f6001600160401b0380851690848116908481169084906101bf858585610155565b6101c991906105ef565b98975050505050505050565b5f82816101e3600f85610602565b90505b825f03610232576603632c8eb5af3b6001600160a01b038083168482160a16066001600160a01b031692506002816001600160a01b03168161022a5761022a6105db565b0490506101e6565b505092915050565b5f805f846001600160401b0316866001600160401b031614801561026f5750836001600160401b0316856001600160401b0316145b1561028157505f91508190508461045b565b846001600160401b0316866001600160401b0316036102c8575f86876001600160401b0316866001600160401b0316116102bb57876102bd565b855b92509250925061045b565b836001600160401b0316866001600160401b03160361030e575f86876001600160401b0316876001600160401b03161161030257876102bd565b8692509250925061045b565b836001600160401b0316856001600160401b031603610354575f85866001600160401b0316886001600160401b03161161034857866102bd565b8792509250925061045b565b846001600160401b0316866001600160401b0316111580156103885750836001600160401b0316866001600160401b031611155b156103c057836001600160401b0316856001600160401b0316116103b357508491508390508261045b565b508491508290508361045b565b856001600160401b0316856001600160401b0316111580156103f45750836001600160401b0316856001600160401b031611155b1561042c57836001600160401b0316866001600160401b03161161041f57508391508490508261045b565b508391508290508461045b565b846001600160401b0316866001600160401b03161161045257508291508490508361045b565b50829150839050845b93509350939050565b5f8281610472600f85610602565b90505b825f036104c1576603632c8eb5af3b6001600160a01b038083168482160a16066001600160a01b031692506002816001600160a01b0316816104b9576104b96105db565b049050610475565b6104df6001600160a01b038087169086166603632c8eb5af3b610155565b95945050505050565b5f805f606084860312156104fa575f80fd5b505081359360208301359350604090920135919050565b80356001600160401b0381168114610527575f80fd5b919050565b5f805f6060848603121561053e575f80fd5b61054784610511565b925061055560208501610511565b915061056360408501610511565b90509250925092565b80356001600160a01b0381168114610527575f80fd5b5f8060408385031215610593575f80fd5b61059c8361056c565b946020939093013593505050565b5f80604083850312156105bb575f80fd5b6105c48361056c565b91506105d26020840161056c565b90509250929050565b634e487b7160e01b5f52601260045260245ffd5b5f826105fd576105fd6105db565b500690565b5f6001600160a01b0383168061061a5761061a6105db565b6001600160a01b0392909216919091049291505056fea26469706673582212208b2b9a5b50fb99d07efd9c8d75a3770de37ff0df78e9a7fbf0839bf78373e56264736f6c634300081a0033",
			"opcodes": "PUSH2 0x666 PUSH2 0x34 PUSH1 0xB DUP3 DUP3 DUP3 CODECOPY DUP1 MLOAD PUSH0 BYTE PUSH1 0x73 EQ PUSH1 0x28 JUMPI PUSH4 0x4E487B71 PUSH1 0xE0 SHL PUSH0 MSTORE PUSH0 PUSH1 0x4 MSTORE PUSH1 0x24 PUSH0 REVERT JUMPDEST ADDRESS PUSH0 MSTORE PUSH1 0x73 DUP2 MSTORE8 DUP3 DUP2 RETURN INVALID PUSH20 0x0 ADDRESS EQ PUSH1 0x80 PUSH1 0x40 MSTORE PUSH1 0x4 CALLDATASIZE LT PUSH2 0x6B JUMPI PUSH0 CALLDATALOAD PUSH1 0xE0 SHR DUP1 PUSH4 0x3148F14F EQ PUSH2 0x6F JUMPI DUP1 PUSH4 0x53DF6E35 EQ PUSH2 0xA1 JUMPI DUP1 PUSH4 0x6592F007 EQ PUSH2 0xD8 JUMPI DUP1 PUSH4 0x98FDCDD6 EQ PUSH2 0xEB JUMPI DUP1 PUSH4 0xD3DC2A0F EQ PUSH2 0x128 JUMPI DUP1 PUSH4 0xFA6BCFEC EQ PUSH2 0x136 JUMPI JUMPDEST PUSH0 DUP1 REVERT JUMPDEST DUP2 DUP1 ISZERO PUSH2 0x7A JUMPI PUSH0 DUP1 REVERT JUMPDEST POP PUSH2 0x8E PUSH2 0x89 CALLDATASIZE PUSH1 0x4 PUSH2 0x4E8 JUMP JUMPDEST PUSH2 0x155 JUMP JUMPDEST PUSH1 0x40 MLOAD SWAP1 DUP2 MSTORE PUSH1 0x20 ADD JUMPDEST PUSH1 0x40 MLOAD DUP1 SWAP2 SUB SWAP1 RETURN JUMPDEST DUP2 DUP1 ISZERO PUSH2 0xAC JUMPI PUSH0 DUP1 REVERT JUMPDEST POP PUSH2 0xC0 PUSH2 0xBB CALLDATASIZE PUSH1 0x4 PUSH2 0x52C JUMP JUMPDEST PUSH2 0x19D JUMP JUMPDEST PUSH1 0x40 MLOAD PUSH1 0x1 PUSH1 0x1 PUSH1 0x40 SHL SUB SWAP1 SWAP2 AND DUP2 MSTORE PUSH1 0x20 ADD PUSH2 0x98 JUMP JUMPDEST PUSH2 0x8E PUSH2 0xE6 CALLDATASIZE PUSH1 0x4 PUSH2 0x582 JUMP JUMPDEST PUSH2 0x1D5 JUMP JUMPDEST PUSH2 0xFE PUSH2 0xF9 CALLDATASIZE PUSH1 0x4 PUSH2 0x52C JUMP JUMPDEST PUSH2 0x23A JUMP JUMPDEST PUSH1 0x40 DUP1 MLOAD PUSH1 0x1 PUSH1 0x1 PUSH1 0x40 SHL SUB SWAP5 DUP6 AND DUP2 MSTORE SWAP3 DUP5 AND PUSH1 0x20 DUP5 ADD MSTORE SWAP3 AND SWAP2 DUP2 ADD SWAP2 SWAP1 SWAP2 MSTORE PUSH1 0x60 ADD PUSH2 0x98 JUMP JUMPDEST PUSH2 0xC0 PUSH7 0x3632C8EB5AF3B DUP2 JUMP JUMPDEST DUP2 DUP1 ISZERO PUSH2 0x141 JUMPI PUSH0 DUP1 REVERT JUMPDEST POP PUSH2 0x8E PUSH2 0x150 CALLDATASIZE PUSH1 0x4 PUSH2 0x5AA JUMP JUMPDEST PUSH2 0x464 JUMP JUMPDEST PUSH0 PUSH1 0x40 MLOAD PUSH1 0x20 DUP2 MSTORE PUSH1 0x20 DUP1 DUP3 ADD MSTORE PUSH1 0x20 PUSH1 0x40 DUP3 ADD MSTORE DUP5 PUSH1 0x60 DUP3 ADD MSTORE DUP4 PUSH1 0x80 DUP3 ADD MSTORE DUP3 PUSH1 0xA0 DUP3 ADD MSTORE PUSH1 0xC0 MLOAD PUSH1 0x20 DUP2 PUSH1 0xC0 DUP5 PUSH0 PUSH1 0x5 PUSH0 NOT CALL PUSH2 0x193 JUMPI PUSH0 DUP1 REVERT JUMPDEST MLOAD SWAP6 SWAP5 POP POP POP POP POP JUMP JUMPDEST PUSH0 PUSH1 0x1 PUSH1 0x1 PUSH1 0x40 SHL SUB DUP1 DUP6 AND SWAP1 DUP5 DUP2 AND SWAP1 DUP5 DUP2 AND SWAP1 DUP5 SWAP1 PUSH2 0x1BF DUP6 DUP6 DUP6 PUSH2 0x155 JUMP JUMPDEST PUSH2 0x1C9 SWAP2 SWAP1 PUSH2 0x5EF JUMP JUMPDEST SWAP9 SWAP8 POP POP POP POP POP POP POP POP JUMP JUMPDEST PUSH0 DUP3 DUP2 PUSH2 0x1E3 PUSH1 0xF DUP6 PUSH2 0x602 JUMP JUMPDEST SWAP1 POP JUMPDEST DUP3 PUSH0 SUB PUSH2 0x232 JUMPI PUSH7 0x3632C8EB5AF3B PUSH1 0x1 PUSH1 0x1 PUSH1 0xA0 SHL SUB DUP1 DUP4 AND DUP5 DUP3 AND EXP AND MOD PUSH1 0x1 PUSH1 0x1 PUSH1 0xA0 SHL SUB AND SWAP3 POP PUSH1 0x2 DUP2 PUSH1 0x1 PUSH1 0x1 PUSH1 0xA0 SHL SUB AND DUP2 PUSH2 0x22A JUMPI PUSH2 0x22A PUSH2 0x5DB JUMP JUMPDEST DIV SWAP1 POP PUSH2 0x1E6 JUMP JUMPDEST POP POP SWAP3 SWAP2 POP POP JUMP JUMPDEST PUSH0 DUP1 PUSH0 DUP5 PUSH1 0x1 PUSH1 0x1 PUSH1 0x40 SHL SUB AND DUP7 PUSH1 0x1 PUSH1 0x1 PUSH1 0x40 SHL SUB AND EQ DUP1 ISZERO PUSH2 0x26F JUMPI POP DUP4 PUSH1 0x1 PUSH1 0x1 PUSH1 0x40 SHL SUB AND DUP6 PUSH1 0x1 PUSH1 0x1 PUSH1 0x40 SHL SUB AND EQ JUMPDEST ISZERO PUSH2 0x281 JUMPI POP PUSH0 SWAP2 POP DUP2 SWAP1 POP DUP5 PUSH2 0x45B JUMP JUMPDEST DUP5 PUSH1 0x1 PUSH1 0x1 PUSH1 0x40 SHL SUB AND DUP7 PUSH1 0x1 PUSH1 0x1 PUSH1 0x40 SHL SUB AND SUB PUSH2 0x2C8 JUMPI PUSH0 DUP7 DUP8 PUSH1 0x1 PUSH1 0x1 PUSH1 0x40 SHL SUB AND DUP7 PUSH1 0x1 PUSH1 0x1 PUSH1 0x40 SHL SUB AND GT PUSH2 0x2BB JUMPI DUP8 PUSH2 0x2BD JUMP JUMPDEST DUP6 JUMPDEST SWAP3 POP SWAP3 POP SWAP3 POP PUSH2 0x45B JUMP JUMPDEST DUP4 PUSH1 0x1 PUSH1 0x1 PUSH1 0x40 SHL SUB AND DUP7 PUSH1 0x1 PUSH1 0x1 PUSH1 0x40 SHL SUB AND SUB PUSH2 0x30E JUMPI PUSH0 DUP7 DUP8 PUSH1 0x1 PUSH1 0x1 PUSH1 0x40 SHL SUB AND DUP8 PUSH1 0x1 PUSH1 0x1 PUSH1 0x40 SHL SUB AND GT PUSH2 0x302 JUMPI DUP8 PUSH2 0x2BD JUMP JUMPDEST DUP7 SWAP3 POP SWAP3 POP SWAP3 POP PUSH2 0x45B JUMP JUMPDEST DUP4 PUSH1 0x1 PUSH1 0x1 PUSH1 0x40 SHL SUB AND DUP6 PUSH1 0x1 PUSH1 0x1 PUSH1 0x40 SHL SUB AND SUB PUSH2 0x354 JUMPI PUSH0 DUP6 DUP7 PUSH1 0x1 PUSH1 0x1 PUSH1 0x40 SHL SUB AND DUP9 PUSH1 0x1 PUSH1 0x1 PUSH1 0x40 SHL SUB AND GT PUSH2 0x348 JUMPI DUP7 PUSH2 0x2BD JUMP JUMPDEST DUP8 SWAP3 POP SWAP3 POP SWAP3 POP PUSH2 0x45B JUMP JUMPDEST DUP5 PUSH1 0x1 PUSH1 0x1 PUSH1 0x40 SHL SUB AND DUP7 PUSH1 0x1 PUSH1 0x1 PUSH1 0x40 SHL SUB AND GT ISZERO DUP1 ISZERO PUSH2 0x388 JUMPI POP DUP4 PUSH1 0x1 PUSH1 0x1 PUSH1 0x40 SHL SUB AND DUP7 PUSH1 0x1 PUSH1 0x1 PUSH1 0x40 SHL SUB AND GT ISZERO JUMPDEST ISZERO PUSH2 0x3C0 JUMPI DUP4 PUSH1 0x1 PUSH1 0x1 PUSH1 0x40 SHL SUB AND DUP6 PUSH1 0x1 PUSH1 0x1 PUSH1 0x40 SHL SUB AND GT PUSH2 0x3B3 JUMPI POP DUP5 SWAP2 POP DUP4 SWAP1 POP DUP3 PUSH2 0x45B JUMP JUMPDEST POP DUP5 SWAP2 POP DUP3 SWAP1 POP DUP4 PUSH2 0x45B JUMP JUMPDEST DUP6 PUSH1 0x1 PUSH1 0x1 PUSH1 0x40 SHL SUB AND DUP6 PUSH1 0x1 PUSH1 0x1 PUSH1 0x40 SHL SUB AND GT ISZERO DUP1 ISZERO PUSH2 0x3F4 JUMPI POP DUP4 PUSH1 0x1 PUSH1 0x1 PUSH1 0x40 SHL SUB AND DUP6 PUSH1 0x1 PUSH1 0x1 PUSH1 0x40 SHL SUB AND GT ISZERO JUMPDEST ISZERO PUSH2 0x42C JUMPI DUP4 PUSH1 0x1 PUSH1 0x1 PUSH1 0x40 SHL SUB AND DUP7 PUSH1 0x1 PUSH1 0x1 PUSH1 0x40 SHL SUB AND GT PUSH2 0x41F JUMPI POP DUP4 SWAP2 POP DUP5 SWAP1 POP DUP3 PUSH2 0x45B JUMP JUMPDEST POP DUP4 SWAP2 POP DUP3 SWAP1 POP DUP5 PUSH2 0x45B JUMP JUMPDEST DUP5 PUSH1 0x1 PUSH1 0x1 PUSH1 0x40 SHL SUB AND DUP7 PUSH1 0x1 PUSH1 0x1 PUSH1 0x40 SHL SUB AND GT PUSH2 0x452 JUMPI POP DUP3 SWAP2 POP DUP5 SWAP1 POP DUP4 PUSH2 0x45B JUMP JUMPDEST POP DUP3 SWAP2 POP DUP4 SWAP1 POP DUP5 JUMPDEST SWAP4 POP SWAP4 POP SWAP4 SWAP1 POP JUMP JUMPDEST PUSH0 DUP3 DUP2 PUSH2 0x472 PUSH1 0xF DUP6 PUSH2 0x602 JUMP JUMPDEST SWAP1 POP JUMPDEST DUP3 PUSH0 SUB PUSH2 0x4C1 JUMPI PUSH7 0x3632C8EB5AF3B PUSH1 0x1 PUSH1 0x1 PUSH1 0xA0 SHL SUB DUP1 DUP4 AND DUP5 DUP3 AND EXP AND MOD PUSH1 0x1 PUSH1 0x1 PUSH1 0xA0 SHL SUB AND SWAP3 POP PUSH1 0x2 DUP2 PUSH1 0x1 PUSH1 0x1 PUSH1 0xA0 SHL SUB AND DUP2 PUSH2 0x4B9 JUMPI PUSH2 0x4B9 PUSH2 0x5DB JUMP JUMPDEST DIV SWAP1 POP PUSH2 0x475 JUMP JUMPDEST PUSH2 0x4DF PUSH1 0x1 PUSH1 0x1 PUSH1 0xA0 SHL SUB DUP1 DUP8 AND SWAP1 DUP7 AND PUSH7 0x3632C8EB5AF3B PUSH2 0x155 JUMP JUMPDEST SWAP6 SWAP5 POP POP POP POP POP JUMP JUMPDEST PUSH0 DUP1 PUSH0 PUSH1 0x60 DUP5 DUP7 SUB SLT ISZERO PUSH2 0x4FA JUMPI PUSH0 DUP1 REVERT JUMPDEST POP POP DUP2 CALLDATALOAD SWAP4 PUSH1 0x20 DUP4 ADD CALLDATALOAD SWAP4 POP PUSH1 0x40 SWAP1 SWAP3 ADD CALLDATALOAD SWAP2 SWAP1 POP JUMP JUMPDEST DUP1 CALLDATALOAD PUSH1 0x1 PUSH1 0x1 PUSH1 0x40 SHL SUB DUP2 AND DUP2 EQ PUSH2 0x527 JUMPI PUSH0 DUP1 REVERT JUMPDEST SWAP2 SWAP1 POP JUMP JUMPDEST PUSH0 DUP1 PUSH0 PUSH1 0x60 DUP5 DUP7 SUB SLT ISZERO PUSH2 0x53E JUMPI PUSH0 DUP1 REVERT JUMPDEST PUSH2 0x547 DUP5 PUSH2 0x511 JUMP JUMPDEST SWAP3 POP PUSH2 0x555 PUSH1 0x20 DUP6 ADD PUSH2 0x511 JUMP JUMPDEST SWAP2 POP PUSH2 0x563 PUSH1 0x40 DUP6 ADD PUSH2 0x511 JUMP JUMPDEST SWAP1 POP SWAP3 POP SWAP3 POP SWAP3 JUMP JUMPDEST DUP1 CALLDATALOAD PUSH1 0x1 PUSH1 0x1 PUSH1 0xA0 SHL SUB DUP2 AND DUP2 EQ PUSH2 0x527 JUMPI PUSH0 DUP1 REVERT JUMPDEST PUSH0 DUP1 PUSH1 0x40 DUP4 DUP6 SUB SLT ISZERO PUSH2 0x593 JUMPI PUSH0 DUP1 REVERT JUMPDEST PUSH2 0x59C DUP4 PUSH2 0x56C JUMP JUMPDEST SWAP5 PUSH1 0x20 SWAP4 SWAP1 SWAP4 ADD CALLDATALOAD SWAP4 POP POP POP JUMP JUMPDEST PUSH0 DUP1 PUSH1 0x40 DUP4 DUP6 SUB SLT ISZERO PUSH2 0x5BB JUMPI PUSH0 DUP1 REVERT JUMPDEST PUSH2 0x5C4 DUP4 PUSH2 0x56C JUMP JUMPDEST SWAP2 POP PUSH2 0x5D2 PUSH1 0x20 DUP5 ADD PUSH2 0x56C JUMP JUMPDEST SWAP1 POP SWAP3 POP SWAP3 SWAP1 POP JUMP JUMPDEST PUSH4 0x4E487B71 PUSH1 0xE0 SHL PUSH0 MSTORE PUSH1 0x12 PUSH1 0x4 MSTORE PUSH1 0x24 PUSH0 REVERT JUMPDEST PUSH0 DUP3 PUSH2 0x5FD JUMPI PUSH2 0x5FD PUSH2 0x5DB JUMP JUMPDEST POP MOD SWAP1 JUMP JUMPDEST PUSH0 PUSH1 0x1 PUSH1 0x1 PUSH1 0xA0 SHL SUB DUP4 AND DUP1 PUSH2 0x61A JUMPI PUSH2 0x61A PUSH2 0x5DB JUMP JUMPDEST PUSH1 0x1 PUSH1 0x1 PUSH1 0xA0 SHL SUB SWAP3 SWAP1 SWAP3 AND SWAP2 SWAP1 SWAP2 DIV SWAP3 SWAP2 POP POP JUMP INVALID LOG2 PUSH5 0x6970667358 0x22 SLT KECCAK256 DUP12 0x2B SWAP11 JUMPDEST POP 0xFB SWAP10 0xD0 PUSH31 0xFD9C8D75A3770DE37FF0DF78E9A7FBF0839BF78373E56264736F6C63430008 BYTE STOP CALLER "
		},
		"gasEstimates": {
			"creation": {
				"codeDepositCost": "327600",
				"executionCost": "395",
				"totalCost": "327995"
			},
			"external": {
				"MotzkinPrime()": "265",
				"hashWith(address,address)": "infinite",
				"hashWithHash(address,uint256)": "infinite",
				"modExp(uint256,uint256,uint256)": "infinite",
				"modExp64(uint64,uint64,uint64)": "infinite",
				"sortThree(uint64,uint64,uint64)": "infinite"
			}
		},
		"methodIdentifiers": {
			"MotzkinPrime()": "d3dc2a0f",
			"hashWith(address,address)": "fa6bcfec",
			"hashWithHash(address,uint256)": "6592f007",
			"modExp(uint256,uint256,uint256)": "3148f14f",
			"modExp64(uint64,uint64,uint64)": "53df6e35",
			"sortThree(uint64,uint64,uint64)": "98fdcdd6"
		}
	},
	"abi": [
		{
			"inputs": [],
			"name": "MotzkinPrime",
			"outputs": [
				{
					"internalType": "uint64",
					"name": "",
					"type": "uint64"
				}
			],
			"stateMutability": "view",
			"type": "function"
		},
		{
			"inputs": [
				{
					"internalType": "address",
					"name": "a",
					"type": "address"
				},
				{
					"internalType": "uint256",
					"name": "b",
					"type": "uint256"
				}
			],
			"name": "hashWithHash",
			"outputs": [
				{
					"internalType": "uint256",
					"name": "hash",
					"type": "uint256"
				}
			],
			"stateMutability": "pure",
			"type": "function"
		},
		{
			"inputs": [
				{
					"internalType": "uint64",
					"name": "a",
					"type": "uint64"
				},
				{
					"internalType": "uint64",
					"name": "b",
					"type": "uint64"
				},
				{
					"internalType": "uint64",
					"name": "c",
					"type": "uint64"
				}
			],
			"name": "sortThree",
			"outputs": [
				{
					"internalType": "uint64",
					"name": "",
					"type": "uint64"
				},
				{
					"internalType": "uint64",
					"name": "",
					"type": "uint64"
				},
				{
					"internalType": "uint64",
					"name": "",
					"type": "uint64"
				}
			],
			"stateMutability": "pure",
			"type": "function"
		}
	]
}