{
	"data": {
		"bytecode": {
			"linkReferences": {},
			"object": "610100604052348015610010575f80fd5b5060405161050b38038061050b83398101604081905261002f91610112565b81831161009d5760405162461bcd60e51b815260206004820152603160248201527f496e697469616c207072696365206d757374206265206772656174657220746860448201527030b71036b4b734b6bab690383934b1b29760791b60648201526084015b60405180910390fd5b5f81116100ec5760405162461bcd60e51b815260206004820181905260248201527f4475726174696f6e206d7573742062652067726561746572207468616e20302e6044820152606401610094565b608083905260a0829052610103816201518061013d565b60e05250504260c05250610166565b5f805f60608486031215610124575f80fd5b5050815160208301516040909301519094929350919050565b808202811582820484141761016057634e487b7160e01b5f52601160045260245ffd5b92915050565b60805160a05160c05160e0516103456101c65f395f8181605e0152818161013a015261018901525f818160be015261011101525f818160e501528181610161015281816101fe015261026b01525f81816097015261021f01526103455ff3fe608060405234801561000f575f80fd5b5060043610610055575f3560e01c80630fb5a6b4146100595780631d0806ae1461009257806378e97925146100b9578063e45be8eb146100e0578063eb91d37e14610107575b5f80fd5b6100807f000000000000000000000000000000000000000000000000000000000000000081565b60405190815260200160405180910390f35b6100807f000000000000000000000000000000000000000000000000000000000000000081565b6100807f000000000000000000000000000000000000000000000000000000000000000081565b6100807f000000000000000000000000000000000000000000000000000000000000000081565b6100805f806101367f0000000000000000000000000000000000000000000000000000000000000000426102ad565b90507f00000000000000000000000000000000000000000000000000000000000000008110610186577f000000000000000000000000000000000000000000000000000000000000000091505090565b5f7f00000000000000000000000000000000000000000000000000000000000000006101ba83670de0b6b3a76400006102c6565b6101c491906102dd565b90505f670de0b6b3a76400006101da83806102c6565b6101e491906102dd565b6101f690670de0b6b3a76400006102ad565b90505f6102437f00000000000000000000000000000000000000000000000000000000000000007f00000000000000000000000000000000000000000000000000000000000000006102ad565b90505f670de0b6b3a764000061025984846102c6565b61026391906102dd565b905061028f817f00000000000000000000000000000000000000000000000000000000000000006102fc565b9550505050505090565b634e487b7160e01b5f52601160045260245ffd5b818103818111156102c0576102c0610299565b92915050565b80820281158282048414176102c0576102c0610299565b5f826102f757634e487b7160e01b5f52601260045260245ffd5b500490565b808201808211156102c0576102c061029956fea2646970667358221220280c6ea4eb7d421fba07af45af3461b4e7c4452511ee750d7de0d2da034511b964736f6c634300081a0033",
			"opcodes": "PUSH2 0x100 PUSH1 0x40 MSTORE CALLVALUE DUP1 ISZERO PUSH2 0x10 JUMPI PUSH0 DUP1 REVERT JUMPDEST POP PUSH1 0x40 MLOAD PUSH2 0x50B CODESIZE SUB DUP1 PUSH2 0x50B DUP4 CODECOPY DUP2 ADD PUSH1 0x40 DUP2 SWAP1 MSTORE PUSH2 0x2F SWAP2 PUSH2 0x112 JUMP JUMPDEST DUP2 DUP4 GT PUSH2 0x9D JUMPI PUSH1 0x40 MLOAD PUSH3 0x461BCD PUSH1 0xE5 SHL DUP2 MSTORE PUSH1 0x20 PUSH1 0x4 DUP3 ADD MSTORE PUSH1 0x31 PUSH1 0x24 DUP3 ADD MSTORE PUSH32 0x496E697469616C207072696365206D7573742062652067726561746572207468 PUSH1 0x44 DUP3 ADD MSTORE PUSH17 0x30B71036B4B734B6BAB690383934B1B297 PUSH1 0x79 SHL PUSH1 0x64 DUP3 ADD MSTORE PUSH1 0x84 ADD JUMPDEST PUSH1 0x40 MLOAD DUP1 SWAP2 SUB SWAP1 REVERT JUMPDEST PUSH0 DUP2 GT PUSH2 0xEC JUMPI PUSH1 0x40 MLOAD PUSH3 0x461BCD PUSH1 0xE5 SHL DUP2 MSTORE PUSH1 0x20 PUSH1 0x4 DUP3 ADD DUP2 SWAP1 MSTORE PUSH1 0x24 DUP3 ADD MSTORE PUSH32 0x4475726174696F6E206D7573742062652067726561746572207468616E20302E PUSH1 0x44 DUP3 ADD MSTORE PUSH1 0x64 ADD PUSH2 0x94 JUMP JUMPDEST PUSH1 0x80 DUP4 SWAP1 MSTORE PUSH1 0xA0 DUP3 SWAP1 MSTORE PUSH2 0x103 DUP2 PUSH3 0x15180 PUSH2 0x13D JUMP JUMPDEST PUSH1 0xE0 MSTORE POP POP TIMESTAMP PUSH1 0xC0 MSTORE POP PUSH2 0x166 JUMP JUMPDEST PUSH0 DUP1 PUSH0 PUSH1 0x60 DUP5 DUP7 SUB SLT ISZERO PUSH2 0x124 JUMPI PUSH0 DUP1 REVERT JUMPDEST POP POP DUP2 MLOAD PUSH1 0x20 DUP4 ADD MLOAD PUSH1 0x40 SWAP1 SWAP4 ADD MLOAD SWAP1 SWAP5 SWAP3 SWAP4 POP SWAP2 SWAP1 POP JUMP JUMPDEST DUP1 DUP3 MUL DUP2 ISZERO DUP3 DUP3 DIV DUP5 EQ OR PUSH2 0x160 JUMPI PUSH4 0x4E487B71 PUSH1 0xE0 SHL PUSH0 MSTORE PUSH1 0x11 PUSH1 0x4 MSTORE PUSH1 0x24 PUSH0 REVERT JUMPDEST SWAP3 SWAP2 POP POP JUMP JUMPDEST PUSH1 0x80 MLOAD PUSH1 0xA0 MLOAD PUSH1 0xC0 MLOAD PUSH1 0xE0 MLOAD PUSH2 0x345 PUSH2 0x1C6 PUSH0 CODECOPY PUSH0 DUP2 DUP2 PUSH1 0x5E ADD MSTORE DUP2 DUP2 PUSH2 0x13A ADD MSTORE PUSH2 0x189 ADD MSTORE PUSH0 DUP2 DUP2 PUSH1 0xBE ADD MSTORE PUSH2 0x111 ADD MSTORE PUSH0 DUP2 DUP2 PUSH1 0xE5 ADD MSTORE DUP2 DUP2 PUSH2 0x161 ADD MSTORE DUP2 DUP2 PUSH2 0x1FE ADD MSTORE PUSH2 0x26B ADD MSTORE PUSH0 DUP2 DUP2 PUSH1 0x97 ADD MSTORE PUSH2 0x21F ADD MSTORE PUSH2 0x345 PUSH0 RETURN INVALID PUSH1 0x80 PUSH1 0x40 MSTORE CALLVALUE DUP1 ISZERO PUSH2 0xF JUMPI PUSH0 DUP1 REVERT JUMPDEST POP PUSH1 0x4 CALLDATASIZE LT PUSH2 0x55 JUMPI PUSH0 CALLDATALOAD PUSH1 0xE0 SHR DUP1 PUSH4 0xFB5A6B4 EQ PUSH2 0x59 JUMPI DUP1 PUSH4 0x1D0806AE EQ PUSH2 0x92 JUMPI DUP1 PUSH4 0x78E97925 EQ PUSH2 0xB9 JUMPI DUP1 PUSH4 0xE45BE8EB EQ PUSH2 0xE0 JUMPI DUP1 PUSH4 0xEB91D37E EQ PUSH2 0x107 JUMPI JUMPDEST PUSH0 DUP1 REVERT JUMPDEST PUSH2 0x80 PUSH32 0x0 DUP2 JUMP JUMPDEST PUSH1 0x40 MLOAD SWAP1 DUP2 MSTORE PUSH1 0x20 ADD PUSH1 0x40 MLOAD DUP1 SWAP2 SUB SWAP1 RETURN JUMPDEST PUSH2 0x80 PUSH32 0x0 DUP2 JUMP JUMPDEST PUSH2 0x80 PUSH32 0x0 DUP2 JUMP JUMPDEST PUSH2 0x80 PUSH32 0x0 DUP2 JUMP JUMPDEST PUSH2 0x80 PUSH0 DUP1 PUSH2 0x136 PUSH32 0x0 TIMESTAMP PUSH2 0x2AD JUMP JUMPDEST SWAP1 POP PUSH32 0x0 DUP2 LT PUSH2 0x186 JUMPI PUSH32 0x0 SWAP2 POP POP SWAP1 JUMP JUMPDEST PUSH0 PUSH32 0x0 PUSH2 0x1BA DUP4 PUSH8 0xDE0B6B3A7640000 PUSH2 0x2C6 JUMP JUMPDEST PUSH2 0x1C4 SWAP2 SWAP1 PUSH2 0x2DD JUMP JUMPDEST SWAP1 POP PUSH0 PUSH8 0xDE0B6B3A7640000 PUSH2 0x1DA DUP4 DUP1 PUSH2 0x2C6 JUMP JUMPDEST PUSH2 0x1E4 SWAP2 SWAP1 PUSH2 0x2DD JUMP JUMPDEST PUSH2 0x1F6 SWAP1 PUSH8 0xDE0B6B3A7640000 PUSH2 0x2AD JUMP JUMPDEST SWAP1 POP PUSH0 PUSH2 0x243 PUSH32 0x0 PUSH32 0x0 PUSH2 0x2AD JUMP JUMPDEST SWAP1 POP PUSH0 PUSH8 0xDE0B6B3A7640000 PUSH2 0x259 DUP5 DUP5 PUSH2 0x2C6 JUMP JUMPDEST PUSH2 0x263 SWAP2 SWAP1 PUSH2 0x2DD JUMP JUMPDEST SWAP1 POP PUSH2 0x28F DUP2 PUSH32 0x0 PUSH2 0x2FC JUMP JUMPDEST SWAP6 POP POP POP POP POP POP SWAP1 JUMP JUMPDEST PUSH4 0x4E487B71 PUSH1 0xE0 SHL PUSH0 MSTORE PUSH1 0x11 PUSH1 0x4 MSTORE PUSH1 0x24 PUSH0 REVERT JUMPDEST DUP2 DUP2 SUB DUP2 DUP2 GT ISZERO PUSH2 0x2C0 JUMPI PUSH2 0x2C0 PUSH2 0x299 JUMP JUMPDEST SWAP3 SWAP2 POP POP JUMP JUMPDEST DUP1 DUP3 MUL DUP2 ISZERO DUP3 DUP3 DIV DUP5 EQ OR PUSH2 0x2C0 JUMPI PUSH2 0x2C0 PUSH2 0x299 JUMP JUMPDEST PUSH0 DUP3 PUSH2 0x2F7 JUMPI PUSH4 0x4E487B71 PUSH1 0xE0 SHL PUSH0 MSTORE PUSH1 0x12 PUSH1 0x4 MSTORE PUSH1 0x24 PUSH0 REVERT JUMPDEST POP DIV SWAP1 JUMP JUMPDEST DUP1 DUP3 ADD DUP1 DUP3 GT ISZERO PUSH2 0x2C0 JUMPI PUSH2 0x2C0 PUSH2 0x299 JUMP INVALID LOG2 PUSH5 0x6970667358 0x22 SLT KECCAK256 0x28 0xC PUSH15 0xA4EB7D421FBA07AF45AF3461B4E7C4 GASLIMIT 0x25 GT 0xEE PUSH22 0xD7DE0D2DA034511B964736F6C634300081A00330000 "
		},
		"gasEstimates": {
			"creation": {
				"codeDepositCost": "167400",
				"executionCost": "infinite",
				"totalCost": "infinite"
			},
			"external": {
				"duration()": "infinite",
				"getCurrentPrice()": "infinite",
				"initialPrice()": "infinite",
				"minPrice()": "infinite",
				"startTime()": "infinite"
			}
		},
		"methodIdentifiers": {
			"duration()": "0fb5a6b4",
			"getCurrentPrice()": "eb91d37e",
			"initialPrice()": "1d0806ae",
			"minPrice()": "e45be8eb",
			"startTime()": "78e97925"
		}
	},
	"abi": [
		{
			"inputs": [
				{
					"internalType": "uint256",
					"name": "_initialPrice",
					"type": "uint256"
				},
				{
					"internalType": "uint256",
					"name": "_minPrice",
					"type": "uint256"
				},
				{
					"internalType": "uint256",
					"name": "_duration",
					"type": "uint256"
				}
			],
			"stateMutability": "nonpayable",
			"type": "constructor"
		},
		{
			"inputs": [],
			"name": "duration",
			"outputs": [
				{
					"internalType": "uint256",
					"name": "",
					"type": "uint256"
				}
			],
			"stateMutability": "view",
			"type": "function"
		},
		{
			"inputs": [],
			"name": "getCurrentPrice",
			"outputs": [
				{
					"internalType": "uint256",
					"name": "",
					"type": "uint256"
				}
			],
			"stateMutability": "view",
			"type": "function"
		},
		{
			"inputs": [],
			"name": "initialPrice",
			"outputs": [
				{
					"internalType": "uint256",
					"name": "",
					"type": "uint256"
				}
			],
			"stateMutability": "view",
			"type": "function"
		},
		{
			"inputs": [],
			"name": "minPrice",
			"outputs": [
				{
					"internalType": "uint256",
					"name": "",
					"type": "uint256"
				}
			],
			"stateMutability": "view",
			"type": "function"
		},
		{
			"inputs": [],
			"name": "startTime",
			"outputs": [
				{
					"internalType": "uint256",
					"name": "",
					"type": "uint256"
				}
			],
			"stateMutability": "view",
			"type": "function"
		}
	]
}