{
	"data": {
		"bytecode": {
			"linkReferences": {},
			"object": "60e06040523060805261036960a0525f600c81905560c052348015610022575f80fd5b5061002b610030565b6100e2565b7ff0c57e16840df040f15088dc2f81fe391c3923bec73e23a9662efc9c229c6a00805468010000000000000000900460ff16156100805760405163f92ee8a960e01b815260040160405180910390fd5b80546001600160401b03908116146100df5780546001600160401b0319166001600160401b0390811782556040519081527fc7f505b2f371ae2175ee4913f4499e1f2633a7b5936321eed1cdaeb6115181d29060200160405180910390a15b50565b60805160a05160c051611c3461011a5f395f6105c401525f61033801525f818161100801528181611031015261116c0152611c345ff3fe6080604052600436106101b5575f3560e01c80638da5cb5b116100ea578063d48bfca71161008e578063d48bfca714610674578063d54fcafc14610693578063d5fdb732146106b2578063d6441452146106d1578063d69066101461070f578063dc61b1d31461072e578063ed46156e1461074d578063f2fde38b14610785578063fa6bcfec146107a4575f80fd5b80638da5cb5b146104b75780639183b108146104cb5780639ea545a31461051a578063a71c65df14610575578063ab701207146105b3578063ad3cb1cc146105e6578063c21ad2a414610623578063d3dc2a0f14610642575f80fd5b806344df8e701161015c57806344df8e7014610327578063485cc955146103675780634f1ef2861461038657806352d1902d146103995780636568ac9e146103ad5780636f77926b146103e1578063715018a6146104185780637889b7ff1461042c578063817dbe9f1461045a575f80fd5b8063144c4b8f146101b95780631b4e7bd2146101dc5780632254c8041461021a5780632b29ce991461023b5780632fe126ba146102665780633593c905146102875780633b63ef0a1461029c578063421b2d8b14610308575b5f80fd5b3480156101c4575f80fd5b50600c545b6040519081526020015b60405180910390f35b3480156101e7575f80fd5b5061020a6101f63660046117f4565b60086020525f908152604090205460ff1681565b60405190151581526020016101d3565b348015610225575f80fd5b5061023961023436600461180d565b6107c3565b005b348015610246575f80fd5b506101c96102553660046117f4565b60066020525f908152604090205481565b348015610271575f80fd5b5061027a6108ee565b6040516101d3919061183e565b348015610292575f80fd5b506101c9600c5481565b3480156102a7575f80fd5b506102fb6102b636600461189e565b604080518082019091525f8082526020820152505f90815260076020908152604091829020825180840190935280546001600160a01b03168352600101549082015290565b6040516101d391906118b5565b348015610313575f80fd5b506102396103223660046117f4565b6109f8565b348015610332575f80fd5b5061035a7f000000000000000000000000000000000000000000000000000000000000000081565b6040516101d391906118d5565b348015610372575f80fd5b5061023961038136600461180d565b610a0c565b6102396103943660046118fd565b610b3c565b3480156103a4575f80fd5b506101c9610b5b565b3480156103b8575f80fd5b5061035a6103c736600461189e565b60056020525f90815260409020546001600160a01b031681565b3480156103ec575f80fd5b5061020a6103fb3660046117f4565b6001600160a01b03165f9081526008602052604090205460ff1690565b348015610423575f80fd5b50610239610b76565b348015610437575f80fd5b5061020a6104463660046117f4565b600a6020525f908152604090205460ff1681565b348015610465575f80fd5b5061049861047436600461189e565b60076020525f9081526040902080546001909101546001600160a01b039091169082565b604080516001600160a01b0390931683526020830191909152016101d3565b3480156104c2575f80fd5b5061035a610b89565b3480156104d6575f80fd5b506040805180820182525f8082526020918201819052600c54815260078252829020825180840190935280546001600160a01b0316835260010154908201526102fb565b348015610525575f80fd5b5061055861053436600461189e565b60096020525f9081526040902060018101546002909101546001600160a01b031682565b604080519283526001600160a01b039091166020830152016101d3565b348015610580575f80fd5b5061055861058f36600461189e565b600b6020525f9081526040902060018101546002909101546001600160a01b031682565b3480156105be575f80fd5b506101c97f000000000000000000000000000000000000000000000000000000000000000081565b3480156105f1575f80fd5b50610616604051806040016040528060058152602001640352e302e360dc1b81525081565b6040516101d391906119be565b34801561062e575f80fd5b50600d5461035a906001600160a01b031681565b34801561064d575f80fd5b5061065c6603632c8eb5af3b81565b6040516001600160401b0390911681526020016101d3565b34801561067f575f80fd5b5061023961068e3660046117f4565b610bb7565b34801561069e575f80fd5b506102396106ad3660046119f3565b610be1565b3480156106bd575f80fd5b506102396106cc3660046119f3565b610c4f565b3480156106dc575f80fd5b506104986106eb36600461189e565b60046020525f9081526040902080546001909101546001600160a01b039091169082565b34801561071a575f80fd5b506102fb6107293660046117f4565b610cba565b348015610739575f80fd5b506101c9610748366004611a5f565b610e37565b348015610758575f80fd5b5061076c6107673660046119f3565b610eb8565b6040516001600160e01b031990911681526020016101d3565b348015610790575f80fd5b5061023961079f3660046117f4565b610eeb565b3480156107af575f80fd5b506101c96107be36600461180d565b610f25565b6107cb610f8a565b6001600160a01b0381165f908152600a602052604090205460ff1661082f5760405162461bcd60e51b8152602060048201526015602482015274436c617373206e6f7420696e20726567697374727960581b60448201526064015b60405180910390fd5b61083882610fbc565b5f6108433084610f25565b5f818152600b6020526040812060010180549293509061086283611ac3565b91905055505f6108723084610f25565b5f818152600760209081526040808320868452838352818420948452938252808320845481546001600160a01b03199081166001600160a01b039283161783556001968701549287019290925596845260028352818420600b845282852090950154845293909152902080549490931693169290921790555050565b60605f600c546001600160401b0381111561090b5761090b6118e9565b60405190808252806020026020018201604052801561094f57816020015b604080518082019091525f80825260208201528152602001906001900390816109295790505b50905060015b600c5481116109f2575f818152600560205260408120546109809030906001600160a01b0316610f25565b5f81815260076020908152604091829020825180840190935280546001600160a01b03168352600190810154918301919091529192509084906109c39085611adb565b815181106109d3576109d3611aee565b60200260200101819052505080806109ea90611ac3565b915050610955565b50919050565b610a00610f8a565b610a0981610fbc565b50565b7ff0c57e16840df040f15088dc2f81fe391c3923bec73e23a9662efc9c229c6a008054600160401b810460ff1615906001600160401b03165f81158015610a505750825b90505f826001600160401b03166001148015610a6b5750303b155b905081158015610a79575080155b15610a975760405163f92ee8a960e01b815260040160405180910390fd5b845467ffffffffffffffff191660011785558315610ac157845460ff60401b1916600160401b1785555b600d80546001600160a01b0319166001600160a01b038816179055610ae587610fe4565b610aed610ff5565b8315610b3357845460ff60401b19168555604051600181527fc7f505b2f371ae2175ee4913f4499e1f2633a7b5936321eed1cdaeb6115181d29060200160405180910390a15b50505050505050565b610b44610ffd565b610b4d826110a1565b610b5782826110a9565b5050565b5f610b64611161565b505f80516020611bdf83398151915290565b610b7e610f8a565b610b875f6111aa565b565b7f9016d09d72d40fdae2fd8ceac6b6234c7706214fd39c1cd1e609a0528c199300546001600160a01b031690565b610bbf610f8a565b600d80546001600160a01b0319166001600160a01b0392909216919091179055565b610be9610f8a565b5f610c2883838080601f0160208091040260200160405190810160405280939291908181526020018383808284375f9201919091525061121a92505050565b6001600160e01b0319165f908152600e60205260409020805460ff19166001179055505050565b610c57610f8a565b5f610c9683838080601f0160208091040260200160405190810160405280939291908181526020018383808284375f9201919091525061121a92505050565b6001600160e01b0319165f908152600e60205260409020805460ff19169055505050565b604080518082019091525f8082526020820152610cd5610f8a565b6001600160a01b038216610d255760405162461bcd60e51b815260206004820152601760248201527621b0b73737ba1031329030b2323932b9b9903d32b9379760491b6044820152606401610826565b5f610d303084610f25565b90506001600c5f828254610d449190611b02565b92505081905550826001600160a01b031663677196966040518163ffffffff1660e01b8152600401602060405180830381865afa158015610d87573d5f803e3d5ffd5b505050506040513d601f19601f82011682018060405250810190610dab9190611b15565b5f91825260076020818152604080852060018082019590955580546001600160a01b03808a166001600160a01b03199283168117909355828852600a8552838820805460ff191688179055600c8054895260058652848920805490931690931790915590548652928252938490208451808601909552805490921684529101549082015290505b919050565b5f610e5f6040518060400160405280600681526020016568686565726560d01b815250611249565b610e6884610fbc565b610e7183610fbc565b6001600160e01b031982165f908152600e602052604090205460ff1615610eae575f610e9c8461128c565b9050610ea7816113fd565b9050610eb1565b505f5b9392505050565b5f8282604051602001610ecc929190611b2c565b6040516020818303038152906040528051906020012090505b92915050565b610ef3610f8a565b6001600160a01b038116610f1c575f604051631e4fbdf760e01b815260040161082691906118d5565b610a09816111aa565b5f8281610f33600f85611b4f565b90505b825f03610f82576603632c8eb5af3b6001600160a01b038083168482160a16066001600160a01b031692506002816001600160a01b031681610f7a57610f7a611b3b565b049050610f36565b505092915050565b33610f93610b89565b6001600160a01b031614610b87573360405163118cdaa760e01b815260040161082691906118d5565b6001600160a01b0381165f9081526008602052604090205460ff16610a0957610a0981611442565b610fec6115a9565b610a09816115f2565b610b876115a9565b306001600160a01b037f000000000000000000000000000000000000000000000000000000000000000016148061108357507f00000000000000000000000000000000000000000000000000000000000000006001600160a01b03166110775f80516020611bdf833981519152546001600160a01b031690565b6001600160a01b031614155b15610b875760405163703e46dd60e11b815260040160405180910390fd5b610a09610f8a565b816001600160a01b03166352d1902d6040518163ffffffff1660e01b8152600401602060405180830381865afa925050508015611103575060408051601f3d908101601f1916820190925261110091810190611b15565b60015b6111225781604051634c9c8ce360e01b815260040161082691906118d5565b5f80516020611bdf833981519152811461115257604051632a87526960e21b815260048101829052602401610826565b61115c83836115fa565b505050565b306001600160a01b037f00000000000000000000000000000000000000000000000000000000000000001614610b875760405163703e46dd60e11b815260040160405180910390fd5b7f9016d09d72d40fdae2fd8ceac6b6234c7706214fd39c1cd1e609a0528c19930080546001600160a01b031981166001600160a01b03848116918217845560405192169182907f8be0079c531659141344cd1fd0a4f28419497f9722a3daafe3b4186f6b6457e0905f90a3505050565b5f8160405160200161122c9190611ba0565b604051602081830303815290604052805190602001209050919050565b610a098160405160240161125d91906119be565b60408051601f198184030181529190526020810180516001600160e01b031663104c13eb60e21b17905261164f565b5f80806112993085610f25565b5f818152600260209081526040808320600184528252918290205482516333b8cb4b60e11b81529251939450611323936001600160a01b039091169263677196969260048083019391928290030181865afa1580156112fa573d5f803e3d5ffd5b505050506040513d601f19601f8201168201806040525081019061131e9190611b15565b6113fd565b60015b5f828152600b602052604090206001015481116113d8575f8281526002602090815260408083208484528252918290205482516333b8cb4b60e11b815292516001600160a01b039091169263677196969260048083019391928290030181865afa158015611396573d5f803e3d5ffd5b505050506040513d601f19601f820116820180604052508101906113ba9190611b15565b6113c49084611bab565b9250806113d081611ac3565b915050611326565b506113e2826113fd565b6113eb825f1390565b156113f6576101f491505b5092915050565b610a098160405160240161141391815260200190565b60408051601f198184030181529190526020810180516001600160e01b0316632d5b6cb960e01b17905261164f565b6001600160a01b03811661145857611458611bca565b6001600160a01b0381165f9081526008602052604090205460ff161561148057611480611bca565b5f61148b3083610f25565b6001600160a01b038084165f818152600860209081526040808320805460ff19166001908117909155868452600b835290832080820182905560020180546001600160a01b03191690941790935591815260059091527f1471eb6eb2c5e789fc3de43f8ce62938c7d1836ec861730447e2ada8fd81017b549293509161151391309116610f25565b5f818152600760209081526040808320868452838352818420948452938252808320845481546001600160a01b039182166001600160a01b0319918216178355600196870154928701929092557f1471eb6eb2c5e789fc3de43f8ce62938c7d1836ec861730447e2ada8fd81017b5497855260028452828520958552949092529091208054949092169316929092179091555050565b7ff0c57e16840df040f15088dc2f81fe391c3923bec73e23a9662efc9c229c6a0054600160401b900460ff16610b8757604051631afcd79f60e31b815260040160405180910390fd5b610ef36115a9565b61160382611658565b6040516001600160a01b038316907fbc7cd75a20ee27fd9adebab32041f755214dbc6bffa90cc0225b39da2e5c2d3b905f90a28051156116475761115c82826116b2565b610b57611724565b610a0981611743565b806001600160a01b03163b5f036116845780604051634c9c8ce360e01b815260040161082691906118d5565b5f80516020611bdf83398151915280546001600160a01b0319166001600160a01b0392909216919091179055565b60605f80846001600160a01b0316846040516116ce9190611ba0565b5f60405180830381855af49150503d805f8114611706576040519150601f19603f3d011682016040523d82523d5f602084013e61170b565b606091505b509150915061171b858383611762565b95945050505050565b3415610b875760405163b398979f60e01b815260040160405180910390fd5b5f6a636f6e736f6c652e6c6f6790505f80835160208501845afa505050565b60608261177757611772826117b5565b610eb1565b815115801561178e57506001600160a01b0384163b155b156117ae5783604051639996b31560e01b815260040161082691906118d5565b5080610eb1565b8051156117c55780518082602001fd5b604051630a12f52160e11b815260040160405180910390fd5b80356001600160a01b0381168114610e32575f80fd5b5f60208284031215611804575f80fd5b610eb1826117de565b5f806040838503121561181e575f80fd5b611827836117de565b9150611835602084016117de565b90509250929050565b602080825282518282018190525f918401906040840190835b818110156118935761187d83855180516001600160a01b03168252602090810151910152565b6020939093019260409290920191600101611857565b509095945050505050565b5f602082840312156118ae575f80fd5b5035919050565b81516001600160a01b031681526020808301519082015260408101610ee5565b6001600160a01b0391909116815260200190565b634e487b7160e01b5f52604160045260245ffd5b5f806040838503121561190e575f80fd5b611917836117de565b915060208301356001600160401b03811115611931575f80fd5b8301601f81018513611941575f80fd5b80356001600160401b0381111561195a5761195a6118e9565b604051601f8201601f19908116603f011681016001600160401b0381118282101715611988576119886118e9565b60405281815282820160200187101561199f575f80fd5b816020840160208301375f602083830101528093505050509250929050565b602081525f82518060208401528060208501604085015e5f604082850101526040601f19601f83011684010191505092915050565b5f8060208385031215611a04575f80fd5b82356001600160401b03811115611a19575f80fd5b8301601f81018513611a29575f80fd5b80356001600160401b03811115611a3e575f80fd5b856020828401011115611a4f575f80fd5b6020919091019590945092505050565b5f805f60608486031215611a71575f80fd5b611a7a846117de565b9250611a88602085016117de565b915060408401356001600160e01b031981168114611aa4575f80fd5b809150509250925092565b634e487b7160e01b5f52601160045260245ffd5b5f60018201611ad457611ad4611aaf565b5060010190565b81810381811115610ee557610ee5611aaf565b634e487b7160e01b5f52603260045260245ffd5b80820180821115610ee557610ee5611aaf565b5f60208284031215611b25575f80fd5b5051919050565b818382375f9101908152919050565b634e487b7160e01b5f52601260045260245ffd5b5f6001600160a01b03831680611b7357634e487b7160e01b5f52601260045260245ffd5b6001600160a01b03929092169190910492915050565b5f81518060208401855e5f93019283525090919050565b5f610eb18284611b89565b8082018281125f831280158216821582161715610f8257610f82611aaf565b634e487b7160e01b5f52600160045260245ffdfe360894a13ba1a3210667c828492db98dca3e2076cc3735a920a3ca505d382bbca2646970667358221220eb8527457f6e161452eaca5004338a63dd05bc9de42320bb511f9cf8fbac83b164736f6c634300081a0033",
			"opcodes": "PUSH1 0xE0 PUSH1 0x40 MSTORE ADDRESS PUSH1 0x80 MSTORE PUSH2 0x369 PUSH1 0xA0 MSTORE PUSH0 PUSH1 0xC DUP2 SWAP1 SSTORE PUSH1 0xC0 MSTORE CALLVALUE DUP1 ISZERO PUSH2 0x22 JUMPI PUSH0 DUP1 REVERT JUMPDEST POP PUSH2 0x2B PUSH2 0x30 JUMP JUMPDEST PUSH2 0xE2 JUMP JUMPDEST PUSH32 0xF0C57E16840DF040F15088DC2F81FE391C3923BEC73E23A9662EFC9C229C6A00 DUP1 SLOAD PUSH9 0x10000000000000000 SWAP1 DIV PUSH1 0xFF AND ISZERO PUSH2 0x80 JUMPI PUSH1 0x40 MLOAD PUSH4 0xF92EE8A9 PUSH1 0xE0 SHL DUP2 MSTORE PUSH1 0x4 ADD PUSH1 0x40 MLOAD DUP1 SWAP2 SUB SWAP1 REVERT JUMPDEST DUP1 SLOAD PUSH1 0x1 PUSH1 0x1 PUSH1 0x40 SHL SUB SWAP1 DUP2 AND EQ PUSH2 0xDF JUMPI DUP1 SLOAD PUSH1 0x1 PUSH1 0x1 PUSH1 0x40 SHL SUB NOT AND PUSH1 0x1 PUSH1 0x1 PUSH1 0x40 SHL SUB SWAP1 DUP2 OR DUP3 SSTORE PUSH1 0x40 MLOAD SWAP1 DUP2 MSTORE PUSH32 0xC7F505B2F371AE2175EE4913F4499E1F2633A7B5936321EED1CDAEB6115181D2 SWAP1 PUSH1 0x20 ADD PUSH1 0x40 MLOAD DUP1 SWAP2 SUB SWAP1 LOG1 JUMPDEST POP JUMP JUMPDEST PUSH1 0x80 MLOAD PUSH1 0xA0 MLOAD PUSH1 0xC0 MLOAD PUSH2 0x1C34 PUSH2 0x11A PUSH0 CODECOPY PUSH0 PUSH2 0x5C4 ADD MSTORE PUSH0 PUSH2 0x338 ADD MSTORE PUSH0 DUP2 DUP2 PUSH2 0x1008 ADD MSTORE DUP2 DUP2 PUSH2 0x1031 ADD MSTORE PUSH2 0x116C ADD MSTORE PUSH2 0x1C34 PUSH0 RETURN INVALID PUSH1 0x80 PUSH1 0x40 MSTORE PUSH1 0x4 CALLDATASIZE LT PUSH2 0x1B5 JUMPI PUSH0 CALLDATALOAD PUSH1 0xE0 SHR DUP1 PUSH4 0x8DA5CB5B GT PUSH2 0xEA JUMPI DUP1 PUSH4 0xD48BFCA7 GT PUSH2 0x8E JUMPI DUP1 PUSH4 0xD48BFCA7 EQ PUSH2 0x674 JUMPI DUP1 PUSH4 0xD54FCAFC EQ PUSH2 0x693 JUMPI DUP1 PUSH4 0xD5FDB732 EQ PUSH2 0x6B2 JUMPI DUP1 PUSH4 0xD6441452 EQ PUSH2 0x6D1 JUMPI DUP1 PUSH4 0xD6906610 EQ PUSH2 0x70F JUMPI DUP1 PUSH4 0xDC61B1D3 EQ PUSH2 0x72E JUMPI DUP1 PUSH4 0xED46156E EQ PUSH2 0x74D JUMPI DUP1 PUSH4 0xF2FDE38B EQ PUSH2 0x785 JUMPI DUP1 PUSH4 0xFA6BCFEC EQ PUSH2 0x7A4 JUMPI PUSH0 DUP1 REVERT JUMPDEST DUP1 PUSH4 0x8DA5CB5B EQ PUSH2 0x4B7 JUMPI DUP1 PUSH4 0x9183B108 EQ PUSH2 0x4CB JUMPI DUP1 PUSH4 0x9EA545A3 EQ PUSH2 0x51A JUMPI DUP1 PUSH4 0xA71C65DF EQ PUSH2 0x575 JUMPI DUP1 PUSH4 0xAB701207 EQ PUSH2 0x5B3 JUMPI DUP1 PUSH4 0xAD3CB1CC EQ PUSH2 0x5E6 JUMPI DUP1 PUSH4 0xC21AD2A4 EQ PUSH2 0x623 JUMPI DUP1 PUSH4 0xD3DC2A0F EQ PUSH2 0x642 JUMPI PUSH0 DUP1 REVERT JUMPDEST DUP1 PUSH4 0x44DF8E70 GT PUSH2 0x15C JUMPI DUP1 PUSH4 0x44DF8E70 EQ PUSH2 0x327 JUMPI DUP1 PUSH4 0x485CC955 EQ PUSH2 0x367 JUMPI DUP1 PUSH4 0x4F1EF286 EQ PUSH2 0x386 JUMPI DUP1 PUSH4 0x52D1902D EQ PUSH2 0x399 JUMPI DUP1 PUSH4 0x6568AC9E EQ PUSH2 0x3AD JUMPI DUP1 PUSH4 0x6F77926B EQ PUSH2 0x3E1 JUMPI DUP1 PUSH4 0x715018A6 EQ PUSH2 0x418 JUMPI DUP1 PUSH4 0x7889B7FF EQ PUSH2 0x42C JUMPI DUP1 PUSH4 0x817DBE9F EQ PUSH2 0x45A JUMPI PUSH0 DUP1 REVERT JUMPDEST DUP1 PUSH4 0x144C4B8F EQ PUSH2 0x1B9 JUMPI DUP1 PUSH4 0x1B4E7BD2 EQ PUSH2 0x1DC JUMPI DUP1 PUSH4 0x2254C804 EQ PUSH2 0x21A JUMPI DUP1 PUSH4 0x2B29CE99 EQ PUSH2 0x23B JUMPI DUP1 PUSH4 0x2FE126BA EQ PUSH2 0x266 JUMPI DUP1 PUSH4 0x3593C905 EQ PUSH2 0x287 JUMPI DUP1 PUSH4 0x3B63EF0A EQ PUSH2 0x29C JUMPI DUP1 PUSH4 0x421B2D8B EQ PUSH2 0x308 JUMPI JUMPDEST PUSH0 DUP1 REVERT JUMPDEST CALLVALUE DUP1 ISZERO PUSH2 0x1C4 JUMPI PUSH0 DUP1 REVERT JUMPDEST POP PUSH1 0xC SLOAD JUMPDEST PUSH1 0x40 MLOAD SWAP1 DUP2 MSTORE PUSH1 0x20 ADD JUMPDEST PUSH1 0x40 MLOAD DUP1 SWAP2 SUB SWAP1 RETURN JUMPDEST CALLVALUE DUP1 ISZERO PUSH2 0x1E7 JUMPI PUSH0 DUP1 REVERT JUMPDEST POP PUSH2 0x20A PUSH2 0x1F6 CALLDATASIZE PUSH1 0x4 PUSH2 0x17F4 JUMP JUMPDEST PUSH1 0x8 PUSH1 0x20 MSTORE PUSH0 SWAP1 DUP2 MSTORE PUSH1 0x40 SWAP1 KECCAK256 SLOAD PUSH1 0xFF AND DUP2 JUMP JUMPDEST PUSH1 0x40 MLOAD SWAP1 ISZERO ISZERO DUP2 MSTORE PUSH1 0x20 ADD PUSH2 0x1D3 JUMP JUMPDEST CALLVALUE DUP1 ISZERO PUSH2 0x225 JUMPI PUSH0 DUP1 REVERT JUMPDEST POP PUSH2 0x239 PUSH2 0x234 CALLDATASIZE PUSH1 0x4 PUSH2 0x180D JUMP JUMPDEST PUSH2 0x7C3 JUMP JUMPDEST STOP JUMPDEST CALLVALUE DUP1 ISZERO PUSH2 0x246 JUMPI PUSH0 DUP1 REVERT JUMPDEST POP PUSH2 0x1C9 PUSH2 0x255 CALLDATASIZE PUSH1 0x4 PUSH2 0x17F4 JUMP JUMPDEST PUSH1 0x6 PUSH1 0x20 MSTORE PUSH0 SWAP1 DUP2 MSTORE PUSH1 0x40 SWAP1 KECCAK256 SLOAD DUP2 JUMP JUMPDEST CALLVALUE DUP1 ISZERO PUSH2 0x271 JUMPI PUSH0 DUP1 REVERT JUMPDEST POP PUSH2 0x27A PUSH2 0x8EE JUMP JUMPDEST PUSH1 0x40 MLOAD PUSH2 0x1D3 SWAP2 SWAP1 PUSH2 0x183E JUMP JUMPDEST CALLVALUE DUP1 ISZERO PUSH2 0x292 JUMPI PUSH0 DUP1 REVERT JUMPDEST POP PUSH2 0x1C9 PUSH1 0xC SLOAD DUP2 JUMP JUMPDEST CALLVALUE DUP1 ISZERO PUSH2 0x2A7 JUMPI PUSH0 DUP1 REVERT JUMPDEST POP PUSH2 0x2FB PUSH2 0x2B6 CALLDATASIZE PUSH1 0x4 PUSH2 0x189E JUMP JUMPDEST PUSH1 0x40 DUP1 MLOAD DUP1 DUP3 ADD SWAP1 SWAP2 MSTORE PUSH0 DUP1 DUP3 MSTORE PUSH1 0x20 DUP3 ADD MSTORE POP PUSH0 SWAP1 DUP2 MSTORE PUSH1 0x7 PUSH1 0x20 SWAP1 DUP2 MSTORE PUSH1 0x40 SWAP2 DUP3 SWAP1 KECCAK256 DUP3 MLOAD DUP1 DUP5 ADD SWAP1 SWAP4 MSTORE DUP1 SLOAD PUSH1 0x1 PUSH1 0x1 PUSH1 0xA0 SHL SUB AND DUP4 MSTORE PUSH1 0x1 ADD SLOAD SWAP1 DUP3 ADD MSTORE SWAP1 JUMP JUMPDEST PUSH1 0x40 MLOAD PUSH2 0x1D3 SWAP2 SWAP1 PUSH2 0x18B5 JUMP JUMPDEST CALLVALUE DUP1 ISZERO PUSH2 0x313 JUMPI PUSH0 DUP1 REVERT JUMPDEST POP PUSH2 0x239 PUSH2 0x322 CALLDATASIZE PUSH1 0x4 PUSH2 0x17F4 JUMP JUMPDEST PUSH2 0x9F8 JUMP JUMPDEST CALLVALUE DUP1 ISZERO PUSH2 0x332 JUMPI PUSH0 DUP1 REVERT JUMPDEST POP PUSH2 0x35A PUSH32 0x0 DUP2 JUMP JUMPDEST PUSH1 0x40 MLOAD PUSH2 0x1D3 SWAP2 SWAP1 PUSH2 0x18D5 JUMP JUMPDEST CALLVALUE DUP1 ISZERO PUSH2 0x372 JUMPI PUSH0 DUP1 REVERT JUMPDEST POP PUSH2 0x239 PUSH2 0x381 CALLDATASIZE PUSH1 0x4 PUSH2 0x180D JUMP JUMPDEST PUSH2 0xA0C JUMP JUMPDEST PUSH2 0x239 PUSH2 0x394 CALLDATASIZE PUSH1 0x4 PUSH2 0x18FD JUMP JUMPDEST PUSH2 0xB3C JUMP JUMPDEST CALLVALUE DUP1 ISZERO PUSH2 0x3A4 JUMPI PUSH0 DUP1 REVERT JUMPDEST POP PUSH2 0x1C9 PUSH2 0xB5B JUMP JUMPDEST CALLVALUE DUP1 ISZERO PUSH2 0x3B8 JUMPI PUSH0 DUP1 REVERT JUMPDEST POP PUSH2 0x35A PUSH2 0x3C7 CALLDATASIZE PUSH1 0x4 PUSH2 0x189E JUMP JUMPDEST PUSH1 0x5 PUSH1 0x20 MSTORE PUSH0 SWAP1 DUP2 MSTORE PUSH1 0x40 SWAP1 KECCAK256 SLOAD PUSH1 0x1 PUSH1 0x1 PUSH1 0xA0 SHL SUB AND DUP2 JUMP JUMPDEST CALLVALUE DUP1 ISZERO PUSH2 0x3EC JUMPI PUSH0 DUP1 REVERT JUMPDEST POP PUSH2 0x20A PUSH2 0x3FB CALLDATASIZE PUSH1 0x4 PUSH2 0x17F4 JUMP JUMPDEST PUSH1 0x1 PUSH1 0x1 PUSH1 0xA0 SHL SUB AND PUSH0 SWAP1 DUP2 MSTORE PUSH1 0x8 PUSH1 0x20 MSTORE PUSH1 0x40 SWAP1 KECCAK256 SLOAD PUSH1 0xFF AND SWAP1 JUMP JUMPDEST CALLVALUE DUP1 ISZERO PUSH2 0x423 JUMPI PUSH0 DUP1 REVERT JUMPDEST POP PUSH2 0x239 PUSH2 0xB76 JUMP JUMPDEST CALLVALUE DUP1 ISZERO PUSH2 0x437 JUMPI PUSH0 DUP1 REVERT JUMPDEST POP PUSH2 0x20A PUSH2 0x446 CALLDATASIZE PUSH1 0x4 PUSH2 0x17F4 JUMP JUMPDEST PUSH1 0xA PUSH1 0x20 MSTORE PUSH0 SWAP1 DUP2 MSTORE PUSH1 0x40 SWAP1 KECCAK256 SLOAD PUSH1 0xFF AND DUP2 JUMP JUMPDEST CALLVALUE DUP1 ISZERO PUSH2 0x465 JUMPI PUSH0 DUP1 REVERT JUMPDEST POP PUSH2 0x498 PUSH2 0x474 CALLDATASIZE PUSH1 0x4 PUSH2 0x189E JUMP JUMPDEST PUSH1 0x7 PUSH1 0x20 MSTORE PUSH0 SWAP1 DUP2 MSTORE PUSH1 0x40 SWAP1 KECCAK256 DUP1 SLOAD PUSH1 0x1 SWAP1 SWAP2 ADD SLOAD PUSH1 0x1 PUSH1 0x1 PUSH1 0xA0 SHL SUB SWAP1 SWAP2 AND SWAP1 DUP3 JUMP JUMPDEST PUSH1 0x40 DUP1 MLOAD PUSH1 0x1 PUSH1 0x1 PUSH1 0xA0 SHL SUB SWAP1 SWAP4 AND DUP4 MSTORE PUSH1 0x20 DUP4 ADD SWAP2 SWAP1 SWAP2 MSTORE ADD PUSH2 0x1D3 JUMP JUMPDEST CALLVALUE DUP1 ISZERO PUSH2 0x4C2 JUMPI PUSH0 DUP1 REVERT JUMPDEST POP PUSH2 0x35A PUSH2 0xB89 JUMP JUMPDEST CALLVALUE DUP1 ISZERO PUSH2 0x4D6 JUMPI PUSH0 DUP1 REVERT JUMPDEST POP PUSH1 0x40 DUP1 MLOAD DUP1 DUP3 ADD DUP3 MSTORE PUSH0 DUP1 DUP3 MSTORE PUSH1 0x20 SWAP2 DUP3 ADD DUP2 SWAP1 MSTORE PUSH1 0xC SLOAD DUP2 MSTORE PUSH1 0x7 DUP3 MSTORE DUP3 SWAP1 KECCAK256 DUP3 MLOAD DUP1 DUP5 ADD SWAP1 SWAP4 MSTORE DUP1 SLOAD PUSH1 0x1 PUSH1 0x1 PUSH1 0xA0 SHL SUB AND DUP4 MSTORE PUSH1 0x1 ADD SLOAD SWAP1 DUP3 ADD MSTORE PUSH2 0x2FB JUMP JUMPDEST CALLVALUE DUP1 ISZERO PUSH2 0x525 JUMPI PUSH0 DUP1 REVERT JUMPDEST POP PUSH2 0x558 PUSH2 0x534 CALLDATASIZE PUSH1 0x4 PUSH2 0x189E JUMP JUMPDEST PUSH1 0x9 PUSH1 0x20 MSTORE PUSH0 SWAP1 DUP2 MSTORE PUSH1 0x40 SWAP1 KECCAK256 PUSH1 0x1 DUP2 ADD SLOAD PUSH1 0x2 SWAP1 SWAP2 ADD SLOAD PUSH1 0x1 PUSH1 0x1 PUSH1 0xA0 SHL SUB AND DUP3 JUMP JUMPDEST PUSH1 0x40 DUP1 MLOAD SWAP3 DUP4 MSTORE PUSH1 0x1 PUSH1 0x1 PUSH1 0xA0 SHL SUB SWAP1 SWAP2 AND PUSH1 0x20 DUP4 ADD MSTORE ADD PUSH2 0x1D3 JUMP JUMPDEST CALLVALUE DUP1 ISZERO PUSH2 0x580 JUMPI PUSH0 DUP1 REVERT JUMPDEST POP PUSH2 0x558 PUSH2 0x58F CALLDATASIZE PUSH1 0x4 PUSH2 0x189E JUMP JUMPDEST PUSH1 0xB PUSH1 0x20 MSTORE PUSH0 SWAP1 DUP2 MSTORE PUSH1 0x40 SWAP1 KECCAK256 PUSH1 0x1 DUP2 ADD SLOAD PUSH1 0x2 SWAP1 SWAP2 ADD SLOAD PUSH1 0x1 PUSH1 0x1 PUSH1 0xA0 SHL SUB AND DUP3 JUMP JUMPDEST CALLVALUE DUP1 ISZERO PUSH2 0x5BE JUMPI PUSH0 DUP1 REVERT JUMPDEST POP PUSH2 0x1C9 PUSH32 0x0 DUP2 JUMP JUMPDEST CALLVALUE DUP1 ISZERO PUSH2 0x5F1 JUMPI PUSH0 DUP1 REVERT JUMPDEST POP PUSH2 0x616 PUSH1 0x40 MLOAD DUP1 PUSH1 0x40 ADD PUSH1 0x40 MSTORE DUP1 PUSH1 0x5 DUP2 MSTORE PUSH1 0x20 ADD PUSH5 0x352E302E3 PUSH1 0xDC SHL DUP2 MSTORE POP DUP2 JUMP JUMPDEST PUSH1 0x40 MLOAD PUSH2 0x1D3 SWAP2 SWAP1 PUSH2 0x19BE JUMP JUMPDEST CALLVALUE DUP1 ISZERO PUSH2 0x62E JUMPI PUSH0 DUP1 REVERT JUMPDEST POP PUSH1 0xD SLOAD PUSH2 0x35A SWAP1 PUSH1 0x1 PUSH1 0x1 PUSH1 0xA0 SHL SUB AND DUP2 JUMP JUMPDEST CALLVALUE DUP1 ISZERO PUSH2 0x64D JUMPI PUSH0 DUP1 REVERT JUMPDEST POP PUSH2 0x65C PUSH7 0x3632C8EB5AF3B DUP2 JUMP JUMPDEST PUSH1 0x40 MLOAD PUSH1 0x1 PUSH1 0x1 PUSH1 0x40 SHL SUB SWAP1 SWAP2 AND DUP2 MSTORE PUSH1 0x20 ADD PUSH2 0x1D3 JUMP JUMPDEST CALLVALUE DUP1 ISZERO PUSH2 0x67F JUMPI PUSH0 DUP1 REVERT JUMPDEST POP PUSH2 0x239 PUSH2 0x68E CALLDATASIZE PUSH1 0x4 PUSH2 0x17F4 JUMP JUMPDEST PUSH2 0xBB7 JUMP JUMPDEST CALLVALUE DUP1 ISZERO PUSH2 0x69E JUMPI PUSH0 DUP1 REVERT JUMPDEST POP PUSH2 0x239 PUSH2 0x6AD CALLDATASIZE PUSH1 0x4 PUSH2 0x19F3 JUMP JUMPDEST PUSH2 0xBE1 JUMP JUMPDEST CALLVALUE DUP1 ISZERO PUSH2 0x6BD JUMPI PUSH0 DUP1 REVERT JUMPDEST POP PUSH2 0x239 PUSH2 0x6CC CALLDATASIZE PUSH1 0x4 PUSH2 0x19F3 JUMP JUMPDEST PUSH2 0xC4F JUMP JUMPDEST CALLVALUE DUP1 ISZERO PUSH2 0x6DC JUMPI PUSH0 DUP1 REVERT JUMPDEST POP PUSH2 0x498 PUSH2 0x6EB CALLDATASIZE PUSH1 0x4 PUSH2 0x189E JUMP JUMPDEST PUSH1 0x4 PUSH1 0x20 MSTORE PUSH0 SWAP1 DUP2 MSTORE PUSH1 0x40 SWAP1 KECCAK256 DUP1 SLOAD PUSH1 0x1 SWAP1 SWAP2 ADD SLOAD PUSH1 0x1 PUSH1 0x1 PUSH1 0xA0 SHL SUB SWAP1 SWAP2 AND SWAP1 DUP3 JUMP JUMPDEST CALLVALUE DUP1 ISZERO PUSH2 0x71A JUMPI PUSH0 DUP1 REVERT JUMPDEST POP PUSH2 0x2FB PUSH2 0x729 CALLDATASIZE PUSH1 0x4 PUSH2 0x17F4 JUMP JUMPDEST PUSH2 0xCBA JUMP JUMPDEST CALLVALUE DUP1 ISZERO PUSH2 0x739 JUMPI PUSH0 DUP1 REVERT JUMPDEST POP PUSH2 0x1C9 PUSH2 0x748 CALLDATASIZE PUSH1 0x4 PUSH2 0x1A5F JUMP JUMPDEST PUSH2 0xE37 JUMP JUMPDEST CALLVALUE DUP1 ISZERO PUSH2 0x758 JUMPI PUSH0 DUP1 REVERT JUMPDEST POP PUSH2 0x76C PUSH2 0x767 CALLDATASIZE PUSH1 0x4 PUSH2 0x19F3 JUMP JUMPDEST PUSH2 0xEB8 JUMP JUMPDEST PUSH1 0x40 MLOAD PUSH1 0x1 PUSH1 0x1 PUSH1 0xE0 SHL SUB NOT SWAP1 SWAP2 AND DUP2 MSTORE PUSH1 0x20 ADD PUSH2 0x1D3 JUMP JUMPDEST CALLVALUE DUP1 ISZERO PUSH2 0x790 JUMPI PUSH0 DUP1 REVERT JUMPDEST POP PUSH2 0x239 PUSH2 0x79F CALLDATASIZE PUSH1 0x4 PUSH2 0x17F4 JUMP JUMPDEST PUSH2 0xEEB JUMP JUMPDEST CALLVALUE DUP1 ISZERO PUSH2 0x7AF JUMPI PUSH0 DUP1 REVERT JUMPDEST POP PUSH2 0x1C9 PUSH2 0x7BE CALLDATASIZE PUSH1 0x4 PUSH2 0x180D JUMP JUMPDEST PUSH2 0xF25 JUMP JUMPDEST PUSH2 0x7CB PUSH2 0xF8A JUMP JUMPDEST PUSH1 0x1 PUSH1 0x1 PUSH1 0xA0 SHL SUB DUP2 AND PUSH0 SWAP1 DUP2 MSTORE PUSH1 0xA PUSH1 0x20 MSTORE PUSH1 0x40 SWAP1 KECCAK256 SLOAD PUSH1 0xFF AND PUSH2 0x82F JUMPI PUSH1 0x40 MLOAD PUSH3 0x461BCD PUSH1 0xE5 SHL DUP2 MSTORE PUSH1 0x20 PUSH1 0x4 DUP3 ADD MSTORE PUSH1 0x15 PUSH1 0x24 DUP3 ADD MSTORE PUSH21 0x436C617373206E6F7420696E207265676973747279 PUSH1 0x58 SHL PUSH1 0x44 DUP3 ADD MSTORE PUSH1 0x64 ADD JUMPDEST PUSH1 0x40 MLOAD DUP1 SWAP2 SUB SWAP1 REVERT JUMPDEST PUSH2 0x838 DUP3 PUSH2 0xFBC JUMP JUMPDEST PUSH0 PUSH2 0x843 ADDRESS DUP5 PUSH2 0xF25 JUMP JUMPDEST PUSH0 DUP2 DUP2 MSTORE PUSH1 0xB PUSH1 0x20 MSTORE PUSH1 0x40 DUP2 KECCAK256 PUSH1 0x1 ADD DUP1 SLOAD SWAP3 SWAP4 POP SWAP1 PUSH2 0x862 DUP4 PUSH2 0x1AC3 JUMP JUMPDEST SWAP2 SWAP1 POP SSTORE POP PUSH0 PUSH2 0x872 ADDRESS DUP5 PUSH2 0xF25 JUMP JUMPDEST PUSH0 DUP2 DUP2 MSTORE PUSH1 0x7 PUSH1 0x20 SWAP1 DUP2 MSTORE PUSH1 0x40 DUP1 DUP4 KECCAK256 DUP7 DUP5 MSTORE DUP4 DUP4 MSTORE DUP2 DUP5 KECCAK256 SWAP5 DUP5 MSTORE SWAP4 DUP3 MSTORE DUP1 DUP4 KECCAK256 DUP5 SLOAD DUP2 SLOAD PUSH1 0x1 PUSH1 0x1 PUSH1 0xA0 SHL SUB NOT SWAP1 DUP2 AND PUSH1 0x1 PUSH1 0x1 PUSH1 0xA0 SHL SUB SWAP3 DUP4 AND OR DUP4 SSTORE PUSH1 0x1 SWAP7 DUP8 ADD SLOAD SWAP3 DUP8 ADD SWAP3 SWAP1 SWAP3 SSTORE SWAP7 DUP5 MSTORE PUSH1 0x2 DUP4 MSTORE DUP2 DUP5 KECCAK256 PUSH1 0xB DUP5 MSTORE DUP3 DUP6 KECCAK256 SWAP1 SWAP6 ADD SLOAD DUP5 MSTORE SWAP4 SWAP1 SWAP2 MSTORE SWAP1 KECCAK256 DUP1 SLOAD SWAP5 SWAP1 SWAP4 AND SWAP4 AND SWAP3 SWAP1 SWAP3 OR SWAP1 SSTORE POP POP JUMP JUMPDEST PUSH1 0x60 PUSH0 PUSH1 0xC SLOAD PUSH1 0x1 PUSH1 0x1 PUSH1 0x40 SHL SUB DUP2 GT ISZERO PUSH2 0x90B JUMPI PUSH2 0x90B PUSH2 0x18E9 JUMP JUMPDEST PUSH1 0x40 MLOAD SWAP1 DUP1 DUP3 MSTORE DUP1 PUSH1 0x20 MUL PUSH1 0x20 ADD DUP3 ADD PUSH1 0x40 MSTORE DUP1 ISZERO PUSH2 0x94F JUMPI DUP2 PUSH1 0x20 ADD JUMPDEST PUSH1 0x40 DUP1 MLOAD DUP1 DUP3 ADD SWAP1 SWAP2 MSTORE PUSH0 DUP1 DUP3 MSTORE PUSH1 0x20 DUP3 ADD MSTORE DUP2 MSTORE PUSH1 0x20 ADD SWAP1 PUSH1 0x1 SWAP1 SUB SWAP1 DUP2 PUSH2 0x929 JUMPI SWAP1 POP JUMPDEST POP SWAP1 POP PUSH1 0x1 JUMPDEST PUSH1 0xC SLOAD DUP2 GT PUSH2 0x9F2 JUMPI PUSH0 DUP2 DUP2 MSTORE PUSH1 0x5 PUSH1 0x20 MSTORE PUSH1 0x40 DUP2 KECCAK256 SLOAD PUSH2 0x980 SWAP1 ADDRESS SWAP1 PUSH1 0x1 PUSH1 0x1 PUSH1 0xA0 SHL SUB AND PUSH2 0xF25 JUMP JUMPDEST PUSH0 DUP2 DUP2 MSTORE PUSH1 0x7 PUSH1 0x20 SWAP1 DUP2 MSTORE PUSH1 0x40 SWAP2 DUP3 SWAP1 KECCAK256 DUP3 MLOAD DUP1 DUP5 ADD SWAP1 SWAP4 MSTORE DUP1 SLOAD PUSH1 0x1 PUSH1 0x1 PUSH1 0xA0 SHL SUB AND DUP4 MSTORE PUSH1 0x1 SWAP1 DUP2 ADD SLOAD SWAP2 DUP4 ADD SWAP2 SWAP1 SWAP2 MSTORE SWAP2 SWAP3 POP SWAP1 DUP5 SWAP1 PUSH2 0x9C3 SWAP1 DUP6 PUSH2 0x1ADB JUMP JUMPDEST DUP2 MLOAD DUP2 LT PUSH2 0x9D3 JUMPI PUSH2 0x9D3 PUSH2 0x1AEE JUMP JUMPDEST PUSH1 0x20 MUL PUSH1 0x20 ADD ADD DUP2 SWAP1 MSTORE POP POP DUP1 DUP1 PUSH2 0x9EA SWAP1 PUSH2 0x1AC3 JUMP JUMPDEST SWAP2 POP POP PUSH2 0x955 JUMP JUMPDEST POP SWAP2 SWAP1 POP JUMP JUMPDEST PUSH2 0xA00 PUSH2 0xF8A JUMP JUMPDEST PUSH2 0xA09 DUP2 PUSH2 0xFBC JUMP JUMPDEST POP JUMP JUMPDEST PUSH32 0xF0C57E16840DF040F15088DC2F81FE391C3923BEC73E23A9662EFC9C229C6A00 DUP1 SLOAD PUSH1 0x1 PUSH1 0x40 SHL DUP2 DIV PUSH1 0xFF AND ISZERO SWAP1 PUSH1 0x1 PUSH1 0x1 PUSH1 0x40 SHL SUB AND PUSH0 DUP2 ISZERO DUP1 ISZERO PUSH2 0xA50 JUMPI POP DUP3 JUMPDEST SWAP1 POP PUSH0 DUP3 PUSH1 0x1 PUSH1 0x1 PUSH1 0x40 SHL SUB AND PUSH1 0x1 EQ DUP1 ISZERO PUSH2 0xA6B JUMPI POP ADDRESS EXTCODESIZE ISZERO JUMPDEST SWAP1 POP DUP2 ISZERO DUP1 ISZERO PUSH2 0xA79 JUMPI POP DUP1 ISZERO JUMPDEST ISZERO PUSH2 0xA97 JUMPI PUSH1 0x40 MLOAD PUSH4 0xF92EE8A9 PUSH1 0xE0 SHL DUP2 MSTORE PUSH1 0x4 ADD PUSH1 0x40 MLOAD DUP1 SWAP2 SUB SWAP1 REVERT JUMPDEST DUP5 SLOAD PUSH8 0xFFFFFFFFFFFFFFFF NOT AND PUSH1 0x1 OR DUP6 SSTORE DUP4 ISZERO PUSH2 0xAC1 JUMPI DUP5 SLOAD PUSH1 0xFF PUSH1 0x40 SHL NOT AND PUSH1 0x1 PUSH1 0x40 SHL OR DUP6 SSTORE JUMPDEST PUSH1 0xD DUP1 SLOAD PUSH1 0x1 PUSH1 0x1 PUSH1 0xA0 SHL SUB NOT AND PUSH1 0x1 PUSH1 0x1 PUSH1 0xA0 SHL SUB DUP9 AND OR SWAP1 SSTORE PUSH2 0xAE5 DUP8 PUSH2 0xFE4 JUMP JUMPDEST PUSH2 0xAED PUSH2 0xFF5 JUMP JUMPDEST DUP4 ISZERO PUSH2 0xB33 JUMPI DUP5 SLOAD PUSH1 0xFF PUSH1 0x40 SHL NOT AND DUP6 SSTORE PUSH1 0x40 MLOAD PUSH1 0x1 DUP2 MSTORE PUSH32 0xC7F505B2F371AE2175EE4913F4499E1F2633A7B5936321EED1CDAEB6115181D2 SWAP1 PUSH1 0x20 ADD PUSH1 0x40 MLOAD DUP1 SWAP2 SUB SWAP1 LOG1 JUMPDEST POP POP POP POP POP POP POP JUMP JUMPDEST PUSH2 0xB44 PUSH2 0xFFD JUMP JUMPDEST PUSH2 0xB4D DUP3 PUSH2 0x10A1 JUMP JUMPDEST PUSH2 0xB57 DUP3 DUP3 PUSH2 0x10A9 JUMP JUMPDEST POP POP JUMP JUMPDEST PUSH0 PUSH2 0xB64 PUSH2 0x1161 JUMP JUMPDEST POP PUSH0 DUP1 MLOAD PUSH1 0x20 PUSH2 0x1BDF DUP4 CODECOPY DUP2 MLOAD SWAP2 MSTORE SWAP1 JUMP JUMPDEST PUSH2 0xB7E PUSH2 0xF8A JUMP JUMPDEST PUSH2 0xB87 PUSH0 PUSH2 0x11AA JUMP JUMPDEST JUMP JUMPDEST PUSH32 0x9016D09D72D40FDAE2FD8CEAC6B6234C7706214FD39C1CD1E609A0528C199300 SLOAD PUSH1 0x1 PUSH1 0x1 PUSH1 0xA0 SHL SUB AND SWAP1 JUMP JUMPDEST PUSH2 0xBBF PUSH2 0xF8A JUMP JUMPDEST PUSH1 0xD DUP1 SLOAD PUSH1 0x1 PUSH1 0x1 PUSH1 0xA0 SHL SUB NOT AND PUSH1 0x1 PUSH1 0x1 PUSH1 0xA0 SHL SUB SWAP3 SWAP1 SWAP3 AND SWAP2 SWAP1 SWAP2 OR SWAP1 SSTORE JUMP JUMPDEST PUSH2 0xBE9 PUSH2 0xF8A JUMP JUMPDEST PUSH0 PUSH2 0xC28 DUP4 DUP4 DUP1 DUP1 PUSH1 0x1F ADD PUSH1 0x20 DUP1 SWAP2 DIV MUL PUSH1 0x20 ADD PUSH1 0x40 MLOAD SWAP1 DUP2 ADD PUSH1 0x40 MSTORE DUP1 SWAP4 SWAP3 SWAP2 SWAP1 DUP2 DUP2 MSTORE PUSH1 0x20 ADD DUP4 DUP4 DUP1 DUP3 DUP5 CALLDATACOPY PUSH0 SWAP3 ADD SWAP2 SWAP1 SWAP2 MSTORE POP PUSH2 0x121A SWAP3 POP POP POP JUMP JUMPDEST PUSH1 0x1 PUSH1 0x1 PUSH1 0xE0 SHL SUB NOT AND PUSH0 SWAP1 DUP2 MSTORE PUSH1 0xE PUSH1 0x20 MSTORE PUSH1 0x40 SWAP1 KECCAK256 DUP1 SLOAD PUSH1 0xFF NOT AND PUSH1 0x1 OR SWAP1 SSTORE POP POP POP JUMP JUMPDEST PUSH2 0xC57 PUSH2 0xF8A JUMP JUMPDEST PUSH0 PUSH2 0xC96 DUP4 DUP4 DUP1 DUP1 PUSH1 0x1F ADD PUSH1 0x20 DUP1 SWAP2 DIV MUL PUSH1 0x20 ADD PUSH1 0x40 MLOAD SWAP1 DUP2 ADD PUSH1 0x40 MSTORE DUP1 SWAP4 SWAP3 SWAP2 SWAP1 DUP2 DUP2 MSTORE PUSH1 0x20 ADD DUP4 DUP4 DUP1 DUP3 DUP5 CALLDATACOPY PUSH0 SWAP3 ADD SWAP2 SWAP1 SWAP2 MSTORE POP PUSH2 0x121A SWAP3 POP POP POP JUMP JUMPDEST PUSH1 0x1 PUSH1 0x1 PUSH1 0xE0 SHL SUB NOT AND PUSH0 SWAP1 DUP2 MSTORE PUSH1 0xE PUSH1 0x20 MSTORE PUSH1 0x40 SWAP1 KECCAK256 DUP1 SLOAD PUSH1 0xFF NOT AND SWAP1 SSTORE POP POP POP JUMP JUMPDEST PUSH1 0x40 DUP1 MLOAD DUP1 DUP3 ADD SWAP1 SWAP2 MSTORE PUSH0 DUP1 DUP3 MSTORE PUSH1 0x20 DUP3 ADD MSTORE PUSH2 0xCD5 PUSH2 0xF8A JUMP JUMPDEST PUSH1 0x1 PUSH1 0x1 PUSH1 0xA0 SHL SUB DUP3 AND PUSH2 0xD25 JUMPI PUSH1 0x40 MLOAD PUSH3 0x461BCD PUSH1 0xE5 SHL DUP2 MSTORE PUSH1 0x20 PUSH1 0x4 DUP3 ADD MSTORE PUSH1 0x17 PUSH1 0x24 DUP3 ADD MSTORE PUSH23 0x21B0B73737BA1031329030B2323932B9B9903D32B93797 PUSH1 0x49 SHL PUSH1 0x44 DUP3 ADD MSTORE PUSH1 0x64 ADD PUSH2 0x826 JUMP JUMPDEST PUSH0 PUSH2 0xD30 ADDRESS DUP5 PUSH2 0xF25 JUMP JUMPDEST SWAP1 POP PUSH1 0x1 PUSH1 0xC PUSH0 DUP3 DUP3 SLOAD PUSH2 0xD44 SWAP2 SWAP1 PUSH2 0x1B02 JUMP JUMPDEST SWAP3 POP POP DUP2 SWAP1 SSTORE POP DUP3 PUSH1 0x1 PUSH1 0x1 PUSH1 0xA0 SHL SUB AND PUSH4 0x67719696 PUSH1 0x40 MLOAD DUP2 PUSH4 0xFFFFFFFF AND PUSH1 0xE0 SHL DUP2 MSTORE PUSH1 0x4 ADD PUSH1 0x20 PUSH1 0x40 MLOAD DUP1 DUP4 SUB DUP2 DUP7 GAS STATICCALL ISZERO DUP1 ISZERO PUSH2 0xD87 JUMPI RETURNDATASIZE PUSH0 DUP1 RETURNDATACOPY RETURNDATASIZE PUSH0 REVERT JUMPDEST POP POP POP POP PUSH1 0x40 MLOAD RETURNDATASIZE PUSH1 0x1F NOT PUSH1 0x1F DUP3 ADD AND DUP3 ADD DUP1 PUSH1 0x40 MSTORE POP DUP2 ADD SWAP1 PUSH2 0xDAB SWAP2 SWAP1 PUSH2 0x1B15 JUMP JUMPDEST PUSH0 SWAP2 DUP3 MSTORE PUSH1 0x7 PUSH1 0x20 DUP2 DUP2 MSTORE PUSH1 0x40 DUP1 DUP6 KECCAK256 PUSH1 0x1 DUP1 DUP3 ADD SWAP6 SWAP1 SWAP6 SSTORE DUP1 SLOAD PUSH1 0x1 PUSH1 0x1 PUSH1 0xA0 SHL SUB DUP1 DUP11 AND PUSH1 0x1 PUSH1 0x1 PUSH1 0xA0 SHL SUB NOT SWAP3 DUP4 AND DUP2 OR SWAP1 SWAP4 SSTORE DUP3 DUP9 MSTORE PUSH1 0xA DUP6 MSTORE DUP4 DUP9 KECCAK256 DUP1 SLOAD PUSH1 0xFF NOT AND DUP9 OR SWAP1 SSTORE PUSH1 0xC DUP1 SLOAD DUP10 MSTORE PUSH1 0x5 DUP7 MSTORE DUP5 DUP10 KECCAK256 DUP1 SLOAD SWAP1 SWAP4 AND SWAP1 SWAP4 OR SWAP1 SWAP2 SSTORE SWAP1 SLOAD DUP7 MSTORE SWAP3 DUP3 MSTORE SWAP4 DUP5 SWAP1 KECCAK256 DUP5 MLOAD DUP1 DUP7 ADD SWAP1 SWAP6 MSTORE DUP1 SLOAD SWAP1 SWAP3 AND DUP5 MSTORE SWAP2 ADD SLOAD SWAP1 DUP3 ADD MSTORE SWAP1 POP JUMPDEST SWAP2 SWAP1 POP JUMP JUMPDEST PUSH0 PUSH2 0xE5F PUSH1 0x40 MLOAD DUP1 PUSH1 0x40 ADD PUSH1 0x40 MSTORE DUP1 PUSH1 0x6 DUP2 MSTORE PUSH1 0x20 ADD PUSH6 0x686865657265 PUSH1 0xD0 SHL DUP2 MSTORE POP PUSH2 0x1249 JUMP JUMPDEST PUSH2 0xE68 DUP5 PUSH2 0xFBC JUMP JUMPDEST PUSH2 0xE71 DUP4 PUSH2 0xFBC JUMP JUMPDEST PUSH1 0x1 PUSH1 0x1 PUSH1 0xE0 SHL SUB NOT DUP3 AND PUSH0 SWAP1 DUP2 MSTORE PUSH1 0xE PUSH1 0x20 MSTORE PUSH1 0x40 SWAP1 KECCAK256 SLOAD PUSH1 0xFF AND ISZERO PUSH2 0xEAE JUMPI PUSH0 PUSH2 0xE9C DUP5 PUSH2 0x128C JUMP JUMPDEST SWAP1 POP PUSH2 0xEA7 DUP2 PUSH2 0x13FD JUMP JUMPDEST SWAP1 POP PUSH2 0xEB1 JUMP JUMPDEST POP PUSH0 JUMPDEST SWAP4 SWAP3 POP POP POP JUMP JUMPDEST PUSH0 DUP3 DUP3 PUSH1 0x40 MLOAD PUSH1 0x20 ADD PUSH2 0xECC SWAP3 SWAP2 SWAP1 PUSH2 0x1B2C JUMP JUMPDEST PUSH1 0x40 MLOAD PUSH1 0x20 DUP2 DUP4 SUB SUB DUP2 MSTORE SWAP1 PUSH1 0x40 MSTORE DUP1 MLOAD SWAP1 PUSH1 0x20 ADD KECCAK256 SWAP1 POP JUMPDEST SWAP3 SWAP2 POP POP JUMP JUMPDEST PUSH2 0xEF3 PUSH2 0xF8A JUMP JUMPDEST PUSH1 0x1 PUSH1 0x1 PUSH1 0xA0 SHL SUB DUP2 AND PUSH2 0xF1C JUMPI PUSH0 PUSH1 0x40 MLOAD PUSH4 0x1E4FBDF7 PUSH1 0xE0 SHL DUP2 MSTORE PUSH1 0x4 ADD PUSH2 0x826 SWAP2 SWAP1 PUSH2 0x18D5 JUMP JUMPDEST PUSH2 0xA09 DUP2 PUSH2 0x11AA JUMP JUMPDEST PUSH0 DUP3 DUP2 PUSH2 0xF33 PUSH1 0xF DUP6 PUSH2 0x1B4F JUMP JUMPDEST SWAP1 POP JUMPDEST DUP3 PUSH0 SUB PUSH2 0xF82 JUMPI PUSH7 0x3632C8EB5AF3B PUSH1 0x1 PUSH1 0x1 PUSH1 0xA0 SHL SUB DUP1 DUP4 AND DUP5 DUP3 AND EXP AND MOD PUSH1 0x1 PUSH1 0x1 PUSH1 0xA0 SHL SUB AND SWAP3 POP PUSH1 0x2 DUP2 PUSH1 0x1 PUSH1 0x1 PUSH1 0xA0 SHL SUB AND DUP2 PUSH2 0xF7A JUMPI PUSH2 0xF7A PUSH2 0x1B3B JUMP JUMPDEST DIV SWAP1 POP PUSH2 0xF36 JUMP JUMPDEST POP POP SWAP3 SWAP2 POP POP JUMP JUMPDEST CALLER PUSH2 0xF93 PUSH2 0xB89 JUMP JUMPDEST PUSH1 0x1 PUSH1 0x1 PUSH1 0xA0 SHL SUB AND EQ PUSH2 0xB87 JUMPI CALLER PUSH1 0x40 MLOAD PUSH4 0x118CDAA7 PUSH1 0xE0 SHL DUP2 MSTORE PUSH1 0x4 ADD PUSH2 0x826 SWAP2 SWAP1 PUSH2 0x18D5 JUMP JUMPDEST PUSH1 0x1 PUSH1 0x1 PUSH1 0xA0 SHL SUB DUP2 AND PUSH0 SWAP1 DUP2 MSTORE PUSH1 0x8 PUSH1 0x20 MSTORE PUSH1 0x40 SWAP1 KECCAK256 SLOAD PUSH1 0xFF AND PUSH2 0xA09 JUMPI PUSH2 0xA09 DUP2 PUSH2 0x1442 JUMP JUMPDEST PUSH2 0xFEC PUSH2 0x15A9 JUMP JUMPDEST PUSH2 0xA09 DUP2 PUSH2 0x15F2 JUMP JUMPDEST PUSH2 0xB87 PUSH2 0x15A9 JUMP JUMPDEST ADDRESS PUSH1 0x1 PUSH1 0x1 PUSH1 0xA0 SHL SUB PUSH32 0x0 AND EQ DUP1 PUSH2 0x1083 JUMPI POP PUSH32 0x0 PUSH1 0x1 PUSH1 0x1 PUSH1 0xA0 SHL SUB AND PUSH2 0x1077 PUSH0 DUP1 MLOAD PUSH1 0x20 PUSH2 0x1BDF DUP4 CODECOPY DUP2 MLOAD SWAP2 MSTORE SLOAD PUSH1 0x1 PUSH1 0x1 PUSH1 0xA0 SHL SUB AND SWAP1 JUMP JUMPDEST PUSH1 0x1 PUSH1 0x1 PUSH1 0xA0 SHL SUB AND EQ ISZERO JUMPDEST ISZERO PUSH2 0xB87 JUMPI PUSH1 0x40 MLOAD PUSH4 0x703E46DD PUSH1 0xE1 SHL DUP2 MSTORE PUSH1 0x4 ADD PUSH1 0x40 MLOAD DUP1 SWAP2 SUB SWAP1 REVERT JUMPDEST PUSH2 0xA09 PUSH2 0xF8A JUMP JUMPDEST DUP2 PUSH1 0x1 PUSH1 0x1 PUSH1 0xA0 SHL SUB AND PUSH4 0x52D1902D PUSH1 0x40 MLOAD DUP2 PUSH4 0xFFFFFFFF AND PUSH1 0xE0 SHL DUP2 MSTORE PUSH1 0x4 ADD PUSH1 0x20 PUSH1 0x40 MLOAD DUP1 DUP4 SUB DUP2 DUP7 GAS STATICCALL SWAP3 POP POP POP DUP1 ISZERO PUSH2 0x1103 JUMPI POP PUSH1 0x40 DUP1 MLOAD PUSH1 0x1F RETURNDATASIZE SWAP1 DUP2 ADD PUSH1 0x1F NOT AND DUP3 ADD SWAP1 SWAP3 MSTORE PUSH2 0x1100 SWAP2 DUP2 ADD SWAP1 PUSH2 0x1B15 JUMP JUMPDEST PUSH1 0x1 JUMPDEST PUSH2 0x1122 JUMPI DUP2 PUSH1 0x40 MLOAD PUSH4 0x4C9C8CE3 PUSH1 0xE0 SHL DUP2 MSTORE PUSH1 0x4 ADD PUSH2 0x826 SWAP2 SWAP1 PUSH2 0x18D5 JUMP JUMPDEST PUSH0 DUP1 MLOAD PUSH1 0x20 PUSH2 0x1BDF DUP4 CODECOPY DUP2 MLOAD SWAP2 MSTORE DUP2 EQ PUSH2 0x1152 JUMPI PUSH1 0x40 MLOAD PUSH4 0x2A875269 PUSH1 0xE2 SHL DUP2 MSTORE PUSH1 0x4 DUP2 ADD DUP3 SWAP1 MSTORE PUSH1 0x24 ADD PUSH2 0x826 JUMP JUMPDEST PUSH2 0x115C DUP4 DUP4 PUSH2 0x15FA JUMP JUMPDEST POP POP POP JUMP JUMPDEST ADDRESS PUSH1 0x1 PUSH1 0x1 PUSH1 0xA0 SHL SUB PUSH32 0x0 AND EQ PUSH2 0xB87 JUMPI PUSH1 0x40 MLOAD PUSH4 0x703E46DD PUSH1 0xE1 SHL DUP2 MSTORE PUSH1 0x4 ADD PUSH1 0x40 MLOAD DUP1 SWAP2 SUB SWAP1 REVERT JUMPDEST PUSH32 0x9016D09D72D40FDAE2FD8CEAC6B6234C7706214FD39C1CD1E609A0528C199300 DUP1 SLOAD PUSH1 0x1 PUSH1 0x1 PUSH1 0xA0 SHL SUB NOT DUP2 AND PUSH1 0x1 PUSH1 0x1 PUSH1 0xA0 SHL SUB DUP5 DUP2 AND SWAP2 DUP3 OR DUP5 SSTORE PUSH1 0x40 MLOAD SWAP3 AND SWAP2 DUP3 SWAP1 PUSH32 0x8BE0079C531659141344CD1FD0A4F28419497F9722A3DAAFE3B4186F6B6457E0 SWAP1 PUSH0 SWAP1 LOG3 POP POP POP JUMP JUMPDEST PUSH0 DUP2 PUSH1 0x40 MLOAD PUSH1 0x20 ADD PUSH2 0x122C SWAP2 SWAP1 PUSH2 0x1BA0 JUMP JUMPDEST PUSH1 0x40 MLOAD PUSH1 0x20 DUP2 DUP4 SUB SUB DUP2 MSTORE SWAP1 PUSH1 0x40 MSTORE DUP1 MLOAD SWAP1 PUSH1 0x20 ADD KECCAK256 SWAP1 POP SWAP2 SWAP1 POP JUMP JUMPDEST PUSH2 0xA09 DUP2 PUSH1 0x40 MLOAD PUSH1 0x24 ADD PUSH2 0x125D SWAP2 SWAP1 PUSH2 0x19BE JUMP JUMPDEST PUSH1 0x40 DUP1 MLOAD PUSH1 0x1F NOT DUP2 DUP5 SUB ADD DUP2 MSTORE SWAP2 SWAP1 MSTORE PUSH1 0x20 DUP2 ADD DUP1 MLOAD PUSH1 0x1 PUSH1 0x1 PUSH1 0xE0 SHL SUB AND PUSH4 0x104C13EB PUSH1 0xE2 SHL OR SWAP1 MSTORE PUSH2 0x164F JUMP JUMPDEST PUSH0 DUP1 DUP1 PUSH2 0x1299 ADDRESS DUP6 PUSH2 0xF25 JUMP JUMPDEST PUSH0 DUP2 DUP2 MSTORE PUSH1 0x2 PUSH1 0x20 SWAP1 DUP2 MSTORE PUSH1 0x40 DUP1 DUP4 KECCAK256 PUSH1 0x1 DUP5 MSTORE DUP3 MSTORE SWAP2 DUP3 SWAP1 KECCAK256 SLOAD DUP3 MLOAD PUSH4 0x33B8CB4B PUSH1 0xE1 SHL DUP2 MSTORE SWAP3 MLOAD SWAP4 SWAP5 POP PUSH2 0x1323 SWAP4 PUSH1 0x1 PUSH1 0x1 PUSH1 0xA0 SHL SUB SWAP1 SWAP2 AND SWAP3 PUSH4 0x67719696 SWAP3 PUSH1 0x4 DUP1 DUP4 ADD SWAP4 SWAP2 SWAP3 DUP3 SWAP1 SUB ADD DUP2 DUP7 GAS STATICCALL ISZERO DUP1 ISZERO PUSH2 0x12FA JUMPI RETURNDATASIZE PUSH0 DUP1 RETURNDATACOPY RETURNDATASIZE PUSH0 REVERT JUMPDEST POP POP POP POP PUSH1 0x40 MLOAD RETURNDATASIZE PUSH1 0x1F NOT PUSH1 0x1F DUP3 ADD AND DUP3 ADD DUP1 PUSH1 0x40 MSTORE POP DUP2 ADD SWAP1 PUSH2 0x131E SWAP2 SWAP1 PUSH2 0x1B15 JUMP JUMPDEST PUSH2 0x13FD JUMP JUMPDEST PUSH1 0x1 JUMPDEST PUSH0 DUP3 DUP2 MSTORE PUSH1 0xB PUSH1 0x20 MSTORE PUSH1 0x40 SWAP1 KECCAK256 PUSH1 0x1 ADD SLOAD DUP2 GT PUSH2 0x13D8 JUMPI PUSH0 DUP3 DUP2 MSTORE PUSH1 0x2 PUSH1 0x20 SWAP1 DUP2 MSTORE PUSH1 0x40 DUP1 DUP4 KECCAK256 DUP5 DUP5 MSTORE DUP3 MSTORE SWAP2 DUP3 SWAP1 KECCAK256 SLOAD DUP3 MLOAD PUSH4 0x33B8CB4B PUSH1 0xE1 SHL DUP2 MSTORE SWAP3 MLOAD PUSH1 0x1 PUSH1 0x1 PUSH1 0xA0 SHL SUB SWAP1 SWAP2 AND SWAP3 PUSH4 0x67719696 SWAP3 PUSH1 0x4 DUP1 DUP4 ADD SWAP4 SWAP2 SWAP3 DUP3 SWAP1 SUB ADD DUP2 DUP7 GAS STATICCALL ISZERO DUP1 ISZERO PUSH2 0x1396 JUMPI RETURNDATASIZE PUSH0 DUP1 RETURNDATACOPY RETURNDATASIZE PUSH0 REVERT JUMPDEST POP POP POP POP PUSH1 0x40 MLOAD RETURNDATASIZE PUSH1 0x1F NOT PUSH1 0x1F DUP3 ADD AND DUP3 ADD DUP1 PUSH1 0x40 MSTORE POP DUP2 ADD SWAP1 PUSH2 0x13BA SWAP2 SWAP1 PUSH2 0x1B15 JUMP JUMPDEST PUSH2 0x13C4 SWAP1 DUP5 PUSH2 0x1BAB JUMP JUMPDEST SWAP3 POP DUP1 PUSH2 0x13D0 DUP2 PUSH2 0x1AC3 JUMP JUMPDEST SWAP2 POP POP PUSH2 0x1326 JUMP JUMPDEST POP PUSH2 0x13E2 DUP3 PUSH2 0x13FD JUMP JUMPDEST PUSH2 0x13EB DUP3 PUSH0 SGT SWAP1 JUMP JUMPDEST ISZERO PUSH2 0x13F6 JUMPI PUSH2 0x1F4 SWAP2 POP JUMPDEST POP SWAP3 SWAP2 POP POP JUMP JUMPDEST PUSH2 0xA09 DUP2 PUSH1 0x40 MLOAD PUSH1 0x24 ADD PUSH2 0x1413 SWAP2 DUP2 MSTORE PUSH1 0x20 ADD SWAP1 JUMP JUMPDEST PUSH1 0x40 DUP1 MLOAD PUSH1 0x1F NOT DUP2 DUP5 SUB ADD DUP2 MSTORE SWAP2 SWAP1 MSTORE PUSH1 0x20 DUP2 ADD DUP1 MLOAD PUSH1 0x1 PUSH1 0x1 PUSH1 0xE0 SHL SUB AND PUSH4 0x2D5B6CB9 PUSH1 0xE0 SHL OR SWAP1 MSTORE PUSH2 0x164F JUMP JUMPDEST PUSH1 0x1 PUSH1 0x1 PUSH1 0xA0 SHL SUB DUP2 AND PUSH2 0x1458 JUMPI PUSH2 0x1458 PUSH2 0x1BCA JUMP JUMPDEST PUSH1 0x1 PUSH1 0x1 PUSH1 0xA0 SHL SUB DUP2 AND PUSH0 SWAP1 DUP2 MSTORE PUSH1 0x8 PUSH1 0x20 MSTORE PUSH1 0x40 SWAP1 KECCAK256 SLOAD PUSH1 0xFF AND ISZERO PUSH2 0x1480 JUMPI PUSH2 0x1480 PUSH2 0x1BCA JUMP JUMPDEST PUSH0 PUSH2 0x148B ADDRESS DUP4 PUSH2 0xF25 JUMP JUMPDEST PUSH1 0x1 PUSH1 0x1 PUSH1 0xA0 SHL SUB DUP1 DUP5 AND PUSH0 DUP2 DUP2 MSTORE PUSH1 0x8 PUSH1 0x20 SWAP1 DUP2 MSTORE PUSH1 0x40 DUP1 DUP4 KECCAK256 DUP1 SLOAD PUSH1 0xFF NOT AND PUSH1 0x1 SWAP1 DUP2 OR SWAP1 SWAP2 SSTORE DUP7 DUP5 MSTORE PUSH1 0xB DUP4 MSTORE SWAP1 DUP4 KECCAK256 DUP1 DUP3 ADD DUP3 SWAP1 SSTORE PUSH1 0x2 ADD DUP1 SLOAD PUSH1 0x1 PUSH1 0x1 PUSH1 0xA0 SHL SUB NOT AND SWAP1 SWAP5 OR SWAP1 SWAP4 SSTORE SWAP2 DUP2 MSTORE PUSH1 0x5 SWAP1 SWAP2 MSTORE PUSH32 0x1471EB6EB2C5E789FC3DE43F8CE62938C7D1836EC861730447E2ADA8FD81017B SLOAD SWAP3 SWAP4 POP SWAP2 PUSH2 0x1513 SWAP2 ADDRESS SWAP2 AND PUSH2 0xF25 JUMP JUMPDEST PUSH0 DUP2 DUP2 MSTORE PUSH1 0x7 PUSH1 0x20 SWAP1 DUP2 MSTORE PUSH1 0x40 DUP1 DUP4 KECCAK256 DUP7 DUP5 MSTORE DUP4 DUP4 MSTORE DUP2 DUP5 KECCAK256 SWAP5 DUP5 MSTORE SWAP4 DUP3 MSTORE DUP1 DUP4 KECCAK256 DUP5 SLOAD DUP2 SLOAD PUSH1 0x1 PUSH1 0x1 PUSH1 0xA0 SHL SUB SWAP2 DUP3 AND PUSH1 0x1 PUSH1 0x1 PUSH1 0xA0 SHL SUB NOT SWAP2 DUP3 AND OR DUP4 SSTORE PUSH1 0x1 SWAP7 DUP8 ADD SLOAD SWAP3 DUP8 ADD SWAP3 SWAP1 SWAP3 SSTORE PUSH32 0x1471EB6EB2C5E789FC3DE43F8CE62938C7D1836EC861730447E2ADA8FD81017B SLOAD SWAP8 DUP6 MSTORE PUSH1 0x2 DUP5 MSTORE DUP3 DUP6 KECCAK256 SWAP6 DUP6 MSTORE SWAP5 SWAP1 SWAP3 MSTORE SWAP1 SWAP2 KECCAK256 DUP1 SLOAD SWAP5 SWAP1 SWAP3 AND SWAP4 AND SWAP3 SWAP1 SWAP3 OR SWAP1 SWAP2 SSTORE POP POP JUMP JUMPDEST PUSH32 0xF0C57E16840DF040F15088DC2F81FE391C3923BEC73E23A9662EFC9C229C6A00 SLOAD PUSH1 0x1 PUSH1 0x40 SHL SWAP1 DIV PUSH1 0xFF AND PUSH2 0xB87 JUMPI PUSH1 0x40 MLOAD PUSH4 0x1AFCD79F PUSH1 0xE3 SHL DUP2 MSTORE PUSH1 0x4 ADD PUSH1 0x40 MLOAD DUP1 SWAP2 SUB SWAP1 REVERT JUMPDEST PUSH2 0xEF3 PUSH2 0x15A9 JUMP JUMPDEST PUSH2 0x1603 DUP3 PUSH2 0x1658 JUMP JUMPDEST PUSH1 0x40 MLOAD PUSH1 0x1 PUSH1 0x1 PUSH1 0xA0 SHL SUB DUP4 AND SWAP1 PUSH32 0xBC7CD75A20EE27FD9ADEBAB32041F755214DBC6BFFA90CC0225B39DA2E5C2D3B SWAP1 PUSH0 SWAP1 LOG2 DUP1 MLOAD ISZERO PUSH2 0x1647 JUMPI PUSH2 0x115C DUP3 DUP3 PUSH2 0x16B2 JUMP JUMPDEST PUSH2 0xB57 PUSH2 0x1724 JUMP JUMPDEST PUSH2 0xA09 DUP2 PUSH2 0x1743 JUMP JUMPDEST DUP1 PUSH1 0x1 PUSH1 0x1 PUSH1 0xA0 SHL SUB AND EXTCODESIZE PUSH0 SUB PUSH2 0x1684 JUMPI DUP1 PUSH1 0x40 MLOAD PUSH4 0x4C9C8CE3 PUSH1 0xE0 SHL DUP2 MSTORE PUSH1 0x4 ADD PUSH2 0x826 SWAP2 SWAP1 PUSH2 0x18D5 JUMP JUMPDEST PUSH0 DUP1 MLOAD PUSH1 0x20 PUSH2 0x1BDF DUP4 CODECOPY DUP2 MLOAD SWAP2 MSTORE DUP1 SLOAD PUSH1 0x1 PUSH1 0x1 PUSH1 0xA0 SHL SUB NOT AND PUSH1 0x1 PUSH1 0x1 PUSH1 0xA0 SHL SUB SWAP3 SWAP1 SWAP3 AND SWAP2 SWAP1 SWAP2 OR SWAP1 SSTORE JUMP JUMPDEST PUSH1 0x60 PUSH0 DUP1 DUP5 PUSH1 0x1 PUSH1 0x1 PUSH1 0xA0 SHL SUB AND DUP5 PUSH1 0x40 MLOAD PUSH2 0x16CE SWAP2 SWAP1 PUSH2 0x1BA0 JUMP JUMPDEST PUSH0 PUSH1 0x40 MLOAD DUP1 DUP4 SUB DUP2 DUP6 GAS DELEGATECALL SWAP2 POP POP RETURNDATASIZE DUP1 PUSH0 DUP2 EQ PUSH2 0x1706 JUMPI PUSH1 0x40 MLOAD SWAP2 POP PUSH1 0x1F NOT PUSH1 0x3F RETURNDATASIZE ADD AND DUP3 ADD PUSH1 0x40 MSTORE RETURNDATASIZE DUP3 MSTORE RETURNDATASIZE PUSH0 PUSH1 0x20 DUP5 ADD RETURNDATACOPY PUSH2 0x170B JUMP JUMPDEST PUSH1 0x60 SWAP2 POP JUMPDEST POP SWAP2 POP SWAP2 POP PUSH2 0x171B DUP6 DUP4 DUP4 PUSH2 0x1762 JUMP JUMPDEST SWAP6 SWAP5 POP POP POP POP POP JUMP JUMPDEST CALLVALUE ISZERO PUSH2 0xB87 JUMPI PUSH1 0x40 MLOAD PUSH4 0xB398979F PUSH1 0xE0 SHL DUP2 MSTORE PUSH1 0x4 ADD PUSH1 0x40 MLOAD DUP1 SWAP2 SUB SWAP1 REVERT JUMPDEST PUSH0 PUSH11 0x636F6E736F6C652E6C6F67 SWAP1 POP PUSH0 DUP1 DUP4 MLOAD PUSH1 0x20 DUP6 ADD DUP5 GAS STATICCALL POP POP POP JUMP JUMPDEST PUSH1 0x60 DUP3 PUSH2 0x1777 JUMPI PUSH2 0x1772 DUP3 PUSH2 0x17B5 JUMP JUMPDEST PUSH2 0xEB1 JUMP JUMPDEST DUP2 MLOAD ISZERO DUP1 ISZERO PUSH2 0x178E JUMPI POP PUSH1 0x1 PUSH1 0x1 PUSH1 0xA0 SHL SUB DUP5 AND EXTCODESIZE ISZERO JUMPDEST ISZERO PUSH2 0x17AE JUMPI DUP4 PUSH1 0x40 MLOAD PUSH4 0x9996B315 PUSH1 0xE0 SHL DUP2 MSTORE PUSH1 0x4 ADD PUSH2 0x826 SWAP2 SWAP1 PUSH2 0x18D5 JUMP JUMPDEST POP DUP1 PUSH2 0xEB1 JUMP JUMPDEST DUP1 MLOAD ISZERO PUSH2 0x17C5 JUMPI DUP1 MLOAD DUP1 DUP3 PUSH1 0x20 ADD REVERT JUMPDEST PUSH1 0x40 MLOAD PUSH4 0xA12F521 PUSH1 0xE1 SHL DUP2 MSTORE PUSH1 0x4 ADD PUSH1 0x40 MLOAD DUP1 SWAP2 SUB SWAP1 REVERT JUMPDEST DUP1 CALLDATALOAD PUSH1 0x1 PUSH1 0x1 PUSH1 0xA0 SHL SUB DUP2 AND DUP2 EQ PUSH2 0xE32 JUMPI PUSH0 DUP1 REVERT JUMPDEST PUSH0 PUSH1 0x20 DUP3 DUP5 SUB SLT ISZERO PUSH2 0x1804 JUMPI PUSH0 DUP1 REVERT JUMPDEST PUSH2 0xEB1 DUP3 PUSH2 0x17DE JUMP JUMPDEST PUSH0 DUP1 PUSH1 0x40 DUP4 DUP6 SUB SLT ISZERO PUSH2 0x181E JUMPI PUSH0 DUP1 REVERT JUMPDEST PUSH2 0x1827 DUP4 PUSH2 0x17DE JUMP JUMPDEST SWAP2 POP PUSH2 0x1835 PUSH1 0x20 DUP5 ADD PUSH2 0x17DE JUMP JUMPDEST SWAP1 POP SWAP3 POP SWAP3 SWAP1 POP JUMP JUMPDEST PUSH1 0x20 DUP1 DUP3 MSTORE DUP3 MLOAD DUP3 DUP3 ADD DUP2 SWAP1 MSTORE PUSH0 SWAP2 DUP5 ADD SWAP1 PUSH1 0x40 DUP5 ADD SWAP1 DUP4 JUMPDEST DUP2 DUP2 LT ISZERO PUSH2 0x1893 JUMPI PUSH2 0x187D DUP4 DUP6 MLOAD DUP1 MLOAD PUSH1 0x1 PUSH1 0x1 PUSH1 0xA0 SHL SUB AND DUP3 MSTORE PUSH1 0x20 SWAP1 DUP2 ADD MLOAD SWAP2 ADD MSTORE JUMP JUMPDEST PUSH1 0x20 SWAP4 SWAP1 SWAP4 ADD SWAP3 PUSH1 0x40 SWAP3 SWAP1 SWAP3 ADD SWAP2 PUSH1 0x1 ADD PUSH2 0x1857 JUMP JUMPDEST POP SWAP1 SWAP6 SWAP5 POP POP POP POP POP JUMP JUMPDEST PUSH0 PUSH1 0x20 DUP3 DUP5 SUB SLT ISZERO PUSH2 0x18AE JUMPI PUSH0 DUP1 REVERT JUMPDEST POP CALLDATALOAD SWAP2 SWAP1 POP JUMP JUMPDEST DUP2 MLOAD PUSH1 0x1 PUSH1 0x1 PUSH1 0xA0 SHL SUB AND DUP2 MSTORE PUSH1 0x20 DUP1 DUP4 ADD MLOAD SWAP1 DUP3 ADD MSTORE PUSH1 0x40 DUP2 ADD PUSH2 0xEE5 JUMP JUMPDEST PUSH1 0x1 PUSH1 0x1 PUSH1 0xA0 SHL SUB SWAP2 SWAP1 SWAP2 AND DUP2 MSTORE PUSH1 0x20 ADD SWAP1 JUMP JUMPDEST PUSH4 0x4E487B71 PUSH1 0xE0 SHL PUSH0 MSTORE PUSH1 0x41 PUSH1 0x4 MSTORE PUSH1 0x24 PUSH0 REVERT JUMPDEST PUSH0 DUP1 PUSH1 0x40 DUP4 DUP6 SUB SLT ISZERO PUSH2 0x190E JUMPI PUSH0 DUP1 REVERT JUMPDEST PUSH2 0x1917 DUP4 PUSH2 0x17DE JUMP JUMPDEST SWAP2 POP PUSH1 0x20 DUP4 ADD CALLDATALOAD PUSH1 0x1 PUSH1 0x1 PUSH1 0x40 SHL SUB DUP2 GT ISZERO PUSH2 0x1931 JUMPI PUSH0 DUP1 REVERT JUMPDEST DUP4 ADD PUSH1 0x1F DUP2 ADD DUP6 SGT PUSH2 0x1941 JUMPI PUSH0 DUP1 REVERT JUMPDEST DUP1 CALLDATALOAD PUSH1 0x1 PUSH1 0x1 PUSH1 0x40 SHL SUB DUP2 GT ISZERO PUSH2 0x195A JUMPI PUSH2 0x195A PUSH2 0x18E9 JUMP JUMPDEST PUSH1 0x40 MLOAD PUSH1 0x1F DUP3 ADD PUSH1 0x1F NOT SWAP1 DUP2 AND PUSH1 0x3F ADD AND DUP2 ADD PUSH1 0x1 PUSH1 0x1 PUSH1 0x40 SHL SUB DUP2 GT DUP3 DUP3 LT OR ISZERO PUSH2 0x1988 JUMPI PUSH2 0x1988 PUSH2 0x18E9 JUMP JUMPDEST PUSH1 0x40 MSTORE DUP2 DUP2 MSTORE DUP3 DUP3 ADD PUSH1 0x20 ADD DUP8 LT ISZERO PUSH2 0x199F JUMPI PUSH0 DUP1 REVERT JUMPDEST DUP2 PUSH1 0x20 DUP5 ADD PUSH1 0x20 DUP4 ADD CALLDATACOPY PUSH0 PUSH1 0x20 DUP4 DUP4 ADD ADD MSTORE DUP1 SWAP4 POP POP POP POP SWAP3 POP SWAP3 SWAP1 POP JUMP JUMPDEST PUSH1 0x20 DUP2 MSTORE PUSH0 DUP3 MLOAD DUP1 PUSH1 0x20 DUP5 ADD MSTORE DUP1 PUSH1 0x20 DUP6 ADD PUSH1 0x40 DUP6 ADD MCOPY PUSH0 PUSH1 0x40 DUP3 DUP6 ADD ADD MSTORE PUSH1 0x40 PUSH1 0x1F NOT PUSH1 0x1F DUP4 ADD AND DUP5 ADD ADD SWAP2 POP POP SWAP3 SWAP2 POP POP JUMP JUMPDEST PUSH0 DUP1 PUSH1 0x20 DUP4 DUP6 SUB SLT ISZERO PUSH2 0x1A04 JUMPI PUSH0 DUP1 REVERT JUMPDEST DUP3 CALLDATALOAD PUSH1 0x1 PUSH1 0x1 PUSH1 0x40 SHL SUB DUP2 GT ISZERO PUSH2 0x1A19 JUMPI PUSH0 DUP1 REVERT JUMPDEST DUP4 ADD PUSH1 0x1F DUP2 ADD DUP6 SGT PUSH2 0x1A29 JUMPI PUSH0 DUP1 REVERT JUMPDEST DUP1 CALLDATALOAD PUSH1 0x1 PUSH1 0x1 PUSH1 0x40 SHL SUB DUP2 GT ISZERO PUSH2 0x1A3E JUMPI PUSH0 DUP1 REVERT JUMPDEST DUP6 PUSH1 0x20 DUP3 DUP5 ADD ADD GT ISZERO PUSH2 0x1A4F JUMPI PUSH0 DUP1 REVERT JUMPDEST PUSH1 0x20 SWAP2 SWAP1 SWAP2 ADD SWAP6 SWAP1 SWAP5 POP SWAP3 POP POP POP JUMP JUMPDEST PUSH0 DUP1 PUSH0 PUSH1 0x60 DUP5 DUP7 SUB SLT ISZERO PUSH2 0x1A71 JUMPI PUSH0 DUP1 REVERT JUMPDEST PUSH2 0x1A7A DUP5 PUSH2 0x17DE JUMP JUMPDEST SWAP3 POP PUSH2 0x1A88 PUSH1 0x20 DUP6 ADD PUSH2 0x17DE JUMP JUMPDEST SWAP2 POP PUSH1 0x40 DUP5 ADD CALLDATALOAD PUSH1 0x1 PUSH1 0x1 PUSH1 0xE0 SHL SUB NOT DUP2 AND DUP2 EQ PUSH2 0x1AA4 JUMPI PUSH0 DUP1 REVERT JUMPDEST DUP1 SWAP2 POP POP SWAP3 POP SWAP3 POP SWAP3 JUMP JUMPDEST PUSH4 0x4E487B71 PUSH1 0xE0 SHL PUSH0 MSTORE PUSH1 0x11 PUSH1 0x4 MSTORE PUSH1 0x24 PUSH0 REVERT JUMPDEST PUSH0 PUSH1 0x1 DUP3 ADD PUSH2 0x1AD4 JUMPI PUSH2 0x1AD4 PUSH2 0x1AAF JUMP JUMPDEST POP PUSH1 0x1 ADD SWAP1 JUMP JUMPDEST DUP2 DUP2 SUB DUP2 DUP2 GT ISZERO PUSH2 0xEE5 JUMPI PUSH2 0xEE5 PUSH2 0x1AAF JUMP JUMPDEST PUSH4 0x4E487B71 PUSH1 0xE0 SHL PUSH0 MSTORE PUSH1 0x32 PUSH1 0x4 MSTORE PUSH1 0x24 PUSH0 REVERT JUMPDEST DUP1 DUP3 ADD DUP1 DUP3 GT ISZERO PUSH2 0xEE5 JUMPI PUSH2 0xEE5 PUSH2 0x1AAF JUMP JUMPDEST PUSH0 PUSH1 0x20 DUP3 DUP5 SUB SLT ISZERO PUSH2 0x1B25 JUMPI PUSH0 DUP1 REVERT JUMPDEST POP MLOAD SWAP2 SWAP1 POP JUMP JUMPDEST DUP2 DUP4 DUP3 CALLDATACOPY PUSH0 SWAP2 ADD SWAP1 DUP2 MSTORE SWAP2 SWAP1 POP JUMP JUMPDEST PUSH4 0x4E487B71 PUSH1 0xE0 SHL PUSH0 MSTORE PUSH1 0x12 PUSH1 0x4 MSTORE PUSH1 0x24 PUSH0 REVERT JUMPDEST PUSH0 PUSH1 0x1 PUSH1 0x1 PUSH1 0xA0 SHL SUB DUP4 AND DUP1 PUSH2 0x1B73 JUMPI PUSH4 0x4E487B71 PUSH1 0xE0 SHL PUSH0 MSTORE PUSH1 0x12 PUSH1 0x4 MSTORE PUSH1 0x24 PUSH0 REVERT JUMPDEST PUSH1 0x1 PUSH1 0x1 PUSH1 0xA0 SHL SUB SWAP3 SWAP1 SWAP3 AND SWAP2 SWAP1 SWAP2 DIV SWAP3 SWAP2 POP POP JUMP JUMPDEST PUSH0 DUP2 MLOAD DUP1 PUSH1 0x20 DUP5 ADD DUP6 MCOPY PUSH0 SWAP4 ADD SWAP3 DUP4 MSTORE POP SWAP1 SWAP2 SWAP1 POP JUMP JUMPDEST PUSH0 PUSH2 0xEB1 DUP3 DUP5 PUSH2 0x1B89 JUMP JUMPDEST DUP1 DUP3 ADD DUP3 DUP2 SLT PUSH0 DUP4 SLT DUP1 ISZERO DUP3 AND DUP3 ISZERO DUP3 AND OR ISZERO PUSH2 0xF82 JUMPI PUSH2 0xF82 PUSH2 0x1AAF JUMP JUMPDEST PUSH4 0x4E487B71 PUSH1 0xE0 SHL PUSH0 MSTORE PUSH1 0x1 PUSH1 0x4 MSTORE PUSH1 0x24 PUSH0 REVERT INVALID CALLDATASIZE ADDMOD SWAP5 LOG1 EXTCODESIZE LOG1 LOG3 0x21 MOD PUSH8 0xC828492DB98DCA3E KECCAK256 PUSH23 0xCC3735A920A3CA505D382BBCA2646970667358221220EB DUP6 0x27 GASLIMIT PUSH32 0x6E161452EACA5004338A63DD05BC9DE42320BB511F9CF8FBAC83B164736F6C63 NUMBER STOP ADDMOD BYTE STOP CALLER "
		},
		"gasEstimates": {
			"creation": {
				"codeDepositCost": "1444000",
				"executionCost": "infinite",
				"totalCost": "infinite"
			},
			"external": {
				"MotzkinPrime()": "392",
				"UPGRADE_INTERFACE_VERSION()": "infinite",
				"XUSD()": "2515",
				"addClass(address)": "infinite",
				"addClassToUser(address,address)": "infinite",
				"addToken(address)": "26800",
				"addUser(address)": "infinite",
				"burn()": "infinite",
				"classAddressIndex(uint256)": "2609",
				"classFees(bytes32)": "4710",
				"classIndex()": "2417",
				"classIndexFromAddress(address)": "2595",
				"classList(address)": "2705",
				"classes(uint256)": "4821",
				"classesShow()": "infinite",
				"getClassAtIndex()": "6830",
				"getClassByIndex(uint256)": "4930",
				"getClassIndex()": "2293",
				"getUser(address)": "2679",
				"hashWith(address,address)": "infinite",
				"initialize(address,address)": "infinite",
				"owner()": "2392",
				"processTransaction(address,address,bytes4)": "infinite",
				"proxiableUUID()": "infinite",
				"removeFee(string)": "infinite",
				"renounceOwnership()": "infinite",
				"returnFunctionSelectorFromSignature(string)": "infinite",
				"setFees(string)": "infinite",
				"transferOwnership(address)": "28553",
				"uiserIndexedList(uint256)": "4680",
				"upgradeToAndCall(address,bytes)": "infinite",
				"userIndex()": "infinite",
				"userList(address)": "2574",
				"userListInfo(uint256)": "4702"
			},
			"internal": {
				"_addUser(address)": "infinite",
				"_authorizeUpgrade(address)": "infinite",
				"_calculateFeeSum(address)": "infinite",
				"_ensureUser(address)": "infinite",
				"isNegative(int256)": "infinite",
				"selectFromSigInternal(string memory)": "infinite"
			}
		},
		"methodIdentifiers": {
			"MotzkinPrime()": "d3dc2a0f",
			"UPGRADE_INTERFACE_VERSION()": "ad3cb1cc",
			"XUSD()": "c21ad2a4",
			"addClass(address)": "d6906610",
			"addClassToUser(address,address)": "2254c804",
			"addToken(address)": "d48bfca7",
			"addUser(address)": "421b2d8b",
			"burn()": "44df8e70",
			"classAddressIndex(uint256)": "6568ac9e",
			"classFees(bytes32)": "d6441452",
			"classIndex()": "3593c905",
			"classIndexFromAddress(address)": "2b29ce99",
			"classList(address)": "7889b7ff",
			"classes(uint256)": "817dbe9f",
			"classesShow()": "2fe126ba",
			"getClassAtIndex()": "9183b108",
			"getClassByIndex(uint256)": "3b63ef0a",
			"getClassIndex()": "144c4b8f",
			"getUser(address)": "6f77926b",
			"hashWith(address,address)": "fa6bcfec",
			"initialize(address,address)": "485cc955",
			"owner()": "8da5cb5b",
			"processTransaction(address,address,bytes4)": "dc61b1d3",
			"proxiableUUID()": "52d1902d",
			"removeFee(string)": "d5fdb732",
			"renounceOwnership()": "715018a6",
			"returnFunctionSelectorFromSignature(string)": "ed46156e",
			"setFees(string)": "d54fcafc",
			"transferOwnership(address)": "f2fde38b",
			"uiserIndexedList(uint256)": "9ea545a3",
			"upgradeToAndCall(address,bytes)": "4f1ef286",
			"userIndex()": "ab701207",
			"userList(address)": "1b4e7bd2",
			"userListInfo(uint256)": "a71c65df"
		}
	},
	"abi": [
		{
			"inputs": [],
			"stateMutability": "nonpayable",
			"type": "constructor"
		},
		{
			"inputs": [
				{
					"internalType": "address",
					"name": "target",
					"type": "address"
				}
			],
			"name": "AddressEmptyCode",
			"type": "error"
		},
		{
			"inputs": [],
			"name": "ArrayLengthMismatch",
			"type": "error"
		},
		{
			"inputs": [
				{
					"internalType": "address",
					"name": "implementation",
					"type": "address"
				}
			],
			"name": "ERC1967InvalidImplementation",
			"type": "error"
		},
		{
			"inputs": [],
			"name": "ERC1967NonPayable",
			"type": "error"
		},
		{
			"inputs": [],
			"name": "FailedInnerCall",
			"type": "error"
		},
		{
			"inputs": [],
			"name": "FeeAboveMaxLimit",
			"type": "error"
		},
		{
			"inputs": [],
			"name": "InvalidInitialization",
			"type": "error"
		},
		{
			"inputs": [],
			"name": "NotInitializing",
			"type": "error"
		},
		{
			"inputs": [
				{
					"internalType": "address",
					"name": "owner",
					"type": "address"
				}
			],
			"name": "OwnableInvalidOwner",
			"type": "error"
		},
		{
			"inputs": [
				{
					"internalType": "address",
					"name": "account",
					"type": "address"
				}
			],
			"name": "OwnableUnauthorizedAccount",
			"type": "error"
		},
		{
			"inputs": [],
			"name": "UUPSUnauthorizedCallContext",
			"type": "error"
		},
		{
			"inputs": [
				{
					"internalType": "bytes32",
					"name": "slot",
					"type": "bytes32"
				}
			],
			"name": "UUPSUnsupportedProxiableUUID",
			"type": "error"
		},
		{
			"anonymous": false,
			"inputs": [
				{
					"indexed": true,
					"internalType": "bytes32",
					"name": "feeId",
					"type": "bytes32"
				},
				{
					"indexed": true,
					"internalType": "address",
					"name": "classContract",
					"type": "address"
				},
				{
					"indexed": true,
					"internalType": "bytes4",
					"name": "functionSig",
					"type": "bytes4"
				},
				{
					"indexed": false,
					"internalType": "int256",
					"name": "fee",
					"type": "int256"
				}
			],
			"name": "ClassFeeRegistered",
			"type": "event"
		},
		{
			"anonymous": false,
			"inputs": [
				{
					"indexed": false,
					"internalType": "uint64",
					"name": "version",
					"type": "uint64"
				}
			],
			"name": "Initialized",
			"type": "event"
		},
		{
			"anonymous": false,
			"inputs": [
				{
					"indexed": true,
					"internalType": "address",
					"name": "previousOwner",
					"type": "address"
				},
				{
					"indexed": true,
					"internalType": "address",
					"name": "newOwner",
					"type": "address"
				}
			],
			"name": "OwnershipTransferred",
			"type": "event"
		},
		{
			"anonymous": false,
			"inputs": [
				{
					"indexed": false,
					"internalType": "int256",
					"name": "fee",
					"type": "int256"
				}
			],
			"name": "TotalFee",
			"type": "event"
		},
		{
			"anonymous": false,
			"inputs": [
				{
					"indexed": true,
					"internalType": "address",
					"name": "implementation",
					"type": "address"
				}
			],
			"name": "Upgraded",
			"type": "event"
		},
		{
			"inputs": [],
			"name": "MotzkinPrime",
			"outputs": [
				{
					"internalType": "uint64",
					"name": "",
					"type": "uint64"
				}
			],
			"stateMutability": "view",
			"type": "function"
		},
		{
			"inputs": [],
			"name": "UPGRADE_INTERFACE_VERSION",
			"outputs": [
				{
					"internalType": "string",
					"name": "",
					"type": "string"
				}
			],
			"stateMutability": "view",
			"type": "function"
		},
		{
			"inputs": [],
			"name": "XUSD",
			"outputs": [
				{
					"internalType": "address",
					"name": "",
					"type": "address"
				}
			],
			"stateMutability": "view",
			"type": "function"
		},
		{
			"inputs": [
				{
					"internalType": "address",
					"name": "class",
					"type": "address"
				}
			],
			"name": "addClass",
			"outputs": [
				{
					"components": [
						{
							"internalType": "address",
							"name": "classAddress",
							"type": "address"
						},
						{
							"internalType": "int256",
							"name": "basisFee",
							"type": "int256"
						}
					],
					"internalType": "struct TUSDRegistry.Class",
					"name": "",
					"type": "tuple"
				}
			],
			"stateMutability": "nonpayable",
			"type": "function"
		},
		{
			"inputs": [
				{
					"internalType": "address",
					"name": "user",
					"type": "address"
				},
				{
					"internalType": "address",
					"name": "class",
					"type": "address"
				}
			],
			"name": "addClassToUser",
			"outputs": [],
			"stateMutability": "nonpayable",
			"type": "function"
		},
		{
			"inputs": [
				{
					"internalType": "address",
					"name": "token",
					"type": "address"
				}
			],
			"name": "addToken",
			"outputs": [],
			"stateMutability": "nonpayable",
			"type": "function"
		},
		{
			"inputs": [
				{
					"internalType": "address",
					"name": "user",
					"type": "address"
				}
			],
			"name": "addUser",
			"outputs": [],
			"stateMutability": "nonpayable",
			"type": "function"
		},
		{
			"inputs": [],
			"name": "burn",
			"outputs": [
				{
					"internalType": "address",
					"name": "",
					"type": "address"
				}
			],
			"stateMutability": "view",
			"type": "function"
		},
		{
			"inputs": [
				{
					"internalType": "uint256",
					"name": "",
					"type": "uint256"
				}
			],
			"name": "classAddressIndex",
			"outputs": [
				{
					"internalType": "address",
					"name": "",
					"type": "address"
				}
			],
			"stateMutability": "view",
			"type": "function"
		},
		{
			"inputs": [
				{
					"internalType": "bytes32",
					"name": "",
					"type": "bytes32"
				}
			],
			"name": "classFees",
			"outputs": [
				{
					"internalType": "address",
					"name": "classAddress",
					"type": "address"
				},
				{
					"internalType": "int256",
					"name": "basisFee",
					"type": "int256"
				}
			],
			"stateMutability": "view",
			"type": "function"
		},
		{
			"inputs": [],
			"name": "classIndex",
			"outputs": [
				{
					"internalType": "uint256",
					"name": "",
					"type": "uint256"
				}
			],
			"stateMutability": "view",
			"type": "function"
		},
		{
			"inputs": [
				{
					"internalType": "address",
					"name": "",
					"type": "address"
				}
			],
			"name": "classIndexFromAddress",
			"outputs": [
				{
					"internalType": "uint256",
					"name": "",
					"type": "uint256"
				}
			],
			"stateMutability": "view",
			"type": "function"
		},
		{
			"inputs": [
				{
					"internalType": "address",
					"name": "",
					"type": "address"
				}
			],
			"name": "classList",
			"outputs": [
				{
					"internalType": "bool",
					"name": "",
					"type": "bool"
				}
			],
			"stateMutability": "view",
			"type": "function"
		},
		{
			"inputs": [
				{
					"internalType": "uint256",
					"name": "",
					"type": "uint256"
				}
			],
			"name": "classes",
			"outputs": [
				{
					"internalType": "address",
					"name": "classAddress",
					"type": "address"
				},
				{
					"internalType": "int256",
					"name": "basisFee",
					"type": "int256"
				}
			],
			"stateMutability": "view",
			"type": "function"
		},
		{
			"inputs": [],
			"name": "classesShow",
			"outputs": [
				{
					"components": [
						{
							"internalType": "address",
							"name": "classAddress",
							"type": "address"
						},
						{
							"internalType": "int256",
							"name": "basisFee",
							"type": "int256"
						}
					],
					"internalType": "struct TUSDRegistry.Class[]",
					"name": "",
					"type": "tuple[]"
				}
			],
			"stateMutability": "view",
			"type": "function"
		},
		{
			"inputs": [],
			"name": "getClassAtIndex",
			"outputs": [
				{
					"components": [
						{
							"internalType": "address",
							"name": "classAddress",
							"type": "address"
						},
						{
							"internalType": "int256",
							"name": "basisFee",
							"type": "int256"
						}
					],
					"internalType": "struct TUSDRegistry.Class",
					"name": "",
					"type": "tuple"
				}
			],
			"stateMutability": "view",
			"type": "function"
		},
		{
			"inputs": [
				{
					"internalType": "uint256",
					"name": "index",
					"type": "uint256"
				}
			],
			"name": "getClassByIndex",
			"outputs": [
				{
					"components": [
						{
							"internalType": "address",
							"name": "classAddress",
							"type": "address"
						},
						{
							"internalType": "int256",
							"name": "basisFee",
							"type": "int256"
						}
					],
					"internalType": "struct TUSDRegistry.Class",
					"name": "",
					"type": "tuple"
				}
			],
			"stateMutability": "view",
			"type": "function"
		},
		{
			"inputs": [],
			"name": "getClassIndex",
			"outputs": [
				{
					"internalType": "uint256",
					"name": "",
					"type": "uint256"
				}
			],
			"stateMutability": "view",
			"type": "function"
		},
		{
			"inputs": [
				{
					"internalType": "address",
					"name": "user",
					"type": "address"
				}
			],
			"name": "getUser",
			"outputs": [
				{
					"internalType": "bool",
					"name": "",
					"type": "bool"
				}
			],
			"stateMutability": "view",
			"type": "function"
		},
		{
			"inputs": [
				{
					"internalType": "address",
					"name": "a",
					"type": "address"
				},
				{
					"internalType": "address",
					"name": "b",
					"type": "address"
				}
			],
			"name": "hashWith",
			"outputs": [
				{
					"internalType": "uint256",
					"name": "hash",
					"type": "uint256"
				}
			],
			"stateMutability": "pure",
			"type": "function"
		},
		{
			"inputs": [
				{
					"internalType": "address",
					"name": "initialOwner",
					"type": "address"
				},
				{
					"internalType": "address",
					"name": "_XUSD",
					"type": "address"
				}
			],
			"name": "initialize",
			"outputs": [],
			"stateMutability": "nonpayable",
			"type": "function"
		},
		{
			"inputs": [],
			"name": "owner",
			"outputs": [
				{
					"internalType": "address",
					"name": "",
					"type": "address"
				}
			],
			"stateMutability": "view",
			"type": "function"
		},
		{
			"inputs": [
				{
					"internalType": "address",
					"name": "to",
					"type": "address"
				},
				{
					"internalType": "address",
					"name": "from",
					"type": "address"
				},
				{
					"internalType": "bytes4",
					"name": "selector",
					"type": "bytes4"
				}
			],
			"name": "processTransaction",
			"outputs": [
				{
					"internalType": "int256",
					"name": "",
					"type": "int256"
				}
			],
			"stateMutability": "nonpayable",
			"type": "function"
		},
		{
			"inputs": [],
			"name": "proxiableUUID",
			"outputs": [
				{
					"internalType": "bytes32",
					"name": "",
					"type": "bytes32"
				}
			],
			"stateMutability": "view",
			"type": "function"
		},
		{
			"inputs": [
				{
					"internalType": "string",
					"name": "functionSig",
					"type": "string"
				}
			],
			"name": "removeFee",
			"outputs": [],
			"stateMutability": "nonpayable",
			"type": "function"
		},
		{
			"inputs": [],
			"name": "renounceOwnership",
			"outputs": [],
			"stateMutability": "nonpayable",
			"type": "function"
		},
		{
			"inputs": [
				{
					"internalType": "string",
					"name": "functionName",
					"type": "string"
				}
			],
			"name": "returnFunctionSelectorFromSignature",
			"outputs": [
				{
					"internalType": "bytes4",
					"name": "",
					"type": "bytes4"
				}
			],
			"stateMutability": "pure",
			"type": "function"
		},
		{
			"inputs": [
				{
					"internalType": "string",
					"name": "functionSig",
					"type": "string"
				}
			],
			"name": "setFees",
			"outputs": [],
			"stateMutability": "nonpayable",
			"type": "function"
		},
		{
			"inputs": [
				{
					"internalType": "address",
					"name": "newOwner",
					"type": "address"
				}
			],
			"name": "transferOwnership",
			"outputs": [],
			"stateMutability": "nonpayable",
			"type": "function"
		},
		{
			"inputs": [
				{
					"internalType": "uint256",
					"name": "",
					"type": "uint256"
				}
			],
			"name": "uiserIndexedList",
			"outputs": [
				{
					"internalType": "uint256",
					"name": "index",
					"type": "uint256"
				},
				{
					"internalType": "address",
					"name": "user",
					"type": "address"
				}
			],
			"stateMutability": "view",
			"type": "function"
		},
		{
			"inputs": [
				{
					"internalType": "address",
					"name": "newImplementation",
					"type": "address"
				},
				{
					"internalType": "bytes",
					"name": "data",
					"type": "bytes"
				}
			],
			"name": "upgradeToAndCall",
			"outputs": [],
			"stateMutability": "payable",
			"type": "function"
		},
		{
			"inputs": [],
			"name": "userIndex",
			"outputs": [
				{
					"internalType": "uint256",
					"name": "",
					"type": "uint256"
				}
			],
			"stateMutability": "view",
			"type": "function"
		},
		{
			"inputs": [
				{
					"internalType": "address",
					"name": "",
					"type": "address"
				}
			],
			"name": "userList",
			"outputs": [
				{
					"internalType": "bool",
					"name": "",
					"type": "bool"
				}
			],
			"stateMutability": "view",
			"type": "function"
		},
		{
			"inputs": [
				{
					"internalType": "uint256",
					"name": "",
					"type": "uint256"
				}
			],
			"name": "userListInfo",
			"outputs": [
				{
					"internalType": "uint256",
					"name": "index",
					"type": "uint256"
				},
				{
					"internalType": "address",
					"name": "user",
					"type": "address"
				}
			],
			"stateMutability": "view",
			"type": "function"
		}
	]
}