{
	"data": {
		"bytecode": {
			"linkReferences": {},
			"object": "60806040525f600755348015610013575f5ffd5b50604051611a04380380611a04833981016040819052610032916102d2565b8242106100735760405162461bcd60e51b815260040161006a906020808252600490820152636c61746560e01b604082015260600190565b60405180910390fd5b6001600160a01b0386166100d75760405162461bcd60e51b815260206004820152602560248201527f5875736447656e65736973506f6f6c3a2058757364206973207a65726f206164604482015264647265737360d81b606482015260840161006a565b5f82116101345760405162461bcd60e51b815260206004820152602560248201527f5875736447656e65736973506f6f6c3a20746f74616c52657761726473206973604482015264207a65726f60d81b606482015260840161006a565b5f811161018f5760405162461bcd60e51b8152602060048201526024808201527f5875736447656e65736973506f6f6c3a2072756e6e696e6754696d65206973206044820152637a65726f60e01b606482015260840161006a565b600480546001600160a01b0319166001600160a01b038816179055600c829055600b8190556101be81836103d2565b600a555f5b8551811015610201576101f88682815181106101e1576101e16103f1565b60200260200101515f61023a60201b90919060201c565b506001016101c3565b5060028490556008839055600b546102199084610405565b6009555050600380546001600160a01b031916331790555061042492505050565b5f61024e836001600160a01b038416610257565b90505b92915050565b5f81815260018301602052604081205461029c57508154600181810184555f848152602080822090930184905584548482528286019093526040902091909155610251565b505f610251565b80516001600160a01b03811681146102b9575f5ffd5b919050565b634e487b7160e01b5f52604160045260245ffd5b5f5f5f5f5f5f60c087890312156102e7575f5ffd5b6102f0876102a3565b60208801519096506001600160401b0381111561030b575f5ffd5b8701601f8101891361031b575f5ffd5b80516001600160401b03811115610334576103346102be565b604051600582901b90603f8201601f191681016001600160401b0381118282101715610362576103626102be565b60405291825260208184018101929081018c84111561037f575f5ffd5b6020850194505b838510156103a557610397856102a3565b815260209485019401610386565b5060408b015160608c015160808d015160a0909d01519b9e929d50909b909a909950975095505050505050565b5f826103ec57634e487b7160e01b5f52601260045260245ffd5b500490565b634e487b7160e01b5f52603260045260245ffd5b8082018082111561025157634e487b7160e01b5f52601160045260245ffd5b6115d3806104315f395ff3fe608060405234801561000f575f5ffd5b5060043610610153575f3560e01c80635f96dc11116100bf57806392fae48d1161007957806392fae48d146102c157806393f1a40b146102c9578063943f013d1461030f578063b3ab15fb14610318578063e2bbb1581461032b578063f25bb8651461033e575f5ffd5b80635f96dc1114610278578063628b409f1461028157806362e006c71461028a578063630b5ba11461029d5780636e271dd5146102a55780637805583c146102ae575f5ffd5b806351eb05a61161011057806351eb05a6146102035780635312ea8e1461021657806354575af414610229578063570ca7351461023c5780635715f8f91461025c5780635b14295614610265575f5ffd5b80630e15561a146101575780631526fe271461017357806317caf6f1146101bf5780631ab06ee5146101c8578063231f0c6a146101dd578063441a3e70146101f0575b5f5ffd5b610160600c5481565b6040519081526020015b60405180910390f35b61018661018136600461133e565b610351565b604080516001600160a01b03909716875260208701959095529385019290925260608401521515608083015260a082015260c00161016a565b61016060075481565b6101db6101d6366004611355565b6103a5565b005b6101606101eb366004611355565b61043b565b6101db6101fe366004611355565b6104dd565b6101db61021136600461133e565b610703565b6101db61022436600461133e565b610869565b6101db61023736600461138c565b610961565b60035461024f906001600160a01b031681565b60405161016a91906113cb565b61016060025481565b61024f61027336600461133e565b610ae6565b61016060085481565b610160600a5481565b6101db6102983660046113ec565b610af1565b6101db610d05565b61016060095481565b6101606102bc36600461143a565b610d27565b610160610e8d565b6102fa6102d736600461143a565b600660209081525f92835260408084209091529082529020805460019091015482565b6040805192835260208301919091520161016a565b610160600b5481565b6101db610326366004611468565b610e9c565b6101db610339366004611355565b610ee8565b60045461024f906001600160a01b031681565b60058181548110610360575f80fd5b5f9182526020909120600690910201805460018201546002830154600384015460048501546005909501546001600160a01b0390941695509193909260ff9091169086565b6003546001600160a01b031633146103d85760405162461bcd60e51b81526004016103cf90611483565b60405180910390fd5b6103e0610d05565b5f600583815481106103f4576103f46114ce565b5f9182526020909120600690910201600481015490915060ff16156104345781816001015460075461042691906114f6565b6104309190611509565b6007555b6001015550565b5f81831061044a57505f6104d7565b60095482106104a157600954831061046357505f6104d7565b600854831161049057600a5460085460095461047f91906114f6565b610489919061151c565b90506104d7565b600a548360095461047f91906114f6565b60085482116104b157505f6104d7565b60085483116104ca57600a5460085461047f90846114f6565b600a5461047f84846114f6565b92915050565b5f3390505f600584815481106104f5576104f56114ce565b5f9182526020808320878452600680835260408086206001600160a01b038916875290935291909320805492909102909201925084111561056d5760405162461bcd60e51b81526020600482015260126024820152711dda5d1a191c985dce881b9bdd0819dbdbd960721b60448201526064016103cf565b61057685610703565b5f8160010154670de0b6b3a76400008460030154845f0154610598919061151c565b6105a29190611533565b6105ac91906114f6565b90508015610602576105be848261115d565b836001600160a01b03167fe2403640ba68fed3a2f88b7557551d1993f84b99bb10ff833f0cf8db0c5e0486826040516105f991815260200190565b60405180910390a25b84156106925784825f015f82825461061a91906114f6565b9091555050825460405163a9059cbb60e01b81526001600160a01b039091169063a9059cbb906106509087908990600401611552565b6020604051808303815f875af115801561066c573d5f5f3e3d5ffd5b505050506040513d601f19601f82011682018060405250810190610690919061156b565b505b60038301548254670de0b6b3a7640000916106ac9161151c565b6106b69190611533565b600183015560405185815286906001600160a01b038616907ff279e6a1f5e320cca91135676d9cb6e44ca8a08c0b88342bcdb1144f6511b5689060200160405180910390a3505050505050565b5f60058281548110610717576107176114ce565b905f5260205f209060060201905080600201544211610734575050565b80546040516370a0823160e01b81525f916001600160a01b0316906370a08231906107639030906004016113cb565b602060405180830381865afa15801561077e573d5f5f3e3d5ffd5b505050506040513d601f19601f820116820180604052508101906107a29190611586565b9050805f036107b657504260029091015550565b600482015460ff166107ee5760048201805460ff19166001908117909155820154600780545f906107e8908490611509565b90915550505b6007541561085e575f61080583600201544261043b565b90505f60075484600101548361081b919061151c565b6108259190611533565b90508261083a82670de0b6b3a764000061151c565b6108449190611533565b846003015f8282546108569190611509565b909155505050505b504260029091015550565b5f6005828154811061087d5761087d6114ce565b5f91825260208083208584526006808352604080862033808852945280862080548782556001820197909755919094029091018054935163a9059cbb60e01b81529095509093926001600160a01b03169163a9059cbb916108e391908590600401611552565b6020604051808303815f875af11580156108ff573d5f5f3e3d5ffd5b505050506040513d601f19601f82011682018060405250810190610923919061156b565b50604051818152849033907fbb757047c2b5f3974fe26b7c10f732e7bce710b0952a71082702781e62ae05959060200160405180910390a350505050565b6003546001600160a01b0316331461098b5760405162461bcd60e51b81526004016103cf90611483565b60095461099b9062278d00611509565b421015610a72576004546001600160a01b03908116908416036109e95760405162461bcd60e51b81526004016103cf90602080825260049082015263161d5cd960e21b604082015260600190565b6005545f5b81811015610a6f575f60058281548110610a0a57610a0a6114ce565b5f918252602090912060069091020180549091506001600160a01b0390811690871603610a665760405162461bcd60e51b815260206004820152600a6024820152693837b7b6173a37b5b2b760b11b60448201526064016103cf565b506001016109ee565b50505b60405163a9059cbb60e01b81526001600160a01b0384169063a9059cbb90610aa09084908690600401611552565b6020604051808303815f875af1158015610abc573d5f5f3e3d5ffd5b505050506040513d601f19601f82011682018060405250810190610ae0919061156b565b50505050565b5f6104d78183611244565b6003546001600160a01b03163314610b1b5760405162461bcd60e51b81526004016103cf90611483565b610b2484611256565b8215610b3257610b32610d05565b600854421015610b6257815f03610b4d576008549150610b77565b600854821015610b5d5760085491505b610b77565b811580610b6e57504282105b15610b77574291505b5f60085483111580610b895750428311155b6040805160c0810182526001600160a01b038881168252602082018a81529282018781525f60608401818152861580156080870190815260a087018b815260058054600181018255955296517f036b6384b5eca791c62761152d0c79bb0604c104a5fb6f4eb0703f3154bb3db0600690950294850180546001600160a01b031916919097161790955595517f036b6384b5eca791c62761152d0c79bb0604c104a5fb6f4eb0703f3154bb3db183015591517f036b6384b5eca791c62761152d0c79bb0604c104a5fb6f4eb0703f3154bb3db282015590517f036b6384b5eca791c62761152d0c79bb0604c104a5fb6f4eb0703f3154bb3db382015590517f036b6384b5eca791c62761152d0c79bb0604c104a5fb6f4eb0703f3154bb3db48201805460ff191691151591909117905590517f036b6384b5eca791c62761152d0c79bb0604c104a5fb6f4eb0703f3154bb3db590910155909150610cfd578560075f828254610cf79190611509565b90915550505b505050505050565b6005545f5b81811015610d2357610d1b81610703565b600101610d0a565b5050565b5f5f60058481548110610d3c57610d3c6114ce565b5f9182526020808320878452600680835260408086206001600160a01b038a811688529452808620949091029091016003810154815492516370a0823160e01b815291965093949291909116906370a0823190610d9d9030906004016113cb565b602060405180830381865afa158015610db8573d5f5f3e3d5ffd5b505050506040513d601f19601f82011682018060405250810190610ddc9190611586565b9050836002015442118015610df057508015155b15610e52575f610e0485600201544261043b565b90505f600754866001015483610e1a919061151c565b610e249190611533565b905082610e3982670de0b6b3a764000061151c565b610e439190611533565b610e4d9085611509565b935050505b60018301548354670de0b6b3a764000090610e6e90859061151c565b610e789190611533565b610e8291906114f6565b979650505050505050565b5f610e975f6112ee565b905090565b6003546001600160a01b03163314610ec65760405162461bcd60e51b81526004016103cf90611483565b600380546001600160a01b0319166001600160a01b0392909216919091179055565b5f3390505f60058481548110610f0057610f006114ce565b5f9182526020808320878452600680835260408086206001600160a01b03891687529093529190932091029091019150610f3985610703565b805415610fce575f8160010154670de0b6b3a76400008460030154845f0154610f62919061151c565b610f6c9190611533565b610f7691906114f6565b90508015610fcc57610f88848261115d565b836001600160a01b03167fe2403640ba68fed3a2f88b7557551d1993f84b99bb10ff833f0cf8db0c5e048682604051610fc391815260200190565b60405180910390a25b505b805460058301545f91610fe0916114f6565b90505f818611610ff05785610ff2565b815b905080156110eb5783546040516323b872dd60e01b81526001600160a01b03878116600483015230602483015260448201849052909116906323b872dd906064016020604051808303815f875af115801561104f573d5f5f3e3d5ffd5b505050506040513d601f19601f82011682018060405250810190611073919061156b565b50835461108a905f906001600160a01b03166112f7565b156110d3576002546127109081906110a290826114f6565b6110ac908461151c565b6110b69190611533565b845f015f8282546110c79190611509565b909155506110eb915050565b80835f015f8282546110e59190611509565b90915550505b60038401548354670de0b6b3a7640000916111059161151c565b61110f9190611533565b600184015560405181815287906001600160a01b038716907f90890809c654f11d6e72a28fa60149770a0d11ec6c92319d6ceb2bb0a4ea1a159060200160405180910390a350505050505050565b600480546040516370a0823160e01b81525f926001600160a01b03909216916370a082319161118e913091016113cb565b602060405180830381865afa1580156111a9573d5f5f3e3d5ffd5b505050506040513d601f19601f820116820180604052508101906111cd9190611586565b9050801561123f578082111561120e576004805460405163a9059cbb60e01b81526001600160a01b039091169163a9059cbb91610aa0918791869101611552565b6004805460405163a9059cbb60e01b81526001600160a01b039091169163a9059cbb91610aa0918791879101611552565b505050565b5f61124f8383611318565b9392505050565b6005545f5b8181101561123f57826001600160a01b031660058281548110611280576112806114ce565b5f9182526020909120600690910201546001600160a01b0316036112e65760405162461bcd60e51b815260206004820152601f60248201527f5875736447656e65736973506f6f6c3a206578697374696e6720706f6f6c3f0060448201526064016103cf565b60010161125b565b5f6104d7825490565b6001600160a01b0381165f908152600183016020526040812054151561124f565b5f825f01828154811061132d5761132d6114ce565b905f5260205f200154905092915050565b5f6020828403121561134e575f5ffd5b5035919050565b5f5f60408385031215611366575f5ffd5b50508035926020909101359150565b6001600160a01b0381168114611389575f5ffd5b50565b5f5f5f6060848603121561139e575f5ffd5b83356113a981611375565b92506020840135915060408401356113c081611375565b809150509250925092565b6001600160a01b0391909116815260200190565b8015158114611389575f5ffd5b5f5f5f5f5f60a08688031215611400575f5ffd5b85359450602086013561141281611375565b93506040860135611422816113df565b94979396509394606081013594506080013592915050565b5f5f6040838503121561144b575f5ffd5b82359150602083013561145d81611375565b809150509250929050565b5f60208284031215611478575f5ffd5b813561124f81611375565b6020808252602b908201527f5875736447656e65736973506f6f6c3a2063616c6c6572206973206e6f74207460408201526a34329037b832b930ba37b960a91b606082015260800190565b634e487b7160e01b5f52603260045260245ffd5b634e487b7160e01b5f52601160045260245ffd5b818103818111156104d7576104d76114e2565b808201808211156104d7576104d76114e2565b80820281158282048414176104d7576104d76114e2565b5f8261154d57634e487b7160e01b5f52601260045260245ffd5b500490565b6001600160a01b03929092168252602082015260400190565b5f6020828403121561157b575f5ffd5b815161124f816113df565b5f60208284031215611596575f5ffd5b505191905056fea2646970667358221220e39b6ba85b135184adef6900236c7e8d953eb40ac576770644fb1d557b358bcf64736f6c634300081b0033",
			"opcodes": "PUSH1 0x80 PUSH1 0x40 MSTORE PUSH0 PUSH1 0x7 SSTORE CALLVALUE DUP1 ISZERO PUSH2 0x13 JUMPI PUSH0 PUSH0 REVERT JUMPDEST POP PUSH1 0x40 MLOAD PUSH2 0x1A04 CODESIZE SUB DUP1 PUSH2 0x1A04 DUP4 CODECOPY DUP2 ADD PUSH1 0x40 DUP2 SWAP1 MSTORE PUSH2 0x32 SWAP2 PUSH2 0x2D2 JUMP JUMPDEST DUP3 TIMESTAMP LT PUSH2 0x73 JUMPI PUSH1 0x40 MLOAD PUSH3 0x461BCD PUSH1 0xE5 SHL DUP2 MSTORE PUSH1 0x4 ADD PUSH2 0x6A SWAP1 PUSH1 0x20 DUP1 DUP3 MSTORE PUSH1 0x4 SWAP1 DUP3 ADD MSTORE PUSH4 0x6C617465 PUSH1 0xE0 SHL PUSH1 0x40 DUP3 ADD MSTORE PUSH1 0x60 ADD SWAP1 JUMP JUMPDEST PUSH1 0x40 MLOAD DUP1 SWAP2 SUB SWAP1 REVERT JUMPDEST PUSH1 0x1 PUSH1 0x1 PUSH1 0xA0 SHL SUB DUP7 AND PUSH2 0xD7 JUMPI PUSH1 0x40 MLOAD PUSH3 0x461BCD PUSH1 0xE5 SHL DUP2 MSTORE PUSH1 0x20 PUSH1 0x4 DUP3 ADD MSTORE PUSH1 0x25 PUSH1 0x24 DUP3 ADD MSTORE PUSH32 0x5875736447656E65736973506F6F6C3A2058757364206973207A65726F206164 PUSH1 0x44 DUP3 ADD MSTORE PUSH5 0x6472657373 PUSH1 0xD8 SHL PUSH1 0x64 DUP3 ADD MSTORE PUSH1 0x84 ADD PUSH2 0x6A JUMP JUMPDEST PUSH0 DUP3 GT PUSH2 0x134 JUMPI PUSH1 0x40 MLOAD PUSH3 0x461BCD PUSH1 0xE5 SHL DUP2 MSTORE PUSH1 0x20 PUSH1 0x4 DUP3 ADD MSTORE PUSH1 0x25 PUSH1 0x24 DUP3 ADD MSTORE PUSH32 0x5875736447656E65736973506F6F6C3A20746F74616C52657761726473206973 PUSH1 0x44 DUP3 ADD MSTORE PUSH5 0x207A65726F PUSH1 0xD8 SHL PUSH1 0x64 DUP3 ADD MSTORE PUSH1 0x84 ADD PUSH2 0x6A JUMP JUMPDEST PUSH0 DUP2 GT PUSH2 0x18F JUMPI PUSH1 0x40 MLOAD PUSH3 0x461BCD PUSH1 0xE5 SHL DUP2 MSTORE PUSH1 0x20 PUSH1 0x4 DUP3 ADD MSTORE PUSH1 0x24 DUP1 DUP3 ADD MSTORE PUSH32 0x5875736447656E65736973506F6F6C3A2072756E6E696E6754696D6520697320 PUSH1 0x44 DUP3 ADD MSTORE PUSH4 0x7A65726F PUSH1 0xE0 SHL PUSH1 0x64 DUP3 ADD MSTORE PUSH1 0x84 ADD PUSH2 0x6A JUMP JUMPDEST PUSH1 0x4 DUP1 SLOAD PUSH1 0x1 PUSH1 0x1 PUSH1 0xA0 SHL SUB NOT AND PUSH1 0x1 PUSH1 0x1 PUSH1 0xA0 SHL SUB DUP9 AND OR SWAP1 SSTORE PUSH1 0xC DUP3 SWAP1 SSTORE PUSH1 0xB DUP2 SWAP1 SSTORE PUSH2 0x1BE DUP2 DUP4 PUSH2 0x3D2 JUMP JUMPDEST PUSH1 0xA SSTORE PUSH0 JUMPDEST DUP6 MLOAD DUP2 LT ISZERO PUSH2 0x201 JUMPI PUSH2 0x1F8 DUP7 DUP3 DUP2 MLOAD DUP2 LT PUSH2 0x1E1 JUMPI PUSH2 0x1E1 PUSH2 0x3F1 JUMP JUMPDEST PUSH1 0x20 MUL PUSH1 0x20 ADD ADD MLOAD PUSH0 PUSH2 0x23A PUSH1 0x20 SHL SWAP1 SWAP2 SWAP1 PUSH1 0x20 SHR JUMP JUMPDEST POP PUSH1 0x1 ADD PUSH2 0x1C3 JUMP JUMPDEST POP PUSH1 0x2 DUP5 SWAP1 SSTORE PUSH1 0x8 DUP4 SWAP1 SSTORE PUSH1 0xB SLOAD PUSH2 0x219 SWAP1 DUP5 PUSH2 0x405 JUMP JUMPDEST PUSH1 0x9 SSTORE POP POP PUSH1 0x3 DUP1 SLOAD PUSH1 0x1 PUSH1 0x1 PUSH1 0xA0 SHL SUB NOT AND CALLER OR SWAP1 SSTORE POP PUSH2 0x424 SWAP3 POP POP POP JUMP JUMPDEST PUSH0 PUSH2 0x24E DUP4 PUSH1 0x1 PUSH1 0x1 PUSH1 0xA0 SHL SUB DUP5 AND PUSH2 0x257 JUMP JUMPDEST SWAP1 POP JUMPDEST SWAP3 SWAP2 POP POP JUMP JUMPDEST PUSH0 DUP2 DUP2 MSTORE PUSH1 0x1 DUP4 ADD PUSH1 0x20 MSTORE PUSH1 0x40 DUP2 KECCAK256 SLOAD PUSH2 0x29C JUMPI POP DUP2 SLOAD PUSH1 0x1 DUP2 DUP2 ADD DUP5 SSTORE PUSH0 DUP5 DUP2 MSTORE PUSH1 0x20 DUP1 DUP3 KECCAK256 SWAP1 SWAP4 ADD DUP5 SWAP1 SSTORE DUP5 SLOAD DUP5 DUP3 MSTORE DUP3 DUP7 ADD SWAP1 SWAP4 MSTORE PUSH1 0x40 SWAP1 KECCAK256 SWAP2 SWAP1 SWAP2 SSTORE PUSH2 0x251 JUMP JUMPDEST POP PUSH0 PUSH2 0x251 JUMP JUMPDEST DUP1 MLOAD PUSH1 0x1 PUSH1 0x1 PUSH1 0xA0 SHL SUB DUP2 AND DUP2 EQ PUSH2 0x2B9 JUMPI PUSH0 PUSH0 REVERT JUMPDEST SWAP2 SWAP1 POP JUMP JUMPDEST PUSH4 0x4E487B71 PUSH1 0xE0 SHL PUSH0 MSTORE PUSH1 0x41 PUSH1 0x4 MSTORE PUSH1 0x24 PUSH0 REVERT JUMPDEST PUSH0 PUSH0 PUSH0 PUSH0 PUSH0 PUSH0 PUSH1 0xC0 DUP8 DUP10 SUB SLT ISZERO PUSH2 0x2E7 JUMPI PUSH0 PUSH0 REVERT JUMPDEST PUSH2 0x2F0 DUP8 PUSH2 0x2A3 JUMP JUMPDEST PUSH1 0x20 DUP9 ADD MLOAD SWAP1 SWAP7 POP PUSH1 0x1 PUSH1 0x1 PUSH1 0x40 SHL SUB DUP2 GT ISZERO PUSH2 0x30B JUMPI PUSH0 PUSH0 REVERT JUMPDEST DUP8 ADD PUSH1 0x1F DUP2 ADD DUP10 SGT PUSH2 0x31B JUMPI PUSH0 PUSH0 REVERT JUMPDEST DUP1 MLOAD PUSH1 0x1 PUSH1 0x1 PUSH1 0x40 SHL SUB DUP2 GT ISZERO PUSH2 0x334 JUMPI PUSH2 0x334 PUSH2 0x2BE JUMP JUMPDEST PUSH1 0x40 MLOAD PUSH1 0x5 DUP3 SWAP1 SHL SWAP1 PUSH1 0x3F DUP3 ADD PUSH1 0x1F NOT AND DUP2 ADD PUSH1 0x1 PUSH1 0x1 PUSH1 0x40 SHL SUB DUP2 GT DUP3 DUP3 LT OR ISZERO PUSH2 0x362 JUMPI PUSH2 0x362 PUSH2 0x2BE JUMP JUMPDEST PUSH1 0x40 MSTORE SWAP2 DUP3 MSTORE PUSH1 0x20 DUP2 DUP5 ADD DUP2 ADD SWAP3 SWAP1 DUP2 ADD DUP13 DUP5 GT ISZERO PUSH2 0x37F JUMPI PUSH0 PUSH0 REVERT JUMPDEST PUSH1 0x20 DUP6 ADD SWAP5 POP JUMPDEST DUP4 DUP6 LT ISZERO PUSH2 0x3A5 JUMPI PUSH2 0x397 DUP6 PUSH2 0x2A3 JUMP JUMPDEST DUP2 MSTORE PUSH1 0x20 SWAP5 DUP6 ADD SWAP5 ADD PUSH2 0x386 JUMP JUMPDEST POP PUSH1 0x40 DUP12 ADD MLOAD PUSH1 0x60 DUP13 ADD MLOAD PUSH1 0x80 DUP14 ADD MLOAD PUSH1 0xA0 SWAP1 SWAP14 ADD MLOAD SWAP12 SWAP15 SWAP3 SWAP14 POP SWAP1 SWAP12 SWAP1 SWAP11 SWAP1 SWAP10 POP SWAP8 POP SWAP6 POP POP POP POP POP POP JUMP JUMPDEST PUSH0 DUP3 PUSH2 0x3EC JUMPI PUSH4 0x4E487B71 PUSH1 0xE0 SHL PUSH0 MSTORE PUSH1 0x12 PUSH1 0x4 MSTORE PUSH1 0x24 PUSH0 REVERT JUMPDEST POP DIV SWAP1 JUMP JUMPDEST PUSH4 0x4E487B71 PUSH1 0xE0 SHL PUSH0 MSTORE PUSH1 0x32 PUSH1 0x4 MSTORE PUSH1 0x24 PUSH0 REVERT JUMPDEST DUP1 DUP3 ADD DUP1 DUP3 GT ISZERO PUSH2 0x251 JUMPI PUSH4 0x4E487B71 PUSH1 0xE0 SHL PUSH0 MSTORE PUSH1 0x11 PUSH1 0x4 MSTORE PUSH1 0x24 PUSH0 REVERT JUMPDEST PUSH2 0x15D3 DUP1 PUSH2 0x431 PUSH0 CODECOPY PUSH0 RETURN INVALID PUSH1 0x80 PUSH1 0x40 MSTORE CALLVALUE DUP1 ISZERO PUSH2 0xF JUMPI PUSH0 PUSH0 REVERT JUMPDEST POP PUSH1 0x4 CALLDATASIZE LT PUSH2 0x153 JUMPI PUSH0 CALLDATALOAD PUSH1 0xE0 SHR DUP1 PUSH4 0x5F96DC11 GT PUSH2 0xBF JUMPI DUP1 PUSH4 0x92FAE48D GT PUSH2 0x79 JUMPI DUP1 PUSH4 0x92FAE48D EQ PUSH2 0x2C1 JUMPI DUP1 PUSH4 0x93F1A40B EQ PUSH2 0x2C9 JUMPI DUP1 PUSH4 0x943F013D EQ PUSH2 0x30F JUMPI DUP1 PUSH4 0xB3AB15FB EQ PUSH2 0x318 JUMPI DUP1 PUSH4 0xE2BBB158 EQ PUSH2 0x32B JUMPI DUP1 PUSH4 0xF25BB865 EQ PUSH2 0x33E JUMPI PUSH0 PUSH0 REVERT JUMPDEST DUP1 PUSH4 0x5F96DC11 EQ PUSH2 0x278 JUMPI DUP1 PUSH4 0x628B409F EQ PUSH2 0x281 JUMPI DUP1 PUSH4 0x62E006C7 EQ PUSH2 0x28A JUMPI DUP1 PUSH4 0x630B5BA1 EQ PUSH2 0x29D JUMPI DUP1 PUSH4 0x6E271DD5 EQ PUSH2 0x2A5 JUMPI DUP1 PUSH4 0x7805583C EQ PUSH2 0x2AE JUMPI PUSH0 PUSH0 REVERT JUMPDEST DUP1 PUSH4 0x51EB05A6 GT PUSH2 0x110 JUMPI DUP1 PUSH4 0x51EB05A6 EQ PUSH2 0x203 JUMPI DUP1 PUSH4 0x5312EA8E EQ PUSH2 0x216 JUMPI DUP1 PUSH4 0x54575AF4 EQ PUSH2 0x229 JUMPI DUP1 PUSH4 0x570CA735 EQ PUSH2 0x23C JUMPI DUP1 PUSH4 0x5715F8F9 EQ PUSH2 0x25C JUMPI DUP1 PUSH4 0x5B142956 EQ PUSH2 0x265 JUMPI PUSH0 PUSH0 REVERT JUMPDEST DUP1 PUSH4 0xE15561A EQ PUSH2 0x157 JUMPI DUP1 PUSH4 0x1526FE27 EQ PUSH2 0x173 JUMPI DUP1 PUSH4 0x17CAF6F1 EQ PUSH2 0x1BF JUMPI DUP1 PUSH4 0x1AB06EE5 EQ PUSH2 0x1C8 JUMPI DUP1 PUSH4 0x231F0C6A EQ PUSH2 0x1DD JUMPI DUP1 PUSH4 0x441A3E70 EQ PUSH2 0x1F0 JUMPI JUMPDEST PUSH0 PUSH0 REVERT JUMPDEST PUSH2 0x160 PUSH1 0xC SLOAD DUP2 JUMP JUMPDEST PUSH1 0x40 MLOAD SWAP1 DUP2 MSTORE PUSH1 0x20 ADD JUMPDEST PUSH1 0x40 MLOAD DUP1 SWAP2 SUB SWAP1 RETURN JUMPDEST PUSH2 0x186 PUSH2 0x181 CALLDATASIZE PUSH1 0x4 PUSH2 0x133E JUMP JUMPDEST PUSH2 0x351 JUMP JUMPDEST PUSH1 0x40 DUP1 MLOAD PUSH1 0x1 PUSH1 0x1 PUSH1 0xA0 SHL SUB SWAP1 SWAP8 AND DUP8 MSTORE PUSH1 0x20 DUP8 ADD SWAP6 SWAP1 SWAP6 MSTORE SWAP4 DUP6 ADD SWAP3 SWAP1 SWAP3 MSTORE PUSH1 0x60 DUP5 ADD MSTORE ISZERO ISZERO PUSH1 0x80 DUP4 ADD MSTORE PUSH1 0xA0 DUP3 ADD MSTORE PUSH1 0xC0 ADD PUSH2 0x16A JUMP JUMPDEST PUSH2 0x160 PUSH1 0x7 SLOAD DUP2 JUMP JUMPDEST PUSH2 0x1DB PUSH2 0x1D6 CALLDATASIZE PUSH1 0x4 PUSH2 0x1355 JUMP JUMPDEST PUSH2 0x3A5 JUMP JUMPDEST STOP JUMPDEST PUSH2 0x160 PUSH2 0x1EB CALLDATASIZE PUSH1 0x4 PUSH2 0x1355 JUMP JUMPDEST PUSH2 0x43B JUMP JUMPDEST PUSH2 0x1DB PUSH2 0x1FE CALLDATASIZE PUSH1 0x4 PUSH2 0x1355 JUMP JUMPDEST PUSH2 0x4DD JUMP JUMPDEST PUSH2 0x1DB PUSH2 0x211 CALLDATASIZE PUSH1 0x4 PUSH2 0x133E JUMP JUMPDEST PUSH2 0x703 JUMP JUMPDEST PUSH2 0x1DB PUSH2 0x224 CALLDATASIZE PUSH1 0x4 PUSH2 0x133E JUMP JUMPDEST PUSH2 0x869 JUMP JUMPDEST PUSH2 0x1DB PUSH2 0x237 CALLDATASIZE PUSH1 0x4 PUSH2 0x138C JUMP JUMPDEST PUSH2 0x961 JUMP JUMPDEST PUSH1 0x3 SLOAD PUSH2 0x24F SWAP1 PUSH1 0x1 PUSH1 0x1 PUSH1 0xA0 SHL SUB AND DUP2 JUMP JUMPDEST PUSH1 0x40 MLOAD PUSH2 0x16A SWAP2 SWAP1 PUSH2 0x13CB JUMP JUMPDEST PUSH2 0x160 PUSH1 0x2 SLOAD DUP2 JUMP JUMPDEST PUSH2 0x24F PUSH2 0x273 CALLDATASIZE PUSH1 0x4 PUSH2 0x133E JUMP JUMPDEST PUSH2 0xAE6 JUMP JUMPDEST PUSH2 0x160 PUSH1 0x8 SLOAD DUP2 JUMP JUMPDEST PUSH2 0x160 PUSH1 0xA SLOAD DUP2 JUMP JUMPDEST PUSH2 0x1DB PUSH2 0x298 CALLDATASIZE PUSH1 0x4 PUSH2 0x13EC JUMP JUMPDEST PUSH2 0xAF1 JUMP JUMPDEST PUSH2 0x1DB PUSH2 0xD05 JUMP JUMPDEST PUSH2 0x160 PUSH1 0x9 SLOAD DUP2 JUMP JUMPDEST PUSH2 0x160 PUSH2 0x2BC CALLDATASIZE PUSH1 0x4 PUSH2 0x143A JUMP JUMPDEST PUSH2 0xD27 JUMP JUMPDEST PUSH2 0x160 PUSH2 0xE8D JUMP JUMPDEST PUSH2 0x2FA PUSH2 0x2D7 CALLDATASIZE PUSH1 0x4 PUSH2 0x143A JUMP JUMPDEST PUSH1 0x6 PUSH1 0x20 SWAP1 DUP2 MSTORE PUSH0 SWAP3 DUP4 MSTORE PUSH1 0x40 DUP1 DUP5 KECCAK256 SWAP1 SWAP2 MSTORE SWAP1 DUP3 MSTORE SWAP1 KECCAK256 DUP1 SLOAD PUSH1 0x1 SWAP1 SWAP2 ADD SLOAD DUP3 JUMP JUMPDEST PUSH1 0x40 DUP1 MLOAD SWAP3 DUP4 MSTORE PUSH1 0x20 DUP4 ADD SWAP2 SWAP1 SWAP2 MSTORE ADD PUSH2 0x16A JUMP JUMPDEST PUSH2 0x160 PUSH1 0xB SLOAD DUP2 JUMP JUMPDEST PUSH2 0x1DB PUSH2 0x326 CALLDATASIZE PUSH1 0x4 PUSH2 0x1468 JUMP JUMPDEST PUSH2 0xE9C JUMP JUMPDEST PUSH2 0x1DB PUSH2 0x339 CALLDATASIZE PUSH1 0x4 PUSH2 0x1355 JUMP JUMPDEST PUSH2 0xEE8 JUMP JUMPDEST PUSH1 0x4 SLOAD PUSH2 0x24F SWAP1 PUSH1 0x1 PUSH1 0x1 PUSH1 0xA0 SHL SUB AND DUP2 JUMP JUMPDEST PUSH1 0x5 DUP2 DUP2 SLOAD DUP2 LT PUSH2 0x360 JUMPI PUSH0 DUP1 REVERT JUMPDEST PUSH0 SWAP2 DUP3 MSTORE PUSH1 0x20 SWAP1 SWAP2 KECCAK256 PUSH1 0x6 SWAP1 SWAP2 MUL ADD DUP1 SLOAD PUSH1 0x1 DUP3 ADD SLOAD PUSH1 0x2 DUP4 ADD SLOAD PUSH1 0x3 DUP5 ADD SLOAD PUSH1 0x4 DUP6 ADD SLOAD PUSH1 0x5 SWAP1 SWAP6 ADD SLOAD PUSH1 0x1 PUSH1 0x1 PUSH1 0xA0 SHL SUB SWAP1 SWAP5 AND SWAP6 POP SWAP2 SWAP4 SWAP1 SWAP3 PUSH1 0xFF SWAP1 SWAP2 AND SWAP1 DUP7 JUMP JUMPDEST PUSH1 0x3 SLOAD PUSH1 0x1 PUSH1 0x1 PUSH1 0xA0 SHL SUB AND CALLER EQ PUSH2 0x3D8 JUMPI PUSH1 0x40 MLOAD PUSH3 0x461BCD PUSH1 0xE5 SHL DUP2 MSTORE PUSH1 0x4 ADD PUSH2 0x3CF SWAP1 PUSH2 0x1483 JUMP JUMPDEST PUSH1 0x40 MLOAD DUP1 SWAP2 SUB SWAP1 REVERT JUMPDEST PUSH2 0x3E0 PUSH2 0xD05 JUMP JUMPDEST PUSH0 PUSH1 0x5 DUP4 DUP2 SLOAD DUP2 LT PUSH2 0x3F4 JUMPI PUSH2 0x3F4 PUSH2 0x14CE JUMP JUMPDEST PUSH0 SWAP2 DUP3 MSTORE PUSH1 0x20 SWAP1 SWAP2 KECCAK256 PUSH1 0x6 SWAP1 SWAP2 MUL ADD PUSH1 0x4 DUP2 ADD SLOAD SWAP1 SWAP2 POP PUSH1 0xFF AND ISZERO PUSH2 0x434 JUMPI DUP2 DUP2 PUSH1 0x1 ADD SLOAD PUSH1 0x7 SLOAD PUSH2 0x426 SWAP2 SWAP1 PUSH2 0x14F6 JUMP JUMPDEST PUSH2 0x430 SWAP2 SWAP1 PUSH2 0x1509 JUMP JUMPDEST PUSH1 0x7 SSTORE JUMPDEST PUSH1 0x1 ADD SSTORE POP JUMP JUMPDEST PUSH0 DUP2 DUP4 LT PUSH2 0x44A JUMPI POP PUSH0 PUSH2 0x4D7 JUMP JUMPDEST PUSH1 0x9 SLOAD DUP3 LT PUSH2 0x4A1 JUMPI PUSH1 0x9 SLOAD DUP4 LT PUSH2 0x463 JUMPI POP PUSH0 PUSH2 0x4D7 JUMP JUMPDEST PUSH1 0x8 SLOAD DUP4 GT PUSH2 0x490 JUMPI PUSH1 0xA SLOAD PUSH1 0x8 SLOAD PUSH1 0x9 SLOAD PUSH2 0x47F SWAP2 SWAP1 PUSH2 0x14F6 JUMP JUMPDEST PUSH2 0x489 SWAP2 SWAP1 PUSH2 0x151C JUMP JUMPDEST SWAP1 POP PUSH2 0x4D7 JUMP JUMPDEST PUSH1 0xA SLOAD DUP4 PUSH1 0x9 SLOAD PUSH2 0x47F SWAP2 SWAP1 PUSH2 0x14F6 JUMP JUMPDEST PUSH1 0x8 SLOAD DUP3 GT PUSH2 0x4B1 JUMPI POP PUSH0 PUSH2 0x4D7 JUMP JUMPDEST PUSH1 0x8 SLOAD DUP4 GT PUSH2 0x4CA JUMPI PUSH1 0xA SLOAD PUSH1 0x8 SLOAD PUSH2 0x47F SWAP1 DUP5 PUSH2 0x14F6 JUMP JUMPDEST PUSH1 0xA SLOAD PUSH2 0x47F DUP5 DUP5 PUSH2 0x14F6 JUMP JUMPDEST SWAP3 SWAP2 POP POP JUMP JUMPDEST PUSH0 CALLER SWAP1 POP PUSH0 PUSH1 0x5 DUP5 DUP2 SLOAD DUP2 LT PUSH2 0x4F5 JUMPI PUSH2 0x4F5 PUSH2 0x14CE JUMP JUMPDEST PUSH0 SWAP2 DUP3 MSTORE PUSH1 0x20 DUP1 DUP4 KECCAK256 DUP8 DUP5 MSTORE PUSH1 0x6 DUP1 DUP4 MSTORE PUSH1 0x40 DUP1 DUP7 KECCAK256 PUSH1 0x1 PUSH1 0x1 PUSH1 0xA0 SHL SUB DUP10 AND DUP8 MSTORE SWAP1 SWAP4 MSTORE SWAP2 SWAP1 SWAP4 KECCAK256 DUP1 SLOAD SWAP3 SWAP1 SWAP2 MUL SWAP1 SWAP3 ADD SWAP3 POP DUP5 GT ISZERO PUSH2 0x56D JUMPI PUSH1 0x40 MLOAD PUSH3 0x461BCD PUSH1 0xE5 SHL DUP2 MSTORE PUSH1 0x20 PUSH1 0x4 DUP3 ADD MSTORE PUSH1 0x12 PUSH1 0x24 DUP3 ADD MSTORE PUSH18 0x1DDA5D1A191C985DCE881B9BDD0819DBDBD9 PUSH1 0x72 SHL PUSH1 0x44 DUP3 ADD MSTORE PUSH1 0x64 ADD PUSH2 0x3CF JUMP JUMPDEST PUSH2 0x576 DUP6 PUSH2 0x703 JUMP JUMPDEST PUSH0 DUP2 PUSH1 0x1 ADD SLOAD PUSH8 0xDE0B6B3A7640000 DUP5 PUSH1 0x3 ADD SLOAD DUP5 PUSH0 ADD SLOAD PUSH2 0x598 SWAP2 SWAP1 PUSH2 0x151C JUMP JUMPDEST PUSH2 0x5A2 SWAP2 SWAP1 PUSH2 0x1533 JUMP JUMPDEST PUSH2 0x5AC SWAP2 SWAP1 PUSH2 0x14F6 JUMP JUMPDEST SWAP1 POP DUP1 ISZERO PUSH2 0x602 JUMPI PUSH2 0x5BE DUP5 DUP3 PUSH2 0x115D JUMP JUMPDEST DUP4 PUSH1 0x1 PUSH1 0x1 PUSH1 0xA0 SHL SUB AND PUSH32 0xE2403640BA68FED3A2F88B7557551D1993F84B99BB10FF833F0CF8DB0C5E0486 DUP3 PUSH1 0x40 MLOAD PUSH2 0x5F9 SWAP2 DUP2 MSTORE PUSH1 0x20 ADD SWAP1 JUMP JUMPDEST PUSH1 0x40 MLOAD DUP1 SWAP2 SUB SWAP1 LOG2 JUMPDEST DUP5 ISZERO PUSH2 0x692 JUMPI DUP5 DUP3 PUSH0 ADD PUSH0 DUP3 DUP3 SLOAD PUSH2 0x61A SWAP2 SWAP1 PUSH2 0x14F6 JUMP JUMPDEST SWAP1 SWAP2 SSTORE POP POP DUP3 SLOAD PUSH1 0x40 MLOAD PUSH4 0xA9059CBB PUSH1 0xE0 SHL DUP2 MSTORE PUSH1 0x1 PUSH1 0x1 PUSH1 0xA0 SHL SUB SWAP1 SWAP2 AND SWAP1 PUSH4 0xA9059CBB SWAP1 PUSH2 0x650 SWAP1 DUP8 SWAP1 DUP10 SWAP1 PUSH1 0x4 ADD PUSH2 0x1552 JUMP JUMPDEST PUSH1 0x20 PUSH1 0x40 MLOAD DUP1 DUP4 SUB DUP2 PUSH0 DUP8 GAS CALL ISZERO DUP1 ISZERO PUSH2 0x66C JUMPI RETURNDATASIZE PUSH0 PUSH0 RETURNDATACOPY RETURNDATASIZE PUSH0 REVERT JUMPDEST POP POP POP POP PUSH1 0x40 MLOAD RETURNDATASIZE PUSH1 0x1F NOT PUSH1 0x1F DUP3 ADD AND DUP3 ADD DUP1 PUSH1 0x40 MSTORE POP DUP2 ADD SWAP1 PUSH2 0x690 SWAP2 SWAP1 PUSH2 0x156B JUMP JUMPDEST POP JUMPDEST PUSH1 0x3 DUP4 ADD SLOAD DUP3 SLOAD PUSH8 0xDE0B6B3A7640000 SWAP2 PUSH2 0x6AC SWAP2 PUSH2 0x151C JUMP JUMPDEST PUSH2 0x6B6 SWAP2 SWAP1 PUSH2 0x1533 JUMP JUMPDEST PUSH1 0x1 DUP4 ADD SSTORE PUSH1 0x40 MLOAD DUP6 DUP2 MSTORE DUP7 SWAP1 PUSH1 0x1 PUSH1 0x1 PUSH1 0xA0 SHL SUB DUP7 AND SWAP1 PUSH32 0xF279E6A1F5E320CCA91135676D9CB6E44CA8A08C0B88342BCDB1144F6511B568 SWAP1 PUSH1 0x20 ADD PUSH1 0x40 MLOAD DUP1 SWAP2 SUB SWAP1 LOG3 POP POP POP POP POP POP JUMP JUMPDEST PUSH0 PUSH1 0x5 DUP3 DUP2 SLOAD DUP2 LT PUSH2 0x717 JUMPI PUSH2 0x717 PUSH2 0x14CE JUMP JUMPDEST SWAP1 PUSH0 MSTORE PUSH1 0x20 PUSH0 KECCAK256 SWAP1 PUSH1 0x6 MUL ADD SWAP1 POP DUP1 PUSH1 0x2 ADD SLOAD TIMESTAMP GT PUSH2 0x734 JUMPI POP POP JUMP JUMPDEST DUP1 SLOAD PUSH1 0x40 MLOAD PUSH4 0x70A08231 PUSH1 0xE0 SHL DUP2 MSTORE PUSH0 SWAP2 PUSH1 0x1 PUSH1 0x1 PUSH1 0xA0 SHL SUB AND SWAP1 PUSH4 0x70A08231 SWAP1 PUSH2 0x763 SWAP1 ADDRESS SWAP1 PUSH1 0x4 ADD PUSH2 0x13CB JUMP JUMPDEST PUSH1 0x20 PUSH1 0x40 MLOAD DUP1 DUP4 SUB DUP2 DUP7 GAS STATICCALL ISZERO DUP1 ISZERO PUSH2 0x77E JUMPI RETURNDATASIZE PUSH0 PUSH0 RETURNDATACOPY RETURNDATASIZE PUSH0 REVERT JUMPDEST POP POP POP POP PUSH1 0x40 MLOAD RETURNDATASIZE PUSH1 0x1F NOT PUSH1 0x1F DUP3 ADD AND DUP3 ADD DUP1 PUSH1 0x40 MSTORE POP DUP2 ADD SWAP1 PUSH2 0x7A2 SWAP2 SWAP1 PUSH2 0x1586 JUMP JUMPDEST SWAP1 POP DUP1 PUSH0 SUB PUSH2 0x7B6 JUMPI POP TIMESTAMP PUSH1 0x2 SWAP1 SWAP2 ADD SSTORE POP JUMP JUMPDEST PUSH1 0x4 DUP3 ADD SLOAD PUSH1 0xFF AND PUSH2 0x7EE JUMPI PUSH1 0x4 DUP3 ADD DUP1 SLOAD PUSH1 0xFF NOT AND PUSH1 0x1 SWAP1 DUP2 OR SWAP1 SWAP2 SSTORE DUP3 ADD SLOAD PUSH1 0x7 DUP1 SLOAD PUSH0 SWAP1 PUSH2 0x7E8 SWAP1 DUP5 SWAP1 PUSH2 0x1509 JUMP JUMPDEST SWAP1 SWAP2 SSTORE POP POP JUMPDEST PUSH1 0x7 SLOAD ISZERO PUSH2 0x85E JUMPI PUSH0 PUSH2 0x805 DUP4 PUSH1 0x2 ADD SLOAD TIMESTAMP PUSH2 0x43B JUMP JUMPDEST SWAP1 POP PUSH0 PUSH1 0x7 SLOAD DUP5 PUSH1 0x1 ADD SLOAD DUP4 PUSH2 0x81B SWAP2 SWAP1 PUSH2 0x151C JUMP JUMPDEST PUSH2 0x825 SWAP2 SWAP1 PUSH2 0x1533 JUMP JUMPDEST SWAP1 POP DUP3 PUSH2 0x83A DUP3 PUSH8 0xDE0B6B3A7640000 PUSH2 0x151C JUMP JUMPDEST PUSH2 0x844 SWAP2 SWAP1 PUSH2 0x1533 JUMP JUMPDEST DUP5 PUSH1 0x3 ADD PUSH0 DUP3 DUP3 SLOAD PUSH2 0x856 SWAP2 SWAP1 PUSH2 0x1509 JUMP JUMPDEST SWAP1 SWAP2 SSTORE POP POP POP POP JUMPDEST POP TIMESTAMP PUSH1 0x2 SWAP1 SWAP2 ADD SSTORE POP JUMP JUMPDEST PUSH0 PUSH1 0x5 DUP3 DUP2 SLOAD DUP2 LT PUSH2 0x87D JUMPI PUSH2 0x87D PUSH2 0x14CE JUMP JUMPDEST PUSH0 SWAP2 DUP3 MSTORE PUSH1 0x20 DUP1 DUP4 KECCAK256 DUP6 DUP5 MSTORE PUSH1 0x6 DUP1 DUP4 MSTORE PUSH1 0x40 DUP1 DUP7 KECCAK256 CALLER DUP1 DUP9 MSTORE SWAP5 MSTORE DUP1 DUP7 KECCAK256 DUP1 SLOAD DUP8 DUP3 SSTORE PUSH1 0x1 DUP3 ADD SWAP8 SWAP1 SWAP8 SSTORE SWAP2 SWAP1 SWAP5 MUL SWAP1 SWAP2 ADD DUP1 SLOAD SWAP4 MLOAD PUSH4 0xA9059CBB PUSH1 0xE0 SHL DUP2 MSTORE SWAP1 SWAP6 POP SWAP1 SWAP4 SWAP3 PUSH1 0x1 PUSH1 0x1 PUSH1 0xA0 SHL SUB AND SWAP2 PUSH4 0xA9059CBB SWAP2 PUSH2 0x8E3 SWAP2 SWAP1 DUP6 SWAP1 PUSH1 0x4 ADD PUSH2 0x1552 JUMP JUMPDEST PUSH1 0x20 PUSH1 0x40 MLOAD DUP1 DUP4 SUB DUP2 PUSH0 DUP8 GAS CALL ISZERO DUP1 ISZERO PUSH2 0x8FF JUMPI RETURNDATASIZE PUSH0 PUSH0 RETURNDATACOPY RETURNDATASIZE PUSH0 REVERT JUMPDEST POP POP POP POP PUSH1 0x40 MLOAD RETURNDATASIZE PUSH1 0x1F NOT PUSH1 0x1F DUP3 ADD AND DUP3 ADD DUP1 PUSH1 0x40 MSTORE POP DUP2 ADD SWAP1 PUSH2 0x923 SWAP2 SWAP1 PUSH2 0x156B JUMP JUMPDEST POP PUSH1 0x40 MLOAD DUP2 DUP2 MSTORE DUP5 SWAP1 CALLER SWAP1 PUSH32 0xBB757047C2B5F3974FE26B7C10F732E7BCE710B0952A71082702781E62AE0595 SWAP1 PUSH1 0x20 ADD PUSH1 0x40 MLOAD DUP1 SWAP2 SUB SWAP1 LOG3 POP POP POP POP JUMP JUMPDEST PUSH1 0x3 SLOAD PUSH1 0x1 PUSH1 0x1 PUSH1 0xA0 SHL SUB AND CALLER EQ PUSH2 0x98B JUMPI PUSH1 0x40 MLOAD PUSH3 0x461BCD PUSH1 0xE5 SHL DUP2 MSTORE PUSH1 0x4 ADD PUSH2 0x3CF SWAP1 PUSH2 0x1483 JUMP JUMPDEST PUSH1 0x9 SLOAD PUSH2 0x99B SWAP1 PUSH3 0x278D00 PUSH2 0x1509 JUMP JUMPDEST TIMESTAMP LT ISZERO PUSH2 0xA72 JUMPI PUSH1 0x4 SLOAD PUSH1 0x1 PUSH1 0x1 PUSH1 0xA0 SHL SUB SWAP1 DUP2 AND SWAP1 DUP5 AND SUB PUSH2 0x9E9 JUMPI PUSH1 0x40 MLOAD PUSH3 0x461BCD PUSH1 0xE5 SHL DUP2 MSTORE PUSH1 0x4 ADD PUSH2 0x3CF SWAP1 PUSH1 0x20 DUP1 DUP3 MSTORE PUSH1 0x4 SWAP1 DUP3 ADD MSTORE PUSH4 0x161D5CD9 PUSH1 0xE2 SHL PUSH1 0x40 DUP3 ADD MSTORE PUSH1 0x60 ADD SWAP1 JUMP JUMPDEST PUSH1 0x5 SLOAD PUSH0 JUMPDEST DUP2 DUP2 LT ISZERO PUSH2 0xA6F JUMPI PUSH0 PUSH1 0x5 DUP3 DUP2 SLOAD DUP2 LT PUSH2 0xA0A JUMPI PUSH2 0xA0A PUSH2 0x14CE JUMP JUMPDEST PUSH0 SWAP2 DUP3 MSTORE PUSH1 0x20 SWAP1 SWAP2 KECCAK256 PUSH1 0x6 SWAP1 SWAP2 MUL ADD DUP1 SLOAD SWAP1 SWAP2 POP PUSH1 0x1 PUSH1 0x1 PUSH1 0xA0 SHL SUB SWAP1 DUP2 AND SWAP1 DUP8 AND SUB PUSH2 0xA66 JUMPI PUSH1 0x40 MLOAD PUSH3 0x461BCD PUSH1 0xE5 SHL DUP2 MSTORE PUSH1 0x20 PUSH1 0x4 DUP3 ADD MSTORE PUSH1 0xA PUSH1 0x24 DUP3 ADD MSTORE PUSH10 0x3837B7B6173A37B5B2B7 PUSH1 0xB1 SHL PUSH1 0x44 DUP3 ADD MSTORE PUSH1 0x64 ADD PUSH2 0x3CF JUMP JUMPDEST POP PUSH1 0x1 ADD PUSH2 0x9EE JUMP JUMPDEST POP POP JUMPDEST PUSH1 0x40 MLOAD PUSH4 0xA9059CBB PUSH1 0xE0 SHL DUP2 MSTORE PUSH1 0x1 PUSH1 0x1 PUSH1 0xA0 SHL SUB DUP5 AND SWAP1 PUSH4 0xA9059CBB SWAP1 PUSH2 0xAA0 SWAP1 DUP5 SWAP1 DUP7 SWAP1 PUSH1 0x4 ADD PUSH2 0x1552 JUMP JUMPDEST PUSH1 0x20 PUSH1 0x40 MLOAD DUP1 DUP4 SUB DUP2 PUSH0 DUP8 GAS CALL ISZERO DUP1 ISZERO PUSH2 0xABC JUMPI RETURNDATASIZE PUSH0 PUSH0 RETURNDATACOPY RETURNDATASIZE PUSH0 REVERT JUMPDEST POP POP POP POP PUSH1 0x40 MLOAD RETURNDATASIZE PUSH1 0x1F NOT PUSH1 0x1F DUP3 ADD AND DUP3 ADD DUP1 PUSH1 0x40 MSTORE POP DUP2 ADD SWAP1 PUSH2 0xAE0 SWAP2 SWAP1 PUSH2 0x156B JUMP JUMPDEST POP POP POP POP JUMP JUMPDEST PUSH0 PUSH2 0x4D7 DUP2 DUP4 PUSH2 0x1244 JUMP JUMPDEST PUSH1 0x3 SLOAD PUSH1 0x1 PUSH1 0x1 PUSH1 0xA0 SHL SUB AND CALLER EQ PUSH2 0xB1B JUMPI PUSH1 0x40 MLOAD PUSH3 0x461BCD PUSH1 0xE5 SHL DUP2 MSTORE PUSH1 0x4 ADD PUSH2 0x3CF SWAP1 PUSH2 0x1483 JUMP JUMPDEST PUSH2 0xB24 DUP5 PUSH2 0x1256 JUMP JUMPDEST DUP3 ISZERO PUSH2 0xB32 JUMPI PUSH2 0xB32 PUSH2 0xD05 JUMP JUMPDEST PUSH1 0x8 SLOAD TIMESTAMP LT ISZERO PUSH2 0xB62 JUMPI DUP2 PUSH0 SUB PUSH2 0xB4D JUMPI PUSH1 0x8 SLOAD SWAP2 POP PUSH2 0xB77 JUMP JUMPDEST PUSH1 0x8 SLOAD DUP3 LT ISZERO PUSH2 0xB5D JUMPI PUSH1 0x8 SLOAD SWAP2 POP JUMPDEST PUSH2 0xB77 JUMP JUMPDEST DUP2 ISZERO DUP1 PUSH2 0xB6E JUMPI POP TIMESTAMP DUP3 LT JUMPDEST ISZERO PUSH2 0xB77 JUMPI TIMESTAMP SWAP2 POP JUMPDEST PUSH0 PUSH1 0x8 SLOAD DUP4 GT ISZERO DUP1 PUSH2 0xB89 JUMPI POP TIMESTAMP DUP4 GT ISZERO JUMPDEST PUSH1 0x40 DUP1 MLOAD PUSH1 0xC0 DUP2 ADD DUP3 MSTORE PUSH1 0x1 PUSH1 0x1 PUSH1 0xA0 SHL SUB DUP9 DUP2 AND DUP3 MSTORE PUSH1 0x20 DUP3 ADD DUP11 DUP2 MSTORE SWAP3 DUP3 ADD DUP8 DUP2 MSTORE PUSH0 PUSH1 0x60 DUP5 ADD DUP2 DUP2 MSTORE DUP7 ISZERO DUP1 ISZERO PUSH1 0x80 DUP8 ADD SWAP1 DUP2 MSTORE PUSH1 0xA0 DUP8 ADD DUP12 DUP2 MSTORE PUSH1 0x5 DUP1 SLOAD PUSH1 0x1 DUP2 ADD DUP3 SSTORE SWAP6 MSTORE SWAP7 MLOAD PUSH32 0x36B6384B5ECA791C62761152D0C79BB0604C104A5FB6F4EB0703F3154BB3DB0 PUSH1 0x6 SWAP1 SWAP6 MUL SWAP5 DUP6 ADD DUP1 SLOAD PUSH1 0x1 PUSH1 0x1 PUSH1 0xA0 SHL SUB NOT AND SWAP2 SWAP1 SWAP8 AND OR SWAP1 SWAP6 SSTORE SWAP6 MLOAD PUSH32 0x36B6384B5ECA791C62761152D0C79BB0604C104A5FB6F4EB0703F3154BB3DB1 DUP4 ADD SSTORE SWAP2 MLOAD PUSH32 0x36B6384B5ECA791C62761152D0C79BB0604C104A5FB6F4EB0703F3154BB3DB2 DUP3 ADD SSTORE SWAP1 MLOAD PUSH32 0x36B6384B5ECA791C62761152D0C79BB0604C104A5FB6F4EB0703F3154BB3DB3 DUP3 ADD SSTORE SWAP1 MLOAD PUSH32 0x36B6384B5ECA791C62761152D0C79BB0604C104A5FB6F4EB0703F3154BB3DB4 DUP3 ADD DUP1 SLOAD PUSH1 0xFF NOT AND SWAP2 ISZERO ISZERO SWAP2 SWAP1 SWAP2 OR SWAP1 SSTORE SWAP1 MLOAD PUSH32 0x36B6384B5ECA791C62761152D0C79BB0604C104A5FB6F4EB0703F3154BB3DB5 SWAP1 SWAP2 ADD SSTORE SWAP1 SWAP2 POP PUSH2 0xCFD JUMPI DUP6 PUSH1 0x7 PUSH0 DUP3 DUP3 SLOAD PUSH2 0xCF7 SWAP2 SWAP1 PUSH2 0x1509 JUMP JUMPDEST SWAP1 SWAP2 SSTORE POP POP JUMPDEST POP POP POP POP POP POP JUMP JUMPDEST PUSH1 0x5 SLOAD PUSH0 JUMPDEST DUP2 DUP2 LT ISZERO PUSH2 0xD23 JUMPI PUSH2 0xD1B DUP2 PUSH2 0x703 JUMP JUMPDEST PUSH1 0x1 ADD PUSH2 0xD0A JUMP JUMPDEST POP POP JUMP JUMPDEST PUSH0 PUSH0 PUSH1 0x5 DUP5 DUP2 SLOAD DUP2 LT PUSH2 0xD3C JUMPI PUSH2 0xD3C PUSH2 0x14CE JUMP JUMPDEST PUSH0 SWAP2 DUP3 MSTORE PUSH1 0x20 DUP1 DUP4 KECCAK256 DUP8 DUP5 MSTORE PUSH1 0x6 DUP1 DUP4 MSTORE PUSH1 0x40 DUP1 DUP7 KECCAK256 PUSH1 0x1 PUSH1 0x1 PUSH1 0xA0 SHL SUB DUP11 DUP2 AND DUP9 MSTORE SWAP5 MSTORE DUP1 DUP7 KECCAK256 SWAP5 SWAP1 SWAP2 MUL SWAP1 SWAP2 ADD PUSH1 0x3 DUP2 ADD SLOAD DUP2 SLOAD SWAP3 MLOAD PUSH4 0x70A08231 PUSH1 0xE0 SHL DUP2 MSTORE SWAP2 SWAP7 POP SWAP4 SWAP5 SWAP3 SWAP2 SWAP1 SWAP2 AND SWAP1 PUSH4 0x70A08231 SWAP1 PUSH2 0xD9D SWAP1 ADDRESS SWAP1 PUSH1 0x4 ADD PUSH2 0x13CB JUMP JUMPDEST PUSH1 0x20 PUSH1 0x40 MLOAD DUP1 DUP4 SUB DUP2 DUP7 GAS STATICCALL ISZERO DUP1 ISZERO PUSH2 0xDB8 JUMPI RETURNDATASIZE PUSH0 PUSH0 RETURNDATACOPY RETURNDATASIZE PUSH0 REVERT JUMPDEST POP POP POP POP PUSH1 0x40 MLOAD RETURNDATASIZE PUSH1 0x1F NOT PUSH1 0x1F DUP3 ADD AND DUP3 ADD DUP1 PUSH1 0x40 MSTORE POP DUP2 ADD SWAP1 PUSH2 0xDDC SWAP2 SWAP1 PUSH2 0x1586 JUMP JUMPDEST SWAP1 POP DUP4 PUSH1 0x2 ADD SLOAD TIMESTAMP GT DUP1 ISZERO PUSH2 0xDF0 JUMPI POP DUP1 ISZERO ISZERO JUMPDEST ISZERO PUSH2 0xE52 JUMPI PUSH0 PUSH2 0xE04 DUP6 PUSH1 0x2 ADD SLOAD TIMESTAMP PUSH2 0x43B JUMP JUMPDEST SWAP1 POP PUSH0 PUSH1 0x7 SLOAD DUP7 PUSH1 0x1 ADD SLOAD DUP4 PUSH2 0xE1A SWAP2 SWAP1 PUSH2 0x151C JUMP JUMPDEST PUSH2 0xE24 SWAP2 SWAP1 PUSH2 0x1533 JUMP JUMPDEST SWAP1 POP DUP3 PUSH2 0xE39 DUP3 PUSH8 0xDE0B6B3A7640000 PUSH2 0x151C JUMP JUMPDEST PUSH2 0xE43 SWAP2 SWAP1 PUSH2 0x1533 JUMP JUMPDEST PUSH2 0xE4D SWAP1 DUP6 PUSH2 0x1509 JUMP JUMPDEST SWAP4 POP POP POP JUMPDEST PUSH1 0x1 DUP4 ADD SLOAD DUP4 SLOAD PUSH8 0xDE0B6B3A7640000 SWAP1 PUSH2 0xE6E SWAP1 DUP6 SWAP1 PUSH2 0x151C JUMP JUMPDEST PUSH2 0xE78 SWAP2 SWAP1 PUSH2 0x1533 JUMP JUMPDEST PUSH2 0xE82 SWAP2 SWAP1 PUSH2 0x14F6 JUMP JUMPDEST SWAP8 SWAP7 POP POP POP POP POP POP POP JUMP JUMPDEST PUSH0 PUSH2 0xE97 PUSH0 PUSH2 0x12EE JUMP JUMPDEST SWAP1 POP SWAP1 JUMP JUMPDEST PUSH1 0x3 SLOAD PUSH1 0x1 PUSH1 0x1 PUSH1 0xA0 SHL SUB AND CALLER EQ PUSH2 0xEC6 JUMPI PUSH1 0x40 MLOAD PUSH3 0x461BCD PUSH1 0xE5 SHL DUP2 MSTORE PUSH1 0x4 ADD PUSH2 0x3CF SWAP1 PUSH2 0x1483 JUMP JUMPDEST PUSH1 0x3 DUP1 SLOAD PUSH1 0x1 PUSH1 0x1 PUSH1 0xA0 SHL SUB NOT AND PUSH1 0x1 PUSH1 0x1 PUSH1 0xA0 SHL SUB SWAP3 SWAP1 SWAP3 AND SWAP2 SWAP1 SWAP2 OR SWAP1 SSTORE JUMP JUMPDEST PUSH0 CALLER SWAP1 POP PUSH0 PUSH1 0x5 DUP5 DUP2 SLOAD DUP2 LT PUSH2 0xF00 JUMPI PUSH2 0xF00 PUSH2 0x14CE JUMP JUMPDEST PUSH0 SWAP2 DUP3 MSTORE PUSH1 0x20 DUP1 DUP4 KECCAK256 DUP8 DUP5 MSTORE PUSH1 0x6 DUP1 DUP4 MSTORE PUSH1 0x40 DUP1 DUP7 KECCAK256 PUSH1 0x1 PUSH1 0x1 PUSH1 0xA0 SHL SUB DUP10 AND DUP8 MSTORE SWAP1 SWAP4 MSTORE SWAP2 SWAP1 SWAP4 KECCAK256 SWAP2 MUL SWAP1 SWAP2 ADD SWAP2 POP PUSH2 0xF39 DUP6 PUSH2 0x703 JUMP JUMPDEST DUP1 SLOAD ISZERO PUSH2 0xFCE JUMPI PUSH0 DUP2 PUSH1 0x1 ADD SLOAD PUSH8 0xDE0B6B3A7640000 DUP5 PUSH1 0x3 ADD SLOAD DUP5 PUSH0 ADD SLOAD PUSH2 0xF62 SWAP2 SWAP1 PUSH2 0x151C JUMP JUMPDEST PUSH2 0xF6C SWAP2 SWAP1 PUSH2 0x1533 JUMP JUMPDEST PUSH2 0xF76 SWAP2 SWAP1 PUSH2 0x14F6 JUMP JUMPDEST SWAP1 POP DUP1 ISZERO PUSH2 0xFCC JUMPI PUSH2 0xF88 DUP5 DUP3 PUSH2 0x115D JUMP JUMPDEST DUP4 PUSH1 0x1 PUSH1 0x1 PUSH1 0xA0 SHL SUB AND PUSH32 0xE2403640BA68FED3A2F88B7557551D1993F84B99BB10FF833F0CF8DB0C5E0486 DUP3 PUSH1 0x40 MLOAD PUSH2 0xFC3 SWAP2 DUP2 MSTORE PUSH1 0x20 ADD SWAP1 JUMP JUMPDEST PUSH1 0x40 MLOAD DUP1 SWAP2 SUB SWAP1 LOG2 JUMPDEST POP JUMPDEST DUP1 SLOAD PUSH1 0x5 DUP4 ADD SLOAD PUSH0 SWAP2 PUSH2 0xFE0 SWAP2 PUSH2 0x14F6 JUMP JUMPDEST SWAP1 POP PUSH0 DUP2 DUP7 GT PUSH2 0xFF0 JUMPI DUP6 PUSH2 0xFF2 JUMP JUMPDEST DUP2 JUMPDEST SWAP1 POP DUP1 ISZERO PUSH2 0x10EB JUMPI DUP4 SLOAD PUSH1 0x40 MLOAD PUSH4 0x23B872DD PUSH1 0xE0 SHL DUP2 MSTORE PUSH1 0x1 PUSH1 0x1 PUSH1 0xA0 SHL SUB DUP8 DUP2 AND PUSH1 0x4 DUP4 ADD MSTORE ADDRESS PUSH1 0x24 DUP4 ADD MSTORE PUSH1 0x44 DUP3 ADD DUP5 SWAP1 MSTORE SWAP1 SWAP2 AND SWAP1 PUSH4 0x23B872DD SWAP1 PUSH1 0x64 ADD PUSH1 0x20 PUSH1 0x40 MLOAD DUP1 DUP4 SUB DUP2 PUSH0 DUP8 GAS CALL ISZERO DUP1 ISZERO PUSH2 0x104F JUMPI RETURNDATASIZE PUSH0 PUSH0 RETURNDATACOPY RETURNDATASIZE PUSH0 REVERT JUMPDEST POP POP POP POP PUSH1 0x40 MLOAD RETURNDATASIZE PUSH1 0x1F NOT PUSH1 0x1F DUP3 ADD AND DUP3 ADD DUP1 PUSH1 0x40 MSTORE POP DUP2 ADD SWAP1 PUSH2 0x1073 SWAP2 SWAP1 PUSH2 0x156B JUMP JUMPDEST POP DUP4 SLOAD PUSH2 0x108A SWAP1 PUSH0 SWAP1 PUSH1 0x1 PUSH1 0x1 PUSH1 0xA0 SHL SUB AND PUSH2 0x12F7 JUMP JUMPDEST ISZERO PUSH2 0x10D3 JUMPI PUSH1 0x2 SLOAD PUSH2 0x2710 SWAP1 DUP2 SWAP1 PUSH2 0x10A2 SWAP1 DUP3 PUSH2 0x14F6 JUMP JUMPDEST PUSH2 0x10AC SWAP1 DUP5 PUSH2 0x151C JUMP JUMPDEST PUSH2 0x10B6 SWAP2 SWAP1 PUSH2 0x1533 JUMP JUMPDEST DUP5 PUSH0 ADD PUSH0 DUP3 DUP3 SLOAD PUSH2 0x10C7 SWAP2 SWAP1 PUSH2 0x1509 JUMP JUMPDEST SWAP1 SWAP2 SSTORE POP PUSH2 0x10EB SWAP2 POP POP JUMP JUMPDEST DUP1 DUP4 PUSH0 ADD PUSH0 DUP3 DUP3 SLOAD PUSH2 0x10E5 SWAP2 SWAP1 PUSH2 0x1509 JUMP JUMPDEST SWAP1 SWAP2 SSTORE POP POP JUMPDEST PUSH1 0x3 DUP5 ADD SLOAD DUP4 SLOAD PUSH8 0xDE0B6B3A7640000 SWAP2 PUSH2 0x1105 SWAP2 PUSH2 0x151C JUMP JUMPDEST PUSH2 0x110F SWAP2 SWAP1 PUSH2 0x1533 JUMP JUMPDEST PUSH1 0x1 DUP5 ADD SSTORE PUSH1 0x40 MLOAD DUP2 DUP2 MSTORE DUP8 SWAP1 PUSH1 0x1 PUSH1 0x1 PUSH1 0xA0 SHL SUB DUP8 AND SWAP1 PUSH32 0x90890809C654F11D6E72A28FA60149770A0D11EC6C92319D6CEB2BB0A4EA1A15 SWAP1 PUSH1 0x20 ADD PUSH1 0x40 MLOAD DUP1 SWAP2 SUB SWAP1 LOG3 POP POP POP POP POP POP POP JUMP JUMPDEST PUSH1 0x4 DUP1 SLOAD PUSH1 0x40 MLOAD PUSH4 0x70A08231 PUSH1 0xE0 SHL DUP2 MSTORE PUSH0 SWAP3 PUSH1 0x1 PUSH1 0x1 PUSH1 0xA0 SHL SUB SWAP1 SWAP3 AND SWAP2 PUSH4 0x70A08231 SWAP2 PUSH2 0x118E SWAP2 ADDRESS SWAP2 ADD PUSH2 0x13CB JUMP JUMPDEST PUSH1 0x20 PUSH1 0x40 MLOAD DUP1 DUP4 SUB DUP2 DUP7 GAS STATICCALL ISZERO DUP1 ISZERO PUSH2 0x11A9 JUMPI RETURNDATASIZE PUSH0 PUSH0 RETURNDATACOPY RETURNDATASIZE PUSH0 REVERT JUMPDEST POP POP POP POP PUSH1 0x40 MLOAD RETURNDATASIZE PUSH1 0x1F NOT PUSH1 0x1F DUP3 ADD AND DUP3 ADD DUP1 PUSH1 0x40 MSTORE POP DUP2 ADD SWAP1 PUSH2 0x11CD SWAP2 SWAP1 PUSH2 0x1586 JUMP JUMPDEST SWAP1 POP DUP1 ISZERO PUSH2 0x123F JUMPI DUP1 DUP3 GT ISZERO PUSH2 0x120E JUMPI PUSH1 0x4 DUP1 SLOAD PUSH1 0x40 MLOAD PUSH4 0xA9059CBB PUSH1 0xE0 SHL DUP2 MSTORE PUSH1 0x1 PUSH1 0x1 PUSH1 0xA0 SHL SUB SWAP1 SWAP2 AND SWAP2 PUSH4 0xA9059CBB SWAP2 PUSH2 0xAA0 SWAP2 DUP8 SWAP2 DUP7 SWAP2 ADD PUSH2 0x1552 JUMP JUMPDEST PUSH1 0x4 DUP1 SLOAD PUSH1 0x40 MLOAD PUSH4 0xA9059CBB PUSH1 0xE0 SHL DUP2 MSTORE PUSH1 0x1 PUSH1 0x1 PUSH1 0xA0 SHL SUB SWAP1 SWAP2 AND SWAP2 PUSH4 0xA9059CBB SWAP2 PUSH2 0xAA0 SWAP2 DUP8 SWAP2 DUP8 SWAP2 ADD PUSH2 0x1552 JUMP JUMPDEST POP POP POP JUMP JUMPDEST PUSH0 PUSH2 0x124F DUP4 DUP4 PUSH2 0x1318 JUMP JUMPDEST SWAP4 SWAP3 POP POP POP JUMP JUMPDEST PUSH1 0x5 SLOAD PUSH0 JUMPDEST DUP2 DUP2 LT ISZERO PUSH2 0x123F JUMPI DUP3 PUSH1 0x1 PUSH1 0x1 PUSH1 0xA0 SHL SUB AND PUSH1 0x5 DUP3 DUP2 SLOAD DUP2 LT PUSH2 0x1280 JUMPI PUSH2 0x1280 PUSH2 0x14CE JUMP JUMPDEST PUSH0 SWAP2 DUP3 MSTORE PUSH1 0x20 SWAP1 SWAP2 KECCAK256 PUSH1 0x6 SWAP1 SWAP2 MUL ADD SLOAD PUSH1 0x1 PUSH1 0x1 PUSH1 0xA0 SHL SUB AND SUB PUSH2 0x12E6 JUMPI PUSH1 0x40 MLOAD PUSH3 0x461BCD PUSH1 0xE5 SHL DUP2 MSTORE PUSH1 0x20 PUSH1 0x4 DUP3 ADD MSTORE PUSH1 0x1F PUSH1 0x24 DUP3 ADD MSTORE PUSH32 0x5875736447656E65736973506F6F6C3A206578697374696E6720706F6F6C3F00 PUSH1 0x44 DUP3 ADD MSTORE PUSH1 0x64 ADD PUSH2 0x3CF JUMP JUMPDEST PUSH1 0x1 ADD PUSH2 0x125B JUMP JUMPDEST PUSH0 PUSH2 0x4D7 DUP3 SLOAD SWAP1 JUMP JUMPDEST PUSH1 0x1 PUSH1 0x1 PUSH1 0xA0 SHL SUB DUP2 AND PUSH0 SWAP1 DUP2 MSTORE PUSH1 0x1 DUP4 ADD PUSH1 0x20 MSTORE PUSH1 0x40 DUP2 KECCAK256 SLOAD ISZERO ISZERO PUSH2 0x124F JUMP JUMPDEST PUSH0 DUP3 PUSH0 ADD DUP3 DUP2 SLOAD DUP2 LT PUSH2 0x132D JUMPI PUSH2 0x132D PUSH2 0x14CE JUMP JUMPDEST SWAP1 PUSH0 MSTORE PUSH1 0x20 PUSH0 KECCAK256 ADD SLOAD SWAP1 POP SWAP3 SWAP2 POP POP JUMP JUMPDEST PUSH0 PUSH1 0x20 DUP3 DUP5 SUB SLT ISZERO PUSH2 0x134E JUMPI PUSH0 PUSH0 REVERT JUMPDEST POP CALLDATALOAD SWAP2 SWAP1 POP JUMP JUMPDEST PUSH0 PUSH0 PUSH1 0x40 DUP4 DUP6 SUB SLT ISZERO PUSH2 0x1366 JUMPI PUSH0 PUSH0 REVERT JUMPDEST POP POP DUP1 CALLDATALOAD SWAP3 PUSH1 0x20 SWAP1 SWAP2 ADD CALLDATALOAD SWAP2 POP JUMP JUMPDEST PUSH1 0x1 PUSH1 0x1 PUSH1 0xA0 SHL SUB DUP2 AND DUP2 EQ PUSH2 0x1389 JUMPI PUSH0 PUSH0 REVERT JUMPDEST POP JUMP JUMPDEST PUSH0 PUSH0 PUSH0 PUSH1 0x60 DUP5 DUP7 SUB SLT ISZERO PUSH2 0x139E JUMPI PUSH0 PUSH0 REVERT JUMPDEST DUP4 CALLDATALOAD PUSH2 0x13A9 DUP2 PUSH2 0x1375 JUMP JUMPDEST SWAP3 POP PUSH1 0x20 DUP5 ADD CALLDATALOAD SWAP2 POP PUSH1 0x40 DUP5 ADD CALLDATALOAD PUSH2 0x13C0 DUP2 PUSH2 0x1375 JUMP JUMPDEST DUP1 SWAP2 POP POP SWAP3 POP SWAP3 POP SWAP3 JUMP JUMPDEST PUSH1 0x1 PUSH1 0x1 PUSH1 0xA0 SHL SUB SWAP2 SWAP1 SWAP2 AND DUP2 MSTORE PUSH1 0x20 ADD SWAP1 JUMP JUMPDEST DUP1 ISZERO ISZERO DUP2 EQ PUSH2 0x1389 JUMPI PUSH0 PUSH0 REVERT JUMPDEST PUSH0 PUSH0 PUSH0 PUSH0 PUSH0 PUSH1 0xA0 DUP7 DUP9 SUB SLT ISZERO PUSH2 0x1400 JUMPI PUSH0 PUSH0 REVERT JUMPDEST DUP6 CALLDATALOAD SWAP5 POP PUSH1 0x20 DUP7 ADD CALLDATALOAD PUSH2 0x1412 DUP2 PUSH2 0x1375 JUMP JUMPDEST SWAP4 POP PUSH1 0x40 DUP7 ADD CALLDATALOAD PUSH2 0x1422 DUP2 PUSH2 0x13DF JUMP JUMPDEST SWAP5 SWAP8 SWAP4 SWAP7 POP SWAP4 SWAP5 PUSH1 0x60 DUP2 ADD CALLDATALOAD SWAP5 POP PUSH1 0x80 ADD CALLDATALOAD SWAP3 SWAP2 POP POP JUMP JUMPDEST PUSH0 PUSH0 PUSH1 0x40 DUP4 DUP6 SUB SLT ISZERO PUSH2 0x144B JUMPI PUSH0 PUSH0 REVERT JUMPDEST DUP3 CALLDATALOAD SWAP2 POP PUSH1 0x20 DUP4 ADD CALLDATALOAD PUSH2 0x145D DUP2 PUSH2 0x1375 JUMP JUMPDEST DUP1 SWAP2 POP POP SWAP3 POP SWAP3 SWAP1 POP JUMP JUMPDEST PUSH0 PUSH1 0x20 DUP3 DUP5 SUB SLT ISZERO PUSH2 0x1478 JUMPI PUSH0 PUSH0 REVERT JUMPDEST DUP2 CALLDATALOAD PUSH2 0x124F DUP2 PUSH2 0x1375 JUMP JUMPDEST PUSH1 0x20 DUP1 DUP3 MSTORE PUSH1 0x2B SWAP1 DUP3 ADD MSTORE PUSH32 0x5875736447656E65736973506F6F6C3A2063616C6C6572206973206E6F742074 PUSH1 0x40 DUP3 ADD MSTORE PUSH11 0x34329037B832B930BA37B9 PUSH1 0xA9 SHL PUSH1 0x60 DUP3 ADD MSTORE PUSH1 0x80 ADD SWAP1 JUMP JUMPDEST PUSH4 0x4E487B71 PUSH1 0xE0 SHL PUSH0 MSTORE PUSH1 0x32 PUSH1 0x4 MSTORE PUSH1 0x24 PUSH0 REVERT JUMPDEST PUSH4 0x4E487B71 PUSH1 0xE0 SHL PUSH0 MSTORE PUSH1 0x11 PUSH1 0x4 MSTORE PUSH1 0x24 PUSH0 REVERT JUMPDEST DUP2 DUP2 SUB DUP2 DUP2 GT ISZERO PUSH2 0x4D7 JUMPI PUSH2 0x4D7 PUSH2 0x14E2 JUMP JUMPDEST DUP1 DUP3 ADD DUP1 DUP3 GT ISZERO PUSH2 0x4D7 JUMPI PUSH2 0x4D7 PUSH2 0x14E2 JUMP JUMPDEST DUP1 DUP3 MUL DUP2 ISZERO DUP3 DUP3 DIV DUP5 EQ OR PUSH2 0x4D7 JUMPI PUSH2 0x4D7 PUSH2 0x14E2 JUMP JUMPDEST PUSH0 DUP3 PUSH2 0x154D JUMPI PUSH4 0x4E487B71 PUSH1 0xE0 SHL PUSH0 MSTORE PUSH1 0x12 PUSH1 0x4 MSTORE PUSH1 0x24 PUSH0 REVERT JUMPDEST POP DIV SWAP1 JUMP JUMPDEST PUSH1 0x1 PUSH1 0x1 PUSH1 0xA0 SHL SUB SWAP3 SWAP1 SWAP3 AND DUP3 MSTORE PUSH1 0x20 DUP3 ADD MSTORE PUSH1 0x40 ADD SWAP1 JUMP JUMPDEST PUSH0 PUSH1 0x20 DUP3 DUP5 SUB SLT ISZERO PUSH2 0x157B JUMPI PUSH0 PUSH0 REVERT JUMPDEST DUP2 MLOAD PUSH2 0x124F DUP2 PUSH2 0x13DF JUMP JUMPDEST PUSH0 PUSH1 0x20 DUP3 DUP5 SUB SLT ISZERO PUSH2 0x1596 JUMPI PUSH0 PUSH0 REVERT JUMPDEST POP MLOAD SWAP2 SWAP1 POP JUMP INVALID LOG2 PUSH5 0x6970667358 0x22 SLT KECCAK256 0xE3 SWAP12 PUSH12 0xA85B135184ADEF6900236C7E DUP14 SWAP6 RETURNDATACOPY 0xB4 EXP 0xC5 PUSH23 0x770644FB1D557B358BCF64736F6C634300081B00330000 "
		},
		"gasEstimates": {
			"creation": {
				"codeDepositCost": "1117400",
				"executionCost": "infinite",
				"totalCost": "infinite"
			},
			"external": {
				"Xusd()": "2492",
				"XusdPerSecond()": "2328",
				"add(uint256,address,bool,uint256,uint256)": "infinite",
				"comissionPercent()": "2394",
				"comissionToken(uint256)": "4843",
				"comissionTokensCount()": "2377",
				"deposit(uint256,uint256)": "infinite",
				"emergencyWithdraw(uint256)": "infinite",
				"getGeneratedReward(uint256,uint256)": "infinite",
				"governanceRecoverUnsupported(address,uint256,address)": "infinite",
				"massUpdatePools()": "infinite",
				"operator()": "2449",
				"pendingXusd(uint256,address)": "infinite",
				"poolEndTime()": "2394",
				"poolInfo(uint256)": "15357",
				"poolStartTime()": "2306",
				"runningTime()": "2349",
				"set(uint256,uint256)": "infinite",
				"setOperator(address)": "26791",
				"totalAllocPoint()": "2351",
				"totalRewards()": "2307",
				"updatePool(uint256)": "infinite",
				"userInfo(uint256,address)": "4795",
				"withdraw(uint256,uint256)": "infinite"
			},
			"internal": {
				"checkPoolDuplicate(contract IERC20)": "infinite",
				"safeXusdTransfer(address,uint256)": "infinite"
			}
		},
		"methodIdentifiers": {
			"Xusd()": "f25bb865",
			"XusdPerSecond()": "628b409f",
			"add(uint256,address,bool,uint256,uint256)": "62e006c7",
			"comissionPercent()": "5715f8f9",
			"comissionToken(uint256)": "5b142956",
			"comissionTokensCount()": "92fae48d",
			"deposit(uint256,uint256)": "e2bbb158",
			"emergencyWithdraw(uint256)": "5312ea8e",
			"getGeneratedReward(uint256,uint256)": "231f0c6a",
			"governanceRecoverUnsupported(address,uint256,address)": "54575af4",
			"massUpdatePools()": "630b5ba1",
			"operator()": "570ca735",
			"pendingXusd(uint256,address)": "7805583c",
			"poolEndTime()": "6e271dd5",
			"poolInfo(uint256)": "1526fe27",
			"poolStartTime()": "5f96dc11",
			"runningTime()": "943f013d",
			"set(uint256,uint256)": "1ab06ee5",
			"setOperator(address)": "b3ab15fb",
			"totalAllocPoint()": "17caf6f1",
			"totalRewards()": "0e15561a",
			"updatePool(uint256)": "51eb05a6",
			"userInfo(uint256,address)": "93f1a40b",
			"withdraw(uint256,uint256)": "441a3e70"
		}
	},
	"abi": [
		{
			"inputs": [
				{
					"internalType": "address",
					"name": "_Xusd",
					"type": "address"
				},
				{
					"internalType": "address[]",
					"name": "comissionTokens_",
					"type": "address[]"
				},
				{
					"internalType": "uint256",
					"name": "_comissionPercent",
					"type": "uint256"
				},
				{
					"internalType": "uint256",
					"name": "_poolStartTime",
					"type": "uint256"
				},
				{
					"internalType": "uint256",
					"name": "_totalRewards",
					"type": "uint256"
				},
				{
					"internalType": "uint256",
					"name": "_runningTime",
					"type": "uint256"
				}
			],
			"stateMutability": "nonpayable",
			"type": "constructor"
		},
		{
			"anonymous": false,
			"inputs": [
				{
					"indexed": true,
					"internalType": "address",
					"name": "user",
					"type": "address"
				},
				{
					"indexed": true,
					"internalType": "uint256",
					"name": "pid",
					"type": "uint256"
				},
				{
					"indexed": false,
					"internalType": "uint256",
					"name": "amount",
					"type": "uint256"
				}
			],
			"name": "Deposit",
			"type": "event"
		},
		{
			"anonymous": false,
			"inputs": [
				{
					"indexed": true,
					"internalType": "address",
					"name": "user",
					"type": "address"
				},
				{
					"indexed": true,
					"internalType": "uint256",
					"name": "pid",
					"type": "uint256"
				},
				{
					"indexed": false,
					"internalType": "uint256",
					"name": "amount",
					"type": "uint256"
				}
			],
			"name": "EmergencyWithdraw",
			"type": "event"
		},
		{
			"anonymous": false,
			"inputs": [
				{
					"indexed": true,
					"internalType": "address",
					"name": "user",
					"type": "address"
				},
				{
					"indexed": false,
					"internalType": "uint256",
					"name": "amount",
					"type": "uint256"
				}
			],
			"name": "RewardPaid",
			"type": "event"
		},
		{
			"anonymous": false,
			"inputs": [
				{
					"indexed": true,
					"internalType": "address",
					"name": "user",
					"type": "address"
				},
				{
					"indexed": true,
					"internalType": "uint256",
					"name": "pid",
					"type": "uint256"
				},
				{
					"indexed": false,
					"internalType": "uint256",
					"name": "amount",
					"type": "uint256"
				}
			],
			"name": "Withdraw",
			"type": "event"
		},
		{
			"inputs": [],
			"name": "Xusd",
			"outputs": [
				{
					"internalType": "contract IERC20",
					"name": "",
					"type": "address"
				}
			],
			"stateMutability": "view",
			"type": "function"
		},
		{
			"inputs": [],
			"name": "XusdPerSecond",
			"outputs": [
				{
					"internalType": "uint256",
					"name": "",
					"type": "uint256"
				}
			],
			"stateMutability": "view",
			"type": "function"
		},
		{
			"inputs": [
				{
					"internalType": "uint256",
					"name": "_allocPoint",
					"type": "uint256"
				},
				{
					"internalType": "contract IERC20",
					"name": "_token",
					"type": "address"
				},
				{
					"internalType": "bool",
					"name": "_withUpdate",
					"type": "bool"
				},
				{
					"internalType": "uint256",
					"name": "_lastRewardTime",
					"type": "uint256"
				},
				{
					"internalType": "uint256",
					"name": "_maxDeposit",
					"type": "uint256"
				}
			],
			"name": "add",
			"outputs": [],
			"stateMutability": "nonpayable",
			"type": "function"
		},
		{
			"inputs": [],
			"name": "comissionPercent",
			"outputs": [
				{
					"internalType": "uint256",
					"name": "",
					"type": "uint256"
				}
			],
			"stateMutability": "view",
			"type": "function"
		},
		{
			"inputs": [
				{
					"internalType": "uint256",
					"name": "index",
					"type": "uint256"
				}
			],
			"name": "comissionToken",
			"outputs": [
				{
					"internalType": "address",
					"name": "",
					"type": "address"
				}
			],
			"stateMutability": "view",
			"type": "function"
		},
		{
			"inputs": [],
			"name": "comissionTokensCount",
			"outputs": [
				{
					"internalType": "uint256",
					"name": "",
					"type": "uint256"
				}
			],
			"stateMutability": "view",
			"type": "function"
		},
		{
			"inputs": [
				{
					"internalType": "uint256",
					"name": "_pid",
					"type": "uint256"
				},
				{
					"internalType": "uint256",
					"name": "_amount",
					"type": "uint256"
				}
			],
			"name": "deposit",
			"outputs": [],
			"stateMutability": "nonpayable",
			"type": "function"
		},
		{
			"inputs": [
				{
					"internalType": "uint256",
					"name": "_pid",
					"type": "uint256"
				}
			],
			"name": "emergencyWithdraw",
			"outputs": [],
			"stateMutability": "nonpayable",
			"type": "function"
		},
		{
			"inputs": [
				{
					"internalType": "uint256",
					"name": "_fromTime",
					"type": "uint256"
				},
				{
					"internalType": "uint256",
					"name": "_toTime",
					"type": "uint256"
				}
			],
			"name": "getGeneratedReward",
			"outputs": [
				{
					"internalType": "uint256",
					"name": "",
					"type": "uint256"
				}
			],
			"stateMutability": "view",
			"type": "function"
		},
		{
			"inputs": [
				{
					"internalType": "contract IERC20",
					"name": "_token",
					"type": "address"
				},
				{
					"internalType": "uint256",
					"name": "amount",
					"type": "uint256"
				},
				{
					"internalType": "address",
					"name": "to",
					"type": "address"
				}
			],
			"name": "governanceRecoverUnsupported",
			"outputs": [],
			"stateMutability": "nonpayable",
			"type": "function"
		},
		{
			"inputs": [],
			"name": "massUpdatePools",
			"outputs": [],
			"stateMutability": "nonpayable",
			"type": "function"
		},
		{
			"inputs": [],
			"name": "operator",
			"outputs": [
				{
					"internalType": "address",
					"name": "",
					"type": "address"
				}
			],
			"stateMutability": "view",
			"type": "function"
		},
		{
			"inputs": [
				{
					"internalType": "uint256",
					"name": "_pid",
					"type": "uint256"
				},
				{
					"internalType": "address",
					"name": "_user",
					"type": "address"
				}
			],
			"name": "pendingXusd",
			"outputs": [
				{
					"internalType": "uint256",
					"name": "",
					"type": "uint256"
				}
			],
			"stateMutability": "view",
			"type": "function"
		},
		{
			"inputs": [],
			"name": "poolEndTime",
			"outputs": [
				{
					"internalType": "uint256",
					"name": "",
					"type": "uint256"
				}
			],
			"stateMutability": "view",
			"type": "function"
		},
		{
			"inputs": [
				{
					"internalType": "uint256",
					"name": "",
					"type": "uint256"
				}
			],
			"name": "poolInfo",
			"outputs": [
				{
					"internalType": "contract IERC20",
					"name": "token",
					"type": "address"
				},
				{
					"internalType": "uint256",
					"name": "allocPoint",
					"type": "uint256"
				},
				{
					"internalType": "uint256",
					"name": "lastRewardTime",
					"type": "uint256"
				},
				{
					"internalType": "uint256",
					"name": "accXusdPerShare",
					"type": "uint256"
				},
				{
					"internalType": "bool",
					"name": "isStarted",
					"type": "bool"
				},
				{
					"internalType": "uint256",
					"name": "maxDeposit",
					"type": "uint256"
				}
			],
			"stateMutability": "view",
			"type": "function"
		},
		{
			"inputs": [],
			"name": "poolStartTime",
			"outputs": [
				{
					"internalType": "uint256",
					"name": "",
					"type": "uint256"
				}
			],
			"stateMutability": "view",
			"type": "function"
		},
		{
			"inputs": [],
			"name": "runningTime",
			"outputs": [
				{
					"internalType": "uint256",
					"name": "",
					"type": "uint256"
				}
			],
			"stateMutability": "view",
			"type": "function"
		},
		{
			"inputs": [
				{
					"internalType": "uint256",
					"name": "_pid",
					"type": "uint256"
				},
				{
					"internalType": "uint256",
					"name": "_allocPoint",
					"type": "uint256"
				}
			],
			"name": "set",
			"outputs": [],
			"stateMutability": "nonpayable",
			"type": "function"
		},
		{
			"inputs": [
				{
					"internalType": "address",
					"name": "_operator",
					"type": "address"
				}
			],
			"name": "setOperator",
			"outputs": [],
			"stateMutability": "nonpayable",
			"type": "function"
		},
		{
			"inputs": [],
			"name": "totalAllocPoint",
			"outputs": [
				{
					"internalType": "uint256",
					"name": "",
					"type": "uint256"
				}
			],
			"stateMutability": "view",
			"type": "function"
		},
		{
			"inputs": [],
			"name": "totalRewards",
			"outputs": [
				{
					"internalType": "uint256",
					"name": "",
					"type": "uint256"
				}
			],
			"stateMutability": "view",
			"type": "function"
		},
		{
			"inputs": [
				{
					"internalType": "uint256",
					"name": "_pid",
					"type": "uint256"
				}
			],
			"name": "updatePool",
			"outputs": [],
			"stateMutability": "nonpayable",
			"type": "function"
		},
		{
			"inputs": [
				{
					"internalType": "uint256",
					"name": "",
					"type": "uint256"
				},
				{
					"internalType": "address",
					"name": "",
					"type": "address"
				}
			],
			"name": "userInfo",
			"outputs": [
				{
					"internalType": "uint256",
					"name": "amount",
					"type": "uint256"
				},
				{
					"internalType": "uint256",
					"name": "rewardDebt",
					"type": "uint256"
				}
			],
			"stateMutability": "view",
			"type": "function"
		},
		{
			"inputs": [
				{
					"internalType": "uint256",
					"name": "_pid",
					"type": "uint256"
				},
				{
					"internalType": "uint256",
					"name": "_amount",
					"type": "uint256"
				}
			],
			"name": "withdraw",
			"outputs": [],
			"stateMutability": "nonpayable",
			"type": "function"
		}
	]
}